{
  "contractName": "AwardOfContractModel",
  "abi": [
    {
      "inputs": [
        {
          "internalType": "address",
          "name": "_Member",
          "type": "address"
        },
        {
          "internalType": "address",
          "name": "_List",
          "type": "address"
        },
        {
          "internalType": "address",
          "name": "_Map",
          "type": "address"
        },
        {
          "internalType": "address",
          "name": "_quireContracts",
          "type": "address"
        }
      ],
      "stateMutability": "nonpayable",
      "type": "constructor"
    },
    {
      "inputs": [
        {
          "internalType": "bytes8",
          "name": "_uid",
          "type": "bytes8"
        }
      ],
      "name": "getAocIndex",
      "outputs": [
        {
          "internalType": "uint256",
          "name": "",
          "type": "uint256"
        }
      ],
      "stateMutability": "view",
      "type": "function"
    },
    {
      "inputs": [
        {
          "internalType": "bytes8",
          "name": "_uid",
          "type": "bytes8"
        }
      ],
      "name": "getAocsIndexByAwardRefOrgId",
      "outputs": [
        {
          "internalType": "uint256[]",
          "name": "indexList_",
          "type": "uint256[]"
        }
      ],
      "stateMutability": "view",
      "type": "function"
    },
    {
      "inputs": [
        {
          "internalType": "string",
          "name": "_gid",
          "type": "string"
        }
      ],
      "name": "getVendorAocIndices",
      "outputs": [
        {
          "internalType": "uint256[]",
          "name": "vendorAocs_",
          "type": "uint256[]"
        }
      ],
      "stateMutability": "view",
      "type": "function"
    },
    {
      "inputs": [],
      "name": "getAocListLength",
      "outputs": [
        {
          "internalType": "uint256",
          "name": "",
          "type": "uint256"
        }
      ],
      "stateMutability": "view",
      "type": "function"
    },
    {
      "inputs": [
        {
          "internalType": "uint256",
          "name": "_index",
          "type": "uint256"
        }
      ],
      "name": "getAocByIndex",
      "outputs": [
        {
          "components": [
            {
              "internalType": "bytes8",
              "name": "uid",
              "type": "bytes8"
            },
            {
              "internalType": "string",
              "name": "vendorGid",
              "type": "string"
            },
            {
              "internalType": "string",
              "name": "vendorName",
              "type": "string"
            },
            {
              "internalType": "string",
              "name": "tenderReference",
              "type": "string"
            },
            {
              "internalType": "string",
              "name": "awardReference",
              "type": "string"
            },
            {
              "internalType": "string",
              "name": "title",
              "type": "string"
            },
            {
              "internalType": "enum AwardOfContractStructs.AOCStatus",
              "name": "aocStatus",
              "type": "uint8"
            },
            {
              "internalType": "string",
              "name": "contractAwardValue",
              "type": "string"
            },
            {
              "internalType": "string[]",
              "name": "lotName",
              "type": "string[]"
            },
            {
              "internalType": "uint256",
              "name": "awardOfContractDate",
              "type": "uint256"
            },
            {
              "internalType": "string",
              "name": "procuringEntityGid",
              "type": "string"
            },
            {
              "internalType": "string",
              "name": "procuringEntityName",
              "type": "string"
            },
            {
              "internalType": "string",
              "name": "remarks",
              "type": "string"
            },
            {
              "internalType": "string",
              "name": "awardOfContractLink",
              "type": "string"
            },
            {
              "internalType": "string",
              "name": "orgId",
              "type": "string"
            },
            {
              "internalType": "uint16",
              "name": "version",
              "type": "uint16"
            }
          ],
          "internalType": "struct AwardOfContractStructs.AOC",
          "name": "aoc_",
          "type": "tuple"
        }
      ],
      "stateMutability": "view",
      "type": "function"
    },
    {
      "inputs": [
        {
          "internalType": "uint256",
          "name": "_toExcluded",
          "type": "uint256"
        },
        {
          "internalType": "uint256",
          "name": "_count",
          "type": "uint256"
        }
      ],
      "name": "getAllAoc",
      "outputs": [
        {
          "components": [
            {
              "internalType": "bytes8",
              "name": "uid",
              "type": "bytes8"
            },
            {
              "internalType": "string",
              "name": "vendorGid",
              "type": "string"
            },
            {
              "internalType": "string",
              "name": "vendorName",
              "type": "string"
            },
            {
              "internalType": "string",
              "name": "tenderReference",
              "type": "string"
            },
            {
              "internalType": "string",
              "name": "awardReference",
              "type": "string"
            },
            {
              "internalType": "string",
              "name": "title",
              "type": "string"
            },
            {
              "internalType": "enum AwardOfContractStructs.AOCStatus",
              "name": "aocStatus",
              "type": "uint8"
            },
            {
              "internalType": "string",
              "name": "contractAwardValue",
              "type": "string"
            },
            {
              "internalType": "string[]",
              "name": "lotName",
              "type": "string[]"
            },
            {
              "internalType": "uint256",
              "name": "awardOfContractDate",
              "type": "uint256"
            },
            {
              "internalType": "string",
              "name": "procuringEntityGid",
              "type": "string"
            },
            {
              "internalType": "string",
              "name": "procuringEntityName",
              "type": "string"
            },
            {
              "internalType": "string",
              "name": "remarks",
              "type": "string"
            },
            {
              "internalType": "string",
              "name": "awardOfContractLink",
              "type": "string"
            },
            {
              "internalType": "string",
              "name": "orgId",
              "type": "string"
            },
            {
              "internalType": "uint16",
              "name": "version",
              "type": "uint16"
            }
          ],
          "internalType": "struct AwardOfContractStructs.AOC[]",
          "name": "_aoc",
          "type": "tuple[]"
        },
        {
          "internalType": "uint256",
          "name": "fromIncluded_",
          "type": "uint256"
        },
        {
          "internalType": "uint256",
          "name": "length_",
          "type": "uint256"
        }
      ],
      "stateMutability": "view",
      "type": "function"
    },
    {
      "inputs": [
        {
          "internalType": "uint256",
          "name": "_index",
          "type": "uint256"
        }
      ],
      "name": "getAocUid",
      "outputs": [
        {
          "internalType": "bytes8",
          "name": "",
          "type": "bytes8"
        }
      ],
      "stateMutability": "view",
      "type": "function"
    },
    {
      "inputs": [
        {
          "internalType": "uint256",
          "name": "_index",
          "type": "uint256"
        }
      ],
      "name": "getAocVendorGid",
      "outputs": [
        {
          "internalType": "string",
          "name": "",
          "type": "string"
        }
      ],
      "stateMutability": "view",
      "type": "function"
    },
    {
      "inputs": [
        {
          "internalType": "uint256",
          "name": "_index",
          "type": "uint256"
        }
      ],
      "name": "getAocVendorName",
      "outputs": [
        {
          "internalType": "string",
          "name": "",
          "type": "string"
        }
      ],
      "stateMutability": "view",
      "type": "function"
    },
    {
      "inputs": [
        {
          "internalType": "uint256",
          "name": "_index",
          "type": "uint256"
        }
      ],
      "name": "getAocTenderReference",
      "outputs": [
        {
          "internalType": "string",
          "name": "",
          "type": "string"
        }
      ],
      "stateMutability": "view",
      "type": "function"
    },
    {
      "inputs": [
        {
          "internalType": "uint256",
          "name": "_index",
          "type": "uint256"
        }
      ],
      "name": "getAocAwardReference",
      "outputs": [
        {
          "internalType": "string",
          "name": "",
          "type": "string"
        }
      ],
      "stateMutability": "view",
      "type": "function"
    },
    {
      "inputs": [
        {
          "internalType": "uint256",
          "name": "_index",
          "type": "uint256"
        }
      ],
      "name": "getAocStatus",
      "outputs": [
        {
          "internalType": "enum AwardOfContractStructs.AOCStatus",
          "name": "",
          "type": "uint8"
        }
      ],
      "stateMutability": "view",
      "type": "function"
    },
    {
      "inputs": [
        {
          "internalType": "uint256",
          "name": "_index",
          "type": "uint256"
        }
      ],
      "name": "getAocTitle",
      "outputs": [
        {
          "internalType": "string",
          "name": "",
          "type": "string"
        }
      ],
      "stateMutability": "view",
      "type": "function"
    },
    {
      "inputs": [
        {
          "internalType": "uint256",
          "name": "_index",
          "type": "uint256"
        }
      ],
      "name": "getAocCavTender",
      "outputs": [
        {
          "internalType": "string",
          "name": "",
          "type": "string"
        }
      ],
      "stateMutability": "view",
      "type": "function"
    },
    {
      "inputs": [
        {
          "internalType": "uint256",
          "name": "_index",
          "type": "uint256"
        }
      ],
      "name": "getAocLotName",
      "outputs": [
        {
          "internalType": "string[]",
          "name": "lotName_",
          "type": "string[]"
        }
      ],
      "stateMutability": "view",
      "type": "function"
    },
    {
      "inputs": [
        {
          "internalType": "uint256",
          "name": "_index",
          "type": "uint256"
        }
      ],
      "name": "getAocContractDate",
      "outputs": [
        {
          "internalType": "uint256",
          "name": "",
          "type": "uint256"
        }
      ],
      "stateMutability": "view",
      "type": "function"
    },
    {
      "inputs": [
        {
          "internalType": "uint256",
          "name": "_index",
          "type": "uint256"
        }
      ],
      "name": "getAocProcEntityGid",
      "outputs": [
        {
          "internalType": "string",
          "name": "",
          "type": "string"
        }
      ],
      "stateMutability": "view",
      "type": "function"
    },
    {
      "inputs": [
        {
          "internalType": "uint256",
          "name": "_index",
          "type": "uint256"
        }
      ],
      "name": "getAocProcEntityName",
      "outputs": [
        {
          "internalType": "string",
          "name": "",
          "type": "string"
        }
      ],
      "stateMutability": "view",
      "type": "function"
    },
    {
      "inputs": [
        {
          "internalType": "uint256",
          "name": "_index",
          "type": "uint256"
        }
      ],
      "name": "getAocRemarks",
      "outputs": [
        {
          "internalType": "string",
          "name": "",
          "type": "string"
        }
      ],
      "stateMutability": "view",
      "type": "function"
    },
    {
      "inputs": [
        {
          "internalType": "uint256",
          "name": "_index",
          "type": "uint256"
        }
      ],
      "name": "getAocAocLink",
      "outputs": [
        {
          "internalType": "string",
          "name": "",
          "type": "string"
        }
      ],
      "stateMutability": "view",
      "type": "function"
    },
    {
      "inputs": [
        {
          "internalType": "uint256",
          "name": "_index",
          "type": "uint256"
        }
      ],
      "name": "getAocOrgId",
      "outputs": [
        {
          "internalType": "string",
          "name": "",
          "type": "string"
        }
      ],
      "stateMutability": "view",
      "type": "function"
    },
    {
      "inputs": [
        {
          "internalType": "uint256",
          "name": "_index",
          "type": "uint256"
        }
      ],
      "name": "getAocVersion",
      "outputs": [
        {
          "internalType": "uint16",
          "name": "",
          "type": "uint16"
        }
      ],
      "stateMutability": "view",
      "type": "function"
    },
    {
      "inputs": [
        {
          "internalType": "string",
          "name": "_procuringEntityGid",
          "type": "string"
        },
        {
          "internalType": "uint256",
          "name": "_toExcluded",
          "type": "uint256"
        },
        {
          "internalType": "uint256",
          "name": "_count",
          "type": "uint256"
        }
      ],
      "name": "getAocsByPeGid",
      "outputs": [
        {
          "internalType": "uint256[]",
          "name": "_aocsByPeGid",
          "type": "uint256[]"
        },
        {
          "internalType": "uint256",
          "name": "fromIncluded_",
          "type": "uint256"
        },
        {
          "internalType": "uint256",
          "name": "length_",
          "type": "uint256"
        }
      ],
      "stateMutability": "view",
      "type": "function"
    },
    {
      "inputs": [
        {
          "internalType": "string",
          "name": "_orgId",
          "type": "string"
        },
        {
          "internalType": "uint256",
          "name": "_toExcluded",
          "type": "uint256"
        },
        {
          "internalType": "uint256",
          "name": "_count",
          "type": "uint256"
        }
      ],
      "name": "getAocsByOrgId",
      "outputs": [
        {
          "internalType": "uint256[]",
          "name": "_aocsByOrgId",
          "type": "uint256[]"
        },
        {
          "internalType": "uint256",
          "name": "fromIncluded_",
          "type": "uint256"
        },
        {
          "internalType": "uint256",
          "name": "length_",
          "type": "uint256"
        }
      ],
      "stateMutability": "view",
      "type": "function"
    },
    {
      "inputs": [
        {
          "internalType": "bytes8",
          "name": "_aocVendorOrgId",
          "type": "bytes8"
        },
        {
          "internalType": "uint256",
          "name": "_toExcluded",
          "type": "uint256"
        },
        {
          "internalType": "uint256",
          "name": "_count",
          "type": "uint256"
        }
      ],
      "name": "getAocsByVendorGidAndOrgId",
      "outputs": [
        {
          "internalType": "uint256[]",
          "name": "_aocsByVendorGidAndOrgId",
          "type": "uint256[]"
        },
        {
          "internalType": "uint256",
          "name": "fromIncluded_",
          "type": "uint256"
        },
        {
          "internalType": "uint256",
          "name": "length_",
          "type": "uint256"
        }
      ],
      "stateMutability": "view",
      "type": "function"
    },
    {
      "inputs": [
        {
          "internalType": "bytes8",
          "name": "_aocTenderRefOrgId",
          "type": "bytes8"
        },
        {
          "internalType": "uint256",
          "name": "_toExcluded",
          "type": "uint256"
        },
        {
          "internalType": "uint256",
          "name": "_count",
          "type": "uint256"
        }
      ],
      "name": "getAocsByTenderRefAndOrgId",
      "outputs": [
        {
          "internalType": "uint256[]",
          "name": "_aocsByTenderRefAndOrgId",
          "type": "uint256[]"
        },
        {
          "internalType": "uint256",
          "name": "fromIncluded_",
          "type": "uint256"
        },
        {
          "internalType": "uint256",
          "name": "length_",
          "type": "uint256"
        }
      ],
      "stateMutability": "view",
      "type": "function"
    },
    {
      "inputs": [
        {
          "internalType": "bytes8",
          "name": "_aocPeVendorGid",
          "type": "bytes8"
        },
        {
          "internalType": "uint256",
          "name": "_toExcluded",
          "type": "uint256"
        },
        {
          "internalType": "uint256",
          "name": "_count",
          "type": "uint256"
        }
      ],
      "name": "getAocsByPeAndVendorGid",
      "outputs": [
        {
          "internalType": "uint256[]",
          "name": "_aocsByPeAndVendorGid",
          "type": "uint256[]"
        },
        {
          "internalType": "uint256",
          "name": "fromIncluded_",
          "type": "uint256"
        },
        {
          "internalType": "uint256",
          "name": "length_",
          "type": "uint256"
        }
      ],
      "stateMutability": "view",
      "type": "function"
    },
    {
      "inputs": [
        {
          "internalType": "bytes8",
          "name": "_uid",
          "type": "bytes8"
        },
        {
          "internalType": "uint256",
          "name": "_value",
          "type": "uint256"
        }
      ],
      "name": "addAocIndexByAwardRefOrgId",
      "outputs": [],
      "stateMutability": "nonpayable",
      "type": "function"
    },
    {
      "inputs": [
        {
          "internalType": "bytes8",
          "name": "_uid",
          "type": "bytes8"
        },
        {
          "internalType": "uint256",
          "name": "_value",
          "type": "uint256"
        }
      ],
      "name": "setAocIndex",
      "outputs": [],
      "stateMutability": "nonpayable",
      "type": "function"
    },
    {
      "inputs": [
        {
          "internalType": "string",
          "name": "_gid",
          "type": "string"
        },
        {
          "internalType": "uint256",
          "name": "_value",
          "type": "uint256"
        }
      ],
      "name": "addVendorAocIndex",
      "outputs": [],
      "stateMutability": "nonpayable",
      "type": "function"
    },
    {
      "inputs": [],
      "name": "incAocListLength",
      "outputs": [],
      "stateMutability": "nonpayable",
      "type": "function"
    },
    {
      "inputs": [
        {
          "internalType": "uint256",
          "name": "_index",
          "type": "uint256"
        },
        {
          "components": [
            {
              "internalType": "bytes8",
              "name": "uid",
              "type": "bytes8"
            },
            {
              "internalType": "string",
              "name": "vendorGid",
              "type": "string"
            },
            {
              "internalType": "string",
              "name": "vendorName",
              "type": "string"
            },
            {
              "internalType": "string",
              "name": "tenderReference",
              "type": "string"
            },
            {
              "internalType": "string",
              "name": "awardReference",
              "type": "string"
            },
            {
              "internalType": "string",
              "name": "title",
              "type": "string"
            },
            {
              "internalType": "enum AwardOfContractStructs.AOCStatus",
              "name": "aocStatus",
              "type": "uint8"
            },
            {
              "internalType": "string",
              "name": "contractAwardValue",
              "type": "string"
            },
            {
              "internalType": "string[]",
              "name": "lotName",
              "type": "string[]"
            },
            {
              "internalType": "uint256",
              "name": "awardOfContractDate",
              "type": "uint256"
            },
            {
              "internalType": "string",
              "name": "procuringEntityGid",
              "type": "string"
            },
            {
              "internalType": "string",
              "name": "procuringEntityName",
              "type": "string"
            },
            {
              "internalType": "string",
              "name": "remarks",
              "type": "string"
            },
            {
              "internalType": "string",
              "name": "awardOfContractLink",
              "type": "string"
            },
            {
              "internalType": "string",
              "name": "orgId",
              "type": "string"
            },
            {
              "internalType": "uint16",
              "name": "version",
              "type": "uint16"
            }
          ],
          "internalType": "struct AwardOfContractStructs.AOC",
          "name": "_aoc",
          "type": "tuple"
        }
      ],
      "name": "addAwardOfContract",
      "outputs": [],
      "stateMutability": "nonpayable",
      "type": "function"
    },
    {
      "inputs": [
        {
          "internalType": "uint256",
          "name": "_index",
          "type": "uint256"
        },
        {
          "internalType": "bytes8",
          "name": "_uid",
          "type": "bytes8"
        }
      ],
      "name": "setAocUid",
      "outputs": [],
      "stateMutability": "nonpayable",
      "type": "function"
    },
    {
      "inputs": [
        {
          "internalType": "uint256",
          "name": "_index",
          "type": "uint256"
        },
        {
          "internalType": "string",
          "name": "_gid",
          "type": "string"
        }
      ],
      "name": "setAocVendorGid",
      "outputs": [],
      "stateMutability": "nonpayable",
      "type": "function"
    },
    {
      "inputs": [
        {
          "internalType": "uint256",
          "name": "_index",
          "type": "uint256"
        },
        {
          "internalType": "string",
          "name": "_value",
          "type": "string"
        }
      ],
      "name": "setAocVendorName",
      "outputs": [],
      "stateMutability": "nonpayable",
      "type": "function"
    },
    {
      "inputs": [
        {
          "internalType": "uint256",
          "name": "_index",
          "type": "uint256"
        },
        {
          "internalType": "string",
          "name": "_value",
          "type": "string"
        }
      ],
      "name": "setAocTenderReference",
      "outputs": [],
      "stateMutability": "nonpayable",
      "type": "function"
    },
    {
      "inputs": [
        {
          "internalType": "uint256",
          "name": "_index",
          "type": "uint256"
        },
        {
          "internalType": "string",
          "name": "_value",
          "type": "string"
        }
      ],
      "name": "setAocAwardReference",
      "outputs": [],
      "stateMutability": "nonpayable",
      "type": "function"
    },
    {
      "inputs": [
        {
          "internalType": "uint256",
          "name": "_index",
          "type": "uint256"
        },
        {
          "internalType": "enum AwardOfContractStructs.AOCStatus",
          "name": "_value",
          "type": "uint8"
        }
      ],
      "name": "setAocStatus",
      "outputs": [],
      "stateMutability": "nonpayable",
      "type": "function"
    },
    {
      "inputs": [
        {
          "internalType": "uint256",
          "name": "_index",
          "type": "uint256"
        },
        {
          "internalType": "string",
          "name": "_value",
          "type": "string"
        }
      ],
      "name": "setAocTitle",
      "outputs": [],
      "stateMutability": "nonpayable",
      "type": "function"
    },
    {
      "inputs": [
        {
          "internalType": "uint256",
          "name": "_index",
          "type": "uint256"
        },
        {
          "internalType": "string",
          "name": "_value",
          "type": "string"
        }
      ],
      "name": "setAocCavTender",
      "outputs": [],
      "stateMutability": "nonpayable",
      "type": "function"
    },
    {
      "inputs": [
        {
          "internalType": "uint256",
          "name": "_index",
          "type": "uint256"
        },
        {
          "internalType": "string[]",
          "name": "_value",
          "type": "string[]"
        }
      ],
      "name": "setAocLotName",
      "outputs": [],
      "stateMutability": "nonpayable",
      "type": "function"
    },
    {
      "inputs": [
        {
          "internalType": "uint256",
          "name": "_index",
          "type": "uint256"
        },
        {
          "internalType": "uint256",
          "name": "_awardOfContractDate",
          "type": "uint256"
        }
      ],
      "name": "setAocContractDate",
      "outputs": [],
      "stateMutability": "nonpayable",
      "type": "function"
    },
    {
      "inputs": [
        {
          "internalType": "uint256",
          "name": "_index",
          "type": "uint256"
        },
        {
          "internalType": "string",
          "name": "_gid",
          "type": "string"
        }
      ],
      "name": "setAocProcEntityGid",
      "outputs": [],
      "stateMutability": "nonpayable",
      "type": "function"
    },
    {
      "inputs": [
        {
          "internalType": "uint256",
          "name": "_index",
          "type": "uint256"
        },
        {
          "internalType": "string",
          "name": "_value",
          "type": "string"
        }
      ],
      "name": "setAocProcEntityName",
      "outputs": [],
      "stateMutability": "nonpayable",
      "type": "function"
    },
    {
      "inputs": [
        {
          "internalType": "uint256",
          "name": "_index",
          "type": "uint256"
        },
        {
          "internalType": "string",
          "name": "_value",
          "type": "string"
        }
      ],
      "name": "setAocRemarks",
      "outputs": [],
      "stateMutability": "nonpayable",
      "type": "function"
    },
    {
      "inputs": [
        {
          "internalType": "uint256",
          "name": "_index",
          "type": "uint256"
        },
        {
          "internalType": "string",
          "name": "_value",
          "type": "string"
        }
      ],
      "name": "setAocAocLink",
      "outputs": [],
      "stateMutability": "nonpayable",
      "type": "function"
    },
    {
      "inputs": [
        {
          "internalType": "uint256",
          "name": "_index",
          "type": "uint256"
        },
        {
          "internalType": "string",
          "name": "_value",
          "type": "string"
        }
      ],
      "name": "setAocOrgId",
      "outputs": [],
      "stateMutability": "nonpayable",
      "type": "function"
    },
    {
      "inputs": [
        {
          "internalType": "uint256",
          "name": "_index",
          "type": "uint256"
        }
      ],
      "name": "setAocVersion",
      "outputs": [],
      "stateMutability": "nonpayable",
      "type": "function"
    },
    {
      "inputs": [
        {
          "components": [
            {
              "internalType": "bytes8",
              "name": "uid",
              "type": "bytes8"
            },
            {
              "internalType": "string",
              "name": "vendorGid",
              "type": "string"
            },
            {
              "internalType": "string",
              "name": "vendorName",
              "type": "string"
            },
            {
              "internalType": "string",
              "name": "tenderReference",
              "type": "string"
            },
            {
              "internalType": "string",
              "name": "awardReference",
              "type": "string"
            },
            {
              "internalType": "string",
              "name": "title",
              "type": "string"
            },
            {
              "internalType": "enum AwardOfContractStructs.AOCStatus",
              "name": "aocStatus",
              "type": "uint8"
            },
            {
              "internalType": "string",
              "name": "contractAwardValue",
              "type": "string"
            },
            {
              "internalType": "string[]",
              "name": "lotName",
              "type": "string[]"
            },
            {
              "internalType": "uint256",
              "name": "awardOfContractDate",
              "type": "uint256"
            },
            {
              "internalType": "string",
              "name": "procuringEntityGid",
              "type": "string"
            },
            {
              "internalType": "string",
              "name": "procuringEntityName",
              "type": "string"
            },
            {
              "internalType": "string",
              "name": "remarks",
              "type": "string"
            },
            {
              "internalType": "string",
              "name": "awardOfContractLink",
              "type": "string"
            },
            {
              "internalType": "string",
              "name": "orgId",
              "type": "string"
            },
            {
              "internalType": "uint16",
              "name": "version",
              "type": "uint16"
            }
          ],
          "internalType": "struct AwardOfContractStructs.AOC",
          "name": "_aoc",
          "type": "tuple"
        }
      ],
      "name": "awardedAocStatus",
      "outputs": [],
      "stateMutability": "nonpayable",
      "type": "function"
    },
    {
      "inputs": [
        {
          "internalType": "bytes8",
          "name": "_uid",
          "type": "bytes8"
        }
      ],
      "name": "cancelAocStatus",
      "outputs": [],
      "stateMutability": "nonpayable",
      "type": "function"
    },
    {
      "inputs": [
        {
          "components": [
            {
              "internalType": "bytes8",
              "name": "uid",
              "type": "bytes8"
            },
            {
              "internalType": "string",
              "name": "vendorGid",
              "type": "string"
            },
            {
              "internalType": "string",
              "name": "vendorName",
              "type": "string"
            },
            {
              "internalType": "string",
              "name": "tenderReference",
              "type": "string"
            },
            {
              "internalType": "string",
              "name": "awardReference",
              "type": "string"
            },
            {
              "internalType": "string",
              "name": "title",
              "type": "string"
            },
            {
              "internalType": "enum AwardOfContractStructs.AOCStatus",
              "name": "aocStatus",
              "type": "uint8"
            },
            {
              "internalType": "string",
              "name": "contractAwardValue",
              "type": "string"
            },
            {
              "internalType": "string[]",
              "name": "lotName",
              "type": "string[]"
            },
            {
              "internalType": "uint256",
              "name": "awardOfContractDate",
              "type": "uint256"
            },
            {
              "internalType": "string",
              "name": "procuringEntityGid",
              "type": "string"
            },
            {
              "internalType": "string",
              "name": "procuringEntityName",
              "type": "string"
            },
            {
              "internalType": "string",
              "name": "remarks",
              "type": "string"
            },
            {
              "internalType": "string",
              "name": "awardOfContractLink",
              "type": "string"
            },
            {
              "internalType": "string",
              "name": "orgId",
              "type": "string"
            },
            {
              "internalType": "uint16",
              "name": "version",
              "type": "uint16"
            }
          ],
          "internalType": "struct AwardOfContractStructs.AOC",
          "name": "_aoc",
          "type": "tuple"
        },
        {
          "internalType": "uint256",
          "name": "_value",
          "type": "uint256"
        }
      ],
      "name": "setAocIndices",
      "outputs": [],
      "stateMutability": "nonpayable",
      "type": "function"
    }
  ],
  "bytecode": "0x608060405234801562000010575f80fd5b506040516200dd2d3803806200dd2d8339818101604052810190620000369190620001a4565b835f806101000a81548173ffffffffffffffffffffffffffffffffffffffff021916908373ffffffffffffffffffffffffffffffffffffffff1602179055508260015f6101000a81548173ffffffffffffffffffffffffffffffffffffffff021916908373ffffffffffffffffffffffffffffffffffffffff1602179055508160025f6101000a81548173ffffffffffffffffffffffffffffffffffffffff021916908373ffffffffffffffffffffffffffffffffffffffff1602179055508060035f6101000a81548173ffffffffffffffffffffffffffffffffffffffff021916908373ffffffffffffffffffffffffffffffffffffffff1602179055505050505062000213565b5f80fd5b5f73ffffffffffffffffffffffffffffffffffffffff82169050919050565b5f6200016e8262000143565b9050919050565b620001808162000162565b81146200018b575f80fd5b50565b5f815190506200019e8162000175565b92915050565b5f805f8060808587031215620001bf57620001be6200013f565b5b5f620001ce878288016200018e565b9450506020620001e1878288016200018e565b9350506040620001f4878288016200018e565b925050606062000207878288016200018e565b91505092959194509250565b61db0c80620002215f395ff3fe608060405234801561000f575f80fd5b50600436106102ef575f3560e01c806380235fe01161019b578063be21d83d116100e7578063e11e715e116100a0578063fb960b261161007a578063fb960b2614610a05578063fce1f4ce14610a35578063fd1308b014610a65578063fdf7b04414610a6f576102ef565b8063e11e715e14610987578063f064bc12146109a3578063f51ac76a146109d5576102ef565b8063be21d83d146108a1578063bf5592e9146108d3578063c192f43f146108ef578063c659ab8a1461090b578063d0413ecc1461093b578063daf7fc491461096b576102ef565b8063a51db81c11610154578063b2094d631161012e578063b2094d631461081d578063b3b0a57114610839578063ba18e76514610855578063bb686b4314610871576102ef565b8063a51db81c14610789578063aa1b327d146107b9578063af2c73b4146107eb576102ef565b806380235fe01461067d578063898be6df146106ad5780638f6d8403146106dd57806395ffd7151461070d5780639895182b1461073d5780639d9e835c14610759576102ef565b806329a5653e1161025a578063506dafc9116102135780635be2033b116101ed5780635be2033b146105e55780636450ef2a1461061557806371f54d39146106455780637d8d4db614610661576102ef565b8063506dafc91461056957806354992b7414610599578063550f5fd4146105b5576102ef565b806329a5653e1461048157806336f807ea1461049d5780633b10d2c6146104cd578063450c0178146104e957806345a8ae9d1461051b5780634691d7471461054b576102ef565b806312e70643116102ac57806312e70643146103c557806314ca68db146103e157806316b2c33a146103fd5780631929a8501461041957806322e2f6d514610435578063263f835f14610465576102ef565b806305a0e401146102f357806307b9028a146103235780630904e0fc1461033f57806309e2f0b6146103715780630e38ec351461038d5780630fd60a46146103a9575b5f80fd5b61030d6004803603810190610308919061bc83565b610a8b565b60405161031a919061bd21565b60405180910390f35b61033d6004803603810190610338919061be76565b610d33565b005b6103596004803603810190610354919061bf25565b6110ed565b6040516103689392919061c03b565b60405180910390f35b61038b6004803603810190610386919061be76565b611454565b005b6103a760048036038101906103a2919061c077565b61180e565b005b6103c360048036038101906103be919061c077565b611a44565b005b6103df60048036038101906103da919061be76565b611f55565b005b6103fb60048036038101906103f6919061be76565b61230f565b005b6104176004803603810190610412919061be76565b6126c9565b005b610433600480360381019061042e919061c0b5565b612a83565b005b61044f600480360381019061044a919061c0e0565b612be5565b60405161045c919061c127565b60405180910390f35b61047f600480360381019061047a919061c552565b612efd565b005b61049b6004803603810190610496919061c5ac565b61440e565b005b6104b760048036038101906104b2919061c0b5565b61491f565b6040516104c4919061c606565b60405180910390f35b6104e760048036038101906104e2919061c61f565b614a2e565b005b61050360048036038101906104fe919061c666565b614c81565b6040516105129392919061c03b565b60405180910390f35b6105356004803603810190610530919061bc83565b614fe8565b604051610542919061c74c565b60405180910390f35b61055361527f565b604051610560919061c606565b60405180910390f35b610583600480360381019061057e919061bc83565b61538a565b604051610590919061c74c565b60405180910390f35b6105b360048036038101906105ae919061be76565b615621565b005b6105cf60048036038101906105ca919061bc83565b6159db565b6040516105dc919061ca3e565b60405180910390f35b6105ff60048036038101906105fa919061bc83565b615cb8565b60405161060c919061c74c565b60405180910390f35b61062f600480360381019061062a919061bc83565b615f4f565b60405161063c919061cae1565b60405180910390f35b61065f600480360381019061065a919061be76565b616429565b005b61067b6004803603810190610676919061be76565b6167e3565b005b6106976004803603810190610692919061bc83565b616b9d565b6040516106a4919061cb10565b60405180910390f35b6106c760048036038101906106c2919061bc83565b616e30565b6040516106d4919061cb38565b60405180910390f35b6106f760048036038101906106f2919061bc83565b6170c3565b604051610704919061c74c565b60405180910390f35b6107276004803603810190610722919061bc83565b61735a565b604051610734919061c74c565b60405180910390f35b6107576004803603810190610752919061cb51565b6175f1565b005b610773600480360381019061076e919061bc83565b61795e565b604051610780919061c74c565b60405180910390f35b6107a3600480360381019061079e919061bc83565b617bf5565b6040516107b0919061c74c565b60405180910390f35b6107d360048036038101906107ce919061c666565b617e8c565b6040516107e29392919061c03b565b60405180910390f35b6108056004803603810190610800919061bf25565b6181f3565b6040516108149392919061c03b565b60405180910390f35b6108376004803603810190610832919061cbab565b61855a565b005b610853600480360381019061084e919061cbe9565b618914565b005b61086f600480360381019061086a919061be76565b618e8e565b005b61088b6004803603810190610886919061c0b5565b619248565b604051610898919061c127565b60405180910390f35b6108bb60048036038101906108b6919061cbab565b619560565b6040516108ca9392919061cea0565b60405180910390f35b6108ed60048036038101906108e8919061cedc565b61965b565b005b6109096004803603810190610904919061be76565b619a27565b005b6109256004803603810190610920919061bc83565b619de1565b604051610932919061c74c565b60405180910390f35b6109556004803603810190610950919061bc83565b61a078565b604051610962919061c74c565b60405180910390f35b6109856004803603810190610980919061bc83565b61a30f565b005b6109a1600480360381019061099c919061cf1a565b61a6c9565b005b6109bd60048036038101906109b8919061bf25565b61aa83565b6040516109cc9392919061c03b565b60405180910390f35b6109ef60048036038101906109ea919061bc83565b61adea565b6040516109fc919061c606565b60405180910390f35b610a1f6004803603810190610a1a919061bc83565b61b07d565b604051610a2c919061c74c565b60405180910390f35b610a4f6004803603810190610a4a919061bc83565b61b314565b604051610a5c919061c74c565b60405180910390f35b610a6d61b5ab565b005b610a896004803603810190610a84919061be76565b61b7db565b005b5f815f60015f9054906101000a900473ffffffffffffffffffffffffffffffffffffffff1673ffffffffffffffffffffffffffffffffffffffff16633bea27536040518060400160405280601981526020017f41574152445f4f465f434f4e54524143545f4d414e41474552000000000000008152506040518060400160405280600d81526020017f6c6973745f5f616f634c697374000000000000000000000000000000000000008152506040518363ffffffff1660e01b8152600401610b5492919061cf58565b602060405180830381865afa158015610b6f573d5f803e3d5ffd5b505050506040513d601f19601f82011682018060405250810190610b93919061cfa1565b9050808210610bd7576040517f08c379a0000000000000000000000000000000000000000000000000000000008152600401610bce9061d016565b60405180910390fd5b60015f9054906101000a900473ffffffffffffffffffffffffffffffffffffffff1673ffffffffffffffffffffffffffffffffffffffff1663a726dca16040518060400160405280601981526020017f41574152445f4f465f434f4e54524143545f4d414e41474552000000000000008152506040518060400160405280601381526020017f6c6973745f5f616f635374617475734c69737400000000000000000000000000815250876040518060400160405280600981526020017f616f6353746174757300000000000000000000000000000000000000000000008152506040518563ffffffff1660e01b8152600401610cd6949392919061d034565b602060405180830381865afa158015610cf1573d5f803e3d5ffd5b505050506040513d601f19601f82011682018060405250810190610d15919061d0c2565b60ff166002811115610d2a57610d2961bcae565b5b92505050919050565b60035f9054906101000a900473ffffffffffffffffffffffffffffffffffffffff1673ffffffffffffffffffffffffffffffffffffffff1663ef02a3fc6040518060400160405280601981526020017f41574152445f4f465f434f4e54524143545f4d414e41474552000000000000008152506040518263ffffffff1660e01b8152600401610dc2919061c74c565b602060405180830381865afa158015610ddd573d5f803e3d5ffd5b505050506040513d601f19601f82011682018060405250810190610e01919061d147565b73ffffffffffffffffffffffffffffffffffffffff163373ffffffffffffffffffffffffffffffffffffffff1614610e6e576040517f08c379a0000000000000000000000000000000000000000000000000000000008152600401610e659061d1bc565b60405180910390fd5b815f60015f9054906101000a900473ffffffffffffffffffffffffffffffffffffffff1673ffffffffffffffffffffffffffffffffffffffff16633bea27536040518060400160405280601981526020017f41574152445f4f465f434f4e54524143545f4d414e41474552000000000000008152506040518060400160405280600d81526020017f6c6973745f5f616f634c697374000000000000000000000000000000000000008152506040518363ffffffff1660e01b8152600401610f3692919061cf58565b602060405180830381865afa158015610f51573d5f803e3d5ffd5b505050506040513d601f19601f82011682018060405250810190610f75919061cfa1565b9050808210610fb9576040517f08c379a0000000000000000000000000000000000000000000000000000000008152600401610fb09061d016565b60405180910390fd5b60015f9054906101000a900473ffffffffffffffffffffffffffffffffffffffff1673ffffffffffffffffffffffffffffffffffffffff1663c8f1cd876040518060400160405280601981526020017f41574152445f4f465f434f4e54524143545f4d414e41474552000000000000008152506040518060400160405280600d81526020017f6c6973745f5f616f634c69737400000000000000000000000000000000000000815250876040518060400160405280600a81526020017f76656e646f724e616d6500000000000000000000000000000000000000000000815250886040518663ffffffff1660e01b81526004016110ba95949392919061d1da565b5f604051808303815f87803b1580156110d1575f80fd5b505af11580156110e3573d5f803e3d5ffd5b5050505050505050565b60605f805f60025f9054906101000a900473ffffffffffffffffffffffffffffffffffffffff1673ffffffffffffffffffffffffffffffffffffffff1663bfa9f3eb6040518060400160405280601981526020017f41574152445f4f465f434f4e54524143545f4d414e41474552000000000000008152506040518060400160405280601981526020017f6d61705f5f616f637342795065416e6456656e646f72476964000000000000008152508a6040518060400160405280600881526020017f5f5f6c656e6774680000000000000000000000000000000000000000000000008152506040516020016111e2919061d281565b6040516020818303038152906040526040518563ffffffff1660e01b8152600401611210949392919061d2e9565b602060405180830381865afa15801561122b573d5f803e3d5ffd5b505050506040513d601f19601f8201168201806040525081019061124f919061cfa1565b90508086111561125d578095505b5f86861161126b578561126d565b865b90508067ffffffffffffffff8111156112895761128861bd52565b5b6040519080825280602002602001820160405280156112b75781602001602082028036833780820191505090505b5094505b5f8111156114435780806112ce9061d36e565b91505086806112dc9061d36e565b97505060025f9054906101000a900473ffffffffffffffffffffffffffffffffffffffff1673ffffffffffffffffffffffffffffffffffffffff1663bfa9f3eb6040518060400160405280601981526020017f41574152445f4f465f434f4e54524143545f4d414e41474552000000000000008152506040518060400160405280601981526020017f6d61705f5f616f637342795065416e6456656e646f72476964000000000000008152508b8b60405160200161139a919061d3b5565b6040516020818303038152906040526040518563ffffffff1660e01b81526004016113c8949392919061d2e9565b602060405180830381865afa1580156113e3573d5f803e3d5ffd5b505050506040513d601f19601f82011682018060405250810190611407919061cfa1565b856001838851611417919061d3cf565b611421919061d3cf565b815181106114325761143161d402565b5b6020026020010181815250506112bb565b869350819250505093509350939050565b60035f9054906101000a900473ffffffffffffffffffffffffffffffffffffffff1673ffffffffffffffffffffffffffffffffffffffff1663ef02a3fc6040518060400160405280601981526020017f41574152445f4f465f434f4e54524143545f4d414e41474552000000000000008152506040518263ffffffff1660e01b81526004016114e3919061c74c565b602060405180830381865afa1580156114fe573d5f803e3d5ffd5b505050506040513d601f19601f82011682018060405250810190611522919061d147565b73ffffffffffffffffffffffffffffffffffffffff163373ffffffffffffffffffffffffffffffffffffffff161461158f576040517f08c379a00000000000000000000000000000000000000000000000000000000081526004016115869061d1bc565b60405180910390fd5b815f60015f9054906101000a900473ffffffffffffffffffffffffffffffffffffffff1673ffffffffffffffffffffffffffffffffffffffff16633bea27536040518060400160405280601981526020017f41574152445f4f465f434f4e54524143545f4d414e41474552000000000000008152506040518060400160405280600d81526020017f6c6973745f5f616f634c697374000000000000000000000000000000000000008152506040518363ffffffff1660e01b815260040161165792919061cf58565b602060405180830381865afa158015611672573d5f803e3d5ffd5b505050506040513d601f19601f82011682018060405250810190611696919061cfa1565b90508082106116da576040517f08c379a00000000000000000000000000000000000000000000000000000000081526004016116d19061d016565b60405180910390fd5b60015f9054906101000a900473ffffffffffffffffffffffffffffffffffffffff1673ffffffffffffffffffffffffffffffffffffffff1663c8f1cd876040518060400160405280601981526020017f41574152445f4f465f434f4e54524143545f4d414e41474552000000000000008152506040518060400160405280600d81526020017f6c6973745f5f616f634c69737400000000000000000000000000000000000000815250876040518060400160405280600581526020017f7469746c65000000000000000000000000000000000000000000000000000000815250886040518663ffffffff1660e01b81526004016117db95949392919061d1da565b5f604051808303815f87803b1580156117f2575f80fd5b505af1158015611804573d5f803e3d5ffd5b5050505050505050565b60035f9054906101000a900473ffffffffffffffffffffffffffffffffffffffff1673ffffffffffffffffffffffffffffffffffffffff1663ef02a3fc6040518060400160405280601981526020017f41574152445f4f465f434f4e54524143545f4d414e41474552000000000000008152506040518263ffffffff1660e01b815260040161189d919061c74c565b602060405180830381865afa1580156118b8573d5f803e3d5ffd5b505050506040513d601f19601f820116820180604052508101906118dc919061d147565b73ffffffffffffffffffffffffffffffffffffffff163373ffffffffffffffffffffffffffffffffffffffff1614611949576040517f08c379a00000000000000000000000000000000000000000000000000000000081526004016119409061d1bc565b60405180910390fd5b60025f9054906101000a900473ffffffffffffffffffffffffffffffffffffffff1673ffffffffffffffffffffffffffffffffffffffff1663177d63616040518060400160405280601981526020017f41574152445f4f465f434f4e54524143545f4d414e41474552000000000000008152506040518060400160405280600d81526020017f6d61705f5f616f63496e6465780000000000000000000000000000000000000081525085856040518563ffffffff1660e01b8152600401611a13949392919061d42f565b5f604051808303815f87803b158015611a2a575f80fd5b505af1158015611a3c573d5f803e3d5ffd5b505050505050565b60035f9054906101000a900473ffffffffffffffffffffffffffffffffffffffff1673ffffffffffffffffffffffffffffffffffffffff1663ef02a3fc6040518060400160405280601981526020017f41574152445f4f465f434f4e54524143545f4d414e41474552000000000000008152506040518263ffffffff1660e01b8152600401611ad3919061c74c565b602060405180830381865afa158015611aee573d5f803e3d5ffd5b505050506040513d601f19601f82011682018060405250810190611b12919061d147565b73ffffffffffffffffffffffffffffffffffffffff163373ffffffffffffffffffffffffffffffffffffffff1614611b7f576040517f08c379a0000000000000000000000000000000000000000000000000000000008152600401611b769061d1bc565b60405180910390fd5b5f60025f9054906101000a900473ffffffffffffffffffffffffffffffffffffffff1673ffffffffffffffffffffffffffffffffffffffff1663bfa9f3eb6040518060400160405280601981526020017f41574152445f4f465f434f4e54524143545f4d414e41474552000000000000008152506040518060400160405280601d81526020017f6d61705f5f616f6373496e646578427941776172645265664f72674964000000815250866040518060400160405280600881526020017f5f5f6c656e677468000000000000000000000000000000000000000000000000815250604051602001611c70919061d281565b6040516020818303038152906040526040518563ffffffff1660e01b8152600401611c9e949392919061d2e9565b602060405180830381865afa158015611cb9573d5f803e3d5ffd5b505050506040513d601f19601f82011682018060405250810190611cdd919061cfa1565b905060025f9054906101000a900473ffffffffffffffffffffffffffffffffffffffff1673ffffffffffffffffffffffffffffffffffffffff1663cf1e8bd86040518060400160405280601981526020017f41574152445f4f465f434f4e54524143545f4d414e41474552000000000000008152506040518060400160405280601d81526020017f6d61705f5f616f6373496e646578427941776172645265664f72674964000000815250866040518060400160405280600881526020017f5f5f6c656e677468000000000000000000000000000000000000000000000000815250604051602001611dcf919061d281565b604051602081830303815290604052866001611deb919061d480565b6040518663ffffffff1660e01b8152600401611e0b95949392919061d4b3565b5f604051808303815f87803b158015611e22575f80fd5b505af1158015611e34573d5f803e3d5ffd5b5050505060025f9054906101000a900473ffffffffffffffffffffffffffffffffffffffff1673ffffffffffffffffffffffffffffffffffffffff1663cf1e8bd86040518060400160405280601981526020017f41574152445f4f465f434f4e54524143545f4d414e41474552000000000000008152506040518060400160405280601d81526020017f6d61705f5f616f6373496e646578427941776172645265664f726749640000008152508685604051602001611ef3919061d3b5565b604051602081830303815290604052876040518663ffffffff1660e01b8152600401611f2395949392919061d4b3565b5f604051808303815f87803b158015611f3a575f80fd5b505af1158015611f4c573d5f803e3d5ffd5b50505050505050565b60035f9054906101000a900473ffffffffffffffffffffffffffffffffffffffff1673ffffffffffffffffffffffffffffffffffffffff1663ef02a3fc6040518060400160405280601981526020017f41574152445f4f465f434f4e54524143545f4d414e41474552000000000000008152506040518263ffffffff1660e01b8152600401611fe4919061c74c565b602060405180830381865afa158015611fff573d5f803e3d5ffd5b505050506040513d601f19601f82011682018060405250810190612023919061d147565b73ffffffffffffffffffffffffffffffffffffffff163373ffffffffffffffffffffffffffffffffffffffff1614612090576040517f08c379a00000000000000000000000000000000000000000000000000000000081526004016120879061d1bc565b60405180910390fd5b815f60015f9054906101000a900473ffffffffffffffffffffffffffffffffffffffff1673ffffffffffffffffffffffffffffffffffffffff16633bea27536040518060400160405280601981526020017f41574152445f4f465f434f4e54524143545f4d414e41474552000000000000008152506040518060400160405280600d81526020017f6c6973745f5f616f634c697374000000000000000000000000000000000000008152506040518363ffffffff1660e01b815260040161215892919061cf58565b602060405180830381865afa158015612173573d5f803e3d5ffd5b505050506040513d601f19601f82011682018060405250810190612197919061cfa1565b90508082106121db576040517f08c379a00000000000000000000000000000000000000000000000000000000081526004016121d29061d016565b60405180910390fd5b60015f9054906101000a900473ffffffffffffffffffffffffffffffffffffffff1673ffffffffffffffffffffffffffffffffffffffff1663c8f1cd876040518060400160405280601981526020017f41574152445f4f465f434f4e54524143545f4d414e41474552000000000000008152506040518060400160405280600d81526020017f6c6973745f5f616f634c69737400000000000000000000000000000000000000815250876040518060400160405280600981526020017f76656e646f724769640000000000000000000000000000000000000000000000815250886040518663ffffffff1660e01b81526004016122dc95949392919061d1da565b5f604051808303815f87803b1580156122f3575f80fd5b505af1158015612305573d5f803e3d5ffd5b5050505050505050565b60035f9054906101000a900473ffffffffffffffffffffffffffffffffffffffff1673ffffffffffffffffffffffffffffffffffffffff1663ef02a3fc6040518060400160405280601981526020017f41574152445f4f465f434f4e54524143545f4d414e41474552000000000000008152506040518263ffffffff1660e01b815260040161239e919061c74c565b602060405180830381865afa1580156123b9573d5f803e3d5ffd5b505050506040513d601f19601f820116820180604052508101906123dd919061d147565b73ffffffffffffffffffffffffffffffffffffffff163373ffffffffffffffffffffffffffffffffffffffff161461244a576040517f08c379a00000000000000000000000000000000000000000000000000000000081526004016124419061d1bc565b60405180910390fd5b815f60015f9054906101000a900473ffffffffffffffffffffffffffffffffffffffff1673ffffffffffffffffffffffffffffffffffffffff16633bea27536040518060400160405280601981526020017f41574152445f4f465f434f4e54524143545f4d414e41474552000000000000008152506040518060400160405280600d81526020017f6c6973745f5f616f634c697374000000000000000000000000000000000000008152506040518363ffffffff1660e01b815260040161251292919061cf58565b602060405180830381865afa15801561252d573d5f803e3d5ffd5b505050506040513d601f19601f82011682018060405250810190612551919061cfa1565b9050808210612595576040517f08c379a000000000000000000000000000000000000000000000000000000000815260040161258c9061d016565b60405180910390fd5b60015f9054906101000a900473ffffffffffffffffffffffffffffffffffffffff1673ffffffffffffffffffffffffffffffffffffffff1663c8f1cd876040518060400160405280601981526020017f41574152445f4f465f434f4e54524143545f4d414e41474552000000000000008152506040518060400160405280600d81526020017f6c6973745f5f616f634c69737400000000000000000000000000000000000000815250876040518060400160405280600e81526020017f61776172645265666572656e6365000000000000000000000000000000000000815250886040518663ffffffff1660e01b815260040161269695949392919061d1da565b5f604051808303815f87803b1580156126ad575f80fd5b505af11580156126bf573d5f803e3d5ffd5b5050505050505050565b60035f9054906101000a900473ffffffffffffffffffffffffffffffffffffffff1673ffffffffffffffffffffffffffffffffffffffff1663ef02a3fc6040518060400160405280601981526020017f41574152445f4f465f434f4e54524143545f4d414e41474552000000000000008152506040518263ffffffff1660e01b8152600401612758919061c74c565b602060405180830381865afa158015612773573d5f803e3d5ffd5b505050506040513d601f19601f82011682018060405250810190612797919061d147565b73ffffffffffffffffffffffffffffffffffffffff163373ffffffffffffffffffffffffffffffffffffffff1614612804576040517f08c379a00000000000000000000000000000000000000000000000000000000081526004016127fb9061d1bc565b60405180910390fd5b815f60015f9054906101000a900473ffffffffffffffffffffffffffffffffffffffff1673ffffffffffffffffffffffffffffffffffffffff16633bea27536040518060400160405280601981526020017f41574152445f4f465f434f4e54524143545f4d414e41474552000000000000008152506040518060400160405280600d81526020017f6c6973745f5f616f634c697374000000000000000000000000000000000000008152506040518363ffffffff1660e01b81526004016128cc92919061cf58565b602060405180830381865afa1580156128e7573d5f803e3d5ffd5b505050506040513d601f19601f8201168201806040525081019061290b919061cfa1565b905080821061294f576040517f08c379a00000000000000000000000000000000000000000000000000000000081526004016129469061d016565b60405180910390fd5b60015f9054906101000a900473ffffffffffffffffffffffffffffffffffffffff1673ffffffffffffffffffffffffffffffffffffffff1663c8f1cd876040518060400160405280601981526020017f41574152445f4f465f434f4e54524143545f4d414e41474552000000000000008152506040518060400160405280600d81526020017f6c6973745f5f616f634c69737400000000000000000000000000000000000000815250876040518060400160405280601381526020017f70726f637572696e67456e746974794e616d6500000000000000000000000000815250886040518663ffffffff1660e01b8152600401612a5095949392919061d1da565b5f604051808303815f87803b158015612a67575f80fd5b505af1158015612a79573d5f803e3d5ffd5b5050505050505050565b60035f9054906101000a900473ffffffffffffffffffffffffffffffffffffffff1673ffffffffffffffffffffffffffffffffffffffff1663ef02a3fc6040518060400160405280601981526020017f41574152445f4f465f434f4e54524143545f4d414e41474552000000000000008152506040518263ffffffff1660e01b8152600401612b12919061c74c565b602060405180830381865afa158015612b2d573d5f803e3d5ffd5b505050506040513d601f19601f82011682018060405250810190612b51919061d147565b73ffffffffffffffffffffffffffffffffffffffff163373ffffffffffffffffffffffffffffffffffffffff1614612bbe576040517f08c379a0000000000000000000000000000000000000000000000000000000008152600401612bb59061d1bc565b60405180910390fd5b5f612bc88261491f565b9050612be1600182612bda919061d3cf565b600261965b565b5050565b60605f60025f9054906101000a900473ffffffffffffffffffffffffffffffffffffffff1673ffffffffffffffffffffffffffffffffffffffff16632f79e1026040518060400160405280601981526020017f41574152445f4f465f434f4e54524143545f4d414e41474552000000000000008152506040518060400160405280600f81526020017f6d61705f5f76656e646f72414f43730000000000000000000000000000000000815250866040518060400160405280600881526020017f5f5f6c656e677468000000000000000000000000000000000000000000000000815250604051602001612cd8919061d281565b6040516020818303038152906040526040518563ffffffff1660e01b8152600401612d06949392919061d519565b602060405180830381865afa158015612d21573d5f803e3d5ffd5b505050506040513d601f19601f82011682018060405250810190612d45919061cfa1565b90508067ffffffffffffffff811115612d6157612d6061bd52565b5b604051908082528060200260200182016040528015612d8f5781602001602082028036833780820191505090505b5091505f5b81811015612ef65760025f9054906101000a900473ffffffffffffffffffffffffffffffffffffffff1673ffffffffffffffffffffffffffffffffffffffff16632f79e1026040518060400160405280601981526020017f41574152445f4f465f434f4e54524143545f4d414e41474552000000000000008152506040518060400160405280600f81526020017f6d61705f5f76656e646f72414f437300000000000000000000000000000000008152508785604051602001612e57919061d3b5565b6040516020818303038152906040526040518563ffffffff1660e01b8152600401612e85949392919061d519565b602060405180830381865afa158015612ea0573d5f803e3d5ffd5b505050506040513d601f19601f82011682018060405250810190612ec4919061cfa1565b838281518110612ed757612ed661d402565b5b6020026020010181815250508080612eee9061d578565b915050612d94565b5050919050565b60035f9054906101000a900473ffffffffffffffffffffffffffffffffffffffff1673ffffffffffffffffffffffffffffffffffffffff1663ef02a3fc6040518060400160405280601981526020017f41574152445f4f465f434f4e54524143545f4d414e41474552000000000000008152506040518263ffffffff1660e01b8152600401612f8c919061c74c565b602060405180830381865afa158015612fa7573d5f803e3d5ffd5b505050506040513d601f19601f82011682018060405250810190612fcb919061d147565b73ffffffffffffffffffffffffffffffffffffffff163373ffffffffffffffffffffffffffffffffffffffff1614613038576040517f08c379a000000000000000000000000000000000000000000000000000000000815260040161302f9061d1bc565b60405180910390fd5b5f60025f9054906101000a900473ffffffffffffffffffffffffffffffffffffffff1673ffffffffffffffffffffffffffffffffffffffff16632f79e1026040518060400160405280601981526020017f41574152445f4f465f434f4e54524143545f4d414e41474552000000000000008152506040518060400160405280601081526020017f6d61705f5f616f637342795065476964000000000000000000000000000000008152508661014001516040518060400160405280600881526020017f5f5f6c656e67746800000000000000000000000000000000000000000000000081525060405160200161312e919061d281565b6040516020818303038152906040526040518563ffffffff1660e01b815260040161315c949392919061d519565b602060405180830381865afa158015613177573d5f803e3d5ffd5b505050506040513d601f19601f8201168201806040525081019061319b919061cfa1565b905060025f9054906101000a900473ffffffffffffffffffffffffffffffffffffffff1673ffffffffffffffffffffffffffffffffffffffff166316ae1bfa6040518060400160405280601981526020017f41574152445f4f465f434f4e54524143545f4d414e41474552000000000000008152506040518060400160405280601081526020017f6d61705f5f616f637342795065476964000000000000000000000000000000008152508661014001516040518060400160405280600881526020017f5f5f6c656e677468000000000000000000000000000000000000000000000000815250604051602001613292919061d281565b6040516020818303038152906040528660016132ae919061d480565b6040518663ffffffff1660e01b81526004016132ce95949392919061d5bf565b5f604051808303815f87803b1580156132e5575f80fd5b505af11580156132f7573d5f803e3d5ffd5b5050505060025f9054906101000a900473ffffffffffffffffffffffffffffffffffffffff1673ffffffffffffffffffffffffffffffffffffffff166316ae1bfa6040518060400160405280601981526020017f41574152445f4f465f434f4e54524143545f4d414e41474552000000000000008152506040518060400160405280601081526020017f6d61705f5f616f63734279506547696400000000000000000000000000000000815250866101400151856040516020016133bb919061d3b5565b604051602081830303815290604052876040518663ffffffff1660e01b81526004016133eb95949392919061d5bf565b5f604051808303815f87803b158015613402575f80fd5b505af1158015613414573d5f803e3d5ffd5b5050505060025f9054906101000a900473ffffffffffffffffffffffffffffffffffffffff1673ffffffffffffffffffffffffffffffffffffffff16632f79e1026040518060400160405280601981526020017f41574152445f4f465f434f4e54524143545f4d414e41474552000000000000008152506040518060400160405280601081526020017f6d61705f5f616f637342794f7267496400000000000000000000000000000000815250866101c001516040518060400160405280600881526020017f5f5f6c656e67746800000000000000000000000000000000000000000000000081525060405160200161350d919061d281565b6040516020818303038152906040526040518563ffffffff1660e01b815260040161353b949392919061d519565b602060405180830381865afa158015613556573d5f803e3d5ffd5b505050506040513d601f19601f8201168201806040525081019061357a919061cfa1565b905060025f9054906101000a900473ffffffffffffffffffffffffffffffffffffffff1673ffffffffffffffffffffffffffffffffffffffff166316ae1bfa6040518060400160405280601981526020017f41574152445f4f465f434f4e54524143545f4d414e41474552000000000000008152506040518060400160405280601081526020017f6d61705f5f616f637342794f7267496400000000000000000000000000000000815250866101c001516040518060400160405280600881526020017f5f5f6c656e677468000000000000000000000000000000000000000000000000815250604051602001613671919061d281565b60405160208183030381529060405286600161368d919061d480565b6040518663ffffffff1660e01b81526004016136ad95949392919061d5bf565b5f604051808303815f87803b1580156136c4575f80fd5b505af11580156136d6573d5f803e3d5ffd5b5050505060025f9054906101000a900473ffffffffffffffffffffffffffffffffffffffff1673ffffffffffffffffffffffffffffffffffffffff166316ae1bfa6040518060400160405280601981526020017f41574152445f4f465f434f4e54524143545f4d414e41474552000000000000008152506040518060400160405280601081526020017f6d61705f5f616f637342794f7267496400000000000000000000000000000000815250866101c001518560405160200161379a919061d3b5565b604051602081830303815290604052876040518663ffffffff1660e01b81526004016137ca95949392919061d5bf565b5f604051808303815f87803b1580156137e1575f80fd5b505af11580156137f3573d5f803e3d5ffd5b505050505f8360200151846101c0015160405160200161381492919061d62c565b60405160208183030381529060405280519060200120905060025f9054906101000a900473ffffffffffffffffffffffffffffffffffffffff1673ffffffffffffffffffffffffffffffffffffffff1663bfa9f3eb6040518060400160405280601981526020017f41574152445f4f465f434f4e54524143545f4d414e41474552000000000000008152506040518060400160405280601c81526020017f6d61705f5f616f6373427956656e646f72476964416e644f7267496400000000815250846040518060400160405280600881526020017f5f5f6c656e67746800000000000000000000000000000000000000000000000081525060405160200161391c919061d281565b6040516020818303038152906040526040518563ffffffff1660e01b815260040161394a949392919061d2e9565b602060405180830381865afa158015613965573d5f803e3d5ffd5b505050506040513d601f19601f82011682018060405250810190613989919061cfa1565b915060025f9054906101000a900473ffffffffffffffffffffffffffffffffffffffff1673ffffffffffffffffffffffffffffffffffffffff1663cf1e8bd86040518060400160405280601981526020017f41574152445f4f465f434f4e54524143545f4d414e41474552000000000000008152506040518060400160405280601c81526020017f6d61705f5f616f6373427956656e646f72476964416e644f7267496400000000815250846040518060400160405280600881526020017f5f5f6c656e677468000000000000000000000000000000000000000000000000815250604051602001613a7b919061d281565b604051602081830303815290604052876001613a97919061d480565b6040518663ffffffff1660e01b8152600401613ab795949392919061d4b3565b5f604051808303815f87803b158015613ace575f80fd5b505af1158015613ae0573d5f803e3d5ffd5b5050505060025f9054906101000a900473ffffffffffffffffffffffffffffffffffffffff1673ffffffffffffffffffffffffffffffffffffffff1663cf1e8bd86040518060400160405280601981526020017f41574152445f4f465f434f4e54524143545f4d414e41474552000000000000008152506040518060400160405280601c81526020017f6d61705f5f616f6373427956656e646f72476964416e644f72674964000000008152508486604051602001613b9f919061d3b5565b604051602081830303815290604052886040518663ffffffff1660e01b8152600401613bcf95949392919061d4b3565b5f604051808303815f87803b158015613be6575f80fd5b505af1158015613bf8573d5f803e3d5ffd5b505050505f8460600151856101c00151604051602001613c1992919061d62c565b60405160208183030381529060405280519060200120905060025f9054906101000a900473ffffffffffffffffffffffffffffffffffffffff1673ffffffffffffffffffffffffffffffffffffffff1663bfa9f3eb6040518060400160405280601981526020017f41574152445f4f465f434f4e54524143545f4d414e41474552000000000000008152506040518060400160405280601c81526020017f6d61705f5f616f6373427954656e646572526566416e644f7267496400000000815250846040518060400160405280600881526020017f5f5f6c656e677468000000000000000000000000000000000000000000000000815250604051602001613d21919061d281565b6040516020818303038152906040526040518563ffffffff1660e01b8152600401613d4f949392919061d2e9565b602060405180830381865afa158015613d6a573d5f803e3d5ffd5b505050506040513d601f19601f82011682018060405250810190613d8e919061cfa1565b925060025f9054906101000a900473ffffffffffffffffffffffffffffffffffffffff1673ffffffffffffffffffffffffffffffffffffffff1663cf1e8bd86040518060400160405280601981526020017f41574152445f4f465f434f4e54524143545f4d414e41474552000000000000008152506040518060400160405280601c81526020017f6d61705f5f616f6373427954656e646572526566416e644f7267496400000000815250846040518060400160405280600881526020017f5f5f6c656e677468000000000000000000000000000000000000000000000000815250604051602001613e80919061d281565b604051602081830303815290604052886001613e9c919061d480565b6040518663ffffffff1660e01b8152600401613ebc95949392919061d4b3565b5f604051808303815f87803b158015613ed3575f80fd5b505af1158015613ee5573d5f803e3d5ffd5b5050505060025f9054906101000a900473ffffffffffffffffffffffffffffffffffffffff1673ffffffffffffffffffffffffffffffffffffffff1663cf1e8bd86040518060400160405280601981526020017f41574152445f4f465f434f4e54524143545f4d414e41474552000000000000008152506040518060400160405280601c81526020017f6d61705f5f616f6373427954656e646572526566416e644f72674964000000008152508487604051602001613fa4919061d3b5565b604051602081830303815290604052896040518663ffffffff1660e01b8152600401613fd495949392919061d4b3565b5f604051808303815f87803b158015613feb575f80fd5b505af1158015613ffd573d5f803e3d5ffd5b505050505f856101400151866020015160405160200161401e92919061d62c565b60405160208183030381529060405280519060200120905060025f9054906101000a900473ffffffffffffffffffffffffffffffffffffffff1673ffffffffffffffffffffffffffffffffffffffff1663bfa9f3eb6040518060400160405280601981526020017f41574152445f4f465f434f4e54524143545f4d414e41474552000000000000008152506040518060400160405280601981526020017f6d61705f5f616f637342795065416e6456656e646f7247696400000000000000815250846040518060400160405280600881526020017f5f5f6c656e677468000000000000000000000000000000000000000000000000815250604051602001614126919061d281565b6040516020818303038152906040526040518563ffffffff1660e01b8152600401614154949392919061d2e9565b602060405180830381865afa15801561416f573d5f803e3d5ffd5b505050506040513d601f19601f82011682018060405250810190614193919061cfa1565b935060025f9054906101000a900473ffffffffffffffffffffffffffffffffffffffff1673ffffffffffffffffffffffffffffffffffffffff1663cf1e8bd86040518060400160405280601981526020017f41574152445f4f465f434f4e54524143545f4d414e41474552000000000000008152506040518060400160405280601981526020017f6d61705f5f616f637342795065416e6456656e646f7247696400000000000000815250846040518060400160405280600881526020017f5f5f6c656e677468000000000000000000000000000000000000000000000000815250604051602001614285919061d281565b6040516020818303038152906040528960016142a1919061d480565b6040518663ffffffff1660e01b81526004016142c195949392919061d4b3565b5f604051808303815f87803b1580156142d8575f80fd5b505af11580156142ea573d5f803e3d5ffd5b5050505060025f9054906101000a900473ffffffffffffffffffffffffffffffffffffffff1673ffffffffffffffffffffffffffffffffffffffff1663cf1e8bd86040518060400160405280601981526020017f41574152445f4f465f434f4e54524143545f4d414e41474552000000000000008152506040518060400160405280601981526020017f6d61705f5f616f637342795065416e6456656e646f724769640000000000000081525084886040516020016143a9919061d3b5565b6040516020818303038152906040528a6040518663ffffffff1660e01b81526004016143d995949392919061d4b3565b5f604051808303815f87803b1580156143f0575f80fd5b505af1158015614402573d5f803e3d5ffd5b50505050505050505050565b60035f9054906101000a900473ffffffffffffffffffffffffffffffffffffffff1673ffffffffffffffffffffffffffffffffffffffff1663ef02a3fc6040518060400160405280601981526020017f41574152445f4f465f434f4e54524143545f4d414e41474552000000000000008152506040518263ffffffff1660e01b815260040161449d919061c74c565b602060405180830381865afa1580156144b8573d5f803e3d5ffd5b505050506040513d601f19601f820116820180604052508101906144dc919061d147565b73ffffffffffffffffffffffffffffffffffffffff163373ffffffffffffffffffffffffffffffffffffffff1614614549576040517f08c379a00000000000000000000000000000000000000000000000000000000081526004016145409061d1bc565b60405180910390fd5b5f60025f9054906101000a900473ffffffffffffffffffffffffffffffffffffffff1673ffffffffffffffffffffffffffffffffffffffff16632f79e1026040518060400160405280601981526020017f41574152445f4f465f434f4e54524143545f4d414e41474552000000000000008152506040518060400160405280600f81526020017f6d61705f5f76656e646f72414f43730000000000000000000000000000000000815250866040518060400160405280600881526020017f5f5f6c656e67746800000000000000000000000000000000000000000000000081525060405160200161463a919061d281565b6040516020818303038152906040526040518563ffffffff1660e01b8152600401614668949392919061d519565b602060405180830381865afa158015614683573d5f803e3d5ffd5b505050506040513d601f19601f820116820180604052508101906146a7919061cfa1565b905060025f9054906101000a900473ffffffffffffffffffffffffffffffffffffffff1673ffffffffffffffffffffffffffffffffffffffff166316ae1bfa6040518060400160405280601981526020017f41574152445f4f465f434f4e54524143545f4d414e41474552000000000000008152506040518060400160405280600f81526020017f6d61705f5f76656e646f72414f43730000000000000000000000000000000000815250866040518060400160405280600881526020017f5f5f6c656e677468000000000000000000000000000000000000000000000000815250604051602001614799919061d281565b6040516020818303038152906040528660016147b5919061d480565b6040518663ffffffff1660e01b81526004016147d595949392919061d5bf565b5f604051808303815f87803b1580156147ec575f80fd5b505af11580156147fe573d5f803e3d5ffd5b5050505060025f9054906101000a900473ffffffffffffffffffffffffffffffffffffffff1673ffffffffffffffffffffffffffffffffffffffff166316ae1bfa6040518060400160405280601981526020017f41574152445f4f465f434f4e54524143545f4d414e41474552000000000000008152506040518060400160405280600f81526020017f6d61705f5f76656e646f72414f4373000000000000000000000000000000000081525086856040516020016148bd919061d3b5565b604051602081830303815290604052876040518663ffffffff1660e01b81526004016148ed95949392919061d5bf565b5f604051808303815f87803b158015614904575f80fd5b505af1158015614916573d5f803e3d5ffd5b50505050505050565b5f60025f9054906101000a900473ffffffffffffffffffffffffffffffffffffffff1673ffffffffffffffffffffffffffffffffffffffff1663405e2c0d6040518060400160405280601981526020017f41574152445f4f465f434f4e54524143545f4d414e41474552000000000000008152506040518060400160405280600d81526020017f6d61705f5f616f63496e64657800000000000000000000000000000000000000815250856040518463ffffffff1660e01b81526004016149e89392919061d64f565b602060405180830381865afa158015614a03573d5f803e3d5ffd5b505050506040513d601f19601f82011682018060405250810190614a27919061cfa1565b9050919050565b60035f9054906101000a900473ffffffffffffffffffffffffffffffffffffffff1673ffffffffffffffffffffffffffffffffffffffff1663ef02a3fc6040518060400160405280601981526020017f41574152445f4f465f434f4e54524143545f4d414e41474552000000000000008152506040518263ffffffff1660e01b8152600401614abd919061c74c565b602060405180830381865afa158015614ad8573d5f803e3d5ffd5b505050506040513d601f19601f82011682018060405250810190614afc919061d147565b73ffffffffffffffffffffffffffffffffffffffff163373ffffffffffffffffffffffffffffffffffffffff1614614b69576040517f08c379a0000000000000000000000000000000000000000000000000000000008152600401614b609061d1bc565b60405180910390fd5b5f614b76825f015161491f565b9050614b92600182614b88919061d3cf565b8360200151611f55565b614bac600182614ba2919061d3cf565b8360400151610d33565b614bc6600182614bbc919061d3cf565b836080015161230f565b614be0600182614bd6919061d3cf565b8360a00151611454565b614bf7600182614bf0919061d3cf565b600161965b565b614c11600182614c07919061d3cf565b8360e00151618e8e565b614c2c600182614c21919061d3cf565b836101000151618914565b614c47600182614c3c919061d3cf565b83610120015161855a565b614c62600182614c57919061d3cf565b836101800151619a27565b614c7d600182614c72919061d3cf565b836101a00151616429565b5050565b60605f805f60025f9054906101000a900473ffffffffffffffffffffffffffffffffffffffff1673ffffffffffffffffffffffffffffffffffffffff16632f79e1026040518060400160405280601981526020017f41574152445f4f465f434f4e54524143545f4d414e41474552000000000000008152506040518060400160405280601081526020017f6d61705f5f616f637342794f72674964000000000000000000000000000000008152508a6040518060400160405280600881526020017f5f5f6c656e677468000000000000000000000000000000000000000000000000815250604051602001614d76919061d281565b6040516020818303038152906040526040518563ffffffff1660e01b8152600401614da4949392919061d519565b602060405180830381865afa158015614dbf573d5f803e3d5ffd5b505050506040513d601f19601f82011682018060405250810190614de3919061cfa1565b905080861115614df1578095505b5f868611614dff5785614e01565b865b90508067ffffffffffffffff811115614e1d57614e1c61bd52565b5b604051908082528060200260200182016040528015614e4b5781602001602082028036833780820191505090505b5094505b5f811115614fd7578080614e629061d36e565b9150508680614e709061d36e565b97505060025f9054906101000a900473ffffffffffffffffffffffffffffffffffffffff1673ffffffffffffffffffffffffffffffffffffffff16632f79e1026040518060400160405280601981526020017f41574152445f4f465f434f4e54524143545f4d414e41474552000000000000008152506040518060400160405280601081526020017f6d61705f5f616f637342794f72674964000000000000000000000000000000008152508b8b604051602001614f2e919061d3b5565b6040516020818303038152906040526040518563ffffffff1660e01b8152600401614f5c949392919061d519565b602060405180830381865afa158015614f77573d5f803e3d5ffd5b505050506040513d601f19601f82011682018060405250810190614f9b919061cfa1565b856001838851614fab919061d3cf565b614fb5919061d3cf565b81518110614fc657614fc561d402565b5b602002602001018181525050614e4f565b869350819250505093509350939050565b6060815f60015f9054906101000a900473ffffffffffffffffffffffffffffffffffffffff1673ffffffffffffffffffffffffffffffffffffffff16633bea27536040518060400160405280601981526020017f41574152445f4f465f434f4e54524143545f4d414e41474552000000000000008152506040518060400160405280600d81526020017f6c6973745f5f616f634c697374000000000000000000000000000000000000008152506040518363ffffffff1660e01b81526004016150b292919061cf58565b602060405180830381865afa1580156150cd573d5f803e3d5ffd5b505050506040513d601f19601f820116820180604052508101906150f1919061cfa1565b9050808210615135576040517f08c379a000000000000000000000000000000000000000000000000000000000815260040161512c9061d016565b60405180910390fd5b60015f9054906101000a900473ffffffffffffffffffffffffffffffffffffffff1673ffffffffffffffffffffffffffffffffffffffff16632136448c6040518060400160405280601981526020017f41574152445f4f465f434f4e54524143545f4d414e41474552000000000000008152506040518060400160405280600d81526020017f6c6973745f5f616f634c69737400000000000000000000000000000000000000815250876040518060400160405280601381526020017f61776172644f66436f6e74726163744c696e6b000000000000000000000000008152506040518563ffffffff1660e01b8152600401615234949392919061d034565b5f60405180830381865afa15801561524e573d5f803e3d5ffd5b505050506040513d5f823e3d601f19601f82011682018060405250810190615276919061d700565b92505050919050565b5f60015f9054906101000a900473ffffffffffffffffffffffffffffffffffffffff1673ffffffffffffffffffffffffffffffffffffffff16633bea27536040518060400160405280601981526020017f41574152445f4f465f434f4e54524143545f4d414e41474552000000000000008152506040518060400160405280600d81526020017f6c6973745f5f616f634c697374000000000000000000000000000000000000008152506040518363ffffffff1660e01b815260040161534692919061cf58565b602060405180830381865afa158015615361573d5f803e3d5ffd5b505050506040513d601f19601f82011682018060405250810190615385919061cfa1565b905090565b6060815f60015f9054906101000a900473ffffffffffffffffffffffffffffffffffffffff1673ffffffffffffffffffffffffffffffffffffffff16633bea27536040518060400160405280601981526020017f41574152445f4f465f434f4e54524143545f4d414e41474552000000000000008152506040518060400160405280600d81526020017f6c6973745f5f616f634c697374000000000000000000000000000000000000008152506040518363ffffffff1660e01b815260040161545492919061cf58565b602060405180830381865afa15801561546f573d5f803e3d5ffd5b505050506040513d601f19601f82011682018060405250810190615493919061cfa1565b90508082106154d7576040517f08c379a00000000000000000000000000000000000000000000000000000000081526004016154ce9061d016565b60405180910390fd5b60015f9054906101000a900473ffffffffffffffffffffffffffffffffffffffff1673ffffffffffffffffffffffffffffffffffffffff16632136448c6040518060400160405280601981526020017f41574152445f4f465f434f4e54524143545f4d414e41474552000000000000008152506040518060400160405280600d81526020017f6c6973745f5f616f634c69737400000000000000000000000000000000000000815250876040518060400160405280600f81526020017f74656e6465725265666572656e636500000000000000000000000000000000008152506040518563ffffffff1660e01b81526004016155d6949392919061d034565b5f60405180830381865afa1580156155f0573d5f803e3d5ffd5b505050506040513d5f823e3d601f19601f82011682018060405250810190615618919061d700565b92505050919050565b60035f9054906101000a900473ffffffffffffffffffffffffffffffffffffffff1673ffffffffffffffffffffffffffffffffffffffff1663ef02a3fc6040518060400160405280601981526020017f41574152445f4f465f434f4e54524143545f4d414e41474552000000000000008152506040518263ffffffff1660e01b81526004016156b0919061c74c565b602060405180830381865afa1580156156cb573d5f803e3d5ffd5b505050506040513d601f19601f820116820180604052508101906156ef919061d147565b73ffffffffffffffffffffffffffffffffffffffff163373ffffffffffffffffffffffffffffffffffffffff161461575c576040517f08c379a00000000000000000000000000000000000000000000000000000000081526004016157539061d1bc565b60405180910390fd5b815f60015f9054906101000a900473ffffffffffffffffffffffffffffffffffffffff1673ffffffffffffffffffffffffffffffffffffffff16633bea27536040518060400160405280601981526020017f41574152445f4f465f434f4e54524143545f4d414e41474552000000000000008152506040518060400160405280600d81526020017f6c6973745f5f616f634c697374000000000000000000000000000000000000008152506040518363ffffffff1660e01b815260040161582492919061cf58565b602060405180830381865afa15801561583f573d5f803e3d5ffd5b505050506040513d601f19601f82011682018060405250810190615863919061cfa1565b90508082106158a7576040517f08c379a000000000000000000000000000000000000000000000000000000000815260040161589e9061d016565b60405180910390fd5b60015f9054906101000a900473ffffffffffffffffffffffffffffffffffffffff1673ffffffffffffffffffffffffffffffffffffffff1663c8f1cd876040518060400160405280601981526020017f41574152445f4f465f434f4e54524143545f4d414e41474552000000000000008152506040518060400160405280600d81526020017f6c6973745f5f616f634c69737400000000000000000000000000000000000000815250876040518060400160405280600f81526020017f74656e6465725265666572656e63650000000000000000000000000000000000815250886040518663ffffffff1660e01b81526004016159a895949392919061d1da565b5f604051808303815f87803b1580156159bf575f80fd5b505af11580156159d1573d5f803e3d5ffd5b5050505050505050565b6159e361bb95565b815f60015f9054906101000a900473ffffffffffffffffffffffffffffffffffffffff1673ffffffffffffffffffffffffffffffffffffffff16633bea27536040518060400160405280601981526020017f41574152445f4f465f434f4e54524143545f4d414e41474552000000000000008152506040518060400160405280600d81526020017f6c6973745f5f616f634c697374000000000000000000000000000000000000008152506040518363ffffffff1660e01b8152600401615aab92919061cf58565b602060405180830381865afa158015615ac6573d5f803e3d5ffd5b505050506040513d601f19601f82011682018060405250810190615aea919061cfa1565b9050808210615b2e576040517f08c379a0000000000000000000000000000000000000000000000000000000008152600401615b259061d016565b60405180910390fd5b615b3784616b9d565b835f019077ffffffffffffffffffffffffffffffffffffffffffffffff1916908177ffffffffffffffffffffffffffffffffffffffffffffffff191681525050615b808461735a565b8360200181905250615b9184615cb8565b8360400181905250615ba28461538a565b8360600181905250615bb384619de1565b8360800181905250615bc484610a8b565b8360c001906002811115615bdb57615bda61bcae565b5b90816002811115615bef57615bee61bcae565b5b81525050615bfc8461a078565b8360a00181905250615c0d8461b314565b8360e00181905250615c1e84615f4f565b836101000181905250615c308461adea565b83610120018181525050615c438461b07d565b836101400181905250615c55846170c3565b836101600181905250615c678461795e565b836101800181905250615c7984614fe8565b836101a00181905250615c8b84617bf5565b836101c00181905250615c9d84616e30565b836101e0019061ffff16908161ffff16815250505050919050565b6060815f60015f9054906101000a900473ffffffffffffffffffffffffffffffffffffffff1673ffffffffffffffffffffffffffffffffffffffff16633bea27536040518060400160405280601981526020017f41574152445f4f465f434f4e54524143545f4d414e41474552000000000000008152506040518060400160405280600d81526020017f6c6973745f5f616f634c697374000000000000000000000000000000000000008152506040518363ffffffff1660e01b8152600401615d8292919061cf58565b602060405180830381865afa158015615d9d573d5f803e3d5ffd5b505050506040513d601f19601f82011682018060405250810190615dc1919061cfa1565b9050808210615e05576040517f08c379a0000000000000000000000000000000000000000000000000000000008152600401615dfc9061d016565b60405180910390fd5b60015f9054906101000a900473ffffffffffffffffffffffffffffffffffffffff1673ffffffffffffffffffffffffffffffffffffffff16632136448c6040518060400160405280601981526020017f41574152445f4f465f434f4e54524143545f4d414e41474552000000000000008152506040518060400160405280600d81526020017f6c6973745f5f616f634c69737400000000000000000000000000000000000000815250876040518060400160405280600a81526020017f76656e646f724e616d65000000000000000000000000000000000000000000008152506040518563ffffffff1660e01b8152600401615f04949392919061d034565b5f60405180830381865afa158015615f1e573d5f803e3d5ffd5b505050506040513d5f823e3d601f19601f82011682018060405250810190615f46919061d700565b92505050919050565b6060815f60015f9054906101000a900473ffffffffffffffffffffffffffffffffffffffff1673ffffffffffffffffffffffffffffffffffffffff16633bea27536040518060400160405280601981526020017f41574152445f4f465f434f4e54524143545f4d414e41474552000000000000008152506040518060400160405280600d81526020017f6c6973745f5f616f634c697374000000000000000000000000000000000000008152506040518363ffffffff1660e01b815260040161601992919061cf58565b602060405180830381865afa158015616034573d5f803e3d5ffd5b505050506040513d601f19601f82011682018060405250810190616058919061cfa1565b905080821061609c576040517f08c379a00000000000000000000000000000000000000000000000000000000081526004016160939061d016565b60405180910390fd5b5f60015f9054906101000a900473ffffffffffffffffffffffffffffffffffffffff1673ffffffffffffffffffffffffffffffffffffffff166332e053256040518060400160405280601981526020017f41574152445f4f465f434f4e54524143545f4d414e41474552000000000000008152506040518060400160405280600d81526020017f6c6973745f5f616f634c69737400000000000000000000000000000000000000815250886040518060400160405280600781526020017f6c6f744e616d65000000000000000000000000000000000000000000000000008152506040518060400160405280600881526020017f5f5f6c656e6774680000000000000000000000000000000000000000000000008152506040516020016161c3919061d281565b6040516020818303038152906040526040518663ffffffff1660e01b81526004016161f295949392919061d747565b602060405180830381865afa15801561620d573d5f803e3d5ffd5b505050506040513d601f19601f82011682018060405250810190616231919061cfa1565b90508067ffffffffffffffff81111561624d5761624c61bd52565b5b60405190808252806020026020018201604052801561628057816020015b606081526020019060019003908161626b5790505b5093505f5b818110156164205760015f9054906101000a900473ffffffffffffffffffffffffffffffffffffffff1673ffffffffffffffffffffffffffffffffffffffff1663fa7598d56040518060400160405280601981526020017f41574152445f4f465f434f4e54524143545f4d414e41474552000000000000008152506040518060400160405280600d81526020017f6c6973745f5f616f634c69737400000000000000000000000000000000000000815250896040518060400160405280600781526020017f6c6f744e616d65000000000000000000000000000000000000000000000000008152508660405160200161637e919061d3b5565b6040516020818303038152906040526040518663ffffffff1660e01b81526004016163ad95949392919061d747565b5f60405180830381865afa1580156163c7573d5f803e3d5ffd5b505050506040513d5f823e3d601f19601f820116820180604052508101906163ef919061d700565b8582815181106164025761640161d402565b5b602002602001018190525080806164189061d578565b915050616285565b50505050919050565b60035f9054906101000a900473ffffffffffffffffffffffffffffffffffffffff1673ffffffffffffffffffffffffffffffffffffffff1663ef02a3fc6040518060400160405280601981526020017f41574152445f4f465f434f4e54524143545f4d414e41474552000000000000008152506040518263ffffffff1660e01b81526004016164b8919061c74c565b602060405180830381865afa1580156164d3573d5f803e3d5ffd5b505050506040513d601f19601f820116820180604052508101906164f7919061d147565b73ffffffffffffffffffffffffffffffffffffffff163373ffffffffffffffffffffffffffffffffffffffff1614616564576040517f08c379a000000000000000000000000000000000000000000000000000000000815260040161655b9061d1bc565b60405180910390fd5b815f60015f9054906101000a900473ffffffffffffffffffffffffffffffffffffffff1673ffffffffffffffffffffffffffffffffffffffff16633bea27536040518060400160405280601981526020017f41574152445f4f465f434f4e54524143545f4d414e41474552000000000000008152506040518060400160405280600d81526020017f6c6973745f5f616f634c697374000000000000000000000000000000000000008152506040518363ffffffff1660e01b815260040161662c92919061cf58565b602060405180830381865afa158015616647573d5f803e3d5ffd5b505050506040513d601f19601f8201168201806040525081019061666b919061cfa1565b90508082106166af576040517f08c379a00000000000000000000000000000000000000000000000000000000081526004016166a69061d016565b60405180910390fd5b60015f9054906101000a900473ffffffffffffffffffffffffffffffffffffffff1673ffffffffffffffffffffffffffffffffffffffff1663c8f1cd876040518060400160405280601981526020017f41574152445f4f465f434f4e54524143545f4d414e41474552000000000000008152506040518060400160405280600d81526020017f6c6973745f5f616f634c69737400000000000000000000000000000000000000815250876040518060400160405280601381526020017f61776172644f66436f6e74726163744c696e6b00000000000000000000000000815250886040518663ffffffff1660e01b81526004016167b095949392919061d1da565b5f604051808303815f87803b1580156167c7575f80fd5b505af11580156167d9573d5f803e3d5ffd5b5050505050505050565b60035f9054906101000a900473ffffffffffffffffffffffffffffffffffffffff1673ffffffffffffffffffffffffffffffffffffffff1663ef02a3fc6040518060400160405280601981526020017f41574152445f4f465f434f4e54524143545f4d414e41474552000000000000008152506040518263ffffffff1660e01b8152600401616872919061c74c565b602060405180830381865afa15801561688d573d5f803e3d5ffd5b505050506040513d601f19601f820116820180604052508101906168b1919061d147565b73ffffffffffffffffffffffffffffffffffffffff163373ffffffffffffffffffffffffffffffffffffffff161461691e576040517f08c379a00000000000000000000000000000000000000000000000000000000081526004016169159061d1bc565b60405180910390fd5b815f60015f9054906101000a900473ffffffffffffffffffffffffffffffffffffffff1673ffffffffffffffffffffffffffffffffffffffff16633bea27536040518060400160405280601981526020017f41574152445f4f465f434f4e54524143545f4d414e41474552000000000000008152506040518060400160405280600d81526020017f6c6973745f5f616f634c697374000000000000000000000000000000000000008152506040518363ffffffff1660e01b81526004016169e692919061cf58565b602060405180830381865afa158015616a01573d5f803e3d5ffd5b505050506040513d601f19601f82011682018060405250810190616a25919061cfa1565b9050808210616a69576040517f08c379a0000000000000000000000000000000000000000000000000000000008152600401616a609061d016565b60405180910390fd5b60015f9054906101000a900473ffffffffffffffffffffffffffffffffffffffff1673ffffffffffffffffffffffffffffffffffffffff1663c8f1cd876040518060400160405280601981526020017f41574152445f4f465f434f4e54524143545f4d414e41474552000000000000008152506040518060400160405280600d81526020017f6c6973745f5f616f634c69737400000000000000000000000000000000000000815250876040518060400160405280600581526020017f6f72674964000000000000000000000000000000000000000000000000000000815250886040518663ffffffff1660e01b8152600401616b6a95949392919061d1da565b5f604051808303815f87803b158015616b81575f80fd5b505af1158015616b93573d5f803e3d5ffd5b5050505050505050565b5f815f60015f9054906101000a900473ffffffffffffffffffffffffffffffffffffffff1673ffffffffffffffffffffffffffffffffffffffff16633bea27536040518060400160405280601981526020017f41574152445f4f465f434f4e54524143545f4d414e41474552000000000000008152506040518060400160405280600d81526020017f6c6973745f5f616f634c697374000000000000000000000000000000000000008152506040518363ffffffff1660e01b8152600401616c6692919061cf58565b602060405180830381865afa158015616c81573d5f803e3d5ffd5b505050506040513d601f19601f82011682018060405250810190616ca5919061cfa1565b9050808210616ce9576040517f08c379a0000000000000000000000000000000000000000000000000000000008152600401616ce09061d016565b60405180910390fd5b60015f9054906101000a900473ffffffffffffffffffffffffffffffffffffffff1673ffffffffffffffffffffffffffffffffffffffff16634bcbf1fb6040518060400160405280601981526020017f41574152445f4f465f434f4e54524143545f4d414e41474552000000000000008152506040518060400160405280600d81526020017f6c6973745f5f616f634c69737400000000000000000000000000000000000000815250876040518060400160405280600381526020017f75696400000000000000000000000000000000000000000000000000000000008152506040518563ffffffff1660e01b8152600401616de8949392919061d034565b602060405180830381865afa158015616e03573d5f803e3d5ffd5b505050506040513d601f19601f82011682018060405250810190616e27919061d7c8565b92505050919050565b5f815f60015f9054906101000a900473ffffffffffffffffffffffffffffffffffffffff1673ffffffffffffffffffffffffffffffffffffffff16633bea27536040518060400160405280601981526020017f41574152445f4f465f434f4e54524143545f4d414e41474552000000000000008152506040518060400160405280600d81526020017f6c6973745f5f616f634c697374000000000000000000000000000000000000008152506040518363ffffffff1660e01b8152600401616ef992919061cf58565b602060405180830381865afa158015616f14573d5f803e3d5ffd5b505050506040513d601f19601f82011682018060405250810190616f38919061cfa1565b9050808210616f7c576040517f08c379a0000000000000000000000000000000000000000000000000000000008152600401616f739061d016565b60405180910390fd5b60015f9054906101000a900473ffffffffffffffffffffffffffffffffffffffff1673ffffffffffffffffffffffffffffffffffffffff166303afa62b6040518060400160405280601981526020017f41574152445f4f465f434f4e54524143545f4d414e41474552000000000000008152506040518060400160405280600d81526020017f6c6973745f5f616f634c69737400000000000000000000000000000000000000815250876040518060400160405280600781526020017f76657273696f6e000000000000000000000000000000000000000000000000008152506040518563ffffffff1660e01b815260040161707b949392919061d034565b602060405180830381865afa158015617096573d5f803e3d5ffd5b505050506040513d601f19601f820116820180604052508101906170ba919061d807565b92505050919050565b6060815f60015f9054906101000a900473ffffffffffffffffffffffffffffffffffffffff1673ffffffffffffffffffffffffffffffffffffffff16633bea27536040518060400160405280601981526020017f41574152445f4f465f434f4e54524143545f4d414e41474552000000000000008152506040518060400160405280600d81526020017f6c6973745f5f616f634c697374000000000000000000000000000000000000008152506040518363ffffffff1660e01b815260040161718d92919061cf58565b602060405180830381865afa1580156171a8573d5f803e3d5ffd5b505050506040513d601f19601f820116820180604052508101906171cc919061cfa1565b9050808210617210576040517f08c379a00000000000000000000000000000000000000000000000000000000081526004016172079061d016565b60405180910390fd5b60015f9054906101000a900473ffffffffffffffffffffffffffffffffffffffff1673ffffffffffffffffffffffffffffffffffffffff16632136448c6040518060400160405280601981526020017f41574152445f4f465f434f4e54524143545f4d414e41474552000000000000008152506040518060400160405280600d81526020017f6c6973745f5f616f634c69737400000000000000000000000000000000000000815250876040518060400160405280601381526020017f70726f637572696e67456e746974794e616d65000000000000000000000000008152506040518563ffffffff1660e01b815260040161730f949392919061d034565b5f60405180830381865afa158015617329573d5f803e3d5ffd5b505050506040513d5f823e3d601f19601f82011682018060405250810190617351919061d700565b92505050919050565b6060815f60015f9054906101000a900473ffffffffffffffffffffffffffffffffffffffff1673ffffffffffffffffffffffffffffffffffffffff16633bea27536040518060400160405280601981526020017f41574152445f4f465f434f4e54524143545f4d414e41474552000000000000008152506040518060400160405280600d81526020017f6c6973745f5f616f634c697374000000000000000000000000000000000000008152506040518363ffffffff1660e01b815260040161742492919061cf58565b602060405180830381865afa15801561743f573d5f803e3d5ffd5b505050506040513d601f19601f82011682018060405250810190617463919061cfa1565b90508082106174a7576040517f08c379a000000000000000000000000000000000000000000000000000000000815260040161749e9061d016565b60405180910390fd5b60015f9054906101000a900473ffffffffffffffffffffffffffffffffffffffff1673ffffffffffffffffffffffffffffffffffffffff16632136448c6040518060400160405280601981526020017f41574152445f4f465f434f4e54524143545f4d414e41474552000000000000008152506040518060400160405280600d81526020017f6c6973745f5f616f634c69737400000000000000000000000000000000000000815250876040518060400160405280600981526020017f76656e646f7247696400000000000000000000000000000000000000000000008152506040518563ffffffff1660e01b81526004016175a6949392919061d034565b5f60405180830381865afa1580156175c0573d5f803e3d5ffd5b505050506040513d5f823e3d601f19601f820116820180604052508101906175e8919061d700565b92505050919050565b60035f9054906101000a900473ffffffffffffffffffffffffffffffffffffffff1673ffffffffffffffffffffffffffffffffffffffff1663ef02a3fc6040518060400160405280601981526020017f41574152445f4f465f434f4e54524143545f4d414e41474552000000000000008152506040518263ffffffff1660e01b8152600401617680919061c74c565b602060405180830381865afa15801561769b573d5f803e3d5ffd5b505050506040513d601f19601f820116820180604052508101906176bf919061d147565b73ffffffffffffffffffffffffffffffffffffffff163373ffffffffffffffffffffffffffffffffffffffff161461772c576040517f08c379a00000000000000000000000000000000000000000000000000000000081526004016177239061d1bc565b60405180910390fd5b815f60015f9054906101000a900473ffffffffffffffffffffffffffffffffffffffff1673ffffffffffffffffffffffffffffffffffffffff16633bea27536040518060400160405280601981526020017f41574152445f4f465f434f4e54524143545f4d414e41474552000000000000008152506040518060400160405280600d81526020017f6c6973745f5f616f634c697374000000000000000000000000000000000000008152506040518363ffffffff1660e01b81526004016177f492919061cf58565b602060405180830381865afa15801561780f573d5f803e3d5ffd5b505050506040513d601f19601f82011682018060405250810190617833919061cfa1565b9050808210617877576040517f08c379a000000000000000000000000000000000000000000000000000000000815260040161786e9061d016565b60405180910390fd5b61788484845f015161a6c9565b617892848460200151611f55565b6178a0848460400151610d33565b6178ae848460600151615621565b6178bc84846080015161230f565b6178ca848460c0015161965b565b6178d8848460a00151611454565b6178e6848460e00151618e8e565b6178f584846101000151618914565b6179048484610120015161855a565b6179138484610140015161b7db565b617922848461016001516126c9565b61793184846101800151619a27565b61794084846101a00151616429565b61794f84846101c001516167e3565b6179588461a30f565b50505050565b6060815f60015f9054906101000a900473ffffffffffffffffffffffffffffffffffffffff1673ffffffffffffffffffffffffffffffffffffffff16633bea27536040518060400160405280601981526020017f41574152445f4f465f434f4e54524143545f4d414e41474552000000000000008152506040518060400160405280600d81526020017f6c6973745f5f616f634c697374000000000000000000000000000000000000008152506040518363ffffffff1660e01b8152600401617a2892919061cf58565b602060405180830381865afa158015617a43573d5f803e3d5ffd5b505050506040513d601f19601f82011682018060405250810190617a67919061cfa1565b9050808210617aab576040517f08c379a0000000000000000000000000000000000000000000000000000000008152600401617aa29061d016565b60405180910390fd5b60015f9054906101000a900473ffffffffffffffffffffffffffffffffffffffff1673ffffffffffffffffffffffffffffffffffffffff16632136448c6040518060400160405280601981526020017f41574152445f4f465f434f4e54524143545f4d414e41474552000000000000008152506040518060400160405280600d81526020017f6c6973745f5f616f634c69737400000000000000000000000000000000000000815250876040518060400160405280600781526020017f72656d61726b73000000000000000000000000000000000000000000000000008152506040518563ffffffff1660e01b8152600401617baa949392919061d034565b5f60405180830381865afa158015617bc4573d5f803e3d5ffd5b505050506040513d5f823e3d601f19601f82011682018060405250810190617bec919061d700565b92505050919050565b6060815f60015f9054906101000a900473ffffffffffffffffffffffffffffffffffffffff1673ffffffffffffffffffffffffffffffffffffffff16633bea27536040518060400160405280601981526020017f41574152445f4f465f434f4e54524143545f4d414e41474552000000000000008152506040518060400160405280600d81526020017f6c6973745f5f616f634c697374000000000000000000000000000000000000008152506040518363ffffffff1660e01b8152600401617cbf92919061cf58565b602060405180830381865afa158015617cda573d5f803e3d5ffd5b505050506040513d601f19601f82011682018060405250810190617cfe919061cfa1565b9050808210617d42576040517f08c379a0000000000000000000000000000000000000000000000000000000008152600401617d399061d016565b60405180910390fd5b60015f9054906101000a900473ffffffffffffffffffffffffffffffffffffffff1673ffffffffffffffffffffffffffffffffffffffff16632136448c6040518060400160405280601981526020017f41574152445f4f465f434f4e54524143545f4d414e41474552000000000000008152506040518060400160405280600d81526020017f6c6973745f5f616f634c69737400000000000000000000000000000000000000815250876040518060400160405280600581526020017f6f726749640000000000000000000000000000000000000000000000000000008152506040518563ffffffff1660e01b8152600401617e41949392919061d034565b5f60405180830381865afa158015617e5b573d5f803e3d5ffd5b505050506040513d5f823e3d601f19601f82011682018060405250810190617e83919061d700565b92505050919050565b60605f805f60025f9054906101000a900473ffffffffffffffffffffffffffffffffffffffff1673ffffffffffffffffffffffffffffffffffffffff16632f79e1026040518060400160405280601981526020017f41574152445f4f465f434f4e54524143545f4d414e41474552000000000000008152506040518060400160405280601081526020017f6d61705f5f616f637342795065476964000000000000000000000000000000008152508a6040518060400160405280600881526020017f5f5f6c656e677468000000000000000000000000000000000000000000000000815250604051602001617f81919061d281565b6040516020818303038152906040526040518563ffffffff1660e01b8152600401617faf949392919061d519565b602060405180830381865afa158015617fca573d5f803e3d5ffd5b505050506040513d601f19601f82011682018060405250810190617fee919061cfa1565b905080861115617ffc578095505b5f86861161800a578561800c565b865b90508067ffffffffffffffff8111156180285761802761bd52565b5b6040519080825280602002602001820160405280156180565781602001602082028036833780820191505090505b5094505b5f8111156181e257808061806d9061d36e565b915050868061807b9061d36e565b97505060025f9054906101000a900473ffffffffffffffffffffffffffffffffffffffff1673ffffffffffffffffffffffffffffffffffffffff16632f79e1026040518060400160405280601981526020017f41574152445f4f465f434f4e54524143545f4d414e41474552000000000000008152506040518060400160405280601081526020017f6d61705f5f616f637342795065476964000000000000000000000000000000008152508b8b604051602001618139919061d3b5565b6040516020818303038152906040526040518563ffffffff1660e01b8152600401618167949392919061d519565b602060405180830381865afa158015618182573d5f803e3d5ffd5b505050506040513d601f19601f820116820180604052508101906181a6919061cfa1565b8560018388516181b6919061d3cf565b6181c0919061d3cf565b815181106181d1576181d061d402565b5b60200260200101818152505061805a565b869350819250505093509350939050565b60605f805f60025f9054906101000a900473ffffffffffffffffffffffffffffffffffffffff1673ffffffffffffffffffffffffffffffffffffffff1663bfa9f3eb6040518060400160405280601981526020017f41574152445f4f465f434f4e54524143545f4d414e41474552000000000000008152506040518060400160405280601c81526020017f6d61705f5f616f6373427956656e646f72476964416e644f72674964000000008152508a6040518060400160405280600881526020017f5f5f6c656e6774680000000000000000000000000000000000000000000000008152506040516020016182e8919061d281565b6040516020818303038152906040526040518563ffffffff1660e01b8152600401618316949392919061d2e9565b602060405180830381865afa158015618331573d5f803e3d5ffd5b505050506040513d601f19601f82011682018060405250810190618355919061cfa1565b905080861115618363578095505b5f8686116183715785618373565b865b90508067ffffffffffffffff81111561838f5761838e61bd52565b5b6040519080825280602002602001820160405280156183bd5781602001602082028036833780820191505090505b5094505b5f8111156185495780806183d49061d36e565b91505086806183e29061d36e565b97505060025f9054906101000a900473ffffffffffffffffffffffffffffffffffffffff1673ffffffffffffffffffffffffffffffffffffffff1663bfa9f3eb6040518060400160405280601981526020017f41574152445f4f465f434f4e54524143545f4d414e41474552000000000000008152506040518060400160405280601c81526020017f6d61705f5f616f6373427956656e646f72476964416e644f72674964000000008152508b8b6040516020016184a0919061d3b5565b6040516020818303038152906040526040518563ffffffff1660e01b81526004016184ce949392919061d2e9565b602060405180830381865afa1580156184e9573d5f803e3d5ffd5b505050506040513d601f19601f8201168201806040525081019061850d919061cfa1565b85600183885161851d919061d3cf565b618527919061d3cf565b815181106185385761853761d402565b5b6020026020010181815250506183c1565b869350819250505093509350939050565b60035f9054906101000a900473ffffffffffffffffffffffffffffffffffffffff1673ffffffffffffffffffffffffffffffffffffffff1663ef02a3fc6040518060400160405280601981526020017f41574152445f4f465f434f4e54524143545f4d414e41474552000000000000008152506040518263ffffffff1660e01b81526004016185e9919061c74c565b602060405180830381865afa158015618604573d5f803e3d5ffd5b505050506040513d601f19601f82011682018060405250810190618628919061d147565b73ffffffffffffffffffffffffffffffffffffffff163373ffffffffffffffffffffffffffffffffffffffff1614618695576040517f08c379a000000000000000000000000000000000000000000000000000000000815260040161868c9061d1bc565b60405180910390fd5b815f60015f9054906101000a900473ffffffffffffffffffffffffffffffffffffffff1673ffffffffffffffffffffffffffffffffffffffff16633bea27536040518060400160405280601981526020017f41574152445f4f465f434f4e54524143545f4d414e41474552000000000000008152506040518060400160405280600d81526020017f6c6973745f5f616f634c697374000000000000000000000000000000000000008152506040518363ffffffff1660e01b815260040161875d92919061cf58565b602060405180830381865afa158015618778573d5f803e3d5ffd5b505050506040513d601f19601f8201168201806040525081019061879c919061cfa1565b90508082106187e0576040517f08c379a00000000000000000000000000000000000000000000000000000000081526004016187d79061d016565b60405180910390fd5b60015f9054906101000a900473ffffffffffffffffffffffffffffffffffffffff1673ffffffffffffffffffffffffffffffffffffffff16637f02dd826040518060400160405280601981526020017f41574152445f4f465f434f4e54524143545f4d414e41474552000000000000008152506040518060400160405280600d81526020017f6c6973745f5f616f634c69737400000000000000000000000000000000000000815250876040518060400160405280601381526020017f61776172644f66436f6e74726163744461746500000000000000000000000000815250886040518663ffffffff1660e01b81526004016188e195949392919061d832565b5f604051808303815f87803b1580156188f8575f80fd5b505af115801561890a573d5f803e3d5ffd5b5050505050505050565b60035f9054906101000a900473ffffffffffffffffffffffffffffffffffffffff1673ffffffffffffffffffffffffffffffffffffffff1663ef02a3fc6040518060400160405280601981526020017f41574152445f4f465f434f4e54524143545f4d414e41474552000000000000008152506040518263ffffffff1660e01b81526004016189a3919061c74c565b602060405180830381865afa1580156189be573d5f803e3d5ffd5b505050506040513d601f19601f820116820180604052508101906189e2919061d147565b73ffffffffffffffffffffffffffffffffffffffff163373ffffffffffffffffffffffffffffffffffffffff1614618a4f576040517f08c379a0000000000000000000000000000000000000000000000000000000008152600401618a469061d1bc565b60405180910390fd5b815f60015f9054906101000a900473ffffffffffffffffffffffffffffffffffffffff1673ffffffffffffffffffffffffffffffffffffffff16633bea27536040518060400160405280601981526020017f41574152445f4f465f434f4e54524143545f4d414e41474552000000000000008152506040518060400160405280600d81526020017f6c6973745f5f616f634c697374000000000000000000000000000000000000008152506040518363ffffffff1660e01b8152600401618b1792919061cf58565b602060405180830381865afa158015618b32573d5f803e3d5ffd5b505050506040513d601f19601f82011682018060405250810190618b56919061cfa1565b9050808210618b9a576040517f08c379a0000000000000000000000000000000000000000000000000000000008152600401618b919061d016565b60405180910390fd5b60015f9054906101000a900473ffffffffffffffffffffffffffffffffffffffff1673ffffffffffffffffffffffffffffffffffffffff1663f07aee956040518060400160405280601981526020017f41574152445f4f465f434f4e54524143545f4d414e41474552000000000000008152506040518060400160405280600d81526020017f6c6973745f5f616f634c69737400000000000000000000000000000000000000815250876040518060400160405280600781526020017f6c6f744e616d65000000000000000000000000000000000000000000000000008152506040518060400160405280600881526020017f5f5f6c656e67746800000000000000000000000000000000000000000000000081525089516040518763ffffffff1660e01b8152600401618cd39695949392919061d898565b5f604051808303815f87803b158015618cea575f80fd5b505af1158015618cfc573d5f803e3d5ffd5b505050505f5b8351811015618e875760015f9054906101000a900473ffffffffffffffffffffffffffffffffffffffff1673ffffffffffffffffffffffffffffffffffffffff1663df0a5a526040518060400160405280601981526020017f41574152445f4f465f434f4e54524143545f4d414e41474552000000000000008152506040518060400160405280600d81526020017f6c6973745f5f616f634c69737400000000000000000000000000000000000000815250886040518060400160405280600781526020017f6c6f744e616d650000000000000000000000000000000000000000000000000081525086604051602001618dfc919061d3b5565b6040516020818303038152906040528a8881518110618e1e57618e1d61d402565b5b60200260200101516040518763ffffffff1660e01b8152600401618e479695949392919061d913565b5f604051808303815f87803b158015618e5e575f80fd5b505af1158015618e70573d5f803e3d5ffd5b505050508080618e7f9061d578565b915050618d02565b5050505050565b60035f9054906101000a900473ffffffffffffffffffffffffffffffffffffffff1673ffffffffffffffffffffffffffffffffffffffff1663ef02a3fc6040518060400160405280601981526020017f41574152445f4f465f434f4e54524143545f4d414e41474552000000000000008152506040518263ffffffff1660e01b8152600401618f1d919061c74c565b602060405180830381865afa158015618f38573d5f803e3d5ffd5b505050506040513d601f19601f82011682018060405250810190618f5c919061d147565b73ffffffffffffffffffffffffffffffffffffffff163373ffffffffffffffffffffffffffffffffffffffff1614618fc9576040517f08c379a0000000000000000000000000000000000000000000000000000000008152600401618fc09061d1bc565b60405180910390fd5b815f60015f9054906101000a900473ffffffffffffffffffffffffffffffffffffffff1673ffffffffffffffffffffffffffffffffffffffff16633bea27536040518060400160405280601981526020017f41574152445f4f465f434f4e54524143545f4d414e41474552000000000000008152506040518060400160405280600d81526020017f6c6973745f5f616f634c697374000000000000000000000000000000000000008152506040518363ffffffff1660e01b815260040161909192919061cf58565b602060405180830381865afa1580156190ac573d5f803e3d5ffd5b505050506040513d601f19601f820116820180604052508101906190d0919061cfa1565b9050808210619114576040517f08c379a000000000000000000000000000000000000000000000000000000000815260040161910b9061d016565b60405180910390fd5b60015f9054906101000a900473ffffffffffffffffffffffffffffffffffffffff1673ffffffffffffffffffffffffffffffffffffffff1663c8f1cd876040518060400160405280601981526020017f41574152445f4f465f434f4e54524143545f4d414e41474552000000000000008152506040518060400160405280600d81526020017f6c6973745f5f616f634c69737400000000000000000000000000000000000000815250876040518060400160405280601281526020017f636f6e7472616374417761726456616c75650000000000000000000000000000815250886040518663ffffffff1660e01b815260040161921595949392919061d1da565b5f604051808303815f87803b15801561922c575f80fd5b505af115801561923e573d5f803e3d5ffd5b5050505050505050565b60605f60025f9054906101000a900473ffffffffffffffffffffffffffffffffffffffff1673ffffffffffffffffffffffffffffffffffffffff1663bfa9f3eb6040518060400160405280601981526020017f41574152445f4f465f434f4e54524143545f4d414e41474552000000000000008152506040518060400160405280601d81526020017f6d61705f5f616f6373496e646578427941776172645265664f72674964000000815250866040518060400160405280600881526020017f5f5f6c656e67746800000000000000000000000000000000000000000000000081525060405160200161933b919061d281565b6040516020818303038152906040526040518563ffffffff1660e01b8152600401619369949392919061d2e9565b602060405180830381865afa158015619384573d5f803e3d5ffd5b505050506040513d601f19601f820116820180604052508101906193a8919061cfa1565b90508067ffffffffffffffff8111156193c4576193c361bd52565b5b6040519080825280602002602001820160405280156193f25781602001602082028036833780820191505090505b5091505f5b818110156195595760025f9054906101000a900473ffffffffffffffffffffffffffffffffffffffff1673ffffffffffffffffffffffffffffffffffffffff1663bfa9f3eb6040518060400160405280601981526020017f41574152445f4f465f434f4e54524143545f4d414e41474552000000000000008152506040518060400160405280601d81526020017f6d61705f5f616f6373496e646578427941776172645265664f7267496400000081525087856040516020016194ba919061d3b5565b6040516020818303038152906040526040518563ffffffff1660e01b81526004016194e8949392919061d2e9565b602060405180830381865afa158015619503573d5f803e3d5ffd5b505050506040513d601f19601f82011682018060405250810190619527919061cfa1565b83828151811061953a5761953961d402565b5b60200260200101818152505080806195519061d578565b9150506193f7565b5050919050565b60605f805f61956d61527f565b90508086111561957b578095505b5f868611619589578561958b565b865b90508067ffffffffffffffff8111156195a7576195a661bd52565b5b6040519080825280602002602001820160405280156195e057816020015b6195cd61bb95565b8152602001906001900390816195c55790505b5094505b5f81111561964c5780806195f79061d36e565b91505086806196059061d36e565b975050619611876159db565b856001838851619621919061d3cf565b61962b919061d3cf565b8151811061963c5761963b61d402565b5b60200260200101819052506195e4565b86935081925050509250925092565b60035f9054906101000a900473ffffffffffffffffffffffffffffffffffffffff1673ffffffffffffffffffffffffffffffffffffffff1663ef02a3fc6040518060400160405280601981526020017f41574152445f4f465f434f4e54524143545f4d414e41474552000000000000008152506040518263ffffffff1660e01b81526004016196ea919061c74c565b602060405180830381865afa158015619705573d5f803e3d5ffd5b505050506040513d601f19601f82011682018060405250810190619729919061d147565b73ffffffffffffffffffffffffffffffffffffffff163373ffffffffffffffffffffffffffffffffffffffff1614619796576040517f08c379a000000000000000000000000000000000000000000000000000000000815260040161978d9061d1bc565b60405180910390fd5b815f60015f9054906101000a900473ffffffffffffffffffffffffffffffffffffffff1673ffffffffffffffffffffffffffffffffffffffff16633bea27536040518060400160405280601981526020017f41574152445f4f465f434f4e54524143545f4d414e41474552000000000000008152506040518060400160405280600d81526020017f6c6973745f5f616f634c697374000000000000000000000000000000000000008152506040518363ffffffff1660e01b815260040161985e92919061cf58565b602060405180830381865afa158015619879573d5f803e3d5ffd5b505050506040513d601f19601f8201168201806040525081019061989d919061cfa1565b90508082106198e1576040517f08c379a00000000000000000000000000000000000000000000000000000000081526004016198d89061d016565b60405180910390fd5b60015f9054906101000a900473ffffffffffffffffffffffffffffffffffffffff1673ffffffffffffffffffffffffffffffffffffffff1663ab2e960d6040518060400160405280601981526020017f41574152445f4f465f434f4e54524143545f4d414e41474552000000000000008152506040518060400160405280601381526020017f6c6973745f5f616f635374617475734c69737400000000000000000000000000815250876040518060400160405280600981526020017f616f6353746174757300000000000000000000000000000000000000000000008152508860028111156199d4576199d361bcae565b5b6040518663ffffffff1660e01b81526004016199f495949392919061d9a4565b5f604051808303815f87803b158015619a0b575f80fd5b505af1158015619a1d573d5f803e3d5ffd5b5050505050505050565b60035f9054906101000a900473ffffffffffffffffffffffffffffffffffffffff1673ffffffffffffffffffffffffffffffffffffffff1663ef02a3fc6040518060400160405280601981526020017f41574152445f4f465f434f4e54524143545f4d414e41474552000000000000008152506040518263ffffffff1660e01b8152600401619ab6919061c74c565b602060405180830381865afa158015619ad1573d5f803e3d5ffd5b505050506040513d601f19601f82011682018060405250810190619af5919061d147565b73ffffffffffffffffffffffffffffffffffffffff163373ffffffffffffffffffffffffffffffffffffffff1614619b62576040517f08c379a0000000000000000000000000000000000000000000000000000000008152600401619b599061d1bc565b60405180910390fd5b815f60015f9054906101000a900473ffffffffffffffffffffffffffffffffffffffff1673ffffffffffffffffffffffffffffffffffffffff16633bea27536040518060400160405280601981526020017f41574152445f4f465f434f4e54524143545f4d414e41474552000000000000008152506040518060400160405280600d81526020017f6c6973745f5f616f634c697374000000000000000000000000000000000000008152506040518363ffffffff1660e01b8152600401619c2a92919061cf58565b602060405180830381865afa158015619c45573d5f803e3d5ffd5b505050506040513d601f19601f82011682018060405250810190619c69919061cfa1565b9050808210619cad576040517f08c379a0000000000000000000000000000000000000000000000000000000008152600401619ca49061d016565b60405180910390fd5b60015f9054906101000a900473ffffffffffffffffffffffffffffffffffffffff1673ffffffffffffffffffffffffffffffffffffffff1663c8f1cd876040518060400160405280601981526020017f41574152445f4f465f434f4e54524143545f4d414e41474552000000000000008152506040518060400160405280600d81526020017f6c6973745f5f616f634c69737400000000000000000000000000000000000000815250876040518060400160405280600781526020017f72656d61726b7300000000000000000000000000000000000000000000000000815250886040518663ffffffff1660e01b8152600401619dae95949392919061d1da565b5f604051808303815f87803b158015619dc5575f80fd5b505af1158015619dd7573d5f803e3d5ffd5b5050505050505050565b6060815f60015f9054906101000a900473ffffffffffffffffffffffffffffffffffffffff1673ffffffffffffffffffffffffffffffffffffffff16633bea27536040518060400160405280601981526020017f41574152445f4f465f434f4e54524143545f4d414e41474552000000000000008152506040518060400160405280600d81526020017f6c6973745f5f616f634c697374000000000000000000000000000000000000008152506040518363ffffffff1660e01b8152600401619eab92919061cf58565b602060405180830381865afa158015619ec6573d5f803e3d5ffd5b505050506040513d601f19601f82011682018060405250810190619eea919061cfa1565b9050808210619f2e576040517f08c379a0000000000000000000000000000000000000000000000000000000008152600401619f259061d016565b60405180910390fd5b60015f9054906101000a900473ffffffffffffffffffffffffffffffffffffffff1673ffffffffffffffffffffffffffffffffffffffff16632136448c6040518060400160405280601981526020017f41574152445f4f465f434f4e54524143545f4d414e41474552000000000000008152506040518060400160405280600d81526020017f6c6973745f5f616f634c69737400000000000000000000000000000000000000815250876040518060400160405280600e81526020017f61776172645265666572656e63650000000000000000000000000000000000008152506040518563ffffffff1660e01b815260040161a02d949392919061d034565b5f60405180830381865afa15801561a047573d5f803e3d5ffd5b505050506040513d5f823e3d601f19601f8201168201806040525081019061a06f919061d700565b92505050919050565b6060815f60015f9054906101000a900473ffffffffffffffffffffffffffffffffffffffff1673ffffffffffffffffffffffffffffffffffffffff16633bea27536040518060400160405280601981526020017f41574152445f4f465f434f4e54524143545f4d414e41474552000000000000008152506040518060400160405280600d81526020017f6c6973745f5f616f634c697374000000000000000000000000000000000000008152506040518363ffffffff1660e01b815260040161a14292919061cf58565b602060405180830381865afa15801561a15d573d5f803e3d5ffd5b505050506040513d601f19601f8201168201806040525081019061a181919061cfa1565b905080821061a1c5576040517f08c379a000000000000000000000000000000000000000000000000000000000815260040161a1bc9061d016565b60405180910390fd5b60015f9054906101000a900473ffffffffffffffffffffffffffffffffffffffff1673ffffffffffffffffffffffffffffffffffffffff16632136448c6040518060400160405280601981526020017f41574152445f4f465f434f4e54524143545f4d414e41474552000000000000008152506040518060400160405280600d81526020017f6c6973745f5f616f634c69737400000000000000000000000000000000000000815250876040518060400160405280600581526020017f7469746c650000000000000000000000000000000000000000000000000000008152506040518563ffffffff1660e01b815260040161a2c4949392919061d034565b5f60405180830381865afa15801561a2de573d5f803e3d5ffd5b505050506040513d5f823e3d601f19601f8201168201806040525081019061a306919061d700565b92505050919050565b60035f9054906101000a900473ffffffffffffffffffffffffffffffffffffffff1673ffffffffffffffffffffffffffffffffffffffff1663ef02a3fc6040518060400160405280601981526020017f41574152445f4f465f434f4e54524143545f4d414e41474552000000000000008152506040518263ffffffff1660e01b815260040161a39e919061c74c565b602060405180830381865afa15801561a3b9573d5f803e3d5ffd5b505050506040513d601f19601f8201168201806040525081019061a3dd919061d147565b73ffffffffffffffffffffffffffffffffffffffff163373ffffffffffffffffffffffffffffffffffffffff161461a44a576040517f08c379a000000000000000000000000000000000000000000000000000000000815260040161a4419061d1bc565b60405180910390fd5b805f60015f9054906101000a900473ffffffffffffffffffffffffffffffffffffffff1673ffffffffffffffffffffffffffffffffffffffff16633bea27536040518060400160405280601981526020017f41574152445f4f465f434f4e54524143545f4d414e41474552000000000000008152506040518060400160405280600d81526020017f6c6973745f5f616f634c697374000000000000000000000000000000000000008152506040518363ffffffff1660e01b815260040161a51292919061cf58565b602060405180830381865afa15801561a52d573d5f803e3d5ffd5b505050506040513d601f19601f8201168201806040525081019061a551919061cfa1565b905080821061a595576040517f08c379a000000000000000000000000000000000000000000000000000000000815260040161a58c9061d016565b60405180910390fd5b60015f9054906101000a900473ffffffffffffffffffffffffffffffffffffffff1673ffffffffffffffffffffffffffffffffffffffff1663c4f188576040518060400160405280601981526020017f41574152445f4f465f434f4e54524143545f4d414e41474552000000000000008152506040518060400160405280600d81526020017f6c6973745f5f616f634c69737400000000000000000000000000000000000000815250866040518060400160405280600781526020017f76657273696f6e0000000000000000000000000000000000000000000000000081525060016040518663ffffffff1660e01b815260040161a69795949392919061da0a565b5f604051808303815f87803b15801561a6ae575f80fd5b505af115801561a6c0573d5f803e3d5ffd5b50505050505050565b60035f9054906101000a900473ffffffffffffffffffffffffffffffffffffffff1673ffffffffffffffffffffffffffffffffffffffff1663ef02a3fc6040518060400160405280601981526020017f41574152445f4f465f434f4e54524143545f4d414e41474552000000000000008152506040518263ffffffff1660e01b815260040161a758919061c74c565b602060405180830381865afa15801561a773573d5f803e3d5ffd5b505050506040513d601f19601f8201168201806040525081019061a797919061d147565b73ffffffffffffffffffffffffffffffffffffffff163373ffffffffffffffffffffffffffffffffffffffff161461a804576040517f08c379a000000000000000000000000000000000000000000000000000000000815260040161a7fb9061d1bc565b60405180910390fd5b815f60015f9054906101000a900473ffffffffffffffffffffffffffffffffffffffff1673ffffffffffffffffffffffffffffffffffffffff16633bea27536040518060400160405280601981526020017f41574152445f4f465f434f4e54524143545f4d414e41474552000000000000008152506040518060400160405280600d81526020017f6c6973745f5f616f634c697374000000000000000000000000000000000000008152506040518363ffffffff1660e01b815260040161a8cc92919061cf58565b602060405180830381865afa15801561a8e7573d5f803e3d5ffd5b505050506040513d601f19601f8201168201806040525081019061a90b919061cfa1565b905080821061a94f576040517f08c379a000000000000000000000000000000000000000000000000000000000815260040161a9469061d016565b60405180910390fd5b60015f9054906101000a900473ffffffffffffffffffffffffffffffffffffffff1673ffffffffffffffffffffffffffffffffffffffff1663a06fd4546040518060400160405280601981526020017f41574152445f4f465f434f4e54524143545f4d414e41474552000000000000008152506040518060400160405280600d81526020017f6c6973745f5f616f634c69737400000000000000000000000000000000000000815250876040518060400160405280600381526020017f7569640000000000000000000000000000000000000000000000000000000000815250886040518663ffffffff1660e01b815260040161aa5095949392919061da70565b5f604051808303815f87803b15801561aa67575f80fd5b505af115801561aa79573d5f803e3d5ffd5b5050505050505050565b60605f805f60025f9054906101000a900473ffffffffffffffffffffffffffffffffffffffff1673ffffffffffffffffffffffffffffffffffffffff1663bfa9f3eb6040518060400160405280601981526020017f41574152445f4f465f434f4e54524143545f4d414e41474552000000000000008152506040518060400160405280601c81526020017f6d61705f5f616f6373427954656e646572526566416e644f72674964000000008152508a6040518060400160405280600881526020017f5f5f6c656e67746800000000000000000000000000000000000000000000000081525060405160200161ab78919061d281565b6040516020818303038152906040526040518563ffffffff1660e01b815260040161aba6949392919061d2e9565b602060405180830381865afa15801561abc1573d5f803e3d5ffd5b505050506040513d601f19601f8201168201806040525081019061abe5919061cfa1565b90508086111561abf3578095505b5f86861161ac01578561ac03565b865b90508067ffffffffffffffff81111561ac1f5761ac1e61bd52565b5b60405190808252806020026020018201604052801561ac4d5781602001602082028036833780820191505090505b5094505b5f81111561add957808061ac649061d36e565b915050868061ac729061d36e565b97505060025f9054906101000a900473ffffffffffffffffffffffffffffffffffffffff1673ffffffffffffffffffffffffffffffffffffffff1663bfa9f3eb6040518060400160405280601981526020017f41574152445f4f465f434f4e54524143545f4d414e41474552000000000000008152506040518060400160405280601c81526020017f6d61705f5f616f6373427954656e646572526566416e644f72674964000000008152508b8b60405160200161ad30919061d3b5565b6040516020818303038152906040526040518563ffffffff1660e01b815260040161ad5e949392919061d2e9565b602060405180830381865afa15801561ad79573d5f803e3d5ffd5b505050506040513d601f19601f8201168201806040525081019061ad9d919061cfa1565b85600183885161adad919061d3cf565b61adb7919061d3cf565b8151811061adc85761adc761d402565b5b60200260200101818152505061ac51565b869350819250505093509350939050565b5f815f60015f9054906101000a900473ffffffffffffffffffffffffffffffffffffffff1673ffffffffffffffffffffffffffffffffffffffff16633bea27536040518060400160405280601981526020017f41574152445f4f465f434f4e54524143545f4d414e41474552000000000000008152506040518060400160405280600d81526020017f6c6973745f5f616f634c697374000000000000000000000000000000000000008152506040518363ffffffff1660e01b815260040161aeb392919061cf58565b602060405180830381865afa15801561aece573d5f803e3d5ffd5b505050506040513d601f19601f8201168201806040525081019061aef2919061cfa1565b905080821061af36576040517f08c379a000000000000000000000000000000000000000000000000000000000815260040161af2d9061d016565b60405180910390fd5b60015f9054906101000a900473ffffffffffffffffffffffffffffffffffffffff1673ffffffffffffffffffffffffffffffffffffffff1663b83032bd6040518060400160405280601981526020017f41574152445f4f465f434f4e54524143545f4d414e41474552000000000000008152506040518060400160405280600d81526020017f6c6973745f5f616f634c69737400000000000000000000000000000000000000815250876040518060400160405280601381526020017f61776172644f66436f6e747261637444617465000000000000000000000000008152506040518563ffffffff1660e01b815260040161b035949392919061d034565b602060405180830381865afa15801561b050573d5f803e3d5ffd5b505050506040513d601f19601f8201168201806040525081019061b074919061cfa1565b92505050919050565b6060815f60015f9054906101000a900473ffffffffffffffffffffffffffffffffffffffff1673ffffffffffffffffffffffffffffffffffffffff16633bea27536040518060400160405280601981526020017f41574152445f4f465f434f4e54524143545f4d414e41474552000000000000008152506040518060400160405280600d81526020017f6c6973745f5f616f634c697374000000000000000000000000000000000000008152506040518363ffffffff1660e01b815260040161b14792919061cf58565b602060405180830381865afa15801561b162573d5f803e3d5ffd5b505050506040513d601f19601f8201168201806040525081019061b186919061cfa1565b905080821061b1ca576040517f08c379a000000000000000000000000000000000000000000000000000000000815260040161b1c19061d016565b60405180910390fd5b60015f9054906101000a900473ffffffffffffffffffffffffffffffffffffffff1673ffffffffffffffffffffffffffffffffffffffff16632136448c6040518060400160405280601981526020017f41574152445f4f465f434f4e54524143545f4d414e41474552000000000000008152506040518060400160405280600d81526020017f6c6973745f5f616f634c69737400000000000000000000000000000000000000815250876040518060400160405280601281526020017f70726f637572696e67456e7469747947696400000000000000000000000000008152506040518563ffffffff1660e01b815260040161b2c9949392919061d034565b5f60405180830381865afa15801561b2e3573d5f803e3d5ffd5b505050506040513d5f823e3d601f19601f8201168201806040525081019061b30b919061d700565b92505050919050565b6060815f60015f9054906101000a900473ffffffffffffffffffffffffffffffffffffffff1673ffffffffffffffffffffffffffffffffffffffff16633bea27536040518060400160405280601981526020017f41574152445f4f465f434f4e54524143545f4d414e41474552000000000000008152506040518060400160405280600d81526020017f6c6973745f5f616f634c697374000000000000000000000000000000000000008152506040518363ffffffff1660e01b815260040161b3de92919061cf58565b602060405180830381865afa15801561b3f9573d5f803e3d5ffd5b505050506040513d601f19601f8201168201806040525081019061b41d919061cfa1565b905080821061b461576040517f08c379a000000000000000000000000000000000000000000000000000000000815260040161b4589061d016565b60405180910390fd5b60015f9054906101000a900473ffffffffffffffffffffffffffffffffffffffff1673ffffffffffffffffffffffffffffffffffffffff16632136448c6040518060400160405280601981526020017f41574152445f4f465f434f4e54524143545f4d414e41474552000000000000008152506040518060400160405280600d81526020017f6c6973745f5f616f634c69737400000000000000000000000000000000000000815250876040518060400160405280601281526020017f636f6e7472616374417761726456616c756500000000000000000000000000008152506040518563ffffffff1660e01b815260040161b560949392919061d034565b5f60405180830381865afa15801561b57a573d5f803e3d5ffd5b505050506040513d5f823e3d601f19601f8201168201806040525081019061b5a2919061d700565b92505050919050565b60035f9054906101000a900473ffffffffffffffffffffffffffffffffffffffff1673ffffffffffffffffffffffffffffffffffffffff1663ef02a3fc6040518060400160405280601981526020017f41574152445f4f465f434f4e54524143545f4d414e41474552000000000000008152506040518263ffffffff1660e01b815260040161b63a919061c74c565b602060405180830381865afa15801561b655573d5f803e3d5ffd5b505050506040513d601f19601f8201168201806040525081019061b679919061d147565b73ffffffffffffffffffffffffffffffffffffffff163373ffffffffffffffffffffffffffffffffffffffff161461b6e6576040517f08c379a000000000000000000000000000000000000000000000000000000000815260040161b6dd9061d1bc565b60405180910390fd5b60015f9054906101000a900473ffffffffffffffffffffffffffffffffffffffff1673ffffffffffffffffffffffffffffffffffffffff1663a24a899b6040518060400160405280601981526020017f41574152445f4f465f434f4e54524143545f4d414e41474552000000000000008152506040518060400160405280600d81526020017f6c6973745f5f616f634c697374000000000000000000000000000000000000008152506040518363ffffffff1660e01b815260040161b7ac92919061cf58565b5f604051808303815f87803b15801561b7c3575f80fd5b505af115801561b7d5573d5f803e3d5ffd5b50505050565b60035f9054906101000a900473ffffffffffffffffffffffffffffffffffffffff1673ffffffffffffffffffffffffffffffffffffffff1663ef02a3fc6040518060400160405280601981526020017f41574152445f4f465f434f4e54524143545f4d414e41474552000000000000008152506040518263ffffffff1660e01b815260040161b86a919061c74c565b602060405180830381865afa15801561b885573d5f803e3d5ffd5b505050506040513d601f19601f8201168201806040525081019061b8a9919061d147565b73ffffffffffffffffffffffffffffffffffffffff163373ffffffffffffffffffffffffffffffffffffffff161461b916576040517f08c379a000000000000000000000000000000000000000000000000000000000815260040161b90d9061d1bc565b60405180910390fd5b815f60015f9054906101000a900473ffffffffffffffffffffffffffffffffffffffff1673ffffffffffffffffffffffffffffffffffffffff16633bea27536040518060400160405280601981526020017f41574152445f4f465f434f4e54524143545f4d414e41474552000000000000008152506040518060400160405280600d81526020017f6c6973745f5f616f634c697374000000000000000000000000000000000000008152506040518363ffffffff1660e01b815260040161b9de92919061cf58565b602060405180830381865afa15801561b9f9573d5f803e3d5ffd5b505050506040513d601f19601f8201168201806040525081019061ba1d919061cfa1565b905080821061ba61576040517f08c379a000000000000000000000000000000000000000000000000000000000815260040161ba589061d016565b60405180910390fd5b60015f9054906101000a900473ffffffffffffffffffffffffffffffffffffffff1673ffffffffffffffffffffffffffffffffffffffff1663c8f1cd876040518060400160405280601981526020017f41574152445f4f465f434f4e54524143545f4d414e41474552000000000000008152506040518060400160405280600d81526020017f6c6973745f5f616f634c69737400000000000000000000000000000000000000815250876040518060400160405280601281526020017f70726f637572696e67456e746974794769640000000000000000000000000000815250886040518663ffffffff1660e01b815260040161bb6295949392919061d1da565b5f604051808303815f87803b15801561bb79575f80fd5b505af115801561bb8b573d5f803e3d5ffd5b5050505050505050565b6040518061020001604052805f77ffffffffffffffffffffffffffffffffffffffffffffffff1916815260200160608152602001606081526020016060815260200160608152602001606081526020015f600281111561bbf85761bbf761bcae565b5b815260200160608152602001606081526020015f815260200160608152602001606081526020016060815260200160608152602001606081526020015f61ffff1681525090565b5f604051905090565b5f80fd5b5f80fd5b5f819050919050565b61bc628161bc50565b811461bc6c575f80fd5b50565b5f8135905061bc7d8161bc59565b92915050565b5f6020828403121561bc985761bc9761bc48565b5b5f61bca58482850161bc6f565b91505092915050565b7f4e487b71000000000000000000000000000000000000000000000000000000005f52602160045260245ffd5b6003811061bcec5761bceb61bcae565b5b50565b5f81905061bcfc8261bcdb565b919050565b5f61bd0b8261bcef565b9050919050565b61bd1b8161bd01565b82525050565b5f60208201905061bd345f83018461bd12565b92915050565b5f80fd5b5f80fd5b5f601f19601f8301169050919050565b7f4e487b71000000000000000000000000000000000000000000000000000000005f52604160045260245ffd5b61bd888261bd42565b810181811067ffffffffffffffff8211171561bda75761bda661bd52565b5b80604052505050565b5f61bdb961bc3f565b905061bdc5828261bd7f565b919050565b5f67ffffffffffffffff82111561bde45761bde361bd52565b5b61bded8261bd42565b9050602081019050919050565b828183375f83830152505050565b5f61be1a61be158461bdca565b61bdb0565b90508281526020810184848401111561be365761be3561bd3e565b5b61be4184828561bdfa565b509392505050565b5f82601f83011261be5d5761be5c61bd3a565b5b813561be6d84826020860161be08565b91505092915050565b5f806040838503121561be8c5761be8b61bc48565b5b5f61be998582860161bc6f565b925050602083013567ffffffffffffffff81111561beba5761beb961bc4c565b5b61bec68582860161be49565b9150509250929050565b5f7fffffffffffffffff00000000000000000000000000000000000000000000000082169050919050565b61bf048161bed0565b811461bf0e575f80fd5b50565b5f8135905061bf1f8161befb565b92915050565b5f805f6060848603121561bf3c5761bf3b61bc48565b5b5f61bf498682870161bf11565b935050602061bf5a8682870161bc6f565b925050604061bf6b8682870161bc6f565b9150509250925092565b5f81519050919050565b5f82825260208201905092915050565b5f819050602082019050919050565b61bfa78161bc50565b82525050565b5f61bfb8838361bf9e565b60208301905092915050565b5f602082019050919050565b5f61bfda8261bf75565b61bfe4818561bf7f565b935061bfef8361bf8f565b805f5b8381101561c01f57815161c006888261bfad565b975061c0118361bfc4565b92505060018101905061bff2565b5085935050505092915050565b61c0358161bc50565b82525050565b5f6060820190508181035f83015261c053818661bfd0565b905061c062602083018561c02c565b61c06f604083018461c02c565b949350505050565b5f806040838503121561c08d5761c08c61bc48565b5b5f61c09a8582860161bf11565b925050602061c0ab8582860161bc6f565b9150509250929050565b5f6020828403121561c0ca5761c0c961bc48565b5b5f61c0d78482850161bf11565b91505092915050565b5f6020828403121561c0f55761c0f461bc48565b5b5f82013567ffffffffffffffff81111561c1125761c11161bc4c565b5b61c11e8482850161be49565b91505092915050565b5f6020820190508181035f83015261c13f818461bfd0565b905092915050565b5f80fd5b5f80fd5b6003811061c15b575f80fd5b50565b5f8135905061c16c8161c14f565b92915050565b5f67ffffffffffffffff82111561c18c5761c18b61bd52565b5b602082029050602081019050919050565b5f80fd5b5f61c1b361c1ae8461c172565b61bdb0565b9050808382526020820190506020840283018581111561c1d65761c1d561c19d565b5b835b8181101561c21d57803567ffffffffffffffff81111561c1fb5761c1fa61bd3a565b5b80860161c208898261be49565b8552602085019450505060208101905061c1d8565b5050509392505050565b5f82601f83011261c23b5761c23a61bd3a565b5b813561c24b84826020860161c1a1565b91505092915050565b5f61ffff82169050919050565b61c26a8161c254565b811461c274575f80fd5b50565b5f8135905061c2858161c261565b92915050565b5f610200828403121561c2a15761c2a061c147565b5b61c2ac61020061bdb0565b90505f61c2bb8482850161bf11565b5f83015250602082013567ffffffffffffffff81111561c2de5761c2dd61c14b565b5b61c2ea8482850161be49565b602083015250604082013567ffffffffffffffff81111561c30e5761c30d61c14b565b5b61c31a8482850161be49565b604083015250606082013567ffffffffffffffff81111561c33e5761c33d61c14b565b5b61c34a8482850161be49565b606083015250608082013567ffffffffffffffff81111561c36e5761c36d61c14b565b5b61c37a8482850161be49565b60808301525060a082013567ffffffffffffffff81111561c39e5761c39d61c14b565b5b61c3aa8482850161be49565b60a08301525060c061c3be8482850161c15e565b60c08301525060e082013567ffffffffffffffff81111561c3e25761c3e161c14b565b5b61c3ee8482850161be49565b60e08301525061010082013567ffffffffffffffff81111561c4135761c41261c14b565b5b61c41f8482850161c227565b6101008301525061012061c4358482850161bc6f565b6101208301525061014082013567ffffffffffffffff81111561c45b5761c45a61c14b565b5b61c4678482850161be49565b6101408301525061016082013567ffffffffffffffff81111561c48d5761c48c61c14b565b5b61c4998482850161be49565b6101608301525061018082013567ffffffffffffffff81111561c4bf5761c4be61c14b565b5b61c4cb8482850161be49565b610180830152506101a082013567ffffffffffffffff81111561c4f15761c4f061c14b565b5b61c4fd8482850161be49565b6101a0830152506101c082013567ffffffffffffffff81111561c5235761c52261c14b565b5b61c52f8482850161be49565b6101c0830152506101e061c5458482850161c277565b6101e08301525092915050565b5f806040838503121561c5685761c56761bc48565b5b5f83013567ffffffffffffffff81111561c5855761c58461bc4c565b5b61c5918582860161c28b565b925050602061c5a28582860161bc6f565b9150509250929050565b5f806040838503121561c5c25761c5c161bc48565b5b5f83013567ffffffffffffffff81111561c5df5761c5de61bc4c565b5b61c5eb8582860161be49565b925050602061c5fc8582860161bc6f565b9150509250929050565b5f60208201905061c6195f83018461c02c565b92915050565b5f6020828403121561c6345761c63361bc48565b5b5f82013567ffffffffffffffff81111561c6515761c65061bc4c565b5b61c65d8482850161c28b565b91505092915050565b5f805f6060848603121561c67d5761c67c61bc48565b5b5f84013567ffffffffffffffff81111561c69a5761c69961bc4c565b5b61c6a68682870161be49565b935050602061c6b78682870161bc6f565b925050604061c6c88682870161bc6f565b9150509250925092565b5f81519050919050565b5f82825260208201905092915050565b5f5b8381101561c70957808201518184015260208101905061c6ee565b5f8484015250505050565b5f61c71e8261c6d2565b61c728818561c6dc565b935061c73881856020860161c6ec565b61c7418161bd42565b840191505092915050565b5f6020820190508181035f83015261c764818461c714565b905092915050565b61c7758161bed0565b82525050565b5f82825260208201905092915050565b5f61c7958261c6d2565b61c79f818561c77b565b935061c7af81856020860161c6ec565b61c7b88161bd42565b840191505092915050565b61c7cc8161bd01565b82525050565b5f81519050919050565b5f82825260208201905092915050565b5f819050602082019050919050565b5f61c806838361c78b565b905092915050565b5f602082019050919050565b5f61c8248261c7d2565b61c82e818561c7dc565b93508360208202850161c8408561c7ec565b805f5b8581101561c87b578484038952815161c85c858261c7fb565b945061c8678361c80e565b925060208a0199505060018101905061c843565b50829750879550505050505092915050565b61c8968161c254565b82525050565b5f61020083015f83015161c8b25f86018261c76c565b506020830151848203602086015261c8ca828261c78b565b9150506040830151848203604086015261c8e4828261c78b565b9150506060830151848203606086015261c8fe828261c78b565b9150506080830151848203608086015261c918828261c78b565b91505060a083015184820360a086015261c932828261c78b565b91505060c083015161c94760c086018261c7c3565b5060e083015184820360e086015261c95f828261c78b565b91505061010083015184820361010086015261c97b828261c81a565b91505061012083015161c99261012086018261bf9e565b5061014083015184820361014086015261c9ac828261c78b565b91505061016083015184820361016086015261c9c8828261c78b565b91505061018083015184820361018086015261c9e4828261c78b565b9150506101a08301518482036101a086015261ca00828261c78b565b9150506101c08301518482036101c086015261ca1c828261c78b565b9150506101e083015161ca336101e086018261c88d565b508091505092915050565b5f6020820190508181035f83015261ca56818461c89c565b905092915050565b5f82825260208201905092915050565b5f61ca788261c7d2565b61ca82818561ca5e565b93508360208202850161ca948561c7ec565b805f5b8581101561cacf578484038952815161cab0858261c7fb565b945061cabb8361c80e565b925060208a0199505060018101905061ca97565b50829750879550505050505092915050565b5f6020820190508181035f83015261caf9818461ca6e565b905092915050565b61cb0a8161bed0565b82525050565b5f60208201905061cb235f83018461cb01565b92915050565b61cb328161c254565b82525050565b5f60208201905061cb4b5f83018461cb29565b92915050565b5f806040838503121561cb675761cb6661bc48565b5b5f61cb748582860161bc6f565b925050602083013567ffffffffffffffff81111561cb955761cb9461bc4c565b5b61cba18582860161c28b565b9150509250929050565b5f806040838503121561cbc15761cbc061bc48565b5b5f61cbce8582860161bc6f565b925050602061cbdf8582860161bc6f565b9150509250929050565b5f806040838503121561cbff5761cbfe61bc48565b5b5f61cc0c8582860161bc6f565b925050602083013567ffffffffffffffff81111561cc2d5761cc2c61bc4c565b5b61cc398582860161c227565b9150509250929050565b5f81519050919050565b5f82825260208201905092915050565b5f819050602082019050919050565b5f61020083015f83015161cc825f86018261c76c565b506020830151848203602086015261cc9a828261c78b565b9150506040830151848203604086015261ccb4828261c78b565b9150506060830151848203606086015261ccce828261c78b565b9150506080830151848203608086015261cce8828261c78b565b91505060a083015184820360a086015261cd02828261c78b565b91505060c083015161cd1760c086018261c7c3565b5060e083015184820360e086015261cd2f828261c78b565b91505061010083015184820361010086015261cd4b828261c81a565b91505061012083015161cd6261012086018261bf9e565b5061014083015184820361014086015261cd7c828261c78b565b91505061016083015184820361016086015261cd98828261c78b565b91505061018083015184820361018086015261cdb4828261c78b565b9150506101a08301518482036101a086015261cdd0828261c78b565b9150506101c08301518482036101c086015261cdec828261c78b565b9150506101e083015161ce036101e086018261c88d565b508091505092915050565b5f61ce19838361cc6c565b905092915050565b5f602082019050919050565b5f61ce378261cc43565b61ce41818561cc4d565b93508360208202850161ce538561cc5d565b805f5b8581101561ce8e578484038952815161ce6f858261ce0e565b945061ce7a8361ce21565b925060208a0199505060018101905061ce56565b50829750879550505050505092915050565b5f6060820190508181035f83015261ceb8818661ce2d565b905061cec7602083018561c02c565b61ced4604083018461c02c565b949350505050565b5f806040838503121561cef25761cef161bc48565b5b5f61ceff8582860161bc6f565b925050602061cf108582860161c15e565b9150509250929050565b5f806040838503121561cf305761cf2f61bc48565b5b5f61cf3d8582860161bc6f565b925050602061cf4e8582860161bf11565b9150509250929050565b5f6040820190508181035f83015261cf70818561c714565b9050818103602083015261cf84818461c714565b90509392505050565b5f8151905061cf9b8161bc59565b92915050565b5f6020828403121561cfb65761cfb561bc48565b5b5f61cfc38482850161cf8d565b91505092915050565b7f496e64657820496e76616c6964000000000000000000000000000000000000005f82015250565b5f61d000600d8361c6dc565b915061d00b8261cfcc565b602082019050919050565b5f6020820190508181035f83015261d02d8161cff4565b9050919050565b5f6080820190508181035f83015261d04c818761c714565b9050818103602083015261d060818661c714565b905061d06f604083018561c02c565b818103606083015261d081818461c714565b905095945050505050565b5f60ff82169050919050565b61d0a18161d08c565b811461d0ab575f80fd5b50565b5f8151905061d0bc8161d098565b92915050565b5f6020828403121561d0d75761d0d661bc48565b5b5f61d0e48482850161d0ae565b91505092915050565b5f73ffffffffffffffffffffffffffffffffffffffff82169050919050565b5f61d1168261d0ed565b9050919050565b61d1268161d10c565b811461d130575f80fd5b50565b5f8151905061d1418161d11d565b92915050565b5f6020828403121561d15c5761d15b61bc48565b5b5f61d1698482850161d133565b91505092915050565b7f556e617574686f72697a656420436f6e74726163742043616c6c0000000000005f82015250565b5f61d1a6601a8361c6dc565b915061d1b18261d172565b602082019050919050565b5f6020820190508181035f83015261d1d38161d19a565b9050919050565b5f60a0820190508181035f83015261d1f2818861c714565b9050818103602083015261d206818761c714565b905061d215604083018661c02c565b818103606083015261d227818561c714565b9050818103608083015261d23b818461c714565b90509695505050505050565b5f81905092915050565b5f61d25b8261c6d2565b61d265818561d247565b935061d27581856020860161c6ec565b80840191505092915050565b5f61d28c828461d251565b915081905092915050565b5f81519050919050565b5f82825260208201905092915050565b5f61d2bb8261d297565b61d2c5818561d2a1565b935061d2d581856020860161c6ec565b61d2de8161bd42565b840191505092915050565b5f6080820190508181035f83015261d301818761c714565b9050818103602083015261d315818661c714565b905061d324604083018561cb01565b818103606083015261d336818461d2b1565b905095945050505050565b7f4e487b71000000000000000000000000000000000000000000000000000000005f52601160045260245ffd5b5f61d3788261bc50565b91505f820361d38a5761d38961d341565b5b600182039050919050565b5f819050919050565b61d3af61d3aa8261bc50565b61d395565b82525050565b5f61d3c0828461d39e565b60208201915081905092915050565b5f61d3d98261bc50565b915061d3e48361bc50565b925082820390508181111561d3fc5761d3fb61d341565b5b92915050565b7f4e487b71000000000000000000000000000000000000000000000000000000005f52603260045260245ffd5b5f6080820190508181035f83015261d447818761c714565b9050818103602083015261d45b818661c714565b905061d46a604083018561cb01565b61d477606083018461c02c565b95945050505050565b5f61d48a8261bc50565b915061d4958361bc50565b925082820190508082111561d4ad5761d4ac61d341565b5b92915050565b5f60a0820190508181035f83015261d4cb818861c714565b9050818103602083015261d4df818761c714565b905061d4ee604083018661cb01565b818103606083015261d500818561d2b1565b905061d50f608083018461c02c565b9695505050505050565b5f6080820190508181035f83015261d531818761c714565b9050818103602083015261d545818661c714565b9050818103604083015261d559818561c714565b9050818103606083015261d56d818461d2b1565b905095945050505050565b5f61d5828261bc50565b91507fffffffffffffffffffffffffffffffffffffffffffffffffffffffffffffffff820361d5b45761d5b361d341565b5b600182019050919050565b5f60a0820190508181035f83015261d5d7818861c714565b9050818103602083015261d5eb818761c714565b9050818103604083015261d5ff818661c714565b9050818103606083015261d613818561d2b1565b905061d622608083018461c02c565b9695505050505050565b5f61d637828561d251565b915061d643828461d251565b91508190509392505050565b5f6060820190508181035f83015261d667818661c714565b9050818103602083015261d67b818561c714565b905061d68a604083018461cb01565b949350505050565b5f61d6a461d69f8461bdca565b61bdb0565b90508281526020810184848401111561d6c05761d6bf61bd3e565b5b61d6cb84828561c6ec565b509392505050565b5f82601f83011261d6e75761d6e661bd3a565b5b815161d6f784826020860161d692565b91505092915050565b5f6020828403121561d7155761d71461bc48565b5b5f82015167ffffffffffffffff81111561d7325761d73161bc4c565b5b61d73e8482850161d6d3565b91505092915050565b5f60a0820190508181035f83015261d75f818861c714565b9050818103602083015261d773818761c714565b905061d782604083018661c02c565b818103606083015261d794818561d2b1565b9050818103608083015261d7a8818461d2b1565b90509695505050505050565b5f8151905061d7c28161befb565b92915050565b5f6020828403121561d7dd5761d7dc61bc48565b5b5f61d7ea8482850161d7b4565b91505092915050565b5f8151905061d8018161c261565b92915050565b5f6020828403121561d81c5761d81b61bc48565b5b5f61d8298482850161d7f3565b91505092915050565b5f60a0820190508181035f83015261d84a818861c714565b9050818103602083015261d85e818761c714565b905061d86d604083018661c02c565b818103606083015261d87f818561c714565b905061d88e608083018461c02c565b9695505050505050565b5f60c0820190508181035f83015261d8b0818961c714565b9050818103602083015261d8c4818861c714565b905061d8d3604083018761c02c565b818103606083015261d8e5818661d2b1565b9050818103608083015261d8f9818561d2b1565b905061d90860a083018461c02c565b979650505050505050565b5f60c0820190508181035f83015261d92b818961c714565b9050818103602083015261d93f818861c714565b905061d94e604083018761c02c565b818103606083015261d960818661d2b1565b9050818103608083015261d974818561d2b1565b905081810360a083015261d988818461c714565b9050979650505050505050565b61d99e8161d08c565b82525050565b5f60a0820190508181035f83015261d9bc818861c714565b9050818103602083015261d9d0818761c714565b905061d9df604083018661c02c565b818103606083015261d9f1818561c714565b905061da00608083018461d995565b9695505050505050565b5f60a0820190508181035f83015261da22818861c714565b9050818103602083015261da36818761c714565b905061da45604083018661c02c565b818103606083015261da57818561c714565b905061da66608083018461cb29565b9695505050505050565b5f60a0820190508181035f83015261da88818861c714565b9050818103602083015261da9c818761c714565b905061daab604083018661c02c565b818103606083015261dabd818561c714565b905061dacc608083018461cb01565b969550505050505056fea2646970667358221220e24c35f5f85f918d74e07912bdca590d001fbc8faf3fd3a4b20de6bca3764b7764736f6c63430008140033",
  "immutableReferences": {},
  "source": "pragma solidity ^0.8.0;\npragma experimental ABIEncoderV2;\n\nimport \"./MemberStorage.sol\";\nimport \"./ListStorage.sol\";\nimport \"./MapStorage.sol\";\nimport \"./QuireContracts.sol\";\n\ncontract AwardOfContractStructs {\n    uint16 constant internal __VERSION__ = 1;\n\n    enum AOCStatus {EvaluationComplete, Awarded, Cancelled}\n    \n    struct AOC {\n        bytes8 uid;\n        string vendorGid;\n        string vendorName;\n        string tenderReference;\n        string awardReference;\n        string title;\n        AOCStatus aocStatus;\n        string contractAwardValue;\n        string[] lotName;\n        uint awardOfContractDate;\n        string procuringEntityGid;\n        string procuringEntityName;\n        string remarks;\n        string awardOfContractLink;\n        string orgId;\n        uint16 version;\n    }\n    string constant internal propKeyAocUid = \"uid\";\n    string constant internal propKeyAocVendorGid = \"vendorGid\";\n    string constant internal propKeyAocVendorName = \"vendorName\";\n    string constant internal propKeyAocTenderReference = \"tenderReference\";\n    string constant internal propKeyAocAwardReference = \"awardReference\";\n    string constant internal propKeyAocTitle = \"title\";\n    string constant internal propKeyAocStatus = \"aocStatus\";\n    string constant internal propKeyAocContractAwardValue = \"contractAwardValue\";\n    string constant internal propKeyAocLotName = \"lotName\";\n    string constant internal propKeyAocAwardOfContractDate = \"awardOfContractDate\";\n    string constant internal propKeyAocProcuringEntityGid = \"procuringEntityGid\";\n    string constant internal propKeyAocProcuringEntityName = \"procuringEntityName\";\n    string constant internal propKeyAocRemarks = \"remarks\";\n    string constant internal propKeyAocAwardOfContractLink = \"awardOfContractLink\";\n    string constant internal propKeyAocOrgId = \"orgId\";\n    string constant internal propKeyAocVersion = \"version\";\n}\n\ncontract AwardOfContractModel is AwardOfContractStructs {\n\n    MemberStorage private Member;\n    ListStorage private List;\n    MapStorage private Map;\n    QuireContracts private quireContracts;\n    \n    constructor(\n        address _Member,\n        address _List,\n        address _Map,\n        address _quireContracts\n    ){\n        Member = MemberStorage(_Member);\n        List = ListStorage(_List);\n        Map = MapStorage(_Map);\n        quireContracts = QuireContracts(_quireContracts);\n    }\n\n\n    string constant internal KEY = \"AWARD_OF_CONTRACT_MANAGER\";\n    string constant internal propLength = \"__length\";\n    string constant internal aocList = \"list__aocList\";\n    string constant internal vendorAOCsMap = \"map__vendorAOCs\";\n    string constant internal aocIndexMap = \"map__aocIndex\";\n    string constant internal aocStatusList = \"list__aocStatusList\";\n    string constant internal aocsIndexByAwardRefOrgIdMap = \"map__aocsIndexByAwardRefOrgId\";\n    string constant internal aocsByPeGid = \"map__aocsByPeGid\";\n    string constant internal aocsByOrgId = \"map__aocsByOrgId\";\n    string constant internal aocsByVendorGidAndOrgId = \"map__aocsByVendorGidAndOrgId\";\n    string constant internal aocsByTenderRefAndOrgId = \"map__aocsByTenderRefAndOrgId\";\n    string constant internal aocsByPeAndVendorGid= \"map__aocsByPeAndVendorGid\";\n    \n    modifier onlyAocManager() {\n        require(msg.sender==quireContracts.getRegisteredContract(KEY), \"Unauthorized Contract Call\");\n        _;\n    }\n    \n    modifier validAocListIndex(uint256 _index){\n        uint256 length = List.getLength(KEY, aocList);\n        require(_index < length, \"Index Invalid\");\n        _;\n    }\n\n    function getAocIndex(bytes8 _uid) public view returns (uint256) {\n        return Map.getBytes8ToUint(KEY, aocIndexMap, _uid);\n    }\n\n    function getAocsIndexByAwardRefOrgId(bytes8 _uid) public view returns (uint256[] memory indexList_) {\n        uint length = Map.getByKeyBytes8ToUint(KEY, aocsIndexByAwardRefOrgIdMap, _uid, abi.encodePacked(propLength));\n        indexList_ = new uint[](length);\n        for (uint256 i = 0; i < length; i++) {\n            indexList_[i] = Map.getByKeyBytes8ToUint(KEY, aocsIndexByAwardRefOrgIdMap, _uid, abi.encodePacked(i));\n        }\n    }\n\n    function getVendorAocIndices(string memory _gid) public view returns(uint[] memory vendorAocs_) {\n        uint length = Map.getByKeyStringToUint(KEY, vendorAOCsMap, _gid, abi.encodePacked(propLength));\n        vendorAocs_ = new uint[](length);\n        for (uint256 i = 0; i < length; i++) {\n            vendorAocs_[i] = Map.getByKeyStringToUint(KEY, vendorAOCsMap, _gid, abi.encodePacked(i));\n        }\n    }\n\n    function getAocListLength() public view returns (uint256) {\n        return List.getLength(KEY, aocList);\n    }\n\n    function getAocByIndex(uint256 _index) public view \n    validAocListIndex(_index) \n    returns(AOC memory aoc_) {\n        aoc_.uid = getAocUid(_index);\n        aoc_.vendorGid = getAocVendorGid(_index);\n        aoc_.vendorName = getAocVendorName(_index);\n        aoc_.tenderReference = getAocTenderReference(_index);\n        aoc_.awardReference = getAocAwardReference(_index);\n        aoc_.aocStatus = getAocStatus(_index);\n        aoc_.title = getAocTitle(_index);\n        aoc_.contractAwardValue = getAocCavTender(_index);\n        aoc_.lotName = getAocLotName(_index);\n        aoc_.awardOfContractDate = getAocContractDate(_index);\n        aoc_.procuringEntityGid = getAocProcEntityGid(_index);\n        aoc_.procuringEntityName = getAocProcEntityName(_index);\n        aoc_.remarks = getAocRemarks(_index);\n        aoc_.awardOfContractLink = getAocAocLink(_index);\n        aoc_.orgId = getAocOrgId(_index);\n        aoc_.version = getAocVersion(_index);\n    }\n\n    function getAllAoc(uint _toExcluded, uint _count) external view \n    returns(AOC[] memory _aoc, uint fromIncluded_, uint length_) {\n        uint length = getAocListLength();\n        if (_toExcluded > length) {\n            _toExcluded = length;\n        }\n        uint itr = _count>_toExcluded ? _toExcluded:_count;\n        _aoc = new AOC[](itr);\n        while (itr>0) {\n            itr--;\n            _toExcluded--;\n            _aoc[_aoc.length-itr-1] = getAocByIndex(_toExcluded);\n        }\n        fromIncluded_ = _toExcluded;\n        length_ = length;\n    }\n\n    function getAocUid(uint256 _index) public view \n    validAocListIndex(_index) \n    returns(bytes8) {\n        return List.getPropBytes8(KEY, aocList, _index, propKeyAocUid);\n    }\n\n    function getAocVendorGid(uint256 _index) public view \n    validAocListIndex(_index) \n    returns(string memory) {\n        return List.getPropString(KEY, aocList, _index, propKeyAocVendorGid);\n    }\n\n    function getAocVendorName(uint256 _index) public view \n    validAocListIndex(_index) \n    returns(string memory) {\n        return List.getPropString(KEY, aocList, _index, propKeyAocVendorName);\n    }\n\n    function getAocTenderReference(uint256 _index) public view \n    validAocListIndex(_index) \n    returns(string memory) {\n        return List.getPropString(KEY, aocList, _index, propKeyAocTenderReference);\n    }\n\n    function getAocAwardReference(uint256 _index) public view \n    validAocListIndex(_index) \n    returns(string memory) {\n        return List.getPropString(KEY, aocList, _index, propKeyAocAwardReference);\n    }\n\n    function getAocStatus(uint256 _index) public view\n    validAocListIndex(_index) \n    returns(AOCStatus) {\n        return AOCStatus(List.getPropUint8(KEY, aocStatusList, _index, propKeyAocStatus));\n    }\n\n    function getAocTitle(uint256 _index) public view \n    validAocListIndex(_index) \n    returns(string memory) {\n        return List.getPropString(KEY, aocList, _index, propKeyAocTitle);\n    }\n\n    function getAocCavTender(uint256 _index) public view \n    validAocListIndex(_index) \n    returns(string memory) {\n        return List.getPropString(KEY, aocList, _index, propKeyAocContractAwardValue);\n    }\n\n    function getAocLotName(uint256 _index) public view \n    validAocListIndex(_index) \n    returns(string[] memory lotName_) {\n        uint length = List.getPropByKeyUint(KEY, aocList, _index, bytes(propKeyAocLotName), abi.encodePacked(propLength));\n        lotName_ = new string[](length);\n        for (uint256 i = 0; i < length; i++) {\n            lotName_[i] = List.getPropByKeyString(KEY, aocList, _index, bytes(propKeyAocLotName), abi.encodePacked(i));\n        }\n    }\n\n    function getAocContractDate(uint256 _index) public view \n    validAocListIndex(_index) \n    returns(uint) {\n        return List.getPropUint(KEY, aocList, _index, propKeyAocAwardOfContractDate);\n    }\n\n    function getAocProcEntityGid(uint256 _index) public view \n    validAocListIndex(_index) \n    returns(string memory) {\n        return List.getPropString(KEY, aocList, _index, propKeyAocProcuringEntityGid);\n    }\n\n    function getAocProcEntityName(uint256 _index) public view \n    validAocListIndex(_index) \n    returns(string memory) {\n        return List.getPropString(KEY, aocList, _index, propKeyAocProcuringEntityName);\n    }\n\n    function getAocRemarks(uint256 _index) public view \n    validAocListIndex(_index) \n    returns(string memory) {\n        return List.getPropString(KEY, aocList, _index, propKeyAocRemarks);\n    }\n\n    function getAocAocLink(uint256 _index) public view \n    validAocListIndex(_index) \n    returns(string memory) {\n        return List.getPropString(KEY, aocList, _index, propKeyAocAwardOfContractLink);\n    }\n\n    function getAocOrgId(uint256 _index) public view \n    validAocListIndex(_index) \n    returns(string memory) {\n        return List.getPropString(KEY, aocList, _index, propKeyAocOrgId);\n    }\n\n    function getAocVersion(uint256 _index) public view \n    validAocListIndex(_index) \n    returns(uint16) {\n        return List.getPropUint16(KEY, aocList, _index, propKeyAocVersion);\n    }\n\n    \n    /** @dev Listing out the Aocs against the PE Gid.\n      * @param _procuringEntityGid GID assigned to Procuring Entity.\n      * @param _toExcluded The length till where the uint indexes has to be fetched.\n      * @param _count The number of indexes that has to be fetched. \n      * @return _aocsByPeGid List of Aocs against the PE Gid.\n      * @return fromIncluded_ _toExcluded - _count.\n      * @return length_ The length of the index present for the PE Gid.\n      */\n    function getAocsByPeGid(string memory _procuringEntityGid, uint _toExcluded, uint _count) public view returns(uint[] memory _aocsByPeGid, uint fromIncluded_, uint length_)  {\n        uint length = Map.getByKeyStringToUint(KEY, aocsByPeGid, _procuringEntityGid, abi.encodePacked(propLength));\n        if (_toExcluded > length) {\n            _toExcluded = length;\n        }\n        uint itr = _count>_toExcluded ? _toExcluded:_count;\n        _aocsByPeGid = new uint[](itr);\n        while (itr>0) {\n            itr--;\n            _toExcluded--;\n            _aocsByPeGid[_aocsByPeGid.length-itr-1] = Map.getByKeyStringToUint(KEY, aocsByPeGid, _procuringEntityGid, abi.encodePacked(_toExcluded));\n        }\n        fromIncluded_ = _toExcluded;\n        length_ = length;\n    }\n\n\n    /** @dev Listing out the Aocs against the EgpSystem Id.\n      * @param _orgId e-GP system Id registered with the network.\n      * @param _toExcluded The length till where the uint indexes has to be fetched.\n      * @param _count The number of indexes that has to be fetched. \n      * @return _aocsByOrgId List of Aocs against the EgpSystem Id.\n      * @return fromIncluded_ _toExcluded - _count.\n      * @return length_ The length of the index present for the EgpSystem Id.\n      */\n    function getAocsByOrgId(string memory _orgId, uint _toExcluded, uint _count) public view returns(uint[] memory _aocsByOrgId, uint fromIncluded_, uint length_)  {\n        uint length = Map.getByKeyStringToUint(KEY, aocsByOrgId, _orgId, abi.encodePacked(propLength));\n        if (_toExcluded > length) {\n            _toExcluded = length;\n        }\n        uint itr = _count>_toExcluded ? _toExcluded:_count;\n        _aocsByOrgId = new uint[](itr);\n        while (itr>0) {\n            itr--;\n            _toExcluded--;\n            _aocsByOrgId[_aocsByOrgId.length-itr-1] = Map.getByKeyStringToUint(KEY, aocsByOrgId, _orgId, abi.encodePacked(_toExcluded));\n        }\n        fromIncluded_ = _toExcluded;\n        length_ = length;\n    }\n\n\n    /** @dev Listing out the Aocs against the Vendor Gid and EgpSystem Id.\n      * @param _aocVendorOrgId GID of the vendor and e-GP system Id registered with the network.\n      * @param _toExcluded The length till where the uint indexes has to be fetched.\n      * @param _count The number of indexes that has to be fetched. \n      * @return _aocsByVendorGidAndOrgId List of Aocs against the Vendor Gid and EgpSystem Id.\n      * @return fromIncluded_ _toExcluded - _count.\n      * @return length_ The length of the index present for the Vendor Gid and EgpSystem Id.\n      */\n    function getAocsByVendorGidAndOrgId(bytes8 _aocVendorOrgId, uint _toExcluded, uint _count) public view returns(uint[] memory _aocsByVendorGidAndOrgId, uint fromIncluded_, uint length_)  {\n        //bytes8 _aocVendorOrgId = bytes8(keccak256(abi.encodePacked(_vendorGid, _orgId)));\n        uint length = Map.getByKeyBytes8ToUint(KEY, aocsByVendorGidAndOrgId, _aocVendorOrgId, abi.encodePacked(propLength));\n        if (_toExcluded > length) {\n            _toExcluded = length;\n        }\n        uint itr = _count>_toExcluded ? _toExcluded:_count;\n        _aocsByVendorGidAndOrgId = new uint[](itr);\n        while (itr>0) {\n            itr--;\n            _toExcluded--;\n            _aocsByVendorGidAndOrgId[_aocsByVendorGidAndOrgId.length-itr-1] = Map.getByKeyBytes8ToUint(KEY, aocsByVendorGidAndOrgId, _aocVendorOrgId, abi.encodePacked(_toExcluded));\n        }\n        fromIncluded_ = _toExcluded;\n        length_ = length;\n    }\n\n\n    /** @dev Listing out the Aocs against the Tender Reference and EgpSystem Id.\n      * @param _aocTenderRefOrgId Tender Reference and e-GP system Id registered with the network.\n      * @param _toExcluded The length till where the uint indexes has to be fetched.\n      * @param _count The number of indexes that has to be fetched. \n      * @return _aocsByTenderRefAndOrgId List of Aocs against the Tender Reference and EgpSystem Id.\n      * @return fromIncluded_ _toExcluded - _count.\n      * @return length_ The length of the index present for the Tender Reference and EgpSystem Id.\n      */\n    function getAocsByTenderRefAndOrgId(bytes8 _aocTenderRefOrgId, uint _toExcluded, uint _count) public view returns(uint[] memory _aocsByTenderRefAndOrgId, uint fromIncluded_, uint length_)  {\n        //bytes8 _aocTenderRefOrgId = bytes8(keccak256(abi.encodePacked(_tenderReference, _orgId)));\n        uint length = Map.getByKeyBytes8ToUint(KEY, aocsByTenderRefAndOrgId, _aocTenderRefOrgId, abi.encodePacked(propLength));\n        if (_toExcluded > length) {\n            _toExcluded = length;\n        }\n        uint itr = _count>_toExcluded ? _toExcluded:_count;\n        _aocsByTenderRefAndOrgId = new uint[](itr);\n        while (itr>0) {\n            itr--;\n            _toExcluded--;\n            _aocsByTenderRefAndOrgId[_aocsByTenderRefAndOrgId.length-itr-1] = Map.getByKeyBytes8ToUint(KEY, aocsByTenderRefAndOrgId, _aocTenderRefOrgId, abi.encodePacked(_toExcluded));\n        }\n        fromIncluded_ = _toExcluded;\n        length_ = length;\n    }\n\n\n    /** @dev Listing out the Aocs against the PE GID and Vendor Gid.\n      * @param _aocPeVendorGid GID assigned to Procuring Entity and GID of the vendor.\n      * @param _toExcluded The length till where the uint indexes has to be fetched.\n      * @param _count The number of indexes that has to be fetched. \n      * @return _aocsByPeAndVendorGid List of Aocs against the PE GID and Vendor Gid.\n      * @return fromIncluded_ _toExcluded - _count.\n      * @return length_ The length of the index present for the PE GID and Vendor Gid.\n      */\n    function getAocsByPeAndVendorGid(bytes8 _aocPeVendorGid, uint _toExcluded, uint _count) public view returns(uint[] memory _aocsByPeAndVendorGid, uint fromIncluded_, uint length_)  {\n        //bytes8 _aocPeVendorGid = bytes8(keccak256(abi.encodePacked(_procuringEntityGid, _vendorGid)));\n        uint length = Map.getByKeyBytes8ToUint(KEY, aocsByPeAndVendorGid, _aocPeVendorGid, abi.encodePacked(propLength));\n        if (_toExcluded > length) {\n            _toExcluded = length;\n        }\n        uint itr = _count>_toExcluded ? _toExcluded:_count;\n        _aocsByPeAndVendorGid = new uint[](itr);\n        while (itr>0) {\n            itr--;\n            _toExcluded--;\n            _aocsByPeAndVendorGid[_aocsByPeAndVendorGid.length-itr-1] = Map.getByKeyBytes8ToUint(KEY, aocsByPeAndVendorGid, _aocPeVendorGid, abi.encodePacked(_toExcluded));\n        }\n        fromIncluded_ = _toExcluded;\n        length_ = length;\n    }\n\n\n\n    // ------------- SETTERS ------------- //\n    \n    function addAocIndexByAwardRefOrgId(bytes8 _uid, uint _value) public \n    onlyAocManager\n    {\n        uint length = Map.getByKeyBytes8ToUint(KEY, aocsIndexByAwardRefOrgIdMap, _uid, abi.encodePacked(propLength));\n        Map.setByKeyBytes8ToUint(KEY, aocsIndexByAwardRefOrgIdMap, _uid, abi.encodePacked(propLength), 1 + length);\n        Map.setByKeyBytes8ToUint(KEY, aocsIndexByAwardRefOrgIdMap, _uid, abi.encodePacked(length), _value);\n    }\n\n    function setAocIndex(bytes8 _uid, uint _value) public \n    onlyAocManager\n    {\n        return Map.setBytes8ToUint(KEY, aocIndexMap, _uid, _value);\n    }\n\n    function addVendorAocIndex(string memory _gid, uint _value) public \n    onlyAocManager\n    {\n        uint length = Map.getByKeyStringToUint(KEY, vendorAOCsMap, _gid, abi.encodePacked(propLength));\n        Map.setByKeyStringToUint(KEY, vendorAOCsMap, _gid, abi.encodePacked(propLength), 1+length);\n        Map.setByKeyStringToUint(KEY, vendorAOCsMap, _gid, abi.encodePacked(length), _value);\n    }\n\n    function incAocListLength() public \n    onlyAocManager {\n        List.incLength(KEY, aocList);\n    }\n\n    function addAwardOfContract(uint _index, AOC memory _aoc) public\n    onlyAocManager\n    validAocListIndex(_index) {\n        setAocUid(_index, _aoc.uid);\n        setAocVendorGid(_index, _aoc.vendorGid);\n        setAocVendorName(_index, _aoc.vendorName);\n        setAocTenderReference(_index, _aoc.tenderReference);\n        setAocAwardReference(_index, _aoc.awardReference);\n        setAocStatus(_index,_aoc.aocStatus);\n        setAocTitle(_index, _aoc.title);\n        setAocCavTender(_index, _aoc.contractAwardValue);\n        setAocLotName(_index, _aoc.lotName);\n        setAocContractDate(_index, _aoc.awardOfContractDate);\n        setAocProcEntityGid(_index, _aoc.procuringEntityGid);\n        setAocProcEntityName(_index, _aoc.procuringEntityName);\n        setAocRemarks(_index, _aoc.remarks);\n        setAocAocLink(_index, _aoc.awardOfContractLink);\n        setAocOrgId(_index, _aoc.orgId);\n        setAocVersion(_index);\n    }\n\n    function setAocUid(uint256 _index, bytes8 _uid) public \n    onlyAocManager\n    validAocListIndex(_index) \n    {\n        List.setPropBytes8(KEY, aocList, _index, propKeyAocUid, _uid);\n    }\n\n    function setAocVendorGid(uint256 _index, string memory _gid) public \n    onlyAocManager\n    validAocListIndex(_index) \n    {\n        List.setPropString(KEY, aocList, _index, propKeyAocVendorGid, _gid);\n    }\n\n    function setAocVendorName(uint256 _index, string memory _value) public \n    onlyAocManager\n    validAocListIndex(_index) \n    {\n        List.setPropString(KEY, aocList, _index, propKeyAocVendorName, _value);\n    }\n\n    function setAocTenderReference(uint256 _index, string memory _value) public \n    onlyAocManager\n    validAocListIndex(_index) \n    {\n        List.setPropString(KEY, aocList, _index, propKeyAocTenderReference, _value);\n    }\n\n    function setAocAwardReference(uint256 _index, string memory _value) public \n    onlyAocManager\n    validAocListIndex(_index) \n    {\n        List.setPropString(KEY, aocList, _index, propKeyAocAwardReference, _value);\n    }\n\n    function setAocStatus(uint256 _index, AOCStatus _value) public\n    onlyAocManager\n    validAocListIndex(_index) \n    {\n        List.setPropUint8(KEY, aocStatusList, _index, propKeyAocStatus, uint8(_value));\n    }\n\n    function setAocTitle(uint256 _index, string memory _value) public \n    onlyAocManager\n    validAocListIndex(_index) \n    {\n        List.setPropString(KEY, aocList, _index, propKeyAocTitle, _value);\n    }\n\n    function setAocCavTender(uint256 _index, string memory _value) public \n    onlyAocManager\n    validAocListIndex(_index) \n    {\n        List.setPropString(KEY, aocList, _index, propKeyAocContractAwardValue, _value);\n    }\n\n    function setAocLotName(uint256 _index, string[] memory _value) public \n    onlyAocManager\n    validAocListIndex(_index) \n    {\n        List.setPropByKeyUint(KEY, aocList, _index, bytes(propKeyAocLotName), bytes(propLength), _value.length);\n        for (uint256 i = 0; i < _value.length; i++) {\n            List.setPropByKeyString(KEY, aocList, _index, bytes(propKeyAocLotName), abi.encodePacked(i), _value[i]);\n        }\n    }\n\n    function setAocContractDate(uint256 _index, uint _awardOfContractDate) public \n    onlyAocManager\n    validAocListIndex(_index) \n    {\n        List.setPropUint(KEY, aocList, _index, propKeyAocAwardOfContractDate, _awardOfContractDate);\n    }\n\n    function setAocProcEntityGid(uint256 _index, string memory _gid) public \n    onlyAocManager\n    validAocListIndex(_index) \n    {\n        List.setPropString(KEY, aocList, _index, propKeyAocProcuringEntityGid, _gid);\n    }\n\n    function setAocProcEntityName(uint256 _index, string memory _value) public \n    onlyAocManager\n    validAocListIndex(_index) \n    {\n        List.setPropString(KEY, aocList, _index, propKeyAocProcuringEntityName, _value);\n    }\n\n    function setAocRemarks(uint256 _index, string memory _value) public \n    onlyAocManager\n    validAocListIndex(_index) \n    {\n        List.setPropString(KEY, aocList, _index, propKeyAocRemarks, _value);\n    }\n\n    function setAocAocLink(uint256 _index, string memory _value) public \n    onlyAocManager\n    validAocListIndex(_index) \n    {\n        List.setPropString(KEY, aocList, _index, propKeyAocAwardOfContractLink, _value);\n    }\n\n    function setAocOrgId(uint256 _index, string memory _value) public \n    onlyAocManager\n    validAocListIndex(_index) \n    {\n        List.setPropString(KEY, aocList, _index, propKeyAocOrgId, _value);\n    }\n\n    function setAocVersion(uint256 _index) public\n    onlyAocManager\n    validAocListIndex(_index) \n    {\n        List.setPropUint16(KEY, aocList, _index, propKeyAocVersion, __VERSION__);\n    }\n\n    function awardedAocStatus(AOC memory _aoc) public\n    onlyAocManager\n    {\n        uint256 _index = getAocIndex(_aoc.uid);\n        setAocVendorGid(_index-1, _aoc.vendorGid);\n        setAocVendorName(_index-1, _aoc.vendorName);\n        setAocAwardReference(_index-1, _aoc.awardReference);\n        setAocTitle(_index-1, _aoc.title);\n        setAocStatus(_index-1, AOCStatus.Awarded);\n        setAocCavTender(_index-1, _aoc.contractAwardValue);\n        setAocLotName(_index-1, _aoc.lotName);\n        setAocContractDate(_index-1, _aoc.awardOfContractDate);\n        setAocRemarks(_index-1, _aoc.remarks);\n        setAocAocLink(_index-1, _aoc.awardOfContractLink);\n    }\n\n    function cancelAocStatus(bytes8 _uid) public\n    onlyAocManager\n    {\n        uint256 _index = getAocIndex(_uid);\n        setAocStatus(_index-1, AOCStatus.Cancelled);\n    }\n\n\n    \n    /** @dev Setting the Aocs against the PE GID, Setting the Aocs against the EgpSystem Id , Setting the Aocs against the Vendor Gid and EgpSystem Id, Setting the Aocs against the Tender Reference Number and EgpSystem Id, Setting the Aocs against the PE Gid and Vendor Gid.\n      * @param _aoc Award of contract details.\n      * @param _value .\n      */\n    function setAocIndices(AOC memory _aoc, uint _value) public \n    onlyAocManager\n    {\n        // set aocsByPeGid\n        uint length = Map.getByKeyStringToUint(KEY, aocsByPeGid, _aoc.procuringEntityGid, abi.encodePacked(propLength));\n        Map.setByKeyStringToUint(KEY, aocsByPeGid, _aoc.procuringEntityGid, abi.encodePacked(propLength), 1+length);\n        Map.setByKeyStringToUint(KEY, aocsByPeGid, _aoc.procuringEntityGid, abi.encodePacked(length), _value);\n\n\n        //set aocsByOrgId\n        length = Map.getByKeyStringToUint(KEY, aocsByOrgId, _aoc.orgId, abi.encodePacked(propLength));\n        Map.setByKeyStringToUint(KEY, aocsByOrgId, _aoc.orgId, abi.encodePacked(propLength), 1+length);\n        Map.setByKeyStringToUint(KEY, aocsByOrgId, _aoc.orgId, abi.encodePacked(length), _value);\n\n        //set aocsByVendorGidAndOrgId\n        bytes8 _aocVendorOrgId = bytes8(keccak256(abi.encodePacked(_aoc.vendorGid, _aoc.orgId)));\n        length = Map.getByKeyBytes8ToUint(KEY, aocsByVendorGidAndOrgId, _aocVendorOrgId, abi.encodePacked(propLength));\n        Map.setByKeyBytes8ToUint(KEY, aocsByVendorGidAndOrgId, _aocVendorOrgId, abi.encodePacked(propLength), 1+length);\n        Map.setByKeyBytes8ToUint(KEY, aocsByVendorGidAndOrgId, _aocVendorOrgId, abi.encodePacked(length), _value);\n\n        //set aocsByTenderRefAndOrgId\n        bytes8 _aocTenderRefOrgId = bytes8(keccak256(abi.encodePacked(_aoc.tenderReference, _aoc.orgId)));\n        length = Map.getByKeyBytes8ToUint(KEY, aocsByTenderRefAndOrgId, _aocTenderRefOrgId, abi.encodePacked(propLength));\n        Map.setByKeyBytes8ToUint(KEY, aocsByTenderRefAndOrgId, _aocTenderRefOrgId, abi.encodePacked(propLength), 1+length);\n        Map.setByKeyBytes8ToUint(KEY, aocsByTenderRefAndOrgId, _aocTenderRefOrgId, abi.encodePacked(length), _value);\n\n        //set aocsByPeAndVendorGid\n        bytes8 _aocPeVendorGid = bytes8(keccak256(abi.encodePacked(_aoc.procuringEntityGid, _aoc.vendorGid)));\n        length = Map.getByKeyBytes8ToUint(KEY, aocsByPeAndVendorGid, _aocPeVendorGid, abi.encodePacked(propLength));\n        Map.setByKeyBytes8ToUint(KEY, aocsByPeAndVendorGid, _aocPeVendorGid, abi.encodePacked(propLength), 1+length);\n        Map.setByKeyBytes8ToUint(KEY, aocsByPeAndVendorGid, _aocPeVendorGid, abi.encodePacked(length), _value);\n        \n\n\n    }\n\n}",
  "sourcePath": "/home/raghupathi/Desktop/javaClass/javaClass/contracts/AwardOfContractModel.sol",
  "compiler": {
    "name": "solc",
    "version": "0.8.20+commit.a1b79de6.Emscripten.clang"
  },
  "schemaVersion": "3.4.14",
  "updatedAt": "2023-06-02T09:43:22.555Z",
  "devdoc": {
    "kind": "dev",
    "methods": {
      "getAocsByOrgId(string,uint256,uint256)": {
        "details": "Listing out the Aocs against the EgpSystem Id.",
        "params": {
          "_count": "The number of indexes that has to be fetched. ",
          "_orgId": "e-GP system Id registered with the network.",
          "_toExcluded": "The length till where the uint indexes has to be fetched."
        },
        "returns": {
          "_aocsByOrgId": "List of Aocs against the EgpSystem Id.",
          "fromIncluded_": "_toExcluded - _count.",
          "length_": "The length of the index present for the EgpSystem Id."
        }
      },
      "getAocsByPeAndVendorGid(bytes8,uint256,uint256)": {
        "details": "Listing out the Aocs against the PE GID and Vendor Gid.",
        "params": {
          "_aocPeVendorGid": "GID assigned to Procuring Entity and GID of the vendor.",
          "_count": "The number of indexes that has to be fetched. ",
          "_toExcluded": "The length till where the uint indexes has to be fetched."
        },
        "returns": {
          "_aocsByPeAndVendorGid": "List of Aocs against the PE GID and Vendor Gid.",
          "fromIncluded_": "_toExcluded - _count.",
          "length_": "The length of the index present for the PE GID and Vendor Gid."
        }
      },
      "getAocsByPeGid(string,uint256,uint256)": {
        "details": "Listing out the Aocs against the PE Gid.",
        "params": {
          "_count": "The number of indexes that has to be fetched. ",
          "_procuringEntityGid": "GID assigned to Procuring Entity.",
          "_toExcluded": "The length till where the uint indexes has to be fetched."
        },
        "returns": {
          "_aocsByPeGid": "List of Aocs against the PE Gid.",
          "fromIncluded_": "_toExcluded - _count.",
          "length_": "The length of the index present for the PE Gid."
        }
      },
      "getAocsByTenderRefAndOrgId(bytes8,uint256,uint256)": {
        "details": "Listing out the Aocs against the Tender Reference and EgpSystem Id.",
        "params": {
          "_aocTenderRefOrgId": "Tender Reference and e-GP system Id registered with the network.",
          "_count": "The number of indexes that has to be fetched. ",
          "_toExcluded": "The length till where the uint indexes has to be fetched."
        },
        "returns": {
          "_aocsByTenderRefAndOrgId": "List of Aocs against the Tender Reference and EgpSystem Id.",
          "fromIncluded_": "_toExcluded - _count.",
          "length_": "The length of the index present for the Tender Reference and EgpSystem Id."
        }
      },
      "getAocsByVendorGidAndOrgId(bytes8,uint256,uint256)": {
        "details": "Listing out the Aocs against the Vendor Gid and EgpSystem Id.",
        "params": {
          "_aocVendorOrgId": "GID of the vendor and e-GP system Id registered with the network.",
          "_count": "The number of indexes that has to be fetched. ",
          "_toExcluded": "The length till where the uint indexes has to be fetched."
        },
        "returns": {
          "_aocsByVendorGidAndOrgId": "List of Aocs against the Vendor Gid and EgpSystem Id.",
          "fromIncluded_": "_toExcluded - _count.",
          "length_": "The length of the index present for the Vendor Gid and EgpSystem Id."
        }
      },
      "setAocIndices((bytes8,string,string,string,string,string,uint8,string,string[],uint256,string,string,string,string,string,uint16),uint256)": {
        "details": "Setting the Aocs against the PE GID, Setting the Aocs against the EgpSystem Id , Setting the Aocs against the Vendor Gid and EgpSystem Id, Setting the Aocs against the Tender Reference Number and EgpSystem Id, Setting the Aocs against the PE Gid and Vendor Gid.",
        "params": {
          "_aoc": "Award of contract details.",
          "_value": "."
        }
      }
    },
    "version": 1
  },
  "userdoc": {
    "kind": "user",
    "methods": {},
    "version": 1
  }
}