{
  "contractName": "AwardOfContractManager",
  "abi": [
    {
      "inputs": [
        {
          "internalType": "address",
          "name": "_permIntf",
          "type": "address"
        },
        {
          "internalType": "address",
          "name": "_vendorManager",
          "type": "address"
        },
        {
          "internalType": "address",
          "name": "_procEntityManager",
          "type": "address"
        },
        {
          "internalType": "address",
          "name": "_aocModel",
          "type": "address"
        }
      ],
      "stateMutability": "nonpayable",
      "type": "constructor"
    },
    {
      "anonymous": false,
      "inputs": [
        {
          "indexed": false,
          "internalType": "bytes8",
          "name": "_aocUid",
          "type": "bytes8"
        },
        {
          "indexed": false,
          "internalType": "string",
          "name": "_awardOfContractReferenceNumber",
          "type": "string"
        },
        {
          "indexed": false,
          "internalType": "string",
          "name": "_tenderReferenceNumber",
          "type": "string"
        }
      ],
      "name": "AwardOfContractPublished",
      "type": "event"
    },
    {
      "anonymous": false,
      "inputs": [
        {
          "indexed": false,
          "internalType": "bytes8",
          "name": "_aocUid",
          "type": "bytes8"
        },
        {
          "indexed": false,
          "internalType": "enum AwardOfContractStructs.AOCStatus",
          "name": "_status",
          "type": "uint8"
        }
      ],
      "name": "AwardedStatus",
      "type": "event"
    },
    {
      "inputs": [
        {
          "components": [
            {
              "internalType": "bytes8",
              "name": "uid",
              "type": "bytes8"
            },
            {
              "internalType": "string",
              "name": "vendorGid",
              "type": "string"
            },
            {
              "internalType": "string",
              "name": "vendorName",
              "type": "string"
            },
            {
              "internalType": "string",
              "name": "tenderReference",
              "type": "string"
            },
            {
              "internalType": "string",
              "name": "awardReference",
              "type": "string"
            },
            {
              "internalType": "string",
              "name": "title",
              "type": "string"
            },
            {
              "internalType": "enum AwardOfContractStructs.AOCStatus",
              "name": "aocStatus",
              "type": "uint8"
            },
            {
              "internalType": "string",
              "name": "contractAwardValue",
              "type": "string"
            },
            {
              "internalType": "string[]",
              "name": "lotName",
              "type": "string[]"
            },
            {
              "internalType": "uint256",
              "name": "awardOfContractDate",
              "type": "uint256"
            },
            {
              "internalType": "string",
              "name": "procuringEntityGid",
              "type": "string"
            },
            {
              "internalType": "string",
              "name": "procuringEntityName",
              "type": "string"
            },
            {
              "internalType": "string",
              "name": "remarks",
              "type": "string"
            },
            {
              "internalType": "string",
              "name": "awardOfContractLink",
              "type": "string"
            },
            {
              "internalType": "string",
              "name": "orgId",
              "type": "string"
            },
            {
              "internalType": "uint16",
              "name": "version",
              "type": "uint16"
            }
          ],
          "internalType": "struct AwardOfContractStructs.AOC",
          "name": "_aoc",
          "type": "tuple"
        }
      ],
      "name": "publishAwardOfContract",
      "outputs": [],
      "stateMutability": "nonpayable",
      "type": "function"
    },
    {
      "inputs": [
        {
          "internalType": "uint256",
          "name": "_toExcluded",
          "type": "uint256"
        },
        {
          "internalType": "uint256",
          "name": "_count",
          "type": "uint256"
        }
      ],
      "name": "getAllAoc",
      "outputs": [
        {
          "components": [
            {
              "internalType": "bytes8",
              "name": "uid",
              "type": "bytes8"
            },
            {
              "internalType": "string",
              "name": "vendorGid",
              "type": "string"
            },
            {
              "internalType": "string",
              "name": "vendorName",
              "type": "string"
            },
            {
              "internalType": "string",
              "name": "tenderReference",
              "type": "string"
            },
            {
              "internalType": "string",
              "name": "awardReference",
              "type": "string"
            },
            {
              "internalType": "string",
              "name": "title",
              "type": "string"
            },
            {
              "internalType": "enum AwardOfContractStructs.AOCStatus",
              "name": "aocStatus",
              "type": "uint8"
            },
            {
              "internalType": "string",
              "name": "contractAwardValue",
              "type": "string"
            },
            {
              "internalType": "string[]",
              "name": "lotName",
              "type": "string[]"
            },
            {
              "internalType": "uint256",
              "name": "awardOfContractDate",
              "type": "uint256"
            },
            {
              "internalType": "string",
              "name": "procuringEntityGid",
              "type": "string"
            },
            {
              "internalType": "string",
              "name": "procuringEntityName",
              "type": "string"
            },
            {
              "internalType": "string",
              "name": "remarks",
              "type": "string"
            },
            {
              "internalType": "string",
              "name": "awardOfContractLink",
              "type": "string"
            },
            {
              "internalType": "string",
              "name": "orgId",
              "type": "string"
            },
            {
              "internalType": "uint16",
              "name": "version",
              "type": "uint16"
            }
          ],
          "internalType": "struct AwardOfContractStructs.AOC[]",
          "name": "_aoc",
          "type": "tuple[]"
        },
        {
          "internalType": "uint256",
          "name": "fromIncluded_",
          "type": "uint256"
        },
        {
          "internalType": "uint256",
          "name": "length_",
          "type": "uint256"
        }
      ],
      "stateMutability": "view",
      "type": "function"
    },
    {
      "inputs": [
        {
          "internalType": "string",
          "name": "_procuringEntityGid",
          "type": "string"
        },
        {
          "internalType": "uint256",
          "name": "_toExcluded",
          "type": "uint256"
        },
        {
          "internalType": "uint256",
          "name": "_count",
          "type": "uint256"
        }
      ],
      "name": "getAocListByPeGid",
      "outputs": [
        {
          "components": [
            {
              "internalType": "bytes8",
              "name": "uid",
              "type": "bytes8"
            },
            {
              "internalType": "string",
              "name": "vendorGid",
              "type": "string"
            },
            {
              "internalType": "string",
              "name": "vendorName",
              "type": "string"
            },
            {
              "internalType": "string",
              "name": "tenderReference",
              "type": "string"
            },
            {
              "internalType": "string",
              "name": "awardReference",
              "type": "string"
            },
            {
              "internalType": "string",
              "name": "title",
              "type": "string"
            },
            {
              "internalType": "enum AwardOfContractStructs.AOCStatus",
              "name": "aocStatus",
              "type": "uint8"
            },
            {
              "internalType": "string",
              "name": "contractAwardValue",
              "type": "string"
            },
            {
              "internalType": "string[]",
              "name": "lotName",
              "type": "string[]"
            },
            {
              "internalType": "uint256",
              "name": "awardOfContractDate",
              "type": "uint256"
            },
            {
              "internalType": "string",
              "name": "procuringEntityGid",
              "type": "string"
            },
            {
              "internalType": "string",
              "name": "procuringEntityName",
              "type": "string"
            },
            {
              "internalType": "string",
              "name": "remarks",
              "type": "string"
            },
            {
              "internalType": "string",
              "name": "awardOfContractLink",
              "type": "string"
            },
            {
              "internalType": "string",
              "name": "orgId",
              "type": "string"
            },
            {
              "internalType": "uint16",
              "name": "version",
              "type": "uint16"
            }
          ],
          "internalType": "struct AwardOfContractStructs.AOC[]",
          "name": "_aocsByPeGid",
          "type": "tuple[]"
        },
        {
          "internalType": "uint256",
          "name": "fromIncluded_",
          "type": "uint256"
        },
        {
          "internalType": "uint256",
          "name": "length_",
          "type": "uint256"
        }
      ],
      "stateMutability": "view",
      "type": "function"
    },
    {
      "inputs": [
        {
          "internalType": "string",
          "name": "_orgId",
          "type": "string"
        },
        {
          "internalType": "uint256",
          "name": "_toExcluded",
          "type": "uint256"
        },
        {
          "internalType": "uint256",
          "name": "_count",
          "type": "uint256"
        }
      ],
      "name": "getAocListByOrgId",
      "outputs": [
        {
          "components": [
            {
              "internalType": "bytes8",
              "name": "uid",
              "type": "bytes8"
            },
            {
              "internalType": "string",
              "name": "vendorGid",
              "type": "string"
            },
            {
              "internalType": "string",
              "name": "vendorName",
              "type": "string"
            },
            {
              "internalType": "string",
              "name": "tenderReference",
              "type": "string"
            },
            {
              "internalType": "string",
              "name": "awardReference",
              "type": "string"
            },
            {
              "internalType": "string",
              "name": "title",
              "type": "string"
            },
            {
              "internalType": "enum AwardOfContractStructs.AOCStatus",
              "name": "aocStatus",
              "type": "uint8"
            },
            {
              "internalType": "string",
              "name": "contractAwardValue",
              "type": "string"
            },
            {
              "internalType": "string[]",
              "name": "lotName",
              "type": "string[]"
            },
            {
              "internalType": "uint256",
              "name": "awardOfContractDate",
              "type": "uint256"
            },
            {
              "internalType": "string",
              "name": "procuringEntityGid",
              "type": "string"
            },
            {
              "internalType": "string",
              "name": "procuringEntityName",
              "type": "string"
            },
            {
              "internalType": "string",
              "name": "remarks",
              "type": "string"
            },
            {
              "internalType": "string",
              "name": "awardOfContractLink",
              "type": "string"
            },
            {
              "internalType": "string",
              "name": "orgId",
              "type": "string"
            },
            {
              "internalType": "uint16",
              "name": "version",
              "type": "uint16"
            }
          ],
          "internalType": "struct AwardOfContractStructs.AOC[]",
          "name": "_aocsByOrgId",
          "type": "tuple[]"
        },
        {
          "internalType": "uint256",
          "name": "fromIncluded_",
          "type": "uint256"
        },
        {
          "internalType": "uint256",
          "name": "length_",
          "type": "uint256"
        }
      ],
      "stateMutability": "view",
      "type": "function"
    },
    {
      "inputs": [
        {
          "internalType": "string",
          "name": "_vendorGid",
          "type": "string"
        },
        {
          "internalType": "string",
          "name": "_orgId",
          "type": "string"
        },
        {
          "internalType": "uint256",
          "name": "_toExcluded",
          "type": "uint256"
        },
        {
          "internalType": "uint256",
          "name": "_count",
          "type": "uint256"
        }
      ],
      "name": "getAocListByVendorGidOrgId",
      "outputs": [
        {
          "components": [
            {
              "internalType": "bytes8",
              "name": "uid",
              "type": "bytes8"
            },
            {
              "internalType": "string",
              "name": "vendorGid",
              "type": "string"
            },
            {
              "internalType": "string",
              "name": "vendorName",
              "type": "string"
            },
            {
              "internalType": "string",
              "name": "tenderReference",
              "type": "string"
            },
            {
              "internalType": "string",
              "name": "awardReference",
              "type": "string"
            },
            {
              "internalType": "string",
              "name": "title",
              "type": "string"
            },
            {
              "internalType": "enum AwardOfContractStructs.AOCStatus",
              "name": "aocStatus",
              "type": "uint8"
            },
            {
              "internalType": "string",
              "name": "contractAwardValue",
              "type": "string"
            },
            {
              "internalType": "string[]",
              "name": "lotName",
              "type": "string[]"
            },
            {
              "internalType": "uint256",
              "name": "awardOfContractDate",
              "type": "uint256"
            },
            {
              "internalType": "string",
              "name": "procuringEntityGid",
              "type": "string"
            },
            {
              "internalType": "string",
              "name": "procuringEntityName",
              "type": "string"
            },
            {
              "internalType": "string",
              "name": "remarks",
              "type": "string"
            },
            {
              "internalType": "string",
              "name": "awardOfContractLink",
              "type": "string"
            },
            {
              "internalType": "string",
              "name": "orgId",
              "type": "string"
            },
            {
              "internalType": "uint16",
              "name": "version",
              "type": "uint16"
            }
          ],
          "internalType": "struct AwardOfContractStructs.AOC[]",
          "name": "_aocsByVendorGidAndOrgId",
          "type": "tuple[]"
        },
        {
          "internalType": "uint256",
          "name": "fromIncluded_",
          "type": "uint256"
        },
        {
          "internalType": "uint256",
          "name": "length_",
          "type": "uint256"
        }
      ],
      "stateMutability": "view",
      "type": "function"
    },
    {
      "inputs": [
        {
          "internalType": "string",
          "name": "_tenderReference",
          "type": "string"
        },
        {
          "internalType": "string",
          "name": "_orgId",
          "type": "string"
        },
        {
          "internalType": "uint256",
          "name": "_toExcluded",
          "type": "uint256"
        },
        {
          "internalType": "uint256",
          "name": "_count",
          "type": "uint256"
        }
      ],
      "name": "getAocListByTenderRefAndOrgId",
      "outputs": [
        {
          "components": [
            {
              "internalType": "bytes8",
              "name": "uid",
              "type": "bytes8"
            },
            {
              "internalType": "string",
              "name": "vendorGid",
              "type": "string"
            },
            {
              "internalType": "string",
              "name": "vendorName",
              "type": "string"
            },
            {
              "internalType": "string",
              "name": "tenderReference",
              "type": "string"
            },
            {
              "internalType": "string",
              "name": "awardReference",
              "type": "string"
            },
            {
              "internalType": "string",
              "name": "title",
              "type": "string"
            },
            {
              "internalType": "enum AwardOfContractStructs.AOCStatus",
              "name": "aocStatus",
              "type": "uint8"
            },
            {
              "internalType": "string",
              "name": "contractAwardValue",
              "type": "string"
            },
            {
              "internalType": "string[]",
              "name": "lotName",
              "type": "string[]"
            },
            {
              "internalType": "uint256",
              "name": "awardOfContractDate",
              "type": "uint256"
            },
            {
              "internalType": "string",
              "name": "procuringEntityGid",
              "type": "string"
            },
            {
              "internalType": "string",
              "name": "procuringEntityName",
              "type": "string"
            },
            {
              "internalType": "string",
              "name": "remarks",
              "type": "string"
            },
            {
              "internalType": "string",
              "name": "awardOfContractLink",
              "type": "string"
            },
            {
              "internalType": "string",
              "name": "orgId",
              "type": "string"
            },
            {
              "internalType": "uint16",
              "name": "version",
              "type": "uint16"
            }
          ],
          "internalType": "struct AwardOfContractStructs.AOC[]",
          "name": "_aocsByTenderRefAndOrgId",
          "type": "tuple[]"
        },
        {
          "internalType": "uint256",
          "name": "fromIncluded_",
          "type": "uint256"
        },
        {
          "internalType": "uint256",
          "name": "length_",
          "type": "uint256"
        }
      ],
      "stateMutability": "view",
      "type": "function"
    },
    {
      "inputs": [
        {
          "internalType": "string",
          "name": "_procuringEntityGid",
          "type": "string"
        },
        {
          "internalType": "string",
          "name": "_vendorGid",
          "type": "string"
        },
        {
          "internalType": "uint256",
          "name": "_toExcluded",
          "type": "uint256"
        },
        {
          "internalType": "uint256",
          "name": "_count",
          "type": "uint256"
        }
      ],
      "name": "getAocListByPeAndVendorGid",
      "outputs": [
        {
          "components": [
            {
              "internalType": "bytes8",
              "name": "uid",
              "type": "bytes8"
            },
            {
              "internalType": "string",
              "name": "vendorGid",
              "type": "string"
            },
            {
              "internalType": "string",
              "name": "vendorName",
              "type": "string"
            },
            {
              "internalType": "string",
              "name": "tenderReference",
              "type": "string"
            },
            {
              "internalType": "string",
              "name": "awardReference",
              "type": "string"
            },
            {
              "internalType": "string",
              "name": "title",
              "type": "string"
            },
            {
              "internalType": "enum AwardOfContractStructs.AOCStatus",
              "name": "aocStatus",
              "type": "uint8"
            },
            {
              "internalType": "string",
              "name": "contractAwardValue",
              "type": "string"
            },
            {
              "internalType": "string[]",
              "name": "lotName",
              "type": "string[]"
            },
            {
              "internalType": "uint256",
              "name": "awardOfContractDate",
              "type": "uint256"
            },
            {
              "internalType": "string",
              "name": "procuringEntityGid",
              "type": "string"
            },
            {
              "internalType": "string",
              "name": "procuringEntityName",
              "type": "string"
            },
            {
              "internalType": "string",
              "name": "remarks",
              "type": "string"
            },
            {
              "internalType": "string",
              "name": "awardOfContractLink",
              "type": "string"
            },
            {
              "internalType": "string",
              "name": "orgId",
              "type": "string"
            },
            {
              "internalType": "uint16",
              "name": "version",
              "type": "uint16"
            }
          ],
          "internalType": "struct AwardOfContractStructs.AOC[]",
          "name": "_aocsByPeAndVendorGid",
          "type": "tuple[]"
        },
        {
          "internalType": "uint256",
          "name": "fromIncluded_",
          "type": "uint256"
        },
        {
          "internalType": "uint256",
          "name": "length_",
          "type": "uint256"
        }
      ],
      "stateMutability": "view",
      "type": "function"
    },
    {
      "inputs": [
        {
          "components": [
            {
              "internalType": "bytes8",
              "name": "uid",
              "type": "bytes8"
            },
            {
              "internalType": "string",
              "name": "vendorGid",
              "type": "string"
            },
            {
              "internalType": "string",
              "name": "vendorName",
              "type": "string"
            },
            {
              "internalType": "string",
              "name": "tenderReference",
              "type": "string"
            },
            {
              "internalType": "string",
              "name": "awardReference",
              "type": "string"
            },
            {
              "internalType": "string",
              "name": "title",
              "type": "string"
            },
            {
              "internalType": "enum AwardOfContractStructs.AOCStatus",
              "name": "aocStatus",
              "type": "uint8"
            },
            {
              "internalType": "string",
              "name": "contractAwardValue",
              "type": "string"
            },
            {
              "internalType": "string[]",
              "name": "lotName",
              "type": "string[]"
            },
            {
              "internalType": "uint256",
              "name": "awardOfContractDate",
              "type": "uint256"
            },
            {
              "internalType": "string",
              "name": "procuringEntityGid",
              "type": "string"
            },
            {
              "internalType": "string",
              "name": "procuringEntityName",
              "type": "string"
            },
            {
              "internalType": "string",
              "name": "remarks",
              "type": "string"
            },
            {
              "internalType": "string",
              "name": "awardOfContractLink",
              "type": "string"
            },
            {
              "internalType": "string",
              "name": "orgId",
              "type": "string"
            },
            {
              "internalType": "uint16",
              "name": "version",
              "type": "uint16"
            }
          ],
          "internalType": "struct AwardOfContractStructs.AOC",
          "name": "_aoc",
          "type": "tuple"
        }
      ],
      "name": "updateAocStatustoAwarded",
      "outputs": [],
      "stateMutability": "nonpayable",
      "type": "function"
    },
    {
      "inputs": [
        {
          "internalType": "bytes8",
          "name": "_uid",
          "type": "bytes8"
        }
      ],
      "name": "updateAocStatustoCancel",
      "outputs": [],
      "stateMutability": "nonpayable",
      "type": "function"
    },
    {
      "inputs": [
        {
          "internalType": "bytes8",
          "name": "_uid",
          "type": "bytes8"
        }
      ],
      "name": "getAwardOfContract",
      "outputs": [
        {
          "components": [
            {
              "internalType": "bytes8",
              "name": "uid",
              "type": "bytes8"
            },
            {
              "internalType": "string",
              "name": "vendorGid",
              "type": "string"
            },
            {
              "internalType": "string",
              "name": "vendorName",
              "type": "string"
            },
            {
              "internalType": "string",
              "name": "tenderReference",
              "type": "string"
            },
            {
              "internalType": "string",
              "name": "awardReference",
              "type": "string"
            },
            {
              "internalType": "string",
              "name": "title",
              "type": "string"
            },
            {
              "internalType": "enum AwardOfContractStructs.AOCStatus",
              "name": "aocStatus",
              "type": "uint8"
            },
            {
              "internalType": "string",
              "name": "contractAwardValue",
              "type": "string"
            },
            {
              "internalType": "string[]",
              "name": "lotName",
              "type": "string[]"
            },
            {
              "internalType": "uint256",
              "name": "awardOfContractDate",
              "type": "uint256"
            },
            {
              "internalType": "string",
              "name": "procuringEntityGid",
              "type": "string"
            },
            {
              "internalType": "string",
              "name": "procuringEntityName",
              "type": "string"
            },
            {
              "internalType": "string",
              "name": "remarks",
              "type": "string"
            },
            {
              "internalType": "string",
              "name": "awardOfContractLink",
              "type": "string"
            },
            {
              "internalType": "string",
              "name": "orgId",
              "type": "string"
            },
            {
              "internalType": "uint16",
              "name": "version",
              "type": "uint16"
            }
          ],
          "internalType": "struct AwardOfContractStructs.AOC",
          "name": "awardOfContract_",
          "type": "tuple"
        }
      ],
      "stateMutability": "view",
      "type": "function"
    },
    {
      "inputs": [
        {
          "internalType": "string",
          "name": "_gid",
          "type": "string"
        },
        {
          "internalType": "uint256",
          "name": "_toExcluded",
          "type": "uint256"
        },
        {
          "internalType": "uint256",
          "name": "_count",
          "type": "uint256"
        }
      ],
      "name": "getAwardOfContractsForVendor",
      "outputs": [
        {
          "components": [
            {
              "internalType": "bytes8",
              "name": "uid",
              "type": "bytes8"
            },
            {
              "internalType": "string",
              "name": "vendorGid",
              "type": "string"
            },
            {
              "internalType": "string",
              "name": "vendorName",
              "type": "string"
            },
            {
              "internalType": "string",
              "name": "tenderReference",
              "type": "string"
            },
            {
              "internalType": "string",
              "name": "awardReference",
              "type": "string"
            },
            {
              "internalType": "string",
              "name": "title",
              "type": "string"
            },
            {
              "internalType": "enum AwardOfContractStructs.AOCStatus",
              "name": "aocStatus",
              "type": "uint8"
            },
            {
              "internalType": "string",
              "name": "contractAwardValue",
              "type": "string"
            },
            {
              "internalType": "string[]",
              "name": "lotName",
              "type": "string[]"
            },
            {
              "internalType": "uint256",
              "name": "awardOfContractDate",
              "type": "uint256"
            },
            {
              "internalType": "string",
              "name": "procuringEntityGid",
              "type": "string"
            },
            {
              "internalType": "string",
              "name": "procuringEntityName",
              "type": "string"
            },
            {
              "internalType": "string",
              "name": "remarks",
              "type": "string"
            },
            {
              "internalType": "string",
              "name": "awardOfContractLink",
              "type": "string"
            },
            {
              "internalType": "string",
              "name": "orgId",
              "type": "string"
            },
            {
              "internalType": "uint16",
              "name": "version",
              "type": "uint16"
            }
          ],
          "internalType": "struct AwardOfContractStructs.AOC[]",
          "name": "awardOfContracts_",
          "type": "tuple[]"
        },
        {
          "internalType": "uint256",
          "name": "fromIncluded_",
          "type": "uint256"
        },
        {
          "internalType": "uint256",
          "name": "length_",
          "type": "uint256"
        }
      ],
      "stateMutability": "view",
      "type": "function"
    },
    {
      "inputs": [
        {
          "internalType": "string",
          "name": "_awardReference",
          "type": "string"
        },
        {
          "internalType": "string",
          "name": "_orgId",
          "type": "string"
        },
        {
          "internalType": "uint256",
          "name": "_toExcluded",
          "type": "uint256"
        },
        {
          "internalType": "uint256",
          "name": "_count",
          "type": "uint256"
        }
      ],
      "name": "getAocByAwardRefOrgId",
      "outputs": [
        {
          "components": [
            {
              "internalType": "bytes8",
              "name": "uid",
              "type": "bytes8"
            },
            {
              "internalType": "string",
              "name": "vendorGid",
              "type": "string"
            },
            {
              "internalType": "string",
              "name": "vendorName",
              "type": "string"
            },
            {
              "internalType": "string",
              "name": "tenderReference",
              "type": "string"
            },
            {
              "internalType": "string",
              "name": "awardReference",
              "type": "string"
            },
            {
              "internalType": "string",
              "name": "title",
              "type": "string"
            },
            {
              "internalType": "enum AwardOfContractStructs.AOCStatus",
              "name": "aocStatus",
              "type": "uint8"
            },
            {
              "internalType": "string",
              "name": "contractAwardValue",
              "type": "string"
            },
            {
              "internalType": "string[]",
              "name": "lotName",
              "type": "string[]"
            },
            {
              "internalType": "uint256",
              "name": "awardOfContractDate",
              "type": "uint256"
            },
            {
              "internalType": "string",
              "name": "procuringEntityGid",
              "type": "string"
            },
            {
              "internalType": "string",
              "name": "procuringEntityName",
              "type": "string"
            },
            {
              "internalType": "string",
              "name": "remarks",
              "type": "string"
            },
            {
              "internalType": "string",
              "name": "awardOfContractLink",
              "type": "string"
            },
            {
              "internalType": "string",
              "name": "orgId",
              "type": "string"
            },
            {
              "internalType": "uint16",
              "name": "version",
              "type": "uint16"
            }
          ],
          "internalType": "struct AwardOfContractStructs.AOC[]",
          "name": "awardOfContracts_",
          "type": "tuple[]"
        },
        {
          "internalType": "uint256",
          "name": "fromIncluded_",
          "type": "uint256"
        },
        {
          "internalType": "uint256",
          "name": "length_",
          "type": "uint256"
        }
      ],
      "stateMutability": "view",
      "type": "function"
    },
    {
      "inputs": [
        {
          "internalType": "bytes8",
          "name": "_uid",
          "type": "bytes8"
        }
      ],
      "name": "getAocVendorGID",
      "outputs": [
        {
          "internalType": "string",
          "name": "",
          "type": "string"
        }
      ],
      "stateMutability": "view",
      "type": "function"
    },
    {
      "inputs": [
        {
          "internalType": "bytes8",
          "name": "_uid",
          "type": "bytes8"
        }
      ],
      "name": "getEgpIdByAocUid",
      "outputs": [
        {
          "internalType": "string",
          "name": "_orgId",
          "type": "string"
        }
      ],
      "stateMutability": "view",
      "type": "function"
    },
    {
      "inputs": [
        {
          "internalType": "bytes8",
          "name": "_uid",
          "type": "bytes8"
        }
      ],
      "name": "isUidExists",
      "outputs": [
        {
          "internalType": "bool",
          "name": "",
          "type": "bool"
        }
      ],
      "stateMutability": "view",
      "type": "function"
    },
    {
      "inputs": [
        {
          "internalType": "bytes8",
          "name": "_uid",
          "type": "bytes8"
        },
        {
          "internalType": "string",
          "name": "_procuringEntityGid",
          "type": "string"
        }
      ],
      "name": "isProcuringEntityGidForAocUid",
      "outputs": [
        {
          "internalType": "bool",
          "name": "",
          "type": "bool"
        }
      ],
      "stateMutability": "view",
      "type": "function"
    },
    {
      "inputs": [
        {
          "internalType": "bytes8",
          "name": "_uid",
          "type": "bytes8"
        }
      ],
      "name": "getAocTenderRefNo",
      "outputs": [
        {
          "internalType": "string",
          "name": "",
          "type": "string"
        }
      ],
      "stateMutability": "view",
      "type": "function"
    }
  ],
  "bytecode": "0x608060405234801562000010575f80fd5b50604051620057b8380380620057b88339818101604052810190620000369190620001a4565b8360025f6101000a81548173ffffffffffffffffffffffffffffffffffffffff021916908373ffffffffffffffffffffffffffffffffffffffff160217905550825f806101000a81548173ffffffffffffffffffffffffffffffffffffffff021916908373ffffffffffffffffffffffffffffffffffffffff1602179055508160015f6101000a81548173ffffffffffffffffffffffffffffffffffffffff021916908373ffffffffffffffffffffffffffffffffffffffff1602179055508060035f6101000a81548173ffffffffffffffffffffffffffffffffffffffff021916908373ffffffffffffffffffffffffffffffffffffffff1602179055505050505062000213565b5f80fd5b5f73ffffffffffffffffffffffffffffffffffffffff82169050919050565b5f6200016e8262000143565b9050919050565b620001808162000162565b81146200018b575f80fd5b50565b5f815190506200019e8162000175565b92915050565b5f805f8060808587031215620001bf57620001be6200013f565b5b5f620001ce878288016200018e565b9450506020620001e1878288016200018e565b9350506040620001f4878288016200018e565b925050606062000207878288016200018e565b91505092959194509250565b61559780620002215f395ff3fe608060405234801561000f575f80fd5b5060043610610109575f3560e01c8063841eb5ef116100a0578063be21d83d1161006f578063be21d83d1461032f578063c3f1816e14610361578063ca6441f714610391578063cdaaf2d7146103ad578063df3c9098146103df57610109565b8063841eb5ef1461026d5780638eb3e5011461029f578063910de969146102cf578063ab480dbf146102ff57610109565b80633dc0b9cc116100dc5780633dc0b9cc146101bd5780635a9117e1146101ef5780635b21248a146102215780635ec1a6e91461023d57610109565b8063012079b91461010d57806305cfe57f1461013f578063192919e31461015b578063338c317b1461018d575b5f80fd5b61012760048036038101906101229190613522565b610411565b60405161013693929190613a07565b60405180910390f35b61015960048036038101906101549190613e6b565b6105bf565b005b61017560048036038101906101709190613eb2565b610d13565b60405161018493929190613a07565b60405180910390f35b6101a760048036038101906101a29190613f4e565b610f47565b6040516101b49190613fc1565b60405180910390f35b6101d760048036038101906101d29190613eb2565b610ff9565b6040516101e693929190613a07565b60405180910390f35b61020960048036038101906102049190613eb2565b611263565b60405161021893929190613a07565b60405180910390f35b61023b60048036038101906102369190613f4e565b611497565b005b61025760048036038101906102529190613f4e565b611a39565b6040516102649190613fc1565b60405180910390f35b61028760048036038101906102829190613522565b611b8b565b60405161029693929190613a07565b60405180910390f35b6102b960048036038101906102b49190613f4e565b611d91565b6040516102c69190613ffb565b60405180910390f35b6102e960048036038101906102e49190614014565b611e34565b6040516102f69190613ffb565b60405180910390f35b61031960048036038101906103149190613f4e565b611e99565b6040516103269190614210565b60405180910390f35b61034960048036038101906103449190614230565b612028565b60405161035893929190613a07565b60405180910390f35b61037b60048036038101906103769190613f4e565b6120dd565b6040516103889190613fc1565b60405180910390f35b6103ab60048036038101906103a69190613e6b565b61218f565b005b6103c760048036038101906103c29190613eb2565b612ae0565b6040516103d693929190613a07565b60405180910390f35b6103f960048036038101906103f49190613522565b612d14565b60405161040893929190613a07565b60405180910390f35b60605f805f61041f87612f1a565b9050805186111561042f57805195505b5f86861161043d578561043f565b865b90508067ffffffffffffffff81111561045b5761045a6133cb565b5b60405190808252806020026020018201604052801561049457816020015b6104816132f8565b8152602001906001900390816104795790505b5094505b5f8111156105ad5780806104ab9061429b565b91505086806104b99061429b565b97505060035f9054906101000a900473ffffffffffffffffffffffffffffffffffffffff1673ffffffffffffffffffffffffffffffffffffffff1663550f5fd483898151811061050c5761050b6142c2565b5b60200260200101516040518263ffffffff1660e01b815260040161053091906142ef565b5f60405180830381865afa15801561054a573d5f803e3d5ffd5b505050506040513d5f823e3d601f19601f820116820180604052508101906105729190614740565b8560018388516105829190614787565b61058c9190614787565b8151811061059d5761059c6142c2565b5b6020026020010181905250610498565b86935081519250505093509350939050565b805f01515f60035f9054906101000a900473ffffffffffffffffffffffffffffffffffffffff1673ffffffffffffffffffffffffffffffffffffffff166336f807ea836040518263ffffffff1660e01b815260040161061e91906147c9565b602060405180830381865afa158015610639573d5f803e3d5ffd5b505050506040513d601f19601f8201168201806040525081019061065d91906147e2565b1161069d576040517f08c379a000000000000000000000000000000000000000000000000000000000815260040161069490614857565b60405180910390fd5b8160035f9054906101000a900473ffffffffffffffffffffffffffffffffffffffff1673ffffffffffffffffffffffffffffffffffffffff1663506dafc96106e7835f01516131c5565b6040518263ffffffff1660e01b815260040161070391906142ef565b5f60405180830381865afa15801561071d573d5f803e3d5ffd5b505050506040513d5f823e3d601f19601f820116820180604052508101906107459190614875565b60405160200161075591906148f6565b60405160208183030381529060405280519060200120816060015160405160200161078091906148f6565b60405160208183030381529060405280519060200120146107d6576040517f08c379a00000000000000000000000000000000000000000000000000000000081526004016107cd9061497c565b60405180910390fd5b5f60028111156107e9576107e861366b565b5b60035f9054906101000a900473ffffffffffffffffffffffffffffffffffffffff1673ffffffffffffffffffffffffffffffffffffffff166305a0e401610832845f01516131c5565b6040518263ffffffff1660e01b815260040161084e91906142ef565b602060405180830381865afa158015610869573d5f803e3d5ffd5b505050506040513d601f19601f8201168201806040525081019061088d919061499a565b600281111561089f5761089e61366b565b5b146108df576040517f08c379a00000000000000000000000000000000000000000000000000000000081526004016108d690614a35565b60405180910390fd5b600160028111156108f3576108f261366b565b5b8160c00151600281111561090a5761090961366b565b5b1461094a576040517f08c379a000000000000000000000000000000000000000000000000000000000815260040161094190614a9d565b60405180910390fd5b3360035f9054906101000a900473ffffffffffffffffffffffffffffffffffffffff1673ffffffffffffffffffffffffffffffffffffffff1663a51db81c610994865f01516131c5565b6040518263ffffffff1660e01b81526004016109b091906142ef565b5f60405180830381865afa1580156109ca573d5f803e3d5ffd5b505050506040513d5f823e3d601f19601f820116820180604052508101906109f29190614875565b5f8060025f9054906101000a900473ffffffffffffffffffffffffffffffffffffffff1673ffffffffffffffffffffffffffffffffffffffff168484604051602401610a3f929190614afa565b6040516020818303038152906040527f57c74183000000000000000000000000000000000000000000000000000000007bffffffffffffffffffffffffffffffffffffffffffffffffffffffff19166020820180517bffffffffffffffffffffffffffffffffffffffffffffffffffffffff8381831617835250505050604051610ac99190614b6c565b5f604051808303815f865af19150503d805f8114610b02576040519150601f19603f3d011682016040523d82523d5f602084013e610b07565b606091505b509150915081610b4c576040517f08c379a0000000000000000000000000000000000000000000000000000000008152600401610b4390614bcc565b60405180910390fd5b5f81806020019051810190610b619190614c14565b905080610ba3576040517f08c379a0000000000000000000000000000000000000000000000000000000008152600401610b9a90614cd5565b60405180910390fd5b60035f9054906101000a900473ffffffffffffffffffffffffffffffffffffffff1673ffffffffffffffffffffffffffffffffffffffff16633b10d2c6896040518263ffffffff1660e01b8152600401610bfd9190614210565b5f604051808303815f87803b158015610c14575f80fd5b505af1158015610c26573d5f803e3d5ffd5b505050507f6a5333daa44b02154e933bb747853277f4f17cc13df97f0218950d88184928ab885f015160035f9054906101000a900473ffffffffffffffffffffffffffffffffffffffff1673ffffffffffffffffffffffffffffffffffffffff166305a0e401610c988c5f01516131c5565b6040518263ffffffff1660e01b8152600401610cb491906142ef565b602060405180830381865afa158015610ccf573d5f803e3d5ffd5b505050506040513d601f19601f82011682018060405250810190610cf3919061499a565b604051610d01929190614d02565b60405180910390a15050505050505050565b60605f805f8787604051602001610d2b929190614d29565b604051602081830303815290604052805190602001209050606060035f9054906101000a900473ffffffffffffffffffffffffffffffffffffffff1673ffffffffffffffffffffffffffffffffffffffff1663af2c73b48389896040518463ffffffff1660e01b8152600401610da393929190614d4c565b5f60405180830381865afa158015610dbd573d5f803e3d5ffd5b505050506040513d5f823e3d601f19601f82011682018060405250810190610de59190614e41565b809550819650829350505050805167ffffffffffffffff811115610e0c57610e0b6133cb565b5b604051908082528060200260200182016040528015610e4557816020015b610e326132f8565b815260200190600190039081610e2a5790505b5094505f5b8151811015610f3a5760035f9054906101000a900473ffffffffffffffffffffffffffffffffffffffff1673ffffffffffffffffffffffffffffffffffffffff1663550f5fd4838381518110610ea357610ea26142c2565b5b60200260200101516040518263ffffffff1660e01b8152600401610ec791906142ef565b5f60405180830381865afa158015610ee1573d5f803e3d5ffd5b505050506040513d5f823e3d601f19601f82011682018060405250810190610f099190614740565b868281518110610f1c57610f1b6142c2565b5b60200260200101819052508080610f3290614ead565b915050610e4a565b5050509450945094915050565b60605f610f53836131c5565b905060035f9054906101000a900473ffffffffffffffffffffffffffffffffffffffff1673ffffffffffffffffffffffffffffffffffffffff166395ffd715826040518263ffffffff1660e01b8152600401610faf91906142ef565b5f60405180830381865afa158015610fc9573d5f803e3d5ffd5b505050506040513d5f823e3d601f19601f82011682018060405250810190610ff19190614875565b915050919050565b60605f805f60035f9054906101000a900473ffffffffffffffffffffffffffffffffffffffff1673ffffffffffffffffffffffffffffffffffffffff1663bb686b43898960405160200161104e929190614d29565b604051602081830303815290604052805190602001206040518263ffffffff1660e01b815260040161108091906147c9565b5f60405180830381865afa15801561109a573d5f803e3d5ffd5b505050506040513d5f823e3d601f19601f820116820180604052508101906110c29190614ef4565b905080518611156110d257805195505b5f8686116110e057856110e2565b865b90508067ffffffffffffffff8111156110fe576110fd6133cb565b5b60405190808252806020026020018201604052801561113757816020015b6111246132f8565b81526020019060019003908161111c5790505b5094505b5f81111561125057808061114e9061429b565b915050868061115c9061429b565b97505060035f9054906101000a900473ffffffffffffffffffffffffffffffffffffffff1673ffffffffffffffffffffffffffffffffffffffff1663550f5fd48389815181106111af576111ae6142c2565b5b60200260200101516040518263ffffffff1660e01b81526004016111d391906142ef565b5f60405180830381865afa1580156111ed573d5f803e3d5ffd5b505050506040513d5f823e3d601f19601f820116820180604052508101906112159190614740565b8560018388516112259190614787565b61122f9190614787565b815181106112405761123f6142c2565b5b602002602001018190525061113b565b8693508151925050509450945094915050565b60605f805f878760405160200161127b929190614d29565b604051602081830303815290604052805190602001209050606060035f9054906101000a900473ffffffffffffffffffffffffffffffffffffffff1673ffffffffffffffffffffffffffffffffffffffff16630904e0fc8389896040518463ffffffff1660e01b81526004016112f393929190614d4c565b5f60405180830381865afa15801561130d573d5f803e3d5ffd5b505050506040513d5f823e3d601f19601f820116820180604052508101906113359190614e41565b809550819650829350505050805167ffffffffffffffff81111561135c5761135b6133cb565b5b60405190808252806020026020018201604052801561139557816020015b6113826132f8565b81526020019060019003908161137a5790505b5094505f5b815181101561148a5760035f9054906101000a900473ffffffffffffffffffffffffffffffffffffffff1673ffffffffffffffffffffffffffffffffffffffff1663550f5fd48383815181106113f3576113f26142c2565b5b60200260200101516040518263ffffffff1660e01b815260040161141791906142ef565b5f60405180830381865afa158015611431573d5f803e3d5ffd5b505050506040513d5f823e3d601f19601f820116820180604052508101906114599190614740565b86828151811061146c5761146b6142c2565b5b6020026020010181905250808061148290614ead565b91505061139a565b5050509450945094915050565b805f60035f9054906101000a900473ffffffffffffffffffffffffffffffffffffffff1673ffffffffffffffffffffffffffffffffffffffff166336f807ea836040518263ffffffff1660e01b81526004016114f391906147c9565b602060405180830381865afa15801561150e573d5f803e3d5ffd5b505050506040513d601f19601f8201168201806040525081019061153291906147e2565b11611572576040517f08c379a000000000000000000000000000000000000000000000000000000000815260040161156990614857565b60405180910390fd5b815f60028111156115865761158561366b565b5b60035f9054906101000a900473ffffffffffffffffffffffffffffffffffffffff1673ffffffffffffffffffffffffffffffffffffffff166305a0e4016115cc846131c5565b6040518263ffffffff1660e01b81526004016115e891906142ef565b602060405180830381865afa158015611603573d5f803e3d5ffd5b505050506040513d601f19601f82011682018060405250810190611627919061499a565b60028111156116395761163861366b565b5b14611679576040517f08c379a000000000000000000000000000000000000000000000000000000000815260040161167090614a35565b60405180910390fd5b3360035f9054906101000a900473ffffffffffffffffffffffffffffffffffffffff1673ffffffffffffffffffffffffffffffffffffffff1663a51db81c6116c0866131c5565b6040518263ffffffff1660e01b81526004016116dc91906142ef565b5f60405180830381865afa1580156116f6573d5f803e3d5ffd5b505050506040513d5f823e3d601f19601f8201168201806040525081019061171e9190614875565b5f8060025f9054906101000a900473ffffffffffffffffffffffffffffffffffffffff1673ffffffffffffffffffffffffffffffffffffffff16848460405160240161176b929190614afa565b6040516020818303038152906040527f57c74183000000000000000000000000000000000000000000000000000000007bffffffffffffffffffffffffffffffffffffffffffffffffffffffff19166020820180517bffffffffffffffffffffffffffffffffffffffffffffffffffffffff83818316178352505050506040516117f59190614b6c565b5f604051808303815f865af19150503d805f811461182e576040519150601f19603f3d011682016040523d82523d5f602084013e611833565b606091505b509150915081611878576040517f08c379a000000000000000000000000000000000000000000000000000000000815260040161186f90614bcc565b60405180910390fd5b5f8180602001905181019061188d9190614c14565b9050806118cf576040517f08c379a00000000000000000000000000000000000000000000000000000000081526004016118c690614cd5565b60405180910390fd5b60035f9054906101000a900473ffffffffffffffffffffffffffffffffffffffff1673ffffffffffffffffffffffffffffffffffffffff16631929a850896040518263ffffffff1660e01b815260040161192991906147c9565b5f604051808303815f87803b158015611940575f80fd5b505af1158015611952573d5f803e3d5ffd5b505050507f6a5333daa44b02154e933bb747853277f4f17cc13df97f0218950d88184928ab8860035f9054906101000a900473ffffffffffffffffffffffffffffffffffffffff1673ffffffffffffffffffffffffffffffffffffffff166305a0e4016119be8c6131c5565b6040518263ffffffff1660e01b81526004016119da91906142ef565b602060405180830381865afa1580156119f5573d5f803e3d5ffd5b505050506040513d601f19601f82011682018060405250810190611a19919061499a565b604051611a27929190614d02565b60405180910390a15050505050505050565b60605f611a45836131c5565b90505f60035f9054906101000a900473ffffffffffffffffffffffffffffffffffffffff1673ffffffffffffffffffffffffffffffffffffffff1663fb960b26836040518263ffffffff1660e01b8152600401611aa291906142ef565b5f60405180830381865afa158015611abc573d5f803e3d5ffd5b505050506040513d5f823e3d601f19601f82011682018060405250810190611ae49190614875565b905060015f9054906101000a900473ffffffffffffffffffffffffffffffffffffffff1673ffffffffffffffffffffffffffffffffffffffff16638338e9c5826040518263ffffffff1660e01b8152600401611b409190613fc1565b5f60405180830381865afa158015611b5a573d5f803e3d5ffd5b505050506040513d5f823e3d601f19601f82011682018060405250810190611b829190614875565b92505050919050565b60605f80606060035f9054906101000a900473ffffffffffffffffffffffffffffffffffffffff1673ffffffffffffffffffffffffffffffffffffffff1663450c01788888886040518463ffffffff1660e01b8152600401611bef93929190614f3b565b5f60405180830381865afa158015611c09573d5f803e3d5ffd5b505050506040513d5f823e3d601f19601f82011682018060405250810190611c319190614e41565b809450819550829350505050805167ffffffffffffffff811115611c5857611c576133cb565b5b604051908082528060200260200182016040528015611c9157816020015b611c7e6132f8565b815260200190600190039081611c765790505b5093505f5b8151811015611d865760035f9054906101000a900473ffffffffffffffffffffffffffffffffffffffff1673ffffffffffffffffffffffffffffffffffffffff1663550f5fd4838381518110611cef57611cee6142c2565b5b60200260200101516040518263ffffffff1660e01b8152600401611d1391906142ef565b5f60405180830381865afa158015611d2d573d5f803e3d5ffd5b505050506040513d5f823e3d601f19601f82011682018060405250810190611d559190614740565b858281518110611d6857611d676142c2565b5b60200260200101819052508080611d7e90614ead565b915050611c96565b505093509350939050565b5f8060035f9054906101000a900473ffffffffffffffffffffffffffffffffffffffff1673ffffffffffffffffffffffffffffffffffffffff166336f807ea846040518263ffffffff1660e01b8152600401611ded91906147c9565b602060405180830381865afa158015611e08573d5f803e3d5ffd5b505050506040513d601f19601f82011682018060405250810190611e2c91906147e2565b119050919050565b5f81604051602001611e4691906148f6565b60405160208183030381529060405280519060200120611e6584611e99565b6101400151604051602001611e7a91906148f6565b6040516020818303038152906040528051906020012014905092915050565b611ea16132f8565b815f60035f9054906101000a900473ffffffffffffffffffffffffffffffffffffffff1673ffffffffffffffffffffffffffffffffffffffff166336f807ea836040518263ffffffff1660e01b8152600401611efd91906147c9565b602060405180830381865afa158015611f18573d5f803e3d5ffd5b505050506040513d601f19601f82011682018060405250810190611f3c91906147e2565b11611f7c576040517f08c379a0000000000000000000000000000000000000000000000000000000008152600401611f7390614857565b60405180910390fd5b60035f9054906101000a900473ffffffffffffffffffffffffffffffffffffffff1673ffffffffffffffffffffffffffffffffffffffff1663550f5fd4611fc2856131c5565b6040518263ffffffff1660e01b8152600401611fde91906142ef565b5f60405180830381865afa158015611ff8573d5f803e3d5ffd5b505050506040513d5f823e3d601f19601f820116820180604052508101906120209190614740565b915050919050565b60605f8060035f9054906101000a900473ffffffffffffffffffffffffffffffffffffffff1673ffffffffffffffffffffffffffffffffffffffff1663be21d83d86866040518363ffffffff1660e01b8152600401612088929190614f77565b5f60405180830381865afa1580156120a2573d5f803e3d5ffd5b505050506040513d5f823e3d601f19601f820116820180604052508101906120ca919061507c565b8093508194508295505050509250925092565b60605f6120e9836131c5565b905060035f9054906101000a900473ffffffffffffffffffffffffffffffffffffffff1673ffffffffffffffffffffffffffffffffffffffff1663506dafc9826040518263ffffffff1660e01b815260040161214591906142ef565b5f60405180830381865afa15801561215f573d5f803e3d5ffd5b505050506040513d5f823e3d601f19601f820116820180604052508101906121879190614875565b915050919050565b33816101c001515f8060025f9054906101000a900473ffffffffffffffffffffffffffffffffffffffff1673ffffffffffffffffffffffffffffffffffffffff1684846040516024016121e3929190614afa565b6040516020818303038152906040527f57c74183000000000000000000000000000000000000000000000000000000007bffffffffffffffffffffffffffffffffffffffffffffffffffffffff19166020820180517bffffffffffffffffffffffffffffffffffffffffffffffffffffffff838183161783525050505060405161226d9190614b6c565b5f604051808303815f865af19150503d805f81146122a6576040519150601f19603f3d011682016040523d82523d5f602084013e6122ab565b606091505b5091509150816122f0576040517f08c379a00000000000000000000000000000000000000000000000000000000081526004016122e790614bcc565b60405180910390fd5b5f818060200190518101906123059190614c14565b905080612347576040517f08c379a000000000000000000000000000000000000000000000000000000000815260040161233e90614cd5565b60405180910390fd5b85602001515f8054906101000a900473ffffffffffffffffffffffffffffffffffffffff1673ffffffffffffffffffffffffffffffffffffffff1663ce320471826040518263ffffffff1660e01b81526004016123a49190613fc1565b602060405180830381865afa1580156123bf573d5f803e3d5ffd5b505050506040513d601f19601f820116820180604052508101906123e39190614c14565b612422576040517f08c379a000000000000000000000000000000000000000000000000000000000815260040161241990615132565b60405180910390fd5b86610140015160015f9054906101000a900473ffffffffffffffffffffffffffffffffffffffff1673ffffffffffffffffffffffffffffffffffffffff166388f5f344826040518263ffffffff1660e01b81526004016124829190613fc1565b602060405180830381865afa15801561249d573d5f803e3d5ffd5b505050506040513d601f19601f820116820180604052508101906124c19190614c14565b612500576040517f08c379a00000000000000000000000000000000000000000000000000000000081526004016124f79061519a565b60405180910390fd5b6002808111156125135761251261366b565b5b8860c00151600281111561252a5761252961366b565b5b0361256a576040517f08c379a000000000000000000000000000000000000000000000000000000000815260040161256190615228565b60405180910390fd5b5f60035f9054906101000a900473ffffffffffffffffffffffffffffffffffffffff1673ffffffffffffffffffffffffffffffffffffffff16634691d7476040518163ffffffff1660e01b8152600401602060405180830381865afa1580156125d5573d5f803e3d5ffd5b505050506040513d601f19601f820116820180604052508101906125f991906147e2565b90505f6126058a613272565b90505f8a608001518b6101c00151604051602001612624929190614d29565b6040516020818303038152906040528051906020012090505f60035f9054906101000a900473ffffffffffffffffffffffffffffffffffffffff1673ffffffffffffffffffffffffffffffffffffffff166336f807ea846040518263ffffffff1660e01b815260040161269791906147c9565b602060405180830381865afa1580156126b2573d5f803e3d5ffd5b505050506040513d601f19601f820116820180604052508101906126d691906147e2565b14612716576040517f08c379a000000000000000000000000000000000000000000000000000000000815260040161270d90615290565b60405180910390fd5b818b5f019077ffffffffffffffffffffffffffffffffffffffffffffffff1916908177ffffffffffffffffffffffffffffffffffffffffffffffff19168152505060035f9054906101000a900473ffffffffffffffffffffffffffffffffffffffff1673ffffffffffffffffffffffffffffffffffffffff16630e38ec35838560016127a291906152ae565b6040518363ffffffff1660e01b81526004016127bf9291906152e1565b5f604051808303815f87803b1580156127d6575f80fd5b505af11580156127e8573d5f803e3d5ffd5b5050505060035f9054906101000a900473ffffffffffffffffffffffffffffffffffffffff1673ffffffffffffffffffffffffffffffffffffffff16630fd60a4682856040518363ffffffff1660e01b81526004016128489291906152e1565b5f604051808303815f87803b15801561285f575f80fd5b505af1158015612871573d5f803e3d5ffd5b5050505060035f9054906101000a900473ffffffffffffffffffffffffffffffffffffffff1673ffffffffffffffffffffffffffffffffffffffff1663fd1308b06040518163ffffffff1660e01b81526004015f604051808303815f87803b1580156128db575f80fd5b505af11580156128ed573d5f803e3d5ffd5b5050505060035f9054906101000a900473ffffffffffffffffffffffffffffffffffffffff1673ffffffffffffffffffffffffffffffffffffffff16639895182b848d6040518363ffffffff1660e01b815260040161294d929190615308565b5f604051808303815f87803b158015612964575f80fd5b505af1158015612976573d5f803e3d5ffd5b5050505060035f9054906101000a900473ffffffffffffffffffffffffffffffffffffffff1673ffffffffffffffffffffffffffffffffffffffff166329a5653e8c60200151856040518363ffffffff1660e01b81526004016129da929190615336565b5f604051808303815f87803b1580156129f1575f80fd5b505af1158015612a03573d5f803e3d5ffd5b5050505060035f9054906101000a900473ffffffffffffffffffffffffffffffffffffffff1673ffffffffffffffffffffffffffffffffffffffff1663263f835f8c856040518363ffffffff1660e01b8152600401612a63929190615364565b5f604051808303815f87803b158015612a7a575f80fd5b505af1158015612a8c573d5f803e3d5ffd5b505050507f895b8d1d41e684ad1d3a7dfa323f2d86d7c09129f46ec221148ad75ea181004b828c608001518d60600151604051612acb93929190615392565b60405180910390a15050505050505050505050565b60605f805f8787604051602001612af8929190614d29565b604051602081830303815290604052805190602001209050606060035f9054906101000a900473ffffffffffffffffffffffffffffffffffffffff1673ffffffffffffffffffffffffffffffffffffffff1663f064bc128389896040518463ffffffff1660e01b8152600401612b7093929190614d4c565b5f60405180830381865afa158015612b8a573d5f803e3d5ffd5b505050506040513d5f823e3d601f19601f82011682018060405250810190612bb29190614e41565b809550819650829350505050805167ffffffffffffffff811115612bd957612bd86133cb565b5b604051908082528060200260200182016040528015612c1257816020015b612bff6132f8565b815260200190600190039081612bf75790505b5094505f5b8151811015612d075760035f9054906101000a900473ffffffffffffffffffffffffffffffffffffffff1673ffffffffffffffffffffffffffffffffffffffff1663550f5fd4838381518110612c7057612c6f6142c2565b5b60200260200101516040518263ffffffff1660e01b8152600401612c9491906142ef565b5f60405180830381865afa158015612cae573d5f803e3d5ffd5b505050506040513d5f823e3d601f19601f82011682018060405250810190612cd69190614740565b868281518110612ce957612ce86142c2565b5b60200260200101819052508080612cff90614ead565b915050612c17565b5050509450945094915050565b60605f80606060035f9054906101000a900473ffffffffffffffffffffffffffffffffffffffff1673ffffffffffffffffffffffffffffffffffffffff1663aa1b327d8888886040518463ffffffff1660e01b8152600401612d7893929190614f3b565b5f60405180830381865afa158015612d92573d5f803e3d5ffd5b505050506040513d5f823e3d601f19601f82011682018060405250810190612dba9190614e41565b809450819550829350505050805167ffffffffffffffff811115612de157612de06133cb565b5b604051908082528060200260200182016040528015612e1a57816020015b612e076132f8565b815260200190600190039081612dff5790505b5093505f5b8151811015612f0f5760035f9054906101000a900473ffffffffffffffffffffffffffffffffffffffff1673ffffffffffffffffffffffffffffffffffffffff1663550f5fd4838381518110612e7857612e776142c2565b5b60200260200101516040518263ffffffff1660e01b8152600401612e9c91906142ef565b5f60405180830381865afa158015612eb6573d5f803e3d5ffd5b505050506040513d5f823e3d601f19601f82011682018060405250810190612ede9190614740565b858281518110612ef157612ef06142c2565b5b60200260200101819052508080612f0790614ead565b915050612e1f565b505093509350939050565b60605f60035f9054906101000a900473ffffffffffffffffffffffffffffffffffffffff1673ffffffffffffffffffffffffffffffffffffffff166322e2f6d5846040518263ffffffff1660e01b8152600401612f779190613fc1565b5f60405180830381865afa158015612f91573d5f803e3d5ffd5b505050506040513d5f823e3d601f19601f82011682018060405250810190612fb99190614ef4565b90505f805f9054906101000a900473ffffffffffffffffffffffffffffffffffffffff1673ffffffffffffffffffffffffffffffffffffffff1663ff890454856040518263ffffffff1660e01b81526004016130159190613fc1565b5f60405180830381865afa15801561302f573d5f803e3d5ffd5b505050506040513d5f823e3d601f19601f8201168201806040525081019061305791906153d5565b90506060805f5b83518110156131b85761308a84828151811061307d5761307c6142c2565b5b6020026020010151612f1a565b92508251855161309a91906152ae565b67ffffffffffffffff8111156130b3576130b26133cb565b5b6040519080825280602002602001820160405280156130e15781602001602082028036833780820191505090505b5091505f5b855181101561313c57858181518110613102576131016142c2565b5b602002602001015183828151811061311d5761311c6142c2565b5b602002602001018181525050808061313490614ead565b9150506130e6565b505f5b83518110156131a15783818151811061315b5761315a6142c2565b5b60200260200101518387518361317191906152ae565b81518110613182576131816142c2565b5b602002602001018181525050808061319990614ead565b91505061313f565b5081945080806131b090614ead565b91505061305e565b5083945050505050919050565b5f600160035f9054906101000a900473ffffffffffffffffffffffffffffffffffffffff1673ffffffffffffffffffffffffffffffffffffffff166336f807ea846040518263ffffffff1660e01b815260040161322291906147c9565b602060405180830381865afa15801561323d573d5f803e3d5ffd5b505050506040513d601f19601f8201168201806040525081019061326191906147e2565b61326b9190614787565b9050919050565b5f8160200151826060015183608001518460a001518560e001518661010001516040516020016132a2919061549f565b604051602081830303815290604052876101200151886101400151896101c001516040516020016132db999897969594939291906154df565b604051602081830303815290604052805190602001209050919050565b6040518061020001604052805f77ffffffffffffffffffffffffffffffffffffffffffffffff1916815260200160608152602001606081526020016060815260200160608152602001606081526020015f600281111561335b5761335a61366b565b5b815260200160608152602001606081526020015f815260200160608152602001606081526020016060815260200160608152602001606081526020015f61ffff1681525090565b5f604051905090565b5f80fd5b5f80fd5b5f80fd5b5f80fd5b5f601f19601f8301169050919050565b7f4e487b71000000000000000000000000000000000000000000000000000000005f52604160045260245ffd5b613401826133bb565b810181811067ffffffffffffffff821117156134205761341f6133cb565b5b80604052505050565b5f6134326133a2565b905061343e82826133f8565b919050565b5f67ffffffffffffffff82111561345d5761345c6133cb565b5b613466826133bb565b9050602081019050919050565b828183375f83830152505050565b5f61349361348e84613443565b613429565b9050828152602081018484840111156134af576134ae6133b7565b5b6134ba848285613473565b509392505050565b5f82601f8301126134d6576134d56133b3565b5b81356134e6848260208601613481565b91505092915050565b5f819050919050565b613501816134ef565b811461350b575f80fd5b50565b5f8135905061351c816134f8565b92915050565b5f805f60608486031215613539576135386133ab565b5b5f84013567ffffffffffffffff811115613556576135556133af565b5b613562868287016134c2565b93505060206135738682870161350e565b92505060406135848682870161350e565b9150509250925092565b5f81519050919050565b5f82825260208201905092915050565b5f819050602082019050919050565b5f7fffffffffffffffff00000000000000000000000000000000000000000000000082169050919050565b6135eb816135b7565b82525050565b5f81519050919050565b5f82825260208201905092915050565b5f5b8381101561362857808201518184015260208101905061360d565b5f8484015250505050565b5f61363d826135f1565b61364781856135fb565b935061365781856020860161360b565b613660816133bb565b840191505092915050565b7f4e487b71000000000000000000000000000000000000000000000000000000005f52602160045260245ffd5b600381106136a9576136a861366b565b5b50565b5f8190506136b982613698565b919050565b5f6136c8826136ac565b9050919050565b6136d8816136be565b82525050565b5f81519050919050565b5f82825260208201905092915050565b5f819050602082019050919050565b5f6137128383613633565b905092915050565b5f602082019050919050565b5f613730826136de565b61373a81856136e8565b93508360208202850161374c856136f8565b805f5b8581101561378757848403895281516137688582613707565b94506137738361371a565b925060208a0199505060018101905061374f565b50829750879550505050505092915050565b6137a2816134ef565b82525050565b5f61ffff82169050919050565b6137be816137a8565b82525050565b5f61020083015f8301516137da5f8601826135e2565b50602083015184820360208601526137f28282613633565b9150506040830151848203604086015261380c8282613633565b915050606083015184820360608601526138268282613633565b915050608083015184820360808601526138408282613633565b91505060a083015184820360a086015261385a8282613633565b91505060c083015161386f60c08601826136cf565b5060e083015184820360e08601526138878282613633565b9150506101008301518482036101008601526138a38282613726565b9150506101208301516138ba610120860182613799565b506101408301518482036101408601526138d48282613633565b9150506101608301518482036101608601526138f08282613633565b91505061018083015184820361018086015261390c8282613633565b9150506101a08301518482036101a08601526139288282613633565b9150506101c08301518482036101c08601526139448282613633565b9150506101e083015161395b6101e08601826137b5565b508091505092915050565b5f61397183836137c4565b905092915050565b5f602082019050919050565b5f61398f8261358e565b6139998185613598565b9350836020820285016139ab856135a8565b805f5b858110156139e657848403895281516139c78582613966565b94506139d283613979565b925060208a019950506001810190506139ae565b50829750879550505050505092915050565b613a01816134ef565b82525050565b5f6060820190508181035f830152613a1f8186613985565b9050613a2e60208301856139f8565b613a3b60408301846139f8565b949350505050565b5f80fd5b5f80fd5b613a54816135b7565b8114613a5e575f80fd5b50565b5f81359050613a6f81613a4b565b92915050565b60038110613a81575f80fd5b50565b5f81359050613a9281613a75565b92915050565b5f67ffffffffffffffff821115613ab257613ab16133cb565b5b602082029050602081019050919050565b5f80fd5b5f613ad9613ad484613a98565b613429565b90508083825260208201905060208402830185811115613afc57613afb613ac3565b5b835b81811015613b4357803567ffffffffffffffff811115613b2157613b206133b3565b5b808601613b2e89826134c2565b85526020850194505050602081019050613afe565b5050509392505050565b5f82601f830112613b6157613b606133b3565b5b8135613b71848260208601613ac7565b91505092915050565b613b83816137a8565b8114613b8d575f80fd5b50565b5f81359050613b9e81613b7a565b92915050565b5f6102008284031215613bba57613bb9613a43565b5b613bc5610200613429565b90505f613bd484828501613a61565b5f83015250602082013567ffffffffffffffff811115613bf757613bf6613a47565b5b613c03848285016134c2565b602083015250604082013567ffffffffffffffff811115613c2757613c26613a47565b5b613c33848285016134c2565b604083015250606082013567ffffffffffffffff811115613c5757613c56613a47565b5b613c63848285016134c2565b606083015250608082013567ffffffffffffffff811115613c8757613c86613a47565b5b613c93848285016134c2565b60808301525060a082013567ffffffffffffffff811115613cb757613cb6613a47565b5b613cc3848285016134c2565b60a08301525060c0613cd784828501613a84565b60c08301525060e082013567ffffffffffffffff811115613cfb57613cfa613a47565b5b613d07848285016134c2565b60e08301525061010082013567ffffffffffffffff811115613d2c57613d2b613a47565b5b613d3884828501613b4d565b61010083015250610120613d4e8482850161350e565b6101208301525061014082013567ffffffffffffffff811115613d7457613d73613a47565b5b613d80848285016134c2565b6101408301525061016082013567ffffffffffffffff811115613da657613da5613a47565b5b613db2848285016134c2565b6101608301525061018082013567ffffffffffffffff811115613dd857613dd7613a47565b5b613de4848285016134c2565b610180830152506101a082013567ffffffffffffffff811115613e0a57613e09613a47565b5b613e16848285016134c2565b6101a0830152506101c082013567ffffffffffffffff811115613e3c57613e3b613a47565b5b613e48848285016134c2565b6101c0830152506101e0613e5e84828501613b90565b6101e08301525092915050565b5f60208284031215613e8057613e7f6133ab565b5b5f82013567ffffffffffffffff811115613e9d57613e9c6133af565b5b613ea984828501613ba4565b91505092915050565b5f805f8060808587031215613eca57613ec96133ab565b5b5f85013567ffffffffffffffff811115613ee757613ee66133af565b5b613ef3878288016134c2565b945050602085013567ffffffffffffffff811115613f1457613f136133af565b5b613f20878288016134c2565b9350506040613f318782880161350e565b9250506060613f428782880161350e565b91505092959194509250565b5f60208284031215613f6357613f626133ab565b5b5f613f7084828501613a61565b91505092915050565b5f82825260208201905092915050565b5f613f93826135f1565b613f9d8185613f79565b9350613fad81856020860161360b565b613fb6816133bb565b840191505092915050565b5f6020820190508181035f830152613fd98184613f89565b905092915050565b5f8115159050919050565b613ff581613fe1565b82525050565b5f60208201905061400e5f830184613fec565b92915050565b5f806040838503121561402a576140296133ab565b5b5f61403785828601613a61565b925050602083013567ffffffffffffffff811115614058576140576133af565b5b614064858286016134c2565b9150509250929050565b5f61020083015f8301516140845f8601826135e2565b506020830151848203602086015261409c8282613633565b915050604083015184820360408601526140b68282613633565b915050606083015184820360608601526140d08282613633565b915050608083015184820360808601526140ea8282613633565b91505060a083015184820360a08601526141048282613633565b91505060c083015161411960c08601826136cf565b5060e083015184820360e08601526141318282613633565b91505061010083015184820361010086015261414d8282613726565b915050610120830151614164610120860182613799565b5061014083015184820361014086015261417e8282613633565b91505061016083015184820361016086015261419a8282613633565b9150506101808301518482036101808601526141b68282613633565b9150506101a08301518482036101a08601526141d28282613633565b9150506101c08301518482036101c08601526141ee8282613633565b9150506101e08301516142056101e08601826137b5565b508091505092915050565b5f6020820190508181035f830152614228818461406e565b905092915050565b5f8060408385031215614246576142456133ab565b5b5f6142538582860161350e565b92505060206142648582860161350e565b9150509250929050565b7f4e487b71000000000000000000000000000000000000000000000000000000005f52601160045260245ffd5b5f6142a5826134ef565b91505f82036142b7576142b661426e565b5b600182039050919050565b7f4e487b71000000000000000000000000000000000000000000000000000000005f52603260045260245ffd5b5f6020820190506143025f8301846139f8565b92915050565b5f8151905061431681613a4b565b92915050565b5f61432e61432984613443565b613429565b90508281526020810184848401111561434a576143496133b7565b5b61435584828561360b565b509392505050565b5f82601f830112614371576143706133b3565b5b815161438184826020860161431c565b91505092915050565b5f8151905061439881613a75565b92915050565b5f6143b06143ab84613a98565b613429565b905080838252602082019050602084028301858111156143d3576143d2613ac3565b5b835b8181101561441a57805167ffffffffffffffff8111156143f8576143f76133b3565b5b808601614405898261435d565b855260208501945050506020810190506143d5565b5050509392505050565b5f82601f830112614438576144376133b3565b5b815161444884826020860161439e565b91505092915050565b5f8151905061445f816134f8565b92915050565b5f8151905061447381613b7a565b92915050565b5f610200828403121561448f5761448e613a43565b5b61449a610200613429565b90505f6144a984828501614308565b5f83015250602082015167ffffffffffffffff8111156144cc576144cb613a47565b5b6144d88482850161435d565b602083015250604082015167ffffffffffffffff8111156144fc576144fb613a47565b5b6145088482850161435d565b604083015250606082015167ffffffffffffffff81111561452c5761452b613a47565b5b6145388482850161435d565b606083015250608082015167ffffffffffffffff81111561455c5761455b613a47565b5b6145688482850161435d565b60808301525060a082015167ffffffffffffffff81111561458c5761458b613a47565b5b6145988482850161435d565b60a08301525060c06145ac8482850161438a565b60c08301525060e082015167ffffffffffffffff8111156145d0576145cf613a47565b5b6145dc8482850161435d565b60e08301525061010082015167ffffffffffffffff81111561460157614600613a47565b5b61460d84828501614424565b6101008301525061012061462384828501614451565b6101208301525061014082015167ffffffffffffffff81111561464957614648613a47565b5b6146558482850161435d565b6101408301525061016082015167ffffffffffffffff81111561467b5761467a613a47565b5b6146878482850161435d565b6101608301525061018082015167ffffffffffffffff8111156146ad576146ac613a47565b5b6146b98482850161435d565b610180830152506101a082015167ffffffffffffffff8111156146df576146de613a47565b5b6146eb8482850161435d565b6101a0830152506101c082015167ffffffffffffffff81111561471157614710613a47565b5b61471d8482850161435d565b6101c0830152506101e061473384828501614465565b6101e08301525092915050565b5f60208284031215614755576147546133ab565b5b5f82015167ffffffffffffffff811115614772576147716133af565b5b61477e84828501614479565b91505092915050565b5f614791826134ef565b915061479c836134ef565b92508282039050818111156147b4576147b361426e565b5b92915050565b6147c3816135b7565b82525050565b5f6020820190506147dc5f8301846147ba565b92915050565b5f602082840312156147f7576147f66133ab565b5b5f61480484828501614451565b91505092915050565b7f4177617264204f6620436f6e7472616374204964206e6f7420657869737473005f82015250565b5f614841601f83613f79565b915061484c8261480d565b602082019050919050565b5f6020820190508181035f83015261486e81614835565b9050919050565b5f6020828403121561488a576148896133ab565b5b5f82015167ffffffffffffffff8111156148a7576148a66133af565b5b6148b38482850161435d565b91505092915050565b5f81905092915050565b5f6148d0826135f1565b6148da81856148bc565b93506148ea81856020860161360b565b80840191505092915050565b5f61490182846148c6565b915081905092915050565b7f54656e646572207265666572656e6365206e756d62657220646f65736e2774205f8201527f6d61746368000000000000000000000000000000000000000000000000000000602082015250565b5f614966602583613f79565b91506149718261490c565b604082019050919050565b5f6020820190508181035f8301526149938161495a565b9050919050565b5f602082840312156149af576149ae6133ab565b5b5f6149bc8482850161438a565b91505092915050565b7f54686520537461747573206f662074686520414f432063616e6e6f74206265205f8201527f6368616e67656400000000000000000000000000000000000000000000000000602082015250565b5f614a1f602783613f79565b9150614a2a826149c5565b604082019050919050565b5f6020820190508181035f830152614a4c81614a13565b9050919050565b7f496e76616c6964207374617475732072657175657374000000000000000000005f82015250565b5f614a87601683613f79565b9150614a9282614a53565b602082019050919050565b5f6020820190508181035f830152614ab481614a7b565b9050919050565b5f73ffffffffffffffffffffffffffffffffffffffff82169050919050565b5f614ae482614abb565b9050919050565b614af481614ada565b82525050565b5f604082019050614b0d5f830185614aeb565b8181036020830152614b1f8184613f89565b90509392505050565b5f81519050919050565b5f81905092915050565b5f614b4682614b28565b614b508185614b32565b9350614b6081856020860161360b565b80840191505092915050565b5f614b778284614b3c565b915081905092915050565b7f7065726d697373696f6e732063616c6c206661696c65640000000000000000005f82015250565b5f614bb6601783613f79565b9150614bc182614b82565b602082019050919050565b5f6020820190508181035f830152614be381614baa565b9050919050565b614bf381613fe1565b8114614bfd575f80fd5b50565b5f81519050614c0e81614bea565b92915050565b5f60208284031215614c2957614c286133ab565b5b5f614c3684828501614c00565b91505092915050565b7f6163636f756e7420646f6573206e6f7420657869737473206f722065786973745f8201527f732062757420646f65736e27742062656c6f6e6720746f20706173736564206f60208201527f7267496400000000000000000000000000000000000000000000000000000000604082015250565b5f614cbf604483613f79565b9150614cca82614c3f565b606082019050919050565b5f6020820190508181035f830152614cec81614cb3565b9050919050565b614cfc816136be565b82525050565b5f604082019050614d155f8301856147ba565b614d226020830184614cf3565b9392505050565b5f614d3482856148c6565b9150614d4082846148c6565b91508190509392505050565b5f606082019050614d5f5f8301866147ba565b614d6c60208301856139f8565b614d7960408301846139f8565b949350505050565b5f67ffffffffffffffff821115614d9b57614d9a6133cb565b5b602082029050602081019050919050565b5f614dbe614db984614d81565b613429565b90508083825260208201905060208402830185811115614de157614de0613ac3565b5b835b81811015614e0a5780614df68882614451565b845260208401935050602081019050614de3565b5050509392505050565b5f82601f830112614e2857614e276133b3565b5b8151614e38848260208601614dac565b91505092915050565b5f805f60608486031215614e5857614e576133ab565b5b5f84015167ffffffffffffffff811115614e7557614e746133af565b5b614e8186828701614e14565b9350506020614e9286828701614451565b9250506040614ea386828701614451565b9150509250925092565b5f614eb7826134ef565b91507fffffffffffffffffffffffffffffffffffffffffffffffffffffffffffffffff8203614ee957614ee861426e565b5b600182019050919050565b5f60208284031215614f0957614f086133ab565b5b5f82015167ffffffffffffffff811115614f2657614f256133af565b5b614f3284828501614e14565b91505092915050565b5f6060820190508181035f830152614f538186613f89565b9050614f6260208301856139f8565b614f6f60408301846139f8565b949350505050565b5f604082019050614f8a5f8301856139f8565b614f9760208301846139f8565b9392505050565b5f67ffffffffffffffff821115614fb857614fb76133cb565b5b602082029050602081019050919050565b5f614fdb614fd684614f9e565b613429565b90508083825260208201905060208402830185811115614ffe57614ffd613ac3565b5b835b8181101561504557805167ffffffffffffffff811115615023576150226133b3565b5b8086016150308982614479565b85526020850194505050602081019050615000565b5050509392505050565b5f82601f830112615063576150626133b3565b5b8151615073848260208601614fc9565b91505092915050565b5f805f60608486031215615093576150926133ab565b5b5f84015167ffffffffffffffff8111156150b0576150af6133af565b5b6150bc8682870161504f565b93505060206150cd86828701614451565b92505060406150de86828701614451565b9150509250925092565b7f56656e646f7220474944206e6f742061637469766500000000000000000000005f82015250565b5f61511c601583613f79565b9150615127826150e8565b602082019050919050565b5f6020820190508181035f83015261514981615110565b9050919050565b7f50726f637572696e6720456e7469747920474944206e6f7420657869737473005f82015250565b5f615184601f83613f79565b915061518f82615150565b602082019050919050565b5f6020820190508181035f8301526151b181615178565b9050919050565b7f54686520696e697469616c20636f7079206f662074686520414f4320737461745f8201527f75732063616e6e6f74206265207365742063616e63656c6c6564000000000000602082015250565b5f615212603a83613f79565b915061521d826151b8565b604082019050919050565b5f6020820190508181035f83015261523f81615206565b9050919050565b7f414f4320616c7265616479207075626c697368656400000000000000000000005f82015250565b5f61527a601583613f79565b915061528582615246565b602082019050919050565b5f6020820190508181035f8301526152a78161526e565b9050919050565b5f6152b8826134ef565b91506152c3836134ef565b92508282019050808211156152db576152da61426e565b5b92915050565b5f6040820190506152f45f8301856147ba565b61530160208301846139f8565b9392505050565b5f60408201905061531b5f8301856139f8565b818103602083015261532d818461406e565b90509392505050565b5f6040820190508181035f83015261534e8185613f89565b905061535d60208301846139f8565b9392505050565b5f6040820190508181035f83015261537c818561406e565b905061538b60208301846139f8565b9392505050565b5f6060820190506153a55f8301866147ba565b81810360208301526153b78185613f89565b905081810360408301526153cb8184613f89565b9050949350505050565b5f602082840312156153ea576153e96133ab565b5b5f82015167ffffffffffffffff811115615407576154066133af565b5b61541384828501614424565b91505092915050565b5f82825260208201905092915050565b5f615436826136de565b615440818561541c565b935083602082028501615452856136f8565b805f5b8581101561548d578484038952815161546e8582613707565b94506154798361371a565b925060208a01995050600181019050615455565b50829750879550505050505092915050565b5f6020820190508181035f8301526154b7818461542c565b905092915050565b5f819050919050565b6154d96154d4826134ef565b6154bf565b82525050565b5f6154ea828c6148c6565b91506154f6828b6148c6565b9150615502828a6148c6565b915061550e82896148c6565b915061551a82886148c6565b915061552682876148c6565b915061553282866154c8565b60208201915061554282856148c6565b915061554e82846148c6565b91508190509a995050505050505050505056fea2646970667358221220a350688737c5676c32c8f547d9d3f077c2f14568140f536ed7cdfd8bf4d5425a64736f6c63430008140033",
  "immutableReferences": {},
  "source": "pragma solidity ^0.8.0;\npragma experimental ABIEncoderV2;\nimport \"./VendorManager.sol\";\nimport \"./AwardOfContractModel.sol\";\nimport \"./ProcuringEntityManager.sol\";\n\ncontract AwardOfContractManager is AwardOfContractStructs {\n\n    VendorManager private vendorManager;\n    ProcuringEntityManager private procuringEntityManager;\n    address private permInterfaceAddress;\n    AwardOfContractModel private aocModel;\n\n    constructor (address _permIntf, address _vendorManager, address _procEntityManager, address _aocModel) {\n        permInterfaceAddress = _permIntf;\n        vendorManager = VendorManager(_vendorManager);\n        procuringEntityManager = ProcuringEntityManager(_procEntityManager);\n        aocModel = AwardOfContractModel(_aocModel);\n    }\n\n     modifier VendorGidExistsAndActive(string memory _gid){\n        require(vendorManager.isGidActive(_gid), \"Vendor GID not active\");\n        _;\n    }\n\n    modifier ProcEntityGidExists(string memory _gid){\n        require(procuringEntityManager.isGidExists(_gid), \"Procuring Entity GID not exists\");\n        _;\n    }\n\n    modifier uidExists(bytes8 _uid){\n        require(aocModel.getAocIndex(_uid)>0, \"Award Of Contract Id not exists\");\n        _;\n    }\n\n    modifier validateOrgAndAccount(address _account, string memory _orgId) {\n        (bool success, bytes memory data) = permInterfaceAddress.call(\n            abi.encodeWithSignature(\n                \"validateOrgAndAccount(address,string)\",\n                _account,\n                _orgId\n            )\n        );\n        require(\n            success,\n            \"permissions call failed\"\n        );\n        bool isValid = abi.decode(data, (bool));\n        require(\n            isValid,\n            \"account does not exists or exists but doesn't belong to passed orgId\"\n        );\n        _;\n    }\n\n\n    modifier TenderReferenceValidation (AOC memory _aoc) {\n        require( keccak256(abi.encodePacked(_aoc.tenderReference)) == keccak256(abi.encodePacked(aocModel.getAocTenderReference(_getIndex(_aoc.uid)))), \"Tender reference number doesn't match\");\n        require(aocModel.getAocStatus(_getIndex(_aoc.uid)) == AOCStatus.EvaluationComplete, \"The Status of the AOC cannot be changed\");\n        require(_aoc.aocStatus == AOCStatus.Awarded, \"Invalid status request\");\n        _;\n    }\n\n    modifier StatusValidation (bytes8 _uid) {\n        require(aocModel.getAocStatus(_getIndex(_uid)) == AOCStatus.EvaluationComplete, \"The Status of the AOC cannot be changed\");\n        _;\n    }\n\n    event AwardOfContractPublished(bytes8 _aocUid, string _awardOfContractReferenceNumber, string _tenderReferenceNumber);\n\n    event AwardedStatus(bytes8 _aocUid, AOCStatus _status);\n\n    function publishAwardOfContract(AOC memory _aoc) public \n    validateOrgAndAccount(msg.sender, _aoc.orgId)\n    VendorGidExistsAndActive(_aoc.vendorGid)\n    ProcEntityGidExists(_aoc.procuringEntityGid)\n    {\n        require(_aoc.aocStatus != AOCStatus.Cancelled, \"The initial copy of the AOC status cannot be set cancelled\");\n        uint id = aocModel.getAocListLength();\n        bytes8 uid = _generateUID(_aoc);\n        bytes8 uidAwardRefOrgId = bytes8(keccak256(abi.encodePacked(_aoc.awardReference, _aoc.orgId)));\n        require(aocModel.getAocIndex(uid)==0, \"AOC already published\");\n        _aoc.uid = uid;\n        aocModel.setAocIndex(uid, 1+id);\n        aocModel.addAocIndexByAwardRefOrgId(uidAwardRefOrgId, id);\n        aocModel.incAocListLength();\n        aocModel.addAwardOfContract(id, _aoc);\n        aocModel.addVendorAocIndex(_aoc.vendorGid, id);\n        aocModel.setAocIndices(_aoc, id);\n        emit AwardOfContractPublished(uid,_aoc.awardReference,_aoc.tenderReference);\n    }\n\n\n    function getAllAoc(uint _toExcluded, uint _count) external view \n    returns(AOC[] memory _aoc, uint fromIncluded_, uint length_) {\n        (_aoc, fromIncluded_, length_) = aocModel.getAllAoc(_toExcluded, _count);\n    }\n\n\n    /** @dev Listing out the Aocs against the PE Gid.\n      * @param _procuringEntityGid GID assigned to Procuring Entity.\n      * @param _toExcluded The length till where the uint indexes has to be fetched.\n      * @param _count The number of indexes that has to be fetched. \n      * @return _aocsByPeGid List of Aocs against the PE Gid.\n      * @return fromIncluded_ _toExcluded - _count.\n      * @return length_ The length of the index present for the PE Gid.\n      */\n    function getAocListByPeGid(string memory _procuringEntityGid, uint _toExcluded, uint _count) public view\n    returns (AOC[] memory _aocsByPeGid, uint fromIncluded_, uint length_) {\n        uint[] memory indexList;\n        (indexList, fromIncluded_, length_) = aocModel.getAocsByPeGid(_procuringEntityGid, _toExcluded, _count);\n        _aocsByPeGid = new AOC[] (indexList.length);\n        for (uint256 i = 0; i < indexList.length; i++) {\n            _aocsByPeGid[i] = aocModel.getAocByIndex(indexList[i]);\n        }\n    }\n    \n\n    /** @dev Listing out the Aocs against the EgpSystem Id.\n      * @param _orgId e-GP system Id registered with the network.\n      * @param _toExcluded The length till where the uint indexes has to be fetched.\n      * @param _count The number of indexes that has to be fetched. \n      * @return _aocsByOrgId List of Aocs against the EgpSystem Id.\n      * @return fromIncluded_ _toExcluded - _count.\n      * @return length_ The length of the index present for the EgpSystem Id.\n      */\n    function getAocListByOrgId(string memory _orgId, uint _toExcluded, uint _count) public view\n    returns(AOC[] memory _aocsByOrgId, uint fromIncluded_, uint length_)  {\n        uint[] memory indexList;\n        (indexList, fromIncluded_, length_) = aocModel.getAocsByOrgId(_orgId, _toExcluded, _count);\n        _aocsByOrgId = new AOC[] (indexList.length);\n        for (uint256 i = 0; i < indexList.length; i++) {\n            _aocsByOrgId[i] = aocModel.getAocByIndex(indexList[i]);\n        }\n    }\n\n    \n    \n    /** @dev Listing out the Aocs against the Vendor Gid and EgpSystem Id.\n      * @param _vendorGid GID of the vendor.\n      * @param _orgId e-GP system Id registered with the network.\n      * @param _toExcluded The length till where the uint indexes has to be fetched.\n      * @param _count The number of indexes that has to be fetched. \n      * @return _aocsByVendorGidAndOrgId List of Aocs against the Vendor Gid and EgpSystem Id.\n      * @return fromIncluded_ _toExcluded - _count.\n      * @return length_ The length of the index present for the Vendor Gid and EgpSystem Id.\n      */\n    function getAocListByVendorGidOrgId(string memory _vendorGid, string memory _orgId, uint _toExcluded, uint _count) public view \n    returns(AOC[] memory _aocsByVendorGidAndOrgId, uint fromIncluded_, uint length_)  {\n        bytes8 _aocVendorOrgId = bytes8(keccak256(abi.encodePacked(_vendorGid, _orgId)));\n        uint[] memory indexList;\n        (indexList, fromIncluded_, length_) = aocModel.getAocsByVendorGidAndOrgId(_aocVendorOrgId, _toExcluded, _count);\n        _aocsByVendorGidAndOrgId = new AOC[] (indexList.length);\n        for (uint256 i = 0; i < indexList.length; i++) {\n            _aocsByVendorGidAndOrgId[i] = aocModel.getAocByIndex(indexList[i]);\n        }\n\n    }\n\n    \n    /** @dev Listing out the Aocs against the Tender Reference and EgpSystem Id.\n      * @param _tenderReference Tender Reference.\n      * @param _orgId e-GP system Id registered with the network.\n      * @param _toExcluded The length till where the uint indexes has to be fetched.\n      * @param _count The number of indexes that has to be fetched. \n      * @return _aocsByTenderRefAndOrgId List of Aocs against the Tender Reference and EgpSystem Id.\n      * @return fromIncluded_ _toExcluded - _count.\n      * @return length_ The length of the index present for the Tender Reference and EgpSystem Id.\n      */\n    function getAocListByTenderRefAndOrgId(string memory _tenderReference, string memory _orgId, uint _toExcluded, uint _count) public view \n    returns(AOC[] memory _aocsByTenderRefAndOrgId, uint fromIncluded_, uint length_)  {\n        bytes8 _aocTenderRefOrgId = bytes8(keccak256(abi.encodePacked(_tenderReference, _orgId)));\n        uint[] memory indexList;\n        (indexList, fromIncluded_, length_) = aocModel.getAocsByTenderRefAndOrgId(_aocTenderRefOrgId, _toExcluded, _count);\n        _aocsByTenderRefAndOrgId = new AOC[](indexList.length);\n        for (uint256 i = 0; i < indexList.length; i++) {\n            _aocsByTenderRefAndOrgId[i] = aocModel.getAocByIndex(indexList[i]);\n        }\n\n    }    \n\n    \n    /** @dev Listing out the Aocs against the PE GID and Vendor Gid.\n      * @param _procuringEntityGid GID assigned to Procuring Entity.\n      * @param _vendorGid GID of the vendor.\n      * @param _toExcluded The length till where the uint indexes has to be fetched.\n      * @param _count The number of indexes that has to be fetched. \n      * @return _aocsByPeAndVendorGid List of Aocs against the PE GID and Vendor Gid.\n      * @return fromIncluded_ _toExcluded - _count.\n      * @return length_ The length of the index present for the PE GID and Vendor Gid.\n      */\n    function getAocListByPeAndVendorGid(string memory _procuringEntityGid, string memory _vendorGid, uint _toExcluded, uint _count) public view \n    returns(AOC[] memory _aocsByPeAndVendorGid, uint fromIncluded_, uint length_)  {\n        bytes8 _aocPeVendorGid = bytes8(keccak256(abi.encodePacked(_procuringEntityGid, _vendorGid)));\n        uint[] memory indexList;\n        (indexList, fromIncluded_, length_) = aocModel.getAocsByPeAndVendorGid(_aocPeVendorGid, _toExcluded, _count);\n        _aocsByPeAndVendorGid = new AOC[](indexList.length);\n        for (uint256 i = 0; i < indexList.length; i++) {\n            _aocsByPeAndVendorGid[i] = aocModel.getAocByIndex(indexList[i]);\n        }\n\n    }    \n\n\n\n    function updateAocStatustoAwarded(AOC memory _aoc) public\n    uidExists(_aoc.uid)\n    TenderReferenceValidation(_aoc)\n    validateOrgAndAccount(msg.sender, aocModel.getAocOrgId(_getIndex(_aoc.uid))) \n    {  \n        aocModel.awardedAocStatus(_aoc);\n        emit AwardedStatus(_aoc.uid, aocModel.getAocStatus(_getIndex(_aoc.uid)));       \n    }\n\n    function updateAocStatustoCancel(bytes8 _uid) public\n    uidExists(_uid)\n    StatusValidation(_uid)\n    validateOrgAndAccount(msg.sender, aocModel.getAocOrgId(_getIndex(_uid)))\n    {\n        aocModel.cancelAocStatus(_uid);\n        emit AwardedStatus(_uid, aocModel.getAocStatus(_getIndex(_uid)));\n    }\n\n    function getAwardOfContract(bytes8 _uid) public view \n    uidExists(_uid)\n    returns(AOC memory awardOfContract_){\n        awardOfContract_ = aocModel.getAocByIndex(_getIndex(_uid));\n    }\n\n    function getAwardOfContractsForVendor(string memory _gid, uint _toExcluded, uint _count) public view \n    returns(AOC [] memory awardOfContracts_, uint fromIncluded_, uint length_){\n        uint[] memory ids = _getAOCs(_gid);\n        if (_toExcluded > ids.length) {\n            _toExcluded = ids.length;\n        }\n        uint itr = _count>_toExcluded ? _toExcluded:_count;\n        awardOfContracts_ = new AOC[](itr); \n        while (itr>0) {\n            itr--;\n            _toExcluded--;\n            awardOfContracts_[awardOfContracts_.length-itr-1] = aocModel.getAocByIndex(ids[_toExcluded]);\n        }\n        fromIncluded_ = _toExcluded;\n        length_ = ids.length;\n    }\n\n    function getAocByAwardRefOrgId(string memory _awardReference, string memory _orgId, uint _toExcluded, uint _count) public view \n    returns(AOC[] memory awardOfContracts_, uint fromIncluded_, uint length_){\n        uint[] memory indexList = aocModel.getAocsIndexByAwardRefOrgId(bytes8(keccak256(abi.encodePacked(_awardReference, _orgId))));\n        if (_toExcluded > indexList.length) {\n            _toExcluded = indexList.length;\n        }\n        uint itr = _count>_toExcluded ? _toExcluded:_count;\n        awardOfContracts_ = new AOC[](itr); \n        while (itr>0) {\n            itr--;\n            _toExcluded--;\n            awardOfContracts_[awardOfContracts_.length-itr-1] = aocModel.getAocByIndex(indexList[_toExcluded]);\n        }\n        fromIncluded_ = _toExcluded;\n        length_ = indexList.length;\n    }\n\n    function getAocVendorGID (bytes8 _uid) public view returns(string memory){\n        uint256 _index = _getIndex(_uid);\n        return aocModel.getAocVendorGid(_index);\n    }\n\n    function getEgpIdByAocUid (bytes8 _uid) public view returns(string memory _orgId)\n    {\n        uint256 _index = _getIndex(_uid);\n        string memory _gid = aocModel.getAocProcEntityGid(_index);\n        return procuringEntityManager.getProcuringEntityOrgIdByGid(_gid);\n    }\n\n    function isUidExists(bytes8 _uid) external view returns(bool){\n        return (aocModel.getAocIndex(_uid)>0);\n    }\n\n    function isProcuringEntityGidForAocUid(bytes8 _uid, string memory _procuringEntityGid) public view returns(bool){\n        return (keccak256(abi.encodePacked(getAwardOfContract(_uid).procuringEntityGid)) ==\n            keccak256(abi.encodePacked(_procuringEntityGid)));\n    }\n\n    function _getAOCs(string memory _gid) internal view returns(uint [] memory) {\n        uint [] memory ids = aocModel.getVendorAocIndices(_gid);\n        string [] memory childrenGIDs = vendorManager.getChildrenGIDs(_gid);\n        uint [] memory cIds;\n        uint [] memory concatArr;\n        for (uint256 i = 0; i < childrenGIDs.length; i++) {\n            cIds = _getAOCs(childrenGIDs[i]);\n            concatArr = new uint[](ids.length+cIds.length);\n            for (uint256 k = 0; k < ids.length; k++) {\n                concatArr[k] = ids[k];\n            }\n            for (uint256 j = 0; j < cIds.length; j++) {\n                concatArr[j+ids.length] = cIds[j];\n            }\n            ids = concatArr;\n        }\n        return ids;\n    }\n\n    function _getIndex(bytes8 _uid) private view returns (uint){\n        return aocModel.getAocIndex(_uid) - 1;\n    }\n\n    function _generateUID(AOC memory _aoc) private pure returns (bytes8){\n        return bytes8(keccak256(abi.encodePacked(_aoc.vendorGid,_aoc.tenderReference,_aoc.awardReference,\n            _aoc.title,_aoc.contractAwardValue,string(abi.encode(_aoc.lotName)),\n            _aoc.awardOfContractDate,_aoc.procuringEntityGid,_aoc.orgId)));\n    }\n\n    function getAocTenderRefNo(bytes8 _uid) public view returns(string memory)\n    {\n        uint256 _index = _getIndex(_uid);\n        return aocModel.getAocTenderReference(_index);\n\n    }\n    \n\n}",
  "sourcePath": "/home/raghupathi/Desktop/javaClass/javaClass/contracts/AwardOfContractManager.sol",
  "compiler": {
    "name": "solc",
    "version": "0.8.20+commit.a1b79de6.Emscripten.clang"
  },
  "schemaVersion": "3.4.14",
  "updatedAt": "2023-06-02T09:43:22.548Z",
  "devdoc": {
    "kind": "dev",
    "methods": {
      "getAocListByOrgId(string,uint256,uint256)": {
        "details": "Listing out the Aocs against the EgpSystem Id.",
        "params": {
          "_count": "The number of indexes that has to be fetched. ",
          "_orgId": "e-GP system Id registered with the network.",
          "_toExcluded": "The length till where the uint indexes has to be fetched."
        },
        "returns": {
          "_aocsByOrgId": "List of Aocs against the EgpSystem Id.",
          "fromIncluded_": "_toExcluded - _count.",
          "length_": "The length of the index present for the EgpSystem Id."
        }
      },
      "getAocListByPeAndVendorGid(string,string,uint256,uint256)": {
        "details": "Listing out the Aocs against the PE GID and Vendor Gid.",
        "params": {
          "_count": "The number of indexes that has to be fetched. ",
          "_procuringEntityGid": "GID assigned to Procuring Entity.",
          "_toExcluded": "The length till where the uint indexes has to be fetched.",
          "_vendorGid": "GID of the vendor."
        },
        "returns": {
          "_aocsByPeAndVendorGid": "List of Aocs against the PE GID and Vendor Gid.",
          "fromIncluded_": "_toExcluded - _count.",
          "length_": "The length of the index present for the PE GID and Vendor Gid."
        }
      },
      "getAocListByPeGid(string,uint256,uint256)": {
        "details": "Listing out the Aocs against the PE Gid.",
        "params": {
          "_count": "The number of indexes that has to be fetched. ",
          "_procuringEntityGid": "GID assigned to Procuring Entity.",
          "_toExcluded": "The length till where the uint indexes has to be fetched."
        },
        "returns": {
          "_aocsByPeGid": "List of Aocs against the PE Gid.",
          "fromIncluded_": "_toExcluded - _count.",
          "length_": "The length of the index present for the PE Gid."
        }
      },
      "getAocListByTenderRefAndOrgId(string,string,uint256,uint256)": {
        "details": "Listing out the Aocs against the Tender Reference and EgpSystem Id.",
        "params": {
          "_count": "The number of indexes that has to be fetched. ",
          "_orgId": "e-GP system Id registered with the network.",
          "_tenderReference": "Tender Reference.",
          "_toExcluded": "The length till where the uint indexes has to be fetched."
        },
        "returns": {
          "_aocsByTenderRefAndOrgId": "List of Aocs against the Tender Reference and EgpSystem Id.",
          "fromIncluded_": "_toExcluded - _count.",
          "length_": "The length of the index present for the Tender Reference and EgpSystem Id."
        }
      },
      "getAocListByVendorGidOrgId(string,string,uint256,uint256)": {
        "details": "Listing out the Aocs against the Vendor Gid and EgpSystem Id.",
        "params": {
          "_count": "The number of indexes that has to be fetched. ",
          "_orgId": "e-GP system Id registered with the network.",
          "_toExcluded": "The length till where the uint indexes has to be fetched.",
          "_vendorGid": "GID of the vendor."
        },
        "returns": {
          "_aocsByVendorGidAndOrgId": "List of Aocs against the Vendor Gid and EgpSystem Id.",
          "fromIncluded_": "_toExcluded - _count.",
          "length_": "The length of the index present for the Vendor Gid and EgpSystem Id."
        }
      }
    },
    "version": 1
  },
  "userdoc": {
    "kind": "user",
    "methods": {},
    "version": 1
  }
}