{
  "contractName": "BankGuaranteeReleaseManager",
  "abi": [
    {
      "inputs": [
        {
          "internalType": "address",
          "name": "_bankGuaranteeReleaseModel",
          "type": "address"
        },
        {
          "internalType": "address",
          "name": "_bankGuaranteeInvokeModel",
          "type": "address"
        },
        {
          "internalType": "address",
          "name": "_bankGuaranteeManager",
          "type": "address"
        },
        {
          "internalType": "address",
          "name": "_permInterfaceAddress",
          "type": "address"
        },
        {
          "internalType": "address",
          "name": "_vcnFunctionalManager",
          "type": "address"
        }
      ],
      "stateMutability": "nonpayable",
      "type": "constructor"
    },
    {
      "anonymous": false,
      "inputs": [
        {
          "indexed": false,
          "internalType": "bytes8",
          "name": "_bgInvokeUid",
          "type": "bytes8"
        },
        {
          "indexed": false,
          "internalType": "bytes8",
          "name": "_bgUid",
          "type": "bytes8"
        },
        {
          "indexed": false,
          "internalType": "string",
          "name": "_paymentAdviceReferenceNumber",
          "type": "string"
        },
        {
          "indexed": false,
          "internalType": "string",
          "name": "_procuringEntityGid",
          "type": "string"
        },
        {
          "indexed": false,
          "internalType": "string",
          "name": "_egpSystemId",
          "type": "string"
        },
        {
          "indexed": false,
          "internalType": "string",
          "name": "_bankGid",
          "type": "string"
        }
      ],
      "name": "BankGuaranteeInvoked",
      "type": "event"
    },
    {
      "anonymous": false,
      "inputs": [
        {
          "indexed": false,
          "internalType": "bytes8",
          "name": "_bgReleaseUid",
          "type": "bytes8"
        },
        {
          "indexed": false,
          "internalType": "bytes8",
          "name": "_bgUid",
          "type": "bytes8"
        },
        {
          "indexed": false,
          "internalType": "string",
          "name": "_paymentAdviceReferenceNumber",
          "type": "string"
        },
        {
          "indexed": false,
          "internalType": "string",
          "name": "_procuringEntityGid",
          "type": "string"
        },
        {
          "indexed": false,
          "internalType": "string",
          "name": "_egpSystemId",
          "type": "string"
        },
        {
          "indexed": false,
          "internalType": "string",
          "name": "_bankGid",
          "type": "string"
        }
      ],
      "name": "BankGuaranteeReleased",
      "type": "event"
    },
    {
      "inputs": [
        {
          "components": [
            {
              "internalType": "bytes8",
              "name": "uid",
              "type": "bytes8"
            },
            {
              "internalType": "bytes8",
              "name": "bankGuaranteeUid",
              "type": "bytes8"
            },
            {
              "internalType": "string",
              "name": "paymentReference",
              "type": "string"
            },
            {
              "internalType": "string",
              "name": "procuringEntityGid",
              "type": "string"
            },
            {
              "internalType": "string",
              "name": "egpSystemId",
              "type": "string"
            },
            {
              "internalType": "string",
              "name": "vendorGid",
              "type": "string"
            },
            {
              "internalType": "string",
              "name": "bankGid",
              "type": "string"
            },
            {
              "internalType": "string",
              "name": "branchName",
              "type": "string"
            },
            {
              "internalType": "uint256",
              "name": "releaseDate",
              "type": "uint256"
            },
            {
              "internalType": "string",
              "name": "currency",
              "type": "string"
            },
            {
              "internalType": "uint256",
              "name": "amountReleased",
              "type": "uint256"
            },
            {
              "internalType": "string",
              "name": "bgReleaseFileHash",
              "type": "string"
            },
            {
              "internalType": "uint16",
              "name": "version",
              "type": "uint16"
            }
          ],
          "internalType": "struct BankGuaranteeReleaseStructs.BankGuaranteeRelease",
          "name": "_bankGuaranteeRelease",
          "type": "tuple"
        }
      ],
      "name": "publishBankGuaranteeRelease",
      "outputs": [],
      "stateMutability": "nonpayable",
      "type": "function"
    },
    {
      "inputs": [
        {
          "components": [
            {
              "internalType": "bytes8",
              "name": "uid",
              "type": "bytes8"
            },
            {
              "internalType": "bytes8",
              "name": "bankGuaranteeUid",
              "type": "bytes8"
            },
            {
              "internalType": "string",
              "name": "paymentReference",
              "type": "string"
            },
            {
              "internalType": "string",
              "name": "procuringEntityGid",
              "type": "string"
            },
            {
              "internalType": "string",
              "name": "egpSystemId",
              "type": "string"
            },
            {
              "internalType": "string",
              "name": "vendorGid",
              "type": "string"
            },
            {
              "internalType": "string",
              "name": "bankGid",
              "type": "string"
            },
            {
              "internalType": "string",
              "name": "branchName",
              "type": "string"
            },
            {
              "internalType": "uint256",
              "name": "revocationDate",
              "type": "uint256"
            },
            {
              "internalType": "string",
              "name": "currency",
              "type": "string"
            },
            {
              "internalType": "uint256",
              "name": "revocationAmount",
              "type": "uint256"
            },
            {
              "internalType": "string",
              "name": "beneficiaryName",
              "type": "string"
            },
            {
              "internalType": "string",
              "name": "beneficiaryBankAccountNumber",
              "type": "string"
            },
            {
              "internalType": "string",
              "name": "beneficiaryBankName",
              "type": "string"
            },
            {
              "internalType": "string",
              "name": "beneficiaryBranchName",
              "type": "string"
            },
            {
              "internalType": "string",
              "name": "beneficiaryIfscCode",
              "type": "string"
            },
            {
              "internalType": "string",
              "name": "bgInvokeFileHash",
              "type": "string"
            },
            {
              "internalType": "uint16",
              "name": "version",
              "type": "uint16"
            }
          ],
          "internalType": "struct BankGuaranteeInvokeStructs.BankGuaranteeInvoke",
          "name": "_bankGuaranteeInvoke",
          "type": "tuple"
        }
      ],
      "name": "publishBankGuaranteeInvoke",
      "outputs": [],
      "stateMutability": "nonpayable",
      "type": "function"
    },
    {
      "inputs": [
        {
          "internalType": "uint256",
          "name": "_toExcluded",
          "type": "uint256"
        },
        {
          "internalType": "uint256",
          "name": "_count",
          "type": "uint256"
        }
      ],
      "name": "getAllBankGuaranteeRelease",
      "outputs": [
        {
          "components": [
            {
              "internalType": "bytes8",
              "name": "uid",
              "type": "bytes8"
            },
            {
              "internalType": "bytes8",
              "name": "bankGuaranteeUid",
              "type": "bytes8"
            },
            {
              "internalType": "string",
              "name": "paymentReference",
              "type": "string"
            },
            {
              "internalType": "string",
              "name": "procuringEntityGid",
              "type": "string"
            },
            {
              "internalType": "string",
              "name": "egpSystemId",
              "type": "string"
            },
            {
              "internalType": "string",
              "name": "vendorGid",
              "type": "string"
            },
            {
              "internalType": "string",
              "name": "bankGid",
              "type": "string"
            },
            {
              "internalType": "string",
              "name": "branchName",
              "type": "string"
            },
            {
              "internalType": "uint256",
              "name": "releaseDate",
              "type": "uint256"
            },
            {
              "internalType": "string",
              "name": "currency",
              "type": "string"
            },
            {
              "internalType": "uint256",
              "name": "amountReleased",
              "type": "uint256"
            },
            {
              "internalType": "string",
              "name": "bgReleaseFileHash",
              "type": "string"
            },
            {
              "internalType": "uint16",
              "name": "version",
              "type": "uint16"
            }
          ],
          "internalType": "struct BankGuaranteeReleaseStructs.BankGuaranteeRelease[]",
          "name": "_bankGuaranteeRelease",
          "type": "tuple[]"
        },
        {
          "internalType": "uint256",
          "name": "fromIncluded_",
          "type": "uint256"
        },
        {
          "internalType": "uint256",
          "name": "length_",
          "type": "uint256"
        }
      ],
      "stateMutability": "view",
      "type": "function"
    },
    {
      "inputs": [
        {
          "internalType": "uint256",
          "name": "_toExcluded",
          "type": "uint256"
        },
        {
          "internalType": "uint256",
          "name": "_count",
          "type": "uint256"
        }
      ],
      "name": "getAllBankGuaranteeInvoke",
      "outputs": [
        {
          "components": [
            {
              "internalType": "bytes8",
              "name": "uid",
              "type": "bytes8"
            },
            {
              "internalType": "bytes8",
              "name": "bankGuaranteeUid",
              "type": "bytes8"
            },
            {
              "internalType": "string",
              "name": "paymentReference",
              "type": "string"
            },
            {
              "internalType": "string",
              "name": "procuringEntityGid",
              "type": "string"
            },
            {
              "internalType": "string",
              "name": "egpSystemId",
              "type": "string"
            },
            {
              "internalType": "string",
              "name": "vendorGid",
              "type": "string"
            },
            {
              "internalType": "string",
              "name": "bankGid",
              "type": "string"
            },
            {
              "internalType": "string",
              "name": "branchName",
              "type": "string"
            },
            {
              "internalType": "uint256",
              "name": "revocationDate",
              "type": "uint256"
            },
            {
              "internalType": "string",
              "name": "currency",
              "type": "string"
            },
            {
              "internalType": "uint256",
              "name": "revocationAmount",
              "type": "uint256"
            },
            {
              "internalType": "string",
              "name": "beneficiaryName",
              "type": "string"
            },
            {
              "internalType": "string",
              "name": "beneficiaryBankAccountNumber",
              "type": "string"
            },
            {
              "internalType": "string",
              "name": "beneficiaryBankName",
              "type": "string"
            },
            {
              "internalType": "string",
              "name": "beneficiaryBranchName",
              "type": "string"
            },
            {
              "internalType": "string",
              "name": "beneficiaryIfscCode",
              "type": "string"
            },
            {
              "internalType": "string",
              "name": "bgInvokeFileHash",
              "type": "string"
            },
            {
              "internalType": "uint16",
              "name": "version",
              "type": "uint16"
            }
          ],
          "internalType": "struct BankGuaranteeInvokeStructs.BankGuaranteeInvoke[]",
          "name": "_bankGuaranteeInvoke",
          "type": "tuple[]"
        },
        {
          "internalType": "uint256",
          "name": "fromIncluded_",
          "type": "uint256"
        },
        {
          "internalType": "uint256",
          "name": "length_",
          "type": "uint256"
        }
      ],
      "stateMutability": "view",
      "type": "function"
    },
    {
      "inputs": [
        {
          "internalType": "bytes8",
          "name": "_bgUid",
          "type": "bytes8"
        }
      ],
      "name": "getBankGuaranteeBalance",
      "outputs": [
        {
          "internalType": "uint256",
          "name": "",
          "type": "uint256"
        }
      ],
      "stateMutability": "view",
      "type": "function"
    },
    {
      "inputs": [
        {
          "internalType": "bytes8",
          "name": "_uid",
          "type": "bytes8"
        }
      ],
      "name": "getBankGuaranteeRelease",
      "outputs": [
        {
          "components": [
            {
              "internalType": "bytes8",
              "name": "uid",
              "type": "bytes8"
            },
            {
              "internalType": "bytes8",
              "name": "bankGuaranteeUid",
              "type": "bytes8"
            },
            {
              "internalType": "string",
              "name": "paymentReference",
              "type": "string"
            },
            {
              "internalType": "string",
              "name": "procuringEntityGid",
              "type": "string"
            },
            {
              "internalType": "string",
              "name": "egpSystemId",
              "type": "string"
            },
            {
              "internalType": "string",
              "name": "vendorGid",
              "type": "string"
            },
            {
              "internalType": "string",
              "name": "bankGid",
              "type": "string"
            },
            {
              "internalType": "string",
              "name": "branchName",
              "type": "string"
            },
            {
              "internalType": "uint256",
              "name": "releaseDate",
              "type": "uint256"
            },
            {
              "internalType": "string",
              "name": "currency",
              "type": "string"
            },
            {
              "internalType": "uint256",
              "name": "amountReleased",
              "type": "uint256"
            },
            {
              "internalType": "string",
              "name": "bgReleaseFileHash",
              "type": "string"
            },
            {
              "internalType": "uint16",
              "name": "version",
              "type": "uint16"
            }
          ],
          "internalType": "struct BankGuaranteeReleaseStructs.BankGuaranteeRelease",
          "name": "bankGuaranteeRelease_",
          "type": "tuple"
        }
      ],
      "stateMutability": "view",
      "type": "function"
    },
    {
      "inputs": [
        {
          "internalType": "bytes8",
          "name": "_uid",
          "type": "bytes8"
        }
      ],
      "name": "isReleaseUidExists",
      "outputs": [
        {
          "internalType": "bool",
          "name": "",
          "type": "bool"
        }
      ],
      "stateMutability": "view",
      "type": "function"
    },
    {
      "inputs": [
        {
          "internalType": "string",
          "name": "_bankGid",
          "type": "string"
        },
        {
          "internalType": "uint256",
          "name": "_toExcluded",
          "type": "uint256"
        },
        {
          "internalType": "uint256",
          "name": "_count",
          "type": "uint256"
        }
      ],
      "name": "getBgReleasesListByBankGID",
      "outputs": [
        {
          "components": [
            {
              "internalType": "bytes8",
              "name": "uid",
              "type": "bytes8"
            },
            {
              "internalType": "bytes8",
              "name": "bankGuaranteeUid",
              "type": "bytes8"
            },
            {
              "internalType": "string",
              "name": "paymentReference",
              "type": "string"
            },
            {
              "internalType": "string",
              "name": "procuringEntityGid",
              "type": "string"
            },
            {
              "internalType": "string",
              "name": "egpSystemId",
              "type": "string"
            },
            {
              "internalType": "string",
              "name": "vendorGid",
              "type": "string"
            },
            {
              "internalType": "string",
              "name": "bankGid",
              "type": "string"
            },
            {
              "internalType": "string",
              "name": "branchName",
              "type": "string"
            },
            {
              "internalType": "uint256",
              "name": "releaseDate",
              "type": "uint256"
            },
            {
              "internalType": "string",
              "name": "currency",
              "type": "string"
            },
            {
              "internalType": "uint256",
              "name": "amountReleased",
              "type": "uint256"
            },
            {
              "internalType": "string",
              "name": "bgReleaseFileHash",
              "type": "string"
            },
            {
              "internalType": "uint16",
              "name": "version",
              "type": "uint16"
            }
          ],
          "internalType": "struct BankGuaranteeReleaseStructs.BankGuaranteeRelease[]",
          "name": "_bgReleaseListByBankGID",
          "type": "tuple[]"
        },
        {
          "internalType": "uint256",
          "name": "fromIncluded_",
          "type": "uint256"
        },
        {
          "internalType": "uint256",
          "name": "length_",
          "type": "uint256"
        }
      ],
      "stateMutability": "view",
      "type": "function"
    },
    {
      "inputs": [
        {
          "internalType": "string",
          "name": "_egpSystemId",
          "type": "string"
        },
        {
          "internalType": "uint256",
          "name": "_toExcluded",
          "type": "uint256"
        },
        {
          "internalType": "uint256",
          "name": "_count",
          "type": "uint256"
        }
      ],
      "name": "getBgReleasesListByEgpID",
      "outputs": [
        {
          "components": [
            {
              "internalType": "bytes8",
              "name": "uid",
              "type": "bytes8"
            },
            {
              "internalType": "bytes8",
              "name": "bankGuaranteeUid",
              "type": "bytes8"
            },
            {
              "internalType": "string",
              "name": "paymentReference",
              "type": "string"
            },
            {
              "internalType": "string",
              "name": "procuringEntityGid",
              "type": "string"
            },
            {
              "internalType": "string",
              "name": "egpSystemId",
              "type": "string"
            },
            {
              "internalType": "string",
              "name": "vendorGid",
              "type": "string"
            },
            {
              "internalType": "string",
              "name": "bankGid",
              "type": "string"
            },
            {
              "internalType": "string",
              "name": "branchName",
              "type": "string"
            },
            {
              "internalType": "uint256",
              "name": "releaseDate",
              "type": "uint256"
            },
            {
              "internalType": "string",
              "name": "currency",
              "type": "string"
            },
            {
              "internalType": "uint256",
              "name": "amountReleased",
              "type": "uint256"
            },
            {
              "internalType": "string",
              "name": "bgReleaseFileHash",
              "type": "string"
            },
            {
              "internalType": "uint16",
              "name": "version",
              "type": "uint16"
            }
          ],
          "internalType": "struct BankGuaranteeReleaseStructs.BankGuaranteeRelease[]",
          "name": "_bgReleaseListByEgpID",
          "type": "tuple[]"
        },
        {
          "internalType": "uint256",
          "name": "fromIncluded_",
          "type": "uint256"
        },
        {
          "internalType": "uint256",
          "name": "length_",
          "type": "uint256"
        }
      ],
      "stateMutability": "view",
      "type": "function"
    },
    {
      "inputs": [
        {
          "internalType": "string",
          "name": "_bgReferenceNumber",
          "type": "string"
        },
        {
          "internalType": "string",
          "name": "_bankGid",
          "type": "string"
        },
        {
          "internalType": "uint256",
          "name": "_toExcluded",
          "type": "uint256"
        },
        {
          "internalType": "uint256",
          "name": "_count",
          "type": "uint256"
        }
      ],
      "name": "getBgReleasesListByBgRefAndBankGid",
      "outputs": [
        {
          "components": [
            {
              "internalType": "bytes8",
              "name": "uid",
              "type": "bytes8"
            },
            {
              "internalType": "bytes8",
              "name": "bankGuaranteeUid",
              "type": "bytes8"
            },
            {
              "internalType": "string",
              "name": "paymentReference",
              "type": "string"
            },
            {
              "internalType": "string",
              "name": "procuringEntityGid",
              "type": "string"
            },
            {
              "internalType": "string",
              "name": "egpSystemId",
              "type": "string"
            },
            {
              "internalType": "string",
              "name": "vendorGid",
              "type": "string"
            },
            {
              "internalType": "string",
              "name": "bankGid",
              "type": "string"
            },
            {
              "internalType": "string",
              "name": "branchName",
              "type": "string"
            },
            {
              "internalType": "uint256",
              "name": "releaseDate",
              "type": "uint256"
            },
            {
              "internalType": "string",
              "name": "currency",
              "type": "string"
            },
            {
              "internalType": "uint256",
              "name": "amountReleased",
              "type": "uint256"
            },
            {
              "internalType": "string",
              "name": "bgReleaseFileHash",
              "type": "string"
            },
            {
              "internalType": "uint16",
              "name": "version",
              "type": "uint16"
            }
          ],
          "internalType": "struct BankGuaranteeReleaseStructs.BankGuaranteeRelease[]",
          "name": "_bgReleaseListByBgRefAndBankGid",
          "type": "tuple[]"
        },
        {
          "internalType": "uint256",
          "name": "fromIncluded_",
          "type": "uint256"
        },
        {
          "internalType": "uint256",
          "name": "length_",
          "type": "uint256"
        }
      ],
      "stateMutability": "view",
      "type": "function"
    },
    {
      "inputs": [
        {
          "internalType": "string",
          "name": "_paymentReference",
          "type": "string"
        },
        {
          "internalType": "string",
          "name": "_bankGid",
          "type": "string"
        },
        {
          "internalType": "uint256",
          "name": "_toExcluded",
          "type": "uint256"
        },
        {
          "internalType": "uint256",
          "name": "_count",
          "type": "uint256"
        }
      ],
      "name": "getBgReleasesListByPaRefAndBankGid",
      "outputs": [
        {
          "components": [
            {
              "internalType": "bytes8",
              "name": "uid",
              "type": "bytes8"
            },
            {
              "internalType": "bytes8",
              "name": "bankGuaranteeUid",
              "type": "bytes8"
            },
            {
              "internalType": "string",
              "name": "paymentReference",
              "type": "string"
            },
            {
              "internalType": "string",
              "name": "procuringEntityGid",
              "type": "string"
            },
            {
              "internalType": "string",
              "name": "egpSystemId",
              "type": "string"
            },
            {
              "internalType": "string",
              "name": "vendorGid",
              "type": "string"
            },
            {
              "internalType": "string",
              "name": "bankGid",
              "type": "string"
            },
            {
              "internalType": "string",
              "name": "branchName",
              "type": "string"
            },
            {
              "internalType": "uint256",
              "name": "releaseDate",
              "type": "uint256"
            },
            {
              "internalType": "string",
              "name": "currency",
              "type": "string"
            },
            {
              "internalType": "uint256",
              "name": "amountReleased",
              "type": "uint256"
            },
            {
              "internalType": "string",
              "name": "bgReleaseFileHash",
              "type": "string"
            },
            {
              "internalType": "uint16",
              "name": "version",
              "type": "uint16"
            }
          ],
          "internalType": "struct BankGuaranteeReleaseStructs.BankGuaranteeRelease[]",
          "name": "_bgReleaseListByPaRefAndBankGid",
          "type": "tuple[]"
        },
        {
          "internalType": "uint256",
          "name": "fromIncluded_",
          "type": "uint256"
        },
        {
          "internalType": "uint256",
          "name": "length_",
          "type": "uint256"
        }
      ],
      "stateMutability": "view",
      "type": "function"
    },
    {
      "inputs": [
        {
          "internalType": "bytes8",
          "name": "_bgUid",
          "type": "bytes8"
        },
        {
          "internalType": "uint256",
          "name": "_toExcluded",
          "type": "uint256"
        },
        {
          "internalType": "uint256",
          "name": "_count",
          "type": "uint256"
        }
      ],
      "name": "getBgReleaseListByBgUid",
      "outputs": [
        {
          "components": [
            {
              "internalType": "bytes8",
              "name": "uid",
              "type": "bytes8"
            },
            {
              "internalType": "bytes8",
              "name": "bankGuaranteeUid",
              "type": "bytes8"
            },
            {
              "internalType": "string",
              "name": "paymentReference",
              "type": "string"
            },
            {
              "internalType": "string",
              "name": "procuringEntityGid",
              "type": "string"
            },
            {
              "internalType": "string",
              "name": "egpSystemId",
              "type": "string"
            },
            {
              "internalType": "string",
              "name": "vendorGid",
              "type": "string"
            },
            {
              "internalType": "string",
              "name": "bankGid",
              "type": "string"
            },
            {
              "internalType": "string",
              "name": "branchName",
              "type": "string"
            },
            {
              "internalType": "uint256",
              "name": "releaseDate",
              "type": "uint256"
            },
            {
              "internalType": "string",
              "name": "currency",
              "type": "string"
            },
            {
              "internalType": "uint256",
              "name": "amountReleased",
              "type": "uint256"
            },
            {
              "internalType": "string",
              "name": "bgReleaseFileHash",
              "type": "string"
            },
            {
              "internalType": "uint16",
              "name": "version",
              "type": "uint16"
            }
          ],
          "internalType": "struct BankGuaranteeReleaseStructs.BankGuaranteeRelease[]",
          "name": "bgReleaseList_",
          "type": "tuple[]"
        },
        {
          "internalType": "uint256",
          "name": "fromIncluded_",
          "type": "uint256"
        },
        {
          "internalType": "uint256",
          "name": "length_",
          "type": "uint256"
        }
      ],
      "stateMutability": "view",
      "type": "function"
    },
    {
      "inputs": [
        {
          "internalType": "bytes8",
          "name": "_bgUid",
          "type": "bytes8"
        },
        {
          "internalType": "uint256",
          "name": "_toExcluded",
          "type": "uint256"
        },
        {
          "internalType": "uint256",
          "name": "_count",
          "type": "uint256"
        }
      ],
      "name": "getBgInvokeListByBgUid",
      "outputs": [
        {
          "components": [
            {
              "internalType": "bytes8",
              "name": "uid",
              "type": "bytes8"
            },
            {
              "internalType": "bytes8",
              "name": "bankGuaranteeUid",
              "type": "bytes8"
            },
            {
              "internalType": "string",
              "name": "paymentReference",
              "type": "string"
            },
            {
              "internalType": "string",
              "name": "procuringEntityGid",
              "type": "string"
            },
            {
              "internalType": "string",
              "name": "egpSystemId",
              "type": "string"
            },
            {
              "internalType": "string",
              "name": "vendorGid",
              "type": "string"
            },
            {
              "internalType": "string",
              "name": "bankGid",
              "type": "string"
            },
            {
              "internalType": "string",
              "name": "branchName",
              "type": "string"
            },
            {
              "internalType": "uint256",
              "name": "revocationDate",
              "type": "uint256"
            },
            {
              "internalType": "string",
              "name": "currency",
              "type": "string"
            },
            {
              "internalType": "uint256",
              "name": "revocationAmount",
              "type": "uint256"
            },
            {
              "internalType": "string",
              "name": "beneficiaryName",
              "type": "string"
            },
            {
              "internalType": "string",
              "name": "beneficiaryBankAccountNumber",
              "type": "string"
            },
            {
              "internalType": "string",
              "name": "beneficiaryBankName",
              "type": "string"
            },
            {
              "internalType": "string",
              "name": "beneficiaryBranchName",
              "type": "string"
            },
            {
              "internalType": "string",
              "name": "beneficiaryIfscCode",
              "type": "string"
            },
            {
              "internalType": "string",
              "name": "bgInvokeFileHash",
              "type": "string"
            },
            {
              "internalType": "uint16",
              "name": "version",
              "type": "uint16"
            }
          ],
          "internalType": "struct BankGuaranteeInvokeStructs.BankGuaranteeInvoke[]",
          "name": "bgInvokeList_",
          "type": "tuple[]"
        },
        {
          "internalType": "uint256",
          "name": "fromIncluded_",
          "type": "uint256"
        },
        {
          "internalType": "uint256",
          "name": "length_",
          "type": "uint256"
        }
      ],
      "stateMutability": "view",
      "type": "function"
    },
    {
      "inputs": [
        {
          "internalType": "bytes8",
          "name": "_uid",
          "type": "bytes8"
        }
      ],
      "name": "getBankGuaranteeInvoke",
      "outputs": [
        {
          "components": [
            {
              "internalType": "bytes8",
              "name": "uid",
              "type": "bytes8"
            },
            {
              "internalType": "bytes8",
              "name": "bankGuaranteeUid",
              "type": "bytes8"
            },
            {
              "internalType": "string",
              "name": "paymentReference",
              "type": "string"
            },
            {
              "internalType": "string",
              "name": "procuringEntityGid",
              "type": "string"
            },
            {
              "internalType": "string",
              "name": "egpSystemId",
              "type": "string"
            },
            {
              "internalType": "string",
              "name": "vendorGid",
              "type": "string"
            },
            {
              "internalType": "string",
              "name": "bankGid",
              "type": "string"
            },
            {
              "internalType": "string",
              "name": "branchName",
              "type": "string"
            },
            {
              "internalType": "uint256",
              "name": "revocationDate",
              "type": "uint256"
            },
            {
              "internalType": "string",
              "name": "currency",
              "type": "string"
            },
            {
              "internalType": "uint256",
              "name": "revocationAmount",
              "type": "uint256"
            },
            {
              "internalType": "string",
              "name": "beneficiaryName",
              "type": "string"
            },
            {
              "internalType": "string",
              "name": "beneficiaryBankAccountNumber",
              "type": "string"
            },
            {
              "internalType": "string",
              "name": "beneficiaryBankName",
              "type": "string"
            },
            {
              "internalType": "string",
              "name": "beneficiaryBranchName",
              "type": "string"
            },
            {
              "internalType": "string",
              "name": "beneficiaryIfscCode",
              "type": "string"
            },
            {
              "internalType": "string",
              "name": "bgInvokeFileHash",
              "type": "string"
            },
            {
              "internalType": "uint16",
              "name": "version",
              "type": "uint16"
            }
          ],
          "internalType": "struct BankGuaranteeInvokeStructs.BankGuaranteeInvoke",
          "name": "bankGuaranteeInvoke_",
          "type": "tuple"
        }
      ],
      "stateMutability": "view",
      "type": "function"
    },
    {
      "inputs": [
        {
          "internalType": "bytes8",
          "name": "_uid",
          "type": "bytes8"
        }
      ],
      "name": "isInvokeUidExists",
      "outputs": [
        {
          "internalType": "bool",
          "name": "",
          "type": "bool"
        }
      ],
      "stateMutability": "view",
      "type": "function"
    },
    {
      "inputs": [
        {
          "internalType": "string",
          "name": "_bankGid",
          "type": "string"
        },
        {
          "internalType": "uint256",
          "name": "_toExcluded",
          "type": "uint256"
        },
        {
          "internalType": "uint256",
          "name": "_count",
          "type": "uint256"
        }
      ],
      "name": "getBgInvokesListByBankGID",
      "outputs": [
        {
          "components": [
            {
              "internalType": "bytes8",
              "name": "uid",
              "type": "bytes8"
            },
            {
              "internalType": "bytes8",
              "name": "bankGuaranteeUid",
              "type": "bytes8"
            },
            {
              "internalType": "string",
              "name": "paymentReference",
              "type": "string"
            },
            {
              "internalType": "string",
              "name": "procuringEntityGid",
              "type": "string"
            },
            {
              "internalType": "string",
              "name": "egpSystemId",
              "type": "string"
            },
            {
              "internalType": "string",
              "name": "vendorGid",
              "type": "string"
            },
            {
              "internalType": "string",
              "name": "bankGid",
              "type": "string"
            },
            {
              "internalType": "string",
              "name": "branchName",
              "type": "string"
            },
            {
              "internalType": "uint256",
              "name": "revocationDate",
              "type": "uint256"
            },
            {
              "internalType": "string",
              "name": "currency",
              "type": "string"
            },
            {
              "internalType": "uint256",
              "name": "revocationAmount",
              "type": "uint256"
            },
            {
              "internalType": "string",
              "name": "beneficiaryName",
              "type": "string"
            },
            {
              "internalType": "string",
              "name": "beneficiaryBankAccountNumber",
              "type": "string"
            },
            {
              "internalType": "string",
              "name": "beneficiaryBankName",
              "type": "string"
            },
            {
              "internalType": "string",
              "name": "beneficiaryBranchName",
              "type": "string"
            },
            {
              "internalType": "string",
              "name": "beneficiaryIfscCode",
              "type": "string"
            },
            {
              "internalType": "string",
              "name": "bgInvokeFileHash",
              "type": "string"
            },
            {
              "internalType": "uint16",
              "name": "version",
              "type": "uint16"
            }
          ],
          "internalType": "struct BankGuaranteeInvokeStructs.BankGuaranteeInvoke[]",
          "name": "_bgInvokeListByBankGID",
          "type": "tuple[]"
        },
        {
          "internalType": "uint256",
          "name": "fromIncluded_",
          "type": "uint256"
        },
        {
          "internalType": "uint256",
          "name": "length_",
          "type": "uint256"
        }
      ],
      "stateMutability": "view",
      "type": "function"
    },
    {
      "inputs": [
        {
          "internalType": "string",
          "name": "_egpSystemId",
          "type": "string"
        },
        {
          "internalType": "uint256",
          "name": "_toExcluded",
          "type": "uint256"
        },
        {
          "internalType": "uint256",
          "name": "_count",
          "type": "uint256"
        }
      ],
      "name": "getBgInvokesListByEgpID",
      "outputs": [
        {
          "components": [
            {
              "internalType": "bytes8",
              "name": "uid",
              "type": "bytes8"
            },
            {
              "internalType": "bytes8",
              "name": "bankGuaranteeUid",
              "type": "bytes8"
            },
            {
              "internalType": "string",
              "name": "paymentReference",
              "type": "string"
            },
            {
              "internalType": "string",
              "name": "procuringEntityGid",
              "type": "string"
            },
            {
              "internalType": "string",
              "name": "egpSystemId",
              "type": "string"
            },
            {
              "internalType": "string",
              "name": "vendorGid",
              "type": "string"
            },
            {
              "internalType": "string",
              "name": "bankGid",
              "type": "string"
            },
            {
              "internalType": "string",
              "name": "branchName",
              "type": "string"
            },
            {
              "internalType": "uint256",
              "name": "revocationDate",
              "type": "uint256"
            },
            {
              "internalType": "string",
              "name": "currency",
              "type": "string"
            },
            {
              "internalType": "uint256",
              "name": "revocationAmount",
              "type": "uint256"
            },
            {
              "internalType": "string",
              "name": "beneficiaryName",
              "type": "string"
            },
            {
              "internalType": "string",
              "name": "beneficiaryBankAccountNumber",
              "type": "string"
            },
            {
              "internalType": "string",
              "name": "beneficiaryBankName",
              "type": "string"
            },
            {
              "internalType": "string",
              "name": "beneficiaryBranchName",
              "type": "string"
            },
            {
              "internalType": "string",
              "name": "beneficiaryIfscCode",
              "type": "string"
            },
            {
              "internalType": "string",
              "name": "bgInvokeFileHash",
              "type": "string"
            },
            {
              "internalType": "uint16",
              "name": "version",
              "type": "uint16"
            }
          ],
          "internalType": "struct BankGuaranteeInvokeStructs.BankGuaranteeInvoke[]",
          "name": "_bgInvokeListByEgpID",
          "type": "tuple[]"
        },
        {
          "internalType": "uint256",
          "name": "fromIncluded_",
          "type": "uint256"
        },
        {
          "internalType": "uint256",
          "name": "length_",
          "type": "uint256"
        }
      ],
      "stateMutability": "view",
      "type": "function"
    },
    {
      "inputs": [
        {
          "internalType": "string",
          "name": "_bgReferenceNumber",
          "type": "string"
        },
        {
          "internalType": "string",
          "name": "_bankGid",
          "type": "string"
        },
        {
          "internalType": "uint256",
          "name": "_toExcluded",
          "type": "uint256"
        },
        {
          "internalType": "uint256",
          "name": "_count",
          "type": "uint256"
        }
      ],
      "name": "getBgInvokesListByBgRefAndBankGid",
      "outputs": [
        {
          "components": [
            {
              "internalType": "bytes8",
              "name": "uid",
              "type": "bytes8"
            },
            {
              "internalType": "bytes8",
              "name": "bankGuaranteeUid",
              "type": "bytes8"
            },
            {
              "internalType": "string",
              "name": "paymentReference",
              "type": "string"
            },
            {
              "internalType": "string",
              "name": "procuringEntityGid",
              "type": "string"
            },
            {
              "internalType": "string",
              "name": "egpSystemId",
              "type": "string"
            },
            {
              "internalType": "string",
              "name": "vendorGid",
              "type": "string"
            },
            {
              "internalType": "string",
              "name": "bankGid",
              "type": "string"
            },
            {
              "internalType": "string",
              "name": "branchName",
              "type": "string"
            },
            {
              "internalType": "uint256",
              "name": "revocationDate",
              "type": "uint256"
            },
            {
              "internalType": "string",
              "name": "currency",
              "type": "string"
            },
            {
              "internalType": "uint256",
              "name": "revocationAmount",
              "type": "uint256"
            },
            {
              "internalType": "string",
              "name": "beneficiaryName",
              "type": "string"
            },
            {
              "internalType": "string",
              "name": "beneficiaryBankAccountNumber",
              "type": "string"
            },
            {
              "internalType": "string",
              "name": "beneficiaryBankName",
              "type": "string"
            },
            {
              "internalType": "string",
              "name": "beneficiaryBranchName",
              "type": "string"
            },
            {
              "internalType": "string",
              "name": "beneficiaryIfscCode",
              "type": "string"
            },
            {
              "internalType": "string",
              "name": "bgInvokeFileHash",
              "type": "string"
            },
            {
              "internalType": "uint16",
              "name": "version",
              "type": "uint16"
            }
          ],
          "internalType": "struct BankGuaranteeInvokeStructs.BankGuaranteeInvoke[]",
          "name": "_bgInvokeListByBgRefAndBankGid",
          "type": "tuple[]"
        },
        {
          "internalType": "uint256",
          "name": "fromIncluded_",
          "type": "uint256"
        },
        {
          "internalType": "uint256",
          "name": "length_",
          "type": "uint256"
        }
      ],
      "stateMutability": "view",
      "type": "function"
    },
    {
      "inputs": [
        {
          "internalType": "string",
          "name": "_paymentReference",
          "type": "string"
        },
        {
          "internalType": "string",
          "name": "_bankGid",
          "type": "string"
        },
        {
          "internalType": "uint256",
          "name": "_toExcluded",
          "type": "uint256"
        },
        {
          "internalType": "uint256",
          "name": "_count",
          "type": "uint256"
        }
      ],
      "name": "getBgInvokesListByPaRefAndBankGid",
      "outputs": [
        {
          "components": [
            {
              "internalType": "bytes8",
              "name": "uid",
              "type": "bytes8"
            },
            {
              "internalType": "bytes8",
              "name": "bankGuaranteeUid",
              "type": "bytes8"
            },
            {
              "internalType": "string",
              "name": "paymentReference",
              "type": "string"
            },
            {
              "internalType": "string",
              "name": "procuringEntityGid",
              "type": "string"
            },
            {
              "internalType": "string",
              "name": "egpSystemId",
              "type": "string"
            },
            {
              "internalType": "string",
              "name": "vendorGid",
              "type": "string"
            },
            {
              "internalType": "string",
              "name": "bankGid",
              "type": "string"
            },
            {
              "internalType": "string",
              "name": "branchName",
              "type": "string"
            },
            {
              "internalType": "uint256",
              "name": "revocationDate",
              "type": "uint256"
            },
            {
              "internalType": "string",
              "name": "currency",
              "type": "string"
            },
            {
              "internalType": "uint256",
              "name": "revocationAmount",
              "type": "uint256"
            },
            {
              "internalType": "string",
              "name": "beneficiaryName",
              "type": "string"
            },
            {
              "internalType": "string",
              "name": "beneficiaryBankAccountNumber",
              "type": "string"
            },
            {
              "internalType": "string",
              "name": "beneficiaryBankName",
              "type": "string"
            },
            {
              "internalType": "string",
              "name": "beneficiaryBranchName",
              "type": "string"
            },
            {
              "internalType": "string",
              "name": "beneficiaryIfscCode",
              "type": "string"
            },
            {
              "internalType": "string",
              "name": "bgInvokeFileHash",
              "type": "string"
            },
            {
              "internalType": "uint16",
              "name": "version",
              "type": "uint16"
            }
          ],
          "internalType": "struct BankGuaranteeInvokeStructs.BankGuaranteeInvoke[]",
          "name": "_bgInvokeListByPaRefAndBankGid",
          "type": "tuple[]"
        },
        {
          "internalType": "uint256",
          "name": "fromIncluded_",
          "type": "uint256"
        },
        {
          "internalType": "uint256",
          "name": "length_",
          "type": "uint256"
        }
      ],
      "stateMutability": "view",
      "type": "function"
    },
    {
      "inputs": [
        {
          "internalType": "string",
          "name": "_paReferenceNumber",
          "type": "string"
        },
        {
          "internalType": "string",
          "name": "_bankGid",
          "type": "string"
        },
        {
          "internalType": "uint256",
          "name": "_toExcluded",
          "type": "uint256"
        },
        {
          "internalType": "uint256",
          "name": "_count",
          "type": "uint256"
        }
      ],
      "name": "getBgReleasesAndInvokesListByPaBankGid",
      "outputs": [
        {
          "components": [
            {
              "internalType": "bytes8",
              "name": "uid",
              "type": "bytes8"
            },
            {
              "internalType": "bytes8",
              "name": "bankGuaranteeUid",
              "type": "bytes8"
            },
            {
              "internalType": "string",
              "name": "paymentReference",
              "type": "string"
            },
            {
              "internalType": "string",
              "name": "procuringEntityGid",
              "type": "string"
            },
            {
              "internalType": "string",
              "name": "egpSystemId",
              "type": "string"
            },
            {
              "internalType": "string",
              "name": "vendorGid",
              "type": "string"
            },
            {
              "internalType": "string",
              "name": "bankGid",
              "type": "string"
            },
            {
              "internalType": "string",
              "name": "branchName",
              "type": "string"
            },
            {
              "internalType": "uint256",
              "name": "releaseDate",
              "type": "uint256"
            },
            {
              "internalType": "string",
              "name": "currency",
              "type": "string"
            },
            {
              "internalType": "uint256",
              "name": "amountReleased",
              "type": "uint256"
            },
            {
              "internalType": "string",
              "name": "bgReleaseFileHash",
              "type": "string"
            },
            {
              "internalType": "uint16",
              "name": "version",
              "type": "uint16"
            }
          ],
          "internalType": "struct BankGuaranteeReleaseStructs.BankGuaranteeRelease[]",
          "name": "_bgReleaseListByUid",
          "type": "tuple[]"
        },
        {
          "components": [
            {
              "internalType": "bytes8",
              "name": "uid",
              "type": "bytes8"
            },
            {
              "internalType": "bytes8",
              "name": "bankGuaranteeUid",
              "type": "bytes8"
            },
            {
              "internalType": "string",
              "name": "paymentReference",
              "type": "string"
            },
            {
              "internalType": "string",
              "name": "procuringEntityGid",
              "type": "string"
            },
            {
              "internalType": "string",
              "name": "egpSystemId",
              "type": "string"
            },
            {
              "internalType": "string",
              "name": "vendorGid",
              "type": "string"
            },
            {
              "internalType": "string",
              "name": "bankGid",
              "type": "string"
            },
            {
              "internalType": "string",
              "name": "branchName",
              "type": "string"
            },
            {
              "internalType": "uint256",
              "name": "revocationDate",
              "type": "uint256"
            },
            {
              "internalType": "string",
              "name": "currency",
              "type": "string"
            },
            {
              "internalType": "uint256",
              "name": "revocationAmount",
              "type": "uint256"
            },
            {
              "internalType": "string",
              "name": "beneficiaryName",
              "type": "string"
            },
            {
              "internalType": "string",
              "name": "beneficiaryBankAccountNumber",
              "type": "string"
            },
            {
              "internalType": "string",
              "name": "beneficiaryBankName",
              "type": "string"
            },
            {
              "internalType": "string",
              "name": "beneficiaryBranchName",
              "type": "string"
            },
            {
              "internalType": "string",
              "name": "beneficiaryIfscCode",
              "type": "string"
            },
            {
              "internalType": "string",
              "name": "bgInvokeFileHash",
              "type": "string"
            },
            {
              "internalType": "uint16",
              "name": "version",
              "type": "uint16"
            }
          ],
          "internalType": "struct BankGuaranteeInvokeStructs.BankGuaranteeInvoke[]",
          "name": "_bgInvokeListByUid",
          "type": "tuple[]"
        },
        {
          "internalType": "uint256",
          "name": "fromIncluded_",
          "type": "uint256"
        },
        {
          "internalType": "uint256",
          "name": "length_",
          "type": "uint256"
        }
      ],
      "stateMutability": "view",
      "type": "function"
    }
  ],
  "bytecode": "0x608060405234801562000010575f80fd5b5060405162007078380380620070788339818101604052810190620000369190620001e5565b8460015f6101000a81548173ffffffffffffffffffffffffffffffffffffffff021916908373ffffffffffffffffffffffffffffffffffffffff1602179055508360025f6101000a81548173ffffffffffffffffffffffffffffffffffffffff021916908373ffffffffffffffffffffffffffffffffffffffff1602179055508260035f6101000a81548173ffffffffffffffffffffffffffffffffffffffff021916908373ffffffffffffffffffffffffffffffffffffffff1602179055508060045f6101000a81548173ffffffffffffffffffffffffffffffffffffffff021916908373ffffffffffffffffffffffffffffffffffffffff160217905550815f806101000a81548173ffffffffffffffffffffffffffffffffffffffff021916908373ffffffffffffffffffffffffffffffffffffffff160217905550505050505062000269565b5f80fd5b5f73ffffffffffffffffffffffffffffffffffffffff82169050919050565b5f620001af8262000184565b9050919050565b620001c181620001a3565b8114620001cc575f80fd5b50565b5f81519050620001df81620001b6565b92915050565b5f805f805f60a0868803121562000201576200020062000180565b5b5f6200021088828901620001cf565b95505060206200022388828901620001cf565b94505060406200023688828901620001cf565b93505060606200024988828901620001cf565b92505060806200025c88828901620001cf565b9150509295509295909350565b616e0180620002775f395ff3fe608060405234801561000f575f80fd5b5060043610610129575f3560e01c8063a0c57f2e116100ab578063ced2d1471161006f578063ced2d14714610400578063db33b4a51461041c578063ead8423d1461044c578063ead8ae081461047c578063f8bb7b80146104ae57610129565b8063a0c57f2e14610306578063a18aa9c314610338578063a7cfb0ed1461036a578063af035c231461039c578063b96f8e7e146103ce57610129565b80633cb324f4116100f25780633cb324f4146102235780635b36abfe146102565780637a79a4451461027257806393916295146102a45780639b2b2047146102d657610129565b8062420dfd1461012d5780630a7f252f1461015f5780631457400b14610191578063174fd702146101c157806320912e99146101f3575b5f80fd5b610147600480360381019061014291906143ac565b6104e0565b604051610156939291906147c4565b60405180910390f35b610179600480360381019061017491906143ac565b610714565b60405161018893929190614a02565b60405180910390f35b6101ab60048036038101906101a69190614a68565b610948565b6040516101b89190614bda565b60405180910390f35b6101db60048036038101906101d691906143ac565b610ad7565b6040516101ea939291906147c4565b60405180910390f35b61020d60048036038101906102089190614a68565b610d0b565b60405161021a9190614c14565b60405180910390f35b61023d600480360381019061023891906143ac565b610daf565b60405161024d9493929190614c2d565b60405180910390f35b610270600480360381019061026b9190614fbf565b6111d2565b005b61028c60048036038101906102879190615006565b611c6a565b60405161029b939291906147c4565b60405180910390f35b6102be60048036038101906102b99190615044565b611d1f565b6040516102cd93929190614a02565b60405180910390f35b6102f060048036038101906102eb9190614a68565b611f25565b6040516102fd9190615283565b60405180910390f35b610320600480360381019061031b9190615044565b6120b4565b60405161032f93929190614a02565b60405180910390f35b610352600480360381019061034d91906152a3565b6122ba565b604051610361939291906147c4565b60405180910390f35b610384600480360381019061037f9190615006565b6124fb565b60405161039393929190614a02565b60405180910390f35b6103b660048036038101906103b19190615044565b6125b0565b6040516103c5939291906147c4565b60405180910390f35b6103e860048036038101906103e391906152a3565b6127b6565b6040516103f793929190614a02565b60405180910390f35b61041a60048036038101906104159190615508565b6129f7565b005b61043660048036038101906104319190614a68565b613570565b6040516104439190614c14565b60405180910390f35b61046660048036038101906104619190614a68565b613614565b604051610473919061554f565b60405180910390f35b610496600480360381019061049191906143ac565b613a06565b6040516104a593929190614a02565b60405180910390f35b6104c860048036038101906104c39190615044565b613c3a565b6040516104d7939291906147c4565b60405180910390f35b60605f805f87876040516020016104f89291906155a2565b604051602081830303815290604052805190602001209050606060025f9054906101000a900473ffffffffffffffffffffffffffffffffffffffff1673ffffffffffffffffffffffffffffffffffffffff1663f87ff51b8389896040518463ffffffff1660e01b8152600401610570939291906155d4565b5f60405180830381865afa15801561058a573d5f803e3d5ffd5b505050506040513d5f823e3d601f19601f820116820180604052508101906105b291906156e1565b809550819650829350505050805167ffffffffffffffff8111156105d9576105d8614255565b5b60405190808252806020026020018201604052801561061257816020015b6105ff6140cf565b8152602001906001900390816105f75790505b5094505f5b81518110156107075760025f9054906101000a900473ffffffffffffffffffffffffffffffffffffffff1673ffffffffffffffffffffffffffffffffffffffff1663f6cffcc78383815181106106705761066f61574d565b5b60200260200101516040518263ffffffff1660e01b8152600401610694919061554f565b5f60405180830381865afa1580156106ae573d5f803e3d5ffd5b505050506040513d5f823e3d601f19601f820116820180604052508101906106d69190615b1f565b8682815181106106e9576106e861574d565b5b602002602001018190525080806106ff90615b93565b915050610617565b5050509450945094915050565b60605f805f878760405160200161072c9291906155a2565b604051602081830303815290604052805190602001209050606060015f9054906101000a900473ffffffffffffffffffffffffffffffffffffffff1673ffffffffffffffffffffffffffffffffffffffff1663b9c603838389896040518463ffffffff1660e01b81526004016107a4939291906155d4565b5f60405180830381865afa1580156107be573d5f803e3d5ffd5b505050506040513d5f823e3d601f19601f820116820180604052508101906107e691906156e1565b809550819650829350505050805167ffffffffffffffff81111561080d5761080c614255565b5b60405190808252806020026020018201604052801561084657816020015b61083361418f565b81526020019060019003908161082b5790505b5094505f5b815181101561093b5760015f9054906101000a900473ffffffffffffffffffffffffffffffffffffffff1673ffffffffffffffffffffffffffffffffffffffff1663f4497f428383815181106108a4576108a361574d565b5b60200260200101516040518263ffffffff1660e01b81526004016108c8919061554f565b5f60405180830381865afa1580156108e2573d5f803e3d5ffd5b505050506040513d5f823e3d601f19601f8201168201806040525081019061090a9190615def565b86828151811061091d5761091c61574d565b5b6020026020010181905250808061093390615b93565b91505061084b565b5050509450945094915050565b61095061418f565b8160015f9054906101000a900473ffffffffffffffffffffffffffffffffffffffff1673ffffffffffffffffffffffffffffffffffffffff1663873f93d4826040518263ffffffff1660e01b81526004016109ab9190615e36565b602060405180830381865afa1580156109c6573d5f803e3d5ffd5b505050506040513d601f19601f820116820180604052508101906109ea9190615e4f565b5f03610a2b576040517f08c379a0000000000000000000000000000000000000000000000000000000008152600401610a2290615ed4565b60405180910390fd5b60015f9054906101000a900473ffffffffffffffffffffffffffffffffffffffff1673ffffffffffffffffffffffffffffffffffffffff1663f4497f42610a7185613e40565b6040518263ffffffff1660e01b8152600401610a8d919061554f565b5f60405180830381865afa158015610aa7573d5f803e3d5ffd5b505050506040513d5f823e3d601f19601f82011682018060405250810190610acf9190615def565b915050919050565b60605f805f8787604051602001610aef9291906155a2565b604051602081830303815290604052805190602001209050606060025f9054906101000a900473ffffffffffffffffffffffffffffffffffffffff1673ffffffffffffffffffffffffffffffffffffffff16637652238c8389896040518463ffffffff1660e01b8152600401610b67939291906155d4565b5f60405180830381865afa158015610b81573d5f803e3d5ffd5b505050506040513d5f823e3d601f19601f82011682018060405250810190610ba991906156e1565b809550819650829350505050805167ffffffffffffffff811115610bd057610bcf614255565b5b604051908082528060200260200182016040528015610c0957816020015b610bf66140cf565b815260200190600190039081610bee5790505b5094505f5b8151811015610cfe5760025f9054906101000a900473ffffffffffffffffffffffffffffffffffffffff1673ffffffffffffffffffffffffffffffffffffffff1663f6cffcc7838381518110610c6757610c6661574d565b5b60200260200101516040518263ffffffff1660e01b8152600401610c8b919061554f565b5f60405180830381865afa158015610ca5573d5f803e3d5ffd5b505050506040513d5f823e3d601f19601f82011682018060405250810190610ccd9190615b1f565b868281518110610ce057610cdf61574d565b5b60200260200101819052508080610cf690615b93565b915050610c0e565b5050509450945094915050565b5f60015f9054906101000a900473ffffffffffffffffffffffffffffffffffffffff1673ffffffffffffffffffffffffffffffffffffffff1663873f93d4836040518263ffffffff1660e01b8152600401610d669190615e36565b602060405180830381865afa158015610d81573d5f803e3d5ffd5b505050506040513d601f19601f82011682018060405250810190610da59190615e4f565b5f14159050919050565b6060805f805f8888604051602001610dc89291906155a2565b604051602081830303815290604052805190602001209050606060015f9054906101000a900473ffffffffffffffffffffffffffffffffffffffff1673ffffffffffffffffffffffffffffffffffffffff166347fc4650838a8a6040518463ffffffff1660e01b8152600401610e40939291906155d4565b5f60405180830381865afa158015610e5a573d5f803e3d5ffd5b505050506040513d5f823e3d601f19601f82011682018060405250810190610e8291906156e1565b809550819650829350505050805167ffffffffffffffff811115610ea957610ea8614255565b5b604051908082528060200260200182016040528015610ee257816020015b610ecf61418f565b815260200190600190039081610ec75790505b509550805167ffffffffffffffff811115610f0057610eff614255565b5b604051908082528060200260200182016040528015610f3957816020015b610f266140cf565b815260200190600190039081610f1e5790505b5094505f5b81518110156111c457600160025f9054906101000a900473ffffffffffffffffffffffffffffffffffffffff1673ffffffffffffffffffffffffffffffffffffffff166377185a7985858581518110610f9a57610f9961574d565b5b60200260200101516040518363ffffffff1660e01b8152600401610fbf929190615ef2565b602060405180830381865afa158015610fda573d5f803e3d5ffd5b505050506040513d601f19601f82011682018060405250810190610ffe9190615e4f565b036110dc5760025f9054906101000a900473ffffffffffffffffffffffffffffffffffffffff1673ffffffffffffffffffffffffffffffffffffffff1663f6cffcc78383815181106110535761105261574d565b5b60200260200101516040518263ffffffff1660e01b8152600401611077919061554f565b5f60405180830381865afa158015611091573d5f803e3d5ffd5b505050506040513d5f823e3d601f19601f820116820180604052508101906110b99190615b1f565b8682815181106110cc576110cb61574d565b5b60200260200101819052506111b1565b60015f9054906101000a900473ffffffffffffffffffffffffffffffffffffffff1673ffffffffffffffffffffffffffffffffffffffff1663f4497f4283838151811061112c5761112b61574d565b5b60200260200101516040518263ffffffff1660e01b8152600401611150919061554f565b5f60405180830381865afa15801561116a573d5f803e3d5ffd5b505050506040513d5f823e3d601f19601f820116820180604052508101906111929190615def565b8782815181106111a5576111a461574d565b5b60200260200101819052505b80806111bc90615b93565b915050610f3e565b505050945094509450949050565b805f805f8054906101000a900473ffffffffffffffffffffffffffffffffffffffff1673ffffffffffffffffffffffffffffffffffffffff16338460800151604051602401611222929190615f90565b6040516020818303038152906040527f57c74183000000000000000000000000000000000000000000000000000000007bffffffffffffffffffffffffffffffffffffffffffffffffffffffff19166020820180517bffffffffffffffffffffffffffffffffffffffffffffffffffffffff83818316178352505050506040516112ac9190616002565b5f604051808303815f865af19150503d805f81146112e5576040519150601f19603f3d011682016040523d82523d5f602084013e6112ea565b606091505b50915091508161132f576040517f08c379a000000000000000000000000000000000000000000000000000000000815260040161132690616062565b60405180910390fd5b5f8180602001905181019061134491906160aa565b905080611386576040517f08c379a000000000000000000000000000000000000000000000000000000000815260040161137d9061616b565b60405180910390fd5b60035f9054906101000a900473ffffffffffffffffffffffffffffffffffffffff1673ffffffffffffffffffffffffffffffffffffffff16638eb3e50185602001516040518263ffffffff1660e01b81526004016113e49190615e36565b602060405180830381865afa1580156113ff573d5f803e3d5ffd5b505050506040513d601f19601f8201168201806040525081019061142391906160aa565b61142b575f80fd5b8360c001516040516020016114409190616189565b6040516020818303038152906040528051906020012060035f9054906101000a900473ffffffffffffffffffffffffffffffffffffffff1673ffffffffffffffffffffffffffffffffffffffff1663e15da4d986602001516040518263ffffffff1660e01b81526004016114b49190615e36565b5f60405180830381865afa1580156114ce573d5f803e3d5ffd5b505050506040513d5f823e3d601f19601f820116820180604052508101906114f6919061619f565b6040516020016115069190616189565b604051602081830303815290604052805190602001201461155c576040517f08c379a00000000000000000000000000000000000000000000000000000000081526004016115539061627c565b60405180910390fd5b5f60035f9054906101000a900473ffffffffffffffffffffffffffffffffffffffff1673ffffffffffffffffffffffffffffffffffffffff16630528204c86602001516040518263ffffffff1660e01b81526004016115bb9190615e36565b5f60405180830381865afa1580156115d5573d5f803e3d5ffd5b505050506040513d5f823e3d601f19601f820116820180604052508101906115fd919061619f565b905060045f9054906101000a900473ffffffffffffffffffffffffffffffffffffffff1673ffffffffffffffffffffffffffffffffffffffff1663c973233d828761012001516040518363ffffffff1660e01b815260040161166092919061629a565b602060405180830381865afa15801561167b573d5f803e3d5ffd5b505050506040513d601f19601f8201168201806040525081019061169f91906160aa565b6116de576040517f08c379a00000000000000000000000000000000000000000000000000000000081526004016116d59061633f565b60405180910390fd5b6116eb8560200151613614565b8561014001511115611732576040517f08c379a0000000000000000000000000000000000000000000000000000000008152600401611729906163f3565b60405180910390fd5b60035f9054906101000a900473ffffffffffffffffffffffffffffffffffffffff1673ffffffffffffffffffffffffffffffffffffffff1663fe530c3b86602001516040518263ffffffff1660e01b81526004016117909190615e36565b602060405180830381865afa1580156117ab573d5f803e3d5ffd5b505050506040513d601f19601f820116820180604052508101906117cf9190615e4f565b8561010001511115611816576040517f08c379a000000000000000000000000000000000000000000000000000000000815260040161180d9061645b565b60405180910390fd5b61181f86613eec565b5f60025f9054906101000a900473ffffffffffffffffffffffffffffffffffffffff1673ffffffffffffffffffffffffffffffffffffffff166361a1acec6040518163ffffffff1660e01b8152600401602060405180830381865afa15801561188a573d5f803e3d5ffd5b505050506040513d601f19601f820116820180604052508101906118ae9190615e4f565b905060025f9054906101000a900473ffffffffffffffffffffffffffffffffffffffff1673ffffffffffffffffffffffffffffffffffffffff166373302421885f01518360016118fe9190616479565b6040518363ffffffff1660e01b815260040161191b929190615ef2565b5f604051808303815f87803b158015611932575f80fd5b505af1158015611944573d5f803e3d5ffd5b5050505060025f9054906101000a900473ffffffffffffffffffffffffffffffffffffffff1673ffffffffffffffffffffffffffffffffffffffff1663b3a6bb0e6040518163ffffffff1660e01b81526004015f604051808303815f87803b1580156119ae575f80fd5b505af11580156119c0573d5f803e3d5ffd5b5050505060025f9054906101000a900473ffffffffffffffffffffffffffffffffffffffff1673ffffffffffffffffffffffffffffffffffffffff1663049763c982896040518363ffffffff1660e01b8152600401611a209291906164ac565b5f604051808303815f87803b158015611a37575f80fd5b505af1158015611a49573d5f803e3d5ffd5b5050505060025f9054906101000a900473ffffffffffffffffffffffffffffffffffffffff1673ffffffffffffffffffffffffffffffffffffffff16634d3415618860200151836040518363ffffffff1660e01b8152600401611aad929190615ef2565b5f604051808303815f87803b158015611ac4575f80fd5b505af1158015611ad6573d5f803e3d5ffd5b505050505f60035f9054906101000a900473ffffffffffffffffffffffffffffffffffffffff1673ffffffffffffffffffffffffffffffffffffffff1663103ead2089602001516040518263ffffffff1660e01b8152600401611b399190615e36565b5f60405180830381865afa158015611b53573d5f803e3d5ffd5b505050506040513d5f823e3d601f19601f82011682018060405250810190611b7b919061619f565b905060025f9054906101000a900473ffffffffffffffffffffffffffffffffffffffff1673ffffffffffffffffffffffffffffffffffffffff1663dfb7a2d68984846040518463ffffffff1660e01b8152600401611bdb939291906164da565b5f604051808303815f87803b158015611bf2575f80fd5b505af1158015611c04573d5f803e3d5ffd5b505050507f4919413a1b01fab1e9d86452708c2439805a2d78c3f58a2cd8a0110b451a9e9e885f015189602001518a604001518b606001518c608001518d60c00151604051611c589695949392919061651d565b60405180910390a15050505050505050565b60605f8060025f9054906101000a900473ffffffffffffffffffffffffffffffffffffffff1673ffffffffffffffffffffffffffffffffffffffff16637a79a44586866040518363ffffffff1660e01b8152600401611cca929190616598565b5f60405180830381865afa158015611ce4573d5f803e3d5ffd5b505050506040513d5f823e3d601f19601f82011682018060405250810190611d0c919061669d565b8093508194508295505050509250925092565b60605f80606060015f9054906101000a900473ffffffffffffffffffffffffffffffffffffffff1673ffffffffffffffffffffffffffffffffffffffff1663c3d1f5ba8888886040518463ffffffff1660e01b8152600401611d8393929190616709565b5f60405180830381865afa158015611d9d573d5f803e3d5ffd5b505050506040513d5f823e3d601f19601f82011682018060405250810190611dc591906156e1565b809450819550829350505050805167ffffffffffffffff811115611dec57611deb614255565b5b604051908082528060200260200182016040528015611e2557816020015b611e1261418f565b815260200190600190039081611e0a5790505b5093505f5b8151811015611f1a5760015f9054906101000a900473ffffffffffffffffffffffffffffffffffffffff1673ffffffffffffffffffffffffffffffffffffffff1663f4497f42838381518110611e8357611e8261574d565b5b60200260200101516040518263ffffffff1660e01b8152600401611ea7919061554f565b5f60405180830381865afa158015611ec1573d5f803e3d5ffd5b505050506040513d5f823e3d601f19601f82011682018060405250810190611ee99190615def565b858281518110611efc57611efb61574d565b5b60200260200101819052508080611f1290615b93565b915050611e2a565b505093509350939050565b611f2d6140cf565b8160025f9054906101000a900473ffffffffffffffffffffffffffffffffffffffff1673ffffffffffffffffffffffffffffffffffffffff1663e71e9539826040518263ffffffff1660e01b8152600401611f889190615e36565b602060405180830381865afa158015611fa3573d5f803e3d5ffd5b505050506040513d601f19601f82011682018060405250810190611fc79190615e4f565b5f03612008576040517f08c379a0000000000000000000000000000000000000000000000000000000008152600401611fff9061678f565b60405180910390fd5b60025f9054906101000a900473ffffffffffffffffffffffffffffffffffffffff1673ffffffffffffffffffffffffffffffffffffffff1663f6cffcc761204e85613f87565b6040518263ffffffff1660e01b815260040161206a919061554f565b5f60405180830381865afa158015612084573d5f803e3d5ffd5b505050506040513d5f823e3d601f19601f820116820180604052508101906120ac9190615b1f565b915050919050565b60605f80606060015f9054906101000a900473ffffffffffffffffffffffffffffffffffffffff1673ffffffffffffffffffffffffffffffffffffffff1663c3d1f5ba8888886040518463ffffffff1660e01b815260040161211893929190616709565b5f60405180830381865afa158015612132573d5f803e3d5ffd5b505050506040513d5f823e3d601f19601f8201168201806040525081019061215a91906156e1565b809450819550829350505050805167ffffffffffffffff81111561218157612180614255565b5b6040519080825280602002602001820160405280156121ba57816020015b6121a761418f565b81526020019060019003908161219f5790505b5093505f5b81518110156122af5760015f9054906101000a900473ffffffffffffffffffffffffffffffffffffffff1673ffffffffffffffffffffffffffffffffffffffff1663f4497f428383815181106122185761221761574d565b5b60200260200101516040518263ffffffff1660e01b815260040161223c919061554f565b5f60405180830381865afa158015612256573d5f803e3d5ffd5b505050506040513d5f823e3d601f19601f8201168201806040525081019061227e9190615def565b8582815181106122915761229061574d565b5b602002602001018190525080806122a790615b93565b9150506121bf565b505093509350939050565b60605f805f60025f9054906101000a900473ffffffffffffffffffffffffffffffffffffffff1673ffffffffffffffffffffffffffffffffffffffff1663cfc6e51c886040518263ffffffff1660e01b81526004016123199190615e36565b5f60405180830381865afa158015612333573d5f803e3d5ffd5b505050506040513d5f823e3d601f19601f8201168201806040525081019061235b91906167ad565b9050805186111561236b57805195505b5f868611612379578561237b565b865b90508067ffffffffffffffff81111561239757612396614255565b5b6040519080825280602002602001820160405280156123d057816020015b6123bd6140cf565b8152602001906001900390816123b55790505b5094505b5f8111156124e95780806123e7906167f4565b91505086806123f5906167f4565b97505060025f9054906101000a900473ffffffffffffffffffffffffffffffffffffffff1673ffffffffffffffffffffffffffffffffffffffff1663f6cffcc78389815181106124485761244761574d565b5b60200260200101516040518263ffffffff1660e01b815260040161246c919061554f565b5f60405180830381865afa158015612486573d5f803e3d5ffd5b505050506040513d5f823e3d601f19601f820116820180604052508101906124ae9190615b1f565b8560018388516124be919061681b565b6124c8919061681b565b815181106124d9576124d861574d565b5b60200260200101819052506123d4565b86935081519250505093509350939050565b60605f8060015f9054906101000a900473ffffffffffffffffffffffffffffffffffffffff1673ffffffffffffffffffffffffffffffffffffffff1663a7cfb0ed86866040518363ffffffff1660e01b815260040161255b929190616598565b5f60405180830381865afa158015612575573d5f803e3d5ffd5b505050506040513d5f823e3d601f19601f8201168201806040525081019061259d919061692c565b8093508194508295505050509250925092565b60605f80606060025f9054906101000a900473ffffffffffffffffffffffffffffffffffffffff1673ffffffffffffffffffffffffffffffffffffffff16637064dac78888886040518463ffffffff1660e01b815260040161261493929190616709565b5f60405180830381865afa15801561262e573d5f803e3d5ffd5b505050506040513d5f823e3d601f19601f8201168201806040525081019061265691906156e1565b809450819550829350505050805167ffffffffffffffff81111561267d5761267c614255565b5b6040519080825280602002602001820160405280156126b657816020015b6126a36140cf565b81526020019060019003908161269b5790505b5093505f5b81518110156127ab5760025f9054906101000a900473ffffffffffffffffffffffffffffffffffffffff1673ffffffffffffffffffffffffffffffffffffffff1663f6cffcc78383815181106127145761271361574d565b5b60200260200101516040518263ffffffff1660e01b8152600401612738919061554f565b5f60405180830381865afa158015612752573d5f803e3d5ffd5b505050506040513d5f823e3d601f19601f8201168201806040525081019061277a9190615b1f565b85828151811061278d5761278c61574d565b5b602002602001018190525080806127a390615b93565b9150506126bb565b505093509350939050565b60605f805f60015f9054906101000a900473ffffffffffffffffffffffffffffffffffffffff1673ffffffffffffffffffffffffffffffffffffffff16631b5de0e7886040518263ffffffff1660e01b81526004016128159190615e36565b5f60405180830381865afa15801561282f573d5f803e3d5ffd5b505050506040513d5f823e3d601f19601f8201168201806040525081019061285791906167ad565b9050805186111561286757805195505b5f8686116128755785612877565b865b90508067ffffffffffffffff81111561289357612892614255565b5b6040519080825280602002602001820160405280156128cc57816020015b6128b961418f565b8152602001906001900390816128b15790505b5094505b5f8111156129e55780806128e3906167f4565b91505086806128f1906167f4565b97505060015f9054906101000a900473ffffffffffffffffffffffffffffffffffffffff1673ffffffffffffffffffffffffffffffffffffffff1663f4497f428389815181106129445761294361574d565b5b60200260200101516040518263ffffffff1660e01b8152600401612968919061554f565b5f60405180830381865afa158015612982573d5f803e3d5ffd5b505050506040513d5f823e3d601f19601f820116820180604052508101906129aa9190615def565b8560018388516129ba919061681b565b6129c4919061681b565b815181106129d5576129d461574d565b5b60200260200101819052506128d0565b86935081519250505093509350939050565b805f805f8054906101000a900473ffffffffffffffffffffffffffffffffffffffff1673ffffffffffffffffffffffffffffffffffffffff16338460800151604051602401612a47929190615f90565b6040516020818303038152906040527f57c74183000000000000000000000000000000000000000000000000000000007bffffffffffffffffffffffffffffffffffffffffffffffffffffffff19166020820180517bffffffffffffffffffffffffffffffffffffffffffffffffffffffff8381831617835250505050604051612ad19190616002565b5f604051808303815f865af19150503d805f8114612b0a576040519150601f19603f3d011682016040523d82523d5f602084013e612b0f565b606091505b509150915081612b54576040517f08c379a0000000000000000000000000000000000000000000000000000000008152600401612b4b90616062565b60405180910390fd5b5f81806020019051810190612b6991906160aa565b905080612bab576040517f08c379a0000000000000000000000000000000000000000000000000000000008152600401612ba29061616b565b60405180910390fd5b60035f9054906101000a900473ffffffffffffffffffffffffffffffffffffffff1673ffffffffffffffffffffffffffffffffffffffff16638eb3e50185602001516040518263ffffffff1660e01b8152600401612c099190615e36565b602060405180830381865afa158015612c24573d5f803e3d5ffd5b505050506040513d601f19601f82011682018060405250810190612c4891906160aa565b612c87576040517f08c379a0000000000000000000000000000000000000000000000000000000008152600401612c7e906169e2565b60405180910390fd5b8360c00151604051602001612c9c9190616189565b6040516020818303038152906040528051906020012060035f9054906101000a900473ffffffffffffffffffffffffffffffffffffffff1673ffffffffffffffffffffffffffffffffffffffff1663e15da4d986602001516040518263ffffffff1660e01b8152600401612d109190615e36565b5f60405180830381865afa158015612d2a573d5f803e3d5ffd5b505050506040513d5f823e3d601f19601f82011682018060405250810190612d52919061619f565b604051602001612d629190616189565b6040516020818303038152906040528051906020012014612db8576040517f08c379a0000000000000000000000000000000000000000000000000000000008152600401612daf90616a96565b60405180910390fd5b5f60035f9054906101000a900473ffffffffffffffffffffffffffffffffffffffff1673ffffffffffffffffffffffffffffffffffffffff16630528204c86602001516040518263ffffffff1660e01b8152600401612e179190615e36565b5f60405180830381865afa158015612e31573d5f803e3d5ffd5b505050506040513d5f823e3d601f19601f82011682018060405250810190612e59919061619f565b905060045f9054906101000a900473ffffffffffffffffffffffffffffffffffffffff1673ffffffffffffffffffffffffffffffffffffffff1663c973233d828761012001516040518363ffffffff1660e01b8152600401612ebc92919061629a565b602060405180830381865afa158015612ed7573d5f803e3d5ffd5b505050506040513d601f19601f82011682018060405250810190612efb91906160aa565b612f3a576040517f08c379a0000000000000000000000000000000000000000000000000000000008152600401612f319061633f565b60405180910390fd5b612f478560200151613614565b8561014001511115612f8e576040517f08c379a0000000000000000000000000000000000000000000000000000000008152600401612f8590616b4a565b60405180910390fd5b60035f9054906101000a900473ffffffffffffffffffffffffffffffffffffffff1673ffffffffffffffffffffffffffffffffffffffff1663fe530c3b86602001516040518263ffffffff1660e01b8152600401612fec9190615e36565b602060405180830381865afa158015613007573d5f803e3d5ffd5b505050506040513d601f19601f8201168201806040525081019061302b9190615e4f565b8561010001511115613072576040517f08c379a00000000000000000000000000000000000000000000000000000000081526004016130699061645b565b60405180910390fd5b8561014001516130858760200151613614565b0361311c5760035f9054906101000a900473ffffffffffffffffffffffffffffffffffffffff1673ffffffffffffffffffffffffffffffffffffffff166307e738af8760c0015188602001516040518363ffffffff1660e01b81526004016130ee929190616b68565b5f604051808303815f87803b158015613105575f80fd5b505af1158015613117573d5f803e3d5ffd5b505050505b61312586614034565b5f60015f9054906101000a900473ffffffffffffffffffffffffffffffffffffffff1673ffffffffffffffffffffffffffffffffffffffff1663d5e9f1626040518163ffffffff1660e01b8152600401602060405180830381865afa158015613190573d5f803e3d5ffd5b505050506040513d601f19601f820116820180604052508101906131b49190615e4f565b905060015f9054906101000a900473ffffffffffffffffffffffffffffffffffffffff1673ffffffffffffffffffffffffffffffffffffffff1663ab7a7939885f01518360016132049190616479565b6040518363ffffffff1660e01b8152600401613221929190615ef2565b5f604051808303815f87803b158015613238575f80fd5b505af115801561324a573d5f803e3d5ffd5b5050505060015f9054906101000a900473ffffffffffffffffffffffffffffffffffffffff1673ffffffffffffffffffffffffffffffffffffffff1663f9e23b436040518163ffffffff1660e01b81526004015f604051808303815f87803b1580156132b4575f80fd5b505af11580156132c6573d5f803e3d5ffd5b5050505060015f9054906101000a900473ffffffffffffffffffffffffffffffffffffffff1673ffffffffffffffffffffffffffffffffffffffff1663ff313a7782896040518363ffffffff1660e01b8152600401613326929190616b96565b5f604051808303815f87803b15801561333d575f80fd5b505af115801561334f573d5f803e3d5ffd5b5050505060015f9054906101000a900473ffffffffffffffffffffffffffffffffffffffff1673ffffffffffffffffffffffffffffffffffffffff16630f47627d8860200151836040518363ffffffff1660e01b81526004016133b3929190615ef2565b5f604051808303815f87803b1580156133ca575f80fd5b505af11580156133dc573d5f803e3d5ffd5b505050505f60035f9054906101000a900473ffffffffffffffffffffffffffffffffffffffff1673ffffffffffffffffffffffffffffffffffffffff1663103ead2089602001516040518263ffffffff1660e01b815260040161343f9190615e36565b5f60405180830381865afa158015613459573d5f803e3d5ffd5b505050506040513d5f823e3d601f19601f82011682018060405250810190613481919061619f565b905060015f9054906101000a900473ffffffffffffffffffffffffffffffffffffffff1673ffffffffffffffffffffffffffffffffffffffff1663bd8b2e548984846040518463ffffffff1660e01b81526004016134e193929190616bc4565b5f604051808303815f87803b1580156134f8575f80fd5b505af115801561350a573d5f803e3d5ffd5b505050507ffd58be58c100f1e30076231e17e41e3b95118c140536813cc8ca1764e39c5bf0885f015189602001518a604001518b606001518c608001518d60c0015160405161355e9695949392919061651d565b60405180910390a15050505050505050565b5f60025f9054906101000a900473ffffffffffffffffffffffffffffffffffffffff1673ffffffffffffffffffffffffffffffffffffffff1663e71e9539836040518263ffffffff1660e01b81526004016135cb9190615e36565b602060405180830381865afa1580156135e6573d5f803e3d5ffd5b505050506040513d601f19601f8201168201806040525081019061360a9190615e4f565b5f14159050919050565b5f8060015f9054906101000a900473ffffffffffffffffffffffffffffffffffffffff1673ffffffffffffffffffffffffffffffffffffffff16631b5de0e7846040518263ffffffff1660e01b81526004016136709190615e36565b5f60405180830381865afa15801561368a573d5f803e3d5ffd5b505050506040513d5f823e3d601f19601f820116820180604052508101906136b291906167ad565b90505f60025f9054906101000a900473ffffffffffffffffffffffffffffffffffffffff1673ffffffffffffffffffffffffffffffffffffffff1663cfc6e51c856040518263ffffffff1660e01b815260040161370f9190615e36565b5f60405180830381865afa158015613729573d5f803e3d5ffd5b505050506040513d5f823e3d601f19601f8201168201806040525081019061375191906167ad565b90505f805b83518110156138325760015f9054906101000a900473ffffffffffffffffffffffffffffffffffffffff1673ffffffffffffffffffffffffffffffffffffffff16634734bacc8583815181106137af576137ae61574d565b5b60200260200101516040518263ffffffff1660e01b81526004016137d3919061554f565b602060405180830381865afa1580156137ee573d5f803e3d5ffd5b505050506040513d601f19601f820116820180604052508101906138129190615e4f565b8261381d9190616479565b9150808061382a90615b93565b915050613756565b505f5b82518110156139105760025f9054906101000a900473ffffffffffffffffffffffffffffffffffffffff1673ffffffffffffffffffffffffffffffffffffffff166223679084838151811061388d5761388c61574d565b5b60200260200101516040518263ffffffff1660e01b81526004016138b1919061554f565b602060405180830381865afa1580156138cc573d5f803e3d5ffd5b505050506040513d601f19601f820116820180604052508101906138f09190615e4f565b826138fb9190616479565b9150808061390890615b93565b915050613835565b505f60035f9054906101000a900473ffffffffffffffffffffffffffffffffffffffff1673ffffffffffffffffffffffffffffffffffffffff16632026a41e876040518263ffffffff1660e01b815260040161396c9190615e36565b602060405180830381865afa158015613987573d5f803e3d5ffd5b505050506040513d601f19601f820116820180604052508101906139ab9190615e4f565b90508082106139ef576040517f08c379a00000000000000000000000000000000000000000000000000000000081526004016139e690616c77565b60405180910390fd5b81816139fb919061681b565b945050505050919050565b60605f805f8787604051602001613a1e9291906155a2565b604051602081830303815290604052805190602001209050606060015f9054906101000a900473ffffffffffffffffffffffffffffffffffffffff1673ffffffffffffffffffffffffffffffffffffffff1663f8516aa98389896040518463ffffffff1660e01b8152600401613a96939291906155d4565b5f60405180830381865afa158015613ab0573d5f803e3d5ffd5b505050506040513d5f823e3d601f19601f82011682018060405250810190613ad891906156e1565b809550819650829350505050805167ffffffffffffffff811115613aff57613afe614255565b5b604051908082528060200260200182016040528015613b3857816020015b613b2561418f565b815260200190600190039081613b1d5790505b5094505f5b8151811015613c2d5760015f9054906101000a900473ffffffffffffffffffffffffffffffffffffffff1673ffffffffffffffffffffffffffffffffffffffff1663f4497f42838381518110613b9657613b9561574d565b5b60200260200101516040518263ffffffff1660e01b8152600401613bba919061554f565b5f60405180830381865afa158015613bd4573d5f803e3d5ffd5b505050506040513d5f823e3d601f19601f82011682018060405250810190613bfc9190615def565b868281518110613c0f57613c0e61574d565b5b60200260200101819052508080613c2590615b93565b915050613b3d565b5050509450945094915050565b60605f80606060025f9054906101000a900473ffffffffffffffffffffffffffffffffffffffff1673ffffffffffffffffffffffffffffffffffffffff16637064dac78888886040518463ffffffff1660e01b8152600401613c9e93929190616709565b5f60405180830381865afa158015613cb8573d5f803e3d5ffd5b505050506040513d5f823e3d601f19601f82011682018060405250810190613ce091906156e1565b809450819550829350505050805167ffffffffffffffff811115613d0757613d06614255565b5b604051908082528060200260200182016040528015613d4057816020015b613d2d6140cf565b815260200190600190039081613d255790505b5093505f5b8151811015613e355760025f9054906101000a900473ffffffffffffffffffffffffffffffffffffffff1673ffffffffffffffffffffffffffffffffffffffff1663f6cffcc7838381518110613d9e57613d9d61574d565b5b60200260200101516040518263ffffffff1660e01b8152600401613dc2919061554f565b5f60405180830381865afa158015613ddc573d5f803e3d5ffd5b505050506040513d5f823e3d601f19601f82011682018060405250810190613e049190615b1f565b858281518110613e1757613e1661574d565b5b60200260200101819052508080613e2d90615b93565b915050613d45565b505093509350939050565b5f6001805f9054906101000a900473ffffffffffffffffffffffffffffffffffffffff1673ffffffffffffffffffffffffffffffffffffffff1663873f93d4846040518263ffffffff1660e01b8152600401613e9c9190615e36565b602060405180830381865afa158015613eb7573d5f803e3d5ffd5b505050506040513d601f19601f82011682018060405250810190613edb9190615e4f565b613ee5919061681b565b9050919050565b8060200151816040015182608001518360a001518460c00151856101400151866101600151876102000151604051602001613f2e989796959493929190616cd5565b60405160208183030381529060405280519060200120815f019077ffffffffffffffffffffffffffffffffffffffffffffffff1916908177ffffffffffffffffffffffffffffffffffffffffffffffff19168152505050565b5f600160025f9054906101000a900473ffffffffffffffffffffffffffffffffffffffff1673ffffffffffffffffffffffffffffffffffffffff1663e71e9539846040518263ffffffff1660e01b8152600401613fe49190615e36565b602060405180830381865afa158015613fff573d5f803e3d5ffd5b505050506040513d601f19601f820116820180604052508101906140239190615e4f565b61402d919061681b565b9050919050565b8060200151816040015182608001518360a001518460c00151856101000151866101400151876101600151604051602001614076989796959493929190616d4e565b60405160208183030381529060405280519060200120815f019077ffffffffffffffffffffffffffffffffffffffffffffffff1916908177ffffffffffffffffffffffffffffffffffffffffffffffff19168152505050565b6040518061024001604052805f77ffffffffffffffffffffffffffffffffffffffffffffffff191681526020015f77ffffffffffffffffffffffffffffffffffffffffffffffff191681526020016060815260200160608152602001606081526020016060815260200160608152602001606081526020015f8152602001606081526020015f81526020016060815260200160608152602001606081526020016060815260200160608152602001606081526020015f61ffff1681525090565b604051806101a001604052805f77ffffffffffffffffffffffffffffffffffffffffffffffff191681526020015f77ffffffffffffffffffffffffffffffffffffffffffffffff191681526020016060815260200160608152602001606081526020016060815260200160608152602001606081526020015f8152602001606081526020015f8152602001606081526020015f61ffff1681525090565b5f604051905090565b5f80fd5b5f80fd5b5f80fd5b5f80fd5b5f601f19601f8301169050919050565b7f4e487b71000000000000000000000000000000000000000000000000000000005f52604160045260245ffd5b61428b82614245565b810181811067ffffffffffffffff821117156142aa576142a9614255565b5b80604052505050565b5f6142bc61422c565b90506142c88282614282565b919050565b5f67ffffffffffffffff8211156142e7576142e6614255565b5b6142f082614245565b9050602081019050919050565b828183375f83830152505050565b5f61431d614318846142cd565b6142b3565b90508281526020810184848401111561433957614338614241565b5b6143448482856142fd565b509392505050565b5f82601f8301126143605761435f61423d565b5b813561437084826020860161430b565b91505092915050565b5f819050919050565b61438b81614379565b8114614395575f80fd5b50565b5f813590506143a681614382565b92915050565b5f805f80608085870312156143c4576143c3614235565b5b5f85013567ffffffffffffffff8111156143e1576143e0614239565b5b6143ed8782880161434c565b945050602085013567ffffffffffffffff81111561440e5761440d614239565b5b61441a8782880161434c565b935050604061442b87828801614398565b925050606061443c87828801614398565b91505092959194509250565b5f81519050919050565b5f82825260208201905092915050565b5f819050602082019050919050565b5f7fffffffffffffffff00000000000000000000000000000000000000000000000082169050919050565b6144a581614471565b82525050565b5f81519050919050565b5f82825260208201905092915050565b5f5b838110156144e25780820151818401526020810190506144c7565b5f8484015250505050565b5f6144f7826144ab565b61450181856144b5565b93506145118185602086016144c5565b61451a81614245565b840191505092915050565b61452e81614379565b82525050565b5f61ffff82169050919050565b61454a81614534565b82525050565b5f61024083015f8301516145665f86018261449c565b506020830151614579602086018261449c565b506040830151848203604086015261459182826144ed565b915050606083015184820360608601526145ab82826144ed565b915050608083015184820360808601526145c582826144ed565b91505060a083015184820360a08601526145df82826144ed565b91505060c083015184820360c08601526145f982826144ed565b91505060e083015184820360e086015261461382826144ed565b91505061010083015161462a610100860182614525565b5061012083015184820361012086015261464482826144ed565b91505061014083015161465b610140860182614525565b5061016083015184820361016086015261467582826144ed565b91505061018083015184820361018086015261469182826144ed565b9150506101a08301518482036101a08601526146ad82826144ed565b9150506101c08301518482036101c08601526146c982826144ed565b9150506101e08301518482036101e08601526146e582826144ed565b91505061020083015184820361020086015261470182826144ed565b915050610220830151614718610220860182614541565b508091505092915050565b5f61472e8383614550565b905092915050565b5f602082019050919050565b5f61474c82614448565b6147568185614452565b93508360208202850161476885614462565b805f5b858110156147a357848403895281516147848582614723565b945061478f83614736565b925060208a0199505060018101905061476b565b50829750879550505050505092915050565b6147be81614379565b82525050565b5f6060820190508181035f8301526147dc8186614742565b90506147eb60208301856147b5565b6147f860408301846147b5565b949350505050565b5f81519050919050565b5f82825260208201905092915050565b5f819050602082019050919050565b5f6101a083015f83015161483f5f86018261449c565b506020830151614852602086018261449c565b506040830151848203604086015261486a82826144ed565b9150506060830151848203606086015261488482826144ed565b9150506080830151848203608086015261489e82826144ed565b91505060a083015184820360a08601526148b882826144ed565b91505060c083015184820360c08601526148d282826144ed565b91505060e083015184820360e08601526148ec82826144ed565b915050610100830151614903610100860182614525565b5061012083015184820361012086015261491d82826144ed565b915050610140830151614934610140860182614525565b5061016083015184820361016086015261494e82826144ed565b915050610180830151614965610180860182614541565b508091505092915050565b5f61497b8383614829565b905092915050565b5f602082019050919050565b5f61499982614800565b6149a3818561480a565b9350836020820285016149b58561481a565b805f5b858110156149f057848403895281516149d18582614970565b94506149dc83614983565b925060208a019950506001810190506149b8565b50829750879550505050505092915050565b5f6060820190508181035f830152614a1a818661498f565b9050614a2960208301856147b5565b614a3660408301846147b5565b949350505050565b614a4781614471565b8114614a51575f80fd5b50565b5f81359050614a6281614a3e565b92915050565b5f60208284031215614a7d57614a7c614235565b5b5f614a8a84828501614a54565b91505092915050565b5f6101a083015f830151614aa95f86018261449c565b506020830151614abc602086018261449c565b5060408301518482036040860152614ad482826144ed565b91505060608301518482036060860152614aee82826144ed565b91505060808301518482036080860152614b0882826144ed565b91505060a083015184820360a0860152614b2282826144ed565b91505060c083015184820360c0860152614b3c82826144ed565b91505060e083015184820360e0860152614b5682826144ed565b915050610100830151614b6d610100860182614525565b50610120830151848203610120860152614b8782826144ed565b915050610140830151614b9e610140860182614525565b50610160830151848203610160860152614bb882826144ed565b915050610180830151614bcf610180860182614541565b508091505092915050565b5f6020820190508181035f830152614bf28184614a93565b905092915050565b5f8115159050919050565b614c0e81614bfa565b82525050565b5f602082019050614c275f830184614c05565b92915050565b5f6080820190508181035f830152614c45818761498f565b90508181036020830152614c598186614742565b9050614c6860408301856147b5565b614c7560608301846147b5565b95945050505050565b5f80fd5b5f80fd5b614c8f81614534565b8114614c99575f80fd5b50565b5f81359050614caa81614c86565b92915050565b5f6102408284031215614cc657614cc5614c7e565b5b614cd16102406142b3565b90505f614ce084828501614a54565b5f830152506020614cf384828501614a54565b602083015250604082013567ffffffffffffffff811115614d1757614d16614c82565b5b614d238482850161434c565b604083015250606082013567ffffffffffffffff811115614d4757614d46614c82565b5b614d538482850161434c565b606083015250608082013567ffffffffffffffff811115614d7757614d76614c82565b5b614d838482850161434c565b60808301525060a082013567ffffffffffffffff811115614da757614da6614c82565b5b614db38482850161434c565b60a08301525060c082013567ffffffffffffffff811115614dd757614dd6614c82565b5b614de38482850161434c565b60c08301525060e082013567ffffffffffffffff811115614e0757614e06614c82565b5b614e138482850161434c565b60e083015250610100614e2884828501614398565b6101008301525061012082013567ffffffffffffffff811115614e4e57614e4d614c82565b5b614e5a8482850161434c565b61012083015250610140614e7084828501614398565b6101408301525061016082013567ffffffffffffffff811115614e9657614e95614c82565b5b614ea28482850161434c565b6101608301525061018082013567ffffffffffffffff811115614ec857614ec7614c82565b5b614ed48482850161434c565b610180830152506101a082013567ffffffffffffffff811115614efa57614ef9614c82565b5b614f068482850161434c565b6101a0830152506101c082013567ffffffffffffffff811115614f2c57614f2b614c82565b5b614f388482850161434c565b6101c0830152506101e082013567ffffffffffffffff811115614f5e57614f5d614c82565b5b614f6a8482850161434c565b6101e08301525061020082013567ffffffffffffffff811115614f9057614f8f614c82565b5b614f9c8482850161434c565b61020083015250610220614fb284828501614c9c565b6102208301525092915050565b5f60208284031215614fd457614fd3614235565b5b5f82013567ffffffffffffffff811115614ff157614ff0614239565b5b614ffd84828501614cb0565b91505092915050565b5f806040838503121561501c5761501b614235565b5b5f61502985828601614398565b925050602061503a85828601614398565b9150509250929050565b5f805f6060848603121561505b5761505a614235565b5b5f84013567ffffffffffffffff81111561507857615077614239565b5b6150848682870161434c565b935050602061509586828701614398565b92505060406150a686828701614398565b9150509250925092565b5f61024083015f8301516150c65f86018261449c565b5060208301516150d9602086018261449c565b50604083015184820360408601526150f182826144ed565b9150506060830151848203606086015261510b82826144ed565b9150506080830151848203608086015261512582826144ed565b91505060a083015184820360a086015261513f82826144ed565b91505060c083015184820360c086015261515982826144ed565b91505060e083015184820360e086015261517382826144ed565b91505061010083015161518a610100860182614525565b506101208301518482036101208601526151a482826144ed565b9150506101408301516151bb610140860182614525565b506101608301518482036101608601526151d582826144ed565b9150506101808301518482036101808601526151f182826144ed565b9150506101a08301518482036101a086015261520d82826144ed565b9150506101c08301518482036101c086015261522982826144ed565b9150506101e08301518482036101e086015261524582826144ed565b91505061020083015184820361020086015261526182826144ed565b915050610220830151615278610220860182614541565b508091505092915050565b5f6020820190508181035f83015261529b81846150b0565b905092915050565b5f805f606084860312156152ba576152b9614235565b5b5f6152c786828701614a54565b93505060206152d886828701614398565b92505060406152e986828701614398565b9150509250925092565b5f6101a0828403121561530957615308614c7e565b5b6153146101a06142b3565b90505f61532384828501614a54565b5f83015250602061533684828501614a54565b602083015250604082013567ffffffffffffffff81111561535a57615359614c82565b5b6153668482850161434c565b604083015250606082013567ffffffffffffffff81111561538a57615389614c82565b5b6153968482850161434c565b606083015250608082013567ffffffffffffffff8111156153ba576153b9614c82565b5b6153c68482850161434c565b60808301525060a082013567ffffffffffffffff8111156153ea576153e9614c82565b5b6153f68482850161434c565b60a08301525060c082013567ffffffffffffffff81111561541a57615419614c82565b5b6154268482850161434c565b60c08301525060e082013567ffffffffffffffff81111561544a57615449614c82565b5b6154568482850161434c565b60e08301525061010061546b84828501614398565b6101008301525061012082013567ffffffffffffffff81111561549157615490614c82565b5b61549d8482850161434c565b610120830152506101406154b384828501614398565b6101408301525061016082013567ffffffffffffffff8111156154d9576154d8614c82565b5b6154e58482850161434c565b610160830152506101806154fb84828501614c9c565b6101808301525092915050565b5f6020828403121561551d5761551c614235565b5b5f82013567ffffffffffffffff81111561553a57615539614239565b5b615546848285016152f3565b91505092915050565b5f6020820190506155625f8301846147b5565b92915050565b5f81905092915050565b5f61557c826144ab565b6155868185615568565b93506155968185602086016144c5565b80840191505092915050565b5f6155ad8285615572565b91506155b98284615572565b91508190509392505050565b6155ce81614471565b82525050565b5f6060820190506155e75f8301866155c5565b6155f460208301856147b5565b61560160408301846147b5565b949350505050565b5f67ffffffffffffffff82111561562357615622614255565b5b602082029050602081019050919050565b5f80fd5b5f8151905061564681614382565b92915050565b5f61565e61565984615609565b6142b3565b9050808382526020820190506020840283018581111561568157615680615634565b5b835b818110156156aa57806156968882615638565b845260208401935050602081019050615683565b5050509392505050565b5f82601f8301126156c8576156c761423d565b5b81516156d884826020860161564c565b91505092915050565b5f805f606084860312156156f8576156f7614235565b5b5f84015167ffffffffffffffff81111561571557615714614239565b5b615721868287016156b4565b935050602061573286828701615638565b925050604061574386828701615638565b9150509250925092565b7f4e487b71000000000000000000000000000000000000000000000000000000005f52603260045260245ffd5b5f8151905061578881614a3e565b92915050565b5f6157a061579b846142cd565b6142b3565b9050828152602081018484840111156157bc576157bb614241565b5b6157c78482856144c5565b509392505050565b5f82601f8301126157e3576157e261423d565b5b81516157f384826020860161578e565b91505092915050565b5f8151905061580a81614c86565b92915050565b5f610240828403121561582657615825614c7e565b5b6158316102406142b3565b90505f6158408482850161577a565b5f8301525060206158538482850161577a565b602083015250604082015167ffffffffffffffff81111561587757615876614c82565b5b615883848285016157cf565b604083015250606082015167ffffffffffffffff8111156158a7576158a6614c82565b5b6158b3848285016157cf565b606083015250608082015167ffffffffffffffff8111156158d7576158d6614c82565b5b6158e3848285016157cf565b60808301525060a082015167ffffffffffffffff81111561590757615906614c82565b5b615913848285016157cf565b60a08301525060c082015167ffffffffffffffff81111561593757615936614c82565b5b615943848285016157cf565b60c08301525060e082015167ffffffffffffffff81111561596757615966614c82565b5b615973848285016157cf565b60e08301525061010061598884828501615638565b6101008301525061012082015167ffffffffffffffff8111156159ae576159ad614c82565b5b6159ba848285016157cf565b610120830152506101406159d084828501615638565b6101408301525061016082015167ffffffffffffffff8111156159f6576159f5614c82565b5b615a02848285016157cf565b6101608301525061018082015167ffffffffffffffff811115615a2857615a27614c82565b5b615a34848285016157cf565b610180830152506101a082015167ffffffffffffffff811115615a5a57615a59614c82565b5b615a66848285016157cf565b6101a0830152506101c082015167ffffffffffffffff811115615a8c57615a8b614c82565b5b615a98848285016157cf565b6101c0830152506101e082015167ffffffffffffffff811115615abe57615abd614c82565b5b615aca848285016157cf565b6101e08301525061020082015167ffffffffffffffff811115615af057615aef614c82565b5b615afc848285016157cf565b61020083015250610220615b12848285016157fc565b6102208301525092915050565b5f60208284031215615b3457615b33614235565b5b5f82015167ffffffffffffffff811115615b5157615b50614239565b5b615b5d84828501615810565b91505092915050565b7f4e487b71000000000000000000000000000000000000000000000000000000005f52601160045260245ffd5b5f615b9d82614379565b91507fffffffffffffffffffffffffffffffffffffffffffffffffffffffffffffffff8203615bcf57615bce615b66565b5b600182019050919050565b5f6101a08284031215615bf057615bef614c7e565b5b615bfb6101a06142b3565b90505f615c0a8482850161577a565b5f830152506020615c1d8482850161577a565b602083015250604082015167ffffffffffffffff811115615c4157615c40614c82565b5b615c4d848285016157cf565b604083015250606082015167ffffffffffffffff811115615c7157615c70614c82565b5b615c7d848285016157cf565b606083015250608082015167ffffffffffffffff811115615ca157615ca0614c82565b5b615cad848285016157cf565b60808301525060a082015167ffffffffffffffff811115615cd157615cd0614c82565b5b615cdd848285016157cf565b60a08301525060c082015167ffffffffffffffff811115615d0157615d00614c82565b5b615d0d848285016157cf565b60c08301525060e082015167ffffffffffffffff811115615d3157615d30614c82565b5b615d3d848285016157cf565b60e083015250610100615d5284828501615638565b6101008301525061012082015167ffffffffffffffff811115615d7857615d77614c82565b5b615d84848285016157cf565b61012083015250610140615d9a84828501615638565b6101408301525061016082015167ffffffffffffffff811115615dc057615dbf614c82565b5b615dcc848285016157cf565b61016083015250610180615de2848285016157fc565b6101808301525092915050565b5f60208284031215615e0457615e03614235565b5b5f82015167ffffffffffffffff811115615e2157615e20614239565b5b615e2d84828501615bda565b91505092915050565b5f602082019050615e495f8301846155c5565b92915050565b5f60208284031215615e6457615e63614235565b5b5f615e7184828501615638565b91505092915050565b5f82825260208201905092915050565b7f42472052656c6561736520646f6573206e6f74206578697374000000000000005f82015250565b5f615ebe601983615e7a565b9150615ec982615e8a565b602082019050919050565b5f6020820190508181035f830152615eeb81615eb2565b9050919050565b5f604082019050615f055f8301856155c5565b615f1260208301846147b5565b9392505050565b5f73ffffffffffffffffffffffffffffffffffffffff82169050919050565b5f615f4282615f19565b9050919050565b615f5281615f38565b82525050565b5f615f62826144ab565b615f6c8185615e7a565b9350615f7c8185602086016144c5565b615f8581614245565b840191505092915050565b5f604082019050615fa35f830185615f49565b8181036020830152615fb58184615f58565b90509392505050565b5f81519050919050565b5f81905092915050565b5f615fdc82615fbe565b615fe68185615fc8565b9350615ff68185602086016144c5565b80840191505092915050565b5f61600d8284615fd2565b915081905092915050565b7f7065726d697373696f6e732063616c6c206661696c65640000000000000000005f82015250565b5f61604c601783615e7a565b915061605782616018565b602082019050919050565b5f6020820190508181035f83015261607981616040565b9050919050565b61608981614bfa565b8114616093575f80fd5b50565b5f815190506160a481616080565b92915050565b5f602082840312156160bf576160be614235565b5b5f6160cc84828501616096565b91505092915050565b7f6163636f756e7420646f6573206e6f7420657869737473206f722065786973745f8201527f732062757420646f65736e27742062656c6f6e6720746f20706173736564206560208201527f67702073797374656d2069640000000000000000000000000000000000000000604082015250565b5f616155604c83615e7a565b9150616160826160d5565b606082019050919050565b5f6020820190508181035f83015261618281616149565b9050919050565b5f6161948284615572565b915081905092915050565b5f602082840312156161b4576161b3614235565b5b5f82015167ffffffffffffffff8111156161d1576161d0614239565b5b6161dd848285016157cf565b91505092915050565b7f496e766f6b6520726571756573742063616e206265206d616465206f6e6c79205f8201527f746f207468652042616e6b2077686f20686164207375626d697474656420746860208201527f652042616e6b2047756172616e74656500000000000000000000000000000000604082015250565b5f616266605083615e7a565b9150616271826161e6565b606082019050919050565b5f6020820190508181035f8301526162938161625a565b9050919050565b5f6040820190508181035f8301526162b28185615f58565b905081810360208301526162c68184615f58565b90509392505050565b7f43757272656e637920646f65736e2774206d61746368206173207065722074685f8201527f652042616e6b2047756172616e74656500000000000000000000000000000000602082015250565b5f616329603083615e7a565b9150616334826162cf565b604082019050919050565b5f6020820190508181035f8301526163568161631d565b9050919050565b7f54686520616d6f756e742072657175657374656420746f20626520496e766f6b5f8201527f6564206973206d6f7265207468616e207468652042616c616e636520616d6f7560208201527f6e74000000000000000000000000000000000000000000000000000000000000604082015250565b5f6163dd604283615e7a565b91506163e88261635d565b606082019050919050565b5f6020820190508181035f83015261640a816163d1565b9050919050565b7f5468652042616e6b2047756172616e74656520686173206578706972656400005f82015250565b5f616445601e83615e7a565b915061645082616411565b602082019050919050565b5f6020820190508181035f83015261647281616439565b9050919050565b5f61648382614379565b915061648e83614379565b92508282019050808211156164a6576164a5615b66565b5b92915050565b5f6040820190506164bf5f8301856147b5565b81810360208301526164d181846150b0565b90509392505050565b5f6060820190508181035f8301526164f281866150b0565b905061650160208301856147b5565b81810360408301526165138184615f58565b9050949350505050565b5f60c0820190506165305f8301896155c5565b61653d60208301886155c5565b818103604083015261654f8187615f58565b905081810360608301526165638186615f58565b905081810360808301526165778185615f58565b905081810360a083015261658b8184615f58565b9050979650505050505050565b5f6040820190506165ab5f8301856147b5565b6165b860208301846147b5565b9392505050565b5f67ffffffffffffffff8211156165d9576165d8614255565b5b602082029050602081019050919050565b5f6165fc6165f7846165bf565b6142b3565b9050808382526020820190506020840283018581111561661f5761661e615634565b5b835b8181101561666657805167ffffffffffffffff8111156166445761664361423d565b5b8086016166518982615810565b85526020850194505050602081019050616621565b5050509392505050565b5f82601f8301126166845761668361423d565b5b81516166948482602086016165ea565b91505092915050565b5f805f606084860312156166b4576166b3614235565b5b5f84015167ffffffffffffffff8111156166d1576166d0614239565b5b6166dd86828701616670565b93505060206166ee86828701615638565b92505060406166ff86828701615638565b9150509250925092565b5f6060820190508181035f8301526167218186615f58565b905061673060208301856147b5565b61673d60408301846147b5565b949350505050565b7f424720496e766f6b6520646f6573206e6f7420657869737400000000000000005f82015250565b5f616779601883615e7a565b915061678482616745565b602082019050919050565b5f6020820190508181035f8301526167a68161676d565b9050919050565b5f602082840312156167c2576167c1614235565b5b5f82015167ffffffffffffffff8111156167df576167de614239565b5b6167eb848285016156b4565b91505092915050565b5f6167fe82614379565b91505f82036168105761680f615b66565b5b600182039050919050565b5f61682582614379565b915061683083614379565b925082820390508181111561684857616847615b66565b5b92915050565b5f67ffffffffffffffff82111561686857616867614255565b5b602082029050602081019050919050565b5f61688b6168868461684e565b6142b3565b905080838252602082019050602084028301858111156168ae576168ad615634565b5b835b818110156168f557805167ffffffffffffffff8111156168d3576168d261423d565b5b8086016168e08982615bda565b855260208501945050506020810190506168b0565b5050509392505050565b5f82601f8301126169135761691261423d565b5b8151616923848260208601616879565b91505092915050565b5f805f6060848603121561694357616942614235565b5b5f84015167ffffffffffffffff8111156169605761695f614239565b5b61696c868287016168ff565b935050602061697d86828701615638565b925050604061698e86828701615638565b9150509250925092565b7f42616e6b20677572616e74656520646f65736e277420657869737400000000005f82015250565b5f6169cc601b83615e7a565b91506169d782616998565b602082019050919050565b5f6020820190508181035f8301526169f9816169c0565b9050919050565b7f52656c6561736520726571756573742063616e206265206d616465206f6e6c795f8201527f20746f207468652042616e6b2077686f20686164207375626d6974746564207460208201527f68652042616e6b2047756172616e746565000000000000000000000000000000604082015250565b5f616a80605183615e7a565b9150616a8b82616a00565b606082019050919050565b5f6020820190508181035f830152616aad81616a74565b9050919050565b7f54686520616d6f756e742072657175657374656420746f2062652072656c65615f8201527f736564206973206d6f7265207468616e207468652042616c616e636520616d6f60208201527f756e740000000000000000000000000000000000000000000000000000000000604082015250565b5f616b34604383615e7a565b9150616b3f82616ab4565b606082019050919050565b5f6020820190508181035f830152616b6181616b28565b9050919050565b5f6040820190508181035f830152616b808185615f58565b9050616b8f60208301846155c5565b9392505050565b5f604082019050616ba95f8301856147b5565b8181036020830152616bbb8184614a93565b90509392505050565b5f6060820190508181035f830152616bdc8186614a93565b9050616beb60208301856147b5565b8181036040830152616bfd8184615f58565b9050949350505050565b7f546f74616c2052656c656173652074696c6c206461746520457175616c206f725f8201527f20457863656564696e6720424720416d6f756e74000000000000000000000000602082015250565b5f616c61603483615e7a565b9150616c6c82616c07565b604082019050919050565b5f6020820190508181035f830152616c8e81616c55565b9050919050565b5f819050919050565b616caf616caa82614471565b616c95565b82525050565b5f819050919050565b616ccf616cca82614379565b616cb5565b82525050565b5f616ce0828b616c9e565b600882019150616cf0828a615572565b9150616cfc8289615572565b9150616d088288615572565b9150616d148287615572565b9150616d208286616cbe565b602082019150616d308285615572565b9150616d3c8284615572565b91508190509998505050505050505050565b5f616d59828b616c9e565b600882019150616d69828a615572565b9150616d758289615572565b9150616d818288615572565b9150616d8d8287615572565b9150616d998286616cbe565b602082019150616da98285616cbe565b602082019150616db98284615572565b9150819050999850505050505050505056fea26469706673582212207cb3bc5775d21e17aa4d24d4b683e447ce2cfdc02fecbfd1a65dd77246663edb64736f6c63430008140033",
  "immutableReferences": {},
  "source": "pragma solidity ^0.8.0;\npragma experimental ABIEncoderV2;\n\nimport \"./BankGuaranteeReleaseModel.sol\";\nimport \"./BankGuaranteeInvokeModel.sol\";\nimport \"./BankGuaranteeManager.sol\";\nimport \"./VcnFunctionalManager.sol\";\n\ncontract BankGuaranteeReleaseManager is BankGuaranteeReleaseStructs, BankGuaranteeInvokeStructs {\n\n    address private permInterfaceAddress;\n    BankGuaranteeReleaseModel private bankGuaranteeReleaseModel;\n    BankGuaranteeInvokeModel private bankGuaranteeInvokeModel;\n    BankGuaranteeManager private bankGuaranteeManager;\n    VcnFunctionalManager private vcnFunctionalManager;\n\n\n    event BankGuaranteeReleased(bytes8 _bgReleaseUid, bytes8 _bgUid, string _paymentAdviceReferenceNumber, \n        string _procuringEntityGid, string _egpSystemId, string _bankGid);\n\n    event BankGuaranteeInvoked(bytes8 _bgInvokeUid, bytes8 _bgUid, string _paymentAdviceReferenceNumber, \n        string _procuringEntityGid, string _egpSystemId, string _bankGid);\n\n    constructor (address _bankGuaranteeReleaseModel, address _bankGuaranteeInvokeModel,  address _bankGuaranteeManager, address _permInterfaceAddress, address _vcnFunctionalManager) {\n        bankGuaranteeReleaseModel = BankGuaranteeReleaseModel(_bankGuaranteeReleaseModel);\n        bankGuaranteeInvokeModel = BankGuaranteeInvokeModel(_bankGuaranteeInvokeModel);\n        bankGuaranteeManager = BankGuaranteeManager(_bankGuaranteeManager);\n        vcnFunctionalManager = VcnFunctionalManager(_vcnFunctionalManager);\n        permInterfaceAddress = _permInterfaceAddress;\n    }\n\n\n    modifier onlyEgpRepresentative(string memory _egpSystemId) {\n        (bool success, bytes memory data) = permInterfaceAddress.call(\n            abi.encodeWithSignature(\n                \"validateOrgAndAccount(address,string)\",\n                msg.sender,\n                _egpSystemId\n            )\n        );\n        require(\n            success,\n            \"permissions call failed\"\n        );\n        bool isValid = abi.decode(data, (bool));\n        require(\n            isValid,\n            \"account does not exists or exists but doesn't belong to passed egp system id\"\n        );\n        _;\n    }\n\n    modifier bankGuaranteeReleaseExists(bytes8 _uid) {\n        require(0 != bankGuaranteeReleaseModel.getBankGuaranteeReleaseIndex(_uid), \"BG Release does not exist\");\n        _;\n    }\n\n    modifier bankGuaranteeInvokeExists(bytes8 _uid) {\n        require(0 != bankGuaranteeInvokeModel.getBankGuaranteeInvokeIndex(_uid), \"BG Invoke does not exist\");\n        _;\n    }\n\n    modifier validCallerAndDataForRelease(BankGuaranteeRelease memory _bankGuaranteeRelease) {\n        (bool success, bytes memory data) = permInterfaceAddress.call(\n            abi.encodeWithSignature(\n                \"validateOrgAndAccount(address,string)\",\n                msg.sender,\n                _bankGuaranteeRelease.egpSystemId\n            )\n        );\n        require(\n            success,\n            \"permissions call failed\"\n        );\n        bool isValid = abi.decode(data, (bool));\n        require(\n            isValid,\n            \"account does not exists or exists but doesn't belong to passed egp system id\"\n        );\n        require(bankGuaranteeManager.isUidExists(_bankGuaranteeRelease.bankGuaranteeUid), \"Bank gurantee doesn't exist\");\n        require( keccak256(abi.encodePacked(bankGuaranteeManager.getBankGid(_bankGuaranteeRelease.bankGuaranteeUid))) == keccak256(abi.encodePacked(_bankGuaranteeRelease.bankGid)), \"Release request can be made only to the Bank who had submitted the Bank Guarantee\");\n        string memory _BGcurrency = bankGuaranteeManager.getBankGuaranteeCurrencyType(_bankGuaranteeRelease.bankGuaranteeUid);\n        require(vcnFunctionalManager.checkCurrencyVersion(_BGcurrency, _bankGuaranteeRelease.currency), \"Currency doesn't match as per the Bank Guarantee\");\n        require(_bankGuaranteeRelease.amountReleased <= getBankGuaranteeBalance(_bankGuaranteeRelease.bankGuaranteeUid), \"The amount requested to be released is more than the Balance amount\");\n        require(_bankGuaranteeRelease.releaseDate <= bankGuaranteeManager.getBankGuaranteeClaimExpiryDate(_bankGuaranteeRelease.bankGuaranteeUid), \"The Bank Guarantee has expired\"); //Then should be able to submit an other bankgurantee to the PA\n        _;\n    }\n\n    modifier validCallerAndDataForInvoke(BankGuaranteeInvoke memory _bankGuaranteeInvoke) {\n        (bool success, bytes memory data) = permInterfaceAddress.call(\n            abi.encodeWithSignature(\n                \"validateOrgAndAccount(address,string)\",\n                msg.sender,\n                _bankGuaranteeInvoke.egpSystemId\n            )\n        );\n        require(\n            success,\n            \"permissions call failed\"\n        );\n        bool isValid = abi.decode(data, (bool));\n        require(\n            isValid,\n            \"account does not exists or exists but doesn't belong to passed egp system id\"\n        );\n        require(bankGuaranteeManager.isUidExists(_bankGuaranteeInvoke.bankGuaranteeUid));\n        require( keccak256(abi.encodePacked(bankGuaranteeManager.getBankGid(_bankGuaranteeInvoke.bankGuaranteeUid))) == keccak256(abi.encodePacked(_bankGuaranteeInvoke.bankGid)), \"Invoke request can be made only to the Bank who had submitted the Bank Guarantee\");\n        string memory _BGcurrency = bankGuaranteeManager.getBankGuaranteeCurrencyType(_bankGuaranteeInvoke.bankGuaranteeUid);\n        require(vcnFunctionalManager.checkCurrencyVersion(_BGcurrency, _bankGuaranteeInvoke.currency), \"Currency doesn't match as per the Bank Guarantee\");\n        require(_bankGuaranteeInvoke.revocationAmount <= getBankGuaranteeBalance(_bankGuaranteeInvoke.bankGuaranteeUid), \"The amount requested to be Invoked is more than the Balance amount\");\n        require(_bankGuaranteeInvoke.revocationDate <= bankGuaranteeManager.getBankGuaranteeClaimExpiryDate(_bankGuaranteeInvoke.bankGuaranteeUid), \"The Bank Guarantee has expired\");\n        _;\n    }\n\n   \n    function publishBankGuaranteeRelease(BankGuaranteeRelease memory _bankGuaranteeRelease) public \n    validCallerAndDataForRelease(_bankGuaranteeRelease) {\n        if(getBankGuaranteeBalance(_bankGuaranteeRelease.bankGuaranteeUid) == _bankGuaranteeRelease.amountReleased){\n            bankGuaranteeManager.setBgReleaseStatusPaUid(_bankGuaranteeRelease.bankGid, _bankGuaranteeRelease.bankGuaranteeUid);\n        }\n        _generateBgReleaseUid(_bankGuaranteeRelease);\n        uint id = bankGuaranteeReleaseModel.getBankGuaranteeReleaseListLength();\n        bankGuaranteeReleaseModel.setBankGuaranteeReleaseIndex(_bankGuaranteeRelease.uid, 1+id);\n        bankGuaranteeReleaseModel.incBankGuaranteeReleaseListLength();\n        bankGuaranteeReleaseModel.addBankGuaranteeRelease(id, _bankGuaranteeRelease);\n        bankGuaranteeReleaseModel.addBgReleaseIndexListByBgUid(_bankGuaranteeRelease.bankGuaranteeUid, id);\n        string memory _bgReferenceNumber = bankGuaranteeManager.getBankGuaranteeReferenceNumberbybgUid(_bankGuaranteeRelease.bankGuaranteeUid);\n        bankGuaranteeReleaseModel.setBankGuaranteeReleaseIndices(_bankGuaranteeRelease, id, _bgReferenceNumber);\n        emit BankGuaranteeReleased(_bankGuaranteeRelease.uid, _bankGuaranteeRelease.bankGuaranteeUid, \n        _bankGuaranteeRelease.paymentReference, _bankGuaranteeRelease.procuringEntityGid, \n        _bankGuaranteeRelease.egpSystemId, _bankGuaranteeRelease.bankGid);\n    }\n\n    function publishBankGuaranteeInvoke(BankGuaranteeInvoke memory _bankGuaranteeInvoke) public \n    validCallerAndDataForInvoke(_bankGuaranteeInvoke) {\n        _generateBgInvokeUid(_bankGuaranteeInvoke);\n        uint id = bankGuaranteeInvokeModel.getBankGuaranteeInvokeListLength();\n        bankGuaranteeInvokeModel.setBankGuaranteeInvokeIndex(_bankGuaranteeInvoke.uid, 1+id);\n        bankGuaranteeInvokeModel.incBankGuaranteeInvokeListLength();\n        bankGuaranteeInvokeModel.addBankGuaranteeInvoke(id, _bankGuaranteeInvoke);\n        bankGuaranteeInvokeModel.addBgInvokeIndexListByBgUid(_bankGuaranteeInvoke.bankGuaranteeUid, id);\n        string memory _bgReferenceNumber = bankGuaranteeManager.getBankGuaranteeReferenceNumberbybgUid(_bankGuaranteeInvoke.bankGuaranteeUid);\n        bankGuaranteeInvokeModel.setBankGuaranteeInvokeIndices(_bankGuaranteeInvoke, id, _bgReferenceNumber);\n        emit BankGuaranteeInvoked(_bankGuaranteeInvoke.uid, _bankGuaranteeInvoke.bankGuaranteeUid, \n        _bankGuaranteeInvoke.paymentReference, _bankGuaranteeInvoke.procuringEntityGid, \n        _bankGuaranteeInvoke.egpSystemId, _bankGuaranteeInvoke.bankGid);\n    }\n\n    function getAllBankGuaranteeRelease(uint _toExcluded, uint _count) external view \n    returns(BankGuaranteeRelease[] memory _bankGuaranteeRelease, uint fromIncluded_, uint length_) {\n        (_bankGuaranteeRelease, fromIncluded_, length_) = bankGuaranteeReleaseModel.getAllBankGuaranteeRelease(_toExcluded, _count);\n    }\n\n    function getAllBankGuaranteeInvoke(uint _toExcluded, uint _count) external view \n    returns(BankGuaranteeInvoke[] memory _bankGuaranteeInvoke, uint fromIncluded_, uint length_) {\n        (_bankGuaranteeInvoke, fromIncluded_, length_) = bankGuaranteeInvokeModel.getAllBankGuaranteeInvoke(_toExcluded, _count);\n    }\n\n\n    function getBankGuaranteeBalance(bytes8 _bgUid) public view \n    returns (uint) {\n        uint[] memory bgReleaseUids = bankGuaranteeReleaseModel.getBgReleaseIndexListByBgUid(_bgUid);\n        uint[] memory bgInvokeUids = bankGuaranteeInvokeModel.getBgInvokeIndexListByBgUid(_bgUid);\n        uint releaseAndInvokeSum = 0;\n        for (uint256 i = 0; i < bgReleaseUids.length; i++) {\n            releaseAndInvokeSum += bankGuaranteeReleaseModel.getBgReleaseAmountReleased(bgReleaseUids[i]);\n        }\n        for (uint256 j = 0; j < bgInvokeUids.length; j++) {\n            releaseAndInvokeSum += bankGuaranteeInvokeModel.getBgInvokeRevocationAmount(bgInvokeUids[j]);\n        }\n        uint totalBgAmount = bankGuaranteeManager.getBankGuaranteeAmount(_bgUid);\n        require(releaseAndInvokeSum < totalBgAmount, \"Total Release till date Equal or Exceeding BG Amount\");\n        return totalBgAmount-releaseAndInvokeSum;\n    }\n\n    function getBankGuaranteeRelease(bytes8 _uid) public view \n    bankGuaranteeReleaseExists(_uid) \n    returns (BankGuaranteeRelease memory bankGuaranteeRelease_) {\n        bankGuaranteeRelease_ = bankGuaranteeReleaseModel.getBankGuaranteeReleaseByIndex(_getBankGuaranteeReleaseIndex(_uid));\n    }\n\n    function isReleaseUidExists(bytes8 _uid) public view \n    returns(bool) {\n        return (0 != bankGuaranteeReleaseModel.getBankGuaranteeReleaseIndex(_uid));\n    }\n\n    \n    /** @dev Listing out the Bank Guarantee Releases against the Bank Gid.\n      * @param _bankGid Global id of bank.\n      * @param _toExcluded The length till where the uint indexes has to be fetched.\n      * @param _count The number of indexes that has to be fetched. \n      * @return _bgReleaseListByBankGID List of Bank Guarantee Releases against the Bank Gid.\n      * @return fromIncluded_ _toExcluded - _count.\n      * @return length_ The length of the index present for the Bank Gid.\n      */\n    function getBgReleasesListByBankGID(string memory _bankGid, uint _toExcluded, uint _count) public view \n    returns(BankGuaranteeRelease[] memory _bgReleaseListByBankGID, uint fromIncluded_, uint length_)  {\n        uint[] memory indexList;\n        (indexList, fromIncluded_, length_) = bankGuaranteeReleaseModel.getBgReleaseListByEgpID(_bankGid, _toExcluded, _count);\n        _bgReleaseListByBankGID = new BankGuaranteeRelease[] (indexList.length);\n        for (uint256 i = 0; i < indexList.length; i++) {\n            _bgReleaseListByBankGID[i] = bankGuaranteeReleaseModel.getBankGuaranteeReleaseByIndex(indexList[i]);\n        }\n\n    }\n    \n    \n    /** @dev Listing out the Bank Guarantee Releases against the EgpSystem Id.\n      * @param _egpSystemId e-GP system Id registered with the network.\n      * @param _toExcluded The length till where the uint indexes has to be fetched.\n      * @param _count The number of indexes that has to be fetched. \n      * @return _bgReleaseListByEgpID List of Bank Guarantee Releases against the EgpSystem Id.\n      * @return fromIncluded_ _toExcluded - _count.\n      * @return length_ The length of the index present for the EgpSystem Id.\n      */\n    function getBgReleasesListByEgpID(string memory _egpSystemId, uint _toExcluded, uint _count) public view \n    returns(BankGuaranteeRelease[] memory _bgReleaseListByEgpID, uint fromIncluded_, uint length_)  {\n        uint[] memory indexList;\n        (indexList, fromIncluded_, length_) = bankGuaranteeReleaseModel.getBgReleaseListByEgpID(_egpSystemId, _toExcluded, _count);\n        _bgReleaseListByEgpID = new BankGuaranteeRelease[] (indexList.length);\n        for (uint256 i = 0; i < indexList.length; i++) {\n            _bgReleaseListByEgpID[i] = bankGuaranteeReleaseModel.getBankGuaranteeReleaseByIndex(indexList[i]);\n        }\n\n    } \n\n    \n    /** @dev Listing out the Bank Guarantee Releases against the Bank Guarantee Reference Number and Bank Gid.\n      * @param _bgReferenceNumber Reference number of bank Guarantee.\n      * @param _bankGid Global id of bank.\n      * @param _toExcluded The length till where the uint indexes has to be fetched.\n      * @param _count The number of indexes that has to be fetched. \n      * @return _bgReleaseListByBgRefAndBankGid List of Bank Guarantee Releases against the Reference Number and Bank Gid.\n      * @return fromIncluded_ _toExcluded - _count.\n      * @return length_ The length of the index present for the Bank Guarantee Reference Number and Bank Gid.\n      */\n    function getBgReleasesListByBgRefAndBankGid(string memory _bgReferenceNumber, string memory _bankGid,  uint _toExcluded, uint _count) public view \n    returns(BankGuaranteeRelease[] memory _bgReleaseListByBgRefAndBankGid, uint fromIncluded_, uint length_)  {\n        bytes8 _bgReleaseBgRefBankGid = bytes8(keccak256(abi.encodePacked(_bgReferenceNumber, _bankGid)));\n        uint[] memory indexList;\n        (indexList, fromIncluded_, length_) = bankGuaranteeReleaseModel.getBgReleaseListByBgRefAndBankGid(_bgReleaseBgRefBankGid, _toExcluded, _count);\n        _bgReleaseListByBgRefAndBankGid = new BankGuaranteeRelease[] (indexList.length);\n        for (uint256 i = 0; i < indexList.length; i++) {\n            _bgReleaseListByBgRefAndBankGid[i] = bankGuaranteeReleaseModel.getBankGuaranteeReleaseByIndex(indexList[i]);\n        }\n    }    \n\n    \n    /** @dev Listing out the Bank Guarantee Releases against the Payment Advice Reference Number and Bank Gid.\n      * @param _paymentReference Reference number of Payment Advice.\n      * @param _bankGid Global id of bank.\n      * @param _toExcluded The length till where the uint indexes has to be fetched.\n      * @param _count The number of indexes that has to be fetched. \n      * @return _bgReleaseListByPaRefAndBankGid List of Bank Guarantee Releases against the Payment Advice Reference Number and Bank Gid.\n      * @return fromIncluded_ _toExcluded - _count.\n      * @return length_ The length of the index present for the Payment Advice Reference Number and Bank Gid.\n      */\n    function getBgReleasesListByPaRefAndBankGid(string memory _paymentReference, string memory _bankGid,  uint _toExcluded, uint _count) public view \n    returns(BankGuaranteeRelease[] memory _bgReleaseListByPaRefAndBankGid, uint fromIncluded_, uint length_)  {\n        bytes8 _bgReleasePaRefBankGid = bytes8(keccak256(abi.encodePacked(_paymentReference, _bankGid)));\n        uint[] memory indexList;\n        (indexList, fromIncluded_, length_) = bankGuaranteeReleaseModel.getBgReleaseListByPaRefAndBankGid(_bgReleasePaRefBankGid, _toExcluded, _count);\n        _bgReleaseListByPaRefAndBankGid = new BankGuaranteeRelease[] (indexList.length);\n        for (uint256 i = 0; i < indexList.length; i++) {\n            _bgReleaseListByPaRefAndBankGid[i] = bankGuaranteeReleaseModel.getBankGuaranteeReleaseByIndex(indexList[i]);\n        }\n    }    \n\n\n\n\n    function getBgReleaseListByBgUid(bytes8 _bgUid, uint _toExcluded, uint _count) public view \n    returns(BankGuaranteeRelease[] memory bgReleaseList_, uint fromIncluded_, uint length_) {\n        uint[] memory bgReleaseUids = bankGuaranteeReleaseModel.getBgReleaseIndexListByBgUid(_bgUid);\n        if (_toExcluded > bgReleaseUids.length) {\n            _toExcluded = bgReleaseUids.length;\n        }\n        uint itr = _count>_toExcluded ? _toExcluded:_count;\n        bgReleaseList_ = new BankGuaranteeRelease[](itr);\n        while (itr>0) {\n            itr--;\n            _toExcluded--;\n            bgReleaseList_[bgReleaseList_.length-itr-1] = bankGuaranteeReleaseModel.getBankGuaranteeReleaseByIndex(bgReleaseUids[_toExcluded]);\n        }\n        fromIncluded_ = _toExcluded;\n        length_ = bgReleaseUids.length;\n    }\n\n    function getBgInvokeListByBgUid(bytes8 _bgUid, uint _toExcluded, uint _count) public view \n    returns(BankGuaranteeInvoke[] memory bgInvokeList_, uint fromIncluded_, uint length_) {\n        uint[] memory bgInvokeUids = bankGuaranteeInvokeModel.getBgInvokeIndexListByBgUid(_bgUid);\n        if (_toExcluded > bgInvokeUids.length) {\n            _toExcluded = bgInvokeUids.length;\n        }\n        uint itr = _count>_toExcluded ? _toExcluded:_count;\n        bgInvokeList_ = new BankGuaranteeInvoke[](itr);\n        while (itr>0) {\n            itr--;\n            _toExcluded--;\n            bgInvokeList_[bgInvokeList_.length-itr-1] = bankGuaranteeInvokeModel.getBankGuaranteeInvokeByIndex(bgInvokeUids[_toExcluded]);\n        }\n        fromIncluded_ = _toExcluded;\n        length_ = bgInvokeUids.length;\n    }\n\n    function getBankGuaranteeInvoke(bytes8 _uid) public view \n    bankGuaranteeInvokeExists(_uid) \n    returns (BankGuaranteeInvoke memory bankGuaranteeInvoke_) {\n        bankGuaranteeInvoke_ = bankGuaranteeInvokeModel.getBankGuaranteeInvokeByIndex(_getBankGuaranteeInvokeIndex(_uid));\n    }\n\n    function isInvokeUidExists(bytes8 _uid) public view \n    returns(bool) {\n        return (0 != bankGuaranteeInvokeModel.getBankGuaranteeInvokeIndex(_uid));\n    }\n\n    \n    \n    /** @dev Listing out the Bank Guarantee Invokes against the Bank Gid.\n      * @param _bankGid Global id of bank.\n      * @param _toExcluded The length till where the uint indexes has to be fetched.\n      * @param _count The number of indexes that has to be fetched. \n      * @return _bgInvokeListByBankGID List of Bank Guarantee Invokes against the Bank Gid.\n      * @return fromIncluded_ _toExcluded - _count.\n      * @return length_ The length of the index present for the Bank Gid.\n      */\n    function getBgInvokesListByBankGID(string memory _bankGid, uint _toExcluded, uint _count) public view \n    returns(BankGuaranteeInvoke[] memory _bgInvokeListByBankGID, uint fromIncluded_, uint length_)  {\n        uint[] memory indexList;\n        (indexList, fromIncluded_, length_) = bankGuaranteeInvokeModel.getBgInvokeListByEgpID(_bankGid, _toExcluded, _count);\n        _bgInvokeListByBankGID = new BankGuaranteeInvoke[] (indexList.length);\n        for (uint256 i = 0; i < indexList.length; i++) {\n            _bgInvokeListByBankGID[i] = bankGuaranteeInvokeModel.getBankGuaranteeInvokeByIndex(indexList[i]);\n        }\n\n    }\n    \n    /** @dev Listing out the Bank Guarantee Invokes against the EgpSystem Id.\n      * @param _egpSystemId e-GP system Id registered with the network.\n      * @param _toExcluded The length till where the uint indexes has to be fetched.\n      * @param _count The number of indexes that has to be fetched. \n      * @return _bgInvokeListByEgpID List of Bank Guarantee Invokes against the EgpSystem Id.\n      * @return fromIncluded_ _toExcluded - _count.\n      * @return length_ The length of the index present for the EgpSystem Id.\n      */\n    function getBgInvokesListByEgpID(string memory _egpSystemId, uint _toExcluded, uint _count) public view \n    returns(BankGuaranteeInvoke[] memory _bgInvokeListByEgpID, uint fromIncluded_, uint length_)  {\n        uint[] memory indexList;\n        (indexList, fromIncluded_, length_) = bankGuaranteeInvokeModel.getBgInvokeListByEgpID(_egpSystemId, _toExcluded, _count);\n        _bgInvokeListByEgpID = new BankGuaranteeInvoke[] (indexList.length);\n        for (uint256 i = 0; i < indexList.length; i++) {\n            _bgInvokeListByEgpID[i] = bankGuaranteeInvokeModel.getBankGuaranteeInvokeByIndex(indexList[i]);\n        }\n\n    } \n\n    \n    /** @dev Listing out the Bank Guarantee Invokes against the Reference Number and Bank Gid.\n      * @param _bgReferenceNumber Reference number of bank Guarantee.\n      * @param _bankGid Global id of bank.\n      * @param _toExcluded The length till where the uint indexes has to be fetched.\n      * @param _count The number of indexes that has to be fetched. \n      * @return _bgInvokeListByBgRefAndBankGid List of Bank Guarantee Invokes against the Reference Number and Bank Gid.\n      * @return fromIncluded_ _toExcluded - _count.\n      * @return length_ The length of the index present for the Reference Number and Bank Gid.\n      */\n    function getBgInvokesListByBgRefAndBankGid(string memory _bgReferenceNumber, string memory _bankGid,  uint _toExcluded, uint _count) public view \n    returns(BankGuaranteeInvoke[] memory _bgInvokeListByBgRefAndBankGid, uint fromIncluded_, uint length_)  {\n        bytes8 _bgInvokeBgRefBankGid = bytes8(keccak256(abi.encodePacked(_bgReferenceNumber, _bankGid)));\n        uint[] memory indexList;\n        (indexList, fromIncluded_, length_) = bankGuaranteeInvokeModel.getBgInvokeListByBgRefAndBankGid(_bgInvokeBgRefBankGid, _toExcluded, _count);\n        _bgInvokeListByBgRefAndBankGid = new BankGuaranteeInvoke[] (indexList.length);\n        for (uint256 i = 0; i < indexList.length; i++) {\n            _bgInvokeListByBgRefAndBankGid[i] = bankGuaranteeInvokeModel.getBankGuaranteeInvokeByIndex(indexList[i]);\n        }\n    }    \n\n    \n    /** @dev Listing out the Bank Guarantee Invokes against the Payment Advice Reference Number and Bank Gid.\n      * @param _paymentReference Reference number of Payment Advice.\n      * @param _bankGid Global id of bank.\n      * @param _toExcluded The length till where the uint indexes has to be fetched.\n      * @param _count The number of indexes that has to be fetched. \n      * @return _bgInvokeListByPaRefAndBankGid List of Bank Guarantee Invokes against the Payment Advice Reference Number and Bank Gid.\n      * @return fromIncluded_ _toExcluded - _count.\n      * @return length_ The length of the index present for the Payment Advice Reference Number and Bank Gid.\n      */\n    function getBgInvokesListByPaRefAndBankGid( string memory _paymentReference, string memory _bankGid,  uint _toExcluded, uint _count) public view \n    returns(BankGuaranteeInvoke[] memory _bgInvokeListByPaRefAndBankGid, uint fromIncluded_, uint length_)  {\n        bytes8 _bgInvokePaRefBankGid = bytes8(keccak256(abi.encodePacked(_paymentReference, _bankGid)));\n        uint[] memory indexList;\n        (indexList, fromIncluded_, length_) = bankGuaranteeInvokeModel.getBgInvokeListByPaRefAndBankGid(_bgInvokePaRefBankGid, _toExcluded, _count);\n        _bgInvokeListByPaRefAndBankGid = new BankGuaranteeInvoke[] (indexList.length);\n        for (uint256 i = 0; i < indexList.length; i++) {\n            _bgInvokeListByPaRefAndBankGid[i] = bankGuaranteeInvokeModel.getBankGuaranteeInvokeByIndex(indexList[i]);\n        }\n    }\n\n    function _generateBgReleaseUid (BankGuaranteeRelease memory _bankGuaranteeRelease) internal pure {\n        _bankGuaranteeRelease.uid = bytes8(keccak256(abi.encodePacked(_bankGuaranteeRelease.bankGuaranteeUid, \n        _bankGuaranteeRelease.paymentReference, _bankGuaranteeRelease.egpSystemId, _bankGuaranteeRelease.vendorGid, \n        _bankGuaranteeRelease.bankGid, _bankGuaranteeRelease.releaseDate, _bankGuaranteeRelease.amountReleased, \n        _bankGuaranteeRelease.bgReleaseFileHash)));\n    }\n\n    function _generateBgInvokeUid (BankGuaranteeInvoke memory _bankGuaranteeInvoke) internal pure {\n        _bankGuaranteeInvoke.uid = bytes8(keccak256(abi.encodePacked(_bankGuaranteeInvoke.bankGuaranteeUid, \n        _bankGuaranteeInvoke.paymentReference, _bankGuaranteeInvoke.egpSystemId, _bankGuaranteeInvoke.vendorGid, \n        _bankGuaranteeInvoke.bankGid, _bankGuaranteeInvoke.revocationAmount, _bankGuaranteeInvoke.beneficiaryName, \n        _bankGuaranteeInvoke.bgInvokeFileHash)));\n    }\n\n    function _getBankGuaranteeReleaseIndex(bytes8 _uid) internal view \n    returns(uint) {\n        return bankGuaranteeReleaseModel.getBankGuaranteeReleaseIndex(_uid)-1;\n    }\n\n    function _getBankGuaranteeInvokeIndex(bytes8 _uid) internal view \n    returns(uint) {\n        return bankGuaranteeInvokeModel.getBankGuaranteeInvokeIndex(_uid)-1;\n    }\n\n    /** @dev Listing out the Bank Guarantee Invokes and Release against the Payment Advice Reference Number and Bank Gid.\n      * @param _paReferenceNumber Reference number of Payment Advice and Global id of bank.\n      * @param _bankGid Reference number of Payment Advice and Global id of bank.\n      * @param _toExcluded The length till where the uint indexes has to be fetched.\n      * @param _count The number of indexes that has to be fetched. \n      * @return _bgReleaseListByUid List of Bank Guarantee Release against the Payment Advice Reference Number and Bank Gid.\n      * @return _bgInvokeListByUid List of Bank Guarantee Invokes against the Payment Advice Reference Number and Bank Gid.\n      * @return fromIncluded_ _toExcluded - _count.\n      * @return length_ The length of the index present for the Payment Advice Reference Number and Bank Gid.\n      */\n\n    function getBgReleasesAndInvokesListByPaBankGid(string memory _paReferenceNumber, string memory _bankGid,  uint _toExcluded, uint _count) public view \n    returns(BankGuaranteeRelease[] memory _bgReleaseListByUid, BankGuaranteeInvoke[] memory _bgInvokeListByUid, uint fromIncluded_, uint length_)  {\n        bytes8 _bgReleaseInvokePaRefBankGid = bytes8(keccak256(abi.encodePacked(_paReferenceNumber, _bankGid)));\n        uint[] memory indexList;\n        (indexList, fromIncluded_, length_) = bankGuaranteeReleaseModel.getBgReleaseAndInvokeListByBgUid(_bgReleaseInvokePaRefBankGid, _toExcluded, _count);\n        _bgReleaseListByUid = new BankGuaranteeRelease [](indexList.length);\n        _bgInvokeListByUid = new BankGuaranteeInvoke [](indexList.length);\n        for (uint256 i = 0; i < indexList.length; i++) {\n            if(bankGuaranteeInvokeModel.getReleaseInvokeStatus(_bgReleaseInvokePaRefBankGid, indexList[i]) == 1)\n            {\n                _bgInvokeListByUid[i] = bankGuaranteeInvokeModel.getBankGuaranteeInvokeByIndex(indexList[i]);\n            } else {\n                _bgReleaseListByUid[i] = bankGuaranteeReleaseModel.getBankGuaranteeReleaseByIndex(indexList[i]);\n            }          \n        }\n    }\n}",
  "sourcePath": "/home/raghupathi/Desktop/javaClass/javaClass/contracts/BankGuaranteeReleaseManager.sol",
  "compiler": {
    "name": "solc",
    "version": "0.8.20+commit.a1b79de6.Emscripten.clang"
  },
  "schemaVersion": "3.4.14",
  "updatedAt": "2023-06-02T09:43:22.597Z",
  "devdoc": {
    "kind": "dev",
    "methods": {
      "getBgInvokesListByBankGID(string,uint256,uint256)": {
        "details": "Listing out the Bank Guarantee Invokes against the Bank Gid.",
        "params": {
          "_bankGid": "Global id of bank.",
          "_count": "The number of indexes that has to be fetched. ",
          "_toExcluded": "The length till where the uint indexes has to be fetched."
        },
        "returns": {
          "_bgInvokeListByBankGID": "List of Bank Guarantee Invokes against the Bank Gid.",
          "fromIncluded_": "_toExcluded - _count.",
          "length_": "The length of the index present for the Bank Gid."
        }
      },
      "getBgInvokesListByBgRefAndBankGid(string,string,uint256,uint256)": {
        "details": "Listing out the Bank Guarantee Invokes against the Reference Number and Bank Gid.",
        "params": {
          "_bankGid": "Global id of bank.",
          "_bgReferenceNumber": "Reference number of bank Guarantee.",
          "_count": "The number of indexes that has to be fetched. ",
          "_toExcluded": "The length till where the uint indexes has to be fetched."
        },
        "returns": {
          "_bgInvokeListByBgRefAndBankGid": "List of Bank Guarantee Invokes against the Reference Number and Bank Gid.",
          "fromIncluded_": "_toExcluded - _count.",
          "length_": "The length of the index present for the Reference Number and Bank Gid."
        }
      },
      "getBgInvokesListByEgpID(string,uint256,uint256)": {
        "details": "Listing out the Bank Guarantee Invokes against the EgpSystem Id.",
        "params": {
          "_count": "The number of indexes that has to be fetched. ",
          "_egpSystemId": "e-GP system Id registered with the network.",
          "_toExcluded": "The length till where the uint indexes has to be fetched."
        },
        "returns": {
          "_bgInvokeListByEgpID": "List of Bank Guarantee Invokes against the EgpSystem Id.",
          "fromIncluded_": "_toExcluded - _count.",
          "length_": "The length of the index present for the EgpSystem Id."
        }
      },
      "getBgInvokesListByPaRefAndBankGid(string,string,uint256,uint256)": {
        "details": "Listing out the Bank Guarantee Invokes against the Payment Advice Reference Number and Bank Gid.",
        "params": {
          "_bankGid": "Global id of bank.",
          "_count": "The number of indexes that has to be fetched. ",
          "_paymentReference": "Reference number of Payment Advice.",
          "_toExcluded": "The length till where the uint indexes has to be fetched."
        },
        "returns": {
          "_bgInvokeListByPaRefAndBankGid": "List of Bank Guarantee Invokes against the Payment Advice Reference Number and Bank Gid.",
          "fromIncluded_": "_toExcluded - _count.",
          "length_": "The length of the index present for the Payment Advice Reference Number and Bank Gid."
        }
      },
      "getBgReleasesAndInvokesListByPaBankGid(string,string,uint256,uint256)": {
        "details": "Listing out the Bank Guarantee Invokes and Release against the Payment Advice Reference Number and Bank Gid.",
        "params": {
          "_bankGid": "Reference number of Payment Advice and Global id of bank.",
          "_count": "The number of indexes that has to be fetched. ",
          "_paReferenceNumber": "Reference number of Payment Advice and Global id of bank.",
          "_toExcluded": "The length till where the uint indexes has to be fetched."
        },
        "returns": {
          "_bgInvokeListByUid": "List of Bank Guarantee Invokes against the Payment Advice Reference Number and Bank Gid.",
          "_bgReleaseListByUid": "List of Bank Guarantee Release against the Payment Advice Reference Number and Bank Gid.",
          "fromIncluded_": "_toExcluded - _count.",
          "length_": "The length of the index present for the Payment Advice Reference Number and Bank Gid."
        }
      },
      "getBgReleasesListByBankGID(string,uint256,uint256)": {
        "details": "Listing out the Bank Guarantee Releases against the Bank Gid.",
        "params": {
          "_bankGid": "Global id of bank.",
          "_count": "The number of indexes that has to be fetched. ",
          "_toExcluded": "The length till where the uint indexes has to be fetched."
        },
        "returns": {
          "_bgReleaseListByBankGID": "List of Bank Guarantee Releases against the Bank Gid.",
          "fromIncluded_": "_toExcluded - _count.",
          "length_": "The length of the index present for the Bank Gid."
        }
      },
      "getBgReleasesListByBgRefAndBankGid(string,string,uint256,uint256)": {
        "details": "Listing out the Bank Guarantee Releases against the Bank Guarantee Reference Number and Bank Gid.",
        "params": {
          "_bankGid": "Global id of bank.",
          "_bgReferenceNumber": "Reference number of bank Guarantee.",
          "_count": "The number of indexes that has to be fetched. ",
          "_toExcluded": "The length till where the uint indexes has to be fetched."
        },
        "returns": {
          "_bgReleaseListByBgRefAndBankGid": "List of Bank Guarantee Releases against the Reference Number and Bank Gid.",
          "fromIncluded_": "_toExcluded - _count.",
          "length_": "The length of the index present for the Bank Guarantee Reference Number and Bank Gid."
        }
      },
      "getBgReleasesListByEgpID(string,uint256,uint256)": {
        "details": "Listing out the Bank Guarantee Releases against the EgpSystem Id.",
        "params": {
          "_count": "The number of indexes that has to be fetched. ",
          "_egpSystemId": "e-GP system Id registered with the network.",
          "_toExcluded": "The length till where the uint indexes has to be fetched."
        },
        "returns": {
          "_bgReleaseListByEgpID": "List of Bank Guarantee Releases against the EgpSystem Id.",
          "fromIncluded_": "_toExcluded - _count.",
          "length_": "The length of the index present for the EgpSystem Id."
        }
      },
      "getBgReleasesListByPaRefAndBankGid(string,string,uint256,uint256)": {
        "details": "Listing out the Bank Guarantee Releases against the Payment Advice Reference Number and Bank Gid.",
        "params": {
          "_bankGid": "Global id of bank.",
          "_count": "The number of indexes that has to be fetched. ",
          "_paymentReference": "Reference number of Payment Advice.",
          "_toExcluded": "The length till where the uint indexes has to be fetched."
        },
        "returns": {
          "_bgReleaseListByPaRefAndBankGid": "List of Bank Guarantee Releases against the Payment Advice Reference Number and Bank Gid.",
          "fromIncluded_": "_toExcluded - _count.",
          "length_": "The length of the index present for the Payment Advice Reference Number and Bank Gid."
        }
      }
    },
    "version": 1
  },
  "userdoc": {
    "kind": "user",
    "methods": {},
    "version": 1
  }
}