{
  "contractName": "BankGuaranteeInvokeModel",
  "abi": [
    {
      "inputs": [
        {
          "internalType": "address",
          "name": "_Member",
          "type": "address"
        },
        {
          "internalType": "address",
          "name": "_List",
          "type": "address"
        },
        {
          "internalType": "address",
          "name": "_Map",
          "type": "address"
        },
        {
          "internalType": "address",
          "name": "_quireContracts",
          "type": "address"
        }
      ],
      "stateMutability": "nonpayable",
      "type": "constructor"
    },
    {
      "inputs": [
        {
          "internalType": "bytes8",
          "name": "_uid",
          "type": "bytes8"
        }
      ],
      "name": "getBankGuaranteeInvokeIndex",
      "outputs": [
        {
          "internalType": "uint256",
          "name": "",
          "type": "uint256"
        }
      ],
      "stateMutability": "view",
      "type": "function"
    },
    {
      "inputs": [
        {
          "internalType": "bytes8",
          "name": "_uid",
          "type": "bytes8"
        }
      ],
      "name": "getBgInvokeIndexListByBgUid",
      "outputs": [
        {
          "internalType": "uint256[]",
          "name": "bgInvokeIndexList_",
          "type": "uint256[]"
        }
      ],
      "stateMutability": "view",
      "type": "function"
    },
    {
      "inputs": [],
      "name": "getBankGuaranteeInvokeListLength",
      "outputs": [
        {
          "internalType": "uint256",
          "name": "",
          "type": "uint256"
        }
      ],
      "stateMutability": "view",
      "type": "function"
    },
    {
      "inputs": [
        {
          "internalType": "uint256",
          "name": "_index",
          "type": "uint256"
        }
      ],
      "name": "getBankGuaranteeInvokeByIndex",
      "outputs": [
        {
          "components": [
            {
              "internalType": "bytes8",
              "name": "uid",
              "type": "bytes8"
            },
            {
              "internalType": "bytes8",
              "name": "bankGuaranteeUid",
              "type": "bytes8"
            },
            {
              "internalType": "string",
              "name": "paymentReference",
              "type": "string"
            },
            {
              "internalType": "string",
              "name": "procuringEntityGid",
              "type": "string"
            },
            {
              "internalType": "string",
              "name": "egpSystemId",
              "type": "string"
            },
            {
              "internalType": "string",
              "name": "vendorGid",
              "type": "string"
            },
            {
              "internalType": "string",
              "name": "bankGid",
              "type": "string"
            },
            {
              "internalType": "string",
              "name": "branchName",
              "type": "string"
            },
            {
              "internalType": "uint256",
              "name": "revocationDate",
              "type": "uint256"
            },
            {
              "internalType": "string",
              "name": "currency",
              "type": "string"
            },
            {
              "internalType": "uint256",
              "name": "revocationAmount",
              "type": "uint256"
            },
            {
              "internalType": "string",
              "name": "beneficiaryName",
              "type": "string"
            },
            {
              "internalType": "string",
              "name": "beneficiaryBankAccountNumber",
              "type": "string"
            },
            {
              "internalType": "string",
              "name": "beneficiaryBankName",
              "type": "string"
            },
            {
              "internalType": "string",
              "name": "beneficiaryBranchName",
              "type": "string"
            },
            {
              "internalType": "string",
              "name": "beneficiaryIfscCode",
              "type": "string"
            },
            {
              "internalType": "string",
              "name": "bgInvokeFileHash",
              "type": "string"
            },
            {
              "internalType": "uint16",
              "name": "version",
              "type": "uint16"
            }
          ],
          "internalType": "struct BankGuaranteeInvokeStructs.BankGuaranteeInvoke",
          "name": "bankGuaranteeInvoke_",
          "type": "tuple"
        }
      ],
      "stateMutability": "view",
      "type": "function"
    },
    {
      "inputs": [
        {
          "internalType": "uint256",
          "name": "_toExcluded",
          "type": "uint256"
        },
        {
          "internalType": "uint256",
          "name": "_count",
          "type": "uint256"
        }
      ],
      "name": "getAllBankGuaranteeInvoke",
      "outputs": [
        {
          "components": [
            {
              "internalType": "bytes8",
              "name": "uid",
              "type": "bytes8"
            },
            {
              "internalType": "bytes8",
              "name": "bankGuaranteeUid",
              "type": "bytes8"
            },
            {
              "internalType": "string",
              "name": "paymentReference",
              "type": "string"
            },
            {
              "internalType": "string",
              "name": "procuringEntityGid",
              "type": "string"
            },
            {
              "internalType": "string",
              "name": "egpSystemId",
              "type": "string"
            },
            {
              "internalType": "string",
              "name": "vendorGid",
              "type": "string"
            },
            {
              "internalType": "string",
              "name": "bankGid",
              "type": "string"
            },
            {
              "internalType": "string",
              "name": "branchName",
              "type": "string"
            },
            {
              "internalType": "uint256",
              "name": "revocationDate",
              "type": "uint256"
            },
            {
              "internalType": "string",
              "name": "currency",
              "type": "string"
            },
            {
              "internalType": "uint256",
              "name": "revocationAmount",
              "type": "uint256"
            },
            {
              "internalType": "string",
              "name": "beneficiaryName",
              "type": "string"
            },
            {
              "internalType": "string",
              "name": "beneficiaryBankAccountNumber",
              "type": "string"
            },
            {
              "internalType": "string",
              "name": "beneficiaryBankName",
              "type": "string"
            },
            {
              "internalType": "string",
              "name": "beneficiaryBranchName",
              "type": "string"
            },
            {
              "internalType": "string",
              "name": "beneficiaryIfscCode",
              "type": "string"
            },
            {
              "internalType": "string",
              "name": "bgInvokeFileHash",
              "type": "string"
            },
            {
              "internalType": "uint16",
              "name": "version",
              "type": "uint16"
            }
          ],
          "internalType": "struct BankGuaranteeInvokeStructs.BankGuaranteeInvoke[]",
          "name": "_bankGuaranteeInvoke",
          "type": "tuple[]"
        },
        {
          "internalType": "uint256",
          "name": "fromIncluded_",
          "type": "uint256"
        },
        {
          "internalType": "uint256",
          "name": "length_",
          "type": "uint256"
        }
      ],
      "stateMutability": "view",
      "type": "function"
    },
    {
      "inputs": [
        {
          "internalType": "uint256",
          "name": "_index",
          "type": "uint256"
        }
      ],
      "name": "getBgInvokeUid",
      "outputs": [
        {
          "internalType": "bytes8",
          "name": "",
          "type": "bytes8"
        }
      ],
      "stateMutability": "view",
      "type": "function"
    },
    {
      "inputs": [
        {
          "internalType": "uint256",
          "name": "_index",
          "type": "uint256"
        }
      ],
      "name": "getBgInvokeBankGuaranteeUid",
      "outputs": [
        {
          "internalType": "bytes8",
          "name": "",
          "type": "bytes8"
        }
      ],
      "stateMutability": "view",
      "type": "function"
    },
    {
      "inputs": [
        {
          "internalType": "uint256",
          "name": "_index",
          "type": "uint256"
        }
      ],
      "name": "getBgInvokePaymentReference",
      "outputs": [
        {
          "internalType": "string",
          "name": "",
          "type": "string"
        }
      ],
      "stateMutability": "view",
      "type": "function"
    },
    {
      "inputs": [
        {
          "internalType": "uint256",
          "name": "_index",
          "type": "uint256"
        }
      ],
      "name": "getBgInvokeProcuringEntityGid",
      "outputs": [
        {
          "internalType": "string",
          "name": "",
          "type": "string"
        }
      ],
      "stateMutability": "view",
      "type": "function"
    },
    {
      "inputs": [
        {
          "internalType": "uint256",
          "name": "_index",
          "type": "uint256"
        }
      ],
      "name": "getBgInvokeEgpSystemId",
      "outputs": [
        {
          "internalType": "string",
          "name": "",
          "type": "string"
        }
      ],
      "stateMutability": "view",
      "type": "function"
    },
    {
      "inputs": [
        {
          "internalType": "uint256",
          "name": "_index",
          "type": "uint256"
        }
      ],
      "name": "getBgInvokeVendorGid",
      "outputs": [
        {
          "internalType": "string",
          "name": "",
          "type": "string"
        }
      ],
      "stateMutability": "view",
      "type": "function"
    },
    {
      "inputs": [
        {
          "internalType": "uint256",
          "name": "_index",
          "type": "uint256"
        }
      ],
      "name": "getBgInvokeBankGid",
      "outputs": [
        {
          "internalType": "string",
          "name": "",
          "type": "string"
        }
      ],
      "stateMutability": "view",
      "type": "function"
    },
    {
      "inputs": [
        {
          "internalType": "uint256",
          "name": "_index",
          "type": "uint256"
        }
      ],
      "name": "getBgInvokeBranchName",
      "outputs": [
        {
          "internalType": "string",
          "name": "",
          "type": "string"
        }
      ],
      "stateMutability": "view",
      "type": "function"
    },
    {
      "inputs": [
        {
          "internalType": "uint256",
          "name": "_index",
          "type": "uint256"
        }
      ],
      "name": "getBgInvokeRevocationDate",
      "outputs": [
        {
          "internalType": "uint256",
          "name": "",
          "type": "uint256"
        }
      ],
      "stateMutability": "view",
      "type": "function"
    },
    {
      "inputs": [
        {
          "internalType": "uint256",
          "name": "_index",
          "type": "uint256"
        }
      ],
      "name": "getBgInvokeRevocationCurrencyType",
      "outputs": [
        {
          "internalType": "string",
          "name": "",
          "type": "string"
        }
      ],
      "stateMutability": "view",
      "type": "function"
    },
    {
      "inputs": [
        {
          "internalType": "uint256",
          "name": "_index",
          "type": "uint256"
        }
      ],
      "name": "getBgInvokeRevocationAmount",
      "outputs": [
        {
          "internalType": "uint256",
          "name": "",
          "type": "uint256"
        }
      ],
      "stateMutability": "view",
      "type": "function"
    },
    {
      "inputs": [
        {
          "internalType": "uint256",
          "name": "_index",
          "type": "uint256"
        }
      ],
      "name": "getBgInvokeBeneficiaryName",
      "outputs": [
        {
          "internalType": "string",
          "name": "",
          "type": "string"
        }
      ],
      "stateMutability": "view",
      "type": "function"
    },
    {
      "inputs": [
        {
          "internalType": "uint256",
          "name": "_index",
          "type": "uint256"
        }
      ],
      "name": "getBgInvokeBeneficiaryBankAccountNumber",
      "outputs": [
        {
          "internalType": "string",
          "name": "",
          "type": "string"
        }
      ],
      "stateMutability": "view",
      "type": "function"
    },
    {
      "inputs": [
        {
          "internalType": "uint256",
          "name": "_index",
          "type": "uint256"
        }
      ],
      "name": "getBgInvokeBeneficiaryBankName",
      "outputs": [
        {
          "internalType": "string",
          "name": "",
          "type": "string"
        }
      ],
      "stateMutability": "view",
      "type": "function"
    },
    {
      "inputs": [
        {
          "internalType": "uint256",
          "name": "_index",
          "type": "uint256"
        }
      ],
      "name": "getBgInvokeBeneficiaryBranchName",
      "outputs": [
        {
          "internalType": "string",
          "name": "",
          "type": "string"
        }
      ],
      "stateMutability": "view",
      "type": "function"
    },
    {
      "inputs": [
        {
          "internalType": "uint256",
          "name": "_index",
          "type": "uint256"
        }
      ],
      "name": "getBgInvokeBeneficiaryIfscCode",
      "outputs": [
        {
          "internalType": "string",
          "name": "",
          "type": "string"
        }
      ],
      "stateMutability": "view",
      "type": "function"
    },
    {
      "inputs": [
        {
          "internalType": "uint256",
          "name": "_index",
          "type": "uint256"
        }
      ],
      "name": "getBgInvokeBgInvokeFileHash",
      "outputs": [
        {
          "internalType": "string",
          "name": "",
          "type": "string"
        }
      ],
      "stateMutability": "view",
      "type": "function"
    },
    {
      "inputs": [
        {
          "internalType": "uint256",
          "name": "_index",
          "type": "uint256"
        }
      ],
      "name": "getBgInvokeVersion",
      "outputs": [
        {
          "internalType": "uint16",
          "name": "",
          "type": "uint16"
        }
      ],
      "stateMutability": "view",
      "type": "function"
    },
    {
      "inputs": [
        {
          "internalType": "bytes8",
          "name": "_Uid",
          "type": "bytes8"
        },
        {
          "internalType": "uint256",
          "name": "_value",
          "type": "uint256"
        }
      ],
      "name": "getReleaseInvokeStatus",
      "outputs": [
        {
          "internalType": "uint256",
          "name": "",
          "type": "uint256"
        }
      ],
      "stateMutability": "view",
      "type": "function"
    },
    {
      "inputs": [
        {
          "internalType": "string",
          "name": "_bankGid",
          "type": "string"
        },
        {
          "internalType": "uint256",
          "name": "_toExcluded",
          "type": "uint256"
        },
        {
          "internalType": "uint256",
          "name": "_count",
          "type": "uint256"
        }
      ],
      "name": "getBgInvokeListByBankGID",
      "outputs": [
        {
          "internalType": "uint256[]",
          "name": "_bgInvokeListByBankGID",
          "type": "uint256[]"
        },
        {
          "internalType": "uint256",
          "name": "fromIncluded_",
          "type": "uint256"
        },
        {
          "internalType": "uint256",
          "name": "length_",
          "type": "uint256"
        }
      ],
      "stateMutability": "view",
      "type": "function"
    },
    {
      "inputs": [
        {
          "internalType": "string",
          "name": "_egpSystemId",
          "type": "string"
        },
        {
          "internalType": "uint256",
          "name": "_toExcluded",
          "type": "uint256"
        },
        {
          "internalType": "uint256",
          "name": "_count",
          "type": "uint256"
        }
      ],
      "name": "getBgInvokeListByEgpID",
      "outputs": [
        {
          "internalType": "uint256[]",
          "name": "_bgInvokeListByEgpID",
          "type": "uint256[]"
        },
        {
          "internalType": "uint256",
          "name": "fromIncluded_",
          "type": "uint256"
        },
        {
          "internalType": "uint256",
          "name": "length_",
          "type": "uint256"
        }
      ],
      "stateMutability": "view",
      "type": "function"
    },
    {
      "inputs": [
        {
          "internalType": "bytes8",
          "name": "_bgInvokeBgRefBankGid",
          "type": "bytes8"
        },
        {
          "internalType": "uint256",
          "name": "_toExcluded",
          "type": "uint256"
        },
        {
          "internalType": "uint256",
          "name": "_count",
          "type": "uint256"
        }
      ],
      "name": "getBgInvokeListByBgRefAndBankGid",
      "outputs": [
        {
          "internalType": "uint256[]",
          "name": "_bgInvokeListByBgRefAndBankGid",
          "type": "uint256[]"
        },
        {
          "internalType": "uint256",
          "name": "fromIncluded_",
          "type": "uint256"
        },
        {
          "internalType": "uint256",
          "name": "length_",
          "type": "uint256"
        }
      ],
      "stateMutability": "view",
      "type": "function"
    },
    {
      "inputs": [
        {
          "internalType": "bytes8",
          "name": "_bgInvokePaRefBankGid",
          "type": "bytes8"
        },
        {
          "internalType": "uint256",
          "name": "_toExcluded",
          "type": "uint256"
        },
        {
          "internalType": "uint256",
          "name": "_count",
          "type": "uint256"
        }
      ],
      "name": "getBgInvokeListByPaRefAndBankGid",
      "outputs": [
        {
          "internalType": "uint256[]",
          "name": "_bgInvokeListByPaRefAndBankGid",
          "type": "uint256[]"
        },
        {
          "internalType": "uint256",
          "name": "fromIncluded_",
          "type": "uint256"
        },
        {
          "internalType": "uint256",
          "name": "length_",
          "type": "uint256"
        }
      ],
      "stateMutability": "view",
      "type": "function"
    },
    {
      "inputs": [
        {
          "internalType": "bytes8",
          "name": "_uid",
          "type": "bytes8"
        },
        {
          "internalType": "uint256",
          "name": "_value",
          "type": "uint256"
        }
      ],
      "name": "setBankGuaranteeInvokeIndex",
      "outputs": [],
      "stateMutability": "nonpayable",
      "type": "function"
    },
    {
      "inputs": [
        {
          "internalType": "bytes8",
          "name": "_uid",
          "type": "bytes8"
        },
        {
          "internalType": "uint256",
          "name": "_index",
          "type": "uint256"
        }
      ],
      "name": "addBgInvokeIndexListByBgUid",
      "outputs": [],
      "stateMutability": "nonpayable",
      "type": "function"
    },
    {
      "inputs": [],
      "name": "incBankGuaranteeInvokeListLength",
      "outputs": [],
      "stateMutability": "nonpayable",
      "type": "function"
    },
    {
      "inputs": [
        {
          "internalType": "uint256",
          "name": "_index",
          "type": "uint256"
        },
        {
          "components": [
            {
              "internalType": "bytes8",
              "name": "uid",
              "type": "bytes8"
            },
            {
              "internalType": "bytes8",
              "name": "bankGuaranteeUid",
              "type": "bytes8"
            },
            {
              "internalType": "string",
              "name": "paymentReference",
              "type": "string"
            },
            {
              "internalType": "string",
              "name": "procuringEntityGid",
              "type": "string"
            },
            {
              "internalType": "string",
              "name": "egpSystemId",
              "type": "string"
            },
            {
              "internalType": "string",
              "name": "vendorGid",
              "type": "string"
            },
            {
              "internalType": "string",
              "name": "bankGid",
              "type": "string"
            },
            {
              "internalType": "string",
              "name": "branchName",
              "type": "string"
            },
            {
              "internalType": "uint256",
              "name": "revocationDate",
              "type": "uint256"
            },
            {
              "internalType": "string",
              "name": "currency",
              "type": "string"
            },
            {
              "internalType": "uint256",
              "name": "revocationAmount",
              "type": "uint256"
            },
            {
              "internalType": "string",
              "name": "beneficiaryName",
              "type": "string"
            },
            {
              "internalType": "string",
              "name": "beneficiaryBankAccountNumber",
              "type": "string"
            },
            {
              "internalType": "string",
              "name": "beneficiaryBankName",
              "type": "string"
            },
            {
              "internalType": "string",
              "name": "beneficiaryBranchName",
              "type": "string"
            },
            {
              "internalType": "string",
              "name": "beneficiaryIfscCode",
              "type": "string"
            },
            {
              "internalType": "string",
              "name": "bgInvokeFileHash",
              "type": "string"
            },
            {
              "internalType": "uint16",
              "name": "version",
              "type": "uint16"
            }
          ],
          "internalType": "struct BankGuaranteeInvokeStructs.BankGuaranteeInvoke",
          "name": "_BankGuaranteeInvoke",
          "type": "tuple"
        }
      ],
      "name": "addBankGuaranteeInvoke",
      "outputs": [],
      "stateMutability": "nonpayable",
      "type": "function"
    },
    {
      "inputs": [
        {
          "components": [
            {
              "internalType": "bytes8",
              "name": "uid",
              "type": "bytes8"
            },
            {
              "internalType": "bytes8",
              "name": "bankGuaranteeUid",
              "type": "bytes8"
            },
            {
              "internalType": "string",
              "name": "paymentReference",
              "type": "string"
            },
            {
              "internalType": "string",
              "name": "procuringEntityGid",
              "type": "string"
            },
            {
              "internalType": "string",
              "name": "egpSystemId",
              "type": "string"
            },
            {
              "internalType": "string",
              "name": "vendorGid",
              "type": "string"
            },
            {
              "internalType": "string",
              "name": "bankGid",
              "type": "string"
            },
            {
              "internalType": "string",
              "name": "branchName",
              "type": "string"
            },
            {
              "internalType": "uint256",
              "name": "revocationDate",
              "type": "uint256"
            },
            {
              "internalType": "string",
              "name": "currency",
              "type": "string"
            },
            {
              "internalType": "uint256",
              "name": "revocationAmount",
              "type": "uint256"
            },
            {
              "internalType": "string",
              "name": "beneficiaryName",
              "type": "string"
            },
            {
              "internalType": "string",
              "name": "beneficiaryBankAccountNumber",
              "type": "string"
            },
            {
              "internalType": "string",
              "name": "beneficiaryBankName",
              "type": "string"
            },
            {
              "internalType": "string",
              "name": "beneficiaryBranchName",
              "type": "string"
            },
            {
              "internalType": "string",
              "name": "beneficiaryIfscCode",
              "type": "string"
            },
            {
              "internalType": "string",
              "name": "bgInvokeFileHash",
              "type": "string"
            },
            {
              "internalType": "uint16",
              "name": "version",
              "type": "uint16"
            }
          ],
          "internalType": "struct BankGuaranteeInvokeStructs.BankGuaranteeInvoke",
          "name": "_BankGuaranteeInvoke",
          "type": "tuple"
        },
        {
          "internalType": "uint256",
          "name": "_value",
          "type": "uint256"
        },
        {
          "internalType": "string",
          "name": "_referenceNumber",
          "type": "string"
        }
      ],
      "name": "setBankGuaranteeInvokeIndices",
      "outputs": [],
      "stateMutability": "nonpayable",
      "type": "function"
    }
  ],
  "bytecode": "0x608060405234801562000010575f80fd5b506040516200a0943803806200a0948339818101604052810190620000369190620001a4565b835f806101000a81548173ffffffffffffffffffffffffffffffffffffffff021916908373ffffffffffffffffffffffffffffffffffffffff1602179055508260015f6101000a81548173ffffffffffffffffffffffffffffffffffffffff021916908373ffffffffffffffffffffffffffffffffffffffff1602179055508160025f6101000a81548173ffffffffffffffffffffffffffffffffffffffff021916908373ffffffffffffffffffffffffffffffffffffffff1602179055508060035f6101000a81548173ffffffffffffffffffffffffffffffffffffffff021916908373ffffffffffffffffffffffffffffffffffffffff1602179055505050505062000213565b5f80fd5b5f73ffffffffffffffffffffffffffffffffffffffff82169050919050565b5f6200016e8262000143565b9050919050565b620001808162000162565b81146200018b575f80fd5b50565b5f815190506200019e8162000175565b92915050565b5f805f8060808587031215620001bf57620001be6200013f565b5b5f620001ce878288016200018e565b9450506020620001e1878288016200018e565b9350506040620001f4878288016200018e565b925050606062000207878288016200018e565b91505092959194509250565b619e7380620002215f395ff3fe608060405234801561000f575f80fd5b50600436106101f8575f3560e01c806377185a7911610118578063cfc6e51c116100ab578063e0ab5b921161007a578063e0ab5b92146106ba578063e71e9539146106ea578063ed9535dd1461071a578063f6cffcc71461074c578063f87ff51b1461077c576101f8565b8063cfc6e51c1461060e578063d2dcc8b81461063e578063d43501c71461066e578063dfb7a2d61461069e576101f8565b8063aeb1f81c116100e7578063aeb1f81c14610574578063b3a6bb0e146105a4578063b9aa318b146105ae578063cf32168e146105de576101f8565b806377185a79146104b25780637a79a445146104e257806392467d04146105145780639565a05a14610544576101f8565b806346ad95ca1161019057806361a1acec1161015f57806361a1acec146104145780637064dac71461043257806373302421146104645780637652238c14610480576101f8565b806346ad95ca1461036857806346b7afb4146103985780634d341561146103c8578063564f623e146103e4576101f8565b8063181305d1116101cc578063181305d1146102a857806328f96fd2146102d8578063368363e714610308578063436a740614610338576101f8565b8062236790146101fc578063049763c91461022c578063108d0c401461024857806310cdbca414610278575b5f80fd5b6102166004803603810190610211919061855a565b6107ae565b6040516102239190618594565b60405180910390f35b61024660048036038101906102419190618a8c565b610a41565b005b610262600480360381019061025d919061855a565b612256565b60405161026f9190618af5565b60405180910390f35b610292600480360381019061028d919061855a565b6124e9565b60405161029f9190618af5565b60405180910390f35b6102c260048036038101906102bd919061855a565b61277c565b6040516102cf9190618b88565b60405180910390f35b6102f260048036038101906102ed919061855a565b612a13565b6040516102ff9190618b88565b60405180910390f35b610322600480360381019061031d919061855a565b612caa565b60405161032f9190618b88565b60405180910390f35b610352600480360381019061034d919061855a565b612f41565b60405161035f9190618594565b60405180910390f35b610382600480360381019061037d919061855a565b6131d4565b60405161038f9190618b88565b60405180910390f35b6103b260048036038101906103ad919061855a565b61346b565b6040516103bf9190618b88565b60405180910390f35b6103e260048036038101906103dd9190618ba8565b613702565b005b6103fe60048036038101906103f9919061855a565b613c13565b60405161040b9190618b88565b60405180910390f35b61041c613eaa565b6040516104299190618594565b60405180910390f35b61044c60048036038101906104479190618be6565b613fb5565b60405161045b93929190618d09565b60405180910390f35b61047e60048036038101906104799190618ba8565b61431c565b005b61049a60048036038101906104959190618d45565b614552565b6040516104a993929190618d09565b60405180910390f35b6104cc60048036038101906104c79190618ba8565b61487f565b6040516104d99190618594565b60405180910390f35b6104fc60048036038101906104f79190618d95565b6149b0565b60405161050b939291906190c7565b60405180910390f35b61052e6004803603810190610529919061855a565b614aab565b60405161053b9190618b88565b60405180910390f35b61055e6004803603810190610559919061855a565b614d42565b60405161056b9190618b88565b60405180910390f35b61058e6004803603810190610589919061855a565b614fd9565b60405161059b9190618b88565b60405180910390f35b6105ac615270565b005b6105c860048036038101906105c3919061855a565b6154a0565b6040516105d59190619112565b60405180910390f35b6105f860048036038101906105f3919061855a565b615733565b6040516106059190618b88565b60405180910390f35b6106286004803603810190610623919061912b565b6159ca565b6040516106359190619156565b60405180910390f35b6106586004803603810190610653919061855a565b615ce2565b6040516106659190618b88565b60405180910390f35b6106886004803603810190610683919061855a565b615f79565b6040516106959190618b88565b60405180910390f35b6106b860048036038101906106b39190619176565b616210565b005b6106d460048036038101906106cf919061855a565b617270565b6040516106e19190618b88565b60405180910390f35b61070460048036038101906106ff919061912b565b617507565b6040516107119190618594565b60405180910390f35b610734600480360381019061072f9190618be6565b617616565b60405161074393929190618d09565b60405180910390f35b6107666004803603810190610761919061855a565b61797d565b60405161077391906193d1565b60405180910390f35b61079660048036038101906107919190618d45565b617c91565b6040516107a593929190618d09565b60405180910390f35b5f815f60015f9054906101000a900473ffffffffffffffffffffffffffffffffffffffff1673ffffffffffffffffffffffffffffffffffffffff16633bea27536040518060400160405280601e81526020017f42414e4b5f47554152414e5445455f52454c454153455f4d414e4147455200008152506040518060400160405280601d81526020017f6c6973745f5f62616e6b47756172616e746565496e766f6b654c6973740000008152506040518363ffffffff1660e01b81526004016108779291906193f1565b602060405180830381865afa158015610892573d5f803e3d5ffd5b505050506040513d601f19601f820116820180604052508101906108b6919061943a565b90508082106108fa576040517f08c379a00000000000000000000000000000000000000000000000000000000081526004016108f1906194af565b60405180910390fd5b60015f9054906101000a900473ffffffffffffffffffffffffffffffffffffffff1673ffffffffffffffffffffffffffffffffffffffff1663b83032bd6040518060400160405280601e81526020017f42414e4b5f47554152414e5445455f52454c454153455f4d414e4147455200008152506040518060400160405280601d81526020017f6c6973745f5f62616e6b47756172616e746565496e766f6b654c697374000000815250876040518060400160405280601081526020017f7265766f636174696f6e416d6f756e74000000000000000000000000000000008152506040518563ffffffff1660e01b81526004016109f994939291906194cd565b602060405180830381865afa158015610a14573d5f803e3d5ffd5b505050506040513d601f19601f82011682018060405250810190610a38919061943a565b92505050919050565b60035f9054906101000a900473ffffffffffffffffffffffffffffffffffffffff1673ffffffffffffffffffffffffffffffffffffffff1663ef02a3fc6040518060400160405280601e81526020017f42414e4b5f47554152414e5445455f52454c454153455f4d414e4147455200008152506040518263ffffffff1660e01b8152600401610ad09190618b88565b602060405180830381865afa158015610aeb573d5f803e3d5ffd5b505050506040513d601f19601f82011682018060405250810190610b0f919061957f565b73ffffffffffffffffffffffffffffffffffffffff163373ffffffffffffffffffffffffffffffffffffffff1614610b7c576040517f08c379a0000000000000000000000000000000000000000000000000000000008152600401610b73906195f4565b60405180910390fd5b815f60015f9054906101000a900473ffffffffffffffffffffffffffffffffffffffff1673ffffffffffffffffffffffffffffffffffffffff16633bea27536040518060400160405280601e81526020017f42414e4b5f47554152414e5445455f52454c454153455f4d414e4147455200008152506040518060400160405280601d81526020017f6c6973745f5f62616e6b47756172616e746565496e766f6b654c6973740000008152506040518363ffffffff1660e01b8152600401610c449291906193f1565b602060405180830381865afa158015610c5f573d5f803e3d5ffd5b505050506040513d601f19601f82011682018060405250810190610c83919061943a565b9050808210610cc7576040517f08c379a0000000000000000000000000000000000000000000000000000000008152600401610cbe906194af565b60405180910390fd5b60015f9054906101000a900473ffffffffffffffffffffffffffffffffffffffff1673ffffffffffffffffffffffffffffffffffffffff1663a06fd4546040518060400160405280601e81526020017f42414e4b5f47554152414e5445455f52454c454153455f4d414e4147455200008152506040518060400160405280601d81526020017f6c6973745f5f62616e6b47756172616e746565496e766f6b654c697374000000815250876040518060400160405280600381526020017f7569640000000000000000000000000000000000000000000000000000000000815250885f01516040518663ffffffff1660e01b8152600401610dcb959493929190619612565b5f604051808303815f87803b158015610de2575f80fd5b505af1158015610df4573d5f803e3d5ffd5b5050505060015f9054906101000a900473ffffffffffffffffffffffffffffffffffffffff1673ffffffffffffffffffffffffffffffffffffffff1663a06fd4546040518060400160405280601e81526020017f42414e4b5f47554152414e5445455f52454c454153455f4d414e4147455200008152506040518060400160405280601d81526020017f6c6973745f5f62616e6b47756172616e746565496e766f6b654c697374000000815250876040518060400160405280601081526020017f62616e6b47756172616e7465655569640000000000000000000000000000000081525088602001516040518663ffffffff1660e01b8152600401610efd959493929190619612565b5f604051808303815f87803b158015610f14575f80fd5b505af1158015610f26573d5f803e3d5ffd5b5050505060015f9054906101000a900473ffffffffffffffffffffffffffffffffffffffff1673ffffffffffffffffffffffffffffffffffffffff1663c8f1cd876040518060400160405280601e81526020017f42414e4b5f47554152414e5445455f52454c454153455f4d414e4147455200008152506040518060400160405280601d81526020017f6c6973745f5f62616e6b47756172616e746565496e766f6b654c697374000000815250876040518060400160405280601081526020017f7061796d656e745265666572656e63650000000000000000000000000000000081525088604001516040518663ffffffff1660e01b815260040161102f959493929190619678565b5f604051808303815f87803b158015611046575f80fd5b505af1158015611058573d5f803e3d5ffd5b5050505060015f9054906101000a900473ffffffffffffffffffffffffffffffffffffffff1673ffffffffffffffffffffffffffffffffffffffff1663c8f1cd876040518060400160405280601e81526020017f42414e4b5f47554152414e5445455f52454c454153455f4d414e4147455200008152506040518060400160405280601d81526020017f6c6973745f5f62616e6b47756172616e746565496e766f6b654c697374000000815250876040518060400160405280601281526020017f70726f637572696e67456e74697479476964000000000000000000000000000081525088606001516040518663ffffffff1660e01b8152600401611161959493929190619678565b5f604051808303815f87803b158015611178575f80fd5b505af115801561118a573d5f803e3d5ffd5b5050505060015f9054906101000a900473ffffffffffffffffffffffffffffffffffffffff1673ffffffffffffffffffffffffffffffffffffffff1663c8f1cd876040518060400160405280601e81526020017f42414e4b5f47554152414e5445455f52454c454153455f4d414e4147455200008152506040518060400160405280601d81526020017f6c6973745f5f62616e6b47756172616e746565496e766f6b654c697374000000815250876040518060400160405280600b81526020017f65677053797374656d496400000000000000000000000000000000000000000081525088608001516040518663ffffffff1660e01b8152600401611293959493929190619678565b5f604051808303815f87803b1580156112aa575f80fd5b505af11580156112bc573d5f803e3d5ffd5b5050505060015f9054906101000a900473ffffffffffffffffffffffffffffffffffffffff1673ffffffffffffffffffffffffffffffffffffffff1663c8f1cd876040518060400160405280601e81526020017f42414e4b5f47554152414e5445455f52454c454153455f4d414e4147455200008152506040518060400160405280601d81526020017f6c6973745f5f62616e6b47756172616e746565496e766f6b654c697374000000815250876040518060400160405280600981526020017f76656e646f7247696400000000000000000000000000000000000000000000008152508860a001516040518663ffffffff1660e01b81526004016113c5959493929190619678565b5f604051808303815f87803b1580156113dc575f80fd5b505af11580156113ee573d5f803e3d5ffd5b5050505060015f9054906101000a900473ffffffffffffffffffffffffffffffffffffffff1673ffffffffffffffffffffffffffffffffffffffff1663c8f1cd876040518060400160405280601e81526020017f42414e4b5f47554152414e5445455f52454c454153455f4d414e4147455200008152506040518060400160405280601d81526020017f6c6973745f5f62616e6b47756172616e746565496e766f6b654c697374000000815250876040518060400160405280600781526020017f62616e6b476964000000000000000000000000000000000000000000000000008152508860c001516040518663ffffffff1660e01b81526004016114f7959493929190619678565b5f604051808303815f87803b15801561150e575f80fd5b505af1158015611520573d5f803e3d5ffd5b5050505060015f9054906101000a900473ffffffffffffffffffffffffffffffffffffffff1673ffffffffffffffffffffffffffffffffffffffff1663c8f1cd876040518060400160405280601e81526020017f42414e4b5f47554152414e5445455f52454c454153455f4d414e4147455200008152506040518060400160405280601d81526020017f6c6973745f5f62616e6b47756172616e746565496e766f6b654c697374000000815250876040518060400160405280600a81526020017f6272616e63684e616d65000000000000000000000000000000000000000000008152508860e001516040518663ffffffff1660e01b8152600401611629959493929190619678565b5f604051808303815f87803b158015611640575f80fd5b505af1158015611652573d5f803e3d5ffd5b5050505060015f9054906101000a900473ffffffffffffffffffffffffffffffffffffffff1673ffffffffffffffffffffffffffffffffffffffff16637f02dd826040518060400160405280601e81526020017f42414e4b5f47554152414e5445455f52454c454153455f4d414e4147455200008152506040518060400160405280601d81526020017f6c6973745f5f62616e6b47756172616e746565496e766f6b654c697374000000815250876040518060400160405280600e81526020017f7265766f636174696f6e446174650000000000000000000000000000000000008152508861010001516040518663ffffffff1660e01b815260040161175c9594939291906196e5565b5f604051808303815f87803b158015611773575f80fd5b505af1158015611785573d5f803e3d5ffd5b5050505060015f9054906101000a900473ffffffffffffffffffffffffffffffffffffffff1673ffffffffffffffffffffffffffffffffffffffff1663c8f1cd876040518060400160405280601e81526020017f42414e4b5f47554152414e5445455f52454c454153455f4d414e4147455200008152506040518060400160405280601d81526020017f6c6973745f5f62616e6b47756172616e746565496e766f6b654c697374000000815250876040518060400160405280600e81526020017f696e766f6b6563757272656e63790000000000000000000000000000000000008152508861012001516040518663ffffffff1660e01b815260040161188f959493929190619678565b5f604051808303815f87803b1580156118a6575f80fd5b505af11580156118b8573d5f803e3d5ffd5b5050505060015f9054906101000a900473ffffffffffffffffffffffffffffffffffffffff1673ffffffffffffffffffffffffffffffffffffffff16637f02dd826040518060400160405280601e81526020017f42414e4b5f47554152414e5445455f52454c454153455f4d414e4147455200008152506040518060400160405280601d81526020017f6c6973745f5f62616e6b47756172616e746565496e766f6b654c697374000000815250876040518060400160405280601081526020017f7265766f636174696f6e416d6f756e74000000000000000000000000000000008152508861014001516040518663ffffffff1660e01b81526004016119c29594939291906196e5565b5f604051808303815f87803b1580156119d9575f80fd5b505af11580156119eb573d5f803e3d5ffd5b5050505060015f9054906101000a900473ffffffffffffffffffffffffffffffffffffffff1673ffffffffffffffffffffffffffffffffffffffff1663c8f1cd876040518060400160405280601e81526020017f42414e4b5f47554152414e5445455f52454c454153455f4d414e4147455200008152506040518060400160405280601d81526020017f6c6973745f5f62616e6b47756172616e746565496e766f6b654c697374000000815250876040518060400160405280600f81526020017f62656e65666963696172794e616d6500000000000000000000000000000000008152508861016001516040518663ffffffff1660e01b8152600401611af5959493929190619678565b5f604051808303815f87803b158015611b0c575f80fd5b505af1158015611b1e573d5f803e3d5ffd5b5050505060015f9054906101000a900473ffffffffffffffffffffffffffffffffffffffff1673ffffffffffffffffffffffffffffffffffffffff1663c8f1cd876040518060400160405280601e81526020017f42414e4b5f47554152414e5445455f52454c454153455f4d414e4147455200008152506040518060400160405280601d81526020017f6c6973745f5f62616e6b47756172616e746565496e766f6b654c697374000000815250876040518060400160405280601c81526020017f62656e656669636961727942616e6b4163636f756e744e756d626572000000008152508861018001516040518663ffffffff1660e01b8152600401611c28959493929190619678565b5f604051808303815f87803b158015611c3f575f80fd5b505af1158015611c51573d5f803e3d5ffd5b5050505060015f9054906101000a900473ffffffffffffffffffffffffffffffffffffffff1673ffffffffffffffffffffffffffffffffffffffff1663c8f1cd876040518060400160405280601e81526020017f42414e4b5f47554152414e5445455f52454c454153455f4d414e4147455200008152506040518060400160405280601d81526020017f6c6973745f5f62616e6b47756172616e746565496e766f6b654c697374000000815250876040518060400160405280601381526020017f62656e656669636961727942616e6b4e616d6500000000000000000000000000815250886101a001516040518663ffffffff1660e01b8152600401611d5b959493929190619678565b5f604051808303815f87803b158015611d72575f80fd5b505af1158015611d84573d5f803e3d5ffd5b5050505060015f9054906101000a900473ffffffffffffffffffffffffffffffffffffffff1673ffffffffffffffffffffffffffffffffffffffff1663c8f1cd876040518060400160405280601e81526020017f42414e4b5f47554152414e5445455f52454c454153455f4d414e4147455200008152506040518060400160405280601d81526020017f6c6973745f5f62616e6b47756172616e746565496e766f6b654c697374000000815250876040518060400160405280601581526020017f62656e65666963696172794272616e63684e616d650000000000000000000000815250886101c001516040518663ffffffff1660e01b8152600401611e8e959493929190619678565b5f604051808303815f87803b158015611ea5575f80fd5b505af1158015611eb7573d5f803e3d5ffd5b5050505060015f9054906101000a900473ffffffffffffffffffffffffffffffffffffffff1673ffffffffffffffffffffffffffffffffffffffff1663c8f1cd876040518060400160405280601e81526020017f42414e4b5f47554152414e5445455f52454c454153455f4d414e4147455200008152506040518060400160405280601d81526020017f6c6973745f5f62616e6b47756172616e746565496e766f6b654c697374000000815250876040518060400160405280601381526020017f62656e656669636961727949667363436f646500000000000000000000000000815250886101e001516040518663ffffffff1660e01b8152600401611fc1959493929190619678565b5f604051808303815f87803b158015611fd8575f80fd5b505af1158015611fea573d5f803e3d5ffd5b5050505060015f9054906101000a900473ffffffffffffffffffffffffffffffffffffffff1673ffffffffffffffffffffffffffffffffffffffff1663c8f1cd876040518060400160405280601e81526020017f42414e4b5f47554152414e5445455f52454c454153455f4d414e4147455200008152506040518060400160405280601d81526020017f6c6973745f5f62616e6b47756172616e746565496e766f6b654c697374000000815250876040518060400160405280601081526020017f6267496e766f6b6546696c6548617368000000000000000000000000000000008152508861020001516040518663ffffffff1660e01b81526004016120f4959493929190619678565b5f604051808303815f87803b15801561210b575f80fd5b505af115801561211d573d5f803e3d5ffd5b5050505060015f9054906101000a900473ffffffffffffffffffffffffffffffffffffffff1673ffffffffffffffffffffffffffffffffffffffff1663c4f188576040518060400160405280601e81526020017f42414e4b5f47554152414e5445455f52454c454153455f4d414e4147455200008152506040518060400160405280601d81526020017f6c6973745f5f62616e6b47756172616e746565496e766f6b654c697374000000815250876040518060400160405280600781526020017f76657273696f6e0000000000000000000000000000000000000000000000000081525060016040518663ffffffff1660e01b815260040161222395949392919061974b565b5f604051808303815f87803b15801561223a575f80fd5b505af115801561224c573d5f803e3d5ffd5b5050505050505050565b5f815f60015f9054906101000a900473ffffffffffffffffffffffffffffffffffffffff1673ffffffffffffffffffffffffffffffffffffffff16633bea27536040518060400160405280601e81526020017f42414e4b5f47554152414e5445455f52454c454153455f4d414e4147455200008152506040518060400160405280601d81526020017f6c6973745f5f62616e6b47756172616e746565496e766f6b654c6973740000008152506040518363ffffffff1660e01b815260040161231f9291906193f1565b602060405180830381865afa15801561233a573d5f803e3d5ffd5b505050506040513d601f19601f8201168201806040525081019061235e919061943a565b90508082106123a2576040517f08c379a0000000000000000000000000000000000000000000000000000000008152600401612399906194af565b60405180910390fd5b60015f9054906101000a900473ffffffffffffffffffffffffffffffffffffffff1673ffffffffffffffffffffffffffffffffffffffff16634bcbf1fb6040518060400160405280601e81526020017f42414e4b5f47554152414e5445455f52454c454153455f4d414e4147455200008152506040518060400160405280601d81526020017f6c6973745f5f62616e6b47756172616e746565496e766f6b654c697374000000815250876040518060400160405280601081526020017f62616e6b47756172616e746565556964000000000000000000000000000000008152506040518563ffffffff1660e01b81526004016124a194939291906194cd565b602060405180830381865afa1580156124bc573d5f803e3d5ffd5b505050506040513d601f19601f820116820180604052508101906124e091906197c5565b92505050919050565b5f815f60015f9054906101000a900473ffffffffffffffffffffffffffffffffffffffff1673ffffffffffffffffffffffffffffffffffffffff16633bea27536040518060400160405280601e81526020017f42414e4b5f47554152414e5445455f52454c454153455f4d414e4147455200008152506040518060400160405280601d81526020017f6c6973745f5f62616e6b47756172616e746565496e766f6b654c6973740000008152506040518363ffffffff1660e01b81526004016125b29291906193f1565b602060405180830381865afa1580156125cd573d5f803e3d5ffd5b505050506040513d601f19601f820116820180604052508101906125f1919061943a565b9050808210612635576040517f08c379a000000000000000000000000000000000000000000000000000000000815260040161262c906194af565b60405180910390fd5b60015f9054906101000a900473ffffffffffffffffffffffffffffffffffffffff1673ffffffffffffffffffffffffffffffffffffffff16634bcbf1fb6040518060400160405280601e81526020017f42414e4b5f47554152414e5445455f52454c454153455f4d414e4147455200008152506040518060400160405280601d81526020017f6c6973745f5f62616e6b47756172616e746565496e766f6b654c697374000000815250876040518060400160405280600381526020017f75696400000000000000000000000000000000000000000000000000000000008152506040518563ffffffff1660e01b815260040161273494939291906194cd565b602060405180830381865afa15801561274f573d5f803e3d5ffd5b505050506040513d601f19601f8201168201806040525081019061277391906197c5565b92505050919050565b6060815f60015f9054906101000a900473ffffffffffffffffffffffffffffffffffffffff1673ffffffffffffffffffffffffffffffffffffffff16633bea27536040518060400160405280601e81526020017f42414e4b5f47554152414e5445455f52454c454153455f4d414e4147455200008152506040518060400160405280601d81526020017f6c6973745f5f62616e6b47756172616e746565496e766f6b654c6973740000008152506040518363ffffffff1660e01b81526004016128469291906193f1565b602060405180830381865afa158015612861573d5f803e3d5ffd5b505050506040513d601f19601f82011682018060405250810190612885919061943a565b90508082106128c9576040517f08c379a00000000000000000000000000000000000000000000000000000000081526004016128c0906194af565b60405180910390fd5b60015f9054906101000a900473ffffffffffffffffffffffffffffffffffffffff1673ffffffffffffffffffffffffffffffffffffffff16632136448c6040518060400160405280601e81526020017f42414e4b5f47554152414e5445455f52454c454153455f4d414e4147455200008152506040518060400160405280601d81526020017f6c6973745f5f62616e6b47756172616e746565496e766f6b654c697374000000815250876040518060400160405280601381526020017f62656e656669636961727942616e6b4e616d65000000000000000000000000008152506040518563ffffffff1660e01b81526004016129c894939291906194cd565b5f60405180830381865afa1580156129e2573d5f803e3d5ffd5b505050506040513d5f823e3d601f19601f82011682018060405250810190612a0a919061985e565b92505050919050565b6060815f60015f9054906101000a900473ffffffffffffffffffffffffffffffffffffffff1673ffffffffffffffffffffffffffffffffffffffff16633bea27536040518060400160405280601e81526020017f42414e4b5f47554152414e5445455f52454c454153455f4d414e4147455200008152506040518060400160405280601d81526020017f6c6973745f5f62616e6b47756172616e746565496e766f6b654c6973740000008152506040518363ffffffff1660e01b8152600401612add9291906193f1565b602060405180830381865afa158015612af8573d5f803e3d5ffd5b505050506040513d601f19601f82011682018060405250810190612b1c919061943a565b9050808210612b60576040517f08c379a0000000000000000000000000000000000000000000000000000000008152600401612b57906194af565b60405180910390fd5b60015f9054906101000a900473ffffffffffffffffffffffffffffffffffffffff1673ffffffffffffffffffffffffffffffffffffffff16632136448c6040518060400160405280601e81526020017f42414e4b5f47554152414e5445455f52454c454153455f4d414e4147455200008152506040518060400160405280601d81526020017f6c6973745f5f62616e6b47756172616e746565496e766f6b654c697374000000815250876040518060400160405280600b81526020017f65677053797374656d49640000000000000000000000000000000000000000008152506040518563ffffffff1660e01b8152600401612c5f94939291906194cd565b5f60405180830381865afa158015612c79573d5f803e3d5ffd5b505050506040513d5f823e3d601f19601f82011682018060405250810190612ca1919061985e565b92505050919050565b6060815f60015f9054906101000a900473ffffffffffffffffffffffffffffffffffffffff1673ffffffffffffffffffffffffffffffffffffffff16633bea27536040518060400160405280601e81526020017f42414e4b5f47554152414e5445455f52454c454153455f4d414e4147455200008152506040518060400160405280601d81526020017f6c6973745f5f62616e6b47756172616e746565496e766f6b654c6973740000008152506040518363ffffffff1660e01b8152600401612d749291906193f1565b602060405180830381865afa158015612d8f573d5f803e3d5ffd5b505050506040513d601f19601f82011682018060405250810190612db3919061943a565b9050808210612df7576040517f08c379a0000000000000000000000000000000000000000000000000000000008152600401612dee906194af565b60405180910390fd5b60015f9054906101000a900473ffffffffffffffffffffffffffffffffffffffff1673ffffffffffffffffffffffffffffffffffffffff16632136448c6040518060400160405280601e81526020017f42414e4b5f47554152414e5445455f52454c454153455f4d414e4147455200008152506040518060400160405280601d81526020017f6c6973745f5f62616e6b47756172616e746565496e766f6b654c697374000000815250876040518060400160405280600781526020017f62616e6b476964000000000000000000000000000000000000000000000000008152506040518563ffffffff1660e01b8152600401612ef694939291906194cd565b5f60405180830381865afa158015612f10573d5f803e3d5ffd5b505050506040513d5f823e3d601f19601f82011682018060405250810190612f38919061985e565b92505050919050565b5f815f60015f9054906101000a900473ffffffffffffffffffffffffffffffffffffffff1673ffffffffffffffffffffffffffffffffffffffff16633bea27536040518060400160405280601e81526020017f42414e4b5f47554152414e5445455f52454c454153455f4d414e4147455200008152506040518060400160405280601d81526020017f6c6973745f5f62616e6b47756172616e746565496e766f6b654c6973740000008152506040518363ffffffff1660e01b815260040161300a9291906193f1565b602060405180830381865afa158015613025573d5f803e3d5ffd5b505050506040513d601f19601f82011682018060405250810190613049919061943a565b905080821061308d576040517f08c379a0000000000000000000000000000000000000000000000000000000008152600401613084906194af565b60405180910390fd5b60015f9054906101000a900473ffffffffffffffffffffffffffffffffffffffff1673ffffffffffffffffffffffffffffffffffffffff1663b83032bd6040518060400160405280601e81526020017f42414e4b5f47554152414e5445455f52454c454153455f4d414e4147455200008152506040518060400160405280601d81526020017f6c6973745f5f62616e6b47756172616e746565496e766f6b654c697374000000815250876040518060400160405280600e81526020017f7265766f636174696f6e446174650000000000000000000000000000000000008152506040518563ffffffff1660e01b815260040161318c94939291906194cd565b602060405180830381865afa1580156131a7573d5f803e3d5ffd5b505050506040513d601f19601f820116820180604052508101906131cb919061943a565b92505050919050565b6060815f60015f9054906101000a900473ffffffffffffffffffffffffffffffffffffffff1673ffffffffffffffffffffffffffffffffffffffff16633bea27536040518060400160405280601e81526020017f42414e4b5f47554152414e5445455f52454c454153455f4d414e4147455200008152506040518060400160405280601d81526020017f6c6973745f5f62616e6b47756172616e746565496e766f6b654c6973740000008152506040518363ffffffff1660e01b815260040161329e9291906193f1565b602060405180830381865afa1580156132b9573d5f803e3d5ffd5b505050506040513d601f19601f820116820180604052508101906132dd919061943a565b9050808210613321576040517f08c379a0000000000000000000000000000000000000000000000000000000008152600401613318906194af565b60405180910390fd5b60015f9054906101000a900473ffffffffffffffffffffffffffffffffffffffff1673ffffffffffffffffffffffffffffffffffffffff16632136448c6040518060400160405280601e81526020017f42414e4b5f47554152414e5445455f52454c454153455f4d414e4147455200008152506040518060400160405280601d81526020017f6c6973745f5f62616e6b47756172616e746565496e766f6b654c697374000000815250876040518060400160405280601081526020017f7061796d656e745265666572656e6365000000000000000000000000000000008152506040518563ffffffff1660e01b815260040161342094939291906194cd565b5f60405180830381865afa15801561343a573d5f803e3d5ffd5b505050506040513d5f823e3d601f19601f82011682018060405250810190613462919061985e565b92505050919050565b6060815f60015f9054906101000a900473ffffffffffffffffffffffffffffffffffffffff1673ffffffffffffffffffffffffffffffffffffffff16633bea27536040518060400160405280601e81526020017f42414e4b5f47554152414e5445455f52454c454153455f4d414e4147455200008152506040518060400160405280601d81526020017f6c6973745f5f62616e6b47756172616e746565496e766f6b654c6973740000008152506040518363ffffffff1660e01b81526004016135359291906193f1565b602060405180830381865afa158015613550573d5f803e3d5ffd5b505050506040513d601f19601f82011682018060405250810190613574919061943a565b90508082106135b8576040517f08c379a00000000000000000000000000000000000000000000000000000000081526004016135af906194af565b60405180910390fd5b60015f9054906101000a900473ffffffffffffffffffffffffffffffffffffffff1673ffffffffffffffffffffffffffffffffffffffff16632136448c6040518060400160405280601e81526020017f42414e4b5f47554152414e5445455f52454c454153455f4d414e4147455200008152506040518060400160405280601d81526020017f6c6973745f5f62616e6b47756172616e746565496e766f6b654c697374000000815250876040518060400160405280601381526020017f62656e656669636961727949667363436f6465000000000000000000000000008152506040518563ffffffff1660e01b81526004016136b794939291906194cd565b5f60405180830381865afa1580156136d1573d5f803e3d5ffd5b505050506040513d5f823e3d601f19601f820116820180604052508101906136f9919061985e565b92505050919050565b60035f9054906101000a900473ffffffffffffffffffffffffffffffffffffffff1673ffffffffffffffffffffffffffffffffffffffff1663ef02a3fc6040518060400160405280601e81526020017f42414e4b5f47554152414e5445455f52454c454153455f4d414e4147455200008152506040518263ffffffff1660e01b81526004016137919190618b88565b602060405180830381865afa1580156137ac573d5f803e3d5ffd5b505050506040513d601f19601f820116820180604052508101906137d0919061957f565b73ffffffffffffffffffffffffffffffffffffffff163373ffffffffffffffffffffffffffffffffffffffff161461383d576040517f08c379a0000000000000000000000000000000000000000000000000000000008152600401613834906195f4565b60405180910390fd5b5f60025f9054906101000a900473ffffffffffffffffffffffffffffffffffffffff1673ffffffffffffffffffffffffffffffffffffffff1663bfa9f3eb6040518060400160405280601e81526020017f42414e4b5f47554152414e5445455f52454c454153455f4d414e4147455200008152506040518060400160405280601d81526020017f6d61705f5f6267496e766f6b65496e6465784c69737442794267556964000000815250866040518060400160405280600881526020017f5f5f6c656e67746800000000000000000000000000000000000000000000000081525060405160200161392e91906198df565b6040516020818303038152906040526040518563ffffffff1660e01b815260040161395c9493929190619947565b602060405180830381865afa158015613977573d5f803e3d5ffd5b505050506040513d601f19601f8201168201806040525081019061399b919061943a565b905060025f9054906101000a900473ffffffffffffffffffffffffffffffffffffffff1673ffffffffffffffffffffffffffffffffffffffff1663cf1e8bd86040518060400160405280601e81526020017f42414e4b5f47554152414e5445455f52454c454153455f4d414e4147455200008152506040518060400160405280601d81526020017f6d61705f5f6267496e766f6b65496e6465784c697374427942675569640000008152508685604051602001613a5891906199bf565b604051602081830303815290604052876040518663ffffffff1660e01b8152600401613a889594939291906199d9565b5f604051808303815f87803b158015613a9f575f80fd5b505af1158015613ab1573d5f803e3d5ffd5b5050505060025f9054906101000a900473ffffffffffffffffffffffffffffffffffffffff1673ffffffffffffffffffffffffffffffffffffffff1663cf1e8bd86040518060400160405280601e81526020017f42414e4b5f47554152414e5445455f52454c454153455f4d414e4147455200008152506040518060400160405280601d81526020017f6d61705f5f6267496e766f6b65496e6465784c69737442794267556964000000815250866040518060400160405280600881526020017f5f5f6c656e677468000000000000000000000000000000000000000000000000815250604051602001613ba591906198df565b604051602081830303815290604052866001613bc19190619a6c565b6040518663ffffffff1660e01b8152600401613be19594939291906199d9565b5f604051808303815f87803b158015613bf8575f80fd5b505af1158015613c0a573d5f803e3d5ffd5b50505050505050565b6060815f60015f9054906101000a900473ffffffffffffffffffffffffffffffffffffffff1673ffffffffffffffffffffffffffffffffffffffff16633bea27536040518060400160405280601e81526020017f42414e4b5f47554152414e5445455f52454c454153455f4d414e4147455200008152506040518060400160405280601d81526020017f6c6973745f5f62616e6b47756172616e746565496e766f6b654c6973740000008152506040518363ffffffff1660e01b8152600401613cdd9291906193f1565b602060405180830381865afa158015613cf8573d5f803e3d5ffd5b505050506040513d601f19601f82011682018060405250810190613d1c919061943a565b9050808210613d60576040517f08c379a0000000000000000000000000000000000000000000000000000000008152600401613d57906194af565b60405180910390fd5b60015f9054906101000a900473ffffffffffffffffffffffffffffffffffffffff1673ffffffffffffffffffffffffffffffffffffffff16632136448c6040518060400160405280601e81526020017f42414e4b5f47554152414e5445455f52454c454153455f4d414e4147455200008152506040518060400160405280601d81526020017f6c6973745f5f62616e6b47756172616e746565496e766f6b654c697374000000815250876040518060400160405280601081526020017f6267496e766f6b6546696c6548617368000000000000000000000000000000008152506040518563ffffffff1660e01b8152600401613e5f94939291906194cd565b5f60405180830381865afa158015613e79573d5f803e3d5ffd5b505050506040513d5f823e3d601f19601f82011682018060405250810190613ea1919061985e565b92505050919050565b5f60015f9054906101000a900473ffffffffffffffffffffffffffffffffffffffff1673ffffffffffffffffffffffffffffffffffffffff16633bea27536040518060400160405280601e81526020017f42414e4b5f47554152414e5445455f52454c454153455f4d414e4147455200008152506040518060400160405280601d81526020017f6c6973745f5f62616e6b47756172616e746565496e766f6b654c6973740000008152506040518363ffffffff1660e01b8152600401613f719291906193f1565b602060405180830381865afa158015613f8c573d5f803e3d5ffd5b505050506040513d601f19601f82011682018060405250810190613fb0919061943a565b905090565b60605f805f60025f9054906101000a900473ffffffffffffffffffffffffffffffffffffffff1673ffffffffffffffffffffffffffffffffffffffff16632f79e1026040518060400160405280601e81526020017f42414e4b5f47554152414e5445455f52454c454153455f4d414e4147455200008152506040518060400160405280601881526020017f6d61705f5f6267496e766f6b654c6973744279456770494400000000000000008152508a6040518060400160405280600881526020017f5f5f6c656e6774680000000000000000000000000000000000000000000000008152506040516020016140aa91906198df565b6040516020818303038152906040526040518563ffffffff1660e01b81526004016140d89493929190619a9f565b602060405180830381865afa1580156140f3573d5f803e3d5ffd5b505050506040513d601f19601f82011682018060405250810190614117919061943a565b905080861115614125578095505b5f8686116141335785614135565b865b90508067ffffffffffffffff811115614151576141506185c1565b5b60405190808252806020026020018201604052801561417f5781602001602082028036833780820191505090505b5094505b5f81111561430b57808061419690619afe565b91505086806141a490619afe565b97505060025f9054906101000a900473ffffffffffffffffffffffffffffffffffffffff1673ffffffffffffffffffffffffffffffffffffffff16632f79e1026040518060400160405280601e81526020017f42414e4b5f47554152414e5445455f52454c454153455f4d414e4147455200008152506040518060400160405280601881526020017f6d61705f5f6267496e766f6b654c6973744279456770494400000000000000008152508b8b60405160200161426291906199bf565b6040516020818303038152906040526040518563ffffffff1660e01b81526004016142909493929190619a9f565b602060405180830381865afa1580156142ab573d5f803e3d5ffd5b505050506040513d601f19601f820116820180604052508101906142cf919061943a565b8560018388516142df9190619b25565b6142e99190619b25565b815181106142fa576142f9619b58565b5b602002602001018181525050614183565b869350819250505093509350939050565b60035f9054906101000a900473ffffffffffffffffffffffffffffffffffffffff1673ffffffffffffffffffffffffffffffffffffffff1663ef02a3fc6040518060400160405280601e81526020017f42414e4b5f47554152414e5445455f52454c454153455f4d414e4147455200008152506040518263ffffffff1660e01b81526004016143ab9190618b88565b602060405180830381865afa1580156143c6573d5f803e3d5ffd5b505050506040513d601f19601f820116820180604052508101906143ea919061957f565b73ffffffffffffffffffffffffffffffffffffffff163373ffffffffffffffffffffffffffffffffffffffff1614614457576040517f08c379a000000000000000000000000000000000000000000000000000000000815260040161444e906195f4565b60405180910390fd5b60025f9054906101000a900473ffffffffffffffffffffffffffffffffffffffff1673ffffffffffffffffffffffffffffffffffffffff1663177d63616040518060400160405280601e81526020017f42414e4b5f47554152414e5445455f52454c454153455f4d414e4147455200008152506040518060400160405280601d81526020017f6d61705f5f62616e6b47756172616e746565496e766f6b65496e64657800000081525085856040518563ffffffff1660e01b81526004016145219493929190619b85565b5f604051808303815f87803b158015614538575f80fd5b505af115801561454a573d5f803e3d5ffd5b505050505050565b60605f805f60025f9054906101000a900473ffffffffffffffffffffffffffffffffffffffff1673ffffffffffffffffffffffffffffffffffffffff1663bfa9f3eb6040518060400160405280601e81526020017f42414e4b5f47554152414e5445455f52454c454153455f4d414e414745520000815250604051806060016040528060228152602001619dd8602291398a6040518060400160405280600881526020017f5f5f6c656e67746800000000000000000000000000000000000000000000000081525060405160200161462a91906198df565b6040516020818303038152906040526040518563ffffffff1660e01b81526004016146589493929190619947565b602060405180830381865afa158015614673573d5f803e3d5ffd5b505050506040513d601f19601f82011682018060405250810190614697919061943a565b9050808611156146a5578095505b5f8686116146b357856146b5565b865b90508067ffffffffffffffff8111156146d1576146d06185c1565b5b6040519080825280602002602001820160405280156146ff5781602001602082028036833780820191505090505b5094505b5f81111561486e57808061471690619afe565b915050868061472490619afe565b97505060025f9054906101000a900473ffffffffffffffffffffffffffffffffffffffff1673ffffffffffffffffffffffffffffffffffffffff1663bfa9f3eb6040518060400160405280601e81526020017f42414e4b5f47554152414e5445455f52454c454153455f4d414e414745520000815250604051806060016040528060228152602001619dd8602291398b8b6040516020016147c591906199bf565b6040516020818303038152906040526040518563ffffffff1660e01b81526004016147f39493929190619947565b602060405180830381865afa15801561480e573d5f803e3d5ffd5b505050506040513d601f19601f82011682018060405250810190614832919061943a565b8560018388516148429190619b25565b61484c9190619b25565b8151811061485d5761485c619b58565b5b602002602001018181525050614703565b869350819250505093509350939050565b5f60025f9054906101000a900473ffffffffffffffffffffffffffffffffffffffff1673ffffffffffffffffffffffffffffffffffffffff1663bfa9f3eb6040518060400160405280601e81526020017f42414e4b5f47554152414e5445455f52454c454153455f4d414e4147455200008152506040518060400160405280601f81526020017f6d61705f5f6d6170426752656c65617365416e64496e766f6b65427955696400815250868660405160200161493b91906199bf565b6040516020818303038152906040526040518563ffffffff1660e01b81526004016149699493929190619947565b602060405180830381865afa158015614984573d5f803e3d5ffd5b505050506040513d601f19601f820116820180604052508101906149a8919061943a565b905092915050565b60605f805f6149bd613eaa565b9050808611156149cb578095505b5f8686116149d957856149db565b865b90508067ffffffffffffffff8111156149f7576149f66185c1565b5b604051908082528060200260200182016040528015614a3057816020015b614a1d618456565b815260200190600190039081614a155790505b5094505b5f811115614a9c578080614a4790619afe565b9150508680614a5590619afe565b975050614a618761797d565b856001838851614a719190619b25565b614a7b9190619b25565b81518110614a8c57614a8b619b58565b5b6020026020010181905250614a34565b86935081925050509250925092565b6060815f60015f9054906101000a900473ffffffffffffffffffffffffffffffffffffffff1673ffffffffffffffffffffffffffffffffffffffff16633bea27536040518060400160405280601e81526020017f42414e4b5f47554152414e5445455f52454c454153455f4d414e4147455200008152506040518060400160405280601d81526020017f6c6973745f5f62616e6b47756172616e746565496e766f6b654c6973740000008152506040518363ffffffff1660e01b8152600401614b759291906193f1565b602060405180830381865afa158015614b90573d5f803e3d5ffd5b505050506040513d601f19601f82011682018060405250810190614bb4919061943a565b9050808210614bf8576040517f08c379a0000000000000000000000000000000000000000000000000000000008152600401614bef906194af565b60405180910390fd5b60015f9054906101000a900473ffffffffffffffffffffffffffffffffffffffff1673ffffffffffffffffffffffffffffffffffffffff16632136448c6040518060400160405280601e81526020017f42414e4b5f47554152414e5445455f52454c454153455f4d414e4147455200008152506040518060400160405280601d81526020017f6c6973745f5f62616e6b47756172616e746565496e766f6b654c697374000000815250876040518060400160405280600f81526020017f62656e65666963696172794e616d6500000000000000000000000000000000008152506040518563ffffffff1660e01b8152600401614cf794939291906194cd565b5f60405180830381865afa158015614d11573d5f803e3d5ffd5b505050506040513d5f823e3d601f19601f82011682018060405250810190614d39919061985e565b92505050919050565b6060815f60015f9054906101000a900473ffffffffffffffffffffffffffffffffffffffff1673ffffffffffffffffffffffffffffffffffffffff16633bea27536040518060400160405280601e81526020017f42414e4b5f47554152414e5445455f52454c454153455f4d414e4147455200008152506040518060400160405280601d81526020017f6c6973745f5f62616e6b47756172616e746565496e766f6b654c6973740000008152506040518363ffffffff1660e01b8152600401614e0c9291906193f1565b602060405180830381865afa158015614e27573d5f803e3d5ffd5b505050506040513d601f19601f82011682018060405250810190614e4b919061943a565b9050808210614e8f576040517f08c379a0000000000000000000000000000000000000000000000000000000008152600401614e86906194af565b60405180910390fd5b60015f9054906101000a900473ffffffffffffffffffffffffffffffffffffffff1673ffffffffffffffffffffffffffffffffffffffff16632136448c6040518060400160405280601e81526020017f42414e4b5f47554152414e5445455f52454c454153455f4d414e4147455200008152506040518060400160405280601d81526020017f6c6973745f5f62616e6b47756172616e746565496e766f6b654c697374000000815250876040518060400160405280600981526020017f76656e646f7247696400000000000000000000000000000000000000000000008152506040518563ffffffff1660e01b8152600401614f8e94939291906194cd565b5f60405180830381865afa158015614fa8573d5f803e3d5ffd5b505050506040513d5f823e3d601f19601f82011682018060405250810190614fd0919061985e565b92505050919050565b6060815f60015f9054906101000a900473ffffffffffffffffffffffffffffffffffffffff1673ffffffffffffffffffffffffffffffffffffffff16633bea27536040518060400160405280601e81526020017f42414e4b5f47554152414e5445455f52454c454153455f4d414e4147455200008152506040518060400160405280601d81526020017f6c6973745f5f62616e6b47756172616e746565496e766f6b654c6973740000008152506040518363ffffffff1660e01b81526004016150a39291906193f1565b602060405180830381865afa1580156150be573d5f803e3d5ffd5b505050506040513d601f19601f820116820180604052508101906150e2919061943a565b9050808210615126576040517f08c379a000000000000000000000000000000000000000000000000000000000815260040161511d906194af565b60405180910390fd5b60015f9054906101000a900473ffffffffffffffffffffffffffffffffffffffff1673ffffffffffffffffffffffffffffffffffffffff16632136448c6040518060400160405280601e81526020017f42414e4b5f47554152414e5445455f52454c454153455f4d414e4147455200008152506040518060400160405280601d81526020017f6c6973745f5f62616e6b47756172616e746565496e766f6b654c697374000000815250876040518060400160405280601c81526020017f62656e656669636961727942616e6b4163636f756e744e756d626572000000008152506040518563ffffffff1660e01b815260040161522594939291906194cd565b5f60405180830381865afa15801561523f573d5f803e3d5ffd5b505050506040513d5f823e3d601f19601f82011682018060405250810190615267919061985e565b92505050919050565b60035f9054906101000a900473ffffffffffffffffffffffffffffffffffffffff1673ffffffffffffffffffffffffffffffffffffffff1663ef02a3fc6040518060400160405280601e81526020017f42414e4b5f47554152414e5445455f52454c454153455f4d414e4147455200008152506040518263ffffffff1660e01b81526004016152ff9190618b88565b602060405180830381865afa15801561531a573d5f803e3d5ffd5b505050506040513d601f19601f8201168201806040525081019061533e919061957f565b73ffffffffffffffffffffffffffffffffffffffff163373ffffffffffffffffffffffffffffffffffffffff16146153ab576040517f08c379a00000000000000000000000000000000000000000000000000000000081526004016153a2906195f4565b60405180910390fd5b60015f9054906101000a900473ffffffffffffffffffffffffffffffffffffffff1673ffffffffffffffffffffffffffffffffffffffff1663a24a899b6040518060400160405280601e81526020017f42414e4b5f47554152414e5445455f52454c454153455f4d414e4147455200008152506040518060400160405280601d81526020017f6c6973745f5f62616e6b47756172616e746565496e766f6b654c6973740000008152506040518363ffffffff1660e01b81526004016154719291906193f1565b5f604051808303815f87803b158015615488575f80fd5b505af115801561549a573d5f803e3d5ffd5b50505050565b5f815f60015f9054906101000a900473ffffffffffffffffffffffffffffffffffffffff1673ffffffffffffffffffffffffffffffffffffffff16633bea27536040518060400160405280601e81526020017f42414e4b5f47554152414e5445455f52454c454153455f4d414e4147455200008152506040518060400160405280601d81526020017f6c6973745f5f62616e6b47756172616e746565496e766f6b654c6973740000008152506040518363ffffffff1660e01b81526004016155699291906193f1565b602060405180830381865afa158015615584573d5f803e3d5ffd5b505050506040513d601f19601f820116820180604052508101906155a8919061943a565b90508082106155ec576040517f08c379a00000000000000000000000000000000000000000000000000000000081526004016155e3906194af565b60405180910390fd5b60015f9054906101000a900473ffffffffffffffffffffffffffffffffffffffff1673ffffffffffffffffffffffffffffffffffffffff166303afa62b6040518060400160405280601e81526020017f42414e4b5f47554152414e5445455f52454c454153455f4d414e4147455200008152506040518060400160405280601d81526020017f6c6973745f5f62616e6b47756172616e746565496e766f6b654c697374000000815250876040518060400160405280600781526020017f76657273696f6e000000000000000000000000000000000000000000000000008152506040518563ffffffff1660e01b81526004016156eb94939291906194cd565b602060405180830381865afa158015615706573d5f803e3d5ffd5b505050506040513d601f19601f8201168201806040525081019061572a9190619bea565b92505050919050565b6060815f60015f9054906101000a900473ffffffffffffffffffffffffffffffffffffffff1673ffffffffffffffffffffffffffffffffffffffff16633bea27536040518060400160405280601e81526020017f42414e4b5f47554152414e5445455f52454c454153455f4d414e4147455200008152506040518060400160405280601d81526020017f6c6973745f5f62616e6b47756172616e746565496e766f6b654c6973740000008152506040518363ffffffff1660e01b81526004016157fd9291906193f1565b602060405180830381865afa158015615818573d5f803e3d5ffd5b505050506040513d601f19601f8201168201806040525081019061583c919061943a565b9050808210615880576040517f08c379a0000000000000000000000000000000000000000000000000000000008152600401615877906194af565b60405180910390fd5b60015f9054906101000a900473ffffffffffffffffffffffffffffffffffffffff1673ffffffffffffffffffffffffffffffffffffffff16632136448c6040518060400160405280601e81526020017f42414e4b5f47554152414e5445455f52454c454153455f4d414e4147455200008152506040518060400160405280601d81526020017f6c6973745f5f62616e6b47756172616e746565496e766f6b654c697374000000815250876040518060400160405280600a81526020017f6272616e63684e616d65000000000000000000000000000000000000000000008152506040518563ffffffff1660e01b815260040161597f94939291906194cd565b5f60405180830381865afa158015615999573d5f803e3d5ffd5b505050506040513d5f823e3d601f19601f820116820180604052508101906159c1919061985e565b92505050919050565b60605f60025f9054906101000a900473ffffffffffffffffffffffffffffffffffffffff1673ffffffffffffffffffffffffffffffffffffffff1663bfa9f3eb6040518060400160405280601e81526020017f42414e4b5f47554152414e5445455f52454c454153455f4d414e4147455200008152506040518060400160405280601d81526020017f6d61705f5f6267496e766f6b65496e6465784c69737442794267556964000000815250866040518060400160405280600881526020017f5f5f6c656e677468000000000000000000000000000000000000000000000000815250604051602001615abd91906198df565b6040516020818303038152906040526040518563ffffffff1660e01b8152600401615aeb9493929190619947565b602060405180830381865afa158015615b06573d5f803e3d5ffd5b505050506040513d601f19601f82011682018060405250810190615b2a919061943a565b90508067ffffffffffffffff811115615b4657615b456185c1565b5b604051908082528060200260200182016040528015615b745781602001602082028036833780820191505090505b5091505f5b81811015615cdb5760025f9054906101000a900473ffffffffffffffffffffffffffffffffffffffff1673ffffffffffffffffffffffffffffffffffffffff1663bfa9f3eb6040518060400160405280601e81526020017f42414e4b5f47554152414e5445455f52454c454153455f4d414e4147455200008152506040518060400160405280601d81526020017f6d61705f5f6267496e766f6b65496e6465784c697374427942675569640000008152508785604051602001615c3c91906199bf565b6040516020818303038152906040526040518563ffffffff1660e01b8152600401615c6a9493929190619947565b602060405180830381865afa158015615c85573d5f803e3d5ffd5b505050506040513d601f19601f82011682018060405250810190615ca9919061943a565b838281518110615cbc57615cbb619b58565b5b6020026020010181815250508080615cd390619c15565b915050615b79565b5050919050565b6060815f60015f9054906101000a900473ffffffffffffffffffffffffffffffffffffffff1673ffffffffffffffffffffffffffffffffffffffff16633bea27536040518060400160405280601e81526020017f42414e4b5f47554152414e5445455f52454c454153455f4d414e4147455200008152506040518060400160405280601d81526020017f6c6973745f5f62616e6b47756172616e746565496e766f6b654c6973740000008152506040518363ffffffff1660e01b8152600401615dac9291906193f1565b602060405180830381865afa158015615dc7573d5f803e3d5ffd5b505050506040513d601f19601f82011682018060405250810190615deb919061943a565b9050808210615e2f576040517f08c379a0000000000000000000000000000000000000000000000000000000008152600401615e26906194af565b60405180910390fd5b60015f9054906101000a900473ffffffffffffffffffffffffffffffffffffffff1673ffffffffffffffffffffffffffffffffffffffff16632136448c6040518060400160405280601e81526020017f42414e4b5f47554152414e5445455f52454c454153455f4d414e4147455200008152506040518060400160405280601d81526020017f6c6973745f5f62616e6b47756172616e746565496e766f6b654c697374000000815250876040518060400160405280600e81526020017f696e766f6b6563757272656e63790000000000000000000000000000000000008152506040518563ffffffff1660e01b8152600401615f2e94939291906194cd565b5f60405180830381865afa158015615f48573d5f803e3d5ffd5b505050506040513d5f823e3d601f19601f82011682018060405250810190615f70919061985e565b92505050919050565b6060815f60015f9054906101000a900473ffffffffffffffffffffffffffffffffffffffff1673ffffffffffffffffffffffffffffffffffffffff16633bea27536040518060400160405280601e81526020017f42414e4b5f47554152414e5445455f52454c454153455f4d414e4147455200008152506040518060400160405280601d81526020017f6c6973745f5f62616e6b47756172616e746565496e766f6b654c6973740000008152506040518363ffffffff1660e01b81526004016160439291906193f1565b602060405180830381865afa15801561605e573d5f803e3d5ffd5b505050506040513d601f19601f82011682018060405250810190616082919061943a565b90508082106160c6576040517f08c379a00000000000000000000000000000000000000000000000000000000081526004016160bd906194af565b60405180910390fd5b60015f9054906101000a900473ffffffffffffffffffffffffffffffffffffffff1673ffffffffffffffffffffffffffffffffffffffff16632136448c6040518060400160405280601e81526020017f42414e4b5f47554152414e5445455f52454c454153455f4d414e4147455200008152506040518060400160405280601d81526020017f6c6973745f5f62616e6b47756172616e746565496e766f6b654c697374000000815250876040518060400160405280601581526020017f62656e65666963696172794272616e63684e616d6500000000000000000000008152506040518563ffffffff1660e01b81526004016161c594939291906194cd565b5f60405180830381865afa1580156161df573d5f803e3d5ffd5b505050506040513d5f823e3d601f19601f82011682018060405250810190616207919061985e565b92505050919050565b60035f9054906101000a900473ffffffffffffffffffffffffffffffffffffffff1673ffffffffffffffffffffffffffffffffffffffff1663ef02a3fc6040518060400160405280601e81526020017f42414e4b5f47554152414e5445455f52454c454153455f4d414e4147455200008152506040518263ffffffff1660e01b815260040161629f9190618b88565b602060405180830381865afa1580156162ba573d5f803e3d5ffd5b505050506040513d601f19601f820116820180604052508101906162de919061957f565b73ffffffffffffffffffffffffffffffffffffffff163373ffffffffffffffffffffffffffffffffffffffff161461634b576040517f08c379a0000000000000000000000000000000000000000000000000000000008152600401616342906195f4565b60405180910390fd5b5f60025f9054906101000a900473ffffffffffffffffffffffffffffffffffffffff1673ffffffffffffffffffffffffffffffffffffffff16632f79e1026040518060400160405280601e81526020017f42414e4b5f47554152414e5445455f52454c454153455f4d414e4147455200008152506040518060400160405280601a81526020017f6d61705f5f6267496e766f6b654c697374427942616e6b4749440000000000008152508760c001516040518060400160405280600881526020017f5f5f6c656e67746800000000000000000000000000000000000000000000000081525060405160200161644091906198df565b6040516020818303038152906040526040518563ffffffff1660e01b815260040161646e9493929190619a9f565b602060405180830381865afa158015616489573d5f803e3d5ffd5b505050506040513d601f19601f820116820180604052508101906164ad919061943a565b905060025f9054906101000a900473ffffffffffffffffffffffffffffffffffffffff1673ffffffffffffffffffffffffffffffffffffffff166316ae1bfa6040518060400160405280601e81526020017f42414e4b5f47554152414e5445455f52454c454153455f4d414e4147455200008152506040518060400160405280601a81526020017f6d61705f5f6267496e766f6b654c697374427942616e6b4749440000000000008152508760c001516040518060400160405280600881526020017f5f5f6c656e6774680000000000000000000000000000000000000000000000008152506040516020016165a391906198df565b6040516020818303038152906040528660016165bf9190619a6c565b6040518663ffffffff1660e01b81526004016165df959493929190619c5c565b5f604051808303815f87803b1580156165f6575f80fd5b505af1158015616608573d5f803e3d5ffd5b5050505060025f9054906101000a900473ffffffffffffffffffffffffffffffffffffffff1673ffffffffffffffffffffffffffffffffffffffff166316ae1bfa6040518060400160405280601e81526020017f42414e4b5f47554152414e5445455f52454c454153455f4d414e4147455200008152506040518060400160405280601a81526020017f6d61705f5f6267496e766f6b654c697374427942616e6b4749440000000000008152508760c00151856040516020016166cb91906199bf565b604051602081830303815290604052886040518663ffffffff1660e01b81526004016166fb959493929190619c5c565b5f604051808303815f87803b158015616712575f80fd5b505af1158015616724573d5f803e3d5ffd5b5050505060025f9054906101000a900473ffffffffffffffffffffffffffffffffffffffff1673ffffffffffffffffffffffffffffffffffffffff16632f79e1026040518060400160405280601e81526020017f42414e4b5f47554152414e5445455f52454c454153455f4d414e4147455200008152506040518060400160405280601881526020017f6d61705f5f6267496e766f6b654c69737442794567704944000000000000000081525087608001516040518060400160405280600881526020017f5f5f6c656e67746800000000000000000000000000000000000000000000000081525060405160200161681c91906198df565b6040516020818303038152906040526040518563ffffffff1660e01b815260040161684a9493929190619a9f565b602060405180830381865afa158015616865573d5f803e3d5ffd5b505050506040513d601f19601f82011682018060405250810190616889919061943a565b905060025f9054906101000a900473ffffffffffffffffffffffffffffffffffffffff1673ffffffffffffffffffffffffffffffffffffffff166316ae1bfa6040518060400160405280601e81526020017f42414e4b5f47554152414e5445455f52454c454153455f4d414e4147455200008152506040518060400160405280601881526020017f6d61705f5f6267496e766f6b654c69737442794567704944000000000000000081525087608001516040518060400160405280600881526020017f5f5f6c656e67746800000000000000000000000000000000000000000000000081525060405160200161697f91906198df565b60405160208183030381529060405286600161699b9190619a6c565b6040518663ffffffff1660e01b81526004016169bb959493929190619c5c565b5f604051808303815f87803b1580156169d2575f80fd5b505af11580156169e4573d5f803e3d5ffd5b5050505060025f9054906101000a900473ffffffffffffffffffffffffffffffffffffffff1673ffffffffffffffffffffffffffffffffffffffff166316ae1bfa6040518060400160405280601e81526020017f42414e4b5f47554152414e5445455f52454c454153455f4d414e4147455200008152506040518060400160405280601881526020017f6d61705f5f6267496e766f6b654c697374427945677049440000000000000000815250876080015185604051602001616aa791906199bf565b604051602081830303815290604052886040518663ffffffff1660e01b8152600401616ad7959493929190619c5c565b5f604051808303815f87803b158015616aee575f80fd5b505af1158015616b00573d5f803e3d5ffd5b505050505f828560c00151604051602001616b1c929190619cc9565b60405160208183030381529060405280519060200120905060025f9054906101000a900473ffffffffffffffffffffffffffffffffffffffff1673ffffffffffffffffffffffffffffffffffffffff1663bfa9f3eb6040518060400160405280601e81526020017f42414e4b5f47554152414e5445455f52454c454153455f4d414e414745520000815250604051806060016040528060228152602001619e1c60229139846040518060400160405280600881526020017f5f5f6c656e677468000000000000000000000000000000000000000000000000815250604051602001616c0791906198df565b6040516020818303038152906040526040518563ffffffff1660e01b8152600401616c359493929190619947565b602060405180830381865afa158015616c50573d5f803e3d5ffd5b505050506040513d601f19601f82011682018060405250810190616c74919061943a565b915060025f9054906101000a900473ffffffffffffffffffffffffffffffffffffffff1673ffffffffffffffffffffffffffffffffffffffff1663cf1e8bd86040518060400160405280601e81526020017f42414e4b5f47554152414e5445455f52454c454153455f4d414e414745520000815250604051806060016040528060228152602001619e1c60229139846040518060400160405280600881526020017f5f5f6c656e677468000000000000000000000000000000000000000000000000815250604051602001616d4991906198df565b604051602081830303815290604052876001616d659190619a6c565b6040518663ffffffff1660e01b8152600401616d859594939291906199d9565b5f604051808303815f87803b158015616d9c575f80fd5b505af1158015616dae573d5f803e3d5ffd5b5050505060025f9054906101000a900473ffffffffffffffffffffffffffffffffffffffff1673ffffffffffffffffffffffffffffffffffffffff1663cf1e8bd86040518060400160405280601e81526020017f42414e4b5f47554152414e5445455f52454c454153455f4d414e414745520000815250604051806060016040528060228152602001619e1c602291398486604051602001616e5091906199bf565b604051602081830303815290604052896040518663ffffffff1660e01b8152600401616e809594939291906199d9565b5f604051808303815f87803b158015616e97575f80fd5b505af1158015616ea9573d5f803e3d5ffd5b505050505f85604001518660c00151604051602001616ec9929190619cc9565b60405160208183030381529060405280519060200120905060025f9054906101000a900473ffffffffffffffffffffffffffffffffffffffff1673ffffffffffffffffffffffffffffffffffffffff1663bfa9f3eb6040518060400160405280601e81526020017f42414e4b5f47554152414e5445455f52454c454153455f4d414e414745520000815250604051806060016040528060228152602001619dd860229139846040518060400160405280600881526020017f5f5f6c656e677468000000000000000000000000000000000000000000000000815250604051602001616fb491906198df565b6040516020818303038152906040526040518563ffffffff1660e01b8152600401616fe29493929190619947565b602060405180830381865afa158015616ffd573d5f803e3d5ffd5b505050506040513d601f19601f82011682018060405250810190617021919061943a565b925060025f9054906101000a900473ffffffffffffffffffffffffffffffffffffffff1673ffffffffffffffffffffffffffffffffffffffff1663cf1e8bd86040518060400160405280601e81526020017f42414e4b5f47554152414e5445455f52454c454153455f4d414e414745520000815250604051806060016040528060228152602001619dd860229139846040518060400160405280600881526020017f5f5f6c656e6774680000000000000000000000000000000000000000000000008152506040516020016170f691906198df565b6040516020818303038152906040528860016171129190619a6c565b6040518663ffffffff1660e01b81526004016171329594939291906199d9565b5f604051808303815f87803b158015617149575f80fd5b505af115801561715b573d5f803e3d5ffd5b5050505060025f9054906101000a900473ffffffffffffffffffffffffffffffffffffffff1673ffffffffffffffffffffffffffffffffffffffff1663cf1e8bd86040518060400160405280601e81526020017f42414e4b5f47554152414e5445455f52454c454153455f4d414e414745520000815250604051806060016040528060228152602001619dd86022913984876040516020016171fd91906199bf565b6040516020818303038152906040528a6040518663ffffffff1660e01b815260040161722d9594939291906199d9565b5f604051808303815f87803b158015617244575f80fd5b505af1158015617256573d5f803e3d5ffd5b50505050617268866020015186617fbe565b505050505050565b6060815f60015f9054906101000a900473ffffffffffffffffffffffffffffffffffffffff1673ffffffffffffffffffffffffffffffffffffffff16633bea27536040518060400160405280601e81526020017f42414e4b5f47554152414e5445455f52454c454153455f4d414e4147455200008152506040518060400160405280601d81526020017f6c6973745f5f62616e6b47756172616e746565496e766f6b654c6973740000008152506040518363ffffffff1660e01b815260040161733a9291906193f1565b602060405180830381865afa158015617355573d5f803e3d5ffd5b505050506040513d601f19601f82011682018060405250810190617379919061943a565b90508082106173bd576040517f08c379a00000000000000000000000000000000000000000000000000000000081526004016173b4906194af565b60405180910390fd5b60015f9054906101000a900473ffffffffffffffffffffffffffffffffffffffff1673ffffffffffffffffffffffffffffffffffffffff16632136448c6040518060400160405280601e81526020017f42414e4b5f47554152414e5445455f52454c454153455f4d414e4147455200008152506040518060400160405280601d81526020017f6c6973745f5f62616e6b47756172616e746565496e766f6b654c697374000000815250876040518060400160405280601281526020017f70726f637572696e67456e7469747947696400000000000000000000000000008152506040518563ffffffff1660e01b81526004016174bc94939291906194cd565b5f60405180830381865afa1580156174d6573d5f803e3d5ffd5b505050506040513d5f823e3d601f19601f820116820180604052508101906174fe919061985e565b92505050919050565b5f60025f9054906101000a900473ffffffffffffffffffffffffffffffffffffffff1673ffffffffffffffffffffffffffffffffffffffff1663405e2c0d6040518060400160405280601e81526020017f42414e4b5f47554152414e5445455f52454c454153455f4d414e4147455200008152506040518060400160405280601d81526020017f6d61705f5f62616e6b47756172616e746565496e766f6b65496e646578000000815250856040518463ffffffff1660e01b81526004016175d093929190619cec565b602060405180830381865afa1580156175eb573d5f803e3d5ffd5b505050506040513d601f19601f8201168201806040525081019061760f919061943a565b9050919050565b60605f805f60025f9054906101000a900473ffffffffffffffffffffffffffffffffffffffff1673ffffffffffffffffffffffffffffffffffffffff16632f79e1026040518060400160405280601e81526020017f42414e4b5f47554152414e5445455f52454c454153455f4d414e4147455200008152506040518060400160405280601a81526020017f6d61705f5f6267496e766f6b654c697374427942616e6b4749440000000000008152508a6040518060400160405280600881526020017f5f5f6c656e67746800000000000000000000000000000000000000000000000081525060405160200161770b91906198df565b6040516020818303038152906040526040518563ffffffff1660e01b81526004016177399493929190619a9f565b602060405180830381865afa158015617754573d5f803e3d5ffd5b505050506040513d601f19601f82011682018060405250810190617778919061943a565b905080861115617786578095505b5f8686116177945785617796565b865b90508067ffffffffffffffff8111156177b2576177b16185c1565b5b6040519080825280602002602001820160405280156177e05781602001602082028036833780820191505090505b5094505b5f81111561796c5780806177f790619afe565b915050868061780590619afe565b97505060025f9054906101000a900473ffffffffffffffffffffffffffffffffffffffff1673ffffffffffffffffffffffffffffffffffffffff16632f79e1026040518060400160405280601e81526020017f42414e4b5f47554152414e5445455f52454c454153455f4d414e4147455200008152506040518060400160405280601a81526020017f6d61705f5f6267496e766f6b654c697374427942616e6b4749440000000000008152508b8b6040516020016178c391906199bf565b6040516020818303038152906040526040518563ffffffff1660e01b81526004016178f19493929190619a9f565b602060405180830381865afa15801561790c573d5f803e3d5ffd5b505050506040513d601f19601f82011682018060405250810190617930919061943a565b8560018388516179409190619b25565b61794a9190619b25565b8151811061795b5761795a619b58565b5b6020026020010181815250506177e4565b869350819250505093509350939050565b617985618456565b815f60015f9054906101000a900473ffffffffffffffffffffffffffffffffffffffff1673ffffffffffffffffffffffffffffffffffffffff16633bea27536040518060400160405280601e81526020017f42414e4b5f47554152414e5445455f52454c454153455f4d414e4147455200008152506040518060400160405280601d81526020017f6c6973745f5f62616e6b47756172616e746565496e766f6b654c6973740000008152506040518363ffffffff1660e01b8152600401617a4d9291906193f1565b602060405180830381865afa158015617a68573d5f803e3d5ffd5b505050506040513d601f19601f82011682018060405250810190617a8c919061943a565b9050808210617ad0576040517f08c379a0000000000000000000000000000000000000000000000000000000008152600401617ac7906194af565b60405180910390fd5b617ad9846124e9565b835f019077ffffffffffffffffffffffffffffffffffffffffffffffff1916908177ffffffffffffffffffffffffffffffffffffffffffffffff191681525050617b2284612256565b836020019077ffffffffffffffffffffffffffffffffffffffffffffffff1916908177ffffffffffffffffffffffffffffffffffffffffffffffff191681525050617b6c846131d4565b8360400181905250617b7d84617270565b8360600181905250617b8e84612a13565b8360800181905250617b9f84614d42565b8360a00181905250617bb084612caa565b8360c00181905250617bc184615733565b8360e00181905250617bd284612f41565b83610100018181525050617be584615ce2565b836101200181905250617bf7846107ae565b83610140018181525050617c0a84614aab565b836101600181905250617c1c84614fd9565b836101800181905250617c2e8461277c565b836101a00181905250617c4084615f79565b836101c00181905250617c528461346b565b836101e00181905250617c6484613c13565b836102000181905250617c76846154a0565b83610220019061ffff16908161ffff16815250505050919050565b60605f805f60025f9054906101000a900473ffffffffffffffffffffffffffffffffffffffff1673ffffffffffffffffffffffffffffffffffffffff1663bfa9f3eb6040518060400160405280601e81526020017f42414e4b5f47554152414e5445455f52454c454153455f4d414e414745520000815250604051806060016040528060228152602001619e1c602291398a6040518060400160405280600881526020017f5f5f6c656e677468000000000000000000000000000000000000000000000000815250604051602001617d6991906198df565b6040516020818303038152906040526040518563ffffffff1660e01b8152600401617d979493929190619947565b602060405180830381865afa158015617db2573d5f803e3d5ffd5b505050506040513d601f19601f82011682018060405250810190617dd6919061943a565b905080861115617de4578095505b5f868611617df25785617df4565b865b90508067ffffffffffffffff811115617e1057617e0f6185c1565b5b604051908082528060200260200182016040528015617e3e5781602001602082028036833780820191505090505b5094505b5f811115617fad578080617e5590619afe565b9150508680617e6390619afe565b97505060025f9054906101000a900473ffffffffffffffffffffffffffffffffffffffff1673ffffffffffffffffffffffffffffffffffffffff1663bfa9f3eb6040518060400160405280601e81526020017f42414e4b5f47554152414e5445455f52454c454153455f4d414e414745520000815250604051806060016040528060228152602001619e1c602291398b8b604051602001617f0491906199bf565b6040516020818303038152906040526040518563ffffffff1660e01b8152600401617f329493929190619947565b602060405180830381865afa158015617f4d573d5f803e3d5ffd5b505050506040513d601f19601f82011682018060405250810190617f71919061943a565b856001838851617f819190619b25565b617f8b9190619b25565b81518110617f9c57617f9b619b58565b5b602002602001018181525050617e42565b869350819250505093509350939050565b5f60025f9054906101000a900473ffffffffffffffffffffffffffffffffffffffff1673ffffffffffffffffffffffffffffffffffffffff1663bfa9f3eb6040518060400160405280601e81526020017f42414e4b5f47554152414e5445455f52454c454153455f4d414e414745520000815250604051806060016040528060228152602001619dfa60229139866040518060400160405280600881526020017f5f5f6c656e67746800000000000000000000000000000000000000000000000081525060405160200161809291906198df565b6040516020818303038152906040526040518563ffffffff1660e01b81526004016180c09493929190619947565b602060405180830381865afa1580156180db573d5f803e3d5ffd5b505050506040513d601f19601f820116820180604052508101906180ff919061943a565b905060025f9054906101000a900473ffffffffffffffffffffffffffffffffffffffff1673ffffffffffffffffffffffffffffffffffffffff1663cf1e8bd86040518060400160405280601e81526020017f42414e4b5f47554152414e5445455f52454c454153455f4d414e414745520000815250604051806060016040528060228152602001619dfa60229139866040518060400160405280600881526020017f5f5f6c656e6774680000000000000000000000000000000000000000000000008152506040516020016181d491906198df565b6040516020818303038152906040528660016181f09190619a6c565b6040518663ffffffff1660e01b81526004016182109594939291906199d9565b5f604051808303815f87803b158015618227575f80fd5b505af1158015618239573d5f803e3d5ffd5b5050505060025f9054906101000a900473ffffffffffffffffffffffffffffffffffffffff1673ffffffffffffffffffffffffffffffffffffffff1663cf1e8bd86040518060400160405280601e81526020017f42414e4b5f47554152414e5445455f52454c454153455f4d414e414745520000815250604051806060016040528060228152602001619dfa6022913986856040516020016182db91906199bf565b604051602081830303815290604052876040518663ffffffff1660e01b815260040161830b9594939291906199d9565b5f604051808303815f87803b158015618322575f80fd5b505af1158015618334573d5f803e3d5ffd5b5050505060025f9054906101000a900473ffffffffffffffffffffffffffffffffffffffff1673ffffffffffffffffffffffffffffffffffffffff1663cf1e8bd86040518060400160405280601e81526020017f42414e4b5f47554152414e5445455f52454c454153455f4d414e4147455200008152506040518060400160405280601f81526020017f6d61705f5f6d6170426752656c65617365416e64496e766f6b6542795569640081525086866040516020016183f391906199bf565b60405160208183030381529060405260016040518663ffffffff1660e01b8152600401618424959493929190619d71565b5f604051808303815f87803b15801561843b575f80fd5b505af115801561844d573d5f803e3d5ffd5b50505050505050565b6040518061024001604052805f77ffffffffffffffffffffffffffffffffffffffffffffffff191681526020015f77ffffffffffffffffffffffffffffffffffffffffffffffff191681526020016060815260200160608152602001606081526020016060815260200160608152602001606081526020015f8152602001606081526020015f81526020016060815260200160608152602001606081526020016060815260200160608152602001606081526020015f61ffff1681525090565b5f604051905090565b5f80fd5b5f80fd5b5f819050919050565b61853981618527565b8114618543575f80fd5b50565b5f8135905061855481618530565b92915050565b5f6020828403121561856f5761856e61851f565b5b5f61857c84828501618546565b91505092915050565b61858e81618527565b82525050565b5f6020820190506185a75f830184618585565b92915050565b5f80fd5b5f601f19601f8301169050919050565b7f4e487b71000000000000000000000000000000000000000000000000000000005f52604160045260245ffd5b6185f7826185b1565b810181811067ffffffffffffffff82111715618616576186156185c1565b5b80604052505050565b5f618628618516565b905061863482826185ee565b919050565b5f80fd5b5f7fffffffffffffffff00000000000000000000000000000000000000000000000082169050919050565b6186718161863d565b811461867b575f80fd5b50565b5f8135905061868c81618668565b92915050565b5f80fd5b5f80fd5b5f67ffffffffffffffff8211156186b4576186b36185c1565b5b6186bd826185b1565b9050602081019050919050565b828183375f83830152505050565b5f6186ea6186e58461869a565b61861f565b90508281526020810184848401111561870657618705618696565b5b6187118482856186ca565b509392505050565b5f82601f83011261872d5761872c618692565b5b813561873d8482602086016186d8565b91505092915050565b5f61ffff82169050919050565b61875c81618746565b8114618766575f80fd5b50565b5f8135905061877781618753565b92915050565b5f6102408284031215618793576187926185ad565b5b61879e61024061861f565b90505f6187ad8482850161867e565b5f8301525060206187c08482850161867e565b602083015250604082013567ffffffffffffffff8111156187e4576187e3618639565b5b6187f084828501618719565b604083015250606082013567ffffffffffffffff81111561881457618813618639565b5b61882084828501618719565b606083015250608082013567ffffffffffffffff81111561884457618843618639565b5b61885084828501618719565b60808301525060a082013567ffffffffffffffff81111561887457618873618639565b5b61888084828501618719565b60a08301525060c082013567ffffffffffffffff8111156188a4576188a3618639565b5b6188b084828501618719565b60c08301525060e082013567ffffffffffffffff8111156188d4576188d3618639565b5b6188e084828501618719565b60e0830152506101006188f584828501618546565b6101008301525061012082013567ffffffffffffffff81111561891b5761891a618639565b5b61892784828501618719565b6101208301525061014061893d84828501618546565b6101408301525061016082013567ffffffffffffffff81111561896357618962618639565b5b61896f84828501618719565b6101608301525061018082013567ffffffffffffffff81111561899557618994618639565b5b6189a184828501618719565b610180830152506101a082013567ffffffffffffffff8111156189c7576189c6618639565b5b6189d384828501618719565b6101a0830152506101c082013567ffffffffffffffff8111156189f9576189f8618639565b5b618a0584828501618719565b6101c0830152506101e082013567ffffffffffffffff811115618a2b57618a2a618639565b5b618a3784828501618719565b6101e08301525061020082013567ffffffffffffffff811115618a5d57618a5c618639565b5b618a6984828501618719565b61020083015250610220618a7f84828501618769565b6102208301525092915050565b5f8060408385031215618aa257618aa161851f565b5b5f618aaf85828601618546565b925050602083013567ffffffffffffffff811115618ad057618acf618523565b5b618adc8582860161877d565b9150509250929050565b618aef8161863d565b82525050565b5f602082019050618b085f830184618ae6565b92915050565b5f81519050919050565b5f82825260208201905092915050565b5f5b83811015618b45578082015181840152602081019050618b2a565b5f8484015250505050565b5f618b5a82618b0e565b618b648185618b18565b9350618b74818560208601618b28565b618b7d816185b1565b840191505092915050565b5f6020820190508181035f830152618ba08184618b50565b905092915050565b5f8060408385031215618bbe57618bbd61851f565b5b5f618bcb8582860161867e565b9250506020618bdc85828601618546565b9150509250929050565b5f805f60608486031215618bfd57618bfc61851f565b5b5f84013567ffffffffffffffff811115618c1a57618c19618523565b5b618c2686828701618719565b9350506020618c3786828701618546565b9250506040618c4886828701618546565b9150509250925092565b5f81519050919050565b5f82825260208201905092915050565b5f819050602082019050919050565b618c8481618527565b82525050565b5f618c958383618c7b565b60208301905092915050565b5f602082019050919050565b5f618cb782618c52565b618cc18185618c5c565b9350618ccc83618c6c565b805f5b83811015618cfc578151618ce38882618c8a565b9750618cee83618ca1565b925050600181019050618ccf565b5085935050505092915050565b5f6060820190508181035f830152618d218186618cad565b9050618d306020830185618585565b618d3d6040830184618585565b949350505050565b5f805f60608486031215618d5c57618d5b61851f565b5b5f618d698682870161867e565b9350506020618d7a86828701618546565b9250506040618d8b86828701618546565b9150509250925092565b5f8060408385031215618dab57618daa61851f565b5b5f618db885828601618546565b9250506020618dc985828601618546565b9150509250929050565b5f81519050919050565b5f82825260208201905092915050565b5f819050602082019050919050565b618e058161863d565b82525050565b5f82825260208201905092915050565b5f618e2582618b0e565b618e2f8185618e0b565b9350618e3f818560208601618b28565b618e48816185b1565b840191505092915050565b618e5c81618746565b82525050565b5f61024083015f830151618e785f860182618dfc565b506020830151618e8b6020860182618dfc565b5060408301518482036040860152618ea38282618e1b565b91505060608301518482036060860152618ebd8282618e1b565b91505060808301518482036080860152618ed78282618e1b565b91505060a083015184820360a0860152618ef18282618e1b565b91505060c083015184820360c0860152618f0b8282618e1b565b91505060e083015184820360e0860152618f258282618e1b565b915050610100830151618f3c610100860182618c7b565b50610120830151848203610120860152618f568282618e1b565b915050610140830151618f6d610140860182618c7b565b50610160830151848203610160860152618f878282618e1b565b915050610180830151848203610180860152618fa38282618e1b565b9150506101a08301518482036101a0860152618fbf8282618e1b565b9150506101c08301518482036101c0860152618fdb8282618e1b565b9150506101e08301518482036101e0860152618ff78282618e1b565b9150506102008301518482036102008601526190138282618e1b565b91505061022083015161902a610220860182618e53565b508091505092915050565b5f6190408383618e62565b905092915050565b5f602082019050919050565b5f61905e82618dd3565b6190688185618ddd565b93508360208202850161907a85618ded565b805f5b858110156190b557848403895281516190968582619035565b94506190a183619048565b925060208a0199505060018101905061907d565b50829750879550505050505092915050565b5f6060820190508181035f8301526190df8186619054565b90506190ee6020830185618585565b6190fb6040830184618585565b949350505050565b61910c81618746565b82525050565b5f6020820190506191255f830184619103565b92915050565b5f602082840312156191405761913f61851f565b5b5f61914d8482850161867e565b91505092915050565b5f6020820190508181035f83015261916e8184618cad565b905092915050565b5f805f6060848603121561918d5761918c61851f565b5b5f84013567ffffffffffffffff8111156191aa576191a9618523565b5b6191b68682870161877d565b93505060206191c786828701618546565b925050604084013567ffffffffffffffff8111156191e8576191e7618523565b5b6191f486828701618719565b9150509250925092565b5f61024083015f8301516192145f860182618dfc565b5060208301516192276020860182618dfc565b506040830151848203604086015261923f8282618e1b565b915050606083015184820360608601526192598282618e1b565b915050608083015184820360808601526192738282618e1b565b91505060a083015184820360a086015261928d8282618e1b565b91505060c083015184820360c08601526192a78282618e1b565b91505060e083015184820360e08601526192c18282618e1b565b9150506101008301516192d8610100860182618c7b565b506101208301518482036101208601526192f28282618e1b565b915050610140830151619309610140860182618c7b565b506101608301518482036101608601526193238282618e1b565b91505061018083015184820361018086015261933f8282618e1b565b9150506101a08301518482036101a086015261935b8282618e1b565b9150506101c08301518482036101c08601526193778282618e1b565b9150506101e08301518482036101e08601526193938282618e1b565b9150506102008301518482036102008601526193af8282618e1b565b9150506102208301516193c6610220860182618e53565b508091505092915050565b5f6020820190508181035f8301526193e981846191fe565b905092915050565b5f6040820190508181035f8301526194098185618b50565b9050818103602083015261941d8184618b50565b90509392505050565b5f8151905061943481618530565b92915050565b5f6020828403121561944f5761944e61851f565b5b5f61945c84828501619426565b91505092915050565b7f496e64657820496e76616c6964000000000000000000000000000000000000005f82015250565b5f619499600d83618b18565b91506194a482619465565b602082019050919050565b5f6020820190508181035f8301526194c68161948d565b9050919050565b5f6080820190508181035f8301526194e58187618b50565b905081810360208301526194f98186618b50565b90506195086040830185618585565b818103606083015261951a8184618b50565b905095945050505050565b5f73ffffffffffffffffffffffffffffffffffffffff82169050919050565b5f61954e82619525565b9050919050565b61955e81619544565b8114619568575f80fd5b50565b5f8151905061957981619555565b92915050565b5f602082840312156195945761959361851f565b5b5f6195a18482850161956b565b91505092915050565b7f556e617574686f72697a656420436f6e74726163742043616c6c0000000000005f82015250565b5f6195de601a83618b18565b91506195e9826195aa565b602082019050919050565b5f6020820190508181035f83015261960b816195d2565b9050919050565b5f60a0820190508181035f83015261962a8188618b50565b9050818103602083015261963e8187618b50565b905061964d6040830186618585565b818103606083015261965f8185618b50565b905061966e6080830184618ae6565b9695505050505050565b5f60a0820190508181035f8301526196908188618b50565b905081810360208301526196a48187618b50565b90506196b36040830186618585565b81810360608301526196c58185618b50565b905081810360808301526196d98184618b50565b90509695505050505050565b5f60a0820190508181035f8301526196fd8188618b50565b905081810360208301526197118187618b50565b90506197206040830186618585565b81810360608301526197328185618b50565b90506197416080830184618585565b9695505050505050565b5f60a0820190508181035f8301526197638188618b50565b905081810360208301526197778187618b50565b90506197866040830186618585565b81810360608301526197988185618b50565b90506197a76080830184619103565b9695505050505050565b5f815190506197bf81618668565b92915050565b5f602082840312156197da576197d961851f565b5b5f6197e7848285016197b1565b91505092915050565b5f6198026197fd8461869a565b61861f565b90508281526020810184848401111561981e5761981d618696565b5b619829848285618b28565b509392505050565b5f82601f83011261984557619844618692565b5b81516198558482602086016197f0565b91505092915050565b5f602082840312156198735761987261851f565b5b5f82015167ffffffffffffffff8111156198905761988f618523565b5b61989c84828501619831565b91505092915050565b5f81905092915050565b5f6198b982618b0e565b6198c381856198a5565b93506198d3818560208601618b28565b80840191505092915050565b5f6198ea82846198af565b915081905092915050565b5f81519050919050565b5f82825260208201905092915050565b5f619919826198f5565b61992381856198ff565b9350619933818560208601618b28565b61993c816185b1565b840191505092915050565b5f6080820190508181035f83015261995f8187618b50565b905081810360208301526199738186618b50565b90506199826040830185618ae6565b8181036060830152619994818461990f565b905095945050505050565b5f819050919050565b6199b96199b482618527565b61999f565b82525050565b5f6199ca82846199a8565b60208201915081905092915050565b5f60a0820190508181035f8301526199f18188618b50565b90508181036020830152619a058187618b50565b9050619a146040830186618ae6565b8181036060830152619a26818561990f565b9050619a356080830184618585565b9695505050505050565b7f4e487b71000000000000000000000000000000000000000000000000000000005f52601160045260245ffd5b5f619a7682618527565b9150619a8183618527565b9250828201905080821115619a9957619a98619a3f565b5b92915050565b5f6080820190508181035f830152619ab78187618b50565b90508181036020830152619acb8186618b50565b90508181036040830152619adf8185618b50565b90508181036060830152619af3818461990f565b905095945050505050565b5f619b0882618527565b91505f8203619b1a57619b19619a3f565b5b600182039050919050565b5f619b2f82618527565b9150619b3a83618527565b9250828203905081811115619b5257619b51619a3f565b5b92915050565b7f4e487b71000000000000000000000000000000000000000000000000000000005f52603260045260245ffd5b5f6080820190508181035f830152619b9d8187618b50565b90508181036020830152619bb18186618b50565b9050619bc06040830185618ae6565b619bcd6060830184618585565b95945050505050565b5f81519050619be481618753565b92915050565b5f60208284031215619bff57619bfe61851f565b5b5f619c0c84828501619bd6565b91505092915050565b5f619c1f82618527565b91507fffffffffffffffffffffffffffffffffffffffffffffffffffffffffffffffff8203619c5157619c50619a3f565b5b600182019050919050565b5f60a0820190508181035f830152619c748188618b50565b90508181036020830152619c888187618b50565b90508181036040830152619c9c8186618b50565b90508181036060830152619cb0818561990f565b9050619cbf6080830184618585565b9695505050505050565b5f619cd482856198af565b9150619ce082846198af565b91508190509392505050565b5f6060820190508181035f830152619d048186618b50565b90508181036020830152619d188185618b50565b9050619d276040830184618ae6565b949350505050565b5f819050919050565b5f819050919050565b5f619d5b619d56619d5184619d2f565b619d38565b618527565b9050919050565b619d6b81619d41565b82525050565b5f60a0820190508181035f830152619d898188618b50565b90508181036020830152619d9d8187618b50565b9050619dac6040830186618ae6565b8181036060830152619dbe818561990f565b9050619dcd6080830184619d62565b969550505050505056fe6d61705f5f6267496e766f6b654c69737442795061526566416e6442616e6b4769646d61705f5f626752656c65617365416e64496e766f6b654c697374427942675569646d61705f5f6267496e766f6b654c69737442794267526566416e6442616e6b476964a26469706673582212203fba2193fa012181da4bfcb2da7dae59904bc88f6883899c355a16eca14f8b7f64736f6c63430008140033",
  "immutableReferences": {},
  "source": "pragma solidity ^0.8.0;\npragma experimental ABIEncoderV2;\n\nimport \"./MemberStorage.sol\";\nimport \"./ListStorage.sol\";\nimport \"./MapStorage.sol\";\nimport \"./QuireContracts.sol\";\n\n\ncontract BankGuaranteeInvokeStructs{\n\n    uint16 constant internal __InvokeVERSION__ = 1;\n\n\n    struct BankGuaranteeInvoke {\n        bytes8 uid;\n        bytes8 bankGuaranteeUid;\n        string paymentReference;\n        string procuringEntityGid;\n        string egpSystemId;\n        string vendorGid;\n        string bankGid;\n        string branchName;\n        uint revocationDate;\n        string currency;\n        uint revocationAmount;\n        string beneficiaryName;\n        string beneficiaryBankAccountNumber;\n        string beneficiaryBankName;\n        string beneficiaryBranchName;\n        string beneficiaryIfscCode;\n        string bgInvokeFileHash;\n        uint16 version;\n    }\n\n    string constant internal propNameBgInvokeUid = \"uid\";\n    string constant internal propNameBgInvokeBankGuaranteeUid = \"bankGuaranteeUid\";\n    string constant internal propNameBgInvokePaymentReference = \"paymentReference\";\n    string constant internal propNameBgInvokeProcuringEntityGid = \"procuringEntityGid\";\n    string constant internal propNameBgInvokeEgpSystemId = \"egpSystemId\";\n    string constant internal propNameBgInvokeVendorGid = \"vendorGid\";\n    string constant internal propNameBgInvokeBankGid = \"bankGid\";\n    string constant internal propNameBgInvokeBranchName = \"branchName\";\n    string constant internal propNameBgInvokeRevocationDate = \"revocationDate\";\n    string constant internal propNameBgInvokeRevocationCurrencyType = \"invokecurrency\";\n    string constant internal propNameBgInvokeRevocationAmount = \"revocationAmount\";\n    string constant internal propNameBgInvokeBeneficiaryName = \"beneficiaryName\";\n    string constant internal propNameBgInvokeBeneficiaryBankAccountNumber = \"beneficiaryBankAccountNumber\";\n    string constant internal propNameBgInvokeBeneficiaryBankName = \"beneficiaryBankName\";\n    string constant internal propNameBgInvokeBeneficiaryBranchName = \"beneficiaryBranchName\";\n    string constant internal propNameBgInvokeBeneficiaryIfscCode = \"beneficiaryIfscCode\";\n    string constant internal propNameBgInvokeBgInvokeFileHash = \"bgInvokeFileHash\";\n    string constant internal propNameBgInvokeVersion = \"version\";\n\n\n}    \n\n\ncontract BankGuaranteeInvokeModel is BankGuaranteeInvokeStructs {\n\n    MemberStorage private Member;\n    ListStorage private List;\n    MapStorage private Map;\n    QuireContracts private quireContracts;\n    \n    constructor(\n        address _Member,\n        address _List,\n        address _Map,\n        address _quireContracts\n    ){\n        Member = MemberStorage(_Member);\n        List = ListStorage(_List);\n        Map = MapStorage(_Map);\n        quireContracts = QuireContracts(_quireContracts);\n    }\n\n    string constant internal KEY = \"BANK_GUARANTEE_RELEASE_MANAGER\";\n    string constant internal keyListLength = \"__length\";\n\n\n    string constant internal bankGuaranteeInvokeList = \"list__bankGuaranteeInvokeList\";\n    string constant internal bankGuaranteeInvokeIndex = \"map__bankGuaranteeInvokeIndex\";\n    string constant internal bgInvokeIndexListByBgUid = \"map__bgInvokeIndexListByBgUid\";\n    string constant internal bgInvokeListByBankGID = \"map__bgInvokeListByBankGID\";\n    string constant internal bgInvokeListByEgpID = \"map__bgInvokeListByEgpID\";\n    string constant internal bgInvokeListByBgRefAndBankGid = \"map__bgInvokeListByBgRefAndBankGid\";\n    string constant internal bgInvokeListByPaRefAndBankGid = \"map__bgInvokeListByPaRefAndBankGid\";\n    string constant internal bgReleaseIndexListByBgUid = \"map__bgReleaseIndexListByBgUid\";\n\n\n    string constant internal bgReleaseAndInvokeListByBgUid = \"map__bgReleaseAndInvokeListByBgUid\";\n    string constant internal mapBgReleaseAndInvokeByUid = \"map__mapBgReleaseAndInvokeByUid\";\n\n    modifier onlyBankGuaranteeInvokeManager() {\n        require(msg.sender==quireContracts.getRegisteredContract(KEY), \"Unauthorized Contract Call\");\n        _;\n    }\n\n    modifier validBankGuaranteeInvokeListIndex(uint256 _index){\n        uint256 length = List.getLength(KEY, bankGuaranteeInvokeList);\n        require(_index < length, \"Index Invalid\");\n        _;\n    }\n\n\n    function getBankGuaranteeInvokeIndex(bytes8 _uid) public view returns (uint256) {\n        return Map.getBytes8ToUint(KEY, bankGuaranteeInvokeIndex, _uid);\n    }\n\n    function getBgInvokeIndexListByBgUid(bytes8 _uid) public view returns (uint[] memory bgInvokeIndexList_) {\n        uint length = Map.getByKeyBytes8ToUint(KEY, bgInvokeIndexListByBgUid, _uid, abi.encodePacked(keyListLength));\n        bgInvokeIndexList_ = new uint[](length);\n        for (uint256 i = 0; i < length; i++) {\n            bgInvokeIndexList_[i] = Map.getByKeyBytes8ToUint(KEY, bgInvokeIndexListByBgUid, _uid, abi.encodePacked(i));\n        }\n    }\n\n\n    function getBankGuaranteeInvokeListLength() public view returns (uint256) {\n        return List.getLength(KEY, bankGuaranteeInvokeList);\n    }\n\n    function getBankGuaranteeInvokeByIndex(uint256 _index)\n        public\n        view\n        validBankGuaranteeInvokeListIndex(_index)\n        returns (BankGuaranteeInvoke memory bankGuaranteeInvoke_)\n    {\n        bankGuaranteeInvoke_.uid = getBgInvokeUid(_index);\n        bankGuaranteeInvoke_.bankGuaranteeUid = getBgInvokeBankGuaranteeUid(_index);\n        bankGuaranteeInvoke_.paymentReference = getBgInvokePaymentReference(_index);\n        bankGuaranteeInvoke_.procuringEntityGid = getBgInvokeProcuringEntityGid(_index);\n        bankGuaranteeInvoke_.egpSystemId = getBgInvokeEgpSystemId(_index);\n        bankGuaranteeInvoke_.vendorGid = getBgInvokeVendorGid(_index);\n        bankGuaranteeInvoke_.bankGid = getBgInvokeBankGid(_index);\n        bankGuaranteeInvoke_.branchName = getBgInvokeBranchName(_index);\n        bankGuaranteeInvoke_.revocationDate = getBgInvokeRevocationDate(_index);\n        bankGuaranteeInvoke_.currency = getBgInvokeRevocationCurrencyType(_index);\n        bankGuaranteeInvoke_.revocationAmount = getBgInvokeRevocationAmount(_index);\n        bankGuaranteeInvoke_.beneficiaryName = getBgInvokeBeneficiaryName(_index);\n        bankGuaranteeInvoke_.beneficiaryBankAccountNumber = getBgInvokeBeneficiaryBankAccountNumber(_index);\n        bankGuaranteeInvoke_.beneficiaryBankName = getBgInvokeBeneficiaryBankName(_index);\n        bankGuaranteeInvoke_.beneficiaryBranchName = getBgInvokeBeneficiaryBranchName(_index);\n        bankGuaranteeInvoke_.beneficiaryIfscCode = getBgInvokeBeneficiaryIfscCode(_index);\n        bankGuaranteeInvoke_.bgInvokeFileHash = getBgInvokeBgInvokeFileHash(_index);\n        bankGuaranteeInvoke_.version = getBgInvokeVersion(_index);\n    }\n\n    function getAllBankGuaranteeInvoke(uint _toExcluded, uint _count) external view \n    returns(BankGuaranteeInvoke[] memory _bankGuaranteeInvoke, uint fromIncluded_, uint length_) {\n        uint length = getBankGuaranteeInvokeListLength();\n        if (_toExcluded > length) {\n            _toExcluded = length;\n        }\n        uint itr = _count>_toExcluded ? _toExcluded:_count;\n        _bankGuaranteeInvoke = new BankGuaranteeInvoke[](itr);\n        while (itr>0) {\n            itr--;\n            _toExcluded--;\n            _bankGuaranteeInvoke[_bankGuaranteeInvoke.length-itr-1] = getBankGuaranteeInvokeByIndex(_toExcluded);\n        }\n        fromIncluded_ = _toExcluded;\n        length_ = length;\n    }\n\n    function getBgInvokeUid(uint256 _index) public view \n    validBankGuaranteeInvokeListIndex(_index) \n    returns(bytes8) {\n        return List.getPropBytes8(KEY, bankGuaranteeInvokeList, _index, propNameBgInvokeUid);\n    }\n\n    function getBgInvokeBankGuaranteeUid(uint256 _index) public view \n    validBankGuaranteeInvokeListIndex(_index) \n    returns(bytes8) {\n        return List.getPropBytes8(KEY, bankGuaranteeInvokeList, _index, propNameBgInvokeBankGuaranteeUid);\n    }\n\n    function getBgInvokePaymentReference(uint256 _index) public view \n    validBankGuaranteeInvokeListIndex(_index) \n    returns(string memory) {\n        return List.getPropString(KEY, bankGuaranteeInvokeList, _index, propNameBgInvokePaymentReference);\n    }\n\n    function getBgInvokeProcuringEntityGid(uint256 _index) public view \n    validBankGuaranteeInvokeListIndex(_index) \n    returns(string memory) {\n        return List.getPropString(KEY, bankGuaranteeInvokeList, _index, propNameBgInvokeProcuringEntityGid);\n    }\n\n    function getBgInvokeEgpSystemId(uint256 _index) public view \n    validBankGuaranteeInvokeListIndex(_index) \n    returns(string memory) {\n        return List.getPropString(KEY, bankGuaranteeInvokeList, _index, propNameBgInvokeEgpSystemId);\n    }\n\n    function getBgInvokeVendorGid(uint256 _index) public view \n    validBankGuaranteeInvokeListIndex(_index) \n    returns(string memory) {\n        return List.getPropString(KEY, bankGuaranteeInvokeList, _index, propNameBgInvokeVendorGid);\n    }\n\n    function getBgInvokeBankGid(uint256 _index) public view \n    validBankGuaranteeInvokeListIndex(_index) \n    returns(string memory) {\n        return List.getPropString(KEY, bankGuaranteeInvokeList, _index, propNameBgInvokeBankGid);\n    }\n\n    function getBgInvokeBranchName(uint256 _index) public view \n    validBankGuaranteeInvokeListIndex(_index) \n    returns(string memory) {\n        return List.getPropString(KEY, bankGuaranteeInvokeList, _index, propNameBgInvokeBranchName);\n    }\n\n    function getBgInvokeRevocationDate(uint256 _index) public view \n    validBankGuaranteeInvokeListIndex(_index) \n    returns(uint) {\n        return List.getPropUint(KEY, bankGuaranteeInvokeList, _index, propNameBgInvokeRevocationDate);\n    }\n\n    function getBgInvokeRevocationCurrencyType(uint256 _index) public view \n    validBankGuaranteeInvokeListIndex(_index) \n    returns(string memory) {\n        return List.getPropString(KEY, bankGuaranteeInvokeList, _index, propNameBgInvokeRevocationCurrencyType);\n    }\n\n    function getBgInvokeRevocationAmount(uint256 _index) public view \n    validBankGuaranteeInvokeListIndex(_index) \n    returns(uint) {\n        return List.getPropUint(KEY, bankGuaranteeInvokeList, _index, propNameBgInvokeRevocationAmount);\n    }\n\n    function getBgInvokeBeneficiaryName(uint256 _index) public view \n    validBankGuaranteeInvokeListIndex(_index) \n    returns(string memory) {\n        return List.getPropString(KEY, bankGuaranteeInvokeList, _index, propNameBgInvokeBeneficiaryName);\n    }\n\n    function getBgInvokeBeneficiaryBankAccountNumber(uint256 _index) public view \n    validBankGuaranteeInvokeListIndex(_index) \n    returns(string memory) {\n        return List.getPropString(KEY, bankGuaranteeInvokeList, _index, propNameBgInvokeBeneficiaryBankAccountNumber);\n    }\n\n    function getBgInvokeBeneficiaryBankName(uint256 _index) public view \n    validBankGuaranteeInvokeListIndex(_index) \n    returns(string memory) {\n        return List.getPropString(KEY, bankGuaranteeInvokeList, _index, propNameBgInvokeBeneficiaryBankName);\n    }\n\n    function getBgInvokeBeneficiaryBranchName(uint256 _index) public view \n    validBankGuaranteeInvokeListIndex(_index) \n    returns(string memory) {\n        return List.getPropString(KEY, bankGuaranteeInvokeList, _index, propNameBgInvokeBeneficiaryBranchName);\n    }\n\n    function getBgInvokeBeneficiaryIfscCode(uint256 _index) public view \n    validBankGuaranteeInvokeListIndex(_index) \n    returns(string memory) {\n        return List.getPropString(KEY, bankGuaranteeInvokeList, _index, propNameBgInvokeBeneficiaryIfscCode);\n    }\n\n    function getBgInvokeBgInvokeFileHash(uint256 _index) public view \n    validBankGuaranteeInvokeListIndex(_index) \n    returns(string memory) {\n        return List.getPropString(KEY, bankGuaranteeInvokeList, _index, propNameBgInvokeBgInvokeFileHash);\n    }\n\n    function getBgInvokeVersion(uint256 _index) public view \n    validBankGuaranteeInvokeListIndex(_index) \n    returns(uint16) {\n        return List.getPropUint16(KEY, bankGuaranteeInvokeList, _index, propNameBgInvokeVersion);\n    }\n\n    function getReleaseInvokeStatus (bytes8 _Uid, uint _value) public view\n    returns (uint) {\n        return Map.getByKeyBytes8ToUint(KEY, mapBgReleaseAndInvokeByUid, _Uid, abi.encodePacked(_value));\n    }\n\n\n\n\n    /** @dev Listing out the Bank Guarantee Invokes against the Bank Gid.\n      * @param _bankGid Global id of bank.\n      * @param _toExcluded The length till where the uint indexes has to be fetched.\n      * @param _count The number of indexes that has to be fetched. \n      * @return _bgInvokeListByBankGID List of Bank Guarantee Invokes against the Bank Gid.\n      * @return fromIncluded_ _toExcluded - _count.\n      * @return length_ The length of the index present for the Bank Gid.\n      */\n    function getBgInvokeListByBankGID(string memory _bankGid, uint _toExcluded, uint _count) public view returns(uint[] memory _bgInvokeListByBankGID, uint fromIncluded_, uint length_)  {\n        uint length = Map.getByKeyStringToUint(KEY, bgInvokeListByBankGID, _bankGid, abi.encodePacked(keyListLength));\n        if (_toExcluded > length) {\n            _toExcluded = length;\n        }\n        uint itr = _count>_toExcluded ? _toExcluded:_count;\n        _bgInvokeListByBankGID = new uint[](itr);\n        while (itr>0) {\n            itr--;\n            _toExcluded--;\n            _bgInvokeListByBankGID[_bgInvokeListByBankGID.length-itr-1] = Map.getByKeyStringToUint(KEY, bgInvokeListByBankGID, _bankGid, abi.encodePacked(_toExcluded));\n        }\n        fromIncluded_ = _toExcluded;\n        length_ = length;\n    }\n    \n    \n    /** @dev Listing out the Bank Guarantee Invokes against the EgpSystem Id.\n      * @param _egpSystemId e-GP system Id registered with the network.\n      * @param _toExcluded The length till where the uint indexes has to be fetched.\n      * @param _count The number of indexes that has to be fetched. \n      * @return _bgInvokeListByEgpID List of Bank Guarantee Invokes against the EgpSystem Id.\n      * @return fromIncluded_ _toExcluded - _count.\n      * @return length_ The length of the index present for the EgpSystem Id.\n      */\n    function getBgInvokeListByEgpID(string memory _egpSystemId, uint _toExcluded, uint _count) public view returns(uint[] memory _bgInvokeListByEgpID, uint fromIncluded_, uint length_)  {\n        uint length = Map.getByKeyStringToUint(KEY, bgInvokeListByEgpID, _egpSystemId, abi.encodePacked(keyListLength));\n        if (_toExcluded > length) {\n            _toExcluded = length;\n        }\n        uint itr = _count>_toExcluded ? _toExcluded:_count;\n        _bgInvokeListByEgpID = new uint[](itr);\n        while (itr>0) {\n            itr--;\n            _toExcluded--;\n            _bgInvokeListByEgpID[_bgInvokeListByEgpID.length-itr-1] = Map.getByKeyStringToUint(KEY, bgInvokeListByEgpID, _egpSystemId, abi.encodePacked(_toExcluded));\n        }\n        fromIncluded_ = _toExcluded;\n        length_ = length;\n    }\n\n    \n    /** @dev Listing out the Bank Guarantee Invokes against the Reference Number and Bank Gid.\n      * @param _bgInvokeBgRefBankGid Reference number of bank Guarantee AND Global id of bank.\n      * @param _toExcluded The length till where the uint indexes has to be fetched.\n      * @param _count The number of indexes that has to be fetched. \n      * @return _bgInvokeListByBgRefAndBankGid List of Bank Guarantee Invokes against the Reference Number and Bank Gid.\n      * @return fromIncluded_ _toExcluded - _count.\n      * @return length_ The length of the index present for the Reference Number and Bank Gid.\n      */\n    function getBgInvokeListByBgRefAndBankGid(bytes8 _bgInvokeBgRefBankGid,  uint _toExcluded, uint _count) public view returns(uint[] memory _bgInvokeListByBgRefAndBankGid, uint fromIncluded_, uint length_)  {\n        //bytes8 _bgInvokeBgRefBankGid = bytes8(keccak256(abi.encodePacked(_bgReferenceNumber, _bankGid)));\n        uint length = Map.getByKeyBytes8ToUint(KEY, bgInvokeListByBgRefAndBankGid, _bgInvokeBgRefBankGid, abi.encodePacked(keyListLength));\n        if (_toExcluded > length) {\n            _toExcluded = length;\n        }\n        uint itr = _count>_toExcluded ? _toExcluded:_count;\n        _bgInvokeListByBgRefAndBankGid = new uint[](itr);\n        while (itr>0) {\n            itr--;\n            _toExcluded--;\n            _bgInvokeListByBgRefAndBankGid[_bgInvokeListByBgRefAndBankGid.length-itr-1] = Map.getByKeyBytes8ToUint(KEY, bgInvokeListByBgRefAndBankGid, _bgInvokeBgRefBankGid, abi.encodePacked(_toExcluded));\n        }\n        fromIncluded_ = _toExcluded;\n        length_ = length;\n    }\n\n    /** @dev Listing out the Bank Guarantee Invokes against the Payment Advice Reference Number and Bank Gid.\n      * @param _bgInvokePaRefBankGid Reference number of Payment Advice and Global id of bank.\n      * @param _toExcluded The length till where the uint indexes has to be fetched.\n      * @param _count The number of indexes that has to be fetched. \n      * @return _bgInvokeListByPaRefAndBankGid List of Bank Guarantee Invokes against the Payment Advice Reference Number and Bank Gid.\n      * @return fromIncluded_ _toExcluded - _count.\n      * @return length_ The length of the index present for the Payment Advice Reference Number and Bank Gid.\n      */\n    function getBgInvokeListByPaRefAndBankGid(bytes8 _bgInvokePaRefBankGid,  uint _toExcluded, uint _count) public view returns(uint[] memory _bgInvokeListByPaRefAndBankGid, uint fromIncluded_, uint length_)  {\n        //bytes8 _bgInvokePaRefBankGid = bytes8(keccak256(abi.encodePacked(_paReferenceNumber, _bankGid)));\n        uint length = Map.getByKeyBytes8ToUint(KEY, bgInvokeListByPaRefAndBankGid, _bgInvokePaRefBankGid, abi.encodePacked(keyListLength));\n        if (_toExcluded > length) {\n            _toExcluded = length;\n        }\n        uint itr = _count>_toExcluded ? _toExcluded:_count;\n        _bgInvokeListByPaRefAndBankGid = new uint[](itr);\n        while (itr>0) {\n            itr--;\n            _toExcluded--;\n            _bgInvokeListByPaRefAndBankGid[_bgInvokeListByPaRefAndBankGid.length-itr-1] = Map.getByKeyBytes8ToUint(KEY, bgInvokeListByPaRefAndBankGid, _bgInvokePaRefBankGid, abi.encodePacked(_toExcluded));\n        }\n        fromIncluded_ = _toExcluded;\n        length_ = length;\n    }\n\n\n\n    //WRITE\n\n    function setBankGuaranteeInvokeIndex(bytes8 _uid, uint _value) public \n    onlyBankGuaranteeInvokeManager {\n        Map.setBytes8ToUint(KEY, bankGuaranteeInvokeIndex, _uid, _value);\n    }\n\n    function addBgInvokeIndexListByBgUid(bytes8 _uid, uint _index) public \n    onlyBankGuaranteeInvokeManager {\n        uint length = Map.getByKeyBytes8ToUint(KEY, bgInvokeIndexListByBgUid, _uid, abi.encodePacked(keyListLength));\n        Map.setByKeyBytes8ToUint(KEY, bgInvokeIndexListByBgUid, _uid, abi.encodePacked(length), _index);\n        Map.setByKeyBytes8ToUint(KEY, bgInvokeIndexListByBgUid, _uid, abi.encodePacked(keyListLength), 1 + length);\n    }\n\n    function incBankGuaranteeInvokeListLength() public \n    onlyBankGuaranteeInvokeManager {\n        List.incLength(KEY, bankGuaranteeInvokeList);\n    }\n\n    function addBankGuaranteeInvoke(uint _index, BankGuaranteeInvoke memory _BankGuaranteeInvoke) public\n    onlyBankGuaranteeInvokeManager\n    validBankGuaranteeInvokeListIndex(_index) {\n        List.setPropBytes8(KEY, bankGuaranteeInvokeList, _index, propNameBgInvokeUid,  _BankGuaranteeInvoke.uid);\n        List.setPropBytes8(KEY, bankGuaranteeInvokeList, _index, propNameBgInvokeBankGuaranteeUid,  _BankGuaranteeInvoke.bankGuaranteeUid);\n        List.setPropString(KEY, bankGuaranteeInvokeList, _index, propNameBgInvokePaymentReference,  _BankGuaranteeInvoke.paymentReference);\n        List.setPropString(KEY, bankGuaranteeInvokeList, _index, propNameBgInvokeProcuringEntityGid,  _BankGuaranteeInvoke.procuringEntityGid);\n        List.setPropString(KEY, bankGuaranteeInvokeList, _index, propNameBgInvokeEgpSystemId,  _BankGuaranteeInvoke.egpSystemId);\n        List.setPropString(KEY, bankGuaranteeInvokeList, _index, propNameBgInvokeVendorGid,  _BankGuaranteeInvoke.vendorGid);\n        List.setPropString(KEY, bankGuaranteeInvokeList, _index, propNameBgInvokeBankGid,  _BankGuaranteeInvoke.bankGid);  \n        List.setPropString(KEY, bankGuaranteeInvokeList, _index, propNameBgInvokeBranchName,  _BankGuaranteeInvoke.branchName);\n        List.setPropUint(KEY, bankGuaranteeInvokeList, _index, propNameBgInvokeRevocationDate,  _BankGuaranteeInvoke.revocationDate);\n        List.setPropString(KEY, bankGuaranteeInvokeList, _index, propNameBgInvokeRevocationCurrencyType,  _BankGuaranteeInvoke.currency);\n        List.setPropUint(KEY, bankGuaranteeInvokeList, _index, propNameBgInvokeRevocationAmount,  _BankGuaranteeInvoke.revocationAmount);\n        List.setPropString(KEY, bankGuaranteeInvokeList, _index, propNameBgInvokeBeneficiaryName,  _BankGuaranteeInvoke.beneficiaryName);\n        List.setPropString(KEY, bankGuaranteeInvokeList, _index, propNameBgInvokeBeneficiaryBankAccountNumber,  _BankGuaranteeInvoke.beneficiaryBankAccountNumber);\n        List.setPropString(KEY, bankGuaranteeInvokeList, _index, propNameBgInvokeBeneficiaryBankName,  _BankGuaranteeInvoke.beneficiaryBankName);\n        List.setPropString(KEY, bankGuaranteeInvokeList, _index, propNameBgInvokeBeneficiaryBranchName,  _BankGuaranteeInvoke.beneficiaryBranchName);\n        List.setPropString(KEY, bankGuaranteeInvokeList, _index, propNameBgInvokeBeneficiaryIfscCode,  _BankGuaranteeInvoke.beneficiaryIfscCode);\n        List.setPropString(KEY, bankGuaranteeInvokeList, _index, propNameBgInvokeBgInvokeFileHash,  _BankGuaranteeInvoke.bgInvokeFileHash);\n        List.setPropUint16(KEY, bankGuaranteeInvokeList, _index, propNameBgInvokeVersion, __InvokeVERSION__);\n    }\n\n    \n    /** @dev Setting the Bank Guarantee Invokes against the Bank Gid, Setting the Bank Guarantee Invokes against the EgpSystem Id , Setting the Bank Guarantee Invokes against the Bank Guarantee Reference Number and Bank Gid, Setting the Bank Guarantee Invokes against the Payment Advice Reference Number and Bank Gid.\n      * @param _BankGuaranteeInvoke Bank guarantee Invoke details.\n      * @param _value Index of Bank guarantee Invoke.\n      * @param _referenceNumber Bank Guarantee Reference Number.\n      */\n    function setBankGuaranteeInvokeIndices(BankGuaranteeInvoke memory _BankGuaranteeInvoke, uint _value, string memory _referenceNumber) public \n    onlyBankGuaranteeInvokeManager\n    {\n        // set bgInvokeListByBankGID\n        uint length = Map.getByKeyStringToUint(KEY, bgInvokeListByBankGID, _BankGuaranteeInvoke.bankGid, abi.encodePacked(keyListLength));\n        Map.setByKeyStringToUint(KEY, bgInvokeListByBankGID, _BankGuaranteeInvoke.bankGid, abi.encodePacked(keyListLength), 1+length);\n        Map.setByKeyStringToUint(KEY, bgInvokeListByBankGID, _BankGuaranteeInvoke.bankGid, abi.encodePacked(length), _value);\n        \n        // set bgInvokeListByEgpID\n        length = Map.getByKeyStringToUint(KEY, bgInvokeListByEgpID, _BankGuaranteeInvoke.egpSystemId, abi.encodePacked(keyListLength));\n        Map.setByKeyStringToUint(KEY, bgInvokeListByEgpID, _BankGuaranteeInvoke.egpSystemId, abi.encodePacked(keyListLength), 1+length);\n        Map.setByKeyStringToUint(KEY, bgInvokeListByEgpID, _BankGuaranteeInvoke.egpSystemId, abi.encodePacked(length), _value);\n        \n        // set bgInvokeListByBgRefAndBankGid\n        bytes8 _bgInvokeBgRefBankGid = bytes8(keccak256(abi.encodePacked(_referenceNumber, _BankGuaranteeInvoke.bankGid)));\n        length = Map.getByKeyBytes8ToUint(KEY, bgInvokeListByBgRefAndBankGid, _bgInvokeBgRefBankGid, abi.encodePacked(keyListLength));\n        Map.setByKeyBytes8ToUint(KEY, bgInvokeListByBgRefAndBankGid, _bgInvokeBgRefBankGid, abi.encodePacked(keyListLength), 1+length);\n        Map.setByKeyBytes8ToUint(KEY, bgInvokeListByBgRefAndBankGid, _bgInvokeBgRefBankGid, abi.encodePacked(length), _value);\n        \n\n        // set BgInvokeListByPaRefAndBankGid\n        bytes8 _bgInvokePaRefBankGid = bytes8(keccak256(abi.encodePacked(_BankGuaranteeInvoke.paymentReference, _BankGuaranteeInvoke.bankGid)));\n        length = Map.getByKeyBytes8ToUint(KEY, bgInvokeListByPaRefAndBankGid, _bgInvokePaRefBankGid, abi.encodePacked(keyListLength));\n        Map.setByKeyBytes8ToUint(KEY, bgInvokeListByPaRefAndBankGid, _bgInvokePaRefBankGid, abi.encodePacked(keyListLength), 1+length);\n        Map.setByKeyBytes8ToUint(KEY, bgInvokeListByPaRefAndBankGid, _bgInvokePaRefBankGid, abi.encodePacked(length), _value);\n\n        _setBgReleaseAndInvokeListByBgUid(_BankGuaranteeInvoke.bankGuaranteeUid, _value);  \n        \n    }\n\n    function _setBgReleaseAndInvokeListByBgUid(bytes8 _Uid, uint _value) internal\n    {\n        // set bgReleaseAndInvokeListByBgUid\n        uint length = Map.getByKeyBytes8ToUint(KEY, bgReleaseAndInvokeListByBgUid, _Uid, abi.encodePacked(keyListLength));\n        Map.setByKeyBytes8ToUint(KEY, bgReleaseAndInvokeListByBgUid, _Uid, abi.encodePacked(keyListLength), 1+length);\n        Map.setByKeyBytes8ToUint(KEY, bgReleaseAndInvokeListByBgUid, _Uid, abi.encodePacked(length), _value);\n        Map.setByKeyBytes8ToUint(KEY, mapBgReleaseAndInvokeByUid, _Uid, abi.encodePacked(_value), 1);\n    }\n\n}",
  "sourcePath": "/home/raghupathi/Desktop/javaClass/javaClass/contracts/BankGuaranteeInvokeModel.sol",
  "compiler": {
    "name": "solc",
    "version": "0.8.20+commit.a1b79de6.Emscripten.clang"
  },
  "schemaVersion": "3.4.14",
  "updatedAt": "2023-06-02T09:43:22.567Z",
  "devdoc": {
    "kind": "dev",
    "methods": {
      "getBgInvokeListByBankGID(string,uint256,uint256)": {
        "details": "Listing out the Bank Guarantee Invokes against the Bank Gid.",
        "params": {
          "_bankGid": "Global id of bank.",
          "_count": "The number of indexes that has to be fetched. ",
          "_toExcluded": "The length till where the uint indexes has to be fetched."
        },
        "returns": {
          "_bgInvokeListByBankGID": "List of Bank Guarantee Invokes against the Bank Gid.",
          "fromIncluded_": "_toExcluded - _count.",
          "length_": "The length of the index present for the Bank Gid."
        }
      },
      "getBgInvokeListByBgRefAndBankGid(bytes8,uint256,uint256)": {
        "details": "Listing out the Bank Guarantee Invokes against the Reference Number and Bank Gid.",
        "params": {
          "_bgInvokeBgRefBankGid": "Reference number of bank Guarantee AND Global id of bank.",
          "_count": "The number of indexes that has to be fetched. ",
          "_toExcluded": "The length till where the uint indexes has to be fetched."
        },
        "returns": {
          "_bgInvokeListByBgRefAndBankGid": "List of Bank Guarantee Invokes against the Reference Number and Bank Gid.",
          "fromIncluded_": "_toExcluded - _count.",
          "length_": "The length of the index present for the Reference Number and Bank Gid."
        }
      },
      "getBgInvokeListByEgpID(string,uint256,uint256)": {
        "details": "Listing out the Bank Guarantee Invokes against the EgpSystem Id.",
        "params": {
          "_count": "The number of indexes that has to be fetched. ",
          "_egpSystemId": "e-GP system Id registered with the network.",
          "_toExcluded": "The length till where the uint indexes has to be fetched."
        },
        "returns": {
          "_bgInvokeListByEgpID": "List of Bank Guarantee Invokes against the EgpSystem Id.",
          "fromIncluded_": "_toExcluded - _count.",
          "length_": "The length of the index present for the EgpSystem Id."
        }
      },
      "getBgInvokeListByPaRefAndBankGid(bytes8,uint256,uint256)": {
        "details": "Listing out the Bank Guarantee Invokes against the Payment Advice Reference Number and Bank Gid.",
        "params": {
          "_bgInvokePaRefBankGid": "Reference number of Payment Advice and Global id of bank.",
          "_count": "The number of indexes that has to be fetched. ",
          "_toExcluded": "The length till where the uint indexes has to be fetched."
        },
        "returns": {
          "_bgInvokeListByPaRefAndBankGid": "List of Bank Guarantee Invokes against the Payment Advice Reference Number and Bank Gid.",
          "fromIncluded_": "_toExcluded - _count.",
          "length_": "The length of the index present for the Payment Advice Reference Number and Bank Gid."
        }
      },
      "setBankGuaranteeInvokeIndices((bytes8,bytes8,string,string,string,string,string,string,uint256,string,uint256,string,string,string,string,string,string,uint16),uint256,string)": {
        "details": "Setting the Bank Guarantee Invokes against the Bank Gid, Setting the Bank Guarantee Invokes against the EgpSystem Id , Setting the Bank Guarantee Invokes against the Bank Guarantee Reference Number and Bank Gid, Setting the Bank Guarantee Invokes against the Payment Advice Reference Number and Bank Gid.",
        "params": {
          "_BankGuaranteeInvoke": "Bank guarantee Invoke details.",
          "_referenceNumber": "Bank Guarantee Reference Number.",
          "_value": "Index of Bank guarantee Invoke."
        }
      }
    },
    "version": 1
  },
  "userdoc": {
    "kind": "user",
    "methods": {},
    "version": 1
  }
}