{
  "contractName": "BankGuaranteeManager",
  "abi": [
    {
      "inputs": [
        {
          "internalType": "address",
          "name": "_bankManager",
          "type": "address"
        },
        {
          "internalType": "address",
          "name": "_paymentAdviceManager",
          "type": "address"
        },
        {
          "internalType": "address",
          "name": "_bankGuaranteeModel",
          "type": "address"
        },
        {
          "internalType": "address",
          "name": "_accountManager",
          "type": "address"
        },
        {
          "internalType": "address",
          "name": "_vcnFunctionalManager",
          "type": "address"
        }
      ],
      "stateMutability": "nonpayable",
      "type": "constructor"
    },
    {
      "anonymous": false,
      "inputs": [
        {
          "indexed": false,
          "internalType": "bytes8",
          "name": "_bgUid",
          "type": "bytes8"
        },
        {
          "indexed": false,
          "internalType": "string",
          "name": "_bgReferenceNumber",
          "type": "string"
        },
        {
          "indexed": false,
          "internalType": "string",
          "name": "paymentAdviceNumber",
          "type": "string"
        },
        {
          "indexed": false,
          "internalType": "uint256",
          "name": "_bgAmendment",
          "type": "uint256"
        }
      ],
      "name": "AmendedBankGuaranteeRegistered",
      "type": "event"
    },
    {
      "anonymous": false,
      "inputs": [
        {
          "indexed": false,
          "internalType": "bytes8",
          "name": "_bgUid",
          "type": "bytes8"
        },
        {
          "indexed": false,
          "internalType": "string",
          "name": "_bgReferenceNumber",
          "type": "string"
        },
        {
          "indexed": false,
          "internalType": "bytes8",
          "name": "_paUid",
          "type": "bytes8"
        },
        {
          "indexed": false,
          "internalType": "string",
          "name": "_paymentAdviceReferenceNumber",
          "type": "string"
        }
      ],
      "name": "BankGuaranteeRegistered",
      "type": "event"
    },
    {
      "inputs": [
        {
          "components": [
            {
              "internalType": "bytes8",
              "name": "uid",
              "type": "bytes8"
            },
            {
              "internalType": "string",
              "name": "bankGid",
              "type": "string"
            },
            {
              "internalType": "string",
              "name": "paymentAdviceNumber",
              "type": "string"
            },
            {
              "internalType": "bytes8",
              "name": "paymentAdviceUid",
              "type": "bytes8"
            },
            {
              "internalType": "string",
              "name": "referenceNumber",
              "type": "string"
            },
            {
              "internalType": "string",
              "name": "branchName",
              "type": "string"
            },
            {
              "internalType": "string",
              "name": "bankRepresentativeName",
              "type": "string"
            },
            {
              "internalType": "uint256",
              "name": "issuanceDate",
              "type": "uint256"
            },
            {
              "internalType": "uint256",
              "name": "validityPeriod",
              "type": "uint256"
            },
            {
              "internalType": "uint256",
              "name": "claimExpiryDate",
              "type": "uint256"
            },
            {
              "internalType": "uint256",
              "name": "validFrom",
              "type": "uint256"
            },
            {
              "internalType": "uint256",
              "name": "validTill",
              "type": "uint256"
            },
            {
              "internalType": "string",
              "name": "currency",
              "type": "string"
            },
            {
              "internalType": "uint256",
              "name": "amount",
              "type": "uint256"
            },
            {
              "internalType": "string",
              "name": "beneficiaryName",
              "type": "string"
            },
            {
              "internalType": "string",
              "name": "fileHash",
              "type": "string"
            },
            {
              "internalType": "string",
              "name": "bankEncryptedKey",
              "type": "string"
            },
            {
              "internalType": "string",
              "name": "egpEncryptedKey",
              "type": "string"
            },
            {
              "internalType": "string",
              "name": "vendorEncryptedKey",
              "type": "string"
            },
            {
              "internalType": "uint256",
              "name": "amendment",
              "type": "uint256"
            },
            {
              "internalType": "enum BankGuaranteeStructs.FormStatus",
              "name": "formStatus",
              "type": "uint8"
            },
            {
              "internalType": "uint16",
              "name": "version",
              "type": "uint16"
            }
          ],
          "internalType": "struct BankGuaranteeStructs.BankGuarantee",
          "name": "_bankGuarantee",
          "type": "tuple"
        }
      ],
      "name": "publishBankGuarantee",
      "outputs": [],
      "stateMutability": "nonpayable",
      "type": "function"
    },
    {
      "inputs": [
        {
          "components": [
            {
              "internalType": "bytes8",
              "name": "uid",
              "type": "bytes8"
            },
            {
              "internalType": "string",
              "name": "bankGid",
              "type": "string"
            },
            {
              "internalType": "string",
              "name": "paymentAdviceNumber",
              "type": "string"
            },
            {
              "internalType": "bytes8",
              "name": "paymentAdviceUid",
              "type": "bytes8"
            },
            {
              "internalType": "string",
              "name": "referenceNumber",
              "type": "string"
            },
            {
              "internalType": "string",
              "name": "branchName",
              "type": "string"
            },
            {
              "internalType": "string",
              "name": "bankRepresentativeName",
              "type": "string"
            },
            {
              "internalType": "uint256",
              "name": "issuanceDate",
              "type": "uint256"
            },
            {
              "internalType": "uint256",
              "name": "validityPeriod",
              "type": "uint256"
            },
            {
              "internalType": "uint256",
              "name": "claimExpiryDate",
              "type": "uint256"
            },
            {
              "internalType": "uint256",
              "name": "validFrom",
              "type": "uint256"
            },
            {
              "internalType": "uint256",
              "name": "validTill",
              "type": "uint256"
            },
            {
              "internalType": "string",
              "name": "currency",
              "type": "string"
            },
            {
              "internalType": "uint256",
              "name": "amount",
              "type": "uint256"
            },
            {
              "internalType": "string",
              "name": "beneficiaryName",
              "type": "string"
            },
            {
              "internalType": "string",
              "name": "fileHash",
              "type": "string"
            },
            {
              "internalType": "string",
              "name": "bankEncryptedKey",
              "type": "string"
            },
            {
              "internalType": "string",
              "name": "egpEncryptedKey",
              "type": "string"
            },
            {
              "internalType": "string",
              "name": "vendorEncryptedKey",
              "type": "string"
            },
            {
              "internalType": "uint256",
              "name": "amendment",
              "type": "uint256"
            },
            {
              "internalType": "enum BankGuaranteeStructs.FormStatus",
              "name": "formStatus",
              "type": "uint8"
            },
            {
              "internalType": "uint16",
              "name": "version",
              "type": "uint16"
            }
          ],
          "internalType": "struct BankGuaranteeStructs.BankGuarantee",
          "name": "_bankGuarantee",
          "type": "tuple"
        }
      ],
      "name": "amendedBankGuarantee",
      "outputs": [],
      "stateMutability": "nonpayable",
      "type": "function"
    },
    {
      "inputs": [
        {
          "internalType": "string",
          "name": "_bankGid",
          "type": "string"
        },
        {
          "internalType": "bytes8",
          "name": "_bankGuaranteeUid",
          "type": "bytes8"
        }
      ],
      "name": "setBgReleaseStatusPaUid",
      "outputs": [],
      "stateMutability": "nonpayable",
      "type": "function"
    },
    {
      "inputs": [
        {
          "internalType": "uint256",
          "name": "_toExcluded",
          "type": "uint256"
        },
        {
          "internalType": "uint256",
          "name": "_count",
          "type": "uint256"
        }
      ],
      "name": "getAllBankGuarantee",
      "outputs": [
        {
          "components": [
            {
              "internalType": "bytes8",
              "name": "uid",
              "type": "bytes8"
            },
            {
              "internalType": "string",
              "name": "bankGid",
              "type": "string"
            },
            {
              "internalType": "string",
              "name": "paymentAdviceNumber",
              "type": "string"
            },
            {
              "internalType": "bytes8",
              "name": "paymentAdviceUid",
              "type": "bytes8"
            },
            {
              "internalType": "string",
              "name": "referenceNumber",
              "type": "string"
            },
            {
              "internalType": "string",
              "name": "branchName",
              "type": "string"
            },
            {
              "internalType": "string",
              "name": "bankRepresentativeName",
              "type": "string"
            },
            {
              "internalType": "uint256",
              "name": "issuanceDate",
              "type": "uint256"
            },
            {
              "internalType": "uint256",
              "name": "validityPeriod",
              "type": "uint256"
            },
            {
              "internalType": "uint256",
              "name": "claimExpiryDate",
              "type": "uint256"
            },
            {
              "internalType": "uint256",
              "name": "validFrom",
              "type": "uint256"
            },
            {
              "internalType": "uint256",
              "name": "validTill",
              "type": "uint256"
            },
            {
              "internalType": "string",
              "name": "currency",
              "type": "string"
            },
            {
              "internalType": "uint256",
              "name": "amount",
              "type": "uint256"
            },
            {
              "internalType": "string",
              "name": "beneficiaryName",
              "type": "string"
            },
            {
              "internalType": "string",
              "name": "fileHash",
              "type": "string"
            },
            {
              "internalType": "string",
              "name": "bankEncryptedKey",
              "type": "string"
            },
            {
              "internalType": "string",
              "name": "egpEncryptedKey",
              "type": "string"
            },
            {
              "internalType": "string",
              "name": "vendorEncryptedKey",
              "type": "string"
            },
            {
              "internalType": "uint256",
              "name": "amendment",
              "type": "uint256"
            },
            {
              "internalType": "enum BankGuaranteeStructs.FormStatus",
              "name": "formStatus",
              "type": "uint8"
            },
            {
              "internalType": "uint16",
              "name": "version",
              "type": "uint16"
            }
          ],
          "internalType": "struct BankGuaranteeStructs.BankGuarantee[]",
          "name": "_bankGuarantee",
          "type": "tuple[]"
        },
        {
          "internalType": "uint256",
          "name": "fromIncluded_",
          "type": "uint256"
        },
        {
          "internalType": "uint256",
          "name": "length_",
          "type": "uint256"
        }
      ],
      "stateMutability": "view",
      "type": "function"
    },
    {
      "inputs": [
        {
          "internalType": "bytes8",
          "name": "_uid",
          "type": "bytes8"
        }
      ],
      "name": "getBankGuarantee",
      "outputs": [
        {
          "components": [
            {
              "internalType": "bytes8",
              "name": "uid",
              "type": "bytes8"
            },
            {
              "internalType": "string",
              "name": "bankGid",
              "type": "string"
            },
            {
              "internalType": "string",
              "name": "paymentAdviceNumber",
              "type": "string"
            },
            {
              "internalType": "bytes8",
              "name": "paymentAdviceUid",
              "type": "bytes8"
            },
            {
              "internalType": "string",
              "name": "referenceNumber",
              "type": "string"
            },
            {
              "internalType": "string",
              "name": "branchName",
              "type": "string"
            },
            {
              "internalType": "string",
              "name": "bankRepresentativeName",
              "type": "string"
            },
            {
              "internalType": "uint256",
              "name": "issuanceDate",
              "type": "uint256"
            },
            {
              "internalType": "uint256",
              "name": "validityPeriod",
              "type": "uint256"
            },
            {
              "internalType": "uint256",
              "name": "claimExpiryDate",
              "type": "uint256"
            },
            {
              "internalType": "uint256",
              "name": "validFrom",
              "type": "uint256"
            },
            {
              "internalType": "uint256",
              "name": "validTill",
              "type": "uint256"
            },
            {
              "internalType": "string",
              "name": "currency",
              "type": "string"
            },
            {
              "internalType": "uint256",
              "name": "amount",
              "type": "uint256"
            },
            {
              "internalType": "string",
              "name": "beneficiaryName",
              "type": "string"
            },
            {
              "internalType": "string",
              "name": "fileHash",
              "type": "string"
            },
            {
              "internalType": "string",
              "name": "bankEncryptedKey",
              "type": "string"
            },
            {
              "internalType": "string",
              "name": "egpEncryptedKey",
              "type": "string"
            },
            {
              "internalType": "string",
              "name": "vendorEncryptedKey",
              "type": "string"
            },
            {
              "internalType": "uint256",
              "name": "amendment",
              "type": "uint256"
            },
            {
              "internalType": "enum BankGuaranteeStructs.FormStatus",
              "name": "formStatus",
              "type": "uint8"
            },
            {
              "internalType": "uint16",
              "name": "version",
              "type": "uint16"
            }
          ],
          "internalType": "struct BankGuaranteeStructs.BankGuarantee",
          "name": "bankGuarantee_",
          "type": "tuple"
        }
      ],
      "stateMutability": "view",
      "type": "function"
    },
    {
      "inputs": [
        {
          "internalType": "string",
          "name": "_referenceNumber",
          "type": "string"
        },
        {
          "internalType": "string",
          "name": "_bankGid",
          "type": "string"
        },
        {
          "internalType": "uint256",
          "name": "_toExcluded",
          "type": "uint256"
        },
        {
          "internalType": "uint256",
          "name": "_count",
          "type": "uint256"
        }
      ],
      "name": "getBankGuaranteeListByBgReferenceAndBankGid",
      "outputs": [
        {
          "components": [
            {
              "internalType": "bytes8",
              "name": "uid",
              "type": "bytes8"
            },
            {
              "internalType": "string",
              "name": "bankGid",
              "type": "string"
            },
            {
              "internalType": "string",
              "name": "paymentAdviceNumber",
              "type": "string"
            },
            {
              "internalType": "bytes8",
              "name": "paymentAdviceUid",
              "type": "bytes8"
            },
            {
              "internalType": "string",
              "name": "referenceNumber",
              "type": "string"
            },
            {
              "internalType": "string",
              "name": "branchName",
              "type": "string"
            },
            {
              "internalType": "string",
              "name": "bankRepresentativeName",
              "type": "string"
            },
            {
              "internalType": "uint256",
              "name": "issuanceDate",
              "type": "uint256"
            },
            {
              "internalType": "uint256",
              "name": "validityPeriod",
              "type": "uint256"
            },
            {
              "internalType": "uint256",
              "name": "claimExpiryDate",
              "type": "uint256"
            },
            {
              "internalType": "uint256",
              "name": "validFrom",
              "type": "uint256"
            },
            {
              "internalType": "uint256",
              "name": "validTill",
              "type": "uint256"
            },
            {
              "internalType": "string",
              "name": "currency",
              "type": "string"
            },
            {
              "internalType": "uint256",
              "name": "amount",
              "type": "uint256"
            },
            {
              "internalType": "string",
              "name": "beneficiaryName",
              "type": "string"
            },
            {
              "internalType": "string",
              "name": "fileHash",
              "type": "string"
            },
            {
              "internalType": "string",
              "name": "bankEncryptedKey",
              "type": "string"
            },
            {
              "internalType": "string",
              "name": "egpEncryptedKey",
              "type": "string"
            },
            {
              "internalType": "string",
              "name": "vendorEncryptedKey",
              "type": "string"
            },
            {
              "internalType": "uint256",
              "name": "amendment",
              "type": "uint256"
            },
            {
              "internalType": "enum BankGuaranteeStructs.FormStatus",
              "name": "formStatus",
              "type": "uint8"
            },
            {
              "internalType": "uint16",
              "name": "version",
              "type": "uint16"
            }
          ],
          "internalType": "struct BankGuaranteeStructs.BankGuarantee[]",
          "name": "_bankGuaranteeByBgReferenceAndBankGid",
          "type": "tuple[]"
        },
        {
          "internalType": "uint256",
          "name": "fromIncluded_",
          "type": "uint256"
        },
        {
          "internalType": "uint256",
          "name": "length_",
          "type": "uint256"
        }
      ],
      "stateMutability": "view",
      "type": "function"
    },
    {
      "inputs": [
        {
          "internalType": "string",
          "name": "_vendorGid",
          "type": "string"
        },
        {
          "internalType": "string",
          "name": "_bankGid",
          "type": "string"
        },
        {
          "internalType": "uint256",
          "name": "_toExcluded",
          "type": "uint256"
        },
        {
          "internalType": "uint256",
          "name": "_count",
          "type": "uint256"
        }
      ],
      "name": "getBankGuaranteeListByVendorAndBankGid",
      "outputs": [
        {
          "components": [
            {
              "internalType": "bytes8",
              "name": "uid",
              "type": "bytes8"
            },
            {
              "internalType": "string",
              "name": "bankGid",
              "type": "string"
            },
            {
              "internalType": "string",
              "name": "paymentAdviceNumber",
              "type": "string"
            },
            {
              "internalType": "bytes8",
              "name": "paymentAdviceUid",
              "type": "bytes8"
            },
            {
              "internalType": "string",
              "name": "referenceNumber",
              "type": "string"
            },
            {
              "internalType": "string",
              "name": "branchName",
              "type": "string"
            },
            {
              "internalType": "string",
              "name": "bankRepresentativeName",
              "type": "string"
            },
            {
              "internalType": "uint256",
              "name": "issuanceDate",
              "type": "uint256"
            },
            {
              "internalType": "uint256",
              "name": "validityPeriod",
              "type": "uint256"
            },
            {
              "internalType": "uint256",
              "name": "claimExpiryDate",
              "type": "uint256"
            },
            {
              "internalType": "uint256",
              "name": "validFrom",
              "type": "uint256"
            },
            {
              "internalType": "uint256",
              "name": "validTill",
              "type": "uint256"
            },
            {
              "internalType": "string",
              "name": "currency",
              "type": "string"
            },
            {
              "internalType": "uint256",
              "name": "amount",
              "type": "uint256"
            },
            {
              "internalType": "string",
              "name": "beneficiaryName",
              "type": "string"
            },
            {
              "internalType": "string",
              "name": "fileHash",
              "type": "string"
            },
            {
              "internalType": "string",
              "name": "bankEncryptedKey",
              "type": "string"
            },
            {
              "internalType": "string",
              "name": "egpEncryptedKey",
              "type": "string"
            },
            {
              "internalType": "string",
              "name": "vendorEncryptedKey",
              "type": "string"
            },
            {
              "internalType": "uint256",
              "name": "amendment",
              "type": "uint256"
            },
            {
              "internalType": "enum BankGuaranteeStructs.FormStatus",
              "name": "formStatus",
              "type": "uint8"
            },
            {
              "internalType": "uint16",
              "name": "version",
              "type": "uint16"
            }
          ],
          "internalType": "struct BankGuaranteeStructs.BankGuarantee[]",
          "name": "_bankGuaranteeByVendorAndBankGid",
          "type": "tuple[]"
        },
        {
          "internalType": "uint256",
          "name": "fromIncluded_",
          "type": "uint256"
        },
        {
          "internalType": "uint256",
          "name": "length_",
          "type": "uint256"
        }
      ],
      "stateMutability": "view",
      "type": "function"
    },
    {
      "inputs": [
        {
          "internalType": "string",
          "name": "_peGid",
          "type": "string"
        },
        {
          "internalType": "string",
          "name": "_bankGid",
          "type": "string"
        },
        {
          "internalType": "uint256",
          "name": "_toExcluded",
          "type": "uint256"
        },
        {
          "internalType": "uint256",
          "name": "_count",
          "type": "uint256"
        }
      ],
      "name": "getBankGuaranteeListByPEAndBankGid",
      "outputs": [
        {
          "components": [
            {
              "internalType": "bytes8",
              "name": "uid",
              "type": "bytes8"
            },
            {
              "internalType": "string",
              "name": "bankGid",
              "type": "string"
            },
            {
              "internalType": "string",
              "name": "paymentAdviceNumber",
              "type": "string"
            },
            {
              "internalType": "bytes8",
              "name": "paymentAdviceUid",
              "type": "bytes8"
            },
            {
              "internalType": "string",
              "name": "referenceNumber",
              "type": "string"
            },
            {
              "internalType": "string",
              "name": "branchName",
              "type": "string"
            },
            {
              "internalType": "string",
              "name": "bankRepresentativeName",
              "type": "string"
            },
            {
              "internalType": "uint256",
              "name": "issuanceDate",
              "type": "uint256"
            },
            {
              "internalType": "uint256",
              "name": "validityPeriod",
              "type": "uint256"
            },
            {
              "internalType": "uint256",
              "name": "claimExpiryDate",
              "type": "uint256"
            },
            {
              "internalType": "uint256",
              "name": "validFrom",
              "type": "uint256"
            },
            {
              "internalType": "uint256",
              "name": "validTill",
              "type": "uint256"
            },
            {
              "internalType": "string",
              "name": "currency",
              "type": "string"
            },
            {
              "internalType": "uint256",
              "name": "amount",
              "type": "uint256"
            },
            {
              "internalType": "string",
              "name": "beneficiaryName",
              "type": "string"
            },
            {
              "internalType": "string",
              "name": "fileHash",
              "type": "string"
            },
            {
              "internalType": "string",
              "name": "bankEncryptedKey",
              "type": "string"
            },
            {
              "internalType": "string",
              "name": "egpEncryptedKey",
              "type": "string"
            },
            {
              "internalType": "string",
              "name": "vendorEncryptedKey",
              "type": "string"
            },
            {
              "internalType": "uint256",
              "name": "amendment",
              "type": "uint256"
            },
            {
              "internalType": "enum BankGuaranteeStructs.FormStatus",
              "name": "formStatus",
              "type": "uint8"
            },
            {
              "internalType": "uint16",
              "name": "version",
              "type": "uint16"
            }
          ],
          "internalType": "struct BankGuaranteeStructs.BankGuarantee[]",
          "name": "_bankGuaranteeByPEAndBankGid",
          "type": "tuple[]"
        },
        {
          "internalType": "uint256",
          "name": "fromIncluded_",
          "type": "uint256"
        },
        {
          "internalType": "uint256",
          "name": "length_",
          "type": "uint256"
        }
      ],
      "stateMutability": "view",
      "type": "function"
    },
    {
      "inputs": [
        {
          "internalType": "string",
          "name": "_bankGid",
          "type": "string"
        },
        {
          "internalType": "uint256",
          "name": "_toExcluded",
          "type": "uint256"
        },
        {
          "internalType": "uint256",
          "name": "_count",
          "type": "uint256"
        }
      ],
      "name": "getBankGuaranteesByBankGid",
      "outputs": [
        {
          "components": [
            {
              "internalType": "bytes8",
              "name": "uid",
              "type": "bytes8"
            },
            {
              "internalType": "string",
              "name": "bankGid",
              "type": "string"
            },
            {
              "internalType": "string",
              "name": "paymentAdviceNumber",
              "type": "string"
            },
            {
              "internalType": "bytes8",
              "name": "paymentAdviceUid",
              "type": "bytes8"
            },
            {
              "internalType": "string",
              "name": "referenceNumber",
              "type": "string"
            },
            {
              "internalType": "string",
              "name": "branchName",
              "type": "string"
            },
            {
              "internalType": "string",
              "name": "bankRepresentativeName",
              "type": "string"
            },
            {
              "internalType": "uint256",
              "name": "issuanceDate",
              "type": "uint256"
            },
            {
              "internalType": "uint256",
              "name": "validityPeriod",
              "type": "uint256"
            },
            {
              "internalType": "uint256",
              "name": "claimExpiryDate",
              "type": "uint256"
            },
            {
              "internalType": "uint256",
              "name": "validFrom",
              "type": "uint256"
            },
            {
              "internalType": "uint256",
              "name": "validTill",
              "type": "uint256"
            },
            {
              "internalType": "string",
              "name": "currency",
              "type": "string"
            },
            {
              "internalType": "uint256",
              "name": "amount",
              "type": "uint256"
            },
            {
              "internalType": "string",
              "name": "beneficiaryName",
              "type": "string"
            },
            {
              "internalType": "string",
              "name": "fileHash",
              "type": "string"
            },
            {
              "internalType": "string",
              "name": "bankEncryptedKey",
              "type": "string"
            },
            {
              "internalType": "string",
              "name": "egpEncryptedKey",
              "type": "string"
            },
            {
              "internalType": "string",
              "name": "vendorEncryptedKey",
              "type": "string"
            },
            {
              "internalType": "uint256",
              "name": "amendment",
              "type": "uint256"
            },
            {
              "internalType": "enum BankGuaranteeStructs.FormStatus",
              "name": "formStatus",
              "type": "uint8"
            },
            {
              "internalType": "uint16",
              "name": "version",
              "type": "uint16"
            }
          ],
          "internalType": "struct BankGuaranteeStructs.BankGuarantee[]",
          "name": "bankGuarantees_",
          "type": "tuple[]"
        },
        {
          "internalType": "uint256",
          "name": "fromIncluded_",
          "type": "uint256"
        },
        {
          "internalType": "uint256",
          "name": "length_",
          "type": "uint256"
        }
      ],
      "stateMutability": "view",
      "type": "function"
    },
    {
      "inputs": [
        {
          "internalType": "string",
          "name": "_paymentAdviceReferenceNumber",
          "type": "string"
        },
        {
          "internalType": "string",
          "name": "_egpSystemId",
          "type": "string"
        },
        {
          "internalType": "uint256",
          "name": "_toExcluded",
          "type": "uint256"
        },
        {
          "internalType": "uint256",
          "name": "_count",
          "type": "uint256"
        }
      ],
      "name": "getBankGuaranteesByPaymentAdviceRefAndEgpId",
      "outputs": [
        {
          "components": [
            {
              "internalType": "bytes8",
              "name": "uid",
              "type": "bytes8"
            },
            {
              "internalType": "string",
              "name": "bankGid",
              "type": "string"
            },
            {
              "internalType": "string",
              "name": "paymentAdviceNumber",
              "type": "string"
            },
            {
              "internalType": "bytes8",
              "name": "paymentAdviceUid",
              "type": "bytes8"
            },
            {
              "internalType": "string",
              "name": "referenceNumber",
              "type": "string"
            },
            {
              "internalType": "string",
              "name": "branchName",
              "type": "string"
            },
            {
              "internalType": "string",
              "name": "bankRepresentativeName",
              "type": "string"
            },
            {
              "internalType": "uint256",
              "name": "issuanceDate",
              "type": "uint256"
            },
            {
              "internalType": "uint256",
              "name": "validityPeriod",
              "type": "uint256"
            },
            {
              "internalType": "uint256",
              "name": "claimExpiryDate",
              "type": "uint256"
            },
            {
              "internalType": "uint256",
              "name": "validFrom",
              "type": "uint256"
            },
            {
              "internalType": "uint256",
              "name": "validTill",
              "type": "uint256"
            },
            {
              "internalType": "string",
              "name": "currency",
              "type": "string"
            },
            {
              "internalType": "uint256",
              "name": "amount",
              "type": "uint256"
            },
            {
              "internalType": "string",
              "name": "beneficiaryName",
              "type": "string"
            },
            {
              "internalType": "string",
              "name": "fileHash",
              "type": "string"
            },
            {
              "internalType": "string",
              "name": "bankEncryptedKey",
              "type": "string"
            },
            {
              "internalType": "string",
              "name": "egpEncryptedKey",
              "type": "string"
            },
            {
              "internalType": "string",
              "name": "vendorEncryptedKey",
              "type": "string"
            },
            {
              "internalType": "uint256",
              "name": "amendment",
              "type": "uint256"
            },
            {
              "internalType": "enum BankGuaranteeStructs.FormStatus",
              "name": "formStatus",
              "type": "uint8"
            },
            {
              "internalType": "uint16",
              "name": "version",
              "type": "uint16"
            }
          ],
          "internalType": "struct BankGuaranteeStructs.BankGuarantee[]",
          "name": "bankGuarantees_",
          "type": "tuple[]"
        },
        {
          "internalType": "uint256",
          "name": "fromIncluded_",
          "type": "uint256"
        },
        {
          "internalType": "uint256",
          "name": "length_",
          "type": "uint256"
        }
      ],
      "stateMutability": "view",
      "type": "function"
    },
    {
      "inputs": [
        {
          "internalType": "string",
          "name": "_vendorGid",
          "type": "string"
        },
        {
          "internalType": "uint256",
          "name": "_toExcluded",
          "type": "uint256"
        },
        {
          "internalType": "uint256",
          "name": "_count",
          "type": "uint256"
        }
      ],
      "name": "getBankGuaranteesByVendorGid",
      "outputs": [
        {
          "components": [
            {
              "internalType": "bytes8",
              "name": "uid",
              "type": "bytes8"
            },
            {
              "internalType": "string",
              "name": "bankGid",
              "type": "string"
            },
            {
              "internalType": "string",
              "name": "paymentAdviceNumber",
              "type": "string"
            },
            {
              "internalType": "bytes8",
              "name": "paymentAdviceUid",
              "type": "bytes8"
            },
            {
              "internalType": "string",
              "name": "referenceNumber",
              "type": "string"
            },
            {
              "internalType": "string",
              "name": "branchName",
              "type": "string"
            },
            {
              "internalType": "string",
              "name": "bankRepresentativeName",
              "type": "string"
            },
            {
              "internalType": "uint256",
              "name": "issuanceDate",
              "type": "uint256"
            },
            {
              "internalType": "uint256",
              "name": "validityPeriod",
              "type": "uint256"
            },
            {
              "internalType": "uint256",
              "name": "claimExpiryDate",
              "type": "uint256"
            },
            {
              "internalType": "uint256",
              "name": "validFrom",
              "type": "uint256"
            },
            {
              "internalType": "uint256",
              "name": "validTill",
              "type": "uint256"
            },
            {
              "internalType": "string",
              "name": "currency",
              "type": "string"
            },
            {
              "internalType": "uint256",
              "name": "amount",
              "type": "uint256"
            },
            {
              "internalType": "string",
              "name": "beneficiaryName",
              "type": "string"
            },
            {
              "internalType": "string",
              "name": "fileHash",
              "type": "string"
            },
            {
              "internalType": "string",
              "name": "bankEncryptedKey",
              "type": "string"
            },
            {
              "internalType": "string",
              "name": "egpEncryptedKey",
              "type": "string"
            },
            {
              "internalType": "string",
              "name": "vendorEncryptedKey",
              "type": "string"
            },
            {
              "internalType": "uint256",
              "name": "amendment",
              "type": "uint256"
            },
            {
              "internalType": "enum BankGuaranteeStructs.FormStatus",
              "name": "formStatus",
              "type": "uint8"
            },
            {
              "internalType": "uint16",
              "name": "version",
              "type": "uint16"
            }
          ],
          "internalType": "struct BankGuaranteeStructs.BankGuarantee[]",
          "name": "bankGuarantees_",
          "type": "tuple[]"
        },
        {
          "internalType": "uint256",
          "name": "fromIncluded_",
          "type": "uint256"
        },
        {
          "internalType": "uint256",
          "name": "length_",
          "type": "uint256"
        }
      ],
      "stateMutability": "view",
      "type": "function"
    },
    {
      "inputs": [
        {
          "internalType": "string",
          "name": "_egpId",
          "type": "string"
        },
        {
          "internalType": "uint256",
          "name": "_toExcluded",
          "type": "uint256"
        },
        {
          "internalType": "uint256",
          "name": "_count",
          "type": "uint256"
        }
      ],
      "name": "getBankGuaranteesByEgpId",
      "outputs": [
        {
          "components": [
            {
              "internalType": "bytes8",
              "name": "uid",
              "type": "bytes8"
            },
            {
              "internalType": "string",
              "name": "bankGid",
              "type": "string"
            },
            {
              "internalType": "string",
              "name": "paymentAdviceNumber",
              "type": "string"
            },
            {
              "internalType": "bytes8",
              "name": "paymentAdviceUid",
              "type": "bytes8"
            },
            {
              "internalType": "string",
              "name": "referenceNumber",
              "type": "string"
            },
            {
              "internalType": "string",
              "name": "branchName",
              "type": "string"
            },
            {
              "internalType": "string",
              "name": "bankRepresentativeName",
              "type": "string"
            },
            {
              "internalType": "uint256",
              "name": "issuanceDate",
              "type": "uint256"
            },
            {
              "internalType": "uint256",
              "name": "validityPeriod",
              "type": "uint256"
            },
            {
              "internalType": "uint256",
              "name": "claimExpiryDate",
              "type": "uint256"
            },
            {
              "internalType": "uint256",
              "name": "validFrom",
              "type": "uint256"
            },
            {
              "internalType": "uint256",
              "name": "validTill",
              "type": "uint256"
            },
            {
              "internalType": "string",
              "name": "currency",
              "type": "string"
            },
            {
              "internalType": "uint256",
              "name": "amount",
              "type": "uint256"
            },
            {
              "internalType": "string",
              "name": "beneficiaryName",
              "type": "string"
            },
            {
              "internalType": "string",
              "name": "fileHash",
              "type": "string"
            },
            {
              "internalType": "string",
              "name": "bankEncryptedKey",
              "type": "string"
            },
            {
              "internalType": "string",
              "name": "egpEncryptedKey",
              "type": "string"
            },
            {
              "internalType": "string",
              "name": "vendorEncryptedKey",
              "type": "string"
            },
            {
              "internalType": "uint256",
              "name": "amendment",
              "type": "uint256"
            },
            {
              "internalType": "enum BankGuaranteeStructs.FormStatus",
              "name": "formStatus",
              "type": "uint8"
            },
            {
              "internalType": "uint16",
              "name": "version",
              "type": "uint16"
            }
          ],
          "internalType": "struct BankGuaranteeStructs.BankGuarantee[]",
          "name": "bankGuarantees_",
          "type": "tuple[]"
        },
        {
          "internalType": "uint256",
          "name": "fromIncluded_",
          "type": "uint256"
        },
        {
          "internalType": "uint256",
          "name": "length_",
          "type": "uint256"
        }
      ],
      "stateMutability": "view",
      "type": "function"
    },
    {
      "inputs": [
        {
          "internalType": "string",
          "name": "_gid",
          "type": "string"
        },
        {
          "internalType": "uint256",
          "name": "_toExcluded",
          "type": "uint256"
        },
        {
          "internalType": "uint256",
          "name": "_count",
          "type": "uint256"
        }
      ],
      "name": "getBankGuaranteesByPeGid",
      "outputs": [
        {
          "components": [
            {
              "internalType": "bytes8",
              "name": "uid",
              "type": "bytes8"
            },
            {
              "internalType": "string",
              "name": "bankGid",
              "type": "string"
            },
            {
              "internalType": "string",
              "name": "paymentAdviceNumber",
              "type": "string"
            },
            {
              "internalType": "bytes8",
              "name": "paymentAdviceUid",
              "type": "bytes8"
            },
            {
              "internalType": "string",
              "name": "referenceNumber",
              "type": "string"
            },
            {
              "internalType": "string",
              "name": "branchName",
              "type": "string"
            },
            {
              "internalType": "string",
              "name": "bankRepresentativeName",
              "type": "string"
            },
            {
              "internalType": "uint256",
              "name": "issuanceDate",
              "type": "uint256"
            },
            {
              "internalType": "uint256",
              "name": "validityPeriod",
              "type": "uint256"
            },
            {
              "internalType": "uint256",
              "name": "claimExpiryDate",
              "type": "uint256"
            },
            {
              "internalType": "uint256",
              "name": "validFrom",
              "type": "uint256"
            },
            {
              "internalType": "uint256",
              "name": "validTill",
              "type": "uint256"
            },
            {
              "internalType": "string",
              "name": "currency",
              "type": "string"
            },
            {
              "internalType": "uint256",
              "name": "amount",
              "type": "uint256"
            },
            {
              "internalType": "string",
              "name": "beneficiaryName",
              "type": "string"
            },
            {
              "internalType": "string",
              "name": "fileHash",
              "type": "string"
            },
            {
              "internalType": "string",
              "name": "bankEncryptedKey",
              "type": "string"
            },
            {
              "internalType": "string",
              "name": "egpEncryptedKey",
              "type": "string"
            },
            {
              "internalType": "string",
              "name": "vendorEncryptedKey",
              "type": "string"
            },
            {
              "internalType": "uint256",
              "name": "amendment",
              "type": "uint256"
            },
            {
              "internalType": "enum BankGuaranteeStructs.FormStatus",
              "name": "formStatus",
              "type": "uint8"
            },
            {
              "internalType": "uint16",
              "name": "version",
              "type": "uint16"
            }
          ],
          "internalType": "struct BankGuaranteeStructs.BankGuarantee[]",
          "name": "bankGuarantees_",
          "type": "tuple[]"
        },
        {
          "internalType": "uint256",
          "name": "fromIncluded_",
          "type": "uint256"
        },
        {
          "internalType": "uint256",
          "name": "length_",
          "type": "uint256"
        }
      ],
      "stateMutability": "view",
      "type": "function"
    },
    {
      "inputs": [
        {
          "internalType": "bytes8",
          "name": "_uid",
          "type": "bytes8"
        }
      ],
      "name": "getBankGid",
      "outputs": [
        {
          "internalType": "string",
          "name": "",
          "type": "string"
        }
      ],
      "stateMutability": "view",
      "type": "function"
    },
    {
      "inputs": [
        {
          "internalType": "bytes8",
          "name": "_uid",
          "type": "bytes8"
        }
      ],
      "name": "getBankGuaranteeCurrencyType",
      "outputs": [
        {
          "internalType": "string",
          "name": "",
          "type": "string"
        }
      ],
      "stateMutability": "view",
      "type": "function"
    },
    {
      "inputs": [
        {
          "internalType": "bytes8",
          "name": "_uid",
          "type": "bytes8"
        }
      ],
      "name": "getBankGuaranteeAmount",
      "outputs": [
        {
          "internalType": "uint256",
          "name": "",
          "type": "uint256"
        }
      ],
      "stateMutability": "view",
      "type": "function"
    },
    {
      "inputs": [
        {
          "internalType": "bytes8",
          "name": "_uid",
          "type": "bytes8"
        }
      ],
      "name": "getBankGuaranteeClaimExpiryDate",
      "outputs": [
        {
          "internalType": "uint256",
          "name": "",
          "type": "uint256"
        }
      ],
      "stateMutability": "view",
      "type": "function"
    },
    {
      "inputs": [
        {
          "internalType": "bytes8",
          "name": "_uid",
          "type": "bytes8"
        }
      ],
      "name": "getBankGuaranteeReferenceNumberbybgUid",
      "outputs": [
        {
          "internalType": "string",
          "name": "",
          "type": "string"
        }
      ],
      "stateMutability": "view",
      "type": "function"
    },
    {
      "inputs": [
        {
          "internalType": "bytes8",
          "name": "_uid",
          "type": "bytes8"
        }
      ],
      "name": "isUidExists",
      "outputs": [
        {
          "internalType": "bool",
          "name": "",
          "type": "bool"
        }
      ],
      "stateMutability": "view",
      "type": "function"
    },
    {
      "inputs": [
        {
          "internalType": "bytes8",
          "name": "_paymentAdviceUid",
          "type": "bytes8"
        }
      ],
      "name": "isBgExistsForPaymentAdviceUid",
      "outputs": [
        {
          "internalType": "bool",
          "name": "",
          "type": "bool"
        }
      ],
      "stateMutability": "view",
      "type": "function"
    }
  ],
  "bytecode": "0x608060405234801562000010575f80fd5b5060405162006b4a38038062006b4a8339818101604052810190620000369190620001e5565b8460015f6101000a81548173ffffffffffffffffffffffffffffffffffffffff021916908373ffffffffffffffffffffffffffffffffffffffff1602179055508360025f6101000a81548173ffffffffffffffffffffffffffffffffffffffff021916908373ffffffffffffffffffffffffffffffffffffffff1602179055508260035f6101000a81548173ffffffffffffffffffffffffffffffffffffffff021916908373ffffffffffffffffffffffffffffffffffffffff160217905550815f806101000a81548173ffffffffffffffffffffffffffffffffffffffff021916908373ffffffffffffffffffffffffffffffffffffffff1602179055508060045f6101000a81548173ffffffffffffffffffffffffffffffffffffffff021916908373ffffffffffffffffffffffffffffffffffffffff160217905550505050505062000269565b5f80fd5b5f73ffffffffffffffffffffffffffffffffffffffff82169050919050565b5f620001af8262000184565b9050919050565b620001c181620001a3565b8114620001cc575f80fd5b50565b5f81519050620001df81620001b6565b92915050565b5f805f805f60a0868803121562000201576200020062000180565b5b5f6200021088828901620001cf565b95505060206200022388828901620001cf565b94505060406200023688828901620001cf565b93505060606200024988828901620001cf565b92505060806200025c88828901620001cf565b9150509295509295909350565b6168d380620002775f395ff3fe608060405234801561000f575f80fd5b506004361061012a575f3560e01c80637500f5ea116100ab578063bd5f463a1161006f578063bd5f463a146103e4578063be71ca9114610400578063e15da4d914610432578063fbf6a1cb14610462578063fe530c3b146104945761012a565b80637500f5ea146103025780638eb3e501146103345780639223296f14610364578063a6ade12314610380578063bc784c9b146103b25761012a565b80632be8c6ef116100f25780632be8c6ef1461020c5780632f1154c81461023c578063552df81a1461026e5780635b3c849b146102a05780635f5dda81146102d05761012a565b80630528204c1461012e57806307e738af1461015e578063103ead201461017a5780632026a41e146101aa578063243bfa92146101da575b5f80fd5b61014860048036038101906101439190614111565b6104c4565b60405161015591906141c6565b60405180910390f35b61017860048036038101906101739190614312565b61064b565b005b610194600480360381019061018f9190614111565b61081e565b6040516101a191906141c6565b60405180910390f35b6101c460048036038101906101bf9190614111565b6108cb565b6040516101d19190614384565b60405180910390f35b6101f460048036038101906101ef91906143c7565b610974565b604051610203939291906147ce565b60405180910390f35b61022660048036038101906102219190614111565b610a29565b6040516102339190614824565b60405180910390f35b6102566004803603810190610251919061483d565b610acd565b604051610265939291906147ce565b60405180910390f35b6102886004803603810190610283919061483d565b610d01565b604051610297939291906147ce565b60405180910390f35b6102ba60048036038101906102b59190614111565b610f35565b6040516102c79190614af2565b60405180910390f35b6102ea60048036038101906102e59190614b12565b6110c2565b6040516102f9939291906147ce565b60405180910390f35b61031c60048036038101906103179190614b12565b6112c8565b60405161032b939291906147ce565b60405180910390f35b61034e60048036038101906103499190614111565b611464565b60405161035b9190614824565b60405180910390f35b61037e60048036038101906103799190614f02565b611508565b005b61039a6004803603810190610395919061483d565b61210e565b6040516103a9939291906147ce565b60405180910390f35b6103cc60048036038101906103c7919061483d565b612342565b6040516103db939291906147ce565b60405180910390f35b6103fe60048036038101906103f99190614f02565b6124e1565b005b61041a60048036038101906104159190614b12565b61316a565b604051610429939291906147ce565b60405180910390f35b61044c60048036038101906104479190614111565b613306565b60405161045991906141c6565b60405180910390f35b61047c60048036038101906104779190614b12565b6133b3565b60405161048b939291906147ce565b60405180910390f35b6104ae60048036038101906104a99190614111565b61354f565b6040516104bb9190614384565b60405180910390f35b606060035f9054906101000a900473ffffffffffffffffffffffffffffffffffffffff1673ffffffffffffffffffffffffffffffffffffffff1663dc716720836040518263ffffffff1660e01b81526004016105209190614f58565b602060405180830381865afa15801561053b573d5f803e3d5ffd5b505050506040513d601f19601f8201168201806040525081019061055f9190614f85565b5f036105a0576040517f08c379a000000000000000000000000000000000000000000000000000000000815260040161059790614ffa565b60405180910390fd5b60035f9054906101000a900473ffffffffffffffffffffffffffffffffffffffff1673ffffffffffffffffffffffffffffffffffffffff1663b1b8cab56105e6846135f8565b6040518263ffffffff1660e01b81526004016106029190614384565b5f60405180830381865afa15801561061c573d5f803e3d5ffd5b505050506040513d5f823e3d601f19601f820116820180604052508101906106449190615086565b9050919050565b5f600160035f9054906101000a900473ffffffffffffffffffffffffffffffffffffffff1673ffffffffffffffffffffffffffffffffffffffff1663dc716720846040518263ffffffff1660e01b81526004016106a89190614f58565b602060405180830381865afa1580156106c3573d5f803e3d5ffd5b505050506040513d601f19601f820116820180604052508101906106e79190614f85565b6106f191906150fa565b90505f60035f9054906101000a900473ffffffffffffffffffffffffffffffffffffffff1673ffffffffffffffffffffffffffffffffffffffff166335a66024836040518263ffffffff1660e01b815260040161074e9190614384565b602060405180830381865afa158015610769573d5f803e3d5ffd5b505050506040513d601f19601f8201168201806040525081019061078d9190615141565b905060035f9054906101000a900473ffffffffffffffffffffffffffffffffffffffff1673ffffffffffffffffffffffffffffffffffffffff1663c1509f3582866040518363ffffffff1660e01b81526004016107eb92919061516c565b5f604051808303815f87803b158015610802575f80fd5b505af1158015610814573d5f803e3d5ffd5b5050505050505050565b606060035f9054906101000a900473ffffffffffffffffffffffffffffffffffffffff1673ffffffffffffffffffffffffffffffffffffffff16636b970dca610866846135f8565b6040518263ffffffff1660e01b81526004016108829190614384565b5f60405180830381865afa15801561089c573d5f803e3d5ffd5b505050506040513d5f823e3d601f19601f820116820180604052508101906108c49190615086565b9050919050565b5f60035f9054906101000a900473ffffffffffffffffffffffffffffffffffffffff1673ffffffffffffffffffffffffffffffffffffffff1663c37e5926610912846135f8565b6040518263ffffffff1660e01b815260040161092e9190614384565b602060405180830381865afa158015610949573d5f803e3d5ffd5b505050506040513d601f19601f8201168201806040525081019061096d9190614f85565b9050919050565b60605f8060035f9054906101000a900473ffffffffffffffffffffffffffffffffffffffff1673ffffffffffffffffffffffffffffffffffffffff1663243bfa9286866040518363ffffffff1660e01b81526004016109d492919061519a565b5f60405180830381865afa1580156109ee573d5f803e3d5ffd5b505050506040513d5f823e3d601f19601f82011682018060405250810190610a1691906155fa565b8093508194508295505050509250925092565b5f60035f9054906101000a900473ffffffffffffffffffffffffffffffffffffffff1673ffffffffffffffffffffffffffffffffffffffff1663629d0ec6836040518263ffffffff1660e01b8152600401610a849190614f58565b602060405180830381865afa158015610a9f573d5f803e3d5ffd5b505050506040513d601f19601f82011682018060405250810190610ac39190614f85565b5f14159050919050565b60605f805f8787604051602001610ae59291906156a0565b604051602081830303815290604052805190602001209050606060035f9054906101000a900473ffffffffffffffffffffffffffffffffffffffff1673ffffffffffffffffffffffffffffffffffffffff1663425b39418389896040518463ffffffff1660e01b8152600401610b5d939291906156c3565b5f60405180830381865afa158015610b77573d5f803e3d5ffd5b505050506040513d5f823e3d601f19601f82011682018060405250810190610b9f91906157b8565b809550819650829350505050805167ffffffffffffffff811115610bc657610bc56141ee565b5b604051908082528060200260200182016040528015610bff57816020015b610bec613fc3565b815260200190600190039081610be45790505b5094505f5b8151811015610cf45760035f9054906101000a900473ffffffffffffffffffffffffffffffffffffffff1673ffffffffffffffffffffffffffffffffffffffff1663a3098ab9838381518110610c5d57610c5c615824565b5b60200260200101516040518263ffffffff1660e01b8152600401610c819190614384565b5f60405180830381865afa158015610c9b573d5f803e3d5ffd5b505050506040513d5f823e3d601f19601f82011682018060405250810190610cc39190615851565b868281518110610cd657610cd5615824565b5b60200260200101819052508080610cec90615898565b915050610c04565b5050509450945094915050565b60605f805f8787604051602001610d199291906156a0565b604051602081830303815290604052805190602001209050606060035f9054906101000a900473ffffffffffffffffffffffffffffffffffffffff1673ffffffffffffffffffffffffffffffffffffffff16633f11ddea8389896040518463ffffffff1660e01b8152600401610d91939291906156c3565b5f60405180830381865afa158015610dab573d5f803e3d5ffd5b505050506040513d5f823e3d601f19601f82011682018060405250810190610dd391906157b8565b809550819650829350505050805167ffffffffffffffff811115610dfa57610df96141ee565b5b604051908082528060200260200182016040528015610e3357816020015b610e20613fc3565b815260200190600190039081610e185790505b5094505f5b8151811015610f285760035f9054906101000a900473ffffffffffffffffffffffffffffffffffffffff1673ffffffffffffffffffffffffffffffffffffffff1663a3098ab9838381518110610e9157610e90615824565b5b60200260200101516040518263ffffffff1660e01b8152600401610eb59190614384565b5f60405180830381865afa158015610ecf573d5f803e3d5ffd5b505050506040513d5f823e3d601f19601f82011682018060405250810190610ef79190615851565b868281518110610f0a57610f09615824565b5b60200260200101819052508080610f2090615898565b915050610e38565b5050509450945094915050565b610f3d613fc3565b60035f9054906101000a900473ffffffffffffffffffffffffffffffffffffffff1673ffffffffffffffffffffffffffffffffffffffff1663dc716720836040518263ffffffff1660e01b8152600401610f979190614f58565b602060405180830381865afa158015610fb2573d5f803e3d5ffd5b505050506040513d601f19601f82011682018060405250810190610fd69190614f85565b5f03611017576040517f08c379a000000000000000000000000000000000000000000000000000000000815260040161100e90614ffa565b60405180910390fd5b60035f9054906101000a900473ffffffffffffffffffffffffffffffffffffffff1673ffffffffffffffffffffffffffffffffffffffff1663a3098ab961105d846135f8565b6040518263ffffffff1660e01b81526004016110799190614384565b5f60405180830381865afa158015611093573d5f803e3d5ffd5b505050506040513d5f823e3d601f19601f820116820180604052508101906110bb9190615851565b9050919050565b60605f80606060035f9054906101000a900473ffffffffffffffffffffffffffffffffffffffff1673ffffffffffffffffffffffffffffffffffffffff16636490ec2c8888886040518463ffffffff1660e01b8152600401611126939291906158df565b5f60405180830381865afa158015611140573d5f803e3d5ffd5b505050506040513d5f823e3d601f19601f8201168201806040525081019061116891906157b8565b809450819550829350505050805167ffffffffffffffff81111561118f5761118e6141ee565b5b6040519080825280602002602001820160405280156111c857816020015b6111b5613fc3565b8152602001906001900390816111ad5790505b5093505f5b81518110156112bd5760035f9054906101000a900473ffffffffffffffffffffffffffffffffffffffff1673ffffffffffffffffffffffffffffffffffffffff1663a3098ab983838151811061122657611225615824565b5b60200260200101516040518263ffffffff1660e01b815260040161124a9190614384565b5f60405180830381865afa158015611264573d5f803e3d5ffd5b505050506040513d5f823e3d601f19601f8201168201806040525081019061128c9190615851565b85828151811061129f5761129e615824565b5b602002602001018190525080806112b590615898565b9150506111cd565b505093509350939050565b60605f80606060025f9054906101000a900473ffffffffffffffffffffffffffffffffffffffff1673ffffffffffffffffffffffffffffffffffffffff1663db0e782d8888886040518463ffffffff1660e01b815260040161132c939291906158df565b5f60405180830381865afa158015611346573d5f803e3d5ffd5b505050506040513d5f823e3d601f19601f8201168201806040525081019061136e91906159db565b809450819550829350505050805167ffffffffffffffff811115611395576113946141ee565b5b6040519080825280602002602001820160405280156113ce57816020015b6113bb613fc3565b8152602001906001900390816113b35790505b5093505f5b8151811015611459576113ff8282815181106113f2576113f1615824565b5b6020026020010151610a29565b156114465761142782828151811061141a57611419615824565b5b60200260200101516136a5565b85828151811061143a57611439615824565b5b60200260200101819052505b808061145190615898565b9150506113d3565b505093509350939050565b5f60035f9054906101000a900473ffffffffffffffffffffffffffffffffffffffff1673ffffffffffffffffffffffffffffffffffffffff1663dc716720836040518263ffffffff1660e01b81526004016114bf9190614f58565b602060405180830381865afa1580156114da573d5f803e3d5ffd5b505050506040513d601f19601f820116820180604052508101906114fe9190614f85565b5f14159050919050565b806020015160015f9054906101000a900473ffffffffffffffffffffffffffffffffffffffff1673ffffffffffffffffffffffffffffffffffffffff166388f5f344826040518263ffffffff1660e01b815260040161156791906141c6565b602060405180830381865afa158015611582573d5f803e3d5ffd5b505050506040513d601f19601f820116820180604052508101906115a69190615a71565b6115e5576040517f08c379a00000000000000000000000000000000000000000000000000000000081526004016115dc90615ae6565b60405180910390fd5b81602001515f805f8054906101000a900473ffffffffffffffffffffffffffffffffffffffff1673ffffffffffffffffffffffffffffffffffffffff1660015f9054906101000a900473ffffffffffffffffffffffffffffffffffffffff1673ffffffffffffffffffffffffffffffffffffffff166315821c14856040518263ffffffff1660e01b815260040161167c91906141c6565b5f60405180830381865afa158015611696573d5f803e3d5ffd5b505050506040513d5f823e3d601f19601f820116820180604052508101906116be9190615bfd565b606001516040516024016116d291906141c6565b6040516020818303038152906040527f615deb16000000000000000000000000000000000000000000000000000000007bffffffffffffffffffffffffffffffffffffffffffffffffffffffff19166020820180517bffffffffffffffffffffffffffffffffffffffffffffffffffffffff838183161783525050505060405161175c9190615c88565b5f604051808303815f865af19150503d805f8114611795576040519150601f19603f3d011682016040523d82523d5f602084013e61179a565b606091505b5091509150816117df576040517f08c379a00000000000000000000000000000000000000000000000000000000081526004016117d690615ce8565b60405180910390fd5b5f818060200190518101906117f49190615d60565b90508073ffffffffffffffffffffffffffffffffffffffff163373ffffffffffffffffffffffffffffffffffffffff1614611864576040517f08c379a000000000000000000000000000000000000000000000000000000000815260040161185b90615dd5565b60405180910390fd5b85600160025f9054906101000a900473ffffffffffffffffffffffffffffffffffffffff1673ffffffffffffffffffffffffffffffffffffffff1663fda886da83604001516040518263ffffffff1660e01b81526004016118c591906141c6565b602060405180830381865afa1580156118e0573d5f803e3d5ffd5b505050506040513d601f19601f820116820180604052508101906119049190614f85565b14611944576040517f08c379a000000000000000000000000000000000000000000000000000000000815260040161193b90615e63565b60405180910390fd5b60025f9054906101000a900473ffffffffffffffffffffffffffffffffffffffff1673ffffffffffffffffffffffffffffffffffffffff16638eb3e50182606001516040518263ffffffff1660e01b81526004016119a29190614f58565b602060405180830381865afa1580156119bd573d5f803e3d5ffd5b505050506040513d601f19601f820116820180604052508101906119e19190615a71565b611a20576040517f08c379a0000000000000000000000000000000000000000000000000000000008152600401611a1790615ecb565b60405180910390fd5b806060015177ffffffffffffffffffffffffffffffffffffffffffffffff191660025f9054906101000a900473ffffffffffffffffffffffffffffffffffffffff1673ffffffffffffffffffffffffffffffffffffffff1663d4c5eed683604001516040518263ffffffff1660e01b8152600401611a9e91906141c6565b602060405180830381865afa158015611ab9573d5f803e3d5ffd5b505050506040513d601f19601f82011682018060405250810190611add9190615141565b77ffffffffffffffffffffffffffffffffffffffffffffffff191614611b38576040517f08c379a0000000000000000000000000000000000000000000000000000000008152600401611b2f90615f7f565b60405180910390fd5b5f60035f9054906101000a900473ffffffffffffffffffffffffffffffffffffffff1673ffffffffffffffffffffffffffffffffffffffff16630efd5500836020015184606001516040518363ffffffff1660e01b8152600401611b9d929190615f9d565b602060405180830381865afa158015611bb8573d5f803e3d5ffd5b505050506040513d601f19601f82011682018060405250810190611bdc9190614f85565b14611c1c576040517f08c379a0000000000000000000000000000000000000000000000000000000008152600401611c139061603b565b60405180910390fd5b60045f9054906101000a900473ffffffffffffffffffffffffffffffffffffffff1673ffffffffffffffffffffffffffffffffffffffff1663c973233d60025f9054906101000a900473ffffffffffffffffffffffffffffffffffffffff1673ffffffffffffffffffffffffffffffffffffffff1663a7b1747e84606001516040518263ffffffff1660e01b8152600401611cb79190614f58565b5f60405180830381865afa158015611cd1573d5f803e3d5ffd5b505050506040513d5f823e3d601f19601f82011682018060405250810190611cf99190615086565b8361018001516040518363ffffffff1660e01b8152600401611d1c929190616059565b602060405180830381865afa158015611d37573d5f803e3d5ffd5b505050506040513d601f19601f82011682018060405250810190611d5b9190615a71565b611d9a576040517f08c379a0000000000000000000000000000000000000000000000000000000008152600401611d91906160fe565b60405180910390fd5b806101a0015160025f9054906101000a900473ffffffffffffffffffffffffffffffffffffffff1673ffffffffffffffffffffffffffffffffffffffff1663c3b4e23b83606001516040518263ffffffff1660e01b8152600401611dfe9190614f58565b602060405180830381865afa158015611e19573d5f803e3d5ffd5b505050506040513d601f19601f82011682018060405250810190611e3d9190614f85565b1115611e7e576040517f08c379a0000000000000000000000000000000000000000000000000000000008152600401611e75906161b2565b60405180910390fd5b5f60035f9054906101000a900473ffffffffffffffffffffffffffffffffffffffff1673ffffffffffffffffffffffffffffffffffffffff16634f014fba83608001518460200151604051602001611ed79291906156a0565b604051602081830303815290604052805190602001206040518263ffffffff1660e01b8152600401611f099190614f58565b602060405180830381865afa158015611f24573d5f803e3d5ffd5b505050506040513d601f19601f82011682018060405250810190611f489190614f85565b14611f88576040517f08c379a0000000000000000000000000000000000000000000000000000000008152600401611f7f90616240565b60405180910390fd5b5f611f9288613758565b90505f60035f9054906101000a900473ffffffffffffffffffffffffffffffffffffffff1673ffffffffffffffffffffffffffffffffffffffff1663dc716720836040518263ffffffff1660e01b8152600401611fef9190614f58565b602060405180830381865afa15801561200a573d5f803e3d5ffd5b505050506040513d601f19601f8201168201806040525081019061202e9190614f85565b1461206e576040517f08c379a0000000000000000000000000000000000000000000000000000000008152600401612065906162a8565b60405180910390fd5b80885f019077ffffffffffffffffffffffffffffffffffffffffffffffff1916908177ffffffffffffffffffffffffffffffffffffffffffffffff1916815250506120b8886137ce565b7f08cb2ea7db43299a9ca37d920a6ff1ce0b5c62b4079a83bd8fd4f6a8ab20eb5d885f015189608001518a606001518b604001516040516120fc94939291906162c6565b60405180910390a15050505050505050565b60605f805f87876040516020016121269291906156a0565b604051602081830303815290604052805190602001209050606060035f9054906101000a900473ffffffffffffffffffffffffffffffffffffffff1673ffffffffffffffffffffffffffffffffffffffff1663b7e870878389896040518463ffffffff1660e01b815260040161219e939291906156c3565b5f60405180830381865afa1580156121b8573d5f803e3d5ffd5b505050506040513d5f823e3d601f19601f820116820180604052508101906121e091906157b8565b809550819650829350505050805167ffffffffffffffff811115612207576122066141ee565b5b60405190808252806020026020018201604052801561224057816020015b61222d613fc3565b8152602001906001900390816122255790505b5094505f5b81518110156123355760035f9054906101000a900473ffffffffffffffffffffffffffffffffffffffff1673ffffffffffffffffffffffffffffffffffffffff1663a3098ab983838151811061229e5761229d615824565b5b60200260200101516040518263ffffffff1660e01b81526004016122c29190614384565b5f60405180830381865afa1580156122dc573d5f803e3d5ffd5b505050506040513d5f823e3d601f19601f820116820180604052508101906123049190615851565b86828151811061231757612316615824565b5b6020026020010181905250808061232d90615898565b915050612245565b5050509450945094915050565b60605f80606060025f9054906101000a900473ffffffffffffffffffffffffffffffffffffffff1673ffffffffffffffffffffffffffffffffffffffff1663a2552e50898989896040518563ffffffff1660e01b81526004016123a89493929190616317565b5f60405180830381865afa1580156123c2573d5f803e3d5ffd5b505050506040513d5f823e3d601f19601f820116820180604052508101906123ea91906159db565b809450819550829350505050805167ffffffffffffffff811115612411576124106141ee565b5b60405190808252806020026020018201604052801561244a57816020015b612437613fc3565b81526020019060019003908161242f5790505b5093505f5b81518110156124d55761247b82828151811061246e5761246d615824565b5b6020026020010151610a29565b156124c2576124a382828151811061249657612495615824565b5b60200260200101516136a5565b8582815181106124b6576124b5615824565b5b60200260200101819052505b80806124cd90615898565b91505061244f565b50509450945094915050565b80602001515f805f8054906101000a900473ffffffffffffffffffffffffffffffffffffffff1673ffffffffffffffffffffffffffffffffffffffff1660015f9054906101000a900473ffffffffffffffffffffffffffffffffffffffff1673ffffffffffffffffffffffffffffffffffffffff166315821c14856040518263ffffffff1660e01b815260040161257891906141c6565b5f60405180830381865afa158015612592573d5f803e3d5ffd5b505050506040513d5f823e3d601f19601f820116820180604052508101906125ba9190615bfd565b606001516040516024016125ce91906141c6565b6040516020818303038152906040527f615deb16000000000000000000000000000000000000000000000000000000007bffffffffffffffffffffffffffffffffffffffffffffffffffffffff19166020820180517bffffffffffffffffffffffffffffffffffffffffffffffffffffffff83818316178352505050506040516126589190615c88565b5f604051808303815f865af19150503d805f8114612691576040519150601f19603f3d011682016040523d82523d5f602084013e612696565b606091505b5091509150816126db576040517f08c379a00000000000000000000000000000000000000000000000000000000081526004016126d290615ce8565b60405180910390fd5b5f818060200190518101906126f09190615d60565b90508073ffffffffffffffffffffffffffffffffffffffff163373ffffffffffffffffffffffffffffffffffffffff1614612760576040517f08c379a000000000000000000000000000000000000000000000000000000000815260040161275790615dd5565b60405180910390fd5b8460400151856020015186606001518761018001515f60035f9054906101000a900473ffffffffffffffffffffffffffffffffffffffff1673ffffffffffffffffffffffffffffffffffffffff16634f014fba86866040516020016127c69291906156a0565b604051602081830303815290604052805190602001206040518263ffffffff1660e01b81526004016127f89190614f58565b602060405180830381865afa158015612813573d5f803e3d5ffd5b505050506040513d601f19601f820116820180604052508101906128379190614f85565b11612877576040517f08c379a000000000000000000000000000000000000000000000000000000000815260040161286e906163fe565b60405180910390fd5b8177ffffffffffffffffffffffffffffffffffffffffffffffff191660025f9054906101000a900473ffffffffffffffffffffffffffffffffffffffff1673ffffffffffffffffffffffffffffffffffffffff1663d4c5eed6866040518263ffffffff1660e01b81526004016128ed91906141c6565b602060405180830381865afa158015612908573d5f803e3d5ffd5b505050506040513d601f19601f8201168201806040525081019061292c9190615141565b77ffffffffffffffffffffffffffffffffffffffffffffffff191614612987576040517f08c379a000000000000000000000000000000000000000000000000000000000815260040161297e9061648c565b60405180910390fd5b5f60035f9054906101000a900473ffffffffffffffffffffffffffffffffffffffff1673ffffffffffffffffffffffffffffffffffffffff16630efd550085856040518363ffffffff1660e01b81526004016129e4929190615f9d565b602060405180830381865afa1580156129ff573d5f803e3d5ffd5b505050506040513d601f19601f82011682018060405250810190612a239190614f85565b14612a63576040517f08c379a0000000000000000000000000000000000000000000000000000000008152600401612a5a9061603b565b60405180910390fd5b60045f9054906101000a900473ffffffffffffffffffffffffffffffffffffffff1673ffffffffffffffffffffffffffffffffffffffff1663c973233d60025f9054906101000a900473ffffffffffffffffffffffffffffffffffffffff1673ffffffffffffffffffffffffffffffffffffffff1663a7b1747e856040518263ffffffff1660e01b8152600401612afa9190614f58565b5f60405180830381865afa158015612b14573d5f803e3d5ffd5b505050506040513d5f823e3d601f19601f82011682018060405250810190612b3c9190615086565b836040518363ffffffff1660e01b8152600401612b5a929190616059565b602060405180830381865afa158015612b75573d5f803e3d5ffd5b505050506040513d601f19601f82011682018060405250810190612b999190615a71565b612bd8576040517f08c379a0000000000000000000000000000000000000000000000000000000008152600401612bcf906160fe565b60405180910390fd5b5f60035f9054906101000a900473ffffffffffffffffffffffffffffffffffffffff1673ffffffffffffffffffffffffffffffffffffffff166352dae4906040518163ffffffff1660e01b8152600401602060405180830381865afa158015612c43573d5f803e3d5ffd5b505050506040513d601f19601f82011682018060405250810190612c679190614f85565b90505f60035f9054906101000a900473ffffffffffffffffffffffffffffffffffffffff1673ffffffffffffffffffffffffffffffffffffffff166370c12a728c6040518263ffffffff1660e01b8152600401612cc49190614af2565b5f60405180830381865afa158015612cde573d5f803e3d5ffd5b505050506040513d5f823e3d601f19601f82011682018060405250810190612d0691906164aa565b809250819c5050505f612d188c613758565b90505f60035f9054906101000a900473ffffffffffffffffffffffffffffffffffffffff1673ffffffffffffffffffffffffffffffffffffffff1663dc716720836040518263ffffffff1660e01b8152600401612d759190614f58565b602060405180830381865afa158015612d90573d5f803e3d5ffd5b505050506040513d601f19601f82011682018060405250810190612db49190614f85565b14612df4576040517f08c379a0000000000000000000000000000000000000000000000000000000008152600401612deb90616574565b60405180910390fd5b808c5f019077ffffffffffffffffffffffffffffffffffffffffffffffff1916908177ffffffffffffffffffffffffffffffffffffffffffffffff19168152505060035f9054906101000a900473ffffffffffffffffffffffffffffffffffffffff1673ffffffffffffffffffffffffffffffffffffffff1663c3d0bb8082856001612e809190616592565b6040518363ffffffff1660e01b8152600401612e9d9291906165c5565b5f604051808303815f87803b158015612eb4575f80fd5b505af1158015612ec6573d5f803e3d5ffd5b5050505060035f9054906101000a900473ffffffffffffffffffffffffffffffffffffffff1673ffffffffffffffffffffffffffffffffffffffff16632214e58a8d604001518e60200151604051602001612f229291906156a0565b60405160208183030381529060405280519060200120856040518363ffffffff1660e01b8152600401612f569291906165c5565b5f604051808303815f87803b158015612f6d575f80fd5b505af1158015612f7f573d5f803e3d5ffd5b5050505060035f9054906101000a900473ffffffffffffffffffffffffffffffffffffffff1673ffffffffffffffffffffffffffffffffffffffff16633114fc176040518163ffffffff1660e01b81526004015f604051808303815f87803b158015612fe9575f80fd5b505af1158015612ffb573d5f803e3d5ffd5b5050505060035f9054906101000a900473ffffffffffffffffffffffffffffffffffffffff1673ffffffffffffffffffffffffffffffffffffffff16637c23e6dc836040518263ffffffff1660e01b81526004016130599190614384565b5f604051808303815f87803b158015613070575f80fd5b505af1158015613082573d5f803e3d5ffd5b5050505060035f9054906101000a900473ffffffffffffffffffffffffffffffffffffffff1673ffffffffffffffffffffffffffffffffffffffff166311ad8f45848e6040518363ffffffff1660e01b81526004016130e29291906165ec565b5f604051808303815f87803b1580156130f9575f80fd5b505af115801561310b573d5f803e3d5ffd5b505050507fef77728148112f16a5de941bb9b84bc6883a48eb0e99478fc1275956ce0b6a938c5f01518d608001518e604001518f6102600151604051613154949392919061661a565b60405180910390a1505050505050505050505050565b60605f80606060025f9054906101000a900473ffffffffffffffffffffffffffffffffffffffff1673ffffffffffffffffffffffffffffffffffffffff16637ea7aa0b8888886040518463ffffffff1660e01b81526004016131ce939291906158df565b5f60405180830381865afa1580156131e8573d5f803e3d5ffd5b505050506040513d5f823e3d601f19601f8201168201806040525081019061321091906159db565b809450819550829350505050805167ffffffffffffffff811115613237576132366141ee565b5b60405190808252806020026020018201604052801561327057816020015b61325d613fc3565b8152602001906001900390816132555790505b5093505f5b81518110156132fb576132a182828151811061329457613293615824565b5b6020026020010151610a29565b156132e8576132c98282815181106132bc576132bb615824565b5b60200260200101516136a5565b8582815181106132dc576132db615824565b5b60200260200101819052505b80806132f390615898565b915050613275565b505093509350939050565b606060035f9054906101000a900473ffffffffffffffffffffffffffffffffffffffff1673ffffffffffffffffffffffffffffffffffffffff16639df020b161334e846135f8565b6040518263ffffffff1660e01b815260040161336a9190614384565b5f60405180830381865afa158015613384573d5f803e3d5ffd5b505050506040513d5f823e3d601f19601f820116820180604052508101906133ac9190615086565b9050919050565b60605f80606060025f9054906101000a900473ffffffffffffffffffffffffffffffffffffffff1673ffffffffffffffffffffffffffffffffffffffff1663bd240e078888886040518463ffffffff1660e01b8152600401613417939291906158df565b5f60405180830381865afa158015613431573d5f803e3d5ffd5b505050506040513d5f823e3d601f19601f8201168201806040525081019061345991906159db565b809450819550829350505050805167ffffffffffffffff8111156134805761347f6141ee565b5b6040519080825280602002602001820160405280156134b957816020015b6134a6613fc3565b81526020019060019003908161349e5790505b5093505f5b8151811015613544576134ea8282815181106134dd576134dc615824565b5b6020026020010151610a29565b156135315761351282828151811061350557613504615824565b5b60200260200101516136a5565b85828151811061352557613524615824565b5b60200260200101819052505b808061353c90615898565b9150506134be565b505093509350939050565b5f60035f9054906101000a900473ffffffffffffffffffffffffffffffffffffffff1673ffffffffffffffffffffffffffffffffffffffff1663884863b5613596846135f8565b6040518263ffffffff1660e01b81526004016135b29190614384565b602060405180830381865afa1580156135cd573d5f803e3d5ffd5b505050506040513d601f19601f820116820180604052508101906135f19190614f85565b9050919050565b5f600160035f9054906101000a900473ffffffffffffffffffffffffffffffffffffffff1673ffffffffffffffffffffffffffffffffffffffff1663dc716720846040518263ffffffff1660e01b81526004016136559190614f58565b602060405180830381865afa158015613670573d5f803e3d5ffd5b505050506040513d601f19601f820116820180604052508101906136949190614f85565b61369e91906150fa565b9050919050565b6136ad613fc3565b60035f9054906101000a900473ffffffffffffffffffffffffffffffffffffffff1673ffffffffffffffffffffffffffffffffffffffff1663a3098ab96136f384613ece565b6040518263ffffffff1660e01b815260040161370f9190614384565b5f60405180830381865afa158015613729573d5f803e3d5ffd5b505050506040513d5f823e3d601f19601f820116820180604052508101906137519190615851565b9050919050565b5f8160200151826040015183606001518460800151856101200151866101400151876101600151886101800151896101a001518a6101e001518b61026001516040516020016137b19b9a999897969594939291906166ab565b604051602081830303815290604052805190602001209050919050565b5f60035f9054906101000a900473ffffffffffffffffffffffffffffffffffffffff1673ffffffffffffffffffffffffffffffffffffffff166352dae4906040518163ffffffff1660e01b8152600401602060405180830381865afa158015613839573d5f803e3d5ffd5b505050506040513d601f19601f8201168201806040525081019061385d9190614f85565b905060035f9054906101000a900473ffffffffffffffffffffffffffffffffffffffff1673ffffffffffffffffffffffffffffffffffffffff1663c3d0bb80835f01518360016138ad9190616592565b6040518363ffffffff1660e01b81526004016138ca9291906165c5565b5f604051808303815f87803b1580156138e1575f80fd5b505af11580156138f3573d5f803e3d5ffd5b5050505060035f9054906101000a900473ffffffffffffffffffffffffffffffffffffffff1673ffffffffffffffffffffffffffffffffffffffff16633114fc176040518163ffffffff1660e01b81526004015f604051808303815f87803b15801561395d575f80fd5b505af115801561396f573d5f803e3d5ffd5b5050505060035f9054906101000a900473ffffffffffffffffffffffffffffffffffffffff1673ffffffffffffffffffffffffffffffffffffffff166311ad8f4582846040518363ffffffff1660e01b81526004016139cf9291906165ec565b5f604051808303815f87803b1580156139e6575f80fd5b505af11580156139f8573d5f803e3d5ffd5b5050505060035f9054906101000a900473ffffffffffffffffffffffffffffffffffffffff1673ffffffffffffffffffffffffffffffffffffffff1663ae91258c8360200151836040518363ffffffff1660e01b8152600401613a5c92919061675b565b5f604051808303815f87803b158015613a73575f80fd5b505af1158015613a85573d5f803e3d5ffd5b5050505060035f9054906101000a900473ffffffffffffffffffffffffffffffffffffffff1673ffffffffffffffffffffffffffffffffffffffff1663b081b5828360600151836001613ad89190616592565b6040518363ffffffff1660e01b8152600401613af59291906165c5565b5f604051808303815f87803b158015613b0c575f80fd5b505af1158015613b1e573d5f803e3d5ffd5b5050505060035f9054906101000a900473ffffffffffffffffffffffffffffffffffffffff1673ffffffffffffffffffffffffffffffffffffffff16636c25820d836060015184602001516040518363ffffffff1660e01b8152600401613b8692919061516c565b5f604051808303815f87803b158015613b9d575f80fd5b505af1158015613baf573d5f803e3d5ffd5b5050505060035f9054906101000a900473ffffffffffffffffffffffffffffffffffffffff1673ffffffffffffffffffffffffffffffffffffffff16632214e58a83604001518460200151604051602001613c0b9291906156a0565b60405160208183030381529060405280519060200120836040518363ffffffff1660e01b8152600401613c3f9291906165c5565b5f604051808303815f87803b158015613c56575f80fd5b505af1158015613c68573d5f803e3d5ffd5b505050505f60025f9054906101000a900473ffffffffffffffffffffffffffffffffffffffff1673ffffffffffffffffffffffffffffffffffffffff166334ed52ef84606001516040518263ffffffff1660e01b8152600401613ccb9190614f58565b5f60405180830381865afa158015613ce5573d5f803e3d5ffd5b505050506040513d5f823e3d601f19601f82011682018060405250810190613d0d9190615086565b90505f60025f9054906101000a900473ffffffffffffffffffffffffffffffffffffffff1673ffffffffffffffffffffffffffffffffffffffff166357574cd885606001516040518263ffffffff1660e01b8152600401613d6e9190614f58565b5f60405180830381865afa158015613d88573d5f803e3d5ffd5b505050506040513d5f823e3d601f19601f82011682018060405250810190613db09190615086565b905060035f9054906101000a900473ffffffffffffffffffffffffffffffffffffffff1673ffffffffffffffffffffffffffffffffffffffff1663565f166a858585856040518563ffffffff1660e01b8152600401613e129493929190616789565b5f604051808303815f87803b158015613e29575f80fd5b505af1158015613e3b573d5f803e3d5ffd5b5050505060035f9054906101000a900473ffffffffffffffffffffffffffffffffffffffff1673ffffffffffffffffffffffffffffffffffffffff16637d4a455785856040518363ffffffff1660e01b8152600401613e9b9291906167e1565b5f604051808303815f87803b158015613eb2575f80fd5b505af1158015613ec4573d5f803e3d5ffd5b5050505050505050565b5f613ed882610a29565b613f17576040517f08c379a0000000000000000000000000000000000000000000000000000000008152600401613f0e9061687f565b60405180910390fd5b600160035f9054906101000a900473ffffffffffffffffffffffffffffffffffffffff1673ffffffffffffffffffffffffffffffffffffffff1663629d0ec6846040518263ffffffff1660e01b8152600401613f739190614f58565b602060405180830381865afa158015613f8e573d5f803e3d5ffd5b505050506040513d601f19601f82011682018060405250810190613fb29190614f85565b613fbc91906150fa565b9050919050565b604051806102c001604052805f77ffffffffffffffffffffffffffffffffffffffffffffffff1916815260200160608152602001606081526020015f77ffffffffffffffffffffffffffffffffffffffffffffffff191681526020016060815260200160608152602001606081526020015f81526020015f81526020015f81526020015f81526020015f8152602001606081526020015f815260200160608152602001606081526020016060815260200160608152602001606081526020015f81526020015f600181111561409b5761409a614494565b5b81526020015f61ffff1681525090565b5f604051905090565b5f80fd5b5f80fd5b5f7fffffffffffffffff00000000000000000000000000000000000000000000000082169050919050565b6140f0816140bc565b81146140fa575f80fd5b50565b5f8135905061410b816140e7565b92915050565b5f60208284031215614126576141256140b4565b5b5f614133848285016140fd565b91505092915050565b5f81519050919050565b5f82825260208201905092915050565b5f5b83811015614173578082015181840152602081019050614158565b5f8484015250505050565b5f601f19601f8301169050919050565b5f6141988261413c565b6141a28185614146565b93506141b2818560208601614156565b6141bb8161417e565b840191505092915050565b5f6020820190508181035f8301526141de818461418e565b905092915050565b5f80fd5b5f80fd5b7f4e487b71000000000000000000000000000000000000000000000000000000005f52604160045260245ffd5b6142248261417e565b810181811067ffffffffffffffff82111715614243576142426141ee565b5b80604052505050565b5f6142556140ab565b9050614261828261421b565b919050565b5f67ffffffffffffffff8211156142805761427f6141ee565b5b6142898261417e565b9050602081019050919050565b828183375f83830152505050565b5f6142b66142b184614266565b61424c565b9050828152602081018484840111156142d2576142d16141ea565b5b6142dd848285614296565b509392505050565b5f82601f8301126142f9576142f86141e6565b5b81356143098482602086016142a4565b91505092915050565b5f8060408385031215614328576143276140b4565b5b5f83013567ffffffffffffffff811115614345576143446140b8565b5b614351858286016142e5565b9250506020614362858286016140fd565b9150509250929050565b5f819050919050565b61437e8161436c565b82525050565b5f6020820190506143975f830184614375565b92915050565b6143a68161436c565b81146143b0575f80fd5b50565b5f813590506143c18161439d565b92915050565b5f80604083850312156143dd576143dc6140b4565b5b5f6143ea858286016143b3565b92505060206143fb858286016143b3565b9150509250929050565b5f81519050919050565b5f82825260208201905092915050565b5f819050602082019050919050565b614437816140bc565b82525050565b5f82825260208201905092915050565b5f6144578261413c565b614461818561443d565b9350614471818560208601614156565b61447a8161417e565b840191505092915050565b61448e8161436c565b82525050565b7f4e487b71000000000000000000000000000000000000000000000000000000005f52602160045260245ffd5b600281106144d2576144d1614494565b5b50565b5f8190506144e2826144c1565b919050565b5f6144f1826144d5565b9050919050565b614501816144e7565b82525050565b5f61ffff82169050919050565b61451d81614507565b82525050565b5f6102c083015f8301516145395f86018261442e565b5060208301518482036020860152614551828261444d565b9150506040830151848203604086015261456b828261444d565b9150506060830151614580606086018261442e565b5060808301518482036080860152614598828261444d565b91505060a083015184820360a08601526145b2828261444d565b91505060c083015184820360c08601526145cc828261444d565b91505060e08301516145e160e0860182614485565b506101008301516145f6610100860182614485565b5061012083015161460b610120860182614485565b50610140830151614620610140860182614485565b50610160830151614635610160860182614485565b5061018083015184820361018086015261464f828261444d565b9150506101a08301516146666101a0860182614485565b506101c08301518482036101c0860152614680828261444d565b9150506101e08301518482036101e086015261469c828261444d565b9150506102008301518482036102008601526146b8828261444d565b9150506102208301518482036102208601526146d4828261444d565b9150506102408301518482036102408601526146f0828261444d565b915050610260830151614707610260860182614485565b5061028083015161471c6102808601826144f8565b506102a08301516147316102a0860182614514565b508091505092915050565b5f6147478383614523565b905092915050565b5f602082019050919050565b5f61476582614405565b61476f818561440f565b9350836020820285016147818561441f565b805f5b858110156147bc578484038952815161479d858261473c565b94506147a88361474f565b925060208a01995050600181019050614784565b50829750879550505050505092915050565b5f6060820190508181035f8301526147e6818661475b565b90506147f56020830185614375565b6148026040830184614375565b949350505050565b5f8115159050919050565b61481e8161480a565b82525050565b5f6020820190506148375f830184614815565b92915050565b5f805f8060808587031215614855576148546140b4565b5b5f85013567ffffffffffffffff811115614872576148716140b8565b5b61487e878288016142e5565b945050602085013567ffffffffffffffff81111561489f5761489e6140b8565b5b6148ab878288016142e5565b93505060406148bc878288016143b3565b92505060606148cd878288016143b3565b91505092959194509250565b5f6102c083015f8301516148ef5f86018261442e565b5060208301518482036020860152614907828261444d565b91505060408301518482036040860152614921828261444d565b9150506060830151614936606086018261442e565b506080830151848203608086015261494e828261444d565b91505060a083015184820360a0860152614968828261444d565b91505060c083015184820360c0860152614982828261444d565b91505060e083015161499760e0860182614485565b506101008301516149ac610100860182614485565b506101208301516149c1610120860182614485565b506101408301516149d6610140860182614485565b506101608301516149eb610160860182614485565b50610180830151848203610180860152614a05828261444d565b9150506101a0830151614a1c6101a0860182614485565b506101c08301518482036101c0860152614a36828261444d565b9150506101e08301518482036101e0860152614a52828261444d565b915050610200830151848203610200860152614a6e828261444d565b915050610220830151848203610220860152614a8a828261444d565b915050610240830151848203610240860152614aa6828261444d565b915050610260830151614abd610260860182614485565b50610280830151614ad26102808601826144f8565b506102a0830151614ae76102a0860182614514565b508091505092915050565b5f6020820190508181035f830152614b0a81846148d9565b905092915050565b5f805f60608486031215614b2957614b286140b4565b5b5f84013567ffffffffffffffff811115614b4657614b456140b8565b5b614b52868287016142e5565b9350506020614b63868287016143b3565b9250506040614b74868287016143b3565b9150509250925092565b5f80fd5b5f80fd5b60028110614b92575f80fd5b50565b5f81359050614ba381614b86565b92915050565b614bb281614507565b8114614bbc575f80fd5b50565b5f81359050614bcd81614ba9565b92915050565b5f6102c08284031215614be957614be8614b7e565b5b614bf46102c061424c565b90505f614c03848285016140fd565b5f83015250602082013567ffffffffffffffff811115614c2657614c25614b82565b5b614c32848285016142e5565b602083015250604082013567ffffffffffffffff811115614c5657614c55614b82565b5b614c62848285016142e5565b6040830152506060614c76848285016140fd565b606083015250608082013567ffffffffffffffff811115614c9a57614c99614b82565b5b614ca6848285016142e5565b60808301525060a082013567ffffffffffffffff811115614cca57614cc9614b82565b5b614cd6848285016142e5565b60a08301525060c082013567ffffffffffffffff811115614cfa57614cf9614b82565b5b614d06848285016142e5565b60c08301525060e0614d1a848285016143b3565b60e083015250610100614d2f848285016143b3565b61010083015250610120614d45848285016143b3565b61012083015250610140614d5b848285016143b3565b61014083015250610160614d71848285016143b3565b6101608301525061018082013567ffffffffffffffff811115614d9757614d96614b82565b5b614da3848285016142e5565b610180830152506101a0614db9848285016143b3565b6101a0830152506101c082013567ffffffffffffffff811115614ddf57614dde614b82565b5b614deb848285016142e5565b6101c0830152506101e082013567ffffffffffffffff811115614e1157614e10614b82565b5b614e1d848285016142e5565b6101e08301525061020082013567ffffffffffffffff811115614e4357614e42614b82565b5b614e4f848285016142e5565b6102008301525061022082013567ffffffffffffffff811115614e7557614e74614b82565b5b614e81848285016142e5565b6102208301525061024082013567ffffffffffffffff811115614ea757614ea6614b82565b5b614eb3848285016142e5565b61024083015250610260614ec9848285016143b3565b61026083015250610280614edf84828501614b95565b610280830152506102a0614ef584828501614bbf565b6102a08301525092915050565b5f60208284031215614f1757614f166140b4565b5b5f82013567ffffffffffffffff811115614f3457614f336140b8565b5b614f4084828501614bd3565b91505092915050565b614f52816140bc565b82525050565b5f602082019050614f6b5f830184614f49565b92915050565b5f81519050614f7f8161439d565b92915050565b5f60208284031215614f9a57614f996140b4565b5b5f614fa784828501614f71565b91505092915050565b7f42616e6b2047756172616e74656520646f6573206e6f742065786973740000005f82015250565b5f614fe4601d83614146565b9150614fef82614fb0565b602082019050919050565b5f6020820190508181035f83015261501181614fd8565b9050919050565b5f61502a61502584614266565b61424c565b905082815260208101848484011115615046576150456141ea565b5b615051848285614156565b509392505050565b5f82601f83011261506d5761506c6141e6565b5b815161507d848260208601615018565b91505092915050565b5f6020828403121561509b5761509a6140b4565b5b5f82015167ffffffffffffffff8111156150b8576150b76140b8565b5b6150c484828501615059565b91505092915050565b7f4e487b71000000000000000000000000000000000000000000000000000000005f52601160045260245ffd5b5f6151048261436c565b915061510f8361436c565b9250828203905081811115615127576151266150cd565b5b92915050565b5f8151905061513b816140e7565b92915050565b5f60208284031215615156576151556140b4565b5b5f6151638482850161512d565b91505092915050565b5f60408201905061517f5f830185614f49565b8181036020830152615191818461418e565b90509392505050565b5f6040820190506151ad5f830185614375565b6151ba6020830184614375565b9392505050565b5f67ffffffffffffffff8211156151db576151da6141ee565b5b602082029050602081019050919050565b5f80fd5b5f815190506151fe81614b86565b92915050565b5f8151905061521281614ba9565b92915050565b5f6102c0828403121561522e5761522d614b7e565b5b6152396102c061424c565b90505f6152488482850161512d565b5f83015250602082015167ffffffffffffffff81111561526b5761526a614b82565b5b61527784828501615059565b602083015250604082015167ffffffffffffffff81111561529b5761529a614b82565b5b6152a784828501615059565b60408301525060606152bb8482850161512d565b606083015250608082015167ffffffffffffffff8111156152df576152de614b82565b5b6152eb84828501615059565b60808301525060a082015167ffffffffffffffff81111561530f5761530e614b82565b5b61531b84828501615059565b60a08301525060c082015167ffffffffffffffff81111561533f5761533e614b82565b5b61534b84828501615059565b60c08301525060e061535f84828501614f71565b60e08301525061010061537484828501614f71565b6101008301525061012061538a84828501614f71565b610120830152506101406153a084828501614f71565b610140830152506101606153b684828501614f71565b6101608301525061018082015167ffffffffffffffff8111156153dc576153db614b82565b5b6153e884828501615059565b610180830152506101a06153fe84828501614f71565b6101a0830152506101c082015167ffffffffffffffff81111561542457615423614b82565b5b61543084828501615059565b6101c0830152506101e082015167ffffffffffffffff81111561545657615455614b82565b5b61546284828501615059565b6101e08301525061020082015167ffffffffffffffff81111561548857615487614b82565b5b61549484828501615059565b6102008301525061022082015167ffffffffffffffff8111156154ba576154b9614b82565b5b6154c684828501615059565b6102208301525061024082015167ffffffffffffffff8111156154ec576154eb614b82565b5b6154f884828501615059565b6102408301525061026061550e84828501614f71565b61026083015250610280615524848285016151f0565b610280830152506102a061553a84828501615204565b6102a08301525092915050565b5f615559615554846151c1565b61424c565b9050808382526020820190506020840283018581111561557c5761557b6151ec565b5b835b818110156155c357805167ffffffffffffffff8111156155a1576155a06141e6565b5b8086016155ae8982615218565b8552602085019450505060208101905061557e565b5050509392505050565b5f82601f8301126155e1576155e06141e6565b5b81516155f1848260208601615547565b91505092915050565b5f805f60608486031215615611576156106140b4565b5b5f84015167ffffffffffffffff81111561562e5761562d6140b8565b5b61563a868287016155cd565b935050602061564b86828701614f71565b925050604061565c86828701614f71565b9150509250925092565b5f81905092915050565b5f61567a8261413c565b6156848185615666565b9350615694818560208601614156565b80840191505092915050565b5f6156ab8285615670565b91506156b78284615670565b91508190509392505050565b5f6060820190506156d65f830186614f49565b6156e36020830185614375565b6156f06040830184614375565b949350505050565b5f67ffffffffffffffff821115615712576157116141ee565b5b602082029050602081019050919050565b5f615735615730846156f8565b61424c565b90508083825260208201905060208402830185811115615758576157576151ec565b5b835b81811015615781578061576d8882614f71565b84526020840193505060208101905061575a565b5050509392505050565b5f82601f83011261579f5761579e6141e6565b5b81516157af848260208601615723565b91505092915050565b5f805f606084860312156157cf576157ce6140b4565b5b5f84015167ffffffffffffffff8111156157ec576157eb6140b8565b5b6157f88682870161578b565b935050602061580986828701614f71565b925050604061581a86828701614f71565b9150509250925092565b7f4e487b71000000000000000000000000000000000000000000000000000000005f52603260045260245ffd5b5f60208284031215615866576158656140b4565b5b5f82015167ffffffffffffffff811115615883576158826140b8565b5b61588f84828501615218565b91505092915050565b5f6158a28261436c565b91507fffffffffffffffffffffffffffffffffffffffffffffffffffffffffffffffff82036158d4576158d36150cd565b5b600182019050919050565b5f6060820190508181035f8301526158f7818661418e565b90506159066020830185614375565b6159136040830184614375565b949350505050565b5f67ffffffffffffffff821115615935576159346141ee565b5b602082029050602081019050919050565b5f6159586159538461591b565b61424c565b9050808382526020820190506020840283018581111561597b5761597a6151ec565b5b835b818110156159a45780615990888261512d565b84526020840193505060208101905061597d565b5050509392505050565b5f82601f8301126159c2576159c16141e6565b5b81516159d2848260208601615946565b91505092915050565b5f805f606084860312156159f2576159f16140b4565b5b5f84015167ffffffffffffffff811115615a0f57615a0e6140b8565b5b615a1b868287016159ae565b9350506020615a2c86828701614f71565b9250506040615a3d86828701614f71565b9150509250925092565b615a508161480a565b8114615a5a575f80fd5b50565b5f81519050615a6b81615a47565b92915050565b5f60208284031215615a8657615a856140b4565b5b5f615a9384828501615a5d565b91505092915050565b7f42616e6b20476964206e6f7420657869737473000000000000000000000000005f82015250565b5f615ad0601383614146565b9150615adb82615a9c565b602082019050919050565b5f6020820190508181035f830152615afd81615ac4565b9050919050565b5f60a08284031215615b1957615b18614b7e565b5b615b2360a061424c565b90505f82015167ffffffffffffffff811115615b4257615b41614b82565b5b615b4e84828501615059565b5f83015250602082015167ffffffffffffffff811115615b7157615b70614b82565b5b615b7d84828501615059565b602083015250604082015167ffffffffffffffff811115615ba157615ba0614b82565b5b615bad84828501615059565b604083015250606082015167ffffffffffffffff811115615bd157615bd0614b82565b5b615bdd84828501615059565b6060830152506080615bf184828501615204565b60808301525092915050565b5f60208284031215615c1257615c116140b4565b5b5f82015167ffffffffffffffff811115615c2f57615c2e6140b8565b5b615c3b84828501615b04565b91505092915050565b5f81519050919050565b5f81905092915050565b5f615c6282615c44565b615c6c8185615c4e565b9350615c7c818560208601614156565b80840191505092915050565b5f615c938284615c58565b915081905092915050565b7f7065726d697373696f6e732063616c6c206661696c65640000000000000000005f82015250565b5f615cd2601783614146565b9150615cdd82615c9e565b602082019050919050565b5f6020820190508181035f830152615cff81615cc6565b9050919050565b5f73ffffffffffffffffffffffffffffffffffffffff82169050919050565b5f615d2f82615d06565b9050919050565b615d3f81615d25565b8114615d49575f80fd5b50565b5f81519050615d5a81615d36565b92915050565b5f60208284031215615d7557615d746140b4565b5b5f615d8284828501615d4c565b91505092915050565b7f756e617574686f72697a65642063616c6c6572000000000000000000000000005f82015250565b5f615dbf601383614146565b9150615dca82615d8b565b602082019050919050565b5f6020820190508181035f830152615dec81615db3565b9050919050565b7f5041207265666572656e6365206e756d62657220646f65736e277420657869735f8201527f7420696e207468652073797374656d0000000000000000000000000000000000602082015250565b5f615e4d602f83614146565b9150615e5882615df3565b604082019050919050565b5f6020820190508181035f830152615e7a81615e41565b9050919050565b7f5061796d656e742041647669636520646f6573206e6f742065786973740000005f82015250565b5f615eb5601d83614146565b9150615ec082615e81565b602082019050919050565b5f6020820190508181035f830152615ee281615ea9565b9050919050565b7f54686520616d656e646d656e7420636f7079206f6620746865205041206973205f8201527f6265656e2075706c6f616465642c207375626d697420424720616761696e737460208201527f20746865206c617465737420616d656e64656420504100000000000000000000604082015250565b5f615f69605683614146565b9150615f7482615ee9565b606082019050919050565b5f6020820190508181035f830152615f9681615f5d565b9050919050565b5f6040820190508181035f830152615fb5818561418e565b9050615fc46020830184614f49565b9392505050565b7f42616e6b2068617320616c7265616479207375626d697474656420424720666f5f8201527f7220746865205041000000000000000000000000000000000000000000000000602082015250565b5f616025602883614146565b915061603082615fcb565b604082019050919050565b5f6020820190508181035f83015261605281616019565b9050919050565b5f6040820190508181035f830152616071818561418e565b90508181036020830152616085818461418e565b90509392505050565b7f43757272656e637920646f65736e2774206d61746368206173207065722074685f8201527f65205061796d656e742041647669636500000000000000000000000000000000602082015250565b5f6160e8603083614146565b91506160f38261608e565b604082019050919050565b5f6020820190508181035f830152616115816160dc565b9050919050565b7f42616e6b2047756172616e74656520616d6f756e742073686f756c64206265205f8201527f6d6f7265206f7220657175616c20746f20746865205061796d656e742041647660208201527f69636520416d6f756e7400000000000000000000000000000000000000000000604082015250565b5f61619c604a83614146565b91506161a78261611c565b606082019050919050565b5f6020820190508181035f8301526161c981616190565b9050919050565b7f4247206e756d62657220616c72656164792065786973747320696e20746865205f8201527f73797374656d0000000000000000000000000000000000000000000000000000602082015250565b5f61622a602683614146565b9150616235826161d0565b604082019050919050565b5f6020820190508181035f8301526162578161621e565b9050919050565b7f42616e6b2047756172616e74656520616c7265616479207075626c69736865645f82015250565b5f616292602083614146565b915061629d8261625e565b602082019050919050565b5f6020820190508181035f8301526162bf81616286565b9050919050565b5f6080820190506162d95f830187614f49565b81810360208301526162eb818661418e565b90506162fa6040830185614f49565b818103606083015261630c818461418e565b905095945050505050565b5f6080820190508181035f83015261632f818761418e565b90508181036020830152616343818661418e565b90506163526040830185614375565b61635f6060830184614375565b95945050505050565b7f496e697469616c204247206973206e6f74206265656e207375626d69747465645f8201527f206f7220424720526566204e756d626572206e6f7420666f756e6420696e207460208201527f68652073797374656d20746f207375626d697420616d656e646d656e74000000604082015250565b5f6163e8605d83614146565b91506163f382616368565b606082019050919050565b5f6020820190508181035f830152616415816163dc565b9050919050565b7f5375626d69742074686520424720616761696e737420746865206c61746573745f8201527f2050412070757368656420627920746865204567702073797374656d00000000602082015250565b5f616476603c83614146565b91506164818261641c565b604082019050919050565b5f6020820190508181035f8301526164a38161646a565b9050919050565b5f80604083850312156164c0576164bf6140b4565b5b5f83015167ffffffffffffffff8111156164dd576164dc6140b8565b5b6164e985828601615218565b92505060206164fa85828601614f71565b9150509250929050565b7f42616e6b2047756172616e74656520616c7265616479207375626d69697465645f8201527f20696e207468652073797374656d000000000000000000000000000000000000602082015250565b5f61655e602e83614146565b915061656982616504565b604082019050919050565b5f6020820190508181035f83015261658b81616552565b9050919050565b5f61659c8261436c565b91506165a78361436c565b92508282019050808211156165bf576165be6150cd565b5b92915050565b5f6040820190506165d85f830185614f49565b6165e56020830184614375565b9392505050565b5f6040820190506165ff5f830185614375565b818103602083015261661181846148d9565b90509392505050565b5f60808201905061662d5f830187614f49565b818103602083015261663f818661418e565b90508181036040830152616653818561418e565b90506166626060830184614375565b95945050505050565b5f819050919050565b616685616680826140bc565b61666b565b82525050565b5f819050919050565b6166a56166a08261436c565b61668b565b82525050565b5f6166b6828e615670565b91506166c2828d615670565b91506166ce828c616674565b6008820191506166de828b615670565b91506166ea828a616694565b6020820191506166fa8289616694565b60208201915061670a8288616694565b60208201915061671a8287615670565b91506167268286616694565b6020820191506167368285615670565b91506167428284616694565b6020820191508190509c9b505050505050505050505050565b5f6040820190508181035f830152616773818561418e565b90506167826020830184614375565b9392505050565b5f6080820190508181035f8301526167a181876148d9565b90506167b06020830186614375565b81810360408301526167c2818561418e565b905081810360608301526167d6818461418e565b905095945050505050565b5f6040820190508181035f8301526167f981856148d9565b90506168086020830184614375565b9392505050565b7f424720646f6573206e6f7420657869737420666f7220676976656e20504120755f8201527f6964000000000000000000000000000000000000000000000000000000000000602082015250565b5f616869602283614146565b91506168748261680f565b604082019050919050565b5f6020820190508181035f8301526168968161685d565b905091905056fea26469706673582212201578a2f56426770f1eef4ce8de2a0ecf18399b729a35e9b6e8e943c83c4bcec964736f6c63430008140033",
  "immutableReferences": {},
  "source": "pragma solidity ^0.8.0;\npragma experimental ABIEncoderV2;\nimport \"./BankManager.sol\";\nimport \"./PaymentAdviceManager.sol\";\nimport \"./BankGuaranteeModel.sol\";\nimport \"./VcnFunctionalManager.sol\";\n\ncontract BankGuaranteeManager is BankGuaranteeStructs {\n\n    address private accountManager;\n    BankManager private bankManager;\n    PaymentAdviceManager private paymentAdviceManager;\n    BankGuaranteeModel private bankGuaranteeModel;\n    VcnFunctionalManager private vcnFunctionalManager;\n\n    event BankGuaranteeRegistered(bytes8 _bgUid, string _bgReferenceNumber, bytes8 _paUid, string _paymentAdviceReferenceNumber);\n\n    event AmendedBankGuaranteeRegistered(bytes8 _bgUid, string _bgReferenceNumber, string paymentAdviceNumber, uint _bgAmendment);\n\n    constructor (address _bankManager, address _paymentAdviceManager, address _bankGuaranteeModel, address _accountManager, address _vcnFunctionalManager) {\n        bankManager = BankManager(_bankManager);\n        paymentAdviceManager = PaymentAdviceManager(_paymentAdviceManager);\n        bankGuaranteeModel = BankGuaranteeModel(_bankGuaranteeModel);\n        accountManager = _accountManager;\n        vcnFunctionalManager = VcnFunctionalManager(_vcnFunctionalManager);\n    }\n\n\n\n    modifier bankGidExists(string memory _gid) {\n        require(bankManager.isGidExists(_gid), \"Bank Gid not exists\");\n        _;\n    }\n\n    modifier validatePaymentAdvice(BankGuarantee memory _bankGuarantee) {\n        require(paymentAdviceManager.getPaymentAdviceReferenceNumberExist(_bankGuarantee.paymentAdviceNumber) == 1, \"PA reference number doesn't exist in the system\" );\n        require(paymentAdviceManager.isUidExists(_bankGuarantee.paymentAdviceUid), \"Payment Advice does not exist\");\n        require(paymentAdviceManager.getLatestPaUidByReferenceNumber(_bankGuarantee.paymentAdviceNumber) == _bankGuarantee.paymentAdviceUid, \"The amendment copy of the PA is been uploaded, submit BG against the latest amended PA\");\n        require(bankGuaranteeModel.getBankGuaranteforPaymentAdviceBankGid(_bankGuarantee.bankGid, _bankGuarantee.paymentAdviceUid) == 0, \"Bank has already submitted BG for the PA\");\n        require(vcnFunctionalManager.checkCurrencyVersion(paymentAdviceManager.getPaymentAdviceCurrencyType(_bankGuarantee.paymentAdviceUid), _bankGuarantee.currency), \"Currency doesn't match as per the Payment Advice\");\n        require(paymentAdviceManager.getPaymentAdviceBGAmount(_bankGuarantee.paymentAdviceUid) <= (_bankGuarantee.amount), \"Bank Guarantee amount should be more or equal to the Payment Advice Amount\");\n        require(bankGuaranteeModel.getBankGuaranteeIndexListLengthByPaymentAdviceAndBankGid(\n            bytes8(keccak256(abi.encodePacked(_bankGuarantee.referenceNumber, _bankGuarantee.bankGid)))) == 0, \"BG number already exists in the system\" );\n        _;\n    }\n\n    modifier onlyBankRepresentative(string memory _bankGid) {\n        (bool success, bytes memory data) = accountManager.call(\n            abi.encodeWithSignature(\n                \"getAccountAddress(string)\",\n                bankManager.getBankForGid(_bankGid).representativeAccountName\n            )\n        );\n        require(\n            success,\n            \"permissions call failed\"\n        );\n        address accAddress = abi.decode(data, (address));\n        require(\n            msg.sender == accAddress,\n            \"unauthorized caller\"\n        );\n        _;\n    }\n\n    modifier checkPaReferenceNumberByBankGid (string memory _referenceNumber, string memory _bankGid, bytes8 _paymentAdviceUid, string memory _currency) {\n        require(bankGuaranteeModel.getBankGuaranteeIndexListLengthByPaymentAdviceAndBankGid(\n            bytes8(keccak256(abi.encodePacked(_referenceNumber, _bankGid)))) > 0, \"Initial BG is not been submitted or BG Ref Number not found in the system to submit amendment\");\n        require(paymentAdviceManager.getLatestPaUidByReferenceNumber(_referenceNumber) == _paymentAdviceUid, \"Submit the BG against the latest PA pushed by the Egp system\");\n        require(bankGuaranteeModel.getBankGuaranteforPaymentAdviceBankGid(_bankGid, _paymentAdviceUid) == 0, \"Bank has already submitted BG for the PA\");\n        require(vcnFunctionalManager.checkCurrencyVersion(paymentAdviceManager.getPaymentAdviceCurrencyType(_paymentAdviceUid), _currency), \"Currency doesn't match as per the Payment Advice\");\n        _;\n    }\n\n\n    function publishBankGuarantee(BankGuarantee memory _bankGuarantee) public \n    bankGidExists(_bankGuarantee.bankGid) \n    onlyBankRepresentative(_bankGuarantee.bankGid)\n    validatePaymentAdvice(_bankGuarantee)\n    {\n        bytes8 uid = _generateUID(_bankGuarantee);\n        require(bankGuaranteeModel.getBankGuaranteeIndex(uid)==0, \"Bank Guarantee already published\");\n        _bankGuarantee.uid = uid;\n        _publishBankGuarantee(_bankGuarantee);\n        emit BankGuaranteeRegistered(_bankGuarantee.uid, _bankGuarantee.referenceNumber, _bankGuarantee.paymentAdviceUid, _bankGuarantee.paymentAdviceNumber);\n    }\n\n\n    function _publishBankGuarantee(BankGuarantee memory _bankGuarantee) internal\n    {\n        uint id = bankGuaranteeModel.getBankGuaranteeListLength();\n        bankGuaranteeModel.setBankGuaranteeIndex(_bankGuarantee.uid, 1+id);\n        bankGuaranteeModel.incBankGuaranteeListLength();\n        bankGuaranteeModel.addBankGuarantee(id, _bankGuarantee);\n        bankGuaranteeModel.addBankGuaranteeIndexByBankGid(_bankGuarantee.bankGid, id);\n        bankGuaranteeModel.setBankGuaranteeIndexByPaymentAdviceUid(_bankGuarantee.paymentAdviceUid, 1+id);\n        bankGuaranteeModel.addBankGuaranteforPaymentAdviceBankGid(_bankGuarantee.paymentAdviceUid, _bankGuarantee.bankGid);\n        bankGuaranteeModel.addBankGuaranteeIndexListByPaymentAdviceAndBankGid(\n            bytes8(keccak256(abi.encodePacked(_bankGuarantee.paymentAdviceNumber,_bankGuarantee.bankGid))), id\n        );\n        string memory _vendorGid = paymentAdviceManager.getPaymentAdviceVendorGidbyUid(_bankGuarantee.paymentAdviceUid);\n        string memory _peGid = paymentAdviceManager.getPaymentAdviceProcuringEntityGidyUid(_bankGuarantee.paymentAdviceUid);\n        bankGuaranteeModel.setBankGuaranteeIndices(_bankGuarantee, id, _vendorGid, _peGid);\n        bankGuaranteeModel.setBankGuaranteeByBgReferenceAndBankGid(_bankGuarantee, id);\n    }\n\n    function amendedBankGuarantee (BankGuarantee memory _bankGuarantee) public\n    onlyBankRepresentative(_bankGuarantee.bankGid)\n    checkPaReferenceNumberByBankGid (_bankGuarantee.paymentAdviceNumber, _bankGuarantee.bankGid, _bankGuarantee.paymentAdviceUid, _bankGuarantee.currency)\n    {\n        uint id = bankGuaranteeModel.getBankGuaranteeListLength();\n        uint _PrevIndex;\n        (_bankGuarantee, _PrevIndex) = bankGuaranteeModel.generateBankGuarantee(_bankGuarantee);\n        bytes8 uid = _generateUID(_bankGuarantee);\n        require(bankGuaranteeModel.getBankGuaranteeIndex(uid) == 0, \"Bank Guarantee already submiited in the system\");\n        _bankGuarantee.uid = uid;\n        bankGuaranteeModel.setBankGuaranteeIndex(uid, 1+id);\n        bankGuaranteeModel.addBankGuaranteeIndexListByPaymentAdviceAndBankGid(\n            bytes8(keccak256(abi.encodePacked(_bankGuarantee.paymentAdviceNumber,_bankGuarantee.bankGid))), id);\n        bankGuaranteeModel.incBankGuaranteeListLength();\n        bankGuaranteeModel.updatePreviousBgtoOutdated(_PrevIndex);\n        bankGuaranteeModel.addBankGuarantee(id, _bankGuarantee);\n        emit AmendedBankGuaranteeRegistered(_bankGuarantee.uid, _bankGuarantee.referenceNumber, \n        _bankGuarantee.paymentAdviceNumber, _bankGuarantee.amendment);\n        \n    }\n\n    function setBgReleaseStatusPaUid(string memory _bankGid, bytes8 _bankGuaranteeUid) public\n    {\n        uint _index = bankGuaranteeModel.getBankGuaranteeIndex(_bankGuaranteeUid) - 1; \n        bytes8 _paymentAdviceUid = bankGuaranteeModel.getBankGuaranteePaymentAdviceUid(_index);\n        bankGuaranteeModel.setBgReleaseStatus(_paymentAdviceUid, _bankGid);\n    }\n\n    function getAllBankGuarantee(uint _toExcluded, uint _count) external view \n    returns(BankGuarantee[] memory _bankGuarantee, uint fromIncluded_, uint length_) {\n        (_bankGuarantee, fromIncluded_, length_) = bankGuaranteeModel.getAllBankGuarantee(_toExcluded, _count);\n    }\n\n\n    function getBankGuarantee(bytes8 _uid) public view returns (BankGuarantee memory bankGuarantee_){\n        require(0!=bankGuaranteeModel.getBankGuaranteeIndex(_uid), \"Bank Guarantee does not exist\");\n        bankGuarantee_ = bankGuaranteeModel.getBankGuaranteeByIndex(_getBankGuaranteeIndex(_uid));\n    }\n\n    \n    \n    /** @dev Listing out the Bank Guarantees against the Reference Number and Bank Gid.\n      * @param _referenceNumber Reference number of bank Guarantee.\n      * @param _bankGid Global id of bank.     \n      * @param _toExcluded The length till where the uint indexes has to be fetched.\n      * @param _count The number of indexes that has to be fetched. \n      * @return _bankGuaranteeByBgReferenceAndBankGid List of Bank Guarantees against the Reference Number and Bank Gid.\n      * @return fromIncluded_ _toExcluded - _count.\n      * @return length_ The length of the index present for the Reference Number and Bank Gid.\n      */\n    function getBankGuaranteeListByBgReferenceAndBankGid(string memory _referenceNumber, string memory _bankGid, uint _toExcluded, uint _count) public view \n    returns(BankGuarantee[] memory _bankGuaranteeByBgReferenceAndBankGid, uint fromIncluded_, uint length_)  {\n        bytes8 _bgRefBankGid = bytes8(keccak256(abi.encodePacked(_referenceNumber, _bankGid))); \n        uint256[] memory indexList;\n        (indexList, fromIncluded_, length_) = bankGuaranteeModel.getBankGuaranteeByBgReferenceAndBankGid(_bgRefBankGid, _toExcluded, _count);\n        _bankGuaranteeByBgReferenceAndBankGid = new BankGuarantee[] (indexList.length);\n        for (uint256 i = 0; i < indexList.length; i++) {\n            _bankGuaranteeByBgReferenceAndBankGid[i] = bankGuaranteeModel.getBankGuaranteeByIndex(indexList[i]);\n        }\n    }\n\n    \n    /** @dev Listing out the Bank Guarantees against the Vendor Gid and Bank Gid.\n      * @param _vendorGid Global id of the Vendor.\n      * @param _bankGid Global id of bank.\n      * @param _toExcluded The length till where the uint indexes has to be fetched.\n      * @param _count The number of indexes that has to be fetched. \n      * @return _bankGuaranteeByVendorAndBankGid List of Bank Guarantees against the Vendor Gid and Bank Gid.\n      * @return fromIncluded_ _toExcluded - _count.\n      * @return length_ The length of the index present for the Vendor Gid and Bank Gid.\n      */\n    function getBankGuaranteeListByVendorAndBankGid(string memory _vendorGid, string memory _bankGid,  uint _toExcluded, uint _count) public view \n    returns(BankGuarantee[] memory _bankGuaranteeByVendorAndBankGid, uint fromIncluded_, uint length_)  {\n        bytes8 _bgVendorBankGid = bytes8(keccak256(abi.encodePacked(_vendorGid, _bankGid)));\n        uint[] memory indexList;\n        (indexList, fromIncluded_, length_) = bankGuaranteeModel.getBankGuaranteeByVendorAndBankGid(_bgVendorBankGid, _toExcluded, _count);\n        _bankGuaranteeByVendorAndBankGid = new BankGuarantee[] (indexList.length);\n        for (uint256 i = 0; i < indexList.length; i++) {\n            _bankGuaranteeByVendorAndBankGid[i] = bankGuaranteeModel.getBankGuaranteeByIndex(indexList[i]);\n        }\n    } \n\n      \n      /** @dev Listing out the Bank Guarantees against the PE Gid and Bank Gid.\n      * @param _peGid Global id of Procuring Entity.\n      * @param _bankGid Global id of bank.\n      * @param _toExcluded The length till where the uint indexes has to be fetched.\n      * @param _count The number of indexes that has to be fetched. \n      * @return _bankGuaranteeByPEAndBankGid List of Bank Guarantees against the PE Gid and Bank Gid.\n      * @return fromIncluded_ _toExcluded - _count.\n      * @return length_ The length of the index present for the PE Gid and Bank Gid.\n      */\n      function getBankGuaranteeListByPEAndBankGid(string memory _peGid, string memory _bankGid,  uint _toExcluded, uint _count) public view \n      returns(BankGuarantee[] memory _bankGuaranteeByPEAndBankGid, uint fromIncluded_, uint length_)  {\n        bytes8 _bgPeBankGid = bytes8(keccak256(abi.encodePacked(_peGid, _bankGid)));\n        uint[] memory indexList;\n        (indexList, fromIncluded_, length_) = bankGuaranteeModel.getBankGuaranteeByPEAndBankGid(_bgPeBankGid, _toExcluded, _count);\n        _bankGuaranteeByPEAndBankGid = new BankGuarantee[] (indexList.length);\n        for (uint256 i = 0; i < indexList.length; i++) {\n            _bankGuaranteeByPEAndBankGid[i] = bankGuaranteeModel.getBankGuaranteeByIndex(indexList[i]);\n        }\n\n      }\n\n    function getBankGuaranteesByBankGid(string memory _bankGid, uint _toExcluded, uint _count) public view \n    returns(BankGuarantee[] memory bankGuarantees_, uint fromIncluded_, uint length_){\n        uint[] memory indexList;\n        (indexList, fromIncluded_, length_) = bankGuaranteeModel.getBankGuaranteeIndexesByBankGid(_bankGid, _toExcluded, _count);\n        bankGuarantees_ = new BankGuarantee[](indexList.length);\n        for (uint256 index = 0; index < indexList.length; index++) {\n            bankGuarantees_[index] = bankGuaranteeModel.getBankGuaranteeByIndex(indexList[index]);\n        }\n    }\n\n    function getBankGuaranteesByPaymentAdviceRefAndEgpId(string memory _paymentAdviceReferenceNumber, string memory _egpSystemId, uint _toExcluded, uint _count) public view \n    returns(BankGuarantee[] memory bankGuarantees_, uint fromIncluded_, uint length_){\n        bytes8[] memory paymentAdviceUidList;\n        (paymentAdviceUidList,fromIncluded_, length_) = paymentAdviceManager.getPaymentAdviceUidsByPaymentAdviceRefAndEgpId(_paymentAdviceReferenceNumber, _egpSystemId, _toExcluded, _count);\n        bankGuarantees_ = new BankGuarantee[](paymentAdviceUidList.length);\n        for(uint i=0;i<paymentAdviceUidList.length;i++) {\n            if(isBgExistsForPaymentAdviceUid(paymentAdviceUidList[i])){\n                bankGuarantees_[i] =  _getBankGuaranteeByPaymentAdviceUid(paymentAdviceUidList[i]);\n            }\n        }\n    } \n\n    function getBankGuaranteesByVendorGid(string memory _vendorGid, uint _toExcluded, uint _count) public view \n    returns(BankGuarantee[] memory bankGuarantees_, uint fromIncluded_, uint length_){\n        bytes8[] memory paymentAdviceUidList;\n        (paymentAdviceUidList, fromIncluded_, length_) = paymentAdviceManager.getPaymentAdviceUidsByVendorGid(_vendorGid, _toExcluded, _count);\n        bankGuarantees_ = new BankGuarantee[](paymentAdviceUidList.length);\n        for(uint i=0;i<paymentAdviceUidList.length;i++) {\n            if(isBgExistsForPaymentAdviceUid(paymentAdviceUidList[i])){\n                bankGuarantees_[i] =  _getBankGuaranteeByPaymentAdviceUid(paymentAdviceUidList[i]);\n            }\n        }\n    } \n\n    function getBankGuaranteesByEgpId(string memory _egpId, uint _toExcluded, uint _count) public view \n    returns(BankGuarantee[] memory bankGuarantees_, uint fromIncluded_, uint length_){\n        bytes8[] memory paymentAdviceUidList;\n        (paymentAdviceUidList, fromIncluded_, length_) = paymentAdviceManager.getPaymentAdviceUidsByEgpId(_egpId, _toExcluded, _count);\n        bankGuarantees_ = new BankGuarantee[](paymentAdviceUidList.length);\n        for(uint i=0;i<paymentAdviceUidList.length;i++) {\n            if(isBgExistsForPaymentAdviceUid(paymentAdviceUidList[i])){\n                bankGuarantees_[i] =  _getBankGuaranteeByPaymentAdviceUid(paymentAdviceUidList[i]);\n            }\n        }\n    } \n\n    function getBankGuaranteesByPeGid(string memory _gid, uint _toExcluded, uint _count) public view \n    returns(BankGuarantee[] memory bankGuarantees_, uint fromIncluded_, uint length_){\n        bytes8[] memory paymentAdviceUidList;\n        (paymentAdviceUidList, fromIncluded_, length_) = paymentAdviceManager.getPaymentAdviceUidsByProcuringEntityGid(_gid, _toExcluded, _count);\n        bankGuarantees_ = new BankGuarantee[](paymentAdviceUidList.length);\n        for(uint i=0;i<paymentAdviceUidList.length;i++) {\n            if(isBgExistsForPaymentAdviceUid(paymentAdviceUidList[i])){\n                bankGuarantees_[i] =  _getBankGuaranteeByPaymentAdviceUid(paymentAdviceUidList[i]);\n            }\n        }\n    }\n\n    function getBankGid(bytes8 _uid) external view\n    returns (string memory) {\n        return bankGuaranteeModel.getBankGuaranteeBankGid(_getBankGuaranteeIndex(_uid));\n    }\n\n    function getBankGuaranteeCurrencyType(bytes8 _uid) external view \n    returns (string memory) {\n        require(0!=bankGuaranteeModel.getBankGuaranteeIndex(_uid), \"Bank Guarantee does not exist\");\n        return bankGuaranteeModel.getBankGuaranteeCurrency(_getBankGuaranteeIndex(_uid));\n    } \n\n    function getBankGuaranteeAmount(bytes8 _uid) external view \n    returns (uint) {\n        return bankGuaranteeModel.getBankGuaranteeAmount(_getBankGuaranteeIndex(_uid));\n    }\n\n    function getBankGuaranteeClaimExpiryDate(bytes8 _uid) external view \n    returns (uint) {\n        return bankGuaranteeModel.getBankGuaranteeClaimExpiryDate(_getBankGuaranteeIndex(_uid));\n    }\n\n    function getBankGuaranteeReferenceNumberbybgUid (bytes8 _uid) external view\n    returns (string memory) {\n        return bankGuaranteeModel.getBankGuaranteeReferenceNumber(_getBankGuaranteeIndex(_uid));\n    }\n\n    function isUidExists(bytes8 _uid) external view \n    returns (bool) {\n        return 0 != bankGuaranteeModel.getBankGuaranteeIndex(_uid);\n    }\n\n    function isBgExistsForPaymentAdviceUid(bytes8 _paymentAdviceUid) public view \n    returns (bool) {\n        return 0 != bankGuaranteeModel.getBankGuaranteeIndexByPaymentAdviceUid(_paymentAdviceUid);\n    }\n\n    function _getBankGuaranteeByPaymentAdviceUid(bytes8 _paymentAdviceUid) private view returns(BankGuarantee memory bankGuarantee_){\n        return bankGuaranteeModel.getBankGuaranteeByIndex(_getBankGuaranteeIndexByPaymentAdviceUid(_paymentAdviceUid));\n    } \n\n    function _getBankGuaranteeIndex(bytes8 _uid) private view returns(uint){\n        return bankGuaranteeModel.getBankGuaranteeIndex(_uid)-1;\n    }\n\n    function _getBankGuaranteeIndexByPaymentAdviceUid(bytes8 _uid) private view returns(uint){\n        require(isBgExistsForPaymentAdviceUid(_uid), \"BG does not exist for given PA uid\");\n        return bankGuaranteeModel.getBankGuaranteeIndexByPaymentAdviceUid(_uid)-1;\n    }\n\n    function _generateUID(BankGuarantee memory _bankGuarantee) private pure returns (bytes8){\n        return bytes8(keccak256(abi.encodePacked(_bankGuarantee.bankGid, _bankGuarantee.paymentAdviceNumber, _bankGuarantee.paymentAdviceUid, _bankGuarantee.referenceNumber, \n        _bankGuarantee.claimExpiryDate, _bankGuarantee.validFrom, _bankGuarantee.validTill, \n        _bankGuarantee.currency, _bankGuarantee.amount, _bankGuarantee.fileHash, _bankGuarantee.amendment)));\n    } \n\n    function _mergeBankGuarantees(BankGuarantee[] memory arr, BankGuarantee[] memory arr2) private pure returns(BankGuarantee[] memory) {\n        BankGuarantee[] memory returnArr = new BankGuarantee[](arr.length + arr2.length);\n        uint i=0;\n        for (; i < arr.length; i++) {\n            returnArr[i] = arr[i];\n        }\n        uint j=0;\n        while (j < arr2.length) {\n            returnArr[i++] = arr2[j++];\n        }\n        return returnArr;\n    }\n\n}",
  "sourcePath": "/home/raghupathi/Desktop/javaClass/javaClass/contracts/BankGuaranteeManager.sol",
  "compiler": {
    "name": "solc",
    "version": "0.8.20+commit.a1b79de6.Emscripten.clang"
  },
  "schemaVersion": "3.4.14",
  "updatedAt": "2023-06-02T09:43:22.577Z",
  "devdoc": {
    "kind": "dev",
    "methods": {
      "getBankGuaranteeListByBgReferenceAndBankGid(string,string,uint256,uint256)": {
        "details": "Listing out the Bank Guarantees against the Reference Number and Bank Gid.",
        "params": {
          "_bankGid": "Global id of bank.     ",
          "_count": "The number of indexes that has to be fetched. ",
          "_referenceNumber": "Reference number of bank Guarantee.",
          "_toExcluded": "The length till where the uint indexes has to be fetched."
        },
        "returns": {
          "_bankGuaranteeByBgReferenceAndBankGid": "List of Bank Guarantees against the Reference Number and Bank Gid.",
          "fromIncluded_": "_toExcluded - _count.",
          "length_": "The length of the index present for the Reference Number and Bank Gid."
        }
      },
      "getBankGuaranteeListByPEAndBankGid(string,string,uint256,uint256)": {
        "details": "Listing out the Bank Guarantees against the PE Gid and Bank Gid.",
        "params": {
          "_bankGid": "Global id of bank.",
          "_count": "The number of indexes that has to be fetched. ",
          "_peGid": "Global id of Procuring Entity.",
          "_toExcluded": "The length till where the uint indexes has to be fetched."
        },
        "returns": {
          "_bankGuaranteeByPEAndBankGid": "List of Bank Guarantees against the PE Gid and Bank Gid.",
          "fromIncluded_": "_toExcluded - _count.",
          "length_": "The length of the index present for the PE Gid and Bank Gid."
        }
      },
      "getBankGuaranteeListByVendorAndBankGid(string,string,uint256,uint256)": {
        "details": "Listing out the Bank Guarantees against the Vendor Gid and Bank Gid.",
        "params": {
          "_bankGid": "Global id of bank.",
          "_count": "The number of indexes that has to be fetched. ",
          "_toExcluded": "The length till where the uint indexes has to be fetched.",
          "_vendorGid": "Global id of the Vendor."
        },
        "returns": {
          "_bankGuaranteeByVendorAndBankGid": "List of Bank Guarantees against the Vendor Gid and Bank Gid.",
          "fromIncluded_": "_toExcluded - _count.",
          "length_": "The length of the index present for the Vendor Gid and Bank Gid."
        }
      }
    },
    "version": 1
  },
  "userdoc": {
    "kind": "user",
    "methods": {},
    "version": 1
  }
}