{
  "contractName": "BankModel",
  "abi": [
    {
      "inputs": [
        {
          "internalType": "address",
          "name": "_Member",
          "type": "address"
        },
        {
          "internalType": "address",
          "name": "_List",
          "type": "address"
        },
        {
          "internalType": "address",
          "name": "_Map",
          "type": "address"
        },
        {
          "internalType": "address",
          "name": "_quireContracts",
          "type": "address"
        }
      ],
      "stateMutability": "nonpayable",
      "type": "constructor"
    },
    {
      "inputs": [
        {
          "internalType": "string",
          "name": "_gid",
          "type": "string"
        }
      ],
      "name": "getBankIndex",
      "outputs": [
        {
          "internalType": "uint256",
          "name": "",
          "type": "uint256"
        }
      ],
      "stateMutability": "view",
      "type": "function"
    },
    {
      "inputs": [],
      "name": "getBankListLength",
      "outputs": [
        {
          "internalType": "uint256",
          "name": "",
          "type": "uint256"
        }
      ],
      "stateMutability": "view",
      "type": "function"
    },
    {
      "inputs": [
        {
          "internalType": "uint256",
          "name": "_toExcluded",
          "type": "uint256"
        },
        {
          "internalType": "uint256",
          "name": "_count",
          "type": "uint256"
        }
      ],
      "name": "getAllBanks",
      "outputs": [
        {
          "components": [
            {
              "internalType": "string",
              "name": "gid",
              "type": "string"
            },
            {
              "internalType": "string",
              "name": "bankName",
              "type": "string"
            },
            {
              "internalType": "string",
              "name": "bankCountry",
              "type": "string"
            },
            {
              "internalType": "string",
              "name": "representativeAccountName",
              "type": "string"
            },
            {
              "internalType": "uint16",
              "name": "version",
              "type": "uint16"
            }
          ],
          "internalType": "struct BankStructs.Bank[]",
          "name": "banks_",
          "type": "tuple[]"
        },
        {
          "internalType": "uint256",
          "name": "fromIncluded_",
          "type": "uint256"
        },
        {
          "internalType": "uint256",
          "name": "length_",
          "type": "uint256"
        }
      ],
      "stateMutability": "view",
      "type": "function"
    },
    {
      "inputs": [
        {
          "internalType": "uint256",
          "name": "_index",
          "type": "uint256"
        }
      ],
      "name": "getBankByIndex",
      "outputs": [
        {
          "components": [
            {
              "internalType": "string",
              "name": "gid",
              "type": "string"
            },
            {
              "internalType": "string",
              "name": "bankName",
              "type": "string"
            },
            {
              "internalType": "string",
              "name": "bankCountry",
              "type": "string"
            },
            {
              "internalType": "string",
              "name": "representativeAccountName",
              "type": "string"
            },
            {
              "internalType": "uint16",
              "name": "version",
              "type": "uint16"
            }
          ],
          "internalType": "struct BankStructs.Bank",
          "name": "bank_",
          "type": "tuple"
        }
      ],
      "stateMutability": "view",
      "type": "function"
    },
    {
      "inputs": [
        {
          "internalType": "uint256",
          "name": "_index",
          "type": "uint256"
        }
      ],
      "name": "getBankGid",
      "outputs": [
        {
          "internalType": "string",
          "name": "",
          "type": "string"
        }
      ],
      "stateMutability": "view",
      "type": "function"
    },
    {
      "inputs": [
        {
          "internalType": "uint256",
          "name": "_index",
          "type": "uint256"
        }
      ],
      "name": "getBankBankName",
      "outputs": [
        {
          "internalType": "string",
          "name": "",
          "type": "string"
        }
      ],
      "stateMutability": "view",
      "type": "function"
    },
    {
      "inputs": [
        {
          "internalType": "uint256",
          "name": "_index",
          "type": "uint256"
        }
      ],
      "name": "getBankBankCountry",
      "outputs": [
        {
          "internalType": "string",
          "name": "",
          "type": "string"
        }
      ],
      "stateMutability": "view",
      "type": "function"
    },
    {
      "inputs": [
        {
          "internalType": "uint256",
          "name": "_index",
          "type": "uint256"
        }
      ],
      "name": "getBankRepresentativeAccountName",
      "outputs": [
        {
          "internalType": "string",
          "name": "",
          "type": "string"
        }
      ],
      "stateMutability": "view",
      "type": "function"
    },
    {
      "inputs": [
        {
          "internalType": "uint256",
          "name": "_index",
          "type": "uint256"
        }
      ],
      "name": "getBankVersion",
      "outputs": [
        {
          "internalType": "uint16",
          "name": "",
          "type": "uint16"
        }
      ],
      "stateMutability": "view",
      "type": "function"
    },
    {
      "inputs": [
        {
          "internalType": "string",
          "name": "_gid",
          "type": "string"
        },
        {
          "internalType": "uint256",
          "name": "_value",
          "type": "uint256"
        }
      ],
      "name": "setBankIndex",
      "outputs": [],
      "stateMutability": "nonpayable",
      "type": "function"
    },
    {
      "inputs": [],
      "name": "incBankListLength",
      "outputs": [],
      "stateMutability": "nonpayable",
      "type": "function"
    },
    {
      "inputs": [
        {
          "internalType": "uint256",
          "name": "_index",
          "type": "uint256"
        },
        {
          "internalType": "string",
          "name": "_gid",
          "type": "string"
        }
      ],
      "name": "setBankGid",
      "outputs": [],
      "stateMutability": "nonpayable",
      "type": "function"
    },
    {
      "inputs": [
        {
          "internalType": "uint256",
          "name": "_index",
          "type": "uint256"
        },
        {
          "internalType": "string",
          "name": "_bankName",
          "type": "string"
        }
      ],
      "name": "setBankBankName",
      "outputs": [],
      "stateMutability": "nonpayable",
      "type": "function"
    },
    {
      "inputs": [
        {
          "internalType": "uint256",
          "name": "_index",
          "type": "uint256"
        },
        {
          "internalType": "string",
          "name": "_bankCountry",
          "type": "string"
        }
      ],
      "name": "setBankBankCountry",
      "outputs": [],
      "stateMutability": "nonpayable",
      "type": "function"
    },
    {
      "inputs": [
        {
          "internalType": "uint256",
          "name": "_index",
          "type": "uint256"
        },
        {
          "internalType": "string",
          "name": "_representativeAccountName",
          "type": "string"
        }
      ],
      "name": "setBankRepresentativeAccountName",
      "outputs": [],
      "stateMutability": "nonpayable",
      "type": "function"
    },
    {
      "inputs": [
        {
          "internalType": "uint256",
          "name": "_index",
          "type": "uint256"
        }
      ],
      "name": "setBankVersion",
      "outputs": [],
      "stateMutability": "nonpayable",
      "type": "function"
    }
  ],
  "bytecode": "0x608060405234801562000010575f80fd5b50604051620033b2380380620033b28339818101604052810190620000369190620001a4565b835f806101000a81548173ffffffffffffffffffffffffffffffffffffffff021916908373ffffffffffffffffffffffffffffffffffffffff1602179055508260015f6101000a81548173ffffffffffffffffffffffffffffffffffffffff021916908373ffffffffffffffffffffffffffffffffffffffff1602179055508160025f6101000a81548173ffffffffffffffffffffffffffffffffffffffff021916908373ffffffffffffffffffffffffffffffffffffffff1602179055508060035f6101000a81548173ffffffffffffffffffffffffffffffffffffffff021916908373ffffffffffffffffffffffffffffffffffffffff1602179055505050505062000213565b5f80fd5b5f73ffffffffffffffffffffffffffffffffffffffff82169050919050565b5f6200016e8262000143565b9050919050565b620001808162000162565b81146200018b575f80fd5b50565b5f815190506200019e8162000175565b92915050565b5f805f8060808587031215620001bf57620001be6200013f565b5b5f620001ce878288016200018e565b9450506020620001e1878288016200018e565b9350506040620001f4878288016200018e565b925050606062000207878288016200018e565b91505092959194509250565b61319180620002215f395ff3fe608060405234801561000f575f80fd5b50600436106100fe575f3560e01c806376e0f57911610095578063af91168811610064578063af911688146102ba578063e751d843146102ea578063e9d2c86714610308578063f962d28514610338576100fe565b806376e0f57914610234578063793b5a551461025057806380d0720a1461025a578063a2f439bf1461028a576100fe565b80634ac30a39116100d15780634ac30a391461019a57806363340c60146101b657806363b5ec78146101d25780636b249b2314610204576100fe565b80632d5bcd67146101025780632dd3f69014610132578063361ebfa3146101625780633e0c111e1461017e575b5f80fd5b61011c600480360381019061011791906125f2565b610354565b60405161012991906126a7565b60405180910390f35b61014c600480360381019061014791906125f2565b6105eb565b60405161015991906126a7565b60405180910390f35b61017c600480360381019061017791906127f3565b610882565b005b6101986004803603810190610193919061284d565b610aef565b005b6101b460048036038101906101af91906125f2565b610d25565b005b6101d060048036038101906101cb91906127f3565b610f92565b005b6101ec60048036038101906101e791906128a7565b6111ff565b6040516101fb93929190612a9b565b60405180910390f35b61021e600480360381019061021991906125f2565b6112fa565b60405161022b9190612b5f565b60405180910390f35b61024e600480360381019061024991906127f3565b611497565b005b610258611704565b005b610274600480360381019061026f91906125f2565b611934565b60405161028191906126a7565b60405180910390f35b6102a4600480360381019061029f9190612b7f565b611bcb565b6040516102b19190612bc6565b60405180910390f35b6102d460048036038101906102cf91906125f2565b611cda565b6040516102e19190612bee565b60405180910390f35b6102f2611f6d565b6040516102ff9190612bc6565b60405180910390f35b610322600480360381019061031d91906125f2565b612078565b60405161032f91906126a7565b60405180910390f35b610352600480360381019061034d91906127f3565b61230f565b005b6060815f60015f9054906101000a900473ffffffffffffffffffffffffffffffffffffffff1673ffffffffffffffffffffffffffffffffffffffff16633bea27536040518060400160405280600c81526020017f42414e4b5f4d414e4147455200000000000000000000000000000000000000008152506040518060400160405280600e81526020017f6c6973745f5f62616e6b4c6973740000000000000000000000000000000000008152506040518363ffffffff1660e01b815260040161041e929190612c07565b602060405180830381865afa158015610439573d5f803e3d5ffd5b505050506040513d601f19601f8201168201806040525081019061045d9190612c50565b90508082106104a1576040517f08c379a000000000000000000000000000000000000000000000000000000000815260040161049890612cc5565b60405180910390fd5b60015f9054906101000a900473ffffffffffffffffffffffffffffffffffffffff1673ffffffffffffffffffffffffffffffffffffffff16632136448c6040518060400160405280600c81526020017f42414e4b5f4d414e4147455200000000000000000000000000000000000000008152506040518060400160405280600e81526020017f6c6973745f5f62616e6b4c697374000000000000000000000000000000000000815250876040518060400160405280600381526020017f67696400000000000000000000000000000000000000000000000000000000008152506040518563ffffffff1660e01b81526004016105a09493929190612ce3565b5f60405180830381865afa1580156105ba573d5f803e3d5ffd5b505050506040513d5f823e3d601f19601f820116820180604052508101906105e29190612da9565b92505050919050565b6060815f60015f9054906101000a900473ffffffffffffffffffffffffffffffffffffffff1673ffffffffffffffffffffffffffffffffffffffff16633bea27536040518060400160405280600c81526020017f42414e4b5f4d414e4147455200000000000000000000000000000000000000008152506040518060400160405280600e81526020017f6c6973745f5f62616e6b4c6973740000000000000000000000000000000000008152506040518363ffffffff1660e01b81526004016106b5929190612c07565b602060405180830381865afa1580156106d0573d5f803e3d5ffd5b505050506040513d601f19601f820116820180604052508101906106f49190612c50565b9050808210610738576040517f08c379a000000000000000000000000000000000000000000000000000000000815260040161072f90612cc5565b60405180910390fd5b60015f9054906101000a900473ffffffffffffffffffffffffffffffffffffffff1673ffffffffffffffffffffffffffffffffffffffff16632136448c6040518060400160405280600c81526020017f42414e4b5f4d414e4147455200000000000000000000000000000000000000008152506040518060400160405280600e81526020017f6c6973745f5f62616e6b4c697374000000000000000000000000000000000000815250876040518060400160405280600b81526020017f62616e6b436f756e7472790000000000000000000000000000000000000000008152506040518563ffffffff1660e01b81526004016108379493929190612ce3565b5f60405180830381865afa158015610851573d5f803e3d5ffd5b505050506040513d5f823e3d601f19601f820116820180604052508101906108799190612da9565b92505050919050565b60035f9054906101000a900473ffffffffffffffffffffffffffffffffffffffff1673ffffffffffffffffffffffffffffffffffffffff1663ef02a3fc6040518060400160405280600c81526020017f42414e4b5f4d414e4147455200000000000000000000000000000000000000008152506040518263ffffffff1660e01b815260040161091191906126a7565b602060405180830381865afa15801561092c573d5f803e3d5ffd5b505050506040513d601f19601f820116820180604052508101906109509190612e4a565b73ffffffffffffffffffffffffffffffffffffffff163373ffffffffffffffffffffffffffffffffffffffff16146109bd576040517f08c379a00000000000000000000000000000000000000000000000000000000081526004016109b490612ebf565b60405180910390fd5b60015f9054906101000a900473ffffffffffffffffffffffffffffffffffffffff1673ffffffffffffffffffffffffffffffffffffffff1663c8f1cd876040518060400160405280600c81526020017f42414e4b5f4d414e4147455200000000000000000000000000000000000000008152506040518060400160405280600e81526020017f6c6973745f5f62616e6b4c697374000000000000000000000000000000000000815250856040518060400160405280600381526020017f6769640000000000000000000000000000000000000000000000000000000000815250866040518663ffffffff1660e01b8152600401610abe959493929190612edd565b5f604051808303815f87803b158015610ad5575f80fd5b505af1158015610ae7573d5f803e3d5ffd5b505050505050565b60035f9054906101000a900473ffffffffffffffffffffffffffffffffffffffff1673ffffffffffffffffffffffffffffffffffffffff1663ef02a3fc6040518060400160405280600c81526020017f42414e4b5f4d414e4147455200000000000000000000000000000000000000008152506040518263ffffffff1660e01b8152600401610b7e91906126a7565b602060405180830381865afa158015610b99573d5f803e3d5ffd5b505050506040513d601f19601f82011682018060405250810190610bbd9190612e4a565b73ffffffffffffffffffffffffffffffffffffffff163373ffffffffffffffffffffffffffffffffffffffff1614610c2a576040517f08c379a0000000000000000000000000000000000000000000000000000000008152600401610c2190612ebf565b60405180910390fd5b60025f9054906101000a900473ffffffffffffffffffffffffffffffffffffffff1673ffffffffffffffffffffffffffffffffffffffff1663368428d96040518060400160405280600c81526020017f42414e4b5f4d414e4147455200000000000000000000000000000000000000008152506040518060400160405280600e81526020017f6d61705f5f62616e6b496e64657800000000000000000000000000000000000081525085856040518563ffffffff1660e01b8152600401610cf49493929190612f4a565b5f604051808303815f87803b158015610d0b575f80fd5b505af1158015610d1d573d5f803e3d5ffd5b505050505050565b60035f9054906101000a900473ffffffffffffffffffffffffffffffffffffffff1673ffffffffffffffffffffffffffffffffffffffff1663ef02a3fc6040518060400160405280600c81526020017f42414e4b5f4d414e4147455200000000000000000000000000000000000000008152506040518263ffffffff1660e01b8152600401610db491906126a7565b602060405180830381865afa158015610dcf573d5f803e3d5ffd5b505050506040513d601f19601f82011682018060405250810190610df39190612e4a565b73ffffffffffffffffffffffffffffffffffffffff163373ffffffffffffffffffffffffffffffffffffffff1614610e60576040517f08c379a0000000000000000000000000000000000000000000000000000000008152600401610e5790612ebf565b60405180910390fd5b60015f9054906101000a900473ffffffffffffffffffffffffffffffffffffffff1673ffffffffffffffffffffffffffffffffffffffff1663c4f188576040518060400160405280600c81526020017f42414e4b5f4d414e4147455200000000000000000000000000000000000000008152506040518060400160405280600e81526020017f6c6973745f5f62616e6b4c697374000000000000000000000000000000000000815250846040518060400160405280600781526020017f76657273696f6e0000000000000000000000000000000000000000000000000081525060016040518663ffffffff1660e01b8152600401610f62959493929190612fa2565b5f604051808303815f87803b158015610f79575f80fd5b505af1158015610f8b573d5f803e3d5ffd5b5050505050565b60035f9054906101000a900473ffffffffffffffffffffffffffffffffffffffff1673ffffffffffffffffffffffffffffffffffffffff1663ef02a3fc6040518060400160405280600c81526020017f42414e4b5f4d414e4147455200000000000000000000000000000000000000008152506040518263ffffffff1660e01b815260040161102191906126a7565b602060405180830381865afa15801561103c573d5f803e3d5ffd5b505050506040513d601f19601f820116820180604052508101906110609190612e4a565b73ffffffffffffffffffffffffffffffffffffffff163373ffffffffffffffffffffffffffffffffffffffff16146110cd576040517f08c379a00000000000000000000000000000000000000000000000000000000081526004016110c490612ebf565b60405180910390fd5b60015f9054906101000a900473ffffffffffffffffffffffffffffffffffffffff1673ffffffffffffffffffffffffffffffffffffffff1663c8f1cd876040518060400160405280600c81526020017f42414e4b5f4d414e4147455200000000000000000000000000000000000000008152506040518060400160405280600e81526020017f6c6973745f5f62616e6b4c697374000000000000000000000000000000000000815250856040518060400160405280601981526020017f726570726573656e7461746976654163636f756e744e616d6500000000000000815250866040518663ffffffff1660e01b81526004016111ce959493929190612edd565b5f604051808303815f87803b1580156111e5575f80fd5b505af11580156111f7573d5f803e3d5ffd5b505050505050565b60605f805f61120c611f6d565b90508086111561121a578095505b5f868611611228578561122a565b865b90508067ffffffffffffffff811115611246576112456126cf565b5b60405190808252806020026020018201604052801561127f57816020015b61126c61257c565b8152602001906001900390816112645790505b5094505b5f8111156112eb57808061129690613035565b91505086806112a490613035565b9750506112b0876112fa565b8560018388516112c0919061305c565b6112ca919061305c565b815181106112db576112da61308f565b5b6020026020010181905250611283565b86935081925050509250925092565b61130261257c565b815f60015f9054906101000a900473ffffffffffffffffffffffffffffffffffffffff1673ffffffffffffffffffffffffffffffffffffffff16633bea27536040518060400160405280600c81526020017f42414e4b5f4d414e4147455200000000000000000000000000000000000000008152506040518060400160405280600e81526020017f6c6973745f5f62616e6b4c6973740000000000000000000000000000000000008152506040518363ffffffff1660e01b81526004016113ca929190612c07565b602060405180830381865afa1580156113e5573d5f803e3d5ffd5b505050506040513d601f19601f820116820180604052508101906114099190612c50565b905080821061144d576040517f08c379a000000000000000000000000000000000000000000000000000000000815260040161144490612cc5565b60405180910390fd5b61145684610354565b835f018190525061146684611934565b8360200181905250611477846105eb565b836040018190525061148884612078565b83606001819052505050919050565b60035f9054906101000a900473ffffffffffffffffffffffffffffffffffffffff1673ffffffffffffffffffffffffffffffffffffffff1663ef02a3fc6040518060400160405280600c81526020017f42414e4b5f4d414e4147455200000000000000000000000000000000000000008152506040518263ffffffff1660e01b815260040161152691906126a7565b602060405180830381865afa158015611541573d5f803e3d5ffd5b505050506040513d601f19601f820116820180604052508101906115659190612e4a565b73ffffffffffffffffffffffffffffffffffffffff163373ffffffffffffffffffffffffffffffffffffffff16146115d2576040517f08c379a00000000000000000000000000000000000000000000000000000000081526004016115c990612ebf565b60405180910390fd5b60015f9054906101000a900473ffffffffffffffffffffffffffffffffffffffff1673ffffffffffffffffffffffffffffffffffffffff1663c8f1cd876040518060400160405280600c81526020017f42414e4b5f4d414e4147455200000000000000000000000000000000000000008152506040518060400160405280600e81526020017f6c6973745f5f62616e6b4c697374000000000000000000000000000000000000815250856040518060400160405280600b81526020017f62616e6b436f756e747279000000000000000000000000000000000000000000815250866040518663ffffffff1660e01b81526004016116d3959493929190612edd565b5f604051808303815f87803b1580156116ea575f80fd5b505af11580156116fc573d5f803e3d5ffd5b505050505050565b60035f9054906101000a900473ffffffffffffffffffffffffffffffffffffffff1673ffffffffffffffffffffffffffffffffffffffff1663ef02a3fc6040518060400160405280600c81526020017f42414e4b5f4d414e4147455200000000000000000000000000000000000000008152506040518263ffffffff1660e01b815260040161179391906126a7565b602060405180830381865afa1580156117ae573d5f803e3d5ffd5b505050506040513d601f19601f820116820180604052508101906117d29190612e4a565b73ffffffffffffffffffffffffffffffffffffffff163373ffffffffffffffffffffffffffffffffffffffff161461183f576040517f08c379a000000000000000000000000000000000000000000000000000000000815260040161183690612ebf565b60405180910390fd5b60015f9054906101000a900473ffffffffffffffffffffffffffffffffffffffff1673ffffffffffffffffffffffffffffffffffffffff1663a24a899b6040518060400160405280600c81526020017f42414e4b5f4d414e4147455200000000000000000000000000000000000000008152506040518060400160405280600e81526020017f6c6973745f5f62616e6b4c6973740000000000000000000000000000000000008152506040518363ffffffff1660e01b8152600401611905929190612c07565b5f604051808303815f87803b15801561191c575f80fd5b505af115801561192e573d5f803e3d5ffd5b50505050565b6060815f60015f9054906101000a900473ffffffffffffffffffffffffffffffffffffffff1673ffffffffffffffffffffffffffffffffffffffff16633bea27536040518060400160405280600c81526020017f42414e4b5f4d414e4147455200000000000000000000000000000000000000008152506040518060400160405280600e81526020017f6c6973745f5f62616e6b4c6973740000000000000000000000000000000000008152506040518363ffffffff1660e01b81526004016119fe929190612c07565b602060405180830381865afa158015611a19573d5f803e3d5ffd5b505050506040513d601f19601f82011682018060405250810190611a3d9190612c50565b9050808210611a81576040517f08c379a0000000000000000000000000000000000000000000000000000000008152600401611a7890612cc5565b60405180910390fd5b60015f9054906101000a900473ffffffffffffffffffffffffffffffffffffffff1673ffffffffffffffffffffffffffffffffffffffff16632136448c6040518060400160405280600c81526020017f42414e4b5f4d414e4147455200000000000000000000000000000000000000008152506040518060400160405280600e81526020017f6c6973745f5f62616e6b4c697374000000000000000000000000000000000000815250876040518060400160405280600881526020017f62616e6b4e616d650000000000000000000000000000000000000000000000008152506040518563ffffffff1660e01b8152600401611b809493929190612ce3565b5f60405180830381865afa158015611b9a573d5f803e3d5ffd5b505050506040513d5f823e3d601f19601f82011682018060405250810190611bc29190612da9565b92505050919050565b5f60025f9054906101000a900473ffffffffffffffffffffffffffffffffffffffff1673ffffffffffffffffffffffffffffffffffffffff1663539c2ffb6040518060400160405280600c81526020017f42414e4b5f4d414e4147455200000000000000000000000000000000000000008152506040518060400160405280600e81526020017f6d61705f5f62616e6b496e646578000000000000000000000000000000000000815250856040518463ffffffff1660e01b8152600401611c94939291906130bc565b602060405180830381865afa158015611caf573d5f803e3d5ffd5b505050506040513d601f19601f82011682018060405250810190611cd39190612c50565b9050919050565b5f815f60015f9054906101000a900473ffffffffffffffffffffffffffffffffffffffff1673ffffffffffffffffffffffffffffffffffffffff16633bea27536040518060400160405280600c81526020017f42414e4b5f4d414e4147455200000000000000000000000000000000000000008152506040518060400160405280600e81526020017f6c6973745f5f62616e6b4c6973740000000000000000000000000000000000008152506040518363ffffffff1660e01b8152600401611da3929190612c07565b602060405180830381865afa158015611dbe573d5f803e3d5ffd5b505050506040513d601f19601f82011682018060405250810190611de29190612c50565b9050808210611e26576040517f08c379a0000000000000000000000000000000000000000000000000000000008152600401611e1d90612cc5565b60405180910390fd5b60015f9054906101000a900473ffffffffffffffffffffffffffffffffffffffff1673ffffffffffffffffffffffffffffffffffffffff166303afa62b6040518060400160405280600c81526020017f42414e4b5f4d414e4147455200000000000000000000000000000000000000008152506040518060400160405280600e81526020017f6c6973745f5f62616e6b4c697374000000000000000000000000000000000000815250876040518060400160405280600781526020017f76657273696f6e000000000000000000000000000000000000000000000000008152506040518563ffffffff1660e01b8152600401611f259493929190612ce3565b602060405180830381865afa158015611f40573d5f803e3d5ffd5b505050506040513d601f19601f82011682018060405250810190611f649190613130565b92505050919050565b5f60015f9054906101000a900473ffffffffffffffffffffffffffffffffffffffff1673ffffffffffffffffffffffffffffffffffffffff16633bea27536040518060400160405280600c81526020017f42414e4b5f4d414e4147455200000000000000000000000000000000000000008152506040518060400160405280600e81526020017f6c6973745f5f62616e6b4c6973740000000000000000000000000000000000008152506040518363ffffffff1660e01b8152600401612034929190612c07565b602060405180830381865afa15801561204f573d5f803e3d5ffd5b505050506040513d601f19601f820116820180604052508101906120739190612c50565b905090565b6060815f60015f9054906101000a900473ffffffffffffffffffffffffffffffffffffffff1673ffffffffffffffffffffffffffffffffffffffff16633bea27536040518060400160405280600c81526020017f42414e4b5f4d414e4147455200000000000000000000000000000000000000008152506040518060400160405280600e81526020017f6c6973745f5f62616e6b4c6973740000000000000000000000000000000000008152506040518363ffffffff1660e01b8152600401612142929190612c07565b602060405180830381865afa15801561215d573d5f803e3d5ffd5b505050506040513d601f19601f820116820180604052508101906121819190612c50565b90508082106121c5576040517f08c379a00000000000000000000000000000000000000000000000000000000081526004016121bc90612cc5565b60405180910390fd5b60015f9054906101000a900473ffffffffffffffffffffffffffffffffffffffff1673ffffffffffffffffffffffffffffffffffffffff16632136448c6040518060400160405280600c81526020017f42414e4b5f4d414e4147455200000000000000000000000000000000000000008152506040518060400160405280600e81526020017f6c6973745f5f62616e6b4c697374000000000000000000000000000000000000815250876040518060400160405280601981526020017f726570726573656e7461746976654163636f756e744e616d65000000000000008152506040518563ffffffff1660e01b81526004016122c49493929190612ce3565b5f60405180830381865afa1580156122de573d5f803e3d5ffd5b505050506040513d5f823e3d601f19601f820116820180604052508101906123069190612da9565b92505050919050565b60035f9054906101000a900473ffffffffffffffffffffffffffffffffffffffff1673ffffffffffffffffffffffffffffffffffffffff1663ef02a3fc6040518060400160405280600c81526020017f42414e4b5f4d414e4147455200000000000000000000000000000000000000008152506040518263ffffffff1660e01b815260040161239e91906126a7565b602060405180830381865afa1580156123b9573d5f803e3d5ffd5b505050506040513d601f19601f820116820180604052508101906123dd9190612e4a565b73ffffffffffffffffffffffffffffffffffffffff163373ffffffffffffffffffffffffffffffffffffffff161461244a576040517f08c379a000000000000000000000000000000000000000000000000000000000815260040161244190612ebf565b60405180910390fd5b60015f9054906101000a900473ffffffffffffffffffffffffffffffffffffffff1673ffffffffffffffffffffffffffffffffffffffff1663c8f1cd876040518060400160405280600c81526020017f42414e4b5f4d414e4147455200000000000000000000000000000000000000008152506040518060400160405280600e81526020017f6c6973745f5f62616e6b4c697374000000000000000000000000000000000000815250856040518060400160405280600881526020017f62616e6b4e616d65000000000000000000000000000000000000000000000000815250866040518663ffffffff1660e01b815260040161254b959493929190612edd565b5f604051808303815f87803b158015612562575f80fd5b505af1158015612574573d5f803e3d5ffd5b505050505050565b6040518060a00160405280606081526020016060815260200160608152602001606081526020015f61ffff1681525090565b5f604051905090565b5f80fd5b5f80fd5b5f819050919050565b6125d1816125bf565b81146125db575f80fd5b50565b5f813590506125ec816125c8565b92915050565b5f60208284031215612607576126066125b7565b5b5f612614848285016125de565b91505092915050565b5f81519050919050565b5f82825260208201905092915050565b5f5b83811015612654578082015181840152602081019050612639565b5f8484015250505050565b5f601f19601f8301169050919050565b5f6126798261261d565b6126838185612627565b9350612693818560208601612637565b61269c8161265f565b840191505092915050565b5f6020820190508181035f8301526126bf818461266f565b905092915050565b5f80fd5b5f80fd5b7f4e487b71000000000000000000000000000000000000000000000000000000005f52604160045260245ffd5b6127058261265f565b810181811067ffffffffffffffff82111715612724576127236126cf565b5b80604052505050565b5f6127366125ae565b905061274282826126fc565b919050565b5f67ffffffffffffffff821115612761576127606126cf565b5b61276a8261265f565b9050602081019050919050565b828183375f83830152505050565b5f61279761279284612747565b61272d565b9050828152602081018484840111156127b3576127b26126cb565b5b6127be848285612777565b509392505050565b5f82601f8301126127da576127d96126c7565b5b81356127ea848260208601612785565b91505092915050565b5f8060408385031215612809576128086125b7565b5b5f612816858286016125de565b925050602083013567ffffffffffffffff811115612837576128366125bb565b5b612843858286016127c6565b9150509250929050565b5f8060408385031215612863576128626125b7565b5b5f83013567ffffffffffffffff8111156128805761287f6125bb565b5b61288c858286016127c6565b925050602061289d858286016125de565b9150509250929050565b5f80604083850312156128bd576128bc6125b7565b5b5f6128ca858286016125de565b92505060206128db858286016125de565b9150509250929050565b5f81519050919050565b5f82825260208201905092915050565b5f819050602082019050919050565b5f82825260208201905092915050565b5f6129288261261d565b612932818561290e565b9350612942818560208601612637565b61294b8161265f565b840191505092915050565b5f61ffff82169050919050565b61296c81612956565b82525050565b5f60a083015f8301518482035f86015261298c828261291e565b915050602083015184820360208601526129a6828261291e565b915050604083015184820360408601526129c0828261291e565b915050606083015184820360608601526129da828261291e565b91505060808301516129ef6080860182612963565b508091505092915050565b5f612a058383612972565b905092915050565b5f602082019050919050565b5f612a23826128e5565b612a2d81856128ef565b935083602082028501612a3f856128ff565b805f5b85811015612a7a5784840389528151612a5b85826129fa565b9450612a6683612a0d565b925060208a01995050600181019050612a42565b50829750879550505050505092915050565b612a95816125bf565b82525050565b5f6060820190508181035f830152612ab38186612a19565b9050612ac26020830185612a8c565b612acf6040830184612a8c565b949350505050565b5f60a083015f8301518482035f860152612af1828261291e565b91505060208301518482036020860152612b0b828261291e565b91505060408301518482036040860152612b25828261291e565b91505060608301518482036060860152612b3f828261291e565b9150506080830151612b546080860182612963565b508091505092915050565b5f6020820190508181035f830152612b778184612ad7565b905092915050565b5f60208284031215612b9457612b936125b7565b5b5f82013567ffffffffffffffff811115612bb157612bb06125bb565b5b612bbd848285016127c6565b91505092915050565b5f602082019050612bd95f830184612a8c565b92915050565b612be881612956565b82525050565b5f602082019050612c015f830184612bdf565b92915050565b5f6040820190508181035f830152612c1f818561266f565b90508181036020830152612c33818461266f565b90509392505050565b5f81519050612c4a816125c8565b92915050565b5f60208284031215612c6557612c646125b7565b5b5f612c7284828501612c3c565b91505092915050565b7f496e64657820496e76616c6964000000000000000000000000000000000000005f82015250565b5f612caf600d83612627565b9150612cba82612c7b565b602082019050919050565b5f6020820190508181035f830152612cdc81612ca3565b9050919050565b5f6080820190508181035f830152612cfb818761266f565b90508181036020830152612d0f818661266f565b9050612d1e6040830185612a8c565b8181036060830152612d30818461266f565b905095945050505050565b5f612d4d612d4884612747565b61272d565b905082815260208101848484011115612d6957612d686126cb565b5b612d74848285612637565b509392505050565b5f82601f830112612d9057612d8f6126c7565b5b8151612da0848260208601612d3b565b91505092915050565b5f60208284031215612dbe57612dbd6125b7565b5b5f82015167ffffffffffffffff811115612ddb57612dda6125bb565b5b612de784828501612d7c565b91505092915050565b5f73ffffffffffffffffffffffffffffffffffffffff82169050919050565b5f612e1982612df0565b9050919050565b612e2981612e0f565b8114612e33575f80fd5b50565b5f81519050612e4481612e20565b92915050565b5f60208284031215612e5f57612e5e6125b7565b5b5f612e6c84828501612e36565b91505092915050565b7f556e617574686f72697a656420436f6e74726163742043616c6c0000000000005f82015250565b5f612ea9601a83612627565b9150612eb482612e75565b602082019050919050565b5f6020820190508181035f830152612ed681612e9d565b9050919050565b5f60a0820190508181035f830152612ef5818861266f565b90508181036020830152612f09818761266f565b9050612f186040830186612a8c565b8181036060830152612f2a818561266f565b90508181036080830152612f3e818461266f565b90509695505050505050565b5f6080820190508181035f830152612f62818761266f565b90508181036020830152612f76818661266f565b90508181036040830152612f8a818561266f565b9050612f996060830184612a8c565b95945050505050565b5f60a0820190508181035f830152612fba818861266f565b90508181036020830152612fce818761266f565b9050612fdd6040830186612a8c565b8181036060830152612fef818561266f565b9050612ffe6080830184612bdf565b9695505050505050565b7f4e487b71000000000000000000000000000000000000000000000000000000005f52601160045260245ffd5b5f61303f826125bf565b91505f820361305157613050613008565b5b600182039050919050565b5f613066826125bf565b9150613071836125bf565b925082820390508181111561308957613088613008565b5b92915050565b7f4e487b71000000000000000000000000000000000000000000000000000000005f52603260045260245ffd5b5f6060820190508181035f8301526130d4818661266f565b905081810360208301526130e8818561266f565b905081810360408301526130fc818461266f565b9050949350505050565b61310f81612956565b8114613119575f80fd5b50565b5f8151905061312a81613106565b92915050565b5f60208284031215613145576131446125b7565b5b5f6131528482850161311c565b9150509291505056fea26469706673582212207cdca19bba27eb2fa84f372e0fa1f2cb32a0329ca8eb2bcffed03df6c69e588364736f6c63430008140033",
  "immutableReferences": {},
  "source": "pragma solidity ^0.8.0;\npragma experimental ABIEncoderV2;\n\nimport \"./MemberStorage.sol\";\nimport \"./ListStorage.sol\";\nimport \"./MapStorage.sol\";\nimport \"./QuireContracts.sol\";\n\ncontract BankStructs{\n\n    uint16 constant internal __VERSION__ = 1;\n\n    struct Bank {\n        string gid;\n        string bankName;\n        string bankCountry;\n        string representativeAccountName;\n        uint16 version;\n    }\n\n    string constant internal propNameBankGid = \"gid\";\n    string constant internal propNameBankBankName = \"bankName\";\n    string constant internal propNameBankBankCountry = \"bankCountry\";\n    string constant internal propNameBankRepresentativeAccountName = \"representativeAccountName\";\n    string constant internal propNameBankVersion = \"version\";\n}\n\n\ncontract BankModel is BankStructs {\n    \n    MemberStorage private Member;\n    ListStorage private List;\n    MapStorage private Map;\n    QuireContracts private quireContracts;\n    \n    constructor(\n        address _Member,\n        address _List,\n        address _Map,\n        address _quireContracts\n    ){\n        Member = MemberStorage(_Member);\n        List = ListStorage(_List);\n        Map = MapStorage(_Map);\n        quireContracts = QuireContracts(_quireContracts);\n    }\n\n    string constant internal KEY = \"BANK_MANAGER\";\n    string constant internal keyListLength = \"__length\";\n\n\n    string constant internal bankList = \"list__bankList\";\n    string constant internal bankIndex = \"map__bankIndex\";\n\n    modifier onlyBankManager() {\n        require(msg.sender==quireContracts.getRegisteredContract(KEY), \"Unauthorized Contract Call\");\n        _;\n    }\n\n    modifier validBankListIndex(uint256 _index){\n        uint256 length = List.getLength(KEY, bankList);\n        require(_index < length, \"Index Invalid\");\n        _;\n    }\n\n    //Bank\n\n    function getBankIndex(string memory _gid) public view returns (uint256) {\n        return Map.getStringToUint(KEY, bankIndex, _gid);\n    }\n\n    function getBankListLength() public view returns (uint256) {\n        return List.getLength(KEY, bankList);\n    }\n\n    function getAllBanks(uint _toExcluded, uint _count) public view \n    returns (Bank[] memory banks_, uint fromIncluded_, uint length_) {\n        uint length = getBankListLength();\n        if (_toExcluded > length) {\n            _toExcluded = length;\n        }\n        uint itr = _count>_toExcluded ? _toExcluded:_count;\n        banks_ = new Bank[](itr);\n        while (itr>0) {\n            itr--;\n            _toExcluded--;\n            banks_[banks_.length-itr-1] = getBankByIndex(_toExcluded);\n        }\n        fromIncluded_ = _toExcluded;\n        length_ = length;\n    }\n\n    function getBankByIndex(uint256 _index)\n        public\n        view\n        validBankListIndex(_index)\n        returns (Bank memory bank_)\n    {\n        bank_.gid = getBankGid(_index);\n        bank_.bankName = getBankBankName(_index);\n        bank_.bankCountry = getBankBankCountry(_index);\n        bank_.representativeAccountName = getBankRepresentativeAccountName(_index);\n    }\n\n    function getBankGid(uint256 _index) public view \n    validBankListIndex(_index) \n    returns(string memory) {\n        return List.getPropString(KEY, bankList, _index, propNameBankGid);\n    }\n\n    function getBankBankName(uint256 _index) public view \n    validBankListIndex(_index) \n    returns(string memory) {\n        return List.getPropString(KEY, bankList, _index, propNameBankBankName);\n    }\n\n    function getBankBankCountry(uint256 _index) public view \n    validBankListIndex(_index) \n    returns(string memory) {\n        return List.getPropString(KEY, bankList, _index, propNameBankBankCountry);\n    }\n\n    function getBankRepresentativeAccountName(uint256 _index) public view \n    validBankListIndex(_index) \n    returns(string memory) {\n        return List.getPropString(KEY, bankList, _index, propNameBankRepresentativeAccountName);\n    }\n\n    function getBankVersion(uint256 _index) public view \n    validBankListIndex(_index) \n    returns(uint16) {\n        return List.getPropUint16(KEY, bankList, _index, propNameBankVersion);\n    }\n\n\n    //Bank\n\n    function setBankIndex(string memory _gid, uint _value) public \n    onlyBankManager {\n        Map.setStringToUint(KEY, bankIndex, _gid, _value);\n    }\n\n    function incBankListLength() public \n    onlyBankManager {\n        List.incLength(KEY, bankList);\n    }\n\n    function setBankGid(uint256 _index, string memory _gid) public \n    onlyBankManager {\n        List.setPropString(KEY, bankList, _index, propNameBankGid, _gid);\n    }\n\n    function setBankBankName(uint256 _index, string memory _bankName) public \n    onlyBankManager {\n        List.setPropString(KEY, bankList, _index, propNameBankBankName, _bankName);\n    }\n\n    function setBankBankCountry(uint256 _index, string memory _bankCountry) public \n    onlyBankManager {\n        List.setPropString(KEY, bankList, _index, propNameBankBankCountry, _bankCountry);\n    }\n\n    function setBankRepresentativeAccountName(uint256 _index, string memory _representativeAccountName) public \n    onlyBankManager {\n        List.setPropString(KEY, bankList, _index, propNameBankRepresentativeAccountName, _representativeAccountName);\n    }\n\n    function setBankVersion(uint256 _index) public\n    onlyBankManager \n    {\n        List.setPropUint16(KEY, bankList, _index, propNameBankVersion, __VERSION__);\n    }\n\n}\n",
  "sourcePath": "/home/raghupathi/Desktop/javaClass/javaClass/contracts/BankModel.sol",
  "compiler": {
    "name": "solc",
    "version": "0.8.20+commit.a1b79de6.Emscripten.clang"
  },
  "schemaVersion": "3.4.14",
  "updatedAt": "2023-06-02T09:43:22.618Z",
  "devdoc": {
    "kind": "dev",
    "methods": {},
    "version": 1
  },
  "userdoc": {
    "kind": "user",
    "methods": {},
    "version": 1
  }
}