{
  "contractName": "BankManager",
  "abi": [
    {
      "inputs": [
        {
          "internalType": "address",
          "name": "_permIntf",
          "type": "address"
        },
        {
          "internalType": "address",
          "name": "_permImpl",
          "type": "address"
        },
        {
          "internalType": "address",
          "name": "_accountManager",
          "type": "address"
        },
        {
          "internalType": "address",
          "name": "_bankModel",
          "type": "address"
        },
        {
          "internalType": "address",
          "name": "_uidUtils",
          "type": "address"
        }
      ],
      "stateMutability": "nonpayable",
      "type": "constructor"
    },
    {
      "anonymous": false,
      "inputs": [
        {
          "indexed": false,
          "internalType": "string",
          "name": "_bankGid",
          "type": "string"
        },
        {
          "indexed": false,
          "internalType": "string",
          "name": "_bankName",
          "type": "string"
        },
        {
          "indexed": false,
          "internalType": "string",
          "name": "_bankCountry",
          "type": "string"
        },
        {
          "indexed": false,
          "internalType": "string",
          "name": "_representativeAccountName",
          "type": "string"
        }
      ],
      "name": "BankRegistered",
      "type": "event"
    },
    {
      "inputs": [
        {
          "internalType": "string",
          "name": "_bankName",
          "type": "string"
        },
        {
          "internalType": "string",
          "name": "_bankCountry",
          "type": "string"
        },
        {
          "internalType": "string",
          "name": "_representativeAccountName",
          "type": "string"
        }
      ],
      "name": "registerBank",
      "outputs": [],
      "stateMutability": "nonpayable",
      "type": "function"
    },
    {
      "inputs": [
        {
          "internalType": "uint256",
          "name": "_toExcluded",
          "type": "uint256"
        },
        {
          "internalType": "uint256",
          "name": "_count",
          "type": "uint256"
        }
      ],
      "name": "getAllBanks",
      "outputs": [
        {
          "components": [
            {
              "internalType": "string",
              "name": "gid",
              "type": "string"
            },
            {
              "internalType": "string",
              "name": "bankName",
              "type": "string"
            },
            {
              "internalType": "string",
              "name": "bankCountry",
              "type": "string"
            },
            {
              "internalType": "string",
              "name": "representativeAccountName",
              "type": "string"
            },
            {
              "internalType": "uint16",
              "name": "version",
              "type": "uint16"
            }
          ],
          "internalType": "struct BankStructs.Bank[]",
          "name": "banks_",
          "type": "tuple[]"
        },
        {
          "internalType": "uint256",
          "name": "fromIncluded_",
          "type": "uint256"
        },
        {
          "internalType": "uint256",
          "name": "length_",
          "type": "uint256"
        }
      ],
      "stateMutability": "view",
      "type": "function"
    },
    {
      "inputs": [
        {
          "internalType": "string",
          "name": "_gid",
          "type": "string"
        }
      ],
      "name": "getBankForGid",
      "outputs": [
        {
          "components": [
            {
              "internalType": "string",
              "name": "gid",
              "type": "string"
            },
            {
              "internalType": "string",
              "name": "bankName",
              "type": "string"
            },
            {
              "internalType": "string",
              "name": "bankCountry",
              "type": "string"
            },
            {
              "internalType": "string",
              "name": "representativeAccountName",
              "type": "string"
            },
            {
              "internalType": "uint16",
              "name": "version",
              "type": "uint16"
            }
          ],
          "internalType": "struct BankStructs.Bank",
          "name": "bank_",
          "type": "tuple"
        }
      ],
      "stateMutability": "view",
      "type": "function"
    },
    {
      "inputs": [
        {
          "internalType": "string",
          "name": "_gid",
          "type": "string"
        }
      ],
      "name": "isGidExists",
      "outputs": [
        {
          "internalType": "bool",
          "name": "",
          "type": "bool"
        }
      ],
      "stateMutability": "view",
      "type": "function"
    }
  ],
  "bytecode": "0x608060405234801562000010575f80fd5b506040516200268a3803806200268a8339818101604052810190620000369190620001e5565b845f806101000a81548173ffffffffffffffffffffffffffffffffffffffff021916908373ffffffffffffffffffffffffffffffffffffffff1602179055508360015f6101000a81548173ffffffffffffffffffffffffffffffffffffffff021916908373ffffffffffffffffffffffffffffffffffffffff1602179055508260025f6101000a81548173ffffffffffffffffffffffffffffffffffffffff021916908373ffffffffffffffffffffffffffffffffffffffff1602179055508160035f6101000a81548173ffffffffffffffffffffffffffffffffffffffff021916908373ffffffffffffffffffffffffffffffffffffffff1602179055508060045f6101000a81548173ffffffffffffffffffffffffffffffffffffffff021916908373ffffffffffffffffffffffffffffffffffffffff160217905550505050505062000269565b5f80fd5b5f73ffffffffffffffffffffffffffffffffffffffff82169050919050565b5f620001af8262000184565b9050919050565b620001c181620001a3565b8114620001cc575f80fd5b50565b5f81519050620001df81620001b6565b92915050565b5f805f805f60a0868803121562000201576200020062000180565b5b5f6200021088828901620001cf565b95505060206200022388828901620001cf565b94505060406200023688828901620001cf565b93505060606200024988828901620001cf565b92505060806200025c88828901620001cf565b9150509295509295909350565b61241380620002775f395ff3fe608060405234801561000f575f80fd5b506004361061004a575f3560e01c806315821c141461004e57806332dca7c91461007e57806363b5ec781461009a57806388f5f344146100cc575b5f80fd5b6100686004803603810190610063919061134e565b6100fc565b60405161007591906114b3565b60405180910390f35b610098600480360381019061009391906114d3565b61028b565b005b6100b460048036038101906100af91906115aa565b610ce1565b6040516100c39392919061173a565b60405180910390f35b6100e660048036038101906100e1919061134e565b610d96565b6040516100f39190611790565b60405180910390f35b6101046111cf565b8160035f9054906101000a900473ffffffffffffffffffffffffffffffffffffffff1673ffffffffffffffffffffffffffffffffffffffff1663a2f439bf826040518263ffffffff1660e01b815260040161015f91906117f1565b602060405180830381865afa15801561017a573d5f803e3d5ffd5b505050506040513d601f19601f8201168201806040525081019061019e9190611825565b5f036101df576040517f08c379a00000000000000000000000000000000000000000000000000000000081526004016101d69061189a565b60405180910390fd5b60035f9054906101000a900473ffffffffffffffffffffffffffffffffffffffff1673ffffffffffffffffffffffffffffffffffffffff16636b249b2361022585610e3a565b6040518263ffffffff1660e01b815260040161024191906118b8565b5f60405180830381865afa15801561025b573d5f803e3d5ffd5b505050506040513d5f823e3d601f19601f820116820180604052508101906102839190611a6a565b915050919050565b5f805f8054906101000a900473ffffffffffffffffffffffffffffffffffffffff1673ffffffffffffffffffffffffffffffffffffffff16336040516024016102d49190611af0565b6040516020818303038152906040527fd1aa0c20000000000000000000000000000000000000000000000000000000007bffffffffffffffffffffffffffffffffffffffffffffffffffffffff19166020820180517bffffffffffffffffffffffffffffffffffffffffffffffffffffffff838183161783525050505060405161035e9190611b4d565b5f604051808303815f865af19150503d805f8114610397576040519150601f19603f3d011682016040523d82523d5f602084013e61039c565b606091505b5091509150808060200190518101906103b59190611b8d565b6103f4576040517f08c379a00000000000000000000000000000000000000000000000000000000081526004016103eb90611c28565b60405180910390fd5b825f805f8054906101000a900473ffffffffffffffffffffffffffffffffffffffff1673ffffffffffffffffffffffffffffffffffffffff1661043684610ee7565b61043e61105d565b6040518060400160405280600581526020017f42414e4b53000000000000000000000000000000000000000000000000000000815250604051602001610485929190611cca565b6040516020818303038152906040526040516024016104a5929190611cf8565b6040516020818303038152906040527f57c74183000000000000000000000000000000000000000000000000000000007bffffffffffffffffffffffffffffffffffffffffffffffffffffffff19166020820180517bffffffffffffffffffffffffffffffffffffffffffffffffffffffff838183161783525050505060405161052f9190611b4d565b5f604051808303815f865af19150503d805f8114610568576040519150601f19603f3d011682016040523d82523d5f602084013e61056d565b606091505b5091509150816105b2576040517f08c379a00000000000000000000000000000000000000000000000000000000081526004016105a990611d70565b60405180910390fd5b5f818060200190518101906105c79190611b8d565b905080610609576040517f08c379a000000000000000000000000000000000000000000000000000000000815260040161060090611dfe565b60405180910390fd5b5f60045f9054906101000a900473ffffffffffffffffffffffffffffffffffffffff1673ffffffffffffffffffffffffffffffffffffffff1663c359a6c18b8b8b60405160200161065c93929190611e1c565b604051602081830303815290604052805190602001206040518263ffffffff1660e01b815260040161068e9190611e64565b5f60405180830381865afa1580156106a8573d5f803e3d5ffd5b505050506040513d5f823e3d601f19601f820116820180604052508101906106d09190611e7d565b905060045f9054906101000a900473ffffffffffffffffffffffffffffffffffffffff1673ffffffffffffffffffffffffffffffffffffffff16636057ed41826040518263ffffffff1660e01b815260040161072c91906117f1565b5f60405180830381865afa158015610746573d5f803e3d5ffd5b505050506040513d5f823e3d601f19601f8201168201806040525081019061076e9190611e7d565b905060035f9054906101000a900473ffffffffffffffffffffffffffffffffffffffff1673ffffffffffffffffffffffffffffffffffffffff1663a2f439bf826040518263ffffffff1660e01b81526004016107ca91906117f1565b602060405180830381865afa1580156107e5573d5f803e3d5ffd5b505050506040513d601f19601f820116820180604052508101906108099190611825565b5f1461084a576040517f08c379a000000000000000000000000000000000000000000000000000000000815260040161084190611f0e565b60405180910390fd5b5f60035f9054906101000a900473ffffffffffffffffffffffffffffffffffffffff1673ffffffffffffffffffffffffffffffffffffffff1663e751d8436040518163ffffffff1660e01b8152600401602060405180830381865afa1580156108b5573d5f803e3d5ffd5b505050506040513d601f19601f820116820180604052508101906108d99190611825565b905060035f9054906101000a900473ffffffffffffffffffffffffffffffffffffffff1673ffffffffffffffffffffffffffffffffffffffff16633e0c111e838360016109269190611f59565b6040518363ffffffff1660e01b8152600401610943929190611f8c565b5f604051808303815f87803b15801561095a575f80fd5b505af115801561096c573d5f803e3d5ffd5b5050505060035f9054906101000a900473ffffffffffffffffffffffffffffffffffffffff1673ffffffffffffffffffffffffffffffffffffffff1663793b5a556040518163ffffffff1660e01b81526004015f604051808303815f87803b1580156109d6575f80fd5b505af11580156109e8573d5f803e3d5ffd5b5050505060035f9054906101000a900473ffffffffffffffffffffffffffffffffffffffff1673ffffffffffffffffffffffffffffffffffffffff1663361ebfa382846040518363ffffffff1660e01b8152600401610a48929190611fba565b5f604051808303815f87803b158015610a5f575f80fd5b505af1158015610a71573d5f803e3d5ffd5b5050505060035f9054906101000a900473ffffffffffffffffffffffffffffffffffffffff1673ffffffffffffffffffffffffffffffffffffffff1663f962d285828d6040518363ffffffff1660e01b8152600401610ad1929190611fba565b5f604051808303815f87803b158015610ae8575f80fd5b505af1158015610afa573d5f803e3d5ffd5b5050505060035f9054906101000a900473ffffffffffffffffffffffffffffffffffffffff1673ffffffffffffffffffffffffffffffffffffffff166376e0f579828c6040518363ffffffff1660e01b8152600401610b5a929190611fba565b5f604051808303815f87803b158015610b71575f80fd5b505af1158015610b83573d5f803e3d5ffd5b5050505060035f9054906101000a900473ffffffffffffffffffffffffffffffffffffffff1673ffffffffffffffffffffffffffffffffffffffff166363340c60828b6040518363ffffffff1660e01b8152600401610be3929190611fba565b5f604051808303815f87803b158015610bfa575f80fd5b505af1158015610c0c573d5f803e3d5ffd5b5050505060035f9054906101000a900473ffffffffffffffffffffffffffffffffffffffff1673ffffffffffffffffffffffffffffffffffffffff16634ac30a39826040518263ffffffff1660e01b8152600401610c6a91906118b8565b5f604051808303815f87803b158015610c81575f80fd5b505af1158015610c93573d5f803e3d5ffd5b505050507f04e4039af964719ab8864d01cdee1af35d7d11597a5552a19552b998198e8d98828c8c8c604051610ccc9493929190611fe8565b60405180910390a15050505050505050505050565b60605f8060035f9054906101000a900473ffffffffffffffffffffffffffffffffffffffff1673ffffffffffffffffffffffffffffffffffffffff166363b5ec7886866040518363ffffffff1660e01b8152600401610d41929190612047565b5f60405180830381865afa158015610d5b573d5f803e3d5ffd5b505050506040513d5f823e3d601f19601f82011682018060405250810190610d839190612150565b8093508194508295505050509250925092565b5f60035f9054906101000a900473ffffffffffffffffffffffffffffffffffffffff1673ffffffffffffffffffffffffffffffffffffffff1663a2f439bf836040518263ffffffff1660e01b8152600401610df191906117f1565b602060405180830381865afa158015610e0c573d5f803e3d5ffd5b505050506040513d601f19601f82011682018060405250810190610e309190611825565b5f14159050919050565b5f600160035f9054906101000a900473ffffffffffffffffffffffffffffffffffffffff1673ffffffffffffffffffffffffffffffffffffffff1663a2f439bf846040518263ffffffff1660e01b8152600401610e9791906117f1565b602060405180830381865afa158015610eb2573d5f803e3d5ffd5b505050506040513d601f19601f82011682018060405250810190610ed69190611825565b610ee091906121bc565b9050919050565b5f805f60025f9054906101000a900473ffffffffffffffffffffffffffffffffffffffff1673ffffffffffffffffffffffffffffffffffffffff1684604051602401610f3391906117f1565b6040516020818303038152906040527f615deb16000000000000000000000000000000000000000000000000000000007bffffffffffffffffffffffffffffffffffffffffffffffffffffffff19166020820180517bffffffffffffffffffffffffffffffffffffffffffffffffffffffff8381831617835250505050604051610fbd9190611b4d565b5f604051808303815f865af19150503d805f8114610ff6576040519150601f19603f3d011682016040523d82523d5f602084013e610ffb565b606091505b509150915081611040576040517f08c379a000000000000000000000000000000000000000000000000000000000815260040161103790612239565b60405180910390fd5b808060200190518101906110549190612292565b92505050919050565b60605f8060015f9054906101000a900473ffffffffffffffffffffffffffffffffffffffff1673ffffffffffffffffffffffffffffffffffffffff166040516024016040516020818303038152906040527fcc9ba6fa000000000000000000000000000000000000000000000000000000007bffffffffffffffffffffffffffffffffffffffffffffffffffffffff19166020820180517bffffffffffffffffffffffffffffffffffffffffffffffffffffffff83818316178352505050506040516111299190611b4d565b5f604051808303815f865af19150503d805f8114611162576040519150601f19603f3d011682016040523d82523d5f602084013e611167565b606091505b5091509150816111ac576040517f08c379a00000000000000000000000000000000000000000000000000000000081526004016111a390612307565b60405180910390fd5b808060200190518101906111c09190612325565b90915090505080935050505090565b6040518060a00160405280606081526020016060815260200160608152602001606081526020015f61ffff1681525090565b5f604051905090565b5f80fd5b5f80fd5b5f80fd5b5f80fd5b5f601f19601f8301169050919050565b7f4e487b71000000000000000000000000000000000000000000000000000000005f52604160045260245ffd5b6112608261121a565b810181811067ffffffffffffffff8211171561127f5761127e61122a565b5b80604052505050565b5f611291611201565b905061129d8282611257565b919050565b5f67ffffffffffffffff8211156112bc576112bb61122a565b5b6112c58261121a565b9050602081019050919050565b828183375f83830152505050565b5f6112f26112ed846112a2565b611288565b90508281526020810184848401111561130e5761130d611216565b5b6113198482856112d2565b509392505050565b5f82601f83011261133557611334611212565b5b81356113458482602086016112e0565b91505092915050565b5f602082840312156113635761136261120a565b5b5f82013567ffffffffffffffff8111156113805761137f61120e565b5b61138c84828501611321565b91505092915050565b5f81519050919050565b5f82825260208201905092915050565b5f5b838110156113cc5780820151818401526020810190506113b1565b5f8484015250505050565b5f6113e182611395565b6113eb818561139f565b93506113fb8185602086016113af565b6114048161121a565b840191505092915050565b5f61ffff82169050919050565b6114258161140f565b82525050565b5f60a083015f8301518482035f86015261144582826113d7565b9150506020830151848203602086015261145f82826113d7565b9150506040830151848203604086015261147982826113d7565b9150506060830151848203606086015261149382826113d7565b91505060808301516114a8608086018261141c565b508091505092915050565b5f6020820190508181035f8301526114cb818461142b565b905092915050565b5f805f606084860312156114ea576114e961120a565b5b5f84013567ffffffffffffffff8111156115075761150661120e565b5b61151386828701611321565b935050602084013567ffffffffffffffff8111156115345761153361120e565b5b61154086828701611321565b925050604084013567ffffffffffffffff8111156115615761156061120e565b5b61156d86828701611321565b9150509250925092565b5f819050919050565b61158981611577565b8114611593575f80fd5b50565b5f813590506115a481611580565b92915050565b5f80604083850312156115c0576115bf61120a565b5b5f6115cd85828601611596565b92505060206115de85828601611596565b9150509250929050565b5f81519050919050565b5f82825260208201905092915050565b5f819050602082019050919050565b5f60a083015f8301518482035f86015261162b82826113d7565b9150506020830151848203602086015261164582826113d7565b9150506040830151848203604086015261165f82826113d7565b9150506060830151848203606086015261167982826113d7565b915050608083015161168e608086018261141c565b508091505092915050565b5f6116a48383611611565b905092915050565b5f602082019050919050565b5f6116c2826115e8565b6116cc81856115f2565b9350836020820285016116de85611602565b805f5b8581101561171957848403895281516116fa8582611699565b9450611705836116ac565b925060208a019950506001810190506116e1565b50829750879550505050505092915050565b61173481611577565b82525050565b5f6060820190508181035f83015261175281866116b8565b9050611761602083018561172b565b61176e604083018461172b565b949350505050565b5f8115159050919050565b61178a81611776565b82525050565b5f6020820190506117a35f830184611781565b92915050565b5f82825260208201905092915050565b5f6117c382611395565b6117cd81856117a9565b93506117dd8185602086016113af565b6117e68161121a565b840191505092915050565b5f6020820190508181035f83015261180981846117b9565b905092915050565b5f8151905061181f81611580565b92915050565b5f6020828403121561183a5761183961120a565b5b5f61184784828501611811565b91505092915050565b7f47494420646f6573206e6f7420657869737400000000000000000000000000005f82015250565b5f6118846012836117a9565b915061188f82611850565b602082019050919050565b5f6020820190508181035f8301526118b181611878565b9050919050565b5f6020820190506118cb5f83018461172b565b92915050565b5f80fd5b5f80fd5b5f6118eb6118e6846112a2565b611288565b90508281526020810184848401111561190757611906611216565b5b6119128482856113af565b509392505050565b5f82601f83011261192e5761192d611212565b5b815161193e8482602086016118d9565b91505092915050565b6119508161140f565b811461195a575f80fd5b50565b5f8151905061196b81611947565b92915050565b5f60a08284031215611986576119856118d1565b5b61199060a0611288565b90505f82015167ffffffffffffffff8111156119af576119ae6118d5565b5b6119bb8482850161191a565b5f83015250602082015167ffffffffffffffff8111156119de576119dd6118d5565b5b6119ea8482850161191a565b602083015250604082015167ffffffffffffffff811115611a0e57611a0d6118d5565b5b611a1a8482850161191a565b604083015250606082015167ffffffffffffffff811115611a3e57611a3d6118d5565b5b611a4a8482850161191a565b6060830152506080611a5e8482850161195d565b60808301525092915050565b5f60208284031215611a7f57611a7e61120a565b5b5f82015167ffffffffffffffff811115611a9c57611a9b61120e565b5b611aa884828501611971565b91505092915050565b5f73ffffffffffffffffffffffffffffffffffffffff82169050919050565b5f611ada82611ab1565b9050919050565b611aea81611ad0565b82525050565b5f602082019050611b035f830184611ae1565b92915050565b5f81519050919050565b5f81905092915050565b5f611b2782611b09565b611b318185611b13565b9350611b418185602086016113af565b80840191505092915050565b5f611b588284611b1d565b915081905092915050565b611b6c81611776565b8114611b76575f80fd5b50565b5f81519050611b8781611b63565b92915050565b5f60208284031215611ba257611ba161120a565b5b5f611baf84828501611b79565b91505092915050565b7f6163636f756e74206973206e6f742061206e6574776f726b2061646d696e20615f8201527f63636f756e740000000000000000000000000000000000000000000000000000602082015250565b5f611c126026836117a9565b9150611c1d82611bb8565b604082019050919050565b5f6020820190508181035f830152611c3f81611c06565b9050919050565b5f81905092915050565b5f611c5a82611395565b611c648185611c46565b9350611c748185602086016113af565b80840191505092915050565b7f2e000000000000000000000000000000000000000000000000000000000000005f82015250565b5f611cb4600183611c46565b9150611cbf82611c80565b600182019050919050565b5f611cd58285611c50565b9150611ce082611ca8565b9150611cec8284611c50565b91508190509392505050565b5f604082019050611d0b5f830185611ae1565b8181036020830152611d1d81846117b9565b90509392505050565b7f7065726d697373696f6e732063616c6c206661696c65640000000000000000005f82015250565b5f611d5a6017836117a9565b9150611d6582611d26565b602082019050919050565b5f6020820190508181035f830152611d8781611d4e565b9050919050565b7f6163636f756e7420646f65736e27742062656c6f6e6720746f2056454e444f525f8201527f53207375626f7267000000000000000000000000000000000000000000000000602082015250565b5f611de86028836117a9565b9150611df382611d8e565b604082019050919050565b5f6020820190508181035f830152611e1581611ddc565b9050919050565b5f611e278286611c50565b9150611e338285611c50565b9150611e3f8284611c50565b9150819050949350505050565b5f819050919050565b611e5e81611e4c565b82525050565b5f602082019050611e775f830184611e55565b92915050565b5f60208284031215611e9257611e9161120a565b5b5f82015167ffffffffffffffff811115611eaf57611eae61120e565b5b611ebb8482850161191a565b91505092915050565b7f42616e6b20616c726561647920726567697374657265640000000000000000005f82015250565b5f611ef86017836117a9565b9150611f0382611ec4565b602082019050919050565b5f6020820190508181035f830152611f2581611eec565b9050919050565b7f4e487b71000000000000000000000000000000000000000000000000000000005f52601160045260245ffd5b5f611f6382611577565b9150611f6e83611577565b9250828201905080821115611f8657611f85611f2c565b5b92915050565b5f6040820190508181035f830152611fa481856117b9565b9050611fb3602083018461172b565b9392505050565b5f604082019050611fcd5f83018561172b565b8181036020830152611fdf81846117b9565b90509392505050565b5f6080820190508181035f83015261200081876117b9565b9050818103602083015261201481866117b9565b9050818103604083015261202881856117b9565b9050818103606083015261203c81846117b9565b905095945050505050565b5f60408201905061205a5f83018561172b565b612067602083018461172b565b9392505050565b5f67ffffffffffffffff8211156120885761208761122a565b5b602082029050602081019050919050565b5f80fd5b5f6120af6120aa8461206e565b611288565b905080838252602082019050602084028301858111156120d2576120d1612099565b5b835b8181101561211957805167ffffffffffffffff8111156120f7576120f6611212565b5b8086016121048982611971565b855260208501945050506020810190506120d4565b5050509392505050565b5f82601f83011261213757612136611212565b5b815161214784826020860161209d565b91505092915050565b5f805f606084860312156121675761216661120a565b5b5f84015167ffffffffffffffff8111156121845761218361120e565b5b61219086828701612123565b93505060206121a186828701611811565b92505060406121b286828701611811565b9150509250925092565b5f6121c682611577565b91506121d183611577565b92508282039050818111156121e9576121e8611f2c565b5b92915050565b7f43616e6e6f74206665746368204163636f756e742044657461696c73000000005f82015250565b5f612223601c836117a9565b915061222e826121ef565b602082019050919050565b5f6020820190508181035f83015261225081612217565b9050919050565b5f61226182611ab1565b9050919050565b61227181612257565b811461227b575f80fd5b50565b5f8151905061228c81612268565b92915050565b5f602082840312156122a7576122a661120a565b5b5f6122b48482850161227e565b91505092915050565b7f43616e6e6f742066657463682041646d696e4f72672044657461696c730000005f82015250565b5f6122f1601d836117a9565b91506122fc826122bd565b602082019050919050565b5f6020820190508181035f83015261231e816122e5565b9050919050565b5f805f806080858703121561233d5761233c61120a565b5b5f85015167ffffffffffffffff81111561235a5761235961120e565b5b6123668782880161191a565b945050602085015167ffffffffffffffff8111156123875761238661120e565b5b6123938782880161191a565b935050604085015167ffffffffffffffff8111156123b4576123b361120e565b5b6123c08782880161191a565b92505060606123d187828801611b79565b9150509295919450925056fea2646970667358221220bdef4ea83fa0096d16f9b3c40d788a25a12547dcc7757ce1f3279e3fb180f33364736f6c63430008140033",
  "immutableReferences": {},
  "source": "pragma solidity ^0.8.0;\npragma experimental ABIEncoderV2;\nimport \"./VendorManager.sol\";\nimport \"./BankModel.sol\";\nimport \"./UidUtils.sol\";\n\ncontract BankManager is BankStructs {\n\n    string constant private BANKS_SUBORG = \"BANKS\";\n\n    address private permIntfAddress;\n    address private permImplementation;\n    address private accountManager;\n    BankModel private bankModel;\n    UidUtils private uidUtils;\n\n    event BankRegistered(string _bankGid, string _bankName, string _bankCountry, string _representativeAccountName);\n\n    constructor (address _permIntf, address _permImpl, address _accountManager, address _bankModel, address _uidUtils) {\n        permIntfAddress = _permIntf;\n        permImplementation = _permImpl;\n        accountManager = _accountManager;\n        bankModel = BankModel(_bankModel);\n        uidUtils = UidUtils(_uidUtils);\n    }\n\n    modifier networkAdmin() {\n        (bool success, bytes memory data) = permIntfAddress.call(\n            abi.encodeWithSignature(\"isNetworkAdmin(address)\", msg.sender)\n        );\n        require(abi.decode(data, (bool)), \"account is not a network admin account\");\n        _;\n    }\n\n    modifier validateBanksAccount(string memory _accountName) {\n        (bool success, bytes memory data) = permIntfAddress.call(\n            abi.encodeWithSignature(\n                \"validateOrgAndAccount(address,string)\",\n                _getAccountAddress(_accountName),\n                string(abi.encodePacked(_getAdminOrg(),\".\",BANKS_SUBORG))\n            )\n        );\n        require(\n            success,\n            \"permissions call failed\"\n        );\n        bool isValid = abi.decode(data, (bool));\n        require(\n            isValid,\n            \"account doesn't belong to VENDORS suborg\"\n        );\n        _;\n    }\n\n    modifier gidExists(string memory _gid) {\n        require(0!=bankModel.getBankIndex(_gid), \"GID does not exist\");\n        _;\n    }\n\n    function registerBank(string memory _bankName, string memory _bankCountry, string memory _representativeAccountName) public \n    networkAdmin\n    validateBanksAccount(_representativeAccountName) {\n        string memory gid = uidUtils.bytes32ToAlphanumeric7(keccak256(abi.encodePacked(_bankName, _bankCountry, _representativeAccountName)));\n        gid = uidUtils.addLuhnCheckDigit(gid);\n        require(0==bankModel.getBankIndex(gid),\"Bank already registered\");\n        uint id = bankModel.getBankListLength();\n        bankModel.setBankIndex(gid, 1+id);\n        bankModel.incBankListLength();\n        bankModel.setBankGid(id, gid);\n        bankModel.setBankBankName(id, _bankName);\n        bankModel.setBankBankCountry(id, _bankCountry);\n        bankModel.setBankRepresentativeAccountName(id, _representativeAccountName);\n        bankModel.setBankVersion(id);\n        emit BankRegistered(gid, _bankName, _bankCountry, _representativeAccountName);\n    }\n\n    function getAllBanks(uint _toExcluded, uint _count) public view\n    returns(Bank[] memory banks_, uint fromIncluded_, uint length_) {\n        (banks_,fromIncluded_, length_) = bankModel.getAllBanks(_toExcluded, _count);\n    }\n\n    function getBankForGid(string memory _gid) public view \n    gidExists(_gid)\n    returns(Bank memory bank_) {\n        bank_ = bankModel.getBankByIndex(_getBankIndex(_gid));\n    }\n\n    function isGidExists(string memory _gid) external view \n    returns (bool) {\n        return (0!=bankModel.getBankIndex(_gid));\n    }\n\n    function _getBankIndex (string memory _gid) internal view\n    returns(uint) {\n        return bankModel.getBankIndex(_gid)-1;\n    }\n\n    function _getAdminOrg() private returns (string memory adminOrg_) {\n        (bool success, bytes memory data) = permImplementation.call(\n            abi.encodeWithSignature(\"getPolicyDetails()\")\n        );\n        require(success, \"Cannot fetch AdminOrg Details\");\n        (adminOrg_,,,) = abi.decode(data, (string, string, string, bool));\n    }\n\n    function _getAccountAddress(string memory _accountName) private returns(address) {\n        (bool success, bytes memory data) = accountManager.call(\n            abi.encodeWithSignature(\n                \"getAccountAddress(string)\",\n                _accountName\n            )\n        );\n        require(success, \"Cannot fetch Account Details\");\n        return abi.decode(data,(address));\n    }\n\n}",
  "sourcePath": "/home/raghupathi/Desktop/javaClass/javaClass/contracts/BankManager.sol",
  "compiler": {
    "name": "solc",
    "version": "0.8.20+commit.a1b79de6.Emscripten.clang"
  },
  "schemaVersion": "3.4.14",
  "updatedAt": "2023-06-02T09:43:22.614Z",
  "devdoc": {
    "kind": "dev",
    "methods": {},
    "version": 1
  },
  "userdoc": {
    "kind": "user",
    "methods": {},
    "version": 1
  }
}