{
  "contractName": "BankGuaranteeReleaseModel",
  "abi": [
    {
      "inputs": [
        {
          "internalType": "address",
          "name": "_Member",
          "type": "address"
        },
        {
          "internalType": "address",
          "name": "_List",
          "type": "address"
        },
        {
          "internalType": "address",
          "name": "_Map",
          "type": "address"
        },
        {
          "internalType": "address",
          "name": "_quireContracts",
          "type": "address"
        }
      ],
      "stateMutability": "nonpayable",
      "type": "constructor"
    },
    {
      "inputs": [
        {
          "internalType": "bytes8",
          "name": "_uid",
          "type": "bytes8"
        }
      ],
      "name": "getBankGuaranteeReleaseIndex",
      "outputs": [
        {
          "internalType": "uint256",
          "name": "",
          "type": "uint256"
        }
      ],
      "stateMutability": "view",
      "type": "function"
    },
    {
      "inputs": [
        {
          "internalType": "bytes8",
          "name": "_uid",
          "type": "bytes8"
        }
      ],
      "name": "getBgReleaseIndexListByBgUid",
      "outputs": [
        {
          "internalType": "uint256[]",
          "name": "bgReleaseIndexList_",
          "type": "uint256[]"
        }
      ],
      "stateMutability": "view",
      "type": "function"
    },
    {
      "inputs": [],
      "name": "getBankGuaranteeReleaseListLength",
      "outputs": [
        {
          "internalType": "uint256",
          "name": "",
          "type": "uint256"
        }
      ],
      "stateMutability": "view",
      "type": "function"
    },
    {
      "inputs": [
        {
          "internalType": "uint256",
          "name": "_index",
          "type": "uint256"
        }
      ],
      "name": "getBankGuaranteeReleaseByIndex",
      "outputs": [
        {
          "components": [
            {
              "internalType": "bytes8",
              "name": "uid",
              "type": "bytes8"
            },
            {
              "internalType": "bytes8",
              "name": "bankGuaranteeUid",
              "type": "bytes8"
            },
            {
              "internalType": "string",
              "name": "paymentReference",
              "type": "string"
            },
            {
              "internalType": "string",
              "name": "procuringEntityGid",
              "type": "string"
            },
            {
              "internalType": "string",
              "name": "egpSystemId",
              "type": "string"
            },
            {
              "internalType": "string",
              "name": "vendorGid",
              "type": "string"
            },
            {
              "internalType": "string",
              "name": "bankGid",
              "type": "string"
            },
            {
              "internalType": "string",
              "name": "branchName",
              "type": "string"
            },
            {
              "internalType": "uint256",
              "name": "releaseDate",
              "type": "uint256"
            },
            {
              "internalType": "string",
              "name": "currency",
              "type": "string"
            },
            {
              "internalType": "uint256",
              "name": "amountReleased",
              "type": "uint256"
            },
            {
              "internalType": "string",
              "name": "bgReleaseFileHash",
              "type": "string"
            },
            {
              "internalType": "uint16",
              "name": "version",
              "type": "uint16"
            }
          ],
          "internalType": "struct BankGuaranteeReleaseStructs.BankGuaranteeRelease",
          "name": "bankGuaranteeRelease_",
          "type": "tuple"
        }
      ],
      "stateMutability": "view",
      "type": "function"
    },
    {
      "inputs": [
        {
          "internalType": "uint256",
          "name": "_toExcluded",
          "type": "uint256"
        },
        {
          "internalType": "uint256",
          "name": "_count",
          "type": "uint256"
        }
      ],
      "name": "getAllBankGuaranteeRelease",
      "outputs": [
        {
          "components": [
            {
              "internalType": "bytes8",
              "name": "uid",
              "type": "bytes8"
            },
            {
              "internalType": "bytes8",
              "name": "bankGuaranteeUid",
              "type": "bytes8"
            },
            {
              "internalType": "string",
              "name": "paymentReference",
              "type": "string"
            },
            {
              "internalType": "string",
              "name": "procuringEntityGid",
              "type": "string"
            },
            {
              "internalType": "string",
              "name": "egpSystemId",
              "type": "string"
            },
            {
              "internalType": "string",
              "name": "vendorGid",
              "type": "string"
            },
            {
              "internalType": "string",
              "name": "bankGid",
              "type": "string"
            },
            {
              "internalType": "string",
              "name": "branchName",
              "type": "string"
            },
            {
              "internalType": "uint256",
              "name": "releaseDate",
              "type": "uint256"
            },
            {
              "internalType": "string",
              "name": "currency",
              "type": "string"
            },
            {
              "internalType": "uint256",
              "name": "amountReleased",
              "type": "uint256"
            },
            {
              "internalType": "string",
              "name": "bgReleaseFileHash",
              "type": "string"
            },
            {
              "internalType": "uint16",
              "name": "version",
              "type": "uint16"
            }
          ],
          "internalType": "struct BankGuaranteeReleaseStructs.BankGuaranteeRelease[]",
          "name": "_bankGuaranteeRelease",
          "type": "tuple[]"
        },
        {
          "internalType": "uint256",
          "name": "fromIncluded_",
          "type": "uint256"
        },
        {
          "internalType": "uint256",
          "name": "length_",
          "type": "uint256"
        }
      ],
      "stateMutability": "view",
      "type": "function"
    },
    {
      "inputs": [
        {
          "internalType": "uint256",
          "name": "_index",
          "type": "uint256"
        }
      ],
      "name": "getBgReleaseUid",
      "outputs": [
        {
          "internalType": "bytes8",
          "name": "",
          "type": "bytes8"
        }
      ],
      "stateMutability": "view",
      "type": "function"
    },
    {
      "inputs": [
        {
          "internalType": "uint256",
          "name": "_index",
          "type": "uint256"
        }
      ],
      "name": "getBgReleaseBankGuaranteeUid",
      "outputs": [
        {
          "internalType": "bytes8",
          "name": "",
          "type": "bytes8"
        }
      ],
      "stateMutability": "view",
      "type": "function"
    },
    {
      "inputs": [
        {
          "internalType": "uint256",
          "name": "_index",
          "type": "uint256"
        }
      ],
      "name": "getBgReleasePaymentReference",
      "outputs": [
        {
          "internalType": "string",
          "name": "",
          "type": "string"
        }
      ],
      "stateMutability": "view",
      "type": "function"
    },
    {
      "inputs": [
        {
          "internalType": "uint256",
          "name": "_index",
          "type": "uint256"
        }
      ],
      "name": "getBgReleaseProcuringEntityGid",
      "outputs": [
        {
          "internalType": "string",
          "name": "",
          "type": "string"
        }
      ],
      "stateMutability": "view",
      "type": "function"
    },
    {
      "inputs": [
        {
          "internalType": "uint256",
          "name": "_index",
          "type": "uint256"
        }
      ],
      "name": "getBgReleaseEgpSystemId",
      "outputs": [
        {
          "internalType": "string",
          "name": "",
          "type": "string"
        }
      ],
      "stateMutability": "view",
      "type": "function"
    },
    {
      "inputs": [
        {
          "internalType": "uint256",
          "name": "_index",
          "type": "uint256"
        }
      ],
      "name": "getBgReleaseVendorGid",
      "outputs": [
        {
          "internalType": "string",
          "name": "",
          "type": "string"
        }
      ],
      "stateMutability": "view",
      "type": "function"
    },
    {
      "inputs": [
        {
          "internalType": "uint256",
          "name": "_index",
          "type": "uint256"
        }
      ],
      "name": "getBgReleaseBankGid",
      "outputs": [
        {
          "internalType": "string",
          "name": "",
          "type": "string"
        }
      ],
      "stateMutability": "view",
      "type": "function"
    },
    {
      "inputs": [
        {
          "internalType": "uint256",
          "name": "_index",
          "type": "uint256"
        }
      ],
      "name": "getBgReleaseBranchName",
      "outputs": [
        {
          "internalType": "string",
          "name": "",
          "type": "string"
        }
      ],
      "stateMutability": "view",
      "type": "function"
    },
    {
      "inputs": [
        {
          "internalType": "uint256",
          "name": "_index",
          "type": "uint256"
        }
      ],
      "name": "getBgReleaseReleaseDate",
      "outputs": [
        {
          "internalType": "uint256",
          "name": "",
          "type": "uint256"
        }
      ],
      "stateMutability": "view",
      "type": "function"
    },
    {
      "inputs": [
        {
          "internalType": "uint256",
          "name": "_index",
          "type": "uint256"
        }
      ],
      "name": "getBgReleaseCurrencyType",
      "outputs": [
        {
          "internalType": "string",
          "name": "",
          "type": "string"
        }
      ],
      "stateMutability": "view",
      "type": "function"
    },
    {
      "inputs": [
        {
          "internalType": "uint256",
          "name": "_index",
          "type": "uint256"
        }
      ],
      "name": "getBgReleaseAmountReleased",
      "outputs": [
        {
          "internalType": "uint256",
          "name": "",
          "type": "uint256"
        }
      ],
      "stateMutability": "view",
      "type": "function"
    },
    {
      "inputs": [
        {
          "internalType": "uint256",
          "name": "_index",
          "type": "uint256"
        }
      ],
      "name": "getBgReleaseBgReleaseFileHash",
      "outputs": [
        {
          "internalType": "string",
          "name": "",
          "type": "string"
        }
      ],
      "stateMutability": "view",
      "type": "function"
    },
    {
      "inputs": [
        {
          "internalType": "uint256",
          "name": "_index",
          "type": "uint256"
        }
      ],
      "name": "getBgReleaseVersion",
      "outputs": [
        {
          "internalType": "uint16",
          "name": "",
          "type": "uint16"
        }
      ],
      "stateMutability": "view",
      "type": "function"
    },
    {
      "inputs": [
        {
          "internalType": "string",
          "name": "_bankGid",
          "type": "string"
        },
        {
          "internalType": "uint256",
          "name": "_toExcluded",
          "type": "uint256"
        },
        {
          "internalType": "uint256",
          "name": "_count",
          "type": "uint256"
        }
      ],
      "name": "getBgReleaseListByBankGID",
      "outputs": [
        {
          "internalType": "uint256[]",
          "name": "_bgReleaseListByBankGID",
          "type": "uint256[]"
        },
        {
          "internalType": "uint256",
          "name": "fromIncluded_",
          "type": "uint256"
        },
        {
          "internalType": "uint256",
          "name": "length_",
          "type": "uint256"
        }
      ],
      "stateMutability": "view",
      "type": "function"
    },
    {
      "inputs": [
        {
          "internalType": "string",
          "name": "_egpSystemId",
          "type": "string"
        },
        {
          "internalType": "uint256",
          "name": "_toExcluded",
          "type": "uint256"
        },
        {
          "internalType": "uint256",
          "name": "_count",
          "type": "uint256"
        }
      ],
      "name": "getBgReleaseListByEgpID",
      "outputs": [
        {
          "internalType": "uint256[]",
          "name": "_bgReleaseListByEgpID",
          "type": "uint256[]"
        },
        {
          "internalType": "uint256",
          "name": "fromIncluded_",
          "type": "uint256"
        },
        {
          "internalType": "uint256",
          "name": "length_",
          "type": "uint256"
        }
      ],
      "stateMutability": "view",
      "type": "function"
    },
    {
      "inputs": [
        {
          "internalType": "bytes8",
          "name": "_bgReleaseBgRefBankGid",
          "type": "bytes8"
        },
        {
          "internalType": "uint256",
          "name": "_toExcluded",
          "type": "uint256"
        },
        {
          "internalType": "uint256",
          "name": "_count",
          "type": "uint256"
        }
      ],
      "name": "getBgReleaseListByBgRefAndBankGid",
      "outputs": [
        {
          "internalType": "uint256[]",
          "name": "_bgReleaseListByBgRefAndBankGid",
          "type": "uint256[]"
        },
        {
          "internalType": "uint256",
          "name": "fromIncluded_",
          "type": "uint256"
        },
        {
          "internalType": "uint256",
          "name": "length_",
          "type": "uint256"
        }
      ],
      "stateMutability": "view",
      "type": "function"
    },
    {
      "inputs": [
        {
          "internalType": "bytes8",
          "name": "_bgReleasePaRefBankGid",
          "type": "bytes8"
        },
        {
          "internalType": "uint256",
          "name": "_toExcluded",
          "type": "uint256"
        },
        {
          "internalType": "uint256",
          "name": "_count",
          "type": "uint256"
        }
      ],
      "name": "getBgReleaseListByPaRefAndBankGid",
      "outputs": [
        {
          "internalType": "uint256[]",
          "name": "_bgReleaseListByPaRefAndBankGid",
          "type": "uint256[]"
        },
        {
          "internalType": "uint256",
          "name": "fromIncluded_",
          "type": "uint256"
        },
        {
          "internalType": "uint256",
          "name": "length_",
          "type": "uint256"
        }
      ],
      "stateMutability": "view",
      "type": "function"
    },
    {
      "inputs": [
        {
          "internalType": "bytes8",
          "name": "_uid",
          "type": "bytes8"
        },
        {
          "internalType": "uint256",
          "name": "_value",
          "type": "uint256"
        }
      ],
      "name": "setBankGuaranteeReleaseIndex",
      "outputs": [],
      "stateMutability": "nonpayable",
      "type": "function"
    },
    {
      "inputs": [
        {
          "internalType": "bytes8",
          "name": "_uid",
          "type": "bytes8"
        },
        {
          "internalType": "uint256",
          "name": "_index",
          "type": "uint256"
        }
      ],
      "name": "addBgReleaseIndexListByBgUid",
      "outputs": [],
      "stateMutability": "nonpayable",
      "type": "function"
    },
    {
      "inputs": [],
      "name": "incBankGuaranteeReleaseListLength",
      "outputs": [],
      "stateMutability": "nonpayable",
      "type": "function"
    },
    {
      "inputs": [
        {
          "internalType": "uint256",
          "name": "_index",
          "type": "uint256"
        },
        {
          "components": [
            {
              "internalType": "bytes8",
              "name": "uid",
              "type": "bytes8"
            },
            {
              "internalType": "bytes8",
              "name": "bankGuaranteeUid",
              "type": "bytes8"
            },
            {
              "internalType": "string",
              "name": "paymentReference",
              "type": "string"
            },
            {
              "internalType": "string",
              "name": "procuringEntityGid",
              "type": "string"
            },
            {
              "internalType": "string",
              "name": "egpSystemId",
              "type": "string"
            },
            {
              "internalType": "string",
              "name": "vendorGid",
              "type": "string"
            },
            {
              "internalType": "string",
              "name": "bankGid",
              "type": "string"
            },
            {
              "internalType": "string",
              "name": "branchName",
              "type": "string"
            },
            {
              "internalType": "uint256",
              "name": "releaseDate",
              "type": "uint256"
            },
            {
              "internalType": "string",
              "name": "currency",
              "type": "string"
            },
            {
              "internalType": "uint256",
              "name": "amountReleased",
              "type": "uint256"
            },
            {
              "internalType": "string",
              "name": "bgReleaseFileHash",
              "type": "string"
            },
            {
              "internalType": "uint16",
              "name": "version",
              "type": "uint16"
            }
          ],
          "internalType": "struct BankGuaranteeReleaseStructs.BankGuaranteeRelease",
          "name": "_BankGuaranteeRelease",
          "type": "tuple"
        }
      ],
      "name": "addBankGuaranteeRelease",
      "outputs": [],
      "stateMutability": "nonpayable",
      "type": "function"
    },
    {
      "inputs": [
        {
          "components": [
            {
              "internalType": "bytes8",
              "name": "uid",
              "type": "bytes8"
            },
            {
              "internalType": "bytes8",
              "name": "bankGuaranteeUid",
              "type": "bytes8"
            },
            {
              "internalType": "string",
              "name": "paymentReference",
              "type": "string"
            },
            {
              "internalType": "string",
              "name": "procuringEntityGid",
              "type": "string"
            },
            {
              "internalType": "string",
              "name": "egpSystemId",
              "type": "string"
            },
            {
              "internalType": "string",
              "name": "vendorGid",
              "type": "string"
            },
            {
              "internalType": "string",
              "name": "bankGid",
              "type": "string"
            },
            {
              "internalType": "string",
              "name": "branchName",
              "type": "string"
            },
            {
              "internalType": "uint256",
              "name": "releaseDate",
              "type": "uint256"
            },
            {
              "internalType": "string",
              "name": "currency",
              "type": "string"
            },
            {
              "internalType": "uint256",
              "name": "amountReleased",
              "type": "uint256"
            },
            {
              "internalType": "string",
              "name": "bgReleaseFileHash",
              "type": "string"
            },
            {
              "internalType": "uint16",
              "name": "version",
              "type": "uint16"
            }
          ],
          "internalType": "struct BankGuaranteeReleaseStructs.BankGuaranteeRelease",
          "name": "_BankGuaranteeRelease",
          "type": "tuple"
        },
        {
          "internalType": "uint256",
          "name": "_value",
          "type": "uint256"
        },
        {
          "internalType": "string",
          "name": "_bgReferenceNumber",
          "type": "string"
        }
      ],
      "name": "setBankGuaranteeReleaseIndices",
      "outputs": [],
      "stateMutability": "nonpayable",
      "type": "function"
    },
    {
      "inputs": [
        {
          "internalType": "bytes8",
          "name": "_bgUid",
          "type": "bytes8"
        },
        {
          "internalType": "uint256",
          "name": "_toExcluded",
          "type": "uint256"
        },
        {
          "internalType": "uint256",
          "name": "_count",
          "type": "uint256"
        }
      ],
      "name": "getBgReleaseAndInvokeListByBgUid",
      "outputs": [
        {
          "internalType": "uint256[]",
          "name": "_bgReleaseAndInvokeListByBgUid",
          "type": "uint256[]"
        },
        {
          "internalType": "uint256",
          "name": "fromIncluded_",
          "type": "uint256"
        },
        {
          "internalType": "uint256",
          "name": "length_",
          "type": "uint256"
        }
      ],
      "stateMutability": "view",
      "type": "function"
    }
  ],
  "bytecode": "0x608060405234801562000010575f80fd5b5060405162008bec38038062008bec8339818101604052810190620000369190620001a4565b835f806101000a81548173ffffffffffffffffffffffffffffffffffffffff021916908373ffffffffffffffffffffffffffffffffffffffff1602179055508260015f6101000a81548173ffffffffffffffffffffffffffffffffffffffff021916908373ffffffffffffffffffffffffffffffffffffffff1602179055508160025f6101000a81548173ffffffffffffffffffffffffffffffffffffffff021916908373ffffffffffffffffffffffffffffffffffffffff1602179055508060035f6101000a81548173ffffffffffffffffffffffffffffffffffffffff021916908373ffffffffffffffffffffffffffffffffffffffff1602179055505050505062000213565b5f80fd5b5f73ffffffffffffffffffffffffffffffffffffffff82169050919050565b5f6200016e8262000143565b9050919050565b620001808162000162565b81146200018b575f80fd5b50565b5f815190506200019e8162000175565b92915050565b5f805f8060808587031215620001bf57620001be6200013f565b5b5f620001ce878288016200018e565b9450506020620001e1878288016200018e565b9350506040620001f4878288016200018e565b925050606062000207878288016200018e565b91505092959194509250565b6189cb80620002215f395ff3fe608060405234801561000f575f80fd5b50600436106101c2575f3560e01c8063b9c60383116100f7578063e0a2217211610095578063f4497f421161006f578063f4497f4214610602578063f8516aa914610632578063f9e23b4314610664578063ff313a771461066e576101c2565b8063e0a2217214610572578063e16d438a146105a2578063ee0e8f5a146105d2576101c2565b8063c3d1f5ba116100d1578063c3d1f5ba146104c2578063c99b719a146104f4578063d5e9f16214610524578063da75629114610542576101c2565b8063b9c6038314610442578063bbe7131114610474578063bd8b2e54146104a6576101c2565b8063873f93d411610164578063a7cfb0ed1161013e578063a7cfb0ed14610394578063aa5d0c5d146103c6578063aa93bcbf146103f6578063ab7a793914610426576101c2565b8063873f93d41461030457806392a63e0014610334578063977f731f14610364576101c2565b8063369c9f62116101a0578063369c9f621461024257806343d083d4146102725780634734bacc146102a257806347fc4650146102d2576101c2565b80630f47627d146101c65780631b5de0e7146101e2578063203e2d0e14610212575b5f80fd5b6101e060048036038101906101db9190617317565b61068a565b005b6101fc60048036038101906101f79190617355565b610b9b565b6040516102099190617437565b60405180910390f35b61022c60048036038101906102279190617457565b610eb3565b604051610239919061750c565b60405180910390f35b61025c60048036038101906102579190617457565b61114a565b6040516102699190617548565b60405180910390f35b61028c60048036038101906102879190617457565b6113dd565b604051610299919061750c565b60405180910390f35b6102bc60048036038101906102b79190617457565b611674565b6040516102c99190617570565b60405180910390f35b6102ec60048036038101906102e79190617589565b611907565b6040516102fb939291906175d9565b60405180910390f35b61031e60048036038101906103199190617355565b611c34565b60405161032b9190617570565b60405180910390f35b61034e60048036038101906103499190617457565b611d43565b60405161035b919061750c565b60405180910390f35b61037e60048036038101906103799190617457565b611fda565b60405161038b919061750c565b60405180910390f35b6103ae60048036038101906103a99190617615565b612271565b6040516103bd939291906178bb565b60405180910390f35b6103e060048036038101906103db9190617457565b61236c565b6040516103ed919061750c565b60405180910390f35b610410600480360381019061040b9190617457565b612603565b60405161041d919061750c565b60405180910390f35b610440600480360381019061043b9190617317565b61289a565b005b61045c60048036038101906104579190617589565b612ad0565b60405161046b939291906175d9565b60405180910390f35b61048e60048036038101906104899190617a23565b612dfd565b60405161049d939291906175d9565b60405180910390f35b6104c060048036038101906104bb9190617cd6565b613164565b005b6104dc60048036038101906104d79190617a23565b6141c4565b6040516104eb939291906175d9565b60405180910390f35b61050e60048036038101906105099190617457565b61452b565b60405161051b9190617570565b60405180910390f35b61052c6147be565b6040516105399190617570565b60405180910390f35b61055c60048036038101906105579190617457565b6148c9565b604051610569919061750c565b60405180910390f35b61058c60048036038101906105879190617457565b614b60565b604051610599919061750c565b60405180910390f35b6105bc60048036038101906105b79190617457565b614df7565b6040516105c99190617d6d565b60405180910390f35b6105ec60048036038101906105e79190617457565b61508a565b6040516105f99190617d6d565b60405180910390f35b61061c60048036038101906106179190617457565b61531d565b6040516106299190617ecd565b60405180910390f35b61064c60048036038101906106479190617589565b6155d7565b60405161065b939291906175d9565b60405180910390f35b61066c615904565b005b61068860048036038101906106839190617eed565b615b34565b005b60035f9054906101000a900473ffffffffffffffffffffffffffffffffffffffff1673ffffffffffffffffffffffffffffffffffffffff1663ef02a3fc6040518060400160405280601e81526020017f42414e4b5f47554152414e5445455f52454c454153455f4d414e4147455200008152506040518263ffffffff1660e01b8152600401610719919061750c565b602060405180830381865afa158015610734573d5f803e3d5ffd5b505050506040513d601f19601f820116820180604052508101906107589190617fa1565b73ffffffffffffffffffffffffffffffffffffffff163373ffffffffffffffffffffffffffffffffffffffff16146107c5576040517f08c379a00000000000000000000000000000000000000000000000000000000081526004016107bc90618016565b60405180910390fd5b5f60025f9054906101000a900473ffffffffffffffffffffffffffffffffffffffff1673ffffffffffffffffffffffffffffffffffffffff1663bfa9f3eb6040518060400160405280601e81526020017f42414e4b5f47554152414e5445455f52454c454153455f4d414e4147455200008152506040518060400160405280601e81526020017f6d61705f5f626752656c65617365496e6465784c697374427942675569640000815250866040518060400160405280600881526020017f5f5f6c656e6774680000000000000000000000000000000000000000000000008152506040516020016108b6919061806e565b6040516020818303038152906040526040518563ffffffff1660e01b81526004016108e494939291906180d6565b602060405180830381865afa1580156108ff573d5f803e3d5ffd5b505050506040513d601f19601f820116820180604052508101906109239190618142565b905060025f9054906101000a900473ffffffffffffffffffffffffffffffffffffffff1673ffffffffffffffffffffffffffffffffffffffff1663cf1e8bd86040518060400160405280601e81526020017f42414e4b5f47554152414e5445455f52454c454153455f4d414e4147455200008152506040518060400160405280601e81526020017f6d61705f5f626752656c65617365496e6465784c69737442794267556964000081525086856040516020016109e0919061818d565b604051602081830303815290604052876040518663ffffffff1660e01b8152600401610a109594939291906181a7565b5f604051808303815f87803b158015610a27575f80fd5b505af1158015610a39573d5f803e3d5ffd5b5050505060025f9054906101000a900473ffffffffffffffffffffffffffffffffffffffff1673ffffffffffffffffffffffffffffffffffffffff1663cf1e8bd86040518060400160405280601e81526020017f42414e4b5f47554152414e5445455f52454c454153455f4d414e4147455200008152506040518060400160405280601e81526020017f6d61705f5f626752656c65617365496e6465784c697374427942675569640000815250866040518060400160405280600881526020017f5f5f6c656e677468000000000000000000000000000000000000000000000000815250604051602001610b2d919061806e565b604051602081830303815290604052866001610b49919061823a565b6040518663ffffffff1660e01b8152600401610b699594939291906181a7565b5f604051808303815f87803b158015610b80575f80fd5b505af1158015610b92573d5f803e3d5ffd5b50505050505050565b60605f60025f9054906101000a900473ffffffffffffffffffffffffffffffffffffffff1673ffffffffffffffffffffffffffffffffffffffff1663bfa9f3eb6040518060400160405280601e81526020017f42414e4b5f47554152414e5445455f52454c454153455f4d414e4147455200008152506040518060400160405280601e81526020017f6d61705f5f626752656c65617365496e6465784c697374427942675569640000815250866040518060400160405280600881526020017f5f5f6c656e677468000000000000000000000000000000000000000000000000815250604051602001610c8e919061806e565b6040516020818303038152906040526040518563ffffffff1660e01b8152600401610cbc94939291906180d6565b602060405180830381865afa158015610cd7573d5f803e3d5ffd5b505050506040513d601f19601f82011682018060405250810190610cfb9190618142565b90508067ffffffffffffffff811115610d1757610d166178ff565b5b604051908082528060200260200182016040528015610d455781602001602082028036833780820191505090505b5091505f5b81811015610eac5760025f9054906101000a900473ffffffffffffffffffffffffffffffffffffffff1673ffffffffffffffffffffffffffffffffffffffff1663bfa9f3eb6040518060400160405280601e81526020017f42414e4b5f47554152414e5445455f52454c454153455f4d414e4147455200008152506040518060400160405280601e81526020017f6d61705f5f626752656c65617365496e6465784c6973744279426755696400008152508785604051602001610e0d919061818d565b6040516020818303038152906040526040518563ffffffff1660e01b8152600401610e3b94939291906180d6565b602060405180830381865afa158015610e56573d5f803e3d5ffd5b505050506040513d601f19601f82011682018060405250810190610e7a9190618142565b838281518110610e8d57610e8c61826d565b5b6020026020010181815250508080610ea49061829a565b915050610d4a565b5050919050565b6060815f60015f9054906101000a900473ffffffffffffffffffffffffffffffffffffffff1673ffffffffffffffffffffffffffffffffffffffff16633bea27536040518060400160405280601e81526020017f42414e4b5f47554152414e5445455f52454c454153455f4d414e4147455200008152506040518060400160405280601e81526020017f6c6973745f5f62616e6b47756172616e74656552656c656173654c69737400008152506040518363ffffffff1660e01b8152600401610f7d9291906182e1565b602060405180830381865afa158015610f98573d5f803e3d5ffd5b505050506040513d601f19601f82011682018060405250810190610fbc9190618142565b9050808210611000576040517f08c379a0000000000000000000000000000000000000000000000000000000008152600401610ff790618360565b60405180910390fd5b60015f9054906101000a900473ffffffffffffffffffffffffffffffffffffffff1673ffffffffffffffffffffffffffffffffffffffff16632136448c6040518060400160405280601e81526020017f42414e4b5f47554152414e5445455f52454c454153455f4d414e4147455200008152506040518060400160405280601e81526020017f6c6973745f5f62616e6b47756172616e74656552656c656173654c6973740000815250876040518060400160405280600781526020017f62616e6b476964000000000000000000000000000000000000000000000000008152506040518563ffffffff1660e01b81526004016110ff949392919061837e565b5f60405180830381865afa158015611119573d5f803e3d5ffd5b505050506040513d5f823e3d601f19601f820116820180604052508101906111419190618444565b92505050919050565b5f815f60015f9054906101000a900473ffffffffffffffffffffffffffffffffffffffff1673ffffffffffffffffffffffffffffffffffffffff16633bea27536040518060400160405280601e81526020017f42414e4b5f47554152414e5445455f52454c454153455f4d414e4147455200008152506040518060400160405280601e81526020017f6c6973745f5f62616e6b47756172616e74656552656c656173654c69737400008152506040518363ffffffff1660e01b81526004016112139291906182e1565b602060405180830381865afa15801561122e573d5f803e3d5ffd5b505050506040513d601f19601f820116820180604052508101906112529190618142565b9050808210611296576040517f08c379a000000000000000000000000000000000000000000000000000000000815260040161128d90618360565b60405180910390fd5b60015f9054906101000a900473ffffffffffffffffffffffffffffffffffffffff1673ffffffffffffffffffffffffffffffffffffffff166303afa62b6040518060400160405280601e81526020017f42414e4b5f47554152414e5445455f52454c454153455f4d414e4147455200008152506040518060400160405280601e81526020017f6c6973745f5f62616e6b47756172616e74656552656c656173654c6973740000815250876040518060400160405280600781526020017f76657273696f6e000000000000000000000000000000000000000000000000008152506040518563ffffffff1660e01b8152600401611395949392919061837e565b602060405180830381865afa1580156113b0573d5f803e3d5ffd5b505050506040513d601f19601f820116820180604052508101906113d4919061849f565b92505050919050565b6060815f60015f9054906101000a900473ffffffffffffffffffffffffffffffffffffffff1673ffffffffffffffffffffffffffffffffffffffff16633bea27536040518060400160405280601e81526020017f42414e4b5f47554152414e5445455f52454c454153455f4d414e4147455200008152506040518060400160405280601e81526020017f6c6973745f5f62616e6b47756172616e74656552656c656173654c69737400008152506040518363ffffffff1660e01b81526004016114a79291906182e1565b602060405180830381865afa1580156114c2573d5f803e3d5ffd5b505050506040513d601f19601f820116820180604052508101906114e69190618142565b905080821061152a576040517f08c379a000000000000000000000000000000000000000000000000000000000815260040161152190618360565b60405180910390fd5b60015f9054906101000a900473ffffffffffffffffffffffffffffffffffffffff1673ffffffffffffffffffffffffffffffffffffffff16632136448c6040518060400160405280601e81526020017f42414e4b5f47554152414e5445455f52454c454153455f4d414e4147455200008152506040518060400160405280601e81526020017f6c6973745f5f62616e6b47756172616e74656552656c656173654c6973740000815250876040518060400160405280601181526020017f626752656c6561736546696c65486173680000000000000000000000000000008152506040518563ffffffff1660e01b8152600401611629949392919061837e565b5f60405180830381865afa158015611643573d5f803e3d5ffd5b505050506040513d5f823e3d601f19601f8201168201806040525081019061166b9190618444565b92505050919050565b5f815f60015f9054906101000a900473ffffffffffffffffffffffffffffffffffffffff1673ffffffffffffffffffffffffffffffffffffffff16633bea27536040518060400160405280601e81526020017f42414e4b5f47554152414e5445455f52454c454153455f4d414e4147455200008152506040518060400160405280601e81526020017f6c6973745f5f62616e6b47756172616e74656552656c656173654c69737400008152506040518363ffffffff1660e01b815260040161173d9291906182e1565b602060405180830381865afa158015611758573d5f803e3d5ffd5b505050506040513d601f19601f8201168201806040525081019061177c9190618142565b90508082106117c0576040517f08c379a00000000000000000000000000000000000000000000000000000000081526004016117b790618360565b60405180910390fd5b60015f9054906101000a900473ffffffffffffffffffffffffffffffffffffffff1673ffffffffffffffffffffffffffffffffffffffff1663b83032bd6040518060400160405280601e81526020017f42414e4b5f47554152414e5445455f52454c454153455f4d414e4147455200008152506040518060400160405280601e81526020017f6c6973745f5f62616e6b47756172616e74656552656c656173654c6973740000815250876040518060400160405280600e81526020017f616d6f756e7452656c65617365640000000000000000000000000000000000008152506040518563ffffffff1660e01b81526004016118bf949392919061837e565b602060405180830381865afa1580156118da573d5f803e3d5ffd5b505050506040513d601f19601f820116820180604052508101906118fe9190618142565b92505050919050565b60605f805f60025f9054906101000a900473ffffffffffffffffffffffffffffffffffffffff1673ffffffffffffffffffffffffffffffffffffffff1663bfa9f3eb6040518060400160405280601e81526020017f42414e4b5f47554152414e5445455f52454c454153455f4d414e414745520000815250604051806060016040528060228152602001618951602291398a6040518060400160405280600881526020017f5f5f6c656e6774680000000000000000000000000000000000000000000000008152506040516020016119df919061806e565b6040516020818303038152906040526040518563ffffffff1660e01b8152600401611a0d94939291906180d6565b602060405180830381865afa158015611a28573d5f803e3d5ffd5b505050506040513d601f19601f82011682018060405250810190611a4c9190618142565b905080861115611a5a578095505b5f868611611a685785611a6a565b865b90508067ffffffffffffffff811115611a8657611a856178ff565b5b604051908082528060200260200182016040528015611ab45781602001602082028036833780820191505090505b5094505b5f811115611c23578080611acb906184ca565b9150508680611ad9906184ca565b97505060025f9054906101000a900473ffffffffffffffffffffffffffffffffffffffff1673ffffffffffffffffffffffffffffffffffffffff1663bfa9f3eb6040518060400160405280601e81526020017f42414e4b5f47554152414e5445455f52454c454153455f4d414e414745520000815250604051806060016040528060228152602001618951602291398b8b604051602001611b7a919061818d565b6040516020818303038152906040526040518563ffffffff1660e01b8152600401611ba894939291906180d6565b602060405180830381865afa158015611bc3573d5f803e3d5ffd5b505050506040513d601f19601f82011682018060405250810190611be79190618142565b856001838851611bf791906184f1565b611c0191906184f1565b81518110611c1257611c1161826d565b5b602002602001018181525050611ab8565b869350819250505093509350939050565b5f60025f9054906101000a900473ffffffffffffffffffffffffffffffffffffffff1673ffffffffffffffffffffffffffffffffffffffff1663405e2c0d6040518060400160405280601e81526020017f42414e4b5f47554152414e5445455f52454c454153455f4d414e4147455200008152506040518060400160405280601e81526020017f6d61705f5f62616e6b47756172616e74656552656c65617365496e6465780000815250856040518463ffffffff1660e01b8152600401611cfd93929190618524565b602060405180830381865afa158015611d18573d5f803e3d5ffd5b505050506040513d601f19601f82011682018060405250810190611d3c9190618142565b9050919050565b6060815f60015f9054906101000a900473ffffffffffffffffffffffffffffffffffffffff1673ffffffffffffffffffffffffffffffffffffffff16633bea27536040518060400160405280601e81526020017f42414e4b5f47554152414e5445455f52454c454153455f4d414e4147455200008152506040518060400160405280601e81526020017f6c6973745f5f62616e6b47756172616e74656552656c656173654c69737400008152506040518363ffffffff1660e01b8152600401611e0d9291906182e1565b602060405180830381865afa158015611e28573d5f803e3d5ffd5b505050506040513d601f19601f82011682018060405250810190611e4c9190618142565b9050808210611e90576040517f08c379a0000000000000000000000000000000000000000000000000000000008152600401611e8790618360565b60405180910390fd5b60015f9054906101000a900473ffffffffffffffffffffffffffffffffffffffff1673ffffffffffffffffffffffffffffffffffffffff16632136448c6040518060400160405280601e81526020017f42414e4b5f47554152414e5445455f52454c454153455f4d414e4147455200008152506040518060400160405280601e81526020017f6c6973745f5f62616e6b47756172616e74656552656c656173654c6973740000815250876040518060400160405280600981526020017f76656e646f7247696400000000000000000000000000000000000000000000008152506040518563ffffffff1660e01b8152600401611f8f949392919061837e565b5f60405180830381865afa158015611fa9573d5f803e3d5ffd5b505050506040513d5f823e3d601f19601f82011682018060405250810190611fd19190618444565b92505050919050565b6060815f60015f9054906101000a900473ffffffffffffffffffffffffffffffffffffffff1673ffffffffffffffffffffffffffffffffffffffff16633bea27536040518060400160405280601e81526020017f42414e4b5f47554152414e5445455f52454c454153455f4d414e4147455200008152506040518060400160405280601e81526020017f6c6973745f5f62616e6b47756172616e74656552656c656173654c69737400008152506040518363ffffffff1660e01b81526004016120a49291906182e1565b602060405180830381865afa1580156120bf573d5f803e3d5ffd5b505050506040513d601f19601f820116820180604052508101906120e39190618142565b9050808210612127576040517f08c379a000000000000000000000000000000000000000000000000000000000815260040161211e90618360565b60405180910390fd5b60015f9054906101000a900473ffffffffffffffffffffffffffffffffffffffff1673ffffffffffffffffffffffffffffffffffffffff16632136448c6040518060400160405280601e81526020017f42414e4b5f47554152414e5445455f52454c454153455f4d414e4147455200008152506040518060400160405280601e81526020017f6c6973745f5f62616e6b47756172616e74656552656c656173654c6973740000815250876040518060400160405280600a81526020017f6272616e63684e616d65000000000000000000000000000000000000000000008152506040518563ffffffff1660e01b8152600401612226949392919061837e565b5f60405180830381865afa158015612240573d5f803e3d5ffd5b505050506040513d5f823e3d601f19601f820116820180604052508101906122689190618444565b92505050919050565b60605f805f61227e6147be565b90508086111561228c578095505b5f86861161229a578561229c565b865b90508067ffffffffffffffff8111156122b8576122b76178ff565b5b6040519080825280602002602001820160405280156122f157816020015b6122de6171e1565b8152602001906001900390816122d65790505b5094505b5f81111561235d578080612308906184ca565b9150508680612316906184ca565b9750506123228761531d565b85600183885161233291906184f1565b61233c91906184f1565b8151811061234d5761234c61826d565b5b60200260200101819052506122f5565b86935081925050509250925092565b6060815f60015f9054906101000a900473ffffffffffffffffffffffffffffffffffffffff1673ffffffffffffffffffffffffffffffffffffffff16633bea27536040518060400160405280601e81526020017f42414e4b5f47554152414e5445455f52454c454153455f4d414e4147455200008152506040518060400160405280601e81526020017f6c6973745f5f62616e6b47756172616e74656552656c656173654c69737400008152506040518363ffffffff1660e01b81526004016124369291906182e1565b602060405180830381865afa158015612451573d5f803e3d5ffd5b505050506040513d601f19601f820116820180604052508101906124759190618142565b90508082106124b9576040517f08c379a00000000000000000000000000000000000000000000000000000000081526004016124b090618360565b60405180910390fd5b60015f9054906101000a900473ffffffffffffffffffffffffffffffffffffffff1673ffffffffffffffffffffffffffffffffffffffff16632136448c6040518060400160405280601e81526020017f42414e4b5f47554152414e5445455f52454c454153455f4d414e4147455200008152506040518060400160405280601e81526020017f6c6973745f5f62616e6b47756172616e74656552656c656173654c6973740000815250876040518060400160405280601081526020017f7061796d656e745265666572656e6365000000000000000000000000000000008152506040518563ffffffff1660e01b81526004016125b8949392919061837e565b5f60405180830381865afa1580156125d2573d5f803e3d5ffd5b505050506040513d5f823e3d601f19601f820116820180604052508101906125fa9190618444565b92505050919050565b6060815f60015f9054906101000a900473ffffffffffffffffffffffffffffffffffffffff1673ffffffffffffffffffffffffffffffffffffffff16633bea27536040518060400160405280601e81526020017f42414e4b5f47554152414e5445455f52454c454153455f4d414e4147455200008152506040518060400160405280601e81526020017f6c6973745f5f62616e6b47756172616e74656552656c656173654c69737400008152506040518363ffffffff1660e01b81526004016126cd9291906182e1565b602060405180830381865afa1580156126e8573d5f803e3d5ffd5b505050506040513d601f19601f8201168201806040525081019061270c9190618142565b9050808210612750576040517f08c379a000000000000000000000000000000000000000000000000000000000815260040161274790618360565b60405180910390fd5b60015f9054906101000a900473ffffffffffffffffffffffffffffffffffffffff1673ffffffffffffffffffffffffffffffffffffffff16632136448c6040518060400160405280601e81526020017f42414e4b5f47554152414e5445455f52454c454153455f4d414e4147455200008152506040518060400160405280601e81526020017f6c6973745f5f62616e6b47756172616e74656552656c656173654c6973740000815250876040518060400160405280601281526020017f70726f637572696e67456e7469747947696400000000000000000000000000008152506040518563ffffffff1660e01b815260040161284f949392919061837e565b5f60405180830381865afa158015612869573d5f803e3d5ffd5b505050506040513d5f823e3d601f19601f820116820180604052508101906128919190618444565b92505050919050565b60035f9054906101000a900473ffffffffffffffffffffffffffffffffffffffff1673ffffffffffffffffffffffffffffffffffffffff1663ef02a3fc6040518060400160405280601e81526020017f42414e4b5f47554152414e5445455f52454c454153455f4d414e4147455200008152506040518263ffffffff1660e01b8152600401612929919061750c565b602060405180830381865afa158015612944573d5f803e3d5ffd5b505050506040513d601f19601f820116820180604052508101906129689190617fa1565b73ffffffffffffffffffffffffffffffffffffffff163373ffffffffffffffffffffffffffffffffffffffff16146129d5576040517f08c379a00000000000000000000000000000000000000000000000000000000081526004016129cc90618016565b60405180910390fd5b60025f9054906101000a900473ffffffffffffffffffffffffffffffffffffffff1673ffffffffffffffffffffffffffffffffffffffff1663177d63616040518060400160405280601e81526020017f42414e4b5f47554152414e5445455f52454c454153455f4d414e4147455200008152506040518060400160405280601e81526020017f6d61705f5f62616e6b47756172616e74656552656c65617365496e646578000081525085856040518563ffffffff1660e01b8152600401612a9f9493929190618567565b5f604051808303815f87803b158015612ab6575f80fd5b505af1158015612ac8573d5f803e3d5ffd5b505050505050565b60605f805f60025f9054906101000a900473ffffffffffffffffffffffffffffffffffffffff1673ffffffffffffffffffffffffffffffffffffffff1663bfa9f3eb6040518060400160405280601e81526020017f42414e4b5f47554152414e5445455f52454c454153455f4d414e414745520000815250604051806060016040528060238152602001618973602391398a6040518060400160405280600881526020017f5f5f6c656e677468000000000000000000000000000000000000000000000000815250604051602001612ba8919061806e565b6040516020818303038152906040526040518563ffffffff1660e01b8152600401612bd694939291906180d6565b602060405180830381865afa158015612bf1573d5f803e3d5ffd5b505050506040513d601f19601f82011682018060405250810190612c159190618142565b905080861115612c23578095505b5f868611612c315785612c33565b865b90508067ffffffffffffffff811115612c4f57612c4e6178ff565b5b604051908082528060200260200182016040528015612c7d5781602001602082028036833780820191505090505b5094505b5f811115612dec578080612c94906184ca565b9150508680612ca2906184ca565b97505060025f9054906101000a900473ffffffffffffffffffffffffffffffffffffffff1673ffffffffffffffffffffffffffffffffffffffff1663bfa9f3eb6040518060400160405280601e81526020017f42414e4b5f47554152414e5445455f52454c454153455f4d414e414745520000815250604051806060016040528060238152602001618973602391398b8b604051602001612d43919061818d565b6040516020818303038152906040526040518563ffffffff1660e01b8152600401612d7194939291906180d6565b602060405180830381865afa158015612d8c573d5f803e3d5ffd5b505050506040513d601f19601f82011682018060405250810190612db09190618142565b856001838851612dc091906184f1565b612dca91906184f1565b81518110612ddb57612dda61826d565b5b602002602001018181525050612c81565b869350819250505093509350939050565b60605f805f60025f9054906101000a900473ffffffffffffffffffffffffffffffffffffffff1673ffffffffffffffffffffffffffffffffffffffff16632f79e1026040518060400160405280601e81526020017f42414e4b5f47554152414e5445455f52454c454153455f4d414e4147455200008152506040518060400160405280601b81526020017f6d61705f5f626752656c656173654c697374427942616e6b47494400000000008152508a6040518060400160405280600881526020017f5f5f6c656e677468000000000000000000000000000000000000000000000000815250604051602001612ef2919061806e565b6040516020818303038152906040526040518563ffffffff1660e01b8152600401612f2094939291906185b8565b602060405180830381865afa158015612f3b573d5f803e3d5ffd5b505050506040513d601f19601f82011682018060405250810190612f5f9190618142565b905080861115612f6d578095505b5f868611612f7b5785612f7d565b865b90508067ffffffffffffffff811115612f9957612f986178ff565b5b604051908082528060200260200182016040528015612fc75781602001602082028036833780820191505090505b5094505b5f811115613153578080612fde906184ca565b9150508680612fec906184ca565b97505060025f9054906101000a900473ffffffffffffffffffffffffffffffffffffffff1673ffffffffffffffffffffffffffffffffffffffff16632f79e1026040518060400160405280601e81526020017f42414e4b5f47554152414e5445455f52454c454153455f4d414e4147455200008152506040518060400160405280601b81526020017f6d61705f5f626752656c656173654c697374427942616e6b47494400000000008152508b8b6040516020016130aa919061818d565b6040516020818303038152906040526040518563ffffffff1660e01b81526004016130d894939291906185b8565b602060405180830381865afa1580156130f3573d5f803e3d5ffd5b505050506040513d601f19601f820116820180604052508101906131179190618142565b85600183885161312791906184f1565b61313191906184f1565b815181106131425761314161826d565b5b602002602001018181525050612fcb565b869350819250505093509350939050565b60035f9054906101000a900473ffffffffffffffffffffffffffffffffffffffff1673ffffffffffffffffffffffffffffffffffffffff1663ef02a3fc6040518060400160405280601e81526020017f42414e4b5f47554152414e5445455f52454c454153455f4d414e4147455200008152506040518263ffffffff1660e01b81526004016131f3919061750c565b602060405180830381865afa15801561320e573d5f803e3d5ffd5b505050506040513d601f19601f820116820180604052508101906132329190617fa1565b73ffffffffffffffffffffffffffffffffffffffff163373ffffffffffffffffffffffffffffffffffffffff161461329f576040517f08c379a000000000000000000000000000000000000000000000000000000000815260040161329690618016565b60405180910390fd5b5f60025f9054906101000a900473ffffffffffffffffffffffffffffffffffffffff1673ffffffffffffffffffffffffffffffffffffffff16632f79e1026040518060400160405280601e81526020017f42414e4b5f47554152414e5445455f52454c454153455f4d414e4147455200008152506040518060400160405280601b81526020017f6d61705f5f626752656c656173654c697374427942616e6b47494400000000008152508760c001516040518060400160405280600881526020017f5f5f6c656e677468000000000000000000000000000000000000000000000000815250604051602001613394919061806e565b6040516020818303038152906040526040518563ffffffff1660e01b81526004016133c294939291906185b8565b602060405180830381865afa1580156133dd573d5f803e3d5ffd5b505050506040513d601f19601f820116820180604052508101906134019190618142565b905060025f9054906101000a900473ffffffffffffffffffffffffffffffffffffffff1673ffffffffffffffffffffffffffffffffffffffff166316ae1bfa6040518060400160405280601e81526020017f42414e4b5f47554152414e5445455f52454c454153455f4d414e4147455200008152506040518060400160405280601b81526020017f6d61705f5f626752656c656173654c697374427942616e6b47494400000000008152508760c001516040518060400160405280600881526020017f5f5f6c656e6774680000000000000000000000000000000000000000000000008152506040516020016134f7919061806e565b604051602081830303815290604052866001613513919061823a565b6040518663ffffffff1660e01b8152600401613533959493929190618617565b5f604051808303815f87803b15801561354a575f80fd5b505af115801561355c573d5f803e3d5ffd5b5050505060025f9054906101000a900473ffffffffffffffffffffffffffffffffffffffff1673ffffffffffffffffffffffffffffffffffffffff166316ae1bfa6040518060400160405280601e81526020017f42414e4b5f47554152414e5445455f52454c454153455f4d414e4147455200008152506040518060400160405280601b81526020017f6d61705f5f626752656c656173654c697374427942616e6b47494400000000008152508760c001518560405160200161361f919061818d565b604051602081830303815290604052886040518663ffffffff1660e01b815260040161364f959493929190618617565b5f604051808303815f87803b158015613666575f80fd5b505af1158015613678573d5f803e3d5ffd5b5050505060025f9054906101000a900473ffffffffffffffffffffffffffffffffffffffff1673ffffffffffffffffffffffffffffffffffffffff16632f79e1026040518060400160405280601e81526020017f42414e4b5f47554152414e5445455f52454c454153455f4d414e4147455200008152506040518060400160405280601981526020017f6d61705f5f626752656c656173654c697374427945677049440000000000000081525087608001516040518060400160405280600881526020017f5f5f6c656e677468000000000000000000000000000000000000000000000000815250604051602001613770919061806e565b6040516020818303038152906040526040518563ffffffff1660e01b815260040161379e94939291906185b8565b602060405180830381865afa1580156137b9573d5f803e3d5ffd5b505050506040513d601f19601f820116820180604052508101906137dd9190618142565b905060025f9054906101000a900473ffffffffffffffffffffffffffffffffffffffff1673ffffffffffffffffffffffffffffffffffffffff166316ae1bfa6040518060400160405280601e81526020017f42414e4b5f47554152414e5445455f52454c454153455f4d414e4147455200008152506040518060400160405280601981526020017f6d61705f5f626752656c656173654c697374427945677049440000000000000081525087608001516040518060400160405280600881526020017f5f5f6c656e6774680000000000000000000000000000000000000000000000008152506040516020016138d3919061806e565b6040516020818303038152906040528660016138ef919061823a565b6040518663ffffffff1660e01b815260040161390f959493929190618617565b5f604051808303815f87803b158015613926575f80fd5b505af1158015613938573d5f803e3d5ffd5b5050505060025f9054906101000a900473ffffffffffffffffffffffffffffffffffffffff1673ffffffffffffffffffffffffffffffffffffffff166316ae1bfa6040518060400160405280601e81526020017f42414e4b5f47554152414e5445455f52454c454153455f4d414e4147455200008152506040518060400160405280601981526020017f6d61705f5f626752656c656173654c69737442794567704944000000000000008152508760800151856040516020016139fb919061818d565b604051602081830303815290604052886040518663ffffffff1660e01b8152600401613a2b959493929190618617565b5f604051808303815f87803b158015613a42575f80fd5b505af1158015613a54573d5f803e3d5ffd5b505050505f828560c00151604051602001613a70929190618684565b60405160208183030381529060405280519060200120905060025f9054906101000a900473ffffffffffffffffffffffffffffffffffffffff1673ffffffffffffffffffffffffffffffffffffffff1663bfa9f3eb6040518060400160405280601e81526020017f42414e4b5f47554152414e5445455f52454c454153455f4d414e41474552000081525060405180606001604052806023815260200161897360239139846040518060400160405280600881526020017f5f5f6c656e677468000000000000000000000000000000000000000000000000815250604051602001613b5b919061806e565b6040516020818303038152906040526040518563ffffffff1660e01b8152600401613b8994939291906180d6565b602060405180830381865afa158015613ba4573d5f803e3d5ffd5b505050506040513d601f19601f82011682018060405250810190613bc89190618142565b915060025f9054906101000a900473ffffffffffffffffffffffffffffffffffffffff1673ffffffffffffffffffffffffffffffffffffffff1663cf1e8bd86040518060400160405280601e81526020017f42414e4b5f47554152414e5445455f52454c454153455f4d414e41474552000081525060405180606001604052806023815260200161897360239139846040518060400160405280600881526020017f5f5f6c656e677468000000000000000000000000000000000000000000000000815250604051602001613c9d919061806e565b604051602081830303815290604052876001613cb9919061823a565b6040518663ffffffff1660e01b8152600401613cd99594939291906181a7565b5f604051808303815f87803b158015613cf0575f80fd5b505af1158015613d02573d5f803e3d5ffd5b5050505060025f9054906101000a900473ffffffffffffffffffffffffffffffffffffffff1673ffffffffffffffffffffffffffffffffffffffff1663cf1e8bd86040518060400160405280601e81526020017f42414e4b5f47554152414e5445455f52454c454153455f4d414e414745520000815250604051806060016040528060238152602001618973602391398486604051602001613da4919061818d565b604051602081830303815290604052896040518663ffffffff1660e01b8152600401613dd49594939291906181a7565b5f604051808303815f87803b158015613deb575f80fd5b505af1158015613dfd573d5f803e3d5ffd5b505050505f85604001518660c00151604051602001613e1d929190618684565b60405160208183030381529060405280519060200120905060025f9054906101000a900473ffffffffffffffffffffffffffffffffffffffff1673ffffffffffffffffffffffffffffffffffffffff1663bfa9f3eb6040518060400160405280601e81526020017f42414e4b5f47554152414e5445455f52454c454153455f4d414e41474552000081525060405180606001604052806023815260200161892e60239139846040518060400160405280600881526020017f5f5f6c656e677468000000000000000000000000000000000000000000000000815250604051602001613f08919061806e565b6040516020818303038152906040526040518563ffffffff1660e01b8152600401613f3694939291906180d6565b602060405180830381865afa158015613f51573d5f803e3d5ffd5b505050506040513d601f19601f82011682018060405250810190613f759190618142565b925060025f9054906101000a900473ffffffffffffffffffffffffffffffffffffffff1673ffffffffffffffffffffffffffffffffffffffff1663cf1e8bd86040518060400160405280601e81526020017f42414e4b5f47554152414e5445455f52454c454153455f4d414e41474552000081525060405180606001604052806023815260200161892e60239139846040518060400160405280600881526020017f5f5f6c656e67746800000000000000000000000000000000000000000000000081525060405160200161404a919061806e565b604051602081830303815290604052886001614066919061823a565b6040518663ffffffff1660e01b81526004016140869594939291906181a7565b5f604051808303815f87803b15801561409d575f80fd5b505af11580156140af573d5f803e3d5ffd5b5050505060025f9054906101000a900473ffffffffffffffffffffffffffffffffffffffff1673ffffffffffffffffffffffffffffffffffffffff1663cf1e8bd86040518060400160405280601e81526020017f42414e4b5f47554152414e5445455f52454c454153455f4d414e41474552000081525060405180606001604052806023815260200161892e602391398487604051602001614151919061818d565b6040516020818303038152906040528a6040518663ffffffff1660e01b81526004016141819594939291906181a7565b5f604051808303815f87803b158015614198575f80fd5b505af11580156141aa573d5f803e3d5ffd5b505050506141bc866020015186616d4a565b505050505050565b60605f805f60025f9054906101000a900473ffffffffffffffffffffffffffffffffffffffff1673ffffffffffffffffffffffffffffffffffffffff16632f79e1026040518060400160405280601e81526020017f42414e4b5f47554152414e5445455f52454c454153455f4d414e4147455200008152506040518060400160405280601981526020017f6d61705f5f626752656c656173654c69737442794567704944000000000000008152508a6040518060400160405280600881526020017f5f5f6c656e6774680000000000000000000000000000000000000000000000008152506040516020016142b9919061806e565b6040516020818303038152906040526040518563ffffffff1660e01b81526004016142e794939291906185b8565b602060405180830381865afa158015614302573d5f803e3d5ffd5b505050506040513d601f19601f820116820180604052508101906143269190618142565b905080861115614334578095505b5f8686116143425785614344565b865b90508067ffffffffffffffff8111156143605761435f6178ff565b5b60405190808252806020026020018201604052801561438e5781602001602082028036833780820191505090505b5094505b5f81111561451a5780806143a5906184ca565b91505086806143b3906184ca565b97505060025f9054906101000a900473ffffffffffffffffffffffffffffffffffffffff1673ffffffffffffffffffffffffffffffffffffffff16632f79e1026040518060400160405280601e81526020017f42414e4b5f47554152414e5445455f52454c454153455f4d414e4147455200008152506040518060400160405280601981526020017f6d61705f5f626752656c656173654c69737442794567704944000000000000008152508b8b604051602001614471919061818d565b6040516020818303038152906040526040518563ffffffff1660e01b815260040161449f94939291906185b8565b602060405180830381865afa1580156144ba573d5f803e3d5ffd5b505050506040513d601f19601f820116820180604052508101906144de9190618142565b8560018388516144ee91906184f1565b6144f891906184f1565b815181106145095761450861826d565b5b602002602001018181525050614392565b869350819250505093509350939050565b5f815f60015f9054906101000a900473ffffffffffffffffffffffffffffffffffffffff1673ffffffffffffffffffffffffffffffffffffffff16633bea27536040518060400160405280601e81526020017f42414e4b5f47554152414e5445455f52454c454153455f4d414e4147455200008152506040518060400160405280601e81526020017f6c6973745f5f62616e6b47756172616e74656552656c656173654c69737400008152506040518363ffffffff1660e01b81526004016145f49291906182e1565b602060405180830381865afa15801561460f573d5f803e3d5ffd5b505050506040513d601f19601f820116820180604052508101906146339190618142565b9050808210614677576040517f08c379a000000000000000000000000000000000000000000000000000000000815260040161466e90618360565b60405180910390fd5b60015f9054906101000a900473ffffffffffffffffffffffffffffffffffffffff1673ffffffffffffffffffffffffffffffffffffffff1663b83032bd6040518060400160405280601e81526020017f42414e4b5f47554152414e5445455f52454c454153455f4d414e4147455200008152506040518060400160405280601e81526020017f6c6973745f5f62616e6b47756172616e74656552656c656173654c6973740000815250876040518060400160405280600b81526020017f72656c65617365446174650000000000000000000000000000000000000000008152506040518563ffffffff1660e01b8152600401614776949392919061837e565b602060405180830381865afa158015614791573d5f803e3d5ffd5b505050506040513d601f19601f820116820180604052508101906147b59190618142565b92505050919050565b5f60015f9054906101000a900473ffffffffffffffffffffffffffffffffffffffff1673ffffffffffffffffffffffffffffffffffffffff16633bea27536040518060400160405280601e81526020017f42414e4b5f47554152414e5445455f52454c454153455f4d414e4147455200008152506040518060400160405280601e81526020017f6c6973745f5f62616e6b47756172616e74656552656c656173654c69737400008152506040518363ffffffff1660e01b81526004016148859291906182e1565b602060405180830381865afa1580156148a0573d5f803e3d5ffd5b505050506040513d601f19601f820116820180604052508101906148c49190618142565b905090565b6060815f60015f9054906101000a900473ffffffffffffffffffffffffffffffffffffffff1673ffffffffffffffffffffffffffffffffffffffff16633bea27536040518060400160405280601e81526020017f42414e4b5f47554152414e5445455f52454c454153455f4d414e4147455200008152506040518060400160405280601e81526020017f6c6973745f5f62616e6b47756172616e74656552656c656173654c69737400008152506040518363ffffffff1660e01b81526004016149939291906182e1565b602060405180830381865afa1580156149ae573d5f803e3d5ffd5b505050506040513d601f19601f820116820180604052508101906149d29190618142565b9050808210614a16576040517f08c379a0000000000000000000000000000000000000000000000000000000008152600401614a0d90618360565b60405180910390fd5b60015f9054906101000a900473ffffffffffffffffffffffffffffffffffffffff1673ffffffffffffffffffffffffffffffffffffffff16632136448c6040518060400160405280601e81526020017f42414e4b5f47554152414e5445455f52454c454153455f4d414e4147455200008152506040518060400160405280601e81526020017f6c6973745f5f62616e6b47756172616e74656552656c656173654c6973740000815250876040518060400160405280600b81526020017f65677053797374656d49640000000000000000000000000000000000000000008152506040518563ffffffff1660e01b8152600401614b15949392919061837e565b5f60405180830381865afa158015614b2f573d5f803e3d5ffd5b505050506040513d5f823e3d601f19601f82011682018060405250810190614b579190618444565b92505050919050565b6060815f60015f9054906101000a900473ffffffffffffffffffffffffffffffffffffffff1673ffffffffffffffffffffffffffffffffffffffff16633bea27536040518060400160405280601e81526020017f42414e4b5f47554152414e5445455f52454c454153455f4d414e4147455200008152506040518060400160405280601e81526020017f6c6973745f5f62616e6b47756172616e74656552656c656173654c69737400008152506040518363ffffffff1660e01b8152600401614c2a9291906182e1565b602060405180830381865afa158015614c45573d5f803e3d5ffd5b505050506040513d601f19601f82011682018060405250810190614c699190618142565b9050808210614cad576040517f08c379a0000000000000000000000000000000000000000000000000000000008152600401614ca490618360565b60405180910390fd5b60015f9054906101000a900473ffffffffffffffffffffffffffffffffffffffff1673ffffffffffffffffffffffffffffffffffffffff16632136448c6040518060400160405280601e81526020017f42414e4b5f47554152414e5445455f52454c454153455f4d414e4147455200008152506040518060400160405280601e81526020017f6c6973745f5f62616e6b47756172616e74656552656c656173654c6973740000815250876040518060400160405280600f81526020017f72656c6561736563757272656e637900000000000000000000000000000000008152506040518563ffffffff1660e01b8152600401614dac949392919061837e565b5f60405180830381865afa158015614dc6573d5f803e3d5ffd5b505050506040513d5f823e3d601f19601f82011682018060405250810190614dee9190618444565b92505050919050565b5f815f60015f9054906101000a900473ffffffffffffffffffffffffffffffffffffffff1673ffffffffffffffffffffffffffffffffffffffff16633bea27536040518060400160405280601e81526020017f42414e4b5f47554152414e5445455f52454c454153455f4d414e4147455200008152506040518060400160405280601e81526020017f6c6973745f5f62616e6b47756172616e74656552656c656173654c69737400008152506040518363ffffffff1660e01b8152600401614ec09291906182e1565b602060405180830381865afa158015614edb573d5f803e3d5ffd5b505050506040513d601f19601f82011682018060405250810190614eff9190618142565b9050808210614f43576040517f08c379a0000000000000000000000000000000000000000000000000000000008152600401614f3a90618360565b60405180910390fd5b60015f9054906101000a900473ffffffffffffffffffffffffffffffffffffffff1673ffffffffffffffffffffffffffffffffffffffff16634bcbf1fb6040518060400160405280601e81526020017f42414e4b5f47554152414e5445455f52454c454153455f4d414e4147455200008152506040518060400160405280601e81526020017f6c6973745f5f62616e6b47756172616e74656552656c656173654c6973740000815250876040518060400160405280601081526020017f62616e6b47756172616e746565556964000000000000000000000000000000008152506040518563ffffffff1660e01b8152600401615042949392919061837e565b602060405180830381865afa15801561505d573d5f803e3d5ffd5b505050506040513d601f19601f8201168201806040525081019061508191906186bb565b92505050919050565b5f815f60015f9054906101000a900473ffffffffffffffffffffffffffffffffffffffff1673ffffffffffffffffffffffffffffffffffffffff16633bea27536040518060400160405280601e81526020017f42414e4b5f47554152414e5445455f52454c454153455f4d414e4147455200008152506040518060400160405280601e81526020017f6c6973745f5f62616e6b47756172616e74656552656c656173654c69737400008152506040518363ffffffff1660e01b81526004016151539291906182e1565b602060405180830381865afa15801561516e573d5f803e3d5ffd5b505050506040513d601f19601f820116820180604052508101906151929190618142565b90508082106151d6576040517f08c379a00000000000000000000000000000000000000000000000000000000081526004016151cd90618360565b60405180910390fd5b60015f9054906101000a900473ffffffffffffffffffffffffffffffffffffffff1673ffffffffffffffffffffffffffffffffffffffff16634bcbf1fb6040518060400160405280601e81526020017f42414e4b5f47554152414e5445455f52454c454153455f4d414e4147455200008152506040518060400160405280601e81526020017f6c6973745f5f62616e6b47756172616e74656552656c656173654c6973740000815250876040518060400160405280600381526020017f75696400000000000000000000000000000000000000000000000000000000008152506040518563ffffffff1660e01b81526004016152d5949392919061837e565b602060405180830381865afa1580156152f0573d5f803e3d5ffd5b505050506040513d601f19601f8201168201806040525081019061531491906186bb565b92505050919050565b6153256171e1565b815f60015f9054906101000a900473ffffffffffffffffffffffffffffffffffffffff1673ffffffffffffffffffffffffffffffffffffffff16633bea27536040518060400160405280601e81526020017f42414e4b5f47554152414e5445455f52454c454153455f4d414e4147455200008152506040518060400160405280601e81526020017f6c6973745f5f62616e6b47756172616e74656552656c656173654c69737400008152506040518363ffffffff1660e01b81526004016153ed9291906182e1565b602060405180830381865afa158015615408573d5f803e3d5ffd5b505050506040513d601f19601f8201168201806040525081019061542c9190618142565b9050808210615470576040517f08c379a000000000000000000000000000000000000000000000000000000000815260040161546790618360565b60405180910390fd5b6154798461508a565b835f019077ffffffffffffffffffffffffffffffffffffffffffffffff1916908177ffffffffffffffffffffffffffffffffffffffffffffffff1916815250506154c284614df7565b836020019077ffffffffffffffffffffffffffffffffffffffffffffffff1916908177ffffffffffffffffffffffffffffffffffffffffffffffff19168152505061550c8461236c565b836040018190525061551d84612603565b836060018190525061552e846148c9565b836080018190525061553f84611d43565b8360a0018190525061555084610eb3565b8360c0018190525061556184611fda565b8360e001819052506155728461452b565b8361010001818152505061558584614b60565b83610120018190525061559784611674565b836101400181815250506155aa846113dd565b8361016001819052506155bc8461114a565b83610180019061ffff16908161ffff16815250505050919050565b60605f805f60025f9054906101000a900473ffffffffffffffffffffffffffffffffffffffff1673ffffffffffffffffffffffffffffffffffffffff1663bfa9f3eb6040518060400160405280601e81526020017f42414e4b5f47554152414e5445455f52454c454153455f4d414e41474552000081525060405180606001604052806023815260200161892e602391398a6040518060400160405280600881526020017f5f5f6c656e6774680000000000000000000000000000000000000000000000008152506040516020016156af919061806e565b6040516020818303038152906040526040518563ffffffff1660e01b81526004016156dd94939291906180d6565b602060405180830381865afa1580156156f8573d5f803e3d5ffd5b505050506040513d601f19601f8201168201806040525081019061571c9190618142565b90508086111561572a578095505b5f868611615738578561573a565b865b90508067ffffffffffffffff811115615756576157556178ff565b5b6040519080825280602002602001820160405280156157845781602001602082028036833780820191505090505b5094505b5f8111156158f357808061579b906184ca565b91505086806157a9906184ca565b97505060025f9054906101000a900473ffffffffffffffffffffffffffffffffffffffff1673ffffffffffffffffffffffffffffffffffffffff1663bfa9f3eb6040518060400160405280601e81526020017f42414e4b5f47554152414e5445455f52454c454153455f4d414e41474552000081525060405180606001604052806023815260200161892e602391398b8b60405160200161584a919061818d565b6040516020818303038152906040526040518563ffffffff1660e01b815260040161587894939291906180d6565b602060405180830381865afa158015615893573d5f803e3d5ffd5b505050506040513d601f19601f820116820180604052508101906158b79190618142565b8560018388516158c791906184f1565b6158d191906184f1565b815181106158e2576158e161826d565b5b602002602001018181525050615788565b869350819250505093509350939050565b60035f9054906101000a900473ffffffffffffffffffffffffffffffffffffffff1673ffffffffffffffffffffffffffffffffffffffff1663ef02a3fc6040518060400160405280601e81526020017f42414e4b5f47554152414e5445455f52454c454153455f4d414e4147455200008152506040518263ffffffff1660e01b8152600401615993919061750c565b602060405180830381865afa1580156159ae573d5f803e3d5ffd5b505050506040513d601f19601f820116820180604052508101906159d29190617fa1565b73ffffffffffffffffffffffffffffffffffffffff163373ffffffffffffffffffffffffffffffffffffffff1614615a3f576040517f08c379a0000000000000000000000000000000000000000000000000000000008152600401615a3690618016565b60405180910390fd5b60015f9054906101000a900473ffffffffffffffffffffffffffffffffffffffff1673ffffffffffffffffffffffffffffffffffffffff1663a24a899b6040518060400160405280601e81526020017f42414e4b5f47554152414e5445455f52454c454153455f4d414e4147455200008152506040518060400160405280601e81526020017f6c6973745f5f62616e6b47756172616e74656552656c656173654c69737400008152506040518363ffffffff1660e01b8152600401615b059291906182e1565b5f604051808303815f87803b158015615b1c575f80fd5b505af1158015615b2e573d5f803e3d5ffd5b50505050565b60035f9054906101000a900473ffffffffffffffffffffffffffffffffffffffff1673ffffffffffffffffffffffffffffffffffffffff1663ef02a3fc6040518060400160405280601e81526020017f42414e4b5f47554152414e5445455f52454c454153455f4d414e4147455200008152506040518263ffffffff1660e01b8152600401615bc3919061750c565b602060405180830381865afa158015615bde573d5f803e3d5ffd5b505050506040513d601f19601f82011682018060405250810190615c029190617fa1565b73ffffffffffffffffffffffffffffffffffffffff163373ffffffffffffffffffffffffffffffffffffffff1614615c6f576040517f08c379a0000000000000000000000000000000000000000000000000000000008152600401615c6690618016565b60405180910390fd5b815f60015f9054906101000a900473ffffffffffffffffffffffffffffffffffffffff1673ffffffffffffffffffffffffffffffffffffffff16633bea27536040518060400160405280601e81526020017f42414e4b5f47554152414e5445455f52454c454153455f4d414e4147455200008152506040518060400160405280601e81526020017f6c6973745f5f62616e6b47756172616e74656552656c656173654c69737400008152506040518363ffffffff1660e01b8152600401615d379291906182e1565b602060405180830381865afa158015615d52573d5f803e3d5ffd5b505050506040513d601f19601f82011682018060405250810190615d769190618142565b9050808210615dba576040517f08c379a0000000000000000000000000000000000000000000000000000000008152600401615db190618360565b60405180910390fd5b60015f9054906101000a900473ffffffffffffffffffffffffffffffffffffffff1673ffffffffffffffffffffffffffffffffffffffff1663a06fd4546040518060400160405280601e81526020017f42414e4b5f47554152414e5445455f52454c454153455f4d414e4147455200008152506040518060400160405280601e81526020017f6c6973745f5f62616e6b47756172616e74656552656c656173654c6973740000815250876040518060400160405280600381526020017f7569640000000000000000000000000000000000000000000000000000000000815250885f01516040518663ffffffff1660e01b8152600401615ebe9594939291906186e6565b5f604051808303815f87803b158015615ed5575f80fd5b505af1158015615ee7573d5f803e3d5ffd5b5050505060015f9054906101000a900473ffffffffffffffffffffffffffffffffffffffff1673ffffffffffffffffffffffffffffffffffffffff1663a06fd4546040518060400160405280601e81526020017f42414e4b5f47554152414e5445455f52454c454153455f4d414e4147455200008152506040518060400160405280601e81526020017f6c6973745f5f62616e6b47756172616e74656552656c656173654c6973740000815250876040518060400160405280601081526020017f62616e6b47756172616e7465655569640000000000000000000000000000000081525088602001516040518663ffffffff1660e01b8152600401615ff09594939291906186e6565b5f604051808303815f87803b158015616007575f80fd5b505af1158015616019573d5f803e3d5ffd5b5050505060015f9054906101000a900473ffffffffffffffffffffffffffffffffffffffff1673ffffffffffffffffffffffffffffffffffffffff1663c8f1cd876040518060400160405280601e81526020017f42414e4b5f47554152414e5445455f52454c454153455f4d414e4147455200008152506040518060400160405280601e81526020017f6c6973745f5f62616e6b47756172616e74656552656c656173654c6973740000815250876040518060400160405280601081526020017f7061796d656e745265666572656e63650000000000000000000000000000000081525088604001516040518663ffffffff1660e01b815260040161612295949392919061874c565b5f604051808303815f87803b158015616139575f80fd5b505af115801561614b573d5f803e3d5ffd5b5050505060015f9054906101000a900473ffffffffffffffffffffffffffffffffffffffff1673ffffffffffffffffffffffffffffffffffffffff1663c8f1cd876040518060400160405280601e81526020017f42414e4b5f47554152414e5445455f52454c454153455f4d414e4147455200008152506040518060400160405280601e81526020017f6c6973745f5f62616e6b47756172616e74656552656c656173654c6973740000815250876040518060400160405280601281526020017f70726f637572696e67456e74697479476964000000000000000000000000000081525088606001516040518663ffffffff1660e01b815260040161625495949392919061874c565b5f604051808303815f87803b15801561626b575f80fd5b505af115801561627d573d5f803e3d5ffd5b5050505060015f9054906101000a900473ffffffffffffffffffffffffffffffffffffffff1673ffffffffffffffffffffffffffffffffffffffff1663c8f1cd876040518060400160405280601e81526020017f42414e4b5f47554152414e5445455f52454c454153455f4d414e4147455200008152506040518060400160405280601e81526020017f6c6973745f5f62616e6b47756172616e74656552656c656173654c6973740000815250876040518060400160405280600b81526020017f65677053797374656d496400000000000000000000000000000000000000000081525088608001516040518663ffffffff1660e01b815260040161638695949392919061874c565b5f604051808303815f87803b15801561639d575f80fd5b505af11580156163af573d5f803e3d5ffd5b5050505060015f9054906101000a900473ffffffffffffffffffffffffffffffffffffffff1673ffffffffffffffffffffffffffffffffffffffff1663c8f1cd876040518060400160405280601e81526020017f42414e4b5f47554152414e5445455f52454c454153455f4d414e4147455200008152506040518060400160405280601e81526020017f6c6973745f5f62616e6b47756172616e74656552656c656173654c6973740000815250876040518060400160405280600981526020017f76656e646f7247696400000000000000000000000000000000000000000000008152508860a001516040518663ffffffff1660e01b81526004016164b895949392919061874c565b5f604051808303815f87803b1580156164cf575f80fd5b505af11580156164e1573d5f803e3d5ffd5b5050505060015f9054906101000a900473ffffffffffffffffffffffffffffffffffffffff1673ffffffffffffffffffffffffffffffffffffffff1663c8f1cd876040518060400160405280601e81526020017f42414e4b5f47554152414e5445455f52454c454153455f4d414e4147455200008152506040518060400160405280601e81526020017f6c6973745f5f62616e6b47756172616e74656552656c656173654c6973740000815250876040518060400160405280600781526020017f62616e6b476964000000000000000000000000000000000000000000000000008152508860c001516040518663ffffffff1660e01b81526004016165ea95949392919061874c565b5f604051808303815f87803b158015616601575f80fd5b505af1158015616613573d5f803e3d5ffd5b5050505060015f9054906101000a900473ffffffffffffffffffffffffffffffffffffffff1673ffffffffffffffffffffffffffffffffffffffff1663c8f1cd876040518060400160405280601e81526020017f42414e4b5f47554152414e5445455f52454c454153455f4d414e4147455200008152506040518060400160405280601e81526020017f6c6973745f5f62616e6b47756172616e74656552656c656173654c6973740000815250876040518060400160405280600a81526020017f6272616e63684e616d65000000000000000000000000000000000000000000008152508860e001516040518663ffffffff1660e01b815260040161671c95949392919061874c565b5f604051808303815f87803b158015616733575f80fd5b505af1158015616745573d5f803e3d5ffd5b5050505060015f9054906101000a900473ffffffffffffffffffffffffffffffffffffffff1673ffffffffffffffffffffffffffffffffffffffff16637f02dd826040518060400160405280601e81526020017f42414e4b5f47554152414e5445455f52454c454153455f4d414e4147455200008152506040518060400160405280601e81526020017f6c6973745f5f62616e6b47756172616e74656552656c656173654c6973740000815250876040518060400160405280600b81526020017f72656c65617365446174650000000000000000000000000000000000000000008152508861010001516040518663ffffffff1660e01b815260040161684f9594939291906187b9565b5f604051808303815f87803b158015616866575f80fd5b505af1158015616878573d5f803e3d5ffd5b5050505060015f9054906101000a900473ffffffffffffffffffffffffffffffffffffffff1673ffffffffffffffffffffffffffffffffffffffff1663c8f1cd876040518060400160405280601e81526020017f42414e4b5f47554152414e5445455f52454c454153455f4d414e4147455200008152506040518060400160405280601e81526020017f6c6973745f5f62616e6b47756172616e74656552656c656173654c6973740000815250876040518060400160405280600f81526020017f72656c6561736563757272656e637900000000000000000000000000000000008152508861012001516040518663ffffffff1660e01b815260040161698295949392919061874c565b5f604051808303815f87803b158015616999575f80fd5b505af11580156169ab573d5f803e3d5ffd5b5050505060015f9054906101000a900473ffffffffffffffffffffffffffffffffffffffff1673ffffffffffffffffffffffffffffffffffffffff16637f02dd826040518060400160405280601e81526020017f42414e4b5f47554152414e5445455f52454c454153455f4d414e4147455200008152506040518060400160405280601e81526020017f6c6973745f5f62616e6b47756172616e74656552656c656173654c6973740000815250876040518060400160405280600e81526020017f616d6f756e7452656c65617365640000000000000000000000000000000000008152508861014001516040518663ffffffff1660e01b8152600401616ab59594939291906187b9565b5f604051808303815f87803b158015616acc575f80fd5b505af1158015616ade573d5f803e3d5ffd5b5050505060015f9054906101000a900473ffffffffffffffffffffffffffffffffffffffff1673ffffffffffffffffffffffffffffffffffffffff1663c8f1cd876040518060400160405280601e81526020017f42414e4b5f47554152414e5445455f52454c454153455f4d414e4147455200008152506040518060400160405280601e81526020017f6c6973745f5f62616e6b47756172616e74656552656c656173654c6973740000815250876040518060400160405280601181526020017f626752656c6561736546696c65486173680000000000000000000000000000008152508861016001516040518663ffffffff1660e01b8152600401616be895949392919061874c565b5f604051808303815f87803b158015616bff575f80fd5b505af1158015616c11573d5f803e3d5ffd5b5050505060015f9054906101000a900473ffffffffffffffffffffffffffffffffffffffff1673ffffffffffffffffffffffffffffffffffffffff1663c4f188576040518060400160405280601e81526020017f42414e4b5f47554152414e5445455f52454c454153455f4d414e4147455200008152506040518060400160405280601e81526020017f6c6973745f5f62616e6b47756172616e74656552656c656173654c6973740000815250876040518060400160405280600781526020017f76657273696f6e0000000000000000000000000000000000000000000000000081525060016040518663ffffffff1660e01b8152600401616d1795949392919061881f565b5f604051808303815f87803b158015616d2e575f80fd5b505af1158015616d40573d5f803e3d5ffd5b5050505050505050565b5f60025f9054906101000a900473ffffffffffffffffffffffffffffffffffffffff1673ffffffffffffffffffffffffffffffffffffffff1663bfa9f3eb6040518060400160405280601e81526020017f42414e4b5f47554152414e5445455f52454c454153455f4d414e41474552000081525060405180606001604052806022815260200161895160229139866040518060400160405280600881526020017f5f5f6c656e677468000000000000000000000000000000000000000000000000815250604051602001616e1e919061806e565b6040516020818303038152906040526040518563ffffffff1660e01b8152600401616e4c94939291906180d6565b602060405180830381865afa158015616e67573d5f803e3d5ffd5b505050506040513d601f19601f82011682018060405250810190616e8b9190618142565b905060025f9054906101000a900473ffffffffffffffffffffffffffffffffffffffff1673ffffffffffffffffffffffffffffffffffffffff1663cf1e8bd86040518060400160405280601e81526020017f42414e4b5f47554152414e5445455f52454c454153455f4d414e41474552000081525060405180606001604052806022815260200161895160229139866040518060400160405280600881526020017f5f5f6c656e677468000000000000000000000000000000000000000000000000815250604051602001616f60919061806e565b604051602081830303815290604052866001616f7c919061823a565b6040518663ffffffff1660e01b8152600401616f9c9594939291906181a7565b5f604051808303815f87803b158015616fb3575f80fd5b505af1158015616fc5573d5f803e3d5ffd5b5050505060025f9054906101000a900473ffffffffffffffffffffffffffffffffffffffff1673ffffffffffffffffffffffffffffffffffffffff1663cf1e8bd86040518060400160405280601e81526020017f42414e4b5f47554152414e5445455f52454c454153455f4d414e414745520000815250604051806060016040528060228152602001618951602291398685604051602001617067919061818d565b604051602081830303815290604052876040518663ffffffff1660e01b81526004016170979594939291906181a7565b5f604051808303815f87803b1580156170ae575f80fd5b505af11580156170c0573d5f803e3d5ffd5b5050505060025f9054906101000a900473ffffffffffffffffffffffffffffffffffffffff1673ffffffffffffffffffffffffffffffffffffffff1663cf1e8bd86040518060400160405280601e81526020017f42414e4b5f47554152414e5445455f52454c454153455f4d414e4147455200008152506040518060400160405280601f81526020017f6d61705f5f6d6170426752656c65617365416e64496e766f6b65427955696400815250868660405160200161717f919061818d565b6040516020818303038152906040525f6040518663ffffffff1660e01b81526004016171af9594939291906188c7565b5f604051808303815f87803b1580156171c6575f80fd5b505af11580156171d8573d5f803e3d5ffd5b50505050505050565b604051806101a001604052805f77ffffffffffffffffffffffffffffffffffffffffffffffff191681526020015f77ffffffffffffffffffffffffffffffffffffffffffffffff191681526020016060815260200160608152602001606081526020016060815260200160608152602001606081526020015f8152602001606081526020015f8152602001606081526020015f61ffff1681525090565b5f604051905090565b5f80fd5b5f80fd5b5f7fffffffffffffffff00000000000000000000000000000000000000000000000082169050919050565b6172c38161728f565b81146172cd575f80fd5b50565b5f813590506172de816172ba565b92915050565b5f819050919050565b6172f6816172e4565b8114617300575f80fd5b50565b5f81359050617311816172ed565b92915050565b5f806040838503121561732d5761732c617287565b5b5f61733a858286016172d0565b925050602061734b85828601617303565b9150509250929050565b5f6020828403121561736a57617369617287565b5b5f617377848285016172d0565b91505092915050565b5f81519050919050565b5f82825260208201905092915050565b5f819050602082019050919050565b6173b2816172e4565b82525050565b5f6173c383836173a9565b60208301905092915050565b5f602082019050919050565b5f6173e582617380565b6173ef818561738a565b93506173fa8361739a565b805f5b8381101561742a57815161741188826173b8565b975061741c836173cf565b9250506001810190506173fd565b5085935050505092915050565b5f6020820190508181035f83015261744f81846173db565b905092915050565b5f6020828403121561746c5761746b617287565b5b5f61747984828501617303565b91505092915050565b5f81519050919050565b5f82825260208201905092915050565b5f5b838110156174b957808201518184015260208101905061749e565b5f8484015250505050565b5f601f19601f8301169050919050565b5f6174de82617482565b6174e8818561748c565b93506174f881856020860161749c565b617501816174c4565b840191505092915050565b5f6020820190508181035f83015261752481846174d4565b905092915050565b5f61ffff82169050919050565b6175428161752c565b82525050565b5f60208201905061755b5f830184617539565b92915050565b61756a816172e4565b82525050565b5f6020820190506175835f830184617561565b92915050565b5f805f606084860312156175a05761759f617287565b5b5f6175ad868287016172d0565b93505060206175be86828701617303565b92505060406175cf86828701617303565b9150509250925092565b5f6060820190508181035f8301526175f181866173db565b90506176006020830185617561565b61760d6040830184617561565b949350505050565b5f806040838503121561762b5761762a617287565b5b5f61763885828601617303565b925050602061764985828601617303565b9150509250929050565b5f81519050919050565b5f82825260208201905092915050565b5f819050602082019050919050565b6176858161728f565b82525050565b5f82825260208201905092915050565b5f6176a582617482565b6176af818561768b565b93506176bf81856020860161749c565b6176c8816174c4565b840191505092915050565b6176dc8161752c565b82525050565b5f6101a083015f8301516176f85f86018261767c565b50602083015161770b602086018261767c565b5060408301518482036040860152617723828261769b565b9150506060830151848203606086015261773d828261769b565b91505060808301518482036080860152617757828261769b565b91505060a083015184820360a0860152617771828261769b565b91505060c083015184820360c086015261778b828261769b565b91505060e083015184820360e08601526177a5828261769b565b9150506101008301516177bc6101008601826173a9565b506101208301518482036101208601526177d6828261769b565b9150506101408301516177ed6101408601826173a9565b50610160830151848203610160860152617807828261769b565b91505061018083015161781e6101808601826176d3565b508091505092915050565b5f61783483836176e2565b905092915050565b5f602082019050919050565b5f61785282617653565b61785c818561765d565b93508360208202850161786e8561766d565b805f5b858110156178a9578484038952815161788a8582617829565b94506178958361783c565b925060208a01995050600181019050617871565b50829750879550505050505092915050565b5f6060820190508181035f8301526178d38186617848565b90506178e26020830185617561565b6178ef6040830184617561565b949350505050565b5f80fd5b5f80fd5b7f4e487b71000000000000000000000000000000000000000000000000000000005f52604160045260245ffd5b617935826174c4565b810181811067ffffffffffffffff82111715617954576179536178ff565b5b80604052505050565b5f61796661727e565b9050617972828261792c565b919050565b5f67ffffffffffffffff821115617991576179906178ff565b5b61799a826174c4565b9050602081019050919050565b828183375f83830152505050565b5f6179c76179c284617977565b61795d565b9050828152602081018484840111156179e3576179e26178fb565b5b6179ee8482856179a7565b509392505050565b5f82601f830112617a0a57617a096178f7565b5b8135617a1a8482602086016179b5565b91505092915050565b5f805f60608486031215617a3a57617a39617287565b5b5f84013567ffffffffffffffff811115617a5757617a5661728b565b5b617a63868287016179f6565b9350506020617a7486828701617303565b9250506040617a8586828701617303565b9150509250925092565b5f80fd5b5f80fd5b617aa08161752c565b8114617aaa575f80fd5b50565b5f81359050617abb81617a97565b92915050565b5f6101a08284031215617ad757617ad6617a8f565b5b617ae26101a061795d565b90505f617af1848285016172d0565b5f830152506020617b04848285016172d0565b602083015250604082013567ffffffffffffffff811115617b2857617b27617a93565b5b617b34848285016179f6565b604083015250606082013567ffffffffffffffff811115617b5857617b57617a93565b5b617b64848285016179f6565b606083015250608082013567ffffffffffffffff811115617b8857617b87617a93565b5b617b94848285016179f6565b60808301525060a082013567ffffffffffffffff811115617bb857617bb7617a93565b5b617bc4848285016179f6565b60a08301525060c082013567ffffffffffffffff811115617be857617be7617a93565b5b617bf4848285016179f6565b60c08301525060e082013567ffffffffffffffff811115617c1857617c17617a93565b5b617c24848285016179f6565b60e083015250610100617c3984828501617303565b6101008301525061012082013567ffffffffffffffff811115617c5f57617c5e617a93565b5b617c6b848285016179f6565b61012083015250610140617c8184828501617303565b6101408301525061016082013567ffffffffffffffff811115617ca757617ca6617a93565b5b617cb3848285016179f6565b61016083015250610180617cc984828501617aad565b6101808301525092915050565b5f805f60608486031215617ced57617cec617287565b5b5f84013567ffffffffffffffff811115617d0a57617d0961728b565b5b617d1686828701617ac1565b9350506020617d2786828701617303565b925050604084013567ffffffffffffffff811115617d4857617d4761728b565b5b617d54868287016179f6565b9150509250925092565b617d678161728f565b82525050565b5f602082019050617d805f830184617d5e565b92915050565b5f6101a083015f830151617d9c5f86018261767c565b506020830151617daf602086018261767c565b5060408301518482036040860152617dc7828261769b565b91505060608301518482036060860152617de1828261769b565b91505060808301518482036080860152617dfb828261769b565b91505060a083015184820360a0860152617e15828261769b565b91505060c083015184820360c0860152617e2f828261769b565b91505060e083015184820360e0860152617e49828261769b565b915050610100830151617e606101008601826173a9565b50610120830151848203610120860152617e7a828261769b565b915050610140830151617e916101408601826173a9565b50610160830151848203610160860152617eab828261769b565b915050610180830151617ec26101808601826176d3565b508091505092915050565b5f6020820190508181035f830152617ee58184617d86565b905092915050565b5f8060408385031215617f0357617f02617287565b5b5f617f1085828601617303565b925050602083013567ffffffffffffffff811115617f3157617f3061728b565b5b617f3d85828601617ac1565b9150509250929050565b5f73ffffffffffffffffffffffffffffffffffffffff82169050919050565b5f617f7082617f47565b9050919050565b617f8081617f66565b8114617f8a575f80fd5b50565b5f81519050617f9b81617f77565b92915050565b5f60208284031215617fb657617fb5617287565b5b5f617fc384828501617f8d565b91505092915050565b7f556e617574686f72697a656420436f6e74726163742043616c6c0000000000005f82015250565b5f618000601a8361748c565b915061800b82617fcc565b602082019050919050565b5f6020820190508181035f83015261802d81617ff4565b9050919050565b5f81905092915050565b5f61804882617482565b6180528185618034565b935061806281856020860161749c565b80840191505092915050565b5f618079828461803e565b915081905092915050565b5f81519050919050565b5f82825260208201905092915050565b5f6180a882618084565b6180b2818561808e565b93506180c281856020860161749c565b6180cb816174c4565b840191505092915050565b5f6080820190508181035f8301526180ee81876174d4565b9050818103602083015261810281866174d4565b90506181116040830185617d5e565b8181036060830152618123818461809e565b905095945050505050565b5f8151905061813c816172ed565b92915050565b5f6020828403121561815757618156617287565b5b5f6181648482850161812e565b91505092915050565b5f819050919050565b618187618182826172e4565b61816d565b82525050565b5f6181988284618176565b60208201915081905092915050565b5f60a0820190508181035f8301526181bf81886174d4565b905081810360208301526181d381876174d4565b90506181e26040830186617d5e565b81810360608301526181f4818561809e565b90506182036080830184617561565b9695505050505050565b7f4e487b71000000000000000000000000000000000000000000000000000000005f52601160045260245ffd5b5f618244826172e4565b915061824f836172e4565b92508282019050808211156182675761826661820d565b5b92915050565b7f4e487b71000000000000000000000000000000000000000000000000000000005f52603260045260245ffd5b5f6182a4826172e4565b91507fffffffffffffffffffffffffffffffffffffffffffffffffffffffffffffffff82036182d6576182d561820d565b5b600182019050919050565b5f6040820190508181035f8301526182f981856174d4565b9050818103602083015261830d81846174d4565b90509392505050565b7f496e64657820496e76616c6964000000000000000000000000000000000000005f82015250565b5f61834a600d8361748c565b915061835582618316565b602082019050919050565b5f6020820190508181035f8301526183778161833e565b9050919050565b5f6080820190508181035f83015261839681876174d4565b905081810360208301526183aa81866174d4565b90506183b96040830185617561565b81810360608301526183cb81846174d4565b905095945050505050565b5f6183e86183e384617977565b61795d565b905082815260208101848484011115618404576184036178fb565b5b61840f84828561749c565b509392505050565b5f82601f83011261842b5761842a6178f7565b5b815161843b8482602086016183d6565b91505092915050565b5f6020828403121561845957618458617287565b5b5f82015167ffffffffffffffff8111156184765761847561728b565b5b61848284828501618417565b91505092915050565b5f8151905061849981617a97565b92915050565b5f602082840312156184b4576184b3617287565b5b5f6184c18482850161848b565b91505092915050565b5f6184d4826172e4565b91505f82036184e6576184e561820d565b5b600182039050919050565b5f6184fb826172e4565b9150618506836172e4565b925082820390508181111561851e5761851d61820d565b5b92915050565b5f6060820190508181035f83015261853c81866174d4565b9050818103602083015261855081856174d4565b905061855f6040830184617d5e565b949350505050565b5f6080820190508181035f83015261857f81876174d4565b9050818103602083015261859381866174d4565b90506185a26040830185617d5e565b6185af6060830184617561565b95945050505050565b5f6080820190508181035f8301526185d081876174d4565b905081810360208301526185e481866174d4565b905081810360408301526185f881856174d4565b9050818103606083015261860c818461809e565b905095945050505050565b5f60a0820190508181035f83015261862f81886174d4565b9050818103602083015261864381876174d4565b9050818103604083015261865781866174d4565b9050818103606083015261866b818561809e565b905061867a6080830184617561565b9695505050505050565b5f61868f828561803e565b915061869b828461803e565b91508190509392505050565b5f815190506186b5816172ba565b92915050565b5f602082840312156186d0576186cf617287565b5b5f6186dd848285016186a7565b91505092915050565b5f60a0820190508181035f8301526186fe81886174d4565b9050818103602083015261871281876174d4565b90506187216040830186617561565b818103606083015261873381856174d4565b90506187426080830184617d5e565b9695505050505050565b5f60a0820190508181035f83015261876481886174d4565b9050818103602083015261877881876174d4565b90506187876040830186617561565b818103606083015261879981856174d4565b905081810360808301526187ad81846174d4565b90509695505050505050565b5f60a0820190508181035f8301526187d181886174d4565b905081810360208301526187e581876174d4565b90506187f46040830186617561565b818103606083015261880681856174d4565b90506188156080830184617561565b9695505050505050565b5f60a0820190508181035f83015261883781886174d4565b9050818103602083015261884b81876174d4565b905061885a6040830186617561565b818103606083015261886c81856174d4565b905061887b6080830184617539565b9695505050505050565b5f819050919050565b5f819050919050565b5f6188b16188ac6188a784618885565b61888e565b6172e4565b9050919050565b6188c181618897565b82525050565b5f60a0820190508181035f8301526188df81886174d4565b905081810360208301526188f381876174d4565b90506189026040830186617d5e565b8181036060830152618914818561809e565b905061892360808301846188b8565b969550505050505056fe6d61705f5f626752656c656173654c69737442795061526566416e6442616e6b4769646d61705f5f626752656c65617365416e64496e766f6b654c697374427942675569646d61705f5f626752656c656173654c69737442794267526566416e6442616e6b476964a264697066735822122007cd860f84ece29d0bcd666db42e3a63058a38bd88b2393acb202b8ead623d0864736f6c63430008140033",
  "immutableReferences": {},
  "source": "pragma solidity ^0.8.0;\npragma experimental ABIEncoderV2;\n\nimport \"./MemberStorage.sol\";\nimport \"./ListStorage.sol\";\nimport \"./MapStorage.sol\";\nimport \"./QuireContracts.sol\";\n\ncontract BankGuaranteeReleaseStructs{\n\n    uint16 constant internal __VERSION__ = 1;\n\n    struct BankGuaranteeRelease {\n        bytes8 uid;\n        bytes8 bankGuaranteeUid;\n        string paymentReference;\n        string procuringEntityGid;\n        string egpSystemId;\n        string vendorGid;\n        string bankGid;\n        string branchName;\n        uint releaseDate;\n        string currency;\n        uint amountReleased;\n        string bgReleaseFileHash;\n        uint16 version;\n    }\n\n    string constant internal propNameBgReleaseUid = \"uid\";\n    string constant internal propNameBgReleaseBankGuaranteeUid = \"bankGuaranteeUid\";\n    string constant internal propNameBgReleasePaymentReference = \"paymentReference\";\n    string constant internal propNameBgReleaseProcuringEntityGid = \"procuringEntityGid\";\n    string constant internal propNameBgReleaseEgpSystemId = \"egpSystemId\";\n    string constant internal propNameBgReleaseVendorGid = \"vendorGid\";\n    string constant internal propNameBgReleaseBankGid = \"bankGid\";\n    string constant internal propNameBgReleaseBranchName = \"branchName\";\n    string constant internal propNameBgReleaseReleaseDate = \"releaseDate\";\n    string constant internal propNameBgReleaseCurrencyType = \"releasecurrency\";\n    string constant internal propNameBgReleaseAmountReleased = \"amountReleased\";\n    string constant internal propNameBgReleaseBgReleaseFileHash = \"bgReleaseFileHash\";\n    string constant internal propNameBgReleaseVersion = \"version\";\n\n    \n\n}\n\ncontract BankGuaranteeReleaseModel is BankGuaranteeReleaseStructs {\n    \n    MemberStorage private Member;\n    ListStorage private List;\n    MapStorage private Map;\n    QuireContracts private quireContracts;\n    \n    constructor(\n        address _Member,\n        address _List,\n        address _Map,\n        address _quireContracts\n    ){\n        Member = MemberStorage(_Member);\n        List = ListStorage(_List);\n        Map = MapStorage(_Map);\n        quireContracts = QuireContracts(_quireContracts);\n    }\n\n    string constant internal KEY = \"BANK_GUARANTEE_RELEASE_MANAGER\";\n    string constant internal keyListLength = \"__length\";\n\n\n    string constant internal bankGuaranteeReleaseList = \"list__bankGuaranteeReleaseList\";\n    string constant internal bankGuaranteeReleaseIndex = \"map__bankGuaranteeReleaseIndex\";\n    string constant internal bgReleaseIndexListByBgUid = \"map__bgReleaseIndexListByBgUid\";\n    string constant internal bgReleaseListByBankGID = \"map__bgReleaseListByBankGID\";\n    string constant internal bgReleaseListByEgpID = \"map__bgReleaseListByEgpID\";\n    string constant internal bgReleaseListByBgRefAndBankGid = \"map__bgReleaseListByBgRefAndBankGid\";\n    string constant internal bgReleaseListByPaRefAndBankGid = \"map__bgReleaseListByPaRefAndBankGid\";\n\n\n    string constant internal bgReleaseAndInvokeListByBgUid = \"map__bgReleaseAndInvokeListByBgUid\";\n    string constant internal mapBgReleaseAndInvokeByUid = \"map__mapBgReleaseAndInvokeByUid\";\n\n    \n\n    modifier onlyBankGuaranteeReleaseManager() {\n        require(msg.sender==quireContracts.getRegisteredContract(KEY), \"Unauthorized Contract Call\");\n        _;\n    }\n\n    modifier validBankGuaranteeReleaseListIndex(uint256 _index){\n        uint256 length = List.getLength(KEY, bankGuaranteeReleaseList);\n        require(_index < length, \"Index Invalid\");\n        _;\n    }\n\n    \n\n    //RELEASE\n\n    function getBankGuaranteeReleaseIndex(bytes8 _uid) public view returns (uint256) {\n        return Map.getBytes8ToUint(KEY, bankGuaranteeReleaseIndex, _uid);\n    }\n\n    function getBgReleaseIndexListByBgUid(bytes8 _uid) public view returns (uint[] memory bgReleaseIndexList_) {\n        uint length = Map.getByKeyBytes8ToUint(KEY, bgReleaseIndexListByBgUid, _uid, abi.encodePacked(keyListLength));\n        bgReleaseIndexList_ = new uint[](length);\n        for (uint256 i = 0; i < length; i++) {\n            bgReleaseIndexList_[i] = Map.getByKeyBytes8ToUint(KEY, bgReleaseIndexListByBgUid, _uid, abi.encodePacked(i));\n        }\n    }\n\n    function getBankGuaranteeReleaseListLength() public view returns (uint256) {\n        return List.getLength(KEY, bankGuaranteeReleaseList);\n    }\n\n    function getBankGuaranteeReleaseByIndex(uint256 _index)\n        public\n        view\n        validBankGuaranteeReleaseListIndex(_index)\n        returns (BankGuaranteeRelease memory bankGuaranteeRelease_)\n    {\n        bankGuaranteeRelease_.uid = getBgReleaseUid(_index);\n        bankGuaranteeRelease_.bankGuaranteeUid = getBgReleaseBankGuaranteeUid(_index);\n        bankGuaranteeRelease_.paymentReference = getBgReleasePaymentReference(_index);\n        bankGuaranteeRelease_.procuringEntityGid = getBgReleaseProcuringEntityGid(_index);\n        bankGuaranteeRelease_.egpSystemId = getBgReleaseEgpSystemId(_index);\n        bankGuaranteeRelease_.vendorGid = getBgReleaseVendorGid(_index);\n        bankGuaranteeRelease_.bankGid = getBgReleaseBankGid(_index);\n        bankGuaranteeRelease_.branchName = getBgReleaseBranchName(_index);\n        bankGuaranteeRelease_.releaseDate = getBgReleaseReleaseDate(_index);\n        bankGuaranteeRelease_.currency = getBgReleaseCurrencyType(_index);\n        bankGuaranteeRelease_.amountReleased = getBgReleaseAmountReleased(_index);\n        bankGuaranteeRelease_.bgReleaseFileHash = getBgReleaseBgReleaseFileHash(_index);\n        bankGuaranteeRelease_.version = getBgReleaseVersion(_index);\n    }\n\n    function getAllBankGuaranteeRelease(uint _toExcluded, uint _count) external view \n    returns(BankGuaranteeRelease[] memory _bankGuaranteeRelease, uint fromIncluded_, uint length_) {\n        uint length = getBankGuaranteeReleaseListLength();\n        if (_toExcluded > length) {\n            _toExcluded = length;\n        }\n        uint itr = _count>_toExcluded ? _toExcluded:_count;\n        _bankGuaranteeRelease = new BankGuaranteeRelease[](itr);\n        while (itr>0) {\n            itr--;\n            _toExcluded--;\n            _bankGuaranteeRelease[_bankGuaranteeRelease.length-itr-1] = getBankGuaranteeReleaseByIndex(_toExcluded);\n        }\n        fromIncluded_ = _toExcluded;\n        length_ = length;\n    }\n\n    function getBgReleaseUid(uint256 _index) public view \n    validBankGuaranteeReleaseListIndex(_index) \n    returns(bytes8) {\n        return List.getPropBytes8(KEY, bankGuaranteeReleaseList, _index, propNameBgReleaseUid);\n    }\n\n    function getBgReleaseBankGuaranteeUid(uint256 _index) public view \n    validBankGuaranteeReleaseListIndex(_index) \n    returns(bytes8) {\n        return List.getPropBytes8(KEY, bankGuaranteeReleaseList, _index, propNameBgReleaseBankGuaranteeUid);\n    }\n\n    function getBgReleasePaymentReference(uint256 _index) public view \n    validBankGuaranteeReleaseListIndex(_index) \n    returns(string memory) {\n        return List.getPropString(KEY, bankGuaranteeReleaseList, _index, propNameBgReleasePaymentReference);\n    }\n\n    function getBgReleaseProcuringEntityGid(uint256 _index) public view \n    validBankGuaranteeReleaseListIndex(_index) \n    returns(string memory) {\n        return List.getPropString(KEY, bankGuaranteeReleaseList, _index, propNameBgReleaseProcuringEntityGid);\n    }\n\n    function getBgReleaseEgpSystemId(uint256 _index) public view \n    validBankGuaranteeReleaseListIndex(_index) \n    returns(string memory) {\n        return List.getPropString(KEY, bankGuaranteeReleaseList, _index, propNameBgReleaseEgpSystemId);\n    }\n\n    function getBgReleaseVendorGid(uint256 _index) public view \n    validBankGuaranteeReleaseListIndex(_index) \n    returns(string memory) {\n        return List.getPropString(KEY, bankGuaranteeReleaseList, _index, propNameBgReleaseVendorGid);\n    }\n\n    function getBgReleaseBankGid(uint256 _index) public view \n    validBankGuaranteeReleaseListIndex(_index) \n    returns(string memory) {\n        return List.getPropString(KEY, bankGuaranteeReleaseList, _index, propNameBgReleaseBankGid);\n    }\n\n    function getBgReleaseBranchName(uint256 _index) public view \n    validBankGuaranteeReleaseListIndex(_index) \n    returns(string memory) {\n        return List.getPropString(KEY, bankGuaranteeReleaseList, _index, propNameBgReleaseBranchName);\n    }\n\n    function getBgReleaseReleaseDate(uint256 _index) public view \n    validBankGuaranteeReleaseListIndex(_index) \n    returns(uint) {\n        return List.getPropUint(KEY, bankGuaranteeReleaseList, _index, propNameBgReleaseReleaseDate);\n    }\n\n    function getBgReleaseCurrencyType(uint256 _index) public view \n    validBankGuaranteeReleaseListIndex(_index) \n    returns(string memory) {\n        return List.getPropString(KEY, bankGuaranteeReleaseList, _index, propNameBgReleaseCurrencyType);\n    }\n\n    function getBgReleaseAmountReleased(uint256 _index) public view \n    validBankGuaranteeReleaseListIndex(_index) \n    returns(uint) {\n        return List.getPropUint(KEY, bankGuaranteeReleaseList, _index, propNameBgReleaseAmountReleased);\n    }\n\n    function getBgReleaseBgReleaseFileHash(uint256 _index) public view \n    validBankGuaranteeReleaseListIndex(_index) \n    returns(string memory) {\n        return List.getPropString(KEY, bankGuaranteeReleaseList, _index, propNameBgReleaseBgReleaseFileHash);\n    }\n\n    function getBgReleaseVersion(uint256 _index) public view \n    validBankGuaranteeReleaseListIndex(_index) \n    returns(uint16) {\n        return List.getPropUint16(KEY, bankGuaranteeReleaseList, _index, propNameBgReleaseVersion);\n    }\n\n\n    /** @dev Listing out the Bank Guarantee Releases against the Bank Gid.\n      * @param _bankGid Global id of bank.\n      * @param _toExcluded The length till where the uint indexes has to be fetched.\n      * @param _count The number of indexes that has to be fetched. \n      * @return _bgReleaseListByBankGID List of Bank Guarantee Releases against the Bank Gid.\n      * @return fromIncluded_ _toExcluded - _count.\n      * @return length_ The length of the index present for the Bank Gid.\n      */\n    function getBgReleaseListByBankGID(string memory _bankGid, uint _toExcluded, uint _count) public view returns(uint[] memory _bgReleaseListByBankGID, uint fromIncluded_, uint length_)  {\n        uint length = Map.getByKeyStringToUint(KEY, bgReleaseListByBankGID, _bankGid, abi.encodePacked(keyListLength));\n        if (_toExcluded > length) {\n            _toExcluded = length;\n        }\n        uint itr = _count>_toExcluded ? _toExcluded:_count;\n        _bgReleaseListByBankGID = new uint[](itr);\n        while (itr>0) {\n            itr--;\n            _toExcluded--;\n            _bgReleaseListByBankGID[_bgReleaseListByBankGID.length-itr-1] = Map.getByKeyStringToUint(KEY, bgReleaseListByBankGID, _bankGid, abi.encodePacked(_toExcluded));\n        }\n        fromIncluded_ = _toExcluded;\n        length_ = length;\n    }\n\n    \n    /** @dev Listing out the Bank Guarantee Releases against the EgpSystem Id.\n      * @param _egpSystemId e-GP system Id registered with the network.\n      * @param _toExcluded The length till where the uint indexes has to be fetched.\n      * @param _count The number of indexes that has to be fetched. \n      * @return _bgReleaseListByEgpID List of Bank Guarantee Releases against the EgpSystem Id.\n      * @return fromIncluded_ _toExcluded - _count.\n      * @return length_ The length of the index present for the EgpSystem Id.\n      */\n    function getBgReleaseListByEgpID(string memory _egpSystemId, uint _toExcluded, uint _count) public view returns(uint[] memory _bgReleaseListByEgpID, uint fromIncluded_, uint length_)  {\n        uint length = Map.getByKeyStringToUint(KEY, bgReleaseListByEgpID, _egpSystemId, abi.encodePacked(keyListLength));\n        if (_toExcluded > length) {\n            _toExcluded = length;\n        }\n        uint itr = _count>_toExcluded ? _toExcluded:_count;\n        _bgReleaseListByEgpID = new uint[](itr);\n        while (itr>0) {\n            itr--;\n            _toExcluded--;\n            _bgReleaseListByEgpID[_bgReleaseListByEgpID.length-itr-1] = Map.getByKeyStringToUint(KEY, bgReleaseListByEgpID, _egpSystemId, abi.encodePacked(_toExcluded));\n        }\n        fromIncluded_ = _toExcluded;\n        length_ = length;\n    }\n\n    \n    /** @dev Listing out the Bank Guarantee Releases against the Bank Guarantee Reference Number and Bank Gid.\n      * @param _bgReleaseBgRefBankGid Reference number of bank Guarantee and Global id of bank.\n      * @param _toExcluded The length till where the uint indexes has to be fetched.\n      * @param _count The number of indexes that has to be fetched. \n      * @return _bgReleaseListByBgRefAndBankGid List of Bank Guarantee Releases against the Reference Number and Bank Gid.\n      * @return fromIncluded_ _toExcluded - _count.\n      * @return length_ The length of the index present for the Bank Guarantee Reference Number and Bank Gid.\n      */\n    function getBgReleaseListByBgRefAndBankGid(bytes8 _bgReleaseBgRefBankGid,  uint _toExcluded, uint _count) public view returns(uint[] memory _bgReleaseListByBgRefAndBankGid, uint fromIncluded_, uint length_)  {\n        //bytes8 _bgReleaseBgRefBankGid = bytes8(keccak256(abi.encodePacked(_bgReferenceNumber, _bankGid)));\n        uint length = Map.getByKeyBytes8ToUint(KEY, bgReleaseListByBgRefAndBankGid, _bgReleaseBgRefBankGid, abi.encodePacked(keyListLength));\n        if (_toExcluded > length) {\n            _toExcluded = length;\n        }\n        uint itr = _count>_toExcluded ? _toExcluded:_count;\n        _bgReleaseListByBgRefAndBankGid = new uint[](itr);\n        while (itr>0) {\n            itr--;\n            _toExcluded--;\n            _bgReleaseListByBgRefAndBankGid[_bgReleaseListByBgRefAndBankGid.length-itr-1] = Map.getByKeyBytes8ToUint(KEY, bgReleaseListByBgRefAndBankGid, _bgReleaseBgRefBankGid, abi.encodePacked(_toExcluded));\n        }\n        fromIncluded_ = _toExcluded;\n        length_ = length;\n    }\n\n    /** @dev Listing out the Bank Guarantee Releases against the Payment Advice Reference Number and Bank Gid.\n      * @param _bgReleasePaRefBankGid Reference number of Payment Advice and Global id of bank.\n      * @param _toExcluded The length till where the uint indexes has to be fetched.\n      * @param _count The number of indexes that has to be fetched. \n      * @return _bgReleaseListByPaRefAndBankGid List of Bank Guarantee Releases against the Payment Advice Reference Number and Bank Gid.\n      * @return fromIncluded_ _toExcluded - _count.\n      * @return length_ The length of the index present for the Payment Advice Reference Number and Bank Gid.\n      */\n    function getBgReleaseListByPaRefAndBankGid(bytes8 _bgReleasePaRefBankGid,  uint _toExcluded, uint _count) public view returns(uint[] memory _bgReleaseListByPaRefAndBankGid, uint fromIncluded_, uint length_)  {\n        //bytes8 _bgReleasePaRefBankGid = bytes8(keccak256(abi.encodePacked(_paReferenceNumber, _bankGid)));\n        uint length = Map.getByKeyBytes8ToUint(KEY, bgReleaseListByPaRefAndBankGid, _bgReleasePaRefBankGid, abi.encodePacked(keyListLength));\n        if (_toExcluded > length) {\n            _toExcluded = length;\n        }\n        uint itr = _count>_toExcluded ? _toExcluded:_count;\n        _bgReleaseListByPaRefAndBankGid = new uint[](itr);\n        while (itr>0) {\n            itr--;\n            _toExcluded--;\n            _bgReleaseListByPaRefAndBankGid[_bgReleaseListByPaRefAndBankGid.length-itr-1] = Map.getByKeyBytes8ToUint(KEY, bgReleaseListByPaRefAndBankGid, _bgReleasePaRefBankGid, abi.encodePacked(_toExcluded));\n        }\n        fromIncluded_ = _toExcluded;\n        length_ = length;\n    }\n\n    //WRITE\n\n    function setBankGuaranteeReleaseIndex(bytes8 _uid, uint _value) public \n    onlyBankGuaranteeReleaseManager {\n        Map.setBytes8ToUint(KEY, bankGuaranteeReleaseIndex, _uid, _value);\n    }\n\n    function addBgReleaseIndexListByBgUid(bytes8 _uid, uint _index) public \n    onlyBankGuaranteeReleaseManager {\n        uint length = Map.getByKeyBytes8ToUint(KEY, bgReleaseIndexListByBgUid, _uid, abi.encodePacked(keyListLength));\n        Map.setByKeyBytes8ToUint(KEY, bgReleaseIndexListByBgUid, _uid, abi.encodePacked(length), _index);\n        Map.setByKeyBytes8ToUint(KEY, bgReleaseIndexListByBgUid, _uid, abi.encodePacked(keyListLength), 1 + length);\n    }\n\n    function incBankGuaranteeReleaseListLength() public \n    onlyBankGuaranteeReleaseManager {\n        List.incLength(KEY, bankGuaranteeReleaseList);\n    }\n\n    function addBankGuaranteeRelease(uint _index, BankGuaranteeRelease memory _BankGuaranteeRelease) public\n    onlyBankGuaranteeReleaseManager\n    validBankGuaranteeReleaseListIndex(_index) {\n        List.setPropBytes8(KEY, bankGuaranteeReleaseList, _index, propNameBgReleaseUid,  _BankGuaranteeRelease.uid);\n        List.setPropBytes8(KEY, bankGuaranteeReleaseList, _index, propNameBgReleaseBankGuaranteeUid,  _BankGuaranteeRelease.bankGuaranteeUid);\n        List.setPropString(KEY, bankGuaranteeReleaseList, _index, propNameBgReleasePaymentReference,  _BankGuaranteeRelease.paymentReference);\n        List.setPropString(KEY, bankGuaranteeReleaseList, _index, propNameBgReleaseProcuringEntityGid,  _BankGuaranteeRelease.procuringEntityGid);\n        List.setPropString(KEY, bankGuaranteeReleaseList, _index, propNameBgReleaseEgpSystemId,  _BankGuaranteeRelease.egpSystemId);\n        List.setPropString(KEY, bankGuaranteeReleaseList, _index, propNameBgReleaseVendorGid,  _BankGuaranteeRelease.vendorGid);\n        List.setPropString(KEY, bankGuaranteeReleaseList, _index, propNameBgReleaseBankGid,  _BankGuaranteeRelease.bankGid);  \n        List.setPropString(KEY, bankGuaranteeReleaseList, _index, propNameBgReleaseBranchName,  _BankGuaranteeRelease.branchName);\n        List.setPropUint(KEY, bankGuaranteeReleaseList, _index, propNameBgReleaseReleaseDate,  _BankGuaranteeRelease.releaseDate);\n        List.setPropString(KEY, bankGuaranteeReleaseList, _index, propNameBgReleaseCurrencyType,  _BankGuaranteeRelease.currency);\n        List.setPropUint(KEY, bankGuaranteeReleaseList, _index, propNameBgReleaseAmountReleased,  _BankGuaranteeRelease.amountReleased);\n        List.setPropString(KEY, bankGuaranteeReleaseList, _index, propNameBgReleaseBgReleaseFileHash,  _BankGuaranteeRelease.bgReleaseFileHash);\n        List.setPropUint16(KEY, bankGuaranteeReleaseList, _index, propNameBgReleaseVersion, __VERSION__);\n    }\n\n\n\n    /** @dev Setting the Bank Guarantee Releases against the Bank Gid, Setting the Bank Guarantee Releases against the EgpSystem Id , Setting the Bank Guarantee Releases against the Bank Guarantee Reference Number and Bank Gid, Setting the Bank Guarantee Releases against the Payment Advice Reference Number and Bank Gid.\n      * @param _BankGuaranteeRelease Bank guarantee Release details.\n      * @param _value Index of Bank guarantee Release.\n      * @param _bgReferenceNumber Bank Guarantee Reference Number.\n      */\n    function setBankGuaranteeReleaseIndices(BankGuaranteeRelease memory _BankGuaranteeRelease, uint _value, string memory _bgReferenceNumber) public \n    onlyBankGuaranteeReleaseManager\n    {\n        // set bgReleaseListByBankGID\n        uint length = Map.getByKeyStringToUint(KEY, bgReleaseListByBankGID, _BankGuaranteeRelease.bankGid, abi.encodePacked(keyListLength));\n        Map.setByKeyStringToUint(KEY, bgReleaseListByBankGID, _BankGuaranteeRelease.bankGid, abi.encodePacked(keyListLength), 1+length);\n        Map.setByKeyStringToUint(KEY, bgReleaseListByBankGID, _BankGuaranteeRelease.bankGid, abi.encodePacked(length), _value);\n        \n        // set bgReleaseListByEgpID\n        length = Map.getByKeyStringToUint(KEY, bgReleaseListByEgpID, _BankGuaranteeRelease.egpSystemId, abi.encodePacked(keyListLength));\n        Map.setByKeyStringToUint(KEY, bgReleaseListByEgpID, _BankGuaranteeRelease.egpSystemId, abi.encodePacked(keyListLength), 1+length);\n        Map.setByKeyStringToUint(KEY, bgReleaseListByEgpID, _BankGuaranteeRelease.egpSystemId, abi.encodePacked(length), _value);\n        \n        // set bgReleaseListByBgRefAndBankGid\n        bytes8 _bgReleaseBgRefBankGid = bytes8(keccak256(abi.encodePacked(_bgReferenceNumber, _BankGuaranteeRelease.bankGid)));\n        length = Map.getByKeyBytes8ToUint(KEY, bgReleaseListByBgRefAndBankGid, _bgReleaseBgRefBankGid, abi.encodePacked(keyListLength));\n        Map.setByKeyBytes8ToUint(KEY, bgReleaseListByBgRefAndBankGid, _bgReleaseBgRefBankGid, abi.encodePacked(keyListLength), 1+length);\n        Map.setByKeyBytes8ToUint(KEY, bgReleaseListByBgRefAndBankGid, _bgReleaseBgRefBankGid, abi.encodePacked(length), _value);\n        \n        // set bgReleaseListByPaRefAndBankGid\n        bytes8 _bgReleasePaRefBankGid = bytes8(keccak256(abi.encodePacked(_BankGuaranteeRelease.paymentReference, _BankGuaranteeRelease.bankGid)));\n        length = Map.getByKeyBytes8ToUint(KEY, bgReleaseListByPaRefAndBankGid, _bgReleasePaRefBankGid, abi.encodePacked(keyListLength));\n        Map.setByKeyBytes8ToUint(KEY, bgReleaseListByPaRefAndBankGid, _bgReleasePaRefBankGid, abi.encodePacked(keyListLength), 1+length);\n        Map.setByKeyBytes8ToUint(KEY, bgReleaseListByPaRefAndBankGid, _bgReleasePaRefBankGid, abi.encodePacked(length), _value);\n\n        _setBgReleaseAndInvokeListByBgUid(_BankGuaranteeRelease.bankGuaranteeUid, _value);\n    }\n    \n\n\n    //RELEASE AND INVOKE\n    \n    /** @dev Listing out the Bank Guarantee Releases and Invokes against the BG Uid.\n      * @param _bgUid unique id value of Bank Guarantee.\n      * @param _toExcluded The length till where the uint indexes has to be fetched.\n      * @param _count The number of indexes that has to be fetched. \n      * @return _bgReleaseAndInvokeListByBgUid List of Bank Guarantee Releases and Invokes against the BG Uid.\n      * @return fromIncluded_ _toExcluded - _count.\n      * @return length_ The length of the index present for the BG Uid.\n      */\n    //Get all the invokes and release associated with particular BG\n    function getBgReleaseAndInvokeListByBgUid(bytes8 _bgUid,  uint _toExcluded, uint _count) public view returns(uint[] memory _bgReleaseAndInvokeListByBgUid, uint fromIncluded_, uint length_)  {\n        uint length = Map.getByKeyBytes8ToUint(KEY, bgReleaseAndInvokeListByBgUid, _bgUid, abi.encodePacked(keyListLength));\n        if (_toExcluded > length) {\n            _toExcluded = length;\n        }\n        uint itr = _count>_toExcluded ? _toExcluded:_count;\n        _bgReleaseAndInvokeListByBgUid = new uint[](itr);\n        while (itr>0) {\n            itr--;\n            _toExcluded--;\n            _bgReleaseAndInvokeListByBgUid[_bgReleaseAndInvokeListByBgUid.length-itr-1] = Map.getByKeyBytes8ToUint(KEY, bgReleaseAndInvokeListByBgUid, _bgUid, abi.encodePacked(_toExcluded));\n        }\n        fromIncluded_ = _toExcluded;\n        length_ = length;\n    }\n\n\n\n    /** @dev Setting the Bank Guarantee Releases and Bank Guarantee Invokes against the Bank Guarantee Uid.\n      * @param _Uid PA reference number and Bank Gid.\n      * @param _value Index of Bank Guarantee Releases and Bank Guarantee Invokes.\n      */\n    function _setBgReleaseAndInvokeListByBgUid(bytes8 _Uid, uint _value) internal\n    {\n        // set bgReleaseAndInvokeListByBgUid\n        uint length = Map.getByKeyBytes8ToUint(KEY, bgReleaseAndInvokeListByBgUid, _Uid, abi.encodePacked(keyListLength));\n        Map.setByKeyBytes8ToUint(KEY, bgReleaseAndInvokeListByBgUid, _Uid, abi.encodePacked(keyListLength), 1+length);\n        Map.setByKeyBytes8ToUint(KEY, bgReleaseAndInvokeListByBgUid, _Uid, abi.encodePacked(length), _value);\n        Map.setByKeyBytes8ToUint(KEY, mapBgReleaseAndInvokeByUid, _Uid, abi.encodePacked(_value), 0);\n    }\n\n}",
  "sourcePath": "/home/raghupathi/Desktop/javaClass/javaClass/contracts/BankGuaranteeReleaseModel.sol",
  "compiler": {
    "name": "solc",
    "version": "0.8.20+commit.a1b79de6.Emscripten.clang"
  },
  "schemaVersion": "3.4.14",
  "updatedAt": "2023-06-02T09:43:22.606Z",
  "devdoc": {
    "kind": "dev",
    "methods": {
      "getBgReleaseAndInvokeListByBgUid(bytes8,uint256,uint256)": {
        "details": "Listing out the Bank Guarantee Releases and Invokes against the BG Uid.",
        "params": {
          "_bgUid": "unique id value of Bank Guarantee.",
          "_count": "The number of indexes that has to be fetched. ",
          "_toExcluded": "The length till where the uint indexes has to be fetched."
        },
        "returns": {
          "_bgReleaseAndInvokeListByBgUid": "List of Bank Guarantee Releases and Invokes against the BG Uid.",
          "fromIncluded_": "_toExcluded - _count.",
          "length_": "The length of the index present for the BG Uid."
        }
      },
      "getBgReleaseListByBankGID(string,uint256,uint256)": {
        "details": "Listing out the Bank Guarantee Releases against the Bank Gid.",
        "params": {
          "_bankGid": "Global id of bank.",
          "_count": "The number of indexes that has to be fetched. ",
          "_toExcluded": "The length till where the uint indexes has to be fetched."
        },
        "returns": {
          "_bgReleaseListByBankGID": "List of Bank Guarantee Releases against the Bank Gid.",
          "fromIncluded_": "_toExcluded - _count.",
          "length_": "The length of the index present for the Bank Gid."
        }
      },
      "getBgReleaseListByBgRefAndBankGid(bytes8,uint256,uint256)": {
        "details": "Listing out the Bank Guarantee Releases against the Bank Guarantee Reference Number and Bank Gid.",
        "params": {
          "_bgReleaseBgRefBankGid": "Reference number of bank Guarantee and Global id of bank.",
          "_count": "The number of indexes that has to be fetched. ",
          "_toExcluded": "The length till where the uint indexes has to be fetched."
        },
        "returns": {
          "_bgReleaseListByBgRefAndBankGid": "List of Bank Guarantee Releases against the Reference Number and Bank Gid.",
          "fromIncluded_": "_toExcluded - _count.",
          "length_": "The length of the index present for the Bank Guarantee Reference Number and Bank Gid."
        }
      },
      "getBgReleaseListByEgpID(string,uint256,uint256)": {
        "details": "Listing out the Bank Guarantee Releases against the EgpSystem Id.",
        "params": {
          "_count": "The number of indexes that has to be fetched. ",
          "_egpSystemId": "e-GP system Id registered with the network.",
          "_toExcluded": "The length till where the uint indexes has to be fetched."
        },
        "returns": {
          "_bgReleaseListByEgpID": "List of Bank Guarantee Releases against the EgpSystem Id.",
          "fromIncluded_": "_toExcluded - _count.",
          "length_": "The length of the index present for the EgpSystem Id."
        }
      },
      "getBgReleaseListByPaRefAndBankGid(bytes8,uint256,uint256)": {
        "details": "Listing out the Bank Guarantee Releases against the Payment Advice Reference Number and Bank Gid.",
        "params": {
          "_bgReleasePaRefBankGid": "Reference number of Payment Advice and Global id of bank.",
          "_count": "The number of indexes that has to be fetched. ",
          "_toExcluded": "The length till where the uint indexes has to be fetched."
        },
        "returns": {
          "_bgReleaseListByPaRefAndBankGid": "List of Bank Guarantee Releases against the Payment Advice Reference Number and Bank Gid.",
          "fromIncluded_": "_toExcluded - _count.",
          "length_": "The length of the index present for the Payment Advice Reference Number and Bank Gid."
        }
      },
      "setBankGuaranteeReleaseIndices((bytes8,bytes8,string,string,string,string,string,string,uint256,string,uint256,string,uint16),uint256,string)": {
        "details": "Setting the Bank Guarantee Releases against the Bank Gid, Setting the Bank Guarantee Releases against the EgpSystem Id , Setting the Bank Guarantee Releases against the Bank Guarantee Reference Number and Bank Gid, Setting the Bank Guarantee Releases against the Payment Advice Reference Number and Bank Gid.",
        "params": {
          "_BankGuaranteeRelease": "Bank guarantee Release details.",
          "_bgReferenceNumber": "Bank Guarantee Reference Number.",
          "_value": "Index of Bank guarantee Release."
        }
      }
    },
    "version": 1
  },
  "userdoc": {
    "kind": "user",
    "methods": {},
    "version": 1
  }
}