{
  "contractName": "BankGuaranteeModel",
  "abi": [
    {
      "inputs": [
        {
          "internalType": "address",
          "name": "_Member",
          "type": "address"
        },
        {
          "internalType": "address",
          "name": "_List",
          "type": "address"
        },
        {
          "internalType": "address",
          "name": "_Map",
          "type": "address"
        },
        {
          "internalType": "address",
          "name": "_quireContracts",
          "type": "address"
        }
      ],
      "stateMutability": "nonpayable",
      "type": "constructor"
    },
    {
      "inputs": [
        {
          "internalType": "bytes8",
          "name": "_uid",
          "type": "bytes8"
        }
      ],
      "name": "getBankGuaranteeIndex",
      "outputs": [
        {
          "internalType": "uint256",
          "name": "",
          "type": "uint256"
        }
      ],
      "stateMutability": "view",
      "type": "function"
    },
    {
      "inputs": [
        {
          "internalType": "bytes8",
          "name": "_uid",
          "type": "bytes8"
        }
      ],
      "name": "getBankGuaranteeIndexListLengthByPaymentAdviceAndBankGid",
      "outputs": [
        {
          "internalType": "uint256",
          "name": "",
          "type": "uint256"
        }
      ],
      "stateMutability": "view",
      "type": "function"
    },
    {
      "inputs": [
        {
          "internalType": "bytes8",
          "name": "_uid",
          "type": "bytes8"
        }
      ],
      "name": "getAmendmentBankGuaranteeIndex",
      "outputs": [
        {
          "internalType": "uint256",
          "name": "",
          "type": "uint256"
        }
      ],
      "stateMutability": "view",
      "type": "function"
    },
    {
      "inputs": [
        {
          "internalType": "string",
          "name": "_bankGid",
          "type": "string"
        },
        {
          "internalType": "bytes8",
          "name": "_paymentAdviceUid",
          "type": "bytes8"
        }
      ],
      "name": "getBankGuaranteeByBankGidAndPaymentAdviceUidListLength",
      "outputs": [
        {
          "internalType": "uint256",
          "name": "",
          "type": "uint256"
        }
      ],
      "stateMutability": "view",
      "type": "function"
    },
    {
      "inputs": [],
      "name": "getBankGuaranteeListLength",
      "outputs": [
        {
          "internalType": "uint256",
          "name": "",
          "type": "uint256"
        }
      ],
      "stateMutability": "view",
      "type": "function"
    },
    {
      "inputs": [
        {
          "internalType": "uint256",
          "name": "_index",
          "type": "uint256"
        }
      ],
      "name": "getBankGuaranteeByIndex",
      "outputs": [
        {
          "components": [
            {
              "internalType": "bytes8",
              "name": "uid",
              "type": "bytes8"
            },
            {
              "internalType": "string",
              "name": "bankGid",
              "type": "string"
            },
            {
              "internalType": "string",
              "name": "paymentAdviceNumber",
              "type": "string"
            },
            {
              "internalType": "bytes8",
              "name": "paymentAdviceUid",
              "type": "bytes8"
            },
            {
              "internalType": "string",
              "name": "referenceNumber",
              "type": "string"
            },
            {
              "internalType": "string",
              "name": "branchName",
              "type": "string"
            },
            {
              "internalType": "string",
              "name": "bankRepresentativeName",
              "type": "string"
            },
            {
              "internalType": "uint256",
              "name": "issuanceDate",
              "type": "uint256"
            },
            {
              "internalType": "uint256",
              "name": "validityPeriod",
              "type": "uint256"
            },
            {
              "internalType": "uint256",
              "name": "claimExpiryDate",
              "type": "uint256"
            },
            {
              "internalType": "uint256",
              "name": "validFrom",
              "type": "uint256"
            },
            {
              "internalType": "uint256",
              "name": "validTill",
              "type": "uint256"
            },
            {
              "internalType": "string",
              "name": "currency",
              "type": "string"
            },
            {
              "internalType": "uint256",
              "name": "amount",
              "type": "uint256"
            },
            {
              "internalType": "string",
              "name": "beneficiaryName",
              "type": "string"
            },
            {
              "internalType": "string",
              "name": "fileHash",
              "type": "string"
            },
            {
              "internalType": "string",
              "name": "bankEncryptedKey",
              "type": "string"
            },
            {
              "internalType": "string",
              "name": "egpEncryptedKey",
              "type": "string"
            },
            {
              "internalType": "string",
              "name": "vendorEncryptedKey",
              "type": "string"
            },
            {
              "internalType": "uint256",
              "name": "amendment",
              "type": "uint256"
            },
            {
              "internalType": "enum BankGuaranteeStructs.FormStatus",
              "name": "formStatus",
              "type": "uint8"
            },
            {
              "internalType": "uint16",
              "name": "version",
              "type": "uint16"
            }
          ],
          "internalType": "struct BankGuaranteeStructs.BankGuarantee",
          "name": "bankGuarantee_",
          "type": "tuple"
        }
      ],
      "stateMutability": "view",
      "type": "function"
    },
    {
      "inputs": [
        {
          "internalType": "uint256",
          "name": "_toExcluded",
          "type": "uint256"
        },
        {
          "internalType": "uint256",
          "name": "_count",
          "type": "uint256"
        }
      ],
      "name": "getAllBankGuarantee",
      "outputs": [
        {
          "components": [
            {
              "internalType": "bytes8",
              "name": "uid",
              "type": "bytes8"
            },
            {
              "internalType": "string",
              "name": "bankGid",
              "type": "string"
            },
            {
              "internalType": "string",
              "name": "paymentAdviceNumber",
              "type": "string"
            },
            {
              "internalType": "bytes8",
              "name": "paymentAdviceUid",
              "type": "bytes8"
            },
            {
              "internalType": "string",
              "name": "referenceNumber",
              "type": "string"
            },
            {
              "internalType": "string",
              "name": "branchName",
              "type": "string"
            },
            {
              "internalType": "string",
              "name": "bankRepresentativeName",
              "type": "string"
            },
            {
              "internalType": "uint256",
              "name": "issuanceDate",
              "type": "uint256"
            },
            {
              "internalType": "uint256",
              "name": "validityPeriod",
              "type": "uint256"
            },
            {
              "internalType": "uint256",
              "name": "claimExpiryDate",
              "type": "uint256"
            },
            {
              "internalType": "uint256",
              "name": "validFrom",
              "type": "uint256"
            },
            {
              "internalType": "uint256",
              "name": "validTill",
              "type": "uint256"
            },
            {
              "internalType": "string",
              "name": "currency",
              "type": "string"
            },
            {
              "internalType": "uint256",
              "name": "amount",
              "type": "uint256"
            },
            {
              "internalType": "string",
              "name": "beneficiaryName",
              "type": "string"
            },
            {
              "internalType": "string",
              "name": "fileHash",
              "type": "string"
            },
            {
              "internalType": "string",
              "name": "bankEncryptedKey",
              "type": "string"
            },
            {
              "internalType": "string",
              "name": "egpEncryptedKey",
              "type": "string"
            },
            {
              "internalType": "string",
              "name": "vendorEncryptedKey",
              "type": "string"
            },
            {
              "internalType": "uint256",
              "name": "amendment",
              "type": "uint256"
            },
            {
              "internalType": "enum BankGuaranteeStructs.FormStatus",
              "name": "formStatus",
              "type": "uint8"
            },
            {
              "internalType": "uint16",
              "name": "version",
              "type": "uint16"
            }
          ],
          "internalType": "struct BankGuaranteeStructs.BankGuarantee[]",
          "name": "_bankGuarantee",
          "type": "tuple[]"
        },
        {
          "internalType": "uint256",
          "name": "fromIncluded_",
          "type": "uint256"
        },
        {
          "internalType": "uint256",
          "name": "length_",
          "type": "uint256"
        }
      ],
      "stateMutability": "view",
      "type": "function"
    },
    {
      "inputs": [
        {
          "internalType": "uint256",
          "name": "_index",
          "type": "uint256"
        }
      ],
      "name": "getBankGuaranteeUid",
      "outputs": [
        {
          "internalType": "bytes8",
          "name": "",
          "type": "bytes8"
        }
      ],
      "stateMutability": "view",
      "type": "function"
    },
    {
      "inputs": [
        {
          "internalType": "uint256",
          "name": "_index",
          "type": "uint256"
        }
      ],
      "name": "getBankGuaranteeBankGid",
      "outputs": [
        {
          "internalType": "string",
          "name": "",
          "type": "string"
        }
      ],
      "stateMutability": "view",
      "type": "function"
    },
    {
      "inputs": [
        {
          "internalType": "uint256",
          "name": "_index",
          "type": "uint256"
        }
      ],
      "name": "getBankGuaranteePaymentAdviceNumber",
      "outputs": [
        {
          "internalType": "string",
          "name": "",
          "type": "string"
        }
      ],
      "stateMutability": "view",
      "type": "function"
    },
    {
      "inputs": [
        {
          "internalType": "uint256",
          "name": "_index",
          "type": "uint256"
        }
      ],
      "name": "getBankGuaranteePaymentAdviceUid",
      "outputs": [
        {
          "internalType": "bytes8",
          "name": "",
          "type": "bytes8"
        }
      ],
      "stateMutability": "view",
      "type": "function"
    },
    {
      "inputs": [
        {
          "internalType": "uint256",
          "name": "_index",
          "type": "uint256"
        }
      ],
      "name": "getBankGuaranteeReferenceNumber",
      "outputs": [
        {
          "internalType": "string",
          "name": "",
          "type": "string"
        }
      ],
      "stateMutability": "view",
      "type": "function"
    },
    {
      "inputs": [
        {
          "internalType": "uint256",
          "name": "_index",
          "type": "uint256"
        }
      ],
      "name": "getBankGuaranteeBranchName",
      "outputs": [
        {
          "internalType": "string",
          "name": "",
          "type": "string"
        }
      ],
      "stateMutability": "view",
      "type": "function"
    },
    {
      "inputs": [
        {
          "internalType": "uint256",
          "name": "_index",
          "type": "uint256"
        }
      ],
      "name": "getBankGuaranteeBankRepresentativeName",
      "outputs": [
        {
          "internalType": "string",
          "name": "",
          "type": "string"
        }
      ],
      "stateMutability": "view",
      "type": "function"
    },
    {
      "inputs": [
        {
          "internalType": "uint256",
          "name": "_index",
          "type": "uint256"
        }
      ],
      "name": "getBankGuaranteeIssuanceDate",
      "outputs": [
        {
          "internalType": "uint256",
          "name": "",
          "type": "uint256"
        }
      ],
      "stateMutability": "view",
      "type": "function"
    },
    {
      "inputs": [
        {
          "internalType": "uint256",
          "name": "_index",
          "type": "uint256"
        }
      ],
      "name": "getBankGuaranteeValidityPeriod",
      "outputs": [
        {
          "internalType": "uint256",
          "name": "",
          "type": "uint256"
        }
      ],
      "stateMutability": "view",
      "type": "function"
    },
    {
      "inputs": [
        {
          "internalType": "uint256",
          "name": "_index",
          "type": "uint256"
        }
      ],
      "name": "getBankGuaranteeClaimExpiryDate",
      "outputs": [
        {
          "internalType": "uint256",
          "name": "",
          "type": "uint256"
        }
      ],
      "stateMutability": "view",
      "type": "function"
    },
    {
      "inputs": [
        {
          "internalType": "uint256",
          "name": "_index",
          "type": "uint256"
        }
      ],
      "name": "getBankGuaranteeValidFrom",
      "outputs": [
        {
          "internalType": "uint256",
          "name": "",
          "type": "uint256"
        }
      ],
      "stateMutability": "view",
      "type": "function"
    },
    {
      "inputs": [
        {
          "internalType": "uint256",
          "name": "_index",
          "type": "uint256"
        }
      ],
      "name": "getBankGuaranteeValidTill",
      "outputs": [
        {
          "internalType": "uint256",
          "name": "",
          "type": "uint256"
        }
      ],
      "stateMutability": "view",
      "type": "function"
    },
    {
      "inputs": [
        {
          "internalType": "uint256",
          "name": "_index",
          "type": "uint256"
        }
      ],
      "name": "getBankGuaranteeCurrency",
      "outputs": [
        {
          "internalType": "string",
          "name": "",
          "type": "string"
        }
      ],
      "stateMutability": "view",
      "type": "function"
    },
    {
      "inputs": [
        {
          "internalType": "uint256",
          "name": "_index",
          "type": "uint256"
        }
      ],
      "name": "getBankGuaranteeAmount",
      "outputs": [
        {
          "internalType": "uint256",
          "name": "",
          "type": "uint256"
        }
      ],
      "stateMutability": "view",
      "type": "function"
    },
    {
      "inputs": [
        {
          "internalType": "uint256",
          "name": "_index",
          "type": "uint256"
        }
      ],
      "name": "getBankGuaranteeBeneficiaryName",
      "outputs": [
        {
          "internalType": "string",
          "name": "",
          "type": "string"
        }
      ],
      "stateMutability": "view",
      "type": "function"
    },
    {
      "inputs": [
        {
          "internalType": "uint256",
          "name": "_index",
          "type": "uint256"
        }
      ],
      "name": "getBankGuaranteeFileHash",
      "outputs": [
        {
          "internalType": "string",
          "name": "",
          "type": "string"
        }
      ],
      "stateMutability": "view",
      "type": "function"
    },
    {
      "inputs": [
        {
          "internalType": "uint256",
          "name": "_index",
          "type": "uint256"
        }
      ],
      "name": "getBankGuaranteeBankEncryptedKey",
      "outputs": [
        {
          "internalType": "string",
          "name": "",
          "type": "string"
        }
      ],
      "stateMutability": "view",
      "type": "function"
    },
    {
      "inputs": [
        {
          "internalType": "uint256",
          "name": "_index",
          "type": "uint256"
        }
      ],
      "name": "getBankGuaranteeEgpEncryptedKey",
      "outputs": [
        {
          "internalType": "string",
          "name": "",
          "type": "string"
        }
      ],
      "stateMutability": "view",
      "type": "function"
    },
    {
      "inputs": [
        {
          "internalType": "uint256",
          "name": "_index",
          "type": "uint256"
        }
      ],
      "name": "getBankGuaranteeVendorEncryptedKey",
      "outputs": [
        {
          "internalType": "string",
          "name": "",
          "type": "string"
        }
      ],
      "stateMutability": "view",
      "type": "function"
    },
    {
      "inputs": [
        {
          "internalType": "uint256",
          "name": "_index",
          "type": "uint256"
        }
      ],
      "name": "getBankGuaranteeAmendment",
      "outputs": [
        {
          "internalType": "uint256",
          "name": "",
          "type": "uint256"
        }
      ],
      "stateMutability": "view",
      "type": "function"
    },
    {
      "inputs": [
        {
          "internalType": "uint256",
          "name": "_index",
          "type": "uint256"
        }
      ],
      "name": "getBankGuaranteeFormStatus",
      "outputs": [
        {
          "internalType": "enum BankGuaranteeStructs.FormStatus",
          "name": "",
          "type": "uint8"
        }
      ],
      "stateMutability": "view",
      "type": "function"
    },
    {
      "inputs": [
        {
          "internalType": "uint256",
          "name": "_index",
          "type": "uint256"
        }
      ],
      "name": "getBankGuaranteeVersion",
      "outputs": [
        {
          "internalType": "uint16",
          "name": "",
          "type": "uint16"
        }
      ],
      "stateMutability": "view",
      "type": "function"
    },
    {
      "inputs": [
        {
          "internalType": "string",
          "name": "_bankGid",
          "type": "string"
        },
        {
          "internalType": "uint256",
          "name": "_toExcluded",
          "type": "uint256"
        },
        {
          "internalType": "uint256",
          "name": "_count",
          "type": "uint256"
        }
      ],
      "name": "getBankGuaranteeIndexesByBankGid",
      "outputs": [
        {
          "internalType": "uint256[]",
          "name": "indexList_",
          "type": "uint256[]"
        },
        {
          "internalType": "uint256",
          "name": "fromIncluded_",
          "type": "uint256"
        },
        {
          "internalType": "uint256",
          "name": "length_",
          "type": "uint256"
        }
      ],
      "stateMutability": "view",
      "type": "function"
    },
    {
      "inputs": [
        {
          "internalType": "bytes8",
          "name": "_paymentAdviceUid",
          "type": "bytes8"
        }
      ],
      "name": "getBankGuaranteeIndexByPaymentAdviceUid",
      "outputs": [
        {
          "internalType": "uint256",
          "name": "indexList_",
          "type": "uint256"
        }
      ],
      "stateMutability": "view",
      "type": "function"
    },
    {
      "inputs": [
        {
          "internalType": "string",
          "name": "_bankGid",
          "type": "string"
        },
        {
          "internalType": "bytes8",
          "name": "_paymentAdviceUid",
          "type": "bytes8"
        }
      ],
      "name": "getBankGuaranteforPaymentAdviceBankGid",
      "outputs": [
        {
          "internalType": "uint256",
          "name": "",
          "type": "uint256"
        }
      ],
      "stateMutability": "view",
      "type": "function"
    },
    {
      "inputs": [
        {
          "internalType": "bytes8",
          "name": "_bgRefBankGid",
          "type": "bytes8"
        },
        {
          "internalType": "uint256",
          "name": "_toExcluded",
          "type": "uint256"
        },
        {
          "internalType": "uint256",
          "name": "_count",
          "type": "uint256"
        }
      ],
      "name": "getBankGuaranteeByBgReferenceAndBankGid",
      "outputs": [
        {
          "internalType": "uint256[]",
          "name": "_bankGuaranteeByBgReferenceAndBankGid",
          "type": "uint256[]"
        },
        {
          "internalType": "uint256",
          "name": "fromIncluded_",
          "type": "uint256"
        },
        {
          "internalType": "uint256",
          "name": "length_",
          "type": "uint256"
        }
      ],
      "stateMutability": "view",
      "type": "function"
    },
    {
      "inputs": [
        {
          "internalType": "bytes8",
          "name": "_bgVendorBankGid",
          "type": "bytes8"
        },
        {
          "internalType": "uint256",
          "name": "_toExcluded",
          "type": "uint256"
        },
        {
          "internalType": "uint256",
          "name": "_count",
          "type": "uint256"
        }
      ],
      "name": "getBankGuaranteeByVendorAndBankGid",
      "outputs": [
        {
          "internalType": "uint256[]",
          "name": "_bankGuaranteeByVendorAndBankGid",
          "type": "uint256[]"
        },
        {
          "internalType": "uint256",
          "name": "fromIncluded_",
          "type": "uint256"
        },
        {
          "internalType": "uint256",
          "name": "length_",
          "type": "uint256"
        }
      ],
      "stateMutability": "view",
      "type": "function"
    },
    {
      "inputs": [
        {
          "internalType": "bytes8",
          "name": "_bgPeBankGid",
          "type": "bytes8"
        },
        {
          "internalType": "uint256",
          "name": "_toExcluded",
          "type": "uint256"
        },
        {
          "internalType": "uint256",
          "name": "_count",
          "type": "uint256"
        }
      ],
      "name": "getBankGuaranteeByPEAndBankGid",
      "outputs": [
        {
          "internalType": "uint256[]",
          "name": "_bankGuaranteeByPEAndBankGid",
          "type": "uint256[]"
        },
        {
          "internalType": "uint256",
          "name": "fromIncluded_",
          "type": "uint256"
        },
        {
          "internalType": "uint256",
          "name": "length_",
          "type": "uint256"
        }
      ],
      "stateMutability": "view",
      "type": "function"
    },
    {
      "inputs": [
        {
          "internalType": "string",
          "name": "_referenceNumber",
          "type": "string"
        },
        {
          "internalType": "string",
          "name": "_bankGid",
          "type": "string"
        }
      ],
      "name": "getMapBankGuaranteeReferenceNumber",
      "outputs": [
        {
          "internalType": "uint256",
          "name": "",
          "type": "uint256"
        }
      ],
      "stateMutability": "view",
      "type": "function"
    },
    {
      "inputs": [
        {
          "internalType": "bytes8",
          "name": "_uid",
          "type": "bytes8"
        },
        {
          "internalType": "uint256",
          "name": "_value",
          "type": "uint256"
        }
      ],
      "name": "setBankGuaranteeIndex",
      "outputs": [],
      "stateMutability": "nonpayable",
      "type": "function"
    },
    {
      "inputs": [
        {
          "internalType": "bytes8",
          "name": "_uid",
          "type": "bytes8"
        },
        {
          "internalType": "uint256",
          "name": "_value",
          "type": "uint256"
        }
      ],
      "name": "setAmendmentBankGuaranteeIndex",
      "outputs": [],
      "stateMutability": "nonpayable",
      "type": "function"
    },
    {
      "inputs": [
        {
          "internalType": "uint256",
          "name": "_index",
          "type": "uint256"
        }
      ],
      "name": "updatePreviousBgtoOutdated",
      "outputs": [],
      "stateMutability": "nonpayable",
      "type": "function"
    },
    {
      "inputs": [
        {
          "internalType": "bytes8",
          "name": "_uid",
          "type": "bytes8"
        },
        {
          "internalType": "uint256",
          "name": "_value",
          "type": "uint256"
        }
      ],
      "name": "addBankGuaranteeIndexListByPaymentAdviceAndBankGid",
      "outputs": [],
      "stateMutability": "nonpayable",
      "type": "function"
    },
    {
      "inputs": [],
      "name": "incBankGuaranteeListLength",
      "outputs": [],
      "stateMutability": "nonpayable",
      "type": "function"
    },
    {
      "inputs": [
        {
          "internalType": "uint256",
          "name": "_index",
          "type": "uint256"
        },
        {
          "components": [
            {
              "internalType": "bytes8",
              "name": "uid",
              "type": "bytes8"
            },
            {
              "internalType": "string",
              "name": "bankGid",
              "type": "string"
            },
            {
              "internalType": "string",
              "name": "paymentAdviceNumber",
              "type": "string"
            },
            {
              "internalType": "bytes8",
              "name": "paymentAdviceUid",
              "type": "bytes8"
            },
            {
              "internalType": "string",
              "name": "referenceNumber",
              "type": "string"
            },
            {
              "internalType": "string",
              "name": "branchName",
              "type": "string"
            },
            {
              "internalType": "string",
              "name": "bankRepresentativeName",
              "type": "string"
            },
            {
              "internalType": "uint256",
              "name": "issuanceDate",
              "type": "uint256"
            },
            {
              "internalType": "uint256",
              "name": "validityPeriod",
              "type": "uint256"
            },
            {
              "internalType": "uint256",
              "name": "claimExpiryDate",
              "type": "uint256"
            },
            {
              "internalType": "uint256",
              "name": "validFrom",
              "type": "uint256"
            },
            {
              "internalType": "uint256",
              "name": "validTill",
              "type": "uint256"
            },
            {
              "internalType": "string",
              "name": "currency",
              "type": "string"
            },
            {
              "internalType": "uint256",
              "name": "amount",
              "type": "uint256"
            },
            {
              "internalType": "string",
              "name": "beneficiaryName",
              "type": "string"
            },
            {
              "internalType": "string",
              "name": "fileHash",
              "type": "string"
            },
            {
              "internalType": "string",
              "name": "bankEncryptedKey",
              "type": "string"
            },
            {
              "internalType": "string",
              "name": "egpEncryptedKey",
              "type": "string"
            },
            {
              "internalType": "string",
              "name": "vendorEncryptedKey",
              "type": "string"
            },
            {
              "internalType": "uint256",
              "name": "amendment",
              "type": "uint256"
            },
            {
              "internalType": "enum BankGuaranteeStructs.FormStatus",
              "name": "formStatus",
              "type": "uint8"
            },
            {
              "internalType": "uint16",
              "name": "version",
              "type": "uint16"
            }
          ],
          "internalType": "struct BankGuaranteeStructs.BankGuarantee",
          "name": "_BankGuarantee",
          "type": "tuple"
        }
      ],
      "name": "addBankGuarantee",
      "outputs": [],
      "stateMutability": "nonpayable",
      "type": "function"
    },
    {
      "inputs": [
        {
          "components": [
            {
              "internalType": "bytes8",
              "name": "uid",
              "type": "bytes8"
            },
            {
              "internalType": "string",
              "name": "bankGid",
              "type": "string"
            },
            {
              "internalType": "string",
              "name": "paymentAdviceNumber",
              "type": "string"
            },
            {
              "internalType": "bytes8",
              "name": "paymentAdviceUid",
              "type": "bytes8"
            },
            {
              "internalType": "string",
              "name": "referenceNumber",
              "type": "string"
            },
            {
              "internalType": "string",
              "name": "branchName",
              "type": "string"
            },
            {
              "internalType": "string",
              "name": "bankRepresentativeName",
              "type": "string"
            },
            {
              "internalType": "uint256",
              "name": "issuanceDate",
              "type": "uint256"
            },
            {
              "internalType": "uint256",
              "name": "validityPeriod",
              "type": "uint256"
            },
            {
              "internalType": "uint256",
              "name": "claimExpiryDate",
              "type": "uint256"
            },
            {
              "internalType": "uint256",
              "name": "validFrom",
              "type": "uint256"
            },
            {
              "internalType": "uint256",
              "name": "validTill",
              "type": "uint256"
            },
            {
              "internalType": "string",
              "name": "currency",
              "type": "string"
            },
            {
              "internalType": "uint256",
              "name": "amount",
              "type": "uint256"
            },
            {
              "internalType": "string",
              "name": "beneficiaryName",
              "type": "string"
            },
            {
              "internalType": "string",
              "name": "fileHash",
              "type": "string"
            },
            {
              "internalType": "string",
              "name": "bankEncryptedKey",
              "type": "string"
            },
            {
              "internalType": "string",
              "name": "egpEncryptedKey",
              "type": "string"
            },
            {
              "internalType": "string",
              "name": "vendorEncryptedKey",
              "type": "string"
            },
            {
              "internalType": "uint256",
              "name": "amendment",
              "type": "uint256"
            },
            {
              "internalType": "enum BankGuaranteeStructs.FormStatus",
              "name": "formStatus",
              "type": "uint8"
            },
            {
              "internalType": "uint16",
              "name": "version",
              "type": "uint16"
            }
          ],
          "internalType": "struct BankGuaranteeStructs.BankGuarantee",
          "name": "_bankGuarantee",
          "type": "tuple"
        }
      ],
      "name": "generateBankGuarantee",
      "outputs": [
        {
          "components": [
            {
              "internalType": "bytes8",
              "name": "uid",
              "type": "bytes8"
            },
            {
              "internalType": "string",
              "name": "bankGid",
              "type": "string"
            },
            {
              "internalType": "string",
              "name": "paymentAdviceNumber",
              "type": "string"
            },
            {
              "internalType": "bytes8",
              "name": "paymentAdviceUid",
              "type": "bytes8"
            },
            {
              "internalType": "string",
              "name": "referenceNumber",
              "type": "string"
            },
            {
              "internalType": "string",
              "name": "branchName",
              "type": "string"
            },
            {
              "internalType": "string",
              "name": "bankRepresentativeName",
              "type": "string"
            },
            {
              "internalType": "uint256",
              "name": "issuanceDate",
              "type": "uint256"
            },
            {
              "internalType": "uint256",
              "name": "validityPeriod",
              "type": "uint256"
            },
            {
              "internalType": "uint256",
              "name": "claimExpiryDate",
              "type": "uint256"
            },
            {
              "internalType": "uint256",
              "name": "validFrom",
              "type": "uint256"
            },
            {
              "internalType": "uint256",
              "name": "validTill",
              "type": "uint256"
            },
            {
              "internalType": "string",
              "name": "currency",
              "type": "string"
            },
            {
              "internalType": "uint256",
              "name": "amount",
              "type": "uint256"
            },
            {
              "internalType": "string",
              "name": "beneficiaryName",
              "type": "string"
            },
            {
              "internalType": "string",
              "name": "fileHash",
              "type": "string"
            },
            {
              "internalType": "string",
              "name": "bankEncryptedKey",
              "type": "string"
            },
            {
              "internalType": "string",
              "name": "egpEncryptedKey",
              "type": "string"
            },
            {
              "internalType": "string",
              "name": "vendorEncryptedKey",
              "type": "string"
            },
            {
              "internalType": "uint256",
              "name": "amendment",
              "type": "uint256"
            },
            {
              "internalType": "enum BankGuaranteeStructs.FormStatus",
              "name": "formStatus",
              "type": "uint8"
            },
            {
              "internalType": "uint16",
              "name": "version",
              "type": "uint16"
            }
          ],
          "internalType": "struct BankGuaranteeStructs.BankGuarantee",
          "name": "",
          "type": "tuple"
        },
        {
          "internalType": "uint256",
          "name": "",
          "type": "uint256"
        }
      ],
      "stateMutability": "view",
      "type": "function"
    },
    {
      "inputs": [
        {
          "internalType": "string",
          "name": "_bankGid",
          "type": "string"
        },
        {
          "internalType": "uint256",
          "name": "_value",
          "type": "uint256"
        }
      ],
      "name": "addBankGuaranteeIndexByBankGid",
      "outputs": [],
      "stateMutability": "nonpayable",
      "type": "function"
    },
    {
      "inputs": [
        {
          "internalType": "bytes8",
          "name": "_paymentAdviceUid",
          "type": "bytes8"
        },
        {
          "internalType": "uint256",
          "name": "_value",
          "type": "uint256"
        }
      ],
      "name": "setBankGuaranteeIndexByPaymentAdviceUid",
      "outputs": [],
      "stateMutability": "nonpayable",
      "type": "function"
    },
    {
      "inputs": [
        {
          "internalType": "bytes8",
          "name": "_paymentAdviceUid",
          "type": "bytes8"
        },
        {
          "internalType": "string",
          "name": "_bankGid",
          "type": "string"
        }
      ],
      "name": "addBankGuaranteforPaymentAdviceBankGid",
      "outputs": [],
      "stateMutability": "nonpayable",
      "type": "function"
    },
    {
      "inputs": [
        {
          "components": [
            {
              "internalType": "bytes8",
              "name": "uid",
              "type": "bytes8"
            },
            {
              "internalType": "string",
              "name": "bankGid",
              "type": "string"
            },
            {
              "internalType": "string",
              "name": "paymentAdviceNumber",
              "type": "string"
            },
            {
              "internalType": "bytes8",
              "name": "paymentAdviceUid",
              "type": "bytes8"
            },
            {
              "internalType": "string",
              "name": "referenceNumber",
              "type": "string"
            },
            {
              "internalType": "string",
              "name": "branchName",
              "type": "string"
            },
            {
              "internalType": "string",
              "name": "bankRepresentativeName",
              "type": "string"
            },
            {
              "internalType": "uint256",
              "name": "issuanceDate",
              "type": "uint256"
            },
            {
              "internalType": "uint256",
              "name": "validityPeriod",
              "type": "uint256"
            },
            {
              "internalType": "uint256",
              "name": "claimExpiryDate",
              "type": "uint256"
            },
            {
              "internalType": "uint256",
              "name": "validFrom",
              "type": "uint256"
            },
            {
              "internalType": "uint256",
              "name": "validTill",
              "type": "uint256"
            },
            {
              "internalType": "string",
              "name": "currency",
              "type": "string"
            },
            {
              "internalType": "uint256",
              "name": "amount",
              "type": "uint256"
            },
            {
              "internalType": "string",
              "name": "beneficiaryName",
              "type": "string"
            },
            {
              "internalType": "string",
              "name": "fileHash",
              "type": "string"
            },
            {
              "internalType": "string",
              "name": "bankEncryptedKey",
              "type": "string"
            },
            {
              "internalType": "string",
              "name": "egpEncryptedKey",
              "type": "string"
            },
            {
              "internalType": "string",
              "name": "vendorEncryptedKey",
              "type": "string"
            },
            {
              "internalType": "uint256",
              "name": "amendment",
              "type": "uint256"
            },
            {
              "internalType": "enum BankGuaranteeStructs.FormStatus",
              "name": "formStatus",
              "type": "uint8"
            },
            {
              "internalType": "uint16",
              "name": "version",
              "type": "uint16"
            }
          ],
          "internalType": "struct BankGuaranteeStructs.BankGuarantee",
          "name": "_bankGuarantee",
          "type": "tuple"
        },
        {
          "internalType": "uint256",
          "name": "_value",
          "type": "uint256"
        }
      ],
      "name": "setBankGuaranteeByBgReferenceAndBankGid",
      "outputs": [],
      "stateMutability": "nonpayable",
      "type": "function"
    },
    {
      "inputs": [
        {
          "components": [
            {
              "internalType": "bytes8",
              "name": "uid",
              "type": "bytes8"
            },
            {
              "internalType": "string",
              "name": "bankGid",
              "type": "string"
            },
            {
              "internalType": "string",
              "name": "paymentAdviceNumber",
              "type": "string"
            },
            {
              "internalType": "bytes8",
              "name": "paymentAdviceUid",
              "type": "bytes8"
            },
            {
              "internalType": "string",
              "name": "referenceNumber",
              "type": "string"
            },
            {
              "internalType": "string",
              "name": "branchName",
              "type": "string"
            },
            {
              "internalType": "string",
              "name": "bankRepresentativeName",
              "type": "string"
            },
            {
              "internalType": "uint256",
              "name": "issuanceDate",
              "type": "uint256"
            },
            {
              "internalType": "uint256",
              "name": "validityPeriod",
              "type": "uint256"
            },
            {
              "internalType": "uint256",
              "name": "claimExpiryDate",
              "type": "uint256"
            },
            {
              "internalType": "uint256",
              "name": "validFrom",
              "type": "uint256"
            },
            {
              "internalType": "uint256",
              "name": "validTill",
              "type": "uint256"
            },
            {
              "internalType": "string",
              "name": "currency",
              "type": "string"
            },
            {
              "internalType": "uint256",
              "name": "amount",
              "type": "uint256"
            },
            {
              "internalType": "string",
              "name": "beneficiaryName",
              "type": "string"
            },
            {
              "internalType": "string",
              "name": "fileHash",
              "type": "string"
            },
            {
              "internalType": "string",
              "name": "bankEncryptedKey",
              "type": "string"
            },
            {
              "internalType": "string",
              "name": "egpEncryptedKey",
              "type": "string"
            },
            {
              "internalType": "string",
              "name": "vendorEncryptedKey",
              "type": "string"
            },
            {
              "internalType": "uint256",
              "name": "amendment",
              "type": "uint256"
            },
            {
              "internalType": "enum BankGuaranteeStructs.FormStatus",
              "name": "formStatus",
              "type": "uint8"
            },
            {
              "internalType": "uint16",
              "name": "version",
              "type": "uint16"
            }
          ],
          "internalType": "struct BankGuaranteeStructs.BankGuarantee",
          "name": "_bankGuarantee",
          "type": "tuple"
        },
        {
          "internalType": "uint256",
          "name": "_value",
          "type": "uint256"
        },
        {
          "internalType": "string",
          "name": "_vendorGid",
          "type": "string"
        },
        {
          "internalType": "string",
          "name": "_peGid",
          "type": "string"
        }
      ],
      "name": "setBankGuaranteeIndices",
      "outputs": [],
      "stateMutability": "nonpayable",
      "type": "function"
    },
    {
      "inputs": [
        {
          "internalType": "string",
          "name": "_referenceNumber",
          "type": "string"
        },
        {
          "internalType": "string",
          "name": "_bankGid",
          "type": "string"
        }
      ],
      "name": "addMapBankGuaranteeReferenceNumber",
      "outputs": [],
      "stateMutability": "nonpayable",
      "type": "function"
    },
    {
      "inputs": [
        {
          "internalType": "bytes8",
          "name": "_paymentAdviceUid",
          "type": "bytes8"
        },
        {
          "internalType": "string",
          "name": "_bankGid",
          "type": "string"
        }
      ],
      "name": "setBgReleaseStatus",
      "outputs": [],
      "stateMutability": "nonpayable",
      "type": "function"
    }
  ],
  "bytecode": "0x608060405234801562000010575f80fd5b506040516200cb543803806200cb548339818101604052810190620000369190620001a4565b835f806101000a81548173ffffffffffffffffffffffffffffffffffffffff021916908373ffffffffffffffffffffffffffffffffffffffff1602179055508260015f6101000a81548173ffffffffffffffffffffffffffffffffffffffff021916908373ffffffffffffffffffffffffffffffffffffffff1602179055508160025f6101000a81548173ffffffffffffffffffffffffffffffffffffffff021916908373ffffffffffffffffffffffffffffffffffffffff1602179055508060035f6101000a81548173ffffffffffffffffffffffffffffffffffffffff021916908373ffffffffffffffffffffffffffffffffffffffff1602179055505050505062000213565b5f80fd5b5f73ffffffffffffffffffffffffffffffffffffffff82169050919050565b5f6200016e8262000143565b9050919050565b620001808162000162565b81146200018b575f80fd5b50565b5f815190506200019e8162000175565b92915050565b5f805f8060808587031215620001bf57620001be6200013f565b5b5f620001ce878288016200018e565b9450506020620001e1878288016200018e565b9350506040620001f4878288016200018e565b925050606062000207878288016200018e565b91505092959194509250565b61c93380620002215f395ff3fe608060405234801561000f575f80fd5b50600436106102d4575f3560e01c806373c08b1911610180578063b7590605116100e7578063c37e5926116100a0578063d435dabb1161007a578063d435dabb14610a83578063dc71672014610a9f578063e449367a14610acf578063fd6d779014610aff576102d4565b8063c37e592614610a07578063c3d0bb8014610a37578063c6d9d80a14610a53576102d4565b8063b7590605146108f9578063b7e8708714610929578063ba0e29cd1461095b578063bacabbd11461098b578063c1509f35146109bb578063c1a196fb146109d7576102d4565b80638c8286ae116101395780638c8286ae146108015780639df020b114610831578063a3098ab914610861578063ae91258c14610891578063b081b582146108ad578063b1b8cab5146108c9576102d4565b806373c08b19146107095780637c23e6dc146107395780637d4a4557146107555780637e329e43146107715780637e5a7865146107a1578063884863b5146107d1576102d4565b80634ad8e9901161023f578063629d0ec6116101f85780636b970dca116101d25780636b970dca1461065c5780636c25820d1461068c57806370c12a72146106a857806371f23254146106d9576102d4565b8063629d0ec6146105ca5780636490ec2c146105fa5780636a9f3d0a1461062c576102d4565b80634ad8e990146104d05780634f014fba1461050057806352dae49014610530578063536c50851461054e5780635511b1401461057e578063565f166a146105ae576102d4565b80633114fc17116102915780633114fc17146103d257806335a66024146103dc57806336f16a631461040c5780633f11ddea1461043c578063423d25f41461046e578063425b39411461049e576102d4565b80630efd5500146102d857806311ad8f4514610308578063173da5cb146103245780632214e58a14610354578063243bfa92146103705780632f9d4ea5146103a2575b5f80fd5b6102f260048036038101906102ed919061acbf565b610b1b565b6040516102ff919061ad31565b60405180910390f35b610322600480360381019061031d919061b105565b610c3b565b005b61033e6004803603810190610339919061b15f565b612929565b60405161034b919061ad31565b60405180910390f35b61036e6004803603810190610369919061b18a565b612bbc565b005b61038a6004803603810190610385919061b1c8565b613076565b6040516103999392919061b5f4565b60405180910390f35b6103bc60048036038101906103b7919061b15f565b613171565b6040516103c9919061b678565b60405180910390f35b6103da613408565b005b6103f660048036038101906103f1919061b15f565b613638565b604051610403919061b6a7565b60405180910390f35b6104266004803603810190610421919061b15f565b6138cb565b604051610433919061b678565b60405180910390f35b6104566004803603810190610451919061b6c0565b613b62565b6040516104659392919061b7b8565b60405180910390f35b6104886004803603810190610483919061b15f565b613e8f565b604051610495919061b678565b60405180910390f35b6104b860048036038101906104b3919061b6c0565b614126565b6040516104c79392919061b7b8565b60405180910390f35b6104ea60048036038101906104e5919061b15f565b614453565b6040516104f7919061ad31565b60405180910390f35b61051a6004803603810190610515919061b7f4565b6146e6565b604051610527919061ad31565b60405180910390f35b61053861482e565b604051610545919061ad31565b60405180910390f35b6105686004803603810190610563919061b15f565b614939565b604051610575919061b678565b60405180910390f35b6105986004803603810190610593919061acbf565b614bd0565b6040516105a5919061ad31565b60405180910390f35b6105c860048036038101906105c3919061b81f565b614d46565b005b6105e460048036038101906105df919061b7f4565b6155dd565b6040516105f1919061ad31565b60405180910390f35b610614600480360381019061060f919061b8d7565b6156cf565b6040516106239392919061b7b8565b60405180910390f35b6106466004803603810190610641919061b15f565b615a61565b604051610653919061b952565b60405180910390f35b6106766004803603810190610671919061b15f565b615d09565b604051610683919061b678565b60405180910390f35b6106a660048036038101906106a1919061b96b565b615fa0565b005b6106c260048036038101906106bd919061b9c5565b6161e7565b6040516106d092919061bc25565b60405180910390f35b6106f360048036038101906106ee919061b15f565b61641c565b604051610700919061bc62565b60405180910390f35b610723600480360381019061071e919061b15f565b6166af565b604051610730919061ad31565b60405180910390f35b610753600480360381019061074e919061b15f565b616942565b005b61076f600480360381019061076a919061bc7b565b616bc0565b005b61078b6004803603810190610786919061b7f4565b6170af565b604051610798919061ad31565b60405180910390f35b6107bb60048036038101906107b6919061b15f565b6171be565b6040516107c8919061b678565b60405180910390f35b6107eb60048036038101906107e6919061b15f565b617455565b6040516107f8919061ad31565b60405180910390f35b61081b6004803603810190610816919061b15f565b6176e8565b604051610828919061ad31565b60405180910390f35b61084b6004803603810190610846919061b15f565b61797b565b604051610858919061b678565b60405180910390f35b61087b6004803603810190610876919061b15f565b617c12565b604051610888919061bcd5565b60405180910390f35b6108ab60048036038101906108a6919061bcf5565b617f9a565b005b6108c760048036038101906108c2919061b18a565b6184d6565b005b6108e360048036038101906108de919061b15f565b6186ef565b6040516108f0919061b678565b60405180910390f35b610913600480360381019061090e919061b15f565b618986565b604051610920919061b678565b60405180910390f35b610943600480360381019061093e919061b6c0565b618c1d565b6040516109529392919061b7b8565b60405180910390f35b6109756004803603810190610970919061b15f565b618f84565b604051610982919061b678565b60405180910390f35b6109a560048036038101906109a0919061b15f565b61921b565b6040516109b2919061b6a7565b60405180910390f35b6109d560048036038101906109d0919061b96b565b6194ae565b005b6109f160048036038101906109ec919061bd4f565b6196f4565b6040516109fe919061ad31565b60405180910390f35b610a216004803603810190610a1c919061b15f565b619831565b604051610a2e919061ad31565b60405180910390f35b610a516004803603810190610a4c919061b18a565b619ac4565b005b610a6d6004803603810190610a68919061b15f565b619cfa565b604051610a7a919061b678565b60405180910390f35b610a9d6004803603810190610a98919061b18a565b619f91565b005b610ab96004803603810190610ab4919061b7f4565b61a1c7565b604051610ac6919061ad31565b60405180910390f35b610ae96004803603810190610ae4919061b15f565b61a2d6565b604051610af6919061ad31565b60405180910390f35b610b196004803603810190610b14919061bd4f565b61a569565b005b5f808284604051602001610b3092919061be1f565b60405160208183030381529060405280519060200120905060025f9054906101000a900473ffffffffffffffffffffffffffffffffffffffff1673ffffffffffffffffffffffffffffffffffffffff1663405e2c0d6040518060400160405280601681526020017f42414e4b5f47554152414e5445455f4d414e41474552000000000000000000008152506040518060600160405280602e815260200161c883602e9139846040518463ffffffff1660e01b8152600401610bf39392919061be46565b602060405180830381865afa158015610c0e573d5f803e3d5ffd5b505050506040513d601f19601f82011682018060405250810190610c32919061be9d565b91505092915050565b60035f9054906101000a900473ffffffffffffffffffffffffffffffffffffffff1673ffffffffffffffffffffffffffffffffffffffff1663ef02a3fc6040518060400160405280601681526020017f42414e4b5f47554152414e5445455f4d414e41474552000000000000000000008152506040518263ffffffff1660e01b8152600401610cca919061b678565b602060405180830381865afa158015610ce5573d5f803e3d5ffd5b505050506040513d601f19601f82011682018060405250810190610d09919061bf22565b73ffffffffffffffffffffffffffffffffffffffff163373ffffffffffffffffffffffffffffffffffffffff1614610d76576040517f08c379a0000000000000000000000000000000000000000000000000000000008152600401610d6d9061bf97565b60405180910390fd5b815f60015f9054906101000a900473ffffffffffffffffffffffffffffffffffffffff1673ffffffffffffffffffffffffffffffffffffffff16633bea27536040518060400160405280601681526020017f42414e4b5f47554152414e5445455f4d414e41474552000000000000000000008152506040518060400160405280601781526020017f6c6973745f5f62616e6b47756172616e7465654c6973740000000000000000008152506040518363ffffffff1660e01b8152600401610e3e92919061bfb5565b602060405180830381865afa158015610e59573d5f803e3d5ffd5b505050506040513d601f19601f82011682018060405250810190610e7d919061be9d565b9050808210610ec1576040517f08c379a0000000000000000000000000000000000000000000000000000000008152600401610eb89061c034565b60405180910390fd5b60015f9054906101000a900473ffffffffffffffffffffffffffffffffffffffff1673ffffffffffffffffffffffffffffffffffffffff1663a06fd4546040518060400160405280601681526020017f42414e4b5f47554152414e5445455f4d414e41474552000000000000000000008152506040518060400160405280601781526020017f6c6973745f5f62616e6b47756172616e7465654c697374000000000000000000815250876040518060400160405280600381526020017f7569640000000000000000000000000000000000000000000000000000000000815250885f01516040518663ffffffff1660e01b8152600401610fc595949392919061c052565b5f604051808303815f87803b158015610fdc575f80fd5b505af1158015610fee573d5f803e3d5ffd5b5050505060015f9054906101000a900473ffffffffffffffffffffffffffffffffffffffff1673ffffffffffffffffffffffffffffffffffffffff1663c8f1cd876040518060400160405280601681526020017f42414e4b5f47554152414e5445455f4d414e41474552000000000000000000008152506040518060400160405280601781526020017f6c6973745f5f62616e6b47756172616e7465654c697374000000000000000000815250876040518060400160405280600781526020017f62616e6b4769640000000000000000000000000000000000000000000000000081525088602001516040518663ffffffff1660e01b81526004016110f795949392919061c0b8565b5f604051808303815f87803b15801561110e575f80fd5b505af1158015611120573d5f803e3d5ffd5b5050505060015f9054906101000a900473ffffffffffffffffffffffffffffffffffffffff1673ffffffffffffffffffffffffffffffffffffffff1663c8f1cd876040518060400160405280601681526020017f42414e4b5f47554152414e5445455f4d414e41474552000000000000000000008152506040518060400160405280601781526020017f6c6973745f5f62616e6b47756172616e7465654c697374000000000000000000815250876040518060400160405280601381526020017f7061796d656e744164766963654e756d6265720000000000000000000000000081525088604001516040518663ffffffff1660e01b815260040161122995949392919061c0b8565b5f604051808303815f87803b158015611240575f80fd5b505af1158015611252573d5f803e3d5ffd5b5050505060015f9054906101000a900473ffffffffffffffffffffffffffffffffffffffff1673ffffffffffffffffffffffffffffffffffffffff1663a06fd4546040518060400160405280601681526020017f42414e4b5f47554152414e5445455f4d414e41474552000000000000000000008152506040518060400160405280601781526020017f6c6973745f5f62616e6b47756172616e7465654c697374000000000000000000815250876040518060400160405280601081526020017f7061796d656e744164766963655569640000000000000000000000000000000081525088606001516040518663ffffffff1660e01b815260040161135b95949392919061c052565b5f604051808303815f87803b158015611372575f80fd5b505af1158015611384573d5f803e3d5ffd5b5050505060015f9054906101000a900473ffffffffffffffffffffffffffffffffffffffff1673ffffffffffffffffffffffffffffffffffffffff1663c8f1cd876040518060400160405280601681526020017f42414e4b5f47554152414e5445455f4d414e41474552000000000000000000008152506040518060400160405280601781526020017f6c6973745f5f62616e6b47756172616e7465654c697374000000000000000000815250876040518060400160405280600f81526020017f5265666572656e63654e756d626572000000000000000000000000000000000081525088608001516040518663ffffffff1660e01b815260040161148d95949392919061c0b8565b5f604051808303815f87803b1580156114a4575f80fd5b505af11580156114b6573d5f803e3d5ffd5b5050505060015f9054906101000a900473ffffffffffffffffffffffffffffffffffffffff1673ffffffffffffffffffffffffffffffffffffffff1663c8f1cd876040518060400160405280601681526020017f42414e4b5f47554152414e5445455f4d414e41474552000000000000000000008152506040518060400160405280601781526020017f6c6973745f5f62616e6b47756172616e7465654c697374000000000000000000815250876040518060400160405280600a81526020017f6272616e63684e616d65000000000000000000000000000000000000000000008152508860a001516040518663ffffffff1660e01b81526004016115bf95949392919061c0b8565b5f604051808303815f87803b1580156115d6575f80fd5b505af11580156115e8573d5f803e3d5ffd5b5050505060015f9054906101000a900473ffffffffffffffffffffffffffffffffffffffff1673ffffffffffffffffffffffffffffffffffffffff1663c8f1cd876040518060400160405280601681526020017f42414e4b5f47554152414e5445455f4d414e41474552000000000000000000008152506040518060400160405280601781526020017f6c6973745f5f62616e6b47756172616e7465654c697374000000000000000000815250876040518060400160405280601681526020017f62616e6b526570726573656e7461746976654e616d65000000000000000000008152508860c001516040518663ffffffff1660e01b81526004016116f195949392919061c0b8565b5f604051808303815f87803b158015611708575f80fd5b505af115801561171a573d5f803e3d5ffd5b5050505060015f9054906101000a900473ffffffffffffffffffffffffffffffffffffffff1673ffffffffffffffffffffffffffffffffffffffff16637f02dd826040518060400160405280601681526020017f42414e4b5f47554152414e5445455f4d414e41474552000000000000000000008152506040518060400160405280601781526020017f6c6973745f5f62616e6b47756172616e7465654c697374000000000000000000815250876040518060400160405280600c81526020017f69737375616e63654461746500000000000000000000000000000000000000008152508860e001516040518663ffffffff1660e01b815260040161182395949392919061c125565b5f604051808303815f87803b15801561183a575f80fd5b505af115801561184c573d5f803e3d5ffd5b5050505060015f9054906101000a900473ffffffffffffffffffffffffffffffffffffffff1673ffffffffffffffffffffffffffffffffffffffff16637f02dd826040518060400160405280601681526020017f42414e4b5f47554152414e5445455f4d414e41474552000000000000000000008152506040518060400160405280601781526020017f6c6973745f5f62616e6b47756172616e7465654c697374000000000000000000815250876040518060400160405280600e81526020017f76616c6964697479506572696f640000000000000000000000000000000000008152508861010001516040518663ffffffff1660e01b815260040161195695949392919061c125565b5f604051808303815f87803b15801561196d575f80fd5b505af115801561197f573d5f803e3d5ffd5b5050505060015f9054906101000a900473ffffffffffffffffffffffffffffffffffffffff1673ffffffffffffffffffffffffffffffffffffffff16637f02dd826040518060400160405280601681526020017f42414e4b5f47554152414e5445455f4d414e41474552000000000000000000008152506040518060400160405280601781526020017f6c6973745f5f62616e6b47756172616e7465654c697374000000000000000000815250876040518060400160405280600f81526020017f636c61696d4578706972794461746500000000000000000000000000000000008152508861012001516040518663ffffffff1660e01b8152600401611a8995949392919061c125565b5f604051808303815f87803b158015611aa0575f80fd5b505af1158015611ab2573d5f803e3d5ffd5b5050505060015f9054906101000a900473ffffffffffffffffffffffffffffffffffffffff1673ffffffffffffffffffffffffffffffffffffffff16637f02dd826040518060400160405280601681526020017f42414e4b5f47554152414e5445455f4d414e41474552000000000000000000008152506040518060400160405280601781526020017f6c6973745f5f62616e6b47756172616e7465654c697374000000000000000000815250876040518060400160405280600981526020017f76616c696446726f6d00000000000000000000000000000000000000000000008152508861014001516040518663ffffffff1660e01b8152600401611bbc95949392919061c125565b5f604051808303815f87803b158015611bd3575f80fd5b505af1158015611be5573d5f803e3d5ffd5b5050505060015f9054906101000a900473ffffffffffffffffffffffffffffffffffffffff1673ffffffffffffffffffffffffffffffffffffffff16637f02dd826040518060400160405280601681526020017f42414e4b5f47554152414e5445455f4d414e41474552000000000000000000008152506040518060400160405280601781526020017f6c6973745f5f62616e6b47756172616e7465654c697374000000000000000000815250876040518060400160405280600981526020017f76616c696454696c6c00000000000000000000000000000000000000000000008152508861016001516040518663ffffffff1660e01b8152600401611cef95949392919061c125565b5f604051808303815f87803b158015611d06575f80fd5b505af1158015611d18573d5f803e3d5ffd5b5050505060015f9054906101000a900473ffffffffffffffffffffffffffffffffffffffff1673ffffffffffffffffffffffffffffffffffffffff1663c8f1cd876040518060400160405280601681526020017f42414e4b5f47554152414e5445455f4d414e41474552000000000000000000008152506040518060400160405280601781526020017f6c6973745f5f62616e6b47756172616e7465654c697374000000000000000000815250876040518060400160405280600881526020017f63757272656e63790000000000000000000000000000000000000000000000008152508861018001516040518663ffffffff1660e01b8152600401611e2295949392919061c0b8565b5f604051808303815f87803b158015611e39575f80fd5b505af1158015611e4b573d5f803e3d5ffd5b5050505060015f9054906101000a900473ffffffffffffffffffffffffffffffffffffffff1673ffffffffffffffffffffffffffffffffffffffff16637f02dd826040518060400160405280601681526020017f42414e4b5f47554152414e5445455f4d414e41474552000000000000000000008152506040518060400160405280601781526020017f6c6973745f5f62616e6b47756172616e7465654c697374000000000000000000815250876040518060400160405280600681526020017f616d6f756e740000000000000000000000000000000000000000000000000000815250886101a001516040518663ffffffff1660e01b8152600401611f5595949392919061c125565b5f604051808303815f87803b158015611f6c575f80fd5b505af1158015611f7e573d5f803e3d5ffd5b5050505060015f9054906101000a900473ffffffffffffffffffffffffffffffffffffffff1673ffffffffffffffffffffffffffffffffffffffff1663c8f1cd876040518060400160405280601681526020017f42414e4b5f47554152414e5445455f4d414e41474552000000000000000000008152506040518060400160405280601781526020017f6c6973745f5f62616e6b47756172616e7465654c697374000000000000000000815250876040518060400160405280600f81526020017f62656e65666963696172794e616d650000000000000000000000000000000000815250886101c001516040518663ffffffff1660e01b815260040161208895949392919061c0b8565b5f604051808303815f87803b15801561209f575f80fd5b505af11580156120b1573d5f803e3d5ffd5b5050505060015f9054906101000a900473ffffffffffffffffffffffffffffffffffffffff1673ffffffffffffffffffffffffffffffffffffffff1663c8f1cd876040518060400160405280601681526020017f42414e4b5f47554152414e5445455f4d414e41474552000000000000000000008152506040518060400160405280601781526020017f6c6973745f5f62616e6b47756172616e7465654c697374000000000000000000815250876040518060400160405280600881526020017f66696c6548617368000000000000000000000000000000000000000000000000815250886101e001516040518663ffffffff1660e01b81526004016121bb95949392919061c0b8565b5f604051808303815f87803b1580156121d2575f80fd5b505af11580156121e4573d5f803e3d5ffd5b5050505060015f9054906101000a900473ffffffffffffffffffffffffffffffffffffffff1673ffffffffffffffffffffffffffffffffffffffff1663c8f1cd876040518060400160405280601681526020017f42414e4b5f47554152414e5445455f4d414e41474552000000000000000000008152506040518060400160405280601781526020017f6c6973745f5f62616e6b47756172616e7465654c697374000000000000000000815250876040518060400160405280601081526020017f62616e6b456e637279707465644b6579000000000000000000000000000000008152508861020001516040518663ffffffff1660e01b81526004016122ee95949392919061c0b8565b5f604051808303815f87803b158015612305575f80fd5b505af1158015612317573d5f803e3d5ffd5b5050505060015f9054906101000a900473ffffffffffffffffffffffffffffffffffffffff1673ffffffffffffffffffffffffffffffffffffffff1663c8f1cd876040518060400160405280601681526020017f42414e4b5f47554152414e5445455f4d414e41474552000000000000000000008152506040518060400160405280601781526020017f6c6973745f5f62616e6b47756172616e7465654c697374000000000000000000815250876040518060400160405280600f81526020017f656770456e637279707465644b657900000000000000000000000000000000008152508861022001516040518663ffffffff1660e01b815260040161242195949392919061c0b8565b5f604051808303815f87803b158015612438575f80fd5b505af115801561244a573d5f803e3d5ffd5b5050505060015f9054906101000a900473ffffffffffffffffffffffffffffffffffffffff1673ffffffffffffffffffffffffffffffffffffffff1663c8f1cd876040518060400160405280601681526020017f42414e4b5f47554152414e5445455f4d414e41474552000000000000000000008152506040518060400160405280601781526020017f6c6973745f5f62616e6b47756172616e7465654c697374000000000000000000815250876040518060400160405280601281526020017f76656e646f72456e637279707465644b657900000000000000000000000000008152508861024001516040518663ffffffff1660e01b815260040161255495949392919061c0b8565b5f604051808303815f87803b15801561256b575f80fd5b505af115801561257d573d5f803e3d5ffd5b5050505060015f9054906101000a900473ffffffffffffffffffffffffffffffffffffffff1673ffffffffffffffffffffffffffffffffffffffff16637f02dd826040518060400160405280601681526020017f42414e4b5f47554152414e5445455f4d414e41474552000000000000000000008152506040518060400160405280601781526020017f6c6973745f5f62616e6b47756172616e7465654c697374000000000000000000815250876040518060400160405280600981526020017f616d656e646d656e7400000000000000000000000000000000000000000000008152508861026001516040518663ffffffff1660e01b815260040161268795949392919061c125565b5f604051808303815f87803b15801561269e575f80fd5b505af11580156126b0573d5f803e3d5ffd5b5050505060015f9054906101000a900473ffffffffffffffffffffffffffffffffffffffff1673ffffffffffffffffffffffffffffffffffffffff1663ab2e960d6040518060400160405280601681526020017f42414e4b5f47554152414e5445455f4d414e41474552000000000000000000008152506040518060400160405280601781526020017f6c6973745f5f62616e6b47756172616e7465654c697374000000000000000000815250876040518060400160405280600a81526020017f666f726d537461747573000000000000000000000000000000000000000000008152506001808111156127a7576127a661b2c7565b5b6040518663ffffffff1660e01b81526004016127c795949392919061c1a6565b5f604051808303815f87803b1580156127de575f80fd5b505af11580156127f0573d5f803e3d5ffd5b5050505060015f9054906101000a900473ffffffffffffffffffffffffffffffffffffffff1673ffffffffffffffffffffffffffffffffffffffff1663c4f188576040518060400160405280601681526020017f42414e4b5f47554152414e5445455f4d414e41474552000000000000000000008152506040518060400160405280601781526020017f6c6973745f5f62616e6b47756172616e7465654c697374000000000000000000815250876040518060400160405280600781526020017f76657273696f6e0000000000000000000000000000000000000000000000000081525060016040518663ffffffff1660e01b81526004016128f695949392919061c20c565b5f604051808303815f87803b15801561290d575f80fd5b505af115801561291f573d5f803e3d5ffd5b5050505050505050565b5f815f60015f9054906101000a900473ffffffffffffffffffffffffffffffffffffffff1673ffffffffffffffffffffffffffffffffffffffff16633bea27536040518060400160405280601681526020017f42414e4b5f47554152414e5445455f4d414e41474552000000000000000000008152506040518060400160405280601781526020017f6c6973745f5f62616e6b47756172616e7465654c6973740000000000000000008152506040518363ffffffff1660e01b81526004016129f292919061bfb5565b602060405180830381865afa158015612a0d573d5f803e3d5ffd5b505050506040513d601f19601f82011682018060405250810190612a31919061be9d565b9050808210612a75576040517f08c379a0000000000000000000000000000000000000000000000000000000008152600401612a6c9061c034565b60405180910390fd5b60015f9054906101000a900473ffffffffffffffffffffffffffffffffffffffff1673ffffffffffffffffffffffffffffffffffffffff1663b83032bd6040518060400160405280601681526020017f42414e4b5f47554152414e5445455f4d414e41474552000000000000000000008152506040518060400160405280601781526020017f6c6973745f5f62616e6b47756172616e7465654c697374000000000000000000815250876040518060400160405280600c81526020017f69737375616e63654461746500000000000000000000000000000000000000008152506040518563ffffffff1660e01b8152600401612b74949392919061c272565b602060405180830381865afa158015612b8f573d5f803e3d5ffd5b505050506040513d601f19601f82011682018060405250810190612bb3919061be9d565b92505050919050565b60035f9054906101000a900473ffffffffffffffffffffffffffffffffffffffff1673ffffffffffffffffffffffffffffffffffffffff1663ef02a3fc6040518060400160405280601681526020017f42414e4b5f47554152414e5445455f4d414e41474552000000000000000000008152506040518263ffffffff1660e01b8152600401612c4b919061b678565b602060405180830381865afa158015612c66573d5f803e3d5ffd5b505050506040513d601f19601f82011682018060405250810190612c8a919061bf22565b73ffffffffffffffffffffffffffffffffffffffff163373ffffffffffffffffffffffffffffffffffffffff1614612cf7576040517f08c379a0000000000000000000000000000000000000000000000000000000008152600401612cee9061bf97565b60405180910390fd5b5f60025f9054906101000a900473ffffffffffffffffffffffffffffffffffffffff1673ffffffffffffffffffffffffffffffffffffffff1663bfa9f3eb6040518060400160405280601681526020017f42414e4b5f47554152414e5445455f4d414e414745520000000000000000000081525060405180606001604052806034815260200161c84f60349139866040518060400160405280600881526020017f5f5f6c656e677468000000000000000000000000000000000000000000000000815250604051602001612dcb919061c2ca565b6040516020818303038152906040526040518563ffffffff1660e01b8152600401612df9949392919061c332565b602060405180830381865afa158015612e14573d5f803e3d5ffd5b505050506040513d601f19601f82011682018060405250810190612e38919061be9d565b905060025f9054906101000a900473ffffffffffffffffffffffffffffffffffffffff1673ffffffffffffffffffffffffffffffffffffffff1663cf1e8bd86040518060400160405280601681526020017f42414e4b5f47554152414e5445455f4d414e414745520000000000000000000081525060405180606001604052806034815260200161c84f603491398685604051602001612ed8919061c3aa565b604051602081830303815290604052876040518663ffffffff1660e01b8152600401612f0895949392919061c3c4565b5f604051808303815f87803b158015612f1f575f80fd5b505af1158015612f31573d5f803e3d5ffd5b5050505060025f9054906101000a900473ffffffffffffffffffffffffffffffffffffffff1673ffffffffffffffffffffffffffffffffffffffff1663cf1e8bd86040518060400160405280601681526020017f42414e4b5f47554152414e5445455f4d414e414745520000000000000000000081525060405180606001604052806034815260200161c84f60349139866040518060400160405280600881526020017f5f5f6c656e677468000000000000000000000000000000000000000000000000815250604051602001613008919061c2ca565b604051602081830303815290604052866001613024919061c457565b6040518663ffffffff1660e01b815260040161304495949392919061c3c4565b5f604051808303815f87803b15801561305b575f80fd5b505af115801561306d573d5f803e3d5ffd5b50505050505050565b60605f805f61308361482e565b905080861115613091578095505b5f86861161309f57856130a1565b865b90508067ffffffffffffffff8111156130bd576130bc61ab46565b5b6040519080825280602002602001820160405280156130f657816020015b6130e361aa35565b8152602001906001900390816130db5790505b5094505b5f81111561316257808061310d9061c48a565b915050868061311b9061c48a565b97505061312787617c12565b856001838851613137919061c4b1565b613141919061c4b1565b815181106131525761315161c4e4565b5b60200260200101819052506130fa565b86935081925050509250925092565b6060815f60015f9054906101000a900473ffffffffffffffffffffffffffffffffffffffff1673ffffffffffffffffffffffffffffffffffffffff16633bea27536040518060400160405280601681526020017f42414e4b5f47554152414e5445455f4d414e41474552000000000000000000008152506040518060400160405280601781526020017f6c6973745f5f62616e6b47756172616e7465654c6973740000000000000000008152506040518363ffffffff1660e01b815260040161323b92919061bfb5565b602060405180830381865afa158015613256573d5f803e3d5ffd5b505050506040513d601f19601f8201168201806040525081019061327a919061be9d565b90508082106132be576040517f08c379a00000000000000000000000000000000000000000000000000000000081526004016132b59061c034565b60405180910390fd5b60015f9054906101000a900473ffffffffffffffffffffffffffffffffffffffff1673ffffffffffffffffffffffffffffffffffffffff16632136448c6040518060400160405280601681526020017f42414e4b5f47554152414e5445455f4d414e41474552000000000000000000008152506040518060400160405280601781526020017f6c6973745f5f62616e6b47756172616e7465654c697374000000000000000000815250876040518060400160405280600a81526020017f6272616e63684e616d65000000000000000000000000000000000000000000008152506040518563ffffffff1660e01b81526004016133bd949392919061c272565b5f60405180830381865afa1580156133d7573d5f803e3d5ffd5b505050506040513d5f823e3d601f19601f820116820180604052508101906133ff919061c57f565b92505050919050565b60035f9054906101000a900473ffffffffffffffffffffffffffffffffffffffff1673ffffffffffffffffffffffffffffffffffffffff1663ef02a3fc6040518060400160405280601681526020017f42414e4b5f47554152414e5445455f4d414e41474552000000000000000000008152506040518263ffffffff1660e01b8152600401613497919061b678565b602060405180830381865afa1580156134b2573d5f803e3d5ffd5b505050506040513d601f19601f820116820180604052508101906134d6919061bf22565b73ffffffffffffffffffffffffffffffffffffffff163373ffffffffffffffffffffffffffffffffffffffff1614613543576040517f08c379a000000000000000000000000000000000000000000000000000000000815260040161353a9061bf97565b60405180910390fd5b60015f9054906101000a900473ffffffffffffffffffffffffffffffffffffffff1673ffffffffffffffffffffffffffffffffffffffff1663a24a899b6040518060400160405280601681526020017f42414e4b5f47554152414e5445455f4d414e41474552000000000000000000008152506040518060400160405280601781526020017f6c6973745f5f62616e6b47756172616e7465654c6973740000000000000000008152506040518363ffffffff1660e01b815260040161360992919061bfb5565b5f604051808303815f87803b158015613620575f80fd5b505af1158015613632573d5f803e3d5ffd5b50505050565b5f815f60015f9054906101000a900473ffffffffffffffffffffffffffffffffffffffff1673ffffffffffffffffffffffffffffffffffffffff16633bea27536040518060400160405280601681526020017f42414e4b5f47554152414e5445455f4d414e41474552000000000000000000008152506040518060400160405280601781526020017f6c6973745f5f62616e6b47756172616e7465654c6973740000000000000000008152506040518363ffffffff1660e01b815260040161370192919061bfb5565b602060405180830381865afa15801561371c573d5f803e3d5ffd5b505050506040513d601f19601f82011682018060405250810190613740919061be9d565b9050808210613784576040517f08c379a000000000000000000000000000000000000000000000000000000000815260040161377b9061c034565b60405180910390fd5b60015f9054906101000a900473ffffffffffffffffffffffffffffffffffffffff1673ffffffffffffffffffffffffffffffffffffffff16634bcbf1fb6040518060400160405280601681526020017f42414e4b5f47554152414e5445455f4d414e41474552000000000000000000008152506040518060400160405280601781526020017f6c6973745f5f62616e6b47756172616e7465654c697374000000000000000000815250876040518060400160405280601081526020017f7061796d656e74416476696365556964000000000000000000000000000000008152506040518563ffffffff1660e01b8152600401613883949392919061c272565b602060405180830381865afa15801561389e573d5f803e3d5ffd5b505050506040513d601f19601f820116820180604052508101906138c2919061c5da565b92505050919050565b6060815f60015f9054906101000a900473ffffffffffffffffffffffffffffffffffffffff1673ffffffffffffffffffffffffffffffffffffffff16633bea27536040518060400160405280601681526020017f42414e4b5f47554152414e5445455f4d414e41474552000000000000000000008152506040518060400160405280601781526020017f6c6973745f5f62616e6b47756172616e7465654c6973740000000000000000008152506040518363ffffffff1660e01b815260040161399592919061bfb5565b602060405180830381865afa1580156139b0573d5f803e3d5ffd5b505050506040513d601f19601f820116820180604052508101906139d4919061be9d565b9050808210613a18576040517f08c379a0000000000000000000000000000000000000000000000000000000008152600401613a0f9061c034565b60405180910390fd5b60015f9054906101000a900473ffffffffffffffffffffffffffffffffffffffff1673ffffffffffffffffffffffffffffffffffffffff16632136448c6040518060400160405280601681526020017f42414e4b5f47554152414e5445455f4d414e41474552000000000000000000008152506040518060400160405280601781526020017f6c6973745f5f62616e6b47756172616e7465654c697374000000000000000000815250876040518060400160405280601381526020017f7061796d656e744164766963654e756d626572000000000000000000000000008152506040518563ffffffff1660e01b8152600401613b17949392919061c272565b5f60405180830381865afa158015613b31573d5f803e3d5ffd5b505050506040513d5f823e3d601f19601f82011682018060405250810190613b59919061c57f565b92505050919050565b60605f805f60025f9054906101000a900473ffffffffffffffffffffffffffffffffffffffff1673ffffffffffffffffffffffffffffffffffffffff1663bfa9f3eb6040518060400160405280601681526020017f42414e4b5f47554152414e5445455f4d414e414745520000000000000000000081525060405180606001604052806029815260200161c8b1602991398a6040518060400160405280600881526020017f5f5f6c656e677468000000000000000000000000000000000000000000000000815250604051602001613c3a919061c2ca565b6040516020818303038152906040526040518563ffffffff1660e01b8152600401613c68949392919061c332565b602060405180830381865afa158015613c83573d5f803e3d5ffd5b505050506040513d601f19601f82011682018060405250810190613ca7919061be9d565b905080861115613cb5578095505b5f868611613cc35785613cc5565b865b90508067ffffffffffffffff811115613ce157613ce061ab46565b5b604051908082528060200260200182016040528015613d0f5781602001602082028036833780820191505090505b5094505b5f811115613e7e578080613d269061c48a565b9150508680613d349061c48a565b97505060025f9054906101000a900473ffffffffffffffffffffffffffffffffffffffff1673ffffffffffffffffffffffffffffffffffffffff1663bfa9f3eb6040518060400160405280601681526020017f42414e4b5f47554152414e5445455f4d414e414745520000000000000000000081525060405180606001604052806029815260200161c8b1602991398b8b604051602001613dd5919061c3aa565b6040516020818303038152906040526040518563ffffffff1660e01b8152600401613e03949392919061c332565b602060405180830381865afa158015613e1e573d5f803e3d5ffd5b505050506040513d601f19601f82011682018060405250810190613e42919061be9d565b856001838851613e52919061c4b1565b613e5c919061c4b1565b81518110613e6d57613e6c61c4e4565b5b602002602001018181525050613d13565b869350819250505093509350939050565b6060815f60015f9054906101000a900473ffffffffffffffffffffffffffffffffffffffff1673ffffffffffffffffffffffffffffffffffffffff16633bea27536040518060400160405280601681526020017f42414e4b5f47554152414e5445455f4d414e41474552000000000000000000008152506040518060400160405280601781526020017f6c6973745f5f62616e6b47756172616e7465654c6973740000000000000000008152506040518363ffffffff1660e01b8152600401613f5992919061bfb5565b602060405180830381865afa158015613f74573d5f803e3d5ffd5b505050506040513d601f19601f82011682018060405250810190613f98919061be9d565b9050808210613fdc576040517f08c379a0000000000000000000000000000000000000000000000000000000008152600401613fd39061c034565b60405180910390fd5b60015f9054906101000a900473ffffffffffffffffffffffffffffffffffffffff1673ffffffffffffffffffffffffffffffffffffffff16632136448c6040518060400160405280601681526020017f42414e4b5f47554152414e5445455f4d414e41474552000000000000000000008152506040518060400160405280601781526020017f6c6973745f5f62616e6b47756172616e7465654c697374000000000000000000815250876040518060400160405280600881526020017f66696c65486173680000000000000000000000000000000000000000000000008152506040518563ffffffff1660e01b81526004016140db949392919061c272565b5f60405180830381865afa1580156140f5573d5f803e3d5ffd5b505050506040513d5f823e3d601f19601f8201168201806040525081019061411d919061c57f565b92505050919050565b60605f805f60025f9054906101000a900473ffffffffffffffffffffffffffffffffffffffff1673ffffffffffffffffffffffffffffffffffffffff1663bfa9f3eb6040518060400160405280601681526020017f42414e4b5f47554152414e5445455f4d414e414745520000000000000000000081525060405180606001604052806024815260200161c8da602491398a6040518060400160405280600881526020017f5f5f6c656e6774680000000000000000000000000000000000000000000000008152506040516020016141fe919061c2ca565b6040516020818303038152906040526040518563ffffffff1660e01b815260040161422c949392919061c332565b602060405180830381865afa158015614247573d5f803e3d5ffd5b505050506040513d601f19601f8201168201806040525081019061426b919061be9d565b905080861115614279578095505b5f8686116142875785614289565b865b90508067ffffffffffffffff8111156142a5576142a461ab46565b5b6040519080825280602002602001820160405280156142d35781602001602082028036833780820191505090505b5094505b5f8111156144425780806142ea9061c48a565b91505086806142f89061c48a565b97505060025f9054906101000a900473ffffffffffffffffffffffffffffffffffffffff1673ffffffffffffffffffffffffffffffffffffffff1663bfa9f3eb6040518060400160405280601681526020017f42414e4b5f47554152414e5445455f4d414e414745520000000000000000000081525060405180606001604052806024815260200161c8da602491398b8b604051602001614399919061c3aa565b6040516020818303038152906040526040518563ffffffff1660e01b81526004016143c7949392919061c332565b602060405180830381865afa1580156143e2573d5f803e3d5ffd5b505050506040513d601f19601f82011682018060405250810190614406919061be9d565b856001838851614416919061c4b1565b614420919061c4b1565b815181106144315761443061c4e4565b5b6020026020010181815250506142d7565b869350819250505093509350939050565b5f815f60015f9054906101000a900473ffffffffffffffffffffffffffffffffffffffff1673ffffffffffffffffffffffffffffffffffffffff16633bea27536040518060400160405280601681526020017f42414e4b5f47554152414e5445455f4d414e41474552000000000000000000008152506040518060400160405280601781526020017f6c6973745f5f62616e6b47756172616e7465654c6973740000000000000000008152506040518363ffffffff1660e01b815260040161451c92919061bfb5565b602060405180830381865afa158015614537573d5f803e3d5ffd5b505050506040513d601f19601f8201168201806040525081019061455b919061be9d565b905080821061459f576040517f08c379a00000000000000000000000000000000000000000000000000000000081526004016145969061c034565b60405180910390fd5b60015f9054906101000a900473ffffffffffffffffffffffffffffffffffffffff1673ffffffffffffffffffffffffffffffffffffffff1663b83032bd6040518060400160405280601681526020017f42414e4b5f47554152414e5445455f4d414e41474552000000000000000000008152506040518060400160405280601781526020017f6c6973745f5f62616e6b47756172616e7465654c697374000000000000000000815250876040518060400160405280600e81526020017f76616c6964697479506572696f640000000000000000000000000000000000008152506040518563ffffffff1660e01b815260040161469e949392919061c272565b602060405180830381865afa1580156146b9573d5f803e3d5ffd5b505050506040513d601f19601f820116820180604052508101906146dd919061be9d565b92505050919050565b5f60025f9054906101000a900473ffffffffffffffffffffffffffffffffffffffff1673ffffffffffffffffffffffffffffffffffffffff1663bfa9f3eb6040518060400160405280601681526020017f42414e4b5f47554152414e5445455f4d414e414745520000000000000000000081525060405180606001604052806034815260200161c84f60349139856040518060400160405280600881526020017f5f5f6c656e6774680000000000000000000000000000000000000000000000008152506040516020016147ba919061c2ca565b6040516020818303038152906040526040518563ffffffff1660e01b81526004016147e8949392919061c332565b602060405180830381865afa158015614803573d5f803e3d5ffd5b505050506040513d601f19601f82011682018060405250810190614827919061be9d565b9050919050565b5f60015f9054906101000a900473ffffffffffffffffffffffffffffffffffffffff1673ffffffffffffffffffffffffffffffffffffffff16633bea27536040518060400160405280601681526020017f42414e4b5f47554152414e5445455f4d414e41474552000000000000000000008152506040518060400160405280601781526020017f6c6973745f5f62616e6b47756172616e7465654c6973740000000000000000008152506040518363ffffffff1660e01b81526004016148f592919061bfb5565b602060405180830381865afa158015614910573d5f803e3d5ffd5b505050506040513d601f19601f82011682018060405250810190614934919061be9d565b905090565b6060815f60015f9054906101000a900473ffffffffffffffffffffffffffffffffffffffff1673ffffffffffffffffffffffffffffffffffffffff16633bea27536040518060400160405280601681526020017f42414e4b5f47554152414e5445455f4d414e41474552000000000000000000008152506040518060400160405280601781526020017f6c6973745f5f62616e6b47756172616e7465654c6973740000000000000000008152506040518363ffffffff1660e01b8152600401614a0392919061bfb5565b602060405180830381865afa158015614a1e573d5f803e3d5ffd5b505050506040513d601f19601f82011682018060405250810190614a42919061be9d565b9050808210614a86576040517f08c379a0000000000000000000000000000000000000000000000000000000008152600401614a7d9061c034565b60405180910390fd5b60015f9054906101000a900473ffffffffffffffffffffffffffffffffffffffff1673ffffffffffffffffffffffffffffffffffffffff16632136448c6040518060400160405280601681526020017f42414e4b5f47554152414e5445455f4d414e41474552000000000000000000008152506040518060400160405280601781526020017f6c6973745f5f62616e6b47756172616e7465654c697374000000000000000000815250876040518060400160405280601681526020017f62616e6b526570726573656e7461746976654e616d65000000000000000000008152506040518563ffffffff1660e01b8152600401614b85949392919061c272565b5f60405180830381865afa158015614b9f573d5f803e3d5ffd5b505050506040513d5f823e3d601f19601f82011682018060405250810190614bc7919061c57f565b92505050919050565b5f808284604051602001614be592919061be1f565b60405160208183030381529060405280519060200120905060025f9054906101000a900473ffffffffffffffffffffffffffffffffffffffff1673ffffffffffffffffffffffffffffffffffffffff1663bfa9f3eb6040518060400160405280601681526020017f42414e4b5f47554152414e5445455f4d414e41474552000000000000000000008152506040518060600160405280602e815260200161c883602e9139846040518060400160405280600881526020017f5f5f6c656e677468000000000000000000000000000000000000000000000000815250604051602001614cd0919061c2ca565b6040516020818303038152906040526040518563ffffffff1660e01b8152600401614cfe949392919061c332565b602060405180830381865afa158015614d19573d5f803e3d5ffd5b505050506040513d601f19601f82011682018060405250810190614d3d919061be9d565b91505092915050565b60035f9054906101000a900473ffffffffffffffffffffffffffffffffffffffff1673ffffffffffffffffffffffffffffffffffffffff1663ef02a3fc6040518060400160405280601681526020017f42414e4b5f47554152414e5445455f4d414e41474552000000000000000000008152506040518263ffffffff1660e01b8152600401614dd5919061b678565b602060405180830381865afa158015614df0573d5f803e3d5ffd5b505050506040513d601f19601f82011682018060405250810190614e14919061bf22565b73ffffffffffffffffffffffffffffffffffffffff163373ffffffffffffffffffffffffffffffffffffffff1614614e81576040517f08c379a0000000000000000000000000000000000000000000000000000000008152600401614e789061bf97565b60405180910390fd5b5f828560200151604051602001614e9992919061c605565b6040516020818303038152906040528051906020012090505f60025f9054906101000a900473ffffffffffffffffffffffffffffffffffffffff1673ffffffffffffffffffffffffffffffffffffffff1663bfa9f3eb6040518060400160405280601681526020017f42414e4b5f47554152414e5445455f4d414e414745520000000000000000000081525060405180606001604052806024815260200161c8da60249139856040518060400160405280600881526020017f5f5f6c656e677468000000000000000000000000000000000000000000000000815250604051602001614f85919061c2ca565b6040516020818303038152906040526040518563ffffffff1660e01b8152600401614fb3949392919061c332565b602060405180830381865afa158015614fce573d5f803e3d5ffd5b505050506040513d601f19601f82011682018060405250810190614ff2919061be9d565b905060025f9054906101000a900473ffffffffffffffffffffffffffffffffffffffff1673ffffffffffffffffffffffffffffffffffffffff1663cf1e8bd86040518060400160405280601681526020017f42414e4b5f47554152414e5445455f4d414e414745520000000000000000000081525060405180606001604052806024815260200161c8da60249139856040518060400160405280600881526020017f5f5f6c656e6774680000000000000000000000000000000000000000000000008152506040516020016150c7919061c2ca565b6040516020818303038152906040528660016150e3919061c457565b6040518663ffffffff1660e01b815260040161510395949392919061c3c4565b5f604051808303815f87803b15801561511a575f80fd5b505af115801561512c573d5f803e3d5ffd5b5050505060025f9054906101000a900473ffffffffffffffffffffffffffffffffffffffff1673ffffffffffffffffffffffffffffffffffffffff1663cf1e8bd86040518060400160405280601681526020017f42414e4b5f47554152414e5445455f4d414e414745520000000000000000000081525060405180606001604052806024815260200161c8da6024913985856040516020016151ce919061c3aa565b6040516020818303038152906040528a6040518663ffffffff1660e01b81526004016151fe95949392919061c3c4565b5f604051808303815f87803b158015615215575f80fd5b505af1158015615227573d5f803e3d5ffd5b505050505f83876020015160405160200161524392919061c605565b60405160208183030381529060405280519060200120905060025f9054906101000a900473ffffffffffffffffffffffffffffffffffffffff1673ffffffffffffffffffffffffffffffffffffffff1663bfa9f3eb6040518060400160405280601681526020017f42414e4b5f47554152414e5445455f4d414e414745520000000000000000000081525060405180606001604052806024815260200161c8da60249139846040518060400160405280600881526020017f5f5f6c656e67746800000000000000000000000000000000000000000000000081525060405160200161532e919061c2ca565b6040516020818303038152906040526040518563ffffffff1660e01b815260040161535c949392919061c332565b602060405180830381865afa158015615377573d5f803e3d5ffd5b505050506040513d601f19601f8201168201806040525081019061539b919061be9d565b915060025f9054906101000a900473ffffffffffffffffffffffffffffffffffffffff1673ffffffffffffffffffffffffffffffffffffffff1663cf1e8bd86040518060400160405280601681526020017f42414e4b5f47554152414e5445455f4d414e414745520000000000000000000081525060405180606001604052806024815260200161c8da60249139846040518060400160405280600881526020017f5f5f6c656e677468000000000000000000000000000000000000000000000000815250604051602001615470919061c2ca565b60405160208183030381529060405287600161548c919061c457565b6040518663ffffffff1660e01b81526004016154ac95949392919061c3c4565b5f604051808303815f87803b1580156154c3575f80fd5b505af11580156154d5573d5f803e3d5ffd5b5050505060025f9054906101000a900473ffffffffffffffffffffffffffffffffffffffff1673ffffffffffffffffffffffffffffffffffffffff1663cf1e8bd86040518060400160405280601681526020017f42414e4b5f47554152414e5445455f4d414e414745520000000000000000000081525060405180606001604052806024815260200161c8da602491398486604051602001615577919061c3aa565b6040516020818303038152906040528b6040518663ffffffff1660e01b81526004016155a795949392919061c3c4565b5f604051808303815f87803b1580156155be575f80fd5b505af11580156155d0573d5f803e3d5ffd5b5050505050505050505050565b5f60025f9054906101000a900473ffffffffffffffffffffffffffffffffffffffff1673ffffffffffffffffffffffffffffffffffffffff1663405e2c0d6040518060400160405280601681526020017f42414e4b5f47554152414e5445455f4d414e414745520000000000000000000081525060405180606001604052806024815260200161c82b60249139856040518463ffffffff1660e01b81526004016156899392919061be46565b602060405180830381865afa1580156156a4573d5f803e3d5ffd5b505050506040513d601f19601f820116820180604052508101906156c8919061be9d565b9050919050565b60605f805f866040516020016156e5919061c2ca565b6040516020818303038152906040528051906020012090505f60025f9054906101000a900473ffffffffffffffffffffffffffffffffffffffff1673ffffffffffffffffffffffffffffffffffffffff1663bfa9f3eb6040518060400160405280601681526020017f42414e4b5f47554152414e5445455f4d414e41474552000000000000000000008152506040518060400160405280601b81526020017f6d61705f5f62616e6b47756172616e746565427942616e6b4769640000000000815250856040518060400160405280600881526020017f5f5f6c656e6774680000000000000000000000000000000000000000000000008152506040516020016157ee919061c2ca565b6040516020818303038152906040526040518563ffffffff1660e01b815260040161581c949392919061c332565b602060405180830381865afa158015615837573d5f803e3d5ffd5b505050506040513d601f19601f8201168201806040525081019061585b919061be9d565b905080871115615869578096505b5f8787116158775786615879565b875b90508067ffffffffffffffff8111156158955761589461ab46565b5b6040519080825280602002602001820160405280156158c35781602001602082028036833780820191505090505b5095505b5f811115615a4f5780806158da9061c48a565b91505087806158e89061c48a565b98505060025f9054906101000a900473ffffffffffffffffffffffffffffffffffffffff1673ffffffffffffffffffffffffffffffffffffffff1663bfa9f3eb6040518060400160405280601681526020017f42414e4b5f47554152414e5445455f4d414e41474552000000000000000000008152506040518060400160405280601b81526020017f6d61705f5f62616e6b47756172616e746565427942616e6b4769640000000000815250868c6040516020016159a6919061c3aa565b6040516020818303038152906040526040518563ffffffff1660e01b81526004016159d4949392919061c332565b602060405180830381865afa1580156159ef573d5f803e3d5ffd5b505050506040513d601f19601f82011682018060405250810190615a13919061be9d565b866001838951615a23919061c4b1565b615a2d919061c4b1565b81518110615a3e57615a3d61c4e4565b5b6020026020010181815250506158c7565b87945081935050505093509350939050565b5f815f60015f9054906101000a900473ffffffffffffffffffffffffffffffffffffffff1673ffffffffffffffffffffffffffffffffffffffff16633bea27536040518060400160405280601681526020017f42414e4b5f47554152414e5445455f4d414e41474552000000000000000000008152506040518060400160405280601781526020017f6c6973745f5f62616e6b47756172616e7465654c6973740000000000000000008152506040518363ffffffff1660e01b8152600401615b2a92919061bfb5565b602060405180830381865afa158015615b45573d5f803e3d5ffd5b505050506040513d601f19601f82011682018060405250810190615b69919061be9d565b9050808210615bad576040517f08c379a0000000000000000000000000000000000000000000000000000000008152600401615ba49061c034565b60405180910390fd5b60015f9054906101000a900473ffffffffffffffffffffffffffffffffffffffff1673ffffffffffffffffffffffffffffffffffffffff1663a726dca16040518060400160405280601681526020017f42414e4b5f47554152414e5445455f4d414e41474552000000000000000000008152506040518060400160405280601781526020017f6c6973745f5f62616e6b47756172616e7465654c697374000000000000000000815250876040518060400160405280600a81526020017f666f726d537461747573000000000000000000000000000000000000000000008152506040518563ffffffff1660e01b8152600401615cac949392919061c272565b602060405180830381865afa158015615cc7573d5f803e3d5ffd5b505050506040513d601f19601f82011682018060405250810190615ceb919061c652565b60ff166001811115615d0057615cff61b2c7565b5b92505050919050565b6060815f60015f9054906101000a900473ffffffffffffffffffffffffffffffffffffffff1673ffffffffffffffffffffffffffffffffffffffff16633bea27536040518060400160405280601681526020017f42414e4b5f47554152414e5445455f4d414e41474552000000000000000000008152506040518060400160405280601781526020017f6c6973745f5f62616e6b47756172616e7465654c6973740000000000000000008152506040518363ffffffff1660e01b8152600401615dd392919061bfb5565b602060405180830381865afa158015615dee573d5f803e3d5ffd5b505050506040513d601f19601f82011682018060405250810190615e12919061be9d565b9050808210615e56576040517f08c379a0000000000000000000000000000000000000000000000000000000008152600401615e4d9061c034565b60405180910390fd5b60015f9054906101000a900473ffffffffffffffffffffffffffffffffffffffff1673ffffffffffffffffffffffffffffffffffffffff16632136448c6040518060400160405280601681526020017f42414e4b5f47554152414e5445455f4d414e41474552000000000000000000008152506040518060400160405280601781526020017f6c6973745f5f62616e6b47756172616e7465654c697374000000000000000000815250876040518060400160405280600f81526020017f5265666572656e63654e756d62657200000000000000000000000000000000008152506040518563ffffffff1660e01b8152600401615f55949392919061c272565b5f60405180830381865afa158015615f6f573d5f803e3d5ffd5b505050506040513d5f823e3d601f19601f82011682018060405250810190615f97919061c57f565b92505050919050565b60035f9054906101000a900473ffffffffffffffffffffffffffffffffffffffff1673ffffffffffffffffffffffffffffffffffffffff1663ef02a3fc6040518060400160405280601681526020017f42414e4b5f47554152414e5445455f4d414e41474552000000000000000000008152506040518263ffffffff1660e01b815260040161602f919061b678565b602060405180830381865afa15801561604a573d5f803e3d5ffd5b505050506040513d601f19601f8201168201806040525081019061606e919061bf22565b73ffffffffffffffffffffffffffffffffffffffff163373ffffffffffffffffffffffffffffffffffffffff16146160db576040517f08c379a00000000000000000000000000000000000000000000000000000000081526004016160d29061bf97565b60405180910390fd5b5f82826040516020016160ef92919061be1f565b60405160208183030381529060405280519060200120905060025f9054906101000a900473ffffffffffffffffffffffffffffffffffffffff1673ffffffffffffffffffffffffffffffffffffffff1663177d63616040518060400160405280601681526020017f42414e4b5f47554152414e5445455f4d414e41474552000000000000000000008152506040518060600160405280602e815260200161c883602e91398460016040518563ffffffff1660e01b81526004016161b5949392919061c6bf565b5f604051808303815f87803b1580156161cc575f80fd5b505af11580156161de573d5f803e3d5ffd5b50505050505050565b6161ef61aa35565b5f60035f9054906101000a900473ffffffffffffffffffffffffffffffffffffffff1673ffffffffffffffffffffffffffffffffffffffff1663ef02a3fc6040518060400160405280601681526020017f42414e4b5f47554152414e5445455f4d414e41474552000000000000000000008152506040518263ffffffff1660e01b815260040161627f919061b678565b602060405180830381865afa15801561629a573d5f803e3d5ffd5b505050506040513d601f19601f820116820180604052508101906162be919061bf22565b73ffffffffffffffffffffffffffffffffffffffff163373ffffffffffffffffffffffffffffffffffffffff161461632b576040517f08c379a00000000000000000000000000000000000000000000000000000000081526004016163229061bf97565b60405180910390fd5b5f6163658460400151856020015160405160200161634a92919061c605565b6040516020818303038152906040528051906020012061a7cd565b90506163708161797b565b8460200181905250616381816138cb565b846040018190525061639281618f84565b846101c001819052506163d4846040015185602001516040516020016163b992919061c605565b604051602081830303815290604052805190602001206146e6565b84610260018181525050600184610280019060018111156163f8576163f761b2c7565b5b9081600181111561640c5761640b61b2c7565b5b8152505083819250925050915091565b5f815f60015f9054906101000a900473ffffffffffffffffffffffffffffffffffffffff1673ffffffffffffffffffffffffffffffffffffffff16633bea27536040518060400160405280601681526020017f42414e4b5f47554152414e5445455f4d414e41474552000000000000000000008152506040518060400160405280601781526020017f6c6973745f5f62616e6b47756172616e7465654c6973740000000000000000008152506040518363ffffffff1660e01b81526004016164e592919061bfb5565b602060405180830381865afa158015616500573d5f803e3d5ffd5b505050506040513d601f19601f82011682018060405250810190616524919061be9d565b9050808210616568576040517f08c379a000000000000000000000000000000000000000000000000000000000815260040161655f9061c034565b60405180910390fd5b60015f9054906101000a900473ffffffffffffffffffffffffffffffffffffffff1673ffffffffffffffffffffffffffffffffffffffff166303afa62b6040518060400160405280601681526020017f42414e4b5f47554152414e5445455f4d414e41474552000000000000000000008152506040518060400160405280601781526020017f6c6973745f5f62616e6b47756172616e7465654c697374000000000000000000815250876040518060400160405280600781526020017f76657273696f6e000000000000000000000000000000000000000000000000008152506040518563ffffffff1660e01b8152600401616667949392919061c272565b602060405180830381865afa158015616682573d5f803e3d5ffd5b505050506040513d601f19601f820116820180604052508101906166a6919061c724565b92505050919050565b5f815f60015f9054906101000a900473ffffffffffffffffffffffffffffffffffffffff1673ffffffffffffffffffffffffffffffffffffffff16633bea27536040518060400160405280601681526020017f42414e4b5f47554152414e5445455f4d414e41474552000000000000000000008152506040518060400160405280601781526020017f6c6973745f5f62616e6b47756172616e7465654c6973740000000000000000008152506040518363ffffffff1660e01b815260040161677892919061bfb5565b602060405180830381865afa158015616793573d5f803e3d5ffd5b505050506040513d601f19601f820116820180604052508101906167b7919061be9d565b90508082106167fb576040517f08c379a00000000000000000000000000000000000000000000000000000000081526004016167f29061c034565b60405180910390fd5b60015f9054906101000a900473ffffffffffffffffffffffffffffffffffffffff1673ffffffffffffffffffffffffffffffffffffffff1663b83032bd6040518060400160405280601681526020017f42414e4b5f47554152414e5445455f4d414e41474552000000000000000000008152506040518060400160405280601781526020017f6c6973745f5f62616e6b47756172616e7465654c697374000000000000000000815250876040518060400160405280600981526020017f76616c696446726f6d00000000000000000000000000000000000000000000008152506040518563ffffffff1660e01b81526004016168fa949392919061c272565b602060405180830381865afa158015616915573d5f803e3d5ffd5b505050506040513d601f19601f82011682018060405250810190616939919061be9d565b92505050919050565b60035f9054906101000a900473ffffffffffffffffffffffffffffffffffffffff1673ffffffffffffffffffffffffffffffffffffffff1663ef02a3fc6040518060400160405280601681526020017f42414e4b5f47554152414e5445455f4d414e41474552000000000000000000008152506040518263ffffffff1660e01b81526004016169d1919061b678565b602060405180830381865afa1580156169ec573d5f803e3d5ffd5b505050506040513d601f19601f82011682018060405250810190616a10919061bf22565b73ffffffffffffffffffffffffffffffffffffffff163373ffffffffffffffffffffffffffffffffffffffff1614616a7d576040517f08c379a0000000000000000000000000000000000000000000000000000000008152600401616a749061bf97565b60405180910390fd5b60015f9054906101000a900473ffffffffffffffffffffffffffffffffffffffff1673ffffffffffffffffffffffffffffffffffffffff1663ab2e960d6040518060400160405280601681526020017f42414e4b5f47554152414e5445455f4d414e41474552000000000000000000008152506040518060400160405280601781526020017f6c6973745f5f62616e6b47756172616e7465654c697374000000000000000000815250846040518060400160405280600a81526020017f666f726d537461747573000000000000000000000000000000000000000000008152505f6001811115616b7057616b6f61b2c7565b5b6040518663ffffffff1660e01b8152600401616b9095949392919061c1a6565b5f604051808303815f87803b158015616ba7575f80fd5b505af1158015616bb9573d5f803e3d5ffd5b5050505050565b60035f9054906101000a900473ffffffffffffffffffffffffffffffffffffffff1673ffffffffffffffffffffffffffffffffffffffff1663ef02a3fc6040518060400160405280601681526020017f42414e4b5f47554152414e5445455f4d414e41474552000000000000000000008152506040518263ffffffff1660e01b8152600401616c4f919061b678565b602060405180830381865afa158015616c6a573d5f803e3d5ffd5b505050506040513d601f19601f82011682018060405250810190616c8e919061bf22565b73ffffffffffffffffffffffffffffffffffffffff163373ffffffffffffffffffffffffffffffffffffffff1614616cfb576040517f08c379a0000000000000000000000000000000000000000000000000000000008152600401616cf29061bf97565b60405180910390fd5b5f82608001518360200151604051602001616d1792919061c605565b6040516020818303038152906040528051906020012090505f60025f9054906101000a900473ffffffffffffffffffffffffffffffffffffffff1673ffffffffffffffffffffffffffffffffffffffff1663bfa9f3eb6040518060400160405280601681526020017f42414e4b5f47554152414e5445455f4d414e414745520000000000000000000081525060405180606001604052806029815260200161c8b160299139856040518060400160405280600881526020017f5f5f6c656e677468000000000000000000000000000000000000000000000000815250604051602001616e03919061c2ca565b6040516020818303038152906040526040518563ffffffff1660e01b8152600401616e31949392919061c332565b602060405180830381865afa158015616e4c573d5f803e3d5ffd5b505050506040513d601f19601f82011682018060405250810190616e70919061be9d565b905060025f9054906101000a900473ffffffffffffffffffffffffffffffffffffffff1673ffffffffffffffffffffffffffffffffffffffff1663cf1e8bd86040518060400160405280601681526020017f42414e4b5f47554152414e5445455f4d414e414745520000000000000000000081525060405180606001604052806029815260200161c8b160299139856040518060400160405280600881526020017f5f5f6c656e677468000000000000000000000000000000000000000000000000815250604051602001616f45919061c2ca565b604051602081830303815290604052866001616f61919061c457565b6040518663ffffffff1660e01b8152600401616f8195949392919061c3c4565b5f604051808303815f87803b158015616f98575f80fd5b505af1158015616faa573d5f803e3d5ffd5b5050505060025f9054906101000a900473ffffffffffffffffffffffffffffffffffffffff1673ffffffffffffffffffffffffffffffffffffffff1663cf1e8bd86040518060400160405280601681526020017f42414e4b5f47554152414e5445455f4d414e414745520000000000000000000081525060405180606001604052806029815260200161c8b160299139858560405160200161704c919061c3aa565b604051602081830303815290604052886040518663ffffffff1660e01b815260040161707c95949392919061c3c4565b5f604051808303815f87803b158015617093575f80fd5b505af11580156170a5573d5f803e3d5ffd5b5050505050505050565b5f60025f9054906101000a900473ffffffffffffffffffffffffffffffffffffffff1673ffffffffffffffffffffffffffffffffffffffff1663405e2c0d6040518060400160405280601681526020017f42414e4b5f47554152414e5445455f4d414e41474552000000000000000000008152506040518060400160405280602081526020017f6d61705f5f616d656e646d656e7442616e6b47756172616e746565496e646578815250856040518463ffffffff1660e01b81526004016171789392919061be46565b602060405180830381865afa158015617193573d5f803e3d5ffd5b505050506040513d601f19601f820116820180604052508101906171b7919061be9d565b9050919050565b6060815f60015f9054906101000a900473ffffffffffffffffffffffffffffffffffffffff1673ffffffffffffffffffffffffffffffffffffffff16633bea27536040518060400160405280601681526020017f42414e4b5f47554152414e5445455f4d414e41474552000000000000000000008152506040518060400160405280601781526020017f6c6973745f5f62616e6b47756172616e7465654c6973740000000000000000008152506040518363ffffffff1660e01b815260040161728892919061bfb5565b602060405180830381865afa1580156172a3573d5f803e3d5ffd5b505050506040513d601f19601f820116820180604052508101906172c7919061be9d565b905080821061730b576040517f08c379a00000000000000000000000000000000000000000000000000000000081526004016173029061c034565b60405180910390fd5b60015f9054906101000a900473ffffffffffffffffffffffffffffffffffffffff1673ffffffffffffffffffffffffffffffffffffffff16632136448c6040518060400160405280601681526020017f42414e4b5f47554152414e5445455f4d414e41474552000000000000000000008152506040518060400160405280601781526020017f6c6973745f5f62616e6b47756172616e7465654c697374000000000000000000815250876040518060400160405280600f81526020017f656770456e637279707465644b657900000000000000000000000000000000008152506040518563ffffffff1660e01b815260040161740a949392919061c272565b5f60405180830381865afa158015617424573d5f803e3d5ffd5b505050506040513d5f823e3d601f19601f8201168201806040525081019061744c919061c57f565b92505050919050565b5f815f60015f9054906101000a900473ffffffffffffffffffffffffffffffffffffffff1673ffffffffffffffffffffffffffffffffffffffff16633bea27536040518060400160405280601681526020017f42414e4b5f47554152414e5445455f4d414e41474552000000000000000000008152506040518060400160405280601781526020017f6c6973745f5f62616e6b47756172616e7465654c6973740000000000000000008152506040518363ffffffff1660e01b815260040161751e92919061bfb5565b602060405180830381865afa158015617539573d5f803e3d5ffd5b505050506040513d601f19601f8201168201806040525081019061755d919061be9d565b90508082106175a1576040517f08c379a00000000000000000000000000000000000000000000000000000000081526004016175989061c034565b60405180910390fd5b60015f9054906101000a900473ffffffffffffffffffffffffffffffffffffffff1673ffffffffffffffffffffffffffffffffffffffff1663b83032bd6040518060400160405280601681526020017f42414e4b5f47554152414e5445455f4d414e41474552000000000000000000008152506040518060400160405280601781526020017f6c6973745f5f62616e6b47756172616e7465654c697374000000000000000000815250876040518060400160405280600f81526020017f636c61696d4578706972794461746500000000000000000000000000000000008152506040518563ffffffff1660e01b81526004016176a0949392919061c272565b602060405180830381865afa1580156176bb573d5f803e3d5ffd5b505050506040513d601f19601f820116820180604052508101906176df919061be9d565b92505050919050565b5f815f60015f9054906101000a900473ffffffffffffffffffffffffffffffffffffffff1673ffffffffffffffffffffffffffffffffffffffff16633bea27536040518060400160405280601681526020017f42414e4b5f47554152414e5445455f4d414e41474552000000000000000000008152506040518060400160405280601781526020017f6c6973745f5f62616e6b47756172616e7465654c6973740000000000000000008152506040518363ffffffff1660e01b81526004016177b192919061bfb5565b602060405180830381865afa1580156177cc573d5f803e3d5ffd5b505050506040513d601f19601f820116820180604052508101906177f0919061be9d565b9050808210617834576040517f08c379a000000000000000000000000000000000000000000000000000000000815260040161782b9061c034565b60405180910390fd5b60015f9054906101000a900473ffffffffffffffffffffffffffffffffffffffff1673ffffffffffffffffffffffffffffffffffffffff1663b83032bd6040518060400160405280601681526020017f42414e4b5f47554152414e5445455f4d414e41474552000000000000000000008152506040518060400160405280601781526020017f6c6973745f5f62616e6b47756172616e7465654c697374000000000000000000815250876040518060400160405280600981526020017f616d656e646d656e7400000000000000000000000000000000000000000000008152506040518563ffffffff1660e01b8152600401617933949392919061c272565b602060405180830381865afa15801561794e573d5f803e3d5ffd5b505050506040513d601f19601f82011682018060405250810190617972919061be9d565b92505050919050565b6060815f60015f9054906101000a900473ffffffffffffffffffffffffffffffffffffffff1673ffffffffffffffffffffffffffffffffffffffff16633bea27536040518060400160405280601681526020017f42414e4b5f47554152414e5445455f4d414e41474552000000000000000000008152506040518060400160405280601781526020017f6c6973745f5f62616e6b47756172616e7465654c6973740000000000000000008152506040518363ffffffff1660e01b8152600401617a4592919061bfb5565b602060405180830381865afa158015617a60573d5f803e3d5ffd5b505050506040513d601f19601f82011682018060405250810190617a84919061be9d565b9050808210617ac8576040517f08c379a0000000000000000000000000000000000000000000000000000000008152600401617abf9061c034565b60405180910390fd5b60015f9054906101000a900473ffffffffffffffffffffffffffffffffffffffff1673ffffffffffffffffffffffffffffffffffffffff16632136448c6040518060400160405280601681526020017f42414e4b5f47554152414e5445455f4d414e41474552000000000000000000008152506040518060400160405280601781526020017f6c6973745f5f62616e6b47756172616e7465654c697374000000000000000000815250876040518060400160405280600781526020017f62616e6b476964000000000000000000000000000000000000000000000000008152506040518563ffffffff1660e01b8152600401617bc7949392919061c272565b5f60405180830381865afa158015617be1573d5f803e3d5ffd5b505050506040513d5f823e3d601f19601f82011682018060405250810190617c09919061c57f565b92505050919050565b617c1a61aa35565b815f60015f9054906101000a900473ffffffffffffffffffffffffffffffffffffffff1673ffffffffffffffffffffffffffffffffffffffff16633bea27536040518060400160405280601681526020017f42414e4b5f47554152414e5445455f4d414e41474552000000000000000000008152506040518060400160405280601781526020017f6c6973745f5f62616e6b47756172616e7465654c6973740000000000000000008152506040518363ffffffff1660e01b8152600401617ce292919061bfb5565b602060405180830381865afa158015617cfd573d5f803e3d5ffd5b505050506040513d601f19601f82011682018060405250810190617d21919061be9d565b9050808210617d65576040517f08c379a0000000000000000000000000000000000000000000000000000000008152600401617d5c9061c034565b60405180910390fd5b617d6e8461921b565b835f019077ffffffffffffffffffffffffffffffffffffffffffffffff1916908177ffffffffffffffffffffffffffffffffffffffffffffffff191681525050617db78461797b565b8360200181905250617dc8846138cb565b8360400181905250617dd984613638565b836060019077ffffffffffffffffffffffffffffffffffffffffffffffff1916908177ffffffffffffffffffffffffffffffffffffffffffffffff191681525050617e2384615d09565b8360800181905250617e3484613171565b8360a00181905250617e4584614939565b8360c00181905250617e5684612929565b8360e0018181525050617e6884614453565b83610100018181525050617e7b84617455565b83610120018181525050617e8e846166af565b83610140018181525050617ea18461a2d6565b83610160018181525050617eb4846186ef565b836101800181905250617ec684619831565b836101a0018181525050617ed984618f84565b836101c00181905250617eeb84613e8f565b836101e00181905250617efd84618986565b836102000181905250617f0f846171be565b836102200181905250617f2184619cfa565b836102400181905250617f33846176e8565b83610260018181525050617f4684615a61565b8361028001906001811115617f5e57617f5d61b2c7565b5b90816001811115617f7257617f7161b2c7565b5b81525050617f7f8461641c565b836102a0019061ffff16908161ffff16815250505050919050565b60035f9054906101000a900473ffffffffffffffffffffffffffffffffffffffff1673ffffffffffffffffffffffffffffffffffffffff1663ef02a3fc6040518060400160405280601681526020017f42414e4b5f47554152414e5445455f4d414e41474552000000000000000000008152506040518263ffffffff1660e01b8152600401618029919061b678565b602060405180830381865afa158015618044573d5f803e3d5ffd5b505050506040513d601f19601f82011682018060405250810190618068919061bf22565b73ffffffffffffffffffffffffffffffffffffffff163373ffffffffffffffffffffffffffffffffffffffff16146180d5576040517f08c379a00000000000000000000000000000000000000000000000000000000081526004016180cc9061bf97565b60405180910390fd5b5f826040516020016180e7919061c2ca565b6040516020818303038152906040528051906020012090505f60025f9054906101000a900473ffffffffffffffffffffffffffffffffffffffff1673ffffffffffffffffffffffffffffffffffffffff1663bfa9f3eb6040518060400160405280601681526020017f42414e4b5f47554152414e5445455f4d414e41474552000000000000000000008152506040518060400160405280601b81526020017f6d61705f5f62616e6b47756172616e746565427942616e6b4769640000000000815250856040518060400160405280600881526020017f5f5f6c656e6774680000000000000000000000000000000000000000000000008152506040516020016181f0919061c2ca565b6040516020818303038152906040526040518563ffffffff1660e01b815260040161821e949392919061c332565b602060405180830381865afa158015618239573d5f803e3d5ffd5b505050506040513d601f19601f8201168201806040525081019061825d919061be9d565b905060025f9054906101000a900473ffffffffffffffffffffffffffffffffffffffff1673ffffffffffffffffffffffffffffffffffffffff1663cf1e8bd86040518060400160405280601681526020017f42414e4b5f47554152414e5445455f4d414e41474552000000000000000000008152506040518060400160405280601b81526020017f6d61705f5f62616e6b47756172616e746565427942616e6b4769640000000000815250856040518060400160405280600881526020017f5f5f6c656e67746800000000000000000000000000000000000000000000000081525060405160200161834f919061c2ca565b60405160208183030381529060405286600161836b919061c457565b6040518663ffffffff1660e01b815260040161838b95949392919061c3c4565b5f604051808303815f87803b1580156183a2575f80fd5b505af11580156183b4573d5f803e3d5ffd5b5050505060025f9054906101000a900473ffffffffffffffffffffffffffffffffffffffff1673ffffffffffffffffffffffffffffffffffffffff1663cf1e8bd86040518060400160405280601681526020017f42414e4b5f47554152414e5445455f4d414e41474552000000000000000000008152506040518060400160405280601b81526020017f6d61705f5f62616e6b47756172616e746565427942616e6b47696400000000008152508585604051602001618473919061c3aa565b604051602081830303815290604052886040518663ffffffff1660e01b81526004016184a395949392919061c3c4565b5f604051808303815f87803b1580156184ba575f80fd5b505af11580156184cc573d5f803e3d5ffd5b5050505050505050565b60035f9054906101000a900473ffffffffffffffffffffffffffffffffffffffff1673ffffffffffffffffffffffffffffffffffffffff1663ef02a3fc6040518060400160405280601681526020017f42414e4b5f47554152414e5445455f4d414e41474552000000000000000000008152506040518263ffffffff1660e01b8152600401618565919061b678565b602060405180830381865afa158015618580573d5f803e3d5ffd5b505050506040513d601f19601f820116820180604052508101906185a4919061bf22565b73ffffffffffffffffffffffffffffffffffffffff163373ffffffffffffffffffffffffffffffffffffffff1614618611576040517f08c379a00000000000000000000000000000000000000000000000000000000081526004016186089061bf97565b60405180910390fd5b60025f9054906101000a900473ffffffffffffffffffffffffffffffffffffffff1673ffffffffffffffffffffffffffffffffffffffff1663177d63616040518060400160405280601681526020017f42414e4b5f47554152414e5445455f4d414e414745520000000000000000000081525060405180606001604052806024815260200161c82b6024913985856040518563ffffffff1660e01b81526004016186be949392919061c74f565b5f604051808303815f87803b1580156186d5575f80fd5b505af11580156186e7573d5f803e3d5ffd5b505050505050565b6060815f60015f9054906101000a900473ffffffffffffffffffffffffffffffffffffffff1673ffffffffffffffffffffffffffffffffffffffff16633bea27536040518060400160405280601681526020017f42414e4b5f47554152414e5445455f4d414e41474552000000000000000000008152506040518060400160405280601781526020017f6c6973745f5f62616e6b47756172616e7465654c6973740000000000000000008152506040518363ffffffff1660e01b81526004016187b992919061bfb5565b602060405180830381865afa1580156187d4573d5f803e3d5ffd5b505050506040513d601f19601f820116820180604052508101906187f8919061be9d565b905080821061883c576040517f08c379a00000000000000000000000000000000000000000000000000000000081526004016188339061c034565b60405180910390fd5b60015f9054906101000a900473ffffffffffffffffffffffffffffffffffffffff1673ffffffffffffffffffffffffffffffffffffffff16632136448c6040518060400160405280601681526020017f42414e4b5f47554152414e5445455f4d414e41474552000000000000000000008152506040518060400160405280601781526020017f6c6973745f5f62616e6b47756172616e7465654c697374000000000000000000815250876040518060400160405280600881526020017f63757272656e63790000000000000000000000000000000000000000000000008152506040518563ffffffff1660e01b815260040161893b949392919061c272565b5f60405180830381865afa158015618955573d5f803e3d5ffd5b505050506040513d5f823e3d601f19601f8201168201806040525081019061897d919061c57f565b92505050919050565b6060815f60015f9054906101000a900473ffffffffffffffffffffffffffffffffffffffff1673ffffffffffffffffffffffffffffffffffffffff16633bea27536040518060400160405280601681526020017f42414e4b5f47554152414e5445455f4d414e41474552000000000000000000008152506040518060400160405280601781526020017f6c6973745f5f62616e6b47756172616e7465654c6973740000000000000000008152506040518363ffffffff1660e01b8152600401618a5092919061bfb5565b602060405180830381865afa158015618a6b573d5f803e3d5ffd5b505050506040513d601f19601f82011682018060405250810190618a8f919061be9d565b9050808210618ad3576040517f08c379a0000000000000000000000000000000000000000000000000000000008152600401618aca9061c034565b60405180910390fd5b60015f9054906101000a900473ffffffffffffffffffffffffffffffffffffffff1673ffffffffffffffffffffffffffffffffffffffff16632136448c6040518060400160405280601681526020017f42414e4b5f47554152414e5445455f4d414e41474552000000000000000000008152506040518060400160405280601781526020017f6c6973745f5f62616e6b47756172616e7465654c697374000000000000000000815250876040518060400160405280601081526020017f62616e6b456e637279707465644b6579000000000000000000000000000000008152506040518563ffffffff1660e01b8152600401618bd2949392919061c272565b5f60405180830381865afa158015618bec573d5f803e3d5ffd5b505050506040513d5f823e3d601f19601f82011682018060405250810190618c14919061c57f565b92505050919050565b60605f805f60025f9054906101000a900473ffffffffffffffffffffffffffffffffffffffff1673ffffffffffffffffffffffffffffffffffffffff1663bfa9f3eb6040518060400160405280601681526020017f42414e4b5f47554152414e5445455f4d414e41474552000000000000000000008152506040518060400160405280602081526020017f6d61705f5f62616e6b47756172616e74656542795045416e6442616e6b4769648152508a6040518060400160405280600881526020017f5f5f6c656e677468000000000000000000000000000000000000000000000000815250604051602001618d12919061c2ca565b6040516020818303038152906040526040518563ffffffff1660e01b8152600401618d40949392919061c332565b602060405180830381865afa158015618d5b573d5f803e3d5ffd5b505050506040513d601f19601f82011682018060405250810190618d7f919061be9d565b905080861115618d8d578095505b5f868611618d9b5785618d9d565b865b90508067ffffffffffffffff811115618db957618db861ab46565b5b604051908082528060200260200182016040528015618de75781602001602082028036833780820191505090505b5094505b5f811115618f73578080618dfe9061c48a565b9150508680618e0c9061c48a565b97505060025f9054906101000a900473ffffffffffffffffffffffffffffffffffffffff1673ffffffffffffffffffffffffffffffffffffffff1663bfa9f3eb6040518060400160405280601681526020017f42414e4b5f47554152414e5445455f4d414e41474552000000000000000000008152506040518060400160405280602081526020017f6d61705f5f62616e6b47756172616e74656542795045416e6442616e6b4769648152508b8b604051602001618eca919061c3aa565b6040516020818303038152906040526040518563ffffffff1660e01b8152600401618ef8949392919061c332565b602060405180830381865afa158015618f13573d5f803e3d5ffd5b505050506040513d601f19601f82011682018060405250810190618f37919061be9d565b856001838851618f47919061c4b1565b618f51919061c4b1565b81518110618f6257618f6161c4e4565b5b602002602001018181525050618deb565b869350819250505093509350939050565b6060815f60015f9054906101000a900473ffffffffffffffffffffffffffffffffffffffff1673ffffffffffffffffffffffffffffffffffffffff16633bea27536040518060400160405280601681526020017f42414e4b5f47554152414e5445455f4d414e41474552000000000000000000008152506040518060400160405280601781526020017f6c6973745f5f62616e6b47756172616e7465654c6973740000000000000000008152506040518363ffffffff1660e01b815260040161904e92919061bfb5565b602060405180830381865afa158015619069573d5f803e3d5ffd5b505050506040513d601f19601f8201168201806040525081019061908d919061be9d565b90508082106190d1576040517f08c379a00000000000000000000000000000000000000000000000000000000081526004016190c89061c034565b60405180910390fd5b60015f9054906101000a900473ffffffffffffffffffffffffffffffffffffffff1673ffffffffffffffffffffffffffffffffffffffff16632136448c6040518060400160405280601681526020017f42414e4b5f47554152414e5445455f4d414e41474552000000000000000000008152506040518060400160405280601781526020017f6c6973745f5f62616e6b47756172616e7465654c697374000000000000000000815250876040518060400160405280600f81526020017f62656e65666963696172794e616d6500000000000000000000000000000000008152506040518563ffffffff1660e01b81526004016191d0949392919061c272565b5f60405180830381865afa1580156191ea573d5f803e3d5ffd5b505050506040513d5f823e3d601f19601f82011682018060405250810190619212919061c57f565b92505050919050565b5f815f60015f9054906101000a900473ffffffffffffffffffffffffffffffffffffffff1673ffffffffffffffffffffffffffffffffffffffff16633bea27536040518060400160405280601681526020017f42414e4b5f47554152414e5445455f4d414e41474552000000000000000000008152506040518060400160405280601781526020017f6c6973745f5f62616e6b47756172616e7465654c6973740000000000000000008152506040518363ffffffff1660e01b81526004016192e492919061bfb5565b602060405180830381865afa1580156192ff573d5f803e3d5ffd5b505050506040513d601f19601f82011682018060405250810190619323919061be9d565b9050808210619367576040517f08c379a000000000000000000000000000000000000000000000000000000000815260040161935e9061c034565b60405180910390fd5b60015f9054906101000a900473ffffffffffffffffffffffffffffffffffffffff1673ffffffffffffffffffffffffffffffffffffffff16634bcbf1fb6040518060400160405280601681526020017f42414e4b5f47554152414e5445455f4d414e41474552000000000000000000008152506040518060400160405280601781526020017f6c6973745f5f62616e6b47756172616e7465654c697374000000000000000000815250876040518060400160405280600381526020017f75696400000000000000000000000000000000000000000000000000000000008152506040518563ffffffff1660e01b8152600401619466949392919061c272565b602060405180830381865afa158015619481573d5f803e3d5ffd5b505050506040513d601f19601f820116820180604052508101906194a5919061c5da565b92505050919050565b60035f9054906101000a900473ffffffffffffffffffffffffffffffffffffffff1673ffffffffffffffffffffffffffffffffffffffff1663ef02a3fc6040518060400160405280601681526020017f42414e4b5f47554152414e5445455f4d414e41474552000000000000000000008152506040518263ffffffff1660e01b815260040161953d919061b678565b602060405180830381865afa158015619558573d5f803e3d5ffd5b505050506040513d601f19601f8201168201806040525081019061957c919061bf22565b73ffffffffffffffffffffffffffffffffffffffff163373ffffffffffffffffffffffffffffffffffffffff16146195e9576040517f08c379a00000000000000000000000000000000000000000000000000000000081526004016195e09061bf97565b60405180910390fd5b5f82826040516020016195fd92919061be1f565b60405160208183030381529060405280519060200120905060025f9054906101000a900473ffffffffffffffffffffffffffffffffffffffff1673ffffffffffffffffffffffffffffffffffffffff1663177d63616040518060400160405280601681526020017f42414e4b5f47554152414e5445455f4d414e41474552000000000000000000008152506040518060600160405280602e815260200161c883602e9139845f6040518563ffffffff1660e01b81526004016196c2949392919061c7d9565b5f604051808303815f87803b1580156196d9575f80fd5b505af11580156196eb573d5f803e3d5ffd5b50505050505050565b5f80838360405160200161970992919061c605565b60405160208183030381529060405280519060200120905060025f9054906101000a900473ffffffffffffffffffffffffffffffffffffffff1673ffffffffffffffffffffffffffffffffffffffff1663405e2c0d6040518060400160405280601681526020017f42414e4b5f47554152414e5445455f4d414e41474552000000000000000000008152506040518060400160405280601b81526020017f6d61705f5f62616e6b47756172616e7465655265664e756d6265720000000000815250846040518463ffffffff1660e01b81526004016197e99392919061be46565b602060405180830381865afa158015619804573d5f803e3d5ffd5b505050506040513d601f19601f82011682018060405250810190619828919061be9d565b91505092915050565b5f815f60015f9054906101000a900473ffffffffffffffffffffffffffffffffffffffff1673ffffffffffffffffffffffffffffffffffffffff16633bea27536040518060400160405280601681526020017f42414e4b5f47554152414e5445455f4d414e41474552000000000000000000008152506040518060400160405280601781526020017f6c6973745f5f62616e6b47756172616e7465654c6973740000000000000000008152506040518363ffffffff1660e01b81526004016198fa92919061bfb5565b602060405180830381865afa158015619915573d5f803e3d5ffd5b505050506040513d601f19601f82011682018060405250810190619939919061be9d565b905080821061997d576040517f08c379a00000000000000000000000000000000000000000000000000000000081526004016199749061c034565b60405180910390fd5b60015f9054906101000a900473ffffffffffffffffffffffffffffffffffffffff1673ffffffffffffffffffffffffffffffffffffffff1663b83032bd6040518060400160405280601681526020017f42414e4b5f47554152414e5445455f4d414e41474552000000000000000000008152506040518060400160405280601781526020017f6c6973745f5f62616e6b47756172616e7465654c697374000000000000000000815250876040518060400160405280600681526020017f616d6f756e7400000000000000000000000000000000000000000000000000008152506040518563ffffffff1660e01b8152600401619a7c949392919061c272565b602060405180830381865afa158015619a97573d5f803e3d5ffd5b505050506040513d601f19601f82011682018060405250810190619abb919061be9d565b92505050919050565b60035f9054906101000a900473ffffffffffffffffffffffffffffffffffffffff1673ffffffffffffffffffffffffffffffffffffffff1663ef02a3fc6040518060400160405280601681526020017f42414e4b5f47554152414e5445455f4d414e41474552000000000000000000008152506040518263ffffffff1660e01b8152600401619b53919061b678565b602060405180830381865afa158015619b6e573d5f803e3d5ffd5b505050506040513d601f19601f82011682018060405250810190619b92919061bf22565b73ffffffffffffffffffffffffffffffffffffffff163373ffffffffffffffffffffffffffffffffffffffff1614619bff576040517f08c379a0000000000000000000000000000000000000000000000000000000008152600401619bf69061bf97565b60405180910390fd5b60025f9054906101000a900473ffffffffffffffffffffffffffffffffffffffff1673ffffffffffffffffffffffffffffffffffffffff1663177d63616040518060400160405280601681526020017f42414e4b5f47554152414e5445455f4d414e41474552000000000000000000008152506040518060400160405280601781526020017f6d61705f5f62616e6b47756172616e746565496e64657800000000000000000081525085856040518563ffffffff1660e01b8152600401619cc9949392919061c74f565b5f604051808303815f87803b158015619ce0575f80fd5b505af1158015619cf2573d5f803e3d5ffd5b505050505050565b6060815f60015f9054906101000a900473ffffffffffffffffffffffffffffffffffffffff1673ffffffffffffffffffffffffffffffffffffffff16633bea27536040518060400160405280601681526020017f42414e4b5f47554152414e5445455f4d414e41474552000000000000000000008152506040518060400160405280601781526020017f6c6973745f5f62616e6b47756172616e7465654c6973740000000000000000008152506040518363ffffffff1660e01b8152600401619dc492919061bfb5565b602060405180830381865afa158015619ddf573d5f803e3d5ffd5b505050506040513d601f19601f82011682018060405250810190619e03919061be9d565b9050808210619e47576040517f08c379a0000000000000000000000000000000000000000000000000000000008152600401619e3e9061c034565b60405180910390fd5b60015f9054906101000a900473ffffffffffffffffffffffffffffffffffffffff1673ffffffffffffffffffffffffffffffffffffffff16632136448c6040518060400160405280601681526020017f42414e4b5f47554152414e5445455f4d414e41474552000000000000000000008152506040518060400160405280601781526020017f6c6973745f5f62616e6b47756172616e7465654c697374000000000000000000815250876040518060400160405280601281526020017f76656e646f72456e637279707465644b657900000000000000000000000000008152506040518563ffffffff1660e01b8152600401619f46949392919061c272565b5f60405180830381865afa158015619f60573d5f803e3d5ffd5b505050506040513d5f823e3d601f19601f82011682018060405250810190619f88919061c57f565b92505050919050565b60035f9054906101000a900473ffffffffffffffffffffffffffffffffffffffff1673ffffffffffffffffffffffffffffffffffffffff1663ef02a3fc6040518060400160405280601681526020017f42414e4b5f47554152414e5445455f4d414e41474552000000000000000000008152506040518263ffffffff1660e01b815260040161a020919061b678565b602060405180830381865afa15801561a03b573d5f803e3d5ffd5b505050506040513d601f19601f8201168201806040525081019061a05f919061bf22565b73ffffffffffffffffffffffffffffffffffffffff163373ffffffffffffffffffffffffffffffffffffffff161461a0cc576040517f08c379a000000000000000000000000000000000000000000000000000000000815260040161a0c39061bf97565b60405180910390fd5b60025f9054906101000a900473ffffffffffffffffffffffffffffffffffffffff1673ffffffffffffffffffffffffffffffffffffffff1663177d63616040518060400160405280601681526020017f42414e4b5f47554152414e5445455f4d414e41474552000000000000000000008152506040518060400160405280602081526020017f6d61705f5f616d656e646d656e7442616e6b47756172616e746565496e64657881525085856040518563ffffffff1660e01b815260040161a196949392919061c74f565b5f604051808303815f87803b15801561a1ad575f80fd5b505af115801561a1bf573d5f803e3d5ffd5b505050505050565b5f60025f9054906101000a900473ffffffffffffffffffffffffffffffffffffffff1673ffffffffffffffffffffffffffffffffffffffff1663405e2c0d6040518060400160405280601681526020017f42414e4b5f47554152414e5445455f4d414e41474552000000000000000000008152506040518060400160405280601781526020017f6d61705f5f62616e6b47756172616e746565496e646578000000000000000000815250856040518463ffffffff1660e01b815260040161a2909392919061be46565b602060405180830381865afa15801561a2ab573d5f803e3d5ffd5b505050506040513d601f19601f8201168201806040525081019061a2cf919061be9d565b9050919050565b5f815f60015f9054906101000a900473ffffffffffffffffffffffffffffffffffffffff1673ffffffffffffffffffffffffffffffffffffffff16633bea27536040518060400160405280601681526020017f42414e4b5f47554152414e5445455f4d414e41474552000000000000000000008152506040518060400160405280601781526020017f6c6973745f5f62616e6b47756172616e7465654c6973740000000000000000008152506040518363ffffffff1660e01b815260040161a39f92919061bfb5565b602060405180830381865afa15801561a3ba573d5f803e3d5ffd5b505050506040513d601f19601f8201168201806040525081019061a3de919061be9d565b905080821061a422576040517f08c379a000000000000000000000000000000000000000000000000000000000815260040161a4199061c034565b60405180910390fd5b60015f9054906101000a900473ffffffffffffffffffffffffffffffffffffffff1673ffffffffffffffffffffffffffffffffffffffff1663b83032bd6040518060400160405280601681526020017f42414e4b5f47554152414e5445455f4d414e41474552000000000000000000008152506040518060400160405280601781526020017f6c6973745f5f62616e6b47756172616e7465654c697374000000000000000000815250876040518060400160405280600981526020017f76616c696454696c6c00000000000000000000000000000000000000000000008152506040518563ffffffff1660e01b815260040161a521949392919061c272565b602060405180830381865afa15801561a53c573d5f803e3d5ffd5b505050506040513d601f19601f8201168201806040525081019061a560919061be9d565b92505050919050565b60035f9054906101000a900473ffffffffffffffffffffffffffffffffffffffff1673ffffffffffffffffffffffffffffffffffffffff1663ef02a3fc6040518060400160405280601681526020017f42414e4b5f47554152414e5445455f4d414e41474552000000000000000000008152506040518263ffffffff1660e01b815260040161a5f8919061b678565b602060405180830381865afa15801561a613573d5f803e3d5ffd5b505050506040513d601f19601f8201168201806040525081019061a637919061bf22565b73ffffffffffffffffffffffffffffffffffffffff163373ffffffffffffffffffffffffffffffffffffffff161461a6a4576040517f08c379a000000000000000000000000000000000000000000000000000000000815260040161a69b9061bf97565b60405180910390fd5b5f828260405160200161a6b892919061c605565b60405160208183030381529060405280519060200120905060025f9054906101000a900473ffffffffffffffffffffffffffffffffffffffff1673ffffffffffffffffffffffffffffffffffffffff1663177d63616040518060400160405280601681526020017f42414e4b5f47554152414e5445455f4d414e41474552000000000000000000008152506040518060400160405280601b81526020017f6d61705f5f62616e6b47756172616e7465655265664e756d62657200000000008152508460016040518563ffffffff1660e01b815260040161a79b949392919061c6bf565b5f604051808303815f87803b15801561a7b2575f80fd5b505af115801561a7c4573d5f803e3d5ffd5b50505050505050565b5f8060025f9054906101000a900473ffffffffffffffffffffffffffffffffffffffff1673ffffffffffffffffffffffffffffffffffffffff1663bfa9f3eb6040518060400160405280601681526020017f42414e4b5f47554152414e5445455f4d414e414745520000000000000000000081525060405180606001604052806034815260200161c84f60349139866040518060400160405280600881526020017f5f5f6c656e67746800000000000000000000000000000000000000000000000081525060405160200161a8a2919061c2ca565b6040516020818303038152906040526040518563ffffffff1660e01b815260040161a8d0949392919061c332565b602060405180830381865afa15801561a8eb573d5f803e3d5ffd5b505050506040513d601f19601f8201168201806040525081019061a90f919061be9d565b90505f60025f9054906101000a900473ffffffffffffffffffffffffffffffffffffffff1673ffffffffffffffffffffffffffffffffffffffff1663bfa9f3eb6040518060400160405280601681526020017f42414e4b5f47554152414e5445455f4d414e414745520000000000000000000081525060405180606001604052806034815260200161c84f603491398760018761a9ac919061c4b1565b60405160200161a9bc919061c3aa565b6040516020818303038152906040526040518563ffffffff1660e01b815260040161a9ea949392919061c332565b602060405180830381865afa15801561aa05573d5f803e3d5ffd5b505050506040513d601f19601f8201168201806040525081019061aa29919061be9d565b90508092505050919050565b604051806102c001604052805f77ffffffffffffffffffffffffffffffffffffffffffffffff1916815260200160608152602001606081526020015f77ffffffffffffffffffffffffffffffffffffffffffffffff191681526020016060815260200160608152602001606081526020015f81526020015f81526020015f81526020015f81526020015f8152602001606081526020015f815260200160608152602001606081526020016060815260200160608152602001606081526020015f81526020015f600181111561ab0d5761ab0c61b2c7565b5b81526020015f61ffff1681525090565b5f604051905090565b5f80fd5b5f80fd5b5f80fd5b5f80fd5b5f601f19601f8301169050919050565b7f4e487b71000000000000000000000000000000000000000000000000000000005f52604160045260245ffd5b61ab7c8261ab36565b810181811067ffffffffffffffff8211171561ab9b5761ab9a61ab46565b5b80604052505050565b5f61abad61ab1d565b905061abb9828261ab73565b919050565b5f67ffffffffffffffff82111561abd85761abd761ab46565b5b61abe18261ab36565b9050602081019050919050565b828183375f83830152505050565b5f61ac0e61ac098461abbe565b61aba4565b90508281526020810184848401111561ac2a5761ac2961ab32565b5b61ac3584828561abee565b509392505050565b5f82601f83011261ac515761ac5061ab2e565b5b813561ac6184826020860161abfc565b91505092915050565b5f7fffffffffffffffff00000000000000000000000000000000000000000000000082169050919050565b61ac9e8161ac6a565b811461aca8575f80fd5b50565b5f8135905061acb98161ac95565b92915050565b5f806040838503121561acd55761acd461ab26565b5b5f83013567ffffffffffffffff81111561acf25761acf161ab2a565b5b61acfe8582860161ac3d565b925050602061ad0f8582860161acab565b9150509250929050565b5f819050919050565b61ad2b8161ad19565b82525050565b5f60208201905061ad445f83018461ad22565b92915050565b61ad538161ad19565b811461ad5d575f80fd5b50565b5f8135905061ad6e8161ad4a565b92915050565b5f80fd5b5f80fd5b6002811061ad88575f80fd5b50565b5f8135905061ad998161ad7c565b92915050565b5f61ffff82169050919050565b61adb58161ad9f565b811461adbf575f80fd5b50565b5f8135905061add08161adac565b92915050565b5f6102c0828403121561adec5761adeb61ad74565b5b61adf76102c061aba4565b90505f61ae068482850161acab565b5f83015250602082013567ffffffffffffffff81111561ae295761ae2861ad78565b5b61ae358482850161ac3d565b602083015250604082013567ffffffffffffffff81111561ae595761ae5861ad78565b5b61ae658482850161ac3d565b604083015250606061ae798482850161acab565b606083015250608082013567ffffffffffffffff81111561ae9d5761ae9c61ad78565b5b61aea98482850161ac3d565b60808301525060a082013567ffffffffffffffff81111561aecd5761aecc61ad78565b5b61aed98482850161ac3d565b60a08301525060c082013567ffffffffffffffff81111561aefd5761aefc61ad78565b5b61af098482850161ac3d565b60c08301525060e061af1d8482850161ad60565b60e08301525061010061af328482850161ad60565b6101008301525061012061af488482850161ad60565b6101208301525061014061af5e8482850161ad60565b6101408301525061016061af748482850161ad60565b6101608301525061018082013567ffffffffffffffff81111561af9a5761af9961ad78565b5b61afa68482850161ac3d565b610180830152506101a061afbc8482850161ad60565b6101a0830152506101c082013567ffffffffffffffff81111561afe25761afe161ad78565b5b61afee8482850161ac3d565b6101c0830152506101e082013567ffffffffffffffff81111561b0145761b01361ad78565b5b61b0208482850161ac3d565b6101e08301525061020082013567ffffffffffffffff81111561b0465761b04561ad78565b5b61b0528482850161ac3d565b6102008301525061022082013567ffffffffffffffff81111561b0785761b07761ad78565b5b61b0848482850161ac3d565b6102208301525061024082013567ffffffffffffffff81111561b0aa5761b0a961ad78565b5b61b0b68482850161ac3d565b6102408301525061026061b0cc8482850161ad60565b6102608301525061028061b0e28482850161ad8b565b610280830152506102a061b0f88482850161adc2565b6102a08301525092915050565b5f806040838503121561b11b5761b11a61ab26565b5b5f61b1288582860161ad60565b925050602083013567ffffffffffffffff81111561b1495761b14861ab2a565b5b61b1558582860161add6565b9150509250929050565b5f6020828403121561b1745761b17361ab26565b5b5f61b1818482850161ad60565b91505092915050565b5f806040838503121561b1a05761b19f61ab26565b5b5f61b1ad8582860161acab565b925050602061b1be8582860161ad60565b9150509250929050565b5f806040838503121561b1de5761b1dd61ab26565b5b5f61b1eb8582860161ad60565b925050602061b1fc8582860161ad60565b9150509250929050565b5f81519050919050565b5f82825260208201905092915050565b5f819050602082019050919050565b61b2388161ac6a565b82525050565b5f81519050919050565b5f82825260208201905092915050565b5f5b8381101561b27557808201518184015260208101905061b25a565b5f8484015250505050565b5f61b28a8261b23e565b61b294818561b248565b935061b2a481856020860161b258565b61b2ad8161ab36565b840191505092915050565b61b2c18161ad19565b82525050565b7f4e487b71000000000000000000000000000000000000000000000000000000005f52602160045260245ffd5b6002811061b3055761b30461b2c7565b5b50565b5f81905061b3158261b2f4565b919050565b5f61b3248261b308565b9050919050565b61b3348161b31a565b82525050565b61b3438161ad9f565b82525050565b5f6102c083015f83015161b35f5f86018261b22f565b506020830151848203602086015261b377828261b280565b9150506040830151848203604086015261b391828261b280565b915050606083015161b3a6606086018261b22f565b506080830151848203608086015261b3be828261b280565b91505060a083015184820360a086015261b3d8828261b280565b91505060c083015184820360c086015261b3f2828261b280565b91505060e083015161b40760e086018261b2b8565b5061010083015161b41c61010086018261b2b8565b5061012083015161b43161012086018261b2b8565b5061014083015161b44661014086018261b2b8565b5061016083015161b45b61016086018261b2b8565b5061018083015184820361018086015261b475828261b280565b9150506101a083015161b48c6101a086018261b2b8565b506101c08301518482036101c086015261b4a6828261b280565b9150506101e08301518482036101e086015261b4c2828261b280565b91505061020083015184820361020086015261b4de828261b280565b91505061022083015184820361022086015261b4fa828261b280565b91505061024083015184820361024086015261b516828261b280565b91505061026083015161b52d61026086018261b2b8565b5061028083015161b54261028086018261b32b565b506102a083015161b5576102a086018261b33a565b508091505092915050565b5f61b56d838361b349565b905092915050565b5f602082019050919050565b5f61b58b8261b206565b61b595818561b210565b93508360208202850161b5a78561b220565b805f5b8581101561b5e2578484038952815161b5c3858261b562565b945061b5ce8361b575565b925060208a0199505060018101905061b5aa565b50829750879550505050505092915050565b5f6060820190508181035f83015261b60c818661b581565b905061b61b602083018561ad22565b61b628604083018461ad22565b949350505050565b5f82825260208201905092915050565b5f61b64a8261b23e565b61b654818561b630565b935061b66481856020860161b258565b61b66d8161ab36565b840191505092915050565b5f6020820190508181035f83015261b690818461b640565b905092915050565b61b6a18161ac6a565b82525050565b5f60208201905061b6ba5f83018461b698565b92915050565b5f805f6060848603121561b6d75761b6d661ab26565b5b5f61b6e48682870161acab565b935050602061b6f58682870161ad60565b925050604061b7068682870161ad60565b9150509250925092565b5f81519050919050565b5f82825260208201905092915050565b5f819050602082019050919050565b5f61b744838361b2b8565b60208301905092915050565b5f602082019050919050565b5f61b7668261b710565b61b770818561b71a565b935061b77b8361b72a565b805f5b8381101561b7ab57815161b792888261b739565b975061b79d8361b750565b92505060018101905061b77e565b5085935050505092915050565b5f6060820190508181035f83015261b7d0818661b75c565b905061b7df602083018561ad22565b61b7ec604083018461ad22565b949350505050565b5f6020828403121561b8095761b80861ab26565b5b5f61b8168482850161acab565b91505092915050565b5f805f806080858703121561b8375761b83661ab26565b5b5f85013567ffffffffffffffff81111561b8545761b85361ab2a565b5b61b8608782880161add6565b945050602061b8718782880161ad60565b935050604085013567ffffffffffffffff81111561b8925761b89161ab2a565b5b61b89e8782880161ac3d565b925050606085013567ffffffffffffffff81111561b8bf5761b8be61ab2a565b5b61b8cb8782880161ac3d565b91505092959194509250565b5f805f6060848603121561b8ee5761b8ed61ab26565b5b5f84013567ffffffffffffffff81111561b90b5761b90a61ab2a565b5b61b9178682870161ac3d565b935050602061b9288682870161ad60565b925050604061b9398682870161ad60565b9150509250925092565b61b94c8161b31a565b82525050565b5f60208201905061b9655f83018461b943565b92915050565b5f806040838503121561b9815761b98061ab26565b5b5f61b98e8582860161acab565b925050602083013567ffffffffffffffff81111561b9af5761b9ae61ab2a565b5b61b9bb8582860161ac3d565b9150509250929050565b5f6020828403121561b9da5761b9d961ab26565b5b5f82013567ffffffffffffffff81111561b9f75761b9f661ab2a565b5b61ba038482850161add6565b91505092915050565b5f6102c083015f83015161ba225f86018261b22f565b506020830151848203602086015261ba3a828261b280565b9150506040830151848203604086015261ba54828261b280565b915050606083015161ba69606086018261b22f565b506080830151848203608086015261ba81828261b280565b91505060a083015184820360a086015261ba9b828261b280565b91505060c083015184820360c086015261bab5828261b280565b91505060e083015161baca60e086018261b2b8565b5061010083015161badf61010086018261b2b8565b5061012083015161baf461012086018261b2b8565b5061014083015161bb0961014086018261b2b8565b5061016083015161bb1e61016086018261b2b8565b5061018083015184820361018086015261bb38828261b280565b9150506101a083015161bb4f6101a086018261b2b8565b506101c08301518482036101c086015261bb69828261b280565b9150506101e08301518482036101e086015261bb85828261b280565b91505061020083015184820361020086015261bba1828261b280565b91505061022083015184820361022086015261bbbd828261b280565b91505061024083015184820361024086015261bbd9828261b280565b91505061026083015161bbf061026086018261b2b8565b5061028083015161bc0561028086018261b32b565b506102a083015161bc1a6102a086018261b33a565b508091505092915050565b5f6040820190508181035f83015261bc3d818561ba0c565b905061bc4c602083018461ad22565b9392505050565b61bc5c8161ad9f565b82525050565b5f60208201905061bc755f83018461bc53565b92915050565b5f806040838503121561bc915761bc9061ab26565b5b5f83013567ffffffffffffffff81111561bcae5761bcad61ab2a565b5b61bcba8582860161add6565b925050602061bccb8582860161ad60565b9150509250929050565b5f6020820190508181035f83015261bced818461ba0c565b905092915050565b5f806040838503121561bd0b5761bd0a61ab26565b5b5f83013567ffffffffffffffff81111561bd285761bd2761ab2a565b5b61bd348582860161ac3d565b925050602061bd458582860161ad60565b9150509250929050565b5f806040838503121561bd655761bd6461ab26565b5b5f83013567ffffffffffffffff81111561bd825761bd8161ab2a565b5b61bd8e8582860161ac3d565b925050602083013567ffffffffffffffff81111561bdaf5761bdae61ab2a565b5b61bdbb8582860161ac3d565b9150509250929050565b5f819050919050565b61bddf61bdda8261ac6a565b61bdc5565b82525050565b5f81905092915050565b5f61bdf98261b23e565b61be03818561bde5565b935061be1381856020860161b258565b80840191505092915050565b5f61be2a828561bdce565b60088201915061be3a828461bdef565b91508190509392505050565b5f6060820190508181035f83015261be5e818661b640565b9050818103602083015261be72818561b640565b905061be81604083018461b698565b949350505050565b5f8151905061be978161ad4a565b92915050565b5f6020828403121561beb25761beb161ab26565b5b5f61bebf8482850161be89565b91505092915050565b5f73ffffffffffffffffffffffffffffffffffffffff82169050919050565b5f61bef18261bec8565b9050919050565b61bf018161bee7565b811461bf0b575f80fd5b50565b5f8151905061bf1c8161bef8565b92915050565b5f6020828403121561bf375761bf3661ab26565b5b5f61bf448482850161bf0e565b91505092915050565b7f556e617574686f72697a656420436f6e74726163742043616c6c0000000000005f82015250565b5f61bf81601a8361b630565b915061bf8c8261bf4d565b602082019050919050565b5f6020820190508181035f83015261bfae8161bf75565b9050919050565b5f6040820190508181035f83015261bfcd818561b640565b9050818103602083015261bfe1818461b640565b90509392505050565b7f496e64657820496e76616c6964000000000000000000000000000000000000005f82015250565b5f61c01e600d8361b630565b915061c0298261bfea565b602082019050919050565b5f6020820190508181035f83015261c04b8161c012565b9050919050565b5f60a0820190508181035f83015261c06a818861b640565b9050818103602083015261c07e818761b640565b905061c08d604083018661ad22565b818103606083015261c09f818561b640565b905061c0ae608083018461b698565b9695505050505050565b5f60a0820190508181035f83015261c0d0818861b640565b9050818103602083015261c0e4818761b640565b905061c0f3604083018661ad22565b818103606083015261c105818561b640565b9050818103608083015261c119818461b640565b90509695505050505050565b5f60a0820190508181035f83015261c13d818861b640565b9050818103602083015261c151818761b640565b905061c160604083018661ad22565b818103606083015261c172818561b640565b905061c181608083018461ad22565b9695505050505050565b5f60ff82169050919050565b61c1a08161c18b565b82525050565b5f60a0820190508181035f83015261c1be818861b640565b9050818103602083015261c1d2818761b640565b905061c1e1604083018661ad22565b818103606083015261c1f3818561b640565b905061c202608083018461c197565b9695505050505050565b5f60a0820190508181035f83015261c224818861b640565b9050818103602083015261c238818761b640565b905061c247604083018661ad22565b818103606083015261c259818561b640565b905061c268608083018461bc53565b9695505050505050565b5f6080820190508181035f83015261c28a818761b640565b9050818103602083015261c29e818661b640565b905061c2ad604083018561ad22565b818103606083015261c2bf818461b640565b905095945050505050565b5f61c2d5828461bdef565b915081905092915050565b5f81519050919050565b5f82825260208201905092915050565b5f61c3048261c2e0565b61c30e818561c2ea565b935061c31e81856020860161b258565b61c3278161ab36565b840191505092915050565b5f6080820190508181035f83015261c34a818761b640565b9050818103602083015261c35e818661b640565b905061c36d604083018561b698565b818103606083015261c37f818461c2fa565b905095945050505050565b5f819050919050565b61c3a461c39f8261ad19565b61c38a565b82525050565b5f61c3b5828461c393565b60208201915081905092915050565b5f60a0820190508181035f83015261c3dc818861b640565b9050818103602083015261c3f0818761b640565b905061c3ff604083018661b698565b818103606083015261c411818561c2fa565b905061c420608083018461ad22565b9695505050505050565b7f4e487b71000000000000000000000000000000000000000000000000000000005f52601160045260245ffd5b5f61c4618261ad19565b915061c46c8361ad19565b925082820190508082111561c4845761c48361c42a565b5b92915050565b5f61c4948261ad19565b91505f820361c4a65761c4a561c42a565b5b600182039050919050565b5f61c4bb8261ad19565b915061c4c68361ad19565b925082820390508181111561c4de5761c4dd61c42a565b5b92915050565b7f4e487b71000000000000000000000000000000000000000000000000000000005f52603260045260245ffd5b5f61c52361c51e8461abbe565b61aba4565b90508281526020810184848401111561c53f5761c53e61ab32565b5b61c54a84828561b258565b509392505050565b5f82601f83011261c5665761c56561ab2e565b5b815161c57684826020860161c511565b91505092915050565b5f6020828403121561c5945761c59361ab26565b5b5f82015167ffffffffffffffff81111561c5b15761c5b061ab2a565b5b61c5bd8482850161c552565b91505092915050565b5f8151905061c5d48161ac95565b92915050565b5f6020828403121561c5ef5761c5ee61ab26565b5b5f61c5fc8482850161c5c6565b91505092915050565b5f61c610828561bdef565b915061c61c828461bdef565b91508190509392505050565b61c6318161c18b565b811461c63b575f80fd5b50565b5f8151905061c64c8161c628565b92915050565b5f6020828403121561c6675761c66661ab26565b5b5f61c6748482850161c63e565b91505092915050565b5f819050919050565b5f819050919050565b5f61c6a961c6a461c69f8461c67d565b61c686565b61ad19565b9050919050565b61c6b98161c68f565b82525050565b5f6080820190508181035f83015261c6d7818761b640565b9050818103602083015261c6eb818661b640565b905061c6fa604083018561b698565b61c707606083018461c6b0565b95945050505050565b5f8151905061c71e8161adac565b92915050565b5f6020828403121561c7395761c73861ab26565b5b5f61c7468482850161c710565b91505092915050565b5f6080820190508181035f83015261c767818761b640565b9050818103602083015261c77b818661b640565b905061c78a604083018561b698565b61c797606083018461ad22565b95945050505050565b5f819050919050565b5f61c7c361c7be61c7b98461c7a0565b61c686565b61ad19565b9050919050565b61c7d38161c7a9565b82525050565b5f6080820190508181035f83015261c7f1818761b640565b9050818103602083015261c805818661b640565b905061c814604083018561b698565b61c821606083018461c7ca565b9594505050505056fe6d61705f5f62616e6b47756172616e74656542795061796d656e744164766963655569646d61705f5f62616e6b47756172616e746565496e6465784c69737442795061796d656e74416476696365416e6442616e6b4769646d61705f5f62616e6b47756172616e746565427942616e6b476964416e645061796d656e744164766963655569646d61705f5f62616e6b47756172616e746565427942675265666572656e6365416e6442616e6b4769646d61705f5f62616e6b47756172616e746565427956656e646f72416e6442616e6b476964a264697066735822122089cc96c937390571f90edf3ab094eebda8cd04ccb2ef5f0dc522c169bed9c5f264736f6c63430008140033",
  "immutableReferences": {},
  "source": "pragma solidity ^0.8.0;\npragma experimental ABIEncoderV2;\n\nimport \"./MemberStorage.sol\";\nimport \"./ListStorage.sol\";\nimport \"./MapStorage.sol\";\nimport \"./QuireContracts.sol\";\n\ncontract BankGuaranteeStructs{\n\n    uint16 constant internal __VERSION__ = 1;\n \n    enum FormStatus {OUTDATED, ACTIVE}\n    \n    struct BankGuarantee {\n        bytes8 uid;\n        string bankGid;\n        string paymentAdviceNumber;\n        bytes8 paymentAdviceUid;\n        string referenceNumber;\n        string branchName;\n        string bankRepresentativeName;\n        uint issuanceDate;\n        uint validityPeriod;\n        uint claimExpiryDate;\n        uint validFrom;\n        uint validTill;\n        string currency;\n        uint amount;\n        string beneficiaryName;\n        string fileHash;\n        string bankEncryptedKey;\n        string egpEncryptedKey;\n        string vendorEncryptedKey;\n        uint amendment;\n        FormStatus formStatus;\n        uint16 version;        \n    }\n\n    string constant internal propNameBankGuaranteeUid = \"uid\";\n    string constant internal propNameBankGuaranteeBankGid = \"bankGid\";\n    string constant internal propNameBankGuaranteePaymentAdviceNumber = \"paymentAdviceNumber\";\n    string constant internal propNameBankGuaranteePaymentAdviceUid = \"paymentAdviceUid\";\n    string constant internal propNameBankGuaranteeReferenceNumber = \"ReferenceNumber\";\n    string constant internal propNameBankGuaranteeBranchName = \"branchName\";\n    string constant internal propNameBankGuaranteeBankRepresentativeName = \"bankRepresentativeName\";\n    string constant internal propNameBankGuaranteeIssuanceDate = \"issuanceDate\";\n    string constant internal propNameBankGuaranteeValidityPeriod = \"validityPeriod\";\n    string constant internal propNameBankGuaranteeClaimExpiryDate = \"claimExpiryDate\";\n    string constant internal propNameBankGuaranteeValidFrom = \"validFrom\";\n    string constant internal propNameBankGuaranteeValidTill = \"validTill\";\n    string constant internal propNameBankGuaranteeCurrency = \"currency\"; \n    string constant internal propNameBankGuaranteeAmount = \"amount\";    \n    string constant internal propNameBankGuaranteeBeneficiaryName = \"beneficiaryName\";\n    string constant internal propNameBankGuaranteeFileHash = \"fileHash\";\n    string constant internal propNameBankGuaranteeBankEncryptedKey = \"bankEncryptedKey\";\n    string constant internal propNameBankGuaranteeEgpEncryptedKey = \"egpEncryptedKey\";\n    string constant internal propNameBankGuaranteeVendorEncryptedKey = \"vendorEncryptedKey\";\n    string constant internal propNameBankGuaranteeAmendment = \"amendment\";\n    string constant internal propNameBankGuaranteeFormStatus = \"formStatus\";\n    string constant internal propNameBankGuaranteeVersion = \"version\";\n\n}\n\n\ncontract BankGuaranteeModel is BankGuaranteeStructs {\n    \n    MemberStorage private Member;\n    ListStorage private List;\n    MapStorage private Map;\n    QuireContracts private quireContracts;\n    \n    constructor(\n        address _Member,\n        address _List,\n        address _Map,\n        address _quireContracts\n    ){\n        Member = MemberStorage(_Member);\n        List = ListStorage(_List);\n        Map = MapStorage(_Map);\n        quireContracts = QuireContracts(_quireContracts);\n    }\n\n    string constant internal KEY = \"BANK_GUARANTEE_MANAGER\";\n    string constant internal keyListLength = \"__length\";\n\n\n    string constant internal bankGuaranteeList = \"list__bankGuaranteeList\";\n    string constant internal amendmentBankGuaranteeList = \"list__amendmentBankGuaranteeList\";\n    string constant internal bankGuaranteeIndex = \"map__bankGuaranteeIndex\";\n    string constant internal amendmentBankGuaranteeIndex = \"map__amendmentBankGuaranteeIndex\";\n    string constant internal bankGuaranteeRefNumber = \"map__bankGuaranteeRefNumber\";\n    string constant internal bankGuaranteeByBankGid = \"map__bankGuaranteeByBankGid\";\n    string constant internal bankGuaranteeIndexListByPaymentAdviceAndBankGid = \"map__bankGuaranteeIndexListByPaymentAdviceAndBankGid\";\n    string constant internal bankGuaranteeByPaymentAdviceUid = \"map__bankGuaranteeByPaymentAdviceUid\";\n    string constant internal bankGuaranteeByBankGidAndPaymentAdviceUid = \"map__bankGuaranteeByBankGidAndPaymentAdviceUid\";\n    string constant internal bankGuaranteeByBgReferenceAndBankGid = \"map__bankGuaranteeByBgReferenceAndBankGid\";\n    string constant internal bankGuaranteeByVendorAndBankGid = \"map__bankGuaranteeByVendorAndBankGid\";\n    string constant internal bankGuaranteeByPEAndBankGid = \"map__bankGuaranteeByPEAndBankGid\";\n    string constant internal bankGuaranteeStatusByBgUid = \"map__bankGuaranteeStatusByBgUid\";\n\n    modifier onlyBankGuaranteeManager() {\n        require(msg.sender==quireContracts.getRegisteredContract(KEY), \"Unauthorized Contract Call\");\n        _;\n    }\n\n    modifier validBankGuaranteeListIndex(uint256 _index){\n        uint256 length = List.getLength(KEY, bankGuaranteeList);\n        require(_index < length, \"Index Invalid\");\n        _;\n    }\n\n    // Bank Gurantee\n\n    function getBankGuaranteeIndex(bytes8 _uid) public view returns (uint256) {\n        return Map.getBytes8ToUint(KEY, bankGuaranteeIndex, _uid);\n    }\n\n    function getBankGuaranteeIndexListLengthByPaymentAdviceAndBankGid(bytes8 _uid) public view returns(uint) {\n        return Map.getByKeyBytes8ToUint(KEY, bankGuaranteeIndexListByPaymentAdviceAndBankGid, _uid, abi.encodePacked(keyListLength));\n    }\n\n    function getAmendmentBankGuaranteeIndex(bytes8 _uid) public view returns (uint256) {\n        return Map.getBytes8ToUint(KEY, amendmentBankGuaranteeIndex, _uid);\n    }\n\n    function getBankGuaranteeByBankGidAndPaymentAdviceUidListLength(string memory _bankGid, bytes8 _paymentAdviceUid) public view returns (uint256) {\n        bytes8 _key = bytes8(keccak256(abi.encodePacked(_paymentAdviceUid, _bankGid)));\n        return Map.getByKeyBytes8ToUint(KEY, bankGuaranteeByBankGidAndPaymentAdviceUid, _key, abi.encodePacked(keyListLength));\n    }\n\n    function getBankGuaranteeListLength() public view returns (uint256) {\n        return List.getLength(KEY, bankGuaranteeList);\n    }\n\n    function getBankGuaranteeByIndex(uint256 _index)\n        public\n        view\n        validBankGuaranteeListIndex(_index)\n        returns (BankGuarantee memory bankGuarantee_)\n    {\n        bankGuarantee_.uid = getBankGuaranteeUid(_index);\n        bankGuarantee_.bankGid = getBankGuaranteeBankGid(_index);\n        bankGuarantee_.paymentAdviceNumber = getBankGuaranteePaymentAdviceNumber(_index);\n        bankGuarantee_.paymentAdviceUid = getBankGuaranteePaymentAdviceUid(_index);\n        bankGuarantee_.referenceNumber = getBankGuaranteeReferenceNumber(_index);\n        bankGuarantee_.branchName = getBankGuaranteeBranchName(_index);\n        bankGuarantee_.bankRepresentativeName = getBankGuaranteeBankRepresentativeName(_index);\n        bankGuarantee_.issuanceDate = getBankGuaranteeIssuanceDate(_index);\n        bankGuarantee_.validityPeriod = getBankGuaranteeValidityPeriod(_index);\n        bankGuarantee_.claimExpiryDate = getBankGuaranteeClaimExpiryDate(_index);\n        bankGuarantee_.validFrom = getBankGuaranteeValidFrom(_index);\n        bankGuarantee_.validTill = getBankGuaranteeValidTill(_index);\n        bankGuarantee_.currency = getBankGuaranteeCurrency(_index);\n        bankGuarantee_.amount = getBankGuaranteeAmount(_index);\n        bankGuarantee_.beneficiaryName = getBankGuaranteeBeneficiaryName(_index);\n        bankGuarantee_.fileHash = getBankGuaranteeFileHash(_index);\n        bankGuarantee_.bankEncryptedKey = getBankGuaranteeBankEncryptedKey(_index);\n        bankGuarantee_.egpEncryptedKey = getBankGuaranteeEgpEncryptedKey(_index);\n        bankGuarantee_.vendorEncryptedKey = getBankGuaranteeVendorEncryptedKey(_index);\n        bankGuarantee_.amendment = getBankGuaranteeAmendment(_index);\n        bankGuarantee_.formStatus = getBankGuaranteeFormStatus(_index);\n        bankGuarantee_.version = getBankGuaranteeVersion(_index);\n    }\n\n    function getAllBankGuarantee(uint _toExcluded, uint _count) external view \n    returns(BankGuarantee[] memory _bankGuarantee, uint fromIncluded_, uint length_) {\n        uint length = getBankGuaranteeListLength();\n        if (_toExcluded > length) {\n            _toExcluded = length;\n        }\n        uint itr = _count>_toExcluded ? _toExcluded:_count;\n        _bankGuarantee = new BankGuarantee[](itr);\n        while (itr>0) {\n            itr--;\n            _toExcluded--;\n            _bankGuarantee[_bankGuarantee.length-itr-1] = getBankGuaranteeByIndex(_toExcluded);\n        }\n        fromIncluded_ = _toExcluded;\n        length_ = length;\n    }\n\n    function getBankGuaranteeUid(uint256 _index) public view \n    validBankGuaranteeListIndex(_index) \n    returns(bytes8) {\n        return List.getPropBytes8(KEY, bankGuaranteeList, _index, propNameBankGuaranteeUid);\n    }\n\n    function getBankGuaranteeBankGid(uint256 _index) public view \n    validBankGuaranteeListIndex(_index) \n    returns(string memory) {\n        return List.getPropString(KEY, bankGuaranteeList, _index, propNameBankGuaranteeBankGid);\n    }\n\n    function getBankGuaranteePaymentAdviceNumber(uint256 _index) public view \n    validBankGuaranteeListIndex(_index) \n    returns(string memory) {\n        return List.getPropString(KEY, bankGuaranteeList, _index, propNameBankGuaranteePaymentAdviceNumber);\n    }\n\n    function getBankGuaranteePaymentAdviceUid(uint256 _index) public view \n    validBankGuaranteeListIndex(_index) \n    returns(bytes8) {\n        return List.getPropBytes8(KEY, bankGuaranteeList, _index, propNameBankGuaranteePaymentAdviceUid);\n    }\n\n    function getBankGuaranteeReferenceNumber(uint256 _index) public view \n    validBankGuaranteeListIndex(_index) \n    returns(string memory) {\n        return List.getPropString(KEY, bankGuaranteeList, _index, propNameBankGuaranteeReferenceNumber);\n    }\n\n    function getBankGuaranteeBranchName(uint256 _index) public view \n    validBankGuaranteeListIndex(_index) \n    returns(string memory) {\n        return List.getPropString(KEY, bankGuaranteeList, _index, propNameBankGuaranteeBranchName);\n    }\n\n    function getBankGuaranteeBankRepresentativeName(uint256 _index) public view \n    validBankGuaranteeListIndex(_index) \n    returns(string memory) {\n        return List.getPropString(KEY, bankGuaranteeList, _index, propNameBankGuaranteeBankRepresentativeName);\n    }\n\n    function getBankGuaranteeIssuanceDate(uint256 _index) public view \n    validBankGuaranteeListIndex(_index) \n    returns(uint) {\n        return List.getPropUint(KEY, bankGuaranteeList, _index, propNameBankGuaranteeIssuanceDate);\n    }\n\n    function getBankGuaranteeValidityPeriod(uint256 _index) public view \n    validBankGuaranteeListIndex(_index) \n    returns(uint) {\n        return List.getPropUint(KEY, bankGuaranteeList, _index, propNameBankGuaranteeValidityPeriod);\n    }\n\n    function getBankGuaranteeClaimExpiryDate(uint256 _index) public view \n    validBankGuaranteeListIndex(_index) \n    returns(uint) {\n        return List.getPropUint(KEY, bankGuaranteeList, _index, propNameBankGuaranteeClaimExpiryDate);\n    }\n\n    function getBankGuaranteeValidFrom(uint256 _index) public view \n    validBankGuaranteeListIndex(_index) \n    returns(uint) {\n        return List.getPropUint(KEY, bankGuaranteeList, _index, propNameBankGuaranteeValidFrom);\n    }\n\n    function getBankGuaranteeValidTill(uint256 _index) public view \n    validBankGuaranteeListIndex(_index) \n    returns(uint) {\n        return List.getPropUint(KEY, bankGuaranteeList, _index, propNameBankGuaranteeValidTill);\n    }\n\n    function getBankGuaranteeCurrency(uint256 _index) public view \n    validBankGuaranteeListIndex(_index) \n    returns(string memory) {\n        return List.getPropString(KEY, bankGuaranteeList, _index, propNameBankGuaranteeCurrency);\n    }\n\n    function getBankGuaranteeAmount(uint256 _index) public view \n    validBankGuaranteeListIndex(_index) \n    returns(uint) {\n        return List.getPropUint(KEY, bankGuaranteeList, _index, propNameBankGuaranteeAmount);\n    }\n\n    function getBankGuaranteeBeneficiaryName(uint256 _index) public view \n    validBankGuaranteeListIndex(_index) \n    returns(string memory) {\n        return List.getPropString(KEY, bankGuaranteeList, _index, propNameBankGuaranteeBeneficiaryName);\n    }\n\n    function getBankGuaranteeFileHash(uint256 _index) public view \n    validBankGuaranteeListIndex(_index) \n    returns(string memory) {\n        return List.getPropString(KEY, bankGuaranteeList, _index, propNameBankGuaranteeFileHash);\n    }\n\n    function getBankGuaranteeBankEncryptedKey(uint256 _index) public view \n    validBankGuaranteeListIndex(_index) \n    returns(string memory) {\n        return List.getPropString(KEY, bankGuaranteeList, _index, propNameBankGuaranteeBankEncryptedKey);\n    }\n\n    function getBankGuaranteeEgpEncryptedKey(uint256 _index) public view \n    validBankGuaranteeListIndex(_index) \n    returns(string memory) {\n        return List.getPropString(KEY, bankGuaranteeList, _index, propNameBankGuaranteeEgpEncryptedKey);\n    }\n\n    function getBankGuaranteeVendorEncryptedKey(uint256 _index) public view \n    validBankGuaranteeListIndex(_index) \n    returns(string memory) {\n        return List.getPropString(KEY, bankGuaranteeList, _index, propNameBankGuaranteeVendorEncryptedKey);\n    }\n\n    function getBankGuaranteeAmendment(uint256 _index) public view\n    validBankGuaranteeListIndex(_index)\n    returns(uint) {\n        return List.getPropUint(KEY, bankGuaranteeList, _index, propNameBankGuaranteeAmendment);\n    }\n\n    function getBankGuaranteeFormStatus(uint256 _index) public view\n    validBankGuaranteeListIndex(_index)\n    returns(FormStatus) {\n        return FormStatus(List.getPropUint8(KEY, bankGuaranteeList, _index, propNameBankGuaranteeFormStatus));\n    }\n\n    function getBankGuaranteeVersion(uint256 _index) public view \n    validBankGuaranteeListIndex(_index) \n    returns(uint16) {\n        return List.getPropUint16(KEY, bankGuaranteeList, _index, propNameBankGuaranteeVersion);\n    }\n\n\n    function getBankGuaranteeIndexesByBankGid(string memory _bankGid, uint _toExcluded, uint _count) public view \n    returns (uint256[] memory indexList_, uint fromIncluded_, uint length_) {\n        bytes8 key = bytes8(keccak256(abi.encodePacked(_bankGid)));\n        uint length = Map.getByKeyBytes8ToUint(KEY, bankGuaranteeByBankGid, key, abi.encodePacked(keyListLength));\n        if (_toExcluded > length) {\n            _toExcluded = length;\n        }\n        uint itr = _count>_toExcluded ? _toExcluded:_count;\n        indexList_ = new uint[](itr);\n        while (itr>0) {\n            itr--;\n            _toExcluded--;\n            indexList_[indexList_.length-itr-1] = Map.getByKeyBytes8ToUint(KEY, bankGuaranteeByBankGid, key, abi.encodePacked(_toExcluded));\n        }\n        fromIncluded_ = _toExcluded;\n        length_ = length;\n    }\n\n    function getBankGuaranteeIndexByPaymentAdviceUid(bytes8 _paymentAdviceUid) public view returns (uint256 indexList_) {\n        return Map.getBytes8ToUint(KEY, bankGuaranteeByPaymentAdviceUid, _paymentAdviceUid);\n    }\n\n    function getBankGuaranteforPaymentAdviceBankGid(string memory _bankGid, bytes8 _paymentAdviceUid) public view returns (uint) {\n        bytes8 _key = bytes8(keccak256(abi.encodePacked(_paymentAdviceUid, _bankGid)));\n        return Map.getBytes8ToUint(KEY,bankGuaranteeByBankGidAndPaymentAdviceUid, _key);\n    }\n\n    \n    /** @dev Listing out the Bank Guarantees against the Reference Number and Bank Gid.\n      * @param _bgRefBankGid Reference number of bank Guarantee and Global id of bank.     \n      * @param _toExcluded The length till where the uint indexes has to be fetched.\n      * @param _count The number of indexes that has to be fetched. \n      * @return _bankGuaranteeByBgReferenceAndBankGid List of Bank Guarantees against the Reference Number and Bank Gid.\n      * @return fromIncluded_ _toExcluded - _count.\n      * @return length_ The length of the index present for the Reference Number and Bank Gid.\n      */\n    function getBankGuaranteeByBgReferenceAndBankGid(bytes8 _bgRefBankGid,  uint _toExcluded, uint _count) public view returns(uint[] memory _bankGuaranteeByBgReferenceAndBankGid, uint fromIncluded_, uint length_)  {\n        //bytes8 _bgRefBankGid = bytes8(keccak256(abi.encodePacked(_referenceNumber, _bankGid)));\n        uint length = Map.getByKeyBytes8ToUint(KEY, bankGuaranteeByBgReferenceAndBankGid, _bgRefBankGid, abi.encodePacked(keyListLength)); \n        if (_toExcluded > length) {\n            _toExcluded = length;\n        }\n        uint itr = _count>_toExcluded ? _toExcluded:_count;\n        _bankGuaranteeByBgReferenceAndBankGid = new uint[](itr);\n        while (itr>0) {\n            itr--;\n            _toExcluded--;\n            _bankGuaranteeByBgReferenceAndBankGid[_bankGuaranteeByBgReferenceAndBankGid.length-itr-1] = Map.getByKeyBytes8ToUint(KEY, bankGuaranteeByBgReferenceAndBankGid, _bgRefBankGid, abi.encodePacked(_toExcluded));\n        }\n        fromIncluded_ = _toExcluded;\n        length_ = length;\n    }\n\n    \n    /** @dev Listing out the Bank Guarantees against the Vendor Gid and Bank Gid.\n      * @param _bgVendorBankGid Global id of the Vendor and Global id of bank.\n      * @param _toExcluded The length till where the uint indexes has to be fetched.\n      * @param _count The number of indexes that has to be fetched. \n      * @return _bankGuaranteeByVendorAndBankGid List of Bank Guarantees against the Vendor Gid and Bank Gid.\n      * @return fromIncluded_ _toExcluded - _count.\n      * @return length_ The length of the index present for the Vendor Gid and Bank Gid.\n      */\n    function getBankGuaranteeByVendorAndBankGid(bytes8 _bgVendorBankGid,  uint _toExcluded, uint _count) public view returns(uint[] memory _bankGuaranteeByVendorAndBankGid, uint fromIncluded_, uint length_)  {\n        //bytes8 _bgVendorBankGid = bytes8(keccak256(abi.encodePacked(_vendorGid, _bankGid)));\n        uint length = Map.getByKeyBytes8ToUint(KEY, bankGuaranteeByVendorAndBankGid, _bgVendorBankGid, abi.encodePacked(keyListLength));\n        if (_toExcluded > length) {\n            _toExcluded = length;\n        }\n        uint itr = _count>_toExcluded ? _toExcluded:_count;\n        _bankGuaranteeByVendorAndBankGid = new uint[](itr);\n        while (itr>0) {\n            itr--;\n            _toExcluded--;\n            _bankGuaranteeByVendorAndBankGid[_bankGuaranteeByVendorAndBankGid.length-itr-1] = Map.getByKeyBytes8ToUint(KEY, bankGuaranteeByVendorAndBankGid, _bgVendorBankGid, abi.encodePacked(_toExcluded));\n        }\n        fromIncluded_ = _toExcluded;\n        length_ = length;\n    }\n\n    \n    /** @dev Listing out the Bank Guarantees against the PE Gid and Bank Gid.\n      * @param _bgPeBankGid Global id of Procuring Entity and Global id of bank.\n      * @param _toExcluded The length till where the uint indexes has to be fetched.\n      * @param _count The number of indexes that has to be fetched. \n      * @return _bankGuaranteeByPEAndBankGid List of Bank Guarantees against the PE Gid and Bank Gid.\n      * @return fromIncluded_ _toExcluded - _count.\n      * @return length_ The length of the index present for the PE Gid and Bank Gid.\n      */\n    function getBankGuaranteeByPEAndBankGid(bytes8 _bgPeBankGid,  uint _toExcluded, uint _count) public view returns(uint[] memory _bankGuaranteeByPEAndBankGid, uint fromIncluded_, uint length_)  {\n        //bytes8 _bgPeBankGid = bytes8(keccak256(abi.encodePacked(_peGid, _bankGid)));\n        uint length = Map.getByKeyBytes8ToUint(KEY, bankGuaranteeByPEAndBankGid, _bgPeBankGid, abi.encodePacked(keyListLength));\n        if (_toExcluded > length) {\n            _toExcluded = length;\n        }\n        uint itr = _count>_toExcluded ? _toExcluded:_count;\n        _bankGuaranteeByPEAndBankGid = new uint[](itr);\n        while (itr>0) {\n            itr--;\n            _toExcluded--;\n            _bankGuaranteeByPEAndBankGid[_bankGuaranteeByPEAndBankGid.length-itr-1] = Map.getByKeyBytes8ToUint(KEY, bankGuaranteeByPEAndBankGid, _bgPeBankGid, abi.encodePacked(_toExcluded));\n        }\n        fromIncluded_ = _toExcluded;\n        length_ = length;\n    }\n\n    function getMapBankGuaranteeReferenceNumber (string memory _referenceNumber, string memory _bankGid) public view\n    returns(uint)\n    {\n        bytes8 _bgPABankGid = bytes8(keccak256(abi.encodePacked(_referenceNumber, _bankGid)));\n        return (Map.getBytes8ToUint(KEY, bankGuaranteeRefNumber, _bgPABankGid));\n    }\n\n    function _getPreviousIndex(bytes8 _uid) internal view \n    returns (uint) {\n        uint _len = Map.getByKeyBytes8ToUint(KEY, bankGuaranteeIndexListByPaymentAdviceAndBankGid, _uid, abi.encodePacked(keyListLength));\n        uint _index = Map.getByKeyBytes8ToUint(KEY, bankGuaranteeIndexListByPaymentAdviceAndBankGid, _uid, abi.encodePacked(_len-1));\n        return _index;  \n    }\n\n    \n    \n    // ------------- SETTERS ------------- //\n    // Bank Guarantee\n\n    function setBankGuaranteeIndex(bytes8 _uid, uint _value) public \n    onlyBankGuaranteeManager {\n        Map.setBytes8ToUint(KEY, bankGuaranteeIndex, _uid, _value);\n    }\n\n    function setAmendmentBankGuaranteeIndex(bytes8 _uid, uint _value) public \n    onlyBankGuaranteeManager {\n        Map.setBytes8ToUint(KEY, amendmentBankGuaranteeIndex, _uid, _value);\n    }\n\n    function updatePreviousBgtoOutdated(uint _index) public \n    onlyBankGuaranteeManager\n    {\n        // _setBankGuaranteeFormStatus(_index, FormStatus.OUTDATED);\n        List.setPropUint8(KEY, bankGuaranteeList, _index, propNameBankGuaranteeFormStatus, uint8(FormStatus.OUTDATED));\n\n    }\n\n    function addBankGuaranteeIndexListByPaymentAdviceAndBankGid(bytes8 _uid, uint _value) public \n    onlyBankGuaranteeManager {\n        uint length = Map.getByKeyBytes8ToUint(KEY, bankGuaranteeIndexListByPaymentAdviceAndBankGid, _uid, abi.encodePacked(keyListLength));\n        Map.setByKeyBytes8ToUint(KEY, bankGuaranteeIndexListByPaymentAdviceAndBankGid, _uid, abi.encodePacked(length), _value);\n        Map.setByKeyBytes8ToUint(KEY, bankGuaranteeIndexListByPaymentAdviceAndBankGid, _uid, abi.encodePacked(keyListLength), 1+length);\n    }\n\n    function incBankGuaranteeListLength() public \n    onlyBankGuaranteeManager {\n        List.incLength(KEY, bankGuaranteeList);\n    }\n\n    function addBankGuarantee(uint _index, BankGuarantee memory _BankGuarantee) public\n    onlyBankGuaranteeManager\n    validBankGuaranteeListIndex(_index) {\n        List.setPropBytes8(KEY, bankGuaranteeList, _index, propNameBankGuaranteeUid,  _BankGuarantee.uid);\n        List.setPropString(KEY, bankGuaranteeList, _index, propNameBankGuaranteeBankGid,  _BankGuarantee.bankGid);       \n        List.setPropString(KEY, bankGuaranteeList, _index, propNameBankGuaranteePaymentAdviceNumber,  _BankGuarantee.paymentAdviceNumber);\n        List.setPropBytes8(KEY, bankGuaranteeList, _index, propNameBankGuaranteePaymentAdviceUid,  _BankGuarantee.paymentAdviceUid);\n        List.setPropString(KEY, bankGuaranteeList, _index, propNameBankGuaranteeReferenceNumber,  _BankGuarantee.referenceNumber);        \n        List.setPropString(KEY, bankGuaranteeList, _index, propNameBankGuaranteeBranchName,  _BankGuarantee.branchName);\n        List.setPropString(KEY, bankGuaranteeList, _index, propNameBankGuaranteeBankRepresentativeName,  _BankGuarantee.bankRepresentativeName);\n        List.setPropUint(KEY, bankGuaranteeList, _index, propNameBankGuaranteeIssuanceDate,  _BankGuarantee.issuanceDate);\n        List.setPropUint(KEY, bankGuaranteeList, _index, propNameBankGuaranteeValidityPeriod,  _BankGuarantee.validityPeriod);\n        List.setPropUint(KEY, bankGuaranteeList, _index, propNameBankGuaranteeClaimExpiryDate,  _BankGuarantee.claimExpiryDate);       \n        List.setPropUint(KEY, bankGuaranteeList, _index, propNameBankGuaranteeValidFrom,  _BankGuarantee.validFrom);\n        List.setPropUint(KEY, bankGuaranteeList, _index, propNameBankGuaranteeValidTill,  _BankGuarantee.validTill);\n        List.setPropString(KEY, bankGuaranteeList, _index, propNameBankGuaranteeCurrency,  _BankGuarantee.currency);\n        List.setPropUint(KEY, bankGuaranteeList, _index, propNameBankGuaranteeAmount,  _BankGuarantee.amount);\n        List.setPropString(KEY, bankGuaranteeList, _index, propNameBankGuaranteeBeneficiaryName,  _BankGuarantee.beneficiaryName);\n        List.setPropString(KEY, bankGuaranteeList, _index, propNameBankGuaranteeFileHash,  _BankGuarantee.fileHash);\n        List.setPropString(KEY, bankGuaranteeList, _index, propNameBankGuaranteeBankEncryptedKey,  _BankGuarantee.bankEncryptedKey);\n        List.setPropString(KEY, bankGuaranteeList, _index, propNameBankGuaranteeEgpEncryptedKey,  _BankGuarantee.egpEncryptedKey);        \n        List.setPropString(KEY, bankGuaranteeList, _index, propNameBankGuaranteeVendorEncryptedKey,  _BankGuarantee.vendorEncryptedKey);\n        List.setPropUint(KEY, bankGuaranteeList, _index, propNameBankGuaranteeAmendment,  _BankGuarantee.amendment);\n        List.setPropUint8(KEY, bankGuaranteeList, _index, propNameBankGuaranteeFormStatus,  uint8(FormStatus.ACTIVE));\n        List.setPropUint16(KEY, bankGuaranteeList, _index, propNameBankGuaranteeVersion, __VERSION__);\n    }\n\n    function generateBankGuarantee (BankGuarantee memory _bankGuarantee) public view\n    onlyBankGuaranteeManager\n    returns (BankGuarantee memory, uint) {\n        uint _PrevIndex = _getPreviousIndex(bytes8(keccak256(abi.encodePacked(_bankGuarantee.paymentAdviceNumber,_bankGuarantee.bankGid))));\n        _bankGuarantee.bankGid = getBankGuaranteeBankGid(_PrevIndex);\n        _bankGuarantee.paymentAdviceNumber = getBankGuaranteePaymentAdviceNumber(_PrevIndex);\n        _bankGuarantee.beneficiaryName = getBankGuaranteeBeneficiaryName(_PrevIndex);\n        _bankGuarantee.amendment = getBankGuaranteeIndexListLengthByPaymentAdviceAndBankGid(bytes8(keccak256(abi.encodePacked(_bankGuarantee.paymentAdviceNumber,_bankGuarantee.bankGid))));\n        _bankGuarantee.formStatus = FormStatus.ACTIVE;\n        return (_bankGuarantee, _PrevIndex);\n    }\n\n    function addBankGuaranteeIndexByBankGid(string memory _bankGid, uint _value) public \n    onlyBankGuaranteeManager\n    {\n        bytes8 key = bytes8(keccak256(abi.encodePacked(_bankGid)));\n        uint length = Map.getByKeyBytes8ToUint(KEY, bankGuaranteeByBankGid, key, abi.encodePacked(keyListLength));\n        Map.setByKeyBytes8ToUint(KEY, bankGuaranteeByBankGid, key, abi.encodePacked(keyListLength), 1 + length);\n        Map.setByKeyBytes8ToUint(KEY, bankGuaranteeByBankGid, key, abi.encodePacked(length), _value);\n    }\n\n    function setBankGuaranteeIndexByPaymentAdviceUid(bytes8 _paymentAdviceUid, uint _value) public \n    onlyBankGuaranteeManager\n    {\n        Map.setBytes8ToUint(KEY, bankGuaranteeByPaymentAdviceUid, _paymentAdviceUid, _value);\n    }\n\n    function addBankGuaranteforPaymentAdviceBankGid(bytes8 _paymentAdviceUid, string memory _bankGid) public \n    onlyBankGuaranteeManager\n    {\n        bytes8 _key = bytes8(keccak256(abi.encodePacked(_paymentAdviceUid, _bankGid)));\n        Map.setBytes8ToUint(KEY,bankGuaranteeByBankGidAndPaymentAdviceUid, _key, 1);\n    }\n    \n    /** @dev Setting the Bank Guarantees against the Reference Number and Bank Gid.\n      * @param _bankGuarantee Bank guarantee struct.\n      * @param _value index of the bank guarantee .\n      */\n    function setBankGuaranteeByBgReferenceAndBankGid(BankGuarantee memory _bankGuarantee, uint _value) public\n    onlyBankGuaranteeManager\n    {\n        bytes8 _bgRefBankGid = bytes8(keccak256(abi.encodePacked(_bankGuarantee.referenceNumber, _bankGuarantee.bankGid)));\n        uint length = Map.getByKeyBytes8ToUint(KEY, bankGuaranteeByBgReferenceAndBankGid, _bgRefBankGid, abi.encodePacked(keyListLength));\n        Map.setByKeyBytes8ToUint(KEY, bankGuaranteeByBgReferenceAndBankGid, _bgRefBankGid, abi.encodePacked(keyListLength), 1+length);\n        Map.setByKeyBytes8ToUint(KEY, bankGuaranteeByBgReferenceAndBankGid, _bgRefBankGid, abi.encodePacked(length), _value);\n    }\n    \n    \n    \n    \n    \n    /** @dev Setting the Bank Guarantees against  Vendor Gid and Bank Gid , Setting the Bank Guarantees against the PE Gid and Bank Gid.\n      * @param _bankGuarantee Bank guarantee struct.\n      * @param _value index of the bank guarantee .\n      * @param _vendorGid Unique GId for Vendor.\n      * @param _peGid Unique GId for Procuring Entity.\n      */\n    function setBankGuaranteeIndices(BankGuarantee memory _bankGuarantee, uint _value, string memory _vendorGid, string memory _peGid) public \n    onlyBankGuaranteeManager\n    {\n       \n       //set BankGuaranteeByVendorAndBankGid\n       bytes8 _bgVendorBankGid = bytes8(keccak256(abi.encodePacked(_vendorGid, _bankGuarantee.bankGid)));\n        uint length = Map.getByKeyBytes8ToUint(KEY, bankGuaranteeByVendorAndBankGid, _bgVendorBankGid, abi.encodePacked(keyListLength));\n        Map.setByKeyBytes8ToUint(KEY, bankGuaranteeByVendorAndBankGid, _bgVendorBankGid, abi.encodePacked(keyListLength), 1+length);\n        Map.setByKeyBytes8ToUint(KEY, bankGuaranteeByVendorAndBankGid, _bgVendorBankGid, abi.encodePacked(length), _value);\n\n       //set BankGuaranteeByPEAndBankGid\n       bytes8 _bgPeBankGid = bytes8(keccak256(abi.encodePacked(_peGid, _bankGuarantee.bankGid)));\n        length = Map.getByKeyBytes8ToUint(KEY, bankGuaranteeByVendorAndBankGid, _bgPeBankGid, abi.encodePacked(keyListLength));\n        Map.setByKeyBytes8ToUint(KEY, bankGuaranteeByVendorAndBankGid, _bgPeBankGid, abi.encodePacked(keyListLength), 1+length);\n        Map.setByKeyBytes8ToUint(KEY, bankGuaranteeByVendorAndBankGid, _bgPeBankGid, abi.encodePacked(length), _value);\n\n    }\n\n    function addMapBankGuaranteeReferenceNumber (string memory _referenceNumber, string memory _bankGid) public\n    onlyBankGuaranteeManager\n    {   \n        bytes8 _bgRefBankGid = bytes8(keccak256(abi.encodePacked(_referenceNumber, _bankGid)));\n        Map.setBytes8ToUint(KEY, bankGuaranteeRefNumber, _bgRefBankGid, 1); //should change and add it in the manager \n    }\n\n    function setBgReleaseStatus (bytes8 _paymentAdviceUid, string memory _bankGid) public\n    onlyBankGuaranteeManager \n    {\n        bytes8 _key = bytes8(keccak256(abi.encodePacked(_paymentAdviceUid,_bankGid)));\n        Map.setBytes8ToUint(KEY,bankGuaranteeByBankGidAndPaymentAdviceUid, _key, 0);\n    }\n\n}\n",
  "sourcePath": "/home/raghupathi/Desktop/javaClass/javaClass/contracts/BankGuaranteeModel.sol",
  "compiler": {
    "name": "solc",
    "version": "0.8.20+commit.a1b79de6.Emscripten.clang"
  },
  "schemaVersion": "3.4.14",
  "updatedAt": "2023-06-02T09:43:22.584Z",
  "devdoc": {
    "kind": "dev",
    "methods": {
      "getBankGuaranteeByBgReferenceAndBankGid(bytes8,uint256,uint256)": {
        "details": "Listing out the Bank Guarantees against the Reference Number and Bank Gid.",
        "params": {
          "_bgRefBankGid": "Reference number of bank Guarantee and Global id of bank.     ",
          "_count": "The number of indexes that has to be fetched. ",
          "_toExcluded": "The length till where the uint indexes has to be fetched."
        },
        "returns": {
          "_bankGuaranteeByBgReferenceAndBankGid": "List of Bank Guarantees against the Reference Number and Bank Gid.",
          "fromIncluded_": "_toExcluded - _count.",
          "length_": "The length of the index present for the Reference Number and Bank Gid."
        }
      },
      "getBankGuaranteeByPEAndBankGid(bytes8,uint256,uint256)": {
        "details": "Listing out the Bank Guarantees against the PE Gid and Bank Gid.",
        "params": {
          "_bgPeBankGid": "Global id of Procuring Entity and Global id of bank.",
          "_count": "The number of indexes that has to be fetched. ",
          "_toExcluded": "The length till where the uint indexes has to be fetched."
        },
        "returns": {
          "_bankGuaranteeByPEAndBankGid": "List of Bank Guarantees against the PE Gid and Bank Gid.",
          "fromIncluded_": "_toExcluded - _count.",
          "length_": "The length of the index present for the PE Gid and Bank Gid."
        }
      },
      "getBankGuaranteeByVendorAndBankGid(bytes8,uint256,uint256)": {
        "details": "Listing out the Bank Guarantees against the Vendor Gid and Bank Gid.",
        "params": {
          "_bgVendorBankGid": "Global id of the Vendor and Global id of bank.",
          "_count": "The number of indexes that has to be fetched. ",
          "_toExcluded": "The length till where the uint indexes has to be fetched."
        },
        "returns": {
          "_bankGuaranteeByVendorAndBankGid": "List of Bank Guarantees against the Vendor Gid and Bank Gid.",
          "fromIncluded_": "_toExcluded - _count.",
          "length_": "The length of the index present for the Vendor Gid and Bank Gid."
        }
      },
      "setBankGuaranteeByBgReferenceAndBankGid((bytes8,string,string,bytes8,string,string,string,uint256,uint256,uint256,uint256,uint256,string,uint256,string,string,string,string,string,uint256,uint8,uint16),uint256)": {
        "details": "Setting the Bank Guarantees against the Reference Number and Bank Gid.",
        "params": {
          "_bankGuarantee": "Bank guarantee struct.",
          "_value": "index of the bank guarantee ."
        }
      },
      "setBankGuaranteeIndices((bytes8,string,string,bytes8,string,string,string,uint256,uint256,uint256,uint256,uint256,string,uint256,string,string,string,string,string,uint256,uint8,uint16),uint256,string,string)": {
        "details": "Setting the Bank Guarantees against  Vendor Gid and Bank Gid , Setting the Bank Guarantees against the PE Gid and Bank Gid.",
        "params": {
          "_bankGuarantee": "Bank guarantee struct.",
          "_peGid": "Unique GId for Procuring Entity.",
          "_value": "index of the bank guarantee .",
          "_vendorGid": "Unique GId for Vendor."
        }
      }
    },
    "version": 1
  },
  "userdoc": {
    "kind": "user",
    "methods": {},
    "version": 1
  }
}