{
  "contractName": "ListStorage",
  "abi": [
    {
      "inputs": [
        {
          "internalType": "address",
          "name": "_quireStorage",
          "type": "address"
        }
      ],
      "stateMutability": "nonpayable",
      "type": "constructor"
    },
    {
      "inputs": [
        {
          "internalType": "string",
          "name": "_KEY",
          "type": "string"
        },
        {
          "internalType": "string",
          "name": "_list",
          "type": "string"
        }
      ],
      "name": "getLength",
      "outputs": [
        {
          "internalType": "uint256",
          "name": "",
          "type": "uint256"
        }
      ],
      "stateMutability": "view",
      "type": "function"
    },
    {
      "inputs": [
        {
          "internalType": "string",
          "name": "_KEY",
          "type": "string"
        },
        {
          "internalType": "string",
          "name": "_list",
          "type": "string"
        },
        {
          "internalType": "uint256",
          "name": "_index",
          "type": "uint256"
        },
        {
          "internalType": "string",
          "name": "_prop",
          "type": "string"
        }
      ],
      "name": "getPropAddress",
      "outputs": [
        {
          "internalType": "address",
          "name": "",
          "type": "address"
        }
      ],
      "stateMutability": "view",
      "type": "function"
    },
    {
      "inputs": [
        {
          "internalType": "string",
          "name": "_KEY",
          "type": "string"
        },
        {
          "internalType": "string",
          "name": "_list",
          "type": "string"
        },
        {
          "internalType": "uint256",
          "name": "_index",
          "type": "uint256"
        },
        {
          "internalType": "string",
          "name": "_prop",
          "type": "string"
        }
      ],
      "name": "getPropBytes8",
      "outputs": [
        {
          "internalType": "bytes8",
          "name": "",
          "type": "bytes8"
        }
      ],
      "stateMutability": "view",
      "type": "function"
    },
    {
      "inputs": [
        {
          "internalType": "string",
          "name": "_KEY",
          "type": "string"
        },
        {
          "internalType": "string",
          "name": "_list",
          "type": "string"
        },
        {
          "internalType": "uint256",
          "name": "_index",
          "type": "uint256"
        },
        {
          "internalType": "string",
          "name": "_prop",
          "type": "string"
        }
      ],
      "name": "getPropBytes32",
      "outputs": [
        {
          "internalType": "bytes32",
          "name": "",
          "type": "bytes32"
        }
      ],
      "stateMutability": "view",
      "type": "function"
    },
    {
      "inputs": [
        {
          "internalType": "string",
          "name": "_KEY",
          "type": "string"
        },
        {
          "internalType": "string",
          "name": "_list",
          "type": "string"
        },
        {
          "internalType": "uint256",
          "name": "_index",
          "type": "uint256"
        },
        {
          "internalType": "string",
          "name": "_prop",
          "type": "string"
        }
      ],
      "name": "getPropBytes",
      "outputs": [
        {
          "internalType": "bytes",
          "name": "",
          "type": "bytes"
        }
      ],
      "stateMutability": "view",
      "type": "function"
    },
    {
      "inputs": [
        {
          "internalType": "string",
          "name": "_KEY",
          "type": "string"
        },
        {
          "internalType": "string",
          "name": "_list",
          "type": "string"
        },
        {
          "internalType": "uint256",
          "name": "_index",
          "type": "uint256"
        },
        {
          "internalType": "string",
          "name": "_prop",
          "type": "string"
        }
      ],
      "name": "getPropBool",
      "outputs": [
        {
          "internalType": "bool",
          "name": "",
          "type": "bool"
        }
      ],
      "stateMutability": "view",
      "type": "function"
    },
    {
      "inputs": [
        {
          "internalType": "string",
          "name": "_KEY",
          "type": "string"
        },
        {
          "internalType": "string",
          "name": "_list",
          "type": "string"
        },
        {
          "internalType": "uint256",
          "name": "_index",
          "type": "uint256"
        },
        {
          "internalType": "string",
          "name": "_prop",
          "type": "string"
        }
      ],
      "name": "getPropString",
      "outputs": [
        {
          "internalType": "string",
          "name": "",
          "type": "string"
        }
      ],
      "stateMutability": "view",
      "type": "function"
    },
    {
      "inputs": [
        {
          "internalType": "string",
          "name": "_KEY",
          "type": "string"
        },
        {
          "internalType": "string",
          "name": "_list",
          "type": "string"
        },
        {
          "internalType": "uint256",
          "name": "_index",
          "type": "uint256"
        },
        {
          "internalType": "string",
          "name": "_prop",
          "type": "string"
        }
      ],
      "name": "getPropUint",
      "outputs": [
        {
          "internalType": "uint256",
          "name": "",
          "type": "uint256"
        }
      ],
      "stateMutability": "view",
      "type": "function"
    },
    {
      "inputs": [
        {
          "internalType": "string",
          "name": "_KEY",
          "type": "string"
        },
        {
          "internalType": "string",
          "name": "_list",
          "type": "string"
        },
        {
          "internalType": "uint256",
          "name": "_index",
          "type": "uint256"
        },
        {
          "internalType": "string",
          "name": "_prop",
          "type": "string"
        }
      ],
      "name": "getPropUint8",
      "outputs": [
        {
          "internalType": "uint8",
          "name": "",
          "type": "uint8"
        }
      ],
      "stateMutability": "view",
      "type": "function"
    },
    {
      "inputs": [
        {
          "internalType": "string",
          "name": "_KEY",
          "type": "string"
        },
        {
          "internalType": "string",
          "name": "_list",
          "type": "string"
        },
        {
          "internalType": "uint256",
          "name": "_index",
          "type": "uint256"
        },
        {
          "internalType": "string",
          "name": "_prop",
          "type": "string"
        }
      ],
      "name": "getPropUint16",
      "outputs": [
        {
          "internalType": "uint16",
          "name": "",
          "type": "uint16"
        }
      ],
      "stateMutability": "view",
      "type": "function"
    },
    {
      "inputs": [
        {
          "internalType": "string",
          "name": "_KEY",
          "type": "string"
        },
        {
          "internalType": "string",
          "name": "_list",
          "type": "string"
        },
        {
          "internalType": "uint256",
          "name": "_index",
          "type": "uint256"
        },
        {
          "internalType": "bytes",
          "name": "_prop",
          "type": "bytes"
        },
        {
          "internalType": "bytes",
          "name": "_propKey",
          "type": "bytes"
        }
      ],
      "name": "getPropByKeyUint",
      "outputs": [
        {
          "internalType": "uint256",
          "name": "",
          "type": "uint256"
        }
      ],
      "stateMutability": "view",
      "type": "function"
    },
    {
      "inputs": [
        {
          "internalType": "string",
          "name": "_KEY",
          "type": "string"
        },
        {
          "internalType": "string",
          "name": "_list",
          "type": "string"
        },
        {
          "internalType": "uint256",
          "name": "_index",
          "type": "uint256"
        },
        {
          "internalType": "bytes",
          "name": "_prop",
          "type": "bytes"
        },
        {
          "internalType": "bytes",
          "name": "_propKey",
          "type": "bytes"
        }
      ],
      "name": "getPropByKeyString",
      "outputs": [
        {
          "internalType": "string",
          "name": "",
          "type": "string"
        }
      ],
      "stateMutability": "view",
      "type": "function"
    },
    {
      "inputs": [
        {
          "internalType": "string",
          "name": "_KEY",
          "type": "string"
        },
        {
          "internalType": "string",
          "name": "_list",
          "type": "string"
        },
        {
          "internalType": "uint256",
          "name": "_index",
          "type": "uint256"
        },
        {
          "internalType": "bytes",
          "name": "_prop",
          "type": "bytes"
        },
        {
          "internalType": "bytes",
          "name": "_propKey",
          "type": "bytes"
        }
      ],
      "name": "getPropByKeyAddress",
      "outputs": [
        {
          "internalType": "address",
          "name": "",
          "type": "address"
        }
      ],
      "stateMutability": "view",
      "type": "function"
    },
    {
      "inputs": [
        {
          "internalType": "string",
          "name": "_KEY",
          "type": "string"
        },
        {
          "internalType": "string",
          "name": "_list",
          "type": "string"
        },
        {
          "internalType": "uint256",
          "name": "_index",
          "type": "uint256"
        },
        {
          "internalType": "bytes",
          "name": "_prop",
          "type": "bytes"
        },
        {
          "internalType": "bytes",
          "name": "_propKey",
          "type": "bytes"
        }
      ],
      "name": "getPropByKeyBool",
      "outputs": [
        {
          "internalType": "bool",
          "name": "",
          "type": "bool"
        }
      ],
      "stateMutability": "view",
      "type": "function"
    },
    {
      "inputs": [
        {
          "internalType": "string",
          "name": "_KEY",
          "type": "string"
        },
        {
          "internalType": "string",
          "name": "_list",
          "type": "string"
        },
        {
          "internalType": "uint256",
          "name": "_index",
          "type": "uint256"
        },
        {
          "internalType": "bytes",
          "name": "_prop",
          "type": "bytes"
        },
        {
          "internalType": "bytes",
          "name": "_propKey",
          "type": "bytes"
        }
      ],
      "name": "getPropByKeyBytes8",
      "outputs": [
        {
          "internalType": "bytes8",
          "name": "",
          "type": "bytes8"
        }
      ],
      "stateMutability": "view",
      "type": "function"
    },
    {
      "inputs": [
        {
          "internalType": "string",
          "name": "_KEY",
          "type": "string"
        },
        {
          "internalType": "string",
          "name": "_list",
          "type": "string"
        }
      ],
      "name": "incLength",
      "outputs": [],
      "stateMutability": "nonpayable",
      "type": "function"
    },
    {
      "inputs": [
        {
          "internalType": "string",
          "name": "_KEY",
          "type": "string"
        },
        {
          "internalType": "string",
          "name": "_list",
          "type": "string"
        },
        {
          "internalType": "uint256",
          "name": "_index",
          "type": "uint256"
        },
        {
          "internalType": "string",
          "name": "_prop",
          "type": "string"
        },
        {
          "internalType": "address",
          "name": "_value",
          "type": "address"
        }
      ],
      "name": "setPropAddress",
      "outputs": [],
      "stateMutability": "nonpayable",
      "type": "function"
    },
    {
      "inputs": [
        {
          "internalType": "string",
          "name": "_KEY",
          "type": "string"
        },
        {
          "internalType": "string",
          "name": "_list",
          "type": "string"
        },
        {
          "internalType": "uint256",
          "name": "_index",
          "type": "uint256"
        },
        {
          "internalType": "string",
          "name": "_prop",
          "type": "string"
        },
        {
          "internalType": "bytes8",
          "name": "_value",
          "type": "bytes8"
        }
      ],
      "name": "setPropBytes8",
      "outputs": [],
      "stateMutability": "nonpayable",
      "type": "function"
    },
    {
      "inputs": [
        {
          "internalType": "string",
          "name": "_KEY",
          "type": "string"
        },
        {
          "internalType": "string",
          "name": "_list",
          "type": "string"
        },
        {
          "internalType": "uint256",
          "name": "_index",
          "type": "uint256"
        },
        {
          "internalType": "string",
          "name": "_prop",
          "type": "string"
        },
        {
          "internalType": "bytes32",
          "name": "_value",
          "type": "bytes32"
        }
      ],
      "name": "setPropBytes32",
      "outputs": [],
      "stateMutability": "nonpayable",
      "type": "function"
    },
    {
      "inputs": [
        {
          "internalType": "string",
          "name": "_KEY",
          "type": "string"
        },
        {
          "internalType": "string",
          "name": "_list",
          "type": "string"
        },
        {
          "internalType": "uint256",
          "name": "_index",
          "type": "uint256"
        },
        {
          "internalType": "string",
          "name": "_prop",
          "type": "string"
        },
        {
          "internalType": "bytes",
          "name": "_value",
          "type": "bytes"
        }
      ],
      "name": "setPropBytes",
      "outputs": [],
      "stateMutability": "nonpayable",
      "type": "function"
    },
    {
      "inputs": [
        {
          "internalType": "string",
          "name": "_KEY",
          "type": "string"
        },
        {
          "internalType": "string",
          "name": "_list",
          "type": "string"
        },
        {
          "internalType": "uint256",
          "name": "_index",
          "type": "uint256"
        },
        {
          "internalType": "string",
          "name": "_prop",
          "type": "string"
        },
        {
          "internalType": "bool",
          "name": "_value",
          "type": "bool"
        }
      ],
      "name": "setPropBool",
      "outputs": [],
      "stateMutability": "nonpayable",
      "type": "function"
    },
    {
      "inputs": [
        {
          "internalType": "string",
          "name": "_KEY",
          "type": "string"
        },
        {
          "internalType": "string",
          "name": "_list",
          "type": "string"
        },
        {
          "internalType": "uint256",
          "name": "_index",
          "type": "uint256"
        },
        {
          "internalType": "string",
          "name": "_prop",
          "type": "string"
        },
        {
          "internalType": "string",
          "name": "_value",
          "type": "string"
        }
      ],
      "name": "setPropString",
      "outputs": [],
      "stateMutability": "nonpayable",
      "type": "function"
    },
    {
      "inputs": [
        {
          "internalType": "string",
          "name": "_KEY",
          "type": "string"
        },
        {
          "internalType": "string",
          "name": "_list",
          "type": "string"
        },
        {
          "internalType": "uint256",
          "name": "_index",
          "type": "uint256"
        },
        {
          "internalType": "string",
          "name": "_prop",
          "type": "string"
        },
        {
          "internalType": "uint256",
          "name": "_value",
          "type": "uint256"
        }
      ],
      "name": "setPropUint",
      "outputs": [],
      "stateMutability": "nonpayable",
      "type": "function"
    },
    {
      "inputs": [
        {
          "internalType": "string",
          "name": "_KEY",
          "type": "string"
        },
        {
          "internalType": "string",
          "name": "_list",
          "type": "string"
        },
        {
          "internalType": "uint256",
          "name": "_index",
          "type": "uint256"
        },
        {
          "internalType": "string",
          "name": "_prop",
          "type": "string"
        },
        {
          "internalType": "uint8",
          "name": "_value",
          "type": "uint8"
        }
      ],
      "name": "setPropUint8",
      "outputs": [],
      "stateMutability": "nonpayable",
      "type": "function"
    },
    {
      "inputs": [
        {
          "internalType": "string",
          "name": "_KEY",
          "type": "string"
        },
        {
          "internalType": "string",
          "name": "_list",
          "type": "string"
        },
        {
          "internalType": "uint256",
          "name": "_index",
          "type": "uint256"
        },
        {
          "internalType": "string",
          "name": "_prop",
          "type": "string"
        },
        {
          "internalType": "uint16",
          "name": "_value",
          "type": "uint16"
        }
      ],
      "name": "setPropUint16",
      "outputs": [],
      "stateMutability": "nonpayable",
      "type": "function"
    },
    {
      "inputs": [
        {
          "internalType": "string",
          "name": "_KEY",
          "type": "string"
        },
        {
          "internalType": "string",
          "name": "_list",
          "type": "string"
        },
        {
          "internalType": "uint256",
          "name": "_index",
          "type": "uint256"
        },
        {
          "internalType": "bytes",
          "name": "_prop",
          "type": "bytes"
        },
        {
          "internalType": "bytes",
          "name": "_propKey",
          "type": "bytes"
        },
        {
          "internalType": "uint256",
          "name": "_value",
          "type": "uint256"
        }
      ],
      "name": "setPropByKeyUint",
      "outputs": [],
      "stateMutability": "nonpayable",
      "type": "function"
    },
    {
      "inputs": [
        {
          "internalType": "string",
          "name": "_KEY",
          "type": "string"
        },
        {
          "internalType": "string",
          "name": "_list",
          "type": "string"
        },
        {
          "internalType": "uint256",
          "name": "_index",
          "type": "uint256"
        },
        {
          "internalType": "bytes",
          "name": "_prop",
          "type": "bytes"
        },
        {
          "internalType": "bytes",
          "name": "_propKey",
          "type": "bytes"
        },
        {
          "internalType": "string",
          "name": "_value",
          "type": "string"
        }
      ],
      "name": "setPropByKeyString",
      "outputs": [],
      "stateMutability": "nonpayable",
      "type": "function"
    },
    {
      "inputs": [
        {
          "internalType": "string",
          "name": "_KEY",
          "type": "string"
        },
        {
          "internalType": "string",
          "name": "_list",
          "type": "string"
        },
        {
          "internalType": "uint256",
          "name": "_index",
          "type": "uint256"
        },
        {
          "internalType": "bytes",
          "name": "_prop",
          "type": "bytes"
        },
        {
          "internalType": "bytes",
          "name": "_propKey",
          "type": "bytes"
        },
        {
          "internalType": "address",
          "name": "_value",
          "type": "address"
        }
      ],
      "name": "setPropByKeyAddress",
      "outputs": [],
      "stateMutability": "nonpayable",
      "type": "function"
    },
    {
      "inputs": [
        {
          "internalType": "string",
          "name": "_KEY",
          "type": "string"
        },
        {
          "internalType": "string",
          "name": "_list",
          "type": "string"
        },
        {
          "internalType": "uint256",
          "name": "_index",
          "type": "uint256"
        },
        {
          "internalType": "bytes",
          "name": "_prop",
          "type": "bytes"
        },
        {
          "internalType": "bytes",
          "name": "_propKey",
          "type": "bytes"
        },
        {
          "internalType": "bool",
          "name": "_value",
          "type": "bool"
        }
      ],
      "name": "setPropByKeyBool",
      "outputs": [],
      "stateMutability": "nonpayable",
      "type": "function"
    },
    {
      "inputs": [
        {
          "internalType": "string",
          "name": "_KEY",
          "type": "string"
        },
        {
          "internalType": "string",
          "name": "_list",
          "type": "string"
        },
        {
          "internalType": "uint256",
          "name": "_index",
          "type": "uint256"
        },
        {
          "internalType": "bytes",
          "name": "_prop",
          "type": "bytes"
        },
        {
          "internalType": "bytes",
          "name": "_propKey",
          "type": "bytes"
        },
        {
          "internalType": "bytes8",
          "name": "_value",
          "type": "bytes8"
        }
      ],
      "name": "setPropByKeyBytes8",
      "outputs": [],
      "stateMutability": "nonpayable",
      "type": "function"
    }
  ],
  "bytecode": "0x608060405234801562000010575f80fd5b506040516200466c3803806200466c8339818101604052810190620000369190620000e1565b805f806101000a81548173ffffffffffffffffffffffffffffffffffffffff021916908373ffffffffffffffffffffffffffffffffffffffff1602179055505062000111565b5f80fd5b5f73ffffffffffffffffffffffffffffffffffffffff82169050919050565b5f620000ab8262000080565b9050919050565b620000bd816200009f565b8114620000c8575f80fd5b50565b5f81519050620000db81620000b2565b92915050565b5f60208284031215620000f957620000f86200007c565b5b5f6200010884828501620000cb565b91505092915050565b61454d806200011f5f395ff3fe608060405234801561000f575f80fd5b50600436106101d8575f3560e01c80638363e88d11610102578063ab2e960d116100a0578063df0a5a521161006f578063df0a5a52146105b8578063f07aee95146105d4578063f32e0f92146105f0578063fa7598d514610620576101d8565b8063ab2e960d14610534578063b83032bd14610550578063c4f1885714610580578063c8f1cd871461059c576101d8565b80639d7f836c116100dc5780639d7f836c1461049c578063a06fd454146104cc578063a24a899b146104e8578063a726dca114610504576101d8565b80638363e88d14610420578063876fa0b21461043c578063883011bd1461046c576101d8565b80633d74854d1161017a5780636371c5cd116101495780636371c5cd1461039c5780636ab1973c146103b857806375f08800146103e85780637f02dd8214610404576101d8565b80633d74854d146103045780633ff42e9c146103205780634bcbf1fb1461033c57806351837d861461036c576101d8565b806314f41f39116101b657806314f41f39146102585780632136448c1461027457806332e05325146102a45780633bea2753146102d4576101d8565b806303767022146101dc57806303afa62b146101f85780630b736e5d14610228575b5f80fd5b6101f660048036038101906101f19190612c48565b610650565b005b610212600480360381019061020d9190612d41565b6107e3565b60405161021f9190612e15565b60405180910390f35b610242600480360381019061023d9190612e2e565b6108b2565b60405161024f9190612f24565b60405180910390f35b610272600480360381019061026d9190612f3d565b610984565b005b61028e60048036038101906102899190612d41565b610b14565b60405161029b9190613082565b60405180910390f35b6102be60048036038101906102b99190612e2e565b610be6565b6040516102cb91906130b1565b60405180910390f35b6102ee60048036038101906102e991906130ca565b610cb8565b6040516102fb91906130b1565b60405180910390f35b61031e60048036038101906103199190613173565b610d81565b005b61033a60048036038101906103359190613293565b610f11565b005b61035660048036038101906103519190612d41565b6110a4565b604051610363919061339b565b60405180910390f35b61038660048036038101906103819190612e2e565b611173565b60405161039391906133f3565b60405180910390f35b6103b660048036038101906103b1919061340c565b611245565b005b6103d260048036038101906103cd9190612d41565b6113d5565b6040516103df9190613545565b60405180910390f35b61040260048036038101906103fd919061358f565b6114a7565b005b61041e6004803603810190610419919061365a565b611637565b005b61043a60048036038101906104359190613725565b6117c7565b005b61045660048036038101906104519190612d41565b61195a565b604051610463919061382d565b60405180910390f35b61048660048036038101906104819190612d41565b611a29565b60405161049391906133f3565b60405180910390f35b6104b660048036038101906104b19190612d41565b611af8565b6040516104c39190612f24565b60405180910390f35b6104e660048036038101906104e19190613846565b611bc7565b005b61050260048036038101906104fd91906130ca565b611d57565b005b61051e60048036038101906105199190612d41565b611eda565b60405161052b919061392c565b60405180910390f35b61054e6004803603810190610549919061396f565b611fa9565b005b61056a60048036038101906105659190612d41565b612139565b60405161057791906130b1565b60405180910390f35b61059a60048036038101906105959190613a64565b612208565b005b6105b660048036038101906105b19190613b2f565b612398565b005b6105d260048036038101906105cd9190613c16565b612528565b005b6105ee60048036038101906105e99190613d2b565b6126bb565b005b61060a60048036038101906106059190612e2e565b61284e565b604051610617919061339b565b60405180910390f35b61063a60048036038101906106359190612e2e565b612920565b6040516106479190613082565b60405180910390f35b5f8054906101000a900473ffffffffffffffffffffffffffffffffffffffff1673ffffffffffffffffffffffffffffffffffffffff1663103aeda7336040518263ffffffff1660e01b81526004016106a891906133f3565b602060405180830381865afa1580156106c3573d5f803e3d5ffd5b505050506040513d601f19601f820116820180604052508101906106e79190613e38565b610726576040517f08c379a000000000000000000000000000000000000000000000000000000000815260040161071d90613ead565b60405180910390fd5b5f8054906101000a900473ffffffffffffffffffffffffffffffffffffffff1673ffffffffffffffffffffffffffffffffffffffff1663abfdcced878787878760405160200161077a959493929190613f5f565b60405160208183030381529060405280519060200120836040518363ffffffff1660e01b81526004016107ae929190613fad565b5f604051808303815f87803b1580156107c5575f80fd5b505af11580156107d7573d5f803e3d5ffd5b50505050505050505050565b5f805f9054906101000a900473ffffffffffffffffffffffffffffffffffffffff1673ffffffffffffffffffffffffffffffffffffffff166365f4f498868686866040516020016108379493929190613fd4565b604051602081830303815290604052805190602001206040518263ffffffff1660e01b8152600401610869919061382d565b602060405180830381865afa158015610884573d5f803e3d5ffd5b505050506040513d601f19601f820116820180604052508101906108a89190614029565b9050949350505050565b5f805f9054906101000a900473ffffffffffffffffffffffffffffffffffffffff1673ffffffffffffffffffffffffffffffffffffffff16637ae1cfca8787878787604051602001610908959493929190613f5f565b604051602081830303815290604052805190602001206040518263ffffffff1660e01b815260040161093a919061382d565b602060405180830381865afa158015610955573d5f803e3d5ffd5b505050506040513d601f19601f820116820180604052508101906109799190613e38565b905095945050505050565b5f8054906101000a900473ffffffffffffffffffffffffffffffffffffffff1673ffffffffffffffffffffffffffffffffffffffff1663103aeda7336040518263ffffffff1660e01b81526004016109dc91906133f3565b602060405180830381865afa1580156109f7573d5f803e3d5ffd5b505050506040513d601f19601f82011682018060405250810190610a1b9190613e38565b610a5a576040517f08c379a0000000000000000000000000000000000000000000000000000000008152600401610a5190613ead565b60405180910390fd5b5f8054906101000a900473ffffffffffffffffffffffffffffffffffffffff1673ffffffffffffffffffffffffffffffffffffffff1663abfdcced86868686604051602001610aac9493929190613fd4565b60405160208183030381529060405280519060200120836040518363ffffffff1660e01b8152600401610ae0929190613fad565b5f604051808303815f87803b158015610af7575f80fd5b505af1158015610b09573d5f803e3d5ffd5b505050505050505050565b60605f8054906101000a900473ffffffffffffffffffffffffffffffffffffffff1673ffffffffffffffffffffffffffffffffffffffff1663986e791a86868686604051602001610b689493929190613fd4565b604051602081830303815290604052805190602001206040518263ffffffff1660e01b8152600401610b9a919061382d565b5f60405180830381865afa158015610bb4573d5f803e3d5ffd5b505050506040513d5f823e3d601f19601f82011682018060405250810190610bdc91906140c2565b9050949350505050565b5f805f9054906101000a900473ffffffffffffffffffffffffffffffffffffffff1673ffffffffffffffffffffffffffffffffffffffff1663bd02d0f58787878787604051602001610c3c959493929190613f5f565b604051602081830303815290604052805190602001206040518263ffffffff1660e01b8152600401610c6e919061382d565b602060405180830381865afa158015610c89573d5f803e3d5ffd5b505050506040513d601f19601f82011682018060405250810190610cad919061411d565b905095945050505050565b5f805f9054906101000a900473ffffffffffffffffffffffffffffffffffffffff1673ffffffffffffffffffffffffffffffffffffffff1663bd02d0f58484604051602001610d08929190614192565b604051602081830303815290604052805190602001206040518263ffffffff1660e01b8152600401610d3a919061382d565b602060405180830381865afa158015610d55573d5f803e3d5ffd5b505050506040513d601f19601f82011682018060405250810190610d79919061411d565b905092915050565b5f8054906101000a900473ffffffffffffffffffffffffffffffffffffffff1673ffffffffffffffffffffffffffffffffffffffff1663103aeda7336040518263ffffffff1660e01b8152600401610dd991906133f3565b602060405180830381865afa158015610df4573d5f803e3d5ffd5b505050506040513d601f19601f82011682018060405250810190610e189190613e38565b610e57576040517f08c379a0000000000000000000000000000000000000000000000000000000008152600401610e4e90613ead565b60405180910390fd5b5f8054906101000a900473ffffffffffffffffffffffffffffffffffffffff1673ffffffffffffffffffffffffffffffffffffffff16634e91db0886868686604051602001610ea99493929190613fd4565b60405160208183030381529060405280519060200120836040518363ffffffff1660e01b8152600401610edd9291906141c0565b5f604051808303815f87803b158015610ef4575f80fd5b505af1158015610f06573d5f803e3d5ffd5b505050505050505050565b5f8054906101000a900473ffffffffffffffffffffffffffffffffffffffff1673ffffffffffffffffffffffffffffffffffffffff1663103aeda7336040518263ffffffff1660e01b8152600401610f6991906133f3565b602060405180830381865afa158015610f84573d5f803e3d5ffd5b505050506040513d601f19601f82011682018060405250810190610fa89190613e38565b610fe7576040517f08c379a0000000000000000000000000000000000000000000000000000000008152600401610fde90613ead565b60405180910390fd5b5f8054906101000a900473ffffffffffffffffffffffffffffffffffffffff1673ffffffffffffffffffffffffffffffffffffffff16639df15aee878787878760405160200161103b959493929190613f5f565b60405160208183030381529060405280519060200120836040518363ffffffff1660e01b815260040161106f9291906141e7565b5f604051808303815f87803b158015611086575f80fd5b505af1158015611098573d5f803e3d5ffd5b50505050505050505050565b5f805f9054906101000a900473ffffffffffffffffffffffffffffffffffffffff1673ffffffffffffffffffffffffffffffffffffffff1663e4ccf1f7868686866040516020016110f89493929190613fd4565b604051602081830303815290604052805190602001206040518263ffffffff1660e01b815260040161112a919061382d565b602060405180830381865afa158015611145573d5f803e3d5ffd5b505050506040513d601f19601f820116820180604052508101906111699190614222565b9050949350505050565b5f805f9054906101000a900473ffffffffffffffffffffffffffffffffffffffff1673ffffffffffffffffffffffffffffffffffffffff166321f8a72187878787876040516020016111c9959493929190613f5f565b604051602081830303815290604052805190602001206040518263ffffffff1660e01b81526004016111fb919061382d565b602060405180830381865afa158015611216573d5f803e3d5ffd5b505050506040513d601f19601f8201168201806040525081019061123a9190614261565b905095945050505050565b5f8054906101000a900473ffffffffffffffffffffffffffffffffffffffff1673ffffffffffffffffffffffffffffffffffffffff1663103aeda7336040518263ffffffff1660e01b815260040161129d91906133f3565b602060405180830381865afa1580156112b8573d5f803e3d5ffd5b505050506040513d601f19601f820116820180604052508101906112dc9190613e38565b61131b576040517f08c379a000000000000000000000000000000000000000000000000000000000815260040161131290613ead565b60405180910390fd5b5f8054906101000a900473ffffffffffffffffffffffffffffffffffffffff1673ffffffffffffffffffffffffffffffffffffffff16632e28d0848686868660405160200161136d9493929190613fd4565b60405160208183030381529060405280519060200120836040518363ffffffff1660e01b81526004016113a192919061428c565b5f604051808303815f87803b1580156113b8575f80fd5b505af11580156113ca573d5f803e3d5ffd5b505050505050505050565b60605f8054906101000a900473ffffffffffffffffffffffffffffffffffffffff1673ffffffffffffffffffffffffffffffffffffffff1663c031a180868686866040516020016114299493929190613fd4565b604051602081830303815290604052805190602001206040518263ffffffff1660e01b815260040161145b919061382d565b5f60405180830381865afa158015611475573d5f803e3d5ffd5b505050506040513d5f823e3d601f19601f8201168201806040525081019061149d9190614328565b9050949350505050565b5f8054906101000a900473ffffffffffffffffffffffffffffffffffffffff1673ffffffffffffffffffffffffffffffffffffffff1663103aeda7336040518263ffffffff1660e01b81526004016114ff91906133f3565b602060405180830381865afa15801561151a573d5f803e3d5ffd5b505050506040513d601f19601f8201168201806040525081019061153e9190613e38565b61157d576040517f08c379a000000000000000000000000000000000000000000000000000000000815260040161157490613ead565b60405180910390fd5b5f8054906101000a900473ffffffffffffffffffffffffffffffffffffffff1673ffffffffffffffffffffffffffffffffffffffff1663ca446dd9868686866040516020016115cf9493929190613fd4565b60405160208183030381529060405280519060200120836040518363ffffffff1660e01b815260040161160392919061436f565b5f604051808303815f87803b15801561161a575f80fd5b505af115801561162c573d5f803e3d5ffd5b505050505050505050565b5f8054906101000a900473ffffffffffffffffffffffffffffffffffffffff1673ffffffffffffffffffffffffffffffffffffffff1663103aeda7336040518263ffffffff1660e01b815260040161168f91906133f3565b602060405180830381865afa1580156116aa573d5f803e3d5ffd5b505050506040513d601f19601f820116820180604052508101906116ce9190613e38565b61170d576040517f08c379a000000000000000000000000000000000000000000000000000000000815260040161170490613ead565b60405180910390fd5b5f8054906101000a900473ffffffffffffffffffffffffffffffffffffffff1673ffffffffffffffffffffffffffffffffffffffff1663e2a4853a8686868660405160200161175f9493929190613fd4565b60405160208183030381529060405280519060200120836040518363ffffffff1660e01b8152600401611793929190614396565b5f604051808303815f87803b1580156117aa575f80fd5b505af11580156117bc573d5f803e3d5ffd5b505050505050505050565b5f8054906101000a900473ffffffffffffffffffffffffffffffffffffffff1673ffffffffffffffffffffffffffffffffffffffff1663103aeda7336040518263ffffffff1660e01b815260040161181f91906133f3565b602060405180830381865afa15801561183a573d5f803e3d5ffd5b505050506040513d601f19601f8201168201806040525081019061185e9190613e38565b61189d576040517f08c379a000000000000000000000000000000000000000000000000000000000815260040161189490613ead565b60405180910390fd5b5f8054906101000a900473ffffffffffffffffffffffffffffffffffffffff1673ffffffffffffffffffffffffffffffffffffffff1663ca446dd987878787876040516020016118f1959493929190613f5f565b60405160208183030381529060405280519060200120836040518363ffffffff1660e01b815260040161192592919061436f565b5f604051808303815f87803b15801561193c575f80fd5b505af115801561194e573d5f803e3d5ffd5b50505050505050505050565b5f805f9054906101000a900473ffffffffffffffffffffffffffffffffffffffff1673ffffffffffffffffffffffffffffffffffffffff1663a6ed563e868686866040516020016119ae9493929190613fd4565b604051602081830303815290604052805190602001206040518263ffffffff1660e01b81526004016119e0919061382d565b602060405180830381865afa1580156119fb573d5f803e3d5ffd5b505050506040513d601f19601f82011682018060405250810190611a1f91906143d1565b9050949350505050565b5f805f9054906101000a900473ffffffffffffffffffffffffffffffffffffffff1673ffffffffffffffffffffffffffffffffffffffff166321f8a72186868686604051602001611a7d9493929190613fd4565b604051602081830303815290604052805190602001206040518263ffffffff1660e01b8152600401611aaf919061382d565b602060405180830381865afa158015611aca573d5f803e3d5ffd5b505050506040513d601f19601f82011682018060405250810190611aee9190614261565b9050949350505050565b5f805f9054906101000a900473ffffffffffffffffffffffffffffffffffffffff1673ffffffffffffffffffffffffffffffffffffffff16637ae1cfca86868686604051602001611b4c9493929190613fd4565b604051602081830303815290604052805190602001206040518263ffffffff1660e01b8152600401611b7e919061382d565b602060405180830381865afa158015611b99573d5f803e3d5ffd5b505050506040513d601f19601f82011682018060405250810190611bbd9190613e38565b9050949350505050565b5f8054906101000a900473ffffffffffffffffffffffffffffffffffffffff1673ffffffffffffffffffffffffffffffffffffffff1663103aeda7336040518263ffffffff1660e01b8152600401611c1f91906133f3565b602060405180830381865afa158015611c3a573d5f803e3d5ffd5b505050506040513d601f19601f82011682018060405250810190611c5e9190613e38565b611c9d576040517f08c379a0000000000000000000000000000000000000000000000000000000008152600401611c9490613ead565b60405180910390fd5b5f8054906101000a900473ffffffffffffffffffffffffffffffffffffffff1673ffffffffffffffffffffffffffffffffffffffff16639df15aee86868686604051602001611cef9493929190613fd4565b60405160208183030381529060405280519060200120836040518363ffffffff1660e01b8152600401611d239291906141e7565b5f604051808303815f87803b158015611d3a575f80fd5b505af1158015611d4c573d5f803e3d5ffd5b505050505050505050565b5f805f9054906101000a900473ffffffffffffffffffffffffffffffffffffffff1673ffffffffffffffffffffffffffffffffffffffff1663bd02d0f58484604051602001611da7929190614192565b604051602081830303815290604052805190602001206040518263ffffffff1660e01b8152600401611dd9919061382d565b602060405180830381865afa158015611df4573d5f803e3d5ffd5b505050506040513d601f19601f82011682018060405250810190611e18919061411d565b90505f8054906101000a900473ffffffffffffffffffffffffffffffffffffffff1673ffffffffffffffffffffffffffffffffffffffff1663e2a4853a8484604051602001611e68929190614192565b60405160208183030381529060405280519060200120600184611e8b9190614429565b6040518363ffffffff1660e01b8152600401611ea8929190614396565b5f604051808303815f87803b158015611ebf575f80fd5b505af1158015611ed1573d5f803e3d5ffd5b50505050505050565b5f805f9054906101000a900473ffffffffffffffffffffffffffffffffffffffff1673ffffffffffffffffffffffffffffffffffffffff16638b23b40b86868686604051602001611f2e9493929190613fd4565b604051602081830303815290604052805190602001206040518263ffffffff1660e01b8152600401611f60919061382d565b602060405180830381865afa158015611f7b573d5f803e3d5ffd5b505050506040513d601f19601f82011682018060405250810190611f9f9190614470565b9050949350505050565b5f8054906101000a900473ffffffffffffffffffffffffffffffffffffffff1673ffffffffffffffffffffffffffffffffffffffff1663103aeda7336040518263ffffffff1660e01b815260040161200191906133f3565b602060405180830381865afa15801561201c573d5f803e3d5ffd5b505050506040513d601f19601f820116820180604052508101906120409190613e38565b61207f576040517f08c379a000000000000000000000000000000000000000000000000000000000815260040161207690613ead565b60405180910390fd5b5f8054906101000a900473ffffffffffffffffffffffffffffffffffffffff1673ffffffffffffffffffffffffffffffffffffffff1663e74730a1868686866040516020016120d19493929190613fd4565b60405160208183030381529060405280519060200120836040518363ffffffff1660e01b815260040161210592919061449b565b5f604051808303815f87803b15801561211c575f80fd5b505af115801561212e573d5f803e3d5ffd5b505050505050505050565b5f805f9054906101000a900473ffffffffffffffffffffffffffffffffffffffff1673ffffffffffffffffffffffffffffffffffffffff1663bd02d0f58686868660405160200161218d9493929190613fd4565b604051602081830303815290604052805190602001206040518263ffffffff1660e01b81526004016121bf919061382d565b602060405180830381865afa1580156121da573d5f803e3d5ffd5b505050506040513d601f19601f820116820180604052508101906121fe919061411d565b9050949350505050565b5f8054906101000a900473ffffffffffffffffffffffffffffffffffffffff1673ffffffffffffffffffffffffffffffffffffffff1663103aeda7336040518263ffffffff1660e01b815260040161226091906133f3565b602060405180830381865afa15801561227b573d5f803e3d5ffd5b505050506040513d601f19601f8201168201806040525081019061229f9190613e38565b6122de576040517f08c379a00000000000000000000000000000000000000000000000000000000081526004016122d590613ead565b60405180910390fd5b5f8054906101000a900473ffffffffffffffffffffffffffffffffffffffff1673ffffffffffffffffffffffffffffffffffffffff16631d77667b868686866040516020016123309493929190613fd4565b60405160208183030381529060405280519060200120836040518363ffffffff1660e01b81526004016123649291906144c2565b5f604051808303815f87803b15801561237b575f80fd5b505af115801561238d573d5f803e3d5ffd5b505050505050505050565b5f8054906101000a900473ffffffffffffffffffffffffffffffffffffffff1673ffffffffffffffffffffffffffffffffffffffff1663103aeda7336040518263ffffffff1660e01b81526004016123f091906133f3565b602060405180830381865afa15801561240b573d5f803e3d5ffd5b505050506040513d601f19601f8201168201806040525081019061242f9190613e38565b61246e576040517f08c379a000000000000000000000000000000000000000000000000000000000815260040161246590613ead565b60405180910390fd5b5f8054906101000a900473ffffffffffffffffffffffffffffffffffffffff1673ffffffffffffffffffffffffffffffffffffffff16636e899550868686866040516020016124c09493929190613fd4565b60405160208183030381529060405280519060200120836040518363ffffffff1660e01b81526004016124f49291906144e9565b5f604051808303815f87803b15801561250b575f80fd5b505af115801561251d573d5f803e3d5ffd5b505050505050505050565b5f8054906101000a900473ffffffffffffffffffffffffffffffffffffffff1673ffffffffffffffffffffffffffffffffffffffff1663103aeda7336040518263ffffffff1660e01b815260040161258091906133f3565b602060405180830381865afa15801561259b573d5f803e3d5ffd5b505050506040513d601f19601f820116820180604052508101906125bf9190613e38565b6125fe576040517f08c379a00000000000000000000000000000000000000000000000000000000081526004016125f590613ead565b60405180910390fd5b5f8054906101000a900473ffffffffffffffffffffffffffffffffffffffff1673ffffffffffffffffffffffffffffffffffffffff16636e8995508787878787604051602001612652959493929190613f5f565b60405160208183030381529060405280519060200120836040518363ffffffff1660e01b81526004016126869291906144e9565b5f604051808303815f87803b15801561269d575f80fd5b505af11580156126af573d5f803e3d5ffd5b50505050505050505050565b5f8054906101000a900473ffffffffffffffffffffffffffffffffffffffff1673ffffffffffffffffffffffffffffffffffffffff1663103aeda7336040518263ffffffff1660e01b815260040161271391906133f3565b602060405180830381865afa15801561272e573d5f803e3d5ffd5b505050506040513d601f19601f820116820180604052508101906127529190613e38565b612791576040517f08c379a000000000000000000000000000000000000000000000000000000000815260040161278890613ead565b60405180910390fd5b5f8054906101000a900473ffffffffffffffffffffffffffffffffffffffff1673ffffffffffffffffffffffffffffffffffffffff1663e2a4853a87878787876040516020016127e5959493929190613f5f565b60405160208183030381529060405280519060200120836040518363ffffffff1660e01b8152600401612819929190614396565b5f604051808303815f87803b158015612830575f80fd5b505af1158015612842573d5f803e3d5ffd5b50505050505050505050565b5f805f9054906101000a900473ffffffffffffffffffffffffffffffffffffffff1673ffffffffffffffffffffffffffffffffffffffff1663e4ccf1f787878787876040516020016128a4959493929190613f5f565b604051602081830303815290604052805190602001206040518263ffffffff1660e01b81526004016128d6919061382d565b602060405180830381865afa1580156128f1573d5f803e3d5ffd5b505050506040513d601f19601f820116820180604052508101906129159190614222565b905095945050505050565b60605f8054906101000a900473ffffffffffffffffffffffffffffffffffffffff1673ffffffffffffffffffffffffffffffffffffffff1663986e791a8787878787604051602001612976959493929190613f5f565b604051602081830303815290604052805190602001206040518263ffffffff1660e01b81526004016129a8919061382d565b5f60405180830381865afa1580156129c2573d5f803e3d5ffd5b505050506040513d5f823e3d601f19601f820116820180604052508101906129ea91906140c2565b905095945050505050565b5f604051905090565b5f80fd5b5f80fd5b5f80fd5b5f80fd5b5f601f19601f8301169050919050565b7f4e487b71000000000000000000000000000000000000000000000000000000005f52604160045260245ffd5b612a5482612a0e565b810181811067ffffffffffffffff82111715612a7357612a72612a1e565b5b80604052505050565b5f612a856129f5565b9050612a918282612a4b565b919050565b5f67ffffffffffffffff821115612ab057612aaf612a1e565b5b612ab982612a0e565b9050602081019050919050565b828183375f83830152505050565b5f612ae6612ae184612a96565b612a7c565b905082815260208101848484011115612b0257612b01612a0a565b5b612b0d848285612ac6565b509392505050565b5f82601f830112612b2957612b28612a06565b5b8135612b39848260208601612ad4565b91505092915050565b5f819050919050565b612b5481612b42565b8114612b5e575f80fd5b50565b5f81359050612b6f81612b4b565b92915050565b5f67ffffffffffffffff821115612b8f57612b8e612a1e565b5b612b9882612a0e565b9050602081019050919050565b5f612bb7612bb284612b75565b612a7c565b905082815260208101848484011115612bd357612bd2612a0a565b5b612bde848285612ac6565b509392505050565b5f82601f830112612bfa57612bf9612a06565b5b8135612c0a848260208601612ba5565b91505092915050565b5f8115159050919050565b612c2781612c13565b8114612c31575f80fd5b50565b5f81359050612c4281612c1e565b92915050565b5f805f805f8060c08789031215612c6257612c616129fe565b5b5f87013567ffffffffffffffff811115612c7f57612c7e612a02565b5b612c8b89828a01612b15565b965050602087013567ffffffffffffffff811115612cac57612cab612a02565b5b612cb889828a01612b15565b9550506040612cc989828a01612b61565b945050606087013567ffffffffffffffff811115612cea57612ce9612a02565b5b612cf689828a01612be6565b935050608087013567ffffffffffffffff811115612d1757612d16612a02565b5b612d2389828a01612be6565b92505060a0612d3489828a01612c34565b9150509295509295509295565b5f805f8060808587031215612d5957612d586129fe565b5b5f85013567ffffffffffffffff811115612d7657612d75612a02565b5b612d8287828801612b15565b945050602085013567ffffffffffffffff811115612da357612da2612a02565b5b612daf87828801612b15565b9350506040612dc087828801612b61565b925050606085013567ffffffffffffffff811115612de157612de0612a02565b5b612ded87828801612b15565b91505092959194509250565b5f61ffff82169050919050565b612e0f81612df9565b82525050565b5f602082019050612e285f830184612e06565b92915050565b5f805f805f60a08688031215612e4757612e466129fe565b5b5f86013567ffffffffffffffff811115612e6457612e63612a02565b5b612e7088828901612b15565b955050602086013567ffffffffffffffff811115612e9157612e90612a02565b5b612e9d88828901612b15565b9450506040612eae88828901612b61565b935050606086013567ffffffffffffffff811115612ecf57612ece612a02565b5b612edb88828901612be6565b925050608086013567ffffffffffffffff811115612efc57612efb612a02565b5b612f0888828901612be6565b9150509295509295909350565b612f1e81612c13565b82525050565b5f602082019050612f375f830184612f15565b92915050565b5f805f805f60a08688031215612f5657612f556129fe565b5b5f86013567ffffffffffffffff811115612f7357612f72612a02565b5b612f7f88828901612b15565b955050602086013567ffffffffffffffff811115612fa057612f9f612a02565b5b612fac88828901612b15565b9450506040612fbd88828901612b61565b935050606086013567ffffffffffffffff811115612fde57612fdd612a02565b5b612fea88828901612b15565b9250506080612ffb88828901612c34565b9150509295509295909350565b5f81519050919050565b5f82825260208201905092915050565b5f5b8381101561303f578082015181840152602081019050613024565b5f8484015250505050565b5f61305482613008565b61305e8185613012565b935061306e818560208601613022565b61307781612a0e565b840191505092915050565b5f6020820190508181035f83015261309a818461304a565b905092915050565b6130ab81612b42565b82525050565b5f6020820190506130c45f8301846130a2565b92915050565b5f80604083850312156130e0576130df6129fe565b5b5f83013567ffffffffffffffff8111156130fd576130fc612a02565b5b61310985828601612b15565b925050602083013567ffffffffffffffff81111561312a57613129612a02565b5b61313685828601612b15565b9150509250929050565b5f819050919050565b61315281613140565b811461315c575f80fd5b50565b5f8135905061316d81613149565b92915050565b5f805f805f60a0868803121561318c5761318b6129fe565b5b5f86013567ffffffffffffffff8111156131a9576131a8612a02565b5b6131b588828901612b15565b955050602086013567ffffffffffffffff8111156131d6576131d5612a02565b5b6131e288828901612b15565b94505060406131f388828901612b61565b935050606086013567ffffffffffffffff81111561321457613213612a02565b5b61322088828901612b15565b92505060806132318882890161315f565b9150509295509295909350565b5f7fffffffffffffffff00000000000000000000000000000000000000000000000082169050919050565b6132728161323e565b811461327c575f80fd5b50565b5f8135905061328d81613269565b92915050565b5f805f805f8060c087890312156132ad576132ac6129fe565b5b5f87013567ffffffffffffffff8111156132ca576132c9612a02565b5b6132d689828a01612b15565b965050602087013567ffffffffffffffff8111156132f7576132f6612a02565b5b61330389828a01612b15565b955050604061331489828a01612b61565b945050606087013567ffffffffffffffff81111561333557613334612a02565b5b61334189828a01612be6565b935050608087013567ffffffffffffffff81111561336257613361612a02565b5b61336e89828a01612be6565b92505060a061337f89828a0161327f565b9150509295509295509295565b6133958161323e565b82525050565b5f6020820190506133ae5f83018461338c565b92915050565b5f73ffffffffffffffffffffffffffffffffffffffff82169050919050565b5f6133dd826133b4565b9050919050565b6133ed816133d3565b82525050565b5f6020820190506134065f8301846133e4565b92915050565b5f805f805f60a08688031215613425576134246129fe565b5b5f86013567ffffffffffffffff81111561344257613441612a02565b5b61344e88828901612b15565b955050602086013567ffffffffffffffff81111561346f5761346e612a02565b5b61347b88828901612b15565b945050604061348c88828901612b61565b935050606086013567ffffffffffffffff8111156134ad576134ac612a02565b5b6134b988828901612b15565b925050608086013567ffffffffffffffff8111156134da576134d9612a02565b5b6134e688828901612be6565b9150509295509295909350565b5f81519050919050565b5f82825260208201905092915050565b5f613517826134f3565b61352181856134fd565b9350613531818560208601613022565b61353a81612a0e565b840191505092915050565b5f6020820190508181035f83015261355d818461350d565b905092915050565b61356e816133d3565b8114613578575f80fd5b50565b5f8135905061358981613565565b92915050565b5f805f805f60a086880312156135a8576135a76129fe565b5b5f86013567ffffffffffffffff8111156135c5576135c4612a02565b5b6135d188828901612b15565b955050602086013567ffffffffffffffff8111156135f2576135f1612a02565b5b6135fe88828901612b15565b945050604061360f88828901612b61565b935050606086013567ffffffffffffffff8111156136305761362f612a02565b5b61363c88828901612b15565b925050608061364d8882890161357b565b9150509295509295909350565b5f805f805f60a08688031215613673576136726129fe565b5b5f86013567ffffffffffffffff8111156136905761368f612a02565b5b61369c88828901612b15565b955050602086013567ffffffffffffffff8111156136bd576136bc612a02565b5b6136c988828901612b15565b94505060406136da88828901612b61565b935050606086013567ffffffffffffffff8111156136fb576136fa612a02565b5b61370788828901612b15565b925050608061371888828901612b61565b9150509295509295909350565b5f805f805f8060c0878903121561373f5761373e6129fe565b5b5f87013567ffffffffffffffff81111561375c5761375b612a02565b5b61376889828a01612b15565b965050602087013567ffffffffffffffff81111561378957613788612a02565b5b61379589828a01612b15565b95505060406137a689828a01612b61565b945050606087013567ffffffffffffffff8111156137c7576137c6612a02565b5b6137d389828a01612be6565b935050608087013567ffffffffffffffff8111156137f4576137f3612a02565b5b61380089828a01612be6565b92505060a061381189828a0161357b565b9150509295509295509295565b61382781613140565b82525050565b5f6020820190506138405f83018461381e565b92915050565b5f805f805f60a0868803121561385f5761385e6129fe565b5b5f86013567ffffffffffffffff81111561387c5761387b612a02565b5b61388888828901612b15565b955050602086013567ffffffffffffffff8111156138a9576138a8612a02565b5b6138b588828901612b15565b94505060406138c688828901612b61565b935050606086013567ffffffffffffffff8111156138e7576138e6612a02565b5b6138f388828901612b15565b92505060806139048882890161327f565b9150509295509295909350565b5f60ff82169050919050565b61392681613911565b82525050565b5f60208201905061393f5f83018461391d565b92915050565b61394e81613911565b8114613958575f80fd5b50565b5f8135905061396981613945565b92915050565b5f805f805f60a08688031215613988576139876129fe565b5b5f86013567ffffffffffffffff8111156139a5576139a4612a02565b5b6139b188828901612b15565b955050602086013567ffffffffffffffff8111156139d2576139d1612a02565b5b6139de88828901612b15565b94505060406139ef88828901612b61565b935050606086013567ffffffffffffffff811115613a1057613a0f612a02565b5b613a1c88828901612b15565b9250506080613a2d8882890161395b565b9150509295509295909350565b613a4381612df9565b8114613a4d575f80fd5b50565b5f81359050613a5e81613a3a565b92915050565b5f805f805f60a08688031215613a7d57613a7c6129fe565b5b5f86013567ffffffffffffffff811115613a9a57613a99612a02565b5b613aa688828901612b15565b955050602086013567ffffffffffffffff811115613ac757613ac6612a02565b5b613ad388828901612b15565b9450506040613ae488828901612b61565b935050606086013567ffffffffffffffff811115613b0557613b04612a02565b5b613b1188828901612b15565b9250506080613b2288828901613a50565b9150509295509295909350565b5f805f805f60a08688031215613b4857613b476129fe565b5b5f86013567ffffffffffffffff811115613b6557613b64612a02565b5b613b7188828901612b15565b955050602086013567ffffffffffffffff811115613b9257613b91612a02565b5b613b9e88828901612b15565b9450506040613baf88828901612b61565b935050606086013567ffffffffffffffff811115613bd057613bcf612a02565b5b613bdc88828901612b15565b925050608086013567ffffffffffffffff811115613bfd57613bfc612a02565b5b613c0988828901612b15565b9150509295509295909350565b5f805f805f8060c08789031215613c3057613c2f6129fe565b5b5f87013567ffffffffffffffff811115613c4d57613c4c612a02565b5b613c5989828a01612b15565b965050602087013567ffffffffffffffff811115613c7a57613c79612a02565b5b613c8689828a01612b15565b9550506040613c9789828a01612b61565b945050606087013567ffffffffffffffff811115613cb857613cb7612a02565b5b613cc489828a01612be6565b935050608087013567ffffffffffffffff811115613ce557613ce4612a02565b5b613cf189828a01612be6565b92505060a087013567ffffffffffffffff811115613d1257613d11612a02565b5b613d1e89828a01612b15565b9150509295509295509295565b5f805f805f8060c08789031215613d4557613d446129fe565b5b5f87013567ffffffffffffffff811115613d6257613d61612a02565b5b613d6e89828a01612b15565b965050602087013567ffffffffffffffff811115613d8f57613d8e612a02565b5b613d9b89828a01612b15565b9550506040613dac89828a01612b61565b945050606087013567ffffffffffffffff811115613dcd57613dcc612a02565b5b613dd989828a01612be6565b935050608087013567ffffffffffffffff811115613dfa57613df9612a02565b5b613e0689828a01612be6565b92505060a0613e1789828a01612b61565b9150509295509295509295565b5f81519050613e3281612c1e565b92915050565b5f60208284031215613e4d57613e4c6129fe565b5b5f613e5a84828501613e24565b91505092915050565b7f53746f7261676520416363657373204e6f7420417574686f72697a65640000005f82015250565b5f613e97601d83613012565b9150613ea282613e63565b602082019050919050565b5f6020820190508181035f830152613ec481613e8b565b9050919050565b5f81905092915050565b5f613edf82613008565b613ee98185613ecb565b9350613ef9818560208601613022565b80840191505092915050565b5f819050919050565b613f1f613f1a82612b42565b613f05565b82525050565b5f81905092915050565b5f613f39826134f3565b613f438185613f25565b9350613f53818560208601613022565b80840191505092915050565b5f613f6a8288613ed5565b9150613f768287613ed5565b9150613f828286613f0e565b602082019150613f928285613f2f565b9150613f9e8284613f2f565b91508190509695505050505050565b5f604082019050613fc05f83018561381e565b613fcd6020830184612f15565b9392505050565b5f613fdf8287613ed5565b9150613feb8286613ed5565b9150613ff78285613f0e565b6020820191506140078284613ed5565b915081905095945050505050565b5f8151905061402381613a3a565b92915050565b5f6020828403121561403e5761403d6129fe565b5b5f61404b84828501614015565b91505092915050565b5f61406661406184612a96565b612a7c565b90508281526020810184848401111561408257614081612a0a565b5b61408d848285613022565b509392505050565b5f82601f8301126140a9576140a8612a06565b5b81516140b9848260208601614054565b91505092915050565b5f602082840312156140d7576140d66129fe565b5b5f82015167ffffffffffffffff8111156140f4576140f3612a02565b5b61410084828501614095565b91505092915050565b5f8151905061411781612b4b565b92915050565b5f60208284031215614132576141316129fe565b5b5f61413f84828501614109565b91505092915050565b7f5f5f6c656e6774680000000000000000000000000000000000000000000000005f82015250565b5f61417c600883613ecb565b915061418782614148565b600882019050919050565b5f61419d8285613ed5565b91506141a98284613ed5565b91506141b482614170565b91508190509392505050565b5f6040820190506141d35f83018561381e565b6141e0602083018461381e565b9392505050565b5f6040820190506141fa5f83018561381e565b614207602083018461338c565b9392505050565b5f8151905061421c81613269565b92915050565b5f60208284031215614237576142366129fe565b5b5f6142448482850161420e565b91505092915050565b5f8151905061425b81613565565b92915050565b5f60208284031215614276576142756129fe565b5b5f6142838482850161424d565b91505092915050565b5f60408201905061429f5f83018561381e565b81810360208301526142b1818461350d565b90509392505050565b5f6142cc6142c784612b75565b612a7c565b9050828152602081018484840111156142e8576142e7612a0a565b5b6142f3848285613022565b509392505050565b5f82601f83011261430f5761430e612a06565b5b815161431f8482602086016142ba565b91505092915050565b5f6020828403121561433d5761433c6129fe565b5b5f82015167ffffffffffffffff81111561435a57614359612a02565b5b614366848285016142fb565b91505092915050565b5f6040820190506143825f83018561381e565b61438f60208301846133e4565b9392505050565b5f6040820190506143a95f83018561381e565b6143b660208301846130a2565b9392505050565b5f815190506143cb81613149565b92915050565b5f602082840312156143e6576143e56129fe565b5b5f6143f3848285016143bd565b91505092915050565b7f4e487b71000000000000000000000000000000000000000000000000000000005f52601160045260245ffd5b5f61443382612b42565b915061443e83612b42565b9250828201905080821115614456576144556143fc565b5b92915050565b5f8151905061446a81613945565b92915050565b5f60208284031215614485576144846129fe565b5b5f6144928482850161445c565b91505092915050565b5f6040820190506144ae5f83018561381e565b6144bb602083018461391d565b9392505050565b5f6040820190506144d55f83018561381e565b6144e26020830184612e06565b9392505050565b5f6040820190506144fc5f83018561381e565b818103602083015261450e818461304a565b9050939250505056fea2646970667358221220ab36f5908557bc1924feacca01ba37a61f30274360a5f5f730ffa12137bdd0cb64736f6c63430008140033",
  "immutableReferences": {},
  "source": "pragma solidity ^0.8.0;\n\nimport \"./QuireStorage.sol\";\n\n/** @title List Helper Contract\n  * @notice This contract acts as a helper contract to interact with the Qurire Storage contract\n  * on behalf of other smart contracts. \n  * A contract can store and retreive a list of objects. \n  * Each object property of an object at a specific index has to be stored and retreived individually.\n  * There are functions provided in this contract to do so for different data types. \n  */\ncontract ListStorage {\n      \n    QuireStorage quireStorage;\n\n    constructor(address _quireStorage) {\n        quireStorage = QuireStorage(_quireStorage);\n    }\n\n    modifier onlyNetworkContracts {\n      require(quireStorage.isContractAuthorized(msg.sender), \"Storage Access Not Authorized\");\n      _;\n    }\n\n    // ----------------------------- READS ----------------------------- //\n\n    /** @notice Returns list length\n      * @param _KEY Contract Name or Other defined key\n      * @param _list name of the list prepended with list__\n      */\n    function getLength(string memory _KEY, string memory _list) public view\n    returns(uint) {\n        return quireStorage.getUint(keccak256(abi.encodePacked(_KEY, _list, \"__length\")));\n    }\n\n    /** @notice returns list item property\n      * @param _KEY Contract Name or Other defined key\n      * @param _list name of the list prepended with list__\n      * @param _index index in the list\n      * @param _prop name of the property\n      */\n    function getPropAddress(string memory _KEY, string memory _list, uint _index, string memory _prop) public view \n    returns (address) {\n        return quireStorage.getAddress(keccak256(abi.encodePacked(_KEY, _list, _index, _prop)));\n    }\n\n    /** @notice returns list item property\n      * @param _KEY Contract Name or Other defined key\n      * @param _list name of the list prepended with list__\n      * @param _index index in the list\n      * @param _prop name of the property\n      */\n    function getPropBytes8(string memory _KEY, string memory _list, uint _index, string memory _prop) public view \n    returns (bytes8) {\n        return quireStorage.getBytes8(keccak256(abi.encodePacked(_KEY, _list, _index, _prop)));\n    }\n\n    /** @notice returns list item property\n      * @param _KEY Contract Name or Other defined key\n      * @param _list name of the list prepended with list__\n      * @param _index index in the list\n      * @param _prop name of the property\n      */\n    function getPropBytes32(string memory _KEY, string memory _list, uint _index, string memory _prop) public view \n    returns (bytes32) {\n        return quireStorage.getBytes32(keccak256(abi.encodePacked(_KEY, _list, _index, _prop)));\n    }\n\n    /** @notice returns list item property\n      * @param _KEY Contract Name or Other defined key\n      * @param _list name of the list prepended with list__\n      * @param _index index in the list\n      * @param _prop name of the property\n      */\n    function getPropBytes(string memory _KEY, string memory _list, uint _index, string memory _prop) public view \n    returns (bytes memory) {\n        return quireStorage.getBytes(keccak256(abi.encodePacked(_KEY, _list, _index, _prop)));\n    }\n\n    /** @notice returns list item property\n      * @param _KEY Contract Name or Other defined key\n      * @param _list name of the list prepended with list__\n      * @param _index index in the list\n      * @param _prop name of the property\n      */\n    function getPropBool(string memory _KEY, string memory _list, uint _index, string memory _prop) public view \n    returns (bool) {\n        return quireStorage.getBool(keccak256(abi.encodePacked(_KEY, _list, _index, _prop)));\n    }\n\n    /** @notice returns list item property\n      * @param _KEY Contract Name or Other defined key\n      * @param _list name of the list prepended with list__\n      * @param _index index in the list\n      * @param _prop name of the property\n      */\n    function getPropString(string memory _KEY, string memory _list, uint _index, string memory _prop) public view \n    returns (string memory) {\n        return quireStorage.getString(keccak256(abi.encodePacked(_KEY, _list, _index, _prop)));\n    }\n\n    /** @notice returns list item property\n      * @param _KEY Contract Name or Other defined key\n      * @param _list name of the list prepended with list__\n      * @param _index index in the list\n      * @param _prop name of the property\n      */\n    function getPropUint(string memory _KEY, string memory _list, uint _index, string memory _prop) public view \n    returns (uint) {\n        return quireStorage.getUint(keccak256(abi.encodePacked(_KEY, _list, _index, _prop)));\n    }\n\n    /** @notice returns list item property\n      * @param _KEY Contract Name or Other defined key\n      * @param _list name of the list prepended with list__\n      * @param _index index in the list\n      * @param _prop name of the property\n      */\n    function getPropUint8(string memory _KEY, string memory _list, uint _index, string memory _prop) public view \n    returns (uint8) {\n        return quireStorage.getUint8(keccak256(abi.encodePacked(_KEY, _list, _index, _prop)));\n    }\n\n    /** @notice returns list item property\n      * @param _KEY Contract Name or Other defined key\n      * @param _list name of the list prepended with list__\n      * @param _index index in the list\n      * @param _prop name of the property\n      */\n    function getPropUint16(string memory _KEY, string memory _list, uint _index, string memory _prop) public view \n    returns (uint16) {\n        return quireStorage.getUint16(keccak256(abi.encodePacked(_KEY, _list, _index, _prop)));\n    }\n\n    /** @notice returns list item complex property\n      * @dev if one of the properties of a list item is a complex data type like list or map, \n      * we pass a _propKey along with the _prop, prop name.\n      * @param _prop Name of the property prepended with obj__ for object, list__ for list and map__ for map\n      * @param _propKey For object, it is abi.encodePacked(_innerObjPropName, _innerPropKey);\n      * For list, it is abi.encodePacked(_index, _innerPropKey)\n      * For map, it is abi.encodePacked(_mapKey, _innerPropKey)\n      * If another complex data type (obj, list, map) is stored inside, we pass its _innerPropKey which is the same as\n      * the propKey for the inner complex data type. We do this until we find the required uint \n      */\n    function getPropByKeyUint(string memory _KEY, string memory _list, uint _index, bytes memory _prop, bytes memory _propKey) public view \n    returns (uint) {\n        return quireStorage.getUint(keccak256(abi.encodePacked(_KEY, _list, _index, _prop, _propKey)));\n    }\n\n    /** @notice returns list item complex property\n      * @dev if one of the properties of a list item is a complex data type like list or map, \n      * we pass a _propKey along with the _prop, prop name.\n      * @param _prop Name of the property prepended with obj__ for object, list__ for list and map__ for map\n      * @param _propKey For object, it is abi.encodePacked(_innerObjPropName, _innerPropKey);\n      * For list, it is abi.encodePacked(_index, _innerPropKey)\n      * For map, it is abi.encodePacked(_mapKey, _innerPropKey)\n      * If another complex data type (obj, list, map) is stored inside, we pass its _innerPropKey which is the same as\n      * the propKey for the inner complex data type. We do this until we find the required string \n      */\n    function getPropByKeyString(string memory _KEY, string memory _list, uint _index, bytes memory _prop, bytes memory _propKey) public view \n    returns (string memory) {\n        return quireStorage.getString(keccak256(abi.encodePacked(_KEY, _list, _index, _prop, _propKey)));\n    }\n\n    /** @notice returns list item complex property\n      * @dev if one of the properties of a list item is a complex data type like list or map, \n      * we pass a _propKey along with the _prop, prop name.\n      * @param _prop Name of the property prepended with obj__ for object, list__ for list and map__ for map\n      * @param _propKey For object, it is abi.encodePacked(_innerObjPropName, _innerPropKey);\n      * For list, it is abi.encodePacked(_index, _innerPropKey)\n      * For map, it is abi.encodePacked(_mapKey, _innerPropKey)\n      * If another complex data type (obj, list, map) is stored inside, we pass its _innerPropKey which is the same as\n      * the propKey for the inner complex data type. We do this until we find the required address \n      */\n    function getPropByKeyAddress(string memory _KEY, string memory _list, uint _index, bytes memory _prop, bytes memory _propKey) public view \n    returns (address) {\n        return quireStorage.getAddress(keccak256(abi.encodePacked(_KEY, _list, _index, _prop, _propKey)));\n    }\n\n    /** @notice returns list item complex property\n      * @dev if one of the properties of a list item is a complex data type (object, list or map), \n      * we pass a _propKey along with the _prop, prop name.\n      * @param _prop Name of the property prepended with obj__ for object, list__ for list and map__ for map\n      * @param _propKey For object, it is abi.encodePacked(_objPropName, _innerPropKey);\n      * For list, it is abi.encodePacked(_index, _innerPropKey)\n      * For map, it is abi.encodePacked(_mapKey, _innerPropKey)\n      * If another complex data type (obj, list, map) is stored inside, we pass its _innerPropKey which is the same as\n      * the propKey for the inner complex data type. We do this until we find the required bool \n      */\n    function getPropByKeyBool(string memory _KEY, string memory _list, uint _index, bytes memory _prop, bytes memory _propKey) public view \n    returns (bool) {\n        return quireStorage.getBool(keccak256(abi.encodePacked(_KEY, _list, _index, _prop, _propKey)));\n    }\n\n    /** @notice returns list item complex property\n      * @dev if one of the properties of a list item is a complex data type (object, list or map), \n      * we pass a _propKey along with the _prop, prop name.\n      * @param _prop Name of the property prepended with obj__ for object, list__ for list and map__ for map\n      * @param _propKey For object, it is abi.encodePacked(_objPropName, _innerPropKey);\n      * For list, it is abi.encodePacked(_index, _innerPropKey)\n      * For map, it is abi.encodePacked(_mapKey, _innerPropKey)\n      * If another complex data type (obj, list, map) is stored inside, we pass its _innerPropKey which is the same as\n      * the propKey for the inner complex data type. We do this until we find the required bytes8 \n      */\n    function getPropByKeyBytes8(string memory _KEY, string memory _list, uint _index, bytes memory _prop, bytes memory _propKey) public view \n    returns (bytes8) {\n        return quireStorage.getBytes8(keccak256(abi.encodePacked(_KEY, _list, _index, _prop, _propKey)));\n    }\n    \n    // ----------------------------- WRITES ----------------------------- //\n\n    /** @notice increments list length\n      * @param _KEY Contract Name or Other defined key\n      * @param _list name of the list prepended with list__\n      */\n    function incLength(string memory _KEY, string memory _list) public {\n        uint length = quireStorage.getUint(keccak256(abi.encodePacked(_KEY, _list, \"__length\")));\n        quireStorage.setUint(keccak256(abi.encodePacked(_KEY, _list, \"__length\")), length+1);\n    }\n\n    /** @notice sets list item property\n      * @param _KEY Contract Name or Other defined key\n      * @param _list name of the list prepended with list__\n      * @param _index index in the list\n      * @param _prop name of the property\n      * @param _value value to be stored\n      */\n    function setPropAddress(string memory _KEY, string memory _list, uint _index, string memory _prop, address _value) public \n    onlyNetworkContracts {\n        quireStorage.setAddress(keccak256(abi.encodePacked(_KEY, _list, _index, _prop)), _value);\n    }\n\n    /** @notice sets list item property\n      * @param _KEY Contract Name or Other defined key\n      * @param _list name of the list prepended with list__\n      * @param _index index in the list\n      * @param _prop name of the property\n      * @param _value value to be stored\n      */\n    function setPropBytes8(string memory _KEY, string memory _list, uint _index, string memory _prop, bytes8 _value) public \n    onlyNetworkContracts {\n        quireStorage.setBytes8(keccak256(abi.encodePacked(_KEY, _list, _index, _prop)), _value);\n    }\n\n    /** @notice sets list item property\n      * @param _KEY Contract Name or Other defined key\n      * @param _list name of the list prepended with list__\n      * @param _index index in the list\n      * @param _prop name of the property\n      * @param _value value to be stored\n      */\n    function setPropBytes32(string memory _KEY, string memory _list, uint _index, string memory _prop, bytes32 _value) public \n    onlyNetworkContracts {\n        quireStorage.setBytes32(keccak256(abi.encodePacked(_KEY, _list, _index, _prop)), _value);\n    }\n\n    /** @notice sets list item property\n      * @param _KEY Contract Name or Other defined key\n      * @param _list name of the list prepended with list__\n      * @param _index index in the list\n      * @param _prop name of the property\n      * @param _value value to be stored\n      */\n    function setPropBytes(string memory _KEY, string memory _list, uint _index, string memory _prop, bytes memory _value) public \n    onlyNetworkContracts {\n        quireStorage.setBytes(keccak256(abi.encodePacked(_KEY, _list, _index, _prop)), _value);\n    }\n\n    /** @notice sets list item property\n      * @param _KEY Contract Name or Other defined key\n      * @param _list name of the list prepended with list__\n      * @param _index index in the list\n      * @param _prop name of the property\n      * @param _value value to be stored\n      */\n    function setPropBool(string memory _KEY, string memory _list, uint _index, string memory _prop, bool _value) public \n    onlyNetworkContracts {\n        quireStorage.setBool(keccak256(abi.encodePacked(_KEY, _list, _index, _prop)), _value);\n    }\n    \n    /** @notice sets list item property\n      * @param _KEY Contract Name or Other defined key\n      * @param _list name of the list prepended with list__\n      * @param _index index in the list\n      * @param _prop name of the property\n      * @param _value value to be stored\n      */\n    function setPropString(string memory _KEY, string memory _list, uint _index, string memory _prop, string memory _value) public \n    onlyNetworkContracts {\n        quireStorage.setString(keccak256(abi.encodePacked(_KEY, _list, _index, _prop)), _value);\n    }\n\n    /** @notice sets list item property\n      * @param _KEY Contract Name or Other defined key\n      * @param _list name of the list prepended with list__\n      * @param _index index in the list\n      * @param _prop name of the property\n      * @param _value value to be stored\n      */\n    function setPropUint(string memory _KEY, string memory _list, uint _index, string memory _prop, uint _value) public \n    onlyNetworkContracts {\n        quireStorage.setUint(keccak256(abi.encodePacked(_KEY, _list, _index, _prop)), _value);\n    }\n\n    /** @notice sets list item property\n      * @param _KEY Contract Name or Other defined key\n      * @param _list name of the list prepended with list__\n      * @param _index index in the list\n      * @param _prop name of the property\n      * @param _value value to be stored\n      */\n    function setPropUint8(string memory _KEY, string memory _list, uint _index, string memory _prop, uint8 _value) public \n    onlyNetworkContracts {\n        quireStorage.setUint8(keccak256(abi.encodePacked(_KEY, _list, _index, _prop)), _value);\n    }\n\n    /** @notice sets list item property\n      * @param _KEY Contract Name or Other defined key\n      * @param _list name of the list prepended with list__\n      * @param _index index in the list\n      * @param _prop name of the property\n      * @param _value value to be stored\n      */\n    function setPropUint16(string memory _KEY, string memory _list, uint _index, string memory _prop, uint16 _value) public \n    onlyNetworkContracts {\n        quireStorage.setUint16(keccak256(abi.encodePacked(_KEY, _list, _index, _prop)), _value);\n    }\n\n    /** @notice sets list item complex property\n      * @dev if one of the properties of a list item is a complex data type like list or map, \n      * we pass a _propKey along with the _prop, prop name.\n      * @param _prop Name of the property prepended with obj__ for object, list__ for list and map__ for map\n      * @param _propKey For object, it is abi.encodePacked(_innerObjPropName, _innerPropKey);\n      * For list, it is abi.encodePacked(_index, _innerPropKey)\n      * For map, it is abi.encodePacked(_mapKey, _innerPropKey)\n      * If another complex data type (obj, list, map) is stored inside, we pass its _innerPropKey which is the same as\n      * the propKey for the inner complex data type. We do this until we locate the final uint \n      * @param _value value to be stored\n      */\n    function setPropByKeyUint(string memory _KEY, string memory _list, uint _index, bytes memory _prop, bytes memory _propKey, uint _value) public \n    onlyNetworkContracts {\n        quireStorage.setUint(keccak256(abi.encodePacked(_KEY, _list, _index, _prop, _propKey)), _value);\n    }\n\n    \n    /** @notice sets list item complex property\n      * @dev if one of the properties of a list item is a complex data type like list or map, \n      * we pass a _propKey along with the _prop, prop name.\n      * @param _prop Name of the property prepended with obj__ for object, list__ for list and map__ for map\n      * @param _propKey For object, it is abi.encodePacked(_innerObjPropName, _innerPropKey);\n      * For list, it is abi.encodePacked(_index, _innerPropKey)\n      * For map, it is abi.encodePacked(_mapKey, _innerPropKey)\n      * If another complex data type (obj, list, map) is stored inside, we pass its _innerPropKey which is the same as\n      * the propKey for the inner complex data type. We do this until we locate the final string \n      * @param _value value to be stored\n      */\n    function setPropByKeyString(string memory _KEY, string memory _list, uint _index, bytes memory _prop, bytes memory _propKey, string memory _value) public \n    onlyNetworkContracts {\n        quireStorage.setString(keccak256(abi.encodePacked(_KEY, _list, _index, _prop, _propKey)), _value);\n    }\n\n    \n    /** @notice sets list item complex property\n      * @dev if one of the properties of a list item is a complex data type like list or map, \n      * we pass a _propKey along with the _prop, prop name.\n      * @param _prop Name of the property prepended with obj__ for object, list__ for list and map__ for map\n      * @param _propKey For object, it is abi.encodePacked(_innerObjPropName, _innerPropKey);\n      * For list, it is abi.encodePacked(_index, _innerPropKey)\n      * For map, it is abi.encodePacked(_mapKey, _innerPropKey)\n      * If another complex data type (obj, list, map) is stored inside, we pass its _innerPropKey which is the same as\n      * the propKey for the inner complex data type. We do this until we locate the final address \n      * @param _value value to be stored\n      */\n    function setPropByKeyAddress(string memory _KEY, string memory _list, uint _index, bytes memory _prop, bytes memory _propKey, address _value) public \n    onlyNetworkContracts {\n        quireStorage.setAddress(keccak256(abi.encodePacked(_KEY, _list, _index, _prop, _propKey)), _value);\n    }\n\n    \n    /** @notice sets list item complex property\n      * @dev if one of the properties of a list item is a complex data type like list or map, \n      * we pass a _propKey along with the _prop, prop name.\n      * @param _prop Name of the property prepended with obj__ for object, list__ for list and map__ for map\n      * @param _propKey For object, it is abi.encodePacked(_innerObjPropName, _innerPropKey);\n      * For list, it is abi.encodePacked(_index, _innerPropKey)\n      * For map, it is abi.encodePacked(_mapKey, _innerPropKey)\n      * If another complex data type (obj, list, map) is stored inside, we pass its _innerPropKey which is the same as\n      * the propKey for the inner complex data type. We do this until we locate the final bool \n      * @param _value value to be stored\n      */\n    function setPropByKeyBool(string memory _KEY, string memory _list, uint _index, bytes memory _prop, bytes memory _propKey, bool _value) public \n    onlyNetworkContracts {\n        quireStorage.setBool(keccak256(abi.encodePacked(_KEY, _list, _index, _prop, _propKey)), _value);\n    }\n\n    /** @notice sets list item complex property\n      * @dev if one of the properties of a list item is a complex data type like list or map, \n      * we pass a _propKey along with the _prop, prop name.\n      * @param _prop Name of the property prepended with obj__ for object, list__ for list and map__ for map\n      * @param _propKey For object, it is abi.encodePacked(_innerObjPropName, _innerPropKey);\n      * For list, it is abi.encodePacked(_index, _innerPropKey)\n      * For map, it is abi.encodePacked(_mapKey, _innerPropKey)\n      * If another complex data type (obj, list, map) is stored inside, we pass its _innerPropKey which is the same as\n      * the propKey for the inner complex data type. We do this until we locate the final bytes8 \n      * @param _value value to be stored\n      */\n    function setPropByKeyBytes8(string memory _KEY, string memory _list, uint _index, bytes memory _prop, bytes memory _propKey, bytes8 _value) public \n    onlyNetworkContracts {\n        quireStorage.setBytes8(keccak256(abi.encodePacked(_KEY, _list, _index, _prop, _propKey)), _value);\n    }\n\n}",
  "sourcePath": "/home/raghupathi/Desktop/javaClass/javaClass/contracts/ListStorage.sol",
  "compiler": {
    "name": "solc",
    "version": "0.8.20+commit.a1b79de6.Emscripten.clang"
  },
  "schemaVersion": "3.4.14",
  "updatedAt": "2023-06-02T09:43:22.621Z",
  "devdoc": {
    "kind": "dev",
    "methods": {
      "getLength(string,string)": {
        "params": {
          "_KEY": "Contract Name or Other defined key",
          "_list": "name of the list prepended with list__"
        }
      },
      "getPropAddress(string,string,uint256,string)": {
        "params": {
          "_KEY": "Contract Name or Other defined key",
          "_index": "index in the list",
          "_list": "name of the list prepended with list__",
          "_prop": "name of the property"
        }
      },
      "getPropBool(string,string,uint256,string)": {
        "params": {
          "_KEY": "Contract Name or Other defined key",
          "_index": "index in the list",
          "_list": "name of the list prepended with list__",
          "_prop": "name of the property"
        }
      },
      "getPropByKeyAddress(string,string,uint256,bytes,bytes)": {
        "details": "if one of the properties of a list item is a complex data type like list or map,  we pass a _propKey along with the _prop, prop name.",
        "params": {
          "_prop": "Name of the property prepended with obj__ for object, list__ for list and map__ for map",
          "_propKey": "For object, it is abi.encodePacked(_innerObjPropName, _innerPropKey); For list, it is abi.encodePacked(_index, _innerPropKey) For map, it is abi.encodePacked(_mapKey, _innerPropKey) If another complex data type (obj, list, map) is stored inside, we pass its _innerPropKey which is the same as the propKey for the inner complex data type. We do this until we find the required address "
        }
      },
      "getPropByKeyBool(string,string,uint256,bytes,bytes)": {
        "details": "if one of the properties of a list item is a complex data type (object, list or map),  we pass a _propKey along with the _prop, prop name.",
        "params": {
          "_prop": "Name of the property prepended with obj__ for object, list__ for list and map__ for map",
          "_propKey": "For object, it is abi.encodePacked(_objPropName, _innerPropKey); For list, it is abi.encodePacked(_index, _innerPropKey) For map, it is abi.encodePacked(_mapKey, _innerPropKey) If another complex data type (obj, list, map) is stored inside, we pass its _innerPropKey which is the same as the propKey for the inner complex data type. We do this until we find the required bool "
        }
      },
      "getPropByKeyBytes8(string,string,uint256,bytes,bytes)": {
        "details": "if one of the properties of a list item is a complex data type (object, list or map),  we pass a _propKey along with the _prop, prop name.",
        "params": {
          "_prop": "Name of the property prepended with obj__ for object, list__ for list and map__ for map",
          "_propKey": "For object, it is abi.encodePacked(_objPropName, _innerPropKey); For list, it is abi.encodePacked(_index, _innerPropKey) For map, it is abi.encodePacked(_mapKey, _innerPropKey) If another complex data type (obj, list, map) is stored inside, we pass its _innerPropKey which is the same as the propKey for the inner complex data type. We do this until we find the required bytes8 "
        }
      },
      "getPropByKeyString(string,string,uint256,bytes,bytes)": {
        "details": "if one of the properties of a list item is a complex data type like list or map,  we pass a _propKey along with the _prop, prop name.",
        "params": {
          "_prop": "Name of the property prepended with obj__ for object, list__ for list and map__ for map",
          "_propKey": "For object, it is abi.encodePacked(_innerObjPropName, _innerPropKey); For list, it is abi.encodePacked(_index, _innerPropKey) For map, it is abi.encodePacked(_mapKey, _innerPropKey) If another complex data type (obj, list, map) is stored inside, we pass its _innerPropKey which is the same as the propKey for the inner complex data type. We do this until we find the required string "
        }
      },
      "getPropByKeyUint(string,string,uint256,bytes,bytes)": {
        "details": "if one of the properties of a list item is a complex data type like list or map,  we pass a _propKey along with the _prop, prop name.",
        "params": {
          "_prop": "Name of the property prepended with obj__ for object, list__ for list and map__ for map",
          "_propKey": "For object, it is abi.encodePacked(_innerObjPropName, _innerPropKey); For list, it is abi.encodePacked(_index, _innerPropKey) For map, it is abi.encodePacked(_mapKey, _innerPropKey) If another complex data type (obj, list, map) is stored inside, we pass its _innerPropKey which is the same as the propKey for the inner complex data type. We do this until we find the required uint "
        }
      },
      "getPropBytes(string,string,uint256,string)": {
        "params": {
          "_KEY": "Contract Name or Other defined key",
          "_index": "index in the list",
          "_list": "name of the list prepended with list__",
          "_prop": "name of the property"
        }
      },
      "getPropBytes32(string,string,uint256,string)": {
        "params": {
          "_KEY": "Contract Name or Other defined key",
          "_index": "index in the list",
          "_list": "name of the list prepended with list__",
          "_prop": "name of the property"
        }
      },
      "getPropBytes8(string,string,uint256,string)": {
        "params": {
          "_KEY": "Contract Name or Other defined key",
          "_index": "index in the list",
          "_list": "name of the list prepended with list__",
          "_prop": "name of the property"
        }
      },
      "getPropString(string,string,uint256,string)": {
        "params": {
          "_KEY": "Contract Name or Other defined key",
          "_index": "index in the list",
          "_list": "name of the list prepended with list__",
          "_prop": "name of the property"
        }
      },
      "getPropUint(string,string,uint256,string)": {
        "params": {
          "_KEY": "Contract Name or Other defined key",
          "_index": "index in the list",
          "_list": "name of the list prepended with list__",
          "_prop": "name of the property"
        }
      },
      "getPropUint16(string,string,uint256,string)": {
        "params": {
          "_KEY": "Contract Name or Other defined key",
          "_index": "index in the list",
          "_list": "name of the list prepended with list__",
          "_prop": "name of the property"
        }
      },
      "getPropUint8(string,string,uint256,string)": {
        "params": {
          "_KEY": "Contract Name or Other defined key",
          "_index": "index in the list",
          "_list": "name of the list prepended with list__",
          "_prop": "name of the property"
        }
      },
      "incLength(string,string)": {
        "params": {
          "_KEY": "Contract Name or Other defined key",
          "_list": "name of the list prepended with list__"
        }
      },
      "setPropAddress(string,string,uint256,string,address)": {
        "params": {
          "_KEY": "Contract Name or Other defined key",
          "_index": "index in the list",
          "_list": "name of the list prepended with list__",
          "_prop": "name of the property",
          "_value": "value to be stored"
        }
      },
      "setPropBool(string,string,uint256,string,bool)": {
        "params": {
          "_KEY": "Contract Name or Other defined key",
          "_index": "index in the list",
          "_list": "name of the list prepended with list__",
          "_prop": "name of the property",
          "_value": "value to be stored"
        }
      },
      "setPropByKeyAddress(string,string,uint256,bytes,bytes,address)": {
        "details": "if one of the properties of a list item is a complex data type like list or map,  we pass a _propKey along with the _prop, prop name.",
        "params": {
          "_prop": "Name of the property prepended with obj__ for object, list__ for list and map__ for map",
          "_propKey": "For object, it is abi.encodePacked(_innerObjPropName, _innerPropKey); For list, it is abi.encodePacked(_index, _innerPropKey) For map, it is abi.encodePacked(_mapKey, _innerPropKey) If another complex data type (obj, list, map) is stored inside, we pass its _innerPropKey which is the same as the propKey for the inner complex data type. We do this until we locate the final address ",
          "_value": "value to be stored"
        }
      },
      "setPropByKeyBool(string,string,uint256,bytes,bytes,bool)": {
        "details": "if one of the properties of a list item is a complex data type like list or map,  we pass a _propKey along with the _prop, prop name.",
        "params": {
          "_prop": "Name of the property prepended with obj__ for object, list__ for list and map__ for map",
          "_propKey": "For object, it is abi.encodePacked(_innerObjPropName, _innerPropKey); For list, it is abi.encodePacked(_index, _innerPropKey) For map, it is abi.encodePacked(_mapKey, _innerPropKey) If another complex data type (obj, list, map) is stored inside, we pass its _innerPropKey which is the same as the propKey for the inner complex data type. We do this until we locate the final bool ",
          "_value": "value to be stored"
        }
      },
      "setPropByKeyBytes8(string,string,uint256,bytes,bytes,bytes8)": {
        "details": "if one of the properties of a list item is a complex data type like list or map,  we pass a _propKey along with the _prop, prop name.",
        "params": {
          "_prop": "Name of the property prepended with obj__ for object, list__ for list and map__ for map",
          "_propKey": "For object, it is abi.encodePacked(_innerObjPropName, _innerPropKey); For list, it is abi.encodePacked(_index, _innerPropKey) For map, it is abi.encodePacked(_mapKey, _innerPropKey) If another complex data type (obj, list, map) is stored inside, we pass its _innerPropKey which is the same as the propKey for the inner complex data type. We do this until we locate the final bytes8 ",
          "_value": "value to be stored"
        }
      },
      "setPropByKeyString(string,string,uint256,bytes,bytes,string)": {
        "details": "if one of the properties of a list item is a complex data type like list or map,  we pass a _propKey along with the _prop, prop name.",
        "params": {
          "_prop": "Name of the property prepended with obj__ for object, list__ for list and map__ for map",
          "_propKey": "For object, it is abi.encodePacked(_innerObjPropName, _innerPropKey); For list, it is abi.encodePacked(_index, _innerPropKey) For map, it is abi.encodePacked(_mapKey, _innerPropKey) If another complex data type (obj, list, map) is stored inside, we pass its _innerPropKey which is the same as the propKey for the inner complex data type. We do this until we locate the final string ",
          "_value": "value to be stored"
        }
      },
      "setPropByKeyUint(string,string,uint256,bytes,bytes,uint256)": {
        "details": "if one of the properties of a list item is a complex data type like list or map,  we pass a _propKey along with the _prop, prop name.",
        "params": {
          "_prop": "Name of the property prepended with obj__ for object, list__ for list and map__ for map",
          "_propKey": "For object, it is abi.encodePacked(_innerObjPropName, _innerPropKey); For list, it is abi.encodePacked(_index, _innerPropKey) For map, it is abi.encodePacked(_mapKey, _innerPropKey) If another complex data type (obj, list, map) is stored inside, we pass its _innerPropKey which is the same as the propKey for the inner complex data type. We do this until we locate the final uint ",
          "_value": "value to be stored"
        }
      },
      "setPropBytes(string,string,uint256,string,bytes)": {
        "params": {
          "_KEY": "Contract Name or Other defined key",
          "_index": "index in the list",
          "_list": "name of the list prepended with list__",
          "_prop": "name of the property",
          "_value": "value to be stored"
        }
      },
      "setPropBytes32(string,string,uint256,string,bytes32)": {
        "params": {
          "_KEY": "Contract Name or Other defined key",
          "_index": "index in the list",
          "_list": "name of the list prepended with list__",
          "_prop": "name of the property",
          "_value": "value to be stored"
        }
      },
      "setPropBytes8(string,string,uint256,string,bytes8)": {
        "params": {
          "_KEY": "Contract Name or Other defined key",
          "_index": "index in the list",
          "_list": "name of the list prepended with list__",
          "_prop": "name of the property",
          "_value": "value to be stored"
        }
      },
      "setPropString(string,string,uint256,string,string)": {
        "params": {
          "_KEY": "Contract Name or Other defined key",
          "_index": "index in the list",
          "_list": "name of the list prepended with list__",
          "_prop": "name of the property",
          "_value": "value to be stored"
        }
      },
      "setPropUint(string,string,uint256,string,uint256)": {
        "params": {
          "_KEY": "Contract Name or Other defined key",
          "_index": "index in the list",
          "_list": "name of the list prepended with list__",
          "_prop": "name of the property",
          "_value": "value to be stored"
        }
      },
      "setPropUint16(string,string,uint256,string,uint16)": {
        "params": {
          "_KEY": "Contract Name or Other defined key",
          "_index": "index in the list",
          "_list": "name of the list prepended with list__",
          "_prop": "name of the property",
          "_value": "value to be stored"
        }
      },
      "setPropUint8(string,string,uint256,string,uint8)": {
        "params": {
          "_KEY": "Contract Name or Other defined key",
          "_index": "index in the list",
          "_list": "name of the list prepended with list__",
          "_prop": "name of the property",
          "_value": "value to be stored"
        }
      }
    },
    "title": "List Helper Contract",
    "version": 1
  },
  "userdoc": {
    "kind": "user",
    "methods": {
      "getLength(string,string)": {
        "notice": "Returns list length"
      },
      "getPropAddress(string,string,uint256,string)": {
        "notice": "returns list item property"
      },
      "getPropBool(string,string,uint256,string)": {
        "notice": "returns list item property"
      },
      "getPropByKeyAddress(string,string,uint256,bytes,bytes)": {
        "notice": "returns list item complex property"
      },
      "getPropByKeyBool(string,string,uint256,bytes,bytes)": {
        "notice": "returns list item complex property"
      },
      "getPropByKeyBytes8(string,string,uint256,bytes,bytes)": {
        "notice": "returns list item complex property"
      },
      "getPropByKeyString(string,string,uint256,bytes,bytes)": {
        "notice": "returns list item complex property"
      },
      "getPropByKeyUint(string,string,uint256,bytes,bytes)": {
        "notice": "returns list item complex property"
      },
      "getPropBytes(string,string,uint256,string)": {
        "notice": "returns list item property"
      },
      "getPropBytes32(string,string,uint256,string)": {
        "notice": "returns list item property"
      },
      "getPropBytes8(string,string,uint256,string)": {
        "notice": "returns list item property"
      },
      "getPropString(string,string,uint256,string)": {
        "notice": "returns list item property"
      },
      "getPropUint(string,string,uint256,string)": {
        "notice": "returns list item property"
      },
      "getPropUint16(string,string,uint256,string)": {
        "notice": "returns list item property"
      },
      "getPropUint8(string,string,uint256,string)": {
        "notice": "returns list item property"
      },
      "incLength(string,string)": {
        "notice": "increments list length"
      },
      "setPropAddress(string,string,uint256,string,address)": {
        "notice": "sets list item property"
      },
      "setPropBool(string,string,uint256,string,bool)": {
        "notice": "sets list item property"
      },
      "setPropByKeyAddress(string,string,uint256,bytes,bytes,address)": {
        "notice": "sets list item complex property"
      },
      "setPropByKeyBool(string,string,uint256,bytes,bytes,bool)": {
        "notice": "sets list item complex property"
      },
      "setPropByKeyBytes8(string,string,uint256,bytes,bytes,bytes8)": {
        "notice": "sets list item complex property"
      },
      "setPropByKeyString(string,string,uint256,bytes,bytes,string)": {
        "notice": "sets list item complex property"
      },
      "setPropByKeyUint(string,string,uint256,bytes,bytes,uint256)": {
        "notice": "sets list item complex property"
      },
      "setPropBytes(string,string,uint256,string,bytes)": {
        "notice": "sets list item property"
      },
      "setPropBytes32(string,string,uint256,string,bytes32)": {
        "notice": "sets list item property"
      },
      "setPropBytes8(string,string,uint256,string,bytes8)": {
        "notice": "sets list item property"
      },
      "setPropString(string,string,uint256,string,string)": {
        "notice": "sets list item property"
      },
      "setPropUint(string,string,uint256,string,uint256)": {
        "notice": "sets list item property"
      },
      "setPropUint16(string,string,uint256,string,uint16)": {
        "notice": "sets list item property"
      },
      "setPropUint8(string,string,uint256,string,uint8)": {
        "notice": "sets list item property"
      }
    },
    "notice": "This contract acts as a helper contract to interact with the Qurire Storage contract on behalf of other smart contracts.  A contract can store and retreive a list of objects.  Each object property of an object at a specific index has to be stored and retreived individually. There are functions provided in this contract to do so for different data types. ",
    "version": 1
  }
}