{
  "contractName": "MapStorage",
  "abi": [
    {
      "inputs": [
        {
          "internalType": "address",
          "name": "_quireStorage",
          "type": "address"
        }
      ],
      "stateMutability": "nonpayable",
      "type": "constructor"
    },
    {
      "inputs": [
        {
          "internalType": "string",
          "name": "_KEY",
          "type": "string"
        },
        {
          "internalType": "string",
          "name": "_map",
          "type": "string"
        },
        {
          "internalType": "address",
          "name": "_mapKey",
          "type": "address"
        }
      ],
      "name": "getAddressToUint",
      "outputs": [
        {
          "internalType": "uint256",
          "name": "",
          "type": "uint256"
        }
      ],
      "stateMutability": "view",
      "type": "function"
    },
    {
      "inputs": [
        {
          "internalType": "string",
          "name": "_KEY",
          "type": "string"
        },
        {
          "internalType": "string",
          "name": "_map",
          "type": "string"
        },
        {
          "internalType": "string",
          "name": "_mapKey",
          "type": "string"
        }
      ],
      "name": "getStringToUint",
      "outputs": [
        {
          "internalType": "uint256",
          "name": "",
          "type": "uint256"
        }
      ],
      "stateMutability": "view",
      "type": "function"
    },
    {
      "inputs": [
        {
          "internalType": "string",
          "name": "_KEY",
          "type": "string"
        },
        {
          "internalType": "string",
          "name": "_map",
          "type": "string"
        },
        {
          "internalType": "string",
          "name": "_mapKey",
          "type": "string"
        }
      ],
      "name": "getStringToBytes8",
      "outputs": [
        {
          "internalType": "bytes8",
          "name": "",
          "type": "bytes8"
        }
      ],
      "stateMutability": "view",
      "type": "function"
    },
    {
      "inputs": [
        {
          "internalType": "string",
          "name": "_KEY",
          "type": "string"
        },
        {
          "internalType": "string",
          "name": "_map",
          "type": "string"
        },
        {
          "internalType": "string",
          "name": "_mapKey",
          "type": "string"
        }
      ],
      "name": "getStringToString",
      "outputs": [
        {
          "internalType": "string",
          "name": "",
          "type": "string"
        }
      ],
      "stateMutability": "view",
      "type": "function"
    },
    {
      "inputs": [
        {
          "internalType": "string",
          "name": "_KEY",
          "type": "string"
        },
        {
          "internalType": "string",
          "name": "_map",
          "type": "string"
        },
        {
          "internalType": "bytes8",
          "name": "_mapKey",
          "type": "bytes8"
        }
      ],
      "name": "getBytes8ToUint",
      "outputs": [
        {
          "internalType": "uint256",
          "name": "",
          "type": "uint256"
        }
      ],
      "stateMutability": "view",
      "type": "function"
    },
    {
      "inputs": [
        {
          "internalType": "string",
          "name": "_KEY",
          "type": "string"
        },
        {
          "internalType": "string",
          "name": "_map",
          "type": "string"
        },
        {
          "internalType": "bytes32",
          "name": "_mapKey",
          "type": "bytes32"
        }
      ],
      "name": "getBytes32ToUint",
      "outputs": [
        {
          "internalType": "uint256",
          "name": "",
          "type": "uint256"
        }
      ],
      "stateMutability": "view",
      "type": "function"
    },
    {
      "inputs": [
        {
          "internalType": "string",
          "name": "_KEY",
          "type": "string"
        },
        {
          "internalType": "string",
          "name": "_map",
          "type": "string"
        },
        {
          "internalType": "bytes32",
          "name": "_mapKey",
          "type": "bytes32"
        }
      ],
      "name": "getBytes32ToAddress",
      "outputs": [
        {
          "internalType": "address",
          "name": "",
          "type": "address"
        }
      ],
      "stateMutability": "view",
      "type": "function"
    },
    {
      "inputs": [
        {
          "internalType": "string",
          "name": "_KEY",
          "type": "string"
        },
        {
          "internalType": "string",
          "name": "_map",
          "type": "string"
        },
        {
          "internalType": "bytes8",
          "name": "_mapKey",
          "type": "bytes8"
        },
        {
          "internalType": "bytes",
          "name": "_propKey",
          "type": "bytes"
        }
      ],
      "name": "getByKeyBytes8ToUint",
      "outputs": [
        {
          "internalType": "uint256",
          "name": "",
          "type": "uint256"
        }
      ],
      "stateMutability": "view",
      "type": "function"
    },
    {
      "inputs": [
        {
          "internalType": "string",
          "name": "_KEY",
          "type": "string"
        },
        {
          "internalType": "string",
          "name": "_map",
          "type": "string"
        },
        {
          "internalType": "string",
          "name": "_mapKey",
          "type": "string"
        },
        {
          "internalType": "bytes",
          "name": "_propKey",
          "type": "bytes"
        }
      ],
      "name": "getByKeyStringToUint",
      "outputs": [
        {
          "internalType": "uint256",
          "name": "",
          "type": "uint256"
        }
      ],
      "stateMutability": "view",
      "type": "function"
    },
    {
      "inputs": [
        {
          "internalType": "string",
          "name": "_KEY",
          "type": "string"
        },
        {
          "internalType": "string",
          "name": "_map",
          "type": "string"
        },
        {
          "internalType": "address",
          "name": "_mapKey",
          "type": "address"
        },
        {
          "internalType": "uint256",
          "name": "_value",
          "type": "uint256"
        }
      ],
      "name": "setAddressToUint",
      "outputs": [],
      "stateMutability": "nonpayable",
      "type": "function"
    },
    {
      "inputs": [
        {
          "internalType": "string",
          "name": "_KEY",
          "type": "string"
        },
        {
          "internalType": "string",
          "name": "_map",
          "type": "string"
        },
        {
          "internalType": "string",
          "name": "_mapKey",
          "type": "string"
        },
        {
          "internalType": "uint256",
          "name": "_value",
          "type": "uint256"
        }
      ],
      "name": "setStringToUint",
      "outputs": [],
      "stateMutability": "nonpayable",
      "type": "function"
    },
    {
      "inputs": [
        {
          "internalType": "string",
          "name": "_KEY",
          "type": "string"
        },
        {
          "internalType": "string",
          "name": "_map",
          "type": "string"
        },
        {
          "internalType": "string",
          "name": "_mapKey",
          "type": "string"
        },
        {
          "internalType": "bytes8",
          "name": "_value",
          "type": "bytes8"
        }
      ],
      "name": "setStringToBytes8",
      "outputs": [],
      "stateMutability": "nonpayable",
      "type": "function"
    },
    {
      "inputs": [
        {
          "internalType": "string",
          "name": "_KEY",
          "type": "string"
        },
        {
          "internalType": "string",
          "name": "_map",
          "type": "string"
        },
        {
          "internalType": "string",
          "name": "_mapKey",
          "type": "string"
        },
        {
          "internalType": "string",
          "name": "_value",
          "type": "string"
        }
      ],
      "name": "setStringToString",
      "outputs": [],
      "stateMutability": "nonpayable",
      "type": "function"
    },
    {
      "inputs": [
        {
          "internalType": "string",
          "name": "_KEY",
          "type": "string"
        },
        {
          "internalType": "string",
          "name": "_map",
          "type": "string"
        },
        {
          "internalType": "bytes8",
          "name": "_mapKey",
          "type": "bytes8"
        },
        {
          "internalType": "uint256",
          "name": "_value",
          "type": "uint256"
        }
      ],
      "name": "setBytes8ToUint",
      "outputs": [],
      "stateMutability": "nonpayable",
      "type": "function"
    },
    {
      "inputs": [
        {
          "internalType": "string",
          "name": "_KEY",
          "type": "string"
        },
        {
          "internalType": "string",
          "name": "_map",
          "type": "string"
        },
        {
          "internalType": "bytes32",
          "name": "_mapKey",
          "type": "bytes32"
        },
        {
          "internalType": "uint256",
          "name": "_value",
          "type": "uint256"
        }
      ],
      "name": "setBytes32ToUint",
      "outputs": [],
      "stateMutability": "nonpayable",
      "type": "function"
    },
    {
      "inputs": [
        {
          "internalType": "string",
          "name": "_KEY",
          "type": "string"
        },
        {
          "internalType": "string",
          "name": "_map",
          "type": "string"
        },
        {
          "internalType": "bytes32",
          "name": "_mapKey",
          "type": "bytes32"
        },
        {
          "internalType": "address",
          "name": "_value",
          "type": "address"
        }
      ],
      "name": "setBytes32ToAddress",
      "outputs": [],
      "stateMutability": "nonpayable",
      "type": "function"
    },
    {
      "inputs": [
        {
          "internalType": "string",
          "name": "_KEY",
          "type": "string"
        },
        {
          "internalType": "string",
          "name": "_map",
          "type": "string"
        },
        {
          "internalType": "bytes8",
          "name": "_mapKey",
          "type": "bytes8"
        },
        {
          "internalType": "bytes",
          "name": "_propKey",
          "type": "bytes"
        },
        {
          "internalType": "uint256",
          "name": "_value",
          "type": "uint256"
        }
      ],
      "name": "setByKeyBytes8ToUint",
      "outputs": [],
      "stateMutability": "nonpayable",
      "type": "function"
    },
    {
      "inputs": [
        {
          "internalType": "string",
          "name": "_KEY",
          "type": "string"
        },
        {
          "internalType": "string",
          "name": "_map",
          "type": "string"
        },
        {
          "internalType": "string",
          "name": "_mapKey",
          "type": "string"
        },
        {
          "internalType": "bytes",
          "name": "_propKey",
          "type": "bytes"
        },
        {
          "internalType": "uint256",
          "name": "_value",
          "type": "uint256"
        }
      ],
      "name": "setByKeyStringToUint",
      "outputs": [],
      "stateMutability": "nonpayable",
      "type": "function"
    }
  ],
  "bytecode": "0x608060405234801562000010575f80fd5b5060405162002ddb38038062002ddb8339818101604052810190620000369190620000e1565b805f806101000a81548173ffffffffffffffffffffffffffffffffffffffff021916908373ffffffffffffffffffffffffffffffffffffffff1602179055505062000111565b5f80fd5b5f73ffffffffffffffffffffffffffffffffffffffff82169050919050565b5f620000ab8262000080565b9050919050565b620000bd816200009f565b8114620000c8575f80fd5b50565b5f81519050620000db81620000b2565b92915050565b5f60208284031215620000f957620000f86200007c565b5b5f6200010884828501620000cb565b91505092915050565b612cbc806200011f5f395ff3fe608060405234801561000f575f80fd5b5060043610610114575f3560e01c806384ae9363116100a0578063bfa9f3eb1161006f578063bfa9f3eb146102fc578063c04471ef1461032c578063cf1e8bd814610348578063d4cc3d8014610364578063d801ba371461039457610114565b806384ae93631461026457806396a38809146102945780639f667dae146102c4578063b85a5dab146102e057610114565b8063405e2c0d116100e7578063405e2c0d1461019c57806349e363e6146101cc578063539c2ffb146101e85780635e0ae01e14610218578063715464fd1461023457610114565b806316ae1bfa14610118578063177d6361146101345780632f79e10214610150578063368428d914610180575b5f80fd5b610132600480360381019061012d9190611b12565b6103c4565b005b61014e60048036038101906101499190611c4e565b610554565b005b61016a60048036038101906101659190611cea565b6106e1565b6040516101779190611dcd565b60405180910390f35b61019a60048036038101906101959190611de6565b6107b0565b005b6101b660048036038101906101b19190611e9e565b61093d565b6040516101c39190611dcd565b60405180910390f35b6101e660048036038101906101e19190611f59565b610a09565b005b61020260048036038101906101fd9190611ff5565b610b96565b60405161020f9190611dcd565b60405180910390f35b610232600480360381019061022d9190612099565b610c62565b005b61024e600480360381019061024991906121c7565b610def565b60405161025b9190611dcd565b60405180910390f35b61027e60048036038101906102799190611ff5565b610ebb565b60405161028b91906122c9565b60405180910390f35b6102ae60048036038101906102a99190611ff5565b610f8a565b6040516102bb91906122f8565b60405180910390f35b6102de60048036038101906102d99190612311565b611056565b005b6102fa60048036038101906102f591906123c9565b6111e3565b005b61031660048036038101906103119190612465565b611370565b6040516103239190611dcd565b60405180910390f35b6103466004803603810190610341919061251d565b61143f565b005b610362600480360381019061035d91906125b9565b6115cc565b005b61037e60048036038101906103799190612684565b61175c565b60405161038b919061271b565b60405180910390f35b6103ae60048036038101906103a99190612684565b611828565b6040516103bb9190611dcd565b60405180910390f35b5f8054906101000a900473ffffffffffffffffffffffffffffffffffffffff1673ffffffffffffffffffffffffffffffffffffffff1663103aeda7336040518263ffffffff1660e01b815260040161041c919061271b565b602060405180830381865afa158015610437573d5f803e3d5ffd5b505050506040513d601f19601f8201168201806040525081019061045b9190612769565b61049a576040517f08c379a0000000000000000000000000000000000000000000000000000000008152600401610491906127de565b60405180910390fd5b5f8054906101000a900473ffffffffffffffffffffffffffffffffffffffff1673ffffffffffffffffffffffffffffffffffffffff1663e2a4853a868686866040516020016104ec949392919061287a565b60405160208183030381529060405280519060200120836040518363ffffffff1660e01b81526004016105209291906128c6565b5f604051808303815f87803b158015610537575f80fd5b505af1158015610549573d5f803e3d5ffd5b505050505050505050565b5f8054906101000a900473ffffffffffffffffffffffffffffffffffffffff1673ffffffffffffffffffffffffffffffffffffffff1663103aeda7336040518263ffffffff1660e01b81526004016105ac919061271b565b602060405180830381865afa1580156105c7573d5f803e3d5ffd5b505050506040513d601f19601f820116820180604052508101906105eb9190612769565b61062a576040517f08c379a0000000000000000000000000000000000000000000000000000000008152600401610621906127de565b60405180910390fd5b5f8054906101000a900473ffffffffffffffffffffffffffffffffffffffff1673ffffffffffffffffffffffffffffffffffffffff1663e2a4853a85858560405160200161067a9392919061290d565b60405160208183030381529060405280519060200120836040518363ffffffff1660e01b81526004016106ae9291906128c6565b5f604051808303815f87803b1580156106c5575f80fd5b505af11580156106d7573d5f803e3d5ffd5b5050505050505050565b5f805f9054906101000a900473ffffffffffffffffffffffffffffffffffffffff1673ffffffffffffffffffffffffffffffffffffffff1663bd02d0f586868686604051602001610735949392919061287a565b604051602081830303815290604052805190602001206040518263ffffffff1660e01b81526004016107679190612941565b602060405180830381865afa158015610782573d5f803e3d5ffd5b505050506040513d601f19601f820116820180604052508101906107a6919061296e565b9050949350505050565b5f8054906101000a900473ffffffffffffffffffffffffffffffffffffffff1673ffffffffffffffffffffffffffffffffffffffff1663103aeda7336040518263ffffffff1660e01b8152600401610808919061271b565b602060405180830381865afa158015610823573d5f803e3d5ffd5b505050506040513d601f19601f820116820180604052508101906108479190612769565b610886576040517f08c379a000000000000000000000000000000000000000000000000000000000815260040161087d906127de565b60405180910390fd5b5f8054906101000a900473ffffffffffffffffffffffffffffffffffffffff1673ffffffffffffffffffffffffffffffffffffffff1663e2a4853a8585856040516020016108d693929190612999565b60405160208183030381529060405280519060200120836040518363ffffffff1660e01b815260040161090a9291906128c6565b5f604051808303815f87803b158015610921575f80fd5b505af1158015610933573d5f803e3d5ffd5b5050505050505050565b5f805f9054906101000a900473ffffffffffffffffffffffffffffffffffffffff1673ffffffffffffffffffffffffffffffffffffffff1663bd02d0f585858560405160200161098f9392919061290d565b604051602081830303815290604052805190602001206040518263ffffffff1660e01b81526004016109c19190612941565b602060405180830381865afa1580156109dc573d5f803e3d5ffd5b505050506040513d601f19601f82011682018060405250810190610a00919061296e565b90509392505050565b5f8054906101000a900473ffffffffffffffffffffffffffffffffffffffff1673ffffffffffffffffffffffffffffffffffffffff1663103aeda7336040518263ffffffff1660e01b8152600401610a61919061271b565b602060405180830381865afa158015610a7c573d5f803e3d5ffd5b505050506040513d601f19601f82011682018060405250810190610aa09190612769565b610adf576040517f08c379a0000000000000000000000000000000000000000000000000000000008152600401610ad6906127de565b60405180910390fd5b5f8054906101000a900473ffffffffffffffffffffffffffffffffffffffff1673ffffffffffffffffffffffffffffffffffffffff1663e2a4853a858585604051602001610b2f939291906129e9565b60405160208183030381529060405280519060200120836040518363ffffffff1660e01b8152600401610b639291906128c6565b5f604051808303815f87803b158015610b7a575f80fd5b505af1158015610b8c573d5f803e3d5ffd5b5050505050505050565b5f805f9054906101000a900473ffffffffffffffffffffffffffffffffffffffff1673ffffffffffffffffffffffffffffffffffffffff1663bd02d0f5858585604051602001610be893929190612999565b604051602081830303815290604052805190602001206040518263ffffffff1660e01b8152600401610c1a9190612941565b602060405180830381865afa158015610c35573d5f803e3d5ffd5b505050506040513d601f19601f82011682018060405250810190610c59919061296e565b90509392505050565b5f8054906101000a900473ffffffffffffffffffffffffffffffffffffffff1673ffffffffffffffffffffffffffffffffffffffff1663103aeda7336040518263ffffffff1660e01b8152600401610cba919061271b565b602060405180830381865afa158015610cd5573d5f803e3d5ffd5b505050506040513d601f19601f82011682018060405250810190610cf99190612769565b610d38576040517f08c379a0000000000000000000000000000000000000000000000000000000008152600401610d2f906127de565b60405180910390fd5b5f8054906101000a900473ffffffffffffffffffffffffffffffffffffffff1673ffffffffffffffffffffffffffffffffffffffff16636e899550858585604051602001610d8893929190612999565b60405160208183030381529060405280519060200120836040518363ffffffff1660e01b8152600401610dbc929190612a1d565b5f604051808303815f87803b158015610dd3575f80fd5b505af1158015610de5573d5f803e3d5ffd5b5050505050505050565b5f805f9054906101000a900473ffffffffffffffffffffffffffffffffffffffff1673ffffffffffffffffffffffffffffffffffffffff1663bd02d0f5858585604051602001610e4193929190612a90565b604051602081830303815290604052805190602001206040518263ffffffff1660e01b8152600401610e739190612941565b602060405180830381865afa158015610e8e573d5f803e3d5ffd5b505050506040513d601f19601f82011682018060405250810190610eb2919061296e565b90509392505050565b60605f8054906101000a900473ffffffffffffffffffffffffffffffffffffffff1673ffffffffffffffffffffffffffffffffffffffff1663986e791a858585604051602001610f0d93929190612999565b604051602081830303815290604052805190602001206040518263ffffffff1660e01b8152600401610f3f9190612941565b5f60405180830381865afa158015610f59573d5f803e3d5ffd5b505050506040513d5f823e3d601f19601f82011682018060405250810190610f819190612b32565b90509392505050565b5f805f9054906101000a900473ffffffffffffffffffffffffffffffffffffffff1673ffffffffffffffffffffffffffffffffffffffff1663e4ccf1f7858585604051602001610fdc93929190612999565b604051602081830303815290604052805190602001206040518263ffffffff1660e01b815260040161100e9190612941565b602060405180830381865afa158015611029573d5f803e3d5ffd5b505050506040513d601f19601f8201168201806040525081019061104d9190612b8d565b90509392505050565b5f8054906101000a900473ffffffffffffffffffffffffffffffffffffffff1673ffffffffffffffffffffffffffffffffffffffff1663103aeda7336040518263ffffffff1660e01b81526004016110ae919061271b565b602060405180830381865afa1580156110c9573d5f803e3d5ffd5b505050506040513d601f19601f820116820180604052508101906110ed9190612769565b61112c576040517f08c379a0000000000000000000000000000000000000000000000000000000008152600401611123906127de565b60405180910390fd5b5f8054906101000a900473ffffffffffffffffffffffffffffffffffffffff1673ffffffffffffffffffffffffffffffffffffffff16639df15aee85858560405160200161117c93929190612999565b60405160208183030381529060405280519060200120836040518363ffffffff1660e01b81526004016111b0929190612bb8565b5f604051808303815f87803b1580156111c7575f80fd5b505af11580156111d9573d5f803e3d5ffd5b5050505050505050565b5f8054906101000a900473ffffffffffffffffffffffffffffffffffffffff1673ffffffffffffffffffffffffffffffffffffffff1663103aeda7336040518263ffffffff1660e01b815260040161123b919061271b565b602060405180830381865afa158015611256573d5f803e3d5ffd5b505050506040513d601f19601f8201168201806040525081019061127a9190612769565b6112b9576040517f08c379a00000000000000000000000000000000000000000000000000000000081526004016112b0906127de565b60405180910390fd5b5f8054906101000a900473ffffffffffffffffffffffffffffffffffffffff1673ffffffffffffffffffffffffffffffffffffffff1663e2a4853a85858560405160200161130993929190612a90565b60405160208183030381529060405280519060200120836040518363ffffffff1660e01b815260040161133d9291906128c6565b5f604051808303815f87803b158015611354575f80fd5b505af1158015611366573d5f803e3d5ffd5b5050505050505050565b5f805f9054906101000a900473ffffffffffffffffffffffffffffffffffffffff1673ffffffffffffffffffffffffffffffffffffffff1663bd02d0f5868686866040516020016113c49493929190612bdf565b604051602081830303815290604052805190602001206040518263ffffffff1660e01b81526004016113f69190612941565b602060405180830381865afa158015611411573d5f803e3d5ffd5b505050506040513d601f19601f82011682018060405250810190611435919061296e565b9050949350505050565b5f8054906101000a900473ffffffffffffffffffffffffffffffffffffffff1673ffffffffffffffffffffffffffffffffffffffff1663103aeda7336040518263ffffffff1660e01b8152600401611497919061271b565b602060405180830381865afa1580156114b2573d5f803e3d5ffd5b505050506040513d601f19601f820116820180604052508101906114d69190612769565b611515576040517f08c379a000000000000000000000000000000000000000000000000000000000815260040161150c906127de565b60405180910390fd5b5f8054906101000a900473ffffffffffffffffffffffffffffffffffffffff1673ffffffffffffffffffffffffffffffffffffffff1663ca446dd9858585604051602001611565939291906129e9565b60405160208183030381529060405280519060200120836040518363ffffffff1660e01b8152600401611599929190612c20565b5f604051808303815f87803b1580156115b0575f80fd5b505af11580156115c2573d5f803e3d5ffd5b5050505050505050565b5f8054906101000a900473ffffffffffffffffffffffffffffffffffffffff1673ffffffffffffffffffffffffffffffffffffffff1663103aeda7336040518263ffffffff1660e01b8152600401611624919061271b565b602060405180830381865afa15801561163f573d5f803e3d5ffd5b505050506040513d601f19601f820116820180604052508101906116639190612769565b6116a2576040517f08c379a0000000000000000000000000000000000000000000000000000000008152600401611699906127de565b60405180910390fd5b5f8054906101000a900473ffffffffffffffffffffffffffffffffffffffff1673ffffffffffffffffffffffffffffffffffffffff1663e2a4853a868686866040516020016116f49493929190612bdf565b60405160208183030381529060405280519060200120836040518363ffffffff1660e01b81526004016117289291906128c6565b5f604051808303815f87803b15801561173f575f80fd5b505af1158015611751573d5f803e3d5ffd5b505050505050505050565b5f805f9054906101000a900473ffffffffffffffffffffffffffffffffffffffff1673ffffffffffffffffffffffffffffffffffffffff166321f8a7218585856040516020016117ae939291906129e9565b604051602081830303815290604052805190602001206040518263ffffffff1660e01b81526004016117e09190612941565b602060405180830381865afa1580156117fb573d5f803e3d5ffd5b505050506040513d601f19601f8201168201806040525081019061181f9190612c5b565b90509392505050565b5f805f9054906101000a900473ffffffffffffffffffffffffffffffffffffffff1673ffffffffffffffffffffffffffffffffffffffff1663bd02d0f585858560405160200161187a939291906129e9565b604051602081830303815290604052805190602001206040518263ffffffff1660e01b81526004016118ac9190612941565b602060405180830381865afa1580156118c7573d5f803e3d5ffd5b505050506040513d601f19601f820116820180604052508101906118eb919061296e565b90509392505050565b5f604051905090565b5f80fd5b5f80fd5b5f80fd5b5f80fd5b5f601f19601f8301169050919050565b7f4e487b71000000000000000000000000000000000000000000000000000000005f52604160045260245ffd5b6119538261190d565b810181811067ffffffffffffffff821117156119725761197161191d565b5b80604052505050565b5f6119846118f4565b9050611990828261194a565b919050565b5f67ffffffffffffffff8211156119af576119ae61191d565b5b6119b88261190d565b9050602081019050919050565b828183375f83830152505050565b5f6119e56119e084611995565b61197b565b905082815260208101848484011115611a0157611a00611909565b5b611a0c8482856119c5565b509392505050565b5f82601f830112611a2857611a27611905565b5b8135611a388482602086016119d3565b91505092915050565b5f67ffffffffffffffff821115611a5b57611a5a61191d565b5b611a648261190d565b9050602081019050919050565b5f611a83611a7e84611a41565b61197b565b905082815260208101848484011115611a9f57611a9e611909565b5b611aaa8482856119c5565b509392505050565b5f82601f830112611ac657611ac5611905565b5b8135611ad6848260208601611a71565b91505092915050565b5f819050919050565b611af181611adf565b8114611afb575f80fd5b50565b5f81359050611b0c81611ae8565b92915050565b5f805f805f60a08688031215611b2b57611b2a6118fd565b5b5f86013567ffffffffffffffff811115611b4857611b47611901565b5b611b5488828901611a14565b955050602086013567ffffffffffffffff811115611b7557611b74611901565b5b611b8188828901611a14565b945050604086013567ffffffffffffffff811115611ba257611ba1611901565b5b611bae88828901611a14565b935050606086013567ffffffffffffffff811115611bcf57611bce611901565b5b611bdb88828901611ab2565b9250506080611bec88828901611afe565b9150509295509295909350565b5f7fffffffffffffffff00000000000000000000000000000000000000000000000082169050919050565b611c2d81611bf9565b8114611c37575f80fd5b50565b5f81359050611c4881611c24565b92915050565b5f805f8060808587031215611c6657611c656118fd565b5b5f85013567ffffffffffffffff811115611c8357611c82611901565b5b611c8f87828801611a14565b945050602085013567ffffffffffffffff811115611cb057611caf611901565b5b611cbc87828801611a14565b9350506040611ccd87828801611c3a565b9250506060611cde87828801611afe565b91505092959194509250565b5f805f8060808587031215611d0257611d016118fd565b5b5f85013567ffffffffffffffff811115611d1f57611d1e611901565b5b611d2b87828801611a14565b945050602085013567ffffffffffffffff811115611d4c57611d4b611901565b5b611d5887828801611a14565b935050604085013567ffffffffffffffff811115611d7957611d78611901565b5b611d8587828801611a14565b925050606085013567ffffffffffffffff811115611da657611da5611901565b5b611db287828801611ab2565b91505092959194509250565b611dc781611adf565b82525050565b5f602082019050611de05f830184611dbe565b92915050565b5f805f8060808587031215611dfe57611dfd6118fd565b5b5f85013567ffffffffffffffff811115611e1b57611e1a611901565b5b611e2787828801611a14565b945050602085013567ffffffffffffffff811115611e4857611e47611901565b5b611e5487828801611a14565b935050604085013567ffffffffffffffff811115611e7557611e74611901565b5b611e8187828801611a14565b9250506060611e9287828801611afe565b91505092959194509250565b5f805f60608486031215611eb557611eb46118fd565b5b5f84013567ffffffffffffffff811115611ed257611ed1611901565b5b611ede86828701611a14565b935050602084013567ffffffffffffffff811115611eff57611efe611901565b5b611f0b86828701611a14565b9250506040611f1c86828701611c3a565b9150509250925092565b5f819050919050565b611f3881611f26565b8114611f42575f80fd5b50565b5f81359050611f5381611f2f565b92915050565b5f805f8060808587031215611f7157611f706118fd565b5b5f85013567ffffffffffffffff811115611f8e57611f8d611901565b5b611f9a87828801611a14565b945050602085013567ffffffffffffffff811115611fbb57611fba611901565b5b611fc787828801611a14565b9350506040611fd887828801611f45565b9250506060611fe987828801611afe565b91505092959194509250565b5f805f6060848603121561200c5761200b6118fd565b5b5f84013567ffffffffffffffff81111561202957612028611901565b5b61203586828701611a14565b935050602084013567ffffffffffffffff81111561205657612055611901565b5b61206286828701611a14565b925050604084013567ffffffffffffffff81111561208357612082611901565b5b61208f86828701611a14565b9150509250925092565b5f805f80608085870312156120b1576120b06118fd565b5b5f85013567ffffffffffffffff8111156120ce576120cd611901565b5b6120da87828801611a14565b945050602085013567ffffffffffffffff8111156120fb576120fa611901565b5b61210787828801611a14565b935050604085013567ffffffffffffffff81111561212857612127611901565b5b61213487828801611a14565b925050606085013567ffffffffffffffff81111561215557612154611901565b5b61216187828801611a14565b91505092959194509250565b5f73ffffffffffffffffffffffffffffffffffffffff82169050919050565b5f6121968261216d565b9050919050565b6121a68161218c565b81146121b0575f80fd5b50565b5f813590506121c18161219d565b92915050565b5f805f606084860312156121de576121dd6118fd565b5b5f84013567ffffffffffffffff8111156121fb576121fa611901565b5b61220786828701611a14565b935050602084013567ffffffffffffffff81111561222857612227611901565b5b61223486828701611a14565b9250506040612245868287016121b3565b9150509250925092565b5f81519050919050565b5f82825260208201905092915050565b5f5b8381101561228657808201518184015260208101905061226b565b5f8484015250505050565b5f61229b8261224f565b6122a58185612259565b93506122b5818560208601612269565b6122be8161190d565b840191505092915050565b5f6020820190508181035f8301526122e18184612291565b905092915050565b6122f281611bf9565b82525050565b5f60208201905061230b5f8301846122e9565b92915050565b5f805f8060808587031215612329576123286118fd565b5b5f85013567ffffffffffffffff81111561234657612345611901565b5b61235287828801611a14565b945050602085013567ffffffffffffffff81111561237357612372611901565b5b61237f87828801611a14565b935050604085013567ffffffffffffffff8111156123a05761239f611901565b5b6123ac87828801611a14565b92505060606123bd87828801611c3a565b91505092959194509250565b5f805f80608085870312156123e1576123e06118fd565b5b5f85013567ffffffffffffffff8111156123fe576123fd611901565b5b61240a87828801611a14565b945050602085013567ffffffffffffffff81111561242b5761242a611901565b5b61243787828801611a14565b9350506040612448878288016121b3565b925050606061245987828801611afe565b91505092959194509250565b5f805f806080858703121561247d5761247c6118fd565b5b5f85013567ffffffffffffffff81111561249a57612499611901565b5b6124a687828801611a14565b945050602085013567ffffffffffffffff8111156124c7576124c6611901565b5b6124d387828801611a14565b93505060406124e487828801611c3a565b925050606085013567ffffffffffffffff81111561250557612504611901565b5b61251187828801611ab2565b91505092959194509250565b5f805f8060808587031215612535576125346118fd565b5b5f85013567ffffffffffffffff81111561255257612551611901565b5b61255e87828801611a14565b945050602085013567ffffffffffffffff81111561257f5761257e611901565b5b61258b87828801611a14565b935050604061259c87828801611f45565b92505060606125ad878288016121b3565b91505092959194509250565b5f805f805f60a086880312156125d2576125d16118fd565b5b5f86013567ffffffffffffffff8111156125ef576125ee611901565b5b6125fb88828901611a14565b955050602086013567ffffffffffffffff81111561261c5761261b611901565b5b61262888828901611a14565b945050604061263988828901611c3a565b935050606086013567ffffffffffffffff81111561265a57612659611901565b5b61266688828901611ab2565b925050608061267788828901611afe565b9150509295509295909350565b5f805f6060848603121561269b5761269a6118fd565b5b5f84013567ffffffffffffffff8111156126b8576126b7611901565b5b6126c486828701611a14565b935050602084013567ffffffffffffffff8111156126e5576126e4611901565b5b6126f186828701611a14565b925050604061270286828701611f45565b9150509250925092565b6127158161218c565b82525050565b5f60208201905061272e5f83018461270c565b92915050565b5f8115159050919050565b61274881612734565b8114612752575f80fd5b50565b5f815190506127638161273f565b92915050565b5f6020828403121561277e5761277d6118fd565b5b5f61278b84828501612755565b91505092915050565b7f53746f7261676520416363657373204e6f7420417574686f72697a65640000005f82015250565b5f6127c8601d83612259565b91506127d382612794565b602082019050919050565b5f6020820190508181035f8301526127f5816127bc565b9050919050565b5f81905092915050565b5f6128108261224f565b61281a81856127fc565b935061282a818560208601612269565b80840191505092915050565b5f81519050919050565b5f81905092915050565b5f61285482612836565b61285e8185612840565b935061286e818560208601612269565b80840191505092915050565b5f6128858287612806565b91506128918286612806565b915061289d8285612806565b91506128a9828461284a565b915081905095945050505050565b6128c081611f26565b82525050565b5f6040820190506128d95f8301856128b7565b6128e66020830184611dbe565b9392505050565b5f819050919050565b61290761290282611bf9565b6128ed565b82525050565b5f6129188286612806565b91506129248285612806565b915061293082846128f6565b600882019150819050949350505050565b5f6020820190506129545f8301846128b7565b92915050565b5f8151905061296881611ae8565b92915050565b5f60208284031215612983576129826118fd565b5b5f6129908482850161295a565b91505092915050565b5f6129a48286612806565b91506129b08285612806565b91506129bc8284612806565b9150819050949350505050565b5f819050919050565b6129e36129de82611f26565b6129c9565b82525050565b5f6129f48286612806565b9150612a008285612806565b9150612a0c82846129d2565b602082019150819050949350505050565b5f604082019050612a305f8301856128b7565b8181036020830152612a428184612291565b90509392505050565b5f8160601b9050919050565b5f612a6182612a4b565b9050919050565b5f612a7282612a57565b9050919050565b612a8a612a858261218c565b612a68565b82525050565b5f612a9b8286612806565b9150612aa78285612806565b9150612ab38284612a79565b601482019150819050949350505050565b5f612ad6612ad184611995565b61197b565b905082815260208101848484011115612af257612af1611909565b5b612afd848285612269565b509392505050565b5f82601f830112612b1957612b18611905565b5b8151612b29848260208601612ac4565b91505092915050565b5f60208284031215612b4757612b466118fd565b5b5f82015167ffffffffffffffff811115612b6457612b63611901565b5b612b7084828501612b05565b91505092915050565b5f81519050612b8781611c24565b92915050565b5f60208284031215612ba257612ba16118fd565b5b5f612baf84828501612b79565b91505092915050565b5f604082019050612bcb5f8301856128b7565b612bd860208301846122e9565b9392505050565b5f612bea8287612806565b9150612bf68286612806565b9150612c0282856128f6565b600882019150612c12828461284a565b915081905095945050505050565b5f604082019050612c335f8301856128b7565b612c40602083018461270c565b9392505050565b5f81519050612c558161219d565b92915050565b5f60208284031215612c7057612c6f6118fd565b5b5f612c7d84828501612c47565b9150509291505056fea2646970667358221220b353d1184c5f240345b10db8c3dd8b95c7b48494a598eb977948a9c2ba97f86064736f6c63430008140033",
  "immutableReferences": {},
  "source": "pragma solidity ^0.8.0;\n\nimport \"./QuireStorage.sol\";\n\n/** @title Map Helper Contract\n  * @notice This contract acts as a helper contract to interact with the Quire Storage contract\n  * on behalf of other smart contracts. \n  * A contract can store and retreive a mapping involving different data types by using the map name and key\n  */\ncontract MapStorage {\n\n    QuireStorage quireStorage;\n\n   constructor(address _quireStorage) {\n        quireStorage = QuireStorage(_quireStorage);\n    }\n    \n    modifier onlyNetworkContracts {\n      require(quireStorage.isContractAuthorized(msg.sender), \"Storage Access Not Authorized\");\n      _;\n    }\n\n    // ----------------------------- READS ----------------------------- //\n\n    function getAddressToUint(string memory _KEY, string memory _map, address _mapKey) public view\n    returns (uint) {\n        return quireStorage.getUint(keccak256(abi.encodePacked(_KEY, _map, _mapKey)));\n    }\n    function getStringToUint(string memory _KEY, string memory _map, string memory _mapKey) public view\n    returns (uint)  {\n        return quireStorage.getUint(keccak256(abi.encodePacked(_KEY, _map, _mapKey)));\n    }\n    function getStringToBytes8(string memory _KEY, string memory _map, string memory _mapKey) public view\n    returns (bytes8)  {\n        return quireStorage.getBytes8(keccak256(abi.encodePacked(_KEY, _map, _mapKey)));\n    }\n    function getStringToString(string memory _KEY, string memory _map, string memory _mapKey) public view\n    returns (string memory)  {\n        return quireStorage.getString(keccak256(abi.encodePacked(_KEY, _map, _mapKey)));\n    }\n    function getBytes8ToUint(string memory _KEY, string memory _map, bytes8 _mapKey) public view\n    returns (uint)  {\n        return quireStorage.getUint(keccak256(abi.encodePacked(_KEY, _map, _mapKey)));\n    }\n    function getBytes32ToUint(string memory _KEY, string memory _map, bytes32 _mapKey) public view\n    returns (uint)  {\n        return quireStorage.getUint(keccak256(abi.encodePacked(_KEY, _map, _mapKey)));\n    }\n    function getBytes32ToAddress(string memory _KEY, string memory _map, bytes32 _mapKey) public view\n    returns (address)  {\n        return quireStorage.getAddress(keccak256(abi.encodePacked(_KEY, _map, _mapKey)));\n    }\n\n    /** @notice returns map item complex property\n      * @dev if one of the properties of a map item is a complex data type (object, list or map), \n      * we pass a _propKey along with the _map, _mapKey.\n      * @param _map Name of the map\n      * @param _mapKey Key of the map\n      * @param _propKey For object, it is abi.encodePacked(_objPropName, _innerPropKey);\n      * For list, it is abi.encodePacked(_index, _innerPropKey)\n      * For map, it is abi.encodePacked(_mapKey, _innerPropKey)\n      * If another complex data type (obj, list, map) is stored inside, we pass its _innerPropKey which is the same as\n      * the propKey for the inner complex data type. We do this until we find the required uint \n      */\n    function getByKeyBytes8ToUint(string memory _KEY, string memory _map, bytes8 _mapKey, bytes memory _propKey) public view\n    returns (uint)  {\n        return quireStorage.getUint(keccak256(abi.encodePacked(_KEY, _map, _mapKey,_propKey)));\n    }\n\n\n    /** @notice returns map item complex property\n      * @dev if one of the properties of a map item is a complex data type (object, list or map), \n      * we pass a _propKey along with the _map, _mapKey.\n      * @param _map Name of the map\n      * @param _mapKey Key of the map\n      * @param _propKey For object, it is abi.encodePacked(_objPropName, _innerPropKey);\n      * For list, it is abi.encodePacked(_index, _innerPropKey)\n      * For map, it is abi.encodePacked(_mapKey, _innerPropKey)\n      * If another complex data type (obj, list, map) is stored inside, we pass its _innerPropKey which is the same as\n      * the propKey for the inner complex data type. We do this until we find the required uint \n      */\n    function getByKeyStringToUint(string memory _KEY, string memory _map, string memory _mapKey, bytes memory _propKey) public view\n    returns (uint)  {\n        return quireStorage.getUint(keccak256(abi.encodePacked(_KEY, _map, _mapKey,_propKey)));\n    }\n    \n    // ----------------------------- WRITES ----------------------------- //\n\n    function setAddressToUint(string memory _KEY, string memory _map, address _mapKey, uint _value) public \n    onlyNetworkContracts {\n        quireStorage.setUint(keccak256(abi.encodePacked(_KEY, _map, _mapKey)), _value);\n    }\n    function setStringToUint(string memory _KEY, string memory _map, string memory _mapKey, uint _value) public \n    onlyNetworkContracts {\n        quireStorage.setUint(keccak256(abi.encodePacked(_KEY, _map, _mapKey)), _value);\n    }\n    function setStringToBytes8(string memory _KEY, string memory _map, string memory _mapKey, bytes8 _value) public \n    onlyNetworkContracts {\n        quireStorage.setBytes8(keccak256(abi.encodePacked(_KEY, _map, _mapKey)), _value);\n    }\n    function setStringToString(string memory _KEY, string memory _map, string memory _mapKey, string memory _value) public \n    onlyNetworkContracts {\n        quireStorage.setString(keccak256(abi.encodePacked(_KEY, _map, _mapKey)), _value);\n    }\n    function setBytes8ToUint(string memory _KEY, string memory _map, bytes8 _mapKey, uint _value) public \n    onlyNetworkContracts {\n        quireStorage.setUint(keccak256(abi.encodePacked(_KEY, _map, _mapKey)), _value);\n    }\n    function setBytes32ToUint(string memory _KEY, string memory _map, bytes32 _mapKey, uint _value) public \n    onlyNetworkContracts {\n        quireStorage.setUint(keccak256(abi.encodePacked(_KEY, _map, _mapKey)), _value);\n    }\n    function setBytes32ToAddress(string memory _KEY, string memory _map, bytes32 _mapKey, address _value) public \n    onlyNetworkContracts {\n        quireStorage.setAddress(keccak256(abi.encodePacked(_KEY, _map, _mapKey)), _value);\n    }\n\n    /** @notice sets map item complex property\n      * @dev if one of the properties of a map item is a complex data type like list or map, \n      * we pass a _propKey along with the _map, _mapKey.\n      * @param _map Name of the map\n      * @param _mapKey Key of the map\n      * @param _propKey For object, it is abi.encodePacked(_innerObjPropName, _innerPropKey);\n      * For list, it is abi.encodePacked(_index, _innerPropKey)\n      * For map, it is abi.encodePacked(_mapKey, _innerPropKey)\n      * If another complex data type (obj, list, map) is stored inside, we pass its _innerPropKey which is the same as\n      * the propKey for the inner complex data type. We do this until we locate the final uint \n      * @param _value value to be stored\n      */\n    function setByKeyBytes8ToUint(string memory _KEY, string memory _map, bytes8 _mapKey, bytes memory _propKey, uint _value) public \n    onlyNetworkContracts {\n        quireStorage.setUint(keccak256(abi.encodePacked(_KEY, _map, _mapKey, _propKey)), _value);\n    }\n\n    /** @notice sets map item complex property\n      * @dev if one of the properties of a map item is a complex data type like list or map, \n      * we pass a _propKey along with the _map, _mapKey.\n      * @param _map Name of the map\n      * @param _mapKey Key of the map\n      * @param _propKey For object, it is abi.encodePacked(_innerObjPropName, _innerPropKey);\n      * For list, it is abi.encodePacked(_index, _innerPropKey)\n      * For map, it is abi.encodePacked(_mapKey, _innerPropKey)\n      * If another complex data type (obj, list, map) is stored inside, we pass its _innerPropKey which is the same as\n      * the propKey for the inner complex data type. We do this until we locate the final uint \n      * @param _value value to be stored\n      */\n    function setByKeyStringToUint(string memory _KEY, string memory _map, string memory _mapKey, bytes memory _propKey, uint _value) public \n    onlyNetworkContracts {\n        quireStorage.setUint(keccak256(abi.encodePacked(_KEY, _map, _mapKey, _propKey)), _value);\n    }\n\n}",
  "sourcePath": "/home/raghupathi/Desktop/javaClass/javaClass/contracts/MapStorage.sol",
  "compiler": {
    "name": "solc",
    "version": "0.8.20+commit.a1b79de6.Emscripten.clang"
  },
  "schemaVersion": "3.4.14",
  "updatedAt": "2023-06-02T09:43:22.625Z",
  "devdoc": {
    "kind": "dev",
    "methods": {
      "getByKeyBytes8ToUint(string,string,bytes8,bytes)": {
        "details": "if one of the properties of a map item is a complex data type (object, list or map),  we pass a _propKey along with the _map, _mapKey.",
        "params": {
          "_map": "Name of the map",
          "_mapKey": "Key of the map",
          "_propKey": "For object, it is abi.encodePacked(_objPropName, _innerPropKey); For list, it is abi.encodePacked(_index, _innerPropKey) For map, it is abi.encodePacked(_mapKey, _innerPropKey) If another complex data type (obj, list, map) is stored inside, we pass its _innerPropKey which is the same as the propKey for the inner complex data type. We do this until we find the required uint "
        }
      },
      "getByKeyStringToUint(string,string,string,bytes)": {
        "details": "if one of the properties of a map item is a complex data type (object, list or map),  we pass a _propKey along with the _map, _mapKey.",
        "params": {
          "_map": "Name of the map",
          "_mapKey": "Key of the map",
          "_propKey": "For object, it is abi.encodePacked(_objPropName, _innerPropKey); For list, it is abi.encodePacked(_index, _innerPropKey) For map, it is abi.encodePacked(_mapKey, _innerPropKey) If another complex data type (obj, list, map) is stored inside, we pass its _innerPropKey which is the same as the propKey for the inner complex data type. We do this until we find the required uint "
        }
      },
      "setByKeyBytes8ToUint(string,string,bytes8,bytes,uint256)": {
        "details": "if one of the properties of a map item is a complex data type like list or map,  we pass a _propKey along with the _map, _mapKey.",
        "params": {
          "_map": "Name of the map",
          "_mapKey": "Key of the map",
          "_propKey": "For object, it is abi.encodePacked(_innerObjPropName, _innerPropKey); For list, it is abi.encodePacked(_index, _innerPropKey) For map, it is abi.encodePacked(_mapKey, _innerPropKey) If another complex data type (obj, list, map) is stored inside, we pass its _innerPropKey which is the same as the propKey for the inner complex data type. We do this until we locate the final uint ",
          "_value": "value to be stored"
        }
      },
      "setByKeyStringToUint(string,string,string,bytes,uint256)": {
        "details": "if one of the properties of a map item is a complex data type like list or map,  we pass a _propKey along with the _map, _mapKey.",
        "params": {
          "_map": "Name of the map",
          "_mapKey": "Key of the map",
          "_propKey": "For object, it is abi.encodePacked(_innerObjPropName, _innerPropKey); For list, it is abi.encodePacked(_index, _innerPropKey) For map, it is abi.encodePacked(_mapKey, _innerPropKey) If another complex data type (obj, list, map) is stored inside, we pass its _innerPropKey which is the same as the propKey for the inner complex data type. We do this until we locate the final uint ",
          "_value": "value to be stored"
        }
      }
    },
    "title": "Map Helper Contract",
    "version": 1
  },
  "userdoc": {
    "kind": "user",
    "methods": {
      "getByKeyBytes8ToUint(string,string,bytes8,bytes)": {
        "notice": "returns map item complex property"
      },
      "getByKeyStringToUint(string,string,string,bytes)": {
        "notice": "returns map item complex property"
      },
      "setByKeyBytes8ToUint(string,string,bytes8,bytes,uint256)": {
        "notice": "sets map item complex property"
      },
      "setByKeyStringToUint(string,string,string,bytes,uint256)": {
        "notice": "sets map item complex property"
      }
    },
    "notice": "This contract acts as a helper contract to interact with the Quire Storage contract on behalf of other smart contracts.  A contract can store and retreive a mapping involving different data types by using the map name and key",
    "version": 1
  }
}