{
  "contractName": "MemberStorage",
  "abi": [
    {
      "inputs": [
        {
          "internalType": "address",
          "name": "_quireStorage",
          "type": "address"
        }
      ],
      "stateMutability": "nonpayable",
      "type": "constructor"
    },
    {
      "inputs": [
        {
          "internalType": "string",
          "name": "_KEY",
          "type": "string"
        },
        {
          "internalType": "string",
          "name": "_member",
          "type": "string"
        }
      ],
      "name": "getUint",
      "outputs": [
        {
          "internalType": "uint256",
          "name": "",
          "type": "uint256"
        }
      ],
      "stateMutability": "view",
      "type": "function"
    },
    {
      "inputs": [
        {
          "internalType": "string",
          "name": "_KEY",
          "type": "string"
        },
        {
          "internalType": "string",
          "name": "_member",
          "type": "string"
        }
      ],
      "name": "incUint",
      "outputs": [],
      "stateMutability": "nonpayable",
      "type": "function"
    },
    {
      "inputs": [
        {
          "internalType": "string",
          "name": "_KEY",
          "type": "string"
        },
        {
          "internalType": "string",
          "name": "_member",
          "type": "string"
        },
        {
          "internalType": "uint256",
          "name": "_value",
          "type": "uint256"
        }
      ],
      "name": "setUint",
      "outputs": [],
      "stateMutability": "nonpayable",
      "type": "function"
    },
    {
      "inputs": [
        {
          "internalType": "string",
          "name": "_KEY",
          "type": "string"
        },
        {
          "internalType": "string",
          "name": "_member",
          "type": "string"
        }
      ],
      "name": "getUint16",
      "outputs": [
        {
          "internalType": "uint16",
          "name": "",
          "type": "uint16"
        }
      ],
      "stateMutability": "view",
      "type": "function"
    },
    {
      "inputs": [
        {
          "internalType": "string",
          "name": "_KEY",
          "type": "string"
        },
        {
          "internalType": "string",
          "name": "_member",
          "type": "string"
        }
      ],
      "name": "incUint16",
      "outputs": [],
      "stateMutability": "nonpayable",
      "type": "function"
    },
    {
      "inputs": [
        {
          "internalType": "string",
          "name": "_KEY",
          "type": "string"
        },
        {
          "internalType": "string",
          "name": "_member",
          "type": "string"
        },
        {
          "internalType": "uint16",
          "name": "_value",
          "type": "uint16"
        }
      ],
      "name": "setUint16",
      "outputs": [],
      "stateMutability": "nonpayable",
      "type": "function"
    },
    {
      "inputs": [
        {
          "internalType": "string",
          "name": "_KEY",
          "type": "string"
        },
        {
          "internalType": "string",
          "name": "_member",
          "type": "string"
        }
      ],
      "name": "getString",
      "outputs": [
        {
          "internalType": "string",
          "name": "",
          "type": "string"
        }
      ],
      "stateMutability": "view",
      "type": "function"
    },
    {
      "inputs": [
        {
          "internalType": "string",
          "name": "_KEY",
          "type": "string"
        },
        {
          "internalType": "string",
          "name": "_member",
          "type": "string"
        },
        {
          "internalType": "string",
          "name": "_value",
          "type": "string"
        }
      ],
      "name": "setString",
      "outputs": [],
      "stateMutability": "nonpayable",
      "type": "function"
    }
  ],
  "bytecode": "0x608060405234801562000010575f80fd5b50604051620015ba380380620015ba8339818101604052810190620000369190620000e1565b805f806101000a81548173ffffffffffffffffffffffffffffffffffffffff021916908373ffffffffffffffffffffffffffffffffffffffff1602179055505062000111565b5f80fd5b5f73ffffffffffffffffffffffffffffffffffffffff82169050919050565b5f620000ab8262000080565b9050919050565b620000bd816200009f565b8114620000c8575f80fd5b50565b5f81519050620000db81620000b2565b92915050565b5f60208284031215620000f957620000f86200007c565b5b5f6200010884828501620000cb565b91505092915050565b61149b806200011f5f395ff3fe608060405234801561000f575f80fd5b5060043610610086575f3560e01c8063a1e1638211610059578063a1e1638214610136578063b4dd3d3314610152578063d12173971461016e578063e15d500d1461018a57610086565b80631b71ec351461008a5780633f7690ca146100ba57806356b44b2c146100ea5780635df6d3cc14610106575b5f80fd5b6100a4600480360381019061009f9190610cf5565b6101a6565b6040516100b19190610d87565b60405180910390f35b6100d460048036038101906100cf9190610cf5565b61026f565b6040516100e19190610e1a565b60405180910390f35b61010460048036038101906100ff9190610e6d565b61033b565b005b610120600480360381019061011b9190610cf5565b6103ef565b60405161012d9190610f04565b60405180910390f35b610150600480360381019061014b9190610cf5565b6104b8565b005b61016c60048036038101906101679190610f47565b61063b565b005b61018860048036038101906101839190610fcf565b6107c5565b005b6101a4600480360381019061019f9190610cf5565b61094f565b005b5f805f9054906101000a900473ffffffffffffffffffffffffffffffffffffffff1673ffffffffffffffffffffffffffffffffffffffff166365f4f49884846040516020016101f69291906110ad565b604051602081830303815290604052805190602001206040518263ffffffff1660e01b815260040161022891906110e8565b602060405180830381865afa158015610243573d5f803e3d5ffd5b505050506040513d601f19601f820116820180604052508101906102679190611115565b905092915050565b60605f8054906101000a900473ffffffffffffffffffffffffffffffffffffffff1673ffffffffffffffffffffffffffffffffffffffff1663986e791a84846040516020016102bf9291906110ad565b604051602081830303815290604052805190602001206040518263ffffffff1660e01b81526004016102f191906110e8565b5f60405180830381865afa15801561030b573d5f803e3d5ffd5b505050506040513d5f823e3d601f19601f8201168201806040525081019061033391906111ae565b905092915050565b5f8054906101000a900473ffffffffffffffffffffffffffffffffffffffff1673ffffffffffffffffffffffffffffffffffffffff1663e2a4853a84846040516020016103899291906110ad565b60405160208183030381529060405280519060200120836040518363ffffffff1660e01b81526004016103bd9291906111f5565b5f604051808303815f87803b1580156103d4575f80fd5b505af11580156103e6573d5f803e3d5ffd5b50505050505050565b5f805f9054906101000a900473ffffffffffffffffffffffffffffffffffffffff1673ffffffffffffffffffffffffffffffffffffffff1663bd02d0f5848460405160200161043f9291906110ad565b604051602081830303815290604052805190602001206040518263ffffffff1660e01b815260040161047191906110e8565b602060405180830381865afa15801561048c573d5f803e3d5ffd5b505050506040513d601f19601f820116820180604052508101906104b09190611230565b905092915050565b5f805f9054906101000a900473ffffffffffffffffffffffffffffffffffffffff1673ffffffffffffffffffffffffffffffffffffffff1663bd02d0f584846040516020016105089291906110ad565b604051602081830303815290604052805190602001206040518263ffffffff1660e01b815260040161053a91906110e8565b602060405180830381865afa158015610555573d5f803e3d5ffd5b505050506040513d601f19601f820116820180604052508101906105799190611230565b90505f8054906101000a900473ffffffffffffffffffffffffffffffffffffffff1673ffffffffffffffffffffffffffffffffffffffff1663e2a4853a84846040516020016105c99291906110ad565b604051602081830303815290604052805190602001206001846105ec9190611288565b6040518363ffffffff1660e01b81526004016106099291906111f5565b5f604051808303815f87803b158015610620575f80fd5b505af1158015610632573d5f803e3d5ffd5b50505050505050565b5f8054906101000a900473ffffffffffffffffffffffffffffffffffffffff1673ffffffffffffffffffffffffffffffffffffffff1663103aeda7336040518263ffffffff1660e01b815260040161069391906112fa565b602060405180830381865afa1580156106ae573d5f803e3d5ffd5b505050506040513d601f19601f820116820180604052508101906106d29190611348565b610711576040517f08c379a0000000000000000000000000000000000000000000000000000000008152600401610708906113bd565b60405180910390fd5b5f8054906101000a900473ffffffffffffffffffffffffffffffffffffffff1673ffffffffffffffffffffffffffffffffffffffff16631d77667b848460405160200161075f9291906110ad565b60405160208183030381529060405280519060200120836040518363ffffffff1660e01b81526004016107939291906113db565b5f604051808303815f87803b1580156107aa575f80fd5b505af11580156107bc573d5f803e3d5ffd5b50505050505050565b5f8054906101000a900473ffffffffffffffffffffffffffffffffffffffff1673ffffffffffffffffffffffffffffffffffffffff1663103aeda7336040518263ffffffff1660e01b815260040161081d91906112fa565b602060405180830381865afa158015610838573d5f803e3d5ffd5b505050506040513d601f19601f8201168201806040525081019061085c9190611348565b61089b576040517f08c379a0000000000000000000000000000000000000000000000000000000008152600401610892906113bd565b60405180910390fd5b5f8054906101000a900473ffffffffffffffffffffffffffffffffffffffff1673ffffffffffffffffffffffffffffffffffffffff16636e89955084846040516020016108e99291906110ad565b60405160208183030381529060405280519060200120836040518363ffffffff1660e01b815260040161091d929190611402565b5f604051808303815f87803b158015610934575f80fd5b505af1158015610946573d5f803e3d5ffd5b50505050505050565b5f8054906101000a900473ffffffffffffffffffffffffffffffffffffffff1673ffffffffffffffffffffffffffffffffffffffff1663103aeda7336040518263ffffffff1660e01b81526004016109a791906112fa565b602060405180830381865afa1580156109c2573d5f803e3d5ffd5b505050506040513d601f19601f820116820180604052508101906109e69190611348565b610a25576040517f08c379a0000000000000000000000000000000000000000000000000000000008152600401610a1c906113bd565b60405180910390fd5b5f805f9054906101000a900473ffffffffffffffffffffffffffffffffffffffff1673ffffffffffffffffffffffffffffffffffffffff166365f4f4988484604051602001610a759291906110ad565b604051602081830303815290604052805190602001206040518263ffffffff1660e01b8152600401610aa791906110e8565b602060405180830381865afa158015610ac2573d5f803e3d5ffd5b505050506040513d601f19601f82011682018060405250810190610ae69190611115565b90505f8054906101000a900473ffffffffffffffffffffffffffffffffffffffff1673ffffffffffffffffffffffffffffffffffffffff16631d77667b8484604051602001610b369291906110ad565b60405160208183030381529060405280519060200120600184610b599190611430565b6040518363ffffffff1660e01b8152600401610b769291906113db565b5f604051808303815f87803b158015610b8d575f80fd5b505af1158015610b9f573d5f803e3d5ffd5b50505050505050565b5f604051905090565b5f80fd5b5f80fd5b5f80fd5b5f80fd5b5f601f19601f8301169050919050565b7f4e487b71000000000000000000000000000000000000000000000000000000005f52604160045260245ffd5b610c0782610bc1565b810181811067ffffffffffffffff82111715610c2657610c25610bd1565b5b80604052505050565b5f610c38610ba8565b9050610c448282610bfe565b919050565b5f67ffffffffffffffff821115610c6357610c62610bd1565b5b610c6c82610bc1565b9050602081019050919050565b828183375f83830152505050565b5f610c99610c9484610c49565b610c2f565b905082815260208101848484011115610cb557610cb4610bbd565b5b610cc0848285610c79565b509392505050565b5f82601f830112610cdc57610cdb610bb9565b5b8135610cec848260208601610c87565b91505092915050565b5f8060408385031215610d0b57610d0a610bb1565b5b5f83013567ffffffffffffffff811115610d2857610d27610bb5565b5b610d3485828601610cc8565b925050602083013567ffffffffffffffff811115610d5557610d54610bb5565b5b610d6185828601610cc8565b9150509250929050565b5f61ffff82169050919050565b610d8181610d6b565b82525050565b5f602082019050610d9a5f830184610d78565b92915050565b5f81519050919050565b5f82825260208201905092915050565b5f5b83811015610dd7578082015181840152602081019050610dbc565b5f8484015250505050565b5f610dec82610da0565b610df68185610daa565b9350610e06818560208601610dba565b610e0f81610bc1565b840191505092915050565b5f6020820190508181035f830152610e328184610de2565b905092915050565b5f819050919050565b610e4c81610e3a565b8114610e56575f80fd5b50565b5f81359050610e6781610e43565b92915050565b5f805f60608486031215610e8457610e83610bb1565b5b5f84013567ffffffffffffffff811115610ea157610ea0610bb5565b5b610ead86828701610cc8565b935050602084013567ffffffffffffffff811115610ece57610ecd610bb5565b5b610eda86828701610cc8565b9250506040610eeb86828701610e59565b9150509250925092565b610efe81610e3a565b82525050565b5f602082019050610f175f830184610ef5565b92915050565b610f2681610d6b565b8114610f30575f80fd5b50565b5f81359050610f4181610f1d565b92915050565b5f805f60608486031215610f5e57610f5d610bb1565b5b5f84013567ffffffffffffffff811115610f7b57610f7a610bb5565b5b610f8786828701610cc8565b935050602084013567ffffffffffffffff811115610fa857610fa7610bb5565b5b610fb486828701610cc8565b9250506040610fc586828701610f33565b9150509250925092565b5f805f60608486031215610fe657610fe5610bb1565b5b5f84013567ffffffffffffffff81111561100357611002610bb5565b5b61100f86828701610cc8565b935050602084013567ffffffffffffffff8111156110305761102f610bb5565b5b61103c86828701610cc8565b925050604084013567ffffffffffffffff81111561105d5761105c610bb5565b5b61106986828701610cc8565b9150509250925092565b5f81905092915050565b5f61108782610da0565b6110918185611073565b93506110a1818560208601610dba565b80840191505092915050565b5f6110b8828561107d565b91506110c4828461107d565b91508190509392505050565b5f819050919050565b6110e2816110d0565b82525050565b5f6020820190506110fb5f8301846110d9565b92915050565b5f8151905061110f81610f1d565b92915050565b5f6020828403121561112a57611129610bb1565b5b5f61113784828501611101565b91505092915050565b5f61115261114d84610c49565b610c2f565b90508281526020810184848401111561116e5761116d610bbd565b5b611179848285610dba565b509392505050565b5f82601f83011261119557611194610bb9565b5b81516111a5848260208601611140565b91505092915050565b5f602082840312156111c3576111c2610bb1565b5b5f82015167ffffffffffffffff8111156111e0576111df610bb5565b5b6111ec84828501611181565b91505092915050565b5f6040820190506112085f8301856110d9565b6112156020830184610ef5565b9392505050565b5f8151905061122a81610e43565b92915050565b5f6020828403121561124557611244610bb1565b5b5f6112528482850161121c565b91505092915050565b7f4e487b71000000000000000000000000000000000000000000000000000000005f52601160045260245ffd5b5f61129282610e3a565b915061129d83610e3a565b92508282019050808211156112b5576112b461125b565b5b92915050565b5f73ffffffffffffffffffffffffffffffffffffffff82169050919050565b5f6112e4826112bb565b9050919050565b6112f4816112da565b82525050565b5f60208201905061130d5f8301846112eb565b92915050565b5f8115159050919050565b61132781611313565b8114611331575f80fd5b50565b5f815190506113428161131e565b92915050565b5f6020828403121561135d5761135c610bb1565b5b5f61136a84828501611334565b91505092915050565b7f53746f7261676520416363657373204e6f7420417574686f72697a65640000005f82015250565b5f6113a7601d83610daa565b91506113b282611373565b602082019050919050565b5f6020820190508181035f8301526113d48161139b565b9050919050565b5f6040820190506113ee5f8301856110d9565b6113fb6020830184610d78565b9392505050565b5f6040820190506114155f8301856110d9565b81810360208301526114278184610de2565b90509392505050565b5f61143a82610d6b565b915061144583610d6b565b9250828201905061ffff81111561145f5761145e61125b565b5b9291505056fea264697066735822122011626cdf769157abb8d2d71ca31050734acbaf4e76b65f46d0b4e0ce0b5ccf5064736f6c63430008140033",
  "immutableReferences": {},
  "source": "pragma solidity ^0.8.0;\n// pragma experimental ABIEncoderV2;\n\nimport \"./QuireStorage.sol\";\n\n/** @title Member Helper Contract\n  * @notice This contract acts as a helper contract to interact with the Quire Storage contract\n  * on behalf of other smart contracts. \n  * A contract can store and retreive its member variables of basic data types (excluding list, mapping, structs) by using the name of the variable\n  */\ncontract MemberStorage {\n\n    QuireStorage quireStorage;\n\n    constructor(address _quireStorage) {\n        quireStorage = QuireStorage(_quireStorage);\n    }\n\n    modifier onlyNetworkContracts {\n      require(quireStorage.isContractAuthorized(msg.sender), \"Storage Access Not Authorized\");\n      _;\n    }\n\n    // ----------------------------- uint ----------------------------- //\n    function getUint(string memory _KEY, string memory _member) public view\n    returns(uint) {\n        return quireStorage.getUint(keccak256(abi.encodePacked(_KEY, _member)));\n    }\n    function incUint(string memory _KEY, string memory _member) public {\n        uint value = quireStorage.getUint(keccak256(abi.encodePacked(_KEY, _member)));\n        quireStorage.setUint(keccak256(abi.encodePacked(_KEY, _member)), value+1);\n    }\n    function setUint(string memory _KEY, string memory _member, uint _value) public {\n        quireStorage.setUint(keccak256(abi.encodePacked(_KEY, _member)), _value);\n    }\n\n    // ----------------------------- uint16 ----------------------------- //\n    function getUint16(string memory _KEY, string memory _member) public view\n    returns(uint16) {\n        return quireStorage.getUint16(keccak256(abi.encodePacked(_KEY, _member)));\n    }\n    function incUint16(string memory _KEY, string memory _member) public \n    onlyNetworkContracts {\n        uint16 value = quireStorage.getUint16(keccak256(abi.encodePacked(_KEY, _member)));\n        quireStorage.setUint16(keccak256(abi.encodePacked(_KEY, _member)), value+1);\n    }\n    function setUint16(string memory _KEY, string memory _member, uint16 _value) public \n    onlyNetworkContracts {\n        quireStorage.setUint16(keccak256(abi.encodePacked(_KEY, _member)), _value);\n    }\n    \n    // ----------------------------- string ----------------------------- //\n    function getString(string memory _KEY, string memory _member) public view\n    returns(string memory) {\n        return quireStorage.getString(keccak256(abi.encodePacked(_KEY, _member)));\n    }\n    function setString(string memory _KEY, string memory _member, string memory _value) public \n    onlyNetworkContracts {\n        quireStorage.setString(keccak256(abi.encodePacked(_KEY, _member)), _value);\n    }\n\n}",
  "sourcePath": "/home/raghupathi/Desktop/javaClass/javaClass/contracts/MemberStorage.sol",
  "compiler": {
    "name": "solc",
    "version": "0.8.20+commit.a1b79de6.Emscripten.clang"
  },
  "schemaVersion": "3.4.14",
  "updatedAt": "2023-06-02T09:43:22.629Z",
  "devdoc": {
    "kind": "dev",
    "methods": {},
    "title": "Member Helper Contract",
    "version": 1
  },
  "userdoc": {
    "kind": "user",
    "methods": {},
    "notice": "This contract acts as a helper contract to interact with the Quire Storage contract on behalf of other smart contracts.  A contract can store and retreive its member variables of basic data types (excluding list, mapping, structs) by using the name of the variable",
    "version": 1
  }
}