{
  "contractName": "PaymentAdviceModel",
  "abi": [
    {
      "inputs": [
        {
          "internalType": "address",
          "name": "_Member",
          "type": "address"
        },
        {
          "internalType": "address",
          "name": "_List",
          "type": "address"
        },
        {
          "internalType": "address",
          "name": "_Map",
          "type": "address"
        },
        {
          "internalType": "address",
          "name": "_quireContracts",
          "type": "address"
        }
      ],
      "stateMutability": "nonpayable",
      "type": "constructor"
    },
    {
      "inputs": [
        {
          "internalType": "bytes8",
          "name": "_uid",
          "type": "bytes8"
        }
      ],
      "name": "getPaymentAdviceIndex",
      "outputs": [
        {
          "internalType": "uint256",
          "name": "",
          "type": "uint256"
        }
      ],
      "stateMutability": "view",
      "type": "function"
    },
    {
      "inputs": [
        {
          "internalType": "bytes8",
          "name": "_uid",
          "type": "bytes8"
        }
      ],
      "name": "getPaymentAdviceIndexListLengthByPaymentAdviceAndEgpId",
      "outputs": [
        {
          "internalType": "uint256",
          "name": "",
          "type": "uint256"
        }
      ],
      "stateMutability": "view",
      "type": "function"
    },
    {
      "inputs": [
        {
          "internalType": "bytes8",
          "name": "_uid",
          "type": "bytes8"
        },
        {
          "internalType": "uint256",
          "name": "_toExcluded",
          "type": "uint256"
        },
        {
          "internalType": "uint256",
          "name": "_count",
          "type": "uint256"
        }
      ],
      "name": "getPaymentAdviceIndexListByPaymentAdviceAndEgpId",
      "outputs": [
        {
          "internalType": "uint256[]",
          "name": "indexList_",
          "type": "uint256[]"
        },
        {
          "internalType": "uint256",
          "name": "fromIncluded_",
          "type": "uint256"
        },
        {
          "internalType": "uint256",
          "name": "length_",
          "type": "uint256"
        }
      ],
      "stateMutability": "view",
      "type": "function"
    },
    {
      "inputs": [
        {
          "internalType": "string",
          "name": "_uid",
          "type": "string"
        },
        {
          "internalType": "uint256",
          "name": "_toExcluded",
          "type": "uint256"
        },
        {
          "internalType": "uint256",
          "name": "_count",
          "type": "uint256"
        }
      ],
      "name": "getPaymentAdviceIndexListByVendorGid",
      "outputs": [
        {
          "internalType": "uint256[]",
          "name": "indexList_",
          "type": "uint256[]"
        },
        {
          "internalType": "uint256",
          "name": "fromIncluded_",
          "type": "uint256"
        },
        {
          "internalType": "uint256",
          "name": "length_",
          "type": "uint256"
        }
      ],
      "stateMutability": "view",
      "type": "function"
    },
    {
      "inputs": [
        {
          "internalType": "string",
          "name": "_uid",
          "type": "string"
        },
        {
          "internalType": "uint256",
          "name": "_toExcluded",
          "type": "uint256"
        },
        {
          "internalType": "uint256",
          "name": "_count",
          "type": "uint256"
        }
      ],
      "name": "getPaymentAdviceIndexListByEgpId",
      "outputs": [
        {
          "internalType": "uint256[]",
          "name": "indexList_",
          "type": "uint256[]"
        },
        {
          "internalType": "uint256",
          "name": "fromIncluded_",
          "type": "uint256"
        },
        {
          "internalType": "uint256",
          "name": "length_",
          "type": "uint256"
        }
      ],
      "stateMutability": "view",
      "type": "function"
    },
    {
      "inputs": [
        {
          "internalType": "string",
          "name": "_gid",
          "type": "string"
        },
        {
          "internalType": "uint256",
          "name": "_toExcluded",
          "type": "uint256"
        },
        {
          "internalType": "uint256",
          "name": "_count",
          "type": "uint256"
        }
      ],
      "name": "getPaymentAdviceIndexListByProcuringEntityGid",
      "outputs": [
        {
          "internalType": "uint256[]",
          "name": "indexList_",
          "type": "uint256[]"
        },
        {
          "internalType": "uint256",
          "name": "fromIncluded_",
          "type": "uint256"
        },
        {
          "internalType": "uint256",
          "name": "length_",
          "type": "uint256"
        }
      ],
      "stateMutability": "view",
      "type": "function"
    },
    {
      "inputs": [],
      "name": "getPaymentAdviceListLength",
      "outputs": [
        {
          "internalType": "uint256",
          "name": "",
          "type": "uint256"
        }
      ],
      "stateMutability": "view",
      "type": "function"
    },
    {
      "inputs": [
        {
          "internalType": "uint256",
          "name": "_index",
          "type": "uint256"
        }
      ],
      "name": "getPaymentAdviceByIndex",
      "outputs": [
        {
          "components": [
            {
              "internalType": "bytes8",
              "name": "uid",
              "type": "bytes8"
            },
            {
              "internalType": "string",
              "name": "egpSystemId",
              "type": "string"
            },
            {
              "internalType": "enum PaymentAdviceStructs.PaymentType",
              "name": "paymentType",
              "type": "uint8"
            },
            {
              "internalType": "string",
              "name": "paymentAdviceReferenceNumber",
              "type": "string"
            },
            {
              "internalType": "uint256",
              "name": "validityPeriodDays",
              "type": "uint256"
            },
            {
              "internalType": "uint256",
              "name": "bankGuaranteeClaimExpiryDate",
              "type": "uint256"
            },
            {
              "internalType": "string",
              "name": "currency",
              "type": "string"
            },
            {
              "internalType": "uint256",
              "name": "bankGuaranteeAmount",
              "type": "uint256"
            },
            {
              "internalType": "string",
              "name": "vendorGid",
              "type": "string"
            },
            {
              "internalType": "string",
              "name": "vendorName",
              "type": "string"
            },
            {
              "internalType": "string",
              "name": "procuringEntityGid",
              "type": "string"
            },
            {
              "internalType": "string",
              "name": "procuringEntityName",
              "type": "string"
            },
            {
              "internalType": "uint256",
              "name": "amendment",
              "type": "uint256"
            },
            {
              "internalType": "enum PaymentAdviceStructs.FormStatus",
              "name": "formStatus",
              "type": "uint8"
            },
            {
              "internalType": "uint16",
              "name": "version",
              "type": "uint16"
            }
          ],
          "internalType": "struct PaymentAdviceStructs.PaymentAdvice",
          "name": "paymentAdvice_",
          "type": "tuple"
        }
      ],
      "stateMutability": "view",
      "type": "function"
    },
    {
      "inputs": [
        {
          "internalType": "uint256",
          "name": "_toExcluded",
          "type": "uint256"
        },
        {
          "internalType": "uint256",
          "name": "_count",
          "type": "uint256"
        }
      ],
      "name": "getAllPaymentAdvice",
      "outputs": [
        {
          "components": [
            {
              "internalType": "bytes8",
              "name": "uid",
              "type": "bytes8"
            },
            {
              "internalType": "string",
              "name": "egpSystemId",
              "type": "string"
            },
            {
              "internalType": "enum PaymentAdviceStructs.PaymentType",
              "name": "paymentType",
              "type": "uint8"
            },
            {
              "internalType": "string",
              "name": "paymentAdviceReferenceNumber",
              "type": "string"
            },
            {
              "internalType": "uint256",
              "name": "validityPeriodDays",
              "type": "uint256"
            },
            {
              "internalType": "uint256",
              "name": "bankGuaranteeClaimExpiryDate",
              "type": "uint256"
            },
            {
              "internalType": "string",
              "name": "currency",
              "type": "string"
            },
            {
              "internalType": "uint256",
              "name": "bankGuaranteeAmount",
              "type": "uint256"
            },
            {
              "internalType": "string",
              "name": "vendorGid",
              "type": "string"
            },
            {
              "internalType": "string",
              "name": "vendorName",
              "type": "string"
            },
            {
              "internalType": "string",
              "name": "procuringEntityGid",
              "type": "string"
            },
            {
              "internalType": "string",
              "name": "procuringEntityName",
              "type": "string"
            },
            {
              "internalType": "uint256",
              "name": "amendment",
              "type": "uint256"
            },
            {
              "internalType": "enum PaymentAdviceStructs.FormStatus",
              "name": "formStatus",
              "type": "uint8"
            },
            {
              "internalType": "uint16",
              "name": "version",
              "type": "uint16"
            }
          ],
          "internalType": "struct PaymentAdviceStructs.PaymentAdvice[]",
          "name": "_paymentAdvice",
          "type": "tuple[]"
        },
        {
          "internalType": "uint256",
          "name": "fromIncluded_",
          "type": "uint256"
        },
        {
          "internalType": "uint256",
          "name": "length_",
          "type": "uint256"
        }
      ],
      "stateMutability": "view",
      "type": "function"
    },
    {
      "inputs": [
        {
          "internalType": "uint256",
          "name": "_index",
          "type": "uint256"
        }
      ],
      "name": "getPaymentAdviceUid",
      "outputs": [
        {
          "internalType": "bytes8",
          "name": "",
          "type": "bytes8"
        }
      ],
      "stateMutability": "view",
      "type": "function"
    },
    {
      "inputs": [
        {
          "internalType": "uint256",
          "name": "_index",
          "type": "uint256"
        }
      ],
      "name": "getPaymentAdviceEgpSystemId",
      "outputs": [
        {
          "internalType": "string",
          "name": "",
          "type": "string"
        }
      ],
      "stateMutability": "view",
      "type": "function"
    },
    {
      "inputs": [
        {
          "internalType": "uint256",
          "name": "_index",
          "type": "uint256"
        }
      ],
      "name": "getPaymentAdvicePaymentType",
      "outputs": [
        {
          "internalType": "enum PaymentAdviceStructs.PaymentType",
          "name": "",
          "type": "uint8"
        }
      ],
      "stateMutability": "view",
      "type": "function"
    },
    {
      "inputs": [
        {
          "internalType": "uint256",
          "name": "_index",
          "type": "uint256"
        }
      ],
      "name": "getPaymentAdvicePaymentAdviceReferenceNumber",
      "outputs": [
        {
          "internalType": "string",
          "name": "",
          "type": "string"
        }
      ],
      "stateMutability": "view",
      "type": "function"
    },
    {
      "inputs": [
        {
          "internalType": "uint256",
          "name": "_index",
          "type": "uint256"
        }
      ],
      "name": "getPaymentAdviceValidityPeriodDays",
      "outputs": [
        {
          "internalType": "uint256",
          "name": "",
          "type": "uint256"
        }
      ],
      "stateMutability": "view",
      "type": "function"
    },
    {
      "inputs": [
        {
          "internalType": "uint256",
          "name": "_index",
          "type": "uint256"
        }
      ],
      "name": "getPaymentAdviceBankGuaranteeClaimExpiryDate",
      "outputs": [
        {
          "internalType": "uint256",
          "name": "",
          "type": "uint256"
        }
      ],
      "stateMutability": "view",
      "type": "function"
    },
    {
      "inputs": [
        {
          "internalType": "uint256",
          "name": "_index",
          "type": "uint256"
        }
      ],
      "name": "getPaymentAdviceBankGuaranteeCurrency",
      "outputs": [
        {
          "internalType": "string",
          "name": "",
          "type": "string"
        }
      ],
      "stateMutability": "view",
      "type": "function"
    },
    {
      "inputs": [
        {
          "internalType": "uint256",
          "name": "_index",
          "type": "uint256"
        }
      ],
      "name": "getPaymentAdviceBankGuaranteeAmount",
      "outputs": [
        {
          "internalType": "uint256",
          "name": "",
          "type": "uint256"
        }
      ],
      "stateMutability": "view",
      "type": "function"
    },
    {
      "inputs": [
        {
          "internalType": "uint256",
          "name": "_index",
          "type": "uint256"
        }
      ],
      "name": "getPaymentAdviceVendorGid",
      "outputs": [
        {
          "internalType": "string",
          "name": "",
          "type": "string"
        }
      ],
      "stateMutability": "view",
      "type": "function"
    },
    {
      "inputs": [
        {
          "internalType": "uint256",
          "name": "_index",
          "type": "uint256"
        }
      ],
      "name": "getPaymentAdviceVendorName",
      "outputs": [
        {
          "internalType": "string",
          "name": "",
          "type": "string"
        }
      ],
      "stateMutability": "view",
      "type": "function"
    },
    {
      "inputs": [
        {
          "internalType": "uint256",
          "name": "_index",
          "type": "uint256"
        }
      ],
      "name": "getPaymentAdviceProcuringEntityGid",
      "outputs": [
        {
          "internalType": "string",
          "name": "",
          "type": "string"
        }
      ],
      "stateMutability": "view",
      "type": "function"
    },
    {
      "inputs": [
        {
          "internalType": "uint256",
          "name": "_index",
          "type": "uint256"
        }
      ],
      "name": "getPaymentAdviceProcuringEntityName",
      "outputs": [
        {
          "internalType": "string",
          "name": "",
          "type": "string"
        }
      ],
      "stateMutability": "view",
      "type": "function"
    },
    {
      "inputs": [
        {
          "internalType": "uint256",
          "name": "_index",
          "type": "uint256"
        }
      ],
      "name": "getPaymentAdviceAmendment",
      "outputs": [
        {
          "internalType": "uint256",
          "name": "",
          "type": "uint256"
        }
      ],
      "stateMutability": "view",
      "type": "function"
    },
    {
      "inputs": [
        {
          "internalType": "uint256",
          "name": "_index",
          "type": "uint256"
        }
      ],
      "name": "getPaymentAdviceFormStatus",
      "outputs": [
        {
          "internalType": "enum PaymentAdviceStructs.FormStatus",
          "name": "",
          "type": "uint8"
        }
      ],
      "stateMutability": "view",
      "type": "function"
    },
    {
      "inputs": [
        {
          "internalType": "uint256",
          "name": "_index",
          "type": "uint256"
        }
      ],
      "name": "getPaymentAdviceVersion",
      "outputs": [
        {
          "internalType": "uint16",
          "name": "",
          "type": "uint16"
        }
      ],
      "stateMutability": "view",
      "type": "function"
    },
    {
      "inputs": [
        {
          "internalType": "string",
          "name": "_paymentAdviceReferenceNumber",
          "type": "string"
        }
      ],
      "name": "getMapPaymentAdviceReferenceNumber",
      "outputs": [
        {
          "internalType": "uint256",
          "name": "",
          "type": "uint256"
        }
      ],
      "stateMutability": "view",
      "type": "function"
    },
    {
      "inputs": [
        {
          "internalType": "string",
          "name": "_paymentAdviceReferenceNumber",
          "type": "string"
        }
      ],
      "name": "getMapPaymentAdviceReferenceNumberToEgpId",
      "outputs": [
        {
          "internalType": "string",
          "name": "",
          "type": "string"
        }
      ],
      "stateMutability": "view",
      "type": "function"
    },
    {
      "inputs": [
        {
          "internalType": "string",
          "name": "_paymentAdviceReferenceNumber",
          "type": "string"
        },
        {
          "internalType": "string",
          "name": "_egpSystemId",
          "type": "string"
        }
      ],
      "name": "getPreviousIndex",
      "outputs": [
        {
          "internalType": "uint256",
          "name": "",
          "type": "uint256"
        }
      ],
      "stateMutability": "view",
      "type": "function"
    },
    {
      "inputs": [
        {
          "internalType": "bytes8",
          "name": "_uid",
          "type": "bytes8"
        },
        {
          "internalType": "uint256",
          "name": "_value",
          "type": "uint256"
        }
      ],
      "name": "setPaymentAdviceIndex",
      "outputs": [],
      "stateMutability": "nonpayable",
      "type": "function"
    },
    {
      "inputs": [
        {
          "internalType": "uint256",
          "name": "_index",
          "type": "uint256"
        }
      ],
      "name": "updatePreviousPAtoOutdated",
      "outputs": [],
      "stateMutability": "nonpayable",
      "type": "function"
    },
    {
      "inputs": [
        {
          "internalType": "bytes8",
          "name": "_uid",
          "type": "bytes8"
        },
        {
          "internalType": "uint256",
          "name": "_value",
          "type": "uint256"
        }
      ],
      "name": "addPaymentAdviceIndexListByPaymentAdviceAndEgpId",
      "outputs": [],
      "stateMutability": "nonpayable",
      "type": "function"
    },
    {
      "inputs": [
        {
          "internalType": "string",
          "name": "_vendorGid",
          "type": "string"
        },
        {
          "internalType": "uint256",
          "name": "_value",
          "type": "uint256"
        }
      ],
      "name": "addPaymentAdviceIndexListByVendorGid",
      "outputs": [],
      "stateMutability": "nonpayable",
      "type": "function"
    },
    {
      "inputs": [
        {
          "internalType": "string",
          "name": "_egpId",
          "type": "string"
        },
        {
          "internalType": "uint256",
          "name": "_value",
          "type": "uint256"
        }
      ],
      "name": "addPaymentAdviceIndexListByEgpId",
      "outputs": [],
      "stateMutability": "nonpayable",
      "type": "function"
    },
    {
      "inputs": [
        {
          "internalType": "string",
          "name": "_gid",
          "type": "string"
        },
        {
          "internalType": "uint256",
          "name": "_value",
          "type": "uint256"
        }
      ],
      "name": "addPaymentAdviceIndexListByProcuringEntityGid",
      "outputs": [],
      "stateMutability": "nonpayable",
      "type": "function"
    },
    {
      "inputs": [],
      "name": "incPaymentAdviceListLength",
      "outputs": [],
      "stateMutability": "nonpayable",
      "type": "function"
    },
    {
      "inputs": [
        {
          "internalType": "uint256",
          "name": "_index",
          "type": "uint256"
        },
        {
          "components": [
            {
              "internalType": "bytes8",
              "name": "uid",
              "type": "bytes8"
            },
            {
              "internalType": "string",
              "name": "egpSystemId",
              "type": "string"
            },
            {
              "internalType": "enum PaymentAdviceStructs.PaymentType",
              "name": "paymentType",
              "type": "uint8"
            },
            {
              "internalType": "string",
              "name": "paymentAdviceReferenceNumber",
              "type": "string"
            },
            {
              "internalType": "uint256",
              "name": "validityPeriodDays",
              "type": "uint256"
            },
            {
              "internalType": "uint256",
              "name": "bankGuaranteeClaimExpiryDate",
              "type": "uint256"
            },
            {
              "internalType": "string",
              "name": "currency",
              "type": "string"
            },
            {
              "internalType": "uint256",
              "name": "bankGuaranteeAmount",
              "type": "uint256"
            },
            {
              "internalType": "string",
              "name": "vendorGid",
              "type": "string"
            },
            {
              "internalType": "string",
              "name": "vendorName",
              "type": "string"
            },
            {
              "internalType": "string",
              "name": "procuringEntityGid",
              "type": "string"
            },
            {
              "internalType": "string",
              "name": "procuringEntityName",
              "type": "string"
            },
            {
              "internalType": "uint256",
              "name": "amendment",
              "type": "uint256"
            },
            {
              "internalType": "enum PaymentAdviceStructs.FormStatus",
              "name": "formStatus",
              "type": "uint8"
            },
            {
              "internalType": "uint16",
              "name": "version",
              "type": "uint16"
            }
          ],
          "internalType": "struct PaymentAdviceStructs.PaymentAdvice",
          "name": "_paymentAdvice",
          "type": "tuple"
        }
      ],
      "name": "addPaymentAdvice",
      "outputs": [],
      "stateMutability": "nonpayable",
      "type": "function"
    },
    {
      "inputs": [
        {
          "components": [
            {
              "internalType": "bytes8",
              "name": "uid",
              "type": "bytes8"
            },
            {
              "internalType": "string",
              "name": "egpSystemId",
              "type": "string"
            },
            {
              "internalType": "enum PaymentAdviceStructs.PaymentType",
              "name": "paymentType",
              "type": "uint8"
            },
            {
              "internalType": "string",
              "name": "paymentAdviceReferenceNumber",
              "type": "string"
            },
            {
              "internalType": "uint256",
              "name": "validityPeriodDays",
              "type": "uint256"
            },
            {
              "internalType": "uint256",
              "name": "bankGuaranteeClaimExpiryDate",
              "type": "uint256"
            },
            {
              "internalType": "string",
              "name": "currency",
              "type": "string"
            },
            {
              "internalType": "uint256",
              "name": "bankGuaranteeAmount",
              "type": "uint256"
            },
            {
              "internalType": "string",
              "name": "vendorGid",
              "type": "string"
            },
            {
              "internalType": "string",
              "name": "vendorName",
              "type": "string"
            },
            {
              "internalType": "string",
              "name": "procuringEntityGid",
              "type": "string"
            },
            {
              "internalType": "string",
              "name": "procuringEntityName",
              "type": "string"
            },
            {
              "internalType": "uint256",
              "name": "amendment",
              "type": "uint256"
            },
            {
              "internalType": "enum PaymentAdviceStructs.FormStatus",
              "name": "formStatus",
              "type": "uint8"
            },
            {
              "internalType": "uint16",
              "name": "version",
              "type": "uint16"
            }
          ],
          "internalType": "struct PaymentAdviceStructs.PaymentAdvice",
          "name": "_paymentAdvice",
          "type": "tuple"
        }
      ],
      "name": "generatePaymentAdvice",
      "outputs": [
        {
          "components": [
            {
              "internalType": "bytes8",
              "name": "uid",
              "type": "bytes8"
            },
            {
              "internalType": "string",
              "name": "egpSystemId",
              "type": "string"
            },
            {
              "internalType": "enum PaymentAdviceStructs.PaymentType",
              "name": "paymentType",
              "type": "uint8"
            },
            {
              "internalType": "string",
              "name": "paymentAdviceReferenceNumber",
              "type": "string"
            },
            {
              "internalType": "uint256",
              "name": "validityPeriodDays",
              "type": "uint256"
            },
            {
              "internalType": "uint256",
              "name": "bankGuaranteeClaimExpiryDate",
              "type": "uint256"
            },
            {
              "internalType": "string",
              "name": "currency",
              "type": "string"
            },
            {
              "internalType": "uint256",
              "name": "bankGuaranteeAmount",
              "type": "uint256"
            },
            {
              "internalType": "string",
              "name": "vendorGid",
              "type": "string"
            },
            {
              "internalType": "string",
              "name": "vendorName",
              "type": "string"
            },
            {
              "internalType": "string",
              "name": "procuringEntityGid",
              "type": "string"
            },
            {
              "internalType": "string",
              "name": "procuringEntityName",
              "type": "string"
            },
            {
              "internalType": "uint256",
              "name": "amendment",
              "type": "uint256"
            },
            {
              "internalType": "enum PaymentAdviceStructs.FormStatus",
              "name": "formStatus",
              "type": "uint8"
            },
            {
              "internalType": "uint16",
              "name": "version",
              "type": "uint16"
            }
          ],
          "internalType": "struct PaymentAdviceStructs.PaymentAdvice",
          "name": "",
          "type": "tuple"
        },
        {
          "internalType": "uint256",
          "name": "",
          "type": "uint256"
        }
      ],
      "stateMutability": "view",
      "type": "function"
    },
    {
      "inputs": [
        {
          "internalType": "uint256",
          "name": "_index",
          "type": "uint256"
        },
        {
          "internalType": "bytes8",
          "name": "_uid",
          "type": "bytes8"
        }
      ],
      "name": "setPaymentAdviceUid",
      "outputs": [],
      "stateMutability": "nonpayable",
      "type": "function"
    },
    {
      "inputs": [
        {
          "internalType": "uint256",
          "name": "_index",
          "type": "uint256"
        },
        {
          "internalType": "string",
          "name": "_egpSystemId",
          "type": "string"
        }
      ],
      "name": "setPaymentAdviceEgpSystemId",
      "outputs": [],
      "stateMutability": "nonpayable",
      "type": "function"
    },
    {
      "inputs": [
        {
          "internalType": "uint256",
          "name": "_index",
          "type": "uint256"
        },
        {
          "internalType": "enum PaymentAdviceStructs.PaymentType",
          "name": "_paymentType",
          "type": "uint8"
        }
      ],
      "name": "setPaymentAdvicePaymentType",
      "outputs": [],
      "stateMutability": "nonpayable",
      "type": "function"
    },
    {
      "inputs": [
        {
          "internalType": "uint256",
          "name": "_index",
          "type": "uint256"
        },
        {
          "internalType": "string",
          "name": "_paymentAdviceReferenceNumber",
          "type": "string"
        }
      ],
      "name": "setPaymentAdvicePaymentAdviceReferenceNumber",
      "outputs": [],
      "stateMutability": "nonpayable",
      "type": "function"
    },
    {
      "inputs": [
        {
          "internalType": "uint256",
          "name": "_index",
          "type": "uint256"
        },
        {
          "internalType": "uint256",
          "name": "_validityPeriodDays",
          "type": "uint256"
        }
      ],
      "name": "setPaymentAdviceValidityPeriodDays",
      "outputs": [],
      "stateMutability": "nonpayable",
      "type": "function"
    },
    {
      "inputs": [
        {
          "internalType": "uint256",
          "name": "_index",
          "type": "uint256"
        },
        {
          "internalType": "uint256",
          "name": "_bankGuaranteeClaimExpiryDate",
          "type": "uint256"
        }
      ],
      "name": "setPaymentAdviceBankGuaranteeClaimExpiryDate",
      "outputs": [],
      "stateMutability": "nonpayable",
      "type": "function"
    },
    {
      "inputs": [
        {
          "internalType": "uint256",
          "name": "_index",
          "type": "uint256"
        },
        {
          "internalType": "string",
          "name": "_currency",
          "type": "string"
        }
      ],
      "name": "setPaymentAdviceBankGuaranteeCurrency",
      "outputs": [],
      "stateMutability": "nonpayable",
      "type": "function"
    },
    {
      "inputs": [
        {
          "internalType": "uint256",
          "name": "_index",
          "type": "uint256"
        },
        {
          "internalType": "uint256",
          "name": "_bankGuaranteeAmount",
          "type": "uint256"
        }
      ],
      "name": "setPaymentAdviceBankGuaranteeAmount",
      "outputs": [],
      "stateMutability": "nonpayable",
      "type": "function"
    },
    {
      "inputs": [
        {
          "internalType": "uint256",
          "name": "_index",
          "type": "uint256"
        },
        {
          "internalType": "string",
          "name": "_vendorGid",
          "type": "string"
        }
      ],
      "name": "setPaymentAdviceVendorGid",
      "outputs": [],
      "stateMutability": "nonpayable",
      "type": "function"
    },
    {
      "inputs": [
        {
          "internalType": "uint256",
          "name": "_index",
          "type": "uint256"
        },
        {
          "internalType": "string",
          "name": "_vendorName",
          "type": "string"
        }
      ],
      "name": "setPaymentAdviceVendorName",
      "outputs": [],
      "stateMutability": "nonpayable",
      "type": "function"
    },
    {
      "inputs": [
        {
          "internalType": "uint256",
          "name": "_index",
          "type": "uint256"
        },
        {
          "internalType": "string",
          "name": "_procuringEntityGid",
          "type": "string"
        }
      ],
      "name": "setPaymentAdviceProcuringEntityGid",
      "outputs": [],
      "stateMutability": "nonpayable",
      "type": "function"
    },
    {
      "inputs": [
        {
          "internalType": "uint256",
          "name": "_index",
          "type": "uint256"
        },
        {
          "internalType": "string",
          "name": "_procuringEntityName",
          "type": "string"
        }
      ],
      "name": "setPaymentAdviceProcuringEntityName",
      "outputs": [],
      "stateMutability": "nonpayable",
      "type": "function"
    },
    {
      "inputs": [
        {
          "internalType": "uint256",
          "name": "_index",
          "type": "uint256"
        },
        {
          "internalType": "uint256",
          "name": "_amendment",
          "type": "uint256"
        }
      ],
      "name": "setPaymentAdviceAmendment",
      "outputs": [],
      "stateMutability": "nonpayable",
      "type": "function"
    },
    {
      "inputs": [
        {
          "internalType": "uint256",
          "name": "_index",
          "type": "uint256"
        },
        {
          "internalType": "enum PaymentAdviceStructs.FormStatus",
          "name": "_formStatus",
          "type": "uint8"
        }
      ],
      "name": "setPaymentAdviceFormStatus",
      "outputs": [],
      "stateMutability": "nonpayable",
      "type": "function"
    },
    {
      "inputs": [
        {
          "internalType": "uint256",
          "name": "_index",
          "type": "uint256"
        }
      ],
      "name": "setPaymentAdviceVersion",
      "outputs": [],
      "stateMutability": "nonpayable",
      "type": "function"
    },
    {
      "inputs": [
        {
          "internalType": "string",
          "name": "_paymentAdviceReferenceNumber",
          "type": "string"
        },
        {
          "internalType": "string",
          "name": "_egpSystemId",
          "type": "string"
        }
      ],
      "name": "addMapPaymentAdviceReferenceNumber",
      "outputs": [],
      "stateMutability": "nonpayable",
      "type": "function"
    }
  ],
  "bytecode": "0x608060405234801562000010575f80fd5b506040516200b2133803806200b2138339818101604052810190620000369190620001a4565b835f806101000a81548173ffffffffffffffffffffffffffffffffffffffff021916908373ffffffffffffffffffffffffffffffffffffffff1602179055508260015f6101000a81548173ffffffffffffffffffffffffffffffffffffffff021916908373ffffffffffffffffffffffffffffffffffffffff1602179055508160025f6101000a81548173ffffffffffffffffffffffffffffffffffffffff021916908373ffffffffffffffffffffffffffffffffffffffff1602179055508060035f6101000a81548173ffffffffffffffffffffffffffffffffffffffff021916908373ffffffffffffffffffffffffffffffffffffffff1602179055505050505062000213565b5f80fd5b5f73ffffffffffffffffffffffffffffffffffffffff82169050919050565b5f6200016e8262000143565b9050919050565b620001808162000162565b81146200018b575f80fd5b50565b5f815190506200019e8162000175565b92915050565b5f805f8060808587031215620001bf57620001be6200013f565b5b5f620001ce878288016200018e565b9450506020620001e1878288016200018e565b9350506040620001f4878288016200018e565b925050606062000207878288016200018e565b91505092959194509250565b61aff280620002215f395ff3fe608060405234801561000f575f80fd5b506004361061030a575f3560e01c806377a8760a1161019b578063c3a1d1b9116100e7578063e663d7ff116100a0578063f4e202521161007a578063f4e2025214610a39578063f710421c14610a55578063fb0e0a0914610a87578063fd111f2314610aa55761030a565b8063e663d7ff146109e5578063e9e323c614610a01578063f3e5519a14610a1d5761030a565b8063c3a1d1b914610915578063caca8ff014610945578063d8ecd90214610961578063de4442851461097d578063decc557514610999578063e04f3cd1146109b55761030a565b8063a0f50aaa11610154578063a5b207c21161012e578063a5b207c21461088f578063a63729d9146108ab578063aff9050b146108dd578063c1bc00ff146108f95761030a565b8063a0f50aaa14610813578063a2f3d76814610843578063a3764ee71461085f5761030a565b806377a8760a1461072f57806384ede0e51461075f5780638c1208251461078f5780638cda1e05146107bf5780638f1ee95a146107db5780639f515f43146107f75761030a565b8063405021cf1161025a578063595031361161021357806364459386116101ed5780636445938614610683578063652b8d14146106b35780636fcaede8146106e357806376a4a411146107135761030a565b806359503136146106195780635f7e6b1a1461064957806360fda77c146106535761030a565b8063405021cf1461051f57806349047b0a1461053b57806353a5fcc91461056b57806354c914bd1461059d57806355bce7de146105cd578063592adb7e146105fd5761030a565b8063166a6ed7116102c757806323aa8386116102a157806323aa8386146104715780632c62813d146104a157806337333508146104d157806339f855e9146105035761030a565b8063166a6ed7146104085780631a289024146104395780631a73a984146104555761030a565b8063013b217f1461030e57806303fd03511461033e5780630482936a1461035a578063089bbd3d1461038c5780630de34c10146103bc5780630f9f4421146103ec575b5f80fd5b610328600480360381019061032391906193bf565b610ad5565b6040516103359190619474565b60405180910390f35b610358600480360381019061035391906198bf565b610d6c565b005b610374600480360381019061036f9190619919565b6110c6565b60405161038393929190619a2f565b60405180910390f35b6103a660048036038101906103a191906193bf565b6113f3565b6040516103b39190619474565b60405180910390f35b6103d660048036038101906103d191906193bf565b61168a565b6040516103e39190619a6b565b60405180910390f35b61040660048036038101906104019190619a84565b61191d565b005b610422600480360381019061041d9190619ade565b611b8a565b604051610430929190619dae565b60405180910390f35b610453600480360381019061044e9190619ddc565b611de4565b005b61046f600480360381019061046a9190619e52565b6120f5565b005b61048b600480360381019061048691906193bf565b61232b565b6040516104989190619474565b60405180910390f35b6104bb60048036038101906104b69190619ddc565b6125c2565b6040516104c89190619a6b565b60405180910390f35b6104eb60048036038101906104e69190619e90565b612858565b6040516104fa93929190619a2f565b60405180910390f35b61051d60048036038101906105189190619efc565b612b85565b005b61053960048036038101906105349190619f3a565b612e04565b005b610555600480360381019061055091906193bf565b613071565b6040516105629190619a6b565b60405180910390f35b61058560048036038101906105809190619f3a565b613304565b6040516105949392919061a19d565b60405180910390f35b6105b760048036038101906105b2919061a1d9565b6133ff565b6040516105c49190619a6b565b60405180910390f35b6105e760048036038101906105e291906193bf565b613547565b6040516105f49190619a6b565b60405180910390f35b61061760048036038101906106129190619a84565b6137da565b005b610633600480360381019061062e91906193bf565b613a47565b604051610640919061a213565b60405180910390f35b610651613cef565b005b61066d600480360381019061066891906193bf565b613f1f565b60405161067a919061a22c565b60405180910390f35b61069d600480360381019061069891906193bf565b614214565b6040516106aa9190619474565b60405180910390f35b6106cd60048036038101906106c891906193bf565b6144ab565b6040516106da919061a25b565b60405180910390f35b6106fd60048036038101906106f891906193bf565b614753565b60405161070a919061a283565b60405180910390f35b61072d600480360381019061072891906193bf565b6149e6565b005b6107496004803603810190610744919061a1d9565b614db1565b6040516107569190619a6b565b60405180910390f35b6107796004803603810190610774919061a29c565b614ec0565b6040516107869190619474565b60405180910390f35b6107a960048036038101906107a491906193bf565b614fb6565b6040516107b69190619474565b60405180910390f35b6107d960048036038101906107d4919061a2e3565b61524d565b005b6107f560048036038101906107f09190619a84565b6154cc565b005b610811600480360381019061080c9190619f3a565b615739565b005b61082d600480360381019061082891906193bf565b6159b2565b60405161083a9190619474565b60405180910390f35b61085d6004803603810190610858919061a321565b615c49565b005b6108796004803603810190610874919061a29c565b616103565b6040516108869190619a6b565b60405180910390f35b6108a960048036038101906108a491906193bf565b616212565b005b6108c560048036038101906108c09190619e90565b61647f565b6040516108d493929190619a2f565b60405180910390f35b6108f760048036038101906108f29190619a84565b6167ac565b005b610913600480360381019061090e919061a321565b616a19565b005b61092f600480360381019061092a91906193bf565b616ed3565b60405161093c919061a38a565b60405180910390f35b61095f600480360381019061095a9190619a84565b617166565b005b61097b60048036038101906109769190619f3a565b6173d3565b005b6109976004803603810190610992919061a3a3565b617640565b005b6109b360048036038101906109ae9190619a84565b6178ad565b005b6109cf60048036038101906109ca91906193bf565b617b1a565b6040516109dc9190619a6b565b60405180910390f35b6109ff60048036038101906109fa919061a321565b617dad565b005b610a1b6004803603810190610a169190619e52565b618267565b005b610a376004803603810190610a329190619f3a565b618721565b005b610a536004803603810190610a4e9190619a84565b61898e565b005b610a6f6004803603810190610a6a9190619e90565b618bfb565b604051610a7e93929190619a2f565b60405180910390f35b610a8f618f28565b604051610a9c9190619a6b565b60405180910390f35b610abf6004803603810190610aba91906193bf565b619033565b604051610acc9190619474565b60405180910390f35b6060815f60015f9054906101000a900473ffffffffffffffffffffffffffffffffffffffff1673ffffffffffffffffffffffffffffffffffffffff16633bea27536040518060400160405280601681526020017f5041594d454e545f4144564943455f4d414e41474552000000000000000000008152506040518060400160405280601781526020017f6c6973745f5f7061796d656e744164766963654c6973740000000000000000008152506040518363ffffffff1660e01b8152600401610b9f92919061a3e1565b602060405180830381865afa158015610bba573d5f803e3d5ffd5b505050506040513d601f19601f82011682018060405250810190610bde919061a42a565b9050808210610c22576040517f08c379a0000000000000000000000000000000000000000000000000000000008152600401610c199061a49f565b60405180910390fd5b60015f9054906101000a900473ffffffffffffffffffffffffffffffffffffffff1673ffffffffffffffffffffffffffffffffffffffff16632136448c6040518060400160405280601681526020017f5041594d454e545f4144564943455f4d414e41474552000000000000000000008152506040518060400160405280601781526020017f6c6973745f5f7061796d656e744164766963654c697374000000000000000000815250876040518060400160405280601281526020017f70726f637572696e67456e7469747947696400000000000000000000000000008152506040518563ffffffff1660e01b8152600401610d21949392919061a4bd565b5f60405180830381865afa158015610d3b573d5f803e3d5ffd5b505050506040513d5f823e3d601f19601f82011682018060405250810190610d63919061a583565b92505050919050565b60035f9054906101000a900473ffffffffffffffffffffffffffffffffffffffff1673ffffffffffffffffffffffffffffffffffffffff1663ef02a3fc6040518060400160405280601681526020017f5041594d454e545f4144564943455f4d414e41474552000000000000000000008152506040518263ffffffff1660e01b8152600401610dfb9190619474565b602060405180830381865afa158015610e16573d5f803e3d5ffd5b505050506040513d601f19601f82011682018060405250810190610e3a919061a624565b73ffffffffffffffffffffffffffffffffffffffff163373ffffffffffffffffffffffffffffffffffffffff1614610ea7576040517f08c379a0000000000000000000000000000000000000000000000000000000008152600401610e9e9061a699565b60405180910390fd5b815f60015f9054906101000a900473ffffffffffffffffffffffffffffffffffffffff1673ffffffffffffffffffffffffffffffffffffffff16633bea27536040518060400160405280601681526020017f5041594d454e545f4144564943455f4d414e41474552000000000000000000008152506040518060400160405280601781526020017f6c6973745f5f7061796d656e744164766963654c6973740000000000000000008152506040518363ffffffff1660e01b8152600401610f6f92919061a3e1565b602060405180830381865afa158015610f8a573d5f803e3d5ffd5b505050506040513d601f19601f82011682018060405250810190610fae919061a42a565b9050808210610ff2576040517f08c379a0000000000000000000000000000000000000000000000000000000008152600401610fe99061a49f565b60405180910390fd5b610fff84845f0151617640565b61100d8484602001516178ad565b61101b84846040015161524d565b61102984846060015161898e565b611037848460800151615739565b611045848460a001516173d3565b611053848460c001516154cc565b611061848460e00151612e04565b61107084846101000151617166565b61107f848461012001516137da565b61108e848461014001516167ac565b61109d8484610160015161191d565b6110ac84846101800151618721565b6110b7846001612b85565b6110c084616212565b50505050565b60605f805f60025f9054906101000a900473ffffffffffffffffffffffffffffffffffffffff1673ffffffffffffffffffffffffffffffffffffffff1663bfa9f3eb6040518060400160405280601681526020017f5041594d454e545f4144564943455f4d414e414745520000000000000000000081525060405180606001604052806032815260200161af69603291398a6040518060400160405280600881526020017f5f5f6c656e67746800000000000000000000000000000000000000000000000081525060405160200161119e919061a6f1565b6040516020818303038152906040526040518563ffffffff1660e01b81526004016111cc949392919061a759565b602060405180830381865afa1580156111e7573d5f803e3d5ffd5b505050506040513d601f19601f8201168201806040525081019061120b919061a42a565b905080861115611219578095505b5f8686116112275785611229565b865b90508067ffffffffffffffff81111561124557611244619498565b5b6040519080825280602002602001820160405280156112735781602001602082028036833780820191505090505b5094505b5f8111156113e257808061128a9061a7de565b91505086806112989061a7de565b97505060025f9054906101000a900473ffffffffffffffffffffffffffffffffffffffff1673ffffffffffffffffffffffffffffffffffffffff1663bfa9f3eb6040518060400160405280601681526020017f5041594d454e545f4144564943455f4d414e414745520000000000000000000081525060405180606001604052806032815260200161af69603291398b8b604051602001611339919061a825565b6040516020818303038152906040526040518563ffffffff1660e01b8152600401611367949392919061a759565b602060405180830381865afa158015611382573d5f803e3d5ffd5b505050506040513d601f19601f820116820180604052508101906113a6919061a42a565b8560018388516113b6919061a83f565b6113c0919061a83f565b815181106113d1576113d061a872565b5b602002602001018181525050611277565b869350819250505093509350939050565b6060815f60015f9054906101000a900473ffffffffffffffffffffffffffffffffffffffff1673ffffffffffffffffffffffffffffffffffffffff16633bea27536040518060400160405280601681526020017f5041594d454e545f4144564943455f4d414e41474552000000000000000000008152506040518060400160405280601781526020017f6c6973745f5f7061796d656e744164766963654c6973740000000000000000008152506040518363ffffffff1660e01b81526004016114bd92919061a3e1565b602060405180830381865afa1580156114d8573d5f803e3d5ffd5b505050506040513d601f19601f820116820180604052508101906114fc919061a42a565b9050808210611540576040517f08c379a00000000000000000000000000000000000000000000000000000000081526004016115379061a49f565b60405180910390fd5b60015f9054906101000a900473ffffffffffffffffffffffffffffffffffffffff1673ffffffffffffffffffffffffffffffffffffffff16632136448c6040518060400160405280601681526020017f5041594d454e545f4144564943455f4d414e41474552000000000000000000008152506040518060400160405280601781526020017f6c6973745f5f7061796d656e744164766963654c697374000000000000000000815250876040518060400160405280600981526020017f76656e646f7247696400000000000000000000000000000000000000000000008152506040518563ffffffff1660e01b815260040161163f949392919061a4bd565b5f60405180830381865afa158015611659573d5f803e3d5ffd5b505050506040513d5f823e3d601f19601f82011682018060405250810190611681919061a583565b92505050919050565b5f815f60015f9054906101000a900473ffffffffffffffffffffffffffffffffffffffff1673ffffffffffffffffffffffffffffffffffffffff16633bea27536040518060400160405280601681526020017f5041594d454e545f4144564943455f4d414e41474552000000000000000000008152506040518060400160405280601781526020017f6c6973745f5f7061796d656e744164766963654c6973740000000000000000008152506040518363ffffffff1660e01b815260040161175392919061a3e1565b602060405180830381865afa15801561176e573d5f803e3d5ffd5b505050506040513d601f19601f82011682018060405250810190611792919061a42a565b90508082106117d6576040517f08c379a00000000000000000000000000000000000000000000000000000000081526004016117cd9061a49f565b60405180910390fd5b60015f9054906101000a900473ffffffffffffffffffffffffffffffffffffffff1673ffffffffffffffffffffffffffffffffffffffff1663b83032bd6040518060400160405280601681526020017f5041594d454e545f4144564943455f4d414e41474552000000000000000000008152506040518060400160405280601781526020017f6c6973745f5f7061796d656e744164766963654c697374000000000000000000815250876040518060400160405280601281526020017f76616c6964697479506572696f644461797300000000000000000000000000008152506040518563ffffffff1660e01b81526004016118d5949392919061a4bd565b602060405180830381865afa1580156118f0573d5f803e3d5ffd5b505050506040513d601f19601f82011682018060405250810190611914919061a42a565b92505050919050565b60035f9054906101000a900473ffffffffffffffffffffffffffffffffffffffff1673ffffffffffffffffffffffffffffffffffffffff1663ef02a3fc6040518060400160405280601681526020017f5041594d454e545f4144564943455f4d414e41474552000000000000000000008152506040518263ffffffff1660e01b81526004016119ac9190619474565b602060405180830381865afa1580156119c7573d5f803e3d5ffd5b505050506040513d601f19601f820116820180604052508101906119eb919061a624565b73ffffffffffffffffffffffffffffffffffffffff163373ffffffffffffffffffffffffffffffffffffffff1614611a58576040517f08c379a0000000000000000000000000000000000000000000000000000000008152600401611a4f9061a699565b60405180910390fd5b60015f9054906101000a900473ffffffffffffffffffffffffffffffffffffffff1673ffffffffffffffffffffffffffffffffffffffff1663c8f1cd876040518060400160405280601681526020017f5041594d454e545f4144564943455f4d414e41474552000000000000000000008152506040518060400160405280601781526020017f6c6973745f5f7061796d656e744164766963654c697374000000000000000000815250856040518060400160405280601381526020017f70726f637572696e67456e746974794e616d6500000000000000000000000000815250866040518663ffffffff1660e01b8152600401611b5995949392919061a89f565b5f604051808303815f87803b158015611b70575f80fd5b505af1158015611b82573d5f803e3d5ffd5b505050505050565b611b926192ca565b5f60035f9054906101000a900473ffffffffffffffffffffffffffffffffffffffff1673ffffffffffffffffffffffffffffffffffffffff1663ef02a3fc6040518060400160405280601681526020017f5041594d454e545f4144564943455f4d414e41474552000000000000000000008152506040518263ffffffff1660e01b8152600401611c229190619474565b602060405180830381865afa158015611c3d573d5f803e3d5ffd5b505050506040513d601f19601f82011682018060405250810190611c61919061a624565b73ffffffffffffffffffffffffffffffffffffffff163373ffffffffffffffffffffffffffffffffffffffff1614611cce576040517f08c379a0000000000000000000000000000000000000000000000000000000008152600401611cc59061a699565b60405180910390fd5b5f611ce1846060015185602001516125c2565b9050611cec816144ab565b84604001906001811115611d0357611d02619b7c565b5b90816001811115611d1757611d16619b7c565b5b81525050611d24816113f3565b846101000181905250611d3681614fb6565b846101200181905250611d4881610ad5565b846101400181905250611d5a816159b2565b846101600181905250611d9c84606001518560200151604051602001611d8192919061a90c565b604051602081830303815290604052805190602001206133ff565b846101800181815250506001846101a001906001811115611dc057611dbf619b7c565b5b90816001811115611dd457611dd3619b7c565b5b8152505083819250925050915091565b60035f9054906101000a900473ffffffffffffffffffffffffffffffffffffffff1673ffffffffffffffffffffffffffffffffffffffff1663ef02a3fc6040518060400160405280601681526020017f5041594d454e545f4144564943455f4d414e41474552000000000000000000008152506040518263ffffffff1660e01b8152600401611e739190619474565b602060405180830381865afa158015611e8e573d5f803e3d5ffd5b505050506040513d601f19601f82011682018060405250810190611eb2919061a624565b73ffffffffffffffffffffffffffffffffffffffff163373ffffffffffffffffffffffffffffffffffffffff1614611f1f576040517f08c379a0000000000000000000000000000000000000000000000000000000008152600401611f169061a699565b60405180910390fd5b60025f9054906101000a900473ffffffffffffffffffffffffffffffffffffffff1673ffffffffffffffffffffffffffffffffffffffff1663368428d96040518060400160405280601681526020017f5041594d454e545f4144564943455f4d414e41474552000000000000000000008152506040518060400160405280601b81526020017f6d61705f5f7061796d656e744164766963655265664e756d62657200000000008152508560016040518563ffffffff1660e01b8152600401611fea949392919061a971565b5f604051808303815f87803b158015612001575f80fd5b505af1158015612013573d5f803e3d5ffd5b5050505060025f9054906101000a900473ffffffffffffffffffffffffffffffffffffffff1673ffffffffffffffffffffffffffffffffffffffff16635e0ae01e6040518060400160405280601681526020017f5041594d454e545f4144564943455f4d414e414745520000000000000000000081525060405180606001604052806022815260200161af9b6022913985856040518563ffffffff1660e01b81526004016120c4949392919061a9c9565b5f604051808303815f87803b1580156120db575f80fd5b505af11580156120ed573d5f803e3d5ffd5b505050505050565b60035f9054906101000a900473ffffffffffffffffffffffffffffffffffffffff1673ffffffffffffffffffffffffffffffffffffffff1663ef02a3fc6040518060400160405280601681526020017f5041594d454e545f4144564943455f4d414e41474552000000000000000000008152506040518263ffffffff1660e01b81526004016121849190619474565b602060405180830381865afa15801561219f573d5f803e3d5ffd5b505050506040513d601f19601f820116820180604052508101906121c3919061a624565b73ffffffffffffffffffffffffffffffffffffffff163373ffffffffffffffffffffffffffffffffffffffff1614612230576040517f08c379a00000000000000000000000000000000000000000000000000000000081526004016122279061a699565b60405180910390fd5b60025f9054906101000a900473ffffffffffffffffffffffffffffffffffffffff1673ffffffffffffffffffffffffffffffffffffffff1663177d63616040518060400160405280601681526020017f5041594d454e545f4144564943455f4d414e41474552000000000000000000008152506040518060400160405280601781526020017f6d61705f5f7061796d656e74416476696365496e64657800000000000000000081525085856040518563ffffffff1660e01b81526004016122fa949392919061aa28565b5f604051808303815f87803b158015612311575f80fd5b505af1158015612323573d5f803e3d5ffd5b505050505050565b6060815f60015f9054906101000a900473ffffffffffffffffffffffffffffffffffffffff1673ffffffffffffffffffffffffffffffffffffffff16633bea27536040518060400160405280601681526020017f5041594d454e545f4144564943455f4d414e41474552000000000000000000008152506040518060400160405280601781526020017f6c6973745f5f7061796d656e744164766963654c6973740000000000000000008152506040518363ffffffff1660e01b81526004016123f592919061a3e1565b602060405180830381865afa158015612410573d5f803e3d5ffd5b505050506040513d601f19601f82011682018060405250810190612434919061a42a565b9050808210612478576040517f08c379a000000000000000000000000000000000000000000000000000000000815260040161246f9061a49f565b60405180910390fd5b60015f9054906101000a900473ffffffffffffffffffffffffffffffffffffffff1673ffffffffffffffffffffffffffffffffffffffff16632136448c6040518060400160405280601681526020017f5041594d454e545f4144564943455f4d414e41474552000000000000000000008152506040518060400160405280601781526020017f6c6973745f5f7061796d656e744164766963654c697374000000000000000000815250876040518060400160405280600881526020017f63757272656e63790000000000000000000000000000000000000000000000008152506040518563ffffffff1660e01b8152600401612577949392919061a4bd565b5f60405180830381865afa158015612591573d5f803e3d5ffd5b505050506040513d5f823e3d601f19601f820116820180604052508101906125b9919061a583565b92505050919050565b5f8083836040516020016125d792919061a90c565b6040516020818303038152906040528051906020012090505f60025f9054906101000a900473ffffffffffffffffffffffffffffffffffffffff1673ffffffffffffffffffffffffffffffffffffffff1663bfa9f3eb6040518060400160405280601681526020017f5041594d454e545f4144564943455f4d414e414745520000000000000000000081525060405180606001604052806032815260200161af6960329139856040518060400160405280600881526020017f5f5f6c656e6774680000000000000000000000000000000000000000000000008152506040516020016126c3919061a6f1565b6040516020818303038152906040526040518563ffffffff1660e01b81526004016126f1949392919061a759565b602060405180830381865afa15801561270c573d5f803e3d5ffd5b505050506040513d601f19601f82011682018060405250810190612730919061a42a565b90505f60025f9054906101000a900473ffffffffffffffffffffffffffffffffffffffff1673ffffffffffffffffffffffffffffffffffffffff1663bfa9f3eb6040518060400160405280601681526020017f5041594d454e545f4144564943455f4d414e414745520000000000000000000081525060405180606001604052806032815260200161af6960329139866001876127cd919061a83f565b6040516020016127dd919061a825565b6040516020818303038152906040526040518563ffffffff1660e01b815260040161280b949392919061a759565b602060405180830381865afa158015612826573d5f803e3d5ffd5b505050506040513d601f19601f8201168201806040525081019061284a919061a42a565b905080935050505092915050565b60605f805f60025f9054906101000a900473ffffffffffffffffffffffffffffffffffffffff1673ffffffffffffffffffffffffffffffffffffffff16632f79e1026040518060400160405280601681526020017f5041594d454e545f4144564943455f4d414e414745520000000000000000000081525060405180606001604052806022815260200161aef2602291398a6040518060400160405280600881526020017f5f5f6c656e677468000000000000000000000000000000000000000000000000815250604051602001612930919061a6f1565b6040516020818303038152906040526040518563ffffffff1660e01b815260040161295e949392919061aa79565b602060405180830381865afa158015612979573d5f803e3d5ffd5b505050506040513d601f19601f8201168201806040525081019061299d919061a42a565b9050808611156129ab578095505b5f8686116129b957856129bb565b865b90508067ffffffffffffffff8111156129d7576129d6619498565b5b604051908082528060200260200182016040528015612a055781602001602082028036833780820191505090505b5094505b5f811115612b74578080612a1c9061a7de565b9150508680612a2a9061a7de565b97505060025f9054906101000a900473ffffffffffffffffffffffffffffffffffffffff1673ffffffffffffffffffffffffffffffffffffffff16632f79e1026040518060400160405280601681526020017f5041594d454e545f4144564943455f4d414e414745520000000000000000000081525060405180606001604052806022815260200161aef2602291398b8b604051602001612acb919061a825565b6040516020818303038152906040526040518563ffffffff1660e01b8152600401612af9949392919061aa79565b602060405180830381865afa158015612b14573d5f803e3d5ffd5b505050506040513d601f19601f82011682018060405250810190612b38919061a42a565b856001838851612b48919061a83f565b612b52919061a83f565b81518110612b6357612b6261a872565b5b602002602001018181525050612a09565b869350819250505093509350939050565b60035f9054906101000a900473ffffffffffffffffffffffffffffffffffffffff1673ffffffffffffffffffffffffffffffffffffffff1663ef02a3fc6040518060400160405280601681526020017f5041594d454e545f4144564943455f4d414e41474552000000000000000000008152506040518263ffffffff1660e01b8152600401612c149190619474565b602060405180830381865afa158015612c2f573d5f803e3d5ffd5b505050506040513d601f19601f82011682018060405250810190612c53919061a624565b73ffffffffffffffffffffffffffffffffffffffff163373ffffffffffffffffffffffffffffffffffffffff1614612cc0576040517f08c379a0000000000000000000000000000000000000000000000000000000008152600401612cb79061a699565b60405180910390fd5b60015f9054906101000a900473ffffffffffffffffffffffffffffffffffffffff1673ffffffffffffffffffffffffffffffffffffffff1663ab2e960d6040518060400160405280601681526020017f5041594d454e545f4144564943455f4d414e41474552000000000000000000008152506040518060400160405280601781526020017f6c6973745f5f7061796d656e744164766963654c697374000000000000000000815250856040518060400160405280600a81526020017f666f726d53746174757300000000000000000000000000000000000000000000815250866001811115612db357612db2619b7c565b5b6040518663ffffffff1660e01b8152600401612dd395949392919061aaf3565b5f604051808303815f87803b158015612dea575f80fd5b505af1158015612dfc573d5f803e3d5ffd5b505050505050565b60035f9054906101000a900473ffffffffffffffffffffffffffffffffffffffff1673ffffffffffffffffffffffffffffffffffffffff1663ef02a3fc6040518060400160405280601681526020017f5041594d454e545f4144564943455f4d414e41474552000000000000000000008152506040518263ffffffff1660e01b8152600401612e939190619474565b602060405180830381865afa158015612eae573d5f803e3d5ffd5b505050506040513d601f19601f82011682018060405250810190612ed2919061a624565b73ffffffffffffffffffffffffffffffffffffffff163373ffffffffffffffffffffffffffffffffffffffff1614612f3f576040517f08c379a0000000000000000000000000000000000000000000000000000000008152600401612f369061a699565b60405180910390fd5b60015f9054906101000a900473ffffffffffffffffffffffffffffffffffffffff1673ffffffffffffffffffffffffffffffffffffffff16637f02dd826040518060400160405280601681526020017f5041594d454e545f4144564943455f4d414e41474552000000000000000000008152506040518060400160405280601781526020017f6c6973745f5f7061796d656e744164766963654c697374000000000000000000815250856040518060400160405280601381526020017f62616e6b47756172616e746565416d6f756e7400000000000000000000000000815250866040518663ffffffff1660e01b815260040161304095949392919061ab59565b5f604051808303815f87803b158015613057575f80fd5b505af1158015613069573d5f803e3d5ffd5b505050505050565b5f815f60015f9054906101000a900473ffffffffffffffffffffffffffffffffffffffff1673ffffffffffffffffffffffffffffffffffffffff16633bea27536040518060400160405280601681526020017f5041594d454e545f4144564943455f4d414e41474552000000000000000000008152506040518060400160405280601781526020017f6c6973745f5f7061796d656e744164766963654c6973740000000000000000008152506040518363ffffffff1660e01b815260040161313a92919061a3e1565b602060405180830381865afa158015613155573d5f803e3d5ffd5b505050506040513d601f19601f82011682018060405250810190613179919061a42a565b90508082106131bd576040517f08c379a00000000000000000000000000000000000000000000000000000000081526004016131b49061a49f565b60405180910390fd5b60015f9054906101000a900473ffffffffffffffffffffffffffffffffffffffff1673ffffffffffffffffffffffffffffffffffffffff1663b83032bd6040518060400160405280601681526020017f5041594d454e545f4144564943455f4d414e41474552000000000000000000008152506040518060400160405280601781526020017f6c6973745f5f7061796d656e744164766963654c697374000000000000000000815250876040518060400160405280601c81526020017f62616e6b47756172616e746565436c61696d45787069727944617465000000008152506040518563ffffffff1660e01b81526004016132bc949392919061a4bd565b602060405180830381865afa1580156132d7573d5f803e3d5ffd5b505050506040513d601f19601f820116820180604052508101906132fb919061a42a565b92505050919050565b60605f805f613311618f28565b90508086111561331f578095505b5f86861161332d578561332f565b865b90508067ffffffffffffffff81111561334b5761334a619498565b5b60405190808252806020026020018201604052801561338457816020015b6133716192ca565b8152602001906001900390816133695790505b5094505b5f8111156133f057808061339b9061a7de565b91505086806133a99061a7de565b9750506133b587613f1f565b8560018388516133c5919061a83f565b6133cf919061a83f565b815181106133e0576133df61a872565b5b6020026020010181905250613388565b86935081925050509250925092565b5f60025f9054906101000a900473ffffffffffffffffffffffffffffffffffffffff1673ffffffffffffffffffffffffffffffffffffffff1663bfa9f3eb6040518060400160405280601681526020017f5041594d454e545f4144564943455f4d414e414745520000000000000000000081525060405180606001604052806032815260200161af6960329139856040518060400160405280600881526020017f5f5f6c656e6774680000000000000000000000000000000000000000000000008152506040516020016134d3919061a6f1565b6040516020818303038152906040526040518563ffffffff1660e01b8152600401613501949392919061a759565b602060405180830381865afa15801561351c573d5f803e3d5ffd5b505050506040513d601f19601f82011682018060405250810190613540919061a42a565b9050919050565b5f815f60015f9054906101000a900473ffffffffffffffffffffffffffffffffffffffff1673ffffffffffffffffffffffffffffffffffffffff16633bea27536040518060400160405280601681526020017f5041594d454e545f4144564943455f4d414e41474552000000000000000000008152506040518060400160405280601781526020017f6c6973745f5f7061796d656e744164766963654c6973740000000000000000008152506040518363ffffffff1660e01b815260040161361092919061a3e1565b602060405180830381865afa15801561362b573d5f803e3d5ffd5b505050506040513d601f19601f8201168201806040525081019061364f919061a42a565b9050808210613693576040517f08c379a000000000000000000000000000000000000000000000000000000000815260040161368a9061a49f565b60405180910390fd5b60015f9054906101000a900473ffffffffffffffffffffffffffffffffffffffff1673ffffffffffffffffffffffffffffffffffffffff1663b83032bd6040518060400160405280601681526020017f5041594d454e545f4144564943455f4d414e41474552000000000000000000008152506040518060400160405280601781526020017f6c6973745f5f7061796d656e744164766963654c697374000000000000000000815250876040518060400160405280600981526020017f616d656e646d656e7400000000000000000000000000000000000000000000008152506040518563ffffffff1660e01b8152600401613792949392919061a4bd565b602060405180830381865afa1580156137ad573d5f803e3d5ffd5b505050506040513d601f19601f820116820180604052508101906137d1919061a42a565b92505050919050565b60035f9054906101000a900473ffffffffffffffffffffffffffffffffffffffff1673ffffffffffffffffffffffffffffffffffffffff1663ef02a3fc6040518060400160405280601681526020017f5041594d454e545f4144564943455f4d414e41474552000000000000000000008152506040518263ffffffff1660e01b81526004016138699190619474565b602060405180830381865afa158015613884573d5f803e3d5ffd5b505050506040513d601f19601f820116820180604052508101906138a8919061a624565b73ffffffffffffffffffffffffffffffffffffffff163373ffffffffffffffffffffffffffffffffffffffff1614613915576040517f08c379a000000000000000000000000000000000000000000000000000000000815260040161390c9061a699565b60405180910390fd5b60015f9054906101000a900473ffffffffffffffffffffffffffffffffffffffff1673ffffffffffffffffffffffffffffffffffffffff1663c8f1cd876040518060400160405280601681526020017f5041594d454e545f4144564943455f4d414e41474552000000000000000000008152506040518060400160405280601781526020017f6c6973745f5f7061796d656e744164766963654c697374000000000000000000815250856040518060400160405280600a81526020017f76656e646f724e616d6500000000000000000000000000000000000000000000815250866040518663ffffffff1660e01b8152600401613a1695949392919061a89f565b5f604051808303815f87803b158015613a2d575f80fd5b505af1158015613a3f573d5f803e3d5ffd5b505050505050565b5f815f60015f9054906101000a900473ffffffffffffffffffffffffffffffffffffffff1673ffffffffffffffffffffffffffffffffffffffff16633bea27536040518060400160405280601681526020017f5041594d454e545f4144564943455f4d414e41474552000000000000000000008152506040518060400160405280601781526020017f6c6973745f5f7061796d656e744164766963654c6973740000000000000000008152506040518363ffffffff1660e01b8152600401613b1092919061a3e1565b602060405180830381865afa158015613b2b573d5f803e3d5ffd5b505050506040513d601f19601f82011682018060405250810190613b4f919061a42a565b9050808210613b93576040517f08c379a0000000000000000000000000000000000000000000000000000000008152600401613b8a9061a49f565b60405180910390fd5b60015f9054906101000a900473ffffffffffffffffffffffffffffffffffffffff1673ffffffffffffffffffffffffffffffffffffffff1663a726dca16040518060400160405280601681526020017f5041594d454e545f4144564943455f4d414e41474552000000000000000000008152506040518060400160405280601781526020017f6c6973745f5f7061796d656e744164766963654c697374000000000000000000815250876040518060400160405280600a81526020017f666f726d537461747573000000000000000000000000000000000000000000008152506040518563ffffffff1660e01b8152600401613c92949392919061a4bd565b602060405180830381865afa158015613cad573d5f803e3d5ffd5b505050506040513d601f19601f82011682018060405250810190613cd1919061abe9565b60ff166001811115613ce657613ce5619b7c565b5b92505050919050565b60035f9054906101000a900473ffffffffffffffffffffffffffffffffffffffff1673ffffffffffffffffffffffffffffffffffffffff1663ef02a3fc6040518060400160405280601681526020017f5041594d454e545f4144564943455f4d414e41474552000000000000000000008152506040518263ffffffff1660e01b8152600401613d7e9190619474565b602060405180830381865afa158015613d99573d5f803e3d5ffd5b505050506040513d601f19601f82011682018060405250810190613dbd919061a624565b73ffffffffffffffffffffffffffffffffffffffff163373ffffffffffffffffffffffffffffffffffffffff1614613e2a576040517f08c379a0000000000000000000000000000000000000000000000000000000008152600401613e219061a699565b60405180910390fd5b60015f9054906101000a900473ffffffffffffffffffffffffffffffffffffffff1673ffffffffffffffffffffffffffffffffffffffff1663a24a899b6040518060400160405280601681526020017f5041594d454e545f4144564943455f4d414e41474552000000000000000000008152506040518060400160405280601781526020017f6c6973745f5f7061796d656e744164766963654c6973740000000000000000008152506040518363ffffffff1660e01b8152600401613ef092919061a3e1565b5f604051808303815f87803b158015613f07575f80fd5b505af1158015613f19573d5f803e3d5ffd5b50505050565b613f276192ca565b815f60015f9054906101000a900473ffffffffffffffffffffffffffffffffffffffff1673ffffffffffffffffffffffffffffffffffffffff16633bea27536040518060400160405280601681526020017f5041594d454e545f4144564943455f4d414e41474552000000000000000000008152506040518060400160405280601781526020017f6c6973745f5f7061796d656e744164766963654c6973740000000000000000008152506040518363ffffffff1660e01b8152600401613fef92919061a3e1565b602060405180830381865afa15801561400a573d5f803e3d5ffd5b505050506040513d601f19601f8201168201806040525081019061402e919061a42a565b9050808210614072576040517f08c379a00000000000000000000000000000000000000000000000000000000081526004016140699061a49f565b60405180910390fd5b61407b84616ed3565b835f019077ffffffffffffffffffffffffffffffffffffffffffffffff1916908177ffffffffffffffffffffffffffffffffffffffffffffffff1916815250506140c484619033565b83602001819052506140d5846144ab565b836040019060018111156140ec576140eb619b7c565b5b90816001811115614100576140ff619b7c565b5b8152505061410d84614214565b836060018190525061411e8461168a565b83608001818152505061413084613071565b8360a00181815250506141428461232b565b8360c0018190525061415384617b1a565b8360e0018181525050614165846113f3565b83610100018190525061417784614fb6565b83610120018190525061418984610ad5565b83610140018190525061419b846159b2565b8361016001819052506141ad84613547565b836101800181815250506141c084613a47565b836101a0019060018111156141d8576141d7619b7c565b5b908160018111156141ec576141eb619b7c565b5b815250506141f984614753565b836101c0019061ffff16908161ffff16815250505050919050565b6060815f60015f9054906101000a900473ffffffffffffffffffffffffffffffffffffffff1673ffffffffffffffffffffffffffffffffffffffff16633bea27536040518060400160405280601681526020017f5041594d454e545f4144564943455f4d414e41474552000000000000000000008152506040518060400160405280601781526020017f6c6973745f5f7061796d656e744164766963654c6973740000000000000000008152506040518363ffffffff1660e01b81526004016142de92919061a3e1565b602060405180830381865afa1580156142f9573d5f803e3d5ffd5b505050506040513d601f19601f8201168201806040525081019061431d919061a42a565b9050808210614361576040517f08c379a00000000000000000000000000000000000000000000000000000000081526004016143589061a49f565b60405180910390fd5b60015f9054906101000a900473ffffffffffffffffffffffffffffffffffffffff1673ffffffffffffffffffffffffffffffffffffffff16632136448c6040518060400160405280601681526020017f5041594d454e545f4144564943455f4d414e41474552000000000000000000008152506040518060400160405280601781526020017f6c6973745f5f7061796d656e744164766963654c697374000000000000000000815250876040518060400160405280601c81526020017f7061796d656e744164766963655265666572656e63654e756d626572000000008152506040518563ffffffff1660e01b8152600401614460949392919061a4bd565b5f60405180830381865afa15801561447a573d5f803e3d5ffd5b505050506040513d5f823e3d601f19601f820116820180604052508101906144a2919061a583565b92505050919050565b5f815f60015f9054906101000a900473ffffffffffffffffffffffffffffffffffffffff1673ffffffffffffffffffffffffffffffffffffffff16633bea27536040518060400160405280601681526020017f5041594d454e545f4144564943455f4d414e41474552000000000000000000008152506040518060400160405280601781526020017f6c6973745f5f7061796d656e744164766963654c6973740000000000000000008152506040518363ffffffff1660e01b815260040161457492919061a3e1565b602060405180830381865afa15801561458f573d5f803e3d5ffd5b505050506040513d601f19601f820116820180604052508101906145b3919061a42a565b90508082106145f7576040517f08c379a00000000000000000000000000000000000000000000000000000000081526004016145ee9061a49f565b60405180910390fd5b60015f9054906101000a900473ffffffffffffffffffffffffffffffffffffffff1673ffffffffffffffffffffffffffffffffffffffff1663a726dca16040518060400160405280601681526020017f5041594d454e545f4144564943455f4d414e41474552000000000000000000008152506040518060400160405280601781526020017f6c6973745f5f7061796d656e744164766963654c697374000000000000000000815250876040518060400160405280600b81526020017f7061796d656e74547970650000000000000000000000000000000000000000008152506040518563ffffffff1660e01b81526004016146f6949392919061a4bd565b602060405180830381865afa158015614711573d5f803e3d5ffd5b505050506040513d601f19601f82011682018060405250810190614735919061abe9565b60ff16600181111561474a57614749619b7c565b5b92505050919050565b5f815f60015f9054906101000a900473ffffffffffffffffffffffffffffffffffffffff1673ffffffffffffffffffffffffffffffffffffffff16633bea27536040518060400160405280601681526020017f5041594d454e545f4144564943455f4d414e41474552000000000000000000008152506040518060400160405280601781526020017f6c6973745f5f7061796d656e744164766963654c6973740000000000000000008152506040518363ffffffff1660e01b815260040161481c92919061a3e1565b602060405180830381865afa158015614837573d5f803e3d5ffd5b505050506040513d601f19601f8201168201806040525081019061485b919061a42a565b905080821061489f576040517f08c379a00000000000000000000000000000000000000000000000000000000081526004016148969061a49f565b60405180910390fd5b60015f9054906101000a900473ffffffffffffffffffffffffffffffffffffffff1673ffffffffffffffffffffffffffffffffffffffff166303afa62b6040518060400160405280601681526020017f5041594d454e545f4144564943455f4d414e41474552000000000000000000008152506040518060400160405280601781526020017f6c6973745f5f7061796d656e744164766963654c697374000000000000000000815250876040518060400160405280600781526020017f76657273696f6e000000000000000000000000000000000000000000000000008152506040518563ffffffff1660e01b815260040161499e949392919061a4bd565b602060405180830381865afa1580156149b9573d5f803e3d5ffd5b505050506040513d601f19601f820116820180604052508101906149dd919061ac28565b92505050919050565b60035f9054906101000a900473ffffffffffffffffffffffffffffffffffffffff1673ffffffffffffffffffffffffffffffffffffffff1663ef02a3fc6040518060400160405280601681526020017f5041594d454e545f4144564943455f4d414e41474552000000000000000000008152506040518263ffffffff1660e01b8152600401614a759190619474565b602060405180830381865afa158015614a90573d5f803e3d5ffd5b505050506040513d601f19601f82011682018060405250810190614ab4919061a624565b73ffffffffffffffffffffffffffffffffffffffff163373ffffffffffffffffffffffffffffffffffffffff1614614b21576040517f08c379a0000000000000000000000000000000000000000000000000000000008152600401614b189061a699565b60405180910390fd5b805f60015f9054906101000a900473ffffffffffffffffffffffffffffffffffffffff1673ffffffffffffffffffffffffffffffffffffffff16633bea27536040518060400160405280601681526020017f5041594d454e545f4144564943455f4d414e41474552000000000000000000008152506040518060400160405280601781526020017f6c6973745f5f7061796d656e744164766963654c6973740000000000000000008152506040518363ffffffff1660e01b8152600401614be992919061a3e1565b602060405180830381865afa158015614c04573d5f803e3d5ffd5b505050506040513d601f19601f82011682018060405250810190614c28919061a42a565b9050808210614c6c576040517f08c379a0000000000000000000000000000000000000000000000000000000008152600401614c639061a49f565b60405180910390fd5b60015f9054906101000a900473ffffffffffffffffffffffffffffffffffffffff1673ffffffffffffffffffffffffffffffffffffffff1663ab2e960d6040518060400160405280601681526020017f5041594d454e545f4144564943455f4d414e41474552000000000000000000008152506040518060400160405280601781526020017f6c6973745f5f7061796d656e744164766963654c697374000000000000000000815250866040518060400160405280600a81526020017f666f726d537461747573000000000000000000000000000000000000000000008152505f6001811115614d5f57614d5e619b7c565b5b6040518663ffffffff1660e01b8152600401614d7f95949392919061aaf3565b5f604051808303815f87803b158015614d96575f80fd5b505af1158015614da8573d5f803e3d5ffd5b50505050505050565b5f60025f9054906101000a900473ffffffffffffffffffffffffffffffffffffffff1673ffffffffffffffffffffffffffffffffffffffff1663405e2c0d6040518060400160405280601681526020017f5041594d454e545f4144564943455f4d414e41474552000000000000000000008152506040518060400160405280601781526020017f6d61705f5f7061796d656e74416476696365496e646578000000000000000000815250856040518463ffffffff1660e01b8152600401614e7a9392919061ac53565b602060405180830381865afa158015614e95573d5f803e3d5ffd5b505050506040513d601f19601f82011682018060405250810190614eb9919061a42a565b9050919050565b606060025f9054906101000a900473ffffffffffffffffffffffffffffffffffffffff1673ffffffffffffffffffffffffffffffffffffffff166384ae93636040518060400160405280601681526020017f5041594d454e545f4144564943455f4d414e414745520000000000000000000081525060405180606001604052806022815260200161af9b60229139856040518463ffffffff1660e01b8152600401614f6d9392919061ac96565b5f60405180830381865afa158015614f87573d5f803e3d5ffd5b505050506040513d5f823e3d601f19601f82011682018060405250810190614faf919061a583565b9050919050565b6060815f60015f9054906101000a900473ffffffffffffffffffffffffffffffffffffffff1673ffffffffffffffffffffffffffffffffffffffff16633bea27536040518060400160405280601681526020017f5041594d454e545f4144564943455f4d414e41474552000000000000000000008152506040518060400160405280601781526020017f6c6973745f5f7061796d656e744164766963654c6973740000000000000000008152506040518363ffffffff1660e01b815260040161508092919061a3e1565b602060405180830381865afa15801561509b573d5f803e3d5ffd5b505050506040513d601f19601f820116820180604052508101906150bf919061a42a565b9050808210615103576040517f08c379a00000000000000000000000000000000000000000000000000000000081526004016150fa9061a49f565b60405180910390fd5b60015f9054906101000a900473ffffffffffffffffffffffffffffffffffffffff1673ffffffffffffffffffffffffffffffffffffffff16632136448c6040518060400160405280601681526020017f5041594d454e545f4144564943455f4d414e41474552000000000000000000008152506040518060400160405280601781526020017f6c6973745f5f7061796d656e744164766963654c697374000000000000000000815250876040518060400160405280600a81526020017f76656e646f724e616d65000000000000000000000000000000000000000000008152506040518563ffffffff1660e01b8152600401615202949392919061a4bd565b5f60405180830381865afa15801561521c573d5f803e3d5ffd5b505050506040513d5f823e3d601f19601f82011682018060405250810190615244919061a583565b92505050919050565b60035f9054906101000a900473ffffffffffffffffffffffffffffffffffffffff1673ffffffffffffffffffffffffffffffffffffffff1663ef02a3fc6040518060400160405280601681526020017f5041594d454e545f4144564943455f4d414e41474552000000000000000000008152506040518263ffffffff1660e01b81526004016152dc9190619474565b602060405180830381865afa1580156152f7573d5f803e3d5ffd5b505050506040513d601f19601f8201168201806040525081019061531b919061a624565b73ffffffffffffffffffffffffffffffffffffffff163373ffffffffffffffffffffffffffffffffffffffff1614615388576040517f08c379a000000000000000000000000000000000000000000000000000000000815260040161537f9061a699565b60405180910390fd5b60015f9054906101000a900473ffffffffffffffffffffffffffffffffffffffff1673ffffffffffffffffffffffffffffffffffffffff1663ab2e960d6040518060400160405280601681526020017f5041594d454e545f4144564943455f4d414e41474552000000000000000000008152506040518060400160405280601781526020017f6c6973745f5f7061796d656e744164766963654c697374000000000000000000815250856040518060400160405280600b81526020017f7061796d656e745479706500000000000000000000000000000000000000000081525086600181111561547b5761547a619b7c565b5b6040518663ffffffff1660e01b815260040161549b95949392919061aaf3565b5f604051808303815f87803b1580156154b2575f80fd5b505af11580156154c4573d5f803e3d5ffd5b505050505050565b60035f9054906101000a900473ffffffffffffffffffffffffffffffffffffffff1673ffffffffffffffffffffffffffffffffffffffff1663ef02a3fc6040518060400160405280601681526020017f5041594d454e545f4144564943455f4d414e41474552000000000000000000008152506040518263ffffffff1660e01b815260040161555b9190619474565b602060405180830381865afa158015615576573d5f803e3d5ffd5b505050506040513d601f19601f8201168201806040525081019061559a919061a624565b73ffffffffffffffffffffffffffffffffffffffff163373ffffffffffffffffffffffffffffffffffffffff1614615607576040517f08c379a00000000000000000000000000000000000000000000000000000000081526004016155fe9061a699565b60405180910390fd5b60015f9054906101000a900473ffffffffffffffffffffffffffffffffffffffff1673ffffffffffffffffffffffffffffffffffffffff1663c8f1cd876040518060400160405280601681526020017f5041594d454e545f4144564943455f4d414e41474552000000000000000000008152506040518060400160405280601781526020017f6c6973745f5f7061796d656e744164766963654c697374000000000000000000815250856040518060400160405280600881526020017f63757272656e6379000000000000000000000000000000000000000000000000815250866040518663ffffffff1660e01b815260040161570895949392919061a89f565b5f604051808303815f87803b15801561571f575f80fd5b505af1158015615731573d5f803e3d5ffd5b505050505050565b60035f9054906101000a900473ffffffffffffffffffffffffffffffffffffffff1673ffffffffffffffffffffffffffffffffffffffff1663ef02a3fc6040518060400160405280601681526020017f5041594d454e545f4144564943455f4d414e41474552000000000000000000008152506040518263ffffffff1660e01b81526004016157c89190619474565b602060405180830381865afa1580156157e3573d5f803e3d5ffd5b505050506040513d601f19601f82011682018060405250810190615807919061a624565b73ffffffffffffffffffffffffffffffffffffffff163373ffffffffffffffffffffffffffffffffffffffff1614615874576040517f08c379a000000000000000000000000000000000000000000000000000000000815260040161586b9061a699565b60405180910390fd5b805f036158805760b490505b60015f9054906101000a900473ffffffffffffffffffffffffffffffffffffffff1673ffffffffffffffffffffffffffffffffffffffff16637f02dd826040518060400160405280601681526020017f5041594d454e545f4144564943455f4d414e41474552000000000000000000008152506040518060400160405280601781526020017f6c6973745f5f7061796d656e744164766963654c697374000000000000000000815250856040518060400160405280601281526020017f76616c6964697479506572696f64446179730000000000000000000000000000815250866040518663ffffffff1660e01b815260040161598195949392919061ab59565b5f604051808303815f87803b158015615998575f80fd5b505af11580156159aa573d5f803e3d5ffd5b505050505050565b6060815f60015f9054906101000a900473ffffffffffffffffffffffffffffffffffffffff1673ffffffffffffffffffffffffffffffffffffffff16633bea27536040518060400160405280601681526020017f5041594d454e545f4144564943455f4d414e41474552000000000000000000008152506040518060400160405280601781526020017f6c6973745f5f7061796d656e744164766963654c6973740000000000000000008152506040518363ffffffff1660e01b8152600401615a7c92919061a3e1565b602060405180830381865afa158015615a97573d5f803e3d5ffd5b505050506040513d601f19601f82011682018060405250810190615abb919061a42a565b9050808210615aff576040517f08c379a0000000000000000000000000000000000000000000000000000000008152600401615af69061a49f565b60405180910390fd5b60015f9054906101000a900473ffffffffffffffffffffffffffffffffffffffff1673ffffffffffffffffffffffffffffffffffffffff16632136448c6040518060400160405280601681526020017f5041594d454e545f4144564943455f4d414e41474552000000000000000000008152506040518060400160405280601781526020017f6c6973745f5f7061796d656e744164766963654c697374000000000000000000815250876040518060400160405280601381526020017f70726f637572696e67456e746974794e616d65000000000000000000000000008152506040518563ffffffff1660e01b8152600401615bfe949392919061a4bd565b5f60405180830381865afa158015615c18573d5f803e3d5ffd5b505050506040513d5f823e3d601f19601f82011682018060405250810190615c40919061a583565b92505050919050565b60035f9054906101000a900473ffffffffffffffffffffffffffffffffffffffff1673ffffffffffffffffffffffffffffffffffffffff1663ef02a3fc6040518060400160405280601681526020017f5041594d454e545f4144564943455f4d414e41474552000000000000000000008152506040518263ffffffff1660e01b8152600401615cd89190619474565b602060405180830381865afa158015615cf3573d5f803e3d5ffd5b505050506040513d601f19601f82011682018060405250810190615d17919061a624565b73ffffffffffffffffffffffffffffffffffffffff163373ffffffffffffffffffffffffffffffffffffffff1614615d84576040517f08c379a0000000000000000000000000000000000000000000000000000000008152600401615d7b9061a699565b60405180910390fd5b5f60025f9054906101000a900473ffffffffffffffffffffffffffffffffffffffff1673ffffffffffffffffffffffffffffffffffffffff16632f79e1026040518060400160405280601681526020017f5041594d454e545f4144564943455f4d414e414745520000000000000000000081525060405180606001604052806022815260200161aef260229139866040518060400160405280600881526020017f5f5f6c656e677468000000000000000000000000000000000000000000000000815250604051602001615e58919061a6f1565b6040516020818303038152906040526040518563ffffffff1660e01b8152600401615e86949392919061aa79565b602060405180830381865afa158015615ea1573d5f803e3d5ffd5b505050506040513d601f19601f82011682018060405250810190615ec5919061a42a565b905060025f9054906101000a900473ffffffffffffffffffffffffffffffffffffffff1673ffffffffffffffffffffffffffffffffffffffff166316ae1bfa6040518060400160405280601681526020017f5041594d454e545f4144564943455f4d414e414745520000000000000000000081525060405180606001604052806022815260200161aef2602291398685604051602001615f65919061a825565b604051602081830303815290604052876040518663ffffffff1660e01b8152600401615f9595949392919061ace0565b5f604051808303815f87803b158015615fac575f80fd5b505af1158015615fbe573d5f803e3d5ffd5b5050505060025f9054906101000a900473ffffffffffffffffffffffffffffffffffffffff1673ffffffffffffffffffffffffffffffffffffffff166316ae1bfa6040518060400160405280601681526020017f5041594d454e545f4144564943455f4d414e414745520000000000000000000081525060405180606001604052806022815260200161aef260229139866040518060400160405280600881526020017f5f5f6c656e677468000000000000000000000000000000000000000000000000815250604051602001616095919061a6f1565b6040516020818303038152906040528660016160b1919061ad4d565b6040518663ffffffff1660e01b81526004016160d195949392919061ace0565b5f604051808303815f87803b1580156160e8575f80fd5b505af11580156160fa573d5f803e3d5ffd5b50505050505050565b5f60025f9054906101000a900473ffffffffffffffffffffffffffffffffffffffff1673ffffffffffffffffffffffffffffffffffffffff1663539c2ffb6040518060400160405280601681526020017f5041594d454e545f4144564943455f4d414e41474552000000000000000000008152506040518060400160405280601b81526020017f6d61705f5f7061796d656e744164766963655265664e756d6265720000000000815250856040518463ffffffff1660e01b81526004016161cc9392919061ac96565b602060405180830381865afa1580156161e7573d5f803e3d5ffd5b505050506040513d601f19601f8201168201806040525081019061620b919061a42a565b9050919050565b60035f9054906101000a900473ffffffffffffffffffffffffffffffffffffffff1673ffffffffffffffffffffffffffffffffffffffff1663ef02a3fc6040518060400160405280601681526020017f5041594d454e545f4144564943455f4d414e41474552000000000000000000008152506040518263ffffffff1660e01b81526004016162a19190619474565b602060405180830381865afa1580156162bc573d5f803e3d5ffd5b505050506040513d601f19601f820116820180604052508101906162e0919061a624565b73ffffffffffffffffffffffffffffffffffffffff163373ffffffffffffffffffffffffffffffffffffffff161461634d576040517f08c379a00000000000000000000000000000000000000000000000000000000081526004016163449061a699565b60405180910390fd5b60015f9054906101000a900473ffffffffffffffffffffffffffffffffffffffff1673ffffffffffffffffffffffffffffffffffffffff1663c4f188576040518060400160405280601681526020017f5041594d454e545f4144564943455f4d414e41474552000000000000000000008152506040518060400160405280601781526020017f6c6973745f5f7061796d656e744164766963654c697374000000000000000000815250846040518060400160405280600781526020017f76657273696f6e0000000000000000000000000000000000000000000000000081525060016040518663ffffffff1660e01b815260040161644f95949392919061ad80565b5f604051808303815f87803b158015616466575f80fd5b505af1158015616478573d5f803e3d5ffd5b5050505050565b60605f805f60025f9054906101000a900473ffffffffffffffffffffffffffffffffffffffff1673ffffffffffffffffffffffffffffffffffffffff16632f79e1026040518060400160405280601681526020017f5041594d454e545f4144564943455f4d414e414745520000000000000000000081525060405180606001604052806026815260200161af43602691398a6040518060400160405280600881526020017f5f5f6c656e677468000000000000000000000000000000000000000000000000815250604051602001616557919061a6f1565b6040516020818303038152906040526040518563ffffffff1660e01b8152600401616585949392919061aa79565b602060405180830381865afa1580156165a0573d5f803e3d5ffd5b505050506040513d601f19601f820116820180604052508101906165c4919061a42a565b9050808611156165d2578095505b5f8686116165e057856165e2565b865b90508067ffffffffffffffff8111156165fe576165fd619498565b5b60405190808252806020026020018201604052801561662c5781602001602082028036833780820191505090505b5094505b5f81111561679b5780806166439061a7de565b91505086806166519061a7de565b97505060025f9054906101000a900473ffffffffffffffffffffffffffffffffffffffff1673ffffffffffffffffffffffffffffffffffffffff16632f79e1026040518060400160405280601681526020017f5041594d454e545f4144564943455f4d414e414745520000000000000000000081525060405180606001604052806026815260200161af43602691398b8b6040516020016166f2919061a825565b6040516020818303038152906040526040518563ffffffff1660e01b8152600401616720949392919061aa79565b602060405180830381865afa15801561673b573d5f803e3d5ffd5b505050506040513d601f19601f8201168201806040525081019061675f919061a42a565b85600183885161676f919061a83f565b616779919061a83f565b8151811061678a5761678961a872565b5b602002602001018181525050616630565b869350819250505093509350939050565b60035f9054906101000a900473ffffffffffffffffffffffffffffffffffffffff1673ffffffffffffffffffffffffffffffffffffffff1663ef02a3fc6040518060400160405280601681526020017f5041594d454e545f4144564943455f4d414e41474552000000000000000000008152506040518263ffffffff1660e01b815260040161683b9190619474565b602060405180830381865afa158015616856573d5f803e3d5ffd5b505050506040513d601f19601f8201168201806040525081019061687a919061a624565b73ffffffffffffffffffffffffffffffffffffffff163373ffffffffffffffffffffffffffffffffffffffff16146168e7576040517f08c379a00000000000000000000000000000000000000000000000000000000081526004016168de9061a699565b60405180910390fd5b60015f9054906101000a900473ffffffffffffffffffffffffffffffffffffffff1673ffffffffffffffffffffffffffffffffffffffff1663c8f1cd876040518060400160405280601681526020017f5041594d454e545f4144564943455f4d414e41474552000000000000000000008152506040518060400160405280601781526020017f6c6973745f5f7061796d656e744164766963654c697374000000000000000000815250856040518060400160405280601281526020017f70726f637572696e67456e746974794769640000000000000000000000000000815250866040518663ffffffff1660e01b81526004016169e895949392919061a89f565b5f604051808303815f87803b1580156169ff575f80fd5b505af1158015616a11573d5f803e3d5ffd5b505050505050565b60035f9054906101000a900473ffffffffffffffffffffffffffffffffffffffff1673ffffffffffffffffffffffffffffffffffffffff1663ef02a3fc6040518060400160405280601681526020017f5041594d454e545f4144564943455f4d414e41474552000000000000000000008152506040518263ffffffff1660e01b8152600401616aa89190619474565b602060405180830381865afa158015616ac3573d5f803e3d5ffd5b505050506040513d601f19601f82011682018060405250810190616ae7919061a624565b73ffffffffffffffffffffffffffffffffffffffff163373ffffffffffffffffffffffffffffffffffffffff1614616b54576040517f08c379a0000000000000000000000000000000000000000000000000000000008152600401616b4b9061a699565b60405180910390fd5b5f60025f9054906101000a900473ffffffffffffffffffffffffffffffffffffffff1673ffffffffffffffffffffffffffffffffffffffff16632f79e1026040518060400160405280601681526020017f5041594d454e545f4144564943455f4d414e41474552000000000000000000008152506040518060600160405280602f815260200161af14602f9139866040518060400160405280600881526020017f5f5f6c656e677468000000000000000000000000000000000000000000000000815250604051602001616c28919061a6f1565b6040516020818303038152906040526040518563ffffffff1660e01b8152600401616c56949392919061aa79565b602060405180830381865afa158015616c71573d5f803e3d5ffd5b505050506040513d601f19601f82011682018060405250810190616c95919061a42a565b905060025f9054906101000a900473ffffffffffffffffffffffffffffffffffffffff1673ffffffffffffffffffffffffffffffffffffffff166316ae1bfa6040518060400160405280601681526020017f5041594d454e545f4144564943455f4d414e41474552000000000000000000008152506040518060600160405280602f815260200161af14602f91398685604051602001616d35919061a825565b604051602081830303815290604052876040518663ffffffff1660e01b8152600401616d6595949392919061ace0565b5f604051808303815f87803b158015616d7c575f80fd5b505af1158015616d8e573d5f803e3d5ffd5b5050505060025f9054906101000a900473ffffffffffffffffffffffffffffffffffffffff1673ffffffffffffffffffffffffffffffffffffffff166316ae1bfa6040518060400160405280601681526020017f5041594d454e545f4144564943455f4d414e41474552000000000000000000008152506040518060600160405280602f815260200161af14602f9139866040518060400160405280600881526020017f5f5f6c656e677468000000000000000000000000000000000000000000000000815250604051602001616e65919061a6f1565b604051602081830303815290604052866001616e81919061ad4d565b6040518663ffffffff1660e01b8152600401616ea195949392919061ace0565b5f604051808303815f87803b158015616eb8575f80fd5b505af1158015616eca573d5f803e3d5ffd5b50505050505050565b5f815f60015f9054906101000a900473ffffffffffffffffffffffffffffffffffffffff1673ffffffffffffffffffffffffffffffffffffffff16633bea27536040518060400160405280601681526020017f5041594d454e545f4144564943455f4d414e41474552000000000000000000008152506040518060400160405280601781526020017f6c6973745f5f7061796d656e744164766963654c6973740000000000000000008152506040518363ffffffff1660e01b8152600401616f9c92919061a3e1565b602060405180830381865afa158015616fb7573d5f803e3d5ffd5b505050506040513d601f19601f82011682018060405250810190616fdb919061a42a565b905080821061701f576040517f08c379a00000000000000000000000000000000000000000000000000000000081526004016170169061a49f565b60405180910390fd5b60015f9054906101000a900473ffffffffffffffffffffffffffffffffffffffff1673ffffffffffffffffffffffffffffffffffffffff16634bcbf1fb6040518060400160405280601681526020017f5041594d454e545f4144564943455f4d414e41474552000000000000000000008152506040518060400160405280601781526020017f6c6973745f5f7061796d656e744164766963654c697374000000000000000000815250876040518060400160405280600381526020017f75696400000000000000000000000000000000000000000000000000000000008152506040518563ffffffff1660e01b815260040161711e949392919061a4bd565b602060405180830381865afa158015617139573d5f803e3d5ffd5b505050506040513d601f19601f8201168201806040525081019061715d919061adfa565b92505050919050565b60035f9054906101000a900473ffffffffffffffffffffffffffffffffffffffff1673ffffffffffffffffffffffffffffffffffffffff1663ef02a3fc6040518060400160405280601681526020017f5041594d454e545f4144564943455f4d414e41474552000000000000000000008152506040518263ffffffff1660e01b81526004016171f59190619474565b602060405180830381865afa158015617210573d5f803e3d5ffd5b505050506040513d601f19601f82011682018060405250810190617234919061a624565b73ffffffffffffffffffffffffffffffffffffffff163373ffffffffffffffffffffffffffffffffffffffff16146172a1576040517f08c379a00000000000000000000000000000000000000000000000000000000081526004016172989061a699565b60405180910390fd5b60015f9054906101000a900473ffffffffffffffffffffffffffffffffffffffff1673ffffffffffffffffffffffffffffffffffffffff1663c8f1cd876040518060400160405280601681526020017f5041594d454e545f4144564943455f4d414e41474552000000000000000000008152506040518060400160405280601781526020017f6c6973745f5f7061796d656e744164766963654c697374000000000000000000815250856040518060400160405280600981526020017f76656e646f724769640000000000000000000000000000000000000000000000815250866040518663ffffffff1660e01b81526004016173a295949392919061a89f565b5f604051808303815f87803b1580156173b9575f80fd5b505af11580156173cb573d5f803e3d5ffd5b505050505050565b60035f9054906101000a900473ffffffffffffffffffffffffffffffffffffffff1673ffffffffffffffffffffffffffffffffffffffff1663ef02a3fc6040518060400160405280601681526020017f5041594d454e545f4144564943455f4d414e41474552000000000000000000008152506040518263ffffffff1660e01b81526004016174629190619474565b602060405180830381865afa15801561747d573d5f803e3d5ffd5b505050506040513d601f19601f820116820180604052508101906174a1919061a624565b73ffffffffffffffffffffffffffffffffffffffff163373ffffffffffffffffffffffffffffffffffffffff161461750e576040517f08c379a00000000000000000000000000000000000000000000000000000000081526004016175059061a699565b60405180910390fd5b60015f9054906101000a900473ffffffffffffffffffffffffffffffffffffffff1673ffffffffffffffffffffffffffffffffffffffff16637f02dd826040518060400160405280601681526020017f5041594d454e545f4144564943455f4d414e41474552000000000000000000008152506040518060400160405280601781526020017f6c6973745f5f7061796d656e744164766963654c697374000000000000000000815250856040518060400160405280601c81526020017f62616e6b47756172616e746565436c61696d4578706972794461746500000000815250866040518663ffffffff1660e01b815260040161760f95949392919061ab59565b5f604051808303815f87803b158015617626575f80fd5b505af1158015617638573d5f803e3d5ffd5b505050505050565b60035f9054906101000a900473ffffffffffffffffffffffffffffffffffffffff1673ffffffffffffffffffffffffffffffffffffffff1663ef02a3fc6040518060400160405280601681526020017f5041594d454e545f4144564943455f4d414e41474552000000000000000000008152506040518263ffffffff1660e01b81526004016176cf9190619474565b602060405180830381865afa1580156176ea573d5f803e3d5ffd5b505050506040513d601f19601f8201168201806040525081019061770e919061a624565b73ffffffffffffffffffffffffffffffffffffffff163373ffffffffffffffffffffffffffffffffffffffff161461777b576040517f08c379a00000000000000000000000000000000000000000000000000000000081526004016177729061a699565b60405180910390fd5b60015f9054906101000a900473ffffffffffffffffffffffffffffffffffffffff1673ffffffffffffffffffffffffffffffffffffffff1663a06fd4546040518060400160405280601681526020017f5041594d454e545f4144564943455f4d414e41474552000000000000000000008152506040518060400160405280601781526020017f6c6973745f5f7061796d656e744164766963654c697374000000000000000000815250856040518060400160405280600381526020017f7569640000000000000000000000000000000000000000000000000000000000815250866040518663ffffffff1660e01b815260040161787c95949392919061ae25565b5f604051808303815f87803b158015617893575f80fd5b505af11580156178a5573d5f803e3d5ffd5b505050505050565b60035f9054906101000a900473ffffffffffffffffffffffffffffffffffffffff1673ffffffffffffffffffffffffffffffffffffffff1663ef02a3fc6040518060400160405280601681526020017f5041594d454e545f4144564943455f4d414e41474552000000000000000000008152506040518263ffffffff1660e01b815260040161793c9190619474565b602060405180830381865afa158015617957573d5f803e3d5ffd5b505050506040513d601f19601f8201168201806040525081019061797b919061a624565b73ffffffffffffffffffffffffffffffffffffffff163373ffffffffffffffffffffffffffffffffffffffff16146179e8576040517f08c379a00000000000000000000000000000000000000000000000000000000081526004016179df9061a699565b60405180910390fd5b60015f9054906101000a900473ffffffffffffffffffffffffffffffffffffffff1673ffffffffffffffffffffffffffffffffffffffff1663c8f1cd876040518060400160405280601681526020017f5041594d454e545f4144564943455f4d414e41474552000000000000000000008152506040518060400160405280601781526020017f6c6973745f5f7061796d656e744164766963654c697374000000000000000000815250856040518060400160405280600b81526020017f65677053797374656d4964000000000000000000000000000000000000000000815250866040518663ffffffff1660e01b8152600401617ae995949392919061a89f565b5f604051808303815f87803b158015617b00575f80fd5b505af1158015617b12573d5f803e3d5ffd5b505050505050565b5f815f60015f9054906101000a900473ffffffffffffffffffffffffffffffffffffffff1673ffffffffffffffffffffffffffffffffffffffff16633bea27536040518060400160405280601681526020017f5041594d454e545f4144564943455f4d414e41474552000000000000000000008152506040518060400160405280601781526020017f6c6973745f5f7061796d656e744164766963654c6973740000000000000000008152506040518363ffffffff1660e01b8152600401617be392919061a3e1565b602060405180830381865afa158015617bfe573d5f803e3d5ffd5b505050506040513d601f19601f82011682018060405250810190617c22919061a42a565b9050808210617c66576040517f08c379a0000000000000000000000000000000000000000000000000000000008152600401617c5d9061a49f565b60405180910390fd5b60015f9054906101000a900473ffffffffffffffffffffffffffffffffffffffff1673ffffffffffffffffffffffffffffffffffffffff1663b83032bd6040518060400160405280601681526020017f5041594d454e545f4144564943455f4d414e41474552000000000000000000008152506040518060400160405280601781526020017f6c6973745f5f7061796d656e744164766963654c697374000000000000000000815250876040518060400160405280601381526020017f62616e6b47756172616e746565416d6f756e74000000000000000000000000008152506040518563ffffffff1660e01b8152600401617d65949392919061a4bd565b602060405180830381865afa158015617d80573d5f803e3d5ffd5b505050506040513d601f19601f82011682018060405250810190617da4919061a42a565b92505050919050565b60035f9054906101000a900473ffffffffffffffffffffffffffffffffffffffff1673ffffffffffffffffffffffffffffffffffffffff1663ef02a3fc6040518060400160405280601681526020017f5041594d454e545f4144564943455f4d414e41474552000000000000000000008152506040518263ffffffff1660e01b8152600401617e3c9190619474565b602060405180830381865afa158015617e57573d5f803e3d5ffd5b505050506040513d601f19601f82011682018060405250810190617e7b919061a624565b73ffffffffffffffffffffffffffffffffffffffff163373ffffffffffffffffffffffffffffffffffffffff1614617ee8576040517f08c379a0000000000000000000000000000000000000000000000000000000008152600401617edf9061a699565b60405180910390fd5b5f60025f9054906101000a900473ffffffffffffffffffffffffffffffffffffffff1673ffffffffffffffffffffffffffffffffffffffff16632f79e1026040518060400160405280601681526020017f5041594d454e545f4144564943455f4d414e414745520000000000000000000081525060405180606001604052806026815260200161af4360269139866040518060400160405280600881526020017f5f5f6c656e677468000000000000000000000000000000000000000000000000815250604051602001617fbc919061a6f1565b6040516020818303038152906040526040518563ffffffff1660e01b8152600401617fea949392919061aa79565b602060405180830381865afa158015618005573d5f803e3d5ffd5b505050506040513d601f19601f82011682018060405250810190618029919061a42a565b905060025f9054906101000a900473ffffffffffffffffffffffffffffffffffffffff1673ffffffffffffffffffffffffffffffffffffffff166316ae1bfa6040518060400160405280601681526020017f5041594d454e545f4144564943455f4d414e414745520000000000000000000081525060405180606001604052806026815260200161af436026913986856040516020016180c9919061a825565b604051602081830303815290604052876040518663ffffffff1660e01b81526004016180f995949392919061ace0565b5f604051808303815f87803b158015618110575f80fd5b505af1158015618122573d5f803e3d5ffd5b5050505060025f9054906101000a900473ffffffffffffffffffffffffffffffffffffffff1673ffffffffffffffffffffffffffffffffffffffff166316ae1bfa6040518060400160405280601681526020017f5041594d454e545f4144564943455f4d414e414745520000000000000000000081525060405180606001604052806026815260200161af4360269139866040518060400160405280600881526020017f5f5f6c656e6774680000000000000000000000000000000000000000000000008152506040516020016181f9919061a6f1565b604051602081830303815290604052866001618215919061ad4d565b6040518663ffffffff1660e01b815260040161823595949392919061ace0565b5f604051808303815f87803b15801561824c575f80fd5b505af115801561825e573d5f803e3d5ffd5b50505050505050565b60035f9054906101000a900473ffffffffffffffffffffffffffffffffffffffff1673ffffffffffffffffffffffffffffffffffffffff1663ef02a3fc6040518060400160405280601681526020017f5041594d454e545f4144564943455f4d414e41474552000000000000000000008152506040518263ffffffff1660e01b81526004016182f69190619474565b602060405180830381865afa158015618311573d5f803e3d5ffd5b505050506040513d601f19601f82011682018060405250810190618335919061a624565b73ffffffffffffffffffffffffffffffffffffffff163373ffffffffffffffffffffffffffffffffffffffff16146183a2576040517f08c379a00000000000000000000000000000000000000000000000000000000081526004016183999061a699565b60405180910390fd5b5f60025f9054906101000a900473ffffffffffffffffffffffffffffffffffffffff1673ffffffffffffffffffffffffffffffffffffffff1663bfa9f3eb6040518060400160405280601681526020017f5041594d454e545f4144564943455f4d414e414745520000000000000000000081525060405180606001604052806032815260200161af6960329139866040518060400160405280600881526020017f5f5f6c656e677468000000000000000000000000000000000000000000000000815250604051602001618476919061a6f1565b6040516020818303038152906040526040518563ffffffff1660e01b81526004016184a4949392919061a759565b602060405180830381865afa1580156184bf573d5f803e3d5ffd5b505050506040513d601f19601f820116820180604052508101906184e3919061a42a565b905060025f9054906101000a900473ffffffffffffffffffffffffffffffffffffffff1673ffffffffffffffffffffffffffffffffffffffff1663cf1e8bd86040518060400160405280601681526020017f5041594d454e545f4144564943455f4d414e414745520000000000000000000081525060405180606001604052806032815260200161af69603291398685604051602001618583919061a825565b604051602081830303815290604052876040518663ffffffff1660e01b81526004016185b395949392919061ae8b565b5f604051808303815f87803b1580156185ca575f80fd5b505af11580156185dc573d5f803e3d5ffd5b5050505060025f9054906101000a900473ffffffffffffffffffffffffffffffffffffffff1673ffffffffffffffffffffffffffffffffffffffff1663cf1e8bd86040518060400160405280601681526020017f5041594d454e545f4144564943455f4d414e414745520000000000000000000081525060405180606001604052806032815260200161af6960329139866040518060400160405280600881526020017f5f5f6c656e6774680000000000000000000000000000000000000000000000008152506040516020016186b3919061a6f1565b6040516020818303038152906040528660016186cf919061ad4d565b6040518663ffffffff1660e01b81526004016186ef95949392919061ae8b565b5f604051808303815f87803b158015618706575f80fd5b505af1158015618718573d5f803e3d5ffd5b50505050505050565b60035f9054906101000a900473ffffffffffffffffffffffffffffffffffffffff1673ffffffffffffffffffffffffffffffffffffffff1663ef02a3fc6040518060400160405280601681526020017f5041594d454e545f4144564943455f4d414e41474552000000000000000000008152506040518263ffffffff1660e01b81526004016187b09190619474565b602060405180830381865afa1580156187cb573d5f803e3d5ffd5b505050506040513d601f19601f820116820180604052508101906187ef919061a624565b73ffffffffffffffffffffffffffffffffffffffff163373ffffffffffffffffffffffffffffffffffffffff161461885c576040517f08c379a00000000000000000000000000000000000000000000000000000000081526004016188539061a699565b60405180910390fd5b60015f9054906101000a900473ffffffffffffffffffffffffffffffffffffffff1673ffffffffffffffffffffffffffffffffffffffff16637f02dd826040518060400160405280601681526020017f5041594d454e545f4144564943455f4d414e41474552000000000000000000008152506040518060400160405280601781526020017f6c6973745f5f7061796d656e744164766963654c697374000000000000000000815250856040518060400160405280600981526020017f616d656e646d656e740000000000000000000000000000000000000000000000815250866040518663ffffffff1660e01b815260040161895d95949392919061ab59565b5f604051808303815f87803b158015618974575f80fd5b505af1158015618986573d5f803e3d5ffd5b505050505050565b60035f9054906101000a900473ffffffffffffffffffffffffffffffffffffffff1673ffffffffffffffffffffffffffffffffffffffff1663ef02a3fc6040518060400160405280601681526020017f5041594d454e545f4144564943455f4d414e41474552000000000000000000008152506040518263ffffffff1660e01b8152600401618a1d9190619474565b602060405180830381865afa158015618a38573d5f803e3d5ffd5b505050506040513d601f19601f82011682018060405250810190618a5c919061a624565b73ffffffffffffffffffffffffffffffffffffffff163373ffffffffffffffffffffffffffffffffffffffff1614618ac9576040517f08c379a0000000000000000000000000000000000000000000000000000000008152600401618ac09061a699565b60405180910390fd5b60015f9054906101000a900473ffffffffffffffffffffffffffffffffffffffff1673ffffffffffffffffffffffffffffffffffffffff1663c8f1cd876040518060400160405280601681526020017f5041594d454e545f4144564943455f4d414e41474552000000000000000000008152506040518060400160405280601781526020017f6c6973745f5f7061796d656e744164766963654c697374000000000000000000815250856040518060400160405280601c81526020017f7061796d656e744164766963655265666572656e63654e756d62657200000000815250866040518663ffffffff1660e01b8152600401618bca95949392919061a89f565b5f604051808303815f87803b158015618be1575f80fd5b505af1158015618bf3573d5f803e3d5ffd5b505050505050565b60605f805f60025f9054906101000a900473ffffffffffffffffffffffffffffffffffffffff1673ffffffffffffffffffffffffffffffffffffffff16632f79e1026040518060400160405280601681526020017f5041594d454e545f4144564943455f4d414e41474552000000000000000000008152506040518060600160405280602f815260200161af14602f91398a6040518060400160405280600881526020017f5f5f6c656e677468000000000000000000000000000000000000000000000000815250604051602001618cd3919061a6f1565b6040516020818303038152906040526040518563ffffffff1660e01b8152600401618d01949392919061aa79565b602060405180830381865afa158015618d1c573d5f803e3d5ffd5b505050506040513d601f19601f82011682018060405250810190618d40919061a42a565b905080861115618d4e578095505b5f868611618d5c5785618d5e565b865b90508067ffffffffffffffff811115618d7a57618d79619498565b5b604051908082528060200260200182016040528015618da85781602001602082028036833780820191505090505b5094505b5f811115618f17578080618dbf9061a7de565b9150508680618dcd9061a7de565b97505060025f9054906101000a900473ffffffffffffffffffffffffffffffffffffffff1673ffffffffffffffffffffffffffffffffffffffff16632f79e1026040518060400160405280601681526020017f5041594d454e545f4144564943455f4d414e41474552000000000000000000008152506040518060600160405280602f815260200161af14602f91398b8b604051602001618e6e919061a825565b6040516020818303038152906040526040518563ffffffff1660e01b8152600401618e9c949392919061aa79565b602060405180830381865afa158015618eb7573d5f803e3d5ffd5b505050506040513d601f19601f82011682018060405250810190618edb919061a42a565b856001838851618eeb919061a83f565b618ef5919061a83f565b81518110618f0657618f0561a872565b5b602002602001018181525050618dac565b869350819250505093509350939050565b5f60015f9054906101000a900473ffffffffffffffffffffffffffffffffffffffff1673ffffffffffffffffffffffffffffffffffffffff16633bea27536040518060400160405280601681526020017f5041594d454e545f4144564943455f4d414e41474552000000000000000000008152506040518060400160405280601781526020017f6c6973745f5f7061796d656e744164766963654c6973740000000000000000008152506040518363ffffffff1660e01b8152600401618fef92919061a3e1565b602060405180830381865afa15801561900a573d5f803e3d5ffd5b505050506040513d601f19601f8201168201806040525081019061902e919061a42a565b905090565b6060815f60015f9054906101000a900473ffffffffffffffffffffffffffffffffffffffff1673ffffffffffffffffffffffffffffffffffffffff16633bea27536040518060400160405280601681526020017f5041594d454e545f4144564943455f4d414e41474552000000000000000000008152506040518060400160405280601781526020017f6c6973745f5f7061796d656e744164766963654c6973740000000000000000008152506040518363ffffffff1660e01b81526004016190fd92919061a3e1565b602060405180830381865afa158015619118573d5f803e3d5ffd5b505050506040513d601f19601f8201168201806040525081019061913c919061a42a565b9050808210619180576040517f08c379a00000000000000000000000000000000000000000000000000000000081526004016191779061a49f565b60405180910390fd5b60015f9054906101000a900473ffffffffffffffffffffffffffffffffffffffff1673ffffffffffffffffffffffffffffffffffffffff16632136448c6040518060400160405280601681526020017f5041594d454e545f4144564943455f4d414e41474552000000000000000000008152506040518060400160405280601781526020017f6c6973745f5f7061796d656e744164766963654c697374000000000000000000815250876040518060400160405280600b81526020017f65677053797374656d49640000000000000000000000000000000000000000008152506040518563ffffffff1660e01b815260040161927f949392919061a4bd565b5f60405180830381865afa158015619299573d5f803e3d5ffd5b505050506040513d5f823e3d601f19601f820116820180604052508101906192c1919061a583565b92505050919050565b604051806101e001604052805f77ffffffffffffffffffffffffffffffffffffffffffffffff19168152602001606081526020015f600181111561931157619310619b7c565b5b8152602001606081526020015f81526020015f8152602001606081526020015f8152602001606081526020016060815260200160608152602001606081526020015f81526020015f600181111561936b5761936a619b7c565b5b81526020015f61ffff1681525090565b5f604051905090565b5f80fd5b5f80fd5b5f819050919050565b61939e8161938c565b81146193a8575f80fd5b50565b5f813590506193b981619395565b92915050565b5f602082840312156193d4576193d3619384565b5b5f6193e1848285016193ab565b91505092915050565b5f81519050919050565b5f82825260208201905092915050565b5f5b83811015619421578082015181840152602081019050619406565b5f8484015250505050565b5f601f19601f8301169050919050565b5f619446826193ea565b61945081856193f4565b9350619460818560208601619404565b6194698161942c565b840191505092915050565b5f6020820190508181035f83015261948c818461943c565b905092915050565b5f80fd5b7f4e487b71000000000000000000000000000000000000000000000000000000005f52604160045260245ffd5b6194ce8261942c565b810181811067ffffffffffffffff821117156194ed576194ec619498565b5b80604052505050565b5f6194ff61937b565b905061950b82826194c5565b919050565b5f80fd5b5f7fffffffffffffffff00000000000000000000000000000000000000000000000082169050919050565b61954881619514565b8114619552575f80fd5b50565b5f813590506195638161953f565b92915050565b5f80fd5b5f80fd5b5f67ffffffffffffffff82111561958b5761958a619498565b5b6195948261942c565b9050602081019050919050565b828183375f83830152505050565b5f6195c16195bc84619571565b6194f6565b9050828152602081018484840111156195dd576195dc61956d565b5b6195e88482856195a1565b509392505050565b5f82601f83011261960457619603619569565b5b81356196148482602086016195af565b91505092915050565b60028110619629575f80fd5b50565b5f8135905061963a8161961d565b92915050565b6002811061964c575f80fd5b50565b5f8135905061965d81619640565b92915050565b5f61ffff82169050919050565b61967981619663565b8114619683575f80fd5b50565b5f8135905061969481619670565b92915050565b5f6101e082840312156196b0576196af619494565b5b6196bb6101e06194f6565b90505f6196ca84828501619555565b5f83015250602082013567ffffffffffffffff8111156196ed576196ec619510565b5b6196f9848285016195f0565b602083015250604061970d8482850161962c565b604083015250606082013567ffffffffffffffff81111561973157619730619510565b5b61973d848285016195f0565b6060830152506080619751848285016193ab565b60808301525060a0619765848285016193ab565b60a08301525060c082013567ffffffffffffffff81111561978957619788619510565b5b619795848285016195f0565b60c08301525060e06197a9848285016193ab565b60e08301525061010082013567ffffffffffffffff8111156197ce576197cd619510565b5b6197da848285016195f0565b6101008301525061012082013567ffffffffffffffff811115619800576197ff619510565b5b61980c848285016195f0565b6101208301525061014082013567ffffffffffffffff81111561983257619831619510565b5b61983e848285016195f0565b6101408301525061016082013567ffffffffffffffff81111561986457619863619510565b5b619870848285016195f0565b61016083015250610180619886848285016193ab565b610180830152506101a061989c8482850161964f565b6101a0830152506101c06198b284828501619686565b6101c08301525092915050565b5f80604083850312156198d5576198d4619384565b5b5f6198e2858286016193ab565b925050602083013567ffffffffffffffff81111561990357619902619388565b5b61990f8582860161969a565b9150509250929050565b5f805f606084860312156199305761992f619384565b5b5f61993d86828701619555565b935050602061994e868287016193ab565b925050604061995f868287016193ab565b9150509250925092565b5f81519050919050565b5f82825260208201905092915050565b5f819050602082019050919050565b61999b8161938c565b82525050565b5f6199ac8383619992565b60208301905092915050565b5f602082019050919050565b5f6199ce82619969565b6199d88185619973565b93506199e383619983565b805f5b83811015619a135781516199fa88826199a1565b9750619a05836199b8565b9250506001810190506199e6565b5085935050505092915050565b619a298161938c565b82525050565b5f6060820190508181035f830152619a4781866199c4565b9050619a566020830185619a20565b619a636040830184619a20565b949350505050565b5f602082019050619a7e5f830184619a20565b92915050565b5f8060408385031215619a9a57619a99619384565b5b5f619aa7858286016193ab565b925050602083013567ffffffffffffffff811115619ac857619ac7619388565b5b619ad4858286016195f0565b9150509250929050565b5f60208284031215619af357619af2619384565b5b5f82013567ffffffffffffffff811115619b1057619b0f619388565b5b619b1c8482850161969a565b91505092915050565b619b2e81619514565b82525050565b5f82825260208201905092915050565b5f619b4e826193ea565b619b588185619b34565b9350619b68818560208601619404565b619b718161942c565b840191505092915050565b7f4e487b71000000000000000000000000000000000000000000000000000000005f52602160045260245ffd5b60028110619bba57619bb9619b7c565b5b50565b5f819050619bca82619ba9565b919050565b5f619bd982619bbd565b9050919050565b619be981619bcf565b82525050565b60028110619c0057619bff619b7c565b5b50565b5f819050619c1082619bef565b919050565b5f619c1f82619c03565b9050919050565b619c2f81619c15565b82525050565b619c3e81619663565b82525050565b5f6101e083015f830151619c5a5f860182619b25565b5060208301518482036020860152619c728282619b44565b9150506040830151619c876040860182619be0565b5060608301518482036060860152619c9f8282619b44565b9150506080830151619cb46080860182619992565b5060a0830151619cc760a0860182619992565b5060c083015184820360c0860152619cdf8282619b44565b91505060e0830151619cf460e0860182619992565b50610100830151848203610100860152619d0e8282619b44565b915050610120830151848203610120860152619d2a8282619b44565b915050610140830151848203610140860152619d468282619b44565b915050610160830151848203610160860152619d628282619b44565b915050610180830151619d79610180860182619992565b506101a0830151619d8e6101a0860182619c26565b506101c0830151619da36101c0860182619c35565b508091505092915050565b5f6040820190508181035f830152619dc68185619c44565b9050619dd56020830184619a20565b9392505050565b5f8060408385031215619df257619df1619384565b5b5f83013567ffffffffffffffff811115619e0f57619e0e619388565b5b619e1b858286016195f0565b925050602083013567ffffffffffffffff811115619e3c57619e3b619388565b5b619e48858286016195f0565b9150509250929050565b5f8060408385031215619e6857619e67619384565b5b5f619e7585828601619555565b9250506020619e86858286016193ab565b9150509250929050565b5f805f60608486031215619ea757619ea6619384565b5b5f84013567ffffffffffffffff811115619ec457619ec3619388565b5b619ed0868287016195f0565b9350506020619ee1868287016193ab565b9250506040619ef2868287016193ab565b9150509250925092565b5f8060408385031215619f1257619f11619384565b5b5f619f1f858286016193ab565b9250506020619f308582860161964f565b9150509250929050565b5f8060408385031215619f5057619f4f619384565b5b5f619f5d858286016193ab565b9250506020619f6e858286016193ab565b9150509250929050565b5f81519050919050565b5f82825260208201905092915050565b5f819050602082019050919050565b5f6101e083015f830151619fb75f860182619b25565b5060208301518482036020860152619fcf8282619b44565b9150506040830151619fe46040860182619be0565b5060608301518482036060860152619ffc8282619b44565b915050608083015161a0116080860182619992565b5060a083015161a02460a0860182619992565b5060c083015184820360c086015261a03c8282619b44565b91505060e083015161a05160e0860182619992565b5061010083015184820361010086015261a06b8282619b44565b91505061012083015184820361012086015261a0878282619b44565b91505061014083015184820361014086015261a0a38282619b44565b91505061016083015184820361016086015261a0bf8282619b44565b91505061018083015161a0d6610180860182619992565b506101a083015161a0eb6101a0860182619c26565b506101c083015161a1006101c0860182619c35565b508091505092915050565b5f61a1168383619fa1565b905092915050565b5f602082019050919050565b5f61a13482619f78565b61a13e8185619f82565b93508360208202850161a15085619f92565b805f5b8581101561a18b578484038952815161a16c858261a10b565b945061a1778361a11e565b925060208a0199505060018101905061a153565b50829750879550505050505092915050565b5f6060820190508181035f83015261a1b5818661a12a565b905061a1c46020830185619a20565b61a1d16040830184619a20565b949350505050565b5f6020828403121561a1ee5761a1ed619384565b5b5f61a1fb84828501619555565b91505092915050565b61a20d81619c15565b82525050565b5f60208201905061a2265f83018461a204565b92915050565b5f6020820190508181035f83015261a2448184619c44565b905092915050565b61a25581619bcf565b82525050565b5f60208201905061a26e5f83018461a24c565b92915050565b61a27d81619663565b82525050565b5f60208201905061a2965f83018461a274565b92915050565b5f6020828403121561a2b15761a2b0619384565b5b5f82013567ffffffffffffffff81111561a2ce5761a2cd619388565b5b61a2da848285016195f0565b91505092915050565b5f806040838503121561a2f95761a2f8619384565b5b5f61a306858286016193ab565b925050602061a3178582860161962c565b9150509250929050565b5f806040838503121561a3375761a336619384565b5b5f83013567ffffffffffffffff81111561a3545761a353619388565b5b61a360858286016195f0565b925050602061a371858286016193ab565b9150509250929050565b61a38481619514565b82525050565b5f60208201905061a39d5f83018461a37b565b92915050565b5f806040838503121561a3b95761a3b8619384565b5b5f61a3c6858286016193ab565b925050602061a3d785828601619555565b9150509250929050565b5f6040820190508181035f83015261a3f9818561943c565b9050818103602083015261a40d818461943c565b90509392505050565b5f8151905061a42481619395565b92915050565b5f6020828403121561a43f5761a43e619384565b5b5f61a44c8482850161a416565b91505092915050565b7f496e64657820496e76616c6964000000000000000000000000000000000000005f82015250565b5f61a489600d836193f4565b915061a4948261a455565b602082019050919050565b5f6020820190508181035f83015261a4b68161a47d565b9050919050565b5f6080820190508181035f83015261a4d5818761943c565b9050818103602083015261a4e9818661943c565b905061a4f86040830185619a20565b818103606083015261a50a818461943c565b905095945050505050565b5f61a52761a52284619571565b6194f6565b90508281526020810184848401111561a5435761a54261956d565b5b61a54e848285619404565b509392505050565b5f82601f83011261a56a5761a569619569565b5b815161a57a84826020860161a515565b91505092915050565b5f6020828403121561a5985761a597619384565b5b5f82015167ffffffffffffffff81111561a5b55761a5b4619388565b5b61a5c18482850161a556565b91505092915050565b5f73ffffffffffffffffffffffffffffffffffffffff82169050919050565b5f61a5f38261a5ca565b9050919050565b61a6038161a5e9565b811461a60d575f80fd5b50565b5f8151905061a61e8161a5fa565b92915050565b5f6020828403121561a6395761a638619384565b5b5f61a6468482850161a610565b91505092915050565b7f556e617574686f72697a656420436f6e74726163742043616c6c0000000000005f82015250565b5f61a683601a836193f4565b915061a68e8261a64f565b602082019050919050565b5f6020820190508181035f83015261a6b08161a677565b9050919050565b5f81905092915050565b5f61a6cb826193ea565b61a6d5818561a6b7565b935061a6e5818560208601619404565b80840191505092915050565b5f61a6fc828461a6c1565b915081905092915050565b5f81519050919050565b5f82825260208201905092915050565b5f61a72b8261a707565b61a735818561a711565b935061a745818560208601619404565b61a74e8161942c565b840191505092915050565b5f6080820190508181035f83015261a771818761943c565b9050818103602083015261a785818661943c565b905061a794604083018561a37b565b818103606083015261a7a6818461a721565b905095945050505050565b7f4e487b71000000000000000000000000000000000000000000000000000000005f52601160045260245ffd5b5f61a7e88261938c565b91505f820361a7fa5761a7f961a7b1565b5b600182039050919050565b5f819050919050565b61a81f61a81a8261938c565b61a805565b82525050565b5f61a830828461a80e565b60208201915081905092915050565b5f61a8498261938c565b915061a8548361938c565b925082820390508181111561a86c5761a86b61a7b1565b5b92915050565b7f4e487b71000000000000000000000000000000000000000000000000000000005f52603260045260245ffd5b5f60a0820190508181035f83015261a8b7818861943c565b9050818103602083015261a8cb818761943c565b905061a8da6040830186619a20565b818103606083015261a8ec818561943c565b9050818103608083015261a900818461943c565b90509695505050505050565b5f61a917828561a6c1565b915061a923828461a6c1565b91508190509392505050565b5f819050919050565b5f819050919050565b5f61a95b61a95661a9518461a92f565b61a938565b61938c565b9050919050565b61a96b8161a941565b82525050565b5f6080820190508181035f83015261a989818761943c565b9050818103602083015261a99d818661943c565b9050818103604083015261a9b1818561943c565b905061a9c0606083018461a962565b95945050505050565b5f6080820190508181035f83015261a9e1818761943c565b9050818103602083015261a9f5818661943c565b9050818103604083015261aa09818561943c565b9050818103606083015261aa1d818461943c565b905095945050505050565b5f6080820190508181035f83015261aa40818761943c565b9050818103602083015261aa54818661943c565b905061aa63604083018561a37b565b61aa706060830184619a20565b95945050505050565b5f6080820190508181035f83015261aa91818761943c565b9050818103602083015261aaa5818661943c565b9050818103604083015261aab9818561943c565b9050818103606083015261aacd818461a721565b905095945050505050565b5f60ff82169050919050565b61aaed8161aad8565b82525050565b5f60a0820190508181035f83015261ab0b818861943c565b9050818103602083015261ab1f818761943c565b905061ab2e6040830186619a20565b818103606083015261ab40818561943c565b905061ab4f608083018461aae4565b9695505050505050565b5f60a0820190508181035f83015261ab71818861943c565b9050818103602083015261ab85818761943c565b905061ab946040830186619a20565b818103606083015261aba6818561943c565b905061abb56080830184619a20565b9695505050505050565b61abc88161aad8565b811461abd2575f80fd5b50565b5f8151905061abe38161abbf565b92915050565b5f6020828403121561abfe5761abfd619384565b5b5f61ac0b8482850161abd5565b91505092915050565b5f8151905061ac2281619670565b92915050565b5f6020828403121561ac3d5761ac3c619384565b5b5f61ac4a8482850161ac14565b91505092915050565b5f6060820190508181035f83015261ac6b818661943c565b9050818103602083015261ac7f818561943c565b905061ac8e604083018461a37b565b949350505050565b5f6060820190508181035f83015261acae818661943c565b9050818103602083015261acc2818561943c565b9050818103604083015261acd6818461943c565b9050949350505050565b5f60a0820190508181035f83015261acf8818861943c565b9050818103602083015261ad0c818761943c565b9050818103604083015261ad20818661943c565b9050818103606083015261ad34818561a721565b905061ad436080830184619a20565b9695505050505050565b5f61ad578261938c565b915061ad628361938c565b925082820190508082111561ad7a5761ad7961a7b1565b5b92915050565b5f60a0820190508181035f83015261ad98818861943c565b9050818103602083015261adac818761943c565b905061adbb6040830186619a20565b818103606083015261adcd818561943c565b905061addc608083018461a274565b9695505050505050565b5f8151905061adf48161953f565b92915050565b5f6020828403121561ae0f5761ae0e619384565b5b5f61ae1c8482850161ade6565b91505092915050565b5f60a0820190508181035f83015261ae3d818861943c565b9050818103602083015261ae51818761943c565b905061ae606040830186619a20565b818103606083015261ae72818561943c565b905061ae81608083018461a37b565b9695505050505050565b5f60a0820190508181035f83015261aea3818861943c565b9050818103602083015261aeb7818761943c565b905061aec6604083018661a37b565b818103606083015261aed8818561a721565b905061aee76080830184619a20565b969550505050505056fe6d61705f5f7061796d656e74416476696365496e6465784c697374427945677049646d61705f5f7061796d656e74416476696365496e6465784c697374427950726f637572696e67456e746974794769646d61705f5f7061796d656e74416476696365496e6465784c697374427956656e646f724769646d61705f5f7061796d656e74416476696365496e6465784c69737442795061796d656e74416476696365416e6445677049646d61705f5f7061796d656e744164766963655265664e756d62657242794567704964a26469706673582212201884408529e5dd0ba1cb42aacacdeea62ea9315e8be89cd07906ba29fc0be77264736f6c63430008140033",
  "immutableReferences": {},
  "source": "pragma solidity ^0.8.0;\npragma experimental ABIEncoderV2;\n\nimport \"./MemberStorage.sol\";\nimport \"./ListStorage.sol\";\nimport \"./MapStorage.sol\";\nimport \"./QuireContracts.sol\";\n\ncontract PaymentAdviceStructs{\n\n    uint16 constant internal __VERSION__ = 1;\n\n    enum PaymentType {OPEN, ENCRYPTED}\n\n    enum FormStatus {OUTDATED, ACTIVE}\n\n    struct PaymentAdvice {\n        bytes8 uid;\n        string egpSystemId;\n        PaymentType paymentType;\n        string paymentAdviceReferenceNumber;\n        uint validityPeriodDays;\n        uint bankGuaranteeClaimExpiryDate;\n        string currency;\n        uint bankGuaranteeAmount;\n        string vendorGid;\n        string vendorName;\n        string procuringEntityGid;\n        string procuringEntityName;\n        uint amendment;\n        FormStatus formStatus;\n        uint16 version;\n    }\n\n    string constant internal propNamePaymentAdviceUid = \"uid\";\n    string constant internal propNamePaymentAdviceEgpSystemId = \"egpSystemId\";\n    string constant internal propNamePaymentAdvicePaymentType = \"paymentType\";\n    string constant internal propNamePaymentAdvicePaymentAdviceReferenceNumber = \"paymentAdviceReferenceNumber\";\n    string constant internal propNamePaymentAdviceValidityPeriodDays = \"validityPeriodDays\";\n    string constant internal propNamePaymentAdviceBankGuaranteeClaimExpiryDate = \"bankGuaranteeClaimExpiryDate\";\n    string constant internal propNamePaymentAdviceBankGuaranteeCurrency  = \"currency\";\n    string constant internal propNamePaymentAdviceBankGuaranteeAmount = \"bankGuaranteeAmount\";\n    string constant internal propNamePaymentAdviceVendorGid = \"vendorGid\";\n    string constant internal propNamePaymentAdviceVendorName = \"vendorName\";\n    string constant internal propNamePaymentAdviceProcuringEntityGid = \"procuringEntityGid\";\n    string constant internal propNamePaymentAdviceProcuringEntityName = \"procuringEntityName\";\n    string constant internal propNamePaymentAdviceAmendment = \"amendment\";\n    string constant internal propNamePaymentAdviceFormStatus = \"formStatus\";\n    string constant internal propNamePaymentAdviceVersion = \"version\";\n\n}\n\n\ncontract PaymentAdviceModel is PaymentAdviceStructs {\n    \n    MemberStorage private Member;\n    ListStorage private List;\n    MapStorage private Map;\n    QuireContracts private quireContracts;\n    \n    constructor(\n        address _Member,\n        address _List,\n        address _Map,\n        address _quireContracts\n    ){\n        Member = MemberStorage(_Member);\n        List = ListStorage(_List);\n        Map = MapStorage(_Map);\n        quireContracts = QuireContracts(_quireContracts);\n    }\n\n    string constant internal KEY = \"PAYMENT_ADVICE_MANAGER\";\n    string constant internal keyListLength = \"__length\";\n\n\n    string constant internal paymentAdviceList = \"list__paymentAdviceList\";\n    string constant internal amendmentPaymentAdviceList = \"list__amendmentPaymentAdviceList\";\n    string constant internal paymentAdviceIndex = \"map__paymentAdviceIndex\";\n    string constant internal amendmentPaymentAdviceIndex = \"map__amendmentPaymentAdviceIndex\";\n    string constant internal paymentAdviceRefNumber = \"map__paymentAdviceRefNumber\";\n    string constant internal paymentAdviceRefNumberByEgpId = \"map__paymentAdviceRefNumberByEgpId\";\n    string constant internal paymentAdviceIndexListByPaymentAdviceAndEgpId = \"map__paymentAdviceIndexListByPaymentAdviceAndEgpId\";\n    string constant internal paymentAdviceIndexListByVendorGid = \"map__paymentAdviceIndexListByVendorGid\";\n    string constant internal paymentAdviceIndexListByEgpId = \"map__paymentAdviceIndexListByEgpId\";\n    string constant internal paymentAdviceIndexListByProcuringEntityGid = \"map__paymentAdviceIndexListByProcuringEntityGid\";\n\n\n    modifier onlyPaymentAdviceManager() {\n        require(msg.sender==quireContracts.getRegisteredContract(KEY), \"Unauthorized Contract Call\");\n        _;\n    }\n\n    modifier validPaymentAdviceListIndex(uint256 _index){\n        uint256 length = List.getLength(KEY, paymentAdviceList);\n        require(_index < length, \"Index Invalid\");\n        _;\n    }\n\n   // Payment Advice \n\n    function getPaymentAdviceIndex(bytes8 _uid) public view returns (uint256) {\n        return Map.getBytes8ToUint(KEY, paymentAdviceIndex, _uid);\n    }\n\n    function getPaymentAdviceIndexListLengthByPaymentAdviceAndEgpId(bytes8 _uid) public view \n    returns(uint) {\n        return Map.getByKeyBytes8ToUint(KEY, paymentAdviceIndexListByPaymentAdviceAndEgpId, _uid, abi.encodePacked(keyListLength));\n    }\n\n    function getPaymentAdviceIndexListByPaymentAdviceAndEgpId(bytes8 _uid, uint _toExcluded, uint _count) public view \n    returns (uint256[] memory indexList_, uint fromIncluded_, uint length_) {\n        uint length = Map.getByKeyBytes8ToUint(KEY, paymentAdviceIndexListByPaymentAdviceAndEgpId, _uid, abi.encodePacked(keyListLength));\n        if (_toExcluded > length) {\n            _toExcluded = length;\n        }\n        uint itr = _count>_toExcluded ? _toExcluded:_count;\n        indexList_ = new uint[](itr);\n        while (itr>0) {\n            itr--;\n            _toExcluded--;\n            indexList_[indexList_.length-itr-1] = Map.getByKeyBytes8ToUint(KEY, paymentAdviceIndexListByPaymentAdviceAndEgpId, _uid, abi.encodePacked(_toExcluded));\n        }\n        fromIncluded_ = _toExcluded;\n        length_ = length;\n    }\n\n    function getPaymentAdviceIndexListByVendorGid(string memory _uid, uint _toExcluded, uint _count) public view \n    returns (uint256[] memory indexList_, uint fromIncluded_, uint length_) {\n        uint length = Map.getByKeyStringToUint(KEY, paymentAdviceIndexListByVendorGid, _uid, abi.encodePacked(keyListLength));\n        if (_toExcluded > length) {\n            _toExcluded = length;\n        }\n        uint itr = _count>_toExcluded ? _toExcluded:_count;\n        indexList_ = new uint256[](itr);\n        while (itr>0) {\n            itr--;\n            _toExcluded--;\n            indexList_[indexList_.length-itr-1] = Map.getByKeyStringToUint(KEY, paymentAdviceIndexListByVendorGid, _uid, abi.encodePacked(_toExcluded));\n        }\n        fromIncluded_ = _toExcluded;\n        length_ = length;\n    }\n\n    function getPaymentAdviceIndexListByEgpId(string memory _uid, uint _toExcluded, uint _count) public view \n    returns (uint256[] memory indexList_, uint fromIncluded_, uint length_) {\n        uint length = Map.getByKeyStringToUint(KEY, paymentAdviceIndexListByEgpId, _uid, abi.encodePacked(keyListLength));\n        if (_toExcluded > length) {\n            _toExcluded = length;\n        }\n        uint itr = _count>_toExcluded ? _toExcluded:_count;\n        indexList_ = new uint256[](itr);\n        while (itr>0) {\n            itr--;\n            _toExcluded--;\n            indexList_[indexList_.length-itr-1] = Map.getByKeyStringToUint(KEY, paymentAdviceIndexListByEgpId, _uid, abi.encodePacked(_toExcluded));\n        }\n        fromIncluded_ = _toExcluded;\n        length_ = length;\n    }\n\n    function getPaymentAdviceIndexListByProcuringEntityGid(string memory _gid, uint _toExcluded, uint _count) public view \n    returns (uint256[] memory indexList_, uint fromIncluded_, uint length_) {\n        uint length = Map.getByKeyStringToUint(KEY, paymentAdviceIndexListByProcuringEntityGid, _gid, abi.encodePacked(keyListLength));\n        if (_toExcluded > length) {\n            _toExcluded = length;\n        }\n        uint itr = _count>_toExcluded ? _toExcluded:_count;\n        indexList_ = new uint256[](itr);\n        while (itr>0) {\n            itr--;\n            _toExcluded--;\n            indexList_[indexList_.length-itr-1] = Map.getByKeyStringToUint(KEY, paymentAdviceIndexListByProcuringEntityGid, _gid, abi.encodePacked(_toExcluded));\n        }\n        fromIncluded_ = _toExcluded;\n        length_ = length;\n    }\n\n    function getPaymentAdviceListLength() public view returns (uint256) {\n        return List.getLength(KEY, paymentAdviceList);\n    }\n\n    function getPaymentAdviceByIndex(uint256 _index)\n    public\n    view\n    validPaymentAdviceListIndex(_index)\n    returns (PaymentAdvice memory paymentAdvice_)\n    {\n        paymentAdvice_.uid = getPaymentAdviceUid(_index);\n        paymentAdvice_.egpSystemId = getPaymentAdviceEgpSystemId(_index);\n        paymentAdvice_.paymentType = getPaymentAdvicePaymentType(_index);\n        paymentAdvice_.paymentAdviceReferenceNumber = getPaymentAdvicePaymentAdviceReferenceNumber(_index);\n        paymentAdvice_.validityPeriodDays = getPaymentAdviceValidityPeriodDays(_index);\n        paymentAdvice_.bankGuaranteeClaimExpiryDate = getPaymentAdviceBankGuaranteeClaimExpiryDate(_index);\n        paymentAdvice_.currency = getPaymentAdviceBankGuaranteeCurrency(_index);\n        paymentAdvice_.bankGuaranteeAmount = getPaymentAdviceBankGuaranteeAmount(_index);\n        paymentAdvice_.vendorGid = getPaymentAdviceVendorGid(_index);\n        paymentAdvice_.vendorName = getPaymentAdviceVendorName(_index);\n        paymentAdvice_.procuringEntityGid = getPaymentAdviceProcuringEntityGid(_index);\n        paymentAdvice_.procuringEntityName = getPaymentAdviceProcuringEntityName(_index);\n        paymentAdvice_.amendment = getPaymentAdviceAmendment(_index);\n        paymentAdvice_.formStatus = getPaymentAdviceFormStatus(_index);\n        paymentAdvice_.version = getPaymentAdviceVersion(_index);\n    }\n\n    function getAllPaymentAdvice(uint _toExcluded, uint _count) external view \n    returns(PaymentAdvice[] memory _paymentAdvice, uint fromIncluded_, uint length_) {\n        uint length = getPaymentAdviceListLength();\n        if (_toExcluded > length) {\n            _toExcluded = length;\n        }\n        uint itr = _count>_toExcluded ? _toExcluded:_count;\n        _paymentAdvice = new PaymentAdvice[](itr);\n        while (itr>0) {\n            itr--;\n            _toExcluded--;\n            _paymentAdvice[_paymentAdvice.length-itr-1] = getPaymentAdviceByIndex(_toExcluded);\n        }\n        fromIncluded_ = _toExcluded;\n        length_ = length;\n    }\n\n    function getPaymentAdviceUid(uint256 _index) public view \n    validPaymentAdviceListIndex(_index) \n    returns(bytes8) {\n        return List.getPropBytes8(KEY, paymentAdviceList, _index, propNamePaymentAdviceUid);\n    }\n\n    function getPaymentAdviceEgpSystemId(uint256 _index) public view \n    validPaymentAdviceListIndex(_index) \n    returns(string memory) {\n        return List.getPropString(KEY, paymentAdviceList, _index, propNamePaymentAdviceEgpSystemId);\n    }\n\n    function getPaymentAdvicePaymentType(uint256 _index) public view \n    validPaymentAdviceListIndex(_index) \n    returns(PaymentType) {\n        return PaymentType(List.getPropUint8(KEY, paymentAdviceList, _index, propNamePaymentAdvicePaymentType));\n    }\n\n    function getPaymentAdvicePaymentAdviceReferenceNumber(uint256 _index) public view \n    validPaymentAdviceListIndex(_index) \n    returns(string memory) {\n        return List.getPropString(KEY, paymentAdviceList, _index, propNamePaymentAdvicePaymentAdviceReferenceNumber);\n    }\n\n    function getPaymentAdviceValidityPeriodDays(uint256 _index) public view \n    validPaymentAdviceListIndex(_index) \n    returns(uint) {\n        return List.getPropUint(KEY, paymentAdviceList, _index, propNamePaymentAdviceValidityPeriodDays);\n    }\n\n    function getPaymentAdviceBankGuaranteeClaimExpiryDate(uint256 _index) public view \n    validPaymentAdviceListIndex(_index) \n    returns(uint) {\n        return List.getPropUint(KEY, paymentAdviceList, _index, propNamePaymentAdviceBankGuaranteeClaimExpiryDate);\n    }\n\n    function getPaymentAdviceBankGuaranteeCurrency(uint256 _index) public view \n    validPaymentAdviceListIndex(_index) \n    returns(string memory) {\n        return List.getPropString(KEY, paymentAdviceList, _index, propNamePaymentAdviceBankGuaranteeCurrency);\n    }\n\n    function getPaymentAdviceBankGuaranteeAmount(uint256 _index) public view \n    validPaymentAdviceListIndex(_index) \n    returns(uint) {\n        return List.getPropUint(KEY, paymentAdviceList, _index, propNamePaymentAdviceBankGuaranteeAmount);\n    }\n\n    function getPaymentAdviceVendorGid(uint256 _index) public view \n    validPaymentAdviceListIndex(_index) \n    returns(string memory) {\n        return List.getPropString(KEY, paymentAdviceList, _index, propNamePaymentAdviceVendorGid);\n    }\n\n    function getPaymentAdviceVendorName(uint256 _index) public view \n    validPaymentAdviceListIndex(_index) \n    returns(string memory) {\n        return List.getPropString(KEY, paymentAdviceList, _index, propNamePaymentAdviceVendorName);\n    }\n\n    function getPaymentAdviceProcuringEntityGid(uint256 _index) public view \n    validPaymentAdviceListIndex(_index) \n    returns(string memory) {\n        return List.getPropString(KEY, paymentAdviceList, _index, propNamePaymentAdviceProcuringEntityGid);\n    }\n\n    function getPaymentAdviceProcuringEntityName(uint256 _index) public view \n    validPaymentAdviceListIndex(_index) \n    returns(string memory) {\n        return List.getPropString(KEY, paymentAdviceList, _index, propNamePaymentAdviceProcuringEntityName);\n    }\n\n    function getPaymentAdviceAmendment(uint256 _index) public view \n    validPaymentAdviceListIndex(_index) \n    returns(uint) {\n        return List.getPropUint(KEY, paymentAdviceList, _index, propNamePaymentAdviceAmendment);\n    }\n\n    function getPaymentAdviceFormStatus(uint256 _index) public view \n    validPaymentAdviceListIndex(_index) \n    returns(FormStatus) {\n        return FormStatus(List.getPropUint8(KEY, paymentAdviceList, _index, propNamePaymentAdviceFormStatus));\n    }\n\n\n    function getPaymentAdviceVersion(uint256 _index) public view \n    validPaymentAdviceListIndex(_index) \n    returns(uint16) {\n        return List.getPropUint16(KEY, paymentAdviceList, _index, propNamePaymentAdviceVersion);\n    }\n\n    function getMapPaymentAdviceReferenceNumber (string memory _paymentAdviceReferenceNumber) public view\n    returns(uint)\n    {\n        return (Map.getStringToUint(KEY, paymentAdviceRefNumber, _paymentAdviceReferenceNumber));\n    }\n\n    function getMapPaymentAdviceReferenceNumberToEgpId (string memory _paymentAdviceReferenceNumber) public view\n    returns(string memory)\n    {\n        return (Map.getStringToString(KEY, paymentAdviceRefNumberByEgpId, _paymentAdviceReferenceNumber));\n    }\n\n    function getPreviousIndex(string memory _paymentAdviceReferenceNumber, string memory _egpSystemId) public view \n    returns (uint256) {\n        bytes8 _uid = bytes8(keccak256(abi.encodePacked(_paymentAdviceReferenceNumber,_egpSystemId)));\n        uint _len = Map.getByKeyBytes8ToUint(KEY, paymentAdviceIndexListByPaymentAdviceAndEgpId, _uid, abi.encodePacked(keyListLength));\n        uint256 _index = Map.getByKeyBytes8ToUint(KEY, paymentAdviceIndexListByPaymentAdviceAndEgpId, _uid, abi.encodePacked(_len-1));\n        return _index;  \n    }\n\n\n\n    // Payment Advice\n    function setPaymentAdviceIndex(bytes8 _uid, uint _value) public \n    onlyPaymentAdviceManager\n    {\n        Map.setBytes8ToUint(KEY, paymentAdviceIndex, _uid, _value);\n    }\n\n\n    function updatePreviousPAtoOutdated(uint256 _index) public\n    onlyPaymentAdviceManager \n    validPaymentAdviceListIndex(_index) {\n        // setPaymentAdviceFormStatus(_index, FormStatus.OUTDATED);\n        List.setPropUint8(KEY, paymentAdviceList, _index, propNamePaymentAdviceFormStatus, uint8(FormStatus.OUTDATED));\n\n\n    }\n\n\n    function addPaymentAdviceIndexListByPaymentAdviceAndEgpId(bytes8 _uid, uint _value) public \n    onlyPaymentAdviceManager{\n        uint length = Map.getByKeyBytes8ToUint(KEY, paymentAdviceIndexListByPaymentAdviceAndEgpId, _uid, abi.encodePacked(keyListLength));\n        Map.setByKeyBytes8ToUint(KEY, paymentAdviceIndexListByPaymentAdviceAndEgpId, _uid, abi.encodePacked(length), _value);\n        Map.setByKeyBytes8ToUint(KEY, paymentAdviceIndexListByPaymentAdviceAndEgpId, _uid, abi.encodePacked(keyListLength), 1+length);\n    }\n\n    function addPaymentAdviceIndexListByVendorGid(string memory _vendorGid, uint _value) public \n    onlyPaymentAdviceManager {\n        uint length = Map.getByKeyStringToUint(KEY, paymentAdviceIndexListByVendorGid, _vendorGid, abi.encodePacked(keyListLength));\n        Map.setByKeyStringToUint(KEY, paymentAdviceIndexListByVendorGid, _vendorGid, abi.encodePacked(length), _value);\n        Map.setByKeyStringToUint(KEY, paymentAdviceIndexListByVendorGid, _vendorGid, abi.encodePacked(keyListLength), 1+length);\n    }\n\n    function addPaymentAdviceIndexListByEgpId(string memory _egpId, uint _value) public \n    onlyPaymentAdviceManager {\n        uint length = Map.getByKeyStringToUint(KEY, paymentAdviceIndexListByEgpId, _egpId, abi.encodePacked(keyListLength));\n        Map.setByKeyStringToUint(KEY, paymentAdviceIndexListByEgpId, _egpId, abi.encodePacked(length), _value);\n        Map.setByKeyStringToUint(KEY, paymentAdviceIndexListByEgpId, _egpId, abi.encodePacked(keyListLength), 1+length);\n    }\n\n    function addPaymentAdviceIndexListByProcuringEntityGid(string memory _gid, uint _value) public \n    onlyPaymentAdviceManager {\n        uint length = Map.getByKeyStringToUint(KEY, paymentAdviceIndexListByProcuringEntityGid, _gid, abi.encodePacked(keyListLength));\n        Map.setByKeyStringToUint(KEY, paymentAdviceIndexListByProcuringEntityGid, _gid, abi.encodePacked(length), _value);\n        Map.setByKeyStringToUint(KEY, paymentAdviceIndexListByProcuringEntityGid, _gid, abi.encodePacked(keyListLength), 1+length);\n    }\n\n    function incPaymentAdviceListLength() public\n    onlyPaymentAdviceManager \n    {\n        List.incLength(KEY, paymentAdviceList);\n    }\n    \n\n    function addPaymentAdvice(uint _index, PaymentAdvice memory _paymentAdvice) public\n    onlyPaymentAdviceManager\n    validPaymentAdviceListIndex(_index) {\n        setPaymentAdviceUid(_index, _paymentAdvice.uid);\n        setPaymentAdviceEgpSystemId(_index, _paymentAdvice.egpSystemId);\n        setPaymentAdvicePaymentType(_index, _paymentAdvice.paymentType);\n        setPaymentAdvicePaymentAdviceReferenceNumber(_index, _paymentAdvice.paymentAdviceReferenceNumber);\n        setPaymentAdviceValidityPeriodDays(_index, _paymentAdvice.validityPeriodDays);\n        setPaymentAdviceBankGuaranteeClaimExpiryDate(_index, _paymentAdvice.bankGuaranteeClaimExpiryDate);\n        setPaymentAdviceBankGuaranteeCurrency(_index, _paymentAdvice.currency);\n        setPaymentAdviceBankGuaranteeAmount(_index, _paymentAdvice.bankGuaranteeAmount);\n        setPaymentAdviceVendorGid(_index, _paymentAdvice.vendorGid);\n        setPaymentAdviceVendorName(_index, _paymentAdvice.vendorName);\n        setPaymentAdviceProcuringEntityGid(_index, _paymentAdvice.procuringEntityGid);\n        setPaymentAdviceProcuringEntityName(_index, _paymentAdvice.procuringEntityName);\n        setPaymentAdviceAmendment(_index, _paymentAdvice.amendment);\n        setPaymentAdviceFormStatus(_index, FormStatus.ACTIVE);\n        setPaymentAdviceVersion(_index);\n    }\n\n\n    function generatePaymentAdvice (PaymentAdvice memory _paymentAdvice) public view\n    onlyPaymentAdviceManager \n    returns (PaymentAdvice memory, uint) {\n        uint256 _PrevIndex = getPreviousIndex(_paymentAdvice.paymentAdviceReferenceNumber,_paymentAdvice.egpSystemId);\n        _paymentAdvice.paymentType = getPaymentAdvicePaymentType(_PrevIndex);\n        _paymentAdvice.vendorGid = getPaymentAdviceVendorGid(_PrevIndex);\n        _paymentAdvice.vendorName = getPaymentAdviceVendorName(_PrevIndex);\n        _paymentAdvice.procuringEntityGid = getPaymentAdviceProcuringEntityGid(_PrevIndex);\n        _paymentAdvice.procuringEntityName = getPaymentAdviceProcuringEntityName(_PrevIndex);\n        _paymentAdvice.amendment = getPaymentAdviceIndexListLengthByPaymentAdviceAndEgpId(bytes8(keccak256(abi.encodePacked(_paymentAdvice.paymentAdviceReferenceNumber,_paymentAdvice.egpSystemId))));\n        _paymentAdvice.formStatus = FormStatus.ACTIVE;\n        return (_paymentAdvice, _PrevIndex);\n    }\n\n    function setPaymentAdviceUid(uint256 _index, bytes8 _uid) public \n    onlyPaymentAdviceManager {\n        List.setPropBytes8(KEY, paymentAdviceList, _index, propNamePaymentAdviceUid, _uid);\n    }\n\n    function setPaymentAdviceEgpSystemId(uint256 _index, string memory _egpSystemId) public \n    onlyPaymentAdviceManager {\n        List.setPropString(KEY, paymentAdviceList, _index, propNamePaymentAdviceEgpSystemId, _egpSystemId);\n    }\n\n    function setPaymentAdvicePaymentType(uint256 _index, PaymentType _paymentType) public \n    onlyPaymentAdviceManager {\n        List.setPropUint8(KEY, paymentAdviceList, _index, propNamePaymentAdvicePaymentType, uint8(_paymentType));\n    }\n\n    function setPaymentAdvicePaymentAdviceReferenceNumber(uint256 _index, string memory _paymentAdviceReferenceNumber) public \n    onlyPaymentAdviceManager {\n        List.setPropString(KEY, paymentAdviceList, _index, propNamePaymentAdvicePaymentAdviceReferenceNumber, _paymentAdviceReferenceNumber);\n    }\n\n    function setPaymentAdviceValidityPeriodDays(uint256 _index, uint _validityPeriodDays) public \n    onlyPaymentAdviceManager {\n        if(0==_validityPeriodDays){\n            _validityPeriodDays = 180;\n        }\n        List.setPropUint(KEY, paymentAdviceList, _index, propNamePaymentAdviceValidityPeriodDays, _validityPeriodDays);\n    }\n\n    function setPaymentAdviceBankGuaranteeClaimExpiryDate(uint256 _index, uint _bankGuaranteeClaimExpiryDate) public \n    onlyPaymentAdviceManager {\n        List.setPropUint(KEY, paymentAdviceList, _index, propNamePaymentAdviceBankGuaranteeClaimExpiryDate, _bankGuaranteeClaimExpiryDate);\n    }\n\n    function setPaymentAdviceBankGuaranteeCurrency(uint256 _index, string memory _currency) public \n    onlyPaymentAdviceManager {\n        List.setPropString(KEY, paymentAdviceList, _index, propNamePaymentAdviceBankGuaranteeCurrency, _currency);\n    }\n\n    function setPaymentAdviceBankGuaranteeAmount(uint256 _index, uint _bankGuaranteeAmount) public \n    onlyPaymentAdviceManager {\n        List.setPropUint(KEY, paymentAdviceList, _index, propNamePaymentAdviceBankGuaranteeAmount, _bankGuaranteeAmount);\n    }\n\n    function setPaymentAdviceVendorGid(uint256 _index, string memory _vendorGid) public \n    onlyPaymentAdviceManager {\n        List.setPropString(KEY, paymentAdviceList, _index, propNamePaymentAdviceVendorGid, _vendorGid);\n    }\n\n    function setPaymentAdviceVendorName(uint256 _index, string memory _vendorName) public \n    onlyPaymentAdviceManager {\n        List.setPropString(KEY, paymentAdviceList, _index, propNamePaymentAdviceVendorName, _vendorName);\n    }\n\n    function setPaymentAdviceProcuringEntityGid(uint256 _index, string memory _procuringEntityGid) public \n    onlyPaymentAdviceManager {\n        List.setPropString(KEY, paymentAdviceList, _index, propNamePaymentAdviceProcuringEntityGid, _procuringEntityGid);\n    }\n\n    function setPaymentAdviceProcuringEntityName(uint256 _index, string memory _procuringEntityName) public \n    onlyPaymentAdviceManager {\n        List.setPropString(KEY, paymentAdviceList, _index, propNamePaymentAdviceProcuringEntityName, _procuringEntityName);\n    }\n\n    function setPaymentAdviceAmendment(uint256 _index, uint _amendment) public\n    onlyPaymentAdviceManager \n    {\n        List.setPropUint(KEY, paymentAdviceList, _index, propNamePaymentAdviceAmendment, _amendment);\n    }\n\n    function setPaymentAdviceFormStatus(uint256 _index, FormStatus _formStatus) public \n    onlyPaymentAdviceManager\n    {\n        List.setPropUint8(KEY, paymentAdviceList, _index, propNamePaymentAdviceFormStatus, uint8(_formStatus));\n    }\n\n    function setPaymentAdviceVersion(uint256 _index) public\n    onlyPaymentAdviceManager \n    {\n        List.setPropUint16(KEY, paymentAdviceList, _index, propNamePaymentAdviceVersion, __VERSION__);\n    }\n\n    function addMapPaymentAdviceReferenceNumber (string memory _paymentAdviceReferenceNumber, string memory _egpSystemId) public\n    onlyPaymentAdviceManager\n    {\n        Map.setStringToUint(KEY, paymentAdviceRefNumber, _paymentAdviceReferenceNumber, 1);\n        Map.setStringToString(KEY, paymentAdviceRefNumberByEgpId, _paymentAdviceReferenceNumber, _egpSystemId);\n    }\n\n}\n",
  "sourcePath": "/home/raghupathi/Desktop/javaClass/javaClass/contracts/PaymentAdviceModel.sol",
  "compiler": {
    "name": "solc",
    "version": "0.8.20+commit.a1b79de6.Emscripten.clang"
  },
  "schemaVersion": "3.4.14",
  "updatedAt": "2023-06-02T09:43:22.637Z",
  "devdoc": {
    "kind": "dev",
    "methods": {},
    "version": 1
  },
  "userdoc": {
    "kind": "user",
    "methods": {},
    "version": 1
  }
}