{
  "contractName": "PaymentAdviceManager",
  "abi": [
    {
      "inputs": [
        {
          "internalType": "address",
          "name": "_permIntf",
          "type": "address"
        },
        {
          "internalType": "address",
          "name": "_vendorManager",
          "type": "address"
        },
        {
          "internalType": "address",
          "name": "_procuringEntityManager",
          "type": "address"
        },
        {
          "internalType": "address",
          "name": "_paymentAdviceModel",
          "type": "address"
        },
        {
          "internalType": "address",
          "name": "_vcnFunctionalManager",
          "type": "address"
        }
      ],
      "stateMutability": "nonpayable",
      "type": "constructor"
    },
    {
      "anonymous": false,
      "inputs": [
        {
          "indexed": false,
          "internalType": "bytes8",
          "name": "_paUid",
          "type": "bytes8"
        },
        {
          "indexed": false,
          "internalType": "string",
          "name": "_paymentAdviceReferenceNumber",
          "type": "string"
        },
        {
          "indexed": false,
          "internalType": "string",
          "name": "_peGid",
          "type": "string"
        },
        {
          "indexed": false,
          "internalType": "uint256",
          "name": "_paAmendment",
          "type": "uint256"
        }
      ],
      "name": "AmendmentPaymentAdviceRegistered",
      "type": "event"
    },
    {
      "anonymous": false,
      "inputs": [
        {
          "indexed": false,
          "internalType": "bytes8",
          "name": "_paUid",
          "type": "bytes8"
        },
        {
          "indexed": false,
          "internalType": "string",
          "name": "_paymentAdviceReferenceNumber",
          "type": "string"
        },
        {
          "indexed": false,
          "internalType": "string",
          "name": "_peGid",
          "type": "string"
        }
      ],
      "name": "PaymentAdviceRegistered",
      "type": "event"
    },
    {
      "inputs": [
        {
          "components": [
            {
              "internalType": "bytes8",
              "name": "uid",
              "type": "bytes8"
            },
            {
              "internalType": "string",
              "name": "egpSystemId",
              "type": "string"
            },
            {
              "internalType": "enum PaymentAdviceStructs.PaymentType",
              "name": "paymentType",
              "type": "uint8"
            },
            {
              "internalType": "string",
              "name": "paymentAdviceReferenceNumber",
              "type": "string"
            },
            {
              "internalType": "uint256",
              "name": "validityPeriodDays",
              "type": "uint256"
            },
            {
              "internalType": "uint256",
              "name": "bankGuaranteeClaimExpiryDate",
              "type": "uint256"
            },
            {
              "internalType": "string",
              "name": "currency",
              "type": "string"
            },
            {
              "internalType": "uint256",
              "name": "bankGuaranteeAmount",
              "type": "uint256"
            },
            {
              "internalType": "string",
              "name": "vendorGid",
              "type": "string"
            },
            {
              "internalType": "string",
              "name": "vendorName",
              "type": "string"
            },
            {
              "internalType": "string",
              "name": "procuringEntityGid",
              "type": "string"
            },
            {
              "internalType": "string",
              "name": "procuringEntityName",
              "type": "string"
            },
            {
              "internalType": "uint256",
              "name": "amendment",
              "type": "uint256"
            },
            {
              "internalType": "enum PaymentAdviceStructs.FormStatus",
              "name": "formStatus",
              "type": "uint8"
            },
            {
              "internalType": "uint16",
              "name": "version",
              "type": "uint16"
            }
          ],
          "internalType": "struct PaymentAdviceStructs.PaymentAdvice",
          "name": "_paymentAdvice",
          "type": "tuple"
        }
      ],
      "name": "registerPaymentAdvice",
      "outputs": [],
      "stateMutability": "nonpayable",
      "type": "function"
    },
    {
      "inputs": [
        {
          "components": [
            {
              "internalType": "bytes8",
              "name": "uid",
              "type": "bytes8"
            },
            {
              "internalType": "string",
              "name": "egpSystemId",
              "type": "string"
            },
            {
              "internalType": "enum PaymentAdviceStructs.PaymentType",
              "name": "paymentType",
              "type": "uint8"
            },
            {
              "internalType": "string",
              "name": "paymentAdviceReferenceNumber",
              "type": "string"
            },
            {
              "internalType": "uint256",
              "name": "validityPeriodDays",
              "type": "uint256"
            },
            {
              "internalType": "uint256",
              "name": "bankGuaranteeClaimExpiryDate",
              "type": "uint256"
            },
            {
              "internalType": "string",
              "name": "currency",
              "type": "string"
            },
            {
              "internalType": "uint256",
              "name": "bankGuaranteeAmount",
              "type": "uint256"
            },
            {
              "internalType": "string",
              "name": "vendorGid",
              "type": "string"
            },
            {
              "internalType": "string",
              "name": "vendorName",
              "type": "string"
            },
            {
              "internalType": "string",
              "name": "procuringEntityGid",
              "type": "string"
            },
            {
              "internalType": "string",
              "name": "procuringEntityName",
              "type": "string"
            },
            {
              "internalType": "uint256",
              "name": "amendment",
              "type": "uint256"
            },
            {
              "internalType": "enum PaymentAdviceStructs.FormStatus",
              "name": "formStatus",
              "type": "uint8"
            },
            {
              "internalType": "uint16",
              "name": "version",
              "type": "uint16"
            }
          ],
          "internalType": "struct PaymentAdviceStructs.PaymentAdvice",
          "name": "_paymentAdvice",
          "type": "tuple"
        }
      ],
      "name": "amendedPaymentAdvice",
      "outputs": [],
      "stateMutability": "nonpayable",
      "type": "function"
    },
    {
      "inputs": [
        {
          "internalType": "uint256",
          "name": "_toExcluded",
          "type": "uint256"
        },
        {
          "internalType": "uint256",
          "name": "_count",
          "type": "uint256"
        }
      ],
      "name": "getAllPaymentAdvice",
      "outputs": [
        {
          "components": [
            {
              "internalType": "bytes8",
              "name": "uid",
              "type": "bytes8"
            },
            {
              "internalType": "string",
              "name": "egpSystemId",
              "type": "string"
            },
            {
              "internalType": "enum PaymentAdviceStructs.PaymentType",
              "name": "paymentType",
              "type": "uint8"
            },
            {
              "internalType": "string",
              "name": "paymentAdviceReferenceNumber",
              "type": "string"
            },
            {
              "internalType": "uint256",
              "name": "validityPeriodDays",
              "type": "uint256"
            },
            {
              "internalType": "uint256",
              "name": "bankGuaranteeClaimExpiryDate",
              "type": "uint256"
            },
            {
              "internalType": "string",
              "name": "currency",
              "type": "string"
            },
            {
              "internalType": "uint256",
              "name": "bankGuaranteeAmount",
              "type": "uint256"
            },
            {
              "internalType": "string",
              "name": "vendorGid",
              "type": "string"
            },
            {
              "internalType": "string",
              "name": "vendorName",
              "type": "string"
            },
            {
              "internalType": "string",
              "name": "procuringEntityGid",
              "type": "string"
            },
            {
              "internalType": "string",
              "name": "procuringEntityName",
              "type": "string"
            },
            {
              "internalType": "uint256",
              "name": "amendment",
              "type": "uint256"
            },
            {
              "internalType": "enum PaymentAdviceStructs.FormStatus",
              "name": "formStatus",
              "type": "uint8"
            },
            {
              "internalType": "uint16",
              "name": "version",
              "type": "uint16"
            }
          ],
          "internalType": "struct PaymentAdviceStructs.PaymentAdvice[]",
          "name": "_paymentAdvice",
          "type": "tuple[]"
        },
        {
          "internalType": "uint256",
          "name": "fromIncluded_",
          "type": "uint256"
        },
        {
          "internalType": "uint256",
          "name": "length_",
          "type": "uint256"
        }
      ],
      "stateMutability": "view",
      "type": "function"
    },
    {
      "inputs": [
        {
          "internalType": "string",
          "name": "_paymentAdviceReferenceNumber",
          "type": "string"
        }
      ],
      "name": "getLatestPaUidByReferenceNumber",
      "outputs": [
        {
          "internalType": "bytes8",
          "name": "",
          "type": "bytes8"
        }
      ],
      "stateMutability": "view",
      "type": "function"
    },
    {
      "inputs": [
        {
          "internalType": "string",
          "name": "_paymentAdviceReferenceNumber",
          "type": "string"
        }
      ],
      "name": "getLatestPaByReferenceNumber",
      "outputs": [
        {
          "components": [
            {
              "internalType": "bytes8",
              "name": "uid",
              "type": "bytes8"
            },
            {
              "internalType": "string",
              "name": "egpSystemId",
              "type": "string"
            },
            {
              "internalType": "enum PaymentAdviceStructs.PaymentType",
              "name": "paymentType",
              "type": "uint8"
            },
            {
              "internalType": "string",
              "name": "paymentAdviceReferenceNumber",
              "type": "string"
            },
            {
              "internalType": "uint256",
              "name": "validityPeriodDays",
              "type": "uint256"
            },
            {
              "internalType": "uint256",
              "name": "bankGuaranteeClaimExpiryDate",
              "type": "uint256"
            },
            {
              "internalType": "string",
              "name": "currency",
              "type": "string"
            },
            {
              "internalType": "uint256",
              "name": "bankGuaranteeAmount",
              "type": "uint256"
            },
            {
              "internalType": "string",
              "name": "vendorGid",
              "type": "string"
            },
            {
              "internalType": "string",
              "name": "vendorName",
              "type": "string"
            },
            {
              "internalType": "string",
              "name": "procuringEntityGid",
              "type": "string"
            },
            {
              "internalType": "string",
              "name": "procuringEntityName",
              "type": "string"
            },
            {
              "internalType": "uint256",
              "name": "amendment",
              "type": "uint256"
            },
            {
              "internalType": "enum PaymentAdviceStructs.FormStatus",
              "name": "formStatus",
              "type": "uint8"
            },
            {
              "internalType": "uint16",
              "name": "version",
              "type": "uint16"
            }
          ],
          "internalType": "struct PaymentAdviceStructs.PaymentAdvice",
          "name": "_pa",
          "type": "tuple"
        }
      ],
      "stateMutability": "view",
      "type": "function"
    },
    {
      "inputs": [
        {
          "internalType": "string",
          "name": "_paymentAdviceReferenceNumber",
          "type": "string"
        },
        {
          "internalType": "string",
          "name": "_egpSystemId",
          "type": "string"
        },
        {
          "internalType": "uint256",
          "name": "_toExcluded",
          "type": "uint256"
        },
        {
          "internalType": "uint256",
          "name": "_count",
          "type": "uint256"
        }
      ],
      "name": "getPaymentAdviceListByPaymentAdviceRefAndEgpId",
      "outputs": [
        {
          "components": [
            {
              "internalType": "bytes8",
              "name": "uid",
              "type": "bytes8"
            },
            {
              "internalType": "string",
              "name": "egpSystemId",
              "type": "string"
            },
            {
              "internalType": "enum PaymentAdviceStructs.PaymentType",
              "name": "paymentType",
              "type": "uint8"
            },
            {
              "internalType": "string",
              "name": "paymentAdviceReferenceNumber",
              "type": "string"
            },
            {
              "internalType": "uint256",
              "name": "validityPeriodDays",
              "type": "uint256"
            },
            {
              "internalType": "uint256",
              "name": "bankGuaranteeClaimExpiryDate",
              "type": "uint256"
            },
            {
              "internalType": "string",
              "name": "currency",
              "type": "string"
            },
            {
              "internalType": "uint256",
              "name": "bankGuaranteeAmount",
              "type": "uint256"
            },
            {
              "internalType": "string",
              "name": "vendorGid",
              "type": "string"
            },
            {
              "internalType": "string",
              "name": "vendorName",
              "type": "string"
            },
            {
              "internalType": "string",
              "name": "procuringEntityGid",
              "type": "string"
            },
            {
              "internalType": "string",
              "name": "procuringEntityName",
              "type": "string"
            },
            {
              "internalType": "uint256",
              "name": "amendment",
              "type": "uint256"
            },
            {
              "internalType": "enum PaymentAdviceStructs.FormStatus",
              "name": "formStatus",
              "type": "uint8"
            },
            {
              "internalType": "uint16",
              "name": "version",
              "type": "uint16"
            }
          ],
          "internalType": "struct PaymentAdviceStructs.PaymentAdvice[]",
          "name": "paymentAdvices_",
          "type": "tuple[]"
        },
        {
          "internalType": "uint256",
          "name": "fromIncluded_",
          "type": "uint256"
        },
        {
          "internalType": "uint256",
          "name": "length_",
          "type": "uint256"
        }
      ],
      "stateMutability": "view",
      "type": "function"
    },
    {
      "inputs": [
        {
          "internalType": "string",
          "name": "_paymentAdviceReferenceNumber",
          "type": "string"
        },
        {
          "internalType": "string",
          "name": "_egpSystemId",
          "type": "string"
        },
        {
          "internalType": "uint256",
          "name": "_toExcluded",
          "type": "uint256"
        },
        {
          "internalType": "uint256",
          "name": "_count",
          "type": "uint256"
        }
      ],
      "name": "getPaymentAdviceUidsByPaymentAdviceRefAndEgpId",
      "outputs": [
        {
          "internalType": "bytes8[]",
          "name": "uids_",
          "type": "bytes8[]"
        },
        {
          "internalType": "uint256",
          "name": "fromIncluded_",
          "type": "uint256"
        },
        {
          "internalType": "uint256",
          "name": "length_",
          "type": "uint256"
        }
      ],
      "stateMutability": "view",
      "type": "function"
    },
    {
      "inputs": [
        {
          "internalType": "string",
          "name": "_vendorGid",
          "type": "string"
        },
        {
          "internalType": "uint256",
          "name": "_toExcluded",
          "type": "uint256"
        },
        {
          "internalType": "uint256",
          "name": "_count",
          "type": "uint256"
        }
      ],
      "name": "getPaymentAdviceUidsByVendorGid",
      "outputs": [
        {
          "internalType": "bytes8[]",
          "name": "uids_",
          "type": "bytes8[]"
        },
        {
          "internalType": "uint256",
          "name": "fromIncluded_",
          "type": "uint256"
        },
        {
          "internalType": "uint256",
          "name": "length_",
          "type": "uint256"
        }
      ],
      "stateMutability": "view",
      "type": "function"
    },
    {
      "inputs": [
        {
          "internalType": "string",
          "name": "_egpId",
          "type": "string"
        },
        {
          "internalType": "uint256",
          "name": "_toExcluded",
          "type": "uint256"
        },
        {
          "internalType": "uint256",
          "name": "_count",
          "type": "uint256"
        }
      ],
      "name": "getPaymentAdviceUidsByEgpId",
      "outputs": [
        {
          "internalType": "bytes8[]",
          "name": "uids_",
          "type": "bytes8[]"
        },
        {
          "internalType": "uint256",
          "name": "fromIncluded_",
          "type": "uint256"
        },
        {
          "internalType": "uint256",
          "name": "length_",
          "type": "uint256"
        }
      ],
      "stateMutability": "view",
      "type": "function"
    },
    {
      "inputs": [
        {
          "internalType": "string",
          "name": "_gid",
          "type": "string"
        },
        {
          "internalType": "uint256",
          "name": "_toExcluded",
          "type": "uint256"
        },
        {
          "internalType": "uint256",
          "name": "_count",
          "type": "uint256"
        }
      ],
      "name": "getPaymentAdviceUidsByProcuringEntityGid",
      "outputs": [
        {
          "internalType": "bytes8[]",
          "name": "uids_",
          "type": "bytes8[]"
        },
        {
          "internalType": "uint256",
          "name": "fromIncluded_",
          "type": "uint256"
        },
        {
          "internalType": "uint256",
          "name": "length_",
          "type": "uint256"
        }
      ],
      "stateMutability": "view",
      "type": "function"
    },
    {
      "inputs": [
        {
          "internalType": "bytes8",
          "name": "_uid",
          "type": "bytes8"
        }
      ],
      "name": "getPaymentAdvice",
      "outputs": [
        {
          "components": [
            {
              "internalType": "bytes8",
              "name": "uid",
              "type": "bytes8"
            },
            {
              "internalType": "string",
              "name": "egpSystemId",
              "type": "string"
            },
            {
              "internalType": "enum PaymentAdviceStructs.PaymentType",
              "name": "paymentType",
              "type": "uint8"
            },
            {
              "internalType": "string",
              "name": "paymentAdviceReferenceNumber",
              "type": "string"
            },
            {
              "internalType": "uint256",
              "name": "validityPeriodDays",
              "type": "uint256"
            },
            {
              "internalType": "uint256",
              "name": "bankGuaranteeClaimExpiryDate",
              "type": "uint256"
            },
            {
              "internalType": "string",
              "name": "currency",
              "type": "string"
            },
            {
              "internalType": "uint256",
              "name": "bankGuaranteeAmount",
              "type": "uint256"
            },
            {
              "internalType": "string",
              "name": "vendorGid",
              "type": "string"
            },
            {
              "internalType": "string",
              "name": "vendorName",
              "type": "string"
            },
            {
              "internalType": "string",
              "name": "procuringEntityGid",
              "type": "string"
            },
            {
              "internalType": "string",
              "name": "procuringEntityName",
              "type": "string"
            },
            {
              "internalType": "uint256",
              "name": "amendment",
              "type": "uint256"
            },
            {
              "internalType": "enum PaymentAdviceStructs.FormStatus",
              "name": "formStatus",
              "type": "uint8"
            },
            {
              "internalType": "uint16",
              "name": "version",
              "type": "uint16"
            }
          ],
          "internalType": "struct PaymentAdviceStructs.PaymentAdvice",
          "name": "paymentAdvice_",
          "type": "tuple"
        }
      ],
      "stateMutability": "view",
      "type": "function"
    },
    {
      "inputs": [
        {
          "internalType": "bytes8",
          "name": "_uid",
          "type": "bytes8"
        }
      ],
      "name": "getPaymentAdviceVendorGidbyUid",
      "outputs": [
        {
          "internalType": "string",
          "name": "_gid",
          "type": "string"
        }
      ],
      "stateMutability": "view",
      "type": "function"
    },
    {
      "inputs": [
        {
          "internalType": "bytes8",
          "name": "_uid",
          "type": "bytes8"
        }
      ],
      "name": "getPaymentAdviceProcuringEntityGidyUid",
      "outputs": [
        {
          "internalType": "string",
          "name": "_gid",
          "type": "string"
        }
      ],
      "stateMutability": "view",
      "type": "function"
    },
    {
      "inputs": [
        {
          "internalType": "bytes8",
          "name": "_uid",
          "type": "bytes8"
        }
      ],
      "name": "isUidExists",
      "outputs": [
        {
          "internalType": "bool",
          "name": "",
          "type": "bool"
        }
      ],
      "stateMutability": "view",
      "type": "function"
    },
    {
      "inputs": [
        {
          "components": [
            {
              "internalType": "bytes8",
              "name": "uid",
              "type": "bytes8"
            },
            {
              "internalType": "string",
              "name": "egpSystemId",
              "type": "string"
            },
            {
              "internalType": "enum PaymentAdviceStructs.PaymentType",
              "name": "paymentType",
              "type": "uint8"
            },
            {
              "internalType": "string",
              "name": "paymentAdviceReferenceNumber",
              "type": "string"
            },
            {
              "internalType": "uint256",
              "name": "validityPeriodDays",
              "type": "uint256"
            },
            {
              "internalType": "uint256",
              "name": "bankGuaranteeClaimExpiryDate",
              "type": "uint256"
            },
            {
              "internalType": "string",
              "name": "currency",
              "type": "string"
            },
            {
              "internalType": "uint256",
              "name": "bankGuaranteeAmount",
              "type": "uint256"
            },
            {
              "internalType": "string",
              "name": "vendorGid",
              "type": "string"
            },
            {
              "internalType": "string",
              "name": "vendorName",
              "type": "string"
            },
            {
              "internalType": "string",
              "name": "procuringEntityGid",
              "type": "string"
            },
            {
              "internalType": "string",
              "name": "procuringEntityName",
              "type": "string"
            },
            {
              "internalType": "uint256",
              "name": "amendment",
              "type": "uint256"
            },
            {
              "internalType": "enum PaymentAdviceStructs.FormStatus",
              "name": "formStatus",
              "type": "uint8"
            },
            {
              "internalType": "uint16",
              "name": "version",
              "type": "uint16"
            }
          ],
          "internalType": "struct PaymentAdviceStructs.PaymentAdvice",
          "name": "_paymentAdvice",
          "type": "tuple"
        }
      ],
      "name": "_generateUID",
      "outputs": [
        {
          "internalType": "bytes8",
          "name": "",
          "type": "bytes8"
        }
      ],
      "stateMutability": "pure",
      "type": "function"
    },
    {
      "inputs": [
        {
          "internalType": "bytes8",
          "name": "_uid",
          "type": "bytes8"
        }
      ],
      "name": "getPaymentAdviceCurrencyType",
      "outputs": [
        {
          "internalType": "string",
          "name": "currency_",
          "type": "string"
        }
      ],
      "stateMutability": "view",
      "type": "function"
    },
    {
      "inputs": [
        {
          "internalType": "bytes8",
          "name": "_uid",
          "type": "bytes8"
        }
      ],
      "name": "getPaymentAdviceBGAmount",
      "outputs": [
        {
          "internalType": "uint256",
          "name": "",
          "type": "uint256"
        }
      ],
      "stateMutability": "view",
      "type": "function"
    },
    {
      "inputs": [
        {
          "internalType": "string",
          "name": "_paymentAdviceReferenceNumber",
          "type": "string"
        }
      ],
      "name": "getPaymentAdviceReferenceNumberExist",
      "outputs": [
        {
          "internalType": "uint256",
          "name": "",
          "type": "uint256"
        }
      ],
      "stateMutability": "view",
      "type": "function"
    }
  ],
  "bytecode": "0x608060405234801562000010575f80fd5b50604051620053f7380380620053f78339818101604052810190620000369190620001e5565b845f806101000a81548173ffffffffffffffffffffffffffffffffffffffff021916908373ffffffffffffffffffffffffffffffffffffffff1602179055508360015f6101000a81548173ffffffffffffffffffffffffffffffffffffffff021916908373ffffffffffffffffffffffffffffffffffffffff1602179055508260025f6101000a81548173ffffffffffffffffffffffffffffffffffffffff021916908373ffffffffffffffffffffffffffffffffffffffff1602179055508160035f6101000a81548173ffffffffffffffffffffffffffffffffffffffff021916908373ffffffffffffffffffffffffffffffffffffffff1602179055508060045f6101000a81548173ffffffffffffffffffffffffffffffffffffffff021916908373ffffffffffffffffffffffffffffffffffffffff160217905550505050505062000269565b5f80fd5b5f73ffffffffffffffffffffffffffffffffffffffff82169050919050565b5f620001af8262000184565b9050919050565b620001c181620001a3565b8114620001cc575f80fd5b50565b5f81519050620001df81620001b6565b92915050565b5f805f805f60a0868803121562000201576200020062000180565b5b5f6200021088828901620001cf565b95505060206200022388828901620001cf565b94505060406200023688828901620001cf565b93505060606200024988828901620001cf565b92505060806200025c88828901620001cf565b9150509295509295909350565b61518080620002775f395ff3fe608060405234801561000f575f80fd5b5060043610610114575f3560e01c8063b062fd07116100a0578063d4c5eed61161006f578063d4c5eed614610368578063db0e782d14610398578063eaa7c836146103ca578063eec39a1a146103fa578063fda886da1461042c57610114565b8063b062fd07146102a6578063b72275e7146102d6578063bd240e0714610306578063c3b4e23b1461033857610114565b80637ea7aa0b116100e75780637ea7aa0b146101c65780638eb3e501146101f8578063a2552e5014610228578063a4ecc1a91461025a578063a7b1747e1461027657610114565b806334ed52ef146101185780633a448c7b1461014857806353a5fcc91461016457806357574cd814610196575b5f80fd5b610132600480360381019061012d9190613365565b61045c565b60405161013f919061341a565b60405180910390f35b610162600480360381019061015d9190613843565b610686565b005b61017e6004803603810190610179919061388a565b610fb0565b60405161018d93929190613c2a565b60405180910390f35b6101b060048036038101906101ab9190613365565b611065565b6040516101bd919061341a565b60405180910390f35b6101e060048036038101906101db9190613c66565b61128f565b6040516101ef93929190613d7a565b60405180910390f35b610212600480360381019061020d9190613365565b6114c0565b60405161021f9190613dd0565b60405180910390f35b610242600480360381019061023d9190613de9565b611564565b60405161025193929190613d7a565b60405180910390f35b610274600480360381019061026f9190613843565b6117c3565b005b610290600480360381019061028b9190613365565b612098565b60405161029d919061341a565b60405180910390f35b6102c060048036038101906102bb9190613365565b612221565b6040516102cd9190613fef565b60405180910390f35b6102f060048036038101906102eb919061400f565b6123b0565b6040516102fd9190613fef565b60405180910390f35b610320600480360381019061031b9190613c66565b6123d5565b60405161032f93929190613d7a565b60405180910390f35b610352600480360381019061034d9190613365565b612606565b60405161035f9190614056565b60405180910390f35b610382600480360381019061037d919061400f565b612750565b60405161038f919061407e565b60405180910390f35b6103b260048036038101906103ad9190613c66565b612930565b6040516103c193929190613d7a565b60405180910390f35b6103e460048036038101906103df9190613843565b612b61565b6040516103f1919061407e565b60405180910390f35b610414600480360381019061040f9190613de9565b612bd5565b60405161042393929190613c2a565b60405180910390f35b6104466004803603810190610441919061400f565b612e09565b6040516104539190614056565b60405180910390f35b60608160035f9054906101000a900473ffffffffffffffffffffffffffffffffffffffff1673ffffffffffffffffffffffffffffffffffffffff166377a8760a826040518263ffffffff1660e01b81526004016104b9919061407e565b602060405180830381865afa1580156104d4573d5f803e3d5ffd5b505050506040513d601f19601f820116820180604052508101906104f891906140ab565b5f03610539576040517f08c379a000000000000000000000000000000000000000000000000000000000815260040161053090614120565b60405180910390fd5b5f600160035f9054906101000a900473ffffffffffffffffffffffffffffffffffffffff1673ffffffffffffffffffffffffffffffffffffffff166377a8760a866040518263ffffffff1660e01b8152600401610596919061407e565b602060405180830381865afa1580156105b1573d5f803e3d5ffd5b505050506040513d601f19601f820116820180604052508101906105d591906140ab565b6105df919061416b565b905060035f9054906101000a900473ffffffffffffffffffffffffffffffffffffffff1673ffffffffffffffffffffffffffffffffffffffff1663089bbd3d826040518263ffffffff1660e01b815260040161063b9190614056565b5f60405180830381865afa158015610655573d5f803e3d5ffd5b505050506040513d5f823e3d601f19601f8201168201806040525081019061067d919061420c565b92505050919050565b80602001515f805f8054906101000a900473ffffffffffffffffffffffffffffffffffffffff1673ffffffffffffffffffffffffffffffffffffffff1633846040516024016106d6929190614292565b6040516020818303038152906040527f57c74183000000000000000000000000000000000000000000000000000000007bffffffffffffffffffffffffffffffffffffffffffffffffffffffff19166020820180517bffffffffffffffffffffffffffffffffffffffffffffffffffffffff83818316178352505050506040516107609190614304565b5f604051808303815f865af19150503d805f8114610799576040519150601f19603f3d011682016040523d82523d5f602084013e61079e565b606091505b5091509150816107e3576040517f08c379a00000000000000000000000000000000000000000000000000000000081526004016107da90614364565b60405180910390fd5b808060200190518101906107f791906143ac565b610836576040517f08c379a000000000000000000000000000000000000000000000000000000000815260040161082d9061446d565b60405180910390fd5b836060015184602001515f60035f9054906101000a900473ffffffffffffffffffffffffffffffffffffffff1673ffffffffffffffffffffffffffffffffffffffff166354c914bd84846040516020016108919291906144c5565b604051602081830303815290604052805190602001206040518263ffffffff1660e01b81526004016108c3919061407e565b602060405180830381865afa1580156108de573d5f803e3d5ffd5b505050506040513d601f19601f8201168201806040525081019061090291906140ab565b11610942576040517f08c379a0000000000000000000000000000000000000000000000000000000008152600401610939906145a4565b60405180910390fd5b8560c0015160045f9054906101000a900473ffffffffffffffffffffffffffffffffffffffff1673ffffffffffffffffffffffffffffffffffffffff16632675623a826040518263ffffffff1660e01b81526004016109a1919061341a565b602060405180830381865afa1580156109bc573d5f803e3d5ffd5b505050506040513d601f19601f820116820180604052508101906109e091906143ac565b610a1f576040517f08c379a0000000000000000000000000000000000000000000000000000000008152600401610a1690614632565b60405180910390fd5b5f60035f9054906101000a900473ffffffffffffffffffffffffffffffffffffffff1673ffffffffffffffffffffffffffffffffffffffff1663fb0e0a096040518163ffffffff1660e01b8152600401602060405180830381865afa158015610a8a573d5f803e3d5ffd5b505050506040513d601f19601f82011682018060405250810190610aae91906140ab565b90505f60035f9054906101000a900473ffffffffffffffffffffffffffffffffffffffff1673ffffffffffffffffffffffffffffffffffffffff1663166a6ed78a6040518263ffffffff1660e01b8152600401610b0b9190613fef565b5f60405180830381865afa158015610b25573d5f803e3d5ffd5b505050506040513d5f823e3d601f19601f82011682018060405250810190610b4d91906148c5565b809250819a5050505f610b5f8a612b61565b90505f60035f9054906101000a900473ffffffffffffffffffffffffffffffffffffffff1673ffffffffffffffffffffffffffffffffffffffff166377a8760a836040518263ffffffff1660e01b8152600401610bbc919061407e565b602060405180830381865afa158015610bd7573d5f803e3d5ffd5b505050506040513d601f19601f82011682018060405250810190610bfb91906140ab565b14610c3b576040517f08c379a0000000000000000000000000000000000000000000000000000000008152600401610c3290614969565b60405180910390fd5b808a5f019077ffffffffffffffffffffffffffffffffffffffffffffffff1916908177ffffffffffffffffffffffffffffffffffffffffffffffff19168152505060035f9054906101000a900473ffffffffffffffffffffffffffffffffffffffff1673ffffffffffffffffffffffffffffffffffffffff16631a73a98482856001610cc79190614987565b6040518363ffffffff1660e01b8152600401610ce49291906149ba565b5f604051808303815f87803b158015610cfb575f80fd5b505af1158015610d0d573d5f803e3d5ffd5b5050505060035f9054906101000a900473ffffffffffffffffffffffffffffffffffffffff1673ffffffffffffffffffffffffffffffffffffffff1663e9e323c68b606001518c60200151604051602001610d699291906144c5565b60405160208183030381529060405280519060200120856040518363ffffffff1660e01b8152600401610d9d9291906149ba565b5f604051808303815f87803b158015610db4575f80fd5b505af1158015610dc6573d5f803e3d5ffd5b5050505060035f9054906101000a900473ffffffffffffffffffffffffffffffffffffffff1673ffffffffffffffffffffffffffffffffffffffff16635f7e6b1a6040518163ffffffff1660e01b81526004015f604051808303815f87803b158015610e30575f80fd5b505af1158015610e42573d5f803e3d5ffd5b5050505060035f9054906101000a900473ffffffffffffffffffffffffffffffffffffffff1673ffffffffffffffffffffffffffffffffffffffff166376a4a411836040518263ffffffff1660e01b8152600401610ea09190614056565b5f604051808303815f87803b158015610eb7575f80fd5b505af1158015610ec9573d5f803e3d5ffd5b5050505060035f9054906101000a900473ffffffffffffffffffffffffffffffffffffffff1673ffffffffffffffffffffffffffffffffffffffff166303fd0351848c6040518363ffffffff1660e01b8152600401610f299291906149e1565b5f604051808303815f87803b158015610f40575f80fd5b505af1158015610f52573d5f803e3d5ffd5b505050507f26371078d3b7fd372681b6c0a45c6f5de271f698d94ea53463f57824a7192fa88a5f01518b606001518c61014001518d6101800151604051610f9c9493929190614a0f565b60405180910390a150505050505050505050565b60605f8060035f9054906101000a900473ffffffffffffffffffffffffffffffffffffffff1673ffffffffffffffffffffffffffffffffffffffff166353a5fcc986866040518363ffffffff1660e01b8152600401611010929190614a60565b5f60405180830381865afa15801561102a573d5f803e3d5ffd5b505050506040513d5f823e3d601f19601f820116820180604052508101906110529190614b69565b8093508194508295505050509250925092565b60608160035f9054906101000a900473ffffffffffffffffffffffffffffffffffffffff1673ffffffffffffffffffffffffffffffffffffffff166377a8760a826040518263ffffffff1660e01b81526004016110c2919061407e565b602060405180830381865afa1580156110dd573d5f803e3d5ffd5b505050506040513d601f19601f8201168201806040525081019061110191906140ab565b5f03611142576040517f08c379a000000000000000000000000000000000000000000000000000000000815260040161113990614120565b60405180910390fd5b5f600160035f9054906101000a900473ffffffffffffffffffffffffffffffffffffffff1673ffffffffffffffffffffffffffffffffffffffff166377a8760a866040518263ffffffff1660e01b815260040161119f919061407e565b602060405180830381865afa1580156111ba573d5f803e3d5ffd5b505050506040513d601f19601f820116820180604052508101906111de91906140ab565b6111e8919061416b565b905060035f9054906101000a900473ffffffffffffffffffffffffffffffffffffffff1673ffffffffffffffffffffffffffffffffffffffff1663013b217f826040518263ffffffff1660e01b81526004016112449190614056565b5f60405180830381865afa15801561125e573d5f803e3d5ffd5b505050506040513d5f823e3d601f19601f82011682018060405250810190611286919061420c565b92505050919050565b60605f80606060035f9054906101000a900473ffffffffffffffffffffffffffffffffffffffff1673ffffffffffffffffffffffffffffffffffffffff1663373335088888886040518463ffffffff1660e01b81526004016112f393929190614bd5565b5f60405180830381865afa15801561130d573d5f803e3d5ffd5b505050506040513d5f823e3d601f19601f820116820180604052508101906113359190614cd1565b809450819550829350505050805167ffffffffffffffff81111561135c5761135b61343e565b5b60405190808252806020026020018201604052801561138a5781602001602082028036833780820191505090505b5093505f5b81518110156114b55760035f9054906101000a900473ffffffffffffffffffffffffffffffffffffffff1673ffffffffffffffffffffffffffffffffffffffff1663c3a1d1b98383815181106113e8576113e7614d3d565b5b60200260200101516040518263ffffffff1660e01b815260040161140c9190614056565b602060405180830381865afa158015611427573d5f803e3d5ffd5b505050506040513d601f19601f8201168201806040525081019061144b9190614d6a565b85828151811061145e5761145d614d3d565b5b602002602001019077ffffffffffffffffffffffffffffffffffffffffffffffff1916908177ffffffffffffffffffffffffffffffffffffffffffffffff19168152505080806114ad90614d95565b91505061138f565b505093509350939050565b5f60035f9054906101000a900473ffffffffffffffffffffffffffffffffffffffff1673ffffffffffffffffffffffffffffffffffffffff166377a8760a836040518263ffffffff1660e01b815260040161151b919061407e565b602060405180830381865afa158015611536573d5f803e3d5ffd5b505050506040513d601f19601f8201168201806040525081019061155a91906140ab565b5f14159050919050565b60605f805f878760405160200161157c9291906144c5565b604051602081830303815290604052805190602001209050606060035f9054906101000a900473ffffffffffffffffffffffffffffffffffffffff1673ffffffffffffffffffffffffffffffffffffffff16630482936a8389896040518463ffffffff1660e01b81526004016115f493929190614ddc565b5f60405180830381865afa15801561160e573d5f803e3d5ffd5b505050506040513d5f823e3d601f19601f820116820180604052508101906116369190614cd1565b809550819650829350505050805167ffffffffffffffff81111561165d5761165c61343e565b5b60405190808252806020026020018201604052801561168b5781602001602082028036833780820191505090505b5094505f5b81518110156117b65760035f9054906101000a900473ffffffffffffffffffffffffffffffffffffffff1673ffffffffffffffffffffffffffffffffffffffff1663c3a1d1b98383815181106116e9576116e8614d3d565b5b60200260200101516040518263ffffffff1660e01b815260040161170d9190614056565b602060405180830381865afa158015611728573d5f803e3d5ffd5b505050506040513d601f19601f8201168201806040525081019061174c9190614d6a565b86828151811061175f5761175e614d3d565b5b602002602001019077ffffffffffffffffffffffffffffffffffffffffffffffff1916908177ffffffffffffffffffffffffffffffffffffffffffffffff19168152505080806117ae90614d95565b915050611690565b5050509450945094915050565b80602001515f805f8054906101000a900473ffffffffffffffffffffffffffffffffffffffff1673ffffffffffffffffffffffffffffffffffffffff163384604051602401611813929190614292565b6040516020818303038152906040527f57c74183000000000000000000000000000000000000000000000000000000007bffffffffffffffffffffffffffffffffffffffffffffffffffffffff19166020820180517bffffffffffffffffffffffffffffffffffffffffffffffffffffffff838183161783525050505060405161189d9190614304565b5f604051808303815f865af19150503d805f81146118d6576040519150601f19603f3d011682016040523d82523d5f602084013e6118db565b606091505b509150915081611920576040517f08c379a000000000000000000000000000000000000000000000000000000000815260040161191790614364565b60405180910390fd5b8080602001905181019061193491906143ac565b611973576040517f08c379a000000000000000000000000000000000000000000000000000000000815260040161196a9061446d565b60405180910390fd5b8360015f9054906101000a900473ffffffffffffffffffffffffffffffffffffffff1673ffffffffffffffffffffffffffffffffffffffff1663ce3204718261010001516040518263ffffffff1660e01b81526004016119d3919061341a565b602060405180830381865afa1580156119ee573d5f803e3d5ffd5b505050506040513d601f19601f82011682018060405250810190611a1291906143ac565b611a51576040517f08c379a0000000000000000000000000000000000000000000000000000000008152600401611a4890614e5b565b60405180910390fd5b60025f9054906101000a900473ffffffffffffffffffffffffffffffffffffffff1673ffffffffffffffffffffffffffffffffffffffff166388f5f3448261014001516040518263ffffffff1660e01b8152600401611ab0919061341a565b602060405180830381865afa158015611acb573d5f803e3d5ffd5b505050506040513d601f19601f82011682018060405250810190611aef91906143ac565b611b2e576040517f08c379a0000000000000000000000000000000000000000000000000000000008152600401611b2590614ee9565b60405180910390fd5b84606001515f60035f9054906101000a900473ffffffffffffffffffffffffffffffffffffffff1673ffffffffffffffffffffffffffffffffffffffff1663a3764ee7836040518263ffffffff1660e01b8152600401611b8e919061341a565b602060405180830381865afa158015611ba9573d5f803e3d5ffd5b505050506040513d601f19601f82011682018060405250810190611bcd91906140ab565b14611c0d576040517f08c379a0000000000000000000000000000000000000000000000000000000008152600401611c0490614f77565b60405180910390fd5b8560c0015160045f9054906101000a900473ffffffffffffffffffffffffffffffffffffffff1673ffffffffffffffffffffffffffffffffffffffff16632675623a826040518263ffffffff1660e01b8152600401611c6c919061341a565b602060405180830381865afa158015611c87573d5f803e3d5ffd5b505050506040513d601f19601f82011682018060405250810190611cab91906143ac565b611cea576040517f08c379a0000000000000000000000000000000000000000000000000000000008152600401611ce190614632565b60405180910390fd5b5f60035f9054906101000a900473ffffffffffffffffffffffffffffffffffffffff1673ffffffffffffffffffffffffffffffffffffffff1663fb0e0a096040518163ffffffff1660e01b8152600401602060405180830381865afa158015611d55573d5f803e3d5ffd5b505050506040513d601f19601f82011682018060405250810190611d7991906140ab565b90505f611d8589612b61565b90505f60035f9054906101000a900473ffffffffffffffffffffffffffffffffffffffff1673ffffffffffffffffffffffffffffffffffffffff166377a8760a836040518263ffffffff1660e01b8152600401611de2919061407e565b602060405180830381865afa158015611dfd573d5f803e3d5ffd5b505050506040513d601f19601f82011682018060405250810190611e2191906140ab565b14611e61576040517f08c379a0000000000000000000000000000000000000000000000000000000008152600401611e5890614969565b60405180910390fd5b80895f019077ffffffffffffffffffffffffffffffffffffffffffffffff1916908177ffffffffffffffffffffffffffffffffffffffffffffffff19168152505060035f9054906101000a900473ffffffffffffffffffffffffffffffffffffffff1673ffffffffffffffffffffffffffffffffffffffff16631a73a98482846001611eed9190614987565b6040518363ffffffff1660e01b8152600401611f0a9291906149ba565b5f604051808303815f87803b158015611f21575f80fd5b505af1158015611f33573d5f803e3d5ffd5b50505050611f41828a612eaa565b60035f9054906101000a900473ffffffffffffffffffffffffffffffffffffffff1673ffffffffffffffffffffffffffffffffffffffff16635f7e6b1a6040518163ffffffff1660e01b81526004015f604051808303815f87803b158015611fa7575f80fd5b505af1158015611fb9573d5f803e3d5ffd5b5050505060035f9054906101000a900473ffffffffffffffffffffffffffffffffffffffff1673ffffffffffffffffffffffffffffffffffffffff166303fd0351838b6040518363ffffffff1660e01b81526004016120199291906149e1565b5f604051808303815f87803b158015612030575f80fd5b505af1158015612042573d5f803e3d5ffd5b505050507fcb58efa480f021b40437c60709e2b3f2811f44b5c5f8d765fc73d8667cbfff61895f01518a606001518b610140015160405161208593929190614f95565b60405180910390a1505050505050505050565b60608160035f9054906101000a900473ffffffffffffffffffffffffffffffffffffffff1673ffffffffffffffffffffffffffffffffffffffff166377a8760a826040518263ffffffff1660e01b81526004016120f5919061407e565b602060405180830381865afa158015612110573d5f803e3d5ffd5b505050506040513d601f19601f8201168201806040525081019061213491906140ab565b5f03612175576040517f08c379a000000000000000000000000000000000000000000000000000000000815260040161216c90614120565b60405180910390fd5b60035f9054906101000a900473ffffffffffffffffffffffffffffffffffffffff1673ffffffffffffffffffffffffffffffffffffffff166323aa83866121bb856131a1565b6040518263ffffffff1660e01b81526004016121d79190614056565b5f60405180830381865afa1580156121f1573d5f803e3d5ffd5b505050506040513d5f823e3d601f19601f82011682018060405250810190612219919061420c565b915050919050565b61222961324e565b8160035f9054906101000a900473ffffffffffffffffffffffffffffffffffffffff1673ffffffffffffffffffffffffffffffffffffffff166377a8760a826040518263ffffffff1660e01b8152600401612284919061407e565b602060405180830381865afa15801561229f573d5f803e3d5ffd5b505050506040513d601f19601f820116820180604052508101906122c391906140ab565b5f03612304576040517f08c379a00000000000000000000000000000000000000000000000000000000081526004016122fb90614120565b60405180910390fd5b60035f9054906101000a900473ffffffffffffffffffffffffffffffffffffffff1673ffffffffffffffffffffffffffffffffffffffff166360fda77c61234a856131a1565b6040518263ffffffff1660e01b81526004016123669190614056565b5f60405180830381865afa158015612380573d5f803e3d5ffd5b505050506040513d5f823e3d601f19601f820116820180604052508101906123a89190614fd8565b915050919050565b6123b861324e565b5f6123c283612750565b90506123cd81612221565b915050919050565b60605f80606060035f9054906101000a900473ffffffffffffffffffffffffffffffffffffffff1673ffffffffffffffffffffffffffffffffffffffff1663a63729d98888886040518463ffffffff1660e01b815260040161243993929190614bd5565b5f60405180830381865afa158015612453573d5f803e3d5ffd5b505050506040513d5f823e3d601f19601f8201168201806040525081019061247b9190614cd1565b809450819550829350505050805167ffffffffffffffff8111156124a2576124a161343e565b5b6040519080825280602002602001820160405280156124d05781602001602082028036833780820191505090505b5093505f5b81518110156125fb5760035f9054906101000a900473ffffffffffffffffffffffffffffffffffffffff1673ffffffffffffffffffffffffffffffffffffffff1663c3a1d1b983838151811061252e5761252d614d3d565b5b60200260200101516040518263ffffffff1660e01b81526004016125529190614056565b602060405180830381865afa15801561256d573d5f803e3d5ffd5b505050506040513d601f19601f820116820180604052508101906125919190614d6a565b8582815181106125a4576125a3614d3d565b5b602002602001019077ffffffffffffffffffffffffffffffffffffffffffffffff1916908177ffffffffffffffffffffffffffffffffffffffffffffffff19168152505080806125f390614d95565b9150506124d5565b505093509350939050565b5f80600160035f9054906101000a900473ffffffffffffffffffffffffffffffffffffffff1673ffffffffffffffffffffffffffffffffffffffff166377a8760a856040518263ffffffff1660e01b8152600401612664919061407e565b602060405180830381865afa15801561267f573d5f803e3d5ffd5b505050506040513d601f19601f820116820180604052508101906126a391906140ab565b6126ad919061416b565b905060035f9054906101000a900473ffffffffffffffffffffffffffffffffffffffff1673ffffffffffffffffffffffffffffffffffffffff1663e04f3cd1826040518263ffffffff1660e01b81526004016127099190614056565b602060405180830381865afa158015612724573d5f803e3d5ffd5b505050506040513d601f19601f8201168201806040525081019061274891906140ab565b915050919050565b5f8060035f9054906101000a900473ffffffffffffffffffffffffffffffffffffffff1673ffffffffffffffffffffffffffffffffffffffff166384ede0e5846040518263ffffffff1660e01b81526004016127ac919061341a565b5f60405180830381865afa1580156127c6573d5f803e3d5ffd5b505050506040513d5f823e3d601f19601f820116820180604052508101906127ee919061420c565b90505f60035f9054906101000a900473ffffffffffffffffffffffffffffffffffffffff1673ffffffffffffffffffffffffffffffffffffffff16632c62813d85846040518363ffffffff1660e01b815260040161284d92919061501f565b602060405180830381865afa158015612868573d5f803e3d5ffd5b505050506040513d601f19601f8201168201806040525081019061288c91906140ab565b905060035f9054906101000a900473ffffffffffffffffffffffffffffffffffffffff1673ffffffffffffffffffffffffffffffffffffffff1663c3a1d1b9826040518263ffffffff1660e01b81526004016128e89190614056565b602060405180830381865afa158015612903573d5f803e3d5ffd5b505050506040513d601f19601f820116820180604052508101906129279190614d6a565b92505050919050565b60605f80606060035f9054906101000a900473ffffffffffffffffffffffffffffffffffffffff1673ffffffffffffffffffffffffffffffffffffffff1663f710421c8888886040518463ffffffff1660e01b815260040161299493929190614bd5565b5f60405180830381865afa1580156129ae573d5f803e3d5ffd5b505050506040513d5f823e3d601f19601f820116820180604052508101906129d69190614cd1565b809450819550829350505050805167ffffffffffffffff8111156129fd576129fc61343e565b5b604051908082528060200260200182016040528015612a2b5781602001602082028036833780820191505090505b5093505f5b8151811015612b565760035f9054906101000a900473ffffffffffffffffffffffffffffffffffffffff1673ffffffffffffffffffffffffffffffffffffffff1663c3a1d1b9838381518110612a8957612a88614d3d565b5b60200260200101516040518263ffffffff1660e01b8152600401612aad9190614056565b602060405180830381865afa158015612ac8573d5f803e3d5ffd5b505050506040513d601f19601f82011682018060405250810190612aec9190614d6a565b858281518110612aff57612afe614d3d565b5b602002602001019077ffffffffffffffffffffffffffffffffffffffffffffffff1916908177ffffffffffffffffffffffffffffffffffffffffffffffff1916815250508080612b4e90614d95565b915050612a30565b505093509350939050565b5f8160200151826060015183608001518460a001518560c001518660e001518761010001518861012001518961014001518a61016001518b6101800151604051602001612bb89b9a99989796959493929190615074565b604051602081830303815290604052805190602001209050919050565b60605f805f8787604051602001612bed9291906144c5565b604051602081830303815290604052805190602001209050606060035f9054906101000a900473ffffffffffffffffffffffffffffffffffffffff1673ffffffffffffffffffffffffffffffffffffffff16630482936a8389896040518463ffffffff1660e01b8152600401612c6593929190614ddc565b5f60405180830381865afa158015612c7f573d5f803e3d5ffd5b505050506040513d5f823e3d601f19601f82011682018060405250810190612ca79190614cd1565b809550819650829350505050805167ffffffffffffffff811115612cce57612ccd61343e565b5b604051908082528060200260200182016040528015612d0757816020015b612cf461324e565b815260200190600190039081612cec5790505b5094505f5b8151811015612dfc5760035f9054906101000a900473ffffffffffffffffffffffffffffffffffffffff1673ffffffffffffffffffffffffffffffffffffffff166360fda77c838381518110612d6557612d64614d3d565b5b60200260200101516040518263ffffffff1660e01b8152600401612d899190614056565b5f60405180830381865afa158015612da3573d5f803e3d5ffd5b505050506040513d5f823e3d601f19601f82011682018060405250810190612dcb9190614fd8565b868281518110612dde57612ddd614d3d565b5b60200260200101819052508080612df490614d95565b915050612d0c565b5050509450945094915050565b5f60035f9054906101000a900473ffffffffffffffffffffffffffffffffffffffff1673ffffffffffffffffffffffffffffffffffffffff1663a3764ee7836040518263ffffffff1660e01b8152600401612e64919061341a565b602060405180830381865afa158015612e7f573d5f803e3d5ffd5b505050506040513d601f19601f82011682018060405250810190612ea391906140ab565b9050919050565b60035f9054906101000a900473ffffffffffffffffffffffffffffffffffffffff1673ffffffffffffffffffffffffffffffffffffffff1663e9e323c682606001518360200151604051602001612f029291906144c5565b60405160208183030381529060405280519060200120846040518363ffffffff1660e01b8152600401612f369291906149ba565b5f604051808303815f87803b158015612f4d575f80fd5b505af1158015612f5f573d5f803e3d5ffd5b5050505060035f9054906101000a900473ffffffffffffffffffffffffffffffffffffffff1673ffffffffffffffffffffffffffffffffffffffff1663a2f3d7688260200151846040518363ffffffff1660e01b8152600401612fc392919061511c565b5f604051808303815f87803b158015612fda575f80fd5b505af1158015612fec573d5f803e3d5ffd5b5050505060035f9054906101000a900473ffffffffffffffffffffffffffffffffffffffff1673ffffffffffffffffffffffffffffffffffffffff1663e663d7ff826101000151846040518363ffffffff1660e01b815260040161305192919061511c565b5f604051808303815f87803b158015613068575f80fd5b505af115801561307a573d5f803e3d5ffd5b5050505060035f9054906101000a900473ffffffffffffffffffffffffffffffffffffffff1673ffffffffffffffffffffffffffffffffffffffff1663c1bc00ff826101400151846040518363ffffffff1660e01b81526004016130df92919061511c565b5f604051808303815f87803b1580156130f6575f80fd5b505af1158015613108573d5f803e3d5ffd5b5050505060035f9054906101000a900473ffffffffffffffffffffffffffffffffffffffff1673ffffffffffffffffffffffffffffffffffffffff16631a289024826060015183602001516040518363ffffffff1660e01b815260040161317092919061501f565b5f604051808303815f87803b158015613187575f80fd5b505af1158015613199573d5f803e3d5ffd5b505050505050565b5f600160035f9054906101000a900473ffffffffffffffffffffffffffffffffffffffff1673ffffffffffffffffffffffffffffffffffffffff166377a8760a846040518263ffffffff1660e01b81526004016131fe919061407e565b602060405180830381865afa158015613219573d5f803e3d5ffd5b505050506040513d601f19601f8201168201806040525081019061323d91906140ab565b613247919061416b565b9050919050565b604051806101e001604052805f77ffffffffffffffffffffffffffffffffffffffffffffffff19168152602001606081526020015f600181111561329557613294613948565b5b8152602001606081526020015f81526020015f8152602001606081526020015f8152602001606081526020016060815260200160608152602001606081526020015f81526020015f60018111156132ef576132ee613948565b5b81526020015f61ffff1681525090565b5f604051905090565b5f80fd5b5f80fd5b5f7fffffffffffffffff00000000000000000000000000000000000000000000000082169050919050565b61334481613310565b811461334e575f80fd5b50565b5f8135905061335f8161333b565b92915050565b5f6020828403121561337a57613379613308565b5b5f61338784828501613351565b91505092915050565b5f81519050919050565b5f82825260208201905092915050565b5f5b838110156133c75780820151818401526020810190506133ac565b5f8484015250505050565b5f601f19601f8301169050919050565b5f6133ec82613390565b6133f6818561339a565b93506134068185602086016133aa565b61340f816133d2565b840191505092915050565b5f6020820190508181035f83015261343281846133e2565b905092915050565b5f80fd5b7f4e487b71000000000000000000000000000000000000000000000000000000005f52604160045260245ffd5b613474826133d2565b810181811067ffffffffffffffff821117156134935761349261343e565b5b80604052505050565b5f6134a56132ff565b90506134b1828261346b565b919050565b5f80fd5b5f80fd5b5f80fd5b5f67ffffffffffffffff8211156134dc576134db61343e565b5b6134e5826133d2565b9050602081019050919050565b828183375f83830152505050565b5f61351261350d846134c2565b61349c565b90508281526020810184848401111561352e5761352d6134be565b5b6135398482856134f2565b509392505050565b5f82601f830112613555576135546134ba565b5b8135613565848260208601613500565b91505092915050565b6002811061357a575f80fd5b50565b5f8135905061358b8161356e565b92915050565b5f819050919050565b6135a381613591565b81146135ad575f80fd5b50565b5f813590506135be8161359a565b92915050565b600281106135d0575f80fd5b50565b5f813590506135e1816135c4565b92915050565b5f61ffff82169050919050565b6135fd816135e7565b8114613607575f80fd5b50565b5f81359050613618816135f4565b92915050565b5f6101e082840312156136345761363361343a565b5b61363f6101e061349c565b90505f61364e84828501613351565b5f83015250602082013567ffffffffffffffff811115613671576136706134b6565b5b61367d84828501613541565b60208301525060406136918482850161357d565b604083015250606082013567ffffffffffffffff8111156136b5576136b46134b6565b5b6136c184828501613541565b60608301525060806136d5848285016135b0565b60808301525060a06136e9848285016135b0565b60a08301525060c082013567ffffffffffffffff81111561370d5761370c6134b6565b5b61371984828501613541565b60c08301525060e061372d848285016135b0565b60e08301525061010082013567ffffffffffffffff811115613752576137516134b6565b5b61375e84828501613541565b6101008301525061012082013567ffffffffffffffff811115613784576137836134b6565b5b61379084828501613541565b6101208301525061014082013567ffffffffffffffff8111156137b6576137b56134b6565b5b6137c284828501613541565b6101408301525061016082013567ffffffffffffffff8111156137e8576137e76134b6565b5b6137f484828501613541565b6101608301525061018061380a848285016135b0565b610180830152506101a0613820848285016135d3565b6101a0830152506101c06138368482850161360a565b6101c08301525092915050565b5f6020828403121561385857613857613308565b5b5f82013567ffffffffffffffff8111156138755761387461330c565b5b6138818482850161361e565b91505092915050565b5f80604083850312156138a05761389f613308565b5b5f6138ad858286016135b0565b92505060206138be858286016135b0565b9150509250929050565b5f81519050919050565b5f82825260208201905092915050565b5f819050602082019050919050565b6138fa81613310565b82525050565b5f82825260208201905092915050565b5f61391a82613390565b6139248185613900565b93506139348185602086016133aa565b61393d816133d2565b840191505092915050565b7f4e487b71000000000000000000000000000000000000000000000000000000005f52602160045260245ffd5b6002811061398657613985613948565b5b50565b5f81905061399682613975565b919050565b5f6139a582613989565b9050919050565b6139b58161399b565b82525050565b6139c481613591565b82525050565b600281106139db576139da613948565b5b50565b5f8190506139eb826139ca565b919050565b5f6139fa826139de565b9050919050565b613a0a816139f0565b82525050565b613a19816135e7565b82525050565b5f6101e083015f830151613a355f8601826138f1565b5060208301518482036020860152613a4d8282613910565b9150506040830151613a6260408601826139ac565b5060608301518482036060860152613a7a8282613910565b9150506080830151613a8f60808601826139bb565b5060a0830151613aa260a08601826139bb565b5060c083015184820360c0860152613aba8282613910565b91505060e0830151613acf60e08601826139bb565b50610100830151848203610100860152613ae98282613910565b915050610120830151848203610120860152613b058282613910565b915050610140830151848203610140860152613b218282613910565b915050610160830151848203610160860152613b3d8282613910565b915050610180830151613b546101808601826139bb565b506101a0830151613b696101a0860182613a01565b506101c0830151613b7e6101c0860182613a10565b508091505092915050565b5f613b948383613a1f565b905092915050565b5f602082019050919050565b5f613bb2826138c8565b613bbc81856138d2565b935083602082028501613bce856138e2565b805f5b85811015613c095784840389528151613bea8582613b89565b9450613bf583613b9c565b925060208a01995050600181019050613bd1565b50829750879550505050505092915050565b613c2481613591565b82525050565b5f6060820190508181035f830152613c428186613ba8565b9050613c516020830185613c1b565b613c5e6040830184613c1b565b949350505050565b5f805f60608486031215613c7d57613c7c613308565b5b5f84013567ffffffffffffffff811115613c9a57613c9961330c565b5b613ca686828701613541565b9350506020613cb7868287016135b0565b9250506040613cc8868287016135b0565b9150509250925092565b5f81519050919050565b5f82825260208201905092915050565b5f819050602082019050919050565b5f613d0683836138f1565b60208301905092915050565b5f602082019050919050565b5f613d2882613cd2565b613d328185613cdc565b9350613d3d83613cec565b805f5b83811015613d6d578151613d548882613cfb565b9750613d5f83613d12565b925050600181019050613d40565b5085935050505092915050565b5f6060820190508181035f830152613d928186613d1e565b9050613da16020830185613c1b565b613dae6040830184613c1b565b949350505050565b5f8115159050919050565b613dca81613db6565b82525050565b5f602082019050613de35f830184613dc1565b92915050565b5f805f8060808587031215613e0157613e00613308565b5b5f85013567ffffffffffffffff811115613e1e57613e1d61330c565b5b613e2a87828801613541565b945050602085013567ffffffffffffffff811115613e4b57613e4a61330c565b5b613e5787828801613541565b9350506040613e68878288016135b0565b9250506060613e79878288016135b0565b91505092959194509250565b5f6101e083015f830151613e9b5f8601826138f1565b5060208301518482036020860152613eb38282613910565b9150506040830151613ec860408601826139ac565b5060608301518482036060860152613ee08282613910565b9150506080830151613ef560808601826139bb565b5060a0830151613f0860a08601826139bb565b5060c083015184820360c0860152613f208282613910565b91505060e0830151613f3560e08601826139bb565b50610100830151848203610100860152613f4f8282613910565b915050610120830151848203610120860152613f6b8282613910565b915050610140830151848203610140860152613f878282613910565b915050610160830151848203610160860152613fa38282613910565b915050610180830151613fba6101808601826139bb565b506101a0830151613fcf6101a0860182613a01565b506101c0830151613fe46101c0860182613a10565b508091505092915050565b5f6020820190508181035f8301526140078184613e85565b905092915050565b5f6020828403121561402457614023613308565b5b5f82013567ffffffffffffffff8111156140415761404061330c565b5b61404d84828501613541565b91505092915050565b5f6020820190506140695f830184613c1b565b92915050565b61407881613310565b82525050565b5f6020820190506140915f83018461406f565b92915050565b5f815190506140a58161359a565b92915050565b5f602082840312156140c0576140bf613308565b5b5f6140cd84828501614097565b91505092915050565b7f55494420646f6573206e6f7420657869737400000000000000000000000000005f82015250565b5f61410a60128361339a565b9150614115826140d6565b602082019050919050565b5f6020820190508181035f830152614137816140fe565b9050919050565b7f4e487b71000000000000000000000000000000000000000000000000000000005f52601160045260245ffd5b5f61417582613591565b915061418083613591565b92508282039050818111156141985761419761413e565b5b92915050565b5f6141b06141ab846134c2565b61349c565b9050828152602081018484840111156141cc576141cb6134be565b5b6141d78482856133aa565b509392505050565b5f82601f8301126141f3576141f26134ba565b5b815161420384826020860161419e565b91505092915050565b5f6020828403121561422157614220613308565b5b5f82015167ffffffffffffffff81111561423e5761423d61330c565b5b61424a848285016141df565b91505092915050565b5f73ffffffffffffffffffffffffffffffffffffffff82169050919050565b5f61427c82614253565b9050919050565b61428c81614272565b82525050565b5f6040820190506142a55f830185614283565b81810360208301526142b781846133e2565b90509392505050565b5f81519050919050565b5f81905092915050565b5f6142de826142c0565b6142e881856142ca565b93506142f88185602086016133aa565b80840191505092915050565b5f61430f82846142d4565b915081905092915050565b7f7065726d697373696f6e732063616c6c206661696c65640000000000000000005f82015250565b5f61434e60178361339a565b91506143598261431a565b602082019050919050565b5f6020820190508181035f83015261437b81614342565b9050919050565b61438b81613db6565b8114614395575f80fd5b50565b5f815190506143a681614382565b92915050565b5f602082840312156143c1576143c0613308565b5b5f6143ce84828501614398565b91505092915050565b7f6163636f756e7420646f6573206e6f7420657869737473206f722065786973745f8201527f732062757420646f65736e27742062656c6f6e6720746f20706173736564206f60208201527f7267496400000000000000000000000000000000000000000000000000000000604082015250565b5f61445760448361339a565b9150614462826143d7565b606082019050919050565b5f6020820190508181035f8301526144848161444b565b9050919050565b5f81905092915050565b5f61449f82613390565b6144a9818561448b565b93506144b98185602086016133aa565b80840191505092915050565b5f6144d08285614495565b91506144dc8284614495565b91508190509392505050565b7f496e697469616c205041206973206e6f74206265656e207375626d69747465645f8201527f206f72205061796d656e7441647669636520526566204e756d626572206e6f7460208201527f20666f756e6420696e207468652073797374656d20746f207375626d6974206160408201527f6d656e646d656e74000000000000000000000000000000000000000000000000606082015250565b5f61458e60688361339a565b9150614599826144e8565b608082019050919050565b5f6020820190508181035f8301526145bb81614582565b9050919050565b7f5468652063757272656e637920646f65736e27742065786973747320696e20745f8201527f6865206c6174657374206c697374000000000000000000000000000000000000602082015250565b5f61461c602e8361339a565b9150614627826145c2565b604082019050919050565b5f6020820190508181035f83015261464981614610565b9050919050565b5f8151905061465e8161333b565b92915050565b5f815190506146728161356e565b92915050565b5f81519050614686816135c4565b92915050565b5f8151905061469a816135f4565b92915050565b5f6101e082840312156146b6576146b561343a565b5b6146c16101e061349c565b90505f6146d084828501614650565b5f83015250602082015167ffffffffffffffff8111156146f3576146f26134b6565b5b6146ff848285016141df565b602083015250604061471384828501614664565b604083015250606082015167ffffffffffffffff811115614737576147366134b6565b5b614743848285016141df565b606083015250608061475784828501614097565b60808301525060a061476b84828501614097565b60a08301525060c082015167ffffffffffffffff81111561478f5761478e6134b6565b5b61479b848285016141df565b60c08301525060e06147af84828501614097565b60e08301525061010082015167ffffffffffffffff8111156147d4576147d36134b6565b5b6147e0848285016141df565b6101008301525061012082015167ffffffffffffffff811115614806576148056134b6565b5b614812848285016141df565b6101208301525061014082015167ffffffffffffffff811115614838576148376134b6565b5b614844848285016141df565b6101408301525061016082015167ffffffffffffffff81111561486a576148696134b6565b5b614876848285016141df565b6101608301525061018061488c84828501614097565b610180830152506101a06148a284828501614678565b6101a0830152506101c06148b88482850161468c565b6101c08301525092915050565b5f80604083850312156148db576148da613308565b5b5f83015167ffffffffffffffff8111156148f8576148f761330c565b5b614904858286016146a0565b925050602061491585828601614097565b9150509250929050565b7f5061796d656e742041647669636520616c7265616479207075626c69736865645f82015250565b5f61495360208361339a565b915061495e8261491f565b602082019050919050565b5f6020820190508181035f83015261498081614947565b9050919050565b5f61499182613591565b915061499c83613591565b92508282019050808211156149b4576149b361413e565b5b92915050565b5f6040820190506149cd5f83018561406f565b6149da6020830184613c1b565b9392505050565b5f6040820190506149f45f830185613c1b565b8181036020830152614a068184613e85565b90509392505050565b5f608082019050614a225f83018761406f565b8181036020830152614a3481866133e2565b90508181036040830152614a4881856133e2565b9050614a576060830184613c1b565b95945050505050565b5f604082019050614a735f830185613c1b565b614a806020830184613c1b565b9392505050565b5f67ffffffffffffffff821115614aa157614aa061343e565b5b602082029050602081019050919050565b5f80fd5b5f614ac8614ac384614a87565b61349c565b90508083825260208201905060208402830185811115614aeb57614aea614ab2565b5b835b81811015614b3257805167ffffffffffffffff811115614b1057614b0f6134ba565b5b808601614b1d89826146a0565b85526020850194505050602081019050614aed565b5050509392505050565b5f82601f830112614b5057614b4f6134ba565b5b8151614b60848260208601614ab6565b91505092915050565b5f805f60608486031215614b8057614b7f613308565b5b5f84015167ffffffffffffffff811115614b9d57614b9c61330c565b5b614ba986828701614b3c565b9350506020614bba86828701614097565b9250506040614bcb86828701614097565b9150509250925092565b5f6060820190508181035f830152614bed81866133e2565b9050614bfc6020830185613c1b565b614c096040830184613c1b565b949350505050565b5f67ffffffffffffffff821115614c2b57614c2a61343e565b5b602082029050602081019050919050565b5f614c4e614c4984614c11565b61349c565b90508083825260208201905060208402830185811115614c7157614c70614ab2565b5b835b81811015614c9a5780614c868882614097565b845260208401935050602081019050614c73565b5050509392505050565b5f82601f830112614cb857614cb76134ba565b5b8151614cc8848260208601614c3c565b91505092915050565b5f805f60608486031215614ce857614ce7613308565b5b5f84015167ffffffffffffffff811115614d0557614d0461330c565b5b614d1186828701614ca4565b9350506020614d2286828701614097565b9250506040614d3386828701614097565b9150509250925092565b7f4e487b71000000000000000000000000000000000000000000000000000000005f52603260045260245ffd5b5f60208284031215614d7f57614d7e613308565b5b5f614d8c84828501614650565b91505092915050565b5f614d9f82613591565b91507fffffffffffffffffffffffffffffffffffffffffffffffffffffffffffffffff8203614dd157614dd061413e565b5b600182019050919050565b5f606082019050614def5f83018661406f565b614dfc6020830185613c1b565b614e096040830184613c1b565b949350505050565b7f56656e646f7220474944206e6f742061637469766500000000000000000000005f82015250565b5f614e4560158361339a565b9150614e5082614e11565b602082019050919050565b5f6020820190508181035f830152614e7281614e39565b9050919050565b7f50726f637572696e6720456e746974792047494420646f6573206e6f742065785f8201527f6973740000000000000000000000000000000000000000000000000000000000602082015250565b5f614ed360238361339a565b9150614ede82614e79565b604082019050919050565b5f6020820190508181035f830152614f0081614ec7565b9050919050565b7f504120776974682074686973207265666572656e6365206e756d62657220616c5f8201527f72656164792065786973747320696e207468652073797374656d000000000000602082015250565b5f614f61603a8361339a565b9150614f6c82614f07565b604082019050919050565b5f6020820190508181035f830152614f8e81614f55565b9050919050565b5f606082019050614fa85f83018661406f565b8181036020830152614fba81856133e2565b90508181036040830152614fce81846133e2565b9050949350505050565b5f60208284031215614fed57614fec613308565b5b5f82015167ffffffffffffffff81111561500a5761500961330c565b5b615016848285016146a0565b91505092915050565b5f6040820190508181035f83015261503781856133e2565b9050818103602083015261504b81846133e2565b90509392505050565b5f819050919050565b61506e61506982613591565b615054565b82525050565b5f61507f828e614495565b915061508b828d614495565b9150615097828c61505d565b6020820191506150a7828b61505d565b6020820191506150b7828a614495565b91506150c3828961505d565b6020820191506150d38288614495565b91506150df8287614495565b91506150eb8286614495565b91506150f78285614495565b9150615103828461505d565b6020820191508190509c9b505050505050505050505050565b5f6040820190508181035f83015261513481856133e2565b90506151436020830184613c1b565b939250505056fea2646970667358221220b5dcd55b429b0cc137b3f676923bfeb7583dc211bc587398f8a55e914fdf1b4264736f6c63430008140033",
  "immutableReferences": {},
  "source": "pragma solidity ^0.8.0;\npragma experimental ABIEncoderV2;\nimport \"./VendorManager.sol\";\nimport \"./ProcuringEntityManager.sol\";\nimport \"./PaymentAdviceModel.sol\";\nimport \"./VcnFunctionalManager.sol\";\n\ncontract PaymentAdviceManager is PaymentAdviceStructs {\n\n    address private permIntfAddress;\n    VendorManager private vendorManager;\n    ProcuringEntityManager private procuringEntityManager;\n    PaymentAdviceModel private paymentAdviceModel;\n    VcnFunctionalManager private vcnFunctionalManager;\n\n    event PaymentAdviceRegistered(bytes8 _paUid, string _paymentAdviceReferenceNumber, string _peGid);\n    \n    event AmendmentPaymentAdviceRegistered(bytes8 _paUid, string _paymentAdviceReferenceNumber, string _peGid, uint _paAmendment);\n\n    constructor (address _permIntf, address _vendorManager, address _procuringEntityManager, address _paymentAdviceModel, address _vcnFunctionalManager) {\n        permIntfAddress = _permIntf;\n        vendorManager = VendorManager(_vendorManager);\n        procuringEntityManager = ProcuringEntityManager(_procuringEntityManager);\n        paymentAdviceModel = PaymentAdviceModel(_paymentAdviceModel);\n        vcnFunctionalManager = VcnFunctionalManager(_vcnFunctionalManager);\n    }\n\n    modifier validCurrency(string memory _currency){\n        require(vcnFunctionalManager.isCurrencyExists(_currency), \"The currency doesn't exists in the latest list\");\n        _;\n    }\n\n    modifier onlyEgpAccount(string memory _orgId) {\n        (bool success, bytes memory data) = permIntfAddress.call(\n            abi.encodeWithSignature(\n                \"validateOrgAndAccount(address,string)\",\n                msg.sender,\n                _orgId\n            )\n        );\n        require(\n            success,\n            \"permissions call failed\"\n        );\n        require(\n            abi.decode(data, (bool)),\n            \"account does not exists or exists but doesn't belong to passed orgId\"\n        );\n        _;\n    }\n\n    modifier paymentAdviceExists(bytes8 _uid) {\n        require(0!=paymentAdviceModel.getPaymentAdviceIndex(_uid), \"UID does not exist\");\n        _;\n    }\n\n    modifier validatePeAndVendorGids(PaymentAdvice memory _paymentAdvice) {\n        require(vendorManager.isGidActive(_paymentAdvice.vendorGid), \"Vendor GID not active\");\n        require(procuringEntityManager.isGidExists(_paymentAdvice.procuringEntityGid), \"Procuring Entity GID does not exist\");\n        _;\n    }\n\n\n    modifier checkPaReferenceNumberByEgpAccount (string memory _paymentAdviceReferenceNumber, string memory _egpSystemId) {\n        require(paymentAdviceModel.getPaymentAdviceIndexListLengthByPaymentAdviceAndEgpId(\n            bytes8(keccak256(abi.encodePacked(_paymentAdviceReferenceNumber,_egpSystemId)))) > 0, \"Initial PA is not been submitted or PaymentAdvice Ref Number not found in the system to submit amendment\" );\n        _;\n    }\n\n    modifier checkPaReferenceNumberExists (string memory _paymentAdviceReferenceNumber) {\n        require(paymentAdviceModel.getMapPaymentAdviceReferenceNumber(_paymentAdviceReferenceNumber) == 0, \"PA with this reference number already exists in the system\" );\n        _;\n    }\n\n    function registerPaymentAdvice(PaymentAdvice memory _paymentAdvice) public \n    onlyEgpAccount(_paymentAdvice.egpSystemId)\n    validatePeAndVendorGids(_paymentAdvice)\n    checkPaReferenceNumberExists(_paymentAdvice.paymentAdviceReferenceNumber)\n    validCurrency(_paymentAdvice.currency) {\n        uint id = paymentAdviceModel.getPaymentAdviceListLength();\n        bytes8 uid = _generateUID(_paymentAdvice);\n        require(paymentAdviceModel.getPaymentAdviceIndex(uid)==0, \"Payment Advice already published\");\n        _paymentAdvice.uid = uid;\n        paymentAdviceModel.setPaymentAdviceIndex(uid, 1+id);\n        _addPaymentAdvideIndexes(id, _paymentAdvice);\n        paymentAdviceModel.incPaymentAdviceListLength();\n        paymentAdviceModel.addPaymentAdvice(id, _paymentAdvice);\n        emit PaymentAdviceRegistered(_paymentAdvice.uid, _paymentAdvice.paymentAdviceReferenceNumber, \n        _paymentAdvice.procuringEntityGid);\n    }\n\n\n    function amendedPaymentAdvice(PaymentAdvice memory _paymentAdvice) public\n    onlyEgpAccount(_paymentAdvice.egpSystemId)\n    checkPaReferenceNumberByEgpAccount(_paymentAdvice.paymentAdviceReferenceNumber,_paymentAdvice.egpSystemId)\n    validCurrency(_paymentAdvice.currency) {\n        uint id = paymentAdviceModel.getPaymentAdviceListLength();\n        uint _PrevIndex;\n        (_paymentAdvice, _PrevIndex) = paymentAdviceModel.generatePaymentAdvice(_paymentAdvice);\n        bytes8 uid = _generateUID(_paymentAdvice);\n        require(paymentAdviceModel.getPaymentAdviceIndex(uid)==0,\"Payment Advice already published\");\n        _paymentAdvice.uid = uid;\n        paymentAdviceModel.setPaymentAdviceIndex(uid, 1+id);\n        paymentAdviceModel.addPaymentAdviceIndexListByPaymentAdviceAndEgpId(\n            bytes8(keccak256(abi.encodePacked(_paymentAdvice.paymentAdviceReferenceNumber,_paymentAdvice.egpSystemId))), id);\n        paymentAdviceModel.incPaymentAdviceListLength();\n        paymentAdviceModel.updatePreviousPAtoOutdated(_PrevIndex);\n        paymentAdviceModel.addPaymentAdvice(id, _paymentAdvice);\n        emit AmendmentPaymentAdviceRegistered(_paymentAdvice.uid, _paymentAdvice.paymentAdviceReferenceNumber, \n        _paymentAdvice.procuringEntityGid, _paymentAdvice.amendment);\n    }\n\n    function getAllPaymentAdvice(uint _toExcluded, uint _count) external view \n    returns(PaymentAdvice[] memory _paymentAdvice, uint fromIncluded_, uint length_) {\n        (_paymentAdvice, fromIncluded_, length_) = paymentAdviceModel.getAllPaymentAdvice(_toExcluded, _count);\n    }\n\n    function getLatestPaUidByReferenceNumber (string memory _paymentAdviceReferenceNumber) public view \n    returns (bytes8){\n        string memory _egpSystemId = paymentAdviceModel.getMapPaymentAdviceReferenceNumberToEgpId(_paymentAdviceReferenceNumber);\n        uint _prevIndex = paymentAdviceModel.getPreviousIndex(_paymentAdviceReferenceNumber, _egpSystemId);\n        return paymentAdviceModel.getPaymentAdviceUid(_prevIndex);\n    }\n\n    function getLatestPaByReferenceNumber (string memory _paymentAdviceReferenceNumber) public view \n    returns (PaymentAdvice memory _pa){\n        bytes8 _paUid = getLatestPaUidByReferenceNumber(_paymentAdviceReferenceNumber);\n        _pa = getPaymentAdvice(_paUid);\n    }\n\n    function getPaymentAdviceListByPaymentAdviceRefAndEgpId(string memory _paymentAdviceReferenceNumber, string memory _egpSystemId, uint _toExcluded, uint _count) public view \n    returns (PaymentAdvice[] memory paymentAdvices_, uint fromIncluded_, uint length_) {\n        bytes8 uid = bytes8(keccak256(abi.encodePacked(_paymentAdviceReferenceNumber,_egpSystemId)));\n        uint[] memory indexList;\n        (indexList, fromIncluded_, length_) = paymentAdviceModel.getPaymentAdviceIndexListByPaymentAdviceAndEgpId(uid, _toExcluded, _count);\n        paymentAdvices_ = new PaymentAdvice[](indexList.length);\n        for (uint256 i = 0; i < indexList.length; i++) {\n            paymentAdvices_[i] = paymentAdviceModel.getPaymentAdviceByIndex(indexList[i]);\n        }\n    }\n\n    function getPaymentAdviceUidsByPaymentAdviceRefAndEgpId(string memory _paymentAdviceReferenceNumber, string memory _egpSystemId, uint _toExcluded, uint _count) public view \n    returns (bytes8[] memory uids_, uint fromIncluded_, uint length_) {\n        bytes8 uid = bytes8(keccak256(abi.encodePacked(_paymentAdviceReferenceNumber,_egpSystemId)));\n        uint[] memory indexList;\n        (indexList, fromIncluded_, length_) = paymentAdviceModel.getPaymentAdviceIndexListByPaymentAdviceAndEgpId(uid, _toExcluded, _count);\n        uids_ = new bytes8[](indexList.length);\n        for (uint256 i = 0; i < indexList.length; i++) {\n            uids_[i] = paymentAdviceModel.getPaymentAdviceUid(indexList[i]);\n        }\n    }\n\n    function getPaymentAdviceUidsByVendorGid(string memory _vendorGid, uint _toExcluded, uint _count) public view \n    returns (bytes8[] memory uids_, uint fromIncluded_, uint length_) {\n        uint[] memory indexList;\n        (indexList, fromIncluded_, length_) = paymentAdviceModel.getPaymentAdviceIndexListByVendorGid(_vendorGid, _toExcluded, _count);\n        uids_ = new bytes8[](indexList.length);\n        for (uint256 i = 0; i < indexList.length; i++) {\n            uids_[i] = paymentAdviceModel.getPaymentAdviceUid(indexList[i]);\n        }\n    }\n\n    function getPaymentAdviceUidsByEgpId(string memory _egpId, uint _toExcluded, uint _count) public view \n    returns (bytes8[] memory uids_, uint fromIncluded_, uint length_) {\n        uint[] memory indexList;\n        (indexList, fromIncluded_, length_) = paymentAdviceModel.getPaymentAdviceIndexListByEgpId(_egpId, _toExcluded, _count);\n        uids_ = new bytes8[](indexList.length);\n        for (uint256 i = 0; i < indexList.length; i++) {\n            uids_[i] = paymentAdviceModel.getPaymentAdviceUid(indexList[i]);\n        }\n    }\n\n    function getPaymentAdviceUidsByProcuringEntityGid(string memory _gid, uint _toExcluded, uint _count) public view \n    returns (bytes8[] memory uids_, uint fromIncluded_, uint length_) {\n        uint[] memory indexList;\n        (indexList, fromIncluded_, length_) = paymentAdviceModel.getPaymentAdviceIndexListByProcuringEntityGid(_gid, _toExcluded, _count);\n        uids_ = new bytes8[](indexList.length);\n        for (uint256 i = 0; i < indexList.length; i++) {\n            uids_[i] = paymentAdviceModel.getPaymentAdviceUid(indexList[i]);\n        }\n    }\n\n    function getPaymentAdvice(bytes8 _uid) public view \n    paymentAdviceExists(_uid) \n    returns (PaymentAdvice memory paymentAdvice_) {\n        paymentAdvice_ = paymentAdviceModel.getPaymentAdviceByIndex(_getPaymentAdviceIndex(_uid));\n    }\n\n    function getPaymentAdviceVendorGidbyUid (bytes8 _uid) public view\n    paymentAdviceExists(_uid) \n    returns (string memory _gid)\n    {\n        uint256 _index = paymentAdviceModel.getPaymentAdviceIndex(_uid) - 1;\n        return paymentAdviceModel.getPaymentAdviceVendorGid(_index); \n    }\n\n    function getPaymentAdviceProcuringEntityGidyUid (bytes8 _uid) public view\n    paymentAdviceExists(_uid) \n    returns (string memory _gid)\n    {\n        uint256 _index = paymentAdviceModel.getPaymentAdviceIndex(_uid) - 1;\n        return paymentAdviceModel.getPaymentAdviceProcuringEntityGid(_index); \n    }\n\n\n    function isUidExists(bytes8 _uid) external view \n    returns (bool) {\n        return 0!=paymentAdviceModel.getPaymentAdviceIndex(_uid);\n    }\n\n    function _generateUID(PaymentAdvice memory _paymentAdvice) public pure returns (bytes8){\n        return bytes8(keccak256(abi.encodePacked(_paymentAdvice.egpSystemId,_paymentAdvice.paymentAdviceReferenceNumber,\n        _paymentAdvice.validityPeriodDays, _paymentAdvice.bankGuaranteeClaimExpiryDate, _paymentAdvice.currency,\n        _paymentAdvice.bankGuaranteeAmount, _paymentAdvice.vendorGid, _paymentAdvice.vendorName, _paymentAdvice.procuringEntityGid, \n        _paymentAdvice.procuringEntityName, _paymentAdvice.amendment)));\n    }\n\n    function _addPaymentAdvideIndexes(uint _id, PaymentAdvice memory _paymentAdvice) internal {\n        paymentAdviceModel.addPaymentAdviceIndexListByPaymentAdviceAndEgpId(\n            bytes8(keccak256(abi.encodePacked(_paymentAdvice.paymentAdviceReferenceNumber,_paymentAdvice.egpSystemId))), _id);\n        paymentAdviceModel.addPaymentAdviceIndexListByEgpId(_paymentAdvice.egpSystemId, _id);\n        paymentAdviceModel.addPaymentAdviceIndexListByVendorGid(_paymentAdvice.vendorGid, _id);\n        paymentAdviceModel.addPaymentAdviceIndexListByProcuringEntityGid(_paymentAdvice.procuringEntityGid, _id);\n        paymentAdviceModel.addMapPaymentAdviceReferenceNumber(_paymentAdvice.paymentAdviceReferenceNumber, _paymentAdvice.egpSystemId);\n    }\n\n\n    function _getPaymentAdviceIndex(bytes8 _uid) internal view \n    returns (uint) {\n        return paymentAdviceModel.getPaymentAdviceIndex(_uid) - 1;\n    }\n    \n    function getPaymentAdviceCurrencyType (bytes8 _uid) public view\n    paymentAdviceExists(_uid)\n    returns (string memory currency_)\n    {\n        currency_ = paymentAdviceModel.getPaymentAdviceBankGuaranteeCurrency(_getPaymentAdviceIndex(_uid));\n    }\n\n    function getPaymentAdviceBGAmount(bytes8 _uid) public view\n    returns(uint) {\n\n        uint256 _index = paymentAdviceModel.getPaymentAdviceIndex(_uid) - 1;\n        return paymentAdviceModel.getPaymentAdviceBankGuaranteeAmount(_index);\n    }\n\n    function getPaymentAdviceReferenceNumberExist (string memory _paymentAdviceReferenceNumber) public view\n    returns(uint)\n    {\n        return paymentAdviceModel.getMapPaymentAdviceReferenceNumber(_paymentAdviceReferenceNumber);\n    }\n\n}",
  "sourcePath": "/home/raghupathi/Desktop/javaClass/javaClass/contracts/PaymentAdviceManager.sol",
  "compiler": {
    "name": "solc",
    "version": "0.8.20+commit.a1b79de6.Emscripten.clang"
  },
  "schemaVersion": "3.4.14",
  "updatedAt": "2023-06-02T09:43:22.630Z",
  "devdoc": {
    "kind": "dev",
    "methods": {},
    "version": 1
  },
  "userdoc": {
    "kind": "user",
    "methods": {},
    "version": 1
  }
}