{
  "contractName": "ProcuringEntityManager",
  "abi": [
    {
      "inputs": [
        {
          "internalType": "address",
          "name": "_permIntf",
          "type": "address"
        },
        {
          "internalType": "address",
          "name": "_procuringEntityModel",
          "type": "address"
        },
        {
          "internalType": "address",
          "name": "_uidUtils",
          "type": "address"
        }
      ],
      "stateMutability": "nonpayable",
      "type": "constructor"
    },
    {
      "anonymous": false,
      "inputs": [
        {
          "indexed": false,
          "internalType": "string",
          "name": "_peGid",
          "type": "string"
        },
        {
          "indexed": false,
          "internalType": "string",
          "name": "_peName",
          "type": "string"
        },
        {
          "indexed": false,
          "internalType": "string",
          "name": "_peExternalId",
          "type": "string"
        },
        {
          "indexed": false,
          "internalType": "string",
          "name": "_egpSystemId",
          "type": "string"
        },
        {
          "indexed": false,
          "internalType": "uint16",
          "name": "_version",
          "type": "uint16"
        }
      ],
      "name": "procuringEntityRegistered",
      "type": "event"
    },
    {
      "inputs": [
        {
          "internalType": "string",
          "name": "_name",
          "type": "string"
        },
        {
          "internalType": "string",
          "name": "_externalId",
          "type": "string"
        },
        {
          "internalType": "string",
          "name": "_orgId",
          "type": "string"
        }
      ],
      "name": "registerProcuringEntity",
      "outputs": [],
      "stateMutability": "nonpayable",
      "type": "function"
    },
    {
      "inputs": [
        {
          "internalType": "string",
          "name": "_gid",
          "type": "string"
        }
      ],
      "name": "getProcuringEntityByGid",
      "outputs": [
        {
          "internalType": "string",
          "name": "gid",
          "type": "string"
        },
        {
          "internalType": "string",
          "name": "name",
          "type": "string"
        },
        {
          "internalType": "string",
          "name": "externalId",
          "type": "string"
        },
        {
          "internalType": "string",
          "name": "orgId",
          "type": "string"
        },
        {
          "internalType": "uint16",
          "name": "version",
          "type": "uint16"
        }
      ],
      "stateMutability": "view",
      "type": "function"
    },
    {
      "inputs": [
        {
          "internalType": "uint256",
          "name": "_toExcluded",
          "type": "uint256"
        },
        {
          "internalType": "uint256",
          "name": "_count",
          "type": "uint256"
        }
      ],
      "name": "getAllProcuringEntity",
      "outputs": [
        {
          "components": [
            {
              "internalType": "string",
              "name": "gid",
              "type": "string"
            },
            {
              "internalType": "string",
              "name": "name",
              "type": "string"
            },
            {
              "internalType": "string",
              "name": "externalId",
              "type": "string"
            },
            {
              "internalType": "string",
              "name": "orgId",
              "type": "string"
            },
            {
              "internalType": "uint16",
              "name": "version",
              "type": "uint16"
            }
          ],
          "internalType": "struct ProcuringEntityStructs.ProcuringEntity[]",
          "name": "banks_",
          "type": "tuple[]"
        },
        {
          "internalType": "uint256",
          "name": "fromIncluded_",
          "type": "uint256"
        },
        {
          "internalType": "uint256",
          "name": "length_",
          "type": "uint256"
        }
      ],
      "stateMutability": "view",
      "type": "function"
    },
    {
      "inputs": [
        {
          "internalType": "string",
          "name": "_orgId",
          "type": "string"
        },
        {
          "internalType": "uint256",
          "name": "_toExcluded",
          "type": "uint256"
        },
        {
          "internalType": "uint256",
          "name": "_count",
          "type": "uint256"
        }
      ],
      "name": "getProcuringEntitiesForOrgId",
      "outputs": [
        {
          "components": [
            {
              "internalType": "string",
              "name": "gid",
              "type": "string"
            },
            {
              "internalType": "string",
              "name": "name",
              "type": "string"
            },
            {
              "internalType": "string",
              "name": "externalId",
              "type": "string"
            },
            {
              "internalType": "string",
              "name": "orgId",
              "type": "string"
            },
            {
              "internalType": "uint16",
              "name": "version",
              "type": "uint16"
            }
          ],
          "internalType": "struct ProcuringEntityStructs.ProcuringEntity[]",
          "name": "procuringEntities_",
          "type": "tuple[]"
        },
        {
          "internalType": "uint256",
          "name": "fromIncluded_",
          "type": "uint256"
        }
      ],
      "stateMutability": "view",
      "type": "function"
    },
    {
      "inputs": [
        {
          "internalType": "string",
          "name": "_gid",
          "type": "string"
        }
      ],
      "name": "getProcuringEntityOrgIdByGid",
      "outputs": [
        {
          "internalType": "string",
          "name": "orgId_",
          "type": "string"
        }
      ],
      "stateMutability": "view",
      "type": "function"
    },
    {
      "inputs": [
        {
          "internalType": "string",
          "name": "_gid",
          "type": "string"
        }
      ],
      "name": "isGidExists",
      "outputs": [
        {
          "internalType": "bool",
          "name": "",
          "type": "bool"
        }
      ],
      "stateMutability": "view",
      "type": "function"
    }
  ],
  "bytecode": "0x608060405234801562000010575f80fd5b50604051620025bb380380620025bb833981810160405281019062000036919062000163565b825f806101000a81548173ffffffffffffffffffffffffffffffffffffffff021916908373ffffffffffffffffffffffffffffffffffffffff1602179055508160015f6101000a81548173ffffffffffffffffffffffffffffffffffffffff021916908373ffffffffffffffffffffffffffffffffffffffff1602179055508060025f6101000a81548173ffffffffffffffffffffffffffffffffffffffff021916908373ffffffffffffffffffffffffffffffffffffffff160217905550505050620001bc565b5f80fd5b5f73ffffffffffffffffffffffffffffffffffffffff82169050919050565b5f6200012d8262000102565b9050919050565b6200013f8162000121565b81146200014a575f80fd5b50565b5f815190506200015d8162000134565b92915050565b5f805f606084860312156200017d576200017c620000fe565b5b5f6200018c868287016200014d565b93505060206200019f868287016200014d565b9250506040620001b2868287016200014d565b9150509250925092565b6123f180620001ca5f395ff3fe608060405234801561000f575f80fd5b5060043610610060575f3560e01c806367c85a8d146100645780637f96660f14610080578063820bd164146100b45780638338e9c5146100e657806388f5f344146101165780639aec7d1514610146575b5f80fd5b61007e60048036038101906100799190611549565b610177565b005b61009a600480360381019061009591906115ed565b61091f565b6040516100ab9594939291906116ca565b60405180910390f35b6100ce60048036038101906100c9919061176a565b610d46565b6040516100dd93929190611951565b60405180910390f35b61010060048036038101906100fb91906115ed565b610dfb565b60405161010d919061198d565b60405180910390f35b610130600480360381019061012b91906115ed565b610f8d565b60405161013d91906119c7565b60405180910390f35b610160600480360381019061015b91906119e0565b611030565b60405161016e929190611a4c565b60405180910390f35b33815f805f8054906101000a900473ffffffffffffffffffffffffffffffffffffffff1673ffffffffffffffffffffffffffffffffffffffff1684846040516024016101c4929190611ab9565b6040516020818303038152906040527f57c74183000000000000000000000000000000000000000000000000000000007bffffffffffffffffffffffffffffffffffffffffffffffffffffffff19166020820180517bffffffffffffffffffffffffffffffffffffffffffffffffffffffff838183161783525050505060405161024e9190611b2b565b5f604051808303815f865af19150503d805f8114610287576040519150601f19603f3d011682016040523d82523d5f602084013e61028c565b606091505b5091509150816102d1576040517f08c379a00000000000000000000000000000000000000000000000000000000081526004016102c890611b8b565b60405180910390fd5b5f818060200190518101906102e69190611bd3565b905080610328576040517f08c379a000000000000000000000000000000000000000000000000000000000815260040161031f90611c94565b60405180910390fd5b5f60025f9054906101000a900473ffffffffffffffffffffffffffffffffffffffff1673ffffffffffffffffffffffffffffffffffffffff1663c359a6c18a8a8a60405160200161037b93929190611cec565b604051602081830303815290604052805190602001206040518263ffffffff1660e01b81526004016103ad9190611d34565b5f60405180830381865afa1580156103c7573d5f803e3d5ffd5b505050506040513d5f823e3d601f19601f820116820180604052508101906103ef9190611dbb565b905060025f9054906101000a900473ffffffffffffffffffffffffffffffffffffffff1673ffffffffffffffffffffffffffffffffffffffff16636057ed41826040518263ffffffff1660e01b815260040161044b919061198d565b5f60405180830381865afa158015610465573d5f803e3d5ffd5b505050506040513d5f823e3d601f19601f8201168201806040525081019061048d9190611dbb565b90505f6040518060a001604052808381526020018b81526020018a81526020018981526020015f61ffff1681525090505f60015f9054906101000a900473ffffffffffffffffffffffffffffffffffffffff1673ffffffffffffffffffffffffffffffffffffffff16630b10f5ef6040518163ffffffff1660e01b8152600401602060405180830381865afa158015610528573d5f803e3d5ffd5b505050506040513d601f19601f8201168201806040525081019061054c9190611e16565b905060015f9054906101000a900473ffffffffffffffffffffffffffffffffffffffff1673ffffffffffffffffffffffffffffffffffffffff16638d5de772846001846105999190611e6e565b6040518363ffffffff1660e01b81526004016105b6929190611ea1565b5f604051808303815f87803b1580156105cd575f80fd5b505af11580156105df573d5f803e3d5ffd5b5050505060015f9054906101000a900473ffffffffffffffffffffffffffffffffffffffff1673ffffffffffffffffffffffffffffffffffffffff1663faa3dd9b836040518263ffffffff1660e01b815260040161063d9190611f57565b5f604051808303815f87803b158015610654575f80fd5b505af1158015610666573d5f803e3d5ffd5b505050507fac1bfbce41345c1efda4b9f1ad2bf76e1f0ad4600491f925a03af5b40f921d1a8360015f9054906101000a900473ffffffffffffffffffffffffffffffffffffffff1673ffffffffffffffffffffffffffffffffffffffff166374b1d5ce846040518263ffffffff1660e01b81526004016106e69190611f77565b5f60405180830381865afa158015610700573d5f803e3d5ffd5b505050506040513d5f823e3d601f19601f820116820180604052508101906107289190611dbb565b60015f9054906101000a900473ffffffffffffffffffffffffffffffffffffffff1673ffffffffffffffffffffffffffffffffffffffff16638404442f856040518263ffffffff1660e01b81526004016107829190611f77565b5f60405180830381865afa15801561079c573d5f803e3d5ffd5b505050506040513d5f823e3d601f19601f820116820180604052508101906107c49190611dbb565b60015f9054906101000a900473ffffffffffffffffffffffffffffffffffffffff1673ffffffffffffffffffffffffffffffffffffffff1663f45f3e24866040518263ffffffff1660e01b815260040161081e9190611f77565b5f60405180830381865afa158015610838573d5f803e3d5ffd5b505050506040513d5f823e3d601f19601f820116820180604052508101906108609190611dbb565b60015f9054906101000a900473ffffffffffffffffffffffffffffffffffffffff1673ffffffffffffffffffffffffffffffffffffffff166339b0d161876040518263ffffffff1660e01b81526004016108ba9190611f77565b602060405180830381865afa1580156108d5573d5f803e3d5ffd5b505050506040513d601f19601f820116820180604052508101906108f99190611fba565b60405161090a9594939291906116ca565b60405180910390a15050505050505050505050565b6060806060805f8060015f9054906101000a900473ffffffffffffffffffffffffffffffffffffffff1673ffffffffffffffffffffffffffffffffffffffff166330680c2d886040518263ffffffff1660e01b8152600401610981919061198d565b602060405180830381865afa15801561099c573d5f803e3d5ffd5b505050506040513d601f19601f820116820180604052508101906109c09190611e16565b90505f8103610a1a575f60405180602001604052805f8152509060405180602001604052805f8152509060405180602001604052805f8152509060405180602001604052805f815250909550955095509550955050610d3d565b8080610a2590611fe5565b91505060015f9054906101000a900473ffffffffffffffffffffffffffffffffffffffff1673ffffffffffffffffffffffffffffffffffffffff1663c1fe6327826040518263ffffffff1660e01b8152600401610a829190611f77565b5f60405180830381865afa158015610a9c573d5f803e3d5ffd5b505050506040513d5f823e3d601f19601f82011682018060405250810190610ac49190611dbb565b60015f9054906101000a900473ffffffffffffffffffffffffffffffffffffffff1673ffffffffffffffffffffffffffffffffffffffff166374b1d5ce836040518263ffffffff1660e01b8152600401610b1e9190611f77565b5f60405180830381865afa158015610b38573d5f803e3d5ffd5b505050506040513d5f823e3d601f19601f82011682018060405250810190610b609190611dbb565b60015f9054906101000a900473ffffffffffffffffffffffffffffffffffffffff1673ffffffffffffffffffffffffffffffffffffffff16638404442f846040518263ffffffff1660e01b8152600401610bba9190611f77565b5f60405180830381865afa158015610bd4573d5f803e3d5ffd5b505050506040513d5f823e3d601f19601f82011682018060405250810190610bfc9190611dbb565b60015f9054906101000a900473ffffffffffffffffffffffffffffffffffffffff1673ffffffffffffffffffffffffffffffffffffffff1663f45f3e24856040518263ffffffff1660e01b8152600401610c569190611f77565b5f60405180830381865afa158015610c70573d5f803e3d5ffd5b505050506040513d5f823e3d601f19601f82011682018060405250810190610c989190611dbb565b60015f9054906101000a900473ffffffffffffffffffffffffffffffffffffffff1673ffffffffffffffffffffffffffffffffffffffff166339b0d161866040518263ffffffff1660e01b8152600401610cf29190611f77565b602060405180830381865afa158015610d0d573d5f803e3d5ffd5b505050506040513d601f19601f82011682018060405250810190610d319190611fba565b95509550955095509550505b91939590929450565b60605f8060015f9054906101000a900473ffffffffffffffffffffffffffffffffffffffff1673ffffffffffffffffffffffffffffffffffffffff166369a3e52386866040518363ffffffff1660e01b8152600401610da692919061200c565b5f60405180830381865afa158015610dc0573d5f803e3d5ffd5b505050506040513d5f823e3d601f19601f82011682018060405250810190610de89190612216565b8093508194508295505050509250925092565b60605f60015f9054906101000a900473ffffffffffffffffffffffffffffffffffffffff1673ffffffffffffffffffffffffffffffffffffffff166330680c2d846040518263ffffffff1660e01b8152600401610e58919061198d565b602060405180830381865afa158015610e73573d5f803e3d5ffd5b505050506040513d601f19601f82011682018060405250810190610e979190611e16565b9050805f03610edb576040517f08c379a0000000000000000000000000000000000000000000000000000000008152600401610ed2906122cc565b60405180910390fd5b8080610ee690611fe5565b91505060015f9054906101000a900473ffffffffffffffffffffffffffffffffffffffff1673ffffffffffffffffffffffffffffffffffffffff1663f45f3e24826040518263ffffffff1660e01b8152600401610f439190611f77565b5f60405180830381865afa158015610f5d573d5f803e3d5ffd5b505050506040513d5f823e3d601f19601f82011682018060405250810190610f859190611dbb565b915050919050565b5f8060015f9054906101000a900473ffffffffffffffffffffffffffffffffffffffff1673ffffffffffffffffffffffffffffffffffffffff166330680c2d846040518263ffffffff1660e01b8152600401610fe9919061198d565b602060405180830381865afa158015611004573d5f803e3d5ffd5b505050506040513d601f19601f820116820180604052508101906110289190611e16565b119050919050565b60605f8060015f9054906101000a900473ffffffffffffffffffffffffffffffffffffffff1673ffffffffffffffffffffffffffffffffffffffff16630b10f5ef6040518163ffffffff1660e01b8152600401602060405180830381865afa15801561109e573d5f803e3d5ffd5b505050506040513d601f19601f820116820180604052508101906110c29190611e16565b9050808511156110d0578094505b5f808686116110df57856110e1565b865b90505f8167ffffffffffffffff8111156110fe576110fd611425565b5b60405190808252806020026020018201604052801561112c5781602001602082028036833780820191505090505b5090505b5f8811801561113e57508183105b1561127357878061114e90611fe5565b9850508860405160200161116291906122ea565b6040516020818303038152906040528051906020012060015f9054906101000a900473ffffffffffffffffffffffffffffffffffffffff1673ffffffffffffffffffffffffffffffffffffffff1663f45f3e248a6040518263ffffffff1660e01b81526004016111d29190611f77565b5f60405180830381865afa1580156111ec573d5f803e3d5ffd5b505050506040513d5f823e3d601f19601f820116820180604052508101906112149190611dbb565b60405160200161122491906122ea565b604051602081830303815290604052805190602001200361126e578781848151811061125357611252612300565b5b602002602001018181525050828061126a9061232d565b9350505b611130565b8794508267ffffffffffffffff8111156112905761128f611425565b5b6040519080825280602002602001820160405280156112c957816020015b6112b66113ca565b8152602001906001900390816112ae5790505b5095505f5b838110156113bd5760015f9054906101000a900473ffffffffffffffffffffffffffffffffffffffff1673ffffffffffffffffffffffffffffffffffffffff166367e04c5483838151811061132657611325612300565b5b60200260200101516040518263ffffffff1660e01b815260040161134a9190611f77565b5f60405180830381865afa158015611364573d5f803e3d5ffd5b505050506040513d5f823e3d601f19601f8201168201806040525081019061138c9190612374565b87828151811061139f5761139e612300565b5b602002602001018190525080806113b59061232d565b9150506112ce565b5050505050935093915050565b6040518060a00160405280606081526020016060815260200160608152602001606081526020015f61ffff1681525090565b5f604051905090565b5f80fd5b5f80fd5b5f80fd5b5f80fd5b5f601f19601f8301169050919050565b7f4e487b71000000000000000000000000000000000000000000000000000000005f52604160045260245ffd5b61145b82611415565b810181811067ffffffffffffffff8211171561147a57611479611425565b5b80604052505050565b5f61148c6113fc565b90506114988282611452565b919050565b5f67ffffffffffffffff8211156114b7576114b6611425565b5b6114c082611415565b9050602081019050919050565b828183375f83830152505050565b5f6114ed6114e88461149d565b611483565b90508281526020810184848401111561150957611508611411565b5b6115148482856114cd565b509392505050565b5f82601f8301126115305761152f61140d565b5b81356115408482602086016114db565b91505092915050565b5f805f606084860312156115605761155f611405565b5b5f84013567ffffffffffffffff81111561157d5761157c611409565b5b6115898682870161151c565b935050602084013567ffffffffffffffff8111156115aa576115a9611409565b5b6115b68682870161151c565b925050604084013567ffffffffffffffff8111156115d7576115d6611409565b5b6115e38682870161151c565b9150509250925092565b5f6020828403121561160257611601611405565b5b5f82013567ffffffffffffffff81111561161f5761161e611409565b5b61162b8482850161151c565b91505092915050565b5f81519050919050565b5f82825260208201905092915050565b5f5b8381101561166b578082015181840152602081019050611650565b5f8484015250505050565b5f61168082611634565b61168a818561163e565b935061169a81856020860161164e565b6116a381611415565b840191505092915050565b5f61ffff82169050919050565b6116c4816116ae565b82525050565b5f60a0820190508181035f8301526116e28188611676565b905081810360208301526116f68187611676565b9050818103604083015261170a8186611676565b9050818103606083015261171e8185611676565b905061172d60808301846116bb565b9695505050505050565b5f819050919050565b61174981611737565b8114611753575f80fd5b50565b5f8135905061176481611740565b92915050565b5f80604083850312156117805761177f611405565b5b5f61178d85828601611756565b925050602061179e85828601611756565b9150509250929050565b5f81519050919050565b5f82825260208201905092915050565b5f819050602082019050919050565b5f82825260208201905092915050565b5f6117eb82611634565b6117f581856117d1565b935061180581856020860161164e565b61180e81611415565b840191505092915050565b611822816116ae565b82525050565b5f60a083015f8301518482035f86015261184282826117e1565b9150506020830151848203602086015261185c82826117e1565b9150506040830151848203604086015261187682826117e1565b9150506060830151848203606086015261189082826117e1565b91505060808301516118a56080860182611819565b508091505092915050565b5f6118bb8383611828565b905092915050565b5f602082019050919050565b5f6118d9826117a8565b6118e381856117b2565b9350836020820285016118f5856117c2565b805f5b85811015611930578484038952815161191185826118b0565b945061191c836118c3565b925060208a019950506001810190506118f8565b50829750879550505050505092915050565b61194b81611737565b82525050565b5f6060820190508181035f83015261196981866118cf565b90506119786020830185611942565b6119856040830184611942565b949350505050565b5f6020820190508181035f8301526119a58184611676565b905092915050565b5f8115159050919050565b6119c1816119ad565b82525050565b5f6020820190506119da5f8301846119b8565b92915050565b5f805f606084860312156119f7576119f6611405565b5b5f84013567ffffffffffffffff811115611a1457611a13611409565b5b611a208682870161151c565b9350506020611a3186828701611756565b9250506040611a4286828701611756565b9150509250925092565b5f6040820190508181035f830152611a6481856118cf565b9050611a736020830184611942565b9392505050565b5f73ffffffffffffffffffffffffffffffffffffffff82169050919050565b5f611aa382611a7a565b9050919050565b611ab381611a99565b82525050565b5f604082019050611acc5f830185611aaa565b8181036020830152611ade8184611676565b90509392505050565b5f81519050919050565b5f81905092915050565b5f611b0582611ae7565b611b0f8185611af1565b9350611b1f81856020860161164e565b80840191505092915050565b5f611b368284611afb565b915081905092915050565b7f7065726d697373696f6e732063616c6c206661696c65640000000000000000005f82015250565b5f611b7560178361163e565b9150611b8082611b41565b602082019050919050565b5f6020820190508181035f830152611ba281611b69565b9050919050565b611bb2816119ad565b8114611bbc575f80fd5b50565b5f81519050611bcd81611ba9565b92915050565b5f60208284031215611be857611be7611405565b5b5f611bf584828501611bbf565b91505092915050565b7f6163636f756e7420646f6573206e6f7420657869737473206f722065786973745f8201527f732062757420646f65736e27742062656c6f6e6720746f20706173736564206f60208201527f7267496400000000000000000000000000000000000000000000000000000000604082015250565b5f611c7e60448361163e565b9150611c8982611bfe565b606082019050919050565b5f6020820190508181035f830152611cab81611c72565b9050919050565b5f81905092915050565b5f611cc682611634565b611cd08185611cb2565b9350611ce081856020860161164e565b80840191505092915050565b5f611cf78286611cbc565b9150611d038285611cbc565b9150611d0f8284611cbc565b9150819050949350505050565b5f819050919050565b611d2e81611d1c565b82525050565b5f602082019050611d475f830184611d25565b92915050565b5f611d5f611d5a8461149d565b611483565b905082815260208101848484011115611d7b57611d7a611411565b5b611d8684828561164e565b509392505050565b5f82601f830112611da257611da161140d565b5b8151611db2848260208601611d4d565b91505092915050565b5f60208284031215611dd057611dcf611405565b5b5f82015167ffffffffffffffff811115611ded57611dec611409565b5b611df984828501611d8e565b91505092915050565b5f81519050611e1081611740565b92915050565b5f60208284031215611e2b57611e2a611405565b5b5f611e3884828501611e02565b91505092915050565b7f4e487b71000000000000000000000000000000000000000000000000000000005f52601160045260245ffd5b5f611e7882611737565b9150611e8383611737565b9250828201905080821115611e9b57611e9a611e41565b5b92915050565b5f6040820190508181035f830152611eb98185611676565b9050611ec86020830184611942565b9392505050565b5f60a083015f8301518482035f860152611ee982826117e1565b91505060208301518482036020860152611f0382826117e1565b91505060408301518482036040860152611f1d82826117e1565b91505060608301518482036060860152611f3782826117e1565b9150506080830151611f4c6080860182611819565b508091505092915050565b5f6020820190508181035f830152611f6f8184611ecf565b905092915050565b5f602082019050611f8a5f830184611942565b92915050565b611f99816116ae565b8114611fa3575f80fd5b50565b5f81519050611fb481611f90565b92915050565b5f60208284031215611fcf57611fce611405565b5b5f611fdc84828501611fa6565b91505092915050565b5f611fef82611737565b91505f820361200157612000611e41565b5b600182039050919050565b5f60408201905061201f5f830185611942565b61202c6020830184611942565b9392505050565b5f67ffffffffffffffff82111561204d5761204c611425565b5b602082029050602081019050919050565b5f80fd5b5f80fd5b5f80fd5b5f60a0828403121561207f5761207e612062565b5b61208960a0611483565b90505f82015167ffffffffffffffff8111156120a8576120a7612066565b5b6120b484828501611d8e565b5f83015250602082015167ffffffffffffffff8111156120d7576120d6612066565b5b6120e384828501611d8e565b602083015250604082015167ffffffffffffffff81111561210757612106612066565b5b61211384828501611d8e565b604083015250606082015167ffffffffffffffff81111561213757612136612066565b5b61214384828501611d8e565b606083015250608061215784828501611fa6565b60808301525092915050565b5f61217561217084612033565b611483565b905080838252602082019050602084028301858111156121985761219761205e565b5b835b818110156121df57805167ffffffffffffffff8111156121bd576121bc61140d565b5b8086016121ca898261206a565b8552602085019450505060208101905061219a565b5050509392505050565b5f82601f8301126121fd576121fc61140d565b5b815161220d848260208601612163565b91505092915050565b5f805f6060848603121561222d5761222c611405565b5b5f84015167ffffffffffffffff81111561224a57612249611409565b5b612256868287016121e9565b935050602061226786828701611e02565b925050604061227886828701611e02565b9150509250925092565b7f50726f637572696e6720456e7469747920446f6573206e6f74204578697374005f82015250565b5f6122b6601f8361163e565b91506122c182612282565b602082019050919050565b5f6020820190508181035f8301526122e3816122aa565b9050919050565b5f6122f58284611cbc565b915081905092915050565b7f4e487b71000000000000000000000000000000000000000000000000000000005f52603260045260245ffd5b5f61233782611737565b91507fffffffffffffffffffffffffffffffffffffffffffffffffffffffffffffffff820361236957612368611e41565b5b600182019050919050565b5f6020828403121561238957612388611405565b5b5f82015167ffffffffffffffff8111156123a6576123a5611409565b5b6123b28482850161206a565b9150509291505056fea26469706673582212204e7947a5a63e8b20e0bd317c11d94f4d7245050719bbf871a13b7ef427db481364736f6c63430008140033",
  "immutableReferences": {},
  "source": "pragma solidity ^0.8.0;\nimport \"./ProcuringEntityModel.sol\";\nimport \"./UidUtils.sol\";\n\ncontract ProcuringEntityManager is ProcuringEntityStructs {\n\n    address private permInterfaceAddress;\n    ProcuringEntityModel private procuringEntityModel;\n    UidUtils private uidUtils;\n\n    constructor(address _permIntf, address _procuringEntityModel, address _uidUtils) {\n        permInterfaceAddress = _permIntf;\n        procuringEntityModel = ProcuringEntityModel(_procuringEntityModel);\n        uidUtils = UidUtils(_uidUtils);\n    }\n\n    event procuringEntityRegistered(\n        string  _peGid,\n        string _peName,\n        string _peExternalId,\n        string _egpSystemId,\n        uint16 _version\n    );\n\n    modifier validateOrgAndAccount(address _account, string memory _orgId) {\n        (bool success, bytes memory data) = permInterfaceAddress.call(\n            abi.encodeWithSignature(\n                \"validateOrgAndAccount(address,string)\",\n                _account,\n                _orgId\n            )\n        );\n        require(\n            success,\n            \"permissions call failed\"\n        );\n        bool isValid = abi.decode(data, (bool));\n        require(\n            isValid,\n            \"account does not exists or exists but doesn't belong to passed orgId\"\n        );\n        _;\n    }\n\n    function registerProcuringEntity(\n        string memory _name,\n        string memory _externalId,\n        string memory _orgId\n    )\n        public        \n        validateOrgAndAccount(msg.sender, _orgId)\n    {\n        string memory gid = uidUtils.bytes32ToAlphanumeric7(\n            keccak256(abi.encodePacked(_name, _externalId, _orgId))\n        );\n        gid = uidUtils.addLuhnCheckDigit(gid);\n        ProcuringEntity memory proc = ProcuringEntity(gid, _name, _externalId, _orgId, 0);\n        uint id = procuringEntityModel.getProcuringEntityListLength();\n        procuringEntityModel.setProcuringEntityIndex(gid, id+1);\n        procuringEntityModel.pushProcuringEntity(proc);\n        emit procuringEntityRegistered(\n            gid,\n            procuringEntityModel.getProcuringEntityName(id),\n            procuringEntityModel.getProcuringEntityExternalId(id),\n            procuringEntityModel.getProcuringEntityOrgId(id),\n            procuringEntityModel.getProcuringEntityVersion(id)\n        );\n    }\n\n    function getProcuringEntityByGid(string memory _gid)\n        public\n        view\n        returns (\n            string memory gid,\n            string memory name,\n            string memory externalId,\n            string memory orgId,\n            uint16 version\n        )\n    {\n        uint256 id = procuringEntityModel.getProcuringEntityIndex(_gid);\n        if (id == 0) {\n            return (\"\", \"\", \"\", \"\", 0);\n        } else {\n            id--;\n            return (\n                procuringEntityModel.getProcuringEntityGid(id),\n                procuringEntityModel.getProcuringEntityName(id),\n                procuringEntityModel.getProcuringEntityExternalId(id),\n                procuringEntityModel.getProcuringEntityOrgId(id),\n                procuringEntityModel.getProcuringEntityVersion(id)\n            );\n        }\n    }\n\n    function getAllProcuringEntity(uint _toExcluded, uint _count) public view\n    returns(ProcuringEntity [] memory banks_, uint fromIncluded_, uint length_) {\n        (banks_,fromIncluded_, length_) = procuringEntityModel.getAllProcuringEntities(_toExcluded, _count);\n    }\n\n    function getProcuringEntitiesForOrgId(string memory _orgId, uint _toExcluded, uint _count) external view \n    returns(ProcuringEntity[] memory procuringEntities_, uint fromIncluded_) {\n        uint length = procuringEntityModel.getProcuringEntityListLength();\n        if (_toExcluded > length) {\n            _toExcluded = length;\n        }\n        uint filteredLength = 0;\n        uint itr = _count>_toExcluded ? _toExcluded:_count;\n        uint[] memory filteredIndices = new uint[](itr);\n        while (_toExcluded>0 && filteredLength<itr) {\n            _toExcluded--;\n            if(keccak256(abi.encodePacked(procuringEntityModel.getProcuringEntityOrgId(_toExcluded)))==keccak256(abi.encodePacked(_orgId))){\n                filteredIndices[filteredLength]=_toExcluded;\n                filteredLength++;\n            }\n        }\n        fromIncluded_ = _toExcluded;\n        procuringEntities_ = new ProcuringEntity[](filteredLength);\n        for (uint256 index = 0; index < filteredLength; index++) {\n            procuringEntities_[index] = procuringEntityModel.getProcuringEntityByIndex(filteredIndices[index]);\n        }\n    }\n\n    function getProcuringEntityOrgIdByGid(string memory _gid) external view returns (string memory orgId_) {\n        uint256 id = procuringEntityModel.getProcuringEntityIndex(_gid);\n        require(0!=id, \"Procuring Entity Does not Exist\");\n        id--;\n        orgId_ = procuringEntityModel.getProcuringEntityOrgId(id);\n    }\n\n    function isGidExists(string memory _gid) external view returns(bool){\n        return (procuringEntityModel.getProcuringEntityIndex(_gid)>0);\n    }\n\n}\n",
  "sourcePath": "/home/raghupathi/Desktop/javaClass/javaClass/contracts/ProcuringEntityManager.sol",
  "compiler": {
    "name": "solc",
    "version": "0.8.20+commit.a1b79de6.Emscripten.clang"
  },
  "schemaVersion": "3.4.14",
  "updatedAt": "2023-06-02T09:43:22.647Z",
  "devdoc": {
    "kind": "dev",
    "methods": {},
    "version": 1
  },
  "userdoc": {
    "kind": "user",
    "methods": {},
    "version": 1
  }
}