{
  "contractName": "ProcuringEntityModel",
  "abi": [
    {
      "inputs": [
        {
          "internalType": "address",
          "name": "_Member",
          "type": "address"
        },
        {
          "internalType": "address",
          "name": "_List",
          "type": "address"
        },
        {
          "internalType": "address",
          "name": "_Map",
          "type": "address"
        },
        {
          "internalType": "address",
          "name": "_quireContracts",
          "type": "address"
        }
      ],
      "stateMutability": "nonpayable",
      "type": "constructor"
    },
    {
      "inputs": [
        {
          "internalType": "string",
          "name": "_gid",
          "type": "string"
        }
      ],
      "name": "getProcuringEntityIndex",
      "outputs": [
        {
          "internalType": "uint256",
          "name": "",
          "type": "uint256"
        }
      ],
      "stateMutability": "view",
      "type": "function"
    },
    {
      "inputs": [],
      "name": "getProcuringEntityListLength",
      "outputs": [
        {
          "internalType": "uint256",
          "name": "",
          "type": "uint256"
        }
      ],
      "stateMutability": "view",
      "type": "function"
    },
    {
      "inputs": [
        {
          "internalType": "uint256",
          "name": "_index",
          "type": "uint256"
        }
      ],
      "name": "getProcuringEntityByIndex",
      "outputs": [
        {
          "components": [
            {
              "internalType": "string",
              "name": "gid",
              "type": "string"
            },
            {
              "internalType": "string",
              "name": "name",
              "type": "string"
            },
            {
              "internalType": "string",
              "name": "externalId",
              "type": "string"
            },
            {
              "internalType": "string",
              "name": "orgId",
              "type": "string"
            },
            {
              "internalType": "uint16",
              "name": "version",
              "type": "uint16"
            }
          ],
          "internalType": "struct ProcuringEntityStructs.ProcuringEntity",
          "name": "procuringEntity_",
          "type": "tuple"
        }
      ],
      "stateMutability": "view",
      "type": "function"
    },
    {
      "inputs": [
        {
          "internalType": "uint256",
          "name": "_toExcluded",
          "type": "uint256"
        },
        {
          "internalType": "uint256",
          "name": "_count",
          "type": "uint256"
        }
      ],
      "name": "getAllProcuringEntities",
      "outputs": [
        {
          "components": [
            {
              "internalType": "string",
              "name": "gid",
              "type": "string"
            },
            {
              "internalType": "string",
              "name": "name",
              "type": "string"
            },
            {
              "internalType": "string",
              "name": "externalId",
              "type": "string"
            },
            {
              "internalType": "string",
              "name": "orgId",
              "type": "string"
            },
            {
              "internalType": "uint16",
              "name": "version",
              "type": "uint16"
            }
          ],
          "internalType": "struct ProcuringEntityStructs.ProcuringEntity[]",
          "name": "procuringEntities_",
          "type": "tuple[]"
        },
        {
          "internalType": "uint256",
          "name": "fromIncluded_",
          "type": "uint256"
        },
        {
          "internalType": "uint256",
          "name": "length_",
          "type": "uint256"
        }
      ],
      "stateMutability": "view",
      "type": "function"
    },
    {
      "inputs": [
        {
          "internalType": "uint256",
          "name": "_index",
          "type": "uint256"
        }
      ],
      "name": "getProcuringEntityGid",
      "outputs": [
        {
          "internalType": "string",
          "name": "",
          "type": "string"
        }
      ],
      "stateMutability": "view",
      "type": "function"
    },
    {
      "inputs": [
        {
          "internalType": "uint256",
          "name": "_index",
          "type": "uint256"
        }
      ],
      "name": "getProcuringEntityName",
      "outputs": [
        {
          "internalType": "string",
          "name": "",
          "type": "string"
        }
      ],
      "stateMutability": "view",
      "type": "function"
    },
    {
      "inputs": [
        {
          "internalType": "uint256",
          "name": "_index",
          "type": "uint256"
        }
      ],
      "name": "getProcuringEntityExternalId",
      "outputs": [
        {
          "internalType": "string",
          "name": "",
          "type": "string"
        }
      ],
      "stateMutability": "view",
      "type": "function"
    },
    {
      "inputs": [
        {
          "internalType": "uint256",
          "name": "_index",
          "type": "uint256"
        }
      ],
      "name": "getProcuringEntityOrgId",
      "outputs": [
        {
          "internalType": "string",
          "name": "",
          "type": "string"
        }
      ],
      "stateMutability": "view",
      "type": "function"
    },
    {
      "inputs": [
        {
          "internalType": "uint256",
          "name": "_index",
          "type": "uint256"
        }
      ],
      "name": "getProcuringEntityVersion",
      "outputs": [
        {
          "internalType": "uint16",
          "name": "",
          "type": "uint16"
        }
      ],
      "stateMutability": "view",
      "type": "function"
    },
    {
      "inputs": [
        {
          "internalType": "string",
          "name": "_gid",
          "type": "string"
        },
        {
          "internalType": "uint256",
          "name": "_value",
          "type": "uint256"
        }
      ],
      "name": "setProcuringEntityIndex",
      "outputs": [],
      "stateMutability": "nonpayable",
      "type": "function"
    },
    {
      "inputs": [],
      "name": "incProcuringEntityListLength",
      "outputs": [],
      "stateMutability": "nonpayable",
      "type": "function"
    },
    {
      "inputs": [
        {
          "internalType": "uint256",
          "name": "_index",
          "type": "uint256"
        },
        {
          "internalType": "string",
          "name": "_value",
          "type": "string"
        }
      ],
      "name": "setProcuringEntityGid",
      "outputs": [],
      "stateMutability": "nonpayable",
      "type": "function"
    },
    {
      "inputs": [
        {
          "internalType": "uint256",
          "name": "_index",
          "type": "uint256"
        },
        {
          "internalType": "string",
          "name": "_value",
          "type": "string"
        }
      ],
      "name": "setProcuringEntityName",
      "outputs": [],
      "stateMutability": "nonpayable",
      "type": "function"
    },
    {
      "inputs": [
        {
          "internalType": "uint256",
          "name": "_index",
          "type": "uint256"
        },
        {
          "internalType": "string",
          "name": "_value",
          "type": "string"
        }
      ],
      "name": "setProcuringEntityExternalId",
      "outputs": [],
      "stateMutability": "nonpayable",
      "type": "function"
    },
    {
      "inputs": [
        {
          "internalType": "uint256",
          "name": "_index",
          "type": "uint256"
        },
        {
          "internalType": "string",
          "name": "_value",
          "type": "string"
        }
      ],
      "name": "setProcuringEntityOrgId",
      "outputs": [],
      "stateMutability": "nonpayable",
      "type": "function"
    },
    {
      "inputs": [
        {
          "internalType": "uint256",
          "name": "_index",
          "type": "uint256"
        }
      ],
      "name": "setProcuringEntityVersion",
      "outputs": [],
      "stateMutability": "nonpayable",
      "type": "function"
    },
    {
      "inputs": [
        {
          "components": [
            {
              "internalType": "string",
              "name": "gid",
              "type": "string"
            },
            {
              "internalType": "string",
              "name": "name",
              "type": "string"
            },
            {
              "internalType": "string",
              "name": "externalId",
              "type": "string"
            },
            {
              "internalType": "string",
              "name": "orgId",
              "type": "string"
            },
            {
              "internalType": "uint16",
              "name": "version",
              "type": "uint16"
            }
          ],
          "internalType": "struct ProcuringEntityStructs.ProcuringEntity",
          "name": "_procuringEntity",
          "type": "tuple"
        }
      ],
      "name": "pushProcuringEntity",
      "outputs": [],
      "stateMutability": "nonpayable",
      "type": "function"
    }
  ],
  "bytecode": "0x608060405234801562000010575f80fd5b50604051620036e3380380620036e38339818101604052810190620000369190620001a4565b835f806101000a81548173ffffffffffffffffffffffffffffffffffffffff021916908373ffffffffffffffffffffffffffffffffffffffff1602179055508260015f6101000a81548173ffffffffffffffffffffffffffffffffffffffff021916908373ffffffffffffffffffffffffffffffffffffffff1602179055508160025f6101000a81548173ffffffffffffffffffffffffffffffffffffffff021916908373ffffffffffffffffffffffffffffffffffffffff1602179055508060035f6101000a81548173ffffffffffffffffffffffffffffffffffffffff021916908373ffffffffffffffffffffffffffffffffffffffff1602179055505050505062000213565b5f80fd5b5f73ffffffffffffffffffffffffffffffffffffffff82169050919050565b5f6200016e8262000143565b9050919050565b620001808162000162565b81146200018b575f80fd5b50565b5f815190506200019e8162000175565b92915050565b5f805f8060808587031215620001bf57620001be6200013f565b5b5f620001ce878288016200018e565b9450506020620001e1878288016200018e565b9350506040620001f4878288016200018e565b925050606062000207878288016200018e565b91505092959194509250565b6134c280620002215f395ff3fe608060405234801561000f575f80fd5b5060043610610109575f3560e01c806369a3e523116100a05780638d5de7721161006f5780638d5de772146102c7578063c1fe6327146102e3578063f45f3e2414610313578063f57d804a14610343578063faa3dd9b1461035f57610109565b806369a3e5231461022b5780637140f5961461025d57806374b1d5ce146102675780638404442f1461029757610109565b806344030f45116100dc57806344030f45146101a7578063445235dc146101c3578063667bf04d146101df57806367e04c54146101fb57610109565b806301dd542b1461010d5780630b10f5ef1461012957806330680c2d1461014757806339b0d16114610177575b5f80fd5b61012760048036038101906101229190612903565b61037b565b005b6101316105e8565b60405161013e919061296c565b60405180910390f35b610161600480360381019061015c9190612985565b6106f3565b60405161016e919061296c565b60405180910390f35b610191600480360381019061018c91906129cc565b610802565b60405161019e9190612a13565b60405180910390f35b6101c160048036038101906101bc91906129cc565b610a95565b005b6101dd60048036038101906101d89190612903565b610d02565b005b6101f960048036038101906101f49190612903565b610f6f565b005b610215600480360381019061021091906129cc565b6111dc565b6040516102229190612b3d565b60405180910390f35b61024560048036038101906102409190612b5d565b611395565b60405161025493929190612cde565b60405180910390f35b610265611490565b005b610281600480360381019061027c91906129cc565b6116c0565b60405161028e9190612d62565b60405180910390f35b6102b160048036038101906102ac91906129cc565b611957565b6040516102be9190612d62565b60405180910390f35b6102e160048036038101906102dc9190612d82565b611bee565b005b6102fd60048036038101906102f891906129cc565b611e24565b60405161030a9190612d62565b60405180910390f35b61032d600480360381019061032891906129cc565b6120bb565b60405161033a9190612d62565b60405180910390f35b61035d60048036038101906103589190612903565b612352565b005b61037960048036038101906103749190612f07565b6125bf565b005b60035f9054906101000a900473ffffffffffffffffffffffffffffffffffffffff1673ffffffffffffffffffffffffffffffffffffffff1663ef02a3fc6040518060400160405280601881526020017f50524f435552494e475f454e544954595f4d414e4147455200000000000000008152506040518263ffffffff1660e01b815260040161040a9190612d62565b602060405180830381865afa158015610425573d5f803e3d5ffd5b505050506040513d601f19601f820116820180604052508101906104499190612fa8565b73ffffffffffffffffffffffffffffffffffffffff163373ffffffffffffffffffffffffffffffffffffffff16146104b6576040517f08c379a00000000000000000000000000000000000000000000000000000000081526004016104ad9061301d565b60405180910390fd5b60015f9054906101000a900473ffffffffffffffffffffffffffffffffffffffff1673ffffffffffffffffffffffffffffffffffffffff1663c8f1cd876040518060400160405280601881526020017f50524f435552494e475f454e544954595f4d414e4147455200000000000000008152506040518060400160405280601981526020017f6c6973745f5f70726f637572696e67456e746974794c69737400000000000000815250856040518060400160405280600481526020017f6e616d6500000000000000000000000000000000000000000000000000000000815250866040518663ffffffff1660e01b81526004016105b795949392919061303b565b5f604051808303815f87803b1580156105ce575f80fd5b505af11580156105e0573d5f803e3d5ffd5b505050505050565b5f60015f9054906101000a900473ffffffffffffffffffffffffffffffffffffffff1673ffffffffffffffffffffffffffffffffffffffff16633bea27536040518060400160405280601881526020017f50524f435552494e475f454e544954595f4d414e4147455200000000000000008152506040518060400160405280601981526020017f6c6973745f5f70726f637572696e67456e746974794c697374000000000000008152506040518363ffffffff1660e01b81526004016106af9291906130a8565b602060405180830381865afa1580156106ca573d5f803e3d5ffd5b505050506040513d601f19601f820116820180604052508101906106ee91906130f1565b905090565b5f60025f9054906101000a900473ffffffffffffffffffffffffffffffffffffffff1673ffffffffffffffffffffffffffffffffffffffff1663539c2ffb6040518060400160405280601881526020017f50524f435552494e475f454e544954595f4d414e4147455200000000000000008152506040518060400160405280601981526020017f6d61705f5f70726f637572696e67456e74697479496e64657800000000000000815250856040518463ffffffff1660e01b81526004016107bc9392919061311c565b602060405180830381865afa1580156107d7573d5f803e3d5ffd5b505050506040513d601f19601f820116820180604052508101906107fb91906130f1565b9050919050565b5f815f60015f9054906101000a900473ffffffffffffffffffffffffffffffffffffffff1673ffffffffffffffffffffffffffffffffffffffff16633bea27536040518060400160405280601881526020017f50524f435552494e475f454e544954595f4d414e4147455200000000000000008152506040518060400160405280601981526020017f6c6973745f5f70726f637572696e67456e746974794c697374000000000000008152506040518363ffffffff1660e01b81526004016108cb9291906130a8565b602060405180830381865afa1580156108e6573d5f803e3d5ffd5b505050506040513d601f19601f8201168201806040525081019061090a91906130f1565b905080821061094e576040517f08c379a0000000000000000000000000000000000000000000000000000000008152600401610945906131b0565b60405180910390fd5b60015f9054906101000a900473ffffffffffffffffffffffffffffffffffffffff1673ffffffffffffffffffffffffffffffffffffffff166303afa62b6040518060400160405280601881526020017f50524f435552494e475f454e544954595f4d414e4147455200000000000000008152506040518060400160405280601981526020017f6c6973745f5f70726f637572696e67456e746974794c69737400000000000000815250876040518060400160405280600781526020017f76657273696f6e000000000000000000000000000000000000000000000000008152506040518563ffffffff1660e01b8152600401610a4d94939291906131ce565b602060405180830381865afa158015610a68573d5f803e3d5ffd5b505050506040513d601f19601f82011682018060405250810190610a8c919061323a565b92505050919050565b60035f9054906101000a900473ffffffffffffffffffffffffffffffffffffffff1673ffffffffffffffffffffffffffffffffffffffff1663ef02a3fc6040518060400160405280601881526020017f50524f435552494e475f454e544954595f4d414e4147455200000000000000008152506040518263ffffffff1660e01b8152600401610b249190612d62565b602060405180830381865afa158015610b3f573d5f803e3d5ffd5b505050506040513d601f19601f82011682018060405250810190610b639190612fa8565b73ffffffffffffffffffffffffffffffffffffffff163373ffffffffffffffffffffffffffffffffffffffff1614610bd0576040517f08c379a0000000000000000000000000000000000000000000000000000000008152600401610bc79061301d565b60405180910390fd5b60015f9054906101000a900473ffffffffffffffffffffffffffffffffffffffff1673ffffffffffffffffffffffffffffffffffffffff1663c4f188576040518060400160405280601881526020017f50524f435552494e475f454e544954595f4d414e4147455200000000000000008152506040518060400160405280601981526020017f6c6973745f5f70726f637572696e67456e746974794c69737400000000000000815250846040518060400160405280600781526020017f76657273696f6e0000000000000000000000000000000000000000000000000081525060016040518663ffffffff1660e01b8152600401610cd2959493929190613265565b5f604051808303815f87803b158015610ce9575f80fd5b505af1158015610cfb573d5f803e3d5ffd5b5050505050565b60035f9054906101000a900473ffffffffffffffffffffffffffffffffffffffff1673ffffffffffffffffffffffffffffffffffffffff1663ef02a3fc6040518060400160405280601881526020017f50524f435552494e475f454e544954595f4d414e4147455200000000000000008152506040518263ffffffff1660e01b8152600401610d919190612d62565b602060405180830381865afa158015610dac573d5f803e3d5ffd5b505050506040513d601f19601f82011682018060405250810190610dd09190612fa8565b73ffffffffffffffffffffffffffffffffffffffff163373ffffffffffffffffffffffffffffffffffffffff1614610e3d576040517f08c379a0000000000000000000000000000000000000000000000000000000008152600401610e349061301d565b60405180910390fd5b60015f9054906101000a900473ffffffffffffffffffffffffffffffffffffffff1673ffffffffffffffffffffffffffffffffffffffff1663c8f1cd876040518060400160405280601881526020017f50524f435552494e475f454e544954595f4d414e4147455200000000000000008152506040518060400160405280601981526020017f6c6973745f5f70726f637572696e67456e746974794c69737400000000000000815250856040518060400160405280600a81526020017f65787465726e616c496400000000000000000000000000000000000000000000815250866040518663ffffffff1660e01b8152600401610f3e95949392919061303b565b5f604051808303815f87803b158015610f55575f80fd5b505af1158015610f67573d5f803e3d5ffd5b505050505050565b60035f9054906101000a900473ffffffffffffffffffffffffffffffffffffffff1673ffffffffffffffffffffffffffffffffffffffff1663ef02a3fc6040518060400160405280601881526020017f50524f435552494e475f454e544954595f4d414e4147455200000000000000008152506040518263ffffffff1660e01b8152600401610ffe9190612d62565b602060405180830381865afa158015611019573d5f803e3d5ffd5b505050506040513d601f19601f8201168201806040525081019061103d9190612fa8565b73ffffffffffffffffffffffffffffffffffffffff163373ffffffffffffffffffffffffffffffffffffffff16146110aa576040517f08c379a00000000000000000000000000000000000000000000000000000000081526004016110a19061301d565b60405180910390fd5b60015f9054906101000a900473ffffffffffffffffffffffffffffffffffffffff1673ffffffffffffffffffffffffffffffffffffffff1663c8f1cd876040518060400160405280601881526020017f50524f435552494e475f454e544954595f4d414e4147455200000000000000008152506040518060400160405280601981526020017f6c6973745f5f70726f637572696e67456e746974794c69737400000000000000815250856040518060400160405280600381526020017f6769640000000000000000000000000000000000000000000000000000000000815250866040518663ffffffff1660e01b81526004016111ab95949392919061303b565b5f604051808303815f87803b1580156111c2575f80fd5b505af11580156111d4573d5f803e3d5ffd5b505050505050565b6111e4612751565b815f60015f9054906101000a900473ffffffffffffffffffffffffffffffffffffffff1673ffffffffffffffffffffffffffffffffffffffff16633bea27536040518060400160405280601881526020017f50524f435552494e475f454e544954595f4d414e4147455200000000000000008152506040518060400160405280601981526020017f6c6973745f5f70726f637572696e67456e746974794c697374000000000000008152506040518363ffffffff1660e01b81526004016112ac9291906130a8565b602060405180830381865afa1580156112c7573d5f803e3d5ffd5b505050506040513d601f19601f820116820180604052508101906112eb91906130f1565b905080821061132f576040517f08c379a0000000000000000000000000000000000000000000000000000000008152600401611326906131b0565b60405180910390fd5b61133884611e24565b835f0181905250611348846116c0565b836020018190525061135984611957565b836040018190525061136a846120bb565b836060018190525061137b84610802565b836080019061ffff16908161ffff16815250505050919050565b60605f805f6113a26105e8565b9050808611156113b0578095505b5f8686116113be57856113c0565b865b90508067ffffffffffffffff8111156113dc576113db6127df565b5b60405190808252806020026020018201604052801561141557816020015b611402612751565b8152602001906001900390816113fa5790505b5094505b5f81111561148157808061142c906132f8565b915050868061143a906132f8565b975050611446876111dc565b856001838851611456919061331f565b611460919061331f565b8151811061147157611470613352565b5b6020026020010181905250611419565b86935081925050509250925092565b60035f9054906101000a900473ffffffffffffffffffffffffffffffffffffffff1673ffffffffffffffffffffffffffffffffffffffff1663ef02a3fc6040518060400160405280601881526020017f50524f435552494e475f454e544954595f4d414e4147455200000000000000008152506040518263ffffffff1660e01b815260040161151f9190612d62565b602060405180830381865afa15801561153a573d5f803e3d5ffd5b505050506040513d601f19601f8201168201806040525081019061155e9190612fa8565b73ffffffffffffffffffffffffffffffffffffffff163373ffffffffffffffffffffffffffffffffffffffff16146115cb576040517f08c379a00000000000000000000000000000000000000000000000000000000081526004016115c29061301d565b60405180910390fd5b60015f9054906101000a900473ffffffffffffffffffffffffffffffffffffffff1673ffffffffffffffffffffffffffffffffffffffff1663a24a899b6040518060400160405280601881526020017f50524f435552494e475f454e544954595f4d414e4147455200000000000000008152506040518060400160405280601981526020017f6c6973745f5f70726f637572696e67456e746974794c697374000000000000008152506040518363ffffffff1660e01b81526004016116919291906130a8565b5f604051808303815f87803b1580156116a8575f80fd5b505af11580156116ba573d5f803e3d5ffd5b50505050565b6060815f60015f9054906101000a900473ffffffffffffffffffffffffffffffffffffffff1673ffffffffffffffffffffffffffffffffffffffff16633bea27536040518060400160405280601881526020017f50524f435552494e475f454e544954595f4d414e4147455200000000000000008152506040518060400160405280601981526020017f6c6973745f5f70726f637572696e67456e746974794c697374000000000000008152506040518363ffffffff1660e01b815260040161178a9291906130a8565b602060405180830381865afa1580156117a5573d5f803e3d5ffd5b505050506040513d601f19601f820116820180604052508101906117c991906130f1565b905080821061180d576040517f08c379a0000000000000000000000000000000000000000000000000000000008152600401611804906131b0565b60405180910390fd5b60015f9054906101000a900473ffffffffffffffffffffffffffffffffffffffff1673ffffffffffffffffffffffffffffffffffffffff16632136448c6040518060400160405280601881526020017f50524f435552494e475f454e544954595f4d414e4147455200000000000000008152506040518060400160405280601981526020017f6c6973745f5f70726f637572696e67456e746974794c69737400000000000000815250876040518060400160405280600481526020017f6e616d65000000000000000000000000000000000000000000000000000000008152506040518563ffffffff1660e01b815260040161190c94939291906131ce565b5f60405180830381865afa158015611926573d5f803e3d5ffd5b505050506040513d5f823e3d601f19601f8201168201806040525081019061194e91906133ed565b92505050919050565b6060815f60015f9054906101000a900473ffffffffffffffffffffffffffffffffffffffff1673ffffffffffffffffffffffffffffffffffffffff16633bea27536040518060400160405280601881526020017f50524f435552494e475f454e544954595f4d414e4147455200000000000000008152506040518060400160405280601981526020017f6c6973745f5f70726f637572696e67456e746974794c697374000000000000008152506040518363ffffffff1660e01b8152600401611a219291906130a8565b602060405180830381865afa158015611a3c573d5f803e3d5ffd5b505050506040513d601f19601f82011682018060405250810190611a6091906130f1565b9050808210611aa4576040517f08c379a0000000000000000000000000000000000000000000000000000000008152600401611a9b906131b0565b60405180910390fd5b60015f9054906101000a900473ffffffffffffffffffffffffffffffffffffffff1673ffffffffffffffffffffffffffffffffffffffff16632136448c6040518060400160405280601881526020017f50524f435552494e475f454e544954595f4d414e4147455200000000000000008152506040518060400160405280601981526020017f6c6973745f5f70726f637572696e67456e746974794c69737400000000000000815250876040518060400160405280600a81526020017f65787465726e616c4964000000000000000000000000000000000000000000008152506040518563ffffffff1660e01b8152600401611ba394939291906131ce565b5f60405180830381865afa158015611bbd573d5f803e3d5ffd5b505050506040513d5f823e3d601f19601f82011682018060405250810190611be591906133ed565b92505050919050565b60035f9054906101000a900473ffffffffffffffffffffffffffffffffffffffff1673ffffffffffffffffffffffffffffffffffffffff1663ef02a3fc6040518060400160405280601881526020017f50524f435552494e475f454e544954595f4d414e4147455200000000000000008152506040518263ffffffff1660e01b8152600401611c7d9190612d62565b602060405180830381865afa158015611c98573d5f803e3d5ffd5b505050506040513d601f19601f82011682018060405250810190611cbc9190612fa8565b73ffffffffffffffffffffffffffffffffffffffff163373ffffffffffffffffffffffffffffffffffffffff1614611d29576040517f08c379a0000000000000000000000000000000000000000000000000000000008152600401611d209061301d565b60405180910390fd5b60025f9054906101000a900473ffffffffffffffffffffffffffffffffffffffff1673ffffffffffffffffffffffffffffffffffffffff1663368428d96040518060400160405280601881526020017f50524f435552494e475f454e544954595f4d414e4147455200000000000000008152506040518060400160405280601981526020017f6d61705f5f70726f637572696e67456e74697479496e6465780000000000000081525085856040518563ffffffff1660e01b8152600401611df39493929190613434565b5f604051808303815f87803b158015611e0a575f80fd5b505af1158015611e1c573d5f803e3d5ffd5b505050505050565b6060815f60015f9054906101000a900473ffffffffffffffffffffffffffffffffffffffff1673ffffffffffffffffffffffffffffffffffffffff16633bea27536040518060400160405280601881526020017f50524f435552494e475f454e544954595f4d414e4147455200000000000000008152506040518060400160405280601981526020017f6c6973745f5f70726f637572696e67456e746974794c697374000000000000008152506040518363ffffffff1660e01b8152600401611eee9291906130a8565b602060405180830381865afa158015611f09573d5f803e3d5ffd5b505050506040513d601f19601f82011682018060405250810190611f2d91906130f1565b9050808210611f71576040517f08c379a0000000000000000000000000000000000000000000000000000000008152600401611f68906131b0565b60405180910390fd5b60015f9054906101000a900473ffffffffffffffffffffffffffffffffffffffff1673ffffffffffffffffffffffffffffffffffffffff16632136448c6040518060400160405280601881526020017f50524f435552494e475f454e544954595f4d414e4147455200000000000000008152506040518060400160405280601981526020017f6c6973745f5f70726f637572696e67456e746974794c69737400000000000000815250876040518060400160405280600381526020017f67696400000000000000000000000000000000000000000000000000000000008152506040518563ffffffff1660e01b815260040161207094939291906131ce565b5f60405180830381865afa15801561208a573d5f803e3d5ffd5b505050506040513d5f823e3d601f19601f820116820180604052508101906120b291906133ed565b92505050919050565b6060815f60015f9054906101000a900473ffffffffffffffffffffffffffffffffffffffff1673ffffffffffffffffffffffffffffffffffffffff16633bea27536040518060400160405280601881526020017f50524f435552494e475f454e544954595f4d414e4147455200000000000000008152506040518060400160405280601981526020017f6c6973745f5f70726f637572696e67456e746974794c697374000000000000008152506040518363ffffffff1660e01b81526004016121859291906130a8565b602060405180830381865afa1580156121a0573d5f803e3d5ffd5b505050506040513d601f19601f820116820180604052508101906121c491906130f1565b9050808210612208576040517f08c379a00000000000000000000000000000000000000000000000000000000081526004016121ff906131b0565b60405180910390fd5b60015f9054906101000a900473ffffffffffffffffffffffffffffffffffffffff1673ffffffffffffffffffffffffffffffffffffffff16632136448c6040518060400160405280601881526020017f50524f435552494e475f454e544954595f4d414e4147455200000000000000008152506040518060400160405280601981526020017f6c6973745f5f70726f637572696e67456e746974794c69737400000000000000815250876040518060400160405280600581526020017f6f726749640000000000000000000000000000000000000000000000000000008152506040518563ffffffff1660e01b815260040161230794939291906131ce565b5f60405180830381865afa158015612321573d5f803e3d5ffd5b505050506040513d5f823e3d601f19601f8201168201806040525081019061234991906133ed565b92505050919050565b60035f9054906101000a900473ffffffffffffffffffffffffffffffffffffffff1673ffffffffffffffffffffffffffffffffffffffff1663ef02a3fc6040518060400160405280601881526020017f50524f435552494e475f454e544954595f4d414e4147455200000000000000008152506040518263ffffffff1660e01b81526004016123e19190612d62565b602060405180830381865afa1580156123fc573d5f803e3d5ffd5b505050506040513d601f19601f820116820180604052508101906124209190612fa8565b73ffffffffffffffffffffffffffffffffffffffff163373ffffffffffffffffffffffffffffffffffffffff161461248d576040517f08c379a00000000000000000000000000000000000000000000000000000000081526004016124849061301d565b60405180910390fd5b60015f9054906101000a900473ffffffffffffffffffffffffffffffffffffffff1673ffffffffffffffffffffffffffffffffffffffff1663c8f1cd876040518060400160405280601881526020017f50524f435552494e475f454e544954595f4d414e4147455200000000000000008152506040518060400160405280601981526020017f6c6973745f5f70726f637572696e67456e746974794c69737400000000000000815250856040518060400160405280600581526020017f6f72674964000000000000000000000000000000000000000000000000000000815250866040518663ffffffff1660e01b815260040161258e95949392919061303b565b5f604051808303815f87803b1580156125a5575f80fd5b505af11580156125b7573d5f803e3d5ffd5b505050505050565b60035f9054906101000a900473ffffffffffffffffffffffffffffffffffffffff1673ffffffffffffffffffffffffffffffffffffffff1663ef02a3fc6040518060400160405280601881526020017f50524f435552494e475f454e544954595f4d414e4147455200000000000000008152506040518263ffffffff1660e01b815260040161264e9190612d62565b602060405180830381865afa158015612669573d5f803e3d5ffd5b505050506040513d601f19601f8201168201806040525081019061268d9190612fa8565b73ffffffffffffffffffffffffffffffffffffffff163373ffffffffffffffffffffffffffffffffffffffff16146126fa576040517f08c379a00000000000000000000000000000000000000000000000000000000081526004016126f19061301d565b60405180910390fd5b5f6127036105e8565b905061270d611490565b61271a81835f0151610f6f565b61272881836020015161037b565b612736818360400151610d02565b612744818360600151612352565b61274d81610a95565b5050565b6040518060a00160405280606081526020016060815260200160608152602001606081526020015f61ffff1681525090565b5f604051905090565b5f80fd5b5f80fd5b5f819050919050565b6127a681612794565b81146127b0575f80fd5b50565b5f813590506127c18161279d565b92915050565b5f80fd5b5f80fd5b5f601f19601f8301169050919050565b7f4e487b71000000000000000000000000000000000000000000000000000000005f52604160045260245ffd5b612815826127cf565b810181811067ffffffffffffffff82111715612834576128336127df565b5b80604052505050565b5f612846612783565b9050612852828261280c565b919050565b5f67ffffffffffffffff821115612871576128706127df565b5b61287a826127cf565b9050602081019050919050565b828183375f83830152505050565b5f6128a76128a284612857565b61283d565b9050828152602081018484840111156128c3576128c26127cb565b5b6128ce848285612887565b509392505050565b5f82601f8301126128ea576128e96127c7565b5b81356128fa848260208601612895565b91505092915050565b5f80604083850312156129195761291861278c565b5b5f612926858286016127b3565b925050602083013567ffffffffffffffff81111561294757612946612790565b5b612953858286016128d6565b9150509250929050565b61296681612794565b82525050565b5f60208201905061297f5f83018461295d565b92915050565b5f6020828403121561299a5761299961278c565b5b5f82013567ffffffffffffffff8111156129b7576129b6612790565b5b6129c3848285016128d6565b91505092915050565b5f602082840312156129e1576129e061278c565b5b5f6129ee848285016127b3565b91505092915050565b5f61ffff82169050919050565b612a0d816129f7565b82525050565b5f602082019050612a265f830184612a04565b92915050565b5f81519050919050565b5f82825260208201905092915050565b5f5b83811015612a63578082015181840152602081019050612a48565b5f8484015250505050565b5f612a7882612a2c565b612a828185612a36565b9350612a92818560208601612a46565b612a9b816127cf565b840191505092915050565b612aaf816129f7565b82525050565b5f60a083015f8301518482035f860152612acf8282612a6e565b91505060208301518482036020860152612ae98282612a6e565b91505060408301518482036040860152612b038282612a6e565b91505060608301518482036060860152612b1d8282612a6e565b9150506080830151612b326080860182612aa6565b508091505092915050565b5f6020820190508181035f830152612b558184612ab5565b905092915050565b5f8060408385031215612b7357612b7261278c565b5b5f612b80858286016127b3565b9250506020612b91858286016127b3565b9150509250929050565b5f81519050919050565b5f82825260208201905092915050565b5f819050602082019050919050565b5f60a083015f8301518482035f860152612bde8282612a6e565b91505060208301518482036020860152612bf88282612a6e565b91505060408301518482036040860152612c128282612a6e565b91505060608301518482036060860152612c2c8282612a6e565b9150506080830151612c416080860182612aa6565b508091505092915050565b5f612c578383612bc4565b905092915050565b5f602082019050919050565b5f612c7582612b9b565b612c7f8185612ba5565b935083602082028501612c9185612bb5565b805f5b85811015612ccc5784840389528151612cad8582612c4c565b9450612cb883612c5f565b925060208a01995050600181019050612c94565b50829750879550505050505092915050565b5f6060820190508181035f830152612cf68186612c6b565b9050612d05602083018561295d565b612d12604083018461295d565b949350505050565b5f82825260208201905092915050565b5f612d3482612a2c565b612d3e8185612d1a565b9350612d4e818560208601612a46565b612d57816127cf565b840191505092915050565b5f6020820190508181035f830152612d7a8184612d2a565b905092915050565b5f8060408385031215612d9857612d9761278c565b5b5f83013567ffffffffffffffff811115612db557612db4612790565b5b612dc1858286016128d6565b9250506020612dd2858286016127b3565b9150509250929050565b5f80fd5b5f80fd5b612ded816129f7565b8114612df7575f80fd5b50565b5f81359050612e0881612de4565b92915050565b5f60a08284031215612e2357612e22612ddc565b5b612e2d60a061283d565b90505f82013567ffffffffffffffff811115612e4c57612e4b612de0565b5b612e58848285016128d6565b5f83015250602082013567ffffffffffffffff811115612e7b57612e7a612de0565b5b612e87848285016128d6565b602083015250604082013567ffffffffffffffff811115612eab57612eaa612de0565b5b612eb7848285016128d6565b604083015250606082013567ffffffffffffffff811115612edb57612eda612de0565b5b612ee7848285016128d6565b6060830152506080612efb84828501612dfa565b60808301525092915050565b5f60208284031215612f1c57612f1b61278c565b5b5f82013567ffffffffffffffff811115612f3957612f38612790565b5b612f4584828501612e0e565b91505092915050565b5f73ffffffffffffffffffffffffffffffffffffffff82169050919050565b5f612f7782612f4e565b9050919050565b612f8781612f6d565b8114612f91575f80fd5b50565b5f81519050612fa281612f7e565b92915050565b5f60208284031215612fbd57612fbc61278c565b5b5f612fca84828501612f94565b91505092915050565b7f556e617574686f72697a656420436f6e74726163742043616c6c0000000000005f82015250565b5f613007601a83612d1a565b915061301282612fd3565b602082019050919050565b5f6020820190508181035f83015261303481612ffb565b9050919050565b5f60a0820190508181035f8301526130538188612d2a565b905081810360208301526130678187612d2a565b9050613076604083018661295d565b81810360608301526130888185612d2a565b9050818103608083015261309c8184612d2a565b90509695505050505050565b5f6040820190508181035f8301526130c08185612d2a565b905081810360208301526130d48184612d2a565b90509392505050565b5f815190506130eb8161279d565b92915050565b5f602082840312156131065761310561278c565b5b5f613113848285016130dd565b91505092915050565b5f6060820190508181035f8301526131348186612d2a565b905081810360208301526131488185612d2a565b9050818103604083015261315c8184612d2a565b9050949350505050565b7f496e64657820496e76616c6964000000000000000000000000000000000000005f82015250565b5f61319a600d83612d1a565b91506131a582613166565b602082019050919050565b5f6020820190508181035f8301526131c78161318e565b9050919050565b5f6080820190508181035f8301526131e68187612d2a565b905081810360208301526131fa8186612d2a565b9050613209604083018561295d565b818103606083015261321b8184612d2a565b905095945050505050565b5f8151905061323481612de4565b92915050565b5f6020828403121561324f5761324e61278c565b5b5f61325c84828501613226565b91505092915050565b5f60a0820190508181035f83015261327d8188612d2a565b905081810360208301526132918187612d2a565b90506132a0604083018661295d565b81810360608301526132b28185612d2a565b90506132c16080830184612a04565b9695505050505050565b7f4e487b71000000000000000000000000000000000000000000000000000000005f52601160045260245ffd5b5f61330282612794565b91505f8203613314576133136132cb565b5b600182039050919050565b5f61332982612794565b915061333483612794565b925082820390508181111561334c5761334b6132cb565b5b92915050565b7f4e487b71000000000000000000000000000000000000000000000000000000005f52603260045260245ffd5b5f61339161338c84612857565b61283d565b9050828152602081018484840111156133ad576133ac6127cb565b5b6133b8848285612a46565b509392505050565b5f82601f8301126133d4576133d36127c7565b5b81516133e484826020860161337f565b91505092915050565b5f602082840312156134025761340161278c565b5b5f82015167ffffffffffffffff81111561341f5761341e612790565b5b61342b848285016133c0565b91505092915050565b5f6080820190508181035f83015261344c8187612d2a565b905081810360208301526134608186612d2a565b905081810360408301526134748185612d2a565b9050613483606083018461295d565b9594505050505056fea264697066735822122059227b034211a7c5cdcb09e1c7602c15c9b58dff3aec5ef8bcb930edfe8bae1864736f6c63430008140033",
  "immutableReferences": {},
  "source": "pragma solidity ^0.8.0;\npragma experimental ABIEncoderV2;\n\nimport \"./MemberStorage.sol\";\nimport \"./ListStorage.sol\";\nimport \"./MapStorage.sol\";\nimport \"./QuireContracts.sol\";\n\ncontract ProcuringEntityStructs {\n    uint16 constant internal __VERSION__ = 1;\n    struct ProcuringEntity {\n        string gid;\n        string name;\n        string externalId;\n        string orgId;\n        uint16 version;\n    }\n    string constant internal propKeyPEntityGid = \"gid\";\n    string constant internal propKeyPEntityName = \"name\";\n    string constant internal propKeyPEntityExternalId = \"externalId\";\n    string constant internal propKeyPEntityOrgId = \"orgId\";\n    string constant internal propKeyPEntityVersion = \"version\";\n}\n\ncontract ProcuringEntityModel is ProcuringEntityStructs {\n    \n    MemberStorage private Member;\n    ListStorage private List;\n    MapStorage private Map;\n    QuireContracts private quireContracts;\n    \n    constructor(\n        address _Member,\n        address _List,\n        address _Map,\n        address _quireContracts\n    ){\n        Member = MemberStorage(_Member);\n        List = ListStorage(_List);\n        Map = MapStorage(_Map);\n        quireContracts = QuireContracts(_quireContracts);\n    }\n\n\n    string constant internal KEY = \"PROCURING_ENTITY_MANAGER\"; \n    string constant internal procuringEntityList = \"list__procuringEntityList\";\n    string constant internal procuringEntityIndex = \"map__procuringEntityIndex\";\n\n    modifier onlyProcuringEntityManager() {\n        require(msg.sender==quireContracts.getRegisteredContract(KEY), \"Unauthorized Contract Call\");\n        _;\n    }\n\n    modifier validProcuringEntityListIndex(uint256 _index){\n        uint256 length = List.getLength(KEY, procuringEntityList);\n        require(_index < length, \"Index Invalid\");\n        _;\n    }\n\n    // ------------- GETTERS ------------- //\n\n    function getProcuringEntityIndex(string memory _gid) public view returns (uint256) {\n        return Map.getStringToUint(KEY, procuringEntityIndex, _gid);\n    }\n\n    function getProcuringEntityListLength() public view returns (uint256) {\n        return List.getLength(KEY, procuringEntityList);\n    }\n\n    function getProcuringEntityByIndex(uint256 _index)\n        public\n        view\n        validProcuringEntityListIndex(_index)\n        returns (ProcuringEntity memory procuringEntity_)\n    {\n        procuringEntity_.gid = getProcuringEntityGid(_index);\n        procuringEntity_.name = getProcuringEntityName(_index);\n        procuringEntity_.externalId = getProcuringEntityExternalId(_index);\n        procuringEntity_.orgId = getProcuringEntityOrgId(_index);\n        procuringEntity_.version = getProcuringEntityVersion(_index);\n    }\n\n    function getAllProcuringEntities(uint _toExcluded, uint _count) external view \n    returns(ProcuringEntity[] memory procuringEntities_, uint fromIncluded_, uint length_) {\n        uint length = getProcuringEntityListLength();\n        if (_toExcluded > length) {\n            _toExcluded = length;\n        }\n        uint itr = _count>_toExcluded ? _toExcluded:_count;\n        procuringEntities_ = new ProcuringEntity[](itr);\n        while (itr>0) {\n            itr--;\n            _toExcluded--;\n            procuringEntities_[procuringEntities_.length-itr-1] = getProcuringEntityByIndex(_toExcluded);\n        }\n        fromIncluded_ = _toExcluded;\n        length_ = length;\n    }\n\n    function getProcuringEntityGid(uint256 _index) public view \n    validProcuringEntityListIndex(_index) \n    returns(string memory) {\n        return List.getPropString(KEY, procuringEntityList, _index, propKeyPEntityGid);\n    }\n\n    function getProcuringEntityName(uint256 _index) public view \n    validProcuringEntityListIndex(_index) \n    returns(string memory) {\n        return List.getPropString(KEY, procuringEntityList, _index, propKeyPEntityName);\n    }\n\n    function getProcuringEntityExternalId(uint256 _index) public view \n    validProcuringEntityListIndex(_index) \n    returns(string memory) {\n        return List.getPropString(KEY, procuringEntityList, _index, propKeyPEntityExternalId);\n    }\n\n    function getProcuringEntityOrgId(uint256 _index) public view \n    validProcuringEntityListIndex(_index) \n    returns(string memory) {\n        return List.getPropString(KEY, procuringEntityList, _index, propKeyPEntityOrgId);\n    }\n\n    function getProcuringEntityVersion(uint256 _index) public view \n    validProcuringEntityListIndex(_index) \n    returns(uint16) {\n        return List.getPropUint16(KEY, procuringEntityList, _index, propKeyPEntityVersion);\n    }\n\n    // ------------- SETTERS ------------- //\n\n    function setProcuringEntityIndex(string memory _gid, uint _value) public \n    onlyProcuringEntityManager {\n        Map.setStringToUint(KEY, procuringEntityIndex, _gid, _value);\n    }\n\n    function incProcuringEntityListLength() public \n    onlyProcuringEntityManager {\n        List.incLength(KEY, procuringEntityList);\n    }\n\n    function setProcuringEntityGid(uint256 _index, string memory _value) public \n    onlyProcuringEntityManager {\n        List.setPropString(KEY, procuringEntityList, _index, propKeyPEntityGid, _value);\n    }\n\n    function setProcuringEntityName(uint256 _index, string memory _value) public \n    onlyProcuringEntityManager {\n        List.setPropString(KEY, procuringEntityList, _index, propKeyPEntityName, _value);\n    }\n\n    function setProcuringEntityExternalId(uint256 _index, string memory _value) public \n    onlyProcuringEntityManager {\n        List.setPropString(KEY, procuringEntityList, _index, propKeyPEntityExternalId, _value);\n    }\n\n    function setProcuringEntityOrgId(uint256 _index, string memory _value) public \n    onlyProcuringEntityManager {\n        List.setPropString(KEY, procuringEntityList, _index, propKeyPEntityOrgId, _value);\n    }\n\n    function setProcuringEntityVersion(uint256 _index) public \n    onlyProcuringEntityManager {\n        List.setPropUint16(KEY, procuringEntityList, _index, propKeyPEntityVersion, __VERSION__);\n    }\n\n    function pushProcuringEntity(ProcuringEntity memory _procuringEntity) public  \n    onlyProcuringEntityManager\n    {\n        uint index = getProcuringEntityListLength();\n        incProcuringEntityListLength();\n        setProcuringEntityGid(index,_procuringEntity.gid);\n        setProcuringEntityName(index,_procuringEntity.name);\n        setProcuringEntityExternalId(index,_procuringEntity.externalId);\n        setProcuringEntityOrgId(index,_procuringEntity.orgId);   \n        setProcuringEntityVersion(index);\n    }\n   \n}",
  "sourcePath": "/home/raghupathi/Desktop/javaClass/javaClass/contracts/ProcuringEntityModel.sol",
  "compiler": {
    "name": "solc",
    "version": "0.8.20+commit.a1b79de6.Emscripten.clang"
  },
  "schemaVersion": "3.4.14",
  "updatedAt": "2023-06-02T09:43:22.650Z",
  "devdoc": {
    "kind": "dev",
    "methods": {},
    "version": 1
  },
  "userdoc": {
    "kind": "user",
    "methods": {},
    "version": 1
  }
}