{
  "contractName": "QuireContracts",
  "abi": [
    {
      "inputs": [
        {
          "internalType": "address",
          "name": "_quireUpgradeable",
          "type": "address"
        },
        {
          "internalType": "address",
          "name": "_quireStorage",
          "type": "address"
        }
      ],
      "stateMutability": "nonpayable",
      "type": "constructor"
    },
    {
      "anonymous": false,
      "inputs": [
        {
          "indexed": false,
          "internalType": "string",
          "name": "contractName_",
          "type": "string"
        },
        {
          "indexed": false,
          "internalType": "address",
          "name": "contractAddress_",
          "type": "address"
        }
      ],
      "name": "ContractRegistered",
      "type": "event"
    },
    {
      "anonymous": false,
      "inputs": [
        {
          "indexed": false,
          "internalType": "string",
          "name": "contractName_",
          "type": "string"
        }
      ],
      "name": "ContractUnRegistered",
      "type": "event"
    },
    {
      "inputs": [
        {
          "internalType": "string",
          "name": "_contractName",
          "type": "string"
        },
        {
          "internalType": "address",
          "name": "_contractAddress",
          "type": "address"
        }
      ],
      "name": "registerContract",
      "outputs": [],
      "stateMutability": "nonpayable",
      "type": "function"
    },
    {
      "inputs": [
        {
          "internalType": "string",
          "name": "_contractName",
          "type": "string"
        }
      ],
      "name": "unregisterContract",
      "outputs": [],
      "stateMutability": "nonpayable",
      "type": "function"
    },
    {
      "inputs": [
        {
          "internalType": "string",
          "name": "_contractName",
          "type": "string"
        }
      ],
      "name": "getRegisteredContract",
      "outputs": [
        {
          "internalType": "address",
          "name": "",
          "type": "address"
        }
      ],
      "stateMutability": "view",
      "type": "function"
    }
  ],
  "bytecode": "0x608060405234801561000f575f80fd5b5060405162000ecb38038062000ecb83398181016040528101906100339190610117565b815f806101000a81548173ffffffffffffffffffffffffffffffffffffffff021916908373ffffffffffffffffffffffffffffffffffffffff1602179055508060015f6101000a81548173ffffffffffffffffffffffffffffffffffffffff021916908373ffffffffffffffffffffffffffffffffffffffff1602179055505050610155565b5f80fd5b5f73ffffffffffffffffffffffffffffffffffffffff82169050919050565b5f6100e6826100bd565b9050919050565b6100f6816100dc565b8114610100575f80fd5b50565b5f81519050610111816100ed565b92915050565b5f806040838503121561012d5761012c6100b9565b5b5f61013a85828601610103565b925050602061014b85828601610103565b9150509250929050565b610d6880620001635f395ff3fe608060405234801561000f575f80fd5b506004361061003f575f3560e01c8063035e7709146100435780637f3c2c281461005f578063ef02a3fc1461007b575b5f80fd5b61005d6004803603810190610058919061091b565b6100ab565b005b610079600480360381019061007491906109bc565b6103bb565b005b6100956004803603810190610090919061091b565b6106d0565b6040516100a29190610a25565b60405180910390f35b5f8054906101000a900473ffffffffffffffffffffffffffffffffffffffff1673ffffffffffffffffffffffffffffffffffffffff163373ffffffffffffffffffffffffffffffffffffffff1614610138576040517f08c379a000000000000000000000000000000000000000000000000000000000815260040161012f90610a98565b60405180910390fd5b805f73ffffffffffffffffffffffffffffffffffffffff1660015f9054906101000a900473ffffffffffffffffffffffffffffffffffffffff1673ffffffffffffffffffffffffffffffffffffffff166321f8a7216040518060400160405280600f81526020017f51554952455f434f4e5452414354530000000000000000000000000000000000815250846040516020016101d5929190610b22565b604051602081830303815290604052805190602001206040518263ffffffff1660e01b81526004016102079190610b5d565b602060405180830381865afa158015610222573d5f803e3d5ffd5b505050506040513d601f19601f820116820180604052508101906102469190610b8a565b73ffffffffffffffffffffffffffffffffffffffff160361029c576040517f08c379a000000000000000000000000000000000000000000000000000000000815260040161029390610bff565b60405180910390fd5b60015f9054906101000a900473ffffffffffffffffffffffffffffffffffffffff1673ffffffffffffffffffffffffffffffffffffffff16630e14a3766040518060400160405280600f81526020017f51554952455f434f4e545241435453000000000000000000000000000000000081525084604051602001610321929190610b22565b604051602081830303815290604052805190602001206040518263ffffffff1660e01b81526004016103539190610b5d565b5f604051808303815f87803b15801561036a575f80fd5b505af115801561037c573d5f803e3d5ffd5b505050507f151ca0dc83baa60b38534e0cdd41420dffbb064bd5007ed9be1a80441072702e826040516103af9190610c55565b60405180910390a15050565b5f8054906101000a900473ffffffffffffffffffffffffffffffffffffffff1673ffffffffffffffffffffffffffffffffffffffff163373ffffffffffffffffffffffffffffffffffffffff1614610448576040517f08c379a000000000000000000000000000000000000000000000000000000000815260040161043f90610a98565b60405180910390fd5b815f73ffffffffffffffffffffffffffffffffffffffff1660015f9054906101000a900473ffffffffffffffffffffffffffffffffffffffff1673ffffffffffffffffffffffffffffffffffffffff166321f8a7216040518060400160405280600f81526020017f51554952455f434f4e5452414354530000000000000000000000000000000000815250846040516020016104e5929190610b22565b604051602081830303815290604052805190602001206040518263ffffffff1660e01b81526004016105179190610b5d565b602060405180830381865afa158015610532573d5f803e3d5ffd5b505050506040513d601f19601f820116820180604052508101906105569190610b8a565b73ffffffffffffffffffffffffffffffffffffffff16146105ac576040517f08c379a00000000000000000000000000000000000000000000000000000000081526004016105a390610cbf565b60405180910390fd5b60015f9054906101000a900473ffffffffffffffffffffffffffffffffffffffff1673ffffffffffffffffffffffffffffffffffffffff1663ca446dd96040518060400160405280600f81526020017f51554952455f434f4e545241435453000000000000000000000000000000000081525085604051602001610631929190610b22565b60405160208183030381529060405280519060200120846040518363ffffffff1660e01b8152600401610665929190610cdd565b5f604051808303815f87803b15801561067c575f80fd5b505af115801561068e573d5f803e3d5ffd5b505050507f2a88e68a891ddb61f7aebfdeefd9fb74964fcd5371b692ea59cca73fc58f480583836040516106c3929190610d04565b60405180910390a1505050565b5f60015f9054906101000a900473ffffffffffffffffffffffffffffffffffffffff1673ffffffffffffffffffffffffffffffffffffffff166321f8a7216040518060400160405280600f81526020017f51554952455f434f4e545241435453000000000000000000000000000000000081525084604051602001610756929190610b22565b604051602081830303815290604052805190602001206040518263ffffffff1660e01b81526004016107889190610b5d565b602060405180830381865afa1580156107a3573d5f803e3d5ffd5b505050506040513d601f19601f820116820180604052508101906107c79190610b8a565b9050919050565b5f604051905090565b5f80fd5b5f80fd5b5f80fd5b5f80fd5b5f601f19601f8301169050919050565b7f4e487b71000000000000000000000000000000000000000000000000000000005f52604160045260245ffd5b61082d826107e7565b810181811067ffffffffffffffff8211171561084c5761084b6107f7565b5b80604052505050565b5f61085e6107ce565b905061086a8282610824565b919050565b5f67ffffffffffffffff821115610889576108886107f7565b5b610892826107e7565b9050602081019050919050565b828183375f83830152505050565b5f6108bf6108ba8461086f565b610855565b9050828152602081018484840111156108db576108da6107e3565b5b6108e684828561089f565b509392505050565b5f82601f830112610902576109016107df565b5b81356109128482602086016108ad565b91505092915050565b5f602082840312156109305761092f6107d7565b5b5f82013567ffffffffffffffff81111561094d5761094c6107db565b5b610959848285016108ee565b91505092915050565b5f73ffffffffffffffffffffffffffffffffffffffff82169050919050565b5f61098b82610962565b9050919050565b61099b81610981565b81146109a5575f80fd5b50565b5f813590506109b681610992565b92915050565b5f80604083850312156109d2576109d16107d7565b5b5f83013567ffffffffffffffff8111156109ef576109ee6107db565b5b6109fb858286016108ee565b9250506020610a0c858286016109a8565b9150509250929050565b610a1f81610981565b82525050565b5f602082019050610a385f830184610a16565b92915050565b5f82825260208201905092915050565b7f696e76616c69642063616c6c65720000000000000000000000000000000000005f82015250565b5f610a82600e83610a3e565b9150610a8d82610a4e565b602082019050919050565b5f6020820190508181035f830152610aaf81610a76565b9050919050565b5f81519050919050565b5f81905092915050565b5f5b83811015610ae7578082015181840152602081019050610acc565b5f8484015250505050565b5f610afc82610ab6565b610b068185610ac0565b9350610b16818560208601610aca565b80840191505092915050565b5f610b2d8285610af2565b9150610b398284610af2565b91508190509392505050565b5f819050919050565b610b5781610b45565b82525050565b5f602082019050610b705f830184610b4e565b92915050565b5f81519050610b8481610992565b92915050565b5f60208284031215610b9f57610b9e6107d7565b5b5f610bac84828501610b76565b91505092915050565b7f436f6e7472616374206e6f7420726567697374657265640000000000000000005f82015250565b5f610be9601783610a3e565b9150610bf482610bb5565b602082019050919050565b5f6020820190508181035f830152610c1681610bdd565b9050919050565b5f610c2782610ab6565b610c318185610a3e565b9350610c41818560208601610aca565b610c4a816107e7565b840191505092915050565b5f6020820190508181035f830152610c6d8184610c1d565b905092915050565b7f436f6e747261637420616c7265616479207265676973746572656400000000005f82015250565b5f610ca9601b83610a3e565b9150610cb482610c75565b602082019050919050565b5f6020820190508181035f830152610cd681610c9d565b9050919050565b5f604082019050610cf05f830185610b4e565b610cfd6020830184610a16565b9392505050565b5f6040820190508181035f830152610d1c8185610c1d565b9050610d2b6020830184610a16565b939250505056fea2646970667358221220a9c1499f25d9f17903bbd8cb288ffd87ae8ed329290333df254d7098a3051f0764736f6c63430008140033",
  "immutableReferences": {},
  "source": "pragma solidity ^0.8.0;\nimport \"./QuireStorage.sol\";\n\n\n/** @title Contract Registry Contract\n  * @notice This contract manages contract name to contract address mapping of contracts deployed on the network. \n  * These are the contracts with READ and WRITE access to the Quire Storage contract. \n  */\ncontract QuireContracts {\n\n    address private quireUpgradeable;\n    QuireStorage private quireStorage;\n\n    event ContractRegistered(string contractName_, address contractAddress_);\n    event ContractUnRegistered(string contractName_);\n\n    constructor (address _quireUpgradeable, address _quireStorage) {\n        quireUpgradeable = _quireUpgradeable;\n        quireStorage = QuireStorage(_quireStorage);\n    }\n\n    /** @dev The value of KEY should never be updated after first deployment\n      */\n    string constant KEY = \"QUIRE_CONTRACTS\";\n\n    /** @notice Modifier to allow function call only PermissionsUpgradable.sol.\n      */\n    modifier onlyUpgradeable {\n        require(msg.sender == quireUpgradeable, \"invalid caller\");\n        _;\n    }\n\n    /** @notice Only unregistered contract addresses\n      */\n    modifier unregisteredContract (string memory _contractName) {\n        require(quireStorage.getAddress(keccak256(abi.encodePacked(KEY, _contractName)))==address(0), \"Contract already registered\");\n        _;\n    }\n\n    /** @notice Only registered contract addresses\n      */\n    modifier registeredContract (string memory _contractName) {\n        require(quireStorage.getAddress(keccak256(abi.encodePacked(KEY, _contractName)))!=address(0), \"Contract not registered\");\n        _;\n    }\n\n    /** @notice Registers a contract by contract name\n      * @param _contractName Name of account contract to be registered\n      * @param _contractAddress Address of account contract to be registered\n      */\n    function registerContract (string memory _contractName, address _contractAddress) external \n    onlyUpgradeable\n    unregisteredContract(_contractName) {\n        quireStorage.setAddress(keccak256(abi.encodePacked(KEY, _contractName)), _contractAddress);\n        emit ContractRegistered(_contractName, _contractAddress);\n    }\n\n    /** @notice Unregisters a contract by contract name\n      * @param _contractName Name of account contract to be unregistered\n      */\n    function unregisterContract (string memory _contractName) external \n    onlyUpgradeable\n    registeredContract(_contractName) {\n        quireStorage.deleteAddress(keccak256(abi.encodePacked(KEY, _contractName)));\n        emit ContractUnRegistered(_contractName);\n    }\n\n    /** @notice Gets address of a registered contract by its name\n      * @param _contractName Name of account contract\n      */\n    function getRegisteredContract (string memory _contractName) public view \n    returns(address) {\n        return quireStorage.getAddress(keccak256(abi.encodePacked(KEY, _contractName)));\n    }\n\n}",
  "sourcePath": "/home/raghupathi/Desktop/javaClass/javaClass/contracts/QuireContracts.sol",
  "compiler": {
    "name": "solc",
    "version": "0.8.20+commit.a1b79de6.Emscripten.clang"
  },
  "schemaVersion": "3.4.14",
  "updatedAt": "2023-06-02T09:43:22.653Z",
  "devdoc": {
    "kind": "dev",
    "methods": {
      "getRegisteredContract(string)": {
        "params": {
          "_contractName": "Name of account contract"
        }
      },
      "registerContract(string,address)": {
        "params": {
          "_contractAddress": "Address of account contract to be registered",
          "_contractName": "Name of account contract to be registered"
        }
      },
      "unregisterContract(string)": {
        "params": {
          "_contractName": "Name of account contract to be unregistered"
        }
      }
    },
    "stateVariables": {
      "KEY": {
        "details": "The value of KEY should never be updated after first deployment"
      }
    },
    "title": "Contract Registry Contract",
    "version": 1
  },
  "userdoc": {
    "kind": "user",
    "methods": {
      "getRegisteredContract(string)": {
        "notice": "Gets address of a registered contract by its name"
      },
      "registerContract(string,address)": {
        "notice": "Registers a contract by contract name"
      },
      "unregisterContract(string)": {
        "notice": "Unregisters a contract by contract name"
      }
    },
    "notice": "This contract manages contract name to contract address mapping of contracts deployed on the network.  These are the contracts with READ and WRITE access to the Quire Storage contract. ",
    "version": 1
  }
}