{
  "contractName": "QuireUpgradable",
  "abi": [
    {
      "inputs": [],
      "stateMutability": "nonpayable",
      "type": "constructor"
    },
    {
      "inputs": [
        {
          "internalType": "string",
          "name": "_contractName",
          "type": "string"
        },
        {
          "internalType": "address",
          "name": "_contractAddress",
          "type": "address"
        }
      ],
      "name": "registerContract",
      "outputs": [],
      "stateMutability": "nonpayable",
      "type": "function"
    },
    {
      "inputs": [
        {
          "internalType": "string",
          "name": "_contractName",
          "type": "string"
        },
        {
          "internalType": "address",
          "name": "_contractAddress",
          "type": "address"
        }
      ],
      "name": "unRegisterContract",
      "outputs": [],
      "stateMutability": "nonpayable",
      "type": "function"
    },
    {
      "inputs": [
        {
          "internalType": "address",
          "name": "_account",
          "type": "address"
        }
      ],
      "name": "registerAccount",
      "outputs": [],
      "stateMutability": "nonpayable",
      "type": "function"
    },
    {
      "inputs": [
        {
          "internalType": "address",
          "name": "_account",
          "type": "address"
        }
      ],
      "name": "unRegisterAccount",
      "outputs": [],
      "stateMutability": "nonpayable",
      "type": "function"
    },
    {
      "inputs": [
        {
          "internalType": "address",
          "name": "_proposedStorage",
          "type": "address"
        }
      ],
      "name": "registerSecondaryStorage",
      "outputs": [],
      "stateMutability": "nonpayable",
      "type": "function"
    },
    {
      "inputs": [
        {
          "internalType": "address",
          "name": "_quireContracts",
          "type": "address"
        },
        {
          "internalType": "address",
          "name": "_quireStorage",
          "type": "address"
        }
      ],
      "name": "init",
      "outputs": [],
      "stateMutability": "nonpayable",
      "type": "function"
    },
    {
      "inputs": [
        {
          "internalType": "address",
          "name": "_proposedProxy",
          "type": "address"
        }
      ],
      "name": "changeProxyContract",
      "outputs": [],
      "stateMutability": "nonpayable",
      "type": "function"
    },
    {
      "inputs": [
        {
          "internalType": "address",
          "name": "_proposedUpgradable",
          "type": "address"
        }
      ],
      "name": "changeUpgradable",
      "outputs": [],
      "stateMutability": "nonpayable",
      "type": "function"
    },
    {
      "inputs": [],
      "name": "getGuardian",
      "outputs": [
        {
          "internalType": "address",
          "name": "",
          "type": "address"
        }
      ],
      "stateMutability": "view",
      "type": "function"
    },
    {
      "inputs": [],
      "name": "getQuireStorage",
      "outputs": [
        {
          "internalType": "address",
          "name": "",
          "type": "address"
        }
      ],
      "stateMutability": "view",
      "type": "function"
    },
    {
      "inputs": [],
      "name": "getProxyContract",
      "outputs": [
        {
          "internalType": "address",
          "name": "",
          "type": "address"
        }
      ],
      "stateMutability": "view",
      "type": "function"
    }
  ],
  "bytecode": "0x608060405234801561000f575f80fd5b50335f806101000a81548173ffffffffffffffffffffffffffffffffffffffff021916908373ffffffffffffffffffffffffffffffffffffffff1602179055505f600260146101000a81548160ff021916908315150217905550610fab806100765f395ff3fe608060405234801561000f575f80fd5b50600436106100a7575f3560e01c80636ae1af001161006f5780636ae1af001461013b5780636c0a0139146101575780637f3c2c281461017357806397c414df1461018f578063a75b87d2146101ab578063f09a4016146101c9576100a7565b806306c2b390146100ab578063078dd404146100c957806310149468146100e55780631fcc40c914610101578063680cc5d61461011d575b5f80fd5b6100b36101e5565b6040516100c09190610c87565b60405180910390f35b6100e360048036038101906100de9190610cd2565b61020d565b005b6100ff60048036038101906100fa9190610d5e565b6102dd565b005b61011b60048036038101906101169190610cd2565b61047e565b005b610125610595565b6040516101329190610c87565b60405180910390f35b61015560048036038101906101509190610cd2565b6105bd565b005b610171600480360381019061016c9190610cd2565b6106d3565b005b61018d60048036038101906101889190610d5e565b6107ea565b005b6101a960048036038101906101a49190610cd2565b61098e565b005b6101b3610aa5565b6040516101c09190610c87565b60405180910390f35b6101e360048036038101906101de9190610dbb565b610acc565b005b5f60025f9054906101000a900473ffffffffffffffffffffffffffffffffffffffff16905090565b5f8054906101000a900473ffffffffffffffffffffffffffffffffffffffff1673ffffffffffffffffffffffffffffffffffffffff163373ffffffffffffffffffffffffffffffffffffffff161461029a576040517f08c379a000000000000000000000000000000000000000000000000000000000815260040161029190610e53565b60405180910390fd5b8060025f6101000a81548173ffffffffffffffffffffffffffffffffffffffff021916908373ffffffffffffffffffffffffffffffffffffffff16021790555050565b5f8054906101000a900473ffffffffffffffffffffffffffffffffffffffff1673ffffffffffffffffffffffffffffffffffffffff163373ffffffffffffffffffffffffffffffffffffffff161461036a576040517f08c379a000000000000000000000000000000000000000000000000000000000815260040161036190610e53565b60405180910390fd5b60025f9054906101000a900473ffffffffffffffffffffffffffffffffffffffff1673ffffffffffffffffffffffffffffffffffffffff1663035e770984846040518363ffffffff1660e01b81526004016103c6929190610ebb565b5f604051808303815f87803b1580156103dd575f80fd5b505af11580156103ef573d5f803e3d5ffd5b5050505060015f9054906101000a900473ffffffffffffffffffffffffffffffffffffffff1673ffffffffffffffffffffffffffffffffffffffff1662f7c5be826040518263ffffffff1660e01b815260040161044c9190610c87565b5f604051808303815f87803b158015610463575f80fd5b505af1158015610475573d5f803e3d5ffd5b50505050505050565b5f8054906101000a900473ffffffffffffffffffffffffffffffffffffffff1673ffffffffffffffffffffffffffffffffffffffff163373ffffffffffffffffffffffffffffffffffffffff161461050b576040517f08c379a000000000000000000000000000000000000000000000000000000000815260040161050290610e53565b60405180910390fd5b60015f9054906101000a900473ffffffffffffffffffffffffffffffffffffffff1673ffffffffffffffffffffffffffffffffffffffff166302cc37cd826040518263ffffffff1660e01b81526004016105659190610c87565b5f604051808303815f87803b15801561057c575f80fd5b505af115801561058e573d5f803e3d5ffd5b5050505050565b5f60015f9054906101000a900473ffffffffffffffffffffffffffffffffffffffff16905090565b5f8054906101000a900473ffffffffffffffffffffffffffffffffffffffff1673ffffffffffffffffffffffffffffffffffffffff163373ffffffffffffffffffffffffffffffffffffffff161461064a576040517f08c379a000000000000000000000000000000000000000000000000000000000815260040161064190610e53565b60405180910390fd5b60015f9054906101000a900473ffffffffffffffffffffffffffffffffffffffff1673ffffffffffffffffffffffffffffffffffffffff1662f7c5be826040518263ffffffff1660e01b81526004016106a39190610c87565b5f604051808303815f87803b1580156106ba575f80fd5b505af11580156106cc573d5f803e3d5ffd5b5050505050565b5f8054906101000a900473ffffffffffffffffffffffffffffffffffffffff1673ffffffffffffffffffffffffffffffffffffffff163373ffffffffffffffffffffffffffffffffffffffff1614610760576040517f08c379a000000000000000000000000000000000000000000000000000000000815260040161075790610e53565b60405180910390fd5b60015f9054906101000a900473ffffffffffffffffffffffffffffffffffffffff1673ffffffffffffffffffffffffffffffffffffffff16636c0a0139826040518263ffffffff1660e01b81526004016107ba9190610c87565b5f604051808303815f87803b1580156107d1575f80fd5b505af11580156107e3573d5f803e3d5ffd5b5050505050565b5f8054906101000a900473ffffffffffffffffffffffffffffffffffffffff1673ffffffffffffffffffffffffffffffffffffffff163373ffffffffffffffffffffffffffffffffffffffff1614610877576040517f08c379a000000000000000000000000000000000000000000000000000000000815260040161086e90610e53565b60405180910390fd5b60015f9054906101000a900473ffffffffffffffffffffffffffffffffffffffff1673ffffffffffffffffffffffffffffffffffffffff1663a8a54008826040518263ffffffff1660e01b81526004016108d19190610c87565b5f604051808303815f87803b1580156108e8575f80fd5b505af11580156108fa573d5f803e3d5ffd5b5050505060025f9054906101000a900473ffffffffffffffffffffffffffffffffffffffff1673ffffffffffffffffffffffffffffffffffffffff16637f3c2c288484846040518463ffffffff1660e01b815260040161095c93929190610edd565b5f604051808303815f87803b158015610973575f80fd5b505af1158015610985573d5f803e3d5ffd5b50505050505050565b5f8054906101000a900473ffffffffffffffffffffffffffffffffffffffff1673ffffffffffffffffffffffffffffffffffffffff163373ffffffffffffffffffffffffffffffffffffffff1614610a1b576040517f08c379a0000000000000000000000000000000000000000000000000000000008152600401610a1290610e53565b60405180910390fd5b60015f9054906101000a900473ffffffffffffffffffffffffffffffffffffffff1673ffffffffffffffffffffffffffffffffffffffff1663a8a54008826040518263ffffffff1660e01b8152600401610a759190610c87565b5f604051808303815f87803b158015610a8c575f80fd5b505af1158015610a9e573d5f803e3d5ffd5b5050505050565b5f805f9054906101000a900473ffffffffffffffffffffffffffffffffffffffff16905090565b5f8054906101000a900473ffffffffffffffffffffffffffffffffffffffff1673ffffffffffffffffffffffffffffffffffffffff163373ffffffffffffffffffffffffffffffffffffffff1614610b59576040517f08c379a0000000000000000000000000000000000000000000000000000000008152600401610b5090610e53565b60405180910390fd5b600260149054906101000a900460ff1615610ba9576040517f08c379a0000000000000000000000000000000000000000000000000000000008152600401610ba090610f57565b60405180910390fd5b8160025f6101000a81548173ffffffffffffffffffffffffffffffffffffffff021916908373ffffffffffffffffffffffffffffffffffffffff1602179055508060015f6101000a81548173ffffffffffffffffffffffffffffffffffffffff021916908373ffffffffffffffffffffffffffffffffffffffff1602179055506001600260146101000a81548160ff0219169083151502179055505050565b5f73ffffffffffffffffffffffffffffffffffffffff82169050919050565b5f610c7182610c48565b9050919050565b610c8181610c67565b82525050565b5f602082019050610c9a5f830184610c78565b92915050565b5f80fd5b5f80fd5b610cb181610c67565b8114610cbb575f80fd5b50565b5f81359050610ccc81610ca8565b92915050565b5f60208284031215610ce757610ce6610ca0565b5b5f610cf484828501610cbe565b91505092915050565b5f80fd5b5f80fd5b5f80fd5b5f8083601f840112610d1e57610d1d610cfd565b5b8235905067ffffffffffffffff811115610d3b57610d3a610d01565b5b602083019150836001820283011115610d5757610d56610d05565b5b9250929050565b5f805f60408486031215610d7557610d74610ca0565b5b5f84013567ffffffffffffffff811115610d9257610d91610ca4565b5b610d9e86828701610d09565b93509350506020610db186828701610cbe565b9150509250925092565b5f8060408385031215610dd157610dd0610ca0565b5b5f610dde85828601610cbe565b9250506020610def85828601610cbe565b9150509250929050565b5f82825260208201905092915050565b7f696e76616c69642063616c6c65720000000000000000000000000000000000005f82015250565b5f610e3d600e83610df9565b9150610e4882610e09565b602082019050919050565b5f6020820190508181035f830152610e6a81610e31565b9050919050565b828183375f83830152505050565b5f601f19601f8301169050919050565b5f610e9a8385610df9565b9350610ea7838584610e71565b610eb083610e7f565b840190509392505050565b5f6020820190508181035f830152610ed4818486610e8f565b90509392505050565b5f6040820190508181035f830152610ef6818587610e8f565b9050610f056020830184610c78565b949350505050565b7f63616e206265206578656375746564206f6e6c79206f6e6365000000000000005f82015250565b5f610f41601983610df9565b9150610f4c82610f0d565b602082019050919050565b5f6020820190508181035f830152610f6e81610f35565b905091905056fea2646970667358221220a41202dec04d1791336342254c9f871ddf38e583c59665f9ca374743ea264d7364736f6c63430008140033",
  "immutableReferences": {},
  "source": "pragma solidity ^0.8.0;\n\nimport \"./QuireStorage.sol\";\nimport \"./QuireContracts.sol\";\n\n/** @title Quire Upgradable Contract\n  * @notice This contract holds the address of current quire proxy\n    contract. The contract is owned by a guardian account. Only the\n    guardian account can change the proxy contract address as\n    business needs.\n  */\ncontract QuireUpgradable {\n\n    address private guardian;\n    address private quireStorage;\n    address private quireContracts;\n    // initDone ensures that init can be called only once\n    bool private initDone;\n\n    /** @notice constructor\n      */\n    constructor () {\n        guardian = msg.sender;\n        initDone = false;\n    }\n\n    /** @notice confirms that the caller is the guardian account\n    */\n    modifier onlyGuardian {\n        require(msg.sender == guardian, \"invalid caller\");\n        _;\n    }\n\n    /** @notice Registers a contract in storage and proxy contract\n      * @param _contractAddress Address of contract whose access needs to be updated\n      * @param _contractName Name of the contract in Capital Snake Case\n      */\n    function registerContract (string calldata _contractName, address _contractAddress) external \n    onlyGuardian {\n      QuireStorage(quireStorage).registerAddress(_contractAddress);\n      QuireContracts(quireContracts).registerContract(_contractName, _contractAddress);\n    }\n\n    /** @notice UnRegisters a contract in storage and proxy contract\n      * @param _contractAddress Address of contract whose access needs to be updated\n      * @param _contractName Name of the contract in Capital Snake Case\n      */\n    function unRegisterContract (string calldata _contractName, address _contractAddress) external \n    onlyGuardian {\n      QuireContracts(quireContracts).unregisterContract(_contractName);\n      QuireStorage(quireStorage).unregisterAddress(_contractAddress);\n    }\n\n    /** @notice Registers an account for storage access\n      * @param _account Address of account whose access needs to be updated\n      */\n    function registerAccount (address _account) external \n    onlyGuardian {\n      QuireStorage(quireStorage).registerAddress(_account);\n    }\n\n    /** @notice UnRegisters an account for storage access\n      * @param _account Address of account whose access needs to be updated\n      */\n    function unRegisterAccount (address _account) external \n    onlyGuardian {\n      QuireStorage(quireStorage).unregisterAddress(_account);\n    }\n\n    /** @notice Registers another storage contract in case of unfortunate upgrade\n      * This new contract will be able to fetch all the keys from the current storage\n      * @param _proposedStorage Address of the new storage account\n      */\n    function registerSecondaryStorage(address _proposedStorage) external \n    onlyGuardian {\n      QuireStorage(quireStorage).registerSecondaryStorage(_proposedStorage);\n    }\n\n    /** @notice executed by guardian. Starts the proxy and Quire contracts.\n      * Can be executed by guardian account only.\n      * @param _quireContracts proxy contract address\n      * @param _quireStorage quire storage contract address\n      */\n    function init(address _quireContracts, address _quireStorage) external\n    onlyGuardian {\n        require(!initDone, \"can be executed only once\");\n        quireContracts = _quireContracts;\n        quireStorage = _quireStorage;\n        initDone = true;\n    }\n\n    /** @notice changes the proxy contract address to the new address.\n        Can be executed by guardian account only\n      * @param _proposedProxy address of the new contract registry contract\n      */\n    function changeProxyContract(address _proposedProxy) public \n    onlyGuardian {\n      quireContracts = _proposedProxy;\n    }\n\n    /** @notice changes the upgradable contract address in storage contract.\n        Can be executed by guardian account only\n      * @param _proposedUpgradable address for the existing storage contract\n      * @dev this function should be prevented from being executed accidentally, \n      * as this could stop future updates\n      */\n    function changeUpgradable(address _proposedUpgradable) public \n    onlyGuardian {\n      QuireStorage(quireStorage).changeQuireUpgradable(_proposedUpgradable);\n    }\n\n    /** @notice function to fetch the guardian account address\n      * @return _guardian guardian account address\n      */\n    function getGuardian() public view returns (address) {\n        return guardian;\n    }\n    \n    /** @notice function to fetch the eternal storage address\n      * @return eternal storage contract address\n      */\n    function getQuireStorage() public view returns (address) {\n      return quireStorage;\n    }\n\n    /** @notice function to fetch the contract registry address\n      * @return contract registry contract address\n      */\n    function getProxyContract() public view returns (address) {\n      return quireContracts;\n    }\n\n}\n",
  "sourcePath": "/home/raghupathi/Desktop/javaClass/javaClass/contracts/QuireUpgradable.sol",
  "compiler": {
    "name": "solc",
    "version": "0.8.20+commit.a1b79de6.Emscripten.clang"
  },
  "schemaVersion": "3.4.14",
  "updatedAt": "2023-06-02T09:43:22.663Z",
  "devdoc": {
    "kind": "dev",
    "methods": {
      "changeProxyContract(address)": {
        "params": {
          "_proposedProxy": "address of the new contract registry contract"
        }
      },
      "changeUpgradable(address)": {
        "details": "this function should be prevented from being executed accidentally,  as this could stop future updates",
        "params": {
          "_proposedUpgradable": "address for the existing storage contract"
        }
      },
      "getGuardian()": {
        "returns": {
          "_0": "_guardian guardian account address"
        }
      },
      "getProxyContract()": {
        "returns": {
          "_0": "contract registry contract address"
        }
      },
      "getQuireStorage()": {
        "returns": {
          "_0": "eternal storage contract address"
        }
      },
      "init(address,address)": {
        "params": {
          "_quireContracts": "proxy contract address",
          "_quireStorage": "quire storage contract address"
        }
      },
      "registerAccount(address)": {
        "params": {
          "_account": "Address of account whose access needs to be updated"
        }
      },
      "registerContract(string,address)": {
        "params": {
          "_contractAddress": "Address of contract whose access needs to be updated",
          "_contractName": "Name of the contract in Capital Snake Case"
        }
      },
      "registerSecondaryStorage(address)": {
        "params": {
          "_proposedStorage": "Address of the new storage account"
        }
      },
      "unRegisterAccount(address)": {
        "params": {
          "_account": "Address of account whose access needs to be updated"
        }
      },
      "unRegisterContract(string,address)": {
        "params": {
          "_contractAddress": "Address of contract whose access needs to be updated",
          "_contractName": "Name of the contract in Capital Snake Case"
        }
      }
    },
    "title": "Quire Upgradable Contract",
    "version": 1
  },
  "userdoc": {
    "kind": "user",
    "methods": {
      "changeProxyContract(address)": {
        "notice": "changes the proxy contract address to the new address. Can be executed by guardian account only"
      },
      "changeUpgradable(address)": {
        "notice": "changes the upgradable contract address in storage contract. Can be executed by guardian account only"
      },
      "constructor": {
        "notice": "constructor"
      },
      "getGuardian()": {
        "notice": "function to fetch the guardian account address"
      },
      "getProxyContract()": {
        "notice": "function to fetch the contract registry address"
      },
      "getQuireStorage()": {
        "notice": "function to fetch the eternal storage address"
      },
      "init(address,address)": {
        "notice": "executed by guardian. Starts the proxy and Quire contracts. Can be executed by guardian account only."
      },
      "registerAccount(address)": {
        "notice": "Registers an account for storage access"
      },
      "registerContract(string,address)": {
        "notice": "Registers a contract in storage and proxy contract"
      },
      "registerSecondaryStorage(address)": {
        "notice": "Registers another storage contract in case of unfortunate upgrade This new contract will be able to fetch all the keys from the current storage"
      },
      "unRegisterAccount(address)": {
        "notice": "UnRegisters an account for storage access"
      },
      "unRegisterContract(string,address)": {
        "notice": "UnRegisters a contract in storage and proxy contract"
      }
    },
    "notice": "This contract holds the address of current quire proxy contract. The contract is owned by a guardian account. Only the guardian account can change the proxy contract address as business needs.",
    "version": 1
  }
}