{
  "contractName": "QuireStorage",
  "abi": [
    {
      "inputs": [
        {
          "internalType": "address",
          "name": "_quireUpgradable",
          "type": "address"
        }
      ],
      "stateMutability": "nonpayable",
      "type": "constructor"
    },
    {
      "anonymous": false,
      "inputs": [
        {
          "indexed": false,
          "internalType": "address",
          "name": "account_",
          "type": "address"
        }
      ],
      "name": "AddressRegistered",
      "type": "event"
    },
    {
      "anonymous": false,
      "inputs": [
        {
          "indexed": false,
          "internalType": "address",
          "name": "account_",
          "type": "address"
        }
      ],
      "name": "AddressUnRegistered",
      "type": "event"
    },
    {
      "inputs": [
        {
          "internalType": "address",
          "name": "_account",
          "type": "address"
        }
      ],
      "name": "registerAddress",
      "outputs": [],
      "stateMutability": "nonpayable",
      "type": "function"
    },
    {
      "inputs": [
        {
          "internalType": "address",
          "name": "_account",
          "type": "address"
        }
      ],
      "name": "unregisterAddress",
      "outputs": [],
      "stateMutability": "nonpayable",
      "type": "function"
    },
    {
      "inputs": [
        {
          "internalType": "address",
          "name": "_storage",
          "type": "address"
        }
      ],
      "name": "registerSecondaryStorage",
      "outputs": [],
      "stateMutability": "nonpayable",
      "type": "function"
    },
    {
      "inputs": [
        {
          "internalType": "address",
          "name": "_proposedUpgradable",
          "type": "address"
        }
      ],
      "name": "changeQuireUpgradable",
      "outputs": [],
      "stateMutability": "nonpayable",
      "type": "function"
    },
    {
      "inputs": [
        {
          "internalType": "address",
          "name": "_accountAddress",
          "type": "address"
        }
      ],
      "name": "isContractAuthorized",
      "outputs": [
        {
          "internalType": "bool",
          "name": "",
          "type": "bool"
        }
      ],
      "stateMutability": "view",
      "type": "function"
    },
    {
      "inputs": [
        {
          "internalType": "bytes32",
          "name": "_key",
          "type": "bytes32"
        }
      ],
      "name": "getAddress",
      "outputs": [
        {
          "internalType": "address",
          "name": "",
          "type": "address"
        }
      ],
      "stateMutability": "view",
      "type": "function"
    },
    {
      "inputs": [
        {
          "internalType": "bytes32",
          "name": "_key",
          "type": "bytes32"
        }
      ],
      "name": "getString",
      "outputs": [
        {
          "internalType": "string",
          "name": "",
          "type": "string"
        }
      ],
      "stateMutability": "view",
      "type": "function"
    },
    {
      "inputs": [
        {
          "internalType": "bytes32",
          "name": "_key",
          "type": "bytes32"
        }
      ],
      "name": "getBool",
      "outputs": [
        {
          "internalType": "bool",
          "name": "",
          "type": "bool"
        }
      ],
      "stateMutability": "view",
      "type": "function"
    },
    {
      "inputs": [
        {
          "internalType": "bytes32",
          "name": "_key",
          "type": "bytes32"
        }
      ],
      "name": "getUint8",
      "outputs": [
        {
          "internalType": "uint8",
          "name": "",
          "type": "uint8"
        }
      ],
      "stateMutability": "view",
      "type": "function"
    },
    {
      "inputs": [
        {
          "internalType": "bytes32",
          "name": "_key",
          "type": "bytes32"
        }
      ],
      "name": "getUint16",
      "outputs": [
        {
          "internalType": "uint16",
          "name": "",
          "type": "uint16"
        }
      ],
      "stateMutability": "view",
      "type": "function"
    },
    {
      "inputs": [
        {
          "internalType": "bytes32",
          "name": "_key",
          "type": "bytes32"
        }
      ],
      "name": "getUint32",
      "outputs": [
        {
          "internalType": "uint32",
          "name": "",
          "type": "uint32"
        }
      ],
      "stateMutability": "view",
      "type": "function"
    },
    {
      "inputs": [
        {
          "internalType": "bytes32",
          "name": "_key",
          "type": "bytes32"
        }
      ],
      "name": "getUint64",
      "outputs": [
        {
          "internalType": "uint64",
          "name": "",
          "type": "uint64"
        }
      ],
      "stateMutability": "view",
      "type": "function"
    },
    {
      "inputs": [
        {
          "internalType": "bytes32",
          "name": "_key",
          "type": "bytes32"
        }
      ],
      "name": "getUint128",
      "outputs": [
        {
          "internalType": "uint128",
          "name": "",
          "type": "uint128"
        }
      ],
      "stateMutability": "view",
      "type": "function"
    },
    {
      "inputs": [
        {
          "internalType": "bytes32",
          "name": "_key",
          "type": "bytes32"
        }
      ],
      "name": "getUint",
      "outputs": [
        {
          "internalType": "uint256",
          "name": "",
          "type": "uint256"
        }
      ],
      "stateMutability": "view",
      "type": "function"
    },
    {
      "inputs": [
        {
          "internalType": "bytes32",
          "name": "_key",
          "type": "bytes32"
        }
      ],
      "name": "getInt8",
      "outputs": [
        {
          "internalType": "int8",
          "name": "",
          "type": "int8"
        }
      ],
      "stateMutability": "view",
      "type": "function"
    },
    {
      "inputs": [
        {
          "internalType": "bytes32",
          "name": "_key",
          "type": "bytes32"
        }
      ],
      "name": "getInt16",
      "outputs": [
        {
          "internalType": "int16",
          "name": "",
          "type": "int16"
        }
      ],
      "stateMutability": "view",
      "type": "function"
    },
    {
      "inputs": [
        {
          "internalType": "bytes32",
          "name": "_key",
          "type": "bytes32"
        }
      ],
      "name": "getInt32",
      "outputs": [
        {
          "internalType": "int32",
          "name": "",
          "type": "int32"
        }
      ],
      "stateMutability": "view",
      "type": "function"
    },
    {
      "inputs": [
        {
          "internalType": "bytes32",
          "name": "_key",
          "type": "bytes32"
        }
      ],
      "name": "getInt64",
      "outputs": [
        {
          "internalType": "int64",
          "name": "",
          "type": "int64"
        }
      ],
      "stateMutability": "view",
      "type": "function"
    },
    {
      "inputs": [
        {
          "internalType": "bytes32",
          "name": "_key",
          "type": "bytes32"
        }
      ],
      "name": "getInt128",
      "outputs": [
        {
          "internalType": "int128",
          "name": "",
          "type": "int128"
        }
      ],
      "stateMutability": "view",
      "type": "function"
    },
    {
      "inputs": [
        {
          "internalType": "bytes32",
          "name": "_key",
          "type": "bytes32"
        }
      ],
      "name": "getInt",
      "outputs": [
        {
          "internalType": "int256",
          "name": "",
          "type": "int256"
        }
      ],
      "stateMutability": "view",
      "type": "function"
    },
    {
      "inputs": [
        {
          "internalType": "bytes32",
          "name": "_key",
          "type": "bytes32"
        }
      ],
      "name": "getBytes1",
      "outputs": [
        {
          "internalType": "bytes1",
          "name": "",
          "type": "bytes1"
        }
      ],
      "stateMutability": "view",
      "type": "function"
    },
    {
      "inputs": [
        {
          "internalType": "bytes32",
          "name": "_key",
          "type": "bytes32"
        }
      ],
      "name": "getBytes2",
      "outputs": [
        {
          "internalType": "bytes2",
          "name": "",
          "type": "bytes2"
        }
      ],
      "stateMutability": "view",
      "type": "function"
    },
    {
      "inputs": [
        {
          "internalType": "bytes32",
          "name": "_key",
          "type": "bytes32"
        }
      ],
      "name": "getBytes4",
      "outputs": [
        {
          "internalType": "bytes4",
          "name": "",
          "type": "bytes4"
        }
      ],
      "stateMutability": "view",
      "type": "function"
    },
    {
      "inputs": [
        {
          "internalType": "bytes32",
          "name": "_key",
          "type": "bytes32"
        }
      ],
      "name": "getBytes8",
      "outputs": [
        {
          "internalType": "bytes8",
          "name": "",
          "type": "bytes8"
        }
      ],
      "stateMutability": "view",
      "type": "function"
    },
    {
      "inputs": [
        {
          "internalType": "bytes32",
          "name": "_key",
          "type": "bytes32"
        }
      ],
      "name": "getBytes16",
      "outputs": [
        {
          "internalType": "bytes16",
          "name": "",
          "type": "bytes16"
        }
      ],
      "stateMutability": "view",
      "type": "function"
    },
    {
      "inputs": [
        {
          "internalType": "bytes32",
          "name": "_key",
          "type": "bytes32"
        }
      ],
      "name": "getBytes20",
      "outputs": [
        {
          "internalType": "bytes20",
          "name": "",
          "type": "bytes20"
        }
      ],
      "stateMutability": "view",
      "type": "function"
    },
    {
      "inputs": [
        {
          "internalType": "bytes32",
          "name": "_key",
          "type": "bytes32"
        }
      ],
      "name": "getBytes32",
      "outputs": [
        {
          "internalType": "bytes32",
          "name": "",
          "type": "bytes32"
        }
      ],
      "stateMutability": "view",
      "type": "function"
    },
    {
      "inputs": [
        {
          "internalType": "bytes32",
          "name": "_key",
          "type": "bytes32"
        }
      ],
      "name": "getBytes",
      "outputs": [
        {
          "internalType": "bytes",
          "name": "",
          "type": "bytes"
        }
      ],
      "stateMutability": "view",
      "type": "function"
    },
    {
      "inputs": [
        {
          "internalType": "bytes32",
          "name": "_key",
          "type": "bytes32"
        },
        {
          "internalType": "address",
          "name": "_value",
          "type": "address"
        }
      ],
      "name": "setAddress",
      "outputs": [],
      "stateMutability": "nonpayable",
      "type": "function"
    },
    {
      "inputs": [
        {
          "internalType": "bytes32",
          "name": "_key",
          "type": "bytes32"
        },
        {
          "internalType": "string",
          "name": "_value",
          "type": "string"
        }
      ],
      "name": "setString",
      "outputs": [],
      "stateMutability": "nonpayable",
      "type": "function"
    },
    {
      "inputs": [
        {
          "internalType": "bytes32",
          "name": "_key",
          "type": "bytes32"
        },
        {
          "internalType": "bool",
          "name": "_value",
          "type": "bool"
        }
      ],
      "name": "setBool",
      "outputs": [],
      "stateMutability": "nonpayable",
      "type": "function"
    },
    {
      "inputs": [
        {
          "internalType": "bytes32",
          "name": "_key",
          "type": "bytes32"
        },
        {
          "internalType": "uint8",
          "name": "_value",
          "type": "uint8"
        }
      ],
      "name": "setUint8",
      "outputs": [],
      "stateMutability": "nonpayable",
      "type": "function"
    },
    {
      "inputs": [
        {
          "internalType": "bytes32",
          "name": "_key",
          "type": "bytes32"
        },
        {
          "internalType": "uint16",
          "name": "_value",
          "type": "uint16"
        }
      ],
      "name": "setUint16",
      "outputs": [],
      "stateMutability": "nonpayable",
      "type": "function"
    },
    {
      "inputs": [
        {
          "internalType": "bytes32",
          "name": "_key",
          "type": "bytes32"
        },
        {
          "internalType": "uint32",
          "name": "_value",
          "type": "uint32"
        }
      ],
      "name": "setUint32",
      "outputs": [],
      "stateMutability": "nonpayable",
      "type": "function"
    },
    {
      "inputs": [
        {
          "internalType": "bytes32",
          "name": "_key",
          "type": "bytes32"
        },
        {
          "internalType": "uint64",
          "name": "_value",
          "type": "uint64"
        }
      ],
      "name": "setUint64",
      "outputs": [],
      "stateMutability": "nonpayable",
      "type": "function"
    },
    {
      "inputs": [
        {
          "internalType": "bytes32",
          "name": "_key",
          "type": "bytes32"
        },
        {
          "internalType": "uint128",
          "name": "_value",
          "type": "uint128"
        }
      ],
      "name": "setUint128",
      "outputs": [],
      "stateMutability": "nonpayable",
      "type": "function"
    },
    {
      "inputs": [
        {
          "internalType": "bytes32",
          "name": "_key",
          "type": "bytes32"
        },
        {
          "internalType": "uint256",
          "name": "_value",
          "type": "uint256"
        }
      ],
      "name": "setUint",
      "outputs": [],
      "stateMutability": "nonpayable",
      "type": "function"
    },
    {
      "inputs": [
        {
          "internalType": "bytes32",
          "name": "_key",
          "type": "bytes32"
        },
        {
          "internalType": "int8",
          "name": "_value",
          "type": "int8"
        }
      ],
      "name": "setInt8",
      "outputs": [],
      "stateMutability": "nonpayable",
      "type": "function"
    },
    {
      "inputs": [
        {
          "internalType": "bytes32",
          "name": "_key",
          "type": "bytes32"
        },
        {
          "internalType": "int16",
          "name": "_value",
          "type": "int16"
        }
      ],
      "name": "setInt16",
      "outputs": [],
      "stateMutability": "nonpayable",
      "type": "function"
    },
    {
      "inputs": [
        {
          "internalType": "bytes32",
          "name": "_key",
          "type": "bytes32"
        },
        {
          "internalType": "int32",
          "name": "_value",
          "type": "int32"
        }
      ],
      "name": "setInt32",
      "outputs": [],
      "stateMutability": "nonpayable",
      "type": "function"
    },
    {
      "inputs": [
        {
          "internalType": "bytes32",
          "name": "_key",
          "type": "bytes32"
        },
        {
          "internalType": "int64",
          "name": "_value",
          "type": "int64"
        }
      ],
      "name": "setInt64",
      "outputs": [],
      "stateMutability": "nonpayable",
      "type": "function"
    },
    {
      "inputs": [
        {
          "internalType": "bytes32",
          "name": "_key",
          "type": "bytes32"
        },
        {
          "internalType": "int128",
          "name": "_value",
          "type": "int128"
        }
      ],
      "name": "setInt128",
      "outputs": [],
      "stateMutability": "nonpayable",
      "type": "function"
    },
    {
      "inputs": [
        {
          "internalType": "bytes32",
          "name": "_key",
          "type": "bytes32"
        },
        {
          "internalType": "int256",
          "name": "_value",
          "type": "int256"
        }
      ],
      "name": "setInt",
      "outputs": [],
      "stateMutability": "nonpayable",
      "type": "function"
    },
    {
      "inputs": [
        {
          "internalType": "bytes32",
          "name": "_key",
          "type": "bytes32"
        },
        {
          "internalType": "bytes1",
          "name": "_value",
          "type": "bytes1"
        }
      ],
      "name": "setBytes1",
      "outputs": [],
      "stateMutability": "nonpayable",
      "type": "function"
    },
    {
      "inputs": [
        {
          "internalType": "bytes32",
          "name": "_key",
          "type": "bytes32"
        },
        {
          "internalType": "bytes2",
          "name": "_value",
          "type": "bytes2"
        }
      ],
      "name": "setBytes2",
      "outputs": [],
      "stateMutability": "nonpayable",
      "type": "function"
    },
    {
      "inputs": [
        {
          "internalType": "bytes32",
          "name": "_key",
          "type": "bytes32"
        },
        {
          "internalType": "bytes4",
          "name": "_value",
          "type": "bytes4"
        }
      ],
      "name": "setBytes4",
      "outputs": [],
      "stateMutability": "nonpayable",
      "type": "function"
    },
    {
      "inputs": [
        {
          "internalType": "bytes32",
          "name": "_key",
          "type": "bytes32"
        },
        {
          "internalType": "bytes8",
          "name": "_value",
          "type": "bytes8"
        }
      ],
      "name": "setBytes8",
      "outputs": [],
      "stateMutability": "nonpayable",
      "type": "function"
    },
    {
      "inputs": [
        {
          "internalType": "bytes32",
          "name": "_key",
          "type": "bytes32"
        },
        {
          "internalType": "bytes16",
          "name": "_value",
          "type": "bytes16"
        }
      ],
      "name": "setBytes16",
      "outputs": [],
      "stateMutability": "nonpayable",
      "type": "function"
    },
    {
      "inputs": [
        {
          "internalType": "bytes32",
          "name": "_key",
          "type": "bytes32"
        },
        {
          "internalType": "bytes20",
          "name": "_value",
          "type": "bytes20"
        }
      ],
      "name": "setBytes20",
      "outputs": [],
      "stateMutability": "nonpayable",
      "type": "function"
    },
    {
      "inputs": [
        {
          "internalType": "bytes32",
          "name": "_key",
          "type": "bytes32"
        },
        {
          "internalType": "bytes32",
          "name": "_value",
          "type": "bytes32"
        }
      ],
      "name": "setBytes32",
      "outputs": [],
      "stateMutability": "nonpayable",
      "type": "function"
    },
    {
      "inputs": [
        {
          "internalType": "bytes32",
          "name": "_key",
          "type": "bytes32"
        },
        {
          "internalType": "bytes",
          "name": "_value",
          "type": "bytes"
        }
      ],
      "name": "setBytes",
      "outputs": [],
      "stateMutability": "nonpayable",
      "type": "function"
    },
    {
      "inputs": [
        {
          "internalType": "bytes32",
          "name": "_key",
          "type": "bytes32"
        }
      ],
      "name": "deleteAddress",
      "outputs": [],
      "stateMutability": "nonpayable",
      "type": "function"
    },
    {
      "inputs": [
        {
          "internalType": "bytes32",
          "name": "_key",
          "type": "bytes32"
        }
      ],
      "name": "deleteString",
      "outputs": [],
      "stateMutability": "nonpayable",
      "type": "function"
    },
    {
      "inputs": [
        {
          "internalType": "bytes32",
          "name": "_key",
          "type": "bytes32"
        }
      ],
      "name": "deleteBool",
      "outputs": [],
      "stateMutability": "nonpayable",
      "type": "function"
    },
    {
      "inputs": [
        {
          "internalType": "bytes32",
          "name": "_key",
          "type": "bytes32"
        }
      ],
      "name": "deleteUint8",
      "outputs": [],
      "stateMutability": "nonpayable",
      "type": "function"
    },
    {
      "inputs": [
        {
          "internalType": "bytes32",
          "name": "_key",
          "type": "bytes32"
        }
      ],
      "name": "deleteUint16",
      "outputs": [],
      "stateMutability": "nonpayable",
      "type": "function"
    },
    {
      "inputs": [
        {
          "internalType": "bytes32",
          "name": "_key",
          "type": "bytes32"
        }
      ],
      "name": "deleteUint32",
      "outputs": [],
      "stateMutability": "nonpayable",
      "type": "function"
    },
    {
      "inputs": [
        {
          "internalType": "bytes32",
          "name": "_key",
          "type": "bytes32"
        }
      ],
      "name": "deleteUint64",
      "outputs": [],
      "stateMutability": "nonpayable",
      "type": "function"
    },
    {
      "inputs": [
        {
          "internalType": "bytes32",
          "name": "_key",
          "type": "bytes32"
        }
      ],
      "name": "deleteUint128",
      "outputs": [],
      "stateMutability": "nonpayable",
      "type": "function"
    },
    {
      "inputs": [
        {
          "internalType": "bytes32",
          "name": "_key",
          "type": "bytes32"
        }
      ],
      "name": "deleteUint",
      "outputs": [],
      "stateMutability": "nonpayable",
      "type": "function"
    },
    {
      "inputs": [
        {
          "internalType": "bytes32",
          "name": "_key",
          "type": "bytes32"
        }
      ],
      "name": "deleteint8",
      "outputs": [],
      "stateMutability": "nonpayable",
      "type": "function"
    },
    {
      "inputs": [
        {
          "internalType": "bytes32",
          "name": "_key",
          "type": "bytes32"
        }
      ],
      "name": "deleteint16",
      "outputs": [],
      "stateMutability": "nonpayable",
      "type": "function"
    },
    {
      "inputs": [
        {
          "internalType": "bytes32",
          "name": "_key",
          "type": "bytes32"
        }
      ],
      "name": "deleteint32",
      "outputs": [],
      "stateMutability": "nonpayable",
      "type": "function"
    },
    {
      "inputs": [
        {
          "internalType": "bytes32",
          "name": "_key",
          "type": "bytes32"
        }
      ],
      "name": "deleteint64",
      "outputs": [],
      "stateMutability": "nonpayable",
      "type": "function"
    },
    {
      "inputs": [
        {
          "internalType": "bytes32",
          "name": "_key",
          "type": "bytes32"
        }
      ],
      "name": "deleteint128",
      "outputs": [],
      "stateMutability": "nonpayable",
      "type": "function"
    },
    {
      "inputs": [
        {
          "internalType": "bytes32",
          "name": "_key",
          "type": "bytes32"
        }
      ],
      "name": "deleteint",
      "outputs": [],
      "stateMutability": "nonpayable",
      "type": "function"
    },
    {
      "inputs": [
        {
          "internalType": "bytes32",
          "name": "_key",
          "type": "bytes32"
        }
      ],
      "name": "deleteBytes1",
      "outputs": [],
      "stateMutability": "nonpayable",
      "type": "function"
    },
    {
      "inputs": [
        {
          "internalType": "bytes32",
          "name": "_key",
          "type": "bytes32"
        }
      ],
      "name": "deleteBytes2",
      "outputs": [],
      "stateMutability": "nonpayable",
      "type": "function"
    },
    {
      "inputs": [
        {
          "internalType": "bytes32",
          "name": "_key",
          "type": "bytes32"
        }
      ],
      "name": "deleteBytes4",
      "outputs": [],
      "stateMutability": "nonpayable",
      "type": "function"
    },
    {
      "inputs": [
        {
          "internalType": "bytes32",
          "name": "_key",
          "type": "bytes32"
        }
      ],
      "name": "deleteBytes8",
      "outputs": [],
      "stateMutability": "nonpayable",
      "type": "function"
    },
    {
      "inputs": [
        {
          "internalType": "bytes32",
          "name": "_key",
          "type": "bytes32"
        }
      ],
      "name": "deleteBytes16",
      "outputs": [],
      "stateMutability": "nonpayable",
      "type": "function"
    },
    {
      "inputs": [
        {
          "internalType": "bytes32",
          "name": "_key",
          "type": "bytes32"
        }
      ],
      "name": "deleteBytes20",
      "outputs": [],
      "stateMutability": "nonpayable",
      "type": "function"
    },
    {
      "inputs": [
        {
          "internalType": "bytes32",
          "name": "_key",
          "type": "bytes32"
        }
      ],
      "name": "deleteBytes32",
      "outputs": [],
      "stateMutability": "nonpayable",
      "type": "function"
    },
    {
      "inputs": [
        {
          "internalType": "bytes32",
          "name": "_key",
          "type": "bytes32"
        }
      ],
      "name": "deleteBytes",
      "outputs": [],
      "stateMutability": "nonpayable",
      "type": "function"
    },
    {
      "inputs": [
        {
          "internalType": "uint256",
          "name": "_from",
          "type": "uint256"
        },
        {
          "internalType": "uint256",
          "name": "_to",
          "type": "uint256"
        }
      ],
      "name": "getKeysListAddress",
      "outputs": [
        {
          "internalType": "bytes32[]",
          "name": "keysList_",
          "type": "bytes32[]"
        }
      ],
      "stateMutability": "view",
      "type": "function"
    },
    {
      "inputs": [
        {
          "internalType": "uint256",
          "name": "_from",
          "type": "uint256"
        },
        {
          "internalType": "uint256",
          "name": "_to",
          "type": "uint256"
        }
      ],
      "name": "getKeysListString",
      "outputs": [
        {
          "internalType": "bytes32[]",
          "name": "keysList_",
          "type": "bytes32[]"
        }
      ],
      "stateMutability": "view",
      "type": "function"
    },
    {
      "inputs": [
        {
          "internalType": "uint256",
          "name": "_from",
          "type": "uint256"
        },
        {
          "internalType": "uint256",
          "name": "_to",
          "type": "uint256"
        }
      ],
      "name": "getKeysListBool",
      "outputs": [
        {
          "internalType": "bytes32[]",
          "name": "keysList_",
          "type": "bytes32[]"
        }
      ],
      "stateMutability": "view",
      "type": "function"
    },
    {
      "inputs": [
        {
          "internalType": "uint256",
          "name": "_from",
          "type": "uint256"
        },
        {
          "internalType": "uint256",
          "name": "_to",
          "type": "uint256"
        }
      ],
      "name": "getKeysListUint8",
      "outputs": [
        {
          "internalType": "bytes32[]",
          "name": "keysList_",
          "type": "bytes32[]"
        }
      ],
      "stateMutability": "view",
      "type": "function"
    },
    {
      "inputs": [
        {
          "internalType": "uint256",
          "name": "_from",
          "type": "uint256"
        },
        {
          "internalType": "uint256",
          "name": "_to",
          "type": "uint256"
        }
      ],
      "name": "getKeysListUint16",
      "outputs": [
        {
          "internalType": "bytes32[]",
          "name": "keysList_",
          "type": "bytes32[]"
        }
      ],
      "stateMutability": "view",
      "type": "function"
    },
    {
      "inputs": [
        {
          "internalType": "uint256",
          "name": "_from",
          "type": "uint256"
        },
        {
          "internalType": "uint256",
          "name": "_to",
          "type": "uint256"
        }
      ],
      "name": "getKeysListUint32",
      "outputs": [
        {
          "internalType": "bytes32[]",
          "name": "keysList_",
          "type": "bytes32[]"
        }
      ],
      "stateMutability": "view",
      "type": "function"
    },
    {
      "inputs": [
        {
          "internalType": "uint256",
          "name": "_from",
          "type": "uint256"
        },
        {
          "internalType": "uint256",
          "name": "_to",
          "type": "uint256"
        }
      ],
      "name": "getKeysListUint64",
      "outputs": [
        {
          "internalType": "bytes32[]",
          "name": "keysList_",
          "type": "bytes32[]"
        }
      ],
      "stateMutability": "view",
      "type": "function"
    },
    {
      "inputs": [
        {
          "internalType": "uint256",
          "name": "_from",
          "type": "uint256"
        },
        {
          "internalType": "uint256",
          "name": "_to",
          "type": "uint256"
        }
      ],
      "name": "getKeysListUint128",
      "outputs": [
        {
          "internalType": "bytes32[]",
          "name": "keysList_",
          "type": "bytes32[]"
        }
      ],
      "stateMutability": "view",
      "type": "function"
    },
    {
      "inputs": [
        {
          "internalType": "uint256",
          "name": "_from",
          "type": "uint256"
        },
        {
          "internalType": "uint256",
          "name": "_to",
          "type": "uint256"
        }
      ],
      "name": "getKeysListUint",
      "outputs": [
        {
          "internalType": "bytes32[]",
          "name": "keysList_",
          "type": "bytes32[]"
        }
      ],
      "stateMutability": "view",
      "type": "function"
    },
    {
      "inputs": [
        {
          "internalType": "uint256",
          "name": "_from",
          "type": "uint256"
        },
        {
          "internalType": "uint256",
          "name": "_to",
          "type": "uint256"
        }
      ],
      "name": "getKeysListInt8",
      "outputs": [
        {
          "internalType": "bytes32[]",
          "name": "keysList_",
          "type": "bytes32[]"
        }
      ],
      "stateMutability": "view",
      "type": "function"
    },
    {
      "inputs": [
        {
          "internalType": "uint256",
          "name": "_from",
          "type": "uint256"
        },
        {
          "internalType": "uint256",
          "name": "_to",
          "type": "uint256"
        }
      ],
      "name": "getKeysListInt16",
      "outputs": [
        {
          "internalType": "bytes32[]",
          "name": "keysList_",
          "type": "bytes32[]"
        }
      ],
      "stateMutability": "view",
      "type": "function"
    },
    {
      "inputs": [
        {
          "internalType": "uint256",
          "name": "_from",
          "type": "uint256"
        },
        {
          "internalType": "uint256",
          "name": "_to",
          "type": "uint256"
        }
      ],
      "name": "getKeysListInt32",
      "outputs": [
        {
          "internalType": "bytes32[]",
          "name": "keysList_",
          "type": "bytes32[]"
        }
      ],
      "stateMutability": "view",
      "type": "function"
    },
    {
      "inputs": [
        {
          "internalType": "uint256",
          "name": "_from",
          "type": "uint256"
        },
        {
          "internalType": "uint256",
          "name": "_to",
          "type": "uint256"
        }
      ],
      "name": "getKeysListInt64",
      "outputs": [
        {
          "internalType": "bytes32[]",
          "name": "keysList_",
          "type": "bytes32[]"
        }
      ],
      "stateMutability": "view",
      "type": "function"
    },
    {
      "inputs": [
        {
          "internalType": "uint256",
          "name": "_from",
          "type": "uint256"
        },
        {
          "internalType": "uint256",
          "name": "_to",
          "type": "uint256"
        }
      ],
      "name": "getKeysListInt128",
      "outputs": [
        {
          "internalType": "bytes32[]",
          "name": "keysList_",
          "type": "bytes32[]"
        }
      ],
      "stateMutability": "view",
      "type": "function"
    },
    {
      "inputs": [
        {
          "internalType": "uint256",
          "name": "_from",
          "type": "uint256"
        },
        {
          "internalType": "uint256",
          "name": "_to",
          "type": "uint256"
        }
      ],
      "name": "getKeysListInt",
      "outputs": [
        {
          "internalType": "bytes32[]",
          "name": "keysList_",
          "type": "bytes32[]"
        }
      ],
      "stateMutability": "view",
      "type": "function"
    },
    {
      "inputs": [
        {
          "internalType": "uint256",
          "name": "_from",
          "type": "uint256"
        },
        {
          "internalType": "uint256",
          "name": "_to",
          "type": "uint256"
        }
      ],
      "name": "getKeysListBytes1",
      "outputs": [
        {
          "internalType": "bytes32[]",
          "name": "keysList_",
          "type": "bytes32[]"
        }
      ],
      "stateMutability": "view",
      "type": "function"
    },
    {
      "inputs": [
        {
          "internalType": "uint256",
          "name": "_from",
          "type": "uint256"
        },
        {
          "internalType": "uint256",
          "name": "_to",
          "type": "uint256"
        }
      ],
      "name": "getKeysListBytes2",
      "outputs": [
        {
          "internalType": "bytes32[]",
          "name": "keysList_",
          "type": "bytes32[]"
        }
      ],
      "stateMutability": "view",
      "type": "function"
    },
    {
      "inputs": [
        {
          "internalType": "uint256",
          "name": "_from",
          "type": "uint256"
        },
        {
          "internalType": "uint256",
          "name": "_to",
          "type": "uint256"
        }
      ],
      "name": "getKeysListBytes4",
      "outputs": [
        {
          "internalType": "bytes32[]",
          "name": "keysList_",
          "type": "bytes32[]"
        }
      ],
      "stateMutability": "view",
      "type": "function"
    },
    {
      "inputs": [
        {
          "internalType": "uint256",
          "name": "_from",
          "type": "uint256"
        },
        {
          "internalType": "uint256",
          "name": "_to",
          "type": "uint256"
        }
      ],
      "name": "getKeysListBytes8",
      "outputs": [
        {
          "internalType": "bytes32[]",
          "name": "keysList_",
          "type": "bytes32[]"
        }
      ],
      "stateMutability": "view",
      "type": "function"
    },
    {
      "inputs": [
        {
          "internalType": "uint256",
          "name": "_from",
          "type": "uint256"
        },
        {
          "internalType": "uint256",
          "name": "_to",
          "type": "uint256"
        }
      ],
      "name": "getKeysListBytes16",
      "outputs": [
        {
          "internalType": "bytes32[]",
          "name": "keysList_",
          "type": "bytes32[]"
        }
      ],
      "stateMutability": "view",
      "type": "function"
    },
    {
      "inputs": [
        {
          "internalType": "uint256",
          "name": "_from",
          "type": "uint256"
        },
        {
          "internalType": "uint256",
          "name": "_to",
          "type": "uint256"
        }
      ],
      "name": "getKeysListBytes20",
      "outputs": [
        {
          "internalType": "bytes32[]",
          "name": "keysList_",
          "type": "bytes32[]"
        }
      ],
      "stateMutability": "view",
      "type": "function"
    },
    {
      "inputs": [
        {
          "internalType": "uint256",
          "name": "_from",
          "type": "uint256"
        },
        {
          "internalType": "uint256",
          "name": "_to",
          "type": "uint256"
        }
      ],
      "name": "getKeysListBytes32",
      "outputs": [
        {
          "internalType": "bytes32[]",
          "name": "keysList_",
          "type": "bytes32[]"
        }
      ],
      "stateMutability": "view",
      "type": "function"
    },
    {
      "inputs": [
        {
          "internalType": "uint256",
          "name": "_from",
          "type": "uint256"
        },
        {
          "internalType": "uint256",
          "name": "_to",
          "type": "uint256"
        }
      ],
      "name": "getKeysListBytes",
      "outputs": [
        {
          "internalType": "bytes32[]",
          "name": "keysList_",
          "type": "bytes32[]"
        }
      ],
      "stateMutability": "view",
      "type": "function"
    }
  ],
  "bytecode": "0x608060405234801562000010575f80fd5b506040516200a8073803806200a8078339818101604052810190620000369190620000e1565b805f806101000a81548173ffffffffffffffffffffffffffffffffffffffff021916908373ffffffffffffffffffffffffffffffffffffffff1602179055505062000111565b5f80fd5b5f73ffffffffffffffffffffffffffffffffffffffff82169050919050565b5f620000ab8262000080565b9050919050565b620000bd816200009f565b8114620000c8575f80fd5b50565b5f81519050620000db81620000b2565b92915050565b5f60208284031215620000f957620000f86200007c565b5b5f6200010884828501620000cb565b91505092915050565b61a6e8806200011f5f395ff3fe608060405234801561000f575f80fd5b5060043610610547575f3560e01c80636cd70085116102c8578063bd02d0f51161018b578063dfaf4760116100f2578063e79f9821116100ab578063f492ace611610085578063f492ace6146112e7578063f4a8034514611317578063f6bb3cc414611347578063faad198e1461136357610547565b8063e79f98211461126b578063ec84fbba14611287578063edf31951146112b757610547565b8063dfaf476014611187578063e2a4853a146111b7578063e2b202bf146111d3578063e4ccf1f7146111ef578063e4d3dcbd1461121f578063e74730a11461124f57610547565b8063c9adb67311610144578063c9adb673146110a3578063ca446dd9146110bf578063d02b9261146110db578063d0a9dfcb146110f7578063d3745e8214611127578063dc97d9621461115757610547565b8063bd02d0f514610f97578063bd5bb17f14610fc7578063c031a18014610ff7578063c074092314611027578063c096873c14611057578063c2a1ce011461107357610547565b80639df15aee1161022f578063a8a54008116101e8578063a8a5400814610eb3578063ab477e9a14610ecf578063abfdcced14610eff578063b58521ac14610f1b578063ba9a36e114610f4b578063bbed460f14610f7b57610547565b80639df15aee14610de3578063a422de3b14610dff578063a4d3ae8714610e1b578063a4f59aee14610e4b578063a6ed563e14610e67578063a873189514610e9757610547565b8063848a2b9d11610281578063848a2b9d14610cd757806388ce8b5914610d075780638b23b40b14610d375780638e62928d14610d67578063986e791a14610d835780639b3ac8b014610db357610547565b80636cd7008514610bf35780636e89955014610c23578063768c2cd314610c3f5780637ae1cfca14610c6f5780637d619d4414610c9f5780638281c05d14610cbb57610547565b80633586c4db116104105780634dbc607d11610377578063616b59f611610330578063616b59f614610b0f578063635dfb8714610b2b57806363db7fee14610b5b57806365f4f49814610b8b57806366f1f08a14610bbb5780636c0a013914610bd757610547565b80634dbc607d14610a675780634e91db0814610a835780635085508714610a9f57806355a640e914610abb5780635701a2bd14610ad75780635af75a4a14610af357610547565b80633f86b1a6116103c95780633f86b1a61461096f578063408943401461098b57806343346d4a146109bb57806343a26d93146109d757806348347e6914610a0757806349696d1414610a3757610547565b80633586c4db1461088b57806336272ed4146108bb5780633da6a41e146108eb5780633e49bed0146109075780633e9cea5e146109235780633f6aaeb71461093f57610547565b806313c291af116104b457806327b31a191161046d57806327b31a19146107cf5780632865f39d146107eb5780632c62ff2d1461081b5780632e28d084146108375780632fb57f0f1461085357806331f45ae41461086f57610547565b806313c291af1461071357806316816ded1461072f5780631a185a411461074b5780631d77667b1461076757806321f8a7211461078357806324e7e097146107b357610547565b806309ceebde1161050657806309ceebde1461062f5780630ac23de71461065f5780630b9adc571461068f5780630e14a376146106ab5780630fc5c724146106c7578063103aeda7146106e357610547565b80628a21a51461054b578062f7c5be14610567578063012938421461058357806302cc37cd146105b357806306765abc146105cf57806308a5edff146105ff575b5f80fd5b61056560048036038101906105609190618dc4565b611393565b005b610581600480360381019061057c9190618e5c565b6114f7565b005b61059d60048036038101906105989190618eba565b611643565b6040516105aa9190618faf565b60405180910390f35b6105cd60048036038101906105c89190618e5c565b6118c7565b005b6105e960048036038101906105e49190618eba565b611996565b6040516105f69190618faf565b60405180910390f35b61061960048036038101906106149190618eba565b611c1a565b6040516106269190618faf565b60405180910390f35b61064960048036038101906106449190618fcf565b611e9e565b6040516106569190619034565b60405180910390f35b61067960048036038101906106749190618fcf565b611ec4565b6040516106869190619067565b60405180910390f35b6106a960048036038101906106a49190618fcf565b611ee9565b005b6106c560048036038101906106c09190618fcf565b611fc3565b005b6106e160048036038101906106dc9190618fcf565b6120bc565b005b6106fd60048036038101906106f89190618e5c565b6121a5565b60405161070a919061909a565b60405180910390f35b61072d600480360381019061072891906190e9565b612228565b005b61074960048036038101906107449190618fcf565b61239a565b005b61076560048036038101906107609190618fcf565b612481565b005b610781600480360381019061077c919061915e565b61256e565b005b61079d60048036038101906107989190618fcf565b6126d1565b6040516107aa91906191ab565b60405180910390f35b6107cd60048036038101906107c891906191fd565b61270a565b005b6107e960048036038101906107e49190619278565b612871565b005b61080560048036038101906108009190618eba565b6129e0565b6040516108129190618faf565b60405180910390f35b61083560048036038101906108309190618fcf565b612c64565b005b610851600480360381019061084c91906193f2565b612d4a565b005b61086d60048036038101906108689190618fcf565b612ea1565b005b61088960048036038101906108849190618fcf565b612f8a565b005b6108a560048036038101906108a09190618eba565b61307f565b6040516108b29190618faf565b60405180910390f35b6108d560048036038101906108d09190618fcf565b613303565b6040516108e29190619486565b60405180910390f35b61090560048036038101906109009190618fcf565b613329565b005b610921600480360381019061091c91906194d2565b613422565b005b61093d60048036038101906109389190619546565b613570565b005b61095960048036038101906109549190618eba565b6136f2565b6040516109669190618faf565b60405180910390f35b61098960048036038101906109849190618fcf565b613976565b005b6109a560048036038101906109a09190618fcf565b613a5f565b6040516109b291906195be565b60405180910390f35b6109d560048036038101906109d09190618fcf565b613a85565b005b6109f160048036038101906109ec9190618fcf565b613b6c565b6040516109fe91906195f2565b60405180910390f35b610a216004803603810190610a1c9190618eba565b613b92565b604051610a2e9190618faf565b60405180910390f35b610a516004803603810190610a4c9190618eba565b613e16565b604051610a5e9190618faf565b60405180910390f35b610a816004803603810190610a7c9190619641565b61409a565b005b610a9d6004803603810190610a98919061967f565b614204565b005b610ab96004803603810190610ab491906196e7565b614352565b005b610ad56004803603810190610ad0919061974f565b6144b8565b005b610af16004803603810190610aec9190618fcf565b61461b565b005b610b0d6004803603810190610b089190618fcf565b614701565b005b610b296004803603810190610b249190618fcf565b6147f6565b005b610b456004803603810190610b409190618eba565b6148d8565b604051610b529190618faf565b60405180910390f35b610b756004803603810190610b709190618eba565b614b5c565b604051610b829190618faf565b60405180910390f35b610ba56004803603810190610ba09190618fcf565b614de0565b604051610bb2919061979c565b60405180910390f35b610bd56004803603810190610bd09190618fcf565b614e07565b005b610bf16004803603810190610bec9190618e5c565b614ef4565b005b610c0d6004803603810190610c089190618eba565b61502e565b604051610c1a9190618faf565b60405180910390f35b610c3d6004803603810190610c389190619853565b6152b2565b005b610c596004803603810190610c549190618eba565b615409565b604051610c669190618faf565b60405180910390f35b610c896004803603810190610c849190618fcf565b61568d565b604051610c96919061909a565b60405180910390f35b610cb96004803603810190610cb49190618fcf565b6156b3565b005b610cd56004803603810190610cd09190618fcf565b61578d565b005b610cf16004803603810190610cec9190618eba565b615873565b604051610cfe9190618faf565b60405180910390f35b610d216004803603810190610d1c9190618eba565b615af7565b604051610d2e9190618faf565b60405180910390f35b610d516004803603810190610d4c9190618fcf565b615d7b565b604051610d5e91906198c8565b60405180910390f35b610d816004803603810190610d7c9190618fcf565b615da1565b005b610d9d6004803603810190610d989190618fcf565b615e88565b604051610daa919061995b565b60405180910390f35b610dcd6004803603810190610dc89190618eba565b615f29565b604051610dda9190618faf565b60405180910390f35b610dfd6004803603810190610df891906199d0565b6161ad565b005b610e196004803603810190610e149190619a53565b616315565b005b610e356004803603810190610e309190618eba565b616494565b604051610e429190618faf565b60405180910390f35b610e656004803603810190610e609190619ae6565b616718565b005b610e816004803603810190610e7c9190618fcf565b61687a565b604051610e8e9190619b33565b60405180910390f35b610eb16004803603810190610eac9190619b76565b616894565b005b610ecd6004803603810190610ec89190618e5c565b616a04565b005b610ee96004803603810190610ee49190618fcf565b616bc7565b604051610ef69190619bc3565b60405180910390f35b610f196004803603810190610f149190619c06565b616bed565b005b610f356004803603810190610f309190618fcf565b616d4d565b604051610f429190619c53565b60405180910390f35b610f656004803603810190610f609190618fcf565b616d7a565b604051610f729190619c7b565b60405180910390f35b610f956004803603810190610f909190619cbe565b616da0565b005b610fb16004803603810190610fac9190618fcf565b616f01565b604051610fbe9190619d0b565b60405180910390f35b610fe16004803603810190610fdc9190618fcf565b616f1b565b604051610fee9190619d33565b60405180910390f35b611011600480360381019061100c9190618fcf565b616f41565b60405161101e9190619d9e565b60405180910390f35b611041600480360381019061103c9190618fcf565b616fe2565b60405161104e9190619dcd565b60405180910390f35b611071600480360381019061106c9190618fcf565b617008565b005b61108d60048036038101906110889190618fcf565b6170fd565b60405161109a9190619df5565b60405180910390f35b6110bd60048036038101906110b89190619e38565b617123565b005b6110d960048036038101906110d49190619e76565b617297565b005b6110f560048036038101906110f09190618fcf565b61741e565b005b611111600480360381019061110c9190618eba565b617504565b60405161111e9190618faf565b60405180910390f35b611141600480360381019061113c9190618eba565b617788565b60405161114e9190618faf565b60405180910390f35b611171600480360381019061116c9190618fcf565b617a0c565b60405161117e9190619ec3565b60405180910390f35b6111a1600480360381019061119c9190618fcf565b617a26565b6040516111ae9190619eeb565b60405180910390f35b6111d160048036038101906111cc9190619f04565b617a5b565b005b6111ed60048036038101906111e89190618fcf565b617ba9565b005b61120960048036038101906112049190618fcf565b617c83565b6040516112169190619f51565b60405180910390f35b61123960048036038101906112349190618eba565b617ca9565b6040516112469190618faf565b60405180910390f35b61126960048036038101906112649190619f94565b617f2d565b005b61128560048036038101906112809190618fcf565b61808e565b005b6112a1600480360381019061129c9190618eba565b61817b565b6040516112ae9190618faf565b60405180910390f35b6112d160048036038101906112cc9190618eba565b6183ff565b6040516112de9190618faf565b60405180910390f35b61130160048036038101906112fc9190618eba565b618683565b60405161130e9190618faf565b60405180910390f35b611331600480360381019061132c9190618fcf565b618907565b60405161133e9190619fe1565b60405180910390f35b611361600480360381019061135c9190618fcf565b618930565b005b61137d60048036038101906113789190618eba565b618a12565b60405161138a9190618faf565b60405180910390f35b3360011515602f5f6040518060400160405280601181526020017f414c4c4f5745445f434f4e545241435453000000000000000000000000000000815250846040516020016113e392919061a079565b6040516020818303038152906040528051906020012081526020019081526020015f205f9054906101000a900460ff16151514611455576040517f08c379a000000000000000000000000000000000000000000000000000000000815260040161144c9061a0ea565b60405180910390fd5b60015f8481526020019081526020015f205f9054906101000a900460ff166114c657601083908060018154018082558091505060019003905f5260205f20015f90919091909150556001805f8581526020019081526020015f205f6101000a81548160ff0219169083151502179055505b8160275f8581526020019081526020015f205f6101000a81548163ffffffff021916908360e01c0217905550505050565b5f8054906101000a900473ffffffffffffffffffffffffffffffffffffffff1673ffffffffffffffffffffffffffffffffffffffff163373ffffffffffffffffffffffffffffffffffffffff1614611584576040517f08c379a000000000000000000000000000000000000000000000000000000000815260040161157b9061a0ea565b60405180910390fd5b5f602f5f6040518060400160405280601181526020017f414c4c4f5745445f434f4e545241435453000000000000000000000000000000815250846040516020016115d092919061a079565b6040516020818303038152906040528051906020012081526020019081526020015f205f6101000a81548160ff0219169083151502179055507fdfa24021cadd2251af44b3619acbcca7bde7ec6430b5323bf1c8d71d97570f818160405161163891906191ab565b60405180910390a150565b6060602e5f6040518060400160405280601181526020017f414c4c4f5745445f434f4e54524143545300000000000000000000000000000081525060405160200161168e919061a108565b6040516020818303038152906040528051906020012081526020019081526020015f205f9054906101000a900473ffffffffffffffffffffffffffffffffffffffff1673ffffffffffffffffffffffffffffffffffffffff163373ffffffffffffffffffffffffffffffffffffffff161461173e576040517f08c379a00000000000000000000000000000000000000000000000000000000081526004016117359061a0ea565b60405180910390fd5b5f60088054905011611785576040517f08c379a000000000000000000000000000000000000000000000000000000000815260040161177c9061a168565b60405180910390fd5b60088054905083106117cc576040517f08c379a00000000000000000000000000000000000000000000000000000000081526004016117c39061a1d0565b60405180910390fd5b5f8290505f841480156117de57505f83145b156117ec5760088054905090505b6008805490508311156118025760088054905090505b838161180e919061a21b565b67ffffffffffffffff811115611827576118266192ce565b5b6040519080825280602002602001820160405280156118555781602001602082028036833780820191505090505b5091505f8490505b818110156118bf57600881815481106118795761187861a24e565b5b905f5260205f20015483868361188f919061a21b565b815181106118a05761189f61a24e565b5b60200260200101818152505080806118b79061a27b565b91505061185d565b505092915050565b5f8054906101000a900473ffffffffffffffffffffffffffffffffffffffff1673ffffffffffffffffffffffffffffffffffffffff163373ffffffffffffffffffffffffffffffffffffffff1614611954576040517f08c379a000000000000000000000000000000000000000000000000000000000815260040161194b9061a0ea565b60405180910390fd5b805f806101000a81548173ffffffffffffffffffffffffffffffffffffffff021916908373ffffffffffffffffffffffffffffffffffffffff16021790555050565b6060602e5f6040518060400160405280601181526020017f414c4c4f5745445f434f4e5452414354530000000000000000000000000000008152506040516020016119e1919061a108565b6040516020818303038152906040528051906020012081526020019081526020015f205f9054906101000a900473ffffffffffffffffffffffffffffffffffffffff1673ffffffffffffffffffffffffffffffffffffffff163373ffffffffffffffffffffffffffffffffffffffff1614611a91576040517f08c379a0000000000000000000000000000000000000000000000000000000008152600401611a889061a0ea565b60405180910390fd5b5f60158054905011611ad8576040517f08c379a0000000000000000000000000000000000000000000000000000000008152600401611acf9061a168565b60405180910390fd5b6015805490508310611b1f576040517f08c379a0000000000000000000000000000000000000000000000000000000008152600401611b169061a1d0565b60405180910390fd5b5f8290505f84148015611b3157505f83145b15611b3f5760158054905090505b601580549050831115611b555760158054905090505b8381611b61919061a21b565b67ffffffffffffffff811115611b7a57611b796192ce565b5b604051908082528060200260200182016040528015611ba85781602001602082028036833780820191505090505b5091505f8490505b81811015611c125760158181548110611bcc57611bcb61a24e565b5b905f5260205f200154838683611be2919061a21b565b81518110611bf357611bf261a24e565b5b6020026020010181815250508080611c0a9061a27b565b915050611bb0565b505092915050565b6060602e5f6040518060400160405280601181526020017f414c4c4f5745445f434f4e545241435453000000000000000000000000000000815250604051602001611c65919061a108565b6040516020818303038152906040528051906020012081526020019081526020015f205f9054906101000a900473ffffffffffffffffffffffffffffffffffffffff1673ffffffffffffffffffffffffffffffffffffffff163373ffffffffffffffffffffffffffffffffffffffff1614611d15576040517f08c379a0000000000000000000000000000000000000000000000000000000008152600401611d0c9061a0ea565b60405180910390fd5b5f600e8054905011611d5c576040517f08c379a0000000000000000000000000000000000000000000000000000000008152600401611d539061a168565b60405180910390fd5b600e805490508310611da3576040517f08c379a0000000000000000000000000000000000000000000000000000000008152600401611d9a9061a1d0565b60405180910390fd5b5f8290505f84148015611db557505f83145b15611dc357600e8054905090505b600e80549050831115611dd957600e8054905090505b8381611de5919061a21b565b67ffffffffffffffff811115611dfe57611dfd6192ce565b5b604051908082528060200260200182016040528015611e2c5781602001602082028036833780820191505090505b5091505f8490505b81811015611e9657600e8181548110611e5057611e4f61a24e565b5b905f5260205f200154838683611e66919061a21b565b81518110611e7757611e7661a24e565b5b6020026020010181815250508080611e8e9061a27b565b915050611e34565b505092915050565b5f602a5f8381526020019081526020015f205f9054906101000a900460601b9050919050565b5f601f5f8381526020019081526020015f205f9054906101000a90045f0b9050919050565b3360011515602f5f6040518060400160405280601181526020017f414c4c4f5745445f434f4e54524143545300000000000000000000000000000081525084604051602001611f3992919061a079565b6040516020818303038152906040528051906020012081526020019081526020015f205f9054906101000a900460ff16151514611fab576040517f08c379a0000000000000000000000000000000000000000000000000000000008152600401611fa29061a0ea565b60405180910390fd5b602b5f8381526020019081526020015f205f90555050565b3360011515602f5f6040518060400160405280601181526020017f414c4c4f5745445f434f4e5452414354530000000000000000000000000000008152508460405160200161201392919061a079565b6040516020818303038152906040528051906020012081526020019081526020015f205f9054906101000a900460ff16151514612085576040517f08c379a000000000000000000000000000000000000000000000000000000000815260040161207c9061a0ea565b60405180910390fd5b602e5f8381526020019081526020015f205f6101000a81549073ffffffffffffffffffffffffffffffffffffffff02191690555050565b3360011515602f5f6040518060400160405280601181526020017f414c4c4f5745445f434f4e5452414354530000000000000000000000000000008152508460405160200161210c92919061a079565b6040516020818303038152906040528051906020012081526020019081526020015f205f9054906101000a900460ff1615151461217e576040517f08c379a00000000000000000000000000000000000000000000000000000000081526004016121759061a0ea565b60405180910390fd5b601b5f8381526020019081526020015f205f6101000a81549063ffffffff02191690555050565b5f602f5f6040518060400160405280601181526020017f414c4c4f5745445f434f4e545241435453000000000000000000000000000000815250846040516020016121f192919061a079565b6040516020818303038152906040528051906020012081526020019081526020015f205f9054906101000a900460ff169050919050565b3360011515602f5f6040518060400160405280601181526020017f414c4c4f5745445f434f4e5452414354530000000000000000000000000000008152508460405160200161227892919061a079565b6040516020818303038152906040528051906020012081526020019081526020015f205f9054906101000a900460ff161515146122ea576040517f08c379a00000000000000000000000000000000000000000000000000000000081526004016122e19061a0ea565b60405180910390fd5b60015f8481526020019081526020015f205f9054906101000a900460ff1661235b57600b83908060018154018082558091505060019003905f5260205f20015f90919091909150556001805f8581526020019081526020015f205f6101000a81548160ff0219169083151502179055505b8160225f8581526020019081526020015f205f6101000a81548167ffffffffffffffff021916908360070b67ffffffffffffffff160217905550505050565b3360011515602f5f6040518060400160405280601181526020017f414c4c4f5745445f434f4e545241435453000000000000000000000000000000815250846040516020016123ea92919061a079565b6040516020818303038152906040528051906020012081526020019081526020015f205f9054906101000a900460ff1615151461245c576040517f08c379a00000000000000000000000000000000000000000000000000000000081526004016124539061a0ea565b60405180910390fd5b601a5f8381526020019081526020015f205f6101000a81549061ffff02191690555050565b3360011515602f5f6040518060400160405280601181526020017f414c4c4f5745445f434f4e545241435453000000000000000000000000000000815250846040516020016124d192919061a079565b6040516020818303038152906040528051906020012081526020019081526020015f205f9054906101000a900460ff16151514612543576040517f08c379a000000000000000000000000000000000000000000000000000000000815260040161253a9061a0ea565b60405180910390fd5b60225f8381526020019081526020015f205f6101000a81549067ffffffffffffffff02191690555050565b3360011515602f5f6040518060400160405280601181526020017f414c4c4f5745445f434f4e545241435453000000000000000000000000000000815250846040516020016125be92919061a079565b6040516020818303038152906040528051906020012081526020019081526020015f205f9054906101000a900460ff16151514612630576040517f08c379a00000000000000000000000000000000000000000000000000000000081526004016126279061a0ea565b60405180910390fd5b60015f8481526020019081526020015f205f9054906101000a900460ff166126a157600383908060018154018082558091505060019003905f5260205f20015f90919091909150556001805f8581526020019081526020015f205f6101000a81548160ff0219169083151502179055505b81601a5f8581526020019081526020015f205f6101000a81548161ffff021916908361ffff160217905550505050565b5f602e5f8381526020019081526020015f205f9054906101000a900473ffffffffffffffffffffffffffffffffffffffff169050919050565b3360011515602f5f6040518060400160405280601181526020017f414c4c4f5745445f434f4e5452414354530000000000000000000000000000008152508460405160200161275a92919061a079565b6040516020818303038152906040528051906020012081526020019081526020015f205f9054906101000a900460ff161515146127cc576040517f08c379a00000000000000000000000000000000000000000000000000000000081526004016127c39061a0ea565b60405180910390fd5b60015f8481526020019081526020015f205f9054906101000a900460ff1661283d57600483908060018154018082558091505060019003905f5260205f20015f90919091909150556001805f8581526020019081526020015f205f6101000a81548160ff0219169083151502179055505b81601b5f8581526020019081526020015f205f6101000a81548163ffffffff021916908363ffffffff160217905550505050565b3360011515602f5f6040518060400160405280601181526020017f414c4c4f5745445f434f4e545241435453000000000000000000000000000000815250846040516020016128c192919061a079565b6040516020818303038152906040528051906020012081526020019081526020015f205f9054906101000a900460ff16151514612933576040517f08c379a000000000000000000000000000000000000000000000000000000000815260040161292a9061a0ea565b60405180910390fd5b60015f8481526020019081526020015f205f9054906101000a900460ff166129a457600583908060018154018082558091505060019003905f5260205f20015f90919091909150556001805f8581526020019081526020015f205f6101000a81548160ff0219169083151502179055505b81601c5f8581526020019081526020015f205f6101000a81548167ffffffffffffffff021916908367ffffffffffffffff160217905550505050565b6060602e5f6040518060400160405280601181526020017f414c4c4f5745445f434f4e545241435453000000000000000000000000000000815250604051602001612a2b919061a108565b6040516020818303038152906040528051906020012081526020019081526020015f205f9054906101000a900473ffffffffffffffffffffffffffffffffffffffff1673ffffffffffffffffffffffffffffffffffffffff163373ffffffffffffffffffffffffffffffffffffffff1614612adb576040517f08c379a0000000000000000000000000000000000000000000000000000000008152600401612ad29061a0ea565b60405180910390fd5b5f600f8054905011612b22576040517f08c379a0000000000000000000000000000000000000000000000000000000008152600401612b199061a168565b60405180910390fd5b600f805490508310612b69576040517f08c379a0000000000000000000000000000000000000000000000000000000008152600401612b609061a1d0565b60405180910390fd5b5f8290505f84148015612b7b57505f83145b15612b8957600f8054905090505b600f80549050831115612b9f57600f8054905090505b8381612bab919061a21b565b67ffffffffffffffff811115612bc457612bc36192ce565b5b604051908082528060200260200182016040528015612bf25781602001602082028036833780820191505090505b5091505f8490505b81811015612c5c57600f8181548110612c1657612c1561a24e565b5b905f5260205f200154838683612c2c919061a21b565b81518110612c3d57612c3c61a24e565b5b6020026020010181815250508080612c549061a27b565b915050612bfa565b505092915050565b3360011515602f5f6040518060400160405280601181526020017f414c4c4f5745445f434f4e54524143545300000000000000000000000000000081525084604051602001612cb492919061a079565b6040516020818303038152906040528051906020012081526020019081526020015f205f9054906101000a900460ff16151514612d26576040517f08c379a0000000000000000000000000000000000000000000000000000000008152600401612d1d9061a0ea565b60405180910390fd5b602f5f8381526020019081526020015f205f6101000a81549060ff02191690555050565b3360011515602f5f6040518060400160405280601181526020017f414c4c4f5745445f434f4e54524143545300000000000000000000000000000081525084604051602001612d9a92919061a079565b6040516020818303038152906040528051906020012081526020019081526020015f205f9054906101000a900460ff16151514612e0c576040517f08c379a0000000000000000000000000000000000000000000000000000000008152600401612e039061a0ea565b60405180910390fd5b60015f8481526020019081526020015f205f9054906101000a900460ff16612e7d57601583908060018154018082558091505060019003905f5260205f20015f90919091909150556001805f8581526020019081526020015f205f6101000a81548160ff0219169083151502179055505b81602c5f8581526020019081526020015f209081612e9b919061a4bc565b50505050565b3360011515602f5f6040518060400160405280601181526020017f414c4c4f5745445f434f4e54524143545300000000000000000000000000000081525084604051602001612ef192919061a079565b6040516020818303038152906040528051906020012081526020019081526020015f205f9054906101000a900460ff16151514612f63576040517f08c379a0000000000000000000000000000000000000000000000000000000008152600401612f5a9061a0ea565b60405180910390fd5b60215f8381526020019081526020015f205f6101000a81549063ffffffff02191690555050565b3360011515602f5f6040518060400160405280601181526020017f414c4c4f5745445f434f4e54524143545300000000000000000000000000000081525084604051602001612fda92919061a079565b6040516020818303038152906040528051906020012081526020019081526020015f205f9054906101000a900460ff1615151461304c576040517f08c379a00000000000000000000000000000000000000000000000000000000081526004016130439061a0ea565b60405180910390fd5b60235f8381526020019081526020015f205f6101000a8154906fffffffffffffffffffffffffffffffff02191690555050565b6060602e5f6040518060400160405280601181526020017f414c4c4f5745445f434f4e5452414354530000000000000000000000000000008152506040516020016130ca919061a108565b6040516020818303038152906040528051906020012081526020019081526020015f205f9054906101000a900473ffffffffffffffffffffffffffffffffffffffff1673ffffffffffffffffffffffffffffffffffffffff163373ffffffffffffffffffffffffffffffffffffffff161461317a576040517f08c379a00000000000000000000000000000000000000000000000000000000081526004016131719061a0ea565b60405180910390fd5b5f600d80549050116131c1576040517f08c379a00000000000000000000000000000000000000000000000000000000081526004016131b89061a168565b60405180910390fd5b600d805490508310613208576040517f08c379a00000000000000000000000000000000000000000000000000000000081526004016131ff9061a1d0565b60405180910390fd5b5f8290505f8414801561321a57505f83145b1561322857600d8054905090505b600d8054905083111561323e57600d8054905090505b838161324a919061a21b565b67ffffffffffffffff811115613263576132626192ce565b5b6040519080825280602002602001820160405280156132915781602001602082028036833780820191505090505b5091505f8490505b818110156132fb57600d81815481106132b5576132b461a24e565b5b905f5260205f2001548386836132cb919061a21b565b815181106132dc576132db61a24e565b5b60200260200101818152505080806132f39061a27b565b915050613299565b505092915050565b5f60255f8381526020019081526020015f205f9054906101000a900460f81b9050919050565b3360011515602f5f6040518060400160405280601181526020017f414c4c4f5745445f434f4e5452414354530000000000000000000000000000008152508460405160200161337992919061a079565b6040516020818303038152906040528051906020012081526020019081526020015f205f9054906101000a900460ff161515146133eb576040517f08c379a00000000000000000000000000000000000000000000000000000000081526004016133e29061a0ea565b60405180910390fd5b602a5f8381526020019081526020015f205f6101000a81549073ffffffffffffffffffffffffffffffffffffffff02191690555050565b3360011515602f5f6040518060400160405280601181526020017f414c4c4f5745445f434f4e5452414354530000000000000000000000000000008152508460405160200161347292919061a079565b6040516020818303038152906040528051906020012081526020019081526020015f205f9054906101000a900460ff161515146134e4576040517f08c379a00000000000000000000000000000000000000000000000000000000081526004016134db9061a0ea565b60405180910390fd5b60015f8481526020019081526020015f205f9054906101000a900460ff1661355557600d83908060018154018082558091505060019003905f5260205f20015f90919091909150556001805f8581526020019081526020015f205f6101000a81548160ff0219169083151502179055505b8160245f8581526020019081526020015f2081905550505050565b3360011515602f5f6040518060400160405280601181526020017f414c4c4f5745445f434f4e545241435453000000000000000000000000000000815250846040516020016135c092919061a079565b6040516020818303038152906040528051906020012081526020019081526020015f205f9054906101000a900460ff16151514613632576040517f08c379a00000000000000000000000000000000000000000000000000000000081526004016136299061a0ea565b60405180910390fd5b60015f8481526020019081526020015f205f9054906101000a900460ff166136a357600c83908060018154018082558091505060019003905f5260205f20015f90919091909150556001805f8581526020019081526020015f205f6101000a81548160ff0219169083151502179055505b8160235f8581526020019081526020015f205f6101000a8154816fffffffffffffffffffffffffffffffff0219169083600f0b6fffffffffffffffffffffffffffffffff160217905550505050565b6060602e5f6040518060400160405280601181526020017f414c4c4f5745445f434f4e54524143545300000000000000000000000000000081525060405160200161373d919061a108565b6040516020818303038152906040528051906020012081526020019081526020015f205f9054906101000a900473ffffffffffffffffffffffffffffffffffffffff1673ffffffffffffffffffffffffffffffffffffffff163373ffffffffffffffffffffffffffffffffffffffff16146137ed576040517f08c379a00000000000000000000000000000000000000000000000000000000081526004016137e49061a0ea565b60405180910390fd5b5f60078054905011613834576040517f08c379a000000000000000000000000000000000000000000000000000000000815260040161382b9061a168565b60405180910390fd5b600780549050831061387b576040517f08c379a00000000000000000000000000000000000000000000000000000000081526004016138729061a1d0565b60405180910390fd5b5f8290505f8414801561388d57505f83145b1561389b5760078054905090505b6007805490508311156138b15760078054905090505b83816138bd919061a21b565b67ffffffffffffffff8111156138d6576138d56192ce565b5b6040519080825280602002602001820160405280156139045781602001602082028036833780820191505090505b5091505f8490505b8181101561396e57600781815481106139285761392761a24e565b5b905f5260205f20015483868361393e919061a21b565b8151811061394f5761394e61a24e565b5b60200260200101818152505080806139669061a27b565b91505061390c565b505092915050565b3360011515602f5f6040518060400160405280601181526020017f414c4c4f5745445f434f4e545241435453000000000000000000000000000000815250846040516020016139c692919061a079565b6040516020818303038152906040528051906020012081526020019081526020015f205f9054906101000a900460ff16151514613a38576040517f08c379a0000000000000000000000000000000000000000000000000000000008152600401613a2f9061a0ea565b60405180910390fd5b60275f8381526020019081526020015f205f6101000a81549063ffffffff02191690555050565b5f60295f8381526020019081526020015f205f9054906101000a900460801b9050919050565b3360011515602f5f6040518060400160405280601181526020017f414c4c4f5745445f434f4e54524143545300000000000000000000000000000081525084604051602001613ad592919061a079565b6040516020818303038152906040528051906020012081526020019081526020015f205f9054906101000a900460ff16151514613b47576040517f08c379a0000000000000000000000000000000000000000000000000000000008152600401613b3e9061a0ea565b60405180910390fd5b60265f8381526020019081526020015f205f6101000a81549061ffff02191690555050565b5f60205f8381526020019081526020015f205f9054906101000a900460010b9050919050565b6060602e5f6040518060400160405280601181526020017f414c4c4f5745445f434f4e545241435453000000000000000000000000000000815250604051602001613bdd919061a108565b6040516020818303038152906040528051906020012081526020019081526020015f205f9054906101000a900473ffffffffffffffffffffffffffffffffffffffff1673ffffffffffffffffffffffffffffffffffffffff163373ffffffffffffffffffffffffffffffffffffffff1614613c8d576040517f08c379a0000000000000000000000000000000000000000000000000000000008152600401613c849061a0ea565b60405180910390fd5b5f60108054905011613cd4576040517f08c379a0000000000000000000000000000000000000000000000000000000008152600401613ccb9061a168565b60405180910390fd5b6010805490508310613d1b576040517f08c379a0000000000000000000000000000000000000000000000000000000008152600401613d129061a1d0565b60405180910390fd5b5f8290505f84148015613d2d57505f83145b15613d3b5760108054905090505b601080549050831115613d515760108054905090505b8381613d5d919061a21b565b67ffffffffffffffff811115613d7657613d756192ce565b5b604051908082528060200260200182016040528015613da45781602001602082028036833780820191505090505b5091505f8490505b81811015613e0e5760108181548110613dc857613dc761a24e565b5b905f5260205f200154838683613dde919061a21b565b81518110613def57613dee61a24e565b5b6020026020010181815250508080613e069061a27b565b915050613dac565b505092915050565b6060602e5f6040518060400160405280601181526020017f414c4c4f5745445f434f4e545241435453000000000000000000000000000000815250604051602001613e61919061a108565b6040516020818303038152906040528051906020012081526020019081526020015f205f9054906101000a900473ffffffffffffffffffffffffffffffffffffffff1673ffffffffffffffffffffffffffffffffffffffff163373ffffffffffffffffffffffffffffffffffffffff1614613f11576040517f08c379a0000000000000000000000000000000000000000000000000000000008152600401613f089061a0ea565b60405180910390fd5b5f60068054905011613f58576040517f08c379a0000000000000000000000000000000000000000000000000000000008152600401613f4f9061a168565b60405180910390fd5b6006805490508310613f9f576040517f08c379a0000000000000000000000000000000000000000000000000000000008152600401613f969061a1d0565b60405180910390fd5b5f8290505f84148015613fb157505f83145b15613fbf5760068054905090505b600680549050831115613fd55760068054905090505b8381613fe1919061a21b565b67ffffffffffffffff811115613ffa57613ff96192ce565b5b6040519080825280602002602001820160405280156140285781602001602082028036833780820191505090505b5091505f8490505b81811015614092576006818154811061404c5761404b61a24e565b5b905f5260205f200154838683614062919061a21b565b815181106140735761407261a24e565b5b602002602001018181525050808061408a9061a27b565b915050614030565b505092915050565b3360011515602f5f6040518060400160405280601181526020017f414c4c4f5745445f434f4e545241435453000000000000000000000000000000815250846040516020016140ea92919061a079565b6040516020818303038152906040528051906020012081526020019081526020015f205f9054906101000a900460ff1615151461415c576040517f08c379a00000000000000000000000000000000000000000000000000000000081526004016141539061a0ea565b60405180910390fd5b60015f8481526020019081526020015f205f9054906101000a900460ff166141cd57600a83908060018154018082558091505060019003905f5260205f20015f90919091909150556001805f8581526020019081526020015f205f6101000a81548160ff0219169083151502179055505b8160215f8581526020019081526020015f205f6101000a81548163ffffffff021916908360030b63ffffffff160217905550505050565b3360011515602f5f6040518060400160405280601181526020017f414c4c4f5745445f434f4e5452414354530000000000000000000000000000008152508460405160200161425492919061a079565b6040516020818303038152906040528051906020012081526020019081526020015f205f9054906101000a900460ff161515146142c6576040517f08c379a00000000000000000000000000000000000000000000000000000000081526004016142bd9061a0ea565b60405180910390fd5b60015f8481526020019081526020015f205f9054906101000a900460ff1661433757601483908060018154018082558091505060019003905f5260205f20015f90919091909150556001805f8581526020019081526020015f205f6101000a81548160ff0219169083151502179055505b81602b5f8581526020019081526020015f2081905550505050565b3360011515602f5f6040518060400160405280601181526020017f414c4c4f5745445f434f4e545241435453000000000000000000000000000000815250846040516020016143a292919061a079565b6040516020818303038152906040528051906020012081526020019081526020015f205f9054906101000a900460ff16151514614414576040517f08c379a000000000000000000000000000000000000000000000000000000000815260040161440b9061a0ea565b60405180910390fd5b60015f8481526020019081526020015f205f9054906101000a900460ff1661448557600983908060018154018082558091505060019003905f5260205f20015f90919091909150556001805f8581526020019081526020015f205f6101000a81548160ff0219169083151502179055505b8160205f8581526020019081526020015f205f6101000a81548161ffff021916908360010b61ffff160217905550505050565b3360011515602f5f6040518060400160405280601181526020017f414c4c4f5745445f434f4e5452414354530000000000000000000000000000008152508460405160200161450892919061a079565b6040516020818303038152906040528051906020012081526020019081526020015f205f9054906101000a900460ff1615151461457a576040517f08c379a00000000000000000000000000000000000000000000000000000000081526004016145719061a0ea565b60405180910390fd5b60015f8481526020019081526020015f205f9054906101000a900460ff166145eb57600883908060018154018082558091505060019003905f5260205f20015f90919091909150556001805f8581526020019081526020015f205f6101000a81548160ff0219169083151502179055505b81601f5f8581526020019081526020015f205f6101000a81548160ff02191690835f0b60ff160217905550505050565b3360011515602f5f6040518060400160405280601181526020017f414c4c4f5745445f434f4e5452414354530000000000000000000000000000008152508460405160200161466b92919061a079565b6040516020818303038152906040528051906020012081526020019081526020015f205f9054906101000a900460ff161515146146dd576040517f08c379a00000000000000000000000000000000000000000000000000000000081526004016146d49061a0ea565b60405180910390fd5b60195f8381526020019081526020015f205f6101000a81549060ff02191690555050565b3360011515602f5f6040518060400160405280601181526020017f414c4c4f5745445f434f4e5452414354530000000000000000000000000000008152508460405160200161475192919061a079565b6040516020818303038152906040528051906020012081526020019081526020015f205f9054906101000a900460ff161515146147c3576040517f08c379a00000000000000000000000000000000000000000000000000000000081526004016147ba9061a0ea565b60405180910390fd5b60295f8381526020019081526020015f205f6101000a8154906fffffffffffffffffffffffffffffffff02191690555050565b3360011515602f5f6040518060400160405280601181526020017f414c4c4f5745445f434f4e5452414354530000000000000000000000000000008152508460405160200161484692919061a079565b6040516020818303038152906040528051906020012081526020019081526020015f205f9054906101000a900460ff161515146148b8576040517f08c379a00000000000000000000000000000000000000000000000000000000081526004016148af9061a0ea565b60405180910390fd5b602c5f8381526020019081526020015f205f6148d49190618c96565b5050565b6060602e5f6040518060400160405280601181526020017f414c4c4f5745445f434f4e545241435453000000000000000000000000000000815250604051602001614923919061a108565b6040516020818303038152906040528051906020012081526020019081526020015f205f9054906101000a900473ffffffffffffffffffffffffffffffffffffffff1673ffffffffffffffffffffffffffffffffffffffff163373ffffffffffffffffffffffffffffffffffffffff16146149d3576040517f08c379a00000000000000000000000000000000000000000000000000000000081526004016149ca9061a0ea565b60405180910390fd5b5f600b8054905011614a1a576040517f08c379a0000000000000000000000000000000000000000000000000000000008152600401614a119061a168565b60405180910390fd5b600b805490508310614a61576040517f08c379a0000000000000000000000000000000000000000000000000000000008152600401614a589061a1d0565b60405180910390fd5b5f8290505f84148015614a7357505f83145b15614a8157600b8054905090505b600b80549050831115614a9757600b8054905090505b8381614aa3919061a21b565b67ffffffffffffffff811115614abc57614abb6192ce565b5b604051908082528060200260200182016040528015614aea5781602001602082028036833780820191505090505b5091505f8490505b81811015614b5457600b8181548110614b0e57614b0d61a24e565b5b905f5260205f200154838683614b24919061a21b565b81518110614b3557614b3461a24e565b5b6020026020010181815250508080614b4c9061a27b565b915050614af2565b505092915050565b6060602e5f6040518060400160405280601181526020017f414c4c4f5745445f434f4e545241435453000000000000000000000000000000815250604051602001614ba7919061a108565b6040516020818303038152906040528051906020012081526020019081526020015f205f9054906101000a900473ffffffffffffffffffffffffffffffffffffffff1673ffffffffffffffffffffffffffffffffffffffff163373ffffffffffffffffffffffffffffffffffffffff1614614c57576040517f08c379a0000000000000000000000000000000000000000000000000000000008152600401614c4e9061a0ea565b60405180910390fd5b5f60188054905011614c9e576040517f08c379a0000000000000000000000000000000000000000000000000000000008152600401614c959061a168565b60405180910390fd5b6018805490508310614ce5576040517f08c379a0000000000000000000000000000000000000000000000000000000008152600401614cdc9061a1d0565b60405180910390fd5b5f8290505f84148015614cf757505f83145b15614d055760188054905090505b601880549050831115614d1b5760188054905090505b8381614d27919061a21b565b67ffffffffffffffff811115614d4057614d3f6192ce565b5b604051908082528060200260200182016040528015614d6e5781602001602082028036833780820191505090505b5091505f8490505b81811015614dd85760188181548110614d9257614d9161a24e565b5b905f5260205f200154838683614da8919061a21b565b81518110614db957614db861a24e565b5b6020026020010181815250508080614dd09061a27b565b915050614d76565b505092915050565b5f601a5f8381526020019081526020015f205f9054906101000a900461ffff169050919050565b3360011515602f5f6040518060400160405280601181526020017f414c4c4f5745445f434f4e54524143545300000000000000000000000000000081525084604051602001614e5792919061a079565b6040516020818303038152906040528051906020012081526020019081526020015f205f9054906101000a900460ff16151514614ec9576040517f08c379a0000000000000000000000000000000000000000000000000000000008152600401614ec09061a0ea565b60405180910390fd5b60285f8381526020019081526020015f205f6101000a81549067ffffffffffffffff02191690555050565b5f8054906101000a900473ffffffffffffffffffffffffffffffffffffffff1673ffffffffffffffffffffffffffffffffffffffff163373ffffffffffffffffffffffffffffffffffffffff1614614f81576040517f08c379a0000000000000000000000000000000000000000000000000000000008152600401614f789061a0ea565b60405180910390fd5b80602e5f6040518060400160405280601181526020017f414c4c4f5745445f434f4e545241435453000000000000000000000000000000815250604051602001614fcb919061a108565b6040516020818303038152906040528051906020012081526020019081526020015f205f6101000a81548173ffffffffffffffffffffffffffffffffffffffff021916908373ffffffffffffffffffffffffffffffffffffffff16021790555050565b6060602e5f6040518060400160405280601181526020017f414c4c4f5745445f434f4e545241435453000000000000000000000000000000815250604051602001615079919061a108565b6040516020818303038152906040528051906020012081526020019081526020015f205f9054906101000a900473ffffffffffffffffffffffffffffffffffffffff1673ffffffffffffffffffffffffffffffffffffffff163373ffffffffffffffffffffffffffffffffffffffff1614615129576040517f08c379a00000000000000000000000000000000000000000000000000000000081526004016151209061a0ea565b60405180910390fd5b5f60098054905011615170576040517f08c379a00000000000000000000000000000000000000000000000000000000081526004016151679061a168565b60405180910390fd5b60098054905083106151b7576040517f08c379a00000000000000000000000000000000000000000000000000000000081526004016151ae9061a1d0565b60405180910390fd5b5f8290505f841480156151c957505f83145b156151d75760098054905090505b6009805490508311156151ed5760098054905090505b83816151f9919061a21b565b67ffffffffffffffff811115615212576152116192ce565b5b6040519080825280602002602001820160405280156152405781602001602082028036833780820191505090505b5091505f8490505b818110156152aa57600981815481106152645761526361a24e565b5b905f5260205f20015483868361527a919061a21b565b8151811061528b5761528a61a24e565b5b60200260200101818152505080806152a29061a27b565b915050615248565b505092915050565b3360011515602f5f6040518060400160405280601181526020017f414c4c4f5745445f434f4e5452414354530000000000000000000000000000008152508460405160200161530292919061a079565b6040516020818303038152906040528051906020012081526020019081526020015f205f9054906101000a900460ff16151514615374576040517f08c379a000000000000000000000000000000000000000000000000000000000815260040161536b9061a0ea565b60405180910390fd5b60015f8481526020019081526020015f205f9054906101000a900460ff166153e557601683908060018154018082558091505060019003905f5260205f20015f90919091909150556001805f8581526020019081526020015f205f6101000a81548160ff0219169083151502179055505b81602d5f8581526020019081526020015f209081615403919061a5e3565b50505050565b6060602e5f6040518060400160405280601181526020017f414c4c4f5745445f434f4e545241435453000000000000000000000000000000815250604051602001615454919061a108565b6040516020818303038152906040528051906020012081526020019081526020015f205f9054906101000a900473ffffffffffffffffffffffffffffffffffffffff1673ffffffffffffffffffffffffffffffffffffffff163373ffffffffffffffffffffffffffffffffffffffff1614615504576040517f08c379a00000000000000000000000000000000000000000000000000000000081526004016154fb9061a0ea565b60405180910390fd5b5f6003805490501161554b576040517f08c379a00000000000000000000000000000000000000000000000000000000081526004016155429061a168565b60405180910390fd5b6003805490508310615592576040517f08c379a00000000000000000000000000000000000000000000000000000000081526004016155899061a1d0565b60405180910390fd5b5f8290505f841480156155a457505f83145b156155b25760038054905090505b6003805490508311156155c85760038054905090505b83816155d4919061a21b565b67ffffffffffffffff8111156155ed576155ec6192ce565b5b60405190808252806020026020018201604052801561561b5781602001602082028036833780820191505090505b5091505f8490505b81811015615685576003818154811061563f5761563e61a24e565b5b905f5260205f200154838683615655919061a21b565b815181106156665761566561a24e565b5b602002602001018181525050808061567d9061a27b565b915050615623565b505092915050565b5f602f5f8381526020019081526020015f205f9054906101000a900460ff169050919050565b3360011515602f5f6040518060400160405280601181526020017f414c4c4f5745445f434f4e5452414354530000000000000000000000000000008152508460405160200161570392919061a079565b6040516020818303038152906040528051906020012081526020019081526020015f205f9054906101000a900460ff16151514615775576040517f08c379a000000000000000000000000000000000000000000000000000000000815260040161576c9061a0ea565b60405180910390fd5b60245f8381526020019081526020015f205f90555050565b3360011515602f5f6040518060400160405280601181526020017f414c4c4f5745445f434f4e545241435453000000000000000000000000000000815250846040516020016157dd92919061a079565b6040516020818303038152906040528051906020012081526020019081526020015f205f9054906101000a900460ff1615151461584f576040517f08c379a00000000000000000000000000000000000000000000000000000000081526004016158469061a0ea565b60405180910390fd5b601f5f8381526020019081526020015f205f6101000a81549060ff02191690555050565b6060602e5f6040518060400160405280601181526020017f414c4c4f5745445f434f4e5452414354530000000000000000000000000000008152506040516020016158be919061a108565b6040516020818303038152906040528051906020012081526020019081526020015f205f9054906101000a900473ffffffffffffffffffffffffffffffffffffffff1673ffffffffffffffffffffffffffffffffffffffff163373ffffffffffffffffffffffffffffffffffffffff161461596e576040517f08c379a00000000000000000000000000000000000000000000000000000000081526004016159659061a0ea565b60405180910390fd5b5f600580549050116159b5576040517f08c379a00000000000000000000000000000000000000000000000000000000081526004016159ac9061a168565b60405180910390fd5b60058054905083106159fc576040517f08c379a00000000000000000000000000000000000000000000000000000000081526004016159f39061a1d0565b60405180910390fd5b5f8290505f84148015615a0e57505f83145b15615a1c5760058054905090505b600580549050831115615a325760058054905090505b8381615a3e919061a21b565b67ffffffffffffffff811115615a5757615a566192ce565b5b604051908082528060200260200182016040528015615a855781602001602082028036833780820191505090505b5091505f8490505b81811015615aef5760058181548110615aa957615aa861a24e565b5b905f5260205f200154838683615abf919061a21b565b81518110615ad057615acf61a24e565b5b6020026020010181815250508080615ae79061a27b565b915050615a8d565b505092915050565b6060602e5f6040518060400160405280601181526020017f414c4c4f5745445f434f4e545241435453000000000000000000000000000000815250604051602001615b42919061a108565b6040516020818303038152906040528051906020012081526020019081526020015f205f9054906101000a900473ffffffffffffffffffffffffffffffffffffffff1673ffffffffffffffffffffffffffffffffffffffff163373ffffffffffffffffffffffffffffffffffffffff1614615bf2576040517f08c379a0000000000000000000000000000000000000000000000000000000008152600401615be99061a0ea565b60405180910390fd5b5f60148054905011615c39576040517f08c379a0000000000000000000000000000000000000000000000000000000008152600401615c309061a168565b60405180910390fd5b6014805490508310615c80576040517f08c379a0000000000000000000000000000000000000000000000000000000008152600401615c779061a1d0565b60405180910390fd5b5f8290505f84148015615c9257505f83145b15615ca05760148054905090505b601480549050831115615cb65760148054905090505b8381615cc2919061a21b565b67ffffffffffffffff811115615cdb57615cda6192ce565b5b604051908082528060200260200182016040528015615d095781602001602082028036833780820191505090505b5091505f8490505b81811015615d735760148181548110615d2d57615d2c61a24e565b5b905f5260205f200154838683615d43919061a21b565b81518110615d5457615d5361a24e565b5b6020026020010181815250508080615d6b9061a27b565b915050615d11565b505092915050565b5f60195f8381526020019081526020015f205f9054906101000a900460ff169050919050565b3360011515602f5f6040518060400160405280601181526020017f414c4c4f5745445f434f4e54524143545300000000000000000000000000000081525084604051602001615df192919061a079565b6040516020818303038152906040528051906020012081526020019081526020015f205f9054906101000a900460ff16151514615e63576040517f08c379a0000000000000000000000000000000000000000000000000000000008152600401615e5a9061a0ea565b60405180910390fd5b60205f8381526020019081526020015f205f6101000a81549061ffff02191690555050565b6060602d5f8381526020019081526020015f208054615ea69061a2ef565b80601f0160208091040260200160405190810160405280929190818152602001828054615ed29061a2ef565b8015615f1d5780601f10615ef457610100808354040283529160200191615f1d565b820191905f5260205f20905b815481529060010190602001808311615f0057829003601f168201915b50505050509050919050565b6060602e5f6040518060400160405280601181526020017f414c4c4f5745445f434f4e545241435453000000000000000000000000000000815250604051602001615f74919061a108565b6040516020818303038152906040528051906020012081526020019081526020015f205f9054906101000a900473ffffffffffffffffffffffffffffffffffffffff1673ffffffffffffffffffffffffffffffffffffffff163373ffffffffffffffffffffffffffffffffffffffff1614616024576040517f08c379a000000000000000000000000000000000000000000000000000000000815260040161601b9061a0ea565b60405180910390fd5b5f6004805490501161606b576040517f08c379a00000000000000000000000000000000000000000000000000000000081526004016160629061a168565b60405180910390fd5b60048054905083106160b2576040517f08c379a00000000000000000000000000000000000000000000000000000000081526004016160a99061a1d0565b60405180910390fd5b5f8290505f841480156160c457505f83145b156160d25760048054905090505b6004805490508311156160e85760048054905090505b83816160f4919061a21b565b67ffffffffffffffff81111561610d5761610c6192ce565b5b60405190808252806020026020018201604052801561613b5781602001602082028036833780820191505090505b5091505f8490505b818110156161a5576004818154811061615f5761615e61a24e565b5b905f5260205f200154838683616175919061a21b565b815181106161865761618561a24e565b5b602002602001018181525050808061619d9061a27b565b915050616143565b505092915050565b3360011515602f5f6040518060400160405280601181526020017f414c4c4f5745445f434f4e545241435453000000000000000000000000000000815250846040516020016161fd92919061a079565b6040516020818303038152906040528051906020012081526020019081526020015f205f9054906101000a900460ff1615151461626f576040517f08c379a00000000000000000000000000000000000000000000000000000000081526004016162669061a0ea565b60405180910390fd5b60015f8481526020019081526020015f205f9054906101000a900460ff166162e057601183908060018154018082558091505060019003905f5260205f20015f90919091909150556001805f8581526020019081526020015f205f6101000a81548160ff0219169083151502179055505b8160285f8581526020019081526020015f205f6101000a81548167ffffffffffffffff021916908360c01c0217905550505050565b3360011515602f5f6040518060400160405280601181526020017f414c4c4f5745445f434f4e5452414354530000000000000000000000000000008152508460405160200161636592919061a079565b6040516020818303038152906040528051906020012081526020019081526020015f205f9054906101000a900460ff161515146163d7576040517f08c379a00000000000000000000000000000000000000000000000000000000081526004016163ce9061a0ea565b60405180910390fd5b60015f8481526020019081526020015f205f9054906101000a900460ff1661644857600683908060018154018082558091505060019003905f5260205f20015f90919091909150556001805f8581526020019081526020015f205f6101000a81548160ff0219169083151502179055505b81601d5f8581526020019081526020015f205f6101000a8154816fffffffffffffffffffffffffffffffff02191690836fffffffffffffffffffffffffffffffff160217905550505050565b6060602e5f6040518060400160405280601181526020017f414c4c4f5745445f434f4e5452414354530000000000000000000000000000008152506040516020016164df919061a108565b6040516020818303038152906040528051906020012081526020019081526020015f205f9054906101000a900473ffffffffffffffffffffffffffffffffffffffff1673ffffffffffffffffffffffffffffffffffffffff163373ffffffffffffffffffffffffffffffffffffffff161461658f576040517f08c379a00000000000000000000000000000000000000000000000000000000081526004016165869061a0ea565b60405180910390fd5b5f601280549050116165d6576040517f08c379a00000000000000000000000000000000000000000000000000000000081526004016165cd9061a168565b60405180910390fd5b601280549050831061661d576040517f08c379a00000000000000000000000000000000000000000000000000000000081526004016166149061a1d0565b60405180910390fd5b5f8290505f8414801561662f57505f83145b1561663d5760128054905090505b6012805490508311156166535760128054905090505b838161665f919061a21b565b67ffffffffffffffff811115616678576166776192ce565b5b6040519080825280602002602001820160405280156166a65781602001602082028036833780820191505090505b5091505f8490505b8181101561671057601281815481106166ca576166c961a24e565b5b905f5260205f2001548386836166e0919061a21b565b815181106166f1576166f061a24e565b5b60200260200101818152505080806167089061a27b565b9150506166ae565b505092915050565b3360011515602f5f6040518060400160405280601181526020017f414c4c4f5745445f434f4e5452414354530000000000000000000000000000008152508460405160200161676892919061a079565b6040516020818303038152906040528051906020012081526020019081526020015f205f9054906101000a900460ff161515146167da576040517f08c379a00000000000000000000000000000000000000000000000000000000081526004016167d19061a0ea565b60405180910390fd5b60015f8481526020019081526020015f205f9054906101000a900460ff1661684b57600f83908060018154018082558091505060019003905f5260205f20015f90919091909150556001805f8581526020019081526020015f205f6101000a81548160ff0219169083151502179055505b8160265f8581526020019081526020015f205f6101000a81548161ffff021916908360f01c0217905550505050565b5f602b5f8381526020019081526020015f20549050919050565b3360011515602f5f6040518060400160405280601181526020017f414c4c4f5745445f434f4e545241435453000000000000000000000000000000815250846040516020016168e492919061a079565b6040516020818303038152906040528051906020012081526020019081526020015f205f9054906101000a900460ff16151514616956576040517f08c379a000000000000000000000000000000000000000000000000000000000815260040161694d9061a0ea565b60405180910390fd5b60015f8481526020019081526020015f205f9054906101000a900460ff166169c757601283908060018154018082558091505060019003905f5260205f20015f90919091909150556001805f8581526020019081526020015f205f6101000a81548160ff0219169083151502179055505b8160295f8581526020019081526020015f205f6101000a8154816fffffffffffffffffffffffffffffffff021916908360801c0217905550505050565b5f8054906101000a900473ffffffffffffffffffffffffffffffffffffffff1673ffffffffffffffffffffffffffffffffffffffff163373ffffffffffffffffffffffffffffffffffffffff1614616a91576040517f08c379a0000000000000000000000000000000000000000000000000000000008152600401616a889061a0ea565b60405180910390fd5b5f6040518060400160405280601181526020017f414c4c4f5745445f434f4e54524143545300000000000000000000000000000081525082604051602001616ada92919061a079565b60405160208183030381529060405280519060200120905060015f8281526020019081526020015f205f9054906101000a900460ff16616b6357601881908060018154018082558091505060019003905f5260205f20015f90919091909150556001805f8381526020019081526020015f205f6101000a81548160ff0219169083151502179055505b6001602f5f8381526020019081526020015f205f6101000a81548160ff0219169083151502179055507fb2899cb26a6f22b6b94e4cc8de24dc97bcf3cc73fc0dfaac71decef29fac7c5382604051616bbb91906191ab565b60405180910390a15050565b5f60215f8381526020019081526020015f205f9054906101000a900460030b9050919050565b3360011515602f5f6040518060400160405280601181526020017f414c4c4f5745445f434f4e54524143545300000000000000000000000000000081525084604051602001616c3d92919061a079565b6040516020818303038152906040528051906020012081526020019081526020015f205f9054906101000a900460ff16151514616caf576040517f08c379a0000000000000000000000000000000000000000000000000000000008152600401616ca69061a0ea565b60405180910390fd5b60015f8481526020019081526020015f205f9054906101000a900460ff16616d2057601883908060018154018082558091505060019003905f5260205f20015f90919091909150556001805f8581526020019081526020015f205f6101000a81548160ff0219169083151502179055505b81602f5f8581526020019081526020015f205f6101000a81548160ff021916908315150217905550505050565b5f601c5f8381526020019081526020015f205f9054906101000a900467ffffffffffffffff169050919050565b5f60265f8381526020019081526020015f205f9054906101000a900460f01b9050919050565b3360011515602f5f6040518060400160405280601181526020017f414c4c4f5745445f434f4e54524143545300000000000000000000000000000081525084604051602001616df092919061a079565b6040516020818303038152906040528051906020012081526020019081526020015f205f9054906101000a900460ff16151514616e62576040517f08c379a0000000000000000000000000000000000000000000000000000000008152600401616e599061a0ea565b60405180910390fd5b60015f8481526020019081526020015f205f9054906101000a900460ff16616ed357600e83908060018154018082558091505060019003905f5260205f20015f90919091909150556001805f8581526020019081526020015f205f6101000a81548160ff0219169083151502179055505b8160255f8581526020019081526020015f205f6101000a81548160ff021916908360f81c0217905550505050565b5f601e5f8381526020019081526020015f20549050919050565b5f60225f8381526020019081526020015f205f9054906101000a900460070b9050919050565b6060602c5f8381526020019081526020015f208054616f5f9061a2ef565b80601f0160208091040260200160405190810160405280929190818152602001828054616f8b9061a2ef565b8015616fd65780601f10616fad57610100808354040283529160200191616fd6565b820191905f5260205f20905b815481529060010190602001808311616fb957829003601f168201915b50505050509050919050565b5f60235f8381526020019081526020015f205f9054906101000a9004600f0b9050919050565b3360011515602f5f6040518060400160405280601181526020017f414c4c4f5745445f434f4e5452414354530000000000000000000000000000008152508460405160200161705892919061a079565b6040516020818303038152906040528051906020012081526020019081526020015f205f9054906101000a900460ff161515146170ca576040517f08c379a00000000000000000000000000000000000000000000000000000000081526004016170c19061a0ea565b60405180910390fd5b601d5f8381526020019081526020015f205f6101000a8154906fffffffffffffffffffffffffffffffff02191690555050565b5f60275f8381526020019081526020015f205f9054906101000a900460e01b9050919050565b3360011515602f5f6040518060400160405280601181526020017f414c4c4f5745445f434f4e5452414354530000000000000000000000000000008152508460405160200161717392919061a079565b6040516020818303038152906040528051906020012081526020019081526020015f205f9054906101000a900460ff161515146171e5576040517f08c379a00000000000000000000000000000000000000000000000000000000081526004016171dc9061a0ea565b60405180910390fd5b60015f8481526020019081526020015f205f9054906101000a900460ff1661725657601383908060018154018082558091505060019003905f5260205f20015f90919091909150556001805f8581526020019081526020015f205f6101000a81548160ff0219169083151502179055505b81602a5f8581526020019081526020015f205f6101000a81548173ffffffffffffffffffffffffffffffffffffffff021916908360601c0217905550505050565b3360011515602f5f6040518060400160405280601181526020017f414c4c4f5745445f434f4e545241435453000000000000000000000000000000815250846040516020016172e792919061a079565b6040516020818303038152906040528051906020012081526020019081526020015f205f9054906101000a900460ff16151514617359576040517f08c379a00000000000000000000000000000000000000000000000000000000081526004016173509061a0ea565b60405180910390fd5b60015f8481526020019081526020015f205f9054906101000a900460ff166173ca57601783908060018154018082558091505060019003905f5260205f20015f90919091909150556001805f8581526020019081526020015f205f6101000a81548160ff0219169083151502179055505b81602e5f8581526020019081526020015f205f6101000a81548173ffffffffffffffffffffffffffffffffffffffff021916908373ffffffffffffffffffffffffffffffffffffffff160217905550505050565b3360011515602f5f6040518060400160405280601181526020017f414c4c4f5745445f434f4e5452414354530000000000000000000000000000008152508460405160200161746e92919061a079565b6040516020818303038152906040528051906020012081526020019081526020015f205f9054906101000a900460ff161515146174e0576040517f08c379a00000000000000000000000000000000000000000000000000000000081526004016174d79061a0ea565b60405180910390fd5b60255f8381526020019081526020015f205f6101000a81549060ff02191690555050565b6060602e5f6040518060400160405280601181526020017f414c4c4f5745445f434f4e54524143545300000000000000000000000000000081525060405160200161754f919061a108565b6040516020818303038152906040528051906020012081526020019081526020015f205f9054906101000a900473ffffffffffffffffffffffffffffffffffffffff1673ffffffffffffffffffffffffffffffffffffffff163373ffffffffffffffffffffffffffffffffffffffff16146175ff576040517f08c379a00000000000000000000000000000000000000000000000000000000081526004016175f69061a0ea565b60405180910390fd5b5f60028054905011617646576040517f08c379a000000000000000000000000000000000000000000000000000000000815260040161763d9061a168565b60405180910390fd5b600280549050831061768d576040517f08c379a00000000000000000000000000000000000000000000000000000000081526004016176849061a1d0565b60405180910390fd5b5f8290505f8414801561769f57505f83145b156176ad5760028054905090505b6002805490508311156176c35760028054905090505b83816176cf919061a21b565b67ffffffffffffffff8111156176e8576176e76192ce565b5b6040519080825280602002602001820160405280156177165781602001602082028036833780820191505090505b5091505f8490505b81811015617780576002818154811061773a5761773961a24e565b5b905f5260205f200154838683617750919061a21b565b815181106177615761776061a24e565b5b60200260200101818152505080806177789061a27b565b91505061771e565b505092915050565b6060602e5f6040518060400160405280601181526020017f414c4c4f5745445f434f4e5452414354530000000000000000000000000000008152506040516020016177d3919061a108565b6040516020818303038152906040528051906020012081526020019081526020015f205f9054906101000a900473ffffffffffffffffffffffffffffffffffffffff1673ffffffffffffffffffffffffffffffffffffffff163373ffffffffffffffffffffffffffffffffffffffff1614617883576040517f08c379a000000000000000000000000000000000000000000000000000000000815260040161787a9061a0ea565b60405180910390fd5b5f601380549050116178ca576040517f08c379a00000000000000000000000000000000000000000000000000000000081526004016178c19061a168565b60405180910390fd5b6013805490508310617911576040517f08c379a00000000000000000000000000000000000000000000000000000000081526004016179089061a1d0565b60405180910390fd5b5f8290505f8414801561792357505f83145b156179315760138054905090505b6013805490508311156179475760138054905090505b8381617953919061a21b565b67ffffffffffffffff81111561796c5761796b6192ce565b5b60405190808252806020026020018201604052801561799a5781602001602082028036833780820191505090505b5091505f8490505b81811015617a0457601381815481106179be576179bd61a24e565b5b905f5260205f2001548386836179d4919061a21b565b815181106179e5576179e461a24e565b5b60200260200101818152505080806179fc9061a27b565b9150506179a2565b505092915050565b5f60245f8381526020019081526020015f20549050919050565b5f601d5f8381526020019081526020015f205f9054906101000a90046fffffffffffffffffffffffffffffffff169050919050565b3360011515602f5f6040518060400160405280601181526020017f414c4c4f5745445f434f4e54524143545300000000000000000000000000000081525084604051602001617aab92919061a079565b6040516020818303038152906040528051906020012081526020019081526020015f205f9054906101000a900460ff16151514617b1d576040517f08c379a0000000000000000000000000000000000000000000000000000000008152600401617b149061a0ea565b60405180910390fd5b60015f8481526020019081526020015f205f9054906101000a900460ff16617b8e57600783908060018154018082558091505060019003905f5260205f20015f90919091909150556001805f8581526020019081526020015f205f6101000a81548160ff0219169083151502179055505b81601e5f8581526020019081526020015f2081905550505050565b3360011515602f5f6040518060400160405280601181526020017f414c4c4f5745445f434f4e54524143545300000000000000000000000000000081525084604051602001617bf992919061a079565b6040516020818303038152906040528051906020012081526020019081526020015f205f9054906101000a900460ff16151514617c6b576040517f08c379a0000000000000000000000000000000000000000000000000000000008152600401617c629061a0ea565b60405180910390fd5b601e5f8381526020019081526020015f205f90555050565b5f60285f8381526020019081526020015f205f9054906101000a900460c01b9050919050565b6060602e5f6040518060400160405280601181526020017f414c4c4f5745445f434f4e545241435453000000000000000000000000000000815250604051602001617cf4919061a108565b6040516020818303038152906040528051906020012081526020019081526020015f205f9054906101000a900473ffffffffffffffffffffffffffffffffffffffff1673ffffffffffffffffffffffffffffffffffffffff163373ffffffffffffffffffffffffffffffffffffffff1614617da4576040517f08c379a0000000000000000000000000000000000000000000000000000000008152600401617d9b9061a0ea565b60405180910390fd5b5f60168054905011617deb576040517f08c379a0000000000000000000000000000000000000000000000000000000008152600401617de29061a168565b60405180910390fd5b6016805490508310617e32576040517f08c379a0000000000000000000000000000000000000000000000000000000008152600401617e299061a1d0565b60405180910390fd5b5f8290505f84148015617e4457505f83145b15617e525760168054905090505b601680549050831115617e685760168054905090505b8381617e74919061a21b565b67ffffffffffffffff811115617e8d57617e8c6192ce565b5b604051908082528060200260200182016040528015617ebb5781602001602082028036833780820191505090505b5091505f8490505b81811015617f255760168181548110617edf57617ede61a24e565b5b905f5260205f200154838683617ef5919061a21b565b81518110617f0657617f0561a24e565b5b6020026020010181815250508080617f1d9061a27b565b915050617ec3565b505092915050565b3360011515602f5f6040518060400160405280601181526020017f414c4c4f5745445f434f4e54524143545300000000000000000000000000000081525084604051602001617f7d92919061a079565b6040516020818303038152906040528051906020012081526020019081526020015f205f9054906101000a900460ff16151514617fef576040517f08c379a0000000000000000000000000000000000000000000000000000000008152600401617fe69061a0ea565b60405180910390fd5b60015f8481526020019081526020015f205f9054906101000a900460ff1661806057600283908060018154018082558091505060019003905f5260205f20015f90919091909150556001805f8581526020019081526020015f205f6101000a81548160ff0219169083151502179055505b8160195f8581526020019081526020015f205f6101000a81548160ff021916908360ff160217905550505050565b3360011515602f5f6040518060400160405280601181526020017f414c4c4f5745445f434f4e545241435453000000000000000000000000000000815250846040516020016180de92919061a079565b6040516020818303038152906040528051906020012081526020019081526020015f205f9054906101000a900460ff16151514618150576040517f08c379a00000000000000000000000000000000000000000000000000000000081526004016181479061a0ea565b60405180910390fd5b601c5f8381526020019081526020015f205f6101000a81549067ffffffffffffffff02191690555050565b6060602e5f6040518060400160405280601181526020017f414c4c4f5745445f434f4e5452414354530000000000000000000000000000008152506040516020016181c6919061a108565b6040516020818303038152906040528051906020012081526020019081526020015f205f9054906101000a900473ffffffffffffffffffffffffffffffffffffffff1673ffffffffffffffffffffffffffffffffffffffff163373ffffffffffffffffffffffffffffffffffffffff1614618276576040517f08c379a000000000000000000000000000000000000000000000000000000000815260040161826d9061a0ea565b60405180910390fd5b5f600c80549050116182bd576040517f08c379a00000000000000000000000000000000000000000000000000000000081526004016182b49061a168565b60405180910390fd5b600c805490508310618304576040517f08c379a00000000000000000000000000000000000000000000000000000000081526004016182fb9061a1d0565b60405180910390fd5b5f8290505f8414801561831657505f83145b1561832457600c8054905090505b600c8054905083111561833a57600c8054905090505b8381618346919061a21b565b67ffffffffffffffff81111561835f5761835e6192ce565b5b60405190808252806020026020018201604052801561838d5781602001602082028036833780820191505090505b5091505f8490505b818110156183f757600c81815481106183b1576183b061a24e565b5b905f5260205f2001548386836183c7919061a21b565b815181106183d8576183d761a24e565b5b60200260200101818152505080806183ef9061a27b565b915050618395565b505092915050565b6060602e5f6040518060400160405280601181526020017f414c4c4f5745445f434f4e54524143545300000000000000000000000000000081525060405160200161844a919061a108565b6040516020818303038152906040528051906020012081526020019081526020015f205f9054906101000a900473ffffffffffffffffffffffffffffffffffffffff1673ffffffffffffffffffffffffffffffffffffffff163373ffffffffffffffffffffffffffffffffffffffff16146184fa576040517f08c379a00000000000000000000000000000000000000000000000000000000081526004016184f19061a0ea565b60405180910390fd5b5f60178054905011618541576040517f08c379a00000000000000000000000000000000000000000000000000000000081526004016185389061a168565b60405180910390fd5b6017805490508310618588576040517f08c379a000000000000000000000000000000000000000000000000000000000815260040161857f9061a1d0565b60405180910390fd5b5f8290505f8414801561859a57505f83145b156185a85760178054905090505b6017805490508311156185be5760178054905090505b83816185ca919061a21b565b67ffffffffffffffff8111156185e3576185e26192ce565b5b6040519080825280602002602001820160405280156186115781602001602082028036833780820191505090505b5091505f8490505b8181101561867b57601781815481106186355761863461a24e565b5b905f5260205f20015483868361864b919061a21b565b8151811061865c5761865b61a24e565b5b60200260200101818152505080806186739061a27b565b915050618619565b505092915050565b6060602e5f6040518060400160405280601181526020017f414c4c4f5745445f434f4e5452414354530000000000000000000000000000008152506040516020016186ce919061a108565b6040516020818303038152906040528051906020012081526020019081526020015f205f9054906101000a900473ffffffffffffffffffffffffffffffffffffffff1673ffffffffffffffffffffffffffffffffffffffff163373ffffffffffffffffffffffffffffffffffffffff161461877e576040517f08c379a00000000000000000000000000000000000000000000000000000000081526004016187759061a0ea565b60405180910390fd5b5f601180549050116187c5576040517f08c379a00000000000000000000000000000000000000000000000000000000081526004016187bc9061a168565b60405180910390fd5b601180549050831061880c576040517f08c379a00000000000000000000000000000000000000000000000000000000081526004016188039061a1d0565b60405180910390fd5b5f8290505f8414801561881e57505f83145b1561882c5760118054905090505b6011805490508311156188425760118054905090505b838161884e919061a21b565b67ffffffffffffffff811115618867576188666192ce565b5b6040519080825280602002602001820160405280156188955781602001602082028036833780820191505090505b5091505f8490505b818110156188ff57601181815481106188b9576188b861a24e565b5b905f5260205f2001548386836188cf919061a21b565b815181106188e0576188df61a24e565b5b60200260200101818152505080806188f79061a27b565b91505061889d565b505092915050565b5f601b5f8381526020019081526020015f205f9054906101000a900463ffffffff169050919050565b3360011515602f5f6040518060400160405280601181526020017f414c4c4f5745445f434f4e5452414354530000000000000000000000000000008152508460405160200161898092919061a079565b6040516020818303038152906040528051906020012081526020019081526020015f205f9054906101000a900460ff161515146189f2576040517f08c379a00000000000000000000000000000000000000000000000000000000081526004016189e99061a0ea565b60405180910390fd5b602d5f8381526020019081526020015f205f618a0e9190618cd3565b5050565b6060602e5f6040518060400160405280601181526020017f414c4c4f5745445f434f4e545241435453000000000000000000000000000000815250604051602001618a5d919061a108565b6040516020818303038152906040528051906020012081526020019081526020015f205f9054906101000a900473ffffffffffffffffffffffffffffffffffffffff1673ffffffffffffffffffffffffffffffffffffffff163373ffffffffffffffffffffffffffffffffffffffff1614618b0d576040517f08c379a0000000000000000000000000000000000000000000000000000000008152600401618b049061a0ea565b60405180910390fd5b5f600a8054905011618b54576040517f08c379a0000000000000000000000000000000000000000000000000000000008152600401618b4b9061a168565b60405180910390fd5b600a805490508310618b9b576040517f08c379a0000000000000000000000000000000000000000000000000000000008152600401618b929061a1d0565b60405180910390fd5b5f8290505f84148015618bad57505f83145b15618bbb57600a8054905090505b600a80549050831115618bd157600a8054905090505b8381618bdd919061a21b565b67ffffffffffffffff811115618bf657618bf56192ce565b5b604051908082528060200260200182016040528015618c245781602001602082028036833780820191505090505b5091505f8490505b81811015618c8e57600a8181548110618c4857618c4761a24e565b5b905f5260205f200154838683618c5e919061a21b565b81518110618c6f57618c6e61a24e565b5b6020026020010181815250508080618c869061a27b565b915050618c2c565b505092915050565b508054618ca29061a2ef565b5f825580601f10618cb35750618cd0565b601f0160209004905f5260205f2090810190618ccf9190618d10565b5b50565b508054618cdf9061a2ef565b5f825580601f10618cf05750618d0d565b601f0160209004905f5260205f2090810190618d0c9190618d10565b5b50565b5b80821115618d27575f815f905550600101618d11565b5090565b5f604051905090565b5f80fd5b5f80fd5b5f819050919050565b618d4e81618d3c565b8114618d58575f80fd5b50565b5f81359050618d6981618d45565b92915050565b5f7fffffffff0000000000000000000000000000000000000000000000000000000082169050919050565b618da381618d6f565b8114618dad575f80fd5b50565b5f81359050618dbe81618d9a565b92915050565b5f8060408385031215618dda57618dd9618d34565b5b5f618de785828601618d5b565b9250506020618df885828601618db0565b9150509250929050565b5f73ffffffffffffffffffffffffffffffffffffffff82169050919050565b5f618e2b82618e02565b9050919050565b618e3b81618e21565b8114618e45575f80fd5b50565b5f81359050618e5681618e32565b92915050565b5f60208284031215618e7157618e70618d34565b5b5f618e7e84828501618e48565b91505092915050565b5f819050919050565b618e9981618e87565b8114618ea3575f80fd5b50565b5f81359050618eb481618e90565b92915050565b5f8060408385031215618ed057618ecf618d34565b5b5f618edd85828601618ea6565b9250506020618eee85828601618ea6565b9150509250929050565b5f81519050919050565b5f82825260208201905092915050565b5f819050602082019050919050565b618f2a81618d3c565b82525050565b5f618f3b8383618f21565b60208301905092915050565b5f602082019050919050565b5f618f5d82618ef8565b618f678185618f02565b9350618f7283618f12565b805f5b83811015618fa2578151618f898882618f30565b9750618f9483618f47565b925050600181019050618f75565b5085935050505092915050565b5f6020820190508181035f830152618fc78184618f53565b905092915050565b5f60208284031215618fe457618fe3618d34565b5b5f618ff184828501618d5b565b91505092915050565b5f7fffffffffffffffffffffffffffffffffffffffff00000000000000000000000082169050919050565b61902e81618ffa565b82525050565b5f6020820190506190475f830184619025565b92915050565b5f815f0b9050919050565b6190618161904d565b82525050565b5f60208201905061907a5f830184619058565b92915050565b5f8115159050919050565b61909481619080565b82525050565b5f6020820190506190ad5f83018461908b565b92915050565b5f8160070b9050919050565b6190c8816190b3565b81146190d2575f80fd5b50565b5f813590506190e3816190bf565b92915050565b5f80604083850312156190ff576190fe618d34565b5b5f61910c85828601618d5b565b925050602061911d858286016190d5565b9150509250929050565b5f61ffff82169050919050565b61913d81619127565b8114619147575f80fd5b50565b5f8135905061915881619134565b92915050565b5f806040838503121561917457619173618d34565b5b5f61918185828601618d5b565b92505060206191928582860161914a565b9150509250929050565b6191a581618e21565b82525050565b5f6020820190506191be5f83018461919c565b92915050565b5f63ffffffff82169050919050565b6191dc816191c4565b81146191e6575f80fd5b50565b5f813590506191f7816191d3565b92915050565b5f806040838503121561921357619212618d34565b5b5f61922085828601618d5b565b9250506020619231858286016191e9565b9150509250929050565b5f67ffffffffffffffff82169050919050565b6192578161923b565b8114619261575f80fd5b50565b5f813590506192728161924e565b92915050565b5f806040838503121561928e5761928d618d34565b5b5f61929b85828601618d5b565b92505060206192ac85828601619264565b9150509250929050565b5f80fd5b5f80fd5b5f601f19601f8301169050919050565b7f4e487b71000000000000000000000000000000000000000000000000000000005f52604160045260245ffd5b619304826192be565b810181811067ffffffffffffffff82111715619323576193226192ce565b5b80604052505050565b5f619335618d2b565b905061934182826192fb565b919050565b5f67ffffffffffffffff8211156193605761935f6192ce565b5b619369826192be565b9050602081019050919050565b828183375f83830152505050565b5f61939661939184619346565b61932c565b9050828152602081018484840111156193b2576193b16192ba565b5b6193bd848285619376565b509392505050565b5f82601f8301126193d9576193d86192b6565b5b81356193e9848260208601619384565b91505092915050565b5f806040838503121561940857619407618d34565b5b5f61941585828601618d5b565b925050602083013567ffffffffffffffff81111561943657619435618d38565b5b619442858286016193c5565b9150509250929050565b5f7fff0000000000000000000000000000000000000000000000000000000000000082169050919050565b6194808161944c565b82525050565b5f6020820190506194995f830184619477565b92915050565b5f819050919050565b6194b18161949f565b81146194bb575f80fd5b50565b5f813590506194cc816194a8565b92915050565b5f80604083850312156194e8576194e7618d34565b5b5f6194f585828601618d5b565b9250506020619506858286016194be565b9150509250929050565b5f81600f0b9050919050565b61952581619510565b811461952f575f80fd5b50565b5f813590506195408161951c565b92915050565b5f806040838503121561955c5761955b618d34565b5b5f61956985828601618d5b565b925050602061957a85828601619532565b9150509250929050565b5f7fffffffffffffffffffffffffffffffff0000000000000000000000000000000082169050919050565b6195b881619584565b82525050565b5f6020820190506195d15f8301846195af565b92915050565b5f8160010b9050919050565b6195ec816195d7565b82525050565b5f6020820190506196055f8301846195e3565b92915050565b5f8160030b9050919050565b6196208161960b565b811461962a575f80fd5b50565b5f8135905061963b81619617565b92915050565b5f806040838503121561965757619656618d34565b5b5f61966485828601618d5b565b92505060206196758582860161962d565b9150509250929050565b5f806040838503121561969557619694618d34565b5b5f6196a285828601618d5b565b92505060206196b385828601618d5b565b9150509250929050565b6196c6816195d7565b81146196d0575f80fd5b50565b5f813590506196e1816196bd565b92915050565b5f80604083850312156196fd576196fc618d34565b5b5f61970a85828601618d5b565b925050602061971b858286016196d3565b9150509250929050565b61972e8161904d565b8114619738575f80fd5b50565b5f8135905061974981619725565b92915050565b5f806040838503121561976557619764618d34565b5b5f61977285828601618d5b565b92505060206197838582860161973b565b9150509250929050565b61979681619127565b82525050565b5f6020820190506197af5f83018461978d565b92915050565b5f67ffffffffffffffff8211156197cf576197ce6192ce565b5b6197d8826192be565b9050602081019050919050565b5f6197f76197f2846197b5565b61932c565b905082815260208101848484011115619813576198126192ba565b5b61981e848285619376565b509392505050565b5f82601f83011261983a576198396192b6565b5b813561984a8482602086016197e5565b91505092915050565b5f806040838503121561986957619868618d34565b5b5f61987685828601618d5b565b925050602083013567ffffffffffffffff81111561989757619896618d38565b5b6198a385828601619826565b9150509250929050565b5f60ff82169050919050565b6198c2816198ad565b82525050565b5f6020820190506198db5f8301846198b9565b92915050565b5f81519050919050565b5f82825260208201905092915050565b5f5b838110156199185780820151818401526020810190506198fd565b5f8484015250505050565b5f61992d826198e1565b61993781856198eb565b93506199478185602086016198fb565b619950816192be565b840191505092915050565b5f6020820190508181035f8301526199738184619923565b905092915050565b5f7fffffffffffffffff00000000000000000000000000000000000000000000000082169050919050565b6199af8161997b565b81146199b9575f80fd5b50565b5f813590506199ca816199a6565b92915050565b5f80604083850312156199e6576199e5618d34565b5b5f6199f385828601618d5b565b9250506020619a04858286016199bc565b9150509250929050565b5f6fffffffffffffffffffffffffffffffff82169050919050565b619a3281619a0e565b8114619a3c575f80fd5b50565b5f81359050619a4d81619a29565b92915050565b5f8060408385031215619a6957619a68618d34565b5b5f619a7685828601618d5b565b9250506020619a8785828601619a3f565b9150509250929050565b5f7fffff00000000000000000000000000000000000000000000000000000000000082169050919050565b619ac581619a91565b8114619acf575f80fd5b50565b5f81359050619ae081619abc565b92915050565b5f8060408385031215619afc57619afb618d34565b5b5f619b0985828601618d5b565b9250506020619b1a85828601619ad2565b9150509250929050565b619b2d81618d3c565b82525050565b5f602082019050619b465f830184619b24565b92915050565b619b5581619584565b8114619b5f575f80fd5b50565b5f81359050619b7081619b4c565b92915050565b5f8060408385031215619b8c57619b8b618d34565b5b5f619b9985828601618d5b565b9250506020619baa85828601619b62565b9150509250929050565b619bbd8161960b565b82525050565b5f602082019050619bd65f830184619bb4565b92915050565b619be581619080565b8114619bef575f80fd5b50565b5f81359050619c0081619bdc565b92915050565b5f8060408385031215619c1c57619c1b618d34565b5b5f619c2985828601618d5b565b9250506020619c3a85828601619bf2565b9150509250929050565b619c4d8161923b565b82525050565b5f602082019050619c665f830184619c44565b92915050565b619c7581619a91565b82525050565b5f602082019050619c8e5f830184619c6c565b92915050565b619c9d8161944c565b8114619ca7575f80fd5b50565b5f81359050619cb881619c94565b92915050565b5f8060408385031215619cd457619cd3618d34565b5b5f619ce185828601618d5b565b9250506020619cf285828601619caa565b9150509250929050565b619d0581618e87565b82525050565b5f602082019050619d1e5f830184619cfc565b92915050565b619d2d816190b3565b82525050565b5f602082019050619d465f830184619d24565b92915050565b5f81519050919050565b5f82825260208201905092915050565b5f619d7082619d4c565b619d7a8185619d56565b9350619d8a8185602086016198fb565b619d93816192be565b840191505092915050565b5f6020820190508181035f830152619db68184619d66565b905092915050565b619dc781619510565b82525050565b5f602082019050619de05f830184619dbe565b92915050565b619def81618d6f565b82525050565b5f602082019050619e085f830184619de6565b92915050565b619e1781618ffa565b8114619e21575f80fd5b50565b5f81359050619e3281619e0e565b92915050565b5f8060408385031215619e4e57619e4d618d34565b5b5f619e5b85828601618d5b565b9250506020619e6c85828601619e24565b9150509250929050565b5f8060408385031215619e8c57619e8b618d34565b5b5f619e9985828601618d5b565b9250506020619eaa85828601618e48565b9150509250929050565b619ebd8161949f565b82525050565b5f602082019050619ed65f830184619eb4565b92915050565b619ee581619a0e565b82525050565b5f602082019050619efe5f830184619edc565b92915050565b5f8060408385031215619f1a57619f19618d34565b5b5f619f2785828601618d5b565b9250506020619f3885828601618ea6565b9150509250929050565b619f4b8161997b565b82525050565b5f602082019050619f645f830184619f42565b92915050565b619f73816198ad565b8114619f7d575f80fd5b50565b5f81359050619f8e81619f6a565b92915050565b5f8060408385031215619faa57619fa9618d34565b5b5f619fb785828601618d5b565b9250506020619fc885828601619f80565b9150509250929050565b619fdb816191c4565b82525050565b5f602082019050619ff45f830184619fd2565b92915050565b5f81905092915050565b5f61a00e826198e1565b61a0188185619ffa565b935061a0288185602086016198fb565b80840191505092915050565b5f8160601b9050919050565b5f61a04a8261a034565b9050919050565b5f61a05b8261a040565b9050919050565b61a07361a06e82618e21565b61a051565b82525050565b5f61a084828561a004565b915061a090828461a062565b6014820191508190509392505050565b7f696e76616c69642063616c6c65720000000000000000000000000000000000005f82015250565b5f61a0d4600e836198eb565b915061a0df8261a0a0565b602082019050919050565b5f6020820190508181035f83015261a1018161a0c8565b9050919050565b5f61a113828461a004565b915081905092915050565b7f4e6f206b65797320666f756e64000000000000000000000000000000000000005f82015250565b5f61a152600d836198eb565b915061a15d8261a11e565b602082019050919050565b5f6020820190508181035f83015261a17f8161a146565b9050919050565b7f496e76616c69642046726f6d20496e64657800000000000000000000000000005f82015250565b5f61a1ba6012836198eb565b915061a1c58261a186565b602082019050919050565b5f6020820190508181035f83015261a1e78161a1ae565b9050919050565b7f4e487b71000000000000000000000000000000000000000000000000000000005f52601160045260245ffd5b5f61a22582618e87565b915061a23083618e87565b925082820390508181111561a2485761a24761a1ee565b5b92915050565b7f4e487b71000000000000000000000000000000000000000000000000000000005f52603260045260245ffd5b5f61a28582618e87565b91507fffffffffffffffffffffffffffffffffffffffffffffffffffffffffffffffff820361a2b75761a2b661a1ee565b5b600182019050919050565b7f4e487b71000000000000000000000000000000000000000000000000000000005f52602260045260245ffd5b5f600282049050600182168061a30657607f821691505b60208210810361a3195761a31861a2c2565b5b50919050565b5f819050815f5260205f209050919050565b5f6020601f8301049050919050565b5f82821b905092915050565b5f6008830261a37b7fffffffffffffffffffffffffffffffffffffffffffffffffffffffffffffffff8261a340565b61a385868361a340565b95508019841693508086168417925050509392505050565b5f819050919050565b5f61a3c061a3bb61a3b684618e87565b61a39d565b618e87565b9050919050565b5f819050919050565b61a3d98361a3a6565b61a3ed61a3e58261a3c7565b84845461a34c565b825550505050565b5f90565b61a40161a3f5565b61a40c81848461a3d0565b505050565b5b8181101561a42f5761a4245f8261a3f9565b60018101905061a412565b5050565b601f82111561a4745761a4458161a31f565b61a44e8461a331565b8101602085101561a45d578190505b61a47161a4698561a331565b83018261a411565b50505b505050565b5f82821c905092915050565b5f61a4945f198460080261a479565b1980831691505092915050565b5f61a4ac838361a485565b9150826002028217905092915050565b61a4c582619d4c565b67ffffffffffffffff81111561a4de5761a4dd6192ce565b5b61a4e8825461a2ef565b61a4f382828561a433565b5f60209050601f83116001811461a524575f841561a512578287015190505b61a51c858261a4a1565b86555061a583565b601f19841661a5328661a31f565b5f5b8281101561a5595784890151825560018201915060208501945060208101905061a534565b8683101561a576578489015161a572601f89168261a485565b8355505b6001600288020188555050505b505050505050565b5f819050815f5260205f209050919050565b601f82111561a5de5761a5af8161a58b565b61a5b88461a331565b8101602085101561a5c7578190505b61a5db61a5d38561a331565b83018261a411565b50505b505050565b61a5ec826198e1565b67ffffffffffffffff81111561a6055761a6046192ce565b5b61a60f825461a2ef565b61a61a82828561a59d565b5f60209050601f83116001811461a64b575f841561a639578287015190505b61a643858261a4a1565b86555061a6aa565b601f19841661a6598661a58b565b5f5b8281101561a6805784890151825560018201915060208501945060208101905061a65b565b8683101561a69d578489015161a699601f89168261a485565b8355505b6001600288020188555050505b50505050505056fea264697066735822122043cc7640c89243a824c1eb6ad464339295e5764fa880c7aeaecfbfc6c140815764736f6c63430008140033",
  "immutableReferences": {},
  "source": "pragma solidity ^0.8.0;\n\n/** @title Quire Storage contract\n  * @notice This contract holds all the data on behalf of other contracts.\n  * There is a mapping to store data for each data type.\n  * Not all contracts/accounts can fetch/push data to this contract.\n  * Some contracts/accounts will be given access via the QuireUpgradable.sol contract\n  * and only they can execute the READ and WRITE in this contract.\n  * Look at the method updateContractDatabaseAccess() for more details.\n  */\ncontract QuireStorage {\n\n    address private quireUpgradable;\n\n    event AddressRegistered(address account_);\n    event AddressUnRegistered(address account_);\n\n    mapping(bytes32 => bool) private isKeyExists;\n\n    // uint\n    bytes32[] private uInt8Keys;\n    bytes32[] private uInt16Keys;\n    bytes32[] private uInt32Keys;\n    bytes32[] private uInt64Keys;\n    bytes32[] private uInt128Keys;\n    bytes32[] private uIntKeys; // uint256\n    //int\n    bytes32[] private int8Keys;\n    bytes32[] private int16Keys;\n    bytes32[] private int32Keys;\n    bytes32[] private int64Keys;\n    bytes32[] private int128Keys;\n    bytes32[] private intKeys; // int256\n    // bytes\n    bytes32[] private bytes1Keys;\n    bytes32[] private bytes2Keys;\n    bytes32[] private bytes4Keys;\n    bytes32[] private bytes8Keys;\n    bytes32[] private bytes16Keys;\n    bytes32[] private bytes20Keys;\n    bytes32[] private bytes32Keys;\n    bytes32[] private bytesKeys;\n    // other\n    bytes32[] private stringKeys;\n    bytes32[] private addressKeys;\n    bytes32[] private boolKeys;\n\n    constructor (address _quireUpgradable) {\n        quireUpgradable = _quireUpgradable;\n    }\n\n    // uint\n    mapping(bytes32 => uint8) private uInt8Storage;\n    mapping(bytes32 => uint16) private uInt16Storage;\n    mapping(bytes32 => uint32) private uInt32Storage;\n    mapping(bytes32 => uint64) private uInt64Storage;\n    mapping(bytes32 => uint128) private uInt128Storage;\n    mapping(bytes32 => uint256) private uIntStorage; // uint256\n    //int\n    mapping(bytes32 => int8) private int8Storage;\n    mapping(bytes32 => int16) private int16Storage;\n    mapping(bytes32 => int32) private int32Storage;\n    mapping(bytes32 => int64) private int64Storage;\n    mapping(bytes32 => int128) private int128Storage;\n    mapping(bytes32 => int256) private intStorage; // int256\n    // bytes\n    mapping(bytes32 => bytes1) private bytes1Storage;\n    mapping(bytes32 => bytes2) private bytes2Storage;\n    mapping(bytes32 => bytes4) private bytes4Storage;\n    mapping(bytes32 => bytes8) private bytes8Storage;\n    mapping(bytes32 => bytes16) private bytes16Storage;\n    mapping(bytes32 => bytes20) private bytes20Storage;\n    mapping(bytes32 => bytes32) private bytes32Storage;\n    mapping(bytes32 => bytes) private bytesStorage;\n    // other\n    mapping(bytes32 => string) private stringStorage;\n    mapping(bytes32 => address) private addressStorage;\n    mapping(bytes32 => bool) private boolStorage;\n\n    /** @dev The value of KEY should never be updated after first deployment\n      */\n    string constant KEY = \"ALLOWED_CONTRACTS\";\n\n    /** @notice Modifier to revert transaction if a contract is not allowed access.\n      * Look at the method updateContractDatabaseAccess() to understand how access is granted and revoked.\n      */\n    modifier onlyAllowedContract(address _sender) {\n        require(boolStorage[keccak256(abi.encodePacked(KEY, _sender))]==true, \"invalid caller\");\n        _;\n    }\n\n    /** @notice Modifier used for updateContractDatabaseAccess() method.\n      * So that only QuireUpgradable.sol is allowed to grant and revoke access.\n      */\n    modifier onlyUpgradeable {\n        require(msg.sender == quireUpgradable, \"invalid caller\");\n        _;\n    }\n\n    /** @notice Modifier used for getting keys list.\n      * The keys list will be used for backing up the data\n      */\n    modifier onlyRegisteredStorage {\n        require(msg.sender == addressStorage[keccak256(abi.encodePacked(KEY))], \"invalid caller\");\n        _;\n    }\n\n    /** @notice Gives access to the methods of this contract to an account\n      * @param _account Address of account or contract whose access needs to be updated\n      */\n    function registerAddress(address _account) external \n    onlyUpgradeable {\n        bytes32 storageKey = keccak256(abi.encodePacked(KEY, _account));\n        if(!isKeyExists[storageKey]){\n            boolKeys.push(storageKey);\n            isKeyExists[storageKey] = true;\n        }\n        boolStorage[storageKey] = true;\n        emit AddressRegistered(_account);\n    }\n\n    /** @notice Revokes access to the methods of this contract to an account\n      * @param _account Address of account or contract whose access needs to be updated\n      */\n    function unregisterAddress(address _account) external \n    onlyUpgradeable {\n        boolStorage[keccak256(abi.encodePacked(KEY, _account))] = false;\n        emit AddressUnRegistered(_account);\n    }\n\n    /** @notice Registers another storage contract. \n      * This new contract will be able to fetch all the keys in this contract and replicate the storage of this contract.\n      * @param _storage Address of the new storage contract\n      */\n    function registerSecondaryStorage(address _storage) external \n    onlyUpgradeable {\n        addressStorage[keccak256(abi.encodePacked(KEY))] = _storage;\n    }\n\n    /** @notice changes the upgradable contract address to the new address.\n        Can be executed by guardian account only\n      * @param _proposedUpgradable address of the new storage contract\n      * @dev this function should be prevented from being executed accidentally, \n      * as this could stop future updates\n      */\n    function changeQuireUpgradable(address _proposedUpgradable) public \n    onlyUpgradeable {\n      quireUpgradable = _proposedUpgradable;\n    }\n\n    /** @notice Returns true if an account/contract is allowed access to this contract's methods\n      * @param _accountAddress Address of account contract whose access needs to be checked\n      */\n    function isContractAuthorized(address _accountAddress) external view returns(bool) {\n        return boolStorage[keccak256(abi.encodePacked(KEY, _accountAddress))];\n    }\n\n\n    // ------------------------------------ READS ------------------------------------ //\n    function getAddress(bytes32 _key) external view returns (address) {\n        return addressStorage[_key];\n    }\n    function getString(bytes32 _key) external view returns (string memory) {\n        return stringStorage[_key];\n    }\n    function getBool(bytes32 _key) external view returns (bool) {\n        return boolStorage[_key];\n    }\n    // uint\n    function getUint8(bytes32 _key) external view returns (uint8) {\n        return uInt8Storage[_key];\n    }\n    function getUint16(bytes32 _key) external view returns (uint16) {\n        return uInt16Storage[_key];\n    }\n    function getUint32(bytes32 _key) external view returns (uint32) {\n        return uInt32Storage[_key];\n    }\n    function getUint64(bytes32 _key) external view returns (uint64) {\n        return uInt64Storage[_key];\n    }\n    function getUint128(bytes32 _key) external view returns (uint128) {\n        return uInt128Storage[_key];\n    }\n    function getUint(bytes32 _key) external view returns (uint) { \n        return uIntStorage[_key];\n    }\n    // int\n    function getInt8(bytes32 _key) external view returns (int8) {\n        return int8Storage[_key];\n    }\n    function getInt16(bytes32 _key) external view returns (int16) {\n        return int16Storage[_key];\n    }\n    function getInt32(bytes32 _key) external view returns (int32) {\n        return int32Storage[_key];\n    }\n    function getInt64(bytes32 _key) external view returns (int64) {\n        return int64Storage[_key];\n    }\n    function getInt128(bytes32 _key) external view returns (int128) {\n        return int128Storage[_key];\n    }\n    function getInt(bytes32 _key) external view returns (int) { \n        return intStorage[_key];\n    }\n    // bytes\n    function getBytes1(bytes32 _key) external view returns (bytes1) {\n        return bytes1Storage[_key];\n    }\n    function getBytes2(bytes32 _key) external view returns (bytes2) {\n        return bytes2Storage[_key];\n    }\n    function getBytes4(bytes32 _key) external view returns (bytes4) {\n        return bytes4Storage[_key];\n    }\n    function getBytes8(bytes32 _key) external view returns (bytes8) {\n        return bytes8Storage[_key];\n    }\n    function getBytes16(bytes32 _key) external view returns (bytes16) {\n        return bytes16Storage[_key];\n    }\n    function getBytes20(bytes32 _key) external view returns (bytes20) {\n        return bytes20Storage[_key];\n    }\n    function getBytes32(bytes32 _key) external view returns (bytes32) {\n        return bytes32Storage[_key];\n    }\n    function getBytes(bytes32 _key) external view returns (bytes memory) {\n        return bytesStorage[_key];\n    }\n\n    // ------------------------------------ WRITES ------------------------------------ //\n    function setAddress(bytes32 _key, address _value) external onlyAllowedContract(msg.sender) {\n        if(!isKeyExists[_key]){\n            addressKeys.push(_key);\n            isKeyExists[_key] = true;\n        }\n        addressStorage[_key] = _value;\n    }\n    function setString(bytes32 _key, string memory _value) public onlyAllowedContract(msg.sender) {\n        if(!isKeyExists[_key]){\n            stringKeys.push(_key);\n            isKeyExists[_key] = true;\n        }\n        stringStorage[_key] = _value;\n    }\n    function setBool(bytes32 _key, bool _value) external onlyAllowedContract(msg.sender) {\n        if(!isKeyExists[_key]){\n            boolKeys.push(_key);\n            isKeyExists[_key] = true;\n        }\n        boolStorage[_key] = _value;\n    }\n    // uint\n    function setUint8(bytes32 _key, uint8 _value) external onlyAllowedContract(msg.sender) {\n        if(!isKeyExists[_key]){\n            uInt8Keys.push(_key);\n            isKeyExists[_key] = true;\n        }\n        uInt8Storage[_key] = _value;\n    }\n    function setUint16(bytes32 _key, uint16 _value) external onlyAllowedContract(msg.sender) {\n        if(!isKeyExists[_key]){\n            uInt16Keys.push(_key);\n            isKeyExists[_key] = true;\n        }\n        uInt16Storage[_key] = _value;\n    }\n    function setUint32(bytes32 _key, uint32 _value) external onlyAllowedContract(msg.sender) {\n        if(!isKeyExists[_key]){\n            uInt32Keys.push(_key);\n            isKeyExists[_key] = true;\n        }\n        uInt32Storage[_key] = _value;\n    }\n    function setUint64(bytes32 _key, uint64 _value) external onlyAllowedContract(msg.sender) {\n        if(!isKeyExists[_key]){\n            uInt64Keys.push(_key);\n            isKeyExists[_key] = true;\n        }\n        uInt64Storage[_key] = _value;\n    }\n    function setUint128(bytes32 _key, uint128 _value) external onlyAllowedContract(msg.sender) {\n        if(!isKeyExists[_key]){\n            uInt128Keys.push(_key);\n            isKeyExists[_key] = true;\n        }\n        uInt128Storage[_key] = _value;\n    }\n    function setUint(bytes32 _key, uint _value) external onlyAllowedContract(msg.sender) {\n        if(!isKeyExists[_key]){\n            uIntKeys.push(_key);\n            isKeyExists[_key] = true;\n        }\n        uIntStorage[_key] = _value;\n    }\n    // int\n    function setInt8(bytes32 _key, int8 _value) external onlyAllowedContract(msg.sender) {\n        if(!isKeyExists[_key]){\n            int8Keys.push(_key);\n            isKeyExists[_key] = true;\n        }\n        int8Storage[_key] = _value;\n    }\n    function setInt16(bytes32 _key, int16 _value) external onlyAllowedContract(msg.sender) {\n        if(!isKeyExists[_key]){\n            int16Keys.push(_key);\n            isKeyExists[_key] = true;\n        }\n        int16Storage[_key] = _value;\n    }\n    function setInt32(bytes32 _key, int32 _value) external onlyAllowedContract(msg.sender) {\n        if(!isKeyExists[_key]){\n            int32Keys.push(_key);\n            isKeyExists[_key] = true;\n        }\n        int32Storage[_key] = _value;\n    }\n    function setInt64(bytes32 _key, int64 _value) external onlyAllowedContract(msg.sender) {\n        if(!isKeyExists[_key]){\n            int64Keys.push(_key);\n            isKeyExists[_key] = true;\n        }\n        int64Storage[_key] = _value;\n    }\n    function setInt128(bytes32 _key, int128 _value) external onlyAllowedContract(msg.sender) {\n        if(!isKeyExists[_key]){\n            int128Keys.push(_key);\n            isKeyExists[_key] = true;\n        }\n        int128Storage[_key] = _value;\n    }\n    function setInt(bytes32 _key, int _value) external onlyAllowedContract(msg.sender) {\n        if(!isKeyExists[_key]){\n            intKeys.push(_key);\n            isKeyExists[_key] = true;\n        }\n        intStorage[_key] = _value;\n    }\n    // bytes\n    function setBytes1(bytes32 _key, bytes1 _value) external onlyAllowedContract(msg.sender) {\n        if(!isKeyExists[_key]){\n            bytes1Keys.push(_key);\n            isKeyExists[_key] = true;\n        }\n        bytes1Storage[_key] = _value;\n    }\n    function setBytes2(bytes32 _key, bytes2 _value) external onlyAllowedContract(msg.sender) {\n        if(!isKeyExists[_key]){\n            bytes2Keys.push(_key);\n            isKeyExists[_key] = true;\n        }\n        bytes2Storage[_key] = _value;\n    }\n    function setBytes4(bytes32 _key, bytes4 _value) external onlyAllowedContract(msg.sender) {\n        if(!isKeyExists[_key]){\n            bytes4Keys.push(_key);\n            isKeyExists[_key] = true;\n        }\n        bytes4Storage[_key] = _value;\n    }\n    function setBytes8(bytes32 _key, bytes8 _value) external onlyAllowedContract(msg.sender) {\n        if(!isKeyExists[_key]){\n            bytes8Keys.push(_key);\n            isKeyExists[_key] = true;\n        }\n        bytes8Storage[_key] = _value;\n    }\n    function setBytes16(bytes32 _key, bytes16 _value) external onlyAllowedContract(msg.sender) {\n        if(!isKeyExists[_key]){\n            bytes16Keys.push(_key);\n            isKeyExists[_key] = true;\n        }\n        bytes16Storage[_key] = _value;\n    }\n    function setBytes20(bytes32 _key, bytes20 _value) external onlyAllowedContract(msg.sender) {\n        if(!isKeyExists[_key]){\n            bytes20Keys.push(_key);\n            isKeyExists[_key] = true;\n        }\n        bytes20Storage[_key] = _value;\n    }\n    function setBytes32(bytes32 _key, bytes32 _value) external onlyAllowedContract(msg.sender) {\n        if(!isKeyExists[_key]){\n            bytes32Keys.push(_key);\n            isKeyExists[_key] = true;\n        }\n        bytes32Storage[_key] = _value;\n    }\n    function setBytes(bytes32 _key, bytes memory _value) public onlyAllowedContract(msg.sender) {\n        if(!isKeyExists[_key]){\n            bytesKeys.push(_key);\n            isKeyExists[_key] = true;\n        }\n        bytesStorage[_key] = _value;\n    }\n\n    // ------------------------------------ DELETE ------------------------------------ //\n    function deleteAddress(bytes32 _key) external onlyAllowedContract(msg.sender) {\n        delete addressStorage[_key];\n    }\n    function deleteString(bytes32 _key) external onlyAllowedContract(msg.sender) {\n        delete stringStorage[_key];\n    }\n    function deleteBool(bytes32 _key) external onlyAllowedContract(msg.sender) {\n        delete boolStorage[_key];\n    }\n    // uint\n    function deleteUint8(bytes32 _key) external onlyAllowedContract(msg.sender) {\n        delete uInt8Storage[_key];\n    }\n    function deleteUint16(bytes32 _key) external onlyAllowedContract(msg.sender) {\n        delete uInt16Storage[_key];\n    }\n    function deleteUint32(bytes32 _key) external onlyAllowedContract(msg.sender) {\n        delete uInt32Storage[_key];\n    }\n    function deleteUint64(bytes32 _key) external onlyAllowedContract(msg.sender) {\n        delete uInt64Storage[_key];\n    }\n    function deleteUint128(bytes32 _key) external onlyAllowedContract(msg.sender) {\n        delete uInt128Storage[_key];\n    }\n    function deleteUint(bytes32 _key) external onlyAllowedContract(msg.sender) {\n        delete uIntStorage[_key];\n    }\n    // int\n    function deleteint8(bytes32 _key) external onlyAllowedContract(msg.sender) {\n        delete int8Storage[_key];\n    }\n    function deleteint16(bytes32 _key) external onlyAllowedContract(msg.sender) {\n        delete int16Storage[_key];\n    }\n    function deleteint32(bytes32 _key) external onlyAllowedContract(msg.sender) {\n        delete int32Storage[_key];\n    }\n    function deleteint64(bytes32 _key) external onlyAllowedContract(msg.sender) {\n        delete int64Storage[_key];\n    }\n    function deleteint128(bytes32 _key) external onlyAllowedContract(msg.sender) {\n        delete int128Storage[_key];\n    }\n    function deleteint(bytes32 _key) external onlyAllowedContract(msg.sender) {\n        delete intStorage[_key];\n    }\n    // bytes\n    function deleteBytes1(bytes32 _key) external onlyAllowedContract(msg.sender) {\n        delete bytes1Storage[_key];\n    }\n    function deleteBytes2(bytes32 _key) external onlyAllowedContract(msg.sender) {\n        delete bytes2Storage[_key];\n    }\n    function deleteBytes4(bytes32 _key) external onlyAllowedContract(msg.sender) {\n        delete bytes4Storage[_key];\n    }\n    function deleteBytes8(bytes32 _key) external onlyAllowedContract(msg.sender) {\n        delete bytes8Storage[_key];\n    }\n    function deleteBytes16(bytes32 _key) external onlyAllowedContract(msg.sender) {\n        delete bytes16Storage[_key];\n    }\n    function deleteBytes20(bytes32 _key) external onlyAllowedContract(msg.sender) {\n        delete bytes20Storage[_key];\n    }\n    function deleteBytes32(bytes32 _key) external onlyAllowedContract(msg.sender) {\n        delete bytes32Storage[_key];\n    }\n    function deleteBytes(bytes32 _key) external onlyAllowedContract(msg.sender) {\n        delete bytesStorage[_key];\n    }\n\n\n    // Get Keys List\n    function getKeysListAddress(uint _from, uint _to) external view \n    onlyRegisteredStorage \n    returns(bytes32[] memory keysList_) {\n        require(addressKeys.length>0, \"No keys found\");\n        require(_from<addressKeys.length, \"Invalid From Index\");\n        uint toIndex = _to;\n        if(_from==0 && _to==0){\n            toIndex = addressKeys.length;\n        }\n        if(_to>addressKeys.length){\n            toIndex = addressKeys.length;\n        }\n        keysList_ = new bytes32[](toIndex-_from);\n        for (uint256 index = _from; index < toIndex; index++) {\n            keysList_[index-_from] = addressKeys[index];\n        }\n    }\n\n    function getKeysListString(uint _from, uint _to) external view \n    onlyRegisteredStorage \n    returns(bytes32[] memory keysList_) {\n        require(stringKeys.length>0, \"No keys found\");\n        require(_from<stringKeys.length, \"Invalid From Index\");\n        uint toIndex = _to;\n        if(_from==0 && _to==0){\n            toIndex = stringKeys.length;\n        }\n        if(_to>stringKeys.length){\n            toIndex = stringKeys.length;\n        }\n        keysList_ = new bytes32[](toIndex-_from);\n        for (uint256 index = _from; index < toIndex; index++) {\n            keysList_[index-_from] = stringKeys[index];\n        }\n    }\n\n    function getKeysListBool(uint _from, uint _to) external view \n    onlyRegisteredStorage \n    returns(bytes32[] memory keysList_) {\n        require(boolKeys.length>0, \"No keys found\");\n        require(_from<boolKeys.length, \"Invalid From Index\");\n        uint toIndex = _to;\n        if(_from==0 && _to==0){\n            toIndex = boolKeys.length;\n        }\n        if(_to>boolKeys.length){\n            toIndex = boolKeys.length;\n        }\n        keysList_ = new bytes32[](toIndex-_from);\n        for (uint256 index = _from; index < toIndex; index++) {\n            keysList_[index-_from] = boolKeys[index];\n        }\n    }\n\n    function getKeysListUint8(uint _from, uint _to) external view \n    onlyRegisteredStorage \n    returns(bytes32[] memory keysList_) {\n        require(uInt8Keys.length>0, \"No keys found\");\n        require(_from<uInt8Keys.length, \"Invalid From Index\");\n        uint toIndex = _to;\n        if(_from==0 && _to==0){\n            toIndex = uInt8Keys.length;\n        }\n        if(_to>uInt8Keys.length){\n            toIndex = uInt8Keys.length;\n        }\n        keysList_ = new bytes32[](toIndex-_from);\n        for (uint256 index = _from; index < toIndex; index++) {\n            keysList_[index-_from] = uInt8Keys[index];\n        }\n    }\n\n    function getKeysListUint16(uint _from, uint _to) external view \n    onlyRegisteredStorage \n    returns(bytes32[] memory keysList_) {\n        require(uInt16Keys.length>0, \"No keys found\");\n        require(_from<uInt16Keys.length, \"Invalid From Index\");\n        uint toIndex = _to;\n        if(_from==0 && _to==0){\n            toIndex = uInt16Keys.length;\n        }\n        if(_to>uInt16Keys.length){\n            toIndex = uInt16Keys.length;\n        }\n        keysList_ = new bytes32[](toIndex-_from);\n        for (uint256 index = _from; index < toIndex; index++) {\n            keysList_[index-_from] = uInt16Keys[index];\n        }\n    }\n\n    function getKeysListUint32(uint _from, uint _to) external view \n    onlyRegisteredStorage \n    returns(bytes32[] memory keysList_) {\n        require(uInt32Keys.length>0, \"No keys found\");\n        require(_from<uInt32Keys.length, \"Invalid From Index\");\n        uint toIndex = _to;\n        if(_from==0 && _to==0){\n            toIndex = uInt32Keys.length;\n        }\n        if(_to>uInt32Keys.length){\n            toIndex = uInt32Keys.length;\n        }\n        keysList_ = new bytes32[](toIndex-_from);\n        for (uint256 index = _from; index < toIndex; index++) {\n            keysList_[index-_from] = uInt32Keys[index];\n        }\n    }\n\n    function getKeysListUint64(uint _from, uint _to) external view \n    onlyRegisteredStorage \n    returns(bytes32[] memory keysList_) {\n        require(uInt64Keys.length>0, \"No keys found\");\n        require(_from<uInt64Keys.length, \"Invalid From Index\");\n        uint toIndex = _to;\n        if(_from==0 && _to==0){\n            toIndex = uInt64Keys.length;\n        }\n        if(_to>uInt64Keys.length){\n            toIndex = uInt64Keys.length;\n        }\n        keysList_ = new bytes32[](toIndex-_from);\n        for (uint256 index = _from; index < toIndex; index++) {\n            keysList_[index-_from] = uInt64Keys[index];\n        }\n    }\n\n    function getKeysListUint128(uint _from, uint _to) external view \n    onlyRegisteredStorage \n    returns(bytes32[] memory keysList_) {\n        require(uInt128Keys.length>0, \"No keys found\");\n        require(_from<uInt128Keys.length, \"Invalid From Index\");\n        uint toIndex = _to;\n        if(_from==0 && _to==0){\n            toIndex = uInt128Keys.length;\n        }\n        if(_to>uInt128Keys.length){\n            toIndex = uInt128Keys.length;\n        }\n        keysList_ = new bytes32[](toIndex-_from);\n        for (uint256 index = _from; index < toIndex; index++) {\n            keysList_[index-_from] = uInt128Keys[index];\n        }\n    }\n    \n    function getKeysListUint(uint _from, uint _to) external view \n    onlyRegisteredStorage \n    returns(bytes32[] memory keysList_) {\n        require(uIntKeys.length>0, \"No keys found\");\n        require(_from<uIntKeys.length, \"Invalid From Index\");\n        uint toIndex = _to;\n        if(_from==0 && _to==0){\n            toIndex = uIntKeys.length;\n        }\n        if(_to>uIntKeys.length){\n            toIndex = uIntKeys.length;\n        }\n        keysList_ = new bytes32[](toIndex-_from);\n        for (uint256 index = _from; index < toIndex; index++) {\n            keysList_[index-_from] = uIntKeys[index];\n        }\n    }\n\n    function getKeysListInt8(uint _from, uint _to) external view \n    onlyRegisteredStorage \n    returns(bytes32[] memory keysList_) {\n        require(int8Keys.length>0, \"No keys found\");\n        require(_from<int8Keys.length, \"Invalid From Index\");\n        uint toIndex = _to;\n        if(_from==0 && _to==0){\n            toIndex = int8Keys.length;\n        }\n        if(_to>int8Keys.length){\n            toIndex = int8Keys.length;\n        }\n        keysList_ = new bytes32[](toIndex-_from);\n        for (uint256 index = _from; index < toIndex; index++) {\n            keysList_[index-_from] = int8Keys[index];\n        }\n    }\n\n    function getKeysListInt16(uint _from, uint _to) external view \n    onlyRegisteredStorage \n    returns(bytes32[] memory keysList_) {\n        require(int16Keys.length>0, \"No keys found\");\n        require(_from<int16Keys.length, \"Invalid From Index\");\n        uint toIndex = _to;\n        if(_from==0 && _to==0){\n            toIndex = int16Keys.length;\n        }\n        if(_to>int16Keys.length){\n            toIndex = int16Keys.length;\n        }\n        keysList_ = new bytes32[](toIndex-_from);\n        for (uint256 index = _from; index < toIndex; index++) {\n            keysList_[index-_from] = int16Keys[index];\n        }\n    }\n\n    function getKeysListInt32(uint _from, uint _to) external view \n    onlyRegisteredStorage \n    returns(bytes32[] memory keysList_) {\n        require(int32Keys.length>0, \"No keys found\");\n        require(_from<int32Keys.length, \"Invalid From Index\");\n        uint toIndex = _to;\n        if(_from==0 && _to==0){\n            toIndex = int32Keys.length;\n        }\n        if(_to>int32Keys.length){\n            toIndex = int32Keys.length;\n        }\n        keysList_ = new bytes32[](toIndex-_from);\n        for (uint256 index = _from; index < toIndex; index++) {\n            keysList_[index-_from] = int32Keys[index];\n        }\n    }\n\n    function getKeysListInt64(uint _from, uint _to) external view \n    onlyRegisteredStorage \n    returns(bytes32[] memory keysList_) {\n        require(int64Keys.length>0, \"No keys found\");\n        require(_from<int64Keys.length, \"Invalid From Index\");\n        uint toIndex = _to;\n        if(_from==0 && _to==0){\n            toIndex = int64Keys.length;\n        }\n        if(_to>int64Keys.length){\n            toIndex = int64Keys.length;\n        }\n        keysList_ = new bytes32[](toIndex-_from);\n        for (uint256 index = _from; index < toIndex; index++) {\n            keysList_[index-_from] = int64Keys[index];\n        }\n    }\n\n    function getKeysListInt128(uint _from, uint _to) external view \n    onlyRegisteredStorage \n    returns(bytes32[] memory keysList_) {\n        require(int128Keys.length>0, \"No keys found\");\n        require(_from<int128Keys.length, \"Invalid From Index\");\n        uint toIndex = _to;\n        if(_from==0 && _to==0){\n            toIndex = int128Keys.length;\n        }\n        if(_to>int128Keys.length){\n            toIndex = int128Keys.length;\n        }\n        keysList_ = new bytes32[](toIndex-_from);\n        for (uint256 index = _from; index < toIndex; index++) {\n            keysList_[index-_from] = int128Keys[index];\n        }\n    }\n    \n    function getKeysListInt(uint _from, uint _to) external view \n    onlyRegisteredStorage \n    returns(bytes32[] memory keysList_) {\n        require(intKeys.length>0, \"No keys found\");\n        require(_from<intKeys.length, \"Invalid From Index\");\n        uint toIndex = _to;\n        if(_from==0 && _to==0){\n            toIndex = intKeys.length;\n        }\n        if(_to>intKeys.length){\n            toIndex = intKeys.length;\n        }\n        keysList_ = new bytes32[](toIndex-_from);\n        for (uint256 index = _from; index < toIndex; index++) {\n            keysList_[index-_from] = intKeys[index];\n        }\n    }\n    \n    function getKeysListBytes1(uint _from, uint _to) external view \n    onlyRegisteredStorage \n    returns(bytes32[] memory keysList_) {\n        require(bytes1Keys.length>0, \"No keys found\");\n        require(_from<bytes1Keys.length, \"Invalid From Index\");\n        uint toIndex = _to;\n        if(_from==0 && _to==0){\n            toIndex = bytes1Keys.length;\n        }\n        if(_to>bytes1Keys.length){\n            toIndex = bytes1Keys.length;\n        }\n        keysList_ = new bytes32[](toIndex-_from);\n        for (uint256 index = _from; index < toIndex; index++) {\n            keysList_[index-_from] = bytes1Keys[index];\n        }\n    }\n    \n    function getKeysListBytes2(uint _from, uint _to) external view \n    onlyRegisteredStorage \n    returns(bytes32[] memory keysList_) {\n        require(bytes2Keys.length>0, \"No keys found\");\n        require(_from<bytes2Keys.length, \"Invalid From Index\");\n        uint toIndex = _to;\n        if(_from==0 && _to==0){\n            toIndex = bytes2Keys.length;\n        }\n        if(_to>bytes2Keys.length){\n            toIndex = bytes2Keys.length;\n        }\n        keysList_ = new bytes32[](toIndex-_from);\n        for (uint256 index = _from; index < toIndex; index++) {\n            keysList_[index-_from] = bytes2Keys[index];\n        }\n    }\n    \n    function getKeysListBytes4(uint _from, uint _to) external view \n    onlyRegisteredStorage \n    returns(bytes32[] memory keysList_) {\n        require(bytes4Keys.length>0, \"No keys found\");\n        require(_from<bytes4Keys.length, \"Invalid From Index\");\n        uint toIndex = _to;\n        if(_from==0 && _to==0){\n            toIndex = bytes4Keys.length;\n        }\n        if(_to>bytes4Keys.length){\n            toIndex = bytes4Keys.length;\n        }\n        keysList_ = new bytes32[](toIndex-_from);\n        for (uint256 index = _from; index < toIndex; index++) {\n            keysList_[index-_from] = bytes4Keys[index];\n        }\n    }\n    \n    function getKeysListBytes8(uint _from, uint _to) external view \n    onlyRegisteredStorage \n    returns(bytes32[] memory keysList_) {\n        require(bytes8Keys.length>0, \"No keys found\");\n        require(_from<bytes8Keys.length, \"Invalid From Index\");\n        uint toIndex = _to;\n        if(_from==0 && _to==0){\n            toIndex = bytes8Keys.length;\n        }\n        if(_to>bytes8Keys.length){\n            toIndex = bytes8Keys.length;\n        }\n        keysList_ = new bytes32[](toIndex-_from);\n        for (uint256 index = _from; index < toIndex; index++) {\n            keysList_[index-_from] = bytes8Keys[index];\n        }\n    }\n    \n    function getKeysListBytes16(uint _from, uint _to) external view \n    onlyRegisteredStorage \n    returns(bytes32[] memory keysList_) {\n        require(bytes16Keys.length>0, \"No keys found\");\n        require(_from<bytes16Keys.length, \"Invalid From Index\");\n        uint toIndex = _to;\n        if(_from==0 && _to==0){\n            toIndex = bytes16Keys.length;\n        }\n        if(_to>bytes16Keys.length){\n            toIndex = bytes16Keys.length;\n        }\n        keysList_ = new bytes32[](toIndex-_from);\n        for (uint256 index = _from; index < toIndex; index++) {\n            keysList_[index-_from] = bytes16Keys[index];\n        }\n    }\n    \n    function getKeysListBytes20(uint _from, uint _to) external view \n    onlyRegisteredStorage \n    returns(bytes32[] memory keysList_) {\n        require(bytes20Keys.length>0, \"No keys found\");\n        require(_from<bytes20Keys.length, \"Invalid From Index\");\n        uint toIndex = _to;\n        if(_from==0 && _to==0){\n            toIndex = bytes20Keys.length;\n        }\n        if(_to>bytes20Keys.length){\n            toIndex = bytes20Keys.length;\n        }\n        keysList_ = new bytes32[](toIndex-_from);\n        for (uint256 index = _from; index < toIndex; index++) {\n            keysList_[index-_from] = bytes20Keys[index];\n        }\n    }\n    \n    function getKeysListBytes32(uint _from, uint _to) external view \n    onlyRegisteredStorage \n    returns(bytes32[] memory keysList_) {\n        require(bytes32Keys.length>0, \"No keys found\");\n        require(_from<bytes32Keys.length, \"Invalid From Index\");\n        uint toIndex = _to;\n        if(_from==0 && _to==0){\n            toIndex = bytes32Keys.length;\n        }\n        if(_to>bytes32Keys.length){\n            toIndex = bytes32Keys.length;\n        }\n        keysList_ = new bytes32[](toIndex-_from);\n        for (uint256 index = _from; index < toIndex; index++) {\n            keysList_[index-_from] = bytes32Keys[index];\n        }\n    }\n    \n    function getKeysListBytes(uint _from, uint _to) external view \n    onlyRegisteredStorage \n    returns(bytes32[] memory keysList_) {\n        require(bytesKeys.length>0, \"No keys found\");\n        require(_from<bytesKeys.length, \"Invalid From Index\");\n        uint toIndex = _to;\n        if(_from==0 && _to==0){\n            toIndex = bytesKeys.length;\n        }\n        if(_to>bytesKeys.length){\n            toIndex = bytesKeys.length;\n        }\n        keysList_ = new bytes32[](toIndex-_from);\n        for (uint256 index = _from; index < toIndex; index++) {\n            keysList_[index-_from] = bytesKeys[index];\n        }\n    }\n\n}",
  "sourcePath": "/home/raghupathi/Desktop/javaClass/javaClass/contracts/QuireStorage.sol",
  "compiler": {
    "name": "solc",
    "version": "0.8.20+commit.a1b79de6.Emscripten.clang"
  },
  "schemaVersion": "3.4.14",
  "updatedAt": "2023-06-02T09:43:22.654Z",
  "devdoc": {
    "kind": "dev",
    "methods": {
      "changeQuireUpgradable(address)": {
        "details": "this function should be prevented from being executed accidentally,  as this could stop future updates",
        "params": {
          "_proposedUpgradable": "address of the new storage contract"
        }
      },
      "isContractAuthorized(address)": {
        "params": {
          "_accountAddress": "Address of account contract whose access needs to be checked"
        }
      },
      "registerAddress(address)": {
        "params": {
          "_account": "Address of account or contract whose access needs to be updated"
        }
      },
      "registerSecondaryStorage(address)": {
        "params": {
          "_storage": "Address of the new storage contract"
        }
      },
      "unregisterAddress(address)": {
        "params": {
          "_account": "Address of account or contract whose access needs to be updated"
        }
      }
    },
    "stateVariables": {
      "KEY": {
        "details": "The value of KEY should never be updated after first deployment"
      }
    },
    "title": "Quire Storage contract",
    "version": 1
  },
  "userdoc": {
    "kind": "user",
    "methods": {
      "changeQuireUpgradable(address)": {
        "notice": "changes the upgradable contract address to the new address. Can be executed by guardian account only"
      },
      "isContractAuthorized(address)": {
        "notice": "Returns true if an account/contract is allowed access to this contract's methods"
      },
      "registerAddress(address)": {
        "notice": "Gives access to the methods of this contract to an account"
      },
      "registerSecondaryStorage(address)": {
        "notice": "Registers another storage contract.  This new contract will be able to fetch all the keys in this contract and replicate the storage of this contract."
      },
      "unregisterAddress(address)": {
        "notice": "Revokes access to the methods of this contract to an account"
      }
    },
    "notice": "This contract holds all the data on behalf of other contracts. There is a mapping to store data for each data type. Not all contracts/accounts can fetch/push data to this contract. Some contracts/accounts will be given access via the QuireUpgradable.sol contract and only they can execute the READ and WRITE in this contract. Look at the method updateContractDatabaseAccess() for more details.",
    "version": 1
  }
}