{
  "contractName": "UidUtils",
  "abi": [
    {
      "inputs": [],
      "stateMutability": "nonpayable",
      "type": "constructor"
    },
    {
      "inputs": [
        {
          "internalType": "uint8",
          "name": "_inputChar",
          "type": "uint8"
        }
      ],
      "name": "isUtfCharAllowed",
      "outputs": [
        {
          "internalType": "bool",
          "name": "",
          "type": "bool"
        }
      ],
      "stateMutability": "view",
      "type": "function"
    },
    {
      "inputs": [
        {
          "internalType": "uint8",
          "name": "_input",
          "type": "uint8"
        }
      ],
      "name": "utfToUintDomain",
      "outputs": [
        {
          "internalType": "uint8",
          "name": "output_",
          "type": "uint8"
        }
      ],
      "stateMutability": "view",
      "type": "function"
    },
    {
      "inputs": [
        {
          "internalType": "bytes32",
          "name": "_input",
          "type": "bytes32"
        }
      ],
      "name": "bytes32ToAlphanumeric7",
      "outputs": [
        {
          "internalType": "string",
          "name": "alphanumeric7_",
          "type": "string"
        }
      ],
      "stateMutability": "view",
      "type": "function"
    },
    {
      "inputs": [
        {
          "internalType": "string",
          "name": "_input",
          "type": "string"
        }
      ],
      "name": "addLuhnCheckDigit",
      "outputs": [
        {
          "internalType": "string",
          "name": "_output",
          "type": "string"
        }
      ],
      "stateMutability": "view",
      "type": "function"
    }
  ],
  "bytecode": "0x608060405260245f806101000a81548160ff021916908360ff1602179055505f67ffffffffffffffff8111156200003b576200003a6200046c565b5b6040519080825280602002602001820160405280156200006a5781602001602082028036833780820191505090505b506001908051906020019062000082929190620003a6565b503480156200008f575f80fd5b506001805490506024620000a49190620004d2565b5f806101000a81548160ff021916908360ff160217905550620000cc620000d260201b60201c565b620005a2565b603060025f8060ff1681526020019081526020015f205f6101000a81548160ff021916908360ff1602179055505b6200013160025f8060ff1681526020019081526020015f205f9054906101000a900460ff16620002de60201b60201c565b620001965760025f8060ff1681526020019081526020015f205f9054906101000a900460ff1660016200016591906200050d565b60025f8060ff1681526020019081526020015f205f6101000a81548160ff021916908360ff16021790555062000100565b5f600190505b5f8054906101000a900460ff1660ff168160ff161015620002db57600160025f600184620001cb9190620004d2565b60ff1660ff1681526020019081526020015f205f9054906101000a900460ff16620001f791906200050d565b60025f8360ff1660ff1681526020019081526020015f205f6101000a81548160ff021916908360ff1602179055505b6200025a60025f8360ff1660ff1681526020019081526020015f205f9054906101000a900460ff16620002de60201b60201c565b620002c55760025f8260ff1660ff1681526020019081526020015f205f9054906101000a900460ff1660016200029191906200050d565b60025f8360ff1660ff1681526020019081526020015f205f6101000a81548160ff021916908360ff16021790555062000226565b8080620002d29062000548565b9150506200019c565b50565b5f60308260ff161080620002f55750605a8260ff16115b8062000314575060398260ff1611801562000313575060418260ff16105b5b1562000323575f9050620003a1565b5f5b6001805490508160ff1610156200039b578260ff1660018260ff168154811062000354576200035362000575565b5b905f5260205f2090602091828204019190069054906101000a900460ff1660ff160362000385575f915050620003a1565b8080620003929062000548565b91505062000325565b50600190505b919050565b828054828255905f5260205f2090601f016020900481019282156200043c579160200282015f5b838211156200040c57835183826101000a81548160ff021916908360ff16021790555092602001926001016020815f01049283019260010302620003cd565b80156200043a5782816101000a81549060ff02191690556001016020815f010492830192600103026200040c565b505b5090506200044b91906200044f565b5090565b5b8082111562000468575f815f90555060010162000450565b5090565b7f4e487b71000000000000000000000000000000000000000000000000000000005f52604160045260245ffd5b5f60ff82169050919050565b7f4e487b71000000000000000000000000000000000000000000000000000000005f52601160045260245ffd5b5f620004de8262000499565b9150620004eb8362000499565b9250828203905060ff811115620005075762000506620004a5565b5b92915050565b5f620005198262000499565b9150620005268362000499565b9250828201905060ff811115620005425762000541620004a5565b5b92915050565b5f620005548262000499565b915060ff82036200056a5762000569620004a5565b5b600182019050919050565b7f4e487b71000000000000000000000000000000000000000000000000000000005f52603260045260245ffd5b610d9880620005b05f395ff3fe608060405234801561000f575f80fd5b506004361061004a575f3560e01c8063029d7bcb1461004e5780635eeba8031461007e5780636057ed41146100ae578063c359a6c1146100de575b5f80fd5b610068600480360381019061006391906106b1565b61010e565b60405161007591906106eb565b60405180910390f35b610098600480360381019061009391906106b1565b6101c1565b6040516100a5919061071e565b60405180910390f35b6100c860048036038101906100c39190610873565b61027b565b6040516100d59190610934565b60405180910390f35b6100f860048036038101906100f39190610987565b610597565b6040516101059190610934565b60405180910390f35b5f805f90505b5f8054906101000a900460ff1660ff168160ff16101561017a578260ff1660025f8360ff1660ff1681526020019081526020015f205f9054906101000a900460ff1660ff160361016757809150506101bc565b8080610172906109df565b915050610114565b505f6101bb576040517f08c379a00000000000000000000000000000000000000000000000000000000081526004016101b290610a51565b60405180910390fd5b5b919050565b5f60308260ff1610806101d75750605a8260ff16115b806101f4575060398260ff161180156101f3575060418260ff16105b5b15610201575f9050610276565b5f5b6001805490508160ff161015610270578260ff1660018260ff168154811061022e5761022d610a6f565b5b905f5260205f2090602091828204019190069054906101000a900460ff1660ff160361025d575f915050610276565b8080610268906109df565b915050610203565b50600190505b919050565b60605f825190505f8167ffffffffffffffff81111561029d5761029c61074f565b5b6040519080825280602002602001820160405280156102cb5781602001602082028036833780820191505090505b5090505f805b838110156104f35761031986826001876102eb9190610aa5565b6102f59190610aa5565b8151811061030657610305610a6f565b5b602001015160f81c60f81b60f81c61010e565b83826001876103289190610aa5565b6103329190610aa5565b8151811061034357610342610a6f565b5b602002602001019060ff16908160ff16815250505f6002826103659190610b05565b03610433575f8054906101000a900460ff1683826001876103869190610aa5565b6103909190610aa5565b815181106103a1576103a0610a6f565b5b602002602001015160026103b59190610b35565b6103bf9190610b71565b5f8054906101000a900460ff1684836001886103db9190610aa5565b6103e59190610aa5565b815181106103f6576103f5610a6f565b5b6020026020010151600261040a9190610b35565b6104149190610ba1565b61041e9190610bd1565b60ff168261042c9190610c05565b91506104e0565b5f8054906101000a900460ff16838260018761044f9190610aa5565b6104599190610aa5565b8151811061046a57610469610a6f565b5b602002602001015161047c9190610b71565b5f8054906101000a900460ff1684836001886104989190610aa5565b6104a29190610aa5565b815181106104b3576104b2610a6f565b5b60200260200101516104c59190610ba1565b6104cf9190610bd1565b60ff16826104dd9190610c05565b91505b80806104eb90610c38565b9150506102d1565b505f8054906101000a900460ff1660ff165f8054906101000a900460ff1660ff168261051f9190610b05565b5f8054906101000a900460ff1660ff166105399190610aa5565b6105439190610b05565b90508460025f8360ff1660ff1681526020019081526020015f205f9054906101000a900460ff1660f81b60405160200161057e929190610d04565b6040516020818303038152906040529350505050919050565b60606040516020016105a890610d4e565b60405160208183030381529060405290505f805f90505b60078160ff161015610663575f8054906101000a900460ff1660088260046105e79190610b35565b6105f19190610b35565b60ff1685901b60f81c6106049190610b71565b91508260025f8460ff1660ff1681526020019081526020015f205f9054906101000a900460ff1660f81b60405160200161063f929190610d04565b6040516020818303038152906040529250808061065b906109df565b9150506105bf565b5050919050565b5f604051905090565b5f80fd5b5f80fd5b5f60ff82169050919050565b6106908161067b565b811461069a575f80fd5b50565b5f813590506106ab81610687565b92915050565b5f602082840312156106c6576106c5610673565b5b5f6106d38482850161069d565b91505092915050565b6106e58161067b565b82525050565b5f6020820190506106fe5f8301846106dc565b92915050565b5f8115159050919050565b61071881610704565b82525050565b5f6020820190506107315f83018461070f565b92915050565b5f80fd5b5f80fd5b5f601f19601f8301169050919050565b7f4e487b71000000000000000000000000000000000000000000000000000000005f52604160045260245ffd5b6107858261073f565b810181811067ffffffffffffffff821117156107a4576107a361074f565b5b80604052505050565b5f6107b661066a565b90506107c2828261077c565b919050565b5f67ffffffffffffffff8211156107e1576107e061074f565b5b6107ea8261073f565b9050602081019050919050565b828183375f83830152505050565b5f610817610812846107c7565b6107ad565b9050828152602081018484840111156108335761083261073b565b5b61083e8482856107f7565b509392505050565b5f82601f83011261085a57610859610737565b5b813561086a848260208601610805565b91505092915050565b5f6020828403121561088857610887610673565b5b5f82013567ffffffffffffffff8111156108a5576108a4610677565b5b6108b184828501610846565b91505092915050565b5f81519050919050565b5f82825260208201905092915050565b5f5b838110156108f15780820151818401526020810190506108d6565b5f8484015250505050565b5f610906826108ba565b61091081856108c4565b93506109208185602086016108d4565b6109298161073f565b840191505092915050565b5f6020820190508181035f83015261094c81846108fc565b905092915050565b5f819050919050565b61096681610954565b8114610970575f80fd5b50565b5f813590506109818161095d565b92915050565b5f6020828403121561099c5761099b610673565b5b5f6109a984828501610973565b91505092915050565b7f4e487b71000000000000000000000000000000000000000000000000000000005f52601160045260245ffd5b5f6109e98261067b565b915060ff82036109fc576109fb6109b2565b5b600182019050919050565b7f43686172204e6f7420416c6c6f776564000000000000000000000000000000005f82015250565b5f610a3b6010836108c4565b9150610a4682610a07565b602082019050919050565b5f6020820190508181035f830152610a6881610a2f565b9050919050565b7f4e487b71000000000000000000000000000000000000000000000000000000005f52603260045260245ffd5b5f819050919050565b5f610aaf82610a9c565b9150610aba83610a9c565b9250828203905081811115610ad257610ad16109b2565b5b92915050565b7f4e487b71000000000000000000000000000000000000000000000000000000005f52601260045260245ffd5b5f610b0f82610a9c565b9150610b1a83610a9c565b925082610b2a57610b29610ad8565b5b828206905092915050565b5f610b3f8261067b565b9150610b4a8361067b565b9250828202610b588161067b565b9150808214610b6a57610b696109b2565b5b5092915050565b5f610b7b8261067b565b9150610b868361067b565b925082610b9657610b95610ad8565b5b828206905092915050565b5f610bab8261067b565b9150610bb68361067b565b925082610bc657610bc5610ad8565b5b828204905092915050565b5f610bdb8261067b565b9150610be68361067b565b9250828201905060ff811115610bff57610bfe6109b2565b5b92915050565b5f610c0f82610a9c565b9150610c1a83610a9c565b9250828201905080821115610c3257610c316109b2565b5b92915050565b5f610c4282610a9c565b91507fffffffffffffffffffffffffffffffffffffffffffffffffffffffffffffffff8203610c7457610c736109b2565b5b600182019050919050565b5f81905092915050565b5f610c93826108ba565b610c9d8185610c7f565b9350610cad8185602086016108d4565b80840191505092915050565b5f7fff0000000000000000000000000000000000000000000000000000000000000082169050919050565b5f819050919050565b610cfe610cf982610cb9565b610ce4565b82525050565b5f610d0f8285610c89565b9150610d1b8284610ced565b6001820191508190509392505050565b50565b5f610d395f83610c7f565b9150610d4482610d2b565b5f82019050919050565b5f610d5882610d2e565b915081905091905056fea2646970667358221220d37697804d3cc2adfa596681e06f7057883efb16033b91ee99df40769c7c60ce64736f6c63430008140033",
  "immutableReferences": {},
  "source": "pragma solidity ^0.8.0;\n\ncontract UidUtils {\n\n    uint8 private allowedCharsLength = 36;\n\n    // To not include letters or digits in the Generated UID, add them in disallowedChars array like below\n    // [uint8(bytes1('8')), uint8(bytes1('B'))];\n    uint8[] private disallowedChars = new uint8[](0);\n\n    // For all alphanumerics, 0 maps to 48, 9 to 57, 10 to 65 i.e A, 35 to 90, i.e. Z\n    mapping(uint8 => uint8) private utfCharAtIndex;\n\n    constructor(){\n        allowedCharsLength = 36 - (uint8)(disallowedChars.length);\n        _fillCharMap();\n    }\n\n    function _fillCharMap() private {\n        utfCharAtIndex[0] = 48;\n        while(!isUtfCharAllowed(utfCharAtIndex[0])){\n            utfCharAtIndex[0] = 1 + utfCharAtIndex[0];\n        }\n        for (uint8 i = 1; i < allowedCharsLength; i++) {\n            utfCharAtIndex[i] = utfCharAtIndex[i-1] + 1;\n            while(!isUtfCharAllowed(utfCharAtIndex[i])){\n                utfCharAtIndex[i] = 1 + utfCharAtIndex[i];\n            }\n        }\n    }\n\n    function isUtfCharAllowed(uint8 _inputChar) public view \n    returns(bool) {\n        if(_inputChar<48 || _inputChar >90 || (_inputChar>57&&_inputChar<65)){\n            return false;\n        }\n        for (uint8 i = 0; i < disallowedChars.length; i++) {\n            if(disallowedChars[i]==_inputChar) {\n                return false;\n            }\n        }\n        return true;\n    }\n\n    function utfToUintDomain(uint8 _input) public view \n    returns(uint8 output_) {\n        for (uint8 i = 0; i < allowedCharsLength; i++) {\n            if(utfCharAtIndex[i]==_input){\n                return i;\n            }\n        }\n        require(false, \"Char Not Allowed\");\n    }\n\n\n    function bytes32ToAlphanumeric7(bytes32 _input) public view \n    returns(string memory alphanumeric7_) {\n        alphanumeric7_ = string(abi.encodePacked(''));\n        uint8 digit;\n        for (uint8 i = 0; i < 7; i++) {\n            digit = uint8((bytes1)(_input<<(4*i*8)))%allowedCharsLength;\n            alphanumeric7_ = string(abi.encodePacked(alphanumeric7_,bytes1(utfCharAtIndex[digit])));\n        }\n    }\n\n    function addLuhnCheckDigit(string memory _input) public view \n    returns(string memory _output) {\n        uint length = bytes(_input).length;\n        uint8[] memory chars = new uint8[](length);\n        uint sum = 0;\n        for(uint i=0; i<length; i++){\n            chars[length-1-i] = utfToUintDomain(uint8(bytes(_input)[length-1-i]));\n            if(i%2==0){\n                sum += (2*chars[length-1-i]/allowedCharsLength) + ((2*chars[length-1-i])%allowedCharsLength);\n            }\n            else{\n                sum += (chars[length-1-i]/allowedCharsLength) + ((chars[length-1-i])%allowedCharsLength);\n            }\n        }\n        sum = (allowedCharsLength - (sum % allowedCharsLength)) % allowedCharsLength;\n        _output = string(abi.encodePacked(_input,bytes1(uint8(utfCharAtIndex[uint8(sum)]))));\n    }\n\n}",
  "sourcePath": "/home/raghupathi/Desktop/javaClass/javaClass/contracts/UidUtils.sol",
  "compiler": {
    "name": "solc",
    "version": "0.8.20+commit.a1b79de6.Emscripten.clang"
  },
  "schemaVersion": "3.4.14",
  "updatedAt": "2023-06-02T09:43:22.664Z",
  "devdoc": {
    "kind": "dev",
    "methods": {},
    "version": 1
  },
  "userdoc": {
    "kind": "user",
    "methods": {},
    "version": 1
  }
}