{
  "contractName": "VcnFunctionalModel",
  "abi": [
    {
      "inputs": [
        {
          "internalType": "address",
          "name": "_Member",
          "type": "address"
        },
        {
          "internalType": "address",
          "name": "_List",
          "type": "address"
        },
        {
          "internalType": "address",
          "name": "_Map",
          "type": "address"
        },
        {
          "internalType": "address",
          "name": "_quireContracts",
          "type": "address"
        }
      ],
      "stateMutability": "nonpayable",
      "type": "constructor"
    },
    {
      "inputs": [],
      "name": "getCurrencyTotalListLength",
      "outputs": [
        {
          "internalType": "uint256",
          "name": "",
          "type": "uint256"
        }
      ],
      "stateMutability": "view",
      "type": "function"
    },
    {
      "inputs": [],
      "name": "getCurrencyDeleteListLength",
      "outputs": [
        {
          "internalType": "uint256",
          "name": "",
          "type": "uint256"
        }
      ],
      "stateMutability": "view",
      "type": "function"
    },
    {
      "inputs": [
        {
          "internalType": "string",
          "name": "currencyName_",
          "type": "string"
        }
      ],
      "name": "getIndexByCurrencyName",
      "outputs": [
        {
          "internalType": "uint256",
          "name": "",
          "type": "uint256"
        }
      ],
      "stateMutability": "view",
      "type": "function"
    },
    {
      "inputs": [
        {
          "internalType": "string",
          "name": "currencyName_",
          "type": "string"
        }
      ],
      "name": "getCurrencyNameIndexMember",
      "outputs": [
        {
          "internalType": "string",
          "name": "",
          "type": "string"
        }
      ],
      "stateMutability": "view",
      "type": "function"
    },
    {
      "inputs": [],
      "name": "getAllCurrencyType",
      "outputs": [
        {
          "internalType": "string[]",
          "name": "currency_",
          "type": "string[]"
        }
      ],
      "stateMutability": "view",
      "type": "function"
    },
    {
      "inputs": [
        {
          "internalType": "string",
          "name": "_currency",
          "type": "string"
        }
      ],
      "name": "checkLatestCurrency",
      "outputs": [
        {
          "internalType": "bool",
          "name": "",
          "type": "bool"
        }
      ],
      "stateMutability": "view",
      "type": "function"
    },
    {
      "inputs": [
        {
          "internalType": "string",
          "name": "_currency1",
          "type": "string"
        },
        {
          "internalType": "string",
          "name": "_currency2",
          "type": "string"
        }
      ],
      "name": "validateCurrencyVersion",
      "outputs": [
        {
          "internalType": "bool",
          "name": "",
          "type": "bool"
        }
      ],
      "stateMutability": "view",
      "type": "function"
    },
    {
      "inputs": [
        {
          "internalType": "string",
          "name": "currencyName",
          "type": "string"
        }
      ],
      "name": "getAllCurrencyVersions",
      "outputs": [
        {
          "internalType": "string[]",
          "name": "",
          "type": "string[]"
        }
      ],
      "stateMutability": "view",
      "type": "function"
    },
    {
      "inputs": [
        {
          "internalType": "string",
          "name": "currencyName",
          "type": "string"
        }
      ],
      "name": "getLatestCurrencyOfIndexCurrency",
      "outputs": [
        {
          "internalType": "string",
          "name": "latestCurrency",
          "type": "string"
        }
      ],
      "stateMutability": "view",
      "type": "function"
    },
    {
      "inputs": [
        {
          "internalType": "string",
          "name": "currencyName",
          "type": "string"
        },
        {
          "internalType": "uint256",
          "name": "_index",
          "type": "uint256"
        }
      ],
      "name": "addCurrencyType",
      "outputs": [],
      "stateMutability": "nonpayable",
      "type": "function"
    },
    {
      "inputs": [],
      "name": "getCurrencyTypegetPropByKeyString",
      "outputs": [
        {
          "internalType": "string[]",
          "name": "currency_",
          "type": "string[]"
        }
      ],
      "stateMutability": "view",
      "type": "function"
    },
    {
      "inputs": [
        {
          "internalType": "string",
          "name": "currencyname",
          "type": "string"
        },
        {
          "internalType": "uint256",
          "name": "_index",
          "type": "uint256"
        }
      ],
      "name": "setIndexByCurrencyName",
      "outputs": [],
      "stateMutability": "nonpayable",
      "type": "function"
    },
    {
      "inputs": [
        {
          "internalType": "string",
          "name": "currencyName_0",
          "type": "string"
        },
        {
          "internalType": "string",
          "name": "currencyName_latest",
          "type": "string"
        }
      ],
      "name": "addNewVersionCurrencyName",
      "outputs": [],
      "stateMutability": "nonpayable",
      "type": "function"
    },
    {
      "inputs": [
        {
          "internalType": "string",
          "name": "currencyname",
          "type": "string"
        }
      ],
      "name": "deleteIndexByCurrencyName",
      "outputs": [],
      "stateMutability": "nonpayable",
      "type": "function"
    },
    {
      "inputs": [
        {
          "internalType": "string",
          "name": "currencyname",
          "type": "string"
        }
      ],
      "name": "deleteAllCurrecnyVersion",
      "outputs": [],
      "stateMutability": "nonpayable",
      "type": "function"
    },
    {
      "inputs": [],
      "name": "inCurrencyTotalLength",
      "outputs": [],
      "stateMutability": "nonpayable",
      "type": "function"
    },
    {
      "inputs": [],
      "name": "inCurrencyDeleteLength",
      "outputs": [],
      "stateMutability": "nonpayable",
      "type": "function"
    }
  ],
  "bytecode": "0x608060405234801562000010575f80fd5b506040516200412c3803806200412c8339818101604052810190620000369190620001a4565b835f806101000a81548173ffffffffffffffffffffffffffffffffffffffff021916908373ffffffffffffffffffffffffffffffffffffffff1602179055508260015f6101000a81548173ffffffffffffffffffffffffffffffffffffffff021916908373ffffffffffffffffffffffffffffffffffffffff1602179055508160025f6101000a81548173ffffffffffffffffffffffffffffffffffffffff021916908373ffffffffffffffffffffffffffffffffffffffff1602179055508060035f6101000a81548173ffffffffffffffffffffffffffffffffffffffff021916908373ffffffffffffffffffffffffffffffffffffffff1602179055505050505062000213565b5f80fd5b5f73ffffffffffffffffffffffffffffffffffffffff82169050919050565b5f6200016e8262000143565b9050919050565b620001808162000162565b81146200018b575f80fd5b50565b5f815190506200019e8162000175565b92915050565b5f805f8060808587031215620001bf57620001be6200013f565b5b5f620001ce878288016200018e565b9450506020620001e1878288016200018e565b9350506040620001f4878288016200018e565b925050606062000207878288016200018e565b91505092959194509250565b613f0b80620002215f395ff3fe608060405234801561000f575f80fd5b5060043610610109575f3560e01c80638ea15a86116100a0578063bc3731331161006f578063bc3731331461027d578063c0edc8e214610299578063ca7f68c2146102c9578063dc2bb1f2146102e5578063f0f6fa901461031557610109565b80638ea15a861461021d578063905f38981461023b578063a6bee1cd14610257578063a705bf141461026157610109565b80635e9c9f7a116100dc5780635e9c9f7a1461019557806368f740ef146101b35780638025e4c9146101d157806385529b1f146101ed57610109565b80630294acd31461010d57806307d392f21461012b57806309fdd73d146101355780635568261414610165575b5f80fd5b610115610345565b6040516101229190613300565b60405180910390f35b61013361054f565b005b61014f600480360381019061014a919061345d565b61077f565b60405161015c91906134bc565b60405180910390f35b61017f600480360381019061017a919061345d565b61088e565b60405161018c919061351d565b60405180910390f35b61019d610968565b6040516101aa9190613300565b60405180910390f35b6101bb610dc4565b6040516101c891906134bc565b60405180910390f35b6101eb60048036038101906101e69190613567565b610ecf565b005b6102076004803603810190610202919061345d565b611105565b604051610214919061351d565b60405180910390f35b6102256112ed565b60405161023291906134bc565b60405180910390f35b610255600480360381019061025091906135c1565b6113f8565b005b61025f61187d565b005b61027b6004803603810190610276919061345d565b611aad565b005b6102976004803603810190610292919061345d565b611ce2565b005b6102b360048036038101906102ae919061345d565b6123fd565b6040516102c09190613651565b60405180910390f35b6102e360048036038101906102de9190613567565b6127e0565b005b6102ff60048036038101906102fa91906135c1565b612a6f565b60405161030c9190613651565b60405180910390f35b61032f600480360381019061032a919061345d565b612d9c565b60405161033c9190613300565b60405180910390f35b6060600567ffffffffffffffff81111561036257610361613339565b5b60405190808252806020026020018201604052801561039557816020015b60608152602001906001900390816103805790505b5090505f600190505b6005811161054b575f60015f9054906101000a900473ffffffffffffffffffffffffffffffffffffffff1673ffffffffffffffffffffffffffffffffffffffff1663fa7598d56040518060400160405280601681526020017f56434e5f46554e4354494f4e414c5f4d414e41474552000000000000000000008152506040518060400160405280601281526020017f6c6973745f5f6375727265636e794c697374000000000000000000000000000081525060016040518060400160405280600c81526020017f63757272656e637954797065000000000000000000000000000000000000000081525087604051602001610499919061368a565b6040516020818303038152906040526040518663ffffffff1660e01b81526004016104c8959493929190613738565b5f60405180830381865afa1580156104e2573d5f803e3d5ffd5b505050506040513d5f823e3d601f19601f8201168201806040525081019061050a9190613813565b9050808360018461051b9190613887565b8151811061052c5761052b6138ba565b5b6020026020010181905250508080610543906138e7565b91505061039e565b5090565b60035f9054906101000a900473ffffffffffffffffffffffffffffffffffffffff1673ffffffffffffffffffffffffffffffffffffffff1663ef02a3fc6040518060400160405280601681526020017f56434e5f46554e4354494f4e414c5f4d414e41474552000000000000000000008152506040518263ffffffff1660e01b81526004016105de919061351d565b602060405180830381865afa1580156105f9573d5f803e3d5ffd5b505050506040513d601f19601f8201168201806040525081019061061d9190613988565b73ffffffffffffffffffffffffffffffffffffffff163373ffffffffffffffffffffffffffffffffffffffff161461068a576040517f08c379a0000000000000000000000000000000000000000000000000000000008152600401610681906139fd565b60405180910390fd5b60015f9054906101000a900473ffffffffffffffffffffffffffffffffffffffff1673ffffffffffffffffffffffffffffffffffffffff1663a24a899b6040518060400160405280601681526020017f56434e5f46554e4354494f4e414c5f4d414e41474552000000000000000000008152506040518060400160405280601281526020017f6c6973745f5f6375727265636e794c69737400000000000000000000000000008152506040518363ffffffff1660e01b8152600401610750929190613a1b565b5f604051808303815f87803b158015610767575f80fd5b505af1158015610779573d5f803e3d5ffd5b50505050565b5f60025f9054906101000a900473ffffffffffffffffffffffffffffffffffffffff1673ffffffffffffffffffffffffffffffffffffffff1663539c2ffb6040518060400160405280601681526020017f56434e5f46554e4354494f4e414c5f4d414e41474552000000000000000000008152506040518060400160405280601f81526020017f6d61705f5f6163636f756e74496e646578427943757272656e63794e616d6500815250856040518463ffffffff1660e01b815260040161084893929190613a50565b602060405180830381865afa158015610863573d5f803e3d5ffd5b505050506040513d601f19601f820116820180604052508101906108879190613aae565b9050919050565b60605f8054906101000a900473ffffffffffffffffffffffffffffffffffffffff1673ffffffffffffffffffffffffffffffffffffffff16633f7690ca6040518060400160405280601681526020017f56434e5f46554e4354494f4e414c5f4d414e4147455200000000000000000000815250846040518363ffffffff1660e01b815260040161091f929190613a1b565b5f60405180830381865afa158015610939573d5f803e3d5ffd5b505050506040513d5f823e3d601f19601f820116820180604052508101906109619190613813565b9050919050565b60605f610973610dc4565b90505f61097e6112ed565b90505f818361098d9190613887565b90508067ffffffffffffffff8111156109a9576109a8613339565b5b6040519080825280602002602001820160405280156109dc57816020015b60608152602001906001900390816109c75790505b5093505f80600190505b848111610dbc575f60015f9054906101000a900473ffffffffffffffffffffffffffffffffffffffff1673ffffffffffffffffffffffffffffffffffffffff1663fa7598d56040518060400160405280601681526020017f56434e5f46554e4354494f4e414c5f4d414e41474552000000000000000000008152506040518060400160405280601281526020017f6c6973745f5f6375727265636e794c697374000000000000000000000000000081525060016040518060400160405280600c81526020017f63757272656e637954797065000000000000000000000000000000000000000081525087604051602001610ae0919061368a565b6040516020818303038152906040526040518663ffffffff1660e01b8152600401610b0f959493929190613738565b5f60405180830381865afa158015610b29573d5f803e3d5ffd5b505050506040513d5f823e3d601f19601f82011682018060405250810190610b519190613813565b90505f610b5d8261077f565b14610da8575f805f9054906101000a900473ffffffffffffffffffffffffffffffffffffffff1673ffffffffffffffffffffffffffffffffffffffff16635df6d3cc6040518060400160405280601681526020017f56434e5f46554e4354494f4e414c5f4d414e4147455200000000000000000000815250846040518363ffffffff1660e01b8152600401610bf3929190613a1b565b602060405180830381865afa158015610c0e573d5f803e3d5ffd5b505050506040513d601f19601f82011682018060405250810190610c329190613aae565b90505f8103610c6d5781888581518110610c4f57610c4e6138ba565b5b60200260200101819052508380610c65906138e7565b945050610da6565b60015f9054906101000a900473ffffffffffffffffffffffffffffffffffffffff1673ffffffffffffffffffffffffffffffffffffffff16632136448c6040518060400160405280601681526020017f56434e5f46554e4354494f4e414c5f4d414e414745520000000000000000000081525084846040518060400160405280601f81526020017f4c6973745f5f76657273696f6e4f66537065636966696343757272656e6379008152506040518563ffffffff1660e01b8152600401610d379493929190613ad9565b5f60405180830381865afa158015610d51573d5f803e3d5ffd5b505050506040513d5f823e3d601f19601f82011682018060405250810190610d799190613813565b888581518110610d8c57610d8b6138ba565b5b60200260200101819052508380610da2906138e7565b9450505b505b508080610db4906138e7565b9150506109e6565b505050505090565b5f60015f9054906101000a900473ffffffffffffffffffffffffffffffffffffffff1673ffffffffffffffffffffffffffffffffffffffff16633bea27536040518060400160405280601681526020017f56434e5f46554e4354494f4e414c5f4d414e41474552000000000000000000008152506040518060400160405280601281526020017f6c6973745f5f6375727265636e794c69737400000000000000000000000000008152506040518363ffffffff1660e01b8152600401610e8b929190613a1b565b602060405180830381865afa158015610ea6573d5f803e3d5ffd5b505050506040513d601f19601f82011682018060405250810190610eca9190613aae565b905090565b60035f9054906101000a900473ffffffffffffffffffffffffffffffffffffffff1673ffffffffffffffffffffffffffffffffffffffff1663ef02a3fc6040518060400160405280601681526020017f56434e5f46554e4354494f4e414c5f4d414e41474552000000000000000000008152506040518263ffffffff1660e01b8152600401610f5e919061351d565b602060405180830381865afa158015610f79573d5f803e3d5ffd5b505050506040513d601f19601f82011682018060405250810190610f9d9190613988565b73ffffffffffffffffffffffffffffffffffffffff163373ffffffffffffffffffffffffffffffffffffffff161461100a576040517f08c379a0000000000000000000000000000000000000000000000000000000008152600401611001906139fd565b60405180910390fd5b60025f9054906101000a900473ffffffffffffffffffffffffffffffffffffffff1673ffffffffffffffffffffffffffffffffffffffff1663368428d96040518060400160405280601681526020017f56434e5f46554e4354494f4e414c5f4d414e41474552000000000000000000008152506040518060400160405280601f81526020017f6d61705f5f6163636f756e74496e646578427943757272656e63794e616d650081525085856040518563ffffffff1660e01b81526004016110d49493929190613b31565b5f604051808303815f87803b1580156110eb575f80fd5b505af11580156110fd573d5f803e3d5ffd5b505050505050565b60605f805f9054906101000a900473ffffffffffffffffffffffffffffffffffffffff1673ffffffffffffffffffffffffffffffffffffffff16635df6d3cc6040518060400160405280601681526020017f56434e5f46554e4354494f4e414c5f4d414e4147455200000000000000000000815250856040518363ffffffff1660e01b8152600401611198929190613a1b565b602060405180830381865afa1580156111b3573d5f803e3d5ffd5b505050506040513d601f19601f820116820180604052508101906111d79190613aae565b905060015f9054906101000a900473ffffffffffffffffffffffffffffffffffffffff1673ffffffffffffffffffffffffffffffffffffffff16632136448c6040518060400160405280601681526020017f56434e5f46554e4354494f4e414c5f4d414e414745520000000000000000000081525085846040518060400160405280601f81526020017f4c6973745f5f76657273696f6e4f66537065636966696343757272656e6379008152506040518563ffffffff1660e01b81526004016112a39493929190613ad9565b5f60405180830381865afa1580156112bd573d5f803e3d5ffd5b505050506040513d5f823e3d601f19601f820116820180604052508101906112e59190613813565b915050919050565b5f60015f9054906101000a900473ffffffffffffffffffffffffffffffffffffffff1673ffffffffffffffffffffffffffffffffffffffff16633bea27536040518060400160405280601681526020017f56434e5f46554e4354494f4e414c5f4d414e41474552000000000000000000008152506040518060400160405280601881526020017f6c6973745f5f6375727265636e7944656c6574654c69737400000000000000008152506040518363ffffffff1660e01b81526004016113b4929190613a1b565b602060405180830381865afa1580156113cf573d5f803e3d5ffd5b505050506040513d601f19601f820116820180604052508101906113f39190613aae565b905090565b60035f9054906101000a900473ffffffffffffffffffffffffffffffffffffffff1673ffffffffffffffffffffffffffffffffffffffff1663ef02a3fc6040518060400160405280601681526020017f56434e5f46554e4354494f4e414c5f4d414e41474552000000000000000000008152506040518263ffffffff1660e01b8152600401611487919061351d565b602060405180830381865afa1580156114a2573d5f803e3d5ffd5b505050506040513d601f19601f820116820180604052508101906114c69190613988565b73ffffffffffffffffffffffffffffffffffffffff163373ffffffffffffffffffffffffffffffffffffffff1614611533576040517f08c379a000000000000000000000000000000000000000000000000000000000815260040161152a906139fd565b60405180910390fd5b5f8054906101000a900473ffffffffffffffffffffffffffffffffffffffff1673ffffffffffffffffffffffffffffffffffffffff1663a1e163826040518060400160405280601681526020017f56434e5f46554e4354494f4e414c5f4d414e4147455200000000000000000000815250846040518363ffffffff1660e01b81526004016115c2929190613a1b565b5f604051808303815f87803b1580156115d9575f80fd5b505af11580156115eb573d5f803e3d5ffd5b505050505f805f9054906101000a900473ffffffffffffffffffffffffffffffffffffffff1673ffffffffffffffffffffffffffffffffffffffff16635df6d3cc6040518060400160405280601681526020017f56434e5f46554e4354494f4e414c5f4d414e4147455200000000000000000000815250856040518363ffffffff1660e01b8152600401611680929190613a1b565b602060405180830381865afa15801561169b573d5f803e3d5ffd5b505050506040513d601f19601f820116820180604052508101906116bf9190613aae565b905060015f9054906101000a900473ffffffffffffffffffffffffffffffffffffffff1673ffffffffffffffffffffffffffffffffffffffff1663c8f1cd876040518060400160405280601681526020017f56434e5f46554e4354494f4e414c5f4d414e414745520000000000000000000081525085846040518060400160405280601f81526020017f4c6973745f5f76657273696f6e4f66537065636966696343757272656e637900815250876040518663ffffffff1660e01b815260040161178d959493929190613b89565b5f604051808303815f87803b1580156117a4575f80fd5b505af11580156117b6573d5f803e3d5ffd5b505050505f8054906101000a900473ffffffffffffffffffffffffffffffffffffffff1673ffffffffffffffffffffffffffffffffffffffff1663d12173976040518060400160405280601681526020017f56434e5f46554e4354494f4e414c5f4d414e414745520000000000000000000081525084866040518463ffffffff1660e01b815260040161184b93929190613a50565b5f604051808303815f87803b158015611862575f80fd5b505af1158015611874573d5f803e3d5ffd5b50505050505050565b60035f9054906101000a900473ffffffffffffffffffffffffffffffffffffffff1673ffffffffffffffffffffffffffffffffffffffff1663ef02a3fc6040518060400160405280601681526020017f56434e5f46554e4354494f4e414c5f4d414e41474552000000000000000000008152506040518263ffffffff1660e01b815260040161190c919061351d565b602060405180830381865afa158015611927573d5f803e3d5ffd5b505050506040513d601f19601f8201168201806040525081019061194b9190613988565b73ffffffffffffffffffffffffffffffffffffffff163373ffffffffffffffffffffffffffffffffffffffff16146119b8576040517f08c379a00000000000000000000000000000000000000000000000000000000081526004016119af906139fd565b60405180910390fd5b60015f9054906101000a900473ffffffffffffffffffffffffffffffffffffffff1673ffffffffffffffffffffffffffffffffffffffff1663a24a899b6040518060400160405280601681526020017f56434e5f46554e4354494f4e414c5f4d414e41474552000000000000000000008152506040518060400160405280601881526020017f6c6973745f5f6375727265636e7944656c6574654c69737400000000000000008152506040518363ffffffff1660e01b8152600401611a7e929190613a1b565b5f604051808303815f87803b158015611a95575f80fd5b505af1158015611aa7573d5f803e3d5ffd5b50505050565b60035f9054906101000a900473ffffffffffffffffffffffffffffffffffffffff1673ffffffffffffffffffffffffffffffffffffffff1663ef02a3fc6040518060400160405280601681526020017f56434e5f46554e4354494f4e414c5f4d414e41474552000000000000000000008152506040518263ffffffff1660e01b8152600401611b3c919061351d565b602060405180830381865afa158015611b57573d5f803e3d5ffd5b505050506040513d601f19601f82011682018060405250810190611b7b9190613988565b73ffffffffffffffffffffffffffffffffffffffff163373ffffffffffffffffffffffffffffffffffffffff1614611be8576040517f08c379a0000000000000000000000000000000000000000000000000000000008152600401611bdf906139fd565b60405180910390fd5b60025f9054906101000a900473ffffffffffffffffffffffffffffffffffffffff1673ffffffffffffffffffffffffffffffffffffffff1663368428d96040518060400160405280601681526020017f56434e5f46554e4354494f4e414c5f4d414e41474552000000000000000000008152506040518060400160405280601f81526020017f6d61705f5f6163636f756e74496e646578427943757272656e63794e616d6500815250845f6040518563ffffffff1660e01b8152600401611cb29493929190613c2f565b5f604051808303815f87803b158015611cc9575f80fd5b505af1158015611cdb573d5f803e3d5ffd5b5050505050565b60035f9054906101000a900473ffffffffffffffffffffffffffffffffffffffff1673ffffffffffffffffffffffffffffffffffffffff1663ef02a3fc6040518060400160405280601681526020017f56434e5f46554e4354494f4e414c5f4d414e41474552000000000000000000008152506040518263ffffffff1660e01b8152600401611d71919061351d565b602060405180830381865afa158015611d8c573d5f803e3d5ffd5b505050506040513d601f19601f82011682018060405250810190611db09190613988565b73ffffffffffffffffffffffffffffffffffffffff163373ffffffffffffffffffffffffffffffffffffffff1614611e1d576040517f08c379a0000000000000000000000000000000000000000000000000000000008152600401611e14906139fd565b60405180910390fd5b5f611e278261088e565b90505f805f9054906101000a900473ffffffffffffffffffffffffffffffffffffffff1673ffffffffffffffffffffffffffffffffffffffff16635df6d3cc6040518060400160405280601681526020017f56434e5f46554e4354494f4e414c5f4d414e4147455200000000000000000000815250846040518363ffffffff1660e01b8152600401611eba929190613a1b565b602060405180830381865afa158015611ed5573d5f803e3d5ffd5b505050506040513d601f19601f82011682018060405250810190611ef99190613aae565b90505f600190505b8181116121de575f60015f9054906101000a900473ffffffffffffffffffffffffffffffffffffffff1673ffffffffffffffffffffffffffffffffffffffff16632136448c6040518060400160405280601681526020017f56434e5f46554e4354494f4e414c5f4d414e414745520000000000000000000081525086856040518060400160405280601f81526020017f4c6973745f5f76657273696f6e4f66537065636966696343757272656e6379008152506040518563ffffffff1660e01b8152600401611fd39493929190613ad9565b5f60405180830381865afa158015611fed573d5f803e3d5ffd5b505050506040513d5f823e3d601f19601f820116820180604052508101906120159190613813565b90505f8054906101000a900473ffffffffffffffffffffffffffffffffffffffff1673ffffffffffffffffffffffffffffffffffffffff1663d12173976040518060400160405280601681526020017f56434e5f46554e4354494f4e414c5f4d414e4147455200000000000000000000815250836040518363ffffffff1660e01b81526004016120a6929190613caa565b5f604051808303815f87803b1580156120bd575f80fd5b505af11580156120cf573d5f803e3d5ffd5b5050505060015f9054906101000a900473ffffffffffffffffffffffffffffffffffffffff1673ffffffffffffffffffffffffffffffffffffffff1663c8f1cd876040518060400160405280601681526020017f56434e5f46554e4354494f4e414c5f4d414e414745520000000000000000000081525086856040518060400160405280601f81526020017f4c6973745f5f76657273696f6e4f66537065636966696343757272656e6379008152506040518563ffffffff1660e01b815260040161219d9493929190613cf2565b5f604051808303815f87803b1580156121b4575f80fd5b505af11580156121c6573d5f803e3d5ffd5b505050505080806121d6906138e7565b915050611f01565b505f8054906101000a900473ffffffffffffffffffffffffffffffffffffffff1673ffffffffffffffffffffffffffffffffffffffff166356b44b2c6040518060400160405280601681526020017f56434e5f46554e4354494f4e414c5f4d414e4147455200000000000000000000815250845f6040518463ffffffff1660e01b815260040161227093929190613d5d565b5f604051808303815f87803b158015612287575f80fd5b505af1158015612299573d5f803e3d5ffd5b505050505f6122a78361077f565b905060015f9054906101000a900473ffffffffffffffffffffffffffffffffffffffff1673ffffffffffffffffffffffffffffffffffffffff1663df0a5a526040518060400160405280601681526020017f56434e5f46554e4354494f4e414c5f4d414e41474552000000000000000000008152506040518060400160405280601281526020017f6c6973745f5f6375727265636e794c697374000000000000000000000000000081525060016040518060400160405280600c81526020017f63757272656e63795479706500000000000000000000000000000000000000008152508660405160200161239b919061368a565b6040516020818303038152906040526040518663ffffffff1660e01b81526004016123ca959493929190613da0565b5f604051808303815f87803b1580156123e1575f80fd5b505af11580156123f3573d5f803e3d5ffd5b5050505050505050565b5f80612407610dc4565b90505f600190505b8181116127d5575f60015f9054906101000a900473ffffffffffffffffffffffffffffffffffffffff1673ffffffffffffffffffffffffffffffffffffffff1663fa7598d56040518060400160405280601681526020017f56434e5f46554e4354494f4e414c5f4d414e41474552000000000000000000008152506040518060400160405280601281526020017f6c6973745f5f6375727265636e794c697374000000000000000000000000000081525060016040518060400160405280600c81526020017f63757272656e637954797065000000000000000000000000000000000000000081525087604051602001612509919061368a565b6040516020818303038152906040526040518663ffffffff1660e01b8152600401612538959493929190613738565b5f60405180830381865afa158015612552573d5f803e3d5ffd5b505050506040513d5f823e3d601f19601f8201168201806040525081019061257a9190613813565b90505f6125868261077f565b146127c1575f805f9054906101000a900473ffffffffffffffffffffffffffffffffffffffff1673ffffffffffffffffffffffffffffffffffffffff16635df6d3cc6040518060400160405280601681526020017f56434e5f46554e4354494f4e414c5f4d414e4147455200000000000000000000815250846040518363ffffffff1660e01b815260040161261c929190613a1b565b602060405180830381865afa158015612637573d5f803e3d5ffd5b505050506040513d601f19601f8201168201806040525081019061265b9190613aae565b90505f810361268b5785805190602001208280519060200120036126865760019450505050506127db565b6127bf565b5f60015f9054906101000a900473ffffffffffffffffffffffffffffffffffffffff1673ffffffffffffffffffffffffffffffffffffffff16632136448c6040518060400160405280601681526020017f56434e5f46554e4354494f4e414c5f4d414e414745520000000000000000000081525085856040518060400160405280601f81526020017f4c6973745f5f76657273696f6e4f66537065636966696343757272656e6379008152506040518563ffffffff1660e01b81526004016127569493929190613ad9565b5f60405180830381865afa158015612770573d5f803e3d5ffd5b505050506040513d5f823e3d601f19601f820116820180604052508101906127989190613813565b905086805190602001208180519060200120036127bd576001955050505050506127db565b505b505b5080806127cd906138e7565b91505061240f565b505f9150505b919050565b60035f9054906101000a900473ffffffffffffffffffffffffffffffffffffffff1673ffffffffffffffffffffffffffffffffffffffff1663ef02a3fc6040518060400160405280601681526020017f56434e5f46554e4354494f4e414c5f4d414e41474552000000000000000000008152506040518263ffffffff1660e01b815260040161286f919061351d565b602060405180830381865afa15801561288a573d5f803e3d5ffd5b505050506040513d601f19601f820116820180604052508101906128ae9190613988565b73ffffffffffffffffffffffffffffffffffffffff163373ffffffffffffffffffffffffffffffffffffffff161461291b576040517f08c379a0000000000000000000000000000000000000000000000000000000008152600401612912906139fd565b60405180910390fd5b60015f9054906101000a900473ffffffffffffffffffffffffffffffffffffffff1673ffffffffffffffffffffffffffffffffffffffff1663df0a5a526040518060400160405280601681526020017f56434e5f46554e4354494f4e414c5f4d414e41474552000000000000000000008152506040518060400160405280601281526020017f6c6973745f5f6375727265636e794c697374000000000000000000000000000081525060016040518060400160405280600c81526020017f63757272656e637954797065000000000000000000000000000000000000000081525086604051602001612a0d919061368a565b604051602081830303815290604052886040518763ffffffff1660e01b8152600401612a3e96959493929190613e20565b5f604051808303815f87803b158015612a55575f80fd5b505af1158015612a67573d5f803e3d5ffd5b505050505050565b5f60405180602001604052805f81525080519060200120612a8f8461088e565b8051906020012003612ba8575f8054906101000a900473ffffffffffffffffffffffffffffffffffffffff1673ffffffffffffffffffffffffffffffffffffffff16633f7690ca6040518060400160405280601681526020017f56434e5f46554e4354494f4e414c5f4d414e4147455200000000000000000000815250846040518363ffffffff1660e01b8152600401612b2a929190613a1b565b5f60405180830381865afa158015612b44573d5f803e3d5ffd5b505050506040513d5f823e3d601f19601f82011682018060405250810190612b6c9190613813565b80519060200120838051906020012003612b895760019050612d96565b8180519060200120838051906020012003612ba75760019050612d96565b5b60405180602001604052805f81525080519060200120612bc78461088e565b8051906020012014612d92575f8054906101000a900473ffffffffffffffffffffffffffffffffffffffff1673ffffffffffffffffffffffffffffffffffffffff16633f7690ca6040518060400160405280601681526020017f56434e5f46554e4354494f4e414c5f4d414e4147455200000000000000000000815250846040518363ffffffff1660e01b8152600401612c62929190613a1b565b5f60405180830381865afa158015612c7c573d5f803e3d5ffd5b505050506040513d5f823e3d601f19601f82011682018060405250810190612ca49190613813565b805190602001205f8054906101000a900473ffffffffffffffffffffffffffffffffffffffff1673ffffffffffffffffffffffffffffffffffffffff16633f7690ca6040518060400160405280601681526020017f56434e5f46554e4354494f4e414c5f4d414e4147455200000000000000000000815250866040518363ffffffff1660e01b8152600401612d3a929190613a1b565b5f60405180830381865afa158015612d54573d5f803e3d5ffd5b505050506040513d5f823e3d601f19601f82011682018060405250810190612d7c9190613813565b8051906020012003612d915760019050612d96565b5b5f90505b92915050565b60605f805f9054906101000a900473ffffffffffffffffffffffffffffffffffffffff1673ffffffffffffffffffffffffffffffffffffffff16633f7690ca6040518060400160405280601681526020017f56434e5f46554e4354494f4e414c5f4d414e4147455200000000000000000000815250856040518363ffffffff1660e01b8152600401612e2f929190613a1b565b5f60405180830381865afa158015612e49573d5f803e3d5ffd5b505050506040513d5f823e3d601f19601f82011682018060405250810190612e719190613813565b905060405180602001604052805f81525080519060200120818051906020012003612f11575f600167ffffffffffffffff811115612eb257612eb1613339565b5b604051908082528060200260200182016040528015612ee557816020015b6060815260200190600190039081612ed05790505b50905083815f81518110612efc57612efb6138ba565b5b602002602001018190525080925050506131b6565b5f805f9054906101000a900473ffffffffffffffffffffffffffffffffffffffff1673ffffffffffffffffffffffffffffffffffffffff16635df6d3cc6040518060400160405280601681526020017f56434e5f46554e4354494f4e414c5f4d414e4147455200000000000000000000815250846040518363ffffffff1660e01b8152600401612fa2929190613a1b565b602060405180830381865afa158015612fbd573d5f803e3d5ffd5b505050506040513d601f19601f82011682018060405250810190612fe19190613aae565b90505f600182612ff19190613ea2565b67ffffffffffffffff81111561300a57613009613339565b5b60405190808252806020026020018201604052801561303d57816020015b60608152602001906001900390816130285790505b50905082815f81518110613054576130536138ba565b5b60200260200101819052505f600190505b8281116131ae575f60015f9054906101000a900473ffffffffffffffffffffffffffffffffffffffff1673ffffffffffffffffffffffffffffffffffffffff16632136448c6040518060400160405280601681526020017f56434e5f46554e4354494f4e414c5f4d414e414745520000000000000000000081525087856040518060400160405280601f81526020017f4c6973745f5f76657273696f6e4f66537065636966696343757272656e6379008152506040518563ffffffff1660e01b81526004016131379493929190613ad9565b5f60405180830381865afa158015613151573d5f803e3d5ffd5b505050506040513d5f823e3d601f19601f820116820180604052508101906131799190613813565b90508083838151811061318f5761318e6138ba565b5b60200260200101819052505080806131a6906138e7565b915050613065565b508093505050505b919050565b5f81519050919050565b5f82825260208201905092915050565b5f819050602082019050919050565b5f81519050919050565b5f82825260208201905092915050565b5f5b8381101561321b578082015181840152602081019050613200565b5f8484015250505050565b5f601f19601f8301169050919050565b5f613240826131e4565b61324a81856131ee565b935061325a8185602086016131fe565b61326381613226565b840191505092915050565b5f6132798383613236565b905092915050565b5f602082019050919050565b5f613297826131bb565b6132a181856131c5565b9350836020820285016132b3856131d5565b805f5b858110156132ee57848403895281516132cf858261326e565b94506132da83613281565b925060208a019950506001810190506132b6565b50829750879550505050505092915050565b5f6020820190508181035f830152613318818461328d565b905092915050565b5f604051905090565b5f80fd5b5f80fd5b5f80fd5b5f80fd5b7f4e487b71000000000000000000000000000000000000000000000000000000005f52604160045260245ffd5b61336f82613226565b810181811067ffffffffffffffff8211171561338e5761338d613339565b5b80604052505050565b5f6133a0613320565b90506133ac8282613366565b919050565b5f67ffffffffffffffff8211156133cb576133ca613339565b5b6133d482613226565b9050602081019050919050565b828183375f83830152505050565b5f6134016133fc846133b1565b613397565b90508281526020810184848401111561341d5761341c613335565b5b6134288482856133e1565b509392505050565b5f82601f83011261344457613443613331565b5b81356134548482602086016133ef565b91505092915050565b5f6020828403121561347257613471613329565b5b5f82013567ffffffffffffffff81111561348f5761348e61332d565b5b61349b84828501613430565b91505092915050565b5f819050919050565b6134b6816134a4565b82525050565b5f6020820190506134cf5f8301846134ad565b92915050565b5f82825260208201905092915050565b5f6134ef826131e4565b6134f981856134d5565b93506135098185602086016131fe565b61351281613226565b840191505092915050565b5f6020820190508181035f83015261353581846134e5565b905092915050565b613546816134a4565b8114613550575f80fd5b50565b5f813590506135618161353d565b92915050565b5f806040838503121561357d5761357c613329565b5b5f83013567ffffffffffffffff81111561359a5761359961332d565b5b6135a685828601613430565b92505060206135b785828601613553565b9150509250929050565b5f80604083850312156135d7576135d6613329565b5b5f83013567ffffffffffffffff8111156135f4576135f361332d565b5b61360085828601613430565b925050602083013567ffffffffffffffff8111156136215761362061332d565b5b61362d85828601613430565b9150509250929050565b5f8115159050919050565b61364b81613637565b82525050565b5f6020820190506136645f830184613642565b92915050565b5f819050919050565b61368461367f826134a4565b61366a565b82525050565b5f6136958284613673565b60208201915081905092915050565b5f819050919050565b5f819050919050565b5f6136d06136cb6136c6846136a4565b6136ad565b6134a4565b9050919050565b6136e0816136b6565b82525050565b5f81519050919050565b5f82825260208201905092915050565b5f61370a826136e6565b61371481856136f0565b93506137248185602086016131fe565b61372d81613226565b840191505092915050565b5f60a0820190508181035f83015261375081886134e5565b9050818103602083015261376481876134e5565b905061377360408301866136d7565b81810360608301526137858185613700565b905081810360808301526137998184613700565b90509695505050505050565b5f6137b76137b2846133b1565b613397565b9050828152602081018484840111156137d3576137d2613335565b5b6137de8482856131fe565b509392505050565b5f82601f8301126137fa576137f9613331565b5b815161380a8482602086016137a5565b91505092915050565b5f6020828403121561382857613827613329565b5b5f82015167ffffffffffffffff8111156138455761384461332d565b5b613851848285016137e6565b91505092915050565b7f4e487b71000000000000000000000000000000000000000000000000000000005f52601160045260245ffd5b5f613891826134a4565b915061389c836134a4565b92508282039050818111156138b4576138b361385a565b5b92915050565b7f4e487b71000000000000000000000000000000000000000000000000000000005f52603260045260245ffd5b5f6138f1826134a4565b91507fffffffffffffffffffffffffffffffffffffffffffffffffffffffffffffffff82036139235761392261385a565b5b600182019050919050565b5f73ffffffffffffffffffffffffffffffffffffffff82169050919050565b5f6139578261392e565b9050919050565b6139678161394d565b8114613971575f80fd5b50565b5f815190506139828161395e565b92915050565b5f6020828403121561399d5761399c613329565b5b5f6139aa84828501613974565b91505092915050565b7f556e617574686f72697a656420436f6e74726163742043616c6c0000000000005f82015250565b5f6139e7601a836134d5565b91506139f2826139b3565b602082019050919050565b5f6020820190508181035f830152613a14816139db565b9050919050565b5f6040820190508181035f830152613a3381856134e5565b90508181036020830152613a4781846134e5565b90509392505050565b5f6060820190508181035f830152613a6881866134e5565b90508181036020830152613a7c81856134e5565b90508181036040830152613a9081846134e5565b9050949350505050565b5f81519050613aa88161353d565b92915050565b5f60208284031215613ac357613ac2613329565b5b5f613ad084828501613a9a565b91505092915050565b5f6080820190508181035f830152613af181876134e5565b90508181036020830152613b0581866134e5565b9050613b1460408301856134ad565b8181036060830152613b2681846134e5565b905095945050505050565b5f6080820190508181035f830152613b4981876134e5565b90508181036020830152613b5d81866134e5565b90508181036040830152613b7181856134e5565b9050613b8060608301846134ad565b95945050505050565b5f60a0820190508181035f830152613ba181886134e5565b90508181036020830152613bb581876134e5565b9050613bc460408301866134ad565b8181036060830152613bd681856134e5565b90508181036080830152613bea81846134e5565b90509695505050505050565b5f819050919050565b5f613c19613c14613c0f84613bf6565b6136ad565b6134a4565b9050919050565b613c2981613bff565b82525050565b5f6080820190508181035f830152613c4781876134e5565b90508181036020830152613c5b81866134e5565b90508181036040830152613c6f81856134e5565b9050613c7e6060830184613c20565b95945050505050565b50565b5f613c955f836134d5565b9150613ca082613c87565b5f82019050919050565b5f6060820190508181035f830152613cc281856134e5565b90508181036020830152613cd681846134e5565b90508181036040830152613ce981613c8a565b90509392505050565b5f60a0820190508181035f830152613d0a81876134e5565b90508181036020830152613d1e81866134e5565b9050613d2d60408301856134ad565b8181036060830152613d3f81846134e5565b90508181036080830152613d5281613c8a565b905095945050505050565b5f6060820190508181035f830152613d7581866134e5565b90508181036020830152613d8981856134e5565b9050613d986040830184613c20565b949350505050565b5f60c0820190508181035f830152613db881886134e5565b90508181036020830152613dcc81876134e5565b9050613ddb60408301866136d7565b8181036060830152613ded8185613700565b90508181036080830152613e018184613700565b905081810360a0830152613e1481613c8a565b90509695505050505050565b5f60c0820190508181035f830152613e3881896134e5565b90508181036020830152613e4c81886134e5565b9050613e5b60408301876136d7565b8181036060830152613e6d8186613700565b90508181036080830152613e818185613700565b905081810360a0830152613e9581846134e5565b9050979650505050505050565b5f613eac826134a4565b9150613eb7836134a4565b9250828201905080821115613ecf57613ece61385a565b5b9291505056fea2646970667358221220d3a3661a337efa0cf5795f341ae0f6daf1056f91947ef4a2970ce3bff1de767b64736f6c63430008140033",
  "immutableReferences": {},
  "source": "pragma solidity ^0.8.0;\npragma experimental ABIEncoderV2;\n\nimport \"./MemberStorage.sol\";\nimport \"./ListStorage.sol\";\nimport \"./MapStorage.sol\";\nimport \"./QuireContracts.sol\";\n\ncontract VcnFunctionalStructs {\n    uint16 constant internal VERSION = 1;\n    struct VcnFunctional {\n        string[] _currencyType;\n        uint16 version;\n    }\n    \n    string constant internal propNameVcnFunctionalCurrencyType= \"currencyType\";\n    string constant internal propNameVcnFunctionalVersion = \"version\";\n\n}\n\ncontract VcnFunctionalModel is VcnFunctionalStructs {\n    \n    MemberStorage private Member;\n    ListStorage private List;\n    MapStorage private Map;\n    QuireContracts private quireContracts;\n    \n    constructor(\n        address _Member,\n        address _List,\n        address _Map,\n        address _quireContracts\n    ){\n        Member = MemberStorage(_Member);\n        List = ListStorage(_List);\n        Map = MapStorage(_Map);\n        quireContracts = QuireContracts(_quireContracts);\n    }\n\n    string constant internal KEY = \"VCN_FUNCTIONAL_MANAGER\";\n    string constant internal keyCurrencyVersion = \"currencyVersion__length\";\n    string constant internal currencyList = \"list__currecnyList\";\n    string constant internal currencyDeleteList = \"list__currecnyDeleteList\";\n    string constant internal VcnFunctionalIndexMap = \"map__VcnFunctionalIndex\";\n    string constant internal propNameVcnFunctionalIndexByCurrencyName = \"map__accountIndexByCurrencyName\";\n    string constant internal propNameCurrencyVersion = \"List__versionOfSpecificCurrency\";\n\n\n    modifier onlyVcnFunctionalManager() {\n        require(msg.sender==quireContracts.getRegisteredContract(KEY), \"Unauthorized Contract Call\");\n        _;\n    }\n\n    modifier checkIfLatestCurrency(string memory _currency) {\n        require(checkLatestCurrency(_currency), \"Not a valid currency, enter the latest one\");\n        _;\n    }\n\n\n    //At present we consider the VCNfunctional to be a single struct and not an array\n    //so could consider the index to be 0 and incase if the VCNfunctionl wanted to made\n    //an array based on business need we can make it an array and enable index property\n    //by uncommenting the function getVcnFunctionalIndex and replace 0 with the index this function returns\n\n\n    //To check the length of the currency array\n\n    function getCurrencyTotalListLength() public view returns (uint256) {\n        return List.getLength(KEY, currencyList);\n    }\n\n    function getCurrencyDeleteListLength() public view returns (uint256) {\n        return List.getLength(KEY, currencyDeleteList);\n    }\n\n\n    //To check wheather a currency exist are not in the smart Contract\n\n    function getIndexByCurrencyName(string memory currencyName_) public view\n    returns (uint256)\n    {\n        return Map.getStringToUint(KEY, propNameVcnFunctionalIndexByCurrencyName, currencyName_);\n    }\n\n    function getCurrencyNameIndexMember(string memory currencyName_) public view\n    returns(string memory)\n    {\n        return Member.getString(KEY, currencyName_);\n    }\n\n\n//  Try new get all currency type \n\n    function getAllCurrencyType() public view \n    returns(string[] memory currency_) {\n        uint256 totalLength = getCurrencyTotalListLength();\n        uint256 deleteLength = getCurrencyDeleteListLength();\n        uint256 length = totalLength - deleteLength;\n        // uint length = List.getPropByKeyUint(KEY, currencyList, _versionIndex, bytes(propNameVcnFunctionalCurrencyType), abi.encodePacked(keyListLength));\n        currency_ = new string[](length);\n        uint256 j = 0;\n        for (uint256 i = 1; i <= totalLength; i++) {\n            // currency_[i] = List.getPropByKeyString(KEY, currencyList, _versionIndex, bytes(propNameVcnFunctionalCurrencyType), abi.encodePacked(i));\n            string memory tempCurrency = List.getPropByKeyString(KEY, currencyList, 1, bytes(propNameVcnFunctionalCurrencyType), abi.encodePacked(i));\n            if(getIndexByCurrencyName(tempCurrency) != 0){\n                uint versionLength = Member.getUint(KEY, tempCurrency);\n                if(versionLength == 0)\n                {\n                    currency_[j] = tempCurrency;\n                    j++;\n                } else {\n                    currency_[j] = List.getPropString(KEY, tempCurrency, versionLength, propNameCurrencyVersion);\n                    j++;\n                }\n            }\n        }\n    }\n\n    function checkLatestCurrency(string memory _currency) public view \n    returns(bool) {\n        uint256 totalLength = getCurrencyTotalListLength();\n        for (uint256 i = 1; i <= totalLength; i++) {\n            string memory tempCurrency = List.getPropByKeyString(KEY, currencyList, 1, bytes(propNameVcnFunctionalCurrencyType), abi.encodePacked(i));\n            if(getIndexByCurrencyName(tempCurrency) != 0){\n                uint versionLength = Member.getUint(KEY, tempCurrency);\n                if(versionLength == 0)\n                {\n                    if(keccak256(bytes(tempCurrency)) == keccak256(bytes(_currency))) return true;\n                } else {\n                    string memory latestCurrency = List.getPropString(KEY, tempCurrency, versionLength, propNameCurrencyVersion);\n                    if(keccak256(bytes(latestCurrency)) == keccak256(bytes(_currency))) return true;\n                }\n            }\n        }\n        return false;\n    }\n\n    function validateCurrencyVersion(string memory _currency1, string memory _currency2) public view\n    returns (bool)\n    {\n\n        if(keccak256(bytes(getCurrencyNameIndexMember(_currency1))) == keccak256(bytes(\"\"))) //currency1 is a index currency\n        {\n            if(keccak256(bytes(_currency1)) == keccak256(bytes(Member.getString(KEY, _currency2)))) return true;\n\n            if(keccak256(bytes(_currency1)) == keccak256(bytes(_currency2))) return true;\n        } \n        if (keccak256(bytes(getCurrencyNameIndexMember(_currency1))) != keccak256(bytes(\"\")))\n        {\n            if(keccak256(bytes(Member.getString(KEY, _currency1))) == keccak256(bytes(Member.getString(KEY, _currency2)))) {\n                return true;\n            }\n        }\n\n        return false;\n    }\n\n    // Test purpose\n\n    function getAllCurrencyVersions(string memory currencyName) public view\n    returns(string[] memory)\n    {\n        string memory indexCurrency = Member.getString(KEY, currencyName);\n        if(keccak256(bytes(indexCurrency)) == keccak256(bytes(\"\")))\n        {\n            string[] memory currencyVersion_ = new string[](1);\n            currencyVersion_[0] = currencyName;\n            return currencyVersion_;\n        } else {\n            uint versionLength = Member.getUint(KEY, indexCurrency);\n            string[] memory currencyVersion_ = new string[](versionLength+1);\n            currencyVersion_[0] = indexCurrency;\n            for (uint256 i = 1; i <= versionLength; i++) {\n                string memory latestCurrency = List.getPropString(KEY, indexCurrency, i, propNameCurrencyVersion);\n                currencyVersion_[i] = latestCurrency;\n            }\n            return currencyVersion_;\n        }\n    }\n\n\n    function getLatestCurrencyOfIndexCurrency(string memory currencyName) public view\n    returns(string memory latestCurrency)\n    {\n        uint versionLength = Member.getUint(KEY, currencyName);\n        latestCurrency = List.getPropString(KEY, currencyName, versionLength, propNameCurrencyVersion);\n        return latestCurrency;\n    }\n\n\n    // onlyVcnFunctionalManager\n    function addCurrencyType( string memory currencyName, uint256 _index) public \n    onlyVcnFunctionalManager\n    {\n\n        List.setPropByKeyString(KEY, currencyList, 1, bytes(propNameVcnFunctionalCurrencyType), abi.encodePacked(_index), currencyName);\n\n    }\n\n    // Test addCurrencyType\n\n    function getCurrencyTypegetPropByKeyString() public view\n    returns(string[] memory currency_)\n    {\n        currency_ = new string[](5);\n        for (uint256 i = 1; i <= 5; i++) {\n            string memory tempCurrency = List.getPropByKeyString(KEY, currencyList, 1, bytes(propNameVcnFunctionalCurrencyType), abi.encodePacked(i));\n            currency_[i-1] = tempCurrency;\n        }\n\n    }\n\n    // onlyVcnFunctionalManager\n    function setIndexByCurrencyName(string memory currencyname, uint256 _index) public \n    onlyVcnFunctionalManager\n    {\n        Map.setStringToUint(KEY, propNameVcnFunctionalIndexByCurrencyName, currencyname, _index);\n    }\n\n\n    // adding a new version of currency to the existing currency type\n\n    function addNewVersionCurrencyName(string memory currencyName_0, string memory currencyName_latest) public\n    onlyVcnFunctionalManager{\n        Member.incUint(KEY, currencyName_0);\n        uint versionLength = Member.getUint(KEY, currencyName_0);\n        List.setPropString(KEY, currencyName_0, versionLength, propNameCurrencyVersion, currencyName_latest);\n        Member.setString(KEY, currencyName_latest, currencyName_0);\n    }\n    \n    // onlyVcnFunctionalManager\n    function deleteIndexByCurrencyName(string memory currencyname) public \n    onlyVcnFunctionalManager{\n        Map.setStringToUint(KEY, propNameVcnFunctionalIndexByCurrencyName, currencyname, 0);\n    }\n\n    // onlyVcnFunctionalManager\n    function deleteAllCurrecnyVersion(string memory currencyname) public\n    onlyVcnFunctionalManager{\n        string memory currencyName_0 = getCurrencyNameIndexMember(currencyname);\n        uint versionLength = Member.getUint(KEY, currencyName_0);\n        for (uint256 i = 1; i <= versionLength; i++) {\n            string memory latestCurrency = List.getPropString(KEY, currencyName_0, i, propNameCurrencyVersion);\n            Member.setString(KEY, latestCurrency, \"\");\n            List.setPropString(KEY, currencyName_0, i, propNameCurrencyVersion,\"\");\n        }\n        Member.setUint(KEY, currencyName_0, 0);\n        uint256 currencyIndex = getIndexByCurrencyName(currencyName_0);\n        List.setPropByKeyString(KEY, currencyList, 1, bytes(propNameVcnFunctionalCurrencyType), abi.encodePacked(currencyIndex),\"\");\n\n    }\n\n    // onlyVcnFunctionalManager\n    function inCurrencyTotalLength() public  \n    onlyVcnFunctionalManager{\n        List.incLength(KEY, currencyList);\n    }\n\n    // onlyVcnFunctionalManager\n    function inCurrencyDeleteLength() public  \n    onlyVcnFunctionalManager{\n        List.incLength(KEY, currencyDeleteList);\n    }\n        \n}",
  "sourcePath": "/home/raghupathi/Desktop/javaClass/javaClass/contracts/VcnFunctionalModel.sol",
  "compiler": {
    "name": "solc",
    "version": "0.8.20+commit.a1b79de6.Emscripten.clang"
  },
  "schemaVersion": "3.4.14",
  "updatedAt": "2023-06-02T09:43:22.667Z",
  "devdoc": {
    "kind": "dev",
    "methods": {},
    "version": 1
  },
  "userdoc": {
    "kind": "user",
    "methods": {},
    "version": 1
  }
}