{
  "contractName": "VcnFunctionalManager",
  "abi": [
    {
      "inputs": [
        {
          "internalType": "address",
          "name": "_permIntf",
          "type": "address"
        },
        {
          "internalType": "address",
          "name": "_vcnFunctionalModel",
          "type": "address"
        }
      ],
      "stateMutability": "nonpayable",
      "type": "constructor"
    },
    {
      "anonymous": false,
      "inputs": [
        {
          "indexed": false,
          "internalType": "string",
          "name": "_deletedCurrency",
          "type": "string"
        }
      ],
      "name": "DeletedCurrency",
      "type": "event"
    },
    {
      "anonymous": false,
      "inputs": [
        {
          "indexed": false,
          "internalType": "string",
          "name": "_oldVersionCurrency",
          "type": "string"
        },
        {
          "indexed": false,
          "internalType": "string",
          "name": "_newVersionCurrency",
          "type": "string"
        }
      ],
      "name": "ModifyCurrency",
      "type": "event"
    },
    {
      "anonymous": false,
      "inputs": [
        {
          "indexed": false,
          "internalType": "string",
          "name": "_newCurrency",
          "type": "string"
        },
        {
          "indexed": false,
          "internalType": "string[]",
          "name": "_latestCurrencyArray",
          "type": "string[]"
        }
      ],
      "name": "VcnCurrency",
      "type": "event"
    },
    {
      "inputs": [],
      "name": "getCurrencyListLength",
      "outputs": [
        {
          "internalType": "uint256",
          "name": "",
          "type": "uint256"
        }
      ],
      "stateMutability": "view",
      "type": "function"
    },
    {
      "inputs": [],
      "name": "getCurrencyList",
      "outputs": [
        {
          "internalType": "string[]",
          "name": "",
          "type": "string[]"
        }
      ],
      "stateMutability": "view",
      "type": "function"
    },
    {
      "inputs": [
        {
          "internalType": "string",
          "name": "currencyName",
          "type": "string"
        }
      ],
      "name": "getLatestCurrencyVersion",
      "outputs": [
        {
          "internalType": "string",
          "name": "latestCurrency",
          "type": "string"
        }
      ],
      "stateMutability": "view",
      "type": "function"
    },
    {
      "inputs": [
        {
          "internalType": "string",
          "name": "_currency",
          "type": "string"
        }
      ],
      "name": "setCurrency",
      "outputs": [],
      "stateMutability": "nonpayable",
      "type": "function"
    },
    {
      "inputs": [
        {
          "internalType": "string",
          "name": "_currency1",
          "type": "string"
        },
        {
          "internalType": "string",
          "name": "_currency2",
          "type": "string"
        }
      ],
      "name": "modifycurrency",
      "outputs": [],
      "stateMutability": "nonpayable",
      "type": "function"
    },
    {
      "inputs": [
        {
          "internalType": "string",
          "name": "_currency",
          "type": "string"
        }
      ],
      "name": "deleteCurrency",
      "outputs": [],
      "stateMutability": "nonpayable",
      "type": "function"
    },
    {
      "inputs": [
        {
          "internalType": "string",
          "name": "_currency",
          "type": "string"
        }
      ],
      "name": "isCurrencyExists",
      "outputs": [
        {
          "internalType": "bool",
          "name": "",
          "type": "bool"
        }
      ],
      "stateMutability": "view",
      "type": "function"
    },
    {
      "inputs": [
        {
          "internalType": "string",
          "name": "_currency1",
          "type": "string"
        },
        {
          "internalType": "string",
          "name": "_currency2",
          "type": "string"
        }
      ],
      "name": "checkCurrencyVersion",
      "outputs": [
        {
          "internalType": "bool",
          "name": "",
          "type": "bool"
        }
      ],
      "stateMutability": "view",
      "type": "function"
    },
    {
      "inputs": [
        {
          "internalType": "string",
          "name": "currency",
          "type": "string"
        }
      ],
      "name": "getAllCurrencyVersion",
      "outputs": [
        {
          "internalType": "string[]",
          "name": "",
          "type": "string[]"
        }
      ],
      "stateMutability": "view",
      "type": "function"
    }
  ],
  "bytecode": "0x608060405234801562000010575f80fd5b50604051620028c0380380620028c0833981810160405281019062000036919062000122565b815f806101000a81548173ffffffffffffffffffffffffffffffffffffffff021916908373ffffffffffffffffffffffffffffffffffffffff1602179055508060015f6101000a81548173ffffffffffffffffffffffffffffffffffffffff021916908373ffffffffffffffffffffffffffffffffffffffff160217905550505062000167565b5f80fd5b5f73ffffffffffffffffffffffffffffffffffffffff82169050919050565b5f620000ec82620000c1565b9050919050565b620000fe81620000e0565b811462000109575f80fd5b50565b5f815190506200011c81620000f3565b92915050565b5f80604083850312156200013b576200013a620000bd565b5b5f6200014a858286016200010c565b92505060206200015d858286016200010c565b9150509250929050565b61274b80620001755f395ff3fe608060405234801561000f575f80fd5b5060043610610091575f3560e01c8063a72d79fc11610064578063a72d79fc14610141578063ba86dc541461015d578063c973233d14610179578063f2ce4dc0146101a9578063f2db19a6146101c757610091565b8063167cc8d8146100955780632675623a146100c5578063928757bc146100f5578063a3f6493514610125575b5f80fd5b6100af60048036038101906100aa9190611e4e565b6101e5565b6040516100bc9190611fca565b60405180910390f35b6100df60048036038101906100da9190611e4e565b610364565b6040516100ec9190612004565b60405180910390f35b61010f600480360381019061010a9190611e4e565b610405565b60405161011c9190612065565b60405180910390f35b61013f600480360381019061013a9190611e4e565b6106ab565b005b61015b60048036038101906101569190611e4e565b61118e565b005b61017760048036038101906101729190612085565b611597565b005b610193600480360381019061018e9190612085565b611a8f565b6040516101a09190612004565b60405180910390f35b6101b1611b33565b6040516101be9190611fca565b60405180910390f35b6101cf611bcb565b6040516101dc9190612113565b60405180910390f35b60608160015f9054906101000a900473ffffffffffffffffffffffffffffffffffffffff1673ffffffffffffffffffffffffffffffffffffffff1663c0edc8e2826040518263ffffffff1660e01b81526004016102429190612065565b602060405180830381865afa15801561025d573d5f803e3d5ffd5b505050506040513d601f19601f820116820180604052508101906102819190612156565b6102c0576040517f08c379a00000000000000000000000000000000000000000000000000000000081526004016102b7906121f1565b60405180910390fd5b60015f9054906101000a900473ffffffffffffffffffffffffffffffffffffffff1673ffffffffffffffffffffffffffffffffffffffff1663f0f6fa90846040518263ffffffff1660e01b815260040161031a9190612065565b5f60405180830381865afa158015610334573d5f803e3d5ffd5b505050506040513d5f823e3d601f19601f8201168201806040525081019061035c919061235f565b915050919050565b5f60015f9054906101000a900473ffffffffffffffffffffffffffffffffffffffff1673ffffffffffffffffffffffffffffffffffffffff1663c0edc8e2836040518263ffffffff1660e01b81526004016103bf9190612065565b602060405180830381865afa1580156103da573d5f803e3d5ffd5b505050506040513d601f19601f820116820180604052508101906103fe9190612156565b9050919050565b606060405180602001604052805f8152508051906020012060015f9054906101000a900473ffffffffffffffffffffffffffffffffffffffff1673ffffffffffffffffffffffffffffffffffffffff166355682614846040518263ffffffff1660e01b81526004016104779190612065565b5f60405180830381865afa158015610491573d5f803e3d5ffd5b505050506040513d5f823e3d601f19601f820116820180604052508101906104b991906123a6565b80519060200120036105685760015f9054906101000a900473ffffffffffffffffffffffffffffffffffffffff1673ffffffffffffffffffffffffffffffffffffffff166385529b1f836040518263ffffffff1660e01b815260040161051f9190612065565b5f60405180830381865afa158015610539573d5f803e3d5ffd5b505050506040513d5f823e3d601f19601f8201168201806040525081019061056191906123a6565b90506106a6565b5f60015f9054906101000a900473ffffffffffffffffffffffffffffffffffffffff1673ffffffffffffffffffffffffffffffffffffffff166355682614846040518263ffffffff1660e01b81526004016105c39190612065565b5f60405180830381865afa1580156105dd573d5f803e3d5ffd5b505050506040513d5f823e3d601f19601f8201168201806040525081019061060591906123a6565b905060015f9054906101000a900473ffffffffffffffffffffffffffffffffffffffff1673ffffffffffffffffffffffffffffffffffffffff166385529b1f826040518263ffffffff1660e01b81526004016106619190612065565b5f60405180830381865afa15801561067b573d5f803e3d5ffd5b505050506040513d5f823e3d601f19601f820116820180604052508101906106a391906123a6565b50505b919050565b8060405180602001604052805f8152508051906020012060015f9054906101000a900473ffffffffffffffffffffffffffffffffffffffff1673ffffffffffffffffffffffffffffffffffffffff166355682614836040518263ffffffff1660e01b815260040161071c9190612065565b5f60405180830381865afa158015610736573d5f803e3d5ffd5b505050506040513d5f823e3d601f19601f8201168201806040525081019061075e91906123a6565b8051906020012003610c2c575f60015f9054906101000a900473ffffffffffffffffffffffffffffffffffffffff1673ffffffffffffffffffffffffffffffffffffffff166309fdd73d836040518263ffffffff1660e01b81526004016107c59190612065565b602060405180830381865afa1580156107e0573d5f803e3d5ffd5b505050506040513d601f19601f820116820180604052508101906108049190612417565b14610844576040517f08c379a000000000000000000000000000000000000000000000000000000000815260040161083b9061248c565b60405180910390fd5b5f805f8054906101000a900473ffffffffffffffffffffffffffffffffffffffff1673ffffffffffffffffffffffffffffffffffffffff163360405160240161088d91906124e9565b6040516020818303038152906040527fd1aa0c20000000000000000000000000000000000000000000000000000000007bffffffffffffffffffffffffffffffffffffffffffffffffffffffff19166020820180517bffffffffffffffffffffffffffffffffffffffffffffffffffffffff83818316178352505050506040516109179190612546565b5f604051808303815f865af19150503d805f8114610950576040519150601f19603f3d011682016040523d82523d5f602084013e610955565b606091505b50915091508080602001905181019061096e9190612156565b6109ad576040517f08c379a00000000000000000000000000000000000000000000000000000000081526004016109a4906125cc565b60405180910390fd5b5f60015f9054906101000a900473ffffffffffffffffffffffffffffffffffffffff1673ffffffffffffffffffffffffffffffffffffffff166368f740ef6040518163ffffffff1660e01b8152600401602060405180830381865afa158015610a18573d5f803e3d5ffd5b505050506040513d601f19601f82011682018060405250810190610a3c9190612417565b905060015f9054906101000a900473ffffffffffffffffffffffffffffffffffffffff1673ffffffffffffffffffffffffffffffffffffffff1663ca7f68c286600184610a899190612617565b6040518363ffffffff1660e01b8152600401610aa692919061264a565b5f604051808303815f87803b158015610abd575f80fd5b505af1158015610acf573d5f803e3d5ffd5b5050505060015f9054906101000a900473ffffffffffffffffffffffffffffffffffffffff1673ffffffffffffffffffffffffffffffffffffffff16638025e4c986600184610b1e9190612617565b6040518363ffffffff1660e01b8152600401610b3b92919061264a565b5f604051808303815f87803b158015610b52575f80fd5b505af1158015610b64573d5f803e3d5ffd5b5050505060015f9054906101000a900473ffffffffffffffffffffffffffffffffffffffff1673ffffffffffffffffffffffffffffffffffffffff166307d392f26040518163ffffffff1660e01b81526004015f604051808303815f87803b158015610bce575f80fd5b505af1158015610be0573d5f803e3d5ffd5b505050507f6c20742ff90156f0eedcbcb5b952656ee73169149a5a993310dcb3bed8cb932785610c0e611b33565b604051610c1c929190612678565b60405180910390a150505061118a565b5f60015f9054906101000a900473ffffffffffffffffffffffffffffffffffffffff1673ffffffffffffffffffffffffffffffffffffffff166355682614836040518263ffffffff1660e01b8152600401610c879190612065565b5f60405180830381865afa158015610ca1573d5f803e3d5ffd5b505050506040513d5f823e3d601f19601f82011682018060405250810190610cc991906123a6565b90505f60015f9054906101000a900473ffffffffffffffffffffffffffffffffffffffff1673ffffffffffffffffffffffffffffffffffffffff166309fdd73d836040518263ffffffff1660e01b8152600401610d269190612065565b602060405180830381865afa158015610d41573d5f803e3d5ffd5b505050506040513d601f19601f82011682018060405250810190610d659190612417565b14610da5576040517f08c379a0000000000000000000000000000000000000000000000000000000008152600401610d9c9061248c565b60405180910390fd5b5f805f8054906101000a900473ffffffffffffffffffffffffffffffffffffffff1673ffffffffffffffffffffffffffffffffffffffff1633604051602401610dee91906124e9565b6040516020818303038152906040527fd1aa0c20000000000000000000000000000000000000000000000000000000007bffffffffffffffffffffffffffffffffffffffffffffffffffffffff19166020820180517bffffffffffffffffffffffffffffffffffffffffffffffffffffffff8381831617835250505050604051610e789190612546565b5f604051808303815f865af19150503d805f8114610eb1576040519150601f19603f3d011682016040523d82523d5f602084013e610eb6565b606091505b509150915080806020019051810190610ecf9190612156565b610f0e576040517f08c379a0000000000000000000000000000000000000000000000000000000008152600401610f05906125cc565b60405180910390fd5b5f60015f9054906101000a900473ffffffffffffffffffffffffffffffffffffffff1673ffffffffffffffffffffffffffffffffffffffff166368f740ef6040518163ffffffff1660e01b8152600401602060405180830381865afa158015610f79573d5f803e3d5ffd5b505050506040513d601f19601f82011682018060405250810190610f9d9190612417565b905060015f9054906101000a900473ffffffffffffffffffffffffffffffffffffffff1673ffffffffffffffffffffffffffffffffffffffff1663ca7f68c287600184610fea9190612617565b6040518363ffffffff1660e01b815260040161100792919061264a565b5f604051808303815f87803b15801561101e575f80fd5b505af1158015611030573d5f803e3d5ffd5b5050505060015f9054906101000a900473ffffffffffffffffffffffffffffffffffffffff1673ffffffffffffffffffffffffffffffffffffffff16638025e4c98760018461107f9190612617565b6040518363ffffffff1660e01b815260040161109c92919061264a565b5f604051808303815f87803b1580156110b3575f80fd5b505af11580156110c5573d5f803e3d5ffd5b5050505060015f9054906101000a900473ffffffffffffffffffffffffffffffffffffffff1673ffffffffffffffffffffffffffffffffffffffff166307d392f26040518163ffffffff1660e01b81526004015f604051808303815f87803b15801561112f575f80fd5b505af1158015611141573d5f803e3d5ffd5b505050507f6c20742ff90156f0eedcbcb5b952656ee73169149a5a993310dcb3bed8cb93278661116f611b33565b60405161117d929190612678565b60405180910390a1505050505b5050565b8060015f9054906101000a900473ffffffffffffffffffffffffffffffffffffffff1673ffffffffffffffffffffffffffffffffffffffff1663c0edc8e2826040518263ffffffff1660e01b81526004016111e99190612065565b602060405180830381865afa158015611204573d5f803e3d5ffd5b505050506040513d601f19601f820116820180604052508101906112289190612156565b611267576040517f08c379a000000000000000000000000000000000000000000000000000000000815260040161125e906121f1565b60405180910390fd5b5f805f8054906101000a900473ffffffffffffffffffffffffffffffffffffffff1673ffffffffffffffffffffffffffffffffffffffff16336040516024016112b091906124e9565b6040516020818303038152906040527fd1aa0c20000000000000000000000000000000000000000000000000000000007bffffffffffffffffffffffffffffffffffffffffffffffffffffffff19166020820180517bffffffffffffffffffffffffffffffffffffffffffffffffffffffff838183161783525050505060405161133a9190612546565b5f604051808303815f865af19150503d805f8114611373576040519150601f19603f3d011682016040523d82523d5f602084013e611378565b606091505b5091509150808060200190518101906113919190612156565b6113d0576040517f08c379a00000000000000000000000000000000000000000000000000000000081526004016113c7906125cc565b60405180910390fd5b60015f9054906101000a900473ffffffffffffffffffffffffffffffffffffffff1673ffffffffffffffffffffffffffffffffffffffff1663bc373133856040518263ffffffff1660e01b815260040161142a9190612065565b5f604051808303815f87803b158015611441575f80fd5b505af1158015611453573d5f803e3d5ffd5b5050505060015f9054906101000a900473ffffffffffffffffffffffffffffffffffffffff1673ffffffffffffffffffffffffffffffffffffffff1663a705bf14856040518263ffffffff1660e01b81526004016114b19190612065565b5f604051808303815f87803b1580156114c8575f80fd5b505af11580156114da573d5f803e3d5ffd5b5050505060015f9054906101000a900473ffffffffffffffffffffffffffffffffffffffff1673ffffffffffffffffffffffffffffffffffffffff1663a6bee1cd6040518163ffffffff1660e01b81526004015f604051808303815f87803b158015611544575f80fd5b505af1158015611556573d5f803e3d5ffd5b505050507f94f038374508cbc8b724afedeb764260878ea23d0cc1b8cdeb0cc0296f2e4d39846040516115899190612065565b60405180910390a150505050565b8160015f9054906101000a900473ffffffffffffffffffffffffffffffffffffffff1673ffffffffffffffffffffffffffffffffffffffff1663c0edc8e2826040518263ffffffff1660e01b81526004016115f29190612065565b602060405180830381865afa15801561160d573d5f803e3d5ffd5b505050506040513d601f19601f820116820180604052508101906116319190612156565b611670576040517f08c379a0000000000000000000000000000000000000000000000000000000008152600401611667906121f1565b60405180910390fd5b5f805f8054906101000a900473ffffffffffffffffffffffffffffffffffffffff1673ffffffffffffffffffffffffffffffffffffffff16336040516024016116b991906124e9565b6040516020818303038152906040527fd1aa0c20000000000000000000000000000000000000000000000000000000007bffffffffffffffffffffffffffffffffffffffffffffffffffffffff19166020820180517bffffffffffffffffffffffffffffffffffffffffffffffffffffffff83818316178352505050506040516117439190612546565b5f604051808303815f865af19150503d805f811461177c576040519150601f19603f3d011682016040523d82523d5f602084013e611781565b606091505b50915091508080602001905181019061179a9190612156565b6117d9576040517f08c379a00000000000000000000000000000000000000000000000000000000081526004016117d0906125cc565b60405180910390fd5b60405180602001604052805f8152508051906020012060015f9054906101000a900473ffffffffffffffffffffffffffffffffffffffff1673ffffffffffffffffffffffffffffffffffffffff166355682614876040518263ffffffff1660e01b81526004016118499190612065565b5f60405180830381865afa158015611863573d5f803e3d5ffd5b505050506040513d5f823e3d601f19601f8201168201806040525081019061188b91906123a6565b80519060200120036119255760015f9054906101000a900473ffffffffffffffffffffffffffffffffffffffff1673ffffffffffffffffffffffffffffffffffffffff1663905f389886866040518363ffffffff1660e01b81526004016118f39291906126ad565b5f604051808303815f87803b15801561190a575f80fd5b505af115801561191c573d5f803e3d5ffd5b50505050611a4f565b5f60015f9054906101000a900473ffffffffffffffffffffffffffffffffffffffff1673ffffffffffffffffffffffffffffffffffffffff166355682614876040518263ffffffff1660e01b81526004016119809190612065565b5f60405180830381865afa15801561199a573d5f803e3d5ffd5b505050506040513d5f823e3d601f19601f820116820180604052508101906119c291906123a6565b905060015f9054906101000a900473ffffffffffffffffffffffffffffffffffffffff1673ffffffffffffffffffffffffffffffffffffffff1663905f389882876040518363ffffffff1660e01b8152600401611a209291906126ad565b5f604051808303815f87803b158015611a37575f80fd5b505af1158015611a49573d5f803e3d5ffd5b50505050505b7ff71ffe65390de2dda50dbe285cee7e8ccbde44a8dde8a1cc8c3c3d6e25eaf9af8585604051611a809291906126ad565b60405180910390a15050505050565b5f60015f9054906101000a900473ffffffffffffffffffffffffffffffffffffffff1673ffffffffffffffffffffffffffffffffffffffff1663dc2bb1f284846040518363ffffffff1660e01b8152600401611aec9291906126ad565b602060405180830381865afa158015611b07573d5f803e3d5ffd5b505050506040513d601f19601f82011682018060405250810190611b2b9190612156565b905092915050565b606060015f9054906101000a900473ffffffffffffffffffffffffffffffffffffffff1673ffffffffffffffffffffffffffffffffffffffff16635e9c9f7a6040518163ffffffff1660e01b81526004015f60405180830381865afa158015611b9e573d5f803e3d5ffd5b505050506040513d5f823e3d601f19601f82011682018060405250810190611bc6919061235f565b905090565b5f8060015f9054906101000a900473ffffffffffffffffffffffffffffffffffffffff1673ffffffffffffffffffffffffffffffffffffffff166368f740ef6040518163ffffffff1660e01b8152600401602060405180830381865afa158015611c37573d5f803e3d5ffd5b505050506040513d601f19601f82011682018060405250810190611c5b9190612417565b90505f60015f9054906101000a900473ffffffffffffffffffffffffffffffffffffffff1673ffffffffffffffffffffffffffffffffffffffff16638ea15a866040518163ffffffff1660e01b8152600401602060405180830381865afa158015611cc8573d5f803e3d5ffd5b505050506040513d601f19601f82011682018060405250810190611cec9190612417565b90508082611cfa91906126e2565b9250505090565b5f604051905090565b5f80fd5b5f80fd5b5f80fd5b5f80fd5b5f601f19601f8301169050919050565b7f4e487b71000000000000000000000000000000000000000000000000000000005f52604160045260245ffd5b611d6082611d1a565b810181811067ffffffffffffffff82111715611d7f57611d7e611d2a565b5b80604052505050565b5f611d91611d01565b9050611d9d8282611d57565b919050565b5f67ffffffffffffffff821115611dbc57611dbb611d2a565b5b611dc582611d1a565b9050602081019050919050565b828183375f83830152505050565b5f611df2611ded84611da2565b611d88565b905082815260208101848484011115611e0e57611e0d611d16565b5b611e19848285611dd2565b509392505050565b5f82601f830112611e3557611e34611d12565b5b8135611e45848260208601611de0565b91505092915050565b5f60208284031215611e6357611e62611d0a565b5b5f82013567ffffffffffffffff811115611e8057611e7f611d0e565b5b611e8c84828501611e21565b91505092915050565b5f81519050919050565b5f82825260208201905092915050565b5f819050602082019050919050565b5f81519050919050565b5f82825260208201905092915050565b5f5b83811015611ef5578082015181840152602081019050611eda565b5f8484015250505050565b5f611f0a82611ebe565b611f148185611ec8565b9350611f24818560208601611ed8565b611f2d81611d1a565b840191505092915050565b5f611f438383611f00565b905092915050565b5f602082019050919050565b5f611f6182611e95565b611f6b8185611e9f565b935083602082028501611f7d85611eaf565b805f5b85811015611fb85784840389528151611f998582611f38565b9450611fa483611f4b565b925060208a01995050600181019050611f80565b50829750879550505050505092915050565b5f6020820190508181035f830152611fe28184611f57565b905092915050565b5f8115159050919050565b611ffe81611fea565b82525050565b5f6020820190506120175f830184611ff5565b92915050565b5f82825260208201905092915050565b5f61203782611ebe565b612041818561201d565b9350612051818560208601611ed8565b61205a81611d1a565b840191505092915050565b5f6020820190508181035f83015261207d818461202d565b905092915050565b5f806040838503121561209b5761209a611d0a565b5b5f83013567ffffffffffffffff8111156120b8576120b7611d0e565b5b6120c485828601611e21565b925050602083013567ffffffffffffffff8111156120e5576120e4611d0e565b5b6120f185828601611e21565b9150509250929050565b5f819050919050565b61210d816120fb565b82525050565b5f6020820190506121265f830184612104565b92915050565b61213581611fea565b811461213f575f80fd5b50565b5f815190506121508161212c565b92915050565b5f6020828403121561216b5761216a611d0a565b5b5f61217884828501612142565b91505092915050565b7f4e6f7420612076616c69642063757272656e63792c20656e74657220746865205f8201527f6c6174657374206f6e6500000000000000000000000000000000000000000000602082015250565b5f6121db602a8361201d565b91506121e682612181565b604082019050919050565b5f6020820190508181035f830152612208816121cf565b9050919050565b5f67ffffffffffffffff82111561222957612228611d2a565b5b602082029050602081019050919050565b5f80fd5b5f61225061224b84611da2565b611d88565b90508281526020810184848401111561226c5761226b611d16565b5b612277848285611ed8565b509392505050565b5f82601f83011261229357612292611d12565b5b81516122a384826020860161223e565b91505092915050565b5f6122be6122b98461220f565b611d88565b905080838252602082019050602084028301858111156122e1576122e061223a565b5b835b8181101561232857805167ffffffffffffffff81111561230657612305611d12565b5b808601612313898261227f565b855260208501945050506020810190506122e3565b5050509392505050565b5f82601f83011261234657612345611d12565b5b81516123568482602086016122ac565b91505092915050565b5f6020828403121561237457612373611d0a565b5b5f82015167ffffffffffffffff81111561239157612390611d0e565b5b61239d84828501612332565b91505092915050565b5f602082840312156123bb576123ba611d0a565b5b5f82015167ffffffffffffffff8111156123d8576123d7611d0e565b5b6123e48482850161227f565b91505092915050565b6123f6816120fb565b8114612400575f80fd5b50565b5f81519050612411816123ed565b92915050565b5f6020828403121561242c5761242b611d0a565b5b5f61243984828501612403565b91505092915050565b7f43757272656e637920616c7265616479206578697374000000000000000000005f82015250565b5f61247660168361201d565b915061248182612442565b602082019050919050565b5f6020820190508181035f8301526124a38161246a565b9050919050565b5f73ffffffffffffffffffffffffffffffffffffffff82169050919050565b5f6124d3826124aa565b9050919050565b6124e3816124c9565b82525050565b5f6020820190506124fc5f8301846124da565b92915050565b5f81519050919050565b5f81905092915050565b5f61252082612502565b61252a818561250c565b935061253a818560208601611ed8565b80840191505092915050565b5f6125518284612516565b915081905092915050565b7f6163636f756e74206973206e6f742061206e6574776f726b2061646d696e20615f8201527f63636f756e740000000000000000000000000000000000000000000000000000602082015250565b5f6125b660268361201d565b91506125c18261255c565b604082019050919050565b5f6020820190508181035f8301526125e3816125aa565b9050919050565b7f4e487b71000000000000000000000000000000000000000000000000000000005f52601160045260245ffd5b5f612621826120fb565b915061262c836120fb565b9250828201905080821115612644576126436125ea565b5b92915050565b5f6040820190508181035f830152612662818561202d565b90506126716020830184612104565b9392505050565b5f6040820190508181035f830152612690818561202d565b905081810360208301526126a48184611f57565b90509392505050565b5f6040820190508181035f8301526126c5818561202d565b905081810360208301526126d9818461202d565b90509392505050565b5f6126ec826120fb565b91506126f7836120fb565b925082820390508181111561270f5761270e6125ea565b5b9291505056fea26469706673582212201875625f8257f131d7d2fe08764e6b3b77195cf6a358a560acb838948bb914c664736f6c63430008140033",
  "immutableReferences": {},
  "source": "pragma solidity ^0.8.0;\npragma experimental ABIEncoderV2;\nimport \"./VcnFunctionalModel.sol\";\ncontract VcnFunctionalManager is VcnFunctionalStructs {\n    address private permIntfAddress;\n    VcnFunctionalModel private vcnFunctionalModel;\n    uint private testVariable;\n\n    constructor(address _permIntf, address _vcnFunctionalModel) {\n        permIntfAddress = _permIntf;\n        vcnFunctionalModel = VcnFunctionalModel(_vcnFunctionalModel);\n    }\n    \n    modifier networkAdmin() {\n        (bool success, bytes memory data) = permIntfAddress.call(\n            abi.encodeWithSignature(\"isNetworkAdmin(address)\", msg.sender)\n        );\n        require(\n            abi.decode(data, (bool)),\n            \"account is not a network admin account\"\n        );\n        _;\n    }\n\n    modifier currencyExists(string memory _currency) {\n        if (\n            keccak256(\n                bytes(vcnFunctionalModel.getCurrencyNameIndexMember(_currency))\n            ) == keccak256(bytes(\"\"))\n        ) {\n            require(\n                vcnFunctionalModel.getIndexByCurrencyName(_currency) == 0,\n                \"Currency already exist\"\n            );\n            _;\n        } else {\n            string memory indexMember = vcnFunctionalModel\n                .getCurrencyNameIndexMember(_currency);\n            require(\n                vcnFunctionalModel.getIndexByCurrencyName(indexMember) == 0,\n                \"Currency already exist\"\n            );\n            _;\n        }\n    }\n    \n\n    modifier checkIfLatestCurrency(string memory _currency) {\n        require(vcnFunctionalModel.checkLatestCurrency(_currency), \"Not a valid currency, enter the latest one\");\n        _;\n    }\n    \n\n    event VcnCurrency(string _newCurrency, string[] _latestCurrencyArray);\n    event ModifyCurrency(string _oldVersionCurrency, string _newVersionCurrency);\n    event DeletedCurrency(string _deletedCurrency);\n\n    \n    function getCurrencyListLength() public view returns (uint256) {\n        uint256 totalListLength = vcnFunctionalModel\n            .getCurrencyTotalListLength();\n        uint256 deletedListLength = vcnFunctionalModel\n            .getCurrencyDeleteListLength();\n        return (totalListLength - deletedListLength);\n    }\n\n\n    function getCurrencyList() public view returns (string[] memory) {\n        return vcnFunctionalModel.getAllCurrencyType();\n    }\n\n\n    function getLatestCurrencyVersion(string memory currencyName)\n        public\n        view\n        returns (string memory latestCurrency)\n    {\n        if (\n            keccak256(\n                bytes(\n                    vcnFunctionalModel.getCurrencyNameIndexMember(currencyName)\n                )\n            ) == keccak256(bytes(\"\"))\n        ) {\n            return\n                vcnFunctionalModel.getLatestCurrencyOfIndexCurrency(\n                    currencyName\n                );\n        } else {\n            string memory indexMember = vcnFunctionalModel\n                .getCurrencyNameIndexMember(currencyName);\n            vcnFunctionalModel.getLatestCurrencyOfIndexCurrency(indexMember);\n        }\n    }\n\n\n\n    function setCurrency(string memory _currency) \n    public\n    currencyExists(_currency)\n    networkAdmin\n    {\n        uint256 id = vcnFunctionalModel.getCurrencyTotalListLength();\n        vcnFunctionalModel.addCurrencyType(_currency,id+1);\n        vcnFunctionalModel.setIndexByCurrencyName(_currency, id+1);\n        vcnFunctionalModel.inCurrencyTotalLength();\n        emit VcnCurrency(_currency, getCurrencyList());\n    }\n\n\n    function modifycurrency(string memory _currency1, string memory _currency2)\n    public\n    checkIfLatestCurrency(_currency1)\n    networkAdmin\n    {\n        if (\n            keccak256(\n                bytes(vcnFunctionalModel.getCurrencyNameIndexMember(_currency1))\n            ) == keccak256(bytes(\"\"))\n        ) {\n            vcnFunctionalModel.addNewVersionCurrencyName(\n                _currency1,\n                _currency2\n            );\n        } else {\n            string memory indexMember = vcnFunctionalModel\n                .getCurrencyNameIndexMember(_currency1);\n            vcnFunctionalModel.addNewVersionCurrencyName(\n                indexMember,\n                _currency2\n            );\n        }\n        emit ModifyCurrency(_currency1, _currency2);\n    }\n\n    \n    function deleteCurrency (string memory _currency)\n    public\n    checkIfLatestCurrency(_currency)\n    networkAdmin\n    {\n        vcnFunctionalModel.deleteAllCurrecnyVersion(_currency);  \n        vcnFunctionalModel.deleteIndexByCurrencyName(_currency);\n        vcnFunctionalModel.inCurrencyDeleteLength();\n        emit DeletedCurrency(_currency);\n    }\n\n\n    function isCurrencyExists(string memory _currency) public view \n    returns (bool)\n    {\n        return vcnFunctionalModel.checkLatestCurrency(_currency);\n    }\n\n    function checkCurrencyVersion (string memory _currency1, string memory _currency2) public view\n    returns (bool)\n    {\n        return vcnFunctionalModel.validateCurrencyVersion(_currency1, _currency2);\n    }\n\n    function getAllCurrencyVersion(string memory currency) public view\n    checkIfLatestCurrency(currency)\n    returns (string[] memory)\n    {\n        return vcnFunctionalModel.getAllCurrencyVersions(currency);\n    }\n}\n",
  "sourcePath": "/home/raghupathi/Desktop/javaClass/javaClass/contracts/VcnFunctionalManager.sol",
  "compiler": {
    "name": "solc",
    "version": "0.8.20+commit.a1b79de6.Emscripten.clang"
  },
  "schemaVersion": "3.4.14",
  "updatedAt": "2023-06-02T09:43:22.665Z",
  "devdoc": {
    "kind": "dev",
    "methods": {},
    "version": 1
  },
  "userdoc": {
    "kind": "user",
    "methods": {},
    "version": 1
  }
}