{
  "contractName": "VendorModel",
  "abi": [
    {
      "inputs": [
        {
          "internalType": "address",
          "name": "_Member",
          "type": "address"
        },
        {
          "internalType": "address",
          "name": "_List",
          "type": "address"
        },
        {
          "internalType": "address",
          "name": "_Map",
          "type": "address"
        },
        {
          "internalType": "address",
          "name": "_quireContracts",
          "type": "address"
        }
      ],
      "stateMutability": "nonpayable",
      "type": "constructor"
    },
    {
      "inputs": [
        {
          "internalType": "string",
          "name": "_gid",
          "type": "string"
        }
      ],
      "name": "getVendorIndex",
      "outputs": [
        {
          "internalType": "uint256",
          "name": "",
          "type": "uint256"
        }
      ],
      "stateMutability": "view",
      "type": "function"
    },
    {
      "inputs": [
        {
          "internalType": "string",
          "name": "_name",
          "type": "string"
        }
      ],
      "name": "getVendorGidMap",
      "outputs": [
        {
          "internalType": "string",
          "name": "",
          "type": "string"
        }
      ],
      "stateMutability": "view",
      "type": "function"
    },
    {
      "inputs": [
        {
          "internalType": "bytes8",
          "name": "_uid",
          "type": "bytes8"
        }
      ],
      "name": "getMergeIndex",
      "outputs": [
        {
          "internalType": "uint256",
          "name": "",
          "type": "uint256"
        }
      ],
      "stateMutability": "view",
      "type": "function"
    },
    {
      "inputs": [
        {
          "internalType": "string",
          "name": "_gid",
          "type": "string"
        }
      ],
      "name": "getGidIndex",
      "outputs": [
        {
          "internalType": "uint256",
          "name": "",
          "type": "uint256"
        }
      ],
      "stateMutability": "view",
      "type": "function"
    },
    {
      "inputs": [
        {
          "internalType": "bytes8",
          "name": "_uid",
          "type": "bytes8"
        }
      ],
      "name": "getSeedRequestIndex",
      "outputs": [
        {
          "internalType": "uint256",
          "name": "",
          "type": "uint256"
        }
      ],
      "stateMutability": "view",
      "type": "function"
    },
    {
      "inputs": [],
      "name": "getVendorListLength",
      "outputs": [
        {
          "internalType": "uint256",
          "name": "",
          "type": "uint256"
        }
      ],
      "stateMutability": "view",
      "type": "function"
    },
    {
      "inputs": [],
      "name": "getMergeListLength",
      "outputs": [
        {
          "internalType": "uint256",
          "name": "",
          "type": "uint256"
        }
      ],
      "stateMutability": "view",
      "type": "function"
    },
    {
      "inputs": [],
      "name": "getMergeApprovedListLength",
      "outputs": [
        {
          "internalType": "uint256",
          "name": "",
          "type": "uint256"
        }
      ],
      "stateMutability": "view",
      "type": "function"
    },
    {
      "inputs": [],
      "name": "getGidListLength",
      "outputs": [
        {
          "internalType": "uint256",
          "name": "",
          "type": "uint256"
        }
      ],
      "stateMutability": "view",
      "type": "function"
    },
    {
      "inputs": [],
      "name": "getSeedListLength",
      "outputs": [
        {
          "internalType": "uint256",
          "name": "",
          "type": "uint256"
        }
      ],
      "stateMutability": "view",
      "type": "function"
    },
    {
      "inputs": [],
      "name": "getSeedApprovedListLength",
      "outputs": [
        {
          "internalType": "uint256",
          "name": "",
          "type": "uint256"
        }
      ],
      "stateMutability": "view",
      "type": "function"
    },
    {
      "inputs": [
        {
          "internalType": "uint256",
          "name": "_index",
          "type": "uint256"
        }
      ],
      "name": "getVendorByIndex",
      "outputs": [
        {
          "components": [
            {
              "internalType": "string",
              "name": "gid",
              "type": "string"
            },
            {
              "internalType": "string",
              "name": "accountName",
              "type": "string"
            },
            {
              "internalType": "string",
              "name": "vendorEgpName",
              "type": "string"
            },
            {
              "internalType": "string[]",
              "name": "vendorEgpId",
              "type": "string[]"
            },
            {
              "internalType": "string[]",
              "name": "vendorEgpOrgId",
              "type": "string[]"
            },
            {
              "internalType": "uint16",
              "name": "version",
              "type": "uint16"
            }
          ],
          "internalType": "struct VendorStructs.Vendor",
          "name": "vendor_",
          "type": "tuple"
        }
      ],
      "stateMutability": "view",
      "type": "function"
    },
    {
      "inputs": [
        {
          "internalType": "uint256",
          "name": "_toExcluded",
          "type": "uint256"
        },
        {
          "internalType": "uint256",
          "name": "_count",
          "type": "uint256"
        }
      ],
      "name": "getAllVendors",
      "outputs": [
        {
          "components": [
            {
              "internalType": "string",
              "name": "gid",
              "type": "string"
            },
            {
              "internalType": "string",
              "name": "accountName",
              "type": "string"
            },
            {
              "internalType": "string",
              "name": "vendorEgpName",
              "type": "string"
            },
            {
              "internalType": "string[]",
              "name": "vendorEgpId",
              "type": "string[]"
            },
            {
              "internalType": "string[]",
              "name": "vendorEgpOrgId",
              "type": "string[]"
            },
            {
              "internalType": "uint16",
              "name": "version",
              "type": "uint16"
            }
          ],
          "internalType": "struct VendorStructs.Vendor[]",
          "name": "_vendor",
          "type": "tuple[]"
        },
        {
          "internalType": "uint256",
          "name": "fromIncluded_",
          "type": "uint256"
        },
        {
          "internalType": "uint256",
          "name": "length_",
          "type": "uint256"
        }
      ],
      "stateMutability": "view",
      "type": "function"
    },
    {
      "inputs": [
        {
          "internalType": "uint256",
          "name": "_index",
          "type": "uint256"
        }
      ],
      "name": "getVendorGid",
      "outputs": [
        {
          "internalType": "string",
          "name": "",
          "type": "string"
        }
      ],
      "stateMutability": "view",
      "type": "function"
    },
    {
      "inputs": [
        {
          "internalType": "uint256",
          "name": "_index",
          "type": "uint256"
        }
      ],
      "name": "getVendorAccountName",
      "outputs": [
        {
          "internalType": "string",
          "name": "",
          "type": "string"
        }
      ],
      "stateMutability": "view",
      "type": "function"
    },
    {
      "inputs": [
        {
          "internalType": "uint256",
          "name": "_index",
          "type": "uint256"
        }
      ],
      "name": "getVendorVendorEgpName",
      "outputs": [
        {
          "internalType": "string",
          "name": "",
          "type": "string"
        }
      ],
      "stateMutability": "view",
      "type": "function"
    },
    {
      "inputs": [
        {
          "internalType": "uint256",
          "name": "_index",
          "type": "uint256"
        }
      ],
      "name": "getVendorVendorEgpIds",
      "outputs": [
        {
          "internalType": "string[]",
          "name": "vendorEgpIds_",
          "type": "string[]"
        }
      ],
      "stateMutability": "view",
      "type": "function"
    },
    {
      "inputs": [
        {
          "internalType": "uint256",
          "name": "_index",
          "type": "uint256"
        }
      ],
      "name": "getVendorVendorEgpOrgIds",
      "outputs": [
        {
          "internalType": "string[]",
          "name": "vendorEgpOrgIds_",
          "type": "string[]"
        }
      ],
      "stateMutability": "view",
      "type": "function"
    },
    {
      "inputs": [
        {
          "internalType": "uint256",
          "name": "_index",
          "type": "uint256"
        }
      ],
      "name": "getVendorVersion",
      "outputs": [
        {
          "internalType": "uint16",
          "name": "",
          "type": "uint16"
        }
      ],
      "stateMutability": "view",
      "type": "function"
    },
    {
      "inputs": [
        {
          "internalType": "uint256",
          "name": "_toExcluded",
          "type": "uint256"
        },
        {
          "internalType": "uint256",
          "name": "_count",
          "type": "uint256"
        }
      ],
      "name": "getAllMergeRequests",
      "outputs": [
        {
          "components": [
            {
              "internalType": "string",
              "name": "gid1",
              "type": "string"
            },
            {
              "internalType": "string",
              "name": "gid2",
              "type": "string"
            },
            {
              "internalType": "enum VendorStructs.MergeRequestState",
              "name": "state",
              "type": "uint8"
            },
            {
              "internalType": "uint16",
              "name": "version",
              "type": "uint16"
            }
          ],
          "internalType": "struct VendorStructs.MergeRequest[]",
          "name": "mergeRequests_",
          "type": "tuple[]"
        },
        {
          "internalType": "uint256",
          "name": "fromIncluded_",
          "type": "uint256"
        },
        {
          "internalType": "uint256",
          "name": "length_",
          "type": "uint256"
        }
      ],
      "stateMutability": "view",
      "type": "function"
    },
    {
      "inputs": [
        {
          "internalType": "uint256",
          "name": "_index",
          "type": "uint256"
        }
      ],
      "name": "getMergeRequestByIndex",
      "outputs": [
        {
          "components": [
            {
              "internalType": "string",
              "name": "gid1",
              "type": "string"
            },
            {
              "internalType": "string",
              "name": "gid2",
              "type": "string"
            },
            {
              "internalType": "enum VendorStructs.MergeRequestState",
              "name": "state",
              "type": "uint8"
            },
            {
              "internalType": "uint16",
              "name": "version",
              "type": "uint16"
            }
          ],
          "internalType": "struct VendorStructs.MergeRequest",
          "name": "mergeRequest_",
          "type": "tuple"
        }
      ],
      "stateMutability": "view",
      "type": "function"
    },
    {
      "inputs": [
        {
          "internalType": "uint256",
          "name": "_index",
          "type": "uint256"
        }
      ],
      "name": "getMergeRequestGid1",
      "outputs": [
        {
          "internalType": "string",
          "name": "",
          "type": "string"
        }
      ],
      "stateMutability": "view",
      "type": "function"
    },
    {
      "inputs": [
        {
          "internalType": "uint256",
          "name": "_index",
          "type": "uint256"
        }
      ],
      "name": "getMergeRequestGid2",
      "outputs": [
        {
          "internalType": "string",
          "name": "",
          "type": "string"
        }
      ],
      "stateMutability": "view",
      "type": "function"
    },
    {
      "inputs": [
        {
          "internalType": "uint256",
          "name": "_index",
          "type": "uint256"
        }
      ],
      "name": "getMergeRequestState",
      "outputs": [
        {
          "internalType": "enum VendorStructs.MergeRequestState",
          "name": "",
          "type": "uint8"
        }
      ],
      "stateMutability": "view",
      "type": "function"
    },
    {
      "inputs": [
        {
          "internalType": "uint256",
          "name": "_index",
          "type": "uint256"
        }
      ],
      "name": "getMergeRequestVersion",
      "outputs": [
        {
          "internalType": "uint16",
          "name": "",
          "type": "uint16"
        }
      ],
      "stateMutability": "view",
      "type": "function"
    },
    {
      "inputs": [
        {
          "internalType": "uint256",
          "name": "_index",
          "type": "uint256"
        }
      ],
      "name": "getGidByIndex",
      "outputs": [
        {
          "components": [
            {
              "internalType": "string",
              "name": "gid",
              "type": "string"
            },
            {
              "internalType": "string",
              "name": "parentGid",
              "type": "string"
            },
            {
              "internalType": "string[]",
              "name": "childrenGids",
              "type": "string[]"
            },
            {
              "internalType": "string[]",
              "name": "associateGids",
              "type": "string[]"
            },
            {
              "internalType": "bool",
              "name": "active",
              "type": "bool"
            },
            {
              "internalType": "uint16",
              "name": "version",
              "type": "uint16"
            }
          ],
          "internalType": "struct VendorStructs.GID",
          "name": "gid_",
          "type": "tuple"
        }
      ],
      "stateMutability": "view",
      "type": "function"
    },
    {
      "inputs": [
        {
          "internalType": "uint256",
          "name": "_index",
          "type": "uint256"
        }
      ],
      "name": "getGidGid",
      "outputs": [
        {
          "internalType": "string",
          "name": "",
          "type": "string"
        }
      ],
      "stateMutability": "view",
      "type": "function"
    },
    {
      "inputs": [
        {
          "internalType": "uint256",
          "name": "_index",
          "type": "uint256"
        }
      ],
      "name": "getGidParentGid",
      "outputs": [
        {
          "internalType": "string",
          "name": "",
          "type": "string"
        }
      ],
      "stateMutability": "view",
      "type": "function"
    },
    {
      "inputs": [
        {
          "internalType": "uint256",
          "name": "_index",
          "type": "uint256"
        }
      ],
      "name": "getGidChildrenGids",
      "outputs": [
        {
          "internalType": "string[]",
          "name": "childrenGids_",
          "type": "string[]"
        }
      ],
      "stateMutability": "view",
      "type": "function"
    },
    {
      "inputs": [
        {
          "internalType": "uint256",
          "name": "_index",
          "type": "uint256"
        }
      ],
      "name": "getGidAssociateGid",
      "outputs": [
        {
          "internalType": "string[]",
          "name": "associateGids_",
          "type": "string[]"
        }
      ],
      "stateMutability": "view",
      "type": "function"
    },
    {
      "inputs": [
        {
          "internalType": "uint256",
          "name": "_index",
          "type": "uint256"
        }
      ],
      "name": "getGidActive",
      "outputs": [
        {
          "internalType": "bool",
          "name": "",
          "type": "bool"
        }
      ],
      "stateMutability": "view",
      "type": "function"
    },
    {
      "inputs": [
        {
          "internalType": "uint256",
          "name": "_index",
          "type": "uint256"
        }
      ],
      "name": "getGidVersion",
      "outputs": [
        {
          "internalType": "uint16",
          "name": "",
          "type": "uint16"
        }
      ],
      "stateMutability": "view",
      "type": "function"
    },
    {
      "inputs": [
        {
          "internalType": "uint256",
          "name": "_toExcluded",
          "type": "uint256"
        },
        {
          "internalType": "uint256",
          "name": "_count",
          "type": "uint256"
        }
      ],
      "name": "getAllGidSeedRequests",
      "outputs": [
        {
          "components": [
            {
              "internalType": "string",
              "name": "gid",
              "type": "string"
            },
            {
              "internalType": "string",
              "name": "vendorEgpId",
              "type": "string"
            },
            {
              "internalType": "string",
              "name": "vendorEgpOrgId",
              "type": "string"
            },
            {
              "internalType": "enum VendorStructs.SeedRequestState",
              "name": "state",
              "type": "uint8"
            },
            {
              "internalType": "uint16",
              "name": "version",
              "type": "uint16"
            }
          ],
          "internalType": "struct VendorStructs.GidSeedRequest[]",
          "name": "gidSeedRequests_",
          "type": "tuple[]"
        },
        {
          "internalType": "uint256",
          "name": "fromIncluded_",
          "type": "uint256"
        },
        {
          "internalType": "uint256",
          "name": "length_",
          "type": "uint256"
        }
      ],
      "stateMutability": "view",
      "type": "function"
    },
    {
      "inputs": [
        {
          "internalType": "uint256",
          "name": "_index",
          "type": "uint256"
        }
      ],
      "name": "getSeedRequestByIndex",
      "outputs": [
        {
          "components": [
            {
              "internalType": "string",
              "name": "gid",
              "type": "string"
            },
            {
              "internalType": "string",
              "name": "vendorEgpId",
              "type": "string"
            },
            {
              "internalType": "string",
              "name": "vendorEgpOrgId",
              "type": "string"
            },
            {
              "internalType": "enum VendorStructs.SeedRequestState",
              "name": "state",
              "type": "uint8"
            },
            {
              "internalType": "uint16",
              "name": "version",
              "type": "uint16"
            }
          ],
          "internalType": "struct VendorStructs.GidSeedRequest",
          "name": "gidSeedRequest_",
          "type": "tuple"
        }
      ],
      "stateMutability": "view",
      "type": "function"
    },
    {
      "inputs": [
        {
          "internalType": "uint256",
          "name": "_index",
          "type": "uint256"
        }
      ],
      "name": "getSeedRequestGid",
      "outputs": [
        {
          "internalType": "string",
          "name": "",
          "type": "string"
        }
      ],
      "stateMutability": "view",
      "type": "function"
    },
    {
      "inputs": [
        {
          "internalType": "uint256",
          "name": "_index",
          "type": "uint256"
        }
      ],
      "name": "getSeedRequestVendorEgpId",
      "outputs": [
        {
          "internalType": "string",
          "name": "",
          "type": "string"
        }
      ],
      "stateMutability": "view",
      "type": "function"
    },
    {
      "inputs": [
        {
          "internalType": "uint256",
          "name": "_index",
          "type": "uint256"
        }
      ],
      "name": "getSeedRequestVendorEgpOrgId",
      "outputs": [
        {
          "internalType": "string",
          "name": "",
          "type": "string"
        }
      ],
      "stateMutability": "view",
      "type": "function"
    },
    {
      "inputs": [
        {
          "internalType": "uint256",
          "name": "_index",
          "type": "uint256"
        }
      ],
      "name": "getSeedRequestState",
      "outputs": [
        {
          "internalType": "enum VendorStructs.SeedRequestState",
          "name": "",
          "type": "uint8"
        }
      ],
      "stateMutability": "view",
      "type": "function"
    },
    {
      "inputs": [
        {
          "internalType": "uint256",
          "name": "_index",
          "type": "uint256"
        }
      ],
      "name": "getSeedRequestVersion",
      "outputs": [
        {
          "internalType": "uint16",
          "name": "",
          "type": "uint16"
        }
      ],
      "stateMutability": "view",
      "type": "function"
    },
    {
      "inputs": [
        {
          "internalType": "string",
          "name": "_gid",
          "type": "string"
        },
        {
          "internalType": "uint256",
          "name": "_value",
          "type": "uint256"
        }
      ],
      "name": "setVendorIndex",
      "outputs": [],
      "stateMutability": "nonpayable",
      "type": "function"
    },
    {
      "inputs": [
        {
          "internalType": "string",
          "name": "_name",
          "type": "string"
        },
        {
          "internalType": "string",
          "name": "_gid",
          "type": "string"
        }
      ],
      "name": "setVendorGidMap",
      "outputs": [],
      "stateMutability": "nonpayable",
      "type": "function"
    },
    {
      "inputs": [
        {
          "internalType": "bytes8",
          "name": "_uid",
          "type": "bytes8"
        },
        {
          "internalType": "uint256",
          "name": "_value",
          "type": "uint256"
        }
      ],
      "name": "setMergeIndex",
      "outputs": [],
      "stateMutability": "nonpayable",
      "type": "function"
    },
    {
      "inputs": [
        {
          "internalType": "string",
          "name": "_gid",
          "type": "string"
        },
        {
          "internalType": "uint256",
          "name": "_value",
          "type": "uint256"
        }
      ],
      "name": "setGidIndex",
      "outputs": [],
      "stateMutability": "nonpayable",
      "type": "function"
    },
    {
      "inputs": [
        {
          "internalType": "bytes8",
          "name": "_uid",
          "type": "bytes8"
        },
        {
          "internalType": "uint256",
          "name": "_value",
          "type": "uint256"
        }
      ],
      "name": "setSeedRequestIndex",
      "outputs": [],
      "stateMutability": "nonpayable",
      "type": "function"
    },
    {
      "inputs": [],
      "name": "incVendorListLength",
      "outputs": [],
      "stateMutability": "nonpayable",
      "type": "function"
    },
    {
      "inputs": [],
      "name": "incMergeRequestListLength",
      "outputs": [],
      "stateMutability": "nonpayable",
      "type": "function"
    },
    {
      "inputs": [],
      "name": "incMergeApprovedListLength",
      "outputs": [],
      "stateMutability": "nonpayable",
      "type": "function"
    },
    {
      "inputs": [],
      "name": "incSeedApprovedListLength",
      "outputs": [],
      "stateMutability": "nonpayable",
      "type": "function"
    },
    {
      "inputs": [],
      "name": "incGidListLength",
      "outputs": [],
      "stateMutability": "nonpayable",
      "type": "function"
    },
    {
      "inputs": [],
      "name": "incSeedRequestListLength",
      "outputs": [],
      "stateMutability": "nonpayable",
      "type": "function"
    },
    {
      "inputs": [
        {
          "internalType": "uint256",
          "name": "_index",
          "type": "uint256"
        },
        {
          "internalType": "string",
          "name": "_gid",
          "type": "string"
        }
      ],
      "name": "setVendorGid",
      "outputs": [],
      "stateMutability": "nonpayable",
      "type": "function"
    },
    {
      "inputs": [
        {
          "internalType": "uint256",
          "name": "_index",
          "type": "uint256"
        },
        {
          "internalType": "string",
          "name": "_value",
          "type": "string"
        }
      ],
      "name": "setVendorAccountName",
      "outputs": [],
      "stateMutability": "nonpayable",
      "type": "function"
    },
    {
      "inputs": [
        {
          "internalType": "uint256",
          "name": "_index",
          "type": "uint256"
        },
        {
          "internalType": "string",
          "name": "_value",
          "type": "string"
        }
      ],
      "name": "setVendorVendorEgpName",
      "outputs": [],
      "stateMutability": "nonpayable",
      "type": "function"
    },
    {
      "inputs": [
        {
          "internalType": "uint256",
          "name": "_index",
          "type": "uint256"
        },
        {
          "internalType": "string",
          "name": "_value",
          "type": "string"
        }
      ],
      "name": "addVendorVendorEgpId",
      "outputs": [],
      "stateMutability": "nonpayable",
      "type": "function"
    },
    {
      "inputs": [
        {
          "internalType": "uint256",
          "name": "_index",
          "type": "uint256"
        },
        {
          "internalType": "string",
          "name": "_value",
          "type": "string"
        }
      ],
      "name": "addVendorVendorEgpOrgId",
      "outputs": [],
      "stateMutability": "nonpayable",
      "type": "function"
    },
    {
      "inputs": [
        {
          "internalType": "uint256",
          "name": "_index",
          "type": "uint256"
        }
      ],
      "name": "setVendorVersion",
      "outputs": [],
      "stateMutability": "nonpayable",
      "type": "function"
    },
    {
      "inputs": [
        {
          "internalType": "uint256",
          "name": "_index",
          "type": "uint256"
        },
        {
          "internalType": "string",
          "name": "_gid1",
          "type": "string"
        }
      ],
      "name": "setMergeRequestGid1",
      "outputs": [],
      "stateMutability": "nonpayable",
      "type": "function"
    },
    {
      "inputs": [
        {
          "internalType": "uint256",
          "name": "_index",
          "type": "uint256"
        },
        {
          "internalType": "string",
          "name": "_gid2",
          "type": "string"
        }
      ],
      "name": "setMergeRequestGid2",
      "outputs": [],
      "stateMutability": "nonpayable",
      "type": "function"
    },
    {
      "inputs": [
        {
          "internalType": "uint256",
          "name": "_index",
          "type": "uint256"
        },
        {
          "internalType": "enum VendorStructs.MergeRequestState",
          "name": "_value",
          "type": "uint8"
        }
      ],
      "name": "setMergeRequestState",
      "outputs": [],
      "stateMutability": "nonpayable",
      "type": "function"
    },
    {
      "inputs": [
        {
          "internalType": "uint256",
          "name": "_index",
          "type": "uint256"
        }
      ],
      "name": "setMergeRequestVersion",
      "outputs": [],
      "stateMutability": "nonpayable",
      "type": "function"
    },
    {
      "inputs": [
        {
          "internalType": "uint256",
          "name": "_index",
          "type": "uint256"
        },
        {
          "internalType": "string",
          "name": "_gid",
          "type": "string"
        }
      ],
      "name": "setGidGid",
      "outputs": [],
      "stateMutability": "nonpayable",
      "type": "function"
    },
    {
      "inputs": [
        {
          "internalType": "uint256",
          "name": "_index",
          "type": "uint256"
        },
        {
          "internalType": "string",
          "name": "_parentGid",
          "type": "string"
        }
      ],
      "name": "setGidParentGid",
      "outputs": [],
      "stateMutability": "nonpayable",
      "type": "function"
    },
    {
      "inputs": [
        {
          "internalType": "uint256",
          "name": "_index",
          "type": "uint256"
        },
        {
          "internalType": "string",
          "name": "_gid",
          "type": "string"
        }
      ],
      "name": "addGidChildrenGids",
      "outputs": [],
      "stateMutability": "nonpayable",
      "type": "function"
    },
    {
      "inputs": [
        {
          "internalType": "uint256",
          "name": "_index",
          "type": "uint256"
        },
        {
          "internalType": "string",
          "name": "_gid",
          "type": "string"
        }
      ],
      "name": "addGidAssociateGid",
      "outputs": [],
      "stateMutability": "nonpayable",
      "type": "function"
    },
    {
      "inputs": [
        {
          "internalType": "uint256",
          "name": "_index",
          "type": "uint256"
        },
        {
          "internalType": "bool",
          "name": "_value",
          "type": "bool"
        }
      ],
      "name": "setGidActive",
      "outputs": [],
      "stateMutability": "nonpayable",
      "type": "function"
    },
    {
      "inputs": [
        {
          "internalType": "uint256",
          "name": "_index",
          "type": "uint256"
        }
      ],
      "name": "setGidVersion",
      "outputs": [],
      "stateMutability": "nonpayable",
      "type": "function"
    },
    {
      "inputs": [
        {
          "internalType": "uint256",
          "name": "_index",
          "type": "uint256"
        },
        {
          "internalType": "string",
          "name": "_gid",
          "type": "string"
        }
      ],
      "name": "setSeedRequestGid",
      "outputs": [],
      "stateMutability": "nonpayable",
      "type": "function"
    },
    {
      "inputs": [
        {
          "internalType": "uint256",
          "name": "_index",
          "type": "uint256"
        },
        {
          "internalType": "string",
          "name": "_value",
          "type": "string"
        }
      ],
      "name": "setSeedRequestVendorEgpId",
      "outputs": [],
      "stateMutability": "nonpayable",
      "type": "function"
    },
    {
      "inputs": [
        {
          "internalType": "uint256",
          "name": "_index",
          "type": "uint256"
        },
        {
          "internalType": "string",
          "name": "_value",
          "type": "string"
        }
      ],
      "name": "setSeedRequestVendorEgpOrgId",
      "outputs": [],
      "stateMutability": "nonpayable",
      "type": "function"
    },
    {
      "inputs": [
        {
          "internalType": "uint256",
          "name": "_index",
          "type": "uint256"
        },
        {
          "internalType": "enum VendorStructs.SeedRequestState",
          "name": "_value",
          "type": "uint8"
        }
      ],
      "name": "setSeedRequestState",
      "outputs": [],
      "stateMutability": "nonpayable",
      "type": "function"
    },
    {
      "inputs": [
        {
          "internalType": "uint256",
          "name": "_index",
          "type": "uint256"
        }
      ],
      "name": "setSeedRequestVersion",
      "outputs": [],
      "stateMutability": "nonpayable",
      "type": "function"
    }
  ],
  "bytecode": "0x608060405234801562000010575f80fd5b506040516200dd123803806200dd128339818101604052810190620000369190620001a4565b835f806101000a81548173ffffffffffffffffffffffffffffffffffffffff021916908373ffffffffffffffffffffffffffffffffffffffff1602179055508260015f6101000a81548173ffffffffffffffffffffffffffffffffffffffff021916908373ffffffffffffffffffffffffffffffffffffffff1602179055508160025f6101000a81548173ffffffffffffffffffffffffffffffffffffffff021916908373ffffffffffffffffffffffffffffffffffffffff1602179055508060035f6101000a81548173ffffffffffffffffffffffffffffffffffffffff021916908373ffffffffffffffffffffffffffffffffffffffff1602179055505050505062000213565b5f80fd5b5f73ffffffffffffffffffffffffffffffffffffffff82169050919050565b5f6200016e8262000143565b9050919050565b620001808162000162565b81146200018b575f80fd5b50565b5f815190506200019e8162000175565b92915050565b5f805f8060808587031215620001bf57620001be6200013f565b5b5f620001ce878288016200018e565b9450506020620001e1878288016200018e565b9350506040620001f4878288016200018e565b925050606062000207878288016200018e565b91505092959194509250565b61daf180620002215f395ff3fe608060405234801561000f575f80fd5b506004361061041b575f3560e01c806380e8301a11610229578063b87dec731161012e578063d75959ba116100b6578063eb8d0a7b11610085578063eb8d0a7b14610d8f578063ed7d26c414610dab578063fcf95a5714610dc7578063fd164b0d14610de5578063ff687f4b14610e015761041b565b8063d75959ba14610cf3578063d8aabe7714610d25578063e48cc42014610d41578063e7151daf14610d715761041b565b8063c8d9c445116100fd578063c8d9c44514610c3d578063caa99b3414610c47578063cfe3e41214610c63578063d3b9bd2d14610c93578063d4a84ecc14610cc35761041b565b8063b87dec7314610bb5578063b8af711d14610be5578063bc192acc14610c03578063be1917e414610c215761041b565b8063aa2cdfb6116101b1578063afc869aa11610180578063afc869aa14610aff578063b174025814610b2f578063b2d1940614610b4b578063b67cff4f14610b69578063b71395a014610b995761041b565b8063aa2cdfb614610a65578063aa663c6e14610a83578063ab62526a14610ab3578063abf423e314610ae35761041b565b80638fa1a8c1116101f85780638fa1a8c1146109c157806396cd0a62146109cb5780639897a051146109fd5780639fbdf4ef14610a19578063a5de80a414610a495761041b565b806380e8301a1461092957806381ce4074146109455780638a1e2d01146109755780638d3bbb9a146109915761041b565b806339e717521161032f578063578a0f90116102b7578063675ec38411610286578063675ec3841461084b5780636acf1f6c1461087b5780636b3c1ca5146108ab5780636de2f9b7146108c757806374dfd9de146108f75761041b565b8063578a0f901461078b57806358d1b6ae146107bb5780635a711810146107eb578063666f51151461081b5761041b565b806343bb75b2116102fe57806343bb75b2146106d75780634b01512d146107075780635234db1b146107235780635493326b1461073f578063566058781461076f5761041b565b806339e717521461068b5780633bd212f2146106a75780633c0eaa62146106b15780633da5c5c0146106bb5761041b565b8063259ad3b9116103b257806329a6406c1161038157806329a6406c146105fb578063300cb5f91461062b578063357eafe71461063557806336a3cf831461065157806337a27248146106815761041b565b8063259ad3b91461054f5780632616a9591461056b57806326d0f1131461059b578063288ec09d146105cb5761041b565b806317476816116103ee57806317476816146104a35780631b8260a1146104d35780631cd54965146105035780631f4ff9591461051f5761041b565b80630145d4ee1461041f57806303d8681c1461043b5780630721b8f21461046b5780630ab02b6d14610487575b5f80fd5b6104396004803603810190610434919061c0be565b610e1d565b005b6104556004803603810190610450919061c118565b6111d7565b604051610462919061c15f565b60405180910390f35b6104856004803603810190610480919061c118565b61146a565b005b6104a1600480360381019061049c919061c0be565b6116d7565b005b6104bd60048036038101906104b8919061c118565b611c8d565b6040516104ca919061c1f2565b60405180910390f35b6104ed60048036038101906104e8919061c118565b611f24565b6040516104fa919061c3c6565b60405180910390f35b61051d6004803603810190610518919061c0be565b6120ee565b005b6105396004803603810190610534919061c118565b6126a4565b604051610546919061c469565b60405180910390f35b6105696004803603810190610564919061c0be565b612b7e565b005b6105856004803603810190610580919061c118565b612deb565b604051610592919061c15f565b60405180910390f35b6105b560048036038101906105b0919061c118565b612f31565b6040516105c2919061c1f2565b60405180910390f35b6105e560048036038101906105e0919061c118565b6131c8565b6040516105f2919061c1f2565b60405180910390f35b6106156004803603810190610610919061c118565b61345f565b604051610622919061c15f565b60405180910390f35b6106336136f2565b005b61064f600480360381019061064a919061c4ac565b613922565b005b61066b6004803603810190610666919061c118565b613cee565b604051610678919061c5c4565b60405180910390f35b610689613ebd565b005b6106a560048036038101906106a0919061c118565b6140ed565b005b6106af6144a7565b005b6106b96146d7565b005b6106d560048036038101906106d0919061c639565b614907565b005b6106f160048036038101906106ec919061c118565b614b3d565b6040516106fe919061c1f2565b60405180910390f35b610721600480360381019061071c919061c6ac565b614dd4565b005b61073d6004803603810190610738919061c0be565b615041565b005b6107596004803603810190610754919061c118565b6152ae565b604051610766919061c7b1565b60405180910390f35b6107896004803603810190610784919061c0be565b61548e565b005b6107a560048036038101906107a0919061c118565b6156fb565b6040516107b2919061c1f2565b60405180910390f35b6107d560048036038101906107d0919061c118565b615992565b6040516107e2919061c87b565b60405180910390f35b6108056004803603810190610800919061c89b565b6159fe565b604051610812919061c8f1565b60405180910390f35b6108356004803603810190610830919061c118565b615b0d565b604051610842919061c1f2565b60405180910390f35b6108656004803603810190610860919061c118565b615da4565b604051610872919061c469565b60405180910390f35b6108956004803603810190610890919061c89b565b61627e565b6040516108a2919061c8f1565b60405180910390f35b6108c560048036038101906108c0919061c118565b61638d565b005b6108e160048036038101906108dc919061c118565b616747565b6040516108ee919061c919565b60405180910390f35b610911600480360381019061090c919061c932565b61688d565b6040516109209392919061cacd565b60405180910390f35b610943600480360381019061093e919061cb09565b616988565b005b61095f600480360381019061095a919061c118565b616bbe565b60405161096c919061c469565b60405180910390f35b61098f600480360381019061098a919061c0be565b616f4b565b005b6109ab60048036038101906109a6919061c118565b617305565b6040516109b8919061cb8e565b60405180910390f35b6109c96175aa565b005b6109e560048036038101906109e0919061c932565b6177da565b6040516109f49392919061ccc9565b60405180910390f35b610a176004803603810190610a12919061c0be565b6178d5565b005b610a336004803603810190610a2e919061cd05565b617e8b565b604051610a40919061c8f1565b60405180910390f35b610a636004803603810190610a5e919061c0be565b617f9a565b005b610a6d618207565b604051610a7a919061c8f1565b60405180910390f35b610a9d6004803603810190610a98919061c118565b618312565b604051610aaa919061c1f2565b60405180910390f35b610acd6004803603810190610ac8919061c118565b6185a9565b604051610ada919061cd3f565b60405180910390f35b610afd6004803603810190610af8919061cd58565b618851565b005b610b196004803603810190610b14919061cd05565b618a87565b604051610b26919061c8f1565b60405180910390f35b610b496004803603810190610b44919061c0be565b618b96565b005b610b53618f50565b604051610b60919061c8f1565b60405180910390f35b610b836004803603810190610b7e919061c118565b61905b565b604051610b90919061c1f2565b60405180910390f35b610bb36004803603810190610bae919061cd58565b6191a5565b005b610bcf6004803603810190610bca919061c118565b6193db565b604051610bdc919061c15f565b60405180910390f35b610bed61966e565b604051610bfa919061c8f1565b60405180910390f35b610c0b619779565b604051610c18919061c8f1565b60405180910390f35b610c3b6004803603810190610c36919061c639565b619884565b005b610c45619aba565b005b610c616004803603810190610c5c919061c0be565b619cea565b005b610c7d6004803603810190610c78919061c118565b61a0a4565b604051610c8a919061c469565b60405180910390f35b610cad6004803603810190610ca8919061c118565b61a431565b604051610cba919061c1f2565b60405180910390f35b610cdd6004803603810190610cd8919061c118565b61a6c8565b604051610cea919061c1f2565b60405180910390f35b610d0d6004803603810190610d08919061c932565b61a812565b604051610d1c9392919061ceee565b60405180910390f35b610d3f6004803603810190610d3a919061c0be565b61a90d565b005b610d5b6004803603810190610d56919061c89b565b61acc7565b604051610d68919061c1f2565b60405180910390f35b610d7961adda565b604051610d86919061c8f1565b60405180910390f35b610da96004803603810190610da4919061c0be565b61aee5565b005b610dc56004803603810190610dc0919061c0be565b61b49b565b005b610dcf61b708565b604051610ddc919061c8f1565b60405180910390f35b610dff6004803603810190610dfa919061c118565b61b813565b005b610e1b6004803603810190610e16919061cf4d565b61ba80565b005b60035f9054906101000a900473ffffffffffffffffffffffffffffffffffffffff1673ffffffffffffffffffffffffffffffffffffffff1663ef02a3fc6040518060400160405280600e81526020017f56454e444f525f4d414e414745520000000000000000000000000000000000008152506040518263ffffffff1660e01b8152600401610eac919061c1f2565b602060405180830381865afa158015610ec7573d5f803e3d5ffd5b505050506040513d601f19601f82011682018060405250810190610eeb919061cfe5565b73ffffffffffffffffffffffffffffffffffffffff163373ffffffffffffffffffffffffffffffffffffffff1614610f58576040517f08c379a0000000000000000000000000000000000000000000000000000000008152600401610f4f9061d05a565b60405180910390fd5b815f60015f9054906101000a900473ffffffffffffffffffffffffffffffffffffffff1673ffffffffffffffffffffffffffffffffffffffff16633bea27536040518060400160405280600e81526020017f56454e444f525f4d414e414745520000000000000000000000000000000000008152506040518060400160405280601681526020017f6c6973745f5f6d65726765526571756573744c697374000000000000000000008152506040518363ffffffff1660e01b815260040161102092919061d078565b602060405180830381865afa15801561103b573d5f803e3d5ffd5b505050506040513d601f19601f8201168201806040525081019061105f919061d0c1565b90508082106110a3576040517f08c379a000000000000000000000000000000000000000000000000000000000815260040161109a9061d136565b60405180910390fd5b60015f9054906101000a900473ffffffffffffffffffffffffffffffffffffffff1673ffffffffffffffffffffffffffffffffffffffff1663c8f1cd876040518060400160405280600e81526020017f56454e444f525f4d414e414745520000000000000000000000000000000000008152506040518060400160405280601681526020017f6c6973745f5f6d65726765526571756573744c69737400000000000000000000815250876040518060400160405280600481526020017f6769643100000000000000000000000000000000000000000000000000000000815250886040518663ffffffff1660e01b81526004016111a495949392919061d154565b5f604051808303815f87803b1580156111bb575f80fd5b505af11580156111cd573d5f803e3d5ffd5b5050505050505050565b5f815f60015f9054906101000a900473ffffffffffffffffffffffffffffffffffffffff1673ffffffffffffffffffffffffffffffffffffffff16633bea27536040518060400160405280600e81526020017f56454e444f525f4d414e414745520000000000000000000000000000000000008152506040518060400160405280601681526020017f6c6973745f5f6d65726765526571756573744c697374000000000000000000008152506040518363ffffffff1660e01b81526004016112a092919061d078565b602060405180830381865afa1580156112bb573d5f803e3d5ffd5b505050506040513d601f19601f820116820180604052508101906112df919061d0c1565b9050808210611323576040517f08c379a000000000000000000000000000000000000000000000000000000000815260040161131a9061d136565b60405180910390fd5b60015f9054906101000a900473ffffffffffffffffffffffffffffffffffffffff1673ffffffffffffffffffffffffffffffffffffffff166303afa62b6040518060400160405280600e81526020017f56454e444f525f4d414e414745520000000000000000000000000000000000008152506040518060400160405280601681526020017f6c6973745f5f6d65726765526571756573744c69737400000000000000000000815250876040518060400160405280600781526020017f76657273696f6e000000000000000000000000000000000000000000000000008152506040518563ffffffff1660e01b8152600401611422949392919061d1c1565b602060405180830381865afa15801561143d573d5f803e3d5ffd5b505050506040513d601f19601f82011682018060405250810190611461919061d243565b92505050919050565b60035f9054906101000a900473ffffffffffffffffffffffffffffffffffffffff1673ffffffffffffffffffffffffffffffffffffffff1663ef02a3fc6040518060400160405280600e81526020017f56454e444f525f4d414e414745520000000000000000000000000000000000008152506040518263ffffffff1660e01b81526004016114f9919061c1f2565b602060405180830381865afa158015611514573d5f803e3d5ffd5b505050506040513d601f19601f82011682018060405250810190611538919061cfe5565b73ffffffffffffffffffffffffffffffffffffffff163373ffffffffffffffffffffffffffffffffffffffff16146115a5576040517f08c379a000000000000000000000000000000000000000000000000000000000815260040161159c9061d05a565b60405180910390fd5b60015f9054906101000a900473ffffffffffffffffffffffffffffffffffffffff1673ffffffffffffffffffffffffffffffffffffffff1663c4f188576040518060400160405280600e81526020017f56454e444f525f4d414e414745520000000000000000000000000000000000008152506040518060400160405280600d81526020017f6c6973745f5f6769644c69737400000000000000000000000000000000000000815250846040518060400160405280600781526020017f76657273696f6e0000000000000000000000000000000000000000000000000081525060016040518663ffffffff1660e01b81526004016116a795949392919061d26e565b5f604051808303815f87803b1580156116be575f80fd5b505af11580156116d0573d5f803e3d5ffd5b5050505050565b60035f9054906101000a900473ffffffffffffffffffffffffffffffffffffffff1673ffffffffffffffffffffffffffffffffffffffff1663ef02a3fc6040518060400160405280600e81526020017f56454e444f525f4d414e414745520000000000000000000000000000000000008152506040518263ffffffff1660e01b8152600401611766919061c1f2565b602060405180830381865afa158015611781573d5f803e3d5ffd5b505050506040513d601f19601f820116820180604052508101906117a5919061cfe5565b73ffffffffffffffffffffffffffffffffffffffff163373ffffffffffffffffffffffffffffffffffffffff1614611812576040517f08c379a00000000000000000000000000000000000000000000000000000000081526004016118099061d05a565b60405180910390fd5b5f60015f9054906101000a900473ffffffffffffffffffffffffffffffffffffffff1673ffffffffffffffffffffffffffffffffffffffff166332e053256040518060400160405280600e81526020017f56454e444f525f4d414e414745520000000000000000000000000000000000008152506040518060400160405280601081526020017f6c6973745f5f76656e646f724c69737400000000000000000000000000000000815250866040518060400160405280601281526020017f6c6973745f5f76656e646f7245677049647300000000000000000000000000008152506040518060400160405280600881526020017f5f5f6c656e677468000000000000000000000000000000000000000000000000815250604051602001611939919061d30e565b6040516020818303038152906040526040518663ffffffff1660e01b815260040161196895949392919061d376565b602060405180830381865afa158015611983573d5f803e3d5ffd5b505050506040513d601f19601f820116820180604052508101906119a7919061d0c1565b905060015f9054906101000a900473ffffffffffffffffffffffffffffffffffffffff1673ffffffffffffffffffffffffffffffffffffffff1663f07aee956040518060400160405280600e81526020017f56454e444f525f4d414e414745520000000000000000000000000000000000008152506040518060400160405280601081526020017f6c6973745f5f76656e646f724c69737400000000000000000000000000000000815250866040518060400160405280601281526020017f6c6973745f5f76656e646f7245677049647300000000000000000000000000008152506040518060400160405280600881526020017f5f5f6c656e677468000000000000000000000000000000000000000000000000815250604051602001611acf919061d30e565b604051602081830303815290604052876001611aeb919061d410565b6040518763ffffffff1660e01b8152600401611b0c9695949392919061d443565b5f604051808303815f87803b158015611b23575f80fd5b505af1158015611b35573d5f803e3d5ffd5b5050505060015f9054906101000a900473ffffffffffffffffffffffffffffffffffffffff1673ffffffffffffffffffffffffffffffffffffffff1663df0a5a526040518060400160405280600e81526020017f56454e444f525f4d414e414745520000000000000000000000000000000000008152506040518060400160405280601081526020017f6c6973745f5f76656e646f724c69737400000000000000000000000000000000815250866040518060400160405280601281526020017f6c6973745f5f76656e646f72456770496473000000000000000000000000000081525086604051602001611c2a919061d4de565b604051602081830303815290604052886040518763ffffffff1660e01b8152600401611c5b9695949392919061d4f8565b5f604051808303815f87803b158015611c72575f80fd5b505af1158015611c84573d5f803e3d5ffd5b50505050505050565b6060815f60015f9054906101000a900473ffffffffffffffffffffffffffffffffffffffff1673ffffffffffffffffffffffffffffffffffffffff16633bea27536040518060400160405280600e81526020017f56454e444f525f4d414e414745520000000000000000000000000000000000008152506040518060400160405280601081526020017f6c6973745f5f76656e646f724c697374000000000000000000000000000000008152506040518363ffffffff1660e01b8152600401611d5792919061d078565b602060405180830381865afa158015611d72573d5f803e3d5ffd5b505050506040513d601f19601f82011682018060405250810190611d96919061d0c1565b9050808210611dda576040517f08c379a0000000000000000000000000000000000000000000000000000000008152600401611dd19061d136565b60405180910390fd5b60015f9054906101000a900473ffffffffffffffffffffffffffffffffffffffff1673ffffffffffffffffffffffffffffffffffffffff16632136448c6040518060400160405280600e81526020017f56454e444f525f4d414e414745520000000000000000000000000000000000008152506040518060400160405280601081526020017f6c6973745f5f76656e646f724c69737400000000000000000000000000000000815250876040518060400160405280600381526020017f67696400000000000000000000000000000000000000000000000000000000008152506040518563ffffffff1660e01b8152600401611ed9949392919061d1c1565b5f60405180830381865afa158015611ef3573d5f803e3d5ffd5b505050506040513d5f823e3d601f19601f82011682018060405250810190611f1b919061d5e8565b92505050919050565b611f2c61be4c565b815f60015f9054906101000a900473ffffffffffffffffffffffffffffffffffffffff1673ffffffffffffffffffffffffffffffffffffffff16633bea27536040518060400160405280600e81526020017f56454e444f525f4d414e414745520000000000000000000000000000000000008152506040518060400160405280601081526020017f6c6973745f5f76656e646f724c697374000000000000000000000000000000008152506040518363ffffffff1660e01b8152600401611ff492919061d078565b602060405180830381865afa15801561200f573d5f803e3d5ffd5b505050506040513d601f19601f82011682018060405250810190612033919061d0c1565b9050808210612077576040517f08c379a000000000000000000000000000000000000000000000000000000000815260040161206e9061d136565b60405180910390fd5b61208084611c8d565b835f018190525061209084618312565b83602001819052506120a18461a431565b83604001819052506120b284615da4565b83606001819052506120c3846126a4565b83608001819052506120d4846193db565b8360a0019061ffff16908161ffff16815250505050919050565b60035f9054906101000a900473ffffffffffffffffffffffffffffffffffffffff1673ffffffffffffffffffffffffffffffffffffffff1663ef02a3fc6040518060400160405280600e81526020017f56454e444f525f4d414e414745520000000000000000000000000000000000008152506040518263ffffffff1660e01b815260040161217d919061c1f2565b602060405180830381865afa158015612198573d5f803e3d5ffd5b505050506040513d601f19601f820116820180604052508101906121bc919061cfe5565b73ffffffffffffffffffffffffffffffffffffffff163373ffffffffffffffffffffffffffffffffffffffff1614612229576040517f08c379a00000000000000000000000000000000000000000000000000000000081526004016122209061d05a565b60405180910390fd5b5f60015f9054906101000a900473ffffffffffffffffffffffffffffffffffffffff1673ffffffffffffffffffffffffffffffffffffffff166332e053256040518060400160405280600e81526020017f56454e444f525f4d414e414745520000000000000000000000000000000000008152506040518060400160405280600d81526020017f6c6973745f5f6769644c69737400000000000000000000000000000000000000815250866040518060400160405280600c81526020017f6368696c6472656e4769647300000000000000000000000000000000000000008152506040518060400160405280600881526020017f5f5f6c656e677468000000000000000000000000000000000000000000000000815250604051602001612350919061d30e565b6040516020818303038152906040526040518663ffffffff1660e01b815260040161237f95949392919061d376565b602060405180830381865afa15801561239a573d5f803e3d5ffd5b505050506040513d601f19601f820116820180604052508101906123be919061d0c1565b905060015f9054906101000a900473ffffffffffffffffffffffffffffffffffffffff1673ffffffffffffffffffffffffffffffffffffffff1663f07aee956040518060400160405280600e81526020017f56454e444f525f4d414e414745520000000000000000000000000000000000008152506040518060400160405280600d81526020017f6c6973745f5f6769644c69737400000000000000000000000000000000000000815250866040518060400160405280600c81526020017f6368696c6472656e4769647300000000000000000000000000000000000000008152506040518060400160405280600881526020017f5f5f6c656e6774680000000000000000000000000000000000000000000000008152506040516020016124e6919061d30e565b604051602081830303815290604052876001612502919061d410565b6040518763ffffffff1660e01b81526004016125239695949392919061d443565b5f604051808303815f87803b15801561253a575f80fd5b505af115801561254c573d5f803e3d5ffd5b5050505060015f9054906101000a900473ffffffffffffffffffffffffffffffffffffffff1673ffffffffffffffffffffffffffffffffffffffff1663df0a5a526040518060400160405280600e81526020017f56454e444f525f4d414e414745520000000000000000000000000000000000008152506040518060400160405280600d81526020017f6c6973745f5f6769644c69737400000000000000000000000000000000000000815250866040518060400160405280600c81526020017f6368696c6472656e47696473000000000000000000000000000000000000000081525086604051602001612641919061d4de565b604051602081830303815290604052886040518763ffffffff1660e01b81526004016126729695949392919061d4f8565b5f604051808303815f87803b158015612689575f80fd5b505af115801561269b573d5f803e3d5ffd5b50505050505050565b6060815f60015f9054906101000a900473ffffffffffffffffffffffffffffffffffffffff1673ffffffffffffffffffffffffffffffffffffffff16633bea27536040518060400160405280600e81526020017f56454e444f525f4d414e414745520000000000000000000000000000000000008152506040518060400160405280601081526020017f6c6973745f5f76656e646f724c697374000000000000000000000000000000008152506040518363ffffffff1660e01b815260040161276e92919061d078565b602060405180830381865afa158015612789573d5f803e3d5ffd5b505050506040513d601f19601f820116820180604052508101906127ad919061d0c1565b90508082106127f1576040517f08c379a00000000000000000000000000000000000000000000000000000000081526004016127e89061d136565b60405180910390fd5b5f60015f9054906101000a900473ffffffffffffffffffffffffffffffffffffffff1673ffffffffffffffffffffffffffffffffffffffff166332e053256040518060400160405280600e81526020017f56454e444f525f4d414e414745520000000000000000000000000000000000008152506040518060400160405280601081526020017f6c6973745f5f76656e646f724c69737400000000000000000000000000000000815250886040518060400160405280601581526020017f6c6973745f5f76656e646f724567704f726749647300000000000000000000008152506040518060400160405280600881526020017f5f5f6c656e677468000000000000000000000000000000000000000000000000815250604051602001612918919061d30e565b6040516020818303038152906040526040518663ffffffff1660e01b815260040161294795949392919061d376565b602060405180830381865afa158015612962573d5f803e3d5ffd5b505050506040513d601f19601f82011682018060405250810190612986919061d0c1565b90508067ffffffffffffffff8111156129a2576129a161bf9a565b5b6040519080825280602002602001820160405280156129d557816020015b60608152602001906001900390816129c05790505b5093505f5b81811015612b755760015f9054906101000a900473ffffffffffffffffffffffffffffffffffffffff1673ffffffffffffffffffffffffffffffffffffffff1663fa7598d56040518060400160405280600e81526020017f56454e444f525f4d414e414745520000000000000000000000000000000000008152506040518060400160405280601081526020017f6c6973745f5f76656e646f724c69737400000000000000000000000000000000815250896040518060400160405280601581526020017f6c6973745f5f76656e646f724567704f7267496473000000000000000000000081525086604051602001612ad3919061d4de565b6040516020818303038152906040526040518663ffffffff1660e01b8152600401612b0295949392919061d376565b5f60405180830381865afa158015612b1c573d5f803e3d5ffd5b505050506040513d5f823e3d601f19601f82011682018060405250810190612b44919061d5e8565b858281518110612b5757612b5661d62f565b5b60200260200101819052508080612b6d9061d65c565b9150506129da565b50505050919050565b60035f9054906101000a900473ffffffffffffffffffffffffffffffffffffffff1673ffffffffffffffffffffffffffffffffffffffff1663ef02a3fc6040518060400160405280600e81526020017f56454e444f525f4d414e414745520000000000000000000000000000000000008152506040518263ffffffff1660e01b8152600401612c0d919061c1f2565b602060405180830381865afa158015612c28573d5f803e3d5ffd5b505050506040513d601f19601f82011682018060405250810190612c4c919061cfe5565b73ffffffffffffffffffffffffffffffffffffffff163373ffffffffffffffffffffffffffffffffffffffff1614612cb9576040517f08c379a0000000000000000000000000000000000000000000000000000000008152600401612cb09061d05a565b60405180910390fd5b60015f9054906101000a900473ffffffffffffffffffffffffffffffffffffffff1673ffffffffffffffffffffffffffffffffffffffff1663c8f1cd876040518060400160405280600e81526020017f56454e444f525f4d414e414745520000000000000000000000000000000000008152506040518060400160405280601081526020017f6c6973745f5f76656e646f724c69737400000000000000000000000000000000815250856040518060400160405280600381526020017f6769640000000000000000000000000000000000000000000000000000000000815250866040518663ffffffff1660e01b8152600401612dba95949392919061d154565b5f604051808303815f87803b158015612dd1575f80fd5b505af1158015612de3573d5f803e3d5ffd5b505050505050565b5f60015f9054906101000a900473ffffffffffffffffffffffffffffffffffffffff1673ffffffffffffffffffffffffffffffffffffffff166303afa62b6040518060400160405280600e81526020017f56454e444f525f4d414e414745520000000000000000000000000000000000008152506040518060400160405280600d81526020017f6c6973745f5f6769644c69737400000000000000000000000000000000000000815250856040518060400160405280600781526020017f76657273696f6e000000000000000000000000000000000000000000000000008152506040518563ffffffff1660e01b8152600401612eeb949392919061d1c1565b602060405180830381865afa158015612f06573d5f803e3d5ffd5b505050506040513d601f19601f82011682018060405250810190612f2a919061d243565b9050919050565b6060815f60015f9054906101000a900473ffffffffffffffffffffffffffffffffffffffff1673ffffffffffffffffffffffffffffffffffffffff16633bea27536040518060400160405280600e81526020017f56454e444f525f4d414e414745520000000000000000000000000000000000008152506040518060400160405280601581526020017f6c6973745f5f73656564526571756573744c69737400000000000000000000008152506040518363ffffffff1660e01b8152600401612ffb92919061d078565b602060405180830381865afa158015613016573d5f803e3d5ffd5b505050506040513d601f19601f8201168201806040525081019061303a919061d0c1565b905080821061307e576040517f08c379a00000000000000000000000000000000000000000000000000000000081526004016130759061d136565b60405180910390fd5b60015f9054906101000a900473ffffffffffffffffffffffffffffffffffffffff1673ffffffffffffffffffffffffffffffffffffffff16632136448c6040518060400160405280600e81526020017f56454e444f525f4d414e414745520000000000000000000000000000000000008152506040518060400160405280601581526020017f6c6973745f5f73656564526571756573744c6973740000000000000000000000815250876040518060400160405280600381526020017f67696400000000000000000000000000000000000000000000000000000000008152506040518563ffffffff1660e01b815260040161317d949392919061d1c1565b5f60405180830381865afa158015613197573d5f803e3d5ffd5b505050506040513d5f823e3d601f19601f820116820180604052508101906131bf919061d5e8565b92505050919050565b6060815f60015f9054906101000a900473ffffffffffffffffffffffffffffffffffffffff1673ffffffffffffffffffffffffffffffffffffffff16633bea27536040518060400160405280600e81526020017f56454e444f525f4d414e414745520000000000000000000000000000000000008152506040518060400160405280601581526020017f6c6973745f5f73656564526571756573744c69737400000000000000000000008152506040518363ffffffff1660e01b815260040161329292919061d078565b602060405180830381865afa1580156132ad573d5f803e3d5ffd5b505050506040513d601f19601f820116820180604052508101906132d1919061d0c1565b9050808210613315576040517f08c379a000000000000000000000000000000000000000000000000000000000815260040161330c9061d136565b60405180910390fd5b60015f9054906101000a900473ffffffffffffffffffffffffffffffffffffffff1673ffffffffffffffffffffffffffffffffffffffff16632136448c6040518060400160405280600e81526020017f56454e444f525f4d414e414745520000000000000000000000000000000000008152506040518060400160405280601581526020017f6c6973745f5f73656564526571756573744c6973740000000000000000000000815250876040518060400160405280600b81526020017f76656e646f7245677049640000000000000000000000000000000000000000008152506040518563ffffffff1660e01b8152600401613414949392919061d1c1565b5f60405180830381865afa15801561342e573d5f803e3d5ffd5b505050506040513d5f823e3d601f19601f82011682018060405250810190613456919061d5e8565b92505050919050565b5f815f60015f9054906101000a900473ffffffffffffffffffffffffffffffffffffffff1673ffffffffffffffffffffffffffffffffffffffff16633bea27536040518060400160405280600e81526020017f56454e444f525f4d414e414745520000000000000000000000000000000000008152506040518060400160405280601581526020017f6c6973745f5f73656564526571756573744c69737400000000000000000000008152506040518363ffffffff1660e01b815260040161352892919061d078565b602060405180830381865afa158015613543573d5f803e3d5ffd5b505050506040513d601f19601f82011682018060405250810190613567919061d0c1565b90508082106135ab576040517f08c379a00000000000000000000000000000000000000000000000000000000081526004016135a29061d136565b60405180910390fd5b60015f9054906101000a900473ffffffffffffffffffffffffffffffffffffffff1673ffffffffffffffffffffffffffffffffffffffff166303afa62b6040518060400160405280600e81526020017f56454e444f525f4d414e414745520000000000000000000000000000000000008152506040518060400160405280601581526020017f6c6973745f5f73656564526571756573744c6973740000000000000000000000815250876040518060400160405280600781526020017f76657273696f6e000000000000000000000000000000000000000000000000008152506040518563ffffffff1660e01b81526004016136aa949392919061d1c1565b602060405180830381865afa1580156136c5573d5f803e3d5ffd5b505050506040513d601f19601f820116820180604052508101906136e9919061d243565b92505050919050565b60035f9054906101000a900473ffffffffffffffffffffffffffffffffffffffff1673ffffffffffffffffffffffffffffffffffffffff1663ef02a3fc6040518060400160405280600e81526020017f56454e444f525f4d414e414745520000000000000000000000000000000000008152506040518263ffffffff1660e01b8152600401613781919061c1f2565b602060405180830381865afa15801561379c573d5f803e3d5ffd5b505050506040513d601f19601f820116820180604052508101906137c0919061cfe5565b73ffffffffffffffffffffffffffffffffffffffff163373ffffffffffffffffffffffffffffffffffffffff161461382d576040517f08c379a00000000000000000000000000000000000000000000000000000000081526004016138249061d05a565b60405180910390fd5b60015f9054906101000a900473ffffffffffffffffffffffffffffffffffffffff1673ffffffffffffffffffffffffffffffffffffffff1663a24a899b6040518060400160405280600e81526020017f56454e444f525f4d414e414745520000000000000000000000000000000000008152506040518060400160405280601681526020017f6c6973745f5f6d65726765526571756573744c697374000000000000000000008152506040518363ffffffff1660e01b81526004016138f392919061d078565b5f604051808303815f87803b15801561390a575f80fd5b505af115801561391c573d5f803e3d5ffd5b50505050565b60035f9054906101000a900473ffffffffffffffffffffffffffffffffffffffff1673ffffffffffffffffffffffffffffffffffffffff1663ef02a3fc6040518060400160405280600e81526020017f56454e444f525f4d414e414745520000000000000000000000000000000000008152506040518263ffffffff1660e01b81526004016139b1919061c1f2565b602060405180830381865afa1580156139cc573d5f803e3d5ffd5b505050506040513d601f19601f820116820180604052508101906139f0919061cfe5565b73ffffffffffffffffffffffffffffffffffffffff163373ffffffffffffffffffffffffffffffffffffffff1614613a5d576040517f08c379a0000000000000000000000000000000000000000000000000000000008152600401613a549061d05a565b60405180910390fd5b815f60015f9054906101000a900473ffffffffffffffffffffffffffffffffffffffff1673ffffffffffffffffffffffffffffffffffffffff16633bea27536040518060400160405280600e81526020017f56454e444f525f4d414e414745520000000000000000000000000000000000008152506040518060400160405280601681526020017f6c6973745f5f6d65726765526571756573744c697374000000000000000000008152506040518363ffffffff1660e01b8152600401613b2592919061d078565b602060405180830381865afa158015613b40573d5f803e3d5ffd5b505050506040513d601f19601f82011682018060405250810190613b64919061d0c1565b9050808210613ba8576040517f08c379a0000000000000000000000000000000000000000000000000000000008152600401613b9f9061d136565b60405180910390fd5b60015f9054906101000a900473ffffffffffffffffffffffffffffffffffffffff1673ffffffffffffffffffffffffffffffffffffffff16637f02dd826040518060400160405280600e81526020017f56454e444f525f4d414e414745520000000000000000000000000000000000008152506040518060400160405280601681526020017f6c6973745f5f6d65726765526571756573744c69737400000000000000000000815250876040518060400160405280600581526020017f7374617465000000000000000000000000000000000000000000000000000000815250886004811115613c9b57613c9a61c4ea565b5b6040518663ffffffff1660e01b8152600401613cbb95949392919061d6e8565b5f604051808303815f87803b158015613cd2575f80fd5b505af1158015613ce4573d5f803e3d5ffd5b5050505050505050565b613cf661be85565b815f60015f9054906101000a900473ffffffffffffffffffffffffffffffffffffffff1673ffffffffffffffffffffffffffffffffffffffff16633bea27536040518060400160405280600e81526020017f56454e444f525f4d414e414745520000000000000000000000000000000000008152506040518060400160405280601681526020017f6c6973745f5f6d65726765526571756573744c697374000000000000000000008152506040518363ffffffff1660e01b8152600401613dbe92919061d078565b602060405180830381865afa158015613dd9573d5f803e3d5ffd5b505050506040513d601f19601f82011682018060405250810190613dfd919061d0c1565b9050808210613e41576040517f08c379a0000000000000000000000000000000000000000000000000000000008152600401613e389061d136565b60405180910390fd5b613e4a84614b3d565b835f0181905250613e5a846156fb565b8360200181905250613e6b84617305565b83604001906004811115613e8257613e8161c4ea565b5b90816004811115613e9657613e9561c4ea565b5b81525050613ea3846111d7565b836060019061ffff16908161ffff16815250505050919050565b60035f9054906101000a900473ffffffffffffffffffffffffffffffffffffffff1673ffffffffffffffffffffffffffffffffffffffff1663ef02a3fc6040518060400160405280600e81526020017f56454e444f525f4d414e414745520000000000000000000000000000000000008152506040518263ffffffff1660e01b8152600401613f4c919061c1f2565b602060405180830381865afa158015613f67573d5f803e3d5ffd5b505050506040513d601f19601f82011682018060405250810190613f8b919061cfe5565b73ffffffffffffffffffffffffffffffffffffffff163373ffffffffffffffffffffffffffffffffffffffff1614613ff8576040517f08c379a0000000000000000000000000000000000000000000000000000000008152600401613fef9061d05a565b60405180910390fd5b60015f9054906101000a900473ffffffffffffffffffffffffffffffffffffffff1673ffffffffffffffffffffffffffffffffffffffff1663a24a899b6040518060400160405280600e81526020017f56454e444f525f4d414e414745520000000000000000000000000000000000008152506040518060400160405280601081526020017f6c6973745f5f76656e646f724c697374000000000000000000000000000000008152506040518363ffffffff1660e01b81526004016140be92919061d078565b5f604051808303815f87803b1580156140d5575f80fd5b505af11580156140e7573d5f803e3d5ffd5b50505050565b60035f9054906101000a900473ffffffffffffffffffffffffffffffffffffffff1673ffffffffffffffffffffffffffffffffffffffff1663ef02a3fc6040518060400160405280600e81526020017f56454e444f525f4d414e414745520000000000000000000000000000000000008152506040518263ffffffff1660e01b815260040161417c919061c1f2565b602060405180830381865afa158015614197573d5f803e3d5ffd5b505050506040513d601f19601f820116820180604052508101906141bb919061cfe5565b73ffffffffffffffffffffffffffffffffffffffff163373ffffffffffffffffffffffffffffffffffffffff1614614228576040517f08c379a000000000000000000000000000000000000000000000000000000000815260040161421f9061d05a565b60405180910390fd5b805f60015f9054906101000a900473ffffffffffffffffffffffffffffffffffffffff1673ffffffffffffffffffffffffffffffffffffffff16633bea27536040518060400160405280600e81526020017f56454e444f525f4d414e414745520000000000000000000000000000000000008152506040518060400160405280601581526020017f6c6973745f5f73656564526571756573744c69737400000000000000000000008152506040518363ffffffff1660e01b81526004016142f092919061d078565b602060405180830381865afa15801561430b573d5f803e3d5ffd5b505050506040513d601f19601f8201168201806040525081019061432f919061d0c1565b9050808210614373576040517f08c379a000000000000000000000000000000000000000000000000000000000815260040161436a9061d136565b60405180910390fd5b60015f9054906101000a900473ffffffffffffffffffffffffffffffffffffffff1673ffffffffffffffffffffffffffffffffffffffff1663c4f188576040518060400160405280600e81526020017f56454e444f525f4d414e414745520000000000000000000000000000000000008152506040518060400160405280601581526020017f6c6973745f5f73656564526571756573744c6973740000000000000000000000815250866040518060400160405280600781526020017f76657273696f6e0000000000000000000000000000000000000000000000000081525060016040518663ffffffff1660e01b815260040161447595949392919061d26e565b5f604051808303815f87803b15801561448c575f80fd5b505af115801561449e573d5f803e3d5ffd5b50505050505050565b60035f9054906101000a900473ffffffffffffffffffffffffffffffffffffffff1673ffffffffffffffffffffffffffffffffffffffff1663ef02a3fc6040518060400160405280600e81526020017f56454e444f525f4d414e414745520000000000000000000000000000000000008152506040518263ffffffff1660e01b8152600401614536919061c1f2565b602060405180830381865afa158015614551573d5f803e3d5ffd5b505050506040513d601f19601f82011682018060405250810190614575919061cfe5565b73ffffffffffffffffffffffffffffffffffffffff163373ffffffffffffffffffffffffffffffffffffffff16146145e2576040517f08c379a00000000000000000000000000000000000000000000000000000000081526004016145d99061d05a565b60405180910390fd5b60015f9054906101000a900473ffffffffffffffffffffffffffffffffffffffff1673ffffffffffffffffffffffffffffffffffffffff1663a24a899b6040518060400160405280600e81526020017f56454e444f525f4d414e414745520000000000000000000000000000000000008152506040518060400160405280601781526020017f6c6973745f5f6d65726765417070726f7665644c6973740000000000000000008152506040518363ffffffff1660e01b81526004016146a892919061d078565b5f604051808303815f87803b1580156146bf575f80fd5b505af11580156146d1573d5f803e3d5ffd5b50505050565b60035f9054906101000a900473ffffffffffffffffffffffffffffffffffffffff1673ffffffffffffffffffffffffffffffffffffffff1663ef02a3fc6040518060400160405280600e81526020017f56454e444f525f4d414e414745520000000000000000000000000000000000008152506040518263ffffffff1660e01b8152600401614766919061c1f2565b602060405180830381865afa158015614781573d5f803e3d5ffd5b505050506040513d601f19601f820116820180604052508101906147a5919061cfe5565b73ffffffffffffffffffffffffffffffffffffffff163373ffffffffffffffffffffffffffffffffffffffff1614614812576040517f08c379a00000000000000000000000000000000000000000000000000000000081526004016148099061d05a565b60405180910390fd5b60015f9054906101000a900473ffffffffffffffffffffffffffffffffffffffff1673ffffffffffffffffffffffffffffffffffffffff1663a24a899b6040518060400160405280600e81526020017f56454e444f525f4d414e414745520000000000000000000000000000000000008152506040518060400160405280601681526020017f6c6973745f5f73656564417070726f7665644c697374000000000000000000008152506040518363ffffffff1660e01b81526004016148d892919061d078565b5f604051808303815f87803b1580156148ef575f80fd5b505af1158015614901573d5f803e3d5ffd5b50505050565b60035f9054906101000a900473ffffffffffffffffffffffffffffffffffffffff1673ffffffffffffffffffffffffffffffffffffffff1663ef02a3fc6040518060400160405280600e81526020017f56454e444f525f4d414e414745520000000000000000000000000000000000008152506040518263ffffffff1660e01b8152600401614996919061c1f2565b602060405180830381865afa1580156149b1573d5f803e3d5ffd5b505050506040513d601f19601f820116820180604052508101906149d5919061cfe5565b73ffffffffffffffffffffffffffffffffffffffff163373ffffffffffffffffffffffffffffffffffffffff1614614a42576040517f08c379a0000000000000000000000000000000000000000000000000000000008152600401614a399061d05a565b60405180910390fd5b60025f9054906101000a900473ffffffffffffffffffffffffffffffffffffffff1673ffffffffffffffffffffffffffffffffffffffff1663177d63616040518060400160405280600e81526020017f56454e444f525f4d414e414745520000000000000000000000000000000000008152506040518060400160405280601681526020017f6d61705f5f6d6572676552657175657374496e6465780000000000000000000081525085856040518563ffffffff1660e01b8152600401614b0c949392919061d75d565b5f604051808303815f87803b158015614b23575f80fd5b505af1158015614b35573d5f803e3d5ffd5b505050505050565b6060815f60015f9054906101000a900473ffffffffffffffffffffffffffffffffffffffff1673ffffffffffffffffffffffffffffffffffffffff16633bea27536040518060400160405280600e81526020017f56454e444f525f4d414e414745520000000000000000000000000000000000008152506040518060400160405280601681526020017f6c6973745f5f6d65726765526571756573744c697374000000000000000000008152506040518363ffffffff1660e01b8152600401614c0792919061d078565b602060405180830381865afa158015614c22573d5f803e3d5ffd5b505050506040513d601f19601f82011682018060405250810190614c46919061d0c1565b9050808210614c8a576040517f08c379a0000000000000000000000000000000000000000000000000000000008152600401614c819061d136565b60405180910390fd5b60015f9054906101000a900473ffffffffffffffffffffffffffffffffffffffff1673ffffffffffffffffffffffffffffffffffffffff16632136448c6040518060400160405280600e81526020017f56454e444f525f4d414e414745520000000000000000000000000000000000008152506040518060400160405280601681526020017f6c6973745f5f6d65726765526571756573744c69737400000000000000000000815250876040518060400160405280600481526020017f67696431000000000000000000000000000000000000000000000000000000008152506040518563ffffffff1660e01b8152600401614d89949392919061d1c1565b5f60405180830381865afa158015614da3573d5f803e3d5ffd5b505050506040513d5f823e3d601f19601f82011682018060405250810190614dcb919061d5e8565b92505050919050565b60035f9054906101000a900473ffffffffffffffffffffffffffffffffffffffff1673ffffffffffffffffffffffffffffffffffffffff1663ef02a3fc6040518060400160405280600e81526020017f56454e444f525f4d414e414745520000000000000000000000000000000000008152506040518263ffffffff1660e01b8152600401614e63919061c1f2565b602060405180830381865afa158015614e7e573d5f803e3d5ffd5b505050506040513d601f19601f82011682018060405250810190614ea2919061cfe5565b73ffffffffffffffffffffffffffffffffffffffff163373ffffffffffffffffffffffffffffffffffffffff1614614f0f576040517f08c379a0000000000000000000000000000000000000000000000000000000008152600401614f069061d05a565b60405180910390fd5b60015f9054906101000a900473ffffffffffffffffffffffffffffffffffffffff1673ffffffffffffffffffffffffffffffffffffffff166314f41f396040518060400160405280600e81526020017f56454e444f525f4d414e414745520000000000000000000000000000000000008152506040518060400160405280600d81526020017f6c6973745f5f6769644c69737400000000000000000000000000000000000000815250856040518060400160405280600681526020017f6163746976650000000000000000000000000000000000000000000000000000815250866040518663ffffffff1660e01b815260040161501095949392919061d7ae565b5f604051808303815f87803b158015615027575f80fd5b505af1158015615039573d5f803e3d5ffd5b505050505050565b60035f9054906101000a900473ffffffffffffffffffffffffffffffffffffffff1673ffffffffffffffffffffffffffffffffffffffff1663ef02a3fc6040518060400160405280600e81526020017f56454e444f525f4d414e414745520000000000000000000000000000000000008152506040518263ffffffff1660e01b81526004016150d0919061c1f2565b602060405180830381865afa1580156150eb573d5f803e3d5ffd5b505050506040513d601f19601f8201168201806040525081019061510f919061cfe5565b73ffffffffffffffffffffffffffffffffffffffff163373ffffffffffffffffffffffffffffffffffffffff161461517c576040517f08c379a00000000000000000000000000000000000000000000000000000000081526004016151739061d05a565b60405180910390fd5b60015f9054906101000a900473ffffffffffffffffffffffffffffffffffffffff1673ffffffffffffffffffffffffffffffffffffffff1663c8f1cd876040518060400160405280600e81526020017f56454e444f525f4d414e414745520000000000000000000000000000000000008152506040518060400160405280600d81526020017f6c6973745f5f6769644c69737400000000000000000000000000000000000000815250856040518060400160405280600381526020017f6769640000000000000000000000000000000000000000000000000000000000815250866040518663ffffffff1660e01b815260040161527d95949392919061d154565b5f604051808303815f87803b158015615294575f80fd5b505af11580156152a6573d5f803e3d5ffd5b505050505050565b6152b661bec1565b815f60015f9054906101000a900473ffffffffffffffffffffffffffffffffffffffff1673ffffffffffffffffffffffffffffffffffffffff16633bea27536040518060400160405280600e81526020017f56454e444f525f4d414e414745520000000000000000000000000000000000008152506040518060400160405280601581526020017f6c6973745f5f73656564526571756573744c69737400000000000000000000008152506040518363ffffffff1660e01b815260040161537e92919061d078565b602060405180830381865afa158015615399573d5f803e3d5ffd5b505050506040513d601f19601f820116820180604052508101906153bd919061d0c1565b9050808210615401576040517f08c379a00000000000000000000000000000000000000000000000000000000081526004016153f89061d136565b60405180910390fd5b61540a84612f31565b835f018190525061541a846131c8565b836020018190525061542b84615b0d565b836040018190525061543c846185a9565b836060019060038111156154535761545261c4ea565b5b908160038111156154675761546661c4ea565b5b815250506154748461345f565b836080019061ffff16908161ffff16815250505050919050565b60035f9054906101000a900473ffffffffffffffffffffffffffffffffffffffff1673ffffffffffffffffffffffffffffffffffffffff1663ef02a3fc6040518060400160405280600e81526020017f56454e444f525f4d414e414745520000000000000000000000000000000000008152506040518263ffffffff1660e01b815260040161551d919061c1f2565b602060405180830381865afa158015615538573d5f803e3d5ffd5b505050506040513d601f19601f8201168201806040525081019061555c919061cfe5565b73ffffffffffffffffffffffffffffffffffffffff163373ffffffffffffffffffffffffffffffffffffffff16146155c9576040517f08c379a00000000000000000000000000000000000000000000000000000000081526004016155c09061d05a565b60405180910390fd5b60015f9054906101000a900473ffffffffffffffffffffffffffffffffffffffff1673ffffffffffffffffffffffffffffffffffffffff1663c8f1cd876040518060400160405280600e81526020017f56454e444f525f4d414e414745520000000000000000000000000000000000008152506040518060400160405280601081526020017f6c6973745f5f76656e646f724c69737400000000000000000000000000000000815250856040518060400160405280600b81526020017f6163636f756e744e616d65000000000000000000000000000000000000000000815250866040518663ffffffff1660e01b81526004016156ca95949392919061d154565b5f604051808303815f87803b1580156156e1575f80fd5b505af11580156156f3573d5f803e3d5ffd5b505050505050565b6060815f60015f9054906101000a900473ffffffffffffffffffffffffffffffffffffffff1673ffffffffffffffffffffffffffffffffffffffff16633bea27536040518060400160405280600e81526020017f56454e444f525f4d414e414745520000000000000000000000000000000000008152506040518060400160405280601681526020017f6c6973745f5f6d65726765526571756573744c697374000000000000000000008152506040518363ffffffff1660e01b81526004016157c592919061d078565b602060405180830381865afa1580156157e0573d5f803e3d5ffd5b505050506040513d601f19601f82011682018060405250810190615804919061d0c1565b9050808210615848576040517f08c379a000000000000000000000000000000000000000000000000000000000815260040161583f9061d136565b60405180910390fd5b60015f9054906101000a900473ffffffffffffffffffffffffffffffffffffffff1673ffffffffffffffffffffffffffffffffffffffff16632136448c6040518060400160405280600e81526020017f56454e444f525f4d414e414745520000000000000000000000000000000000008152506040518060400160405280601681526020017f6c6973745f5f6d65726765526571756573744c69737400000000000000000000815250876040518060400160405280600481526020017f67696432000000000000000000000000000000000000000000000000000000008152506040518563ffffffff1660e01b8152600401615947949392919061d1c1565b5f60405180830381865afa158015615961573d5f803e3d5ffd5b505050506040513d5f823e3d601f19601f82011682018060405250810190615989919061d5e8565b92505050919050565b61599a61bf04565b6159a38261a6c8565b815f01819052506159b38261905b565b81602001819052506159c482616bbe565b81604001819052506159d58261a0a4565b81606001819052506159e682612deb565b8160a0019061ffff16908161ffff1681525050919050565b5f60025f9054906101000a900473ffffffffffffffffffffffffffffffffffffffff1673ffffffffffffffffffffffffffffffffffffffff1663539c2ffb6040518060400160405280600e81526020017f56454e444f525f4d414e414745520000000000000000000000000000000000008152506040518060400160405280600d81526020017f6d61705f5f676964496e64657800000000000000000000000000000000000000815250856040518463ffffffff1660e01b8152600401615ac79392919061d814565b602060405180830381865afa158015615ae2573d5f803e3d5ffd5b505050506040513d601f19601f82011682018060405250810190615b06919061d0c1565b9050919050565b6060815f60015f9054906101000a900473ffffffffffffffffffffffffffffffffffffffff1673ffffffffffffffffffffffffffffffffffffffff16633bea27536040518060400160405280600e81526020017f56454e444f525f4d414e414745520000000000000000000000000000000000008152506040518060400160405280601581526020017f6c6973745f5f73656564526571756573744c69737400000000000000000000008152506040518363ffffffff1660e01b8152600401615bd792919061d078565b602060405180830381865afa158015615bf2573d5f803e3d5ffd5b505050506040513d601f19601f82011682018060405250810190615c16919061d0c1565b9050808210615c5a576040517f08c379a0000000000000000000000000000000000000000000000000000000008152600401615c519061d136565b60405180910390fd5b60015f9054906101000a900473ffffffffffffffffffffffffffffffffffffffff1673ffffffffffffffffffffffffffffffffffffffff16632136448c6040518060400160405280600e81526020017f56454e444f525f4d414e414745520000000000000000000000000000000000008152506040518060400160405280601581526020017f6c6973745f5f73656564526571756573744c6973740000000000000000000000815250876040518060400160405280600e81526020017f76656e646f724567704f726749640000000000000000000000000000000000008152506040518563ffffffff1660e01b8152600401615d59949392919061d1c1565b5f60405180830381865afa158015615d73573d5f803e3d5ffd5b505050506040513d5f823e3d601f19601f82011682018060405250810190615d9b919061d5e8565b92505050919050565b6060815f60015f9054906101000a900473ffffffffffffffffffffffffffffffffffffffff1673ffffffffffffffffffffffffffffffffffffffff16633bea27536040518060400160405280600e81526020017f56454e444f525f4d414e414745520000000000000000000000000000000000008152506040518060400160405280601081526020017f6c6973745f5f76656e646f724c697374000000000000000000000000000000008152506040518363ffffffff1660e01b8152600401615e6e92919061d078565b602060405180830381865afa158015615e89573d5f803e3d5ffd5b505050506040513d601f19601f82011682018060405250810190615ead919061d0c1565b9050808210615ef1576040517f08c379a0000000000000000000000000000000000000000000000000000000008152600401615ee89061d136565b60405180910390fd5b5f60015f9054906101000a900473ffffffffffffffffffffffffffffffffffffffff1673ffffffffffffffffffffffffffffffffffffffff166332e053256040518060400160405280600e81526020017f56454e444f525f4d414e414745520000000000000000000000000000000000008152506040518060400160405280601081526020017f6c6973745f5f76656e646f724c69737400000000000000000000000000000000815250886040518060400160405280601281526020017f6c6973745f5f76656e646f7245677049647300000000000000000000000000008152506040518060400160405280600881526020017f5f5f6c656e677468000000000000000000000000000000000000000000000000815250604051602001616018919061d30e565b6040516020818303038152906040526040518663ffffffff1660e01b815260040161604795949392919061d376565b602060405180830381865afa158015616062573d5f803e3d5ffd5b505050506040513d601f19601f82011682018060405250810190616086919061d0c1565b90508067ffffffffffffffff8111156160a2576160a161bf9a565b5b6040519080825280602002602001820160405280156160d557816020015b60608152602001906001900390816160c05790505b5093505f5b818110156162755760015f9054906101000a900473ffffffffffffffffffffffffffffffffffffffff1673ffffffffffffffffffffffffffffffffffffffff1663fa7598d56040518060400160405280600e81526020017f56454e444f525f4d414e414745520000000000000000000000000000000000008152506040518060400160405280601081526020017f6c6973745f5f76656e646f724c69737400000000000000000000000000000000815250896040518060400160405280601281526020017f6c6973745f5f76656e646f724567704964730000000000000000000000000000815250866040516020016161d3919061d4de565b6040516020818303038152906040526040518663ffffffff1660e01b815260040161620295949392919061d376565b5f60405180830381865afa15801561621c573d5f803e3d5ffd5b505050506040513d5f823e3d601f19601f82011682018060405250810190616244919061d5e8565b8582815181106162575761625661d62f565b5b6020026020010181905250808061626d9061d65c565b9150506160da565b50505050919050565b5f60025f9054906101000a900473ffffffffffffffffffffffffffffffffffffffff1673ffffffffffffffffffffffffffffffffffffffff1663539c2ffb6040518060400160405280600e81526020017f56454e444f525f4d414e414745520000000000000000000000000000000000008152506040518060400160405280601081526020017f6d61705f5f76656e646f72496e64657800000000000000000000000000000000815250856040518463ffffffff1660e01b81526004016163479392919061d814565b602060405180830381865afa158015616362573d5f803e3d5ffd5b505050506040513d601f19601f82011682018060405250810190616386919061d0c1565b9050919050565b60035f9054906101000a900473ffffffffffffffffffffffffffffffffffffffff1673ffffffffffffffffffffffffffffffffffffffff1663ef02a3fc6040518060400160405280600e81526020017f56454e444f525f4d414e414745520000000000000000000000000000000000008152506040518263ffffffff1660e01b815260040161641c919061c1f2565b602060405180830381865afa158015616437573d5f803e3d5ffd5b505050506040513d601f19601f8201168201806040525081019061645b919061cfe5565b73ffffffffffffffffffffffffffffffffffffffff163373ffffffffffffffffffffffffffffffffffffffff16146164c8576040517f08c379a00000000000000000000000000000000000000000000000000000000081526004016164bf9061d05a565b60405180910390fd5b805f60015f9054906101000a900473ffffffffffffffffffffffffffffffffffffffff1673ffffffffffffffffffffffffffffffffffffffff16633bea27536040518060400160405280600e81526020017f56454e444f525f4d414e414745520000000000000000000000000000000000008152506040518060400160405280601681526020017f6c6973745f5f6d65726765526571756573744c697374000000000000000000008152506040518363ffffffff1660e01b815260040161659092919061d078565b602060405180830381865afa1580156165ab573d5f803e3d5ffd5b505050506040513d601f19601f820116820180604052508101906165cf919061d0c1565b9050808210616613576040517f08c379a000000000000000000000000000000000000000000000000000000000815260040161660a9061d136565b60405180910390fd5b60015f9054906101000a900473ffffffffffffffffffffffffffffffffffffffff1673ffffffffffffffffffffffffffffffffffffffff1663c4f188576040518060400160405280600e81526020017f56454e444f525f4d414e414745520000000000000000000000000000000000008152506040518060400160405280601681526020017f6c6973745f5f6d65726765526571756573744c69737400000000000000000000815250866040518060400160405280600781526020017f76657273696f6e0000000000000000000000000000000000000000000000000081525060016040518663ffffffff1660e01b815260040161671595949392919061d26e565b5f604051808303815f87803b15801561672c575f80fd5b505af115801561673e573d5f803e3d5ffd5b50505050505050565b5f60015f9054906101000a900473ffffffffffffffffffffffffffffffffffffffff1673ffffffffffffffffffffffffffffffffffffffff16639d7f836c6040518060400160405280600e81526020017f56454e444f525f4d414e414745520000000000000000000000000000000000008152506040518060400160405280600d81526020017f6c6973745f5f6769644c69737400000000000000000000000000000000000000815250856040518060400160405280600681526020017f61637469766500000000000000000000000000000000000000000000000000008152506040518563ffffffff1660e01b8152600401616847949392919061d1c1565b602060405180830381865afa158015616862573d5f803e3d5ffd5b505050506040513d601f19601f82011682018060405250810190616886919061d872565b9050919050565b60605f805f61689a619779565b9050808611156168a8578095505b5f8686116168b657856168b8565b865b90508067ffffffffffffffff8111156168d4576168d361bf9a565b5b60405190808252806020026020018201604052801561690d57816020015b6168fa61be4c565b8152602001906001900390816168f25790505b5094505b5f8111156169795780806169249061d89d565b91505086806169329061d89d565b97505061693e87611f24565b85600183885161694e919061d8c4565b616958919061d8c4565b815181106169695761696861d62f565b5b6020026020010181905250616911565b86935081925050509250925092565b60035f9054906101000a900473ffffffffffffffffffffffffffffffffffffffff1673ffffffffffffffffffffffffffffffffffffffff1663ef02a3fc6040518060400160405280600e81526020017f56454e444f525f4d414e414745520000000000000000000000000000000000008152506040518263ffffffff1660e01b8152600401616a17919061c1f2565b602060405180830381865afa158015616a32573d5f803e3d5ffd5b505050506040513d601f19601f82011682018060405250810190616a56919061cfe5565b73ffffffffffffffffffffffffffffffffffffffff163373ffffffffffffffffffffffffffffffffffffffff1614616ac3576040517f08c379a0000000000000000000000000000000000000000000000000000000008152600401616aba9061d05a565b60405180910390fd5b60025f9054906101000a900473ffffffffffffffffffffffffffffffffffffffff1673ffffffffffffffffffffffffffffffffffffffff16635e0ae01e6040518060400160405280600e81526020017f56454e444f525f4d414e414745520000000000000000000000000000000000008152506040518060400160405280600e81526020017f6d61705f5f76656e646f7247696400000000000000000000000000000000000081525085856040518563ffffffff1660e01b8152600401616b8d949392919061d8f7565b5f604051808303815f87803b158015616ba4575f80fd5b505af1158015616bb6573d5f803e3d5ffd5b505050505050565b60605f60015f9054906101000a900473ffffffffffffffffffffffffffffffffffffffff1673ffffffffffffffffffffffffffffffffffffffff166332e053256040518060400160405280600e81526020017f56454e444f525f4d414e414745520000000000000000000000000000000000008152506040518060400160405280600d81526020017f6c6973745f5f6769644c69737400000000000000000000000000000000000000815250866040518060400160405280600c81526020017f6368696c6472656e4769647300000000000000000000000000000000000000008152506040518060400160405280600881526020017f5f5f6c656e677468000000000000000000000000000000000000000000000000815250604051602001616ce7919061d30e565b6040516020818303038152906040526040518663ffffffff1660e01b8152600401616d1695949392919061d376565b602060405180830381865afa158015616d31573d5f803e3d5ffd5b505050506040513d601f19601f82011682018060405250810190616d55919061d0c1565b90508067ffffffffffffffff811115616d7157616d7061bf9a565b5b604051908082528060200260200182016040528015616da457816020015b6060815260200190600190039081616d8f5790505b5091505f5b81811015616f445760015f9054906101000a900473ffffffffffffffffffffffffffffffffffffffff1673ffffffffffffffffffffffffffffffffffffffff1663fa7598d56040518060400160405280600e81526020017f56454e444f525f4d414e414745520000000000000000000000000000000000008152506040518060400160405280600d81526020017f6c6973745f5f6769644c69737400000000000000000000000000000000000000815250876040518060400160405280600c81526020017f6368696c6472656e47696473000000000000000000000000000000000000000081525086604051602001616ea2919061d4de565b6040516020818303038152906040526040518663ffffffff1660e01b8152600401616ed195949392919061d376565b5f60405180830381865afa158015616eeb573d5f803e3d5ffd5b505050506040513d5f823e3d601f19601f82011682018060405250810190616f13919061d5e8565b838281518110616f2657616f2561d62f565b5b60200260200101819052508080616f3c9061d65c565b915050616da9565b5050919050565b60035f9054906101000a900473ffffffffffffffffffffffffffffffffffffffff1673ffffffffffffffffffffffffffffffffffffffff1663ef02a3fc6040518060400160405280600e81526020017f56454e444f525f4d414e414745520000000000000000000000000000000000008152506040518263ffffffff1660e01b8152600401616fda919061c1f2565b602060405180830381865afa158015616ff5573d5f803e3d5ffd5b505050506040513d601f19601f82011682018060405250810190617019919061cfe5565b73ffffffffffffffffffffffffffffffffffffffff163373ffffffffffffffffffffffffffffffffffffffff1614617086576040517f08c379a000000000000000000000000000000000000000000000000000000000815260040161707d9061d05a565b60405180910390fd5b815f60015f9054906101000a900473ffffffffffffffffffffffffffffffffffffffff1673ffffffffffffffffffffffffffffffffffffffff16633bea27536040518060400160405280600e81526020017f56454e444f525f4d414e414745520000000000000000000000000000000000008152506040518060400160405280601581526020017f6c6973745f5f73656564526571756573744c69737400000000000000000000008152506040518363ffffffff1660e01b815260040161714e92919061d078565b602060405180830381865afa158015617169573d5f803e3d5ffd5b505050506040513d601f19601f8201168201806040525081019061718d919061d0c1565b90508082106171d1576040517f08c379a00000000000000000000000000000000000000000000000000000000081526004016171c89061d136565b60405180910390fd5b60015f9054906101000a900473ffffffffffffffffffffffffffffffffffffffff1673ffffffffffffffffffffffffffffffffffffffff1663c8f1cd876040518060400160405280600e81526020017f56454e444f525f4d414e414745520000000000000000000000000000000000008152506040518060400160405280601581526020017f6c6973745f5f73656564526571756573744c6973740000000000000000000000815250876040518060400160405280600e81526020017f76656e646f724567704f72674964000000000000000000000000000000000000815250886040518663ffffffff1660e01b81526004016172d295949392919061d154565b5f604051808303815f87803b1580156172e9575f80fd5b505af11580156172fb573d5f803e3d5ffd5b5050505050505050565b5f815f60015f9054906101000a900473ffffffffffffffffffffffffffffffffffffffff1673ffffffffffffffffffffffffffffffffffffffff16633bea27536040518060400160405280600e81526020017f56454e444f525f4d414e414745520000000000000000000000000000000000008152506040518060400160405280601681526020017f6c6973745f5f6d65726765526571756573744c697374000000000000000000008152506040518363ffffffff1660e01b81526004016173ce92919061d078565b602060405180830381865afa1580156173e9573d5f803e3d5ffd5b505050506040513d601f19601f8201168201806040525081019061740d919061d0c1565b9050808210617451576040517f08c379a00000000000000000000000000000000000000000000000000000000081526004016174489061d136565b60405180910390fd5b60015f9054906101000a900473ffffffffffffffffffffffffffffffffffffffff1673ffffffffffffffffffffffffffffffffffffffff1663b83032bd6040518060400160405280600e81526020017f56454e444f525f4d414e414745520000000000000000000000000000000000008152506040518060400160405280601681526020017f6c6973745f5f6d65726765526571756573744c69737400000000000000000000815250876040518060400160405280600581526020017f73746174650000000000000000000000000000000000000000000000000000008152506040518563ffffffff1660e01b8152600401617550949392919061d1c1565b602060405180830381865afa15801561756b573d5f803e3d5ffd5b505050506040513d601f19601f8201168201806040525081019061758f919061d0c1565b60048111156175a1576175a061c4ea565b5b92505050919050565b60035f9054906101000a900473ffffffffffffffffffffffffffffffffffffffff1673ffffffffffffffffffffffffffffffffffffffff1663ef02a3fc6040518060400160405280600e81526020017f56454e444f525f4d414e414745520000000000000000000000000000000000008152506040518263ffffffff1660e01b8152600401617639919061c1f2565b602060405180830381865afa158015617654573d5f803e3d5ffd5b505050506040513d601f19601f82011682018060405250810190617678919061cfe5565b73ffffffffffffffffffffffffffffffffffffffff163373ffffffffffffffffffffffffffffffffffffffff16146176e5576040517f08c379a00000000000000000000000000000000000000000000000000000000081526004016176dc9061d05a565b60405180910390fd5b60015f9054906101000a900473ffffffffffffffffffffffffffffffffffffffff1673ffffffffffffffffffffffffffffffffffffffff1663a24a899b6040518060400160405280600e81526020017f56454e444f525f4d414e414745520000000000000000000000000000000000008152506040518060400160405280601581526020017f6c6973745f5f73656564526571756573744c69737400000000000000000000008152506040518363ffffffff1660e01b81526004016177ab92919061d078565b5f604051808303815f87803b1580156177c2575f80fd5b505af11580156177d4573d5f803e3d5ffd5b50505050565b60605f805f6177e761adda565b9050808611156177f5578095505b5f8686116178035785617805565b865b90508067ffffffffffffffff8111156178215761782061bf9a565b5b60405190808252806020026020018201604052801561785a57816020015b61784761be85565b81526020019060019003908161783f5790505b5094505b5f8111156178c65780806178719061d89d565b915050868061787f9061d89d565b97505061788b87613cee565b85600183885161789b919061d8c4565b6178a5919061d8c4565b815181106178b6576178b561d62f565b5b602002602001018190525061785e565b86935081925050509250925092565b60035f9054906101000a900473ffffffffffffffffffffffffffffffffffffffff1673ffffffffffffffffffffffffffffffffffffffff1663ef02a3fc6040518060400160405280600e81526020017f56454e444f525f4d414e414745520000000000000000000000000000000000008152506040518263ffffffff1660e01b8152600401617964919061c1f2565b602060405180830381865afa15801561797f573d5f803e3d5ffd5b505050506040513d601f19601f820116820180604052508101906179a3919061cfe5565b73ffffffffffffffffffffffffffffffffffffffff163373ffffffffffffffffffffffffffffffffffffffff1614617a10576040517f08c379a0000000000000000000000000000000000000000000000000000000008152600401617a079061d05a565b60405180910390fd5b5f60015f9054906101000a900473ffffffffffffffffffffffffffffffffffffffff1673ffffffffffffffffffffffffffffffffffffffff166332e053256040518060400160405280600e81526020017f56454e444f525f4d414e414745520000000000000000000000000000000000008152506040518060400160405280601081526020017f6c6973745f5f76656e646f724c69737400000000000000000000000000000000815250866040518060400160405280601581526020017f6c6973745f5f76656e646f724567704f726749647300000000000000000000008152506040518060400160405280600881526020017f5f5f6c656e677468000000000000000000000000000000000000000000000000815250604051602001617b37919061d30e565b6040516020818303038152906040526040518663ffffffff1660e01b8152600401617b6695949392919061d376565b602060405180830381865afa158015617b81573d5f803e3d5ffd5b505050506040513d601f19601f82011682018060405250810190617ba5919061d0c1565b905060015f9054906101000a900473ffffffffffffffffffffffffffffffffffffffff1673ffffffffffffffffffffffffffffffffffffffff1663f07aee956040518060400160405280600e81526020017f56454e444f525f4d414e414745520000000000000000000000000000000000008152506040518060400160405280601081526020017f6c6973745f5f76656e646f724c69737400000000000000000000000000000000815250866040518060400160405280601581526020017f6c6973745f5f76656e646f724567704f726749647300000000000000000000008152506040518060400160405280600881526020017f5f5f6c656e677468000000000000000000000000000000000000000000000000815250604051602001617ccd919061d30e565b604051602081830303815290604052876001617ce9919061d410565b6040518763ffffffff1660e01b8152600401617d0a9695949392919061d443565b5f604051808303815f87803b158015617d21575f80fd5b505af1158015617d33573d5f803e3d5ffd5b5050505060015f9054906101000a900473ffffffffffffffffffffffffffffffffffffffff1673ffffffffffffffffffffffffffffffffffffffff1663df0a5a526040518060400160405280600e81526020017f56454e444f525f4d414e414745520000000000000000000000000000000000008152506040518060400160405280601081526020017f6c6973745f5f76656e646f724c69737400000000000000000000000000000000815250866040518060400160405280601581526020017f6c6973745f5f76656e646f724567704f7267496473000000000000000000000081525086604051602001617e28919061d4de565b604051602081830303815290604052886040518763ffffffff1660e01b8152600401617e599695949392919061d4f8565b5f604051808303815f87803b158015617e70575f80fd5b505af1158015617e82573d5f803e3d5ffd5b50505050505050565b5f60025f9054906101000a900473ffffffffffffffffffffffffffffffffffffffff1673ffffffffffffffffffffffffffffffffffffffff1663405e2c0d6040518060400160405280600e81526020017f56454e444f525f4d414e414745520000000000000000000000000000000000008152506040518060400160405280601681526020017f6d61705f5f6d6572676552657175657374496e64657800000000000000000000815250856040518463ffffffff1660e01b8152600401617f549392919061d956565b602060405180830381865afa158015617f6f573d5f803e3d5ffd5b505050506040513d601f19601f82011682018060405250810190617f93919061d0c1565b9050919050565b60035f9054906101000a900473ffffffffffffffffffffffffffffffffffffffff1673ffffffffffffffffffffffffffffffffffffffff1663ef02a3fc6040518060400160405280600e81526020017f56454e444f525f4d414e414745520000000000000000000000000000000000008152506040518263ffffffff1660e01b8152600401618029919061c1f2565b602060405180830381865afa158015618044573d5f803e3d5ffd5b505050506040513d601f19601f82011682018060405250810190618068919061cfe5565b73ffffffffffffffffffffffffffffffffffffffff163373ffffffffffffffffffffffffffffffffffffffff16146180d5576040517f08c379a00000000000000000000000000000000000000000000000000000000081526004016180cc9061d05a565b60405180910390fd5b60015f9054906101000a900473ffffffffffffffffffffffffffffffffffffffff1673ffffffffffffffffffffffffffffffffffffffff1663c8f1cd876040518060400160405280600e81526020017f56454e444f525f4d414e414745520000000000000000000000000000000000008152506040518060400160405280601081526020017f6c6973745f5f76656e646f724c69737400000000000000000000000000000000815250856040518060400160405280600d81526020017f76656e646f724567704e616d6500000000000000000000000000000000000000815250866040518663ffffffff1660e01b81526004016181d695949392919061d154565b5f604051808303815f87803b1580156181ed575f80fd5b505af11580156181ff573d5f803e3d5ffd5b505050505050565b5f60015f9054906101000a900473ffffffffffffffffffffffffffffffffffffffff1673ffffffffffffffffffffffffffffffffffffffff16633bea27536040518060400160405280600e81526020017f56454e444f525f4d414e414745520000000000000000000000000000000000008152506040518060400160405280601681526020017f6c6973745f5f73656564417070726f7665644c697374000000000000000000008152506040518363ffffffff1660e01b81526004016182ce92919061d078565b602060405180830381865afa1580156182e9573d5f803e3d5ffd5b505050506040513d601f19601f8201168201806040525081019061830d919061d0c1565b905090565b6060815f60015f9054906101000a900473ffffffffffffffffffffffffffffffffffffffff1673ffffffffffffffffffffffffffffffffffffffff16633bea27536040518060400160405280600e81526020017f56454e444f525f4d414e414745520000000000000000000000000000000000008152506040518060400160405280601081526020017f6c6973745f5f76656e646f724c697374000000000000000000000000000000008152506040518363ffffffff1660e01b81526004016183dc92919061d078565b602060405180830381865afa1580156183f7573d5f803e3d5ffd5b505050506040513d601f19601f8201168201806040525081019061841b919061d0c1565b905080821061845f576040517f08c379a00000000000000000000000000000000000000000000000000000000081526004016184569061d136565b60405180910390fd5b60015f9054906101000a900473ffffffffffffffffffffffffffffffffffffffff1673ffffffffffffffffffffffffffffffffffffffff16632136448c6040518060400160405280600e81526020017f56454e444f525f4d414e414745520000000000000000000000000000000000008152506040518060400160405280601081526020017f6c6973745f5f76656e646f724c69737400000000000000000000000000000000815250876040518060400160405280600b81526020017f6163636f756e744e616d650000000000000000000000000000000000000000008152506040518563ffffffff1660e01b815260040161855e949392919061d1c1565b5f60405180830381865afa158015618578573d5f803e3d5ffd5b505050506040513d5f823e3d601f19601f820116820180604052508101906185a0919061d5e8565b92505050919050565b5f815f60015f9054906101000a900473ffffffffffffffffffffffffffffffffffffffff1673ffffffffffffffffffffffffffffffffffffffff16633bea27536040518060400160405280600e81526020017f56454e444f525f4d414e414745520000000000000000000000000000000000008152506040518060400160405280601581526020017f6c6973745f5f73656564526571756573744c69737400000000000000000000008152506040518363ffffffff1660e01b815260040161867292919061d078565b602060405180830381865afa15801561868d573d5f803e3d5ffd5b505050506040513d601f19601f820116820180604052508101906186b1919061d0c1565b90508082106186f5576040517f08c379a00000000000000000000000000000000000000000000000000000000081526004016186ec9061d136565b60405180910390fd5b60015f9054906101000a900473ffffffffffffffffffffffffffffffffffffffff1673ffffffffffffffffffffffffffffffffffffffff1663a726dca16040518060400160405280600e81526020017f56454e444f525f4d414e414745520000000000000000000000000000000000008152506040518060400160405280601581526020017f6c6973745f5f73656564526571756573744c6973740000000000000000000000815250876040518060400160405280600581526020017f73746174650000000000000000000000000000000000000000000000000000008152506040518563ffffffff1660e01b81526004016187f4949392919061d1c1565b602060405180830381865afa15801561880f573d5f803e3d5ffd5b505050506040513d601f19601f82011682018060405250810190618833919061d9c3565b60ff1660038111156188485761884761c4ea565b5b92505050919050565b60035f9054906101000a900473ffffffffffffffffffffffffffffffffffffffff1673ffffffffffffffffffffffffffffffffffffffff1663ef02a3fc6040518060400160405280600e81526020017f56454e444f525f4d414e414745520000000000000000000000000000000000008152506040518263ffffffff1660e01b81526004016188e0919061c1f2565b602060405180830381865afa1580156188fb573d5f803e3d5ffd5b505050506040513d601f19601f8201168201806040525081019061891f919061cfe5565b73ffffffffffffffffffffffffffffffffffffffff163373ffffffffffffffffffffffffffffffffffffffff161461898c576040517f08c379a00000000000000000000000000000000000000000000000000000000081526004016189839061d05a565b60405180910390fd5b60025f9054906101000a900473ffffffffffffffffffffffffffffffffffffffff1673ffffffffffffffffffffffffffffffffffffffff1663368428d96040518060400160405280600e81526020017f56454e444f525f4d414e414745520000000000000000000000000000000000008152506040518060400160405280601081526020017f6d61705f5f76656e646f72496e6465780000000000000000000000000000000081525085856040518563ffffffff1660e01b8152600401618a56949392919061d9ee565b5f604051808303815f87803b158015618a6d575f80fd5b505af1158015618a7f573d5f803e3d5ffd5b505050505050565b5f60025f9054906101000a900473ffffffffffffffffffffffffffffffffffffffff1673ffffffffffffffffffffffffffffffffffffffff1663405e2c0d6040518060400160405280600e81526020017f56454e444f525f4d414e414745520000000000000000000000000000000000008152506040518060400160405280601581526020017f6d61705f5f7365656452657175657374496e6465780000000000000000000000815250856040518463ffffffff1660e01b8152600401618b509392919061d956565b602060405180830381865afa158015618b6b573d5f803e3d5ffd5b505050506040513d601f19601f82011682018060405250810190618b8f919061d0c1565b9050919050565b60035f9054906101000a900473ffffffffffffffffffffffffffffffffffffffff1673ffffffffffffffffffffffffffffffffffffffff1663ef02a3fc6040518060400160405280600e81526020017f56454e444f525f4d414e414745520000000000000000000000000000000000008152506040518263ffffffff1660e01b8152600401618c25919061c1f2565b602060405180830381865afa158015618c40573d5f803e3d5ffd5b505050506040513d601f19601f82011682018060405250810190618c64919061cfe5565b73ffffffffffffffffffffffffffffffffffffffff163373ffffffffffffffffffffffffffffffffffffffff1614618cd1576040517f08c379a0000000000000000000000000000000000000000000000000000000008152600401618cc89061d05a565b60405180910390fd5b815f60015f9054906101000a900473ffffffffffffffffffffffffffffffffffffffff1673ffffffffffffffffffffffffffffffffffffffff16633bea27536040518060400160405280600e81526020017f56454e444f525f4d414e414745520000000000000000000000000000000000008152506040518060400160405280601581526020017f6c6973745f5f73656564526571756573744c69737400000000000000000000008152506040518363ffffffff1660e01b8152600401618d9992919061d078565b602060405180830381865afa158015618db4573d5f803e3d5ffd5b505050506040513d601f19601f82011682018060405250810190618dd8919061d0c1565b9050808210618e1c576040517f08c379a0000000000000000000000000000000000000000000000000000000008152600401618e139061d136565b60405180910390fd5b60015f9054906101000a900473ffffffffffffffffffffffffffffffffffffffff1673ffffffffffffffffffffffffffffffffffffffff1663c8f1cd876040518060400160405280600e81526020017f56454e444f525f4d414e414745520000000000000000000000000000000000008152506040518060400160405280601581526020017f6c6973745f5f73656564526571756573744c6973740000000000000000000000815250876040518060400160405280600381526020017f6769640000000000000000000000000000000000000000000000000000000000815250886040518663ffffffff1660e01b8152600401618f1d95949392919061d154565b5f604051808303815f87803b158015618f34575f80fd5b505af1158015618f46573d5f803e3d5ffd5b5050505050505050565b5f60015f9054906101000a900473ffffffffffffffffffffffffffffffffffffffff1673ffffffffffffffffffffffffffffffffffffffff16633bea27536040518060400160405280600e81526020017f56454e444f525f4d414e414745520000000000000000000000000000000000008152506040518060400160405280600d81526020017f6c6973745f5f6769644c697374000000000000000000000000000000000000008152506040518363ffffffff1660e01b815260040161901792919061d078565b602060405180830381865afa158015619032573d5f803e3d5ffd5b505050506040513d601f19601f82011682018060405250810190619056919061d0c1565b905090565b606060015f9054906101000a900473ffffffffffffffffffffffffffffffffffffffff1673ffffffffffffffffffffffffffffffffffffffff16632136448c6040518060400160405280600e81526020017f56454e444f525f4d414e414745520000000000000000000000000000000000008152506040518060400160405280600d81526020017f6c6973745f5f6769644c69737400000000000000000000000000000000000000815250856040518060400160405280600981526020017f706172656e7447696400000000000000000000000000000000000000000000008152506040518563ffffffff1660e01b815260040161915c949392919061d1c1565b5f60405180830381865afa158015619176573d5f803e3d5ffd5b505050506040513d5f823e3d601f19601f8201168201806040525081019061919e919061d5e8565b9050919050565b60035f9054906101000a900473ffffffffffffffffffffffffffffffffffffffff1673ffffffffffffffffffffffffffffffffffffffff1663ef02a3fc6040518060400160405280600e81526020017f56454e444f525f4d414e414745520000000000000000000000000000000000008152506040518263ffffffff1660e01b8152600401619234919061c1f2565b602060405180830381865afa15801561924f573d5f803e3d5ffd5b505050506040513d601f19601f82011682018060405250810190619273919061cfe5565b73ffffffffffffffffffffffffffffffffffffffff163373ffffffffffffffffffffffffffffffffffffffff16146192e0576040517f08c379a00000000000000000000000000000000000000000000000000000000081526004016192d79061d05a565b60405180910390fd5b60025f9054906101000a900473ffffffffffffffffffffffffffffffffffffffff1673ffffffffffffffffffffffffffffffffffffffff1663368428d96040518060400160405280600e81526020017f56454e444f525f4d414e414745520000000000000000000000000000000000008152506040518060400160405280600d81526020017f6d61705f5f676964496e6465780000000000000000000000000000000000000081525085856040518563ffffffff1660e01b81526004016193aa949392919061d9ee565b5f604051808303815f87803b1580156193c1575f80fd5b505af11580156193d3573d5f803e3d5ffd5b505050505050565b5f815f60015f9054906101000a900473ffffffffffffffffffffffffffffffffffffffff1673ffffffffffffffffffffffffffffffffffffffff16633bea27536040518060400160405280600e81526020017f56454e444f525f4d414e414745520000000000000000000000000000000000008152506040518060400160405280601081526020017f6c6973745f5f76656e646f724c697374000000000000000000000000000000008152506040518363ffffffff1660e01b81526004016194a492919061d078565b602060405180830381865afa1580156194bf573d5f803e3d5ffd5b505050506040513d601f19601f820116820180604052508101906194e3919061d0c1565b9050808210619527576040517f08c379a000000000000000000000000000000000000000000000000000000000815260040161951e9061d136565b60405180910390fd5b60015f9054906101000a900473ffffffffffffffffffffffffffffffffffffffff1673ffffffffffffffffffffffffffffffffffffffff166303afa62b6040518060400160405280600e81526020017f56454e444f525f4d414e414745520000000000000000000000000000000000008152506040518060400160405280601081526020017f6c6973745f5f76656e646f724c69737400000000000000000000000000000000815250876040518060400160405280600781526020017f76657273696f6e000000000000000000000000000000000000000000000000008152506040518563ffffffff1660e01b8152600401619626949392919061d1c1565b602060405180830381865afa158015619641573d5f803e3d5ffd5b505050506040513d601f19601f82011682018060405250810190619665919061d243565b92505050919050565b5f60015f9054906101000a900473ffffffffffffffffffffffffffffffffffffffff1673ffffffffffffffffffffffffffffffffffffffff16633bea27536040518060400160405280600e81526020017f56454e444f525f4d414e414745520000000000000000000000000000000000008152506040518060400160405280601781526020017f6c6973745f5f6d65726765417070726f7665644c6973740000000000000000008152506040518363ffffffff1660e01b815260040161973592919061d078565b602060405180830381865afa158015619750573d5f803e3d5ffd5b505050506040513d601f19601f82011682018060405250810190619774919061d0c1565b905090565b5f60015f9054906101000a900473ffffffffffffffffffffffffffffffffffffffff1673ffffffffffffffffffffffffffffffffffffffff16633bea27536040518060400160405280600e81526020017f56454e444f525f4d414e414745520000000000000000000000000000000000008152506040518060400160405280601081526020017f6c6973745f5f76656e646f724c697374000000000000000000000000000000008152506040518363ffffffff1660e01b815260040161984092919061d078565b602060405180830381865afa15801561985b573d5f803e3d5ffd5b505050506040513d601f19601f8201168201806040525081019061987f919061d0c1565b905090565b60035f9054906101000a900473ffffffffffffffffffffffffffffffffffffffff1673ffffffffffffffffffffffffffffffffffffffff1663ef02a3fc6040518060400160405280600e81526020017f56454e444f525f4d414e414745520000000000000000000000000000000000008152506040518263ffffffff1660e01b8152600401619913919061c1f2565b602060405180830381865afa15801561992e573d5f803e3d5ffd5b505050506040513d601f19601f82011682018060405250810190619952919061cfe5565b73ffffffffffffffffffffffffffffffffffffffff163373ffffffffffffffffffffffffffffffffffffffff16146199bf576040517f08c379a00000000000000000000000000000000000000000000000000000000081526004016199b69061d05a565b60405180910390fd5b60025f9054906101000a900473ffffffffffffffffffffffffffffffffffffffff1673ffffffffffffffffffffffffffffffffffffffff1663177d63616040518060400160405280600e81526020017f56454e444f525f4d414e414745520000000000000000000000000000000000008152506040518060400160405280601581526020017f6d61705f5f7365656452657175657374496e646578000000000000000000000081525085856040518563ffffffff1660e01b8152600401619a89949392919061d75d565b5f604051808303815f87803b158015619aa0575f80fd5b505af1158015619ab2573d5f803e3d5ffd5b505050505050565b60035f9054906101000a900473ffffffffffffffffffffffffffffffffffffffff1673ffffffffffffffffffffffffffffffffffffffff1663ef02a3fc6040518060400160405280600e81526020017f56454e444f525f4d414e414745520000000000000000000000000000000000008152506040518263ffffffff1660e01b8152600401619b49919061c1f2565b602060405180830381865afa158015619b64573d5f803e3d5ffd5b505050506040513d601f19601f82011682018060405250810190619b88919061cfe5565b73ffffffffffffffffffffffffffffffffffffffff163373ffffffffffffffffffffffffffffffffffffffff1614619bf5576040517f08c379a0000000000000000000000000000000000000000000000000000000008152600401619bec9061d05a565b60405180910390fd5b60015f9054906101000a900473ffffffffffffffffffffffffffffffffffffffff1673ffffffffffffffffffffffffffffffffffffffff1663a24a899b6040518060400160405280600e81526020017f56454e444f525f4d414e414745520000000000000000000000000000000000008152506040518060400160405280600d81526020017f6c6973745f5f6769644c697374000000000000000000000000000000000000008152506040518363ffffffff1660e01b8152600401619cbb92919061d078565b5f604051808303815f87803b158015619cd2575f80fd5b505af1158015619ce4573d5f803e3d5ffd5b50505050565b60035f9054906101000a900473ffffffffffffffffffffffffffffffffffffffff1673ffffffffffffffffffffffffffffffffffffffff1663ef02a3fc6040518060400160405280600e81526020017f56454e444f525f4d414e414745520000000000000000000000000000000000008152506040518263ffffffff1660e01b8152600401619d79919061c1f2565b602060405180830381865afa158015619d94573d5f803e3d5ffd5b505050506040513d601f19601f82011682018060405250810190619db8919061cfe5565b73ffffffffffffffffffffffffffffffffffffffff163373ffffffffffffffffffffffffffffffffffffffff1614619e25576040517f08c379a0000000000000000000000000000000000000000000000000000000008152600401619e1c9061d05a565b60405180910390fd5b815f60015f9054906101000a900473ffffffffffffffffffffffffffffffffffffffff1673ffffffffffffffffffffffffffffffffffffffff16633bea27536040518060400160405280600e81526020017f56454e444f525f4d414e414745520000000000000000000000000000000000008152506040518060400160405280601681526020017f6c6973745f5f6d65726765526571756573744c697374000000000000000000008152506040518363ffffffff1660e01b8152600401619eed92919061d078565b602060405180830381865afa158015619f08573d5f803e3d5ffd5b505050506040513d601f19601f82011682018060405250810190619f2c919061d0c1565b9050808210619f70576040517f08c379a0000000000000000000000000000000000000000000000000000000008152600401619f679061d136565b60405180910390fd5b60015f9054906101000a900473ffffffffffffffffffffffffffffffffffffffff1673ffffffffffffffffffffffffffffffffffffffff1663c8f1cd876040518060400160405280600e81526020017f56454e444f525f4d414e414745520000000000000000000000000000000000008152506040518060400160405280601681526020017f6c6973745f5f6d65726765526571756573744c69737400000000000000000000815250876040518060400160405280600481526020017f6769643200000000000000000000000000000000000000000000000000000000815250886040518663ffffffff1660e01b815260040161a07195949392919061d154565b5f604051808303815f87803b15801561a088575f80fd5b505af115801561a09a573d5f803e3d5ffd5b5050505050505050565b60605f60015f9054906101000a900473ffffffffffffffffffffffffffffffffffffffff1673ffffffffffffffffffffffffffffffffffffffff166332e053256040518060400160405280600e81526020017f56454e444f525f4d414e414745520000000000000000000000000000000000008152506040518060400160405280600d81526020017f6c6973745f5f6769644c69737400000000000000000000000000000000000000815250866040518060400160405280600d81526020017f6173736f636961746547696473000000000000000000000000000000000000008152506040518060400160405280600881526020017f5f5f6c656e67746800000000000000000000000000000000000000000000000081525060405160200161a1cd919061d30e565b6040516020818303038152906040526040518663ffffffff1660e01b815260040161a1fc95949392919061d376565b602060405180830381865afa15801561a217573d5f803e3d5ffd5b505050506040513d601f19601f8201168201806040525081019061a23b919061d0c1565b90508067ffffffffffffffff81111561a2575761a25661bf9a565b5b60405190808252806020026020018201604052801561a28a57816020015b606081526020019060019003908161a2755790505b5091505f5b8181101561a42a5760015f9054906101000a900473ffffffffffffffffffffffffffffffffffffffff1673ffffffffffffffffffffffffffffffffffffffff1663fa7598d56040518060400160405280600e81526020017f56454e444f525f4d414e414745520000000000000000000000000000000000008152506040518060400160405280600d81526020017f6c6973745f5f6769644c69737400000000000000000000000000000000000000815250876040518060400160405280600d81526020017f6173736f636961746547696473000000000000000000000000000000000000008152508660405160200161a388919061d4de565b6040516020818303038152906040526040518663ffffffff1660e01b815260040161a3b795949392919061d376565b5f60405180830381865afa15801561a3d1573d5f803e3d5ffd5b505050506040513d5f823e3d601f19601f8201168201806040525081019061a3f9919061d5e8565b83828151811061a40c5761a40b61d62f565b5b6020026020010181905250808061a4229061d65c565b91505061a28f565b5050919050565b6060815f60015f9054906101000a900473ffffffffffffffffffffffffffffffffffffffff1673ffffffffffffffffffffffffffffffffffffffff16633bea27536040518060400160405280600e81526020017f56454e444f525f4d414e414745520000000000000000000000000000000000008152506040518060400160405280601081526020017f6c6973745f5f76656e646f724c697374000000000000000000000000000000008152506040518363ffffffff1660e01b815260040161a4fb92919061d078565b602060405180830381865afa15801561a516573d5f803e3d5ffd5b505050506040513d601f19601f8201168201806040525081019061a53a919061d0c1565b905080821061a57e576040517f08c379a000000000000000000000000000000000000000000000000000000000815260040161a5759061d136565b60405180910390fd5b60015f9054906101000a900473ffffffffffffffffffffffffffffffffffffffff1673ffffffffffffffffffffffffffffffffffffffff16632136448c6040518060400160405280600e81526020017f56454e444f525f4d414e414745520000000000000000000000000000000000008152506040518060400160405280601081526020017f6c6973745f5f76656e646f724c69737400000000000000000000000000000000815250876040518060400160405280600d81526020017f76656e646f724567704e616d65000000000000000000000000000000000000008152506040518563ffffffff1660e01b815260040161a67d949392919061d1c1565b5f60405180830381865afa15801561a697573d5f803e3d5ffd5b505050506040513d5f823e3d601f19601f8201168201806040525081019061a6bf919061d5e8565b92505050919050565b606060015f9054906101000a900473ffffffffffffffffffffffffffffffffffffffff1673ffffffffffffffffffffffffffffffffffffffff16632136448c6040518060400160405280600e81526020017f56454e444f525f4d414e414745520000000000000000000000000000000000008152506040518060400160405280600d81526020017f6c6973745f5f6769644c69737400000000000000000000000000000000000000815250856040518060400160405280600381526020017f67696400000000000000000000000000000000000000000000000000000000008152506040518563ffffffff1660e01b815260040161a7c9949392919061d1c1565b5f60405180830381865afa15801561a7e3573d5f803e3d5ffd5b505050506040513d5f823e3d601f19601f8201168201806040525081019061a80b919061d5e8565b9050919050565b60605f805f61a81f61b708565b90508086111561a82d578095505b5f86861161a83b578561a83d565b865b90508067ffffffffffffffff81111561a8595761a85861bf9a565b5b60405190808252806020026020018201604052801561a89257816020015b61a87f61bec1565b81526020019060019003908161a8775790505b5094505b5f81111561a8fe57808061a8a99061d89d565b915050868061a8b79061d89d565b97505061a8c3876152ae565b85600183885161a8d3919061d8c4565b61a8dd919061d8c4565b8151811061a8ee5761a8ed61d62f565b5b602002602001018190525061a896565b86935081925050509250925092565b60035f9054906101000a900473ffffffffffffffffffffffffffffffffffffffff1673ffffffffffffffffffffffffffffffffffffffff1663ef02a3fc6040518060400160405280600e81526020017f56454e444f525f4d414e414745520000000000000000000000000000000000008152506040518263ffffffff1660e01b815260040161a99c919061c1f2565b602060405180830381865afa15801561a9b7573d5f803e3d5ffd5b505050506040513d601f19601f8201168201806040525081019061a9db919061cfe5565b73ffffffffffffffffffffffffffffffffffffffff163373ffffffffffffffffffffffffffffffffffffffff161461aa48576040517f08c379a000000000000000000000000000000000000000000000000000000000815260040161aa3f9061d05a565b60405180910390fd5b815f60015f9054906101000a900473ffffffffffffffffffffffffffffffffffffffff1673ffffffffffffffffffffffffffffffffffffffff16633bea27536040518060400160405280600e81526020017f56454e444f525f4d414e414745520000000000000000000000000000000000008152506040518060400160405280601581526020017f6c6973745f5f73656564526571756573744c69737400000000000000000000008152506040518363ffffffff1660e01b815260040161ab1092919061d078565b602060405180830381865afa15801561ab2b573d5f803e3d5ffd5b505050506040513d601f19601f8201168201806040525081019061ab4f919061d0c1565b905080821061ab93576040517f08c379a000000000000000000000000000000000000000000000000000000000815260040161ab8a9061d136565b60405180910390fd5b60015f9054906101000a900473ffffffffffffffffffffffffffffffffffffffff1673ffffffffffffffffffffffffffffffffffffffff1663c8f1cd876040518060400160405280600e81526020017f56454e444f525f4d414e414745520000000000000000000000000000000000008152506040518060400160405280601581526020017f6c6973745f5f73656564526571756573744c6973740000000000000000000000815250876040518060400160405280600b81526020017f76656e646f724567704964000000000000000000000000000000000000000000815250886040518663ffffffff1660e01b815260040161ac9495949392919061d154565b5f604051808303815f87803b15801561acab575f80fd5b505af115801561acbd573d5f803e3d5ffd5b5050505050505050565b606060025f9054906101000a900473ffffffffffffffffffffffffffffffffffffffff1673ffffffffffffffffffffffffffffffffffffffff166384ae93636040518060400160405280600e81526020017f56454e444f525f4d414e414745520000000000000000000000000000000000008152506040518060400160405280600e81526020017f6d61705f5f76656e646f72476964000000000000000000000000000000000000815250856040518463ffffffff1660e01b815260040161ad919392919061d814565b5f60405180830381865afa15801561adab573d5f803e3d5ffd5b505050506040513d5f823e3d601f19601f8201168201806040525081019061add3919061d5e8565b9050919050565b5f60015f9054906101000a900473ffffffffffffffffffffffffffffffffffffffff1673ffffffffffffffffffffffffffffffffffffffff16633bea27536040518060400160405280600e81526020017f56454e444f525f4d414e414745520000000000000000000000000000000000008152506040518060400160405280601681526020017f6c6973745f5f6d65726765526571756573744c697374000000000000000000008152506040518363ffffffff1660e01b815260040161aea192919061d078565b602060405180830381865afa15801561aebc573d5f803e3d5ffd5b505050506040513d601f19601f8201168201806040525081019061aee0919061d0c1565b905090565b60035f9054906101000a900473ffffffffffffffffffffffffffffffffffffffff1673ffffffffffffffffffffffffffffffffffffffff1663ef02a3fc6040518060400160405280600e81526020017f56454e444f525f4d414e414745520000000000000000000000000000000000008152506040518263ffffffff1660e01b815260040161af74919061c1f2565b602060405180830381865afa15801561af8f573d5f803e3d5ffd5b505050506040513d601f19601f8201168201806040525081019061afb3919061cfe5565b73ffffffffffffffffffffffffffffffffffffffff163373ffffffffffffffffffffffffffffffffffffffff161461b020576040517f08c379a000000000000000000000000000000000000000000000000000000000815260040161b0179061d05a565b60405180910390fd5b5f60015f9054906101000a900473ffffffffffffffffffffffffffffffffffffffff1673ffffffffffffffffffffffffffffffffffffffff166332e053256040518060400160405280600e81526020017f56454e444f525f4d414e414745520000000000000000000000000000000000008152506040518060400160405280600d81526020017f6c6973745f5f6769644c69737400000000000000000000000000000000000000815250866040518060400160405280600d81526020017f6173736f636961746547696473000000000000000000000000000000000000008152506040518060400160405280600881526020017f5f5f6c656e67746800000000000000000000000000000000000000000000000081525060405160200161b147919061d30e565b6040516020818303038152906040526040518663ffffffff1660e01b815260040161b17695949392919061d376565b602060405180830381865afa15801561b191573d5f803e3d5ffd5b505050506040513d601f19601f8201168201806040525081019061b1b5919061d0c1565b905060015f9054906101000a900473ffffffffffffffffffffffffffffffffffffffff1673ffffffffffffffffffffffffffffffffffffffff1663f07aee956040518060400160405280600e81526020017f56454e444f525f4d414e414745520000000000000000000000000000000000008152506040518060400160405280600d81526020017f6c6973745f5f6769644c69737400000000000000000000000000000000000000815250866040518060400160405280600d81526020017f6173736f636961746547696473000000000000000000000000000000000000008152506040518060400160405280600881526020017f5f5f6c656e67746800000000000000000000000000000000000000000000000081525060405160200161b2dd919061d30e565b60405160208183030381529060405287600161b2f9919061d410565b6040518763ffffffff1660e01b815260040161b31a9695949392919061d443565b5f604051808303815f87803b15801561b331575f80fd5b505af115801561b343573d5f803e3d5ffd5b5050505060015f9054906101000a900473ffffffffffffffffffffffffffffffffffffffff1673ffffffffffffffffffffffffffffffffffffffff1663df0a5a526040518060400160405280600e81526020017f56454e444f525f4d414e414745520000000000000000000000000000000000008152506040518060400160405280600d81526020017f6c6973745f5f6769644c69737400000000000000000000000000000000000000815250866040518060400160405280600d81526020017f6173736f636961746547696473000000000000000000000000000000000000008152508660405160200161b438919061d4de565b604051602081830303815290604052886040518763ffffffff1660e01b815260040161b4699695949392919061d4f8565b5f604051808303815f87803b15801561b480575f80fd5b505af115801561b492573d5f803e3d5ffd5b50505050505050565b60035f9054906101000a900473ffffffffffffffffffffffffffffffffffffffff1673ffffffffffffffffffffffffffffffffffffffff1663ef02a3fc6040518060400160405280600e81526020017f56454e444f525f4d414e414745520000000000000000000000000000000000008152506040518263ffffffff1660e01b815260040161b52a919061c1f2565b602060405180830381865afa15801561b545573d5f803e3d5ffd5b505050506040513d601f19601f8201168201806040525081019061b569919061cfe5565b73ffffffffffffffffffffffffffffffffffffffff163373ffffffffffffffffffffffffffffffffffffffff161461b5d6576040517f08c379a000000000000000000000000000000000000000000000000000000000815260040161b5cd9061d05a565b60405180910390fd5b60015f9054906101000a900473ffffffffffffffffffffffffffffffffffffffff1673ffffffffffffffffffffffffffffffffffffffff1663c8f1cd876040518060400160405280600e81526020017f56454e444f525f4d414e414745520000000000000000000000000000000000008152506040518060400160405280600d81526020017f6c6973745f5f6769644c69737400000000000000000000000000000000000000815250856040518060400160405280600981526020017f706172656e744769640000000000000000000000000000000000000000000000815250866040518663ffffffff1660e01b815260040161b6d795949392919061d154565b5f604051808303815f87803b15801561b6ee575f80fd5b505af115801561b700573d5f803e3d5ffd5b505050505050565b5f60015f9054906101000a900473ffffffffffffffffffffffffffffffffffffffff1673ffffffffffffffffffffffffffffffffffffffff16633bea27536040518060400160405280600e81526020017f56454e444f525f4d414e414745520000000000000000000000000000000000008152506040518060400160405280601581526020017f6c6973745f5f73656564526571756573744c69737400000000000000000000008152506040518363ffffffff1660e01b815260040161b7cf92919061d078565b602060405180830381865afa15801561b7ea573d5f803e3d5ffd5b505050506040513d601f19601f8201168201806040525081019061b80e919061d0c1565b905090565b60035f9054906101000a900473ffffffffffffffffffffffffffffffffffffffff1673ffffffffffffffffffffffffffffffffffffffff1663ef02a3fc6040518060400160405280600e81526020017f56454e444f525f4d414e414745520000000000000000000000000000000000008152506040518263ffffffff1660e01b815260040161b8a2919061c1f2565b602060405180830381865afa15801561b8bd573d5f803e3d5ffd5b505050506040513d601f19601f8201168201806040525081019061b8e1919061cfe5565b73ffffffffffffffffffffffffffffffffffffffff163373ffffffffffffffffffffffffffffffffffffffff161461b94e576040517f08c379a000000000000000000000000000000000000000000000000000000000815260040161b9459061d05a565b60405180910390fd5b60015f9054906101000a900473ffffffffffffffffffffffffffffffffffffffff1673ffffffffffffffffffffffffffffffffffffffff1663c4f188576040518060400160405280600e81526020017f56454e444f525f4d414e414745520000000000000000000000000000000000008152506040518060400160405280601081526020017f6c6973745f5f76656e646f724c69737400000000000000000000000000000000815250846040518060400160405280600781526020017f76657273696f6e0000000000000000000000000000000000000000000000000081525060016040518663ffffffff1660e01b815260040161ba5095949392919061d26e565b5f604051808303815f87803b15801561ba67575f80fd5b505af115801561ba79573d5f803e3d5ffd5b5050505050565b60035f9054906101000a900473ffffffffffffffffffffffffffffffffffffffff1673ffffffffffffffffffffffffffffffffffffffff1663ef02a3fc6040518060400160405280600e81526020017f56454e444f525f4d414e414745520000000000000000000000000000000000008152506040518263ffffffff1660e01b815260040161bb0f919061c1f2565b602060405180830381865afa15801561bb2a573d5f803e3d5ffd5b505050506040513d601f19601f8201168201806040525081019061bb4e919061cfe5565b73ffffffffffffffffffffffffffffffffffffffff163373ffffffffffffffffffffffffffffffffffffffff161461bbbb576040517f08c379a000000000000000000000000000000000000000000000000000000000815260040161bbb29061d05a565b60405180910390fd5b815f60015f9054906101000a900473ffffffffffffffffffffffffffffffffffffffff1673ffffffffffffffffffffffffffffffffffffffff16633bea27536040518060400160405280600e81526020017f56454e444f525f4d414e414745520000000000000000000000000000000000008152506040518060400160405280601581526020017f6c6973745f5f73656564526571756573744c69737400000000000000000000008152506040518363ffffffff1660e01b815260040161bc8392919061d078565b602060405180830381865afa15801561bc9e573d5f803e3d5ffd5b505050506040513d601f19601f8201168201806040525081019061bcc2919061d0c1565b905080821061bd06576040517f08c379a000000000000000000000000000000000000000000000000000000000815260040161bcfd9061d136565b60405180910390fd5b60015f9054906101000a900473ffffffffffffffffffffffffffffffffffffffff1673ffffffffffffffffffffffffffffffffffffffff1663ab2e960d6040518060400160405280600e81526020017f56454e444f525f4d414e414745520000000000000000000000000000000000008152506040518060400160405280601581526020017f6c6973745f5f73656564526571756573744c6973740000000000000000000000815250876040518060400160405280600581526020017f737461746500000000000000000000000000000000000000000000000000000081525088600381111561bdf95761bdf861c4ea565b5b6040518663ffffffff1660e01b815260040161be1995949392919061da55565b5f604051808303815f87803b15801561be30575f80fd5b505af115801561be42573d5f803e3d5ffd5b5050505050505050565b6040518060c0016040528060608152602001606081526020016060815260200160608152602001606081526020015f61ffff1681525090565b604051806080016040528060608152602001606081526020015f600481111561beb15761beb061c4ea565b5b81526020015f61ffff1681525090565b6040518060a001604052806060815260200160608152602001606081526020015f600381111561bef45761bef361c4ea565b5b81526020015f61ffff1681525090565b6040518060c00160405280606081526020016060815260200160608152602001606081526020015f151581526020015f61ffff1681525090565b5f604051905090565b5f80fd5b5f80fd5b5f819050919050565b61bf618161bf4f565b811461bf6b575f80fd5b50565b5f8135905061bf7c8161bf58565b92915050565b5f80fd5b5f80fd5b5f601f19601f8301169050919050565b7f4e487b71000000000000000000000000000000000000000000000000000000005f52604160045260245ffd5b61bfd08261bf8a565b810181811067ffffffffffffffff8211171561bfef5761bfee61bf9a565b5b80604052505050565b5f61c00161bf3e565b905061c00d828261bfc7565b919050565b5f67ffffffffffffffff82111561c02c5761c02b61bf9a565b5b61c0358261bf8a565b9050602081019050919050565b828183375f83830152505050565b5f61c06261c05d8461c012565b61bff8565b90508281526020810184848401111561c07e5761c07d61bf86565b5b61c08984828561c042565b509392505050565b5f82601f83011261c0a55761c0a461bf82565b5b813561c0b584826020860161c050565b91505092915050565b5f806040838503121561c0d45761c0d361bf47565b5b5f61c0e18582860161bf6e565b925050602083013567ffffffffffffffff81111561c1025761c10161bf4b565b5b61c10e8582860161c091565b9150509250929050565b5f6020828403121561c12d5761c12c61bf47565b5b5f61c13a8482850161bf6e565b91505092915050565b5f61ffff82169050919050565b61c1598161c143565b82525050565b5f60208201905061c1725f83018461c150565b92915050565b5f81519050919050565b5f82825260208201905092915050565b5f5b8381101561c1af57808201518184015260208101905061c194565b5f8484015250505050565b5f61c1c48261c178565b61c1ce818561c182565b935061c1de81856020860161c192565b61c1e78161bf8a565b840191505092915050565b5f6020820190508181035f83015261c20a818461c1ba565b905092915050565b5f82825260208201905092915050565b5f61c22c8261c178565b61c236818561c212565b935061c24681856020860161c192565b61c24f8161bf8a565b840191505092915050565b5f81519050919050565b5f82825260208201905092915050565b5f819050602082019050919050565b5f61c28e838361c222565b905092915050565b5f602082019050919050565b5f61c2ac8261c25a565b61c2b6818561c264565b93508360208202850161c2c88561c274565b805f5b8581101561c303578484038952815161c2e4858261c283565b945061c2ef8361c296565b925060208a0199505060018101905061c2cb565b50829750879550505050505092915050565b61c31e8161c143565b82525050565b5f60c083015f8301518482035f86015261c33e828261c222565b9150506020830151848203602086015261c358828261c222565b9150506040830151848203604086015261c372828261c222565b9150506060830151848203606086015261c38c828261c2a2565b9150506080830151848203608086015261c3a6828261c2a2565b91505060a083015161c3bb60a086018261c315565b508091505092915050565b5f6020820190508181035f83015261c3de818461c324565b905092915050565b5f82825260208201905092915050565b5f61c4008261c25a565b61c40a818561c3e6565b93508360208202850161c41c8561c274565b805f5b8581101561c457578484038952815161c438858261c283565b945061c4438361c296565b925060208a0199505060018101905061c41f565b50829750879550505050505092915050565b5f6020820190508181035f83015261c481818461c3f6565b905092915050565b6005811061c495575f80fd5b50565b5f8135905061c4a68161c489565b92915050565b5f806040838503121561c4c25761c4c161bf47565b5b5f61c4cf8582860161bf6e565b925050602061c4e08582860161c498565b9150509250929050565b7f4e487b71000000000000000000000000000000000000000000000000000000005f52602160045260245ffd5b6005811061c5285761c52761c4ea565b5b50565b5f81905061c5388261c517565b919050565b5f61c5478261c52b565b9050919050565b61c5578161c53d565b82525050565b5f608083015f8301518482035f86015261c577828261c222565b9150506020830151848203602086015261c591828261c222565b915050604083015161c5a6604086018261c54e565b50606083015161c5b9606086018261c315565b508091505092915050565b5f6020820190508181035f83015261c5dc818461c55d565b905092915050565b5f7fffffffffffffffff00000000000000000000000000000000000000000000000082169050919050565b61c6188161c5e4565b811461c622575f80fd5b50565b5f8135905061c6338161c60f565b92915050565b5f806040838503121561c64f5761c64e61bf47565b5b5f61c65c8582860161c625565b925050602061c66d8582860161bf6e565b9150509250929050565b5f8115159050919050565b61c68b8161c677565b811461c695575f80fd5b50565b5f8135905061c6a68161c682565b92915050565b5f806040838503121561c6c25761c6c161bf47565b5b5f61c6cf8582860161bf6e565b925050602061c6e08582860161c698565b9150509250929050565b6004811061c6fb5761c6fa61c4ea565b5b50565b5f81905061c70b8261c6ea565b919050565b5f61c71a8261c6fe565b9050919050565b61c72a8161c710565b82525050565b5f60a083015f8301518482035f86015261c74a828261c222565b9150506020830151848203602086015261c764828261c222565b9150506040830151848203604086015261c77e828261c222565b915050606083015161c793606086018261c721565b50608083015161c7a6608086018261c315565b508091505092915050565b5f6020820190508181035f83015261c7c9818461c730565b905092915050565b61c7da8161c677565b82525050565b5f60c083015f8301518482035f86015261c7fa828261c222565b9150506020830151848203602086015261c814828261c222565b9150506040830151848203604086015261c82e828261c2a2565b9150506060830151848203606086015261c848828261c2a2565b915050608083015161c85d608086018261c7d1565b5060a083015161c87060a086018261c315565b508091505092915050565b5f6020820190508181035f83015261c893818461c7e0565b905092915050565b5f6020828403121561c8b05761c8af61bf47565b5b5f82013567ffffffffffffffff81111561c8cd5761c8cc61bf4b565b5b61c8d98482850161c091565b91505092915050565b61c8eb8161bf4f565b82525050565b5f60208201905061c9045f83018461c8e2565b92915050565b61c9138161c677565b82525050565b5f60208201905061c92c5f83018461c90a565b92915050565b5f806040838503121561c9485761c94761bf47565b5b5f61c9558582860161bf6e565b925050602061c9668582860161bf6e565b9150509250929050565b5f81519050919050565b5f82825260208201905092915050565b5f819050602082019050919050565b5f60c083015f8301518482035f86015261c9b3828261c222565b9150506020830151848203602086015261c9cd828261c222565b9150506040830151848203604086015261c9e7828261c222565b9150506060830151848203606086015261ca01828261c2a2565b9150506080830151848203608086015261ca1b828261c2a2565b91505060a083015161ca3060a086018261c315565b508091505092915050565b5f61ca46838361c999565b905092915050565b5f602082019050919050565b5f61ca648261c970565b61ca6e818561c97a565b93508360208202850161ca808561c98a565b805f5b8581101561cabb578484038952815161ca9c858261ca3b565b945061caa78361ca4e565b925060208a0199505060018101905061ca83565b50829750879550505050505092915050565b5f6060820190508181035f83015261cae5818661ca5a565b905061caf4602083018561c8e2565b61cb01604083018461c8e2565b949350505050565b5f806040838503121561cb1f5761cb1e61bf47565b5b5f83013567ffffffffffffffff81111561cb3c5761cb3b61bf4b565b5b61cb488582860161c091565b925050602083013567ffffffffffffffff81111561cb695761cb6861bf4b565b5b61cb758582860161c091565b9150509250929050565b61cb888161c53d565b82525050565b5f60208201905061cba15f83018461cb7f565b92915050565b5f81519050919050565b5f82825260208201905092915050565b5f819050602082019050919050565b5f608083015f8301518482035f86015261cbea828261c222565b9150506020830151848203602086015261cc04828261c222565b915050604083015161cc19604086018261c54e565b50606083015161cc2c606086018261c315565b508091505092915050565b5f61cc42838361cbd0565b905092915050565b5f602082019050919050565b5f61cc608261cba7565b61cc6a818561cbb1565b93508360208202850161cc7c8561cbc1565b805f5b8581101561ccb7578484038952815161cc98858261cc37565b945061cca38361cc4a565b925060208a0199505060018101905061cc7f565b50829750879550505050505092915050565b5f6060820190508181035f83015261cce1818661cc56565b905061ccf0602083018561c8e2565b61ccfd604083018461c8e2565b949350505050565b5f6020828403121561cd1a5761cd1961bf47565b5b5f61cd278482850161c625565b91505092915050565b61cd398161c710565b82525050565b5f60208201905061cd525f83018461cd30565b92915050565b5f806040838503121561cd6e5761cd6d61bf47565b5b5f83013567ffffffffffffffff81111561cd8b5761cd8a61bf4b565b5b61cd978582860161c091565b925050602061cda88582860161bf6e565b9150509250929050565b5f81519050919050565b5f82825260208201905092915050565b5f819050602082019050919050565b5f60a083015f8301518482035f86015261cdf5828261c222565b9150506020830151848203602086015261ce0f828261c222565b9150506040830151848203604086015261ce29828261c222565b915050606083015161ce3e606086018261c721565b50608083015161ce51608086018261c315565b508091505092915050565b5f61ce67838361cddb565b905092915050565b5f602082019050919050565b5f61ce858261cdb2565b61ce8f818561cdbc565b93508360208202850161cea18561cdcc565b805f5b8581101561cedc578484038952815161cebd858261ce5c565b945061cec88361ce6f565b925060208a0199505060018101905061cea4565b50829750879550505050505092915050565b5f6060820190508181035f83015261cf06818661ce7b565b905061cf15602083018561c8e2565b61cf22604083018461c8e2565b949350505050565b6004811061cf36575f80fd5b50565b5f8135905061cf478161cf2a565b92915050565b5f806040838503121561cf635761cf6261bf47565b5b5f61cf708582860161bf6e565b925050602061cf818582860161cf39565b9150509250929050565b5f73ffffffffffffffffffffffffffffffffffffffff82169050919050565b5f61cfb48261cf8b565b9050919050565b61cfc48161cfaa565b811461cfce575f80fd5b50565b5f8151905061cfdf8161cfbb565b92915050565b5f6020828403121561cffa5761cff961bf47565b5b5f61d0078482850161cfd1565b91505092915050565b7f556e617574686f72697a656420436f6e74726163742043616c6c0000000000005f82015250565b5f61d044601a8361c182565b915061d04f8261d010565b602082019050919050565b5f6020820190508181035f83015261d0718161d038565b9050919050565b5f6040820190508181035f83015261d090818561c1ba565b9050818103602083015261d0a4818461c1ba565b90509392505050565b5f8151905061d0bb8161bf58565b92915050565b5f6020828403121561d0d65761d0d561bf47565b5b5f61d0e38482850161d0ad565b91505092915050565b7f496e64657820496e76616c6964000000000000000000000000000000000000005f82015250565b5f61d120600d8361c182565b915061d12b8261d0ec565b602082019050919050565b5f6020820190508181035f83015261d14d8161d114565b9050919050565b5f60a0820190508181035f83015261d16c818861c1ba565b9050818103602083015261d180818761c1ba565b905061d18f604083018661c8e2565b818103606083015261d1a1818561c1ba565b9050818103608083015261d1b5818461c1ba565b90509695505050505050565b5f6080820190508181035f83015261d1d9818761c1ba565b9050818103602083015261d1ed818661c1ba565b905061d1fc604083018561c8e2565b818103606083015261d20e818461c1ba565b905095945050505050565b61d2228161c143565b811461d22c575f80fd5b50565b5f8151905061d23d8161d219565b92915050565b5f6020828403121561d2585761d25761bf47565b5b5f61d2658482850161d22f565b91505092915050565b5f60a0820190508181035f83015261d286818861c1ba565b9050818103602083015261d29a818761c1ba565b905061d2a9604083018661c8e2565b818103606083015261d2bb818561c1ba565b905061d2ca608083018461c150565b9695505050505050565b5f81905092915050565b5f61d2e88261c178565b61d2f2818561d2d4565b935061d30281856020860161c192565b80840191505092915050565b5f61d319828461d2de565b915081905092915050565b5f81519050919050565b5f82825260208201905092915050565b5f61d3488261d324565b61d352818561d32e565b935061d36281856020860161c192565b61d36b8161bf8a565b840191505092915050565b5f60a0820190508181035f83015261d38e818861c1ba565b9050818103602083015261d3a2818761c1ba565b905061d3b1604083018661c8e2565b818103606083015261d3c3818561d33e565b9050818103608083015261d3d7818461d33e565b90509695505050505050565b7f4e487b71000000000000000000000000000000000000000000000000000000005f52601160045260245ffd5b5f61d41a8261bf4f565b915061d4258361bf4f565b925082820190508082111561d43d5761d43c61d3e3565b5b92915050565b5f60c0820190508181035f83015261d45b818961c1ba565b9050818103602083015261d46f818861c1ba565b905061d47e604083018761c8e2565b818103606083015261d490818661d33e565b9050818103608083015261d4a4818561d33e565b905061d4b360a083018461c8e2565b979650505050505050565b5f819050919050565b61d4d861d4d38261bf4f565b61d4be565b82525050565b5f61d4e9828461d4c7565b60208201915081905092915050565b5f60c0820190508181035f83015261d510818961c1ba565b9050818103602083015261d524818861c1ba565b905061d533604083018761c8e2565b818103606083015261d545818661d33e565b9050818103608083015261d559818561d33e565b905081810360a083015261d56d818461c1ba565b9050979650505050505050565b5f61d58c61d5878461c012565b61bff8565b90508281526020810184848401111561d5a85761d5a761bf86565b5b61d5b384828561c192565b509392505050565b5f82601f83011261d5cf5761d5ce61bf82565b5b815161d5df84826020860161d57a565b91505092915050565b5f6020828403121561d5fd5761d5fc61bf47565b5b5f82015167ffffffffffffffff81111561d61a5761d61961bf4b565b5b61d6268482850161d5bb565b91505092915050565b7f4e487b71000000000000000000000000000000000000000000000000000000005f52603260045260245ffd5b5f61d6668261bf4f565b91507fffffffffffffffffffffffffffffffffffffffffffffffffffffffffffffffff820361d6985761d69761d3e3565b5b600182019050919050565b5f60ff82169050919050565b5f819050919050565b5f61d6d261d6cd61d6c88461d6a3565b61d6af565b61bf4f565b9050919050565b61d6e28161d6b8565b82525050565b5f60a0820190508181035f83015261d700818861c1ba565b9050818103602083015261d714818761c1ba565b905061d723604083018661c8e2565b818103606083015261d735818561c1ba565b905061d744608083018461d6d9565b9695505050505050565b61d7578161c5e4565b82525050565b5f6080820190508181035f83015261d775818761c1ba565b9050818103602083015261d789818661c1ba565b905061d798604083018561d74e565b61d7a5606083018461c8e2565b95945050505050565b5f60a0820190508181035f83015261d7c6818861c1ba565b9050818103602083015261d7da818761c1ba565b905061d7e9604083018661c8e2565b818103606083015261d7fb818561c1ba565b905061d80a608083018461c90a565b9695505050505050565b5f6060820190508181035f83015261d82c818661c1ba565b9050818103602083015261d840818561c1ba565b9050818103604083015261d854818461c1ba565b9050949350505050565b5f8151905061d86c8161c682565b92915050565b5f6020828403121561d8875761d88661bf47565b5b5f61d8948482850161d85e565b91505092915050565b5f61d8a78261bf4f565b91505f820361d8b95761d8b861d3e3565b5b600182039050919050565b5f61d8ce8261bf4f565b915061d8d98361bf4f565b925082820390508181111561d8f15761d8f061d3e3565b5b92915050565b5f6080820190508181035f83015261d90f818761c1ba565b9050818103602083015261d923818661c1ba565b9050818103604083015261d937818561c1ba565b9050818103606083015261d94b818461c1ba565b905095945050505050565b5f6060820190508181035f83015261d96e818661c1ba565b9050818103602083015261d982818561c1ba565b905061d991604083018461d74e565b949350505050565b61d9a28161d6a3565b811461d9ac575f80fd5b50565b5f8151905061d9bd8161d999565b92915050565b5f6020828403121561d9d85761d9d761bf47565b5b5f61d9e58482850161d9af565b91505092915050565b5f6080820190508181035f83015261da06818761c1ba565b9050818103602083015261da1a818661c1ba565b9050818103604083015261da2e818561c1ba565b905061da3d606083018461c8e2565b95945050505050565b61da4f8161d6a3565b82525050565b5f60a0820190508181035f83015261da6d818861c1ba565b9050818103602083015261da81818761c1ba565b905061da90604083018661c8e2565b818103606083015261daa2818561c1ba565b905061dab1608083018461da46565b969550505050505056fea26469706673582212208b3af24248b415e4b500a55daa9a39080c1fde0ff37bca782d9098332bd1cde264736f6c63430008140033",
  "immutableReferences": {},
  "source": "pragma solidity ^0.8.0;\npragma experimental ABIEncoderV2;\n\nimport \"./MemberStorage.sol\";\nimport \"./ListStorage.sol\";\nimport \"./MapStorage.sol\";\nimport \"./QuireContracts.sol\";\n\ncontract VendorStructs {\n\n    uint16 constant internal __VERSION__ = 1;\n\n    enum MergeRequestState {INITIATED, SUBMITTED, APPROVED, REJECTED, EXPIRED}\n    enum SeedRequestState {SUBMITTED, APPROVED, REJECTED, EXPIRED}\n\n    struct Vendor {\n        string gid;\n        string accountName; // Vendor's blockchain username \n        string vendorEgpName; // Name of registered Vendor \n        string[] vendorEgpId;  // External Id of the EGPs \n        string[] vendorEgpOrgId; // Organization Id of the EGPs \n\n\n        uint16 version;\n    }\n    string constant internal propNameVendorGid = \"gid\";\n    string constant internal propNameVendorAccountName = \"accountName\";\n    string constant internal propNameVendorVendorEgpName = \"vendorEgpName\";\n    string constant internal propNameVendorVendorEgpIds = \"list__vendorEgpIds\";\n    string constant internal propNameVendorVendorEgpOrgIds = \"list__vendorEgpOrgIds\";\n    string constant internal propNameVendorVendorVersion = \"version\";\n\n    struct MergeRequest {\n        string gid1;\n        string gid2;\n        MergeRequestState state;\n        uint16 version;\n    }\n    string constant internal propKeyMergeGid1 = \"gid1\";\n    string constant internal propKeyMergeGid2 = \"gid2\";\n    string constant internal propKeyMergeState = \"state\";\n    string constant internal propKeyMergeVersion = \"version\";\n\n    struct GID {\n        string gid;\n        string parentGid;\n        string [] childrenGids;\n        string [] associateGids;\n        bool active;\n        uint16 version;\n    }\n    string constant internal propKeyGidGid = \"gid\";\n    string constant internal propKeyGidParentGid = \"parentGid\";\n    string constant internal propKeyGidChildrenGids = \"childrenGids\";\n    string constant internal propKeyGidAssociateGids = \"associateGids\";\n    string constant internal propKeyGidActive = \"active\";\n    string constant internal propKeyGidVersion = \"version\";\n\n    struct GidSeedRequest {\n        string gid;\n        string vendorEgpId;\n        string vendorEgpOrgId;\n        SeedRequestState state;\n        uint16 version;\n    }\n    string constant internal propKeySeedGid = \"gid\";\n    string constant internal propKeySeedVendorEgpId = \"vendorEgpId\";\n    string constant internal propKeySeedVendorEgpOrgId = \"vendorEgpOrgId\";\n    string constant internal propKeySeedState = \"state\";\n    string constant internal propKeySeedVersion = \"version\";\n}\n\ncontract VendorModel is VendorStructs {\n    \n    MemberStorage private Member;\n    ListStorage private List;\n    MapStorage private Map;\n    QuireContracts private quireContracts;\n    \n    constructor(\n        address _Member,\n        address _List,\n        address _Map,\n        address _quireContracts\n    ){\n        Member = MemberStorage(_Member);\n        List = ListStorage(_List);\n        Map = MapStorage(_Map);\n        quireContracts = QuireContracts(_quireContracts);\n    }\n\n\n    string constant internal KEY = \"VENDOR_MANAGER\";\n    string constant internal keyListLength = \"__length\";\n    string constant internal vendorList = \"list__vendorList\";\n    string constant internal vendorIndex = \"map__vendorIndex\";\n    string constant internal vendorGid = \"map__vendorGid\";\n    string constant internal egpIDVendors = \"map__egpIDVendors\";\n    string constant internal activeVendorListLengthByEgp = \"map__activeVendorListLengthByEgp\";\n\n\n\n    string constant internal mergeRequestList = \"list__mergeRequestList\";\n    string constant internal mergeRequestIndex = \"map__mergeRequestIndex\";\n\n    string constant internal mergeApprovedList = \"list__mergeApprovedList\";\n    string constant internal mergeApprovedIndex = \"map__mergeApprovedIndex\";\n\n\n    string constant internal gidList = \"list__gidList\";\n    string constant internal gidIndex = \"map__gidIndex\";\n\n\n    string constant internal seedRequestList = \"list__seedRequestList\";\n    string constant internal seedRequestIndex = \"map__seedRequestIndex\";\n\n    string constant internal seedApprovedList = \"list__seedApprovedList\";\n    string constant internal seedApprovedIndex = \"map__seedApprovedIndex\";\n\n    modifier onlyVendorManager() {\n        require(msg.sender==quireContracts.getRegisteredContract(KEY), \"Unauthorized Contract Call\");\n        _;\n    }\n\n    modifier validVendorListIndex(uint256 _index){\n        uint256 length = List.getLength(KEY, vendorList);\n        require(_index < length, \"Index Invalid\");\n        _;\n    }\n\n    modifier validMergeListIndex(uint256 _index){\n        uint256 length = List.getLength(KEY, mergeRequestList);\n        require(_index < length, \"Index Invalid\");\n        _;\n    }\n\n    modifier validGidListIndex(uint256 _index){\n        uint256 length = List.getLength(KEY, gidList);\n        require(_index < length, \"Index Invalid\");\n        _;\n    }\n\n    modifier validSeedListIndex(uint256 _index){\n        uint256 length = List.getLength(KEY, seedRequestList);\n        require(_index < length, \"Index Invalid\");\n        _;\n    }\n\n    function getVendorIndex(string memory _gid) public view returns (uint256) {\n        return Map.getStringToUint(KEY, vendorIndex, _gid);\n    }\n\n    function getVendorGidMap(string memory _name) public view returns (string memory) {\n        return Map.getStringToString(KEY, vendorGid, _name);\n    }\n\n    function getMergeIndex(bytes8 _uid) public view returns (uint256) {\n        return Map.getBytes8ToUint(KEY, mergeRequestIndex, _uid);\n    }\n\n    function getGidIndex(string memory _gid) public view returns (uint256) {\n        return Map.getStringToUint(KEY, gidIndex, _gid);\n    }\n\n    function getSeedRequestIndex(bytes8 _uid) public view returns (uint256) {\n        return Map.getBytes8ToUint(KEY, seedRequestIndex, _uid);\n    }\n\n    function getVendorListLength() public view returns (uint256) {\n        return List.getLength(KEY, vendorList);\n    }\n\n    function getMergeListLength() public view returns (uint256) {\n        return List.getLength(KEY, mergeRequestList);\n    }\n\n    function getMergeApprovedListLength() public view returns (uint256) {\n        return List.getLength(KEY, mergeApprovedList);\n    }\n\n    function getGidListLength() public view returns (uint256) {\n        return List.getLength(KEY, gidList);\n    }\n\n    function getSeedListLength() public view returns (uint256) {\n        return List.getLength(KEY, seedRequestList);\n    }\n\n    function getSeedApprovedListLength() public view returns (uint256) {\n        return List.getLength(KEY, seedApprovedList);\n    }\n\n\n    function getVendorByIndex(uint256 _index)\n        public\n        view\n        validVendorListIndex(_index)\n        returns (Vendor memory vendor_)\n    {\n        vendor_.gid = getVendorGid(_index);\n        vendor_.accountName = getVendorAccountName(_index);\n        vendor_.vendorEgpName = getVendorVendorEgpName(_index);\n        vendor_.vendorEgpId = getVendorVendorEgpIds(_index);\n        vendor_.vendorEgpOrgId = getVendorVendorEgpOrgIds(_index);\n        vendor_.version = getVendorVersion(_index);\n    }\n\n    function getAllVendors(uint _toExcluded, uint _count) public view \n    returns (Vendor[] memory _vendor, uint fromIncluded_, uint length_) {\n        uint length = getVendorListLength();\n        if (_toExcluded > length) {\n            _toExcluded = length;\n        }\n        uint itr = _count>_toExcluded ? _toExcluded:_count;\n        _vendor = new Vendor[](itr);\n        while (itr>0) {\n            itr--;\n            _toExcluded--;\n            _vendor[_vendor.length-itr-1] = getVendorByIndex(_toExcluded);\n        }\n        fromIncluded_ = _toExcluded;\n        length_ = length;\n    }\n\n    function getVendorGid(uint256 _index) public view \n    validVendorListIndex(_index) \n    returns(string memory) {\n        return List.getPropString(KEY, vendorList, _index, propNameVendorGid);\n    }\n\n    function getVendorAccountName(uint256 _index) public view\n    validVendorListIndex(_index) \n    returns(string memory) {\n        return List.getPropString(KEY, vendorList, _index, propNameVendorAccountName);\n    }\n\n    function getVendorVendorEgpName(uint256 _index) public view \n    validVendorListIndex(_index) \n    returns(string memory) {\n        return List.getPropString(KEY, vendorList, _index, propNameVendorVendorEgpName);\n    }\n\n    function getVendorVendorEgpIds(uint256 _index) public view \n    validVendorListIndex(_index) \n    returns(string[] memory vendorEgpIds_) {\n        uint length = List.getPropByKeyUint(KEY, vendorList, _index, bytes(propNameVendorVendorEgpIds), abi.encodePacked(keyListLength));\n        vendorEgpIds_ = new string[](length);\n        for (uint256 i = 0; i < length; i++) {\n            vendorEgpIds_[i] = List.getPropByKeyString(KEY, vendorList, _index, bytes(propNameVendorVendorEgpIds), abi.encodePacked(i));\n        }\n    }\n\n    function getVendorVendorEgpOrgIds(uint256 _index) public view \n    validVendorListIndex(_index) \n    returns(string[] memory vendorEgpOrgIds_) {\n        uint length = List.getPropByKeyUint(KEY, vendorList, _index, bytes(propNameVendorVendorEgpOrgIds), abi.encodePacked(keyListLength));\n        vendorEgpOrgIds_ = new string[](length);\n        for (uint256 i = 0; i < length; i++) {\n            vendorEgpOrgIds_[i] = List.getPropByKeyString(KEY, vendorList, _index, bytes(propNameVendorVendorEgpOrgIds), abi.encodePacked(i));\n        }\n    }\n\n    function getVendorVersion(uint256 _index) public view \n    validVendorListIndex(_index) \n    returns(uint16) {\n        return List.getPropUint16(KEY, vendorList, _index, propNameVendorVendorVersion);\n    }\n\n    function getAllMergeRequests(uint _toExcluded, uint _count) public view \n    returns(MergeRequest[] memory mergeRequests_, uint fromIncluded_, uint length_) {\n        uint length = getMergeListLength();\n        if (_toExcluded > length) {\n            _toExcluded = length;\n        }\n        uint itr = _count>_toExcluded ? _toExcluded:_count;\n        mergeRequests_ = new MergeRequest[](itr);\n        while (itr>0) {\n            itr--;\n            _toExcluded--;\n            mergeRequests_[mergeRequests_.length-itr-1] = getMergeRequestByIndex(_toExcluded);\n        }\n        fromIncluded_ = _toExcluded;\n        length_ = length;\n    }\n\n    function getMergeRequestByIndex(uint256 _index) public view \n    validMergeListIndex(_index)\n    returns(MergeRequest memory mergeRequest_) {\n        mergeRequest_.gid1 = getMergeRequestGid1(_index);\n        mergeRequest_.gid2 = getMergeRequestGid2(_index);\n        mergeRequest_.state = getMergeRequestState(_index);\n        mergeRequest_.version = getMergeRequestVersion(_index);\n    }\n\n    function getMergeRequestGid1(uint256 _index) public view \n    validMergeListIndex(_index)\n    returns(string memory) {\n        return List.getPropString(KEY, mergeRequestList, _index, propKeyMergeGid1);\n    }\n\n    function getMergeRequestGid2(uint256 _index) public view \n    validMergeListIndex(_index)\n    returns(string memory) {\n        return List.getPropString(KEY, mergeRequestList, _index, propKeyMergeGid2);\n    }\n\n    function getMergeRequestState(uint256 _index) public view \n    validMergeListIndex(_index)\n    returns(MergeRequestState) {\n        return MergeRequestState(List.getPropUint(KEY, mergeRequestList, _index, propKeyMergeState));\n    }\n\n    function getMergeRequestVersion(uint256 _index) public view \n    validMergeListIndex(_index)\n    returns(uint16) {\n        return List.getPropUint16(KEY, mergeRequestList, _index, propKeyMergeVersion);\n    }\n\n    function getGidByIndex(uint256 _index) public view \n    returns(GID memory gid_) {\n        gid_.gid = getGidGid(_index);\n        gid_.parentGid = getGidParentGid(_index);\n        gid_.childrenGids = getGidChildrenGids(_index);\n        gid_.associateGids = getGidAssociateGid(_index);\n        gid_.version = getGidVersion(_index);\n    }\n\n    function getGidGid(uint256 _index) public view \n    returns(string memory) {\n        return List.getPropString(KEY, gidList, _index, propKeyGidGid);\n    }\n\n    function getGidParentGid(uint256 _index) public view \n    returns(string memory) {\n        return List.getPropString(KEY, gidList, _index, propKeyGidParentGid);\n    }\n\n    function getGidChildrenGids(uint256 _index) public view \n    returns(string [] memory childrenGids_) {\n        uint length = List.getPropByKeyUint(KEY, gidList, _index, bytes(propKeyGidChildrenGids), abi.encodePacked(keyListLength));\n        childrenGids_ = new string[](length);\n        for (uint256 i = 0; i < length; i++) {\n            childrenGids_[i] = List.getPropByKeyString(KEY, gidList, _index, bytes(propKeyGidChildrenGids), abi.encodePacked(i));\n        }\n    }\n\n    function getGidAssociateGid(uint256 _index) public view \n    returns(string [] memory associateGids_) {\n        uint length = List.getPropByKeyUint(KEY, gidList, _index, bytes(propKeyGidAssociateGids), abi.encodePacked(keyListLength));\n        associateGids_ = new string[](length);\n        for (uint256 i = 0; i < length; i++) {\n            associateGids_[i] = List.getPropByKeyString(KEY, gidList, _index, bytes(propKeyGidAssociateGids), abi.encodePacked(i));\n        }\n    }\n\n    function getGidActive(uint256 _index) public view \n    returns(bool) {\n        return List.getPropBool(KEY, gidList, _index, propKeyGidActive);\n    }\n\n    function getGidVersion(uint256 _index) public view \n    returns(uint16) {\n        return List.getPropUint16(KEY, gidList, _index, propKeyGidVersion);\n    }\n\n    function getAllGidSeedRequests(uint _toExcluded, uint _count) public view \n    returns(GidSeedRequest[] memory gidSeedRequests_, uint fromIncluded_, uint length_) {\n        uint length = getSeedListLength();\n        if (_toExcluded > length) {\n            _toExcluded = length;\n        }\n        uint itr = _count>_toExcluded ? _toExcluded:_count;\n        gidSeedRequests_ = new GidSeedRequest[](itr);\n        while (itr>0) {\n            itr--;\n            _toExcluded--;\n            gidSeedRequests_[gidSeedRequests_.length-itr-1] = getSeedRequestByIndex(_toExcluded);\n        }\n        fromIncluded_ = _toExcluded;\n        length_ = length;\n    }\n\n    function getSeedRequestByIndex(uint256 _index) public view \n    validSeedListIndex(_index)\n    returns(GidSeedRequest memory gidSeedRequest_) {\n        gidSeedRequest_.gid = getSeedRequestGid(_index);\n        gidSeedRequest_.vendorEgpId = getSeedRequestVendorEgpId(_index);\n        gidSeedRequest_.vendorEgpOrgId = getSeedRequestVendorEgpOrgId(_index);\n        gidSeedRequest_.state = getSeedRequestState(_index);\n        gidSeedRequest_.version = getSeedRequestVersion(_index);\n    }\n\n    function getSeedRequestGid(uint256 _index) public view \n    validSeedListIndex(_index)\n    returns(string memory) {\n        return List.getPropString(KEY, seedRequestList, _index, propKeySeedGid);\n    }\n\n    function getSeedRequestVendorEgpId(uint256 _index) public view \n    validSeedListIndex(_index)\n    returns(string memory) {\n        return List.getPropString(KEY, seedRequestList, _index, propKeySeedVendorEgpId);\n    }\n\n    function getSeedRequestVendorEgpOrgId(uint256 _index) public view \n    validSeedListIndex(_index)\n    returns(string memory) {\n        return List.getPropString(KEY, seedRequestList, _index, propKeySeedVendorEgpOrgId);\n    }\n\n    function getSeedRequestState(uint256 _index) public view \n    validSeedListIndex(_index)\n    returns(SeedRequestState) {\n        return SeedRequestState(List.getPropUint8(KEY, seedRequestList, _index, propKeySeedState));\n    }\n\n    function getSeedRequestVersion(uint256 _index) public view \n    validSeedListIndex(_index)\n    returns(uint16) {\n        return List.getPropUint16(KEY, seedRequestList, _index, propKeySeedVersion);\n    }\n\n\n    // ------------- SETTERS ------------- //\n\n    \n    function setVendorIndex(string memory _gid, uint _value) public \n    onlyVendorManager {\n        Map.setStringToUint(KEY, vendorIndex, _gid, _value);\n    }\n\n    function setVendorGidMap(string memory _name, string memory _gid) public \n    onlyVendorManager {\n        Map.setStringToString(KEY, vendorGid, _name, _gid);\n    }\n\n    function setMergeIndex(bytes8 _uid, uint _value) public \n    onlyVendorManager {\n        Map.setBytes8ToUint(KEY, mergeRequestIndex, _uid, _value);\n    }\n\n    function setGidIndex(string memory _gid, uint _value) public \n    onlyVendorManager {\n        Map.setStringToUint(KEY, gidIndex, _gid, _value);\n    }\n\n    function setSeedRequestIndex(bytes8 _uid, uint _value) public \n    onlyVendorManager {\n        Map.setBytes8ToUint(KEY, seedRequestIndex, _uid, _value);\n    }\n\n    function incVendorListLength() public \n    onlyVendorManager {\n        List.incLength(KEY, vendorList);\n    }\n\n    function incMergeRequestListLength() public \n    onlyVendorManager {\n        List.incLength(KEY, mergeRequestList);\n    }\n\n    function incMergeApprovedListLength() public \n    onlyVendorManager {\n        List.incLength(KEY, mergeApprovedList);\n    }\n\n    function incSeedApprovedListLength() public \n    onlyVendorManager {\n        List.incLength(KEY, seedApprovedList);\n    }\n\n    function incGidListLength() public \n    onlyVendorManager {\n        List.incLength(KEY, gidList);\n    }\n\n    function incSeedRequestListLength() public \n    onlyVendorManager {\n        List.incLength(KEY, seedRequestList);\n    }\n\n    function setVendorGid(uint256 _index, string memory _gid) public \n    onlyVendorManager {\n        List.setPropString(KEY, vendorList, _index, propNameVendorGid, _gid);\n    }\n\n    function setVendorAccountName(uint256 _index, string memory _value) public \n    onlyVendorManager {\n        List.setPropString(KEY, vendorList, _index, propNameVendorAccountName, _value);\n    }\n\n    function setVendorVendorEgpName(uint256 _index, string memory _value) public \n    onlyVendorManager {\n        List.setPropString(KEY, vendorList, _index, propNameVendorVendorEgpName, _value);\n    }\n\n    function addVendorVendorEgpId(uint256 _index, string memory _value) public \n    onlyVendorManager {\n        uint length = List.getPropByKeyUint(KEY, vendorList, _index, bytes(propNameVendorVendorEgpIds), abi.encodePacked(keyListLength));\n        List.setPropByKeyUint(KEY, vendorList, _index, bytes(propNameVendorVendorEgpIds), abi.encodePacked(keyListLength), 1+length);\n        List.setPropByKeyString(KEY, vendorList, _index, bytes(propNameVendorVendorEgpIds), abi.encodePacked(length), _value);\n    }\n\n    function addVendorVendorEgpOrgId(uint256 _index, string memory _value) public \n    onlyVendorManager {\n        uint length = List.getPropByKeyUint(KEY, vendorList, _index, bytes(propNameVendorVendorEgpOrgIds), abi.encodePacked(keyListLength));\n        List.setPropByKeyUint(KEY, vendorList, _index, bytes(propNameVendorVendorEgpOrgIds), abi.encodePacked(keyListLength), 1+length);\n        List.setPropByKeyString(KEY, vendorList, _index, bytes(propNameVendorVendorEgpOrgIds), abi.encodePacked(length), _value);\n    }\n\n    function setVendorVersion(uint256 _index) public\n    onlyVendorManager \n    {\n        List.setPropUint16(KEY, vendorList, _index, propNameVendorVendorVersion, __VERSION__);\n    }\n\n    function setMergeRequestGid1(uint256 _index, string memory _gid1) public \n    onlyVendorManager \n    validMergeListIndex(_index) {\n        List.setPropString(KEY, mergeRequestList, _index, propKeyMergeGid1, _gid1);\n    }\n\n    function setMergeRequestGid2(uint256 _index, string memory _gid2) public \n    onlyVendorManager \n    validMergeListIndex(_index) {\n        List.setPropString(KEY, mergeRequestList, _index, propKeyMergeGid2, _gid2);\n    }\n\n    function setMergeRequestState(uint256 _index, MergeRequestState _value) public \n    onlyVendorManager \n    validMergeListIndex(_index) {\n        List.setPropUint(KEY, mergeRequestList, _index, propKeyMergeState, uint8(_value));\n    }\n\n    function setMergeRequestVersion(uint256 _index) public \n    onlyVendorManager \n    validMergeListIndex(_index) {\n        List.setPropUint16(KEY, mergeRequestList, _index, propKeyMergeVersion, __VERSION__);\n    }\n\n    function setGidGid(uint256 _index, string memory _gid) public \n    onlyVendorManager  \n    {\n        List.setPropString(KEY, gidList, _index, propKeyGidGid, _gid);\n    }\n\n    function setGidParentGid(uint256 _index, string memory _parentGid) public \n    onlyVendorManager  \n    {\n        List.setPropString(KEY, gidList, _index, propKeyGidParentGid, _parentGid);\n    }\n\n    function addGidChildrenGids(uint256 _index, string memory _gid) public \n    onlyVendorManager  \n    {\n        uint length = List.getPropByKeyUint(KEY, gidList, _index, bytes(propKeyGidChildrenGids), abi.encodePacked(keyListLength));\n        List.setPropByKeyUint(KEY, gidList, _index, bytes(propKeyGidChildrenGids), abi.encodePacked(keyListLength), 1+length);\n        List.setPropByKeyString(KEY, gidList, _index, bytes(propKeyGidChildrenGids), abi.encodePacked(length), _gid);\n    }\n\n    function addGidAssociateGid(uint256 _index, string memory _gid) public \n    onlyVendorManager  \n    {\n        uint length = List.getPropByKeyUint(KEY, gidList, _index, bytes(propKeyGidAssociateGids), abi.encodePacked(keyListLength));\n        List.setPropByKeyUint(KEY, gidList, _index, bytes(propKeyGidAssociateGids), abi.encodePacked(keyListLength), 1+length);\n        List.setPropByKeyString(KEY, gidList, _index, bytes(propKeyGidAssociateGids), abi.encodePacked(length), _gid);\n    }\n\n    function setGidActive(uint256 _index, bool _value) public \n    onlyVendorManager  \n    {\n        List.setPropBool(KEY, gidList, _index, propKeyGidActive, _value);\n    }\n\n    function setGidVersion(uint256 _index) public \n    onlyVendorManager  \n    {\n        List.setPropUint16(KEY, gidList, _index, propKeyGidVersion, __VERSION__);\n    }\n\n    function setSeedRequestGid(uint256 _index, string memory _gid) public \n    onlyVendorManager \n    validSeedListIndex(_index) {\n        List.setPropString(KEY, seedRequestList, _index, propKeySeedGid, _gid);\n    }\n\n    function setSeedRequestVendorEgpId(uint256 _index, string memory _value) public  \n    onlyVendorManager \n    validSeedListIndex(_index) {\n        List.setPropString(KEY, seedRequestList, _index, propKeySeedVendorEgpId, _value);\n    }\n\n    function setSeedRequestVendorEgpOrgId(uint256 _index, string memory _value) public  \n    onlyVendorManager \n    validSeedListIndex(_index) {\n        List.setPropString(KEY, seedRequestList, _index, propKeySeedVendorEgpOrgId, _value);\n    }\n\n    function setSeedRequestState(uint256 _index, SeedRequestState _value) public  \n    onlyVendorManager \n    validSeedListIndex(_index) {\n        List.setPropUint8(KEY, seedRequestList, _index, propKeySeedState, uint8(_value));\n    }\n\n    function setSeedRequestVersion(uint256 _index) public  \n    onlyVendorManager \n    validSeedListIndex(_index) {\n        List.setPropUint16(KEY, seedRequestList, _index, propKeySeedVersion, __VERSION__);\n    }\n\n    \n}",
  "sourcePath": "/home/raghupathi/Desktop/javaClass/javaClass/contracts/VendorModel.sol",
  "compiler": {
    "name": "solc",
    "version": "0.8.20+commit.a1b79de6.Emscripten.clang"
  },
  "schemaVersion": "3.4.14",
  "updatedAt": "2023-06-02T09:43:22.682Z",
  "devdoc": {
    "kind": "dev",
    "methods": {},
    "version": 1
  },
  "userdoc": {
    "kind": "user",
    "methods": {},
    "version": 1
  }
}