{
  "contractName": "VendorManager",
  "abi": [
    {
      "inputs": [
        {
          "internalType": "address",
          "name": "_permIntf",
          "type": "address"
        },
        {
          "internalType": "address",
          "name": "_permImpl",
          "type": "address"
        },
        {
          "internalType": "address",
          "name": "_accountManager",
          "type": "address"
        },
        {
          "internalType": "address",
          "name": "_vendorModel",
          "type": "address"
        },
        {
          "internalType": "address",
          "name": "_uidUtils",
          "type": "address"
        }
      ],
      "stateMutability": "nonpayable",
      "type": "constructor"
    },
    {
      "anonymous": false,
      "inputs": [
        {
          "indexed": false,
          "internalType": "string",
          "name": "_gid1",
          "type": "string"
        },
        {
          "indexed": false,
          "internalType": "string",
          "name": "_gid2",
          "type": "string"
        }
      ],
      "name": "MergeRequestApproved",
      "type": "event"
    },
    {
      "anonymous": false,
      "inputs": [
        {
          "indexed": false,
          "internalType": "string",
          "name": "_gid1",
          "type": "string"
        },
        {
          "indexed": false,
          "internalType": "string",
          "name": "_gid2",
          "type": "string"
        }
      ],
      "name": "MergeRequestExpired",
      "type": "event"
    },
    {
      "anonymous": false,
      "inputs": [
        {
          "indexed": false,
          "internalType": "string",
          "name": "_gid1",
          "type": "string"
        },
        {
          "indexed": false,
          "internalType": "string",
          "name": "_gid2",
          "type": "string"
        }
      ],
      "name": "MergeRequestInitiated",
      "type": "event"
    },
    {
      "anonymous": false,
      "inputs": [
        {
          "indexed": false,
          "internalType": "string",
          "name": "_gid1",
          "type": "string"
        },
        {
          "indexed": false,
          "internalType": "string",
          "name": "_gid2",
          "type": "string"
        }
      ],
      "name": "MergeRequestRejected",
      "type": "event"
    },
    {
      "anonymous": false,
      "inputs": [
        {
          "indexed": false,
          "internalType": "string",
          "name": "_gid1",
          "type": "string"
        },
        {
          "indexed": false,
          "internalType": "string",
          "name": "_gid2",
          "type": "string"
        }
      ],
      "name": "MergeRequestSubmitted",
      "type": "event"
    },
    {
      "anonymous": false,
      "inputs": [
        {
          "indexed": false,
          "internalType": "string",
          "name": "_gid",
          "type": "string"
        },
        {
          "indexed": false,
          "internalType": "string",
          "name": "_egpExternalId",
          "type": "string"
        },
        {
          "indexed": false,
          "internalType": "string",
          "name": "_egpSystemId",
          "type": "string"
        }
      ],
      "name": "SeedRequestApproved",
      "type": "event"
    },
    {
      "anonymous": false,
      "inputs": [
        {
          "indexed": false,
          "internalType": "string",
          "name": "_gid",
          "type": "string"
        },
        {
          "indexed": false,
          "internalType": "string",
          "name": "_egpExternalId",
          "type": "string"
        },
        {
          "indexed": false,
          "internalType": "string",
          "name": "_egpSystemId",
          "type": "string"
        }
      ],
      "name": "SeedRequestExpired",
      "type": "event"
    },
    {
      "anonymous": false,
      "inputs": [
        {
          "indexed": false,
          "internalType": "string",
          "name": "_gid",
          "type": "string"
        },
        {
          "indexed": false,
          "internalType": "string",
          "name": "_egpExternalId",
          "type": "string"
        },
        {
          "indexed": false,
          "internalType": "string",
          "name": "_egpSystemId",
          "type": "string"
        }
      ],
      "name": "SeedRequestRejected",
      "type": "event"
    },
    {
      "anonymous": false,
      "inputs": [
        {
          "indexed": false,
          "internalType": "string",
          "name": "_gid",
          "type": "string"
        },
        {
          "indexed": false,
          "internalType": "string",
          "name": "_egpExternalId",
          "type": "string"
        },
        {
          "indexed": false,
          "internalType": "string",
          "name": "_egpSystemId",
          "type": "string"
        }
      ],
      "name": "SeedRequestSubmitted",
      "type": "event"
    },
    {
      "anonymous": false,
      "inputs": [
        {
          "indexed": false,
          "internalType": "string",
          "name": "_vendorGid",
          "type": "string"
        },
        {
          "indexed": false,
          "internalType": "string",
          "name": "_vendorSystemName",
          "type": "string"
        },
        {
          "indexed": false,
          "internalType": "string",
          "name": "_vendorExternalName",
          "type": "string"
        },
        {
          "indexed": false,
          "internalType": "string",
          "name": "_egpExternalId",
          "type": "string"
        },
        {
          "indexed": false,
          "internalType": "string",
          "name": "_egpSystemId",
          "type": "string"
        }
      ],
      "name": "VendorRegistered",
      "type": "event"
    },
    {
      "inputs": [
        {
          "internalType": "string",
          "name": "_vendorName",
          "type": "string"
        },
        {
          "internalType": "string",
          "name": "_externalId",
          "type": "string"
        },
        {
          "internalType": "string",
          "name": "_orgId",
          "type": "string"
        },
        {
          "internalType": "string",
          "name": "_accountName",
          "type": "string"
        }
      ],
      "name": "registerVendor",
      "outputs": [],
      "stateMutability": "nonpayable",
      "type": "function"
    },
    {
      "inputs": [
        {
          "internalType": "uint256",
          "name": "_toExcluded",
          "type": "uint256"
        },
        {
          "internalType": "uint256",
          "name": "_count",
          "type": "uint256"
        }
      ],
      "name": "getAllVendors",
      "outputs": [
        {
          "components": [
            {
              "internalType": "string",
              "name": "gid",
              "type": "string"
            },
            {
              "internalType": "string",
              "name": "accountName",
              "type": "string"
            },
            {
              "internalType": "string",
              "name": "vendorEgpName",
              "type": "string"
            },
            {
              "internalType": "string[]",
              "name": "vendorEgpId",
              "type": "string[]"
            },
            {
              "internalType": "string[]",
              "name": "vendorEgpOrgId",
              "type": "string[]"
            },
            {
              "internalType": "uint16",
              "name": "version",
              "type": "uint16"
            }
          ],
          "internalType": "struct VendorStructs.Vendor[]",
          "name": "_vendor",
          "type": "tuple[]"
        },
        {
          "internalType": "uint256",
          "name": "fromIncluded_",
          "type": "uint256"
        },
        {
          "internalType": "uint256",
          "name": "length_",
          "type": "uint256"
        }
      ],
      "stateMutability": "view",
      "type": "function"
    },
    {
      "inputs": [
        {
          "internalType": "string",
          "name": "_gid",
          "type": "string"
        }
      ],
      "name": "getVendorByGid",
      "outputs": [
        {
          "components": [
            {
              "internalType": "string",
              "name": "gid",
              "type": "string"
            },
            {
              "internalType": "string",
              "name": "accountName",
              "type": "string"
            },
            {
              "internalType": "string",
              "name": "vendorEgpName",
              "type": "string"
            },
            {
              "internalType": "string[]",
              "name": "vendorEgpId",
              "type": "string[]"
            },
            {
              "internalType": "string[]",
              "name": "vendorEgpOrgId",
              "type": "string[]"
            },
            {
              "internalType": "uint16",
              "name": "version",
              "type": "uint16"
            }
          ],
          "internalType": "struct VendorStructs.Vendor",
          "name": "",
          "type": "tuple"
        }
      ],
      "stateMutability": "view",
      "type": "function"
    },
    {
      "inputs": [
        {
          "internalType": "string",
          "name": "_accountName",
          "type": "string"
        }
      ],
      "name": "getGidForVendor",
      "outputs": [
        {
          "internalType": "string",
          "name": "",
          "type": "string"
        }
      ],
      "stateMutability": "view",
      "type": "function"
    },
    {
      "inputs": [
        {
          "internalType": "string",
          "name": "_gid1",
          "type": "string"
        },
        {
          "internalType": "string",
          "name": "_gid2",
          "type": "string"
        }
      ],
      "name": "initiateGidMerge",
      "outputs": [],
      "stateMutability": "nonpayable",
      "type": "function"
    },
    {
      "inputs": [
        {
          "internalType": "string",
          "name": "_gid1",
          "type": "string"
        },
        {
          "internalType": "string",
          "name": "_gid2",
          "type": "string"
        },
        {
          "internalType": "bool",
          "name": "_approval",
          "type": "bool"
        }
      ],
      "name": "submitGidMerge",
      "outputs": [],
      "stateMutability": "nonpayable",
      "type": "function"
    },
    {
      "inputs": [
        {
          "internalType": "string",
          "name": "_gid1",
          "type": "string"
        },
        {
          "internalType": "string",
          "name": "_gid2",
          "type": "string"
        },
        {
          "internalType": "bool",
          "name": "_approval",
          "type": "bool"
        }
      ],
      "name": "approveGidMerge",
      "outputs": [],
      "stateMutability": "nonpayable",
      "type": "function"
    },
    {
      "inputs": [
        {
          "internalType": "string",
          "name": "_gid1",
          "type": "string"
        },
        {
          "internalType": "string",
          "name": "_gid2",
          "type": "string"
        }
      ],
      "name": "expireGidMerge",
      "outputs": [],
      "stateMutability": "nonpayable",
      "type": "function"
    },
    {
      "inputs": [
        {
          "internalType": "uint256",
          "name": "_toExcluded",
          "type": "uint256"
        },
        {
          "internalType": "uint256",
          "name": "_count",
          "type": "uint256"
        }
      ],
      "name": "getAllMergeRequests",
      "outputs": [
        {
          "components": [
            {
              "internalType": "string",
              "name": "gid1",
              "type": "string"
            },
            {
              "internalType": "string",
              "name": "gid2",
              "type": "string"
            },
            {
              "internalType": "enum VendorStructs.MergeRequestState",
              "name": "state",
              "type": "uint8"
            },
            {
              "internalType": "uint16",
              "name": "version",
              "type": "uint16"
            }
          ],
          "internalType": "struct VendorStructs.MergeRequest[]",
          "name": "",
          "type": "tuple[]"
        },
        {
          "internalType": "uint256",
          "name": "fromIncluded_",
          "type": "uint256"
        },
        {
          "internalType": "uint256",
          "name": "length_",
          "type": "uint256"
        }
      ],
      "stateMutability": "view",
      "type": "function"
    },
    {
      "inputs": [
        {
          "internalType": "uint256",
          "name": "_toExcluded",
          "type": "uint256"
        },
        {
          "internalType": "uint256",
          "name": "_count",
          "type": "uint256"
        }
      ],
      "name": "getActiveMergeRequests",
      "outputs": [
        {
          "components": [
            {
              "internalType": "string",
              "name": "gid1",
              "type": "string"
            },
            {
              "internalType": "string",
              "name": "gid2",
              "type": "string"
            },
            {
              "internalType": "enum VendorStructs.MergeRequestState",
              "name": "state",
              "type": "uint8"
            },
            {
              "internalType": "uint16",
              "name": "version",
              "type": "uint16"
            }
          ],
          "internalType": "struct VendorStructs.MergeRequest[]",
          "name": "activeMergeRequests_",
          "type": "tuple[]"
        },
        {
          "internalType": "uint256",
          "name": "fromIncluded_",
          "type": "uint256"
        }
      ],
      "stateMutability": "view",
      "type": "function"
    },
    {
      "inputs": [
        {
          "internalType": "string",
          "name": "_gid",
          "type": "string"
        },
        {
          "internalType": "string",
          "name": "_vendorEgpId",
          "type": "string"
        },
        {
          "internalType": "string",
          "name": "_vendorEgpOrgId",
          "type": "string"
        }
      ],
      "name": "submitGidSeedRequest",
      "outputs": [],
      "stateMutability": "nonpayable",
      "type": "function"
    },
    {
      "inputs": [
        {
          "internalType": "string",
          "name": "_gid",
          "type": "string"
        },
        {
          "internalType": "string",
          "name": "_vendorEgpId",
          "type": "string"
        },
        {
          "internalType": "string",
          "name": "_vendorEgpOrgId",
          "type": "string"
        },
        {
          "internalType": "bool",
          "name": "approval",
          "type": "bool"
        }
      ],
      "name": "approveGidSeedRequest",
      "outputs": [],
      "stateMutability": "nonpayable",
      "type": "function"
    },
    {
      "inputs": [
        {
          "internalType": "string",
          "name": "_gid",
          "type": "string"
        },
        {
          "internalType": "string",
          "name": "_vendorEgpId",
          "type": "string"
        },
        {
          "internalType": "string",
          "name": "_vendorEgpOrgId",
          "type": "string"
        }
      ],
      "name": "expireGidSeedRequest",
      "outputs": [],
      "stateMutability": "nonpayable",
      "type": "function"
    },
    {
      "inputs": [
        {
          "internalType": "uint256",
          "name": "_toExcluded",
          "type": "uint256"
        },
        {
          "internalType": "uint256",
          "name": "_count",
          "type": "uint256"
        }
      ],
      "name": "getAllSeedRequests",
      "outputs": [
        {
          "components": [
            {
              "internalType": "string",
              "name": "gid",
              "type": "string"
            },
            {
              "internalType": "string",
              "name": "vendorEgpId",
              "type": "string"
            },
            {
              "internalType": "string",
              "name": "vendorEgpOrgId",
              "type": "string"
            },
            {
              "internalType": "enum VendorStructs.SeedRequestState",
              "name": "state",
              "type": "uint8"
            },
            {
              "internalType": "uint16",
              "name": "version",
              "type": "uint16"
            }
          ],
          "internalType": "struct VendorStructs.GidSeedRequest[]",
          "name": "",
          "type": "tuple[]"
        },
        {
          "internalType": "uint256",
          "name": "fromIncluded_",
          "type": "uint256"
        },
        {
          "internalType": "uint256",
          "name": "length_",
          "type": "uint256"
        }
      ],
      "stateMutability": "view",
      "type": "function"
    },
    {
      "inputs": [
        {
          "internalType": "uint256",
          "name": "_toExcluded",
          "type": "uint256"
        },
        {
          "internalType": "uint256",
          "name": "_count",
          "type": "uint256"
        }
      ],
      "name": "getActiveSeedRequests",
      "outputs": [
        {
          "components": [
            {
              "internalType": "string",
              "name": "gid",
              "type": "string"
            },
            {
              "internalType": "string",
              "name": "vendorEgpId",
              "type": "string"
            },
            {
              "internalType": "string",
              "name": "vendorEgpOrgId",
              "type": "string"
            },
            {
              "internalType": "enum VendorStructs.SeedRequestState",
              "name": "state",
              "type": "uint8"
            },
            {
              "internalType": "uint16",
              "name": "version",
              "type": "uint16"
            }
          ],
          "internalType": "struct VendorStructs.GidSeedRequest[]",
          "name": "activeSeedRequests_",
          "type": "tuple[]"
        },
        {
          "internalType": "uint256",
          "name": "fromIncluded_",
          "type": "uint256"
        }
      ],
      "stateMutability": "view",
      "type": "function"
    },
    {
      "inputs": [
        {
          "internalType": "string",
          "name": "_gid",
          "type": "string"
        },
        {
          "internalType": "uint256",
          "name": "_toExcluded",
          "type": "uint256"
        },
        {
          "internalType": "uint256",
          "name": "_count",
          "type": "uint256"
        }
      ],
      "name": "getSeedRequestsForVendor",
      "outputs": [
        {
          "components": [
            {
              "internalType": "string",
              "name": "gid",
              "type": "string"
            },
            {
              "internalType": "string",
              "name": "vendorEgpId",
              "type": "string"
            },
            {
              "internalType": "string",
              "name": "vendorEgpOrgId",
              "type": "string"
            },
            {
              "internalType": "enum VendorStructs.SeedRequestState",
              "name": "state",
              "type": "uint8"
            },
            {
              "internalType": "uint16",
              "name": "version",
              "type": "uint16"
            }
          ],
          "internalType": "struct VendorStructs.GidSeedRequest[]",
          "name": "vendorSeedRequests_",
          "type": "tuple[]"
        },
        {
          "internalType": "uint256",
          "name": "fromIncluded_",
          "type": "uint256"
        }
      ],
      "stateMutability": "view",
      "type": "function"
    },
    {
      "inputs": [
        {
          "internalType": "string",
          "name": "_gid",
          "type": "string"
        }
      ],
      "name": "getUltimateParentGID",
      "outputs": [
        {
          "internalType": "string",
          "name": "",
          "type": "string"
        }
      ],
      "stateMutability": "view",
      "type": "function"
    },
    {
      "inputs": [
        {
          "internalType": "string",
          "name": "_gid",
          "type": "string"
        }
      ],
      "name": "getParentGID",
      "outputs": [
        {
          "internalType": "string",
          "name": "",
          "type": "string"
        }
      ],
      "stateMutability": "view",
      "type": "function"
    },
    {
      "inputs": [
        {
          "internalType": "string",
          "name": "_gid",
          "type": "string"
        }
      ],
      "name": "getAllChildrenGIDs",
      "outputs": [
        {
          "internalType": "string[]",
          "name": "",
          "type": "string[]"
        }
      ],
      "stateMutability": "view",
      "type": "function"
    },
    {
      "inputs": [
        {
          "internalType": "string",
          "name": "_gid",
          "type": "string"
        }
      ],
      "name": "getChildrenGIDs",
      "outputs": [
        {
          "internalType": "string[]",
          "name": "",
          "type": "string[]"
        }
      ],
      "stateMutability": "view",
      "type": "function"
    },
    {
      "inputs": [
        {
          "internalType": "string",
          "name": "_gid",
          "type": "string"
        }
      ],
      "name": "isGidExists",
      "outputs": [
        {
          "internalType": "bool",
          "name": "",
          "type": "bool"
        }
      ],
      "stateMutability": "view",
      "type": "function"
    },
    {
      "inputs": [
        {
          "internalType": "string",
          "name": "_gid",
          "type": "string"
        }
      ],
      "name": "isGidActive",
      "outputs": [
        {
          "internalType": "bool",
          "name": "",
          "type": "bool"
        }
      ],
      "stateMutability": "view",
      "type": "function"
    },
    {
      "inputs": [],
      "name": "getActiveVendorListLength",
      "outputs": [
        {
          "internalType": "uint256",
          "name": "",
          "type": "uint256"
        }
      ],
      "stateMutability": "view",
      "type": "function"
    },
    {
      "inputs": [],
      "name": "getMergeApprovedListLength",
      "outputs": [
        {
          "internalType": "uint256",
          "name": "",
          "type": "uint256"
        }
      ],
      "stateMutability": "view",
      "type": "function"
    },
    {
      "inputs": [],
      "name": "getSeedApprovedListLength",
      "outputs": [
        {
          "internalType": "uint256",
          "name": "",
          "type": "uint256"
        }
      ],
      "stateMutability": "view",
      "type": "function"
    },
    {
      "inputs": [],
      "name": "getTotalVendorListLength",
      "outputs": [
        {
          "internalType": "uint256",
          "name": "",
          "type": "uint256"
        }
      ],
      "stateMutability": "view",
      "type": "function"
    }
  ],
  "bytecode": "0x608060405234801562000010575f80fd5b506040516200a2743803806200a2748339818101604052810190620000369190620001e5565b845f806101000a81548173ffffffffffffffffffffffffffffffffffffffff021916908373ffffffffffffffffffffffffffffffffffffffff1602179055508360015f6101000a81548173ffffffffffffffffffffffffffffffffffffffff021916908373ffffffffffffffffffffffffffffffffffffffff1602179055508260025f6101000a81548173ffffffffffffffffffffffffffffffffffffffff021916908373ffffffffffffffffffffffffffffffffffffffff1602179055508160035f6101000a81548173ffffffffffffffffffffffffffffffffffffffff021916908373ffffffffffffffffffffffffffffffffffffffff1602179055508060045f6101000a81548173ffffffffffffffffffffffffffffffffffffffff021916908373ffffffffffffffffffffffffffffffffffffffff160217905550505050505062000269565b5f80fd5b5f73ffffffffffffffffffffffffffffffffffffffff82169050919050565b5f620001af8262000184565b9050919050565b620001c181620001a3565b8114620001cc575f80fd5b50565b5f81519050620001df81620001b6565b92915050565b5f805f805f60a0868803121562000201576200020062000180565b5b5f6200021088828901620001cf565b95505060206200022388828901620001cf565b94505060406200023688828901620001cf565b93505060606200024988828901620001cf565b92505060806200025c88828901620001cf565b9150509295509295909350565b619ffd80620002775f395ff3fe608060405234801561000f575f80fd5b506004361061018c575f3560e01c80638f31dbef116100dc578063dab66a1a11610095578063e6f6777e1161006f578063e6f6777e146104d0578063ed11b3e114610501578063efaa5a1a14610531578063ff890454146105615761018c565b8063dab66a1a14610452578063de4ce4d914610482578063e07f5a261461049e5761018c565b80638f31dbef1461036557806396cd0a6214610396578063aa2cdfb6146103c8578063b8af711d146103e6578063c2bb0c1114610404578063ce320471146104225761018c565b806340f311e4116101495780635602b764116101235780635602b764146102cb5780636d3b36b8146102e757806374dfd9de1461030357806388f5f344146103355761018c565b806340f311e41461027757806342b7408e146102935780634da4de94146102af5761018c565b80631bae5a53146101905780631d471e63146101ac578063244b5b72146101dc5780632c422d2e146101fa57806333a8889a146102165780633d62d6c514610247575b5f80fd5b6101aa60048036038101906101a5919061788d565b610591565b005b6101c660048036038101906101c19190617931565b61105a565b6040516101d391906179f2565b60405180910390f35b6101e461106c565b6040516101f19190617a2a565b60405180910390f35b610214600480360381019061020f9190617a78565b611100565b005b610230600480360381019061022b9190617b5a565b6119af565b60405161023e929190617dd9565b60405180910390f35b610261600480360381019061025c9190617931565b611d49565b60405161026e9190617ec2565b60405180910390f35b610291600480360381019061028c9190617ee2565b611e37565b005b6102ad60048036038101906102a8919061788d565b6127d7565b005b6102c960048036038101906102c49190617ee2565b612c62565b005b6102e560048036038101906102e09190617f6a565b6131c0565b005b61030160048036038101906102fc9190617fe0565b613eea565b005b61031d600480360381019061031891906180b4565b614a1a565b60405161032c939291906182d2565b60405180910390f35b61034f600480360381019061034a9190617931565b614acf565b60405161035c919061831d565b60405180910390f35b61037f600480360381019061037a91906180b4565b614b72565b60405161038d929190617dd9565b60405180910390f35b6103b060048036038101906103ab91906180b4565b614ee0565b6040516103bf9392919061849e565b60405180910390f35b6103d0614f8f565b6040516103dd9190617a2a565b60405180910390f35b6103ee615023565b6040516103fb9190617a2a565b60405180910390f35b61040c6150b7565b6040516104199190617a2a565b60405180910390f35b61043c60048036038101906104379190617931565b615280565b604051610449919061831d565b60405180910390f35b61046c60048036038101906104679190617931565b615403565b60405161047991906179f2565b60405180910390f35b61049c60048036038101906104979190617f6a565b6154b0565b005b6104b860048036038101906104b391906180b4565b615966565b6040516104c7939291906184da565b60405180910390f35b6104ea60048036038101906104e591906180b4565b615a15565b6040516104f8929190618516565b60405180910390f35b61051b60048036038101906105169190617931565b615db8565b60405161052891906185e6565b60405180910390f35b61054b60048036038101906105469190617931565b616026565b60405161055891906179f2565b60405180910390f35b61057b60048036038101906105769190617931565b6160cb565b6040516105889190617ec2565b60405180910390f35b825f60035f9054906101000a900473ffffffffffffffffffffffffffffffffffffffff1673ffffffffffffffffffffffffffffffffffffffff16635a711810836040518263ffffffff1660e01b81526004016105ed91906179f2565b602060405180830381865afa158015610608573d5f803e3d5ffd5b505050506040513d601f19601f8201168201806040525081019061062c919061861a565b1161066c576040517f08c379a00000000000000000000000000000000000000000000000000000000081526004016106639061868f565b60405180910390fd5b60035f9054906101000a900473ffffffffffffffffffffffffffffffffffffffff1673ffffffffffffffffffffffffffffffffffffffff16636de2f9b76106b283616178565b6040518263ffffffff1660e01b81526004016106ce9190617a2a565b602060405180830381865afa1580156106e9573d5f803e3d5ffd5b505050506040513d601f19601f8201168201806040525081019061070d91906186c1565b61074c576040517f08c379a000000000000000000000000000000000000000000000000000000000815260040161074390618736565b60405180910390fd5b835f8060025f9054906101000a900473ffffffffffffffffffffffffffffffffffffffff1673ffffffffffffffffffffffffffffffffffffffff1660035f9054906101000a900473ffffffffffffffffffffffffffffffffffffffff1673ffffffffffffffffffffffffffffffffffffffff1663aa663c6e6107cd86616225565b6040518263ffffffff1660e01b81526004016107e99190617a2a565b5f60405180830381865afa158015610803573d5f803e3d5ffd5b505050506040513d5f823e3d601f19601f8201168201806040525081019061082b91906187c2565b60405160240161083b91906179f2565b6040516020818303038152906040527f615deb16000000000000000000000000000000000000000000000000000000007bffffffffffffffffffffffffffffffffffffffffffffffffffffffff19166020820180517bffffffffffffffffffffffffffffffffffffffffffffffffffffffff83818316178352505050506040516108c5919061884d565b5f604051808303815f865af19150503d805f81146108fe576040519150601f19603f3d011682016040523d82523d5f602084013e610903565b606091505b50915091508080602001905181019061091c91906188bd565b73ffffffffffffffffffffffffffffffffffffffff163373ffffffffffffffffffffffffffffffffffffffff1614610989576040517f08c379a000000000000000000000000000000000000000000000000000000000815260040161098090618932565b60405180910390fd5b8686865f8383836040516020016109a29392919061898a565b6040516020818303038152906040528051906020012090505f60035f9054906101000a900473ffffffffffffffffffffffffffffffffffffffff1673ffffffffffffffffffffffffffffffffffffffff1663afc869aa836040518263ffffffff1660e01b8152600401610a1591906189f4565b602060405180830381865afa158015610a30573d5f803e3d5ffd5b505050506040513d601f19601f82011682018060405250810190610a54919061861a565b1115610b95575f60035f9054906101000a900473ffffffffffffffffffffffffffffffffffffffff1673ffffffffffffffffffffffffffffffffffffffff1663ab62526a610aa1846162d2565b6040518263ffffffff1660e01b8152600401610abd9190617a2a565b602060405180830381865afa158015610ad8573d5f803e3d5ffd5b505050506040513d601f19601f82011682018060405250810190610afc9190618a30565b905060026003811115610b1257610b11617c37565b5b816003811115610b2557610b24617c37565b5b1480610b545750600380811115610b3f57610b3e617c37565b5b816003811115610b5257610b51617c37565b5b145b610b93576040517f08c379a0000000000000000000000000000000000000000000000000000000008152600401610b8a90618aa5565b60405180910390fd5b505b5f8b8b8b604051602001610bab9392919061898a565b6040516020818303038152906040528051906020012090505f60035f9054906101000a900473ffffffffffffffffffffffffffffffffffffffff1673ffffffffffffffffffffffffffffffffffffffff1663fcf95a576040518163ffffffff1660e01b8152600401602060405180830381865afa158015610c2e573d5f803e3d5ffd5b505050506040513d601f19601f82011682018060405250810190610c52919061861a565b905060035f9054906101000a900473ffffffffffffffffffffffffffffffffffffffff1673ffffffffffffffffffffffffffffffffffffffff16638fa1a8c16040518163ffffffff1660e01b81526004015f604051808303815f87803b158015610cba575f80fd5b505af1158015610ccc573d5f803e3d5ffd5b5050505060035f9054906101000a900473ffffffffffffffffffffffffffffffffffffffff1673ffffffffffffffffffffffffffffffffffffffff1663be1917e483836001610d1b9190618af0565b6040518363ffffffff1660e01b8152600401610d38929190618b23565b5f604051808303815f87803b158015610d4f575f80fd5b505af1158015610d61573d5f803e3d5ffd5b5050505060035f9054906101000a900473ffffffffffffffffffffffffffffffffffffffff1673ffffffffffffffffffffffffffffffffffffffff1663b1740258828f6040518363ffffffff1660e01b8152600401610dc1929190618b4a565b5f604051808303815f87803b158015610dd8575f80fd5b505af1158015610dea573d5f803e3d5ffd5b5050505060035f9054906101000a900473ffffffffffffffffffffffffffffffffffffffff1673ffffffffffffffffffffffffffffffffffffffff1663d8aabe77828e6040518363ffffffff1660e01b8152600401610e4a929190618b4a565b5f604051808303815f87803b158015610e61575f80fd5b505af1158015610e73573d5f803e3d5ffd5b5050505060035f9054906101000a900473ffffffffffffffffffffffffffffffffffffffff1673ffffffffffffffffffffffffffffffffffffffff16638a1e2d01828d6040518363ffffffff1660e01b8152600401610ed3929190618b4a565b5f604051808303815f87803b158015610eea575f80fd5b505af1158015610efc573d5f803e3d5ffd5b5050505060035f9054906101000a900473ffffffffffffffffffffffffffffffffffffffff1673ffffffffffffffffffffffffffffffffffffffff1663ff687f4b825f6040518363ffffffff1660e01b8152600401610f5c929190618b87565b5f604051808303815f87803b158015610f73575f80fd5b505af1158015610f85573d5f803e3d5ffd5b5050505060035f9054906101000a900473ffffffffffffffffffffffffffffffffffffffff1673ffffffffffffffffffffffffffffffffffffffff166339e71752826040518263ffffffff1660e01b8152600401610fe39190617a2a565b5f604051808303815f87803b158015610ffa575f80fd5b505af115801561100c573d5f803e3d5ffd5b505050507f57f2ef3da4cb8d14333372af08be11a53b154a6a91c521e36f3e2780f80e5f488d8d8d60405161104393929190618bae565b60405180910390a150505050505050505050505050565b60606110658261637f565b9050919050565b5f60035f9054906101000a900473ffffffffffffffffffffffffffffffffffffffff1673ffffffffffffffffffffffffffffffffffffffff1663bc192acc6040518163ffffffff1660e01b8152600401602060405180830381865afa1580156110d7573d5f803e3d5ffd5b505050506040513d601f19601f820116820180604052508101906110fb919061861a565b905090565b5f805f8054906101000a900473ffffffffffffffffffffffffffffffffffffffff1673ffffffffffffffffffffffffffffffffffffffff16336040516024016111499190618c18565b6040516020818303038152906040527fd1aa0c20000000000000000000000000000000000000000000000000000000007bffffffffffffffffffffffffffffffffffffffffffffffffffffffff19166020820180517bffffffffffffffffffffffffffffffffffffffffffffffffffffffff83818316178352505050506040516111d3919061884d565b5f604051808303815f865af19150503d805f811461120c576040519150601f19603f3d011682016040523d82523d5f602084013e611211565b606091505b50915091508080602001905181019061122a91906186c1565b611269576040517f08c379a000000000000000000000000000000000000000000000000000000000815260040161126090618ca1565b60405180910390fd5b855f60035f9054906101000a900473ffffffffffffffffffffffffffffffffffffffff1673ffffffffffffffffffffffffffffffffffffffff16635a711810836040518263ffffffff1660e01b81526004016112c591906179f2565b602060405180830381865afa1580156112e0573d5f803e3d5ffd5b505050506040513d601f19601f82011682018060405250810190611304919061861a565b11611344576040517f08c379a000000000000000000000000000000000000000000000000000000000815260040161133b9061868f565b60405180910390fd5b60035f9054906101000a900473ffffffffffffffffffffffffffffffffffffffff1673ffffffffffffffffffffffffffffffffffffffff16636de2f9b761138a83616178565b6040518263ffffffff1660e01b81526004016113a69190617a2a565b602060405180830381865afa1580156113c1573d5f803e3d5ffd5b505050506040513d601f19601f820116820180604052508101906113e591906186c1565b611424576040517f08c379a000000000000000000000000000000000000000000000000000000000815260040161141b90618736565b60405180910390fd5b8686865f83838360405160200161143d9392919061898a565b6040516020818303038152906040528051906020012090505f60035f9054906101000a900473ffffffffffffffffffffffffffffffffffffffff1673ffffffffffffffffffffffffffffffffffffffff1663afc869aa836040518263ffffffff1660e01b81526004016114b091906189f4565b602060405180830381865afa1580156114cb573d5f803e3d5ffd5b505050506040513d601f19601f820116820180604052508101906114ef919061861a565b1161152f576040517f08c379a000000000000000000000000000000000000000000000000000000000815260040161152690618d09565b60405180910390fd5b5f611539826162d2565b90505f600381111561154e5761154d617c37565b5b60035f9054906101000a900473ffffffffffffffffffffffffffffffffffffffff1673ffffffffffffffffffffffffffffffffffffffff1663ab62526a836040518263ffffffff1660e01b81526004016115a89190617a2a565b602060405180830381865afa1580156115c3573d5f803e3d5ffd5b505050506040513d601f19601f820116820180604052508101906115e79190618a30565b60038111156115f9576115f8617c37565b5b14611639576040517f08c379a000000000000000000000000000000000000000000000000000000000815260040161163090618d71565b60405180910390fd5b5f61166d8d8d8d6040516020016116529392919061898a565b604051602081830303815290604052805190602001206162d2565b90508961173f5760035f9054906101000a900473ffffffffffffffffffffffffffffffffffffffff1673ffffffffffffffffffffffffffffffffffffffff1663ff687f4b8260026040518363ffffffff1660e01b81526004016116d1929190618b87565b5f604051808303815f87803b1580156116e8575f80fd5b505af11580156116fa573d5f803e3d5ffd5b505050507f08300bf077c22e81a458180839817152f89d8e97930dc76445ff291f75e869e48d8d8d60405161173193929190618bae565b60405180910390a1506119a1565b5f6117498e616225565b905060035f9054906101000a900473ffffffffffffffffffffffffffffffffffffffff1673ffffffffffffffffffffffffffffffffffffffff16630ab02b6d828f6040518363ffffffff1660e01b81526004016117a7929190618b4a565b5f604051808303815f87803b1580156117be575f80fd5b505af11580156117d0573d5f803e3d5ffd5b5050505060035f9054906101000a900473ffffffffffffffffffffffffffffffffffffffff1673ffffffffffffffffffffffffffffffffffffffff16639897a051828e6040518363ffffffff1660e01b8152600401611830929190618b4a565b5f604051808303815f87803b158015611847575f80fd5b505af1158015611859573d5f803e3d5ffd5b5050505060035f9054906101000a900473ffffffffffffffffffffffffffffffffffffffff1673ffffffffffffffffffffffffffffffffffffffff1663ff687f4b8360016040518363ffffffff1660e01b81526004016118ba929190618b87565b5f604051808303815f87803b1580156118d1575f80fd5b505af11580156118e3573d5f803e3d5ffd5b5050505060035f9054906101000a900473ffffffffffffffffffffffffffffffffffffffff1673ffffffffffffffffffffffffffffffffffffffff16633c0eaa626040518163ffffffff1660e01b81526004015f604051808303815f87803b15801561194d575f80fd5b505af115801561195f573d5f803e3d5ffd5b505050507f989becddaccb30ffda3c3fe3e42db16d501ee22ebb019d726113c4618cac4ec38e8e8e60405161199693929190618bae565b60405180910390a150505b505050505050505050505050565b60605f8060035f9054906101000a900473ffffffffffffffffffffffffffffffffffffffff1673ffffffffffffffffffffffffffffffffffffffff1663fcf95a576040518163ffffffff1660e01b8152600401602060405180830381865afa158015611a1d573d5f803e3d5ffd5b505050506040513d601f19601f82011682018060405250810190611a41919061861a565b905080851115611a4f578094505b5f80868611611a5e5785611a60565b865b90505f8167ffffffffffffffff811115611a7d57611a7c617769565b5b604051908082528060200260200182016040528015611aab5781602001602082028036833780820191505090505b5090505b5f88118015611abd57508183105b15611bf2578780611acd90618d8f565b98505088604051602001611ae19190618db6565b6040516020818303038152906040528051906020012060035f9054906101000a900473ffffffffffffffffffffffffffffffffffffffff1673ffffffffffffffffffffffffffffffffffffffff166326d0f1138a6040518263ffffffff1660e01b8152600401611b519190617a2a565b5f60405180830381865afa158015611b6b573d5f803e3d5ffd5b505050506040513d5f823e3d601f19601f82011682018060405250810190611b9391906187c2565b604051602001611ba39190618db6565b6040516020818303038152906040528051906020012003611bed5787818481518110611bd257611bd1618dcc565b5b6020026020010181815250508280611be990618df9565b9350505b611aaf565b8794508267ffffffffffffffff811115611c0f57611c0e617769565b5b604051908082528060200260200182016040528015611c4857816020015b611c35617688565b815260200190600190039081611c2d5790505b5095505f5b83811015611d3c5760035f9054906101000a900473ffffffffffffffffffffffffffffffffffffffff1673ffffffffffffffffffffffffffffffffffffffff16635493326b838381518110611ca557611ca4618dcc565b5b60200260200101516040518263ffffffff1660e01b8152600401611cc99190617a2a565b5f60405180830381865afa158015611ce3573d5f803e3d5ffd5b505050506040513d5f823e3d601f19601f82011682018060405250810190611d0b9190618f4f565b878281518110611d1e57611d1d618dcc565b5b60200260200101819052508080611d3490618df9565b915050611c4d565b5050505050935093915050565b6060815f60035f9054906101000a900473ffffffffffffffffffffffffffffffffffffffff1673ffffffffffffffffffffffffffffffffffffffff16635a711810836040518263ffffffff1660e01b8152600401611da791906179f2565b602060405180830381865afa158015611dc2573d5f803e3d5ffd5b505050506040513d601f19601f82011682018060405250810190611de6919061861a565b11611e26576040517f08c379a0000000000000000000000000000000000000000000000000000000008152600401611e1d9061868f565b60405180910390fd5b611e2f836164e3565b915050919050565b825f60035f9054906101000a900473ffffffffffffffffffffffffffffffffffffffff1673ffffffffffffffffffffffffffffffffffffffff16635a711810836040518263ffffffff1660e01b8152600401611e9391906179f2565b602060405180830381865afa158015611eae573d5f803e3d5ffd5b505050506040513d601f19601f82011682018060405250810190611ed2919061861a565b11611f12576040517f08c379a0000000000000000000000000000000000000000000000000000000008152600401611f099061868f565b60405180910390fd5b60035f9054906101000a900473ffffffffffffffffffffffffffffffffffffffff1673ffffffffffffffffffffffffffffffffffffffff16636de2f9b7611f5883616178565b6040518263ffffffff1660e01b8152600401611f749190617a2a565b602060405180830381865afa158015611f8f573d5f803e3d5ffd5b505050506040513d601f19601f82011682018060405250810190611fb391906186c1565b611ff2576040517f08c379a0000000000000000000000000000000000000000000000000000000008152600401611fe990618736565b60405180910390fd5b825f60035f9054906101000a900473ffffffffffffffffffffffffffffffffffffffff1673ffffffffffffffffffffffffffffffffffffffff16635a711810836040518263ffffffff1660e01b815260040161204e91906179f2565b602060405180830381865afa158015612069573d5f803e3d5ffd5b505050506040513d601f19601f8201168201806040525081019061208d919061861a565b116120cd576040517f08c379a00000000000000000000000000000000000000000000000000000000081526004016120c49061868f565b60405180910390fd5b60035f9054906101000a900473ffffffffffffffffffffffffffffffffffffffff1673ffffffffffffffffffffffffffffffffffffffff16636de2f9b761211383616178565b6040518263ffffffff1660e01b815260040161212f9190617a2a565b602060405180830381865afa15801561214a573d5f803e3d5ffd5b505050506040513d601f19601f8201168201806040525081019061216e91906186c1565b6121ad576040517f08c379a00000000000000000000000000000000000000000000000000000000081526004016121a490618736565b60405180910390fd5b835f8060025f9054906101000a900473ffffffffffffffffffffffffffffffffffffffff1673ffffffffffffffffffffffffffffffffffffffff1660035f9054906101000a900473ffffffffffffffffffffffffffffffffffffffff1673ffffffffffffffffffffffffffffffffffffffff1663aa663c6e61222e86616225565b6040518263ffffffff1660e01b815260040161224a9190617a2a565b5f60405180830381865afa158015612264573d5f803e3d5ffd5b505050506040513d5f823e3d601f19601f8201168201806040525081019061228c91906187c2565b60405160240161229c91906179f2565b6040516020818303038152906040527f615deb16000000000000000000000000000000000000000000000000000000007bffffffffffffffffffffffffffffffffffffffffffffffffffffffff19166020820180517bffffffffffffffffffffffffffffffffffffffffffffffffffffffff8381831617835250505050604051612326919061884d565b5f604051808303815f865af19150503d805f811461235f576040519150601f19603f3d011682016040523d82523d5f602084013e612364565b606091505b50915091508080602001905181019061237d91906188bd565b73ffffffffffffffffffffffffffffffffffffffff163373ffffffffffffffffffffffffffffffffffffffff16146123ea576040517f08c379a00000000000000000000000000000000000000000000000000000000081526004016123e190618932565b60405180910390fd5b87875f8282604051602001612400929190618f96565b6040516020818303038152906040528051906020012090505f60035f9054906101000a900473ffffffffffffffffffffffffffffffffffffffff1673ffffffffffffffffffffffffffffffffffffffff16639fbdf4ef836040518263ffffffff1660e01b815260040161247391906189f4565b602060405180830381865afa15801561248e573d5f803e3d5ffd5b505050506040513d601f19601f820116820180604052508101906124b2919061861a565b116124f2576040517f08c379a00000000000000000000000000000000000000000000000000000000081526004016124e990619003565b60405180910390fd5b5f6124fc82616767565b90505f600481111561251157612510617c37565b5b60035f9054906101000a900473ffffffffffffffffffffffffffffffffffffffff1673ffffffffffffffffffffffffffffffffffffffff16638d3bbb9a836040518263ffffffff1660e01b815260040161256b9190617a2a565b602060405180830381865afa158015612586573d5f803e3d5ffd5b505050506040513d601f19601f820116820180604052508101906125aa9190619044565b60048111156125bc576125bb617c37565b5b146125fc576040517f08c379a00000000000000000000000000000000000000000000000000000000081526004016125f3906190b9565b60405180910390fd5b5f8c8c604051602001612610929190618f96565b6040516020818303038152906040528051906020012090505f61263282616767565b90508b6127035760035f9054906101000a900473ffffffffffffffffffffffffffffffffffffffff1673ffffffffffffffffffffffffffffffffffffffff1663357eafe78260036040518363ffffffff1660e01b81526004016126969291906190e6565b5f604051808303815f87803b1580156126ad575f80fd5b505af11580156126bf573d5f803e3d5ffd5b505050507fffe538ab137e2c885fb182d74ac99e223ab5afbb44fd5efba0066b82093458858e8e6040516126f492919061910d565b60405180910390a150506127c9565b60035f9054906101000a900473ffffffffffffffffffffffffffffffffffffffff1673ffffffffffffffffffffffffffffffffffffffff1663357eafe78260016040518363ffffffff1660e01b81526004016127609291906190e6565b5f604051808303815f87803b158015612777575f80fd5b505af1158015612789573d5f803e3d5ffd5b505050507f319b96e8548257087ae0bc70000beb28a1efd4d55678d64f1e62c870f4575a988e8e6040516127be92919061910d565b60405180910390a150505b505050505050505050505050565b5f805f8054906101000a900473ffffffffffffffffffffffffffffffffffffffff1673ffffffffffffffffffffffffffffffffffffffff16336040516024016128209190618c18565b6040516020818303038152906040527fd1aa0c20000000000000000000000000000000000000000000000000000000007bffffffffffffffffffffffffffffffffffffffffffffffffffffffff19166020820180517bffffffffffffffffffffffffffffffffffffffffffffffffffffffff83818316178352505050506040516128aa919061884d565b5f604051808303815f865af19150503d805f81146128e3576040519150601f19603f3d011682016040523d82523d5f602084013e6128e8565b606091505b50915091508080602001905181019061290191906186c1565b612940576040517f08c379a000000000000000000000000000000000000000000000000000000000815260040161293790618ca1565b60405180910390fd5b8484845f8383836040516020016129599392919061898a565b6040516020818303038152906040528051906020012090505f60035f9054906101000a900473ffffffffffffffffffffffffffffffffffffffff1673ffffffffffffffffffffffffffffffffffffffff1663afc869aa836040518263ffffffff1660e01b81526004016129cc91906189f4565b602060405180830381865afa1580156129e7573d5f803e3d5ffd5b505050506040513d601f19601f82011682018060405250810190612a0b919061861a565b11612a4b576040517f08c379a0000000000000000000000000000000000000000000000000000000008152600401612a4290618d09565b60405180910390fd5b5f612a55826162d2565b90505f6003811115612a6a57612a69617c37565b5b60035f9054906101000a900473ffffffffffffffffffffffffffffffffffffffff1673ffffffffffffffffffffffffffffffffffffffff1663ab62526a836040518263ffffffff1660e01b8152600401612ac49190617a2a565b602060405180830381865afa158015612adf573d5f803e3d5ffd5b505050506040513d601f19601f82011682018060405250810190612b039190618a30565b6003811115612b1557612b14617c37565b5b14612b55576040517f08c379a0000000000000000000000000000000000000000000000000000000008152600401612b4c90618d71565b60405180910390fd5b5f8a8a8a604051602001612b6b9392919061898a565b6040516020818303038152906040528051906020012090505f612b8d826162d2565b905060035f9054906101000a900473ffffffffffffffffffffffffffffffffffffffff1673ffffffffffffffffffffffffffffffffffffffff1663ff687f4b8260036040518363ffffffff1660e01b8152600401612bec929190618b87565b5f604051808303815f87803b158015612c03575f80fd5b505af1158015612c15573d5f803e3d5ffd5b505050507f1730d22becc09e3aaaca0397852477bf97b6ba9e3cd1a95b2c49185383809c438c8c8c604051612c4c93929190618bae565b60405180910390a1505050505050505050505050565b82825f8282604051602001612c78929190618f96565b6040516020818303038152906040528051906020012090505f60035f9054906101000a900473ffffffffffffffffffffffffffffffffffffffff1673ffffffffffffffffffffffffffffffffffffffff16639fbdf4ef836040518263ffffffff1660e01b8152600401612ceb91906189f4565b602060405180830381865afa158015612d06573d5f803e3d5ffd5b505050506040513d601f19601f82011682018060405250810190612d2a919061861a565b11612d6a576040517f08c379a0000000000000000000000000000000000000000000000000000000008152600401612d6190619003565b60405180910390fd5b5f612d7482616767565b905060016004811115612d8a57612d89617c37565b5b60035f9054906101000a900473ffffffffffffffffffffffffffffffffffffffff1673ffffffffffffffffffffffffffffffffffffffff16638d3bbb9a836040518263ffffffff1660e01b8152600401612de49190617a2a565b602060405180830381865afa158015612dff573d5f803e3d5ffd5b505050506040513d601f19601f82011682018060405250810190612e239190619044565b6004811115612e3557612e34617c37565b5b14612e75576040517f08c379a0000000000000000000000000000000000000000000000000000000008152600401612e6c906190b9565b60405180910390fd5b5f805f8054906101000a900473ffffffffffffffffffffffffffffffffffffffff1673ffffffffffffffffffffffffffffffffffffffff1633604051602401612ebe9190618c18565b6040516020818303038152906040527fd1aa0c20000000000000000000000000000000000000000000000000000000007bffffffffffffffffffffffffffffffffffffffffffffffffffffffff19166020820180517bffffffffffffffffffffffffffffffffffffffffffffffffffffffff8381831617835250505050604051612f48919061884d565b5f604051808303815f865af19150503d805f8114612f81576040519150601f19603f3d011682016040523d82523d5f602084013e612f86565b606091505b509150915080806020019051810190612f9f91906186c1565b612fde576040517f08c379a0000000000000000000000000000000000000000000000000000000008152600401612fd590618ca1565b60405180910390fd5b5f8989604051602001612ff2929190618f96565b6040516020818303038152906040528051906020012090505f61301482616767565b9050886130e55760035f9054906101000a900473ffffffffffffffffffffffffffffffffffffffff1673ffffffffffffffffffffffffffffffffffffffff1663357eafe78260036040518363ffffffff1660e01b81526004016130789291906190e6565b5f604051808303815f87803b15801561308f575f80fd5b505af11580156130a1573d5f803e3d5ffd5b505050507fffe538ab137e2c885fb182d74ac99e223ab5afbb44fd5efba0066b82093458858b8b6040516130d692919061910d565b60405180910390a150506131b5565b6130ef8a8c616814565b60035f9054906101000a900473ffffffffffffffffffffffffffffffffffffffff1673ffffffffffffffffffffffffffffffffffffffff1663357eafe78260026040518363ffffffff1660e01b815260040161314c9291906190e6565b5f604051808303815f87803b158015613163575f80fd5b505af1158015613175573d5f803e3d5ffd5b505050507ffe8b23b27d4185e98d85be7c1a7ff1cc3c279ae83c7d8b640a5c663a45c132f98b8b6040516131aa92919061910d565b60405180910390a150505b505050505050505050565b815f60035f9054906101000a900473ffffffffffffffffffffffffffffffffffffffff1673ffffffffffffffffffffffffffffffffffffffff16635a711810836040518263ffffffff1660e01b815260040161321c91906179f2565b602060405180830381865afa158015613237573d5f803e3d5ffd5b505050506040513d601f19601f8201168201806040525081019061325b919061861a565b1161329b576040517f08c379a00000000000000000000000000000000000000000000000000000000081526004016132929061868f565b60405180910390fd5b60035f9054906101000a900473ffffffffffffffffffffffffffffffffffffffff1673ffffffffffffffffffffffffffffffffffffffff16636de2f9b76132e183616178565b6040518263ffffffff1660e01b81526004016132fd9190617a2a565b602060405180830381865afa158015613318573d5f803e3d5ffd5b505050506040513d601f19601f8201168201806040525081019061333c91906186c1565b61337b576040517f08c379a000000000000000000000000000000000000000000000000000000000815260040161337290618736565b60405180910390fd5b815f60035f9054906101000a900473ffffffffffffffffffffffffffffffffffffffff1673ffffffffffffffffffffffffffffffffffffffff16635a711810836040518263ffffffff1660e01b81526004016133d791906179f2565b602060405180830381865afa1580156133f2573d5f803e3d5ffd5b505050506040513d601f19601f82011682018060405250810190613416919061861a565b11613456576040517f08c379a000000000000000000000000000000000000000000000000000000000815260040161344d9061868f565b60405180910390fd5b60035f9054906101000a900473ffffffffffffffffffffffffffffffffffffffff1673ffffffffffffffffffffffffffffffffffffffff16636de2f9b761349c83616178565b6040518263ffffffff1660e01b81526004016134b89190617a2a565b602060405180830381865afa1580156134d3573d5f803e3d5ffd5b505050506040513d601f19601f820116820180604052508101906134f791906186c1565b613536576040517f08c379a000000000000000000000000000000000000000000000000000000000815260040161352d90618736565b60405180910390fd5b835f8060025f9054906101000a900473ffffffffffffffffffffffffffffffffffffffff1673ffffffffffffffffffffffffffffffffffffffff1660035f9054906101000a900473ffffffffffffffffffffffffffffffffffffffff1673ffffffffffffffffffffffffffffffffffffffff1663aa663c6e6135b786616225565b6040518263ffffffff1660e01b81526004016135d39190617a2a565b5f60405180830381865afa1580156135ed573d5f803e3d5ffd5b505050506040513d5f823e3d601f19601f8201168201806040525081019061361591906187c2565b60405160240161362591906179f2565b6040516020818303038152906040527f615deb16000000000000000000000000000000000000000000000000000000007bffffffffffffffffffffffffffffffffffffffffffffffffffffffff19166020820180517bffffffffffffffffffffffffffffffffffffffffffffffffffffffff83818316178352505050506040516136af919061884d565b5f604051808303815f865af19150503d805f81146136e8576040519150601f19603f3d011682016040523d82523d5f602084013e6136ed565b606091505b50915091508080602001905181019061370691906188bd565b73ffffffffffffffffffffffffffffffffffffffff163373ffffffffffffffffffffffffffffffffffffffff1614613773576040517f08c379a000000000000000000000000000000000000000000000000000000000815260040161376a90618932565b60405180910390fd5b86865f8282604051602001613789929190618f96565b6040516020818303038152906040528051906020012090505f60035f9054906101000a900473ffffffffffffffffffffffffffffffffffffffff1673ffffffffffffffffffffffffffffffffffffffff16639fbdf4ef836040518263ffffffff1660e01b81526004016137fc91906189f4565b602060405180830381865afa158015613817573d5f803e3d5ffd5b505050506040513d601f19601f8201168201806040525081019061383b919061861a565b111561397c575f60035f9054906101000a900473ffffffffffffffffffffffffffffffffffffffff1673ffffffffffffffffffffffffffffffffffffffff16638d3bbb9a61388884616767565b6040518263ffffffff1660e01b81526004016138a49190617a2a565b602060405180830381865afa1580156138bf573d5f803e3d5ffd5b505050506040513d601f19601f820116820180604052508101906138e39190619044565b9050600360048111156138f9576138f8617c37565b5b81600481111561390c5761390b617c37565b5b148061393b575060048081111561392657613925617c37565b5b81600481111561393957613938617c37565b5b145b61397a576040517f08c379a00000000000000000000000000000000000000000000000000000000081526004016139719061918c565b60405180910390fd5b505b5f8a8a604051602001613990929190618f96565b6040516020818303038152906040528051906020012090505f60035f9054906101000a900473ffffffffffffffffffffffffffffffffffffffff1673ffffffffffffffffffffffffffffffffffffffff16639fbdf4ef836040518263ffffffff1660e01b8152600401613a0391906189f4565b602060405180830381865afa158015613a1e573d5f803e3d5ffd5b505050506040513d601f19601f82011682018060405250810190613a42919061861a565b1115613ade5760035f9054906101000a900473ffffffffffffffffffffffffffffffffffffffff1673ffffffffffffffffffffffffffffffffffffffff1663357eafe7613a8e83616767565b5f6040518363ffffffff1660e01b8152600401613aac9291906190e6565b5f604051808303815f87803b158015613ac3575f80fd5b505af1158015613ad5573d5f803e3d5ffd5b50505050613ea4565b5f60035f9054906101000a900473ffffffffffffffffffffffffffffffffffffffff1673ffffffffffffffffffffffffffffffffffffffff1663e7151daf6040518163ffffffff1660e01b8152600401602060405180830381865afa158015613b49573d5f803e3d5ffd5b505050506040513d601f19601f82011682018060405250810190613b6d919061861a565b905060035f9054906101000a900473ffffffffffffffffffffffffffffffffffffffff1673ffffffffffffffffffffffffffffffffffffffff16633da5c5c083836001613bba9190618af0565b6040518363ffffffff1660e01b8152600401613bd7929190618b23565b5f604051808303815f87803b158015613bee575f80fd5b505af1158015613c00573d5f803e3d5ffd5b5050505060035f9054906101000a900473ffffffffffffffffffffffffffffffffffffffff1673ffffffffffffffffffffffffffffffffffffffff1663300cb5f96040518163ffffffff1660e01b81526004015f604051808303815f87803b158015613c6a575f80fd5b505af1158015613c7c573d5f803e3d5ffd5b5050505060035f9054906101000a900473ffffffffffffffffffffffffffffffffffffffff1673ffffffffffffffffffffffffffffffffffffffff16630145d4ee828e6040518363ffffffff1660e01b8152600401613cdc929190618b4a565b5f604051808303815f87803b158015613cf3575f80fd5b505af1158015613d05573d5f803e3d5ffd5b5050505060035f9054906101000a900473ffffffffffffffffffffffffffffffffffffffff1673ffffffffffffffffffffffffffffffffffffffff1663caa99b34828d6040518363ffffffff1660e01b8152600401613d65929190618b4a565b5f604051808303815f87803b158015613d7c575f80fd5b505af1158015613d8e573d5f803e3d5ffd5b5050505060035f9054906101000a900473ffffffffffffffffffffffffffffffffffffffff1673ffffffffffffffffffffffffffffffffffffffff1663357eafe7825f6040518363ffffffff1660e01b8152600401613dee9291906190e6565b5f604051808303815f87803b158015613e05575f80fd5b505af1158015613e17573d5f803e3d5ffd5b5050505060035f9054906101000a900473ffffffffffffffffffffffffffffffffffffffff1673ffffffffffffffffffffffffffffffffffffffff16636b3c1ca5826040518263ffffffff1660e01b8152600401613e759190617a2a565b5f604051808303815f87803b158015613e8c575f80fd5b505af1158015613e9e573d5f803e3d5ffd5b50505050505b7fedf62b2a6df064dd1d26f8666b796a214d00bf3a3cda799d050c03773233cf6a8b8b604051613ed592919061910d565b60405180910390a15050505050505050505050565b5f805f8054906101000a900473ffffffffffffffffffffffffffffffffffffffff1673ffffffffffffffffffffffffffffffffffffffff1633604051602401613f339190618c18565b6040516020818303038152906040527fd1aa0c20000000000000000000000000000000000000000000000000000000007bffffffffffffffffffffffffffffffffffffffffffffffffffffffff19166020820180517bffffffffffffffffffffffffffffffffffffffffffffffffffffffff8381831617835250505050604051613fbd919061884d565b5f604051808303815f865af19150503d805f8114613ff6576040519150601f19603f3d011682016040523d82523d5f602084013e613ffb565b606091505b50915091508080602001905181019061401491906186c1565b614053576040517f08c379a000000000000000000000000000000000000000000000000000000000815260040161404a90618ca1565b60405180910390fd5b825f805f8054906101000a900473ffffffffffffffffffffffffffffffffffffffff1673ffffffffffffffffffffffffffffffffffffffff1661409584616f84565b61409d6170fa565b6040518060400160405280600781526020017f56454e444f5253000000000000000000000000000000000000000000000000008152506040516020016140e49291906191f4565b604051602081830303815290604052604051602401614104929190619222565b6040516020818303038152906040527f57c74183000000000000000000000000000000000000000000000000000000007bffffffffffffffffffffffffffffffffffffffffffffffffffffffff19166020820180517bffffffffffffffffffffffffffffffffffffffffffffffffffffffff838183161783525050505060405161418e919061884d565b5f604051808303815f865af19150503d805f81146141c7576040519150601f19603f3d011682016040523d82523d5f602084013e6141cc565b606091505b509150915081614211576040517f08c379a00000000000000000000000000000000000000000000000000000000081526004016142089061929a565b60405180910390fd5b5f8180602001905181019061422691906186c1565b905080614268576040517f08c379a000000000000000000000000000000000000000000000000000000000815260040161425f90619328565b60405180910390fd5b60405160200161427790619369565b6040516020818303038152906040528051906020012061429688616026565b6040516020016142a69190618db6565b60405160208183030381529060405280519060200120146142fc576040517f08c379a00000000000000000000000000000000000000000000000000000000081526004016142f3906193ed565b60405180910390fd5b5f60045f9054906101000a900473ffffffffffffffffffffffffffffffffffffffff1673ffffffffffffffffffffffffffffffffffffffff1663c359a6c18c8c8c8c604051602001614351949392919061940b565b604051602081830303815290604052805190602001206040518263ffffffff1660e01b81526004016143839190619460565b5f60405180830381865afa15801561439d573d5f803e3d5ffd5b505050506040513d5f823e3d601f19601f820116820180604052508101906143c591906187c2565b905060045f9054906101000a900473ffffffffffffffffffffffffffffffffffffffff1673ffffffffffffffffffffffffffffffffffffffff16636057ed41826040518263ffffffff1660e01b815260040161442191906179f2565b5f60405180830381865afa15801561443b573d5f803e3d5ffd5b505050506040513d5f823e3d601f19601f8201168201806040525081019061446391906187c2565b90505f60035f9054906101000a900473ffffffffffffffffffffffffffffffffffffffff1673ffffffffffffffffffffffffffffffffffffffff1663bc192acc6040518163ffffffff1660e01b8152600401602060405180830381865afa1580156144d0573d5f803e3d5ffd5b505050506040513d601f19601f820116820180604052508101906144f4919061861a565b905060035f9054906101000a900473ffffffffffffffffffffffffffffffffffffffff1673ffffffffffffffffffffffffffffffffffffffff1663abf423e3838360016145419190618af0565b6040518363ffffffff1660e01b815260040161455e929190619479565b5f604051808303815f87803b158015614575575f80fd5b505af1158015614587573d5f803e3d5ffd5b5050505060035f9054906101000a900473ffffffffffffffffffffffffffffffffffffffff1673ffffffffffffffffffffffffffffffffffffffff166337a272486040518163ffffffff1660e01b81526004015f604051808303815f87803b1580156145f1575f80fd5b505af1158015614603573d5f803e3d5ffd5b5050505060035f9054906101000a900473ffffffffffffffffffffffffffffffffffffffff1673ffffffffffffffffffffffffffffffffffffffff166380e8301a8a846040518363ffffffff1660e01b815260040161466392919061910d565b5f604051808303815f87803b15801561467a575f80fd5b505af115801561468c573d5f803e3d5ffd5b5050505060035f9054906101000a900473ffffffffffffffffffffffffffffffffffffffff1673ffffffffffffffffffffffffffffffffffffffff1663259ad3b982846040518363ffffffff1660e01b81526004016146ec929190618b4a565b5f604051808303815f87803b158015614703575f80fd5b505af1158015614715573d5f803e3d5ffd5b5050505060035f9054906101000a900473ffffffffffffffffffffffffffffffffffffffff1673ffffffffffffffffffffffffffffffffffffffff166356605878828b6040518363ffffffff1660e01b8152600401614775929190618b4a565b5f604051808303815f87803b15801561478c575f80fd5b505af115801561479e573d5f803e3d5ffd5b5050505060035f9054906101000a900473ffffffffffffffffffffffffffffffffffffffff1673ffffffffffffffffffffffffffffffffffffffff1663a5de80a4828e6040518363ffffffff1660e01b81526004016147fe929190618b4a565b5f604051808303815f87803b158015614815575f80fd5b505af1158015614827573d5f803e3d5ffd5b5050505060035f9054906101000a900473ffffffffffffffffffffffffffffffffffffffff1673ffffffffffffffffffffffffffffffffffffffff16630ab02b6d828d6040518363ffffffff1660e01b8152600401614887929190618b4a565b5f604051808303815f87803b15801561489e575f80fd5b505af11580156148b0573d5f803e3d5ffd5b5050505060035f9054906101000a900473ffffffffffffffffffffffffffffffffffffffff1673ffffffffffffffffffffffffffffffffffffffff16639897a051828c6040518363ffffffff1660e01b8152600401614910929190618b4a565b5f604051808303815f87803b158015614927575f80fd5b505af1158015614939573d5f803e3d5ffd5b5050505060035f9054906101000a900473ffffffffffffffffffffffffffffffffffffffff1673ffffffffffffffffffffffffffffffffffffffff1663fd164b0d826040518263ffffffff1660e01b81526004016149979190617a2a565b5f604051808303815f87803b1580156149ae575f80fd5b505af11580156149c0573d5f803e3d5ffd5b505050507f3c5bde54494a446c6da11c4c6169d1b8a7f0be92bbc423b67949adb673e5ddbe828a8e8e8e6040516149fb9594939291906194a7565b60405180910390a1614a0c8261726c565b505050505050505050505050565b60605f8060035f9054906101000a900473ffffffffffffffffffffffffffffffffffffffff1673ffffffffffffffffffffffffffffffffffffffff166374dfd9de86866040518363ffffffff1660e01b8152600401614a7a92919061951b565b5f60405180830381865afa158015614a94573d5f803e3d5ffd5b505050506040513d5f823e3d601f19601f82011682018060405250810190614abc919061982b565b8093508194508295505050509250925092565b5f8060035f9054906101000a900473ffffffffffffffffffffffffffffffffffffffff1673ffffffffffffffffffffffffffffffffffffffff16635a711810846040518263ffffffff1660e01b8152600401614b2b91906179f2565b602060405180830381865afa158015614b46573d5f803e3d5ffd5b505050506040513d601f19601f82011682018060405250810190614b6a919061861a565b119050919050565b60605f8060035f9054906101000a900473ffffffffffffffffffffffffffffffffffffffff1673ffffffffffffffffffffffffffffffffffffffff1663fcf95a576040518163ffffffff1660e01b8152600401602060405180830381865afa158015614be0573d5f803e3d5ffd5b505050506040513d601f19601f82011682018060405250810190614c04919061861a565b905080851115614c12578094505b5f80868611614c215785614c23565b865b90505f8167ffffffffffffffff811115614c4057614c3f617769565b5b604051908082528060200260200182016040528015614c6e5781602001602082028036833780820191505090505b5090505b5f88118015614c8057508183105b15614d8a578780614c9090618d8f565b9850505f6003811115614ca657614ca5617c37565b5b60035f9054906101000a900473ffffffffffffffffffffffffffffffffffffffff1673ffffffffffffffffffffffffffffffffffffffff1663ab62526a8a6040518263ffffffff1660e01b8152600401614d009190617a2a565b602060405180830381865afa158015614d1b573d5f803e3d5ffd5b505050506040513d601f19601f82011682018060405250810190614d3f9190618a30565b6003811115614d5157614d50617c37565b5b03614d855787818481518110614d6a57614d69618dcc565b5b6020026020010181815250508280614d8190618df9565b9350505b614c72565b8794508267ffffffffffffffff811115614da757614da6617769565b5b604051908082528060200260200182016040528015614de057816020015b614dcd617688565b815260200190600190039081614dc55790505b5095505f5b83811015614ed45760035f9054906101000a900473ffffffffffffffffffffffffffffffffffffffff1673ffffffffffffffffffffffffffffffffffffffff16635493326b838381518110614e3d57614e3c618dcc565b5b60200260200101516040518263ffffffff1660e01b8152600401614e619190617a2a565b5f60405180830381865afa158015614e7b573d5f803e3d5ffd5b505050506040513d5f823e3d601f19601f82011682018060405250810190614ea39190618f4f565b878281518110614eb657614eb5618dcc565b5b60200260200101819052508080614ecc90618df9565b915050614de5565b50505050509250929050565b60605f8060035f9054906101000a900473ffffffffffffffffffffffffffffffffffffffff1673ffffffffffffffffffffffffffffffffffffffff166396cd0a6286866040518363ffffffff1660e01b8152600401614f4092919061951b565b5f60405180830381865afa158015614f5a573d5f803e3d5ffd5b505050506040513d5f823e3d601f19601f82011682018060405250810190614f829190619a22565b9250925092509250925092565b5f60035f9054906101000a900473ffffffffffffffffffffffffffffffffffffffff1673ffffffffffffffffffffffffffffffffffffffff1663aa2cdfb66040518163ffffffff1660e01b8152600401602060405180830381865afa158015614ffa573d5f803e3d5ffd5b505050506040513d601f19601f8201168201806040525081019061501e919061861a565b905090565b5f60035f9054906101000a900473ffffffffffffffffffffffffffffffffffffffff1673ffffffffffffffffffffffffffffffffffffffff1663b8af711d6040518163ffffffff1660e01b8152600401602060405180830381865afa15801561508e573d5f803e3d5ffd5b505050506040513d601f19601f820116820180604052508101906150b2919061861a565b905090565b5f8060035f9054906101000a900473ffffffffffffffffffffffffffffffffffffffff1673ffffffffffffffffffffffffffffffffffffffff1663aa2cdfb66040518163ffffffff1660e01b8152600401602060405180830381865afa158015615123573d5f803e3d5ffd5b505050506040513d601f19601f82011682018060405250810190615147919061861a565b60035f9054906101000a900473ffffffffffffffffffffffffffffffffffffffff1673ffffffffffffffffffffffffffffffffffffffff1663b8af711d6040518163ffffffff1660e01b8152600401602060405180830381865afa1580156151b1573d5f803e3d5ffd5b505050506040513d601f19601f820116820180604052508101906151d5919061861a565b60035f9054906101000a900473ffffffffffffffffffffffffffffffffffffffff1673ffffffffffffffffffffffffffffffffffffffff1663bc192acc6040518163ffffffff1660e01b8152600401602060405180830381865afa15801561523f573d5f803e3d5ffd5b505050506040513d601f19601f82011682018060405250810190615263919061861a565b61526d9190619a8e565b6152779190619a8e565b90508091505090565b5f8060035f9054906101000a900473ffffffffffffffffffffffffffffffffffffffff1673ffffffffffffffffffffffffffffffffffffffff16635a711810846040518263ffffffff1660e01b81526004016152dc91906179f2565b602060405180830381865afa1580156152f7573d5f803e3d5ffd5b505050506040513d601f19601f8201168201806040525081019061531b919061861a565b1161535b576040517f08c379a000000000000000000000000000000000000000000000000000000000815260040161535290619b0b565b60405180910390fd5b60035f9054906101000a900473ffffffffffffffffffffffffffffffffffffffff1673ffffffffffffffffffffffffffffffffffffffff16636de2f9b76153a184616178565b6040518263ffffffff1660e01b81526004016153bd9190617a2a565b602060405180830381865afa1580156153d8573d5f803e3d5ffd5b505050506040513d601f19601f820116820180604052508101906153fc91906186c1565b9050919050565b606060035f9054906101000a900473ffffffffffffffffffffffffffffffffffffffff1673ffffffffffffffffffffffffffffffffffffffff1663b67cff4f61544b84616178565b6040518263ffffffff1660e01b81526004016154679190617a2a565b5f60405180830381865afa158015615481573d5f803e3d5ffd5b505050506040513d5f823e3d601f19601f820116820180604052508101906154a991906187c2565b9050919050565b81815f82826040516020016154c6929190618f96565b6040516020818303038152906040528051906020012090505f60035f9054906101000a900473ffffffffffffffffffffffffffffffffffffffff1673ffffffffffffffffffffffffffffffffffffffff16639fbdf4ef836040518263ffffffff1660e01b815260040161553991906189f4565b602060405180830381865afa158015615554573d5f803e3d5ffd5b505050506040513d601f19601f82011682018060405250810190615578919061861a565b116155b8576040517f08c379a00000000000000000000000000000000000000000000000000000000081526004016155af90619003565b60405180910390fd5b5f6155c282616767565b90505f60035f9054906101000a900473ffffffffffffffffffffffffffffffffffffffff1673ffffffffffffffffffffffffffffffffffffffff16638d3bbb9a836040518263ffffffff1660e01b815260040161561f9190617a2a565b602060405180830381865afa15801561563a573d5f803e3d5ffd5b505050506040513d601f19601f8201168201806040525081019061565e9190619044565b90505f600481111561567357615672617c37565b5b81600481111561568657615685617c37565b5b14806156b65750600160048111156156a1576156a0617c37565b5b8160048111156156b4576156b3617c37565b5b145b6156f5576040517f08c379a00000000000000000000000000000000000000000000000000000000081526004016156ec906190b9565b60405180910390fd5b5f805f8054906101000a900473ffffffffffffffffffffffffffffffffffffffff1673ffffffffffffffffffffffffffffffffffffffff163360405160240161573e9190618c18565b6040516020818303038152906040527fd1aa0c20000000000000000000000000000000000000000000000000000000007bffffffffffffffffffffffffffffffffffffffffffffffffffffffff19166020820180517bffffffffffffffffffffffffffffffffffffffffffffffffffffffff83818316178352505050506040516157c8919061884d565b5f604051808303815f865af19150503d805f8114615801576040519150601f19603f3d011682016040523d82523d5f602084013e615806565b606091505b50915091508080602001905181019061581f91906186c1565b61585e576040517f08c379a000000000000000000000000000000000000000000000000000000000815260040161585590618ca1565b60405180910390fd5b5f8989604051602001615872929190618f96565b6040516020818303038152906040528051906020012090505f61589482616767565b905060035f9054906101000a900473ffffffffffffffffffffffffffffffffffffffff1673ffffffffffffffffffffffffffffffffffffffff1663357eafe78260046040518363ffffffff1660e01b81526004016158f39291906190e6565b5f604051808303815f87803b15801561590a575f80fd5b505af115801561591c573d5f803e3d5ffd5b505050507f3937016d869de47ff6500be43980ebc710b62e4152ac65adb2bd951f2cac48b88b8b60405161595192919061910d565b60405180910390a15050505050505050505050565b60605f8060035f9054906101000a900473ffffffffffffffffffffffffffffffffffffffff1673ffffffffffffffffffffffffffffffffffffffff1663d75959ba86866040518363ffffffff1660e01b81526004016159c692919061951b565b5f60405180830381865afa1580156159e0573d5f803e3d5ffd5b505050506040513d5f823e3d601f19601f82011682018060405250810190615a089190619c07565b9250925092509250925092565b60605f8060035f9054906101000a900473ffffffffffffffffffffffffffffffffffffffff1673ffffffffffffffffffffffffffffffffffffffff1663e7151daf6040518163ffffffff1660e01b8152600401602060405180830381865afa158015615a83573d5f803e3d5ffd5b505050506040513d601f19601f82011682018060405250810190615aa7919061861a565b905080851115615ab5578094505b5f80868611615ac45785615ac6565b865b90505f8167ffffffffffffffff811115615ae357615ae2617769565b5b604051908082528060200260200182016040528015615b115781602001602082028036833780820191505090505b5090505b5f88118015615b2357508183105b15615c62578780615b3390618d8f565b9850505f60035f9054906101000a900473ffffffffffffffffffffffffffffffffffffffff1673ffffffffffffffffffffffffffffffffffffffff16638d3bbb9a8a6040518263ffffffff1660e01b8152600401615b919190617a2a565b602060405180830381865afa158015615bac573d5f803e3d5ffd5b505050506040513d601f19601f82011682018060405250810190615bd09190619044565b90505f6004811115615be557615be4617c37565b5b816004811115615bf857615bf7617c37565b5b1480615c28575060016004811115615c1357615c12617c37565b5b816004811115615c2657615c25617c37565b5b145b15615c5c5788828581518110615c4157615c40618dcc565b5b6020026020010181815250508380615c5890618df9565b9450505b50615b15565b8794508267ffffffffffffffff811115615c7f57615c7e617769565b5b604051908082528060200260200182016040528015615cb857816020015b615ca56176cb565b815260200190600190039081615c9d5790505b5095505f5b83811015615dac5760035f9054906101000a900473ffffffffffffffffffffffffffffffffffffffff1673ffffffffffffffffffffffffffffffffffffffff166336a3cf83838381518110615d1557615d14618dcc565b5b60200260200101516040518263ffffffff1660e01b8152600401615d399190617a2a565b5f60405180830381865afa158015615d53573d5f803e3d5ffd5b505050506040513d5f823e3d601f19601f82011682018060405250810190615d7b9190619c73565b878281518110615d8e57615d8d618dcc565b5b60200260200101819052508080615da490618df9565b915050615cbd565b50505050509250929050565b615dc0617707565b815f60035f9054906101000a900473ffffffffffffffffffffffffffffffffffffffff1673ffffffffffffffffffffffffffffffffffffffff16636acf1f6c836040518263ffffffff1660e01b8152600401615e1c91906179f2565b602060405180830381865afa158015615e37573d5f803e3d5ffd5b505050506040513d601f19601f82011682018060405250810190615e5b919061861a565b11615e9b576040517f08c379a0000000000000000000000000000000000000000000000000000000008152600401615e9290619d04565b60405180910390fd5b5f60035f9054906101000a900473ffffffffffffffffffffffffffffffffffffffff1673ffffffffffffffffffffffffffffffffffffffff16636acf1f6c856040518263ffffffff1660e01b8152600401615ef691906179f2565b602060405180830381865afa158015615f11573d5f803e3d5ffd5b505050506040513d601f19601f82011682018060405250810190615f35919061861a565b11615f75576040517f08c379a0000000000000000000000000000000000000000000000000000000008152600401615f6c90619b0b565b60405180910390fd5b5f615f7f84616225565b905060035f9054906101000a900473ffffffffffffffffffffffffffffffffffffffff1673ffffffffffffffffffffffffffffffffffffffff16631b8260a1826040518263ffffffff1660e01b8152600401615fdb9190617a2a565b5f60405180830381865afa158015615ff5573d5f803e3d5ffd5b505050506040513d5f823e3d601f19601f8201168201806040525081019061601d9190619d22565b92505050919050565b606060035f9054906101000a900473ffffffffffffffffffffffffffffffffffffffff1673ffffffffffffffffffffffffffffffffffffffff1663e48cc420836040518263ffffffff1660e01b815260040161608291906179f2565b5f60405180830381865afa15801561609c573d5f803e3d5ffd5b505050506040513d5f823e3d601f19601f820116820180604052508101906160c491906187c2565b9050919050565b606060035f9054906101000a900473ffffffffffffffffffffffffffffffffffffffff1673ffffffffffffffffffffffffffffffffffffffff166381ce407461611384616178565b6040518263ffffffff1660e01b815260040161612f9190617a2a565b5f60405180830381865afa158015616149573d5f803e3d5ffd5b505050506040513d5f823e3d601f19601f820116820180604052508101906161719190619d69565b9050919050565b5f600160035f9054906101000a900473ffffffffffffffffffffffffffffffffffffffff1673ffffffffffffffffffffffffffffffffffffffff16635a711810846040518263ffffffff1660e01b81526004016161d591906179f2565b602060405180830381865afa1580156161f0573d5f803e3d5ffd5b505050506040513d601f19601f82011682018060405250810190616214919061861a565b61621e9190619a8e565b9050919050565b5f600160035f9054906101000a900473ffffffffffffffffffffffffffffffffffffffff1673ffffffffffffffffffffffffffffffffffffffff16636acf1f6c846040518263ffffffff1660e01b815260040161628291906179f2565b602060405180830381865afa15801561629d573d5f803e3d5ffd5b505050506040513d601f19601f820116820180604052508101906162c1919061861a565b6162cb9190619a8e565b9050919050565b5f600160035f9054906101000a900473ffffffffffffffffffffffffffffffffffffffff1673ffffffffffffffffffffffffffffffffffffffff1663afc869aa846040518263ffffffff1660e01b815260040161632f91906189f4565b602060405180830381865afa15801561634a573d5f803e3d5ffd5b505050506040513d601f19601f8201168201806040525081019061636e919061861a565b6163789190619a8e565b9050919050565b606060035f9054906101000a900473ffffffffffffffffffffffffffffffffffffffff1673ffffffffffffffffffffffffffffffffffffffff16636de2f9b76163c784616178565b6040518263ffffffff1660e01b81526004016163e39190617a2a565b602060405180830381865afa1580156163fe573d5f803e3d5ffd5b505050506040513d601f19601f8201168201806040525081019061642291906186c1565b1561642f578190506164de565b6164db60035f9054906101000a900473ffffffffffffffffffffffffffffffffffffffff1673ffffffffffffffffffffffffffffffffffffffff1663b67cff4f61647885616178565b6040518263ffffffff1660e01b81526004016164949190617a2a565b5f60405180830381865afa1580156164ae573d5f803e3d5ffd5b505050506040513d5f823e3d601f19601f820116820180604052508101906164d691906187c2565b61637f565b90505b919050565b6060600167ffffffffffffffff811115616500576164ff617769565b5b60405190808252806020026020018201604052801561653357816020015b606081526020019060019003908161651e5790505b50905081815f8151811061654a57616549618dcc565b5b60200260200101819052505f60035f9054906101000a900473ffffffffffffffffffffffffffffffffffffffff1673ffffffffffffffffffffffffffffffffffffffff166381ce407461659c85616178565b6040518263ffffffff1660e01b81526004016165b89190617a2a565b5f60405180830381865afa1580156165d2573d5f803e3d5ffd5b505050506040513d5f823e3d601f19601f820116820180604052508101906165fa9190619d69565b90506060805f5b835181101561675e5761662d8482815181106166205761661f618dcc565b5b60200260200101516164e3565b92508251855161663d9190618af0565b67ffffffffffffffff81111561665657616655617769565b5b60405190808252806020026020018201604052801561668957816020015b60608152602001906001900390816166745790505b5091505f5b85518110156166e3578582815181106166aa576166a9618dcc565b5b60200260200101518382815181106166c5576166c4618dcc565b5b602002602001018190525080806166db90618df9565b91505061668e565b505f5b83518110156167475783818151811061670257616701618dcc565b5b6020026020010151838751836167189190618af0565b8151811061672957616728618dcc565b5b6020026020010181905250808061673f90618df9565b9150506166e6565b50819450808061675690618df9565b915050616601565b50505050919050565b5f600160035f9054906101000a900473ffffffffffffffffffffffffffffffffffffffff1673ffffffffffffffffffffffffffffffffffffffff16639fbdf4ef846040518263ffffffff1660e01b81526004016167c491906189f4565b602060405180830381865afa1580156167df573d5f803e3d5ffd5b505050506040513d601f19601f82011682018060405250810190616803919061861a565b61680d9190619a8e565b9050919050565b815f60035f9054906101000a900473ffffffffffffffffffffffffffffffffffffffff1673ffffffffffffffffffffffffffffffffffffffff16635a711810836040518263ffffffff1660e01b815260040161687091906179f2565b602060405180830381865afa15801561688b573d5f803e3d5ffd5b505050506040513d601f19601f820116820180604052508101906168af919061861a565b116168ef576040517f08c379a00000000000000000000000000000000000000000000000000000000081526004016168e69061868f565b60405180910390fd5b815f60035f9054906101000a900473ffffffffffffffffffffffffffffffffffffffff1673ffffffffffffffffffffffffffffffffffffffff16635a711810836040518263ffffffff1660e01b815260040161694b91906179f2565b602060405180830381865afa158015616966573d5f803e3d5ffd5b505050506040513d601f19601f8201168201806040525081019061698a919061861a565b116169ca576040517f08c379a00000000000000000000000000000000000000000000000000000000081526004016169c19061868f565b60405180910390fd5b835f60035f9054906101000a900473ffffffffffffffffffffffffffffffffffffffff1673ffffffffffffffffffffffffffffffffffffffff16635a711810836040518263ffffffff1660e01b8152600401616a2691906179f2565b602060405180830381865afa158015616a41573d5f803e3d5ffd5b505050506040513d601f19601f82011682018060405250810190616a65919061861a565b11616aa5576040517f08c379a0000000000000000000000000000000000000000000000000000000008152600401616a9c9061868f565b60405180910390fd5b60035f9054906101000a900473ffffffffffffffffffffffffffffffffffffffff1673ffffffffffffffffffffffffffffffffffffffff16636de2f9b7616aeb83616178565b6040518263ffffffff1660e01b8152600401616b079190617a2a565b602060405180830381865afa158015616b22573d5f803e3d5ffd5b505050506040513d601f19601f82011682018060405250810190616b4691906186c1565b616b85576040517f08c379a0000000000000000000000000000000000000000000000000000000008152600401616b7c90618736565b60405180910390fd5b835f60035f9054906101000a900473ffffffffffffffffffffffffffffffffffffffff1673ffffffffffffffffffffffffffffffffffffffff16635a711810836040518263ffffffff1660e01b8152600401616be191906179f2565b602060405180830381865afa158015616bfc573d5f803e3d5ffd5b505050506040513d601f19601f82011682018060405250810190616c20919061861a565b11616c60576040517f08c379a0000000000000000000000000000000000000000000000000000000008152600401616c579061868f565b60405180910390fd5b60035f9054906101000a900473ffffffffffffffffffffffffffffffffffffffff1673ffffffffffffffffffffffffffffffffffffffff16636de2f9b7616ca683616178565b6040518263ffffffff1660e01b8152600401616cc29190617a2a565b602060405180830381865afa158015616cdd573d5f803e3d5ffd5b505050506040513d601f19601f82011682018060405250810190616d0191906186c1565b616d40576040517f08c379a0000000000000000000000000000000000000000000000000000000008152600401616d3790618736565b60405180910390fd5b5f616d4a87616178565b90505f616d5687616178565b905060035f9054906101000a900473ffffffffffffffffffffffffffffffffffffffff1673ffffffffffffffffffffffffffffffffffffffff1663ed7d26c4828a6040518363ffffffff1660e01b8152600401616db4929190618b4a565b5f604051808303815f87803b158015616dcb575f80fd5b505af1158015616ddd573d5f803e3d5ffd5b5050505060035f9054906101000a900473ffffffffffffffffffffffffffffffffffffffff1673ffffffffffffffffffffffffffffffffffffffff16634b01512d825f6040518363ffffffff1660e01b8152600401616e3d929190619db0565b5f604051808303815f87803b158015616e54575f80fd5b505af1158015616e66573d5f803e3d5ffd5b5050505060035f9054906101000a900473ffffffffffffffffffffffffffffffffffffffff1673ffffffffffffffffffffffffffffffffffffffff16630721b8f2826040518263ffffffff1660e01b8152600401616ec49190617a2a565b5f604051808303815f87803b158015616edb575f80fd5b505af1158015616eed573d5f803e3d5ffd5b5050505060035f9054906101000a900473ffffffffffffffffffffffffffffffffffffffff1673ffffffffffffffffffffffffffffffffffffffff16631cd5496583896040518363ffffffff1660e01b8152600401616f4d929190618b4a565b5f604051808303815f87803b158015616f64575f80fd5b505af1158015616f76573d5f803e3d5ffd5b505050505050505050505050565b5f805f60025f9054906101000a900473ffffffffffffffffffffffffffffffffffffffff1673ffffffffffffffffffffffffffffffffffffffff1684604051602401616fd091906179f2565b6040516020818303038152906040527f615deb16000000000000000000000000000000000000000000000000000000007bffffffffffffffffffffffffffffffffffffffffffffffffffffffff19166020820180517bffffffffffffffffffffffffffffffffffffffffffffffffffffffff838183161783525050505060405161705a919061884d565b5f604051808303815f865af19150503d805f8114617093576040519150601f19603f3d011682016040523d82523d5f602084013e617098565b606091505b5091509150816170dd576040517f08c379a00000000000000000000000000000000000000000000000000000000081526004016170d490619e21565b60405180910390fd5b808060200190518101906170f191906188bd565b92505050919050565b60605f8060015f9054906101000a900473ffffffffffffffffffffffffffffffffffffffff1673ffffffffffffffffffffffffffffffffffffffff166040516024016040516020818303038152906040527fcc9ba6fa000000000000000000000000000000000000000000000000000000007bffffffffffffffffffffffffffffffffffffffffffffffffffffffff19166020820180517bffffffffffffffffffffffffffffffffffffffffffffffffffffffff83818316178352505050506040516171c6919061884d565b5f604051808303815f865af19150503d805f81146171ff576040519150601f19603f3d011682016040523d82523d5f602084013e617204565b606091505b509150915081617249576040517f08c379a000000000000000000000000000000000000000000000000000000000815260040161724090619e89565b60405180910390fd5b8080602001905181019061725d9190619ea7565b90915090505080935050505090565b805f60035f9054906101000a900473ffffffffffffffffffffffffffffffffffffffff1673ffffffffffffffffffffffffffffffffffffffff16635a711810836040518263ffffffff1660e01b81526004016172c891906179f2565b602060405180830381865afa1580156172e3573d5f803e3d5ffd5b505050506040513d601f19601f82011682018060405250810190617307919061861a565b14617347576040517f08c379a000000000000000000000000000000000000000000000000000000000815260040161733e90619fa9565b60405180910390fd5b5f60035f9054906101000a900473ffffffffffffffffffffffffffffffffffffffff1673ffffffffffffffffffffffffffffffffffffffff1663b2d194066040518163ffffffff1660e01b8152600401602060405180830381865afa1580156173b2573d5f803e3d5ffd5b505050506040513d601f19601f820116820180604052508101906173d6919061861a565b905060035f9054906101000a900473ffffffffffffffffffffffffffffffffffffffff1673ffffffffffffffffffffffffffffffffffffffff1663b71395a0848360016174239190618af0565b6040518363ffffffff1660e01b8152600401617440929190619479565b5f604051808303815f87803b158015617457575f80fd5b505af1158015617469573d5f803e3d5ffd5b5050505060035f9054906101000a900473ffffffffffffffffffffffffffffffffffffffff1673ffffffffffffffffffffffffffffffffffffffff1663c8d9c4456040518163ffffffff1660e01b81526004015f604051808303815f87803b1580156174d3575f80fd5b505af11580156174e5573d5f803e3d5ffd5b5050505060035f9054906101000a900473ffffffffffffffffffffffffffffffffffffffff1673ffffffffffffffffffffffffffffffffffffffff16635234db1b82856040518363ffffffff1660e01b8152600401617545929190618b4a565b5f604051808303815f87803b15801561755c575f80fd5b505af115801561756e573d5f803e3d5ffd5b5050505060035f9054906101000a900473ffffffffffffffffffffffffffffffffffffffff1673ffffffffffffffffffffffffffffffffffffffff16630721b8f2826040518263ffffffff1660e01b81526004016175cc9190617a2a565b5f604051808303815f87803b1580156175e3575f80fd5b505af11580156175f5573d5f803e3d5ffd5b5050505060035f9054906101000a900473ffffffffffffffffffffffffffffffffffffffff1673ffffffffffffffffffffffffffffffffffffffff16634b01512d8260016040518363ffffffff1660e01b8152600401617656929190619db0565b5f604051808303815f87803b15801561766d575f80fd5b505af115801561767f573d5f803e3d5ffd5b50505050505050565b6040518060a001604052806060815260200160608152602001606081526020015f60038111156176bb576176ba617c37565b5b81526020015f61ffff1681525090565b604051806080016040528060608152602001606081526020015f60048111156176f7576176f6617c37565b5b81526020015f61ffff1681525090565b6040518060c0016040528060608152602001606081526020016060815260200160608152602001606081526020015f61ffff1681525090565b5f604051905090565b5f80fd5b5f80fd5b5f80fd5b5f80fd5b5f601f19601f8301169050919050565b7f4e487b71000000000000000000000000000000000000000000000000000000005f52604160045260245ffd5b61779f82617759565b810181811067ffffffffffffffff821117156177be576177bd617769565b5b80604052505050565b5f6177d0617740565b90506177dc8282617796565b919050565b5f67ffffffffffffffff8211156177fb576177fa617769565b5b61780482617759565b9050602081019050919050565b828183375f83830152505050565b5f61783161782c846177e1565b6177c7565b90508281526020810184848401111561784d5761784c617755565b5b617858848285617811565b509392505050565b5f82601f83011261787457617873617751565b5b813561788484826020860161781f565b91505092915050565b5f805f606084860312156178a4576178a3617749565b5b5f84013567ffffffffffffffff8111156178c1576178c061774d565b5b6178cd86828701617860565b935050602084013567ffffffffffffffff8111156178ee576178ed61774d565b5b6178fa86828701617860565b925050604084013567ffffffffffffffff81111561791b5761791a61774d565b5b61792786828701617860565b9150509250925092565b5f6020828403121561794657617945617749565b5b5f82013567ffffffffffffffff8111156179635761796261774d565b5b61796f84828501617860565b91505092915050565b5f81519050919050565b5f82825260208201905092915050565b5f5b838110156179af578082015181840152602081019050617994565b5f8484015250505050565b5f6179c482617978565b6179ce8185617982565b93506179de818560208601617992565b6179e781617759565b840191505092915050565b5f6020820190508181035f830152617a0a81846179ba565b905092915050565b5f819050919050565b617a2481617a12565b82525050565b5f602082019050617a3d5f830184617a1b565b92915050565b5f8115159050919050565b617a5781617a43565b8114617a61575f80fd5b50565b5f81359050617a7281617a4e565b92915050565b5f805f8060808587031215617a9057617a8f617749565b5b5f85013567ffffffffffffffff811115617aad57617aac61774d565b5b617ab987828801617860565b945050602085013567ffffffffffffffff811115617ada57617ad961774d565b5b617ae687828801617860565b935050604085013567ffffffffffffffff811115617b0757617b0661774d565b5b617b1387828801617860565b9250506060617b2487828801617a64565b91505092959194509250565b617b3981617a12565b8114617b43575f80fd5b50565b5f81359050617b5481617b30565b92915050565b5f805f60608486031215617b7157617b70617749565b5b5f84013567ffffffffffffffff811115617b8e57617b8d61774d565b5b617b9a86828701617860565b9350506020617bab86828701617b46565b9250506040617bbc86828701617b46565b9150509250925092565b5f81519050919050565b5f82825260208201905092915050565b5f819050602082019050919050565b5f82825260208201905092915050565b5f617c0982617978565b617c138185617bef565b9350617c23818560208601617992565b617c2c81617759565b840191505092915050565b7f4e487b71000000000000000000000000000000000000000000000000000000005f52602160045260245ffd5b60048110617c7557617c74617c37565b5b50565b5f819050617c8582617c64565b919050565b5f617c9482617c78565b9050919050565b617ca481617c8a565b82525050565b5f61ffff82169050919050565b617cc081617caa565b82525050565b5f60a083015f8301518482035f860152617ce08282617bff565b91505060208301518482036020860152617cfa8282617bff565b91505060408301518482036040860152617d148282617bff565b9150506060830151617d296060860182617c9b565b506080830151617d3c6080860182617cb7565b508091505092915050565b5f617d528383617cc6565b905092915050565b5f602082019050919050565b5f617d7082617bc6565b617d7a8185617bd0565b935083602082028501617d8c85617be0565b805f5b85811015617dc75784840389528151617da88582617d47565b9450617db383617d5a565b925060208a01995050600181019050617d8f565b50829750879550505050505092915050565b5f6040820190508181035f830152617df18185617d66565b9050617e006020830184617a1b565b9392505050565b5f81519050919050565b5f82825260208201905092915050565b5f819050602082019050919050565b5f617e3b8383617bff565b905092915050565b5f602082019050919050565b5f617e5982617e07565b617e638185617e11565b935083602082028501617e7585617e21565b805f5b85811015617eb05784840389528151617e918582617e30565b9450617e9c83617e43565b925060208a01995050600181019050617e78565b50829750879550505050505092915050565b5f6020820190508181035f830152617eda8184617e4f565b905092915050565b5f805f60608486031215617ef957617ef8617749565b5b5f84013567ffffffffffffffff811115617f1657617f1561774d565b5b617f2286828701617860565b935050602084013567ffffffffffffffff811115617f4357617f4261774d565b5b617f4f86828701617860565b9250506040617f6086828701617a64565b9150509250925092565b5f8060408385031215617f8057617f7f617749565b5b5f83013567ffffffffffffffff811115617f9d57617f9c61774d565b5b617fa985828601617860565b925050602083013567ffffffffffffffff811115617fca57617fc961774d565b5b617fd685828601617860565b9150509250929050565b5f805f8060808587031215617ff857617ff7617749565b5b5f85013567ffffffffffffffff8111156180155761801461774d565b5b61802187828801617860565b945050602085013567ffffffffffffffff8111156180425761804161774d565b5b61804e87828801617860565b935050604085013567ffffffffffffffff81111561806f5761806e61774d565b5b61807b87828801617860565b925050606085013567ffffffffffffffff81111561809c5761809b61774d565b5b6180a887828801617860565b91505092959194509250565b5f80604083850312156180ca576180c9617749565b5b5f6180d785828601617b46565b92505060206180e885828601617b46565b9150509250929050565b5f81519050919050565b5f82825260208201905092915050565b5f819050602082019050919050565b5f82825260208201905092915050565b5f61813582617e07565b61813f818561811b565b93508360208202850161815185617e21565b805f5b8581101561818c578484038952815161816d8582617e30565b945061817883617e43565b925060208a01995050600181019050618154565b50829750879550505050505092915050565b5f60c083015f8301518482035f8601526181b88282617bff565b915050602083015184820360208601526181d28282617bff565b915050604083015184820360408601526181ec8282617bff565b91505060608301518482036060860152618206828261812b565b91505060808301518482036080860152618220828261812b565b91505060a083015161823560a0860182617cb7565b508091505092915050565b5f61824b838361819e565b905092915050565b5f602082019050919050565b5f618269826180f2565b61827381856180fc565b9350836020820285016182858561810c565b805f5b858110156182c057848403895281516182a18582618240565b94506182ac83618253565b925060208a01995050600181019050618288565b50829750879550505050505092915050565b5f6060820190508181035f8301526182ea818661825f565b90506182f96020830185617a1b565b6183066040830184617a1b565b949350505050565b61831781617a43565b82525050565b5f6020820190506183305f83018461830e565b92915050565b5f81519050919050565b5f82825260208201905092915050565b5f819050602082019050919050565b600581106183705761836f617c37565b5b50565b5f8190506183808261835f565b919050565b5f61838f82618373565b9050919050565b61839f81618385565b82525050565b5f608083015f8301518482035f8601526183bf8282617bff565b915050602083015184820360208601526183d98282617bff565b91505060408301516183ee6040860182618396565b5060608301516184016060860182617cb7565b508091505092915050565b5f61841783836183a5565b905092915050565b5f602082019050919050565b5f61843582618336565b61843f8185618340565b93508360208202850161845185618350565b805f5b8581101561848c578484038952815161846d858261840c565b94506184788361841f565b925060208a01995050600181019050618454565b50829750879550505050505092915050565b5f6060820190508181035f8301526184b6818661842b565b90506184c56020830185617a1b565b6184d26040830184617a1b565b949350505050565b5f6060820190508181035f8301526184f28186617d66565b90506185016020830185617a1b565b61850e6040830184617a1b565b949350505050565b5f6040820190508181035f83015261852e818561842b565b905061853d6020830184617a1b565b9392505050565b5f60c083015f8301518482035f86015261855e8282617bff565b915050602083015184820360208601526185788282617bff565b915050604083015184820360408601526185928282617bff565b915050606083015184820360608601526185ac828261812b565b915050608083015184820360808601526185c6828261812b565b91505060a08301516185db60a0860182617cb7565b508091505092915050565b5f6020820190508181035f8301526185fe8184618544565b905092915050565b5f8151905061861481617b30565b92915050565b5f6020828403121561862f5761862e617749565b5b5f61863c84828501618606565b91505092915050565b7f474944206e6f74207265676973746572656400000000000000000000000000005f82015250565b5f618679601283617982565b915061868482618645565b602082019050919050565b5f6020820190508181035f8301526186a68161866d565b9050919050565b5f815190506186bb81617a4e565b92915050565b5f602082840312156186d6576186d5617749565b5b5f6186e3848285016186ad565b91505092915050565b7f474944206e6f74206163746976650000000000000000000000000000000000005f82015250565b5f618720600e83617982565b915061872b826186ec565b602082019050919050565b5f6020820190508181035f83015261874d81618714565b9050919050565b5f618766618761846177e1565b6177c7565b90508281526020810184848401111561878257618781617755565b5b61878d848285617992565b509392505050565b5f82601f8301126187a9576187a8617751565b5b81516187b9848260208601618754565b91505092915050565b5f602082840312156187d7576187d6617749565b5b5f82015167ffffffffffffffff8111156187f4576187f361774d565b5b61880084828501618795565b91505092915050565b5f81519050919050565b5f81905092915050565b5f61882782618809565b6188318185618813565b9350618841818560208601617992565b80840191505092915050565b5f618858828461881d565b915081905092915050565b5f73ffffffffffffffffffffffffffffffffffffffff82169050919050565b5f61888c82618863565b9050919050565b61889c81618882565b81146188a6575f80fd5b50565b5f815190506188b781618893565b92915050565b5f602082840312156188d2576188d1617749565b5b5f6188df848285016188a9565b91505092915050565b7f43616c6c6572206e6f7420474944206f776e65720000000000000000000000005f82015250565b5f61891c601483617982565b9150618927826188e8565b602082019050919050565b5f6020820190508181035f83015261894981618910565b9050919050565b5f81905092915050565b5f61896482617978565b61896e8185618950565b935061897e818560208601617992565b80840191505092915050565b5f618995828661895a565b91506189a1828561895a565b91506189ad828461895a565b9150819050949350505050565b5f7fffffffffffffffff00000000000000000000000000000000000000000000000082169050919050565b6189ee816189ba565b82525050565b5f602082019050618a075f8301846189e5565b92915050565b60048110618a19575f80fd5b50565b5f81519050618a2a81618a0d565b92915050565b5f60208284031215618a4557618a44617749565b5b5f618a5284828501618a1c565b91505092915050565b7f53656564205265717565737420616c72656164792065786973747300000000005f82015250565b5f618a8f601b83617982565b9150618a9a82618a5b565b602082019050919050565b5f6020820190508181035f830152618abc81618a83565b9050919050565b7f4e487b71000000000000000000000000000000000000000000000000000000005f52601160045260245ffd5b5f618afa82617a12565b9150618b0583617a12565b9250828201905080821115618b1d57618b1c618ac3565b5b92915050565b5f604082019050618b365f8301856189e5565b618b436020830184617a1b565b9392505050565b5f604082019050618b5d5f830185617a1b565b8181036020830152618b6f81846179ba565b90509392505050565b618b8181617c8a565b82525050565b5f604082019050618b9a5f830185617a1b565b618ba76020830184618b78565b9392505050565b5f6060820190508181035f830152618bc681866179ba565b90508181036020830152618bda81856179ba565b90508181036040830152618bee81846179ba565b9050949350505050565b5f618c0282618863565b9050919050565b618c1281618bf8565b82525050565b5f602082019050618c2b5f830184618c09565b92915050565b7f6163636f756e74206973206e6f742061206e6574776f726b2061646d696e20615f8201527f63636f756e740000000000000000000000000000000000000000000000000000602082015250565b5f618c8b602683617982565b9150618c9682618c31565b604082019050919050565b5f6020820190508181035f830152618cb881618c7f565b9050919050565b7f53656564205265717565737420646f6573206e6f7420657869737400000000005f82015250565b5f618cf3601b83617982565b9150618cfe82618cbf565b602082019050919050565b5f6020820190508181035f830152618d2081618ce7565b9050919050565b7f53656564205265717565737420696e20496e636f7272656374205374617465005f82015250565b5f618d5b601f83617982565b9150618d6682618d27565b602082019050919050565b5f6020820190508181035f830152618d8881618d4f565b9050919050565b5f618d9982617a12565b91505f8203618dab57618daa618ac3565b5b600182039050919050565b5f618dc1828461895a565b915081905092915050565b7f4e487b71000000000000000000000000000000000000000000000000000000005f52603260045260245ffd5b5f618e0382617a12565b91507fffffffffffffffffffffffffffffffffffffffffffffffffffffffffffffffff8203618e3557618e34618ac3565b5b600182019050919050565b5f80fd5b5f80fd5b618e5181617caa565b8114618e5b575f80fd5b50565b5f81519050618e6c81618e48565b92915050565b5f60a08284031215618e8757618e86618e40565b5b618e9160a06177c7565b90505f82015167ffffffffffffffff811115618eb057618eaf618e44565b5b618ebc84828501618795565b5f83015250602082015167ffffffffffffffff811115618edf57618ede618e44565b5b618eeb84828501618795565b602083015250604082015167ffffffffffffffff811115618f0f57618f0e618e44565b5b618f1b84828501618795565b6040830152506060618f2f84828501618a1c565b6060830152506080618f4384828501618e5e565b60808301525092915050565b5f60208284031215618f6457618f63617749565b5b5f82015167ffffffffffffffff811115618f8157618f8061774d565b5b618f8d84828501618e72565b91505092915050565b5f618fa1828561895a565b9150618fad828461895a565b91508190509392505050565b7f4d65726765205265717565737420646f6573206e6f74206578697374000000005f82015250565b5f618fed601c83617982565b9150618ff882618fb9565b602082019050919050565b5f6020820190508181035f83015261901a81618fe1565b9050919050565b6005811061902d575f80fd5b50565b5f8151905061903e81619021565b92915050565b5f6020828403121561905957619058617749565b5b5f61906684828501619030565b91505092915050565b7f4d65726765205265717565737420696e20696e636f72726563742073746174655f82015250565b5f6190a3602083617982565b91506190ae8261906f565b602082019050919050565b5f6020820190508181035f8301526190d081619097565b9050919050565b6190e081618385565b82525050565b5f6040820190506190f95f830185617a1b565b61910660208301846190d7565b9392505050565b5f6040820190508181035f83015261912581856179ba565b9050818103602083015261913981846179ba565b90509392505050565b7f4d65726765205265717565737420616c726561647920657869737473000000005f82015250565b5f619176601c83617982565b915061918182619142565b602082019050919050565b5f6020820190508181035f8301526191a38161916a565b9050919050565b7f2e000000000000000000000000000000000000000000000000000000000000005f82015250565b5f6191de600183618950565b91506191e9826191aa565b600182019050919050565b5f6191ff828561895a565b915061920a826191d2565b9150619216828461895a565b91508190509392505050565b5f6040820190506192355f830185618c09565b818103602083015261924781846179ba565b90509392505050565b7f7065726d697373696f6e732063616c6c206661696c65640000000000000000005f82015250565b5f619284601783617982565b915061928f82619250565b602082019050919050565b5f6020820190508181035f8301526192b181619278565b9050919050565b7f6163636f756e7420646f65736e27742062656c6f6e6720746f2056454e444f525f8201527f53207375626f7267000000000000000000000000000000000000000000000000602082015250565b5f619312602883617982565b915061931d826192b8565b604082019050919050565b5f6020820190508181035f83015261933f81619306565b9050919050565b50565b5f6193545f83618950565b915061935f82619346565b5f82019050919050565b5f61937382619349565b9150819050919050565b7f47494420616c7265616479207265676973746572656420666f7220676976656e5f8201527f206163636f756e74206e616d6500000000000000000000000000000000000000602082015250565b5f6193d7602d83617982565b91506193e28261937d565b604082019050919050565b5f6020820190508181035f830152619404816193cb565b9050919050565b5f619416828761895a565b9150619422828661895a565b915061942e828561895a565b915061943a828461895a565b915081905095945050505050565b5f819050919050565b61945a81619448565b82525050565b5f6020820190506194735f830184619451565b92915050565b5f6040820190508181035f83015261949181856179ba565b90506194a06020830184617a1b565b9392505050565b5f60a0820190508181035f8301526194bf81886179ba565b905081810360208301526194d381876179ba565b905081810360408301526194e781866179ba565b905081810360608301526194fb81856179ba565b9050818103608083015261950f81846179ba565b90509695505050505050565b5f60408201905061952e5f830185617a1b565b61953b6020830184617a1b565b9392505050565b5f67ffffffffffffffff82111561955c5761955b617769565b5b602082029050602081019050919050565b5f80fd5b5f67ffffffffffffffff82111561958b5761958a617769565b5b602082029050602081019050919050565b5f6195ae6195a984619571565b6177c7565b905080838252602082019050602084028301858111156195d1576195d061956d565b5b835b8181101561961857805167ffffffffffffffff8111156195f6576195f5617751565b5b8086016196038982618795565b855260208501945050506020810190506195d3565b5050509392505050565b5f82601f83011261963657619635617751565b5b815161964684826020860161959c565b91505092915050565b5f60c0828403121561966457619663618e40565b5b61966e60c06177c7565b90505f82015167ffffffffffffffff81111561968d5761968c618e44565b5b61969984828501618795565b5f83015250602082015167ffffffffffffffff8111156196bc576196bb618e44565b5b6196c884828501618795565b602083015250604082015167ffffffffffffffff8111156196ec576196eb618e44565b5b6196f884828501618795565b604083015250606082015167ffffffffffffffff81111561971c5761971b618e44565b5b61972884828501619622565b606083015250608082015167ffffffffffffffff81111561974c5761974b618e44565b5b61975884828501619622565b60808301525060a061976c84828501618e5e565b60a08301525092915050565b5f61978a61978584619542565b6177c7565b905080838252602082019050602084028301858111156197ad576197ac61956d565b5b835b818110156197f457805167ffffffffffffffff8111156197d2576197d1617751565b5b8086016197df898261964f565b855260208501945050506020810190506197af565b5050509392505050565b5f82601f83011261981257619811617751565b5b8151619822848260208601619778565b91505092915050565b5f805f6060848603121561984257619841617749565b5b5f84015167ffffffffffffffff81111561985f5761985e61774d565b5b61986b868287016197fe565b935050602061987c86828701618606565b925050604061988d86828701618606565b9150509250925092565b5f67ffffffffffffffff8211156198b1576198b0617769565b5b602082029050602081019050919050565b5f608082840312156198d7576198d6618e40565b5b6198e160806177c7565b90505f82015167ffffffffffffffff811115619900576198ff618e44565b5b61990c84828501618795565b5f83015250602082015167ffffffffffffffff81111561992f5761992e618e44565b5b61993b84828501618795565b602083015250604061994f84828501619030565b604083015250606061996384828501618e5e565b60608301525092915050565b5f61998161997c84619897565b6177c7565b905080838252602082019050602084028301858111156199a4576199a361956d565b5b835b818110156199eb57805167ffffffffffffffff8111156199c9576199c8617751565b5b8086016199d689826198c2565b855260208501945050506020810190506199a6565b5050509392505050565b5f82601f830112619a0957619a08617751565b5b8151619a1984826020860161996f565b91505092915050565b5f805f60608486031215619a3957619a38617749565b5b5f84015167ffffffffffffffff811115619a5657619a5561774d565b5b619a62868287016199f5565b9350506020619a7386828701618606565b9250506040619a8486828701618606565b9150509250925092565b5f619a9882617a12565b9150619aa383617a12565b9250828203905081811115619abb57619aba618ac3565b5b92915050565b7f47494420646f6573206e6f7420657869737400000000000000000000000000005f82015250565b5f619af5601283617982565b9150619b0082619ac1565b602082019050919050565b5f6020820190508181035f830152619b2281619ae9565b9050919050565b5f67ffffffffffffffff821115619b4357619b42617769565b5b602082029050602081019050919050565b5f619b66619b6184619b29565b6177c7565b90508083825260208201905060208402830185811115619b8957619b8861956d565b5b835b81811015619bd057805167ffffffffffffffff811115619bae57619bad617751565b5b808601619bbb8982618e72565b85526020850194505050602081019050619b8b565b5050509392505050565b5f82601f830112619bee57619bed617751565b5b8151619bfe848260208601619b54565b91505092915050565b5f805f60608486031215619c1e57619c1d617749565b5b5f84015167ffffffffffffffff811115619c3b57619c3a61774d565b5b619c4786828701619bda565b9350506020619c5886828701618606565b9250506040619c6986828701618606565b9150509250925092565b5f60208284031215619c8857619c87617749565b5b5f82015167ffffffffffffffff811115619ca557619ca461774d565b5b619cb1848285016198c2565b91505092915050565b7f56656e646f72206e6f74207265676973746572656400000000000000000000005f82015250565b5f619cee601583617982565b9150619cf982619cba565b602082019050919050565b5f6020820190508181035f830152619d1b81619ce2565b9050919050565b5f60208284031215619d3757619d36617749565b5b5f82015167ffffffffffffffff811115619d5457619d5361774d565b5b619d608482850161964f565b91505092915050565b5f60208284031215619d7e57619d7d617749565b5b5f82015167ffffffffffffffff811115619d9b57619d9a61774d565b5b619da784828501619622565b91505092915050565b5f604082019050619dc35f830185617a1b565b619dd0602083018461830e565b9392505050565b7f43616e6e6f74206665746368204163636f756e742044657461696c73000000005f82015250565b5f619e0b601c83617982565b9150619e1682619dd7565b602082019050919050565b5f6020820190508181035f830152619e3881619dff565b9050919050565b7f43616e6e6f742066657463682041646d696e4f72672044657461696c730000005f82015250565b5f619e73601d83617982565b9150619e7e82619e3f565b602082019050919050565b5f6020820190508181035f830152619ea081619e67565b9050919050565b5f805f8060808587031215619ebf57619ebe617749565b5b5f85015167ffffffffffffffff811115619edc57619edb61774d565b5b619ee887828801618795565b945050602085015167ffffffffffffffff811115619f0957619f0861774d565b5b619f1587828801618795565b935050604085015167ffffffffffffffff811115619f3657619f3561774d565b5b619f4287828801618795565b9250506060619f53878288016186ad565b91505092959194509250565b7f47494420616c72656164792072656769737465726564000000000000000000005f82015250565b5f619f93601683617982565b9150619f9e82619f5f565b602082019050919050565b5f6020820190508181035f830152619fc081619f87565b905091905056fea2646970667358221220eedea88f850420c9a41db30d76c2cf9f2568a34a3f5cb2710a91dcebac8cd23c64736f6c63430008140033",
  "immutableReferences": {},
  "source": "pragma solidity ^0.8.0;\npragma experimental ABIEncoderV2;\nimport \"./VendorModel.sol\";\nimport \"./UidUtils.sol\";\n\ncontract VendorManager is VendorStructs {\n\n    string constant private VENDORS_SUBORG = \"VENDORS\";\n\n    address private permIntfAddress; \n    address private permImplementation;\n    address private accountManager;\n    VendorModel private vendorModel;\n    UidUtils private uidUtils;\n\n    event VendorRegistered(string _vendorGid, string _vendorSystemName, string _vendorExternalName,\n        string _egpExternalId, string _egpSystemId);\n        \n    event MergeRequestInitiated(string _gid1, string _gid2);\n    event MergeRequestSubmitted(string _gid1, string _gid2);\n    event MergeRequestApproved(string _gid1, string _gid2);\n    event MergeRequestRejected(string _gid1, string _gid2);\n    event MergeRequestExpired(string _gid1, string _gid2);\n\n    event SeedRequestSubmitted(string _gid, string _egpExternalId, string _egpSystemId);\n    event SeedRequestApproved(string _gid, string _egpExternalId, string _egpSystemId);\n    event SeedRequestRejected(string _gid, string _egpExternalId, string _egpSystemId);\n    event SeedRequestExpired(string _gid, string _egpExternalId, string _egpSystemId);\n    \n    constructor (address _permIntf, address _permImpl, address _accountManager, address _vendorModel, address _uidUtils) {\n        permIntfAddress = _permIntf;\n        permImplementation = _permImpl;\n        accountManager = _accountManager;\n        vendorModel = VendorModel(_vendorModel);\n        uidUtils = UidUtils(_uidUtils);\n    }\n\n    modifier networkAdmin() {\n        (bool success, bytes memory data) = permIntfAddress.call(\n            abi.encodeWithSignature(\"isNetworkAdmin(address)\", msg.sender)\n        );\n        require(abi.decode(data, (bool)), \"account is not a network admin account\");\n        _;\n    }\n\n    modifier validateVendorsAccount(string memory _accountName) {\n        (bool success, bytes memory data) = permIntfAddress.call(\n            abi.encodeWithSignature(\n                \"validateOrgAndAccount(address,string)\",\n                _getAccountAddress(_accountName),\n                string(abi.encodePacked(_getAdminOrg(),\".\",VENDORS_SUBORG))\n            )\n        );\n        require(\n            success,\n            \"permissions call failed\"\n        );\n        bool isValid = abi.decode(data, (bool));\n        require(\n            isValid,\n            \"account doesn't belong to VENDORS suborg\"\n        );\n        _;\n    }\n\n    modifier gidOwner(string memory _gid){\n        (bool success, bytes memory data) = accountManager.call(\n            abi.encodeWithSignature(\"getAccountAddress(string)\", vendorModel.getVendorAccountName(_getVendorIndex(_gid)))\n        );\n        require(msg.sender==abi.decode(data, (address)), \"Caller not GID owner\");\n        _;\n    }\n\n    modifier vendorExists(string memory _gid){\n        require(vendorModel.getVendorIndex(_gid)>0, \"Vendor not registered\");\n        _;\n    }\n\n    modifier gidExists(string memory _gid){\n        require(vendorModel.getGidIndex(_gid)>0, \"GID not registered\");\n        _;\n    }\n\n    modifier gidNotExists(string memory _gid){\n        require(vendorModel.getGidIndex(_gid)==0, \"GID already registered\");\n        _;\n    }\n\n    modifier gidActive(string memory _gid){\n        require(vendorModel.getGidIndex(_gid)>0, \"GID not registered\");\n        require(vendorModel.getGidActive(_getGidIndex(_gid)), \"GID not active\");\n        _;\n    }\n\n    modifier mergeRequestActive(string memory _gid1, string memory _gid2){\n        bytes8 uid = bytes8(keccak256(abi.encodePacked(_gid1, _gid2)));\n        require(vendorModel.getMergeIndex(uid)>0, \"Merge Request does not exist\");\n        uint id = _getMergeRequestIndex(uid);\n        MergeRequestState state = vendorModel.getMergeRequestState(id);\n        require((state==MergeRequestState.INITIATED) || (state==MergeRequestState.SUBMITTED), \"Merge Request in incorrect state\");\n        _;\n    }\n\n    modifier mergeRequestInitiatable(string memory _gid1, string memory _gid2){\n        bytes8 uid = bytes8(keccak256(abi.encodePacked(_gid1, _gid2)));\n        if(vendorModel.getMergeIndex(uid)>0){\n            MergeRequestState state = vendorModel.getMergeRequestState(_getMergeRequestIndex(uid));\n            require((state==MergeRequestState.REJECTED||(state==MergeRequestState.EXPIRED)), \"Merge Request already exists\");\n        }\n        _;\n    }\n\n    modifier mergeRequestSubmittable(string memory _gid1, string memory _gid2){\n        bytes8 uid = bytes8(keccak256(abi.encodePacked(_gid1, _gid2)));\n        require(vendorModel.getMergeIndex(uid)>0, \"Merge Request does not exist\");\n        uint id = _getMergeRequestIndex(uid);\n        require(vendorModel.getMergeRequestState(id)==MergeRequestState.INITIATED, \"Merge Request in incorrect state\");\n        _;\n    }\n    \n    modifier mergeRequestApprovable(string memory _gid1, string memory _gid2){\n        bytes8 uid = bytes8(keccak256(abi.encodePacked(_gid1, _gid2)));\n        require(vendorModel.getMergeIndex(uid)>0, \"Merge Request does not exist\");\n        uint id = _getMergeRequestIndex(uid);\n        require(vendorModel.getMergeRequestState(id)==MergeRequestState.SUBMITTED, \"Merge Request in incorrect state\");\n        _;\n    }\n\n    modifier seedRequestSubmittable(string memory _gid, string memory vendorEgpId, string memory vendorEgpOrgId){\n        bytes8 uid = bytes8(keccak256(abi.encodePacked(_gid, vendorEgpId, vendorEgpOrgId)));\n        if(vendorModel.getSeedRequestIndex(uid)>0){\n            SeedRequestState state = vendorModel.getSeedRequestState(_getSeedRequestIndex(uid));\n            require((state==SeedRequestState.REJECTED)||(state==SeedRequestState.EXPIRED), \"Seed Request already exists\");\n        }\n        _;\n    }\n\n    modifier seedRequestApprovable(string memory _gid, string memory vendorEgpId, string memory vendorEgpOrgId){\n        bytes8 uid = bytes8(keccak256(abi.encodePacked(_gid, vendorEgpId, vendorEgpOrgId)));\n        require(vendorModel.getSeedRequestIndex(uid)>0, \"Seed Request does not exist\");\n        uint id = _getSeedRequestIndex(uid);\n        require(vendorModel.getSeedRequestState(id)==SeedRequestState.SUBMITTED, \"Seed Request in Incorrect State\");\n        _;\n    } \n\n    function registerVendor(string memory _vendorName, string memory _externalId, string memory _orgId, string memory _accountName) public \n    networkAdmin\n    validateVendorsAccount(_accountName) {\n        require(keccak256(abi.encodePacked(getGidForVendor(_accountName)))==keccak256(abi.encodePacked('')),\"GID already registered for given account name\");\n        string memory gid = uidUtils.bytes32ToAlphanumeric7(keccak256(abi.encodePacked(_vendorName, _externalId, _orgId, _accountName)));\n        gid = uidUtils.addLuhnCheckDigit(gid);\n        uint id = vendorModel.getVendorListLength();\n        vendorModel.setVendorIndex(gid, 1+id);\n        vendorModel.incVendorListLength();\n        vendorModel.setVendorGidMap(_accountName, gid);\n        vendorModel.setVendorGid(id, gid);\n        vendorModel.setVendorAccountName(id, _accountName);\n        vendorModel.setVendorVendorEgpName(id, _vendorName);\n        vendorModel.addVendorVendorEgpId(id, _externalId);\n        vendorModel.addVendorVendorEgpOrgId(id, _orgId);\n        vendorModel.setVendorVersion(id);\n        emit VendorRegistered(gid, _accountName, _vendorName, _externalId, _orgId);\n        _registerGID(gid);\n    }\n\n    function getAllVendors(uint _toExcluded, uint _count) public view\n    returns(Vendor[] memory _vendor, uint fromIncluded_, uint length_) {\n        (_vendor,fromIncluded_, length_) = vendorModel.getAllVendors(_toExcluded, _count);\n    }\n\n    function getVendorByGid(string memory _gid) public view \n    vendorExists(_gid)\n    returns (Vendor memory) {\n        require(vendorModel.getVendorIndex(_gid)>0,\"GID does not exist\");\n        uint id = _getVendorIndex(_gid);\n        return vendorModel.getVendorByIndex(id);\n    }\n\n    function getGidForVendor(string memory _accountName) public view \n    returns(string memory) {\n        return vendorModel.getVendorGidMap(_accountName);\n    }\n    \n    function initiateGidMerge(string memory _gid1, string memory _gid2) public \n    gidActive(_gid1)\n    gidActive(_gid2)\n    gidOwner(_gid1) \n    mergeRequestInitiatable(_gid1, _gid2) {\n        bytes8 uid = bytes8(keccak256(abi.encodePacked(_gid1, _gid2)));\n        if (vendorModel.getMergeIndex(uid)>0) {\n            vendorModel.setMergeRequestState(_getMergeRequestIndex(uid), MergeRequestState.INITIATED);\n        } else {\n            uint id = vendorModel.getMergeListLength();\n            vendorModel.setMergeIndex(uid, 1+id);\n            vendorModel.incMergeRequestListLength();\n            vendorModel.setMergeRequestGid1(id, _gid1);\n            vendorModel.setMergeRequestGid2(id, _gid2);\n            vendorModel.setMergeRequestState(id, MergeRequestState.INITIATED);\n            vendorModel.setMergeRequestVersion(id);\n        }\n        emit MergeRequestInitiated(_gid1, _gid2);\n    }\n\n    function submitGidMerge(string memory _gid1, string memory _gid2, bool _approval) public \n    gidActive(_gid1)\n    gidActive(_gid2)\n    gidOwner(_gid2) \n    mergeRequestSubmittable(_gid1, _gid2){\n        bytes8 uid = bytes8(keccak256(abi.encodePacked(_gid1, _gid2)));\n        uint id = _getMergeRequestIndex(uid);\n        if(!_approval){\n            vendorModel.setMergeRequestState(id, MergeRequestState.REJECTED);\n            emit MergeRequestRejected(_gid1, _gid2);\n            return;\n        }\n        vendorModel.setMergeRequestState(id, MergeRequestState.SUBMITTED);\n        emit MergeRequestSubmitted(_gid1, _gid2);\n    }\n\n    function approveGidMerge(string memory _gid1, string memory _gid2, bool _approval) public \n    mergeRequestApprovable(_gid1, _gid2)\n    networkAdmin {\n        bytes8 uid = bytes8(keccak256(abi.encodePacked(_gid1, _gid2)));\n        uint id = _getMergeRequestIndex(uid);\n        if(!_approval){\n            vendorModel.setMergeRequestState(id, MergeRequestState.REJECTED);\n            emit MergeRequestRejected(_gid1, _gid2);\n            return;\n        }\n        _mergeGIDs(_gid2, _gid1);  \n        vendorModel.setMergeRequestState(id, MergeRequestState.APPROVED);\n        emit MergeRequestApproved(_gid1, _gid2);\n    }\n\n    function expireGidMerge(string memory _gid1, string memory _gid2) public\n    mergeRequestActive(_gid1, _gid2) \n    networkAdmin {\n        bytes8 uid = bytes8(keccak256(abi.encodePacked(_gid1, _gid2)));\n        uint id = _getMergeRequestIndex(uid);\n        vendorModel.setMergeRequestState(id, MergeRequestState.EXPIRED);\n        emit MergeRequestExpired(_gid1, _gid2);\n    }\n\n    function getAllMergeRequests(uint _toExcluded, uint _count) public view \n    returns (MergeRequest[] memory, uint fromIncluded_, uint length_){\n        return vendorModel.getAllMergeRequests(_toExcluded,_count);\n    }\n\n    function getActiveMergeRequests(uint _toExcluded, uint _count) public view \n    returns (MergeRequest[] memory activeMergeRequests_, uint fromIncluded_){\n        uint length = vendorModel.getMergeListLength();\n        if (_toExcluded > length) {\n            _toExcluded = length;\n        }\n        uint filteredLength = 0;\n        uint itr = _count>_toExcluded ? _toExcluded:_count;\n        uint[] memory filteredIndexes = new uint[](itr);\n        while (_toExcluded>0 && filteredLength<itr) {\n            _toExcluded--;\n            MergeRequestState mergeState = vendorModel.getMergeRequestState(_toExcluded);\n            if((mergeState==MergeRequestState.INITIATED)\n                    ||(mergeState==MergeRequestState.SUBMITTED)){\n                filteredIndexes[filteredLength] = _toExcluded;\n                filteredLength++;\n            }\n        }\n        fromIncluded_ = _toExcluded;\n        activeMergeRequests_ = new MergeRequest[](filteredLength);\n        for(uint i=0;i<filteredLength;i++) {\n            activeMergeRequests_[i]=vendorModel.getMergeRequestByIndex(filteredIndexes[i]);\n        }\n    }\n\n\n    function submitGidSeedRequest(string memory _gid, string memory _vendorEgpId, string memory _vendorEgpOrgId) public  \n    gidActive(_gid) \n    gidOwner(_gid) \n    seedRequestSubmittable(_gid, _vendorEgpId, _vendorEgpOrgId)\n    {\n        bytes8 uid = bytes8(keccak256(abi.encodePacked(_gid, _vendorEgpId, _vendorEgpOrgId)));\n        uint256 id = vendorModel.getSeedListLength();\n        vendorModel.incSeedRequestListLength();\n        vendorModel.setSeedRequestIndex(uid, 1+id);\n        vendorModel.setSeedRequestGid(id, _gid);\n        vendorModel.setSeedRequestVendorEgpId(id, _vendorEgpId);\n        vendorModel.setSeedRequestVendorEgpOrgId(id, _vendorEgpOrgId);\n        vendorModel.setSeedRequestState(id, SeedRequestState.SUBMITTED);\n        vendorModel.setSeedRequestVersion(id);\n        emit SeedRequestSubmitted(_gid, _vendorEgpId, _vendorEgpOrgId);\n    }\n\n    function approveGidSeedRequest(string memory _gid, string memory _vendorEgpId, string memory _vendorEgpOrgId, bool approval) public \n    networkAdmin\n    gidActive(_gid)\n    seedRequestApprovable(_gid, _vendorEgpId, _vendorEgpOrgId) {\n        uint id = _getSeedRequestIndex(bytes8(keccak256(abi.encodePacked(_gid, _vendorEgpId, _vendorEgpOrgId))));\n        if (!approval) {\n            vendorModel.setSeedRequestState(id, SeedRequestState.REJECTED);\n            emit SeedRequestRejected(_gid, _vendorEgpId, _vendorEgpOrgId);\n            return;\n        }\n        uint vendorId = _getVendorIndex(_gid);\n        vendorModel.addVendorVendorEgpId(vendorId, _vendorEgpId);\n        vendorModel.addVendorVendorEgpOrgId(vendorId, _vendorEgpOrgId);\n        vendorModel.setSeedRequestState(id, SeedRequestState.APPROVED);\n        vendorModel.incSeedApprovedListLength();\n        emit SeedRequestApproved(_gid, _vendorEgpId, _vendorEgpOrgId);\n    }\n\n    function expireGidSeedRequest(string memory _gid, string memory _vendorEgpId, string memory _vendorEgpOrgId) public \n    networkAdmin\n    seedRequestApprovable(_gid, _vendorEgpId, _vendorEgpOrgId) {\n        bytes8 uid = bytes8(keccak256(abi.encodePacked(_gid, _vendorEgpId, _vendorEgpOrgId)));\n        uint id = _getSeedRequestIndex(uid);\n        vendorModel.setSeedRequestState(id, SeedRequestState.EXPIRED);\n        emit SeedRequestExpired(_gid, _vendorEgpId, _vendorEgpOrgId);\n    }\n\n    function getAllSeedRequests(uint _toExcluded, uint _count) public view \n    returns(GidSeedRequest[] memory, uint fromIncluded_, uint length_) {\n        return vendorModel.getAllGidSeedRequests(_toExcluded, _count);\n    }\n\n    function getActiveSeedRequests(uint _toExcluded, uint _count) public view \n    returns(GidSeedRequest[] memory activeSeedRequests_, uint fromIncluded_) {\n        uint length = vendorModel.getSeedListLength();\n        if (_toExcluded > length) {\n            _toExcluded = length;\n        }\n        uint filteredCount = 0;\n        uint itr = _count>_toExcluded ? _toExcluded:_count;\n        uint[] memory filteredIndexes = new uint[](itr);\n        while (_toExcluded>0 && filteredCount<itr) {\n            _toExcluded--;\n            if(vendorModel.getSeedRequestState(_toExcluded)==SeedRequestState.SUBMITTED){\n                filteredIndexes[filteredCount] = _toExcluded;\n                filteredCount++;\n            }\n        }\n        fromIncluded_ = _toExcluded;\n        activeSeedRequests_ = new GidSeedRequest[](filteredCount);\n        for (uint256 j = 0; j < filteredCount; j++) {\n            activeSeedRequests_[j] = vendorModel.getSeedRequestByIndex(filteredIndexes[j]);\n        }\n    }\n\n    function getSeedRequestsForVendor(string memory _gid, uint _toExcluded, uint _count) public view \n    returns(GidSeedRequest[] memory vendorSeedRequests_, uint fromIncluded_) {\n        uint length = vendorModel.getSeedListLength();\n        if (_toExcluded > length) {\n            _toExcluded = length;\n        }\n        uint filteredCount = 0;\n        uint itr = _count>_toExcluded ? _toExcluded:_count;\n        uint[] memory filteredIndexes = new uint[](itr);\n        while (_toExcluded>0 && filteredCount<itr) {\n            _toExcluded--;\n            if(keccak256(abi.encodePacked(vendorModel.getSeedRequestGid(_toExcluded)))==keccak256(abi.encodePacked(_gid))){\n                filteredIndexes[filteredCount] = _toExcluded;\n                filteredCount++;\n            }\n        }\n        fromIncluded_ = _toExcluded;\n        vendorSeedRequests_ = new GidSeedRequest[](filteredCount);\n        for (uint256 j = 0; j < filteredCount; j++) {\n            vendorSeedRequests_[j] = vendorModel.getSeedRequestByIndex(filteredIndexes[j]);\n        }\n    }\n    \n    function _registerGID (string memory _gid) internal \n    gidNotExists(_gid){\n        uint id = vendorModel.getGidListLength();\n        vendorModel.setGidIndex(_gid, 1+id);\n        vendorModel.incGidListLength();\n        vendorModel.setGidGid(id, _gid);\n        vendorModel.setGidVersion(id);\n        vendorModel.setGidActive(id, true);\n    }\n\n    function _mergeGIDs(string memory _gidP, string memory _gidC) internal \n    gidExists(_gidP) \n    gidExists(_gidC)\n    gidActive(_gidP)\n    gidActive(_gidC) {\n        uint pId = _getGidIndex(_gidP);\n        uint cId = _getGidIndex(_gidC);\n        vendorModel.setGidParentGid(cId, _gidP);\n        vendorModel.setGidActive(cId, false);\n        vendorModel.setGidVersion(cId);\n        vendorModel.addGidChildrenGids(pId, _gidC);\n    }\n\n    function getUltimateParentGID(string memory _gid) external view returns (string memory) {\n        return _getUltParent(_gid);\n    }\n\n    function getParentGID(string memory _gid) external view returns (string memory) {\n        return vendorModel.getGidParentGid(_getGidIndex(_gid));\n    }\n\n    function getAllChildrenGIDs(string memory _gid) external view \n    gidExists(_gid) \n    returns (string[] memory) {\n        return _getAllChildrenGIDs(_gid);\n    }\n\n    function getChildrenGIDs(string memory _gid) external view returns (string[] memory) {\n        return vendorModel.getGidChildrenGids(_getGidIndex(_gid));\n    }\n\n    function isGidExists(string memory _gid) external view returns(bool){\n        return (vendorModel.getGidIndex(_gid)>0);\n    }\n\n    function isGidActive(string memory _gid) external view returns(bool){\n        require(vendorModel.getGidIndex(_gid)>0, \"GID does not exist\");\n        return vendorModel.getGidActive(_getGidIndex(_gid));\n    }\n\n    function _getUltParent(string memory _gid) private view returns(string memory){\n        if(vendorModel.getGidActive(_getGidIndex(_gid))) {\n            return _gid;\n        }\n        return _getUltParent(vendorModel.getGidParentGid(_getGidIndex(_gid)));\n    }\n\n    function _getAllChildrenGIDs(string memory _gid) private view returns (string [] memory gidList_) {\n        gidList_ = new string[](1);\n        gidList_[0] = _gid;\n        string [] memory childrenGids = vendorModel.getGidChildrenGids(_getGidIndex(_gid));\n        string [] memory cGids;\n        string [] memory concatArr;\n        for (uint256 i = 0; i < childrenGids.length; i++) {\n            cGids = _getAllChildrenGIDs(childrenGids[i]);\n            concatArr = new string[](gidList_.length + cGids.length);\n            for (uint256 j = 0; j < gidList_.length; j++) {\n                concatArr[j] = gidList_[i];\n            }\n            for (uint256 k = 0; k < cGids.length; k++) {\n                concatArr[k+gidList_.length] = cGids[k];\n            }\n            gidList_ = concatArr;\n        }\n    }\n\n    function _getVendorIndex(string memory _gid) private view returns (uint){\n        return vendorModel.getVendorIndex(_gid) - 1;\n    }\n\n    function _getGidIndex(string memory _gid) private view returns (uint){\n        return vendorModel.getGidIndex(_gid) - 1;\n    }\n\n    function _getMergeRequestIndex(bytes8 _uid) private view returns (uint){\n        return vendorModel.getMergeIndex(_uid) - 1;\n    }\n\n    function _getSeedRequestIndex(bytes8 _uid) private view returns (uint){\n        return vendorModel.getSeedRequestIndex(_uid) - 1;\n    }\n\n    function _getAdminOrg() private returns (string memory adminOrg_) {\n        (bool success, bytes memory data) = permImplementation.call(\n            abi.encodeWithSignature(\"getPolicyDetails()\")\n        );\n        require(success, \"Cannot fetch AdminOrg Details\");\n        (adminOrg_,,,) = abi.decode(data, (string, string, string, bool));\n    }\n\n    function _getAccountAddress(string memory _accountName) private returns(address) {\n        (bool success, bytes memory data) = accountManager.call(\n            abi.encodeWithSignature(\n                \"getAccountAddress(string)\",\n                _accountName\n            )\n        );\n        require(success, \"Cannot fetch Account Details\");\n        return abi.decode(data,(address));\n    }\n\n\n    function getActiveVendorListLength() public view returns(uint256)\n    {\n        uint256 length = vendorModel.getVendorListLength() - vendorModel.getMergeApprovedListLength() - vendorModel.getSeedApprovedListLength();\n        return length;\n    }\n\n    function getMergeApprovedListLength() public view returns(uint256)\n    {\n        return vendorModel.getMergeApprovedListLength();\n    }\n\n    function getSeedApprovedListLength() public view returns(uint256)\n    {\n        return vendorModel.getSeedApprovedListLength();\n    }\n    \n    function getTotalVendorListLength() public view returns(uint256)\n    {\n        return vendorModel.getVendorListLength();\n    }\n\n}",
  "sourcePath": "/home/raghupathi/Desktop/javaClass/javaClass/contracts/VendorManager.sol",
  "compiler": {
    "name": "solc",
    "version": "0.8.20+commit.a1b79de6.Emscripten.clang"
  },
  "schemaVersion": "3.4.14",
  "updatedAt": "2023-06-02T09:43:22.673Z",
  "devdoc": {
    "kind": "dev",
    "methods": {},
    "version": 1
  },
  "userdoc": {
    "kind": "user",
    "methods": {},
    "version": 1
  }
}