{
  "contractName": "WorkExperienceManager",
  "abi": [
    {
      "inputs": [
        {
          "internalType": "address",
          "name": "_permIntfAddress",
          "type": "address"
        },
        {
          "internalType": "address",
          "name": "_accountManagerAddress",
          "type": "address"
        },
        {
          "internalType": "address",
          "name": "_procuringEntityManager",
          "type": "address"
        },
        {
          "internalType": "address",
          "name": "_vendorManager",
          "type": "address"
        },
        {
          "internalType": "address",
          "name": "_aocManager",
          "type": "address"
        },
        {
          "internalType": "address",
          "name": "_workExperienceModel",
          "type": "address"
        }
      ],
      "stateMutability": "nonpayable",
      "type": "constructor"
    },
    {
      "anonymous": false,
      "inputs": [
        {
          "indexed": false,
          "internalType": "bytes8",
          "name": "_weUid",
          "type": "bytes8"
        },
        {
          "indexed": false,
          "internalType": "string",
          "name": "_aocReferenceNumber",
          "type": "string"
        },
        {
          "indexed": false,
          "internalType": "string",
          "name": "_egpSystemId",
          "type": "string"
        },
        {
          "indexed": false,
          "internalType": "string",
          "name": "_peGid",
          "type": "string"
        },
        {
          "indexed": false,
          "internalType": "string",
          "name": "_peName",
          "type": "string"
        }
      ],
      "name": "WorkExperienceAdded",
      "type": "event"
    },
    {
      "inputs": [
        {
          "components": [
            {
              "internalType": "bytes8",
              "name": "uid",
              "type": "bytes8"
            },
            {
              "internalType": "string",
              "name": "awardReference",
              "type": "string"
            },
            {
              "internalType": "uint256",
              "name": "workExperienceCertificateIssuanceDate",
              "type": "uint256"
            },
            {
              "internalType": "string",
              "name": "contractCompletedValue",
              "type": "string"
            },
            {
              "internalType": "enum WorkExperienceStructs.WorkStatus",
              "name": "workStatus",
              "type": "uint8"
            },
            {
              "internalType": "string",
              "name": "remarks",
              "type": "string"
            },
            {
              "internalType": "enum WorkExperienceStructs.SupplierRating",
              "name": "supplierRating",
              "type": "uint8"
            },
            {
              "internalType": "string",
              "name": "workExperienceFileHash",
              "type": "string"
            },
            {
              "internalType": "string",
              "name": "egpSystemId",
              "type": "string"
            },
            {
              "internalType": "string",
              "name": "procuringEntityGid",
              "type": "string"
            },
            {
              "internalType": "string",
              "name": "procuringEntityName",
              "type": "string"
            },
            {
              "internalType": "string",
              "name": "procuringEntityRepresentativeName",
              "type": "string"
            },
            {
              "internalType": "string",
              "name": "procuringEntityRepresentativeDesignation",
              "type": "string"
            },
            {
              "internalType": "string",
              "name": "subject",
              "type": "string"
            },
            {
              "internalType": "bytes8",
              "name": "awardOfContractId",
              "type": "bytes8"
            },
            {
              "internalType": "uint16",
              "name": "version",
              "type": "uint16"
            }
          ],
          "internalType": "struct WorkExperienceStructs.WorkExperience",
          "name": "_workEx",
          "type": "tuple"
        }
      ],
      "name": "addWorkExperience",
      "outputs": [],
      "stateMutability": "nonpayable",
      "type": "function"
    },
    {
      "inputs": [
        {
          "internalType": "uint256",
          "name": "_toExcluded",
          "type": "uint256"
        },
        {
          "internalType": "uint256",
          "name": "_count",
          "type": "uint256"
        }
      ],
      "name": "getAllWorkExperience",
      "outputs": [
        {
          "components": [
            {
              "internalType": "bytes8",
              "name": "uid",
              "type": "bytes8"
            },
            {
              "internalType": "string",
              "name": "awardReference",
              "type": "string"
            },
            {
              "internalType": "uint256",
              "name": "workExperienceCertificateIssuanceDate",
              "type": "uint256"
            },
            {
              "internalType": "string",
              "name": "contractCompletedValue",
              "type": "string"
            },
            {
              "internalType": "enum WorkExperienceStructs.WorkStatus",
              "name": "workStatus",
              "type": "uint8"
            },
            {
              "internalType": "string",
              "name": "remarks",
              "type": "string"
            },
            {
              "internalType": "enum WorkExperienceStructs.SupplierRating",
              "name": "supplierRating",
              "type": "uint8"
            },
            {
              "internalType": "string",
              "name": "workExperienceFileHash",
              "type": "string"
            },
            {
              "internalType": "string",
              "name": "egpSystemId",
              "type": "string"
            },
            {
              "internalType": "string",
              "name": "procuringEntityGid",
              "type": "string"
            },
            {
              "internalType": "string",
              "name": "procuringEntityName",
              "type": "string"
            },
            {
              "internalType": "string",
              "name": "procuringEntityRepresentativeName",
              "type": "string"
            },
            {
              "internalType": "string",
              "name": "procuringEntityRepresentativeDesignation",
              "type": "string"
            },
            {
              "internalType": "string",
              "name": "subject",
              "type": "string"
            },
            {
              "internalType": "bytes8",
              "name": "awardOfContractId",
              "type": "bytes8"
            },
            {
              "internalType": "uint16",
              "name": "version",
              "type": "uint16"
            }
          ],
          "internalType": "struct WorkExperienceStructs.WorkExperience[]",
          "name": "_workEx",
          "type": "tuple[]"
        },
        {
          "internalType": "uint256",
          "name": "fromIncluded_",
          "type": "uint256"
        },
        {
          "internalType": "uint256",
          "name": "length_",
          "type": "uint256"
        }
      ],
      "stateMutability": "view",
      "type": "function"
    },
    {
      "inputs": [
        {
          "internalType": "bytes8",
          "name": "_uid",
          "type": "bytes8"
        }
      ],
      "name": "getWorkExperience",
      "outputs": [
        {
          "components": [
            {
              "internalType": "bytes8",
              "name": "uid",
              "type": "bytes8"
            },
            {
              "internalType": "string",
              "name": "awardReference",
              "type": "string"
            },
            {
              "internalType": "uint256",
              "name": "workExperienceCertificateIssuanceDate",
              "type": "uint256"
            },
            {
              "internalType": "string",
              "name": "contractCompletedValue",
              "type": "string"
            },
            {
              "internalType": "enum WorkExperienceStructs.WorkStatus",
              "name": "workStatus",
              "type": "uint8"
            },
            {
              "internalType": "string",
              "name": "remarks",
              "type": "string"
            },
            {
              "internalType": "enum WorkExperienceStructs.SupplierRating",
              "name": "supplierRating",
              "type": "uint8"
            },
            {
              "internalType": "string",
              "name": "workExperienceFileHash",
              "type": "string"
            },
            {
              "internalType": "string",
              "name": "egpSystemId",
              "type": "string"
            },
            {
              "internalType": "string",
              "name": "procuringEntityGid",
              "type": "string"
            },
            {
              "internalType": "string",
              "name": "procuringEntityName",
              "type": "string"
            },
            {
              "internalType": "string",
              "name": "procuringEntityRepresentativeName",
              "type": "string"
            },
            {
              "internalType": "string",
              "name": "procuringEntityRepresentativeDesignation",
              "type": "string"
            },
            {
              "internalType": "string",
              "name": "subject",
              "type": "string"
            },
            {
              "internalType": "bytes8",
              "name": "awardOfContractId",
              "type": "bytes8"
            },
            {
              "internalType": "uint16",
              "name": "version",
              "type": "uint16"
            }
          ],
          "internalType": "struct WorkExperienceStructs.WorkExperience",
          "name": "workExperience",
          "type": "tuple"
        }
      ],
      "stateMutability": "view",
      "type": "function"
    },
    {
      "inputs": [
        {
          "internalType": "bytes8",
          "name": "_aocId",
          "type": "bytes8"
        },
        {
          "internalType": "uint256",
          "name": "_toExcluded",
          "type": "uint256"
        },
        {
          "internalType": "uint256",
          "name": "_count",
          "type": "uint256"
        }
      ],
      "name": "getAocWorkExperienceListIndices",
      "outputs": [
        {
          "components": [
            {
              "internalType": "bytes8",
              "name": "uid",
              "type": "bytes8"
            },
            {
              "internalType": "string",
              "name": "awardReference",
              "type": "string"
            },
            {
              "internalType": "uint256",
              "name": "workExperienceCertificateIssuanceDate",
              "type": "uint256"
            },
            {
              "internalType": "string",
              "name": "contractCompletedValue",
              "type": "string"
            },
            {
              "internalType": "enum WorkExperienceStructs.WorkStatus",
              "name": "workStatus",
              "type": "uint8"
            },
            {
              "internalType": "string",
              "name": "remarks",
              "type": "string"
            },
            {
              "internalType": "enum WorkExperienceStructs.SupplierRating",
              "name": "supplierRating",
              "type": "uint8"
            },
            {
              "internalType": "string",
              "name": "workExperienceFileHash",
              "type": "string"
            },
            {
              "internalType": "string",
              "name": "egpSystemId",
              "type": "string"
            },
            {
              "internalType": "string",
              "name": "procuringEntityGid",
              "type": "string"
            },
            {
              "internalType": "string",
              "name": "procuringEntityName",
              "type": "string"
            },
            {
              "internalType": "string",
              "name": "procuringEntityRepresentativeName",
              "type": "string"
            },
            {
              "internalType": "string",
              "name": "procuringEntityRepresentativeDesignation",
              "type": "string"
            },
            {
              "internalType": "string",
              "name": "subject",
              "type": "string"
            },
            {
              "internalType": "bytes8",
              "name": "awardOfContractId",
              "type": "bytes8"
            },
            {
              "internalType": "uint16",
              "name": "version",
              "type": "uint16"
            }
          ],
          "internalType": "struct WorkExperienceStructs.WorkExperience[]",
          "name": "_aocWorkExperiences",
          "type": "tuple[]"
        },
        {
          "internalType": "uint256",
          "name": "fromIncluded_",
          "type": "uint256"
        },
        {
          "internalType": "uint256",
          "name": "length_",
          "type": "uint256"
        }
      ],
      "stateMutability": "view",
      "type": "function"
    },
    {
      "inputs": [
        {
          "internalType": "string",
          "name": "_peGid",
          "type": "string"
        },
        {
          "internalType": "uint256",
          "name": "_toExcluded",
          "type": "uint256"
        },
        {
          "internalType": "uint256",
          "name": "_count",
          "type": "uint256"
        }
      ],
      "name": "getPEWorkExperienceListIndices",
      "outputs": [
        {
          "components": [
            {
              "internalType": "bytes8",
              "name": "uid",
              "type": "bytes8"
            },
            {
              "internalType": "string",
              "name": "awardReference",
              "type": "string"
            },
            {
              "internalType": "uint256",
              "name": "workExperienceCertificateIssuanceDate",
              "type": "uint256"
            },
            {
              "internalType": "string",
              "name": "contractCompletedValue",
              "type": "string"
            },
            {
              "internalType": "enum WorkExperienceStructs.WorkStatus",
              "name": "workStatus",
              "type": "uint8"
            },
            {
              "internalType": "string",
              "name": "remarks",
              "type": "string"
            },
            {
              "internalType": "enum WorkExperienceStructs.SupplierRating",
              "name": "supplierRating",
              "type": "uint8"
            },
            {
              "internalType": "string",
              "name": "workExperienceFileHash",
              "type": "string"
            },
            {
              "internalType": "string",
              "name": "egpSystemId",
              "type": "string"
            },
            {
              "internalType": "string",
              "name": "procuringEntityGid",
              "type": "string"
            },
            {
              "internalType": "string",
              "name": "procuringEntityName",
              "type": "string"
            },
            {
              "internalType": "string",
              "name": "procuringEntityRepresentativeName",
              "type": "string"
            },
            {
              "internalType": "string",
              "name": "procuringEntityRepresentativeDesignation",
              "type": "string"
            },
            {
              "internalType": "string",
              "name": "subject",
              "type": "string"
            },
            {
              "internalType": "bytes8",
              "name": "awardOfContractId",
              "type": "bytes8"
            },
            {
              "internalType": "uint16",
              "name": "version",
              "type": "uint16"
            }
          ],
          "internalType": "struct WorkExperienceStructs.WorkExperience[]",
          "name": "_peWorkExperiences",
          "type": "tuple[]"
        },
        {
          "internalType": "uint256",
          "name": "fromIncluded_",
          "type": "uint256"
        },
        {
          "internalType": "uint256",
          "name": "length_",
          "type": "uint256"
        }
      ],
      "stateMutability": "view",
      "type": "function"
    },
    {
      "inputs": [
        {
          "internalType": "string",
          "name": "_egpSystemId",
          "type": "string"
        },
        {
          "internalType": "uint256",
          "name": "_toExcluded",
          "type": "uint256"
        },
        {
          "internalType": "uint256",
          "name": "_count",
          "type": "uint256"
        }
      ],
      "name": "getWeIndicesListByOrgId",
      "outputs": [
        {
          "components": [
            {
              "internalType": "bytes8",
              "name": "uid",
              "type": "bytes8"
            },
            {
              "internalType": "string",
              "name": "awardReference",
              "type": "string"
            },
            {
              "internalType": "uint256",
              "name": "workExperienceCertificateIssuanceDate",
              "type": "uint256"
            },
            {
              "internalType": "string",
              "name": "contractCompletedValue",
              "type": "string"
            },
            {
              "internalType": "enum WorkExperienceStructs.WorkStatus",
              "name": "workStatus",
              "type": "uint8"
            },
            {
              "internalType": "string",
              "name": "remarks",
              "type": "string"
            },
            {
              "internalType": "enum WorkExperienceStructs.SupplierRating",
              "name": "supplierRating",
              "type": "uint8"
            },
            {
              "internalType": "string",
              "name": "workExperienceFileHash",
              "type": "string"
            },
            {
              "internalType": "string",
              "name": "egpSystemId",
              "type": "string"
            },
            {
              "internalType": "string",
              "name": "procuringEntityGid",
              "type": "string"
            },
            {
              "internalType": "string",
              "name": "procuringEntityName",
              "type": "string"
            },
            {
              "internalType": "string",
              "name": "procuringEntityRepresentativeName",
              "type": "string"
            },
            {
              "internalType": "string",
              "name": "procuringEntityRepresentativeDesignation",
              "type": "string"
            },
            {
              "internalType": "string",
              "name": "subject",
              "type": "string"
            },
            {
              "internalType": "bytes8",
              "name": "awardOfContractId",
              "type": "bytes8"
            },
            {
              "internalType": "uint16",
              "name": "version",
              "type": "uint16"
            }
          ],
          "internalType": "struct WorkExperienceStructs.WorkExperience[]",
          "name": "_orgIDWorkExperiences",
          "type": "tuple[]"
        },
        {
          "internalType": "uint256",
          "name": "fromIncluded_",
          "type": "uint256"
        },
        {
          "internalType": "uint256",
          "name": "length_",
          "type": "uint256"
        }
      ],
      "stateMutability": "view",
      "type": "function"
    },
    {
      "inputs": [
        {
          "internalType": "string",
          "name": "_tenderReference",
          "type": "string"
        },
        {
          "internalType": "string",
          "name": "_egpSystemId",
          "type": "string"
        },
        {
          "internalType": "uint256",
          "name": "_toExcluded",
          "type": "uint256"
        },
        {
          "internalType": "uint256",
          "name": "_count",
          "type": "uint256"
        }
      ],
      "name": "getWorkExperienceListbyTenderRefAndOrgId",
      "outputs": [
        {
          "components": [
            {
              "internalType": "bytes8",
              "name": "uid",
              "type": "bytes8"
            },
            {
              "internalType": "string",
              "name": "awardReference",
              "type": "string"
            },
            {
              "internalType": "uint256",
              "name": "workExperienceCertificateIssuanceDate",
              "type": "uint256"
            },
            {
              "internalType": "string",
              "name": "contractCompletedValue",
              "type": "string"
            },
            {
              "internalType": "enum WorkExperienceStructs.WorkStatus",
              "name": "workStatus",
              "type": "uint8"
            },
            {
              "internalType": "string",
              "name": "remarks",
              "type": "string"
            },
            {
              "internalType": "enum WorkExperienceStructs.SupplierRating",
              "name": "supplierRating",
              "type": "uint8"
            },
            {
              "internalType": "string",
              "name": "workExperienceFileHash",
              "type": "string"
            },
            {
              "internalType": "string",
              "name": "egpSystemId",
              "type": "string"
            },
            {
              "internalType": "string",
              "name": "procuringEntityGid",
              "type": "string"
            },
            {
              "internalType": "string",
              "name": "procuringEntityName",
              "type": "string"
            },
            {
              "internalType": "string",
              "name": "procuringEntityRepresentativeName",
              "type": "string"
            },
            {
              "internalType": "string",
              "name": "procuringEntityRepresentativeDesignation",
              "type": "string"
            },
            {
              "internalType": "string",
              "name": "subject",
              "type": "string"
            },
            {
              "internalType": "bytes8",
              "name": "awardOfContractId",
              "type": "bytes8"
            },
            {
              "internalType": "uint16",
              "name": "version",
              "type": "uint16"
            }
          ],
          "internalType": "struct WorkExperienceStructs.WorkExperience[]",
          "name": "_workExperiencebyTenderRefAndOrgId",
          "type": "tuple[]"
        },
        {
          "internalType": "uint256",
          "name": "fromIncluded_",
          "type": "uint256"
        },
        {
          "internalType": "uint256",
          "name": "length_",
          "type": "uint256"
        }
      ],
      "stateMutability": "view",
      "type": "function"
    },
    {
      "inputs": [
        {
          "internalType": "string",
          "name": "_vendorGid",
          "type": "string"
        },
        {
          "internalType": "string",
          "name": "_egpSystemId",
          "type": "string"
        },
        {
          "internalType": "uint256",
          "name": "_toExcluded",
          "type": "uint256"
        },
        {
          "internalType": "uint256",
          "name": "_count",
          "type": "uint256"
        }
      ],
      "name": "getWorkExperienceListbyVendorAndOrgId",
      "outputs": [
        {
          "components": [
            {
              "internalType": "bytes8",
              "name": "uid",
              "type": "bytes8"
            },
            {
              "internalType": "string",
              "name": "awardReference",
              "type": "string"
            },
            {
              "internalType": "uint256",
              "name": "workExperienceCertificateIssuanceDate",
              "type": "uint256"
            },
            {
              "internalType": "string",
              "name": "contractCompletedValue",
              "type": "string"
            },
            {
              "internalType": "enum WorkExperienceStructs.WorkStatus",
              "name": "workStatus",
              "type": "uint8"
            },
            {
              "internalType": "string",
              "name": "remarks",
              "type": "string"
            },
            {
              "internalType": "enum WorkExperienceStructs.SupplierRating",
              "name": "supplierRating",
              "type": "uint8"
            },
            {
              "internalType": "string",
              "name": "workExperienceFileHash",
              "type": "string"
            },
            {
              "internalType": "string",
              "name": "egpSystemId",
              "type": "string"
            },
            {
              "internalType": "string",
              "name": "procuringEntityGid",
              "type": "string"
            },
            {
              "internalType": "string",
              "name": "procuringEntityName",
              "type": "string"
            },
            {
              "internalType": "string",
              "name": "procuringEntityRepresentativeName",
              "type": "string"
            },
            {
              "internalType": "string",
              "name": "procuringEntityRepresentativeDesignation",
              "type": "string"
            },
            {
              "internalType": "string",
              "name": "subject",
              "type": "string"
            },
            {
              "internalType": "bytes8",
              "name": "awardOfContractId",
              "type": "bytes8"
            },
            {
              "internalType": "uint16",
              "name": "version",
              "type": "uint16"
            }
          ],
          "internalType": "struct WorkExperienceStructs.WorkExperience[]",
          "name": "_workExperiencebyVendorAndOrgId",
          "type": "tuple[]"
        },
        {
          "internalType": "uint256",
          "name": "fromIncluded_",
          "type": "uint256"
        },
        {
          "internalType": "uint256",
          "name": "length_",
          "type": "uint256"
        }
      ],
      "stateMutability": "view",
      "type": "function"
    },
    {
      "inputs": [
        {
          "internalType": "string",
          "name": "_procuringEntityGid",
          "type": "string"
        },
        {
          "internalType": "string",
          "name": "_vendorGid",
          "type": "string"
        },
        {
          "internalType": "uint256",
          "name": "_toExcluded",
          "type": "uint256"
        },
        {
          "internalType": "uint256",
          "name": "_count",
          "type": "uint256"
        }
      ],
      "name": "getWorkExperiencebyPEAndVendorGid",
      "outputs": [
        {
          "components": [
            {
              "internalType": "bytes8",
              "name": "uid",
              "type": "bytes8"
            },
            {
              "internalType": "string",
              "name": "awardReference",
              "type": "string"
            },
            {
              "internalType": "uint256",
              "name": "workExperienceCertificateIssuanceDate",
              "type": "uint256"
            },
            {
              "internalType": "string",
              "name": "contractCompletedValue",
              "type": "string"
            },
            {
              "internalType": "enum WorkExperienceStructs.WorkStatus",
              "name": "workStatus",
              "type": "uint8"
            },
            {
              "internalType": "string",
              "name": "remarks",
              "type": "string"
            },
            {
              "internalType": "enum WorkExperienceStructs.SupplierRating",
              "name": "supplierRating",
              "type": "uint8"
            },
            {
              "internalType": "string",
              "name": "workExperienceFileHash",
              "type": "string"
            },
            {
              "internalType": "string",
              "name": "egpSystemId",
              "type": "string"
            },
            {
              "internalType": "string",
              "name": "procuringEntityGid",
              "type": "string"
            },
            {
              "internalType": "string",
              "name": "procuringEntityName",
              "type": "string"
            },
            {
              "internalType": "string",
              "name": "procuringEntityRepresentativeName",
              "type": "string"
            },
            {
              "internalType": "string",
              "name": "procuringEntityRepresentativeDesignation",
              "type": "string"
            },
            {
              "internalType": "string",
              "name": "subject",
              "type": "string"
            },
            {
              "internalType": "bytes8",
              "name": "awardOfContractId",
              "type": "bytes8"
            },
            {
              "internalType": "uint16",
              "name": "version",
              "type": "uint16"
            }
          ],
          "internalType": "struct WorkExperienceStructs.WorkExperience[]",
          "name": "_workExperiencebyPEAndVendorGid",
          "type": "tuple[]"
        },
        {
          "internalType": "uint256",
          "name": "fromIncluded_",
          "type": "uint256"
        },
        {
          "internalType": "uint256",
          "name": "length_",
          "type": "uint256"
        }
      ],
      "stateMutability": "view",
      "type": "function"
    },
    {
      "inputs": [
        {
          "internalType": "bytes8",
          "name": "_aocId",
          "type": "bytes8"
        },
        {
          "internalType": "uint256",
          "name": "_toExcluded",
          "type": "uint256"
        },
        {
          "internalType": "uint256",
          "name": "_count",
          "type": "uint256"
        }
      ],
      "name": "getWorkExperiencesForAwardOfContract",
      "outputs": [
        {
          "components": [
            {
              "internalType": "bytes8",
              "name": "uid",
              "type": "bytes8"
            },
            {
              "internalType": "string",
              "name": "awardReference",
              "type": "string"
            },
            {
              "internalType": "uint256",
              "name": "workExperienceCertificateIssuanceDate",
              "type": "uint256"
            },
            {
              "internalType": "string",
              "name": "contractCompletedValue",
              "type": "string"
            },
            {
              "internalType": "enum WorkExperienceStructs.WorkStatus",
              "name": "workStatus",
              "type": "uint8"
            },
            {
              "internalType": "string",
              "name": "remarks",
              "type": "string"
            },
            {
              "internalType": "enum WorkExperienceStructs.SupplierRating",
              "name": "supplierRating",
              "type": "uint8"
            },
            {
              "internalType": "string",
              "name": "workExperienceFileHash",
              "type": "string"
            },
            {
              "internalType": "string",
              "name": "egpSystemId",
              "type": "string"
            },
            {
              "internalType": "string",
              "name": "procuringEntityGid",
              "type": "string"
            },
            {
              "internalType": "string",
              "name": "procuringEntityName",
              "type": "string"
            },
            {
              "internalType": "string",
              "name": "procuringEntityRepresentativeName",
              "type": "string"
            },
            {
              "internalType": "string",
              "name": "procuringEntityRepresentativeDesignation",
              "type": "string"
            },
            {
              "internalType": "string",
              "name": "subject",
              "type": "string"
            },
            {
              "internalType": "bytes8",
              "name": "awardOfContractId",
              "type": "bytes8"
            },
            {
              "internalType": "uint16",
              "name": "version",
              "type": "uint16"
            }
          ],
          "internalType": "struct WorkExperienceStructs.WorkExperience[]",
          "name": "workExperiences_",
          "type": "tuple[]"
        },
        {
          "internalType": "uint256",
          "name": "fromIncluded_",
          "type": "uint256"
        },
        {
          "internalType": "uint256",
          "name": "length_",
          "type": "uint256"
        }
      ],
      "stateMutability": "view",
      "type": "function"
    },
    {
      "inputs": [
        {
          "internalType": "string",
          "name": "_procuringEntityGid",
          "type": "string"
        },
        {
          "internalType": "uint256",
          "name": "_toExcluded",
          "type": "uint256"
        },
        {
          "internalType": "uint256",
          "name": "_count",
          "type": "uint256"
        }
      ],
      "name": "getWorkExperienceForPE",
      "outputs": [
        {
          "components": [
            {
              "internalType": "bytes8",
              "name": "uid",
              "type": "bytes8"
            },
            {
              "internalType": "string",
              "name": "awardReference",
              "type": "string"
            },
            {
              "internalType": "uint256",
              "name": "workExperienceCertificateIssuanceDate",
              "type": "uint256"
            },
            {
              "internalType": "string",
              "name": "contractCompletedValue",
              "type": "string"
            },
            {
              "internalType": "enum WorkExperienceStructs.WorkStatus",
              "name": "workStatus",
              "type": "uint8"
            },
            {
              "internalType": "string",
              "name": "remarks",
              "type": "string"
            },
            {
              "internalType": "enum WorkExperienceStructs.SupplierRating",
              "name": "supplierRating",
              "type": "uint8"
            },
            {
              "internalType": "string",
              "name": "workExperienceFileHash",
              "type": "string"
            },
            {
              "internalType": "string",
              "name": "egpSystemId",
              "type": "string"
            },
            {
              "internalType": "string",
              "name": "procuringEntityGid",
              "type": "string"
            },
            {
              "internalType": "string",
              "name": "procuringEntityName",
              "type": "string"
            },
            {
              "internalType": "string",
              "name": "procuringEntityRepresentativeName",
              "type": "string"
            },
            {
              "internalType": "string",
              "name": "procuringEntityRepresentativeDesignation",
              "type": "string"
            },
            {
              "internalType": "string",
              "name": "subject",
              "type": "string"
            },
            {
              "internalType": "bytes8",
              "name": "awardOfContractId",
              "type": "bytes8"
            },
            {
              "internalType": "uint16",
              "name": "version",
              "type": "uint16"
            }
          ],
          "internalType": "struct WorkExperienceStructs.WorkExperience[]",
          "name": "workExperiences_",
          "type": "tuple[]"
        },
        {
          "internalType": "uint256",
          "name": "fromIncluded_",
          "type": "uint256"
        },
        {
          "internalType": "uint256",
          "name": "length_",
          "type": "uint256"
        }
      ],
      "stateMutability": "view",
      "type": "function"
    },
    {
      "inputs": [
        {
          "internalType": "bytes8",
          "name": "_uid",
          "type": "bytes8"
        }
      ],
      "name": "getWorkExperiencesAocVendorGID",
      "outputs": [
        {
          "internalType": "string",
          "name": "",
          "type": "string"
        }
      ],
      "stateMutability": "view",
      "type": "function"
    },
    {
      "inputs": [
        {
          "internalType": "bytes8",
          "name": "_uid",
          "type": "bytes8"
        }
      ],
      "name": "isUidExists",
      "outputs": [
        {
          "internalType": "bool",
          "name": "",
          "type": "bool"
        }
      ],
      "stateMutability": "view",
      "type": "function"
    }
  ],
  "bytecode": "0x608060405234801562000010575f80fd5b506040516200463238038062004632833981810160405281019062000036919062000226565b855f806101000a81548173ffffffffffffffffffffffffffffffffffffffff021916908373ffffffffffffffffffffffffffffffffffffffff1602179055508460015f6101000a81548173ffffffffffffffffffffffffffffffffffffffff021916908373ffffffffffffffffffffffffffffffffffffffff1602179055508360055f6101000a81548173ffffffffffffffffffffffffffffffffffffffff021916908373ffffffffffffffffffffffffffffffffffffffff1602179055508260035f6101000a81548173ffffffffffffffffffffffffffffffffffffffff021916908373ffffffffffffffffffffffffffffffffffffffff1602179055508160025f6101000a81548173ffffffffffffffffffffffffffffffffffffffff021916908373ffffffffffffffffffffffffffffffffffffffff1602179055508060045f6101000a81548173ffffffffffffffffffffffffffffffffffffffff021916908373ffffffffffffffffffffffffffffffffffffffff160217905550505050505050620002be565b5f80fd5b5f73ffffffffffffffffffffffffffffffffffffffff82169050919050565b5f620001f082620001c5565b9050919050565b6200020281620001e4565b81146200020d575f80fd5b50565b5f815190506200022081620001f7565b92915050565b5f805f805f8060c08789031215620002435762000242620001c1565b5b5f6200025289828a0162000210565b96505060206200026589828a0162000210565b95505060406200027889828a0162000210565b94505060606200028b89828a0162000210565b93505060806200029e89828a0162000210565b92505060a0620002b189828a0162000210565b9150509295509295509295565b61436680620002cc5f395ff3fe608060405234801561000f575f80fd5b50600436106100cd575f3560e01c8063a7586a7f1161008a578063bd1bc73411610064578063bd1bc7341461028f578063dda024cd146102bf578063eb32d96f146102f1578063ec40c1bc1461030d576100cd565b8063a7586a7f146101fb578063a965c8bb1461022d578063b81797961461025d576100cd565b806312fdbcb3146100d157806319a1ffa6146101035780633616b814146101355780633f4e7ae214610167578063867f3500146101995780638eb3e501146101cb575b5f80fd5b6100eb60048036038101906100e691906128aa565b61033f565b6040516100fa93929190612d3c565b60405180910390f35b61011d600480360381019061011891906128aa565b610573565b60405161012c93929190612d3c565b60405180910390f35b61014f600480360381019061014a9190612da2565b6107a7565b60405161015e93929190612d3c565b60405180910390f35b610181600480360381019061017c91906128aa565b610a87565b60405161019093929190612d3c565b60405180910390f35b6101b360048036038101906101ae9190612da2565b610cbb565b6040516101c293929190612d3c565b60405180910390f35b6101e560048036038101906101e09190612df2565b610ec1565b6040516101f29190612e37565b60405180910390f35b61021560048036038101906102109190612e50565b610f64565b60405161022493929190612d3c565b60405180910390f35b61024760048036038101906102429190612df2565b61116a565b6040516102549190613050565b60405180910390f35b61027760048036038101906102729190613070565b6112f9565b60405161028693929190612d3c565b60405180910390f35b6102a960048036038101906102a49190612df2565b6113ae565b6040516102b691906130f6565b60405180910390f35b6102d960048036038101906102d49190612e50565b611453565b6040516102e893929190612d3c565b60405180910390f35b61030b6004803603810190610306919061341d565b611659565b005b61032760048036038101906103229190612e50565b612354565b60405161033693929190612d3c565b60405180910390f35b60605f805f878760405160200161035792919061349e565b604051602081830303815290604052805190602001209050606060045f9054906101000a900473ffffffffffffffffffffffffffffffffffffffff1673ffffffffffffffffffffffffffffffffffffffff16632a7c53e38389896040518463ffffffff1660e01b81526004016103cf939291906134d0565b5f60405180830381865afa1580156103e9573d5f803e3d5ffd5b505050506040513d5f823e3d601f19601f8201168201806040525081019061041191906135dd565b809550819650829350505050805167ffffffffffffffff81111561043857610437612753565b5b60405190808252806020026020018201604052801561047157816020015b61045e612655565b8152602001906001900390816104565790505b5094505f5b81518110156105665760045f9054906101000a900473ffffffffffffffffffffffffffffffffffffffff1673ffffffffffffffffffffffffffffffffffffffff1663586f694f8383815181106104cf576104ce613649565b5b60200260200101516040518263ffffffff1660e01b81526004016104f39190613676565b5f60405180830381865afa15801561050d573d5f803e3d5ffd5b505050506040513d5f823e3d601f19601f8201168201806040525081019061053591906139dc565b86828151811061054857610547613649565b5b6020026020010181905250808061055e90613a50565b915050610476565b5050509450945094915050565b60605f805f878760405160200161058b92919061349e565b604051602081830303815290604052805190602001209050606060045f9054906101000a900473ffffffffffffffffffffffffffffffffffffffff1673ffffffffffffffffffffffffffffffffffffffff16639a3fc8588389896040518463ffffffff1660e01b8152600401610603939291906134d0565b5f60405180830381865afa15801561061d573d5f803e3d5ffd5b505050506040513d5f823e3d601f19601f8201168201806040525081019061064591906135dd565b809550819650829350505050805167ffffffffffffffff81111561066c5761066b612753565b5b6040519080825280602002602001820160405280156106a557816020015b610692612655565b81526020019060019003908161068a5790505b5094505f5b815181101561079a5760045f9054906101000a900473ffffffffffffffffffffffffffffffffffffffff1673ffffffffffffffffffffffffffffffffffffffff1663586f694f83838151811061070357610702613649565b5b60200260200101516040518263ffffffff1660e01b81526004016107279190613676565b5f60405180830381865afa158015610741573d5f803e3d5ffd5b505050506040513d5f823e3d601f19601f8201168201806040525081019061076991906139dc565b86828151811061077c5761077b613649565b5b6020026020010181905250808061079290613a50565b9150506106aa565b5050509450945094915050565b60605f808560025f9054906101000a900473ffffffffffffffffffffffffffffffffffffffff1673ffffffffffffffffffffffffffffffffffffffff16638eb3e501826040518263ffffffff1660e01b81526004016108069190613a97565b602060405180830381865afa158015610821573d5f803e3d5ffd5b505050506040513d601f19601f820116820180604052508101906108459190613ada565b610884576040517f08c379a000000000000000000000000000000000000000000000000000000000815260040161087b90613b4f565b60405180910390fd5b606060045f9054906101000a900473ffffffffffffffffffffffffffffffffffffffff1673ffffffffffffffffffffffffffffffffffffffff16634bed63528989896040518463ffffffff1660e01b81526004016108e4939291906134d0565b5f60405180830381865afa1580156108fe573d5f803e3d5ffd5b505050506040513d5f823e3d601f19601f8201168201806040525081019061092691906135dd565b809550819650829350505050805167ffffffffffffffff81111561094d5761094c612753565b5b60405190808252806020026020018201604052801561098657816020015b610973612655565b81526020019060019003908161096b5790505b5094505f5b8151811015610a7b5760045f9054906101000a900473ffffffffffffffffffffffffffffffffffffffff1673ffffffffffffffffffffffffffffffffffffffff1663586f694f8383815181106109e4576109e3613649565b5b60200260200101516040518263ffffffff1660e01b8152600401610a089190613676565b5f60405180830381865afa158015610a22573d5f803e3d5ffd5b505050506040513d5f823e3d601f19601f82011682018060405250810190610a4a91906139dc565b868281518110610a5d57610a5c613649565b5b60200260200101819052508080610a7390613a50565b91505061098b565b50505093509350939050565b60605f805f8787604051602001610a9f92919061349e565b604051602081830303815290604052805190602001209050606060045f9054906101000a900473ffffffffffffffffffffffffffffffffffffffff1673ffffffffffffffffffffffffffffffffffffffff1663fd493b8a8389896040518463ffffffff1660e01b8152600401610b17939291906134d0565b5f60405180830381865afa158015610b31573d5f803e3d5ffd5b505050506040513d5f823e3d601f19601f82011682018060405250810190610b5991906135dd565b809550819650829350505050805167ffffffffffffffff811115610b8057610b7f612753565b5b604051908082528060200260200182016040528015610bb957816020015b610ba6612655565b815260200190600190039081610b9e5790505b5094505f5b8151811015610cae5760045f9054906101000a900473ffffffffffffffffffffffffffffffffffffffff1673ffffffffffffffffffffffffffffffffffffffff1663586f694f838381518110610c1757610c16613649565b5b60200260200101516040518263ffffffff1660e01b8152600401610c3b9190613676565b5f60405180830381865afa158015610c55573d5f803e3d5ffd5b505050506040513d5f823e3d601f19601f82011682018060405250810190610c7d91906139dc565b868281518110610c9057610c8f613649565b5b60200260200101819052508080610ca690613a50565b915050610bbe565b5050509450945094915050565b60605f80606060045f9054906101000a900473ffffffffffffffffffffffffffffffffffffffff1673ffffffffffffffffffffffffffffffffffffffff16634bed63528888886040518463ffffffff1660e01b8152600401610d1f939291906134d0565b5f60405180830381865afa158015610d39573d5f803e3d5ffd5b505050506040513d5f823e3d601f19601f82011682018060405250810190610d6191906135dd565b809450819550829350505050805167ffffffffffffffff811115610d8857610d87612753565b5b604051908082528060200260200182016040528015610dc157816020015b610dae612655565b815260200190600190039081610da65790505b5093505f5b8151811015610eb65760045f9054906101000a900473ffffffffffffffffffffffffffffffffffffffff1673ffffffffffffffffffffffffffffffffffffffff1663586f694f838381518110610e1f57610e1e613649565b5b60200260200101516040518263ffffffff1660e01b8152600401610e439190613676565b5f60405180830381865afa158015610e5d573d5f803e3d5ffd5b505050506040513d5f823e3d601f19601f82011682018060405250810190610e8591906139dc565b858281518110610e9857610e97613649565b5b60200260200101819052508080610eae90613a50565b915050610dc6565b505093509350939050565b5f8060045f9054906101000a900473ffffffffffffffffffffffffffffffffffffffff1673ffffffffffffffffffffffffffffffffffffffff16636be791a1846040518263ffffffff1660e01b8152600401610f1d9190613a97565b602060405180830381865afa158015610f38573d5f803e3d5ffd5b505050506040513d601f19601f82011682018060405250810190610f5c9190613b6d565b119050919050565b60605f80606060045f9054906101000a900473ffffffffffffffffffffffffffffffffffffffff1673ffffffffffffffffffffffffffffffffffffffff16639c26439f8888886040518463ffffffff1660e01b8152600401610fc893929190613b98565b5f60405180830381865afa158015610fe2573d5f803e3d5ffd5b505050506040513d5f823e3d601f19601f8201168201806040525081019061100a91906135dd565b809450819550829350505050805167ffffffffffffffff81111561103157611030612753565b5b60405190808252806020026020018201604052801561106a57816020015b611057612655565b81526020019060019003908161104f5790505b5093505f5b815181101561115f5760045f9054906101000a900473ffffffffffffffffffffffffffffffffffffffff1673ffffffffffffffffffffffffffffffffffffffff1663586f694f8383815181106110c8576110c7613649565b5b60200260200101516040518263ffffffff1660e01b81526004016110ec9190613676565b5f60405180830381865afa158015611106573d5f803e3d5ffd5b505050506040513d5f823e3d601f19601f8201168201806040525081019061112e91906139dc565b85828151811061114157611140613649565b5b6020026020010181905250808061115790613a50565b91505061106f565b505093509350939050565b611172612655565b815f60045f9054906101000a900473ffffffffffffffffffffffffffffffffffffffff1673ffffffffffffffffffffffffffffffffffffffff16636be791a1836040518263ffffffff1660e01b81526004016111ce9190613a97565b602060405180830381865afa1580156111e9573d5f803e3d5ffd5b505050506040513d601f19601f8201168201806040525081019061120d9190613b6d565b1161124d576040517f08c379a000000000000000000000000000000000000000000000000000000000815260040161124490613c1e565b60405180910390fd5b60045f9054906101000a900473ffffffffffffffffffffffffffffffffffffffff1673ffffffffffffffffffffffffffffffffffffffff1663586f694f6112938561255a565b6040518263ffffffff1660e01b81526004016112af9190613676565b5f60405180830381865afa1580156112c9573d5f803e3d5ffd5b505050506040513d5f823e3d601f19601f820116820180604052508101906112f191906139dc565b915050919050565b60605f8060045f9054906101000a900473ffffffffffffffffffffffffffffffffffffffff1673ffffffffffffffffffffffffffffffffffffffff1663b817979686866040518363ffffffff1660e01b8152600401611359929190613c3c565b5f60405180830381865afa158015611373573d5f803e3d5ffd5b505050506040513d5f823e3d601f19601f8201168201806040525081019061139b9190613d41565b8093508194508295505050509250925092565b606060025f9054906101000a900473ffffffffffffffffffffffffffffffffffffffff1673ffffffffffffffffffffffffffffffffffffffff1663338c317b836040518263ffffffff1660e01b815260040161140a9190613a97565b5f60405180830381865afa158015611424573d5f803e3d5ffd5b505050506040513d5f823e3d601f19601f8201168201806040525081019061144c9190613dad565b9050919050565b60605f80606060045f9054906101000a900473ffffffffffffffffffffffffffffffffffffffff1673ffffffffffffffffffffffffffffffffffffffff16632a1b04ae8888886040518463ffffffff1660e01b81526004016114b793929190613b98565b5f60405180830381865afa1580156114d1573d5f803e3d5ffd5b505050506040513d5f823e3d601f19601f820116820180604052508101906114f991906135dd565b809450819550829350505050805167ffffffffffffffff8111156115205761151f612753565b5b60405190808252806020026020018201604052801561155957816020015b611546612655565b81526020019060019003908161153e5790505b5093505f5b815181101561164e5760045f9054906101000a900473ffffffffffffffffffffffffffffffffffffffff1673ffffffffffffffffffffffffffffffffffffffff1663586f694f8383815181106115b7576115b6613649565b5b60200260200101516040518263ffffffff1660e01b81526004016115db9190613676565b5f60405180830381865afa1580156115f5573d5f803e3d5ffd5b505050506040513d5f823e3d601f19601f8201168201806040525081019061161d91906139dc565b8582815181106116305761162f613649565b5b6020026020010181905250808061164690613a50565b91505061155e565b505093509350939050565b806101c0015160025f9054906101000a900473ffffffffffffffffffffffffffffffffffffffff1673ffffffffffffffffffffffffffffffffffffffff16638eb3e501826040518263ffffffff1660e01b81526004016116b99190613a97565b602060405180830381865afa1580156116d4573d5f803e3d5ffd5b505050506040513d601f19601f820116820180604052508101906116f89190613ada565b611737576040517f08c379a000000000000000000000000000000000000000000000000000000000815260040161172e90613b4f565b60405180910390fd5b816101c0015182610120015160025f9054906101000a900473ffffffffffffffffffffffffffffffffffffffff1673ffffffffffffffffffffffffffffffffffffffff1663910de96983836040518363ffffffff1660e01b815260040161179f929190613df4565b602060405180830381865afa1580156117ba573d5f803e3d5ffd5b505050506040513d601f19601f820116820180604052508101906117de9190613ada565b61181d576040517f08c379a000000000000000000000000000000000000000000000000000000000815260040161181490613e92565b60405180910390fd5b8361012001515f8060015f9054906101000a900473ffffffffffffffffffffffffffffffffffffffff1673ffffffffffffffffffffffffffffffffffffffff163360405160240161186e9190613eef565b6040516020818303038152906040527f6acee5fd000000000000000000000000000000000000000000000000000000007bffffffffffffffffffffffffffffffffffffffffffffffffffffffff19166020820180517bffffffffffffffffffffffffffffffffffffffffffffffffffffffff83818316178352505050506040516118f89190613f4c565b5f604051808303815f865af19150503d805f8114611931576040519150601f19603f3d011682016040523d82523d5f602084013e611936565b606091505b50915091505f818060200190518101906119509190613f62565b5090505f60055f9054906101000a900473ffffffffffffffffffffffffffffffffffffffff1673ffffffffffffffffffffffffffffffffffffffff16638338e9c5866040518263ffffffff1660e01b81526004016119ae91906130f6565b5f60405180830381865afa1580156119c8573d5f803e3d5ffd5b505050506040513d5f823e3d601f19601f820116820180604052508101906119f09190613dad565b905080604051602001611a039190613fd8565b6040516020818303038152906040528051906020012082604051602001611a2a9190613fd8565b6040516020818303038152906040528051906020012014611bf1575f805f8054906101000a900473ffffffffffffffffffffffffffffffffffffffff1673ffffffffffffffffffffffffffffffffffffffff1633604051602401611a8e9190613eef565b6040516020818303038152906040527fd1aa0c20000000000000000000000000000000000000000000000000000000007bffffffffffffffffffffffffffffffffffffffffffffffffffffffff19166020820180517bffffffffffffffffffffffffffffffffffffffffffffffffffffffff8381831617835250505050604051611b189190613f4c565b5f604051808303815f865af19150503d805f8114611b51576040519150601f19603f3d011682016040523d82523d5f602084013e611b56565b606091505b509150915081611b9b576040517f08c379a0000000000000000000000000000000000000000000000000000000008152600401611b9290614038565b60405180910390fd5b80806020019051810190611baf9190613ada565b611bee576040517f08c379a0000000000000000000000000000000000000000000000000000000008152600401611be5906140c6565b60405180910390fd5b50505b5f60045f9054906101000a900473ffffffffffffffffffffffffffffffffffffffff1673ffffffffffffffffffffffffffffffffffffffff166359414d776040518163ffffffff1660e01b8152600401602060405180830381865afa158015611c5c573d5f803e3d5ffd5b505050506040513d601f19601f82011682018060405250810190611c809190613b6d565b90505f611c8c8b612607565b90505f60045f9054906101000a900473ffffffffffffffffffffffffffffffffffffffff1673ffffffffffffffffffffffffffffffffffffffff16636be791a1836040518263ffffffff1660e01b8152600401611ce99190613a97565b602060405180830381865afa158015611d04573d5f803e3d5ffd5b505050506040513d601f19601f82011682018060405250810190611d289190613b6d565b14611d68576040517f08c379a0000000000000000000000000000000000000000000000000000000008152600401611d5f9061412e565b60405180910390fd5b808b5f019077ffffffffffffffffffffffffffffffffffffffffffffffff1916908177ffffffffffffffffffffffffffffffffffffffffffffffff19168152505060045f9054906101000a900473ffffffffffffffffffffffffffffffffffffffff1673ffffffffffffffffffffffffffffffffffffffff1663fcc1e12c8c6040518263ffffffff1660e01b8152600401611e039190613050565b5f604051808303815f87803b158015611e1a575f80fd5b505af1158015611e2c573d5f803e3d5ffd5b5050505060045f9054906101000a900473ffffffffffffffffffffffffffffffffffffffff1673ffffffffffffffffffffffffffffffffffffffff16632c624f2c82600185611e7b919061414c565b6040518363ffffffff1660e01b8152600401611e9892919061417f565b5f604051808303815f87803b158015611eaf575f80fd5b505af1158015611ec1573d5f803e3d5ffd5b505050505f60025f9054906101000a900473ffffffffffffffffffffffffffffffffffffffff1673ffffffffffffffffffffffffffffffffffffffff1663c3f1816e8d6101c001516040518263ffffffff1660e01b8152600401611f259190613a97565b5f60405180830381865afa158015611f3f573d5f803e3d5ffd5b505050506040513d5f823e3d601f19601f82011682018060405250810190611f679190613dad565b90505f60025f9054906101000a900473ffffffffffffffffffffffffffffffffffffffff1673ffffffffffffffffffffffffffffffffffffffff1663338c317b8e6101c001516040518263ffffffff1660e01b8152600401611fc99190613a97565b5f60405180830381865afa158015611fe3573d5f803e3d5ffd5b505050506040513d5f823e3d601f19601f8201168201806040525081019061200b9190613dad565b905060045f9054906101000a900473ffffffffffffffffffffffffffffffffffffffff1673ffffffffffffffffffffffffffffffffffffffff16632e7958b48e8685856040518563ffffffff1660e01b815260040161206d94939291906141a6565b5f604051808303815f87803b158015612084575f80fd5b505af1158015612096573d5f803e3d5ffd5b505050507ffb0ec020e217d61495ccadaddfc3d4b778827e0ff67f23047aca3378265169678360045f9054906101000a900473ffffffffffffffffffffffffffffffffffffffff1673ffffffffffffffffffffffffffffffffffffffff1663dd794768876040518263ffffffff1660e01b81526004016121169190613676565b5f60405180830381865afa158015612130573d5f803e3d5ffd5b505050506040513d5f823e3d601f19601f820116820180604052508101906121589190613dad565b60045f9054906101000a900473ffffffffffffffffffffffffffffffffffffffff1673ffffffffffffffffffffffffffffffffffffffff166321385004886040518263ffffffff1660e01b81526004016121b29190613676565b5f60405180830381865afa1580156121cc573d5f803e3d5ffd5b505050506040513d5f823e3d601f19601f820116820180604052508101906121f49190613dad565b60045f9054906101000a900473ffffffffffffffffffffffffffffffffffffffff1673ffffffffffffffffffffffffffffffffffffffff1663acfcfd34896040518263ffffffff1660e01b815260040161224e9190613676565b5f60405180830381865afa158015612268573d5f803e3d5ffd5b505050506040513d5f823e3d601f19601f820116820180604052508101906122909190613dad565b60045f9054906101000a900473ffffffffffffffffffffffffffffffffffffffff1673ffffffffffffffffffffffffffffffffffffffff16630c7141f38a6040518263ffffffff1660e01b81526004016122ea9190613676565b5f60405180830381865afa158015612304573d5f803e3d5ffd5b505050506040513d5f823e3d601f19601f8201168201806040525081019061232c9190613dad565b60405161233d9594939291906141fe565b60405180910390a150505050505050505050505050565b60605f80606060045f9054906101000a900473ffffffffffffffffffffffffffffffffffffffff1673ffffffffffffffffffffffffffffffffffffffff16639c26439f8888886040518463ffffffff1660e01b81526004016123b893929190613b98565b5f60405180830381865afa1580156123d2573d5f803e3d5ffd5b505050506040513d5f823e3d601f19601f820116820180604052508101906123fa91906135dd565b809450819550829350505050805167ffffffffffffffff81111561242157612420612753565b5b60405190808252806020026020018201604052801561245a57816020015b612447612655565b81526020019060019003908161243f5790505b5093505f5b815181101561254f5760045f9054906101000a900473ffffffffffffffffffffffffffffffffffffffff1673ffffffffffffffffffffffffffffffffffffffff1663586f694f8383815181106124b8576124b7613649565b5b60200260200101516040518263ffffffff1660e01b81526004016124dc9190613676565b5f60405180830381865afa1580156124f6573d5f803e3d5ffd5b505050506040513d5f823e3d601f19601f8201168201806040525081019061251e91906139dc565b85828151811061253157612530613649565b5b6020026020010181905250808061254790613a50565b91505061245f565b505093509350939050565b5f600160045f9054906101000a900473ffffffffffffffffffffffffffffffffffffffff1673ffffffffffffffffffffffffffffffffffffffff16636be791a1846040518263ffffffff1660e01b81526004016125b79190613a97565b602060405180830381865afa1580156125d2573d5f803e3d5ffd5b505050506040513d601f19601f820116820180604052508101906125f69190613b6d565b612600919061426b565b9050919050565b5f81602001518260400151836101600151846101800151856101c001516040516020016126389594939291906142de565b604051602081830303815290604052805190602001209050919050565b6040518061020001604052805f77ffffffffffffffffffffffffffffffffffffffffffffffff19168152602001606081526020015f8152602001606081526020015f60048111156126a9576126a8612a32565b5b8152602001606081526020015f60058111156126c8576126c7612a32565b5b8152602001606081526020016060815260200160608152602001606081526020016060815260200160608152602001606081526020015f77ffffffffffffffffffffffffffffffffffffffffffffffff191681526020015f61ffff1681525090565b5f604051905090565b5f80fd5b5f80fd5b5f80fd5b5f80fd5b5f601f19601f8301169050919050565b7f4e487b71000000000000000000000000000000000000000000000000000000005f52604160045260245ffd5b61278982612743565b810181811067ffffffffffffffff821117156127a8576127a7612753565b5b80604052505050565b5f6127ba61272a565b90506127c68282612780565b919050565b5f67ffffffffffffffff8211156127e5576127e4612753565b5b6127ee82612743565b9050602081019050919050565b828183375f83830152505050565b5f61281b612816846127cb565b6127b1565b9050828152602081018484840111156128375761283661273f565b5b6128428482856127fb565b509392505050565b5f82601f83011261285e5761285d61273b565b5b813561286e848260208601612809565b91505092915050565b5f819050919050565b61288981612877565b8114612893575f80fd5b50565b5f813590506128a481612880565b92915050565b5f805f80608085870312156128c2576128c1612733565b5b5f85013567ffffffffffffffff8111156128df576128de612737565b5b6128eb8782880161284a565b945050602085013567ffffffffffffffff81111561290c5761290b612737565b5b6129188782880161284a565b935050604061292987828801612896565b925050606061293a87828801612896565b91505092959194509250565b5f81519050919050565b5f82825260208201905092915050565b5f819050602082019050919050565b5f7fffffffffffffffff00000000000000000000000000000000000000000000000082169050919050565b6129a38161296f565b82525050565b5f81519050919050565b5f82825260208201905092915050565b5f5b838110156129e05780820151818401526020810190506129c5565b5f8484015250505050565b5f6129f5826129a9565b6129ff81856129b3565b9350612a0f8185602086016129c3565b612a1881612743565b840191505092915050565b612a2c81612877565b82525050565b7f4e487b71000000000000000000000000000000000000000000000000000000005f52602160045260245ffd5b60058110612a7057612a6f612a32565b5b50565b5f819050612a8082612a5f565b919050565b5f612a8f82612a73565b9050919050565b612a9f81612a85565b82525050565b60068110612ab657612ab5612a32565b5b50565b5f819050612ac682612aa5565b919050565b5f612ad582612ab9565b9050919050565b612ae581612acb565b82525050565b5f61ffff82169050919050565b612b0181612aeb565b82525050565b5f61020083015f830151612b1d5f86018261299a565b5060208301518482036020860152612b3582826129eb565b9150506040830151612b4a6040860182612a23565b5060608301518482036060860152612b6282826129eb565b9150506080830151612b776080860182612a96565b5060a083015184820360a0860152612b8f82826129eb565b91505060c0830151612ba460c0860182612adc565b5060e083015184820360e0860152612bbc82826129eb565b915050610100830151848203610100860152612bd882826129eb565b915050610120830151848203610120860152612bf482826129eb565b915050610140830151848203610140860152612c1082826129eb565b915050610160830151848203610160860152612c2c82826129eb565b915050610180830151848203610180860152612c4882826129eb565b9150506101a08301518482036101a0860152612c6482826129eb565b9150506101c0830151612c7b6101c086018261299a565b506101e0830151612c906101e0860182612af8565b508091505092915050565b5f612ca68383612b07565b905092915050565b5f602082019050919050565b5f612cc482612946565b612cce8185612950565b935083602082028501612ce085612960565b805f5b85811015612d1b5784840389528151612cfc8582612c9b565b9450612d0783612cae565b925060208a01995050600181019050612ce3565b50829750879550505050505092915050565b612d3681612877565b82525050565b5f6060820190508181035f830152612d548186612cba565b9050612d636020830185612d2d565b612d706040830184612d2d565b949350505050565b612d818161296f565b8114612d8b575f80fd5b50565b5f81359050612d9c81612d78565b92915050565b5f805f60608486031215612db957612db8612733565b5b5f612dc686828701612d8e565b9350506020612dd786828701612896565b9250506040612de886828701612896565b9150509250925092565b5f60208284031215612e0757612e06612733565b5b5f612e1484828501612d8e565b91505092915050565b5f8115159050919050565b612e3181612e1d565b82525050565b5f602082019050612e4a5f830184612e28565b92915050565b5f805f60608486031215612e6757612e66612733565b5b5f84013567ffffffffffffffff811115612e8457612e83612737565b5b612e908682870161284a565b9350506020612ea186828701612896565b9250506040612eb286828701612896565b9150509250925092565b5f61020083015f830151612ed25f86018261299a565b5060208301518482036020860152612eea82826129eb565b9150506040830151612eff6040860182612a23565b5060608301518482036060860152612f1782826129eb565b9150506080830151612f2c6080860182612a96565b5060a083015184820360a0860152612f4482826129eb565b91505060c0830151612f5960c0860182612adc565b5060e083015184820360e0860152612f7182826129eb565b915050610100830151848203610100860152612f8d82826129eb565b915050610120830151848203610120860152612fa982826129eb565b915050610140830151848203610140860152612fc582826129eb565b915050610160830151848203610160860152612fe182826129eb565b915050610180830151848203610180860152612ffd82826129eb565b9150506101a08301518482036101a086015261301982826129eb565b9150506101c08301516130306101c086018261299a565b506101e08301516130456101e0860182612af8565b508091505092915050565b5f6020820190508181035f8301526130688184612ebc565b905092915050565b5f806040838503121561308657613085612733565b5b5f61309385828601612896565b92505060206130a485828601612896565b9150509250929050565b5f82825260208201905092915050565b5f6130c8826129a9565b6130d281856130ae565b93506130e28185602086016129c3565b6130eb81612743565b840191505092915050565b5f6020820190508181035f83015261310e81846130be565b905092915050565b5f80fd5b5f80fd5b6005811061312a575f80fd5b50565b5f8135905061313b8161311e565b92915050565b6006811061314d575f80fd5b50565b5f8135905061315e81613141565b92915050565b61316d81612aeb565b8114613177575f80fd5b50565b5f8135905061318881613164565b92915050565b5f61020082840312156131a4576131a3613116565b5b6131af6102006127b1565b90505f6131be84828501612d8e565b5f83015250602082013567ffffffffffffffff8111156131e1576131e061311a565b5b6131ed8482850161284a565b602083015250604061320184828501612896565b604083015250606082013567ffffffffffffffff8111156132255761322461311a565b5b6132318482850161284a565b60608301525060806132458482850161312d565b60808301525060a082013567ffffffffffffffff8111156132695761326861311a565b5b6132758482850161284a565b60a08301525060c061328984828501613150565b60c08301525060e082013567ffffffffffffffff8111156132ad576132ac61311a565b5b6132b98482850161284a565b60e08301525061010082013567ffffffffffffffff8111156132de576132dd61311a565b5b6132ea8482850161284a565b6101008301525061012082013567ffffffffffffffff8111156133105761330f61311a565b5b61331c8482850161284a565b6101208301525061014082013567ffffffffffffffff8111156133425761334161311a565b5b61334e8482850161284a565b6101408301525061016082013567ffffffffffffffff8111156133745761337361311a565b5b6133808482850161284a565b6101608301525061018082013567ffffffffffffffff8111156133a6576133a561311a565b5b6133b28482850161284a565b610180830152506101a082013567ffffffffffffffff8111156133d8576133d761311a565b5b6133e48482850161284a565b6101a0830152506101c06133fa84828501612d8e565b6101c0830152506101e06134108482850161317a565b6101e08301525092915050565b5f6020828403121561343257613431612733565b5b5f82013567ffffffffffffffff81111561344f5761344e612737565b5b61345b8482850161318e565b91505092915050565b5f81905092915050565b5f613478826129a9565b6134828185613464565b93506134928185602086016129c3565b80840191505092915050565b5f6134a9828561346e565b91506134b5828461346e565b91508190509392505050565b6134ca8161296f565b82525050565b5f6060820190506134e35f8301866134c1565b6134f06020830185612d2d565b6134fd6040830184612d2d565b949350505050565b5f67ffffffffffffffff82111561351f5761351e612753565b5b602082029050602081019050919050565b5f80fd5b5f8151905061354281612880565b92915050565b5f61355a61355584613505565b6127b1565b9050808382526020820190506020840283018581111561357d5761357c613530565b5b835b818110156135a657806135928882613534565b84526020840193505060208101905061357f565b5050509392505050565b5f82601f8301126135c4576135c361273b565b5b81516135d4848260208601613548565b91505092915050565b5f805f606084860312156135f4576135f3612733565b5b5f84015167ffffffffffffffff81111561361157613610612737565b5b61361d868287016135b0565b935050602061362e86828701613534565b925050604061363f86828701613534565b9150509250925092565b7f4e487b71000000000000000000000000000000000000000000000000000000005f52603260045260245ffd5b5f6020820190506136895f830184612d2d565b92915050565b5f8151905061369d81612d78565b92915050565b5f6136b56136b0846127cb565b6127b1565b9050828152602081018484840111156136d1576136d061273f565b5b6136dc8482856129c3565b509392505050565b5f82601f8301126136f8576136f761273b565b5b81516137088482602086016136a3565b91505092915050565b5f8151905061371f8161311e565b92915050565b5f8151905061373381613141565b92915050565b5f8151905061374781613164565b92915050565b5f610200828403121561376357613762613116565b5b61376e6102006127b1565b90505f61377d8482850161368f565b5f83015250602082015167ffffffffffffffff8111156137a05761379f61311a565b5b6137ac848285016136e4565b60208301525060406137c084828501613534565b604083015250606082015167ffffffffffffffff8111156137e4576137e361311a565b5b6137f0848285016136e4565b606083015250608061380484828501613711565b60808301525060a082015167ffffffffffffffff8111156138285761382761311a565b5b613834848285016136e4565b60a08301525060c061384884828501613725565b60c08301525060e082015167ffffffffffffffff81111561386c5761386b61311a565b5b613878848285016136e4565b60e08301525061010082015167ffffffffffffffff81111561389d5761389c61311a565b5b6138a9848285016136e4565b6101008301525061012082015167ffffffffffffffff8111156138cf576138ce61311a565b5b6138db848285016136e4565b6101208301525061014082015167ffffffffffffffff8111156139015761390061311a565b5b61390d848285016136e4565b6101408301525061016082015167ffffffffffffffff8111156139335761393261311a565b5b61393f848285016136e4565b6101608301525061018082015167ffffffffffffffff8111156139655761396461311a565b5b613971848285016136e4565b610180830152506101a082015167ffffffffffffffff8111156139975761399661311a565b5b6139a3848285016136e4565b6101a0830152506101c06139b98482850161368f565b6101c0830152506101e06139cf84828501613739565b6101e08301525092915050565b5f602082840312156139f1576139f0612733565b5b5f82015167ffffffffffffffff811115613a0e57613a0d612737565b5b613a1a8482850161374d565b91505092915050565b7f4e487b71000000000000000000000000000000000000000000000000000000005f52601160045260245ffd5b5f613a5a82612877565b91507fffffffffffffffffffffffffffffffffffffffffffffffffffffffffffffffff8203613a8c57613a8b613a23565b5b600182019050919050565b5f602082019050613aaa5f8301846134c1565b92915050565b613ab981612e1d565b8114613ac3575f80fd5b50565b5f81519050613ad481613ab0565b92915050565b5f60208284031215613aef57613aee612733565b5b5f613afc84828501613ac6565b91505092915050565b7f4177617264204f6620436f6e7472616374204964206e6f7420657869737473005f82015250565b5f613b39601f836130ae565b9150613b4482613b05565b602082019050919050565b5f6020820190508181035f830152613b6681613b2d565b9050919050565b5f60208284031215613b8257613b81612733565b5b5f613b8f84828501613534565b91505092915050565b5f6060820190508181035f830152613bb081866130be565b9050613bbf6020830185612d2d565b613bcc6040830184612d2d565b949350505050565b7f576f726b20457870657269656e636520554944206e6f742065786973747300005f82015250565b5f613c08601e836130ae565b9150613c1382613bd4565b602082019050919050565b5f6020820190508181035f830152613c3581613bfc565b9050919050565b5f604082019050613c4f5f830185612d2d565b613c5c6020830184612d2d565b9392505050565b5f67ffffffffffffffff821115613c7d57613c7c612753565b5b602082029050602081019050919050565b5f613ca0613c9b84613c63565b6127b1565b90508083825260208201905060208402830185811115613cc357613cc2613530565b5b835b81811015613d0a57805167ffffffffffffffff811115613ce857613ce761273b565b5b808601613cf5898261374d565b85526020850194505050602081019050613cc5565b5050509392505050565b5f82601f830112613d2857613d2761273b565b5b8151613d38848260208601613c8e565b91505092915050565b5f805f60608486031215613d5857613d57612733565b5b5f84015167ffffffffffffffff811115613d7557613d74612737565b5b613d8186828701613d14565b9350506020613d9286828701613534565b9250506040613da386828701613534565b9150509250925092565b5f60208284031215613dc257613dc1612733565b5b5f82015167ffffffffffffffff811115613ddf57613dde612737565b5b613deb848285016136e4565b91505092915050565b5f604082019050613e075f8301856134c1565b8181036020830152613e1981846130be565b90509392505050565b7f50726f637572696e6720656e7469747920474944206e6f742076616c696420665f8201527f6f7220676976656e20414f430000000000000000000000000000000000000000602082015250565b5f613e7c602c836130ae565b9150613e8782613e22565b604082019050919050565b5f6020820190508181035f830152613ea981613e70565b9050919050565b5f73ffffffffffffffffffffffffffffffffffffffff82169050919050565b5f613ed982613eb0565b9050919050565b613ee981613ecf565b82525050565b5f602082019050613f025f830184613ee0565b92915050565b5f81519050919050565b5f81905092915050565b5f613f2682613f08565b613f308185613f12565b9350613f408185602086016129c3565b80840191505092915050565b5f613f578284613f1c565b915081905092915050565b5f8060408385031215613f7857613f77612733565b5b5f83015167ffffffffffffffff811115613f9557613f94612737565b5b613fa1858286016136e4565b925050602083015167ffffffffffffffff811115613fc257613fc1612737565b5b613fce858286016136e4565b9150509250929050565b5f613fe3828461346e565b915081905092915050565b7f5065726d697373696f6e732063616c6c206661696c65640000000000000000005f82015250565b5f6140226017836130ae565b915061402d82613fee565b602082019050919050565b5f6020820190508181035f83015261404f81614016565b9050919050565b7f53656e646572206e6f7420617574686f72697a656420746f2061646420576f725f8201527f6b20457870657269656e63650000000000000000000000000000000000000000602082015250565b5f6140b0602c836130ae565b91506140bb82614056565b604082019050919050565b5f6020820190508181035f8301526140dd816140a4565b9050919050565b7f576f726b20457870657269656e636520616c72656164792061646465640000005f82015250565b5f614118601d836130ae565b9150614123826140e4565b602082019050919050565b5f6020820190508181035f8301526141458161410c565b9050919050565b5f61415682612877565b915061416183612877565b925082820190508082111561417957614178613a23565b5b92915050565b5f6040820190506141925f8301856134c1565b61419f6020830184612d2d565b9392505050565b5f6080820190508181035f8301526141be8187612ebc565b90506141cd6020830186612d2d565b81810360408301526141df81856130be565b905081810360608301526141f381846130be565b905095945050505050565b5f60a0820190506142115f8301886134c1565b818103602083015261422381876130be565b9050818103604083015261423781866130be565b9050818103606083015261424b81856130be565b9050818103608083015261425f81846130be565b90509695505050505050565b5f61427582612877565b915061428083612877565b925082820390508181111561429857614297613a23565b5b92915050565b5f819050919050565b6142b86142b382612877565b61429e565b82525050565b5f819050919050565b6142d86142d38261296f565b6142be565b82525050565b5f6142e9828861346e565b91506142f582876142a7565b602082019150614305828661346e565b9150614311828561346e565b915061431d82846142c7565b600882019150819050969550505050505056fea2646970667358221220170c8b4c20f35bfbdfcf53f7199a079961e5348054242640edea016088909f1064736f6c63430008140033",
  "immutableReferences": {},
  "source": "pragma solidity ^0.8.0;\npragma experimental ABIEncoderV2;\nimport \"./VendorManager.sol\";\nimport \"./AwardOfContractManager.sol\";\nimport \"./WorkExperienceModel.sol\";\nimport \"./ProcuringEntityManager.sol\";\n\ncontract WorkExperienceManager is WorkExperienceStructs {\n\n    address private permIntfAddress;\n    address private accountManagerAddress;\n    AwardOfContractManager private aocManager;\n    VendorManager private vendorManager;\n    WorkExperienceModel private workExperienceModel;\n    ProcuringEntityManager private procuringEntityManager;\n\n    constructor (address _permIntfAddress, address _accountManagerAddress, address _procuringEntityManager, address _vendorManager, address _aocManager, address _workExperienceModel) {\n        permIntfAddress = _permIntfAddress;\n        accountManagerAddress = _accountManagerAddress;\n        procuringEntityManager = ProcuringEntityManager(_procuringEntityManager);\n        vendorManager = VendorManager(_vendorManager);\n        aocManager = AwardOfContractManager(_aocManager);\n        workExperienceModel = WorkExperienceModel(_workExperienceModel);\n    }\n\n    modifier AocIdExists(bytes8 _uid){\n        require(aocManager.isUidExists(_uid), \"Award Of Contract Id not exists\");\n        _;\n    }\n\n    modifier uidExists(bytes8 _uid){\n        require(workExperienceModel.getWorkExperienceIndex(_uid)>0, \"Work Experience UID not exists\");\n        _;\n    }\n\n    modifier AocProcuringEntityGidMatch(bytes8 _uid, string memory _procuringEntityGid){\n        require(aocManager.isProcuringEntityGidForAocUid(_uid, _procuringEntityGid), \"Procuring entity GID not valid for given AOC\");\n        _;\n    }\n\n    modifier ValidateSenderAccount(string memory _peGid) {\n        (bool success, bytes memory data) = accountManagerAddress.call(\n            abi.encodeWithSignature(\n                \"getAccountOrgRole(address)\",\n                msg.sender\n            )\n        );\n        (string memory senderOrgId,) = abi.decode(data,(string,string));\n        string memory orgIdEgp = procuringEntityManager.getProcuringEntityOrgIdByGid(_peGid);\n        if(keccak256(abi.encodePacked(senderOrgId))!=keccak256(abi.encodePacked(orgIdEgp))){\n            (bool successAdmin, bytes memory dataAdmin) = permIntfAddress.call(\n                abi.encodeWithSignature(\"isNetworkAdmin(address)\", msg.sender)\n            );\n            require(successAdmin, \"Permissions call failed\");\n            require(abi.decode(dataAdmin,(bool)), \"Sender not authorized to add Work Experience\");\n        }\n        _;\n    }\n\n    event WorkExperienceAdded(\n        bytes8 _weUid,\n        string _aocReferenceNumber,\n        string _egpSystemId,\n        string _peGid,\n        string _peName\n    );\n\n    function addWorkExperience(WorkExperience memory _workEx) public\n    AocIdExists(_workEx.awardOfContractId)\n    AocProcuringEntityGidMatch(_workEx.awardOfContractId, _workEx.procuringEntityGid)\n    ValidateSenderAccount(_workEx.procuringEntityGid)\n    {\n        uint id = workExperienceModel.getWorkExperienceListLength();\n        bytes8 uid = _generateUID(_workEx);\n        require(workExperienceModel.getWorkExperienceIndex(uid)==0, \"Work Experience already added\");\n        _workEx.uid = uid;\n        workExperienceModel.pushWorkExperience(_workEx);\n        workExperienceModel.setWorkExperienceIndex(uid, id+1);\n        string memory _getTenderRef = aocManager.getAocTenderRefNo(_workEx.awardOfContractId);\n        string memory _vendorGid = aocManager.getAocVendorGID(_workEx.awardOfContractId);\n        workExperienceModel.addAocWorkExperienceIndex(_workEx, id, _getTenderRef, _vendorGid);\n        emit WorkExperienceAdded(\n            uid, \n            workExperienceModel.getWorkExperienceAwardReference(id),\n            workExperienceModel.getWorkExperienceEgpSystemId(id),\n            workExperienceModel.getWorkExperienceProcuringEntityGid(id),\n            workExperienceModel.getWorkExperienceProcuringEntityName(id)\n        );\n    }\n\n    function getAllWorkExperience(uint _toExcluded, uint _count) public view\n    returns(WorkExperience[] memory _workEx, uint fromIncluded_, uint length_) {\n        (_workEx,fromIncluded_, length_) = workExperienceModel.getAllWorkExperience(_toExcluded, _count);\n    }\n\n    function getWorkExperience(bytes8 _uid) public view \n    uidExists(_uid)\n    returns(WorkExperience memory workExperience){\n        workExperience = workExperienceModel.getWorkExperienceByIndex(_getIndex(_uid));\n    }\n\n    \n    /** @dev Listing out the Work Experiences against the Aoc Id.\n      * @param _aocId unique id value of Aoc.\n      * @param _toExcluded The length till where the uint indexes has to be fetched.\n      * @param _count The number of indexes that has to be fetched. \n      * @return _aocWorkExperiences List of Work Experiences against the Aoc Id.\n      * @return fromIncluded_ _toExcluded - _count.\n      * @return length_ The length of the index present for the banks GID.\n      */\n    function getAocWorkExperienceListIndices(bytes8 _aocId, uint _toExcluded, uint _count) public view \n    returns(WorkExperience[] memory _aocWorkExperiences, uint fromIncluded_, uint length_) {\n        uint[] memory indexList;\n        (indexList, fromIncluded_, length_) = workExperienceModel.getAocWorkExperienceIndices(_aocId, _toExcluded, _count);\n        _aocWorkExperiences = new WorkExperience[](indexList.length);\n        for (uint256 i = 0; i < indexList.length; i++) {\n            _aocWorkExperiences[i] = workExperienceModel.getWorkExperienceByIndex(indexList[i]);\n        }\n    }\n\n    \n    /** @dev Listing out the Work Experiences against the PE GID.\n      * @param _peGid unique id value of PE.\n      * @param _toExcluded The length till where the uint indexes has to be fetched.\n      * @param _count The number of indexes that has to be fetched. \n      * @return _peWorkExperiences List of Work Experiences against the PE GID.\n      * @return fromIncluded_ _toExcluded - _count.\n      * @return length_ The length of the index present for the PE GID.\n      */\n    function getPEWorkExperienceListIndices(string memory _peGid, uint _toExcluded, uint _count) public view \n    returns(WorkExperience[] memory _peWorkExperiences, uint fromIncluded_, uint length_) {\n        uint[] memory indexList;\n        (indexList, fromIncluded_, length_) = workExperienceModel.getPEWorkExperienceIndices(_peGid, _toExcluded, _count);\n        _peWorkExperiences = new WorkExperience[](indexList.length);\n        for (uint256 i = 0; i < indexList.length; i++) {\n            _peWorkExperiences[i] = workExperienceModel.getWorkExperienceByIndex(indexList[i]);\n        }\n    }\n\n    \n    /** @dev Listing out the Work Experiences against the EgpSystem Id.\n      * @param _egpSystemId e-GP system Id registered with the network.\n      * @param _toExcluded The length till where the uint indexes has to be fetched.\n      * @param _count The number of indexes that has to be fetched. \n      * @return _orgIDWorkExperiences List of Work Experiences against the EgpSystem Id.\n      * @return fromIncluded_ _toExcluded - _count.\n      * @return length_ The length of the index present for the EgpSystem Id.\n      */\n    function getWeIndicesListByOrgId(string memory _egpSystemId, uint _toExcluded, uint _count) public view \n    returns(WorkExperience[] memory _orgIDWorkExperiences, uint fromIncluded_, uint length_)  {\n        uint[] memory indexList;\n        (indexList, fromIncluded_, length_) = workExperienceModel.getWeIndicesByOrgId(_egpSystemId, _toExcluded, _count);\n        _orgIDWorkExperiences = new WorkExperience[](indexList.length);\n        for (uint256 i = 0; i < indexList.length; i++) {\n            _orgIDWorkExperiences[i] = workExperienceModel.getWorkExperienceByIndex(indexList[i]);\n        }\n\n    }\n\n    \n    /** @dev Listing out the Work Experiences against the Tender Reference and EgpSystem Id.\n      * @param _tenderReference Tender reference.\n      * @param _egpSystemId e-GP system Id registered with the network.\n      * @param _toExcluded The length till where the uint indexes has to be fetched.\n      * @param _count The number of indexes that has to be fetched. \n      * @return _workExperiencebyTenderRefAndOrgId List of Work Experiences against the Tender Reference and EgpSystem Id.\n      * @return fromIncluded_ _toExcluded - _count.\n      * @return length_ The length of the index present for the Tender Reference and EgpSystem Id.\n      */\n    function getWorkExperienceListbyTenderRefAndOrgId(string memory _tenderReference, string memory _egpSystemId, uint _toExcluded, uint _count) public view \n    returns(WorkExperience[] memory _workExperiencebyTenderRefAndOrgId, uint fromIncluded_, uint length_)  {\n        bytes8 _workExperienceTenderRefOrgId = bytes8(keccak256(abi.encodePacked(_tenderReference, _egpSystemId)));\n        uint[] memory indexList;\n        (indexList, fromIncluded_, length_) = workExperienceModel.getWorkExperiencebyTenderRefAndOrgId(_workExperienceTenderRefOrgId, _toExcluded, _count);\n        _workExperiencebyTenderRefAndOrgId = new WorkExperience[](indexList.length);\n        for (uint256 i = 0; i < indexList.length; i++) {\n            _workExperiencebyTenderRefAndOrgId[i] = workExperienceModel.getWorkExperienceByIndex(indexList[i]);\n        }\n\n    }    \n\n    \n    /** @dev Listing out the Work Experiences against the Vendor Gid and EgpSystem Id.\n      * @param _vendorGid GID of the vendor.\n      * @param _egpSystemId e-GP system Id registered with the network.\n      * @param _toExcluded The length till where the uint indexes has to be fetched.\n      * @param _count The number of indexes that has to be fetched. \n      * @return _workExperiencebyVendorAndOrgId List of Work Experiences against the Vendor Gid and EgpSystem Id.\n      * @return fromIncluded_ _toExcluded - _count.\n      * @return length_ The length of the index present for the Vendor Gid and EgpSystem Id.\n      */\n    function getWorkExperienceListbyVendorAndOrgId(string memory _vendorGid, string memory _egpSystemId, uint _toExcluded, uint _count) public view \n    returns(WorkExperience[] memory _workExperiencebyVendorAndOrgId, uint fromIncluded_, uint length_)  {\n        bytes8 _workExperienceVendorOrgId = bytes8(keccak256(abi.encodePacked(_vendorGid, _egpSystemId)));\n        uint[] memory indexList;\n        (indexList, fromIncluded_, length_) = workExperienceModel.getWorkExperiencebyVendorAndOrgId(_workExperienceVendorOrgId, _toExcluded, _count);\n        _workExperiencebyVendorAndOrgId = new WorkExperience[](indexList.length);\n        for (uint256 i = 0; i < indexList.length; i++) {\n            _workExperiencebyVendorAndOrgId[i] = workExperienceModel.getWorkExperienceByIndex(indexList[i]);\n        }\n\n    }  \n\n    \n    /** @dev Listing out the Work Experiences against the PE GID and Vendor Gid.\n      * @param _procuringEntityGid GID assigned to Procuring Entity.\n      * @param _vendorGid GID of the vendor.\n      * @param _toExcluded The length till where the uint indexes has to be fetched.\n      * @param _count The number of indexes that has to be fetched. \n      * @return _workExperiencebyPEAndVendorGid List of Work Experiences against the PE GID and Vendor Gid.\n      * @return fromIncluded_ _toExcluded - _count.\n      * @return length_ The length of the index present for the  PE GID and Vendor Gid.\n      */\n    function getWorkExperiencebyPEAndVendorGid(string memory _procuringEntityGid, string memory _vendorGid, uint _toExcluded, uint _count) public view \n    returns(WorkExperience[] memory _workExperiencebyPEAndVendorGid, uint fromIncluded_, uint length_)  {\n        bytes8 _workExperiencePEVendorGid = bytes8(keccak256(abi.encodePacked(_procuringEntityGid, _vendorGid)));\n        uint[] memory indexList;\n        (indexList, fromIncluded_, length_) = workExperienceModel.getWorkExperiencebyPEAndVendorGid(_workExperiencePEVendorGid, _toExcluded, _count);\n        _workExperiencebyPEAndVendorGid = new WorkExperience[](indexList.length);\n        for (uint256 i = 0; i < indexList.length; i++) {\n            _workExperiencebyPEAndVendorGid[i] = workExperienceModel.getWorkExperienceByIndex(indexList[i]);\n        }\n\n\n    }    \n\n    function getWorkExperiencesForAwardOfContract(bytes8 _aocId, uint _toExcluded, uint _count) public view \n    AocIdExists(_aocId)\n    returns(WorkExperience [] memory workExperiences_, uint fromIncluded_, uint length_){\n        uint [] memory ids;\n        (ids, fromIncluded_, length_) = workExperienceModel.getAocWorkExperienceIndices(_aocId, _toExcluded, _count);\n        workExperiences_ = new WorkExperience[](ids.length);\n        for(uint i=0;i<ids.length;i++) {\n            workExperiences_[i] = workExperienceModel.getWorkExperienceByIndex(ids[i]);\n        }\n    }\n\n    function getWorkExperienceForPE(string memory _procuringEntityGid, uint _toExcluded, uint _count) public view \n    returns(WorkExperience [] memory workExperiences_, uint fromIncluded_, uint length_){\n        uint [] memory ids;\n        (ids, fromIncluded_, length_) = workExperienceModel.getPEWorkExperienceIndices(_procuringEntityGid, _toExcluded, _count);\n        workExperiences_ = new WorkExperience[](ids.length);\n        for(uint i=0;i<ids.length;i++) {\n            workExperiences_[i] = workExperienceModel.getWorkExperienceByIndex(ids[i]);\n        }        \n    }\n\n    function getWorkExperiencesAocVendorGID(bytes8 _uid) public view returns(string memory){\n        return aocManager.getAocVendorGID(_uid);\n    }\n\n    function isUidExists(bytes8 _uid) external view returns(bool){\n        return (workExperienceModel.getWorkExperienceIndex(_uid)>0);\n    }\n\n    function _getIndex(bytes8 _uid) private view returns (uint){\n        return workExperienceModel.getWorkExperienceIndex(_uid)-1;\n    }\n\n    function _generateUID(WorkExperience memory _workEx) private pure returns (bytes8){\n        return bytes8(keccak256(abi.encodePacked(_workEx.awardReference, _workEx.workExperienceCertificateIssuanceDate,\n            _workEx.procuringEntityRepresentativeName, _workEx.procuringEntityRepresentativeDesignation, _workEx.awardOfContractId)));\n    }\n\n    function _getVendorGid(bytes8 _aocUid) private view returns (string memory){\n        return aocManager.getAwardOfContract(_aocUid).vendorGid;\n    }\n\n}",
  "sourcePath": "/home/raghupathi/Desktop/javaClass/javaClass/contracts/WorkExperienceManager.sol",
  "compiler": {
    "name": "solc",
    "version": "0.8.20+commit.a1b79de6.Emscripten.clang"
  },
  "schemaVersion": "3.4.14",
  "updatedAt": "2023-06-02T09:43:22.692Z",
  "devdoc": {
    "kind": "dev",
    "methods": {
      "getAocWorkExperienceListIndices(bytes8,uint256,uint256)": {
        "details": "Listing out the Work Experiences against the Aoc Id.",
        "params": {
          "_aocId": "unique id value of Aoc.",
          "_count": "The number of indexes that has to be fetched. ",
          "_toExcluded": "The length till where the uint indexes has to be fetched."
        },
        "returns": {
          "_aocWorkExperiences": "List of Work Experiences against the Aoc Id.",
          "fromIncluded_": "_toExcluded - _count.",
          "length_": "The length of the index present for the banks GID."
        }
      },
      "getPEWorkExperienceListIndices(string,uint256,uint256)": {
        "details": "Listing out the Work Experiences against the PE GID.",
        "params": {
          "_count": "The number of indexes that has to be fetched. ",
          "_peGid": "unique id value of PE.",
          "_toExcluded": "The length till where the uint indexes has to be fetched."
        },
        "returns": {
          "_peWorkExperiences": "List of Work Experiences against the PE GID.",
          "fromIncluded_": "_toExcluded - _count.",
          "length_": "The length of the index present for the PE GID."
        }
      },
      "getWeIndicesListByOrgId(string,uint256,uint256)": {
        "details": "Listing out the Work Experiences against the EgpSystem Id.",
        "params": {
          "_count": "The number of indexes that has to be fetched. ",
          "_egpSystemId": "e-GP system Id registered with the network.",
          "_toExcluded": "The length till where the uint indexes has to be fetched."
        },
        "returns": {
          "_orgIDWorkExperiences": "List of Work Experiences against the EgpSystem Id.",
          "fromIncluded_": "_toExcluded - _count.",
          "length_": "The length of the index present for the EgpSystem Id."
        }
      },
      "getWorkExperienceListbyTenderRefAndOrgId(string,string,uint256,uint256)": {
        "details": "Listing out the Work Experiences against the Tender Reference and EgpSystem Id.",
        "params": {
          "_count": "The number of indexes that has to be fetched. ",
          "_egpSystemId": "e-GP system Id registered with the network.",
          "_tenderReference": "Tender reference.",
          "_toExcluded": "The length till where the uint indexes has to be fetched."
        },
        "returns": {
          "_workExperiencebyTenderRefAndOrgId": "List of Work Experiences against the Tender Reference and EgpSystem Id.",
          "fromIncluded_": "_toExcluded - _count.",
          "length_": "The length of the index present for the Tender Reference and EgpSystem Id."
        }
      },
      "getWorkExperienceListbyVendorAndOrgId(string,string,uint256,uint256)": {
        "details": "Listing out the Work Experiences against the Vendor Gid and EgpSystem Id.",
        "params": {
          "_count": "The number of indexes that has to be fetched. ",
          "_egpSystemId": "e-GP system Id registered with the network.",
          "_toExcluded": "The length till where the uint indexes has to be fetched.",
          "_vendorGid": "GID of the vendor."
        },
        "returns": {
          "_workExperiencebyVendorAndOrgId": "List of Work Experiences against the Vendor Gid and EgpSystem Id.",
          "fromIncluded_": "_toExcluded - _count.",
          "length_": "The length of the index present for the Vendor Gid and EgpSystem Id."
        }
      },
      "getWorkExperiencebyPEAndVendorGid(string,string,uint256,uint256)": {
        "details": "Listing out the Work Experiences against the PE GID and Vendor Gid.",
        "params": {
          "_count": "The number of indexes that has to be fetched. ",
          "_procuringEntityGid": "GID assigned to Procuring Entity.",
          "_toExcluded": "The length till where the uint indexes has to be fetched.",
          "_vendorGid": "GID of the vendor."
        },
        "returns": {
          "_workExperiencebyPEAndVendorGid": "List of Work Experiences against the PE GID and Vendor Gid.",
          "fromIncluded_": "_toExcluded - _count.",
          "length_": "The length of the index present for the  PE GID and Vendor Gid."
        }
      }
    },
    "version": 1
  },
  "userdoc": {
    "kind": "user",
    "methods": {},
    "version": 1
  }
}