{
  "contractName": "WorkExperienceModel",
  "abi": [
    {
      "inputs": [
        {
          "internalType": "address",
          "name": "_Member",
          "type": "address"
        },
        {
          "internalType": "address",
          "name": "_List",
          "type": "address"
        },
        {
          "internalType": "address",
          "name": "_Map",
          "type": "address"
        },
        {
          "internalType": "address",
          "name": "_quireContracts",
          "type": "address"
        }
      ],
      "stateMutability": "nonpayable",
      "type": "constructor"
    },
    {
      "inputs": [],
      "name": "workExperiencebyTenderRefAndOrgId",
      "outputs": [
        {
          "internalType": "string",
          "name": "",
          "type": "string"
        }
      ],
      "stateMutability": "view",
      "type": "function"
    },
    {
      "inputs": [],
      "name": "getWorkExperienceListLength",
      "outputs": [
        {
          "internalType": "uint256",
          "name": "",
          "type": "uint256"
        }
      ],
      "stateMutability": "view",
      "type": "function"
    },
    {
      "inputs": [
        {
          "internalType": "uint256",
          "name": "_index",
          "type": "uint256"
        }
      ],
      "name": "getWorkExperienceByIndex",
      "outputs": [
        {
          "components": [
            {
              "internalType": "bytes8",
              "name": "uid",
              "type": "bytes8"
            },
            {
              "internalType": "string",
              "name": "awardReference",
              "type": "string"
            },
            {
              "internalType": "uint256",
              "name": "workExperienceCertificateIssuanceDate",
              "type": "uint256"
            },
            {
              "internalType": "string",
              "name": "contractCompletedValue",
              "type": "string"
            },
            {
              "internalType": "enum WorkExperienceStructs.WorkStatus",
              "name": "workStatus",
              "type": "uint8"
            },
            {
              "internalType": "string",
              "name": "remarks",
              "type": "string"
            },
            {
              "internalType": "enum WorkExperienceStructs.SupplierRating",
              "name": "supplierRating",
              "type": "uint8"
            },
            {
              "internalType": "string",
              "name": "workExperienceFileHash",
              "type": "string"
            },
            {
              "internalType": "string",
              "name": "egpSystemId",
              "type": "string"
            },
            {
              "internalType": "string",
              "name": "procuringEntityGid",
              "type": "string"
            },
            {
              "internalType": "string",
              "name": "procuringEntityName",
              "type": "string"
            },
            {
              "internalType": "string",
              "name": "procuringEntityRepresentativeName",
              "type": "string"
            },
            {
              "internalType": "string",
              "name": "procuringEntityRepresentativeDesignation",
              "type": "string"
            },
            {
              "internalType": "string",
              "name": "subject",
              "type": "string"
            },
            {
              "internalType": "bytes8",
              "name": "awardOfContractId",
              "type": "bytes8"
            },
            {
              "internalType": "uint16",
              "name": "version",
              "type": "uint16"
            }
          ],
          "internalType": "struct WorkExperienceStructs.WorkExperience",
          "name": "workExperience_",
          "type": "tuple"
        }
      ],
      "stateMutability": "view",
      "type": "function"
    },
    {
      "inputs": [
        {
          "internalType": "uint256",
          "name": "_toExcluded",
          "type": "uint256"
        },
        {
          "internalType": "uint256",
          "name": "_count",
          "type": "uint256"
        }
      ],
      "name": "getAllWorkExperience",
      "outputs": [
        {
          "components": [
            {
              "internalType": "bytes8",
              "name": "uid",
              "type": "bytes8"
            },
            {
              "internalType": "string",
              "name": "awardReference",
              "type": "string"
            },
            {
              "internalType": "uint256",
              "name": "workExperienceCertificateIssuanceDate",
              "type": "uint256"
            },
            {
              "internalType": "string",
              "name": "contractCompletedValue",
              "type": "string"
            },
            {
              "internalType": "enum WorkExperienceStructs.WorkStatus",
              "name": "workStatus",
              "type": "uint8"
            },
            {
              "internalType": "string",
              "name": "remarks",
              "type": "string"
            },
            {
              "internalType": "enum WorkExperienceStructs.SupplierRating",
              "name": "supplierRating",
              "type": "uint8"
            },
            {
              "internalType": "string",
              "name": "workExperienceFileHash",
              "type": "string"
            },
            {
              "internalType": "string",
              "name": "egpSystemId",
              "type": "string"
            },
            {
              "internalType": "string",
              "name": "procuringEntityGid",
              "type": "string"
            },
            {
              "internalType": "string",
              "name": "procuringEntityName",
              "type": "string"
            },
            {
              "internalType": "string",
              "name": "procuringEntityRepresentativeName",
              "type": "string"
            },
            {
              "internalType": "string",
              "name": "procuringEntityRepresentativeDesignation",
              "type": "string"
            },
            {
              "internalType": "string",
              "name": "subject",
              "type": "string"
            },
            {
              "internalType": "bytes8",
              "name": "awardOfContractId",
              "type": "bytes8"
            },
            {
              "internalType": "uint16",
              "name": "version",
              "type": "uint16"
            }
          ],
          "internalType": "struct WorkExperienceStructs.WorkExperience[]",
          "name": "_workExperience",
          "type": "tuple[]"
        },
        {
          "internalType": "uint256",
          "name": "fromIncluded_",
          "type": "uint256"
        },
        {
          "internalType": "uint256",
          "name": "length_",
          "type": "uint256"
        }
      ],
      "stateMutability": "view",
      "type": "function"
    },
    {
      "inputs": [
        {
          "internalType": "uint256",
          "name": "_index",
          "type": "uint256"
        }
      ],
      "name": "getWorkExperienceUid",
      "outputs": [
        {
          "internalType": "bytes8",
          "name": "",
          "type": "bytes8"
        }
      ],
      "stateMutability": "view",
      "type": "function"
    },
    {
      "inputs": [
        {
          "internalType": "uint256",
          "name": "_index",
          "type": "uint256"
        }
      ],
      "name": "getWorkExperienceAwardReference",
      "outputs": [
        {
          "internalType": "string",
          "name": "",
          "type": "string"
        }
      ],
      "stateMutability": "view",
      "type": "function"
    },
    {
      "inputs": [
        {
          "internalType": "uint256",
          "name": "_index",
          "type": "uint256"
        }
      ],
      "name": "getWorkExperienceWorkExperienceCertificateIssuanceDate",
      "outputs": [
        {
          "internalType": "uint256",
          "name": "",
          "type": "uint256"
        }
      ],
      "stateMutability": "view",
      "type": "function"
    },
    {
      "inputs": [
        {
          "internalType": "uint256",
          "name": "_index",
          "type": "uint256"
        }
      ],
      "name": "getWorkExperienceContractCompletedValue",
      "outputs": [
        {
          "internalType": "string",
          "name": "",
          "type": "string"
        }
      ],
      "stateMutability": "view",
      "type": "function"
    },
    {
      "inputs": [
        {
          "internalType": "uint256",
          "name": "_index",
          "type": "uint256"
        }
      ],
      "name": "getWorkExperienceWorkStatus",
      "outputs": [
        {
          "internalType": "enum WorkExperienceStructs.WorkStatus",
          "name": "",
          "type": "uint8"
        }
      ],
      "stateMutability": "view",
      "type": "function"
    },
    {
      "inputs": [
        {
          "internalType": "uint256",
          "name": "_index",
          "type": "uint256"
        }
      ],
      "name": "getWorkExperienceRemarks",
      "outputs": [
        {
          "internalType": "string",
          "name": "",
          "type": "string"
        }
      ],
      "stateMutability": "view",
      "type": "function"
    },
    {
      "inputs": [
        {
          "internalType": "uint256",
          "name": "_index",
          "type": "uint256"
        }
      ],
      "name": "getWorkExperienceSupplierRating",
      "outputs": [
        {
          "internalType": "uint8",
          "name": "",
          "type": "uint8"
        }
      ],
      "stateMutability": "view",
      "type": "function"
    },
    {
      "inputs": [
        {
          "internalType": "uint256",
          "name": "_index",
          "type": "uint256"
        }
      ],
      "name": "getWorkExperienceWorkExperienceFileHash",
      "outputs": [
        {
          "internalType": "string",
          "name": "",
          "type": "string"
        }
      ],
      "stateMutability": "view",
      "type": "function"
    },
    {
      "inputs": [
        {
          "internalType": "uint256",
          "name": "_index",
          "type": "uint256"
        }
      ],
      "name": "getWorkExperienceEgpSystemId",
      "outputs": [
        {
          "internalType": "string",
          "name": "",
          "type": "string"
        }
      ],
      "stateMutability": "view",
      "type": "function"
    },
    {
      "inputs": [
        {
          "internalType": "uint256",
          "name": "_index",
          "type": "uint256"
        }
      ],
      "name": "getWorkExperienceProcuringEntityGid",
      "outputs": [
        {
          "internalType": "string",
          "name": "",
          "type": "string"
        }
      ],
      "stateMutability": "view",
      "type": "function"
    },
    {
      "inputs": [
        {
          "internalType": "uint256",
          "name": "_index",
          "type": "uint256"
        }
      ],
      "name": "getWorkExperienceProcuringEntityName",
      "outputs": [
        {
          "internalType": "string",
          "name": "",
          "type": "string"
        }
      ],
      "stateMutability": "view",
      "type": "function"
    },
    {
      "inputs": [
        {
          "internalType": "uint256",
          "name": "_index",
          "type": "uint256"
        }
      ],
      "name": "getWorkExperienceProcuringEntityRepresentativeName",
      "outputs": [
        {
          "internalType": "string",
          "name": "",
          "type": "string"
        }
      ],
      "stateMutability": "view",
      "type": "function"
    },
    {
      "inputs": [
        {
          "internalType": "uint256",
          "name": "_index",
          "type": "uint256"
        }
      ],
      "name": "getWorkExperienceProcuringEntityRepresentativeDesignation",
      "outputs": [
        {
          "internalType": "string",
          "name": "",
          "type": "string"
        }
      ],
      "stateMutability": "view",
      "type": "function"
    },
    {
      "inputs": [
        {
          "internalType": "uint256",
          "name": "_index",
          "type": "uint256"
        }
      ],
      "name": "getWorkExperienceSubject",
      "outputs": [
        {
          "internalType": "string",
          "name": "",
          "type": "string"
        }
      ],
      "stateMutability": "view",
      "type": "function"
    },
    {
      "inputs": [
        {
          "internalType": "uint256",
          "name": "_index",
          "type": "uint256"
        }
      ],
      "name": "getWorkExperienceAwardOfContractId",
      "outputs": [
        {
          "internalType": "bytes8",
          "name": "",
          "type": "bytes8"
        }
      ],
      "stateMutability": "view",
      "type": "function"
    },
    {
      "inputs": [
        {
          "internalType": "uint256",
          "name": "_index",
          "type": "uint256"
        }
      ],
      "name": "getWorkExperienceVersion",
      "outputs": [
        {
          "internalType": "uint16",
          "name": "",
          "type": "uint16"
        }
      ],
      "stateMutability": "view",
      "type": "function"
    },
    {
      "inputs": [
        {
          "internalType": "bytes8",
          "name": "_uid",
          "type": "bytes8"
        }
      ],
      "name": "getWorkExperienceIndex",
      "outputs": [
        {
          "internalType": "uint256",
          "name": "",
          "type": "uint256"
        }
      ],
      "stateMutability": "view",
      "type": "function"
    },
    {
      "inputs": [
        {
          "internalType": "bytes8",
          "name": "_aocId",
          "type": "bytes8"
        },
        {
          "internalType": "uint256",
          "name": "_toExcluded",
          "type": "uint256"
        },
        {
          "internalType": "uint256",
          "name": "_count",
          "type": "uint256"
        }
      ],
      "name": "getAocWorkExperienceIndices",
      "outputs": [
        {
          "internalType": "uint256[]",
          "name": "_aocWorkExperiences",
          "type": "uint256[]"
        },
        {
          "internalType": "uint256",
          "name": "fromIncluded_",
          "type": "uint256"
        },
        {
          "internalType": "uint256",
          "name": "length_",
          "type": "uint256"
        }
      ],
      "stateMutability": "view",
      "type": "function"
    },
    {
      "inputs": [
        {
          "internalType": "string",
          "name": "_peGid",
          "type": "string"
        },
        {
          "internalType": "uint256",
          "name": "_toExcluded",
          "type": "uint256"
        },
        {
          "internalType": "uint256",
          "name": "_count",
          "type": "uint256"
        }
      ],
      "name": "getPEWorkExperienceIndices",
      "outputs": [
        {
          "internalType": "uint256[]",
          "name": "_peWorkExperiences",
          "type": "uint256[]"
        },
        {
          "internalType": "uint256",
          "name": "fromIncluded_",
          "type": "uint256"
        },
        {
          "internalType": "uint256",
          "name": "length_",
          "type": "uint256"
        }
      ],
      "stateMutability": "view",
      "type": "function"
    },
    {
      "inputs": [
        {
          "internalType": "string",
          "name": "_egpSystemId",
          "type": "string"
        },
        {
          "internalType": "uint256",
          "name": "_toExcluded",
          "type": "uint256"
        },
        {
          "internalType": "uint256",
          "name": "_count",
          "type": "uint256"
        }
      ],
      "name": "getWeIndicesByOrgId",
      "outputs": [
        {
          "internalType": "uint256[]",
          "name": "_orgIDWorkExperiences",
          "type": "uint256[]"
        },
        {
          "internalType": "uint256",
          "name": "fromIncluded_",
          "type": "uint256"
        },
        {
          "internalType": "uint256",
          "name": "length_",
          "type": "uint256"
        }
      ],
      "stateMutability": "view",
      "type": "function"
    },
    {
      "inputs": [
        {
          "internalType": "bytes8",
          "name": "_workExperienceTenderRefOrgId",
          "type": "bytes8"
        },
        {
          "internalType": "uint256",
          "name": "_toExcluded",
          "type": "uint256"
        },
        {
          "internalType": "uint256",
          "name": "_count",
          "type": "uint256"
        }
      ],
      "name": "getWorkExperiencebyTenderRefAndOrgId",
      "outputs": [
        {
          "internalType": "uint256[]",
          "name": "_workExperiencebyTenderRefAndOrgId",
          "type": "uint256[]"
        },
        {
          "internalType": "uint256",
          "name": "fromIncluded_",
          "type": "uint256"
        },
        {
          "internalType": "uint256",
          "name": "length_",
          "type": "uint256"
        }
      ],
      "stateMutability": "view",
      "type": "function"
    },
    {
      "inputs": [
        {
          "internalType": "bytes8",
          "name": "_workExperienceVendorOrgId",
          "type": "bytes8"
        },
        {
          "internalType": "uint256",
          "name": "_toExcluded",
          "type": "uint256"
        },
        {
          "internalType": "uint256",
          "name": "_count",
          "type": "uint256"
        }
      ],
      "name": "getWorkExperiencebyVendorAndOrgId",
      "outputs": [
        {
          "internalType": "uint256[]",
          "name": "_workExperiencebyVendorAndOrgId",
          "type": "uint256[]"
        },
        {
          "internalType": "uint256",
          "name": "fromIncluded_",
          "type": "uint256"
        },
        {
          "internalType": "uint256",
          "name": "length_",
          "type": "uint256"
        }
      ],
      "stateMutability": "view",
      "type": "function"
    },
    {
      "inputs": [
        {
          "internalType": "bytes8",
          "name": "_workExperiencePEVendorGid",
          "type": "bytes8"
        },
        {
          "internalType": "uint256",
          "name": "_toExcluded",
          "type": "uint256"
        },
        {
          "internalType": "uint256",
          "name": "_count",
          "type": "uint256"
        }
      ],
      "name": "getWorkExperiencebyPEAndVendorGid",
      "outputs": [
        {
          "internalType": "uint256[]",
          "name": "_workExperiencebyPEAndVendorGid",
          "type": "uint256[]"
        },
        {
          "internalType": "uint256",
          "name": "fromIncluded_",
          "type": "uint256"
        },
        {
          "internalType": "uint256",
          "name": "length_",
          "type": "uint256"
        }
      ],
      "stateMutability": "view",
      "type": "function"
    },
    {
      "inputs": [
        {
          "internalType": "bytes8",
          "name": "_uid",
          "type": "bytes8"
        },
        {
          "internalType": "uint256",
          "name": "_value",
          "type": "uint256"
        }
      ],
      "name": "setWorkExperienceIndex",
      "outputs": [],
      "stateMutability": "nonpayable",
      "type": "function"
    },
    {
      "inputs": [],
      "name": "incWorkExperienceListLength",
      "outputs": [],
      "stateMutability": "nonpayable",
      "type": "function"
    },
    {
      "inputs": [
        {
          "internalType": "uint256",
          "name": "_index",
          "type": "uint256"
        },
        {
          "internalType": "bytes8",
          "name": "_value",
          "type": "bytes8"
        }
      ],
      "name": "setWorkExperienceUid",
      "outputs": [],
      "stateMutability": "nonpayable",
      "type": "function"
    },
    {
      "inputs": [
        {
          "internalType": "uint256",
          "name": "_index",
          "type": "uint256"
        },
        {
          "internalType": "string",
          "name": "_value",
          "type": "string"
        }
      ],
      "name": "setWorkExperienceAwardReference",
      "outputs": [],
      "stateMutability": "nonpayable",
      "type": "function"
    },
    {
      "inputs": [
        {
          "internalType": "uint256",
          "name": "_index",
          "type": "uint256"
        },
        {
          "internalType": "uint256",
          "name": "_value",
          "type": "uint256"
        }
      ],
      "name": "setWorkExperienceWorkExperienceCertificateIssuanceDate",
      "outputs": [],
      "stateMutability": "nonpayable",
      "type": "function"
    },
    {
      "inputs": [
        {
          "internalType": "uint256",
          "name": "_index",
          "type": "uint256"
        },
        {
          "internalType": "string",
          "name": "_value",
          "type": "string"
        }
      ],
      "name": "setWorkExperienceContractCompletedValue",
      "outputs": [],
      "stateMutability": "nonpayable",
      "type": "function"
    },
    {
      "inputs": [
        {
          "internalType": "uint256",
          "name": "_index",
          "type": "uint256"
        },
        {
          "internalType": "enum WorkExperienceStructs.WorkStatus",
          "name": "_value",
          "type": "uint8"
        }
      ],
      "name": "setWorkExperienceWorkStatus",
      "outputs": [],
      "stateMutability": "nonpayable",
      "type": "function"
    },
    {
      "inputs": [
        {
          "internalType": "uint256",
          "name": "_index",
          "type": "uint256"
        },
        {
          "internalType": "string",
          "name": "_value",
          "type": "string"
        }
      ],
      "name": "setWorkExperienceRemarks",
      "outputs": [],
      "stateMutability": "nonpayable",
      "type": "function"
    },
    {
      "inputs": [
        {
          "internalType": "uint256",
          "name": "_index",
          "type": "uint256"
        },
        {
          "internalType": "uint8",
          "name": "_value",
          "type": "uint8"
        }
      ],
      "name": "setWorkExperienceSupplierRating",
      "outputs": [],
      "stateMutability": "nonpayable",
      "type": "function"
    },
    {
      "inputs": [
        {
          "internalType": "uint256",
          "name": "_index",
          "type": "uint256"
        },
        {
          "internalType": "string",
          "name": "_value",
          "type": "string"
        }
      ],
      "name": "setWorkExperienceWorkExperienceFileHash",
      "outputs": [],
      "stateMutability": "nonpayable",
      "type": "function"
    },
    {
      "inputs": [
        {
          "internalType": "uint256",
          "name": "_index",
          "type": "uint256"
        },
        {
          "internalType": "string",
          "name": "_value",
          "type": "string"
        }
      ],
      "name": "setWorkExperienceEgpSystemId",
      "outputs": [],
      "stateMutability": "nonpayable",
      "type": "function"
    },
    {
      "inputs": [
        {
          "internalType": "uint256",
          "name": "_index",
          "type": "uint256"
        },
        {
          "internalType": "string",
          "name": "_value",
          "type": "string"
        }
      ],
      "name": "setWorkExperienceProcuringEntityGid",
      "outputs": [],
      "stateMutability": "nonpayable",
      "type": "function"
    },
    {
      "inputs": [
        {
          "internalType": "uint256",
          "name": "_index",
          "type": "uint256"
        },
        {
          "internalType": "string",
          "name": "_value",
          "type": "string"
        }
      ],
      "name": "setWorkExperienceProcuringEntityName",
      "outputs": [],
      "stateMutability": "nonpayable",
      "type": "function"
    },
    {
      "inputs": [
        {
          "internalType": "uint256",
          "name": "_index",
          "type": "uint256"
        },
        {
          "internalType": "string",
          "name": "_value",
          "type": "string"
        }
      ],
      "name": "setWorkExperienceProcuringEntityRepresentativeName",
      "outputs": [],
      "stateMutability": "nonpayable",
      "type": "function"
    },
    {
      "inputs": [
        {
          "internalType": "uint256",
          "name": "_index",
          "type": "uint256"
        },
        {
          "internalType": "string",
          "name": "_value",
          "type": "string"
        }
      ],
      "name": "setWorkExperienceProcuringEntityRepresentativeDesignation",
      "outputs": [],
      "stateMutability": "nonpayable",
      "type": "function"
    },
    {
      "inputs": [
        {
          "internalType": "uint256",
          "name": "_index",
          "type": "uint256"
        },
        {
          "internalType": "string",
          "name": "_value",
          "type": "string"
        }
      ],
      "name": "setWorkExperienceSubject",
      "outputs": [],
      "stateMutability": "nonpayable",
      "type": "function"
    },
    {
      "inputs": [
        {
          "internalType": "uint256",
          "name": "_index",
          "type": "uint256"
        },
        {
          "internalType": "bytes8",
          "name": "_value",
          "type": "bytes8"
        }
      ],
      "name": "setWorkExperienceAwardOfContractId",
      "outputs": [],
      "stateMutability": "nonpayable",
      "type": "function"
    },
    {
      "inputs": [
        {
          "internalType": "uint256",
          "name": "_index",
          "type": "uint256"
        }
      ],
      "name": "setWorkExperienceVersion",
      "outputs": [],
      "stateMutability": "nonpayable",
      "type": "function"
    },
    {
      "inputs": [
        {
          "components": [
            {
              "internalType": "bytes8",
              "name": "uid",
              "type": "bytes8"
            },
            {
              "internalType": "string",
              "name": "awardReference",
              "type": "string"
            },
            {
              "internalType": "uint256",
              "name": "workExperienceCertificateIssuanceDate",
              "type": "uint256"
            },
            {
              "internalType": "string",
              "name": "contractCompletedValue",
              "type": "string"
            },
            {
              "internalType": "enum WorkExperienceStructs.WorkStatus",
              "name": "workStatus",
              "type": "uint8"
            },
            {
              "internalType": "string",
              "name": "remarks",
              "type": "string"
            },
            {
              "internalType": "enum WorkExperienceStructs.SupplierRating",
              "name": "supplierRating",
              "type": "uint8"
            },
            {
              "internalType": "string",
              "name": "workExperienceFileHash",
              "type": "string"
            },
            {
              "internalType": "string",
              "name": "egpSystemId",
              "type": "string"
            },
            {
              "internalType": "string",
              "name": "procuringEntityGid",
              "type": "string"
            },
            {
              "internalType": "string",
              "name": "procuringEntityName",
              "type": "string"
            },
            {
              "internalType": "string",
              "name": "procuringEntityRepresentativeName",
              "type": "string"
            },
            {
              "internalType": "string",
              "name": "procuringEntityRepresentativeDesignation",
              "type": "string"
            },
            {
              "internalType": "string",
              "name": "subject",
              "type": "string"
            },
            {
              "internalType": "bytes8",
              "name": "awardOfContractId",
              "type": "bytes8"
            },
            {
              "internalType": "uint16",
              "name": "version",
              "type": "uint16"
            }
          ],
          "internalType": "struct WorkExperienceStructs.WorkExperience",
          "name": "_workExperience",
          "type": "tuple"
        }
      ],
      "name": "pushWorkExperience",
      "outputs": [],
      "stateMutability": "nonpayable",
      "type": "function"
    },
    {
      "inputs": [
        {
          "components": [
            {
              "internalType": "bytes8",
              "name": "uid",
              "type": "bytes8"
            },
            {
              "internalType": "string",
              "name": "awardReference",
              "type": "string"
            },
            {
              "internalType": "uint256",
              "name": "workExperienceCertificateIssuanceDate",
              "type": "uint256"
            },
            {
              "internalType": "string",
              "name": "contractCompletedValue",
              "type": "string"
            },
            {
              "internalType": "enum WorkExperienceStructs.WorkStatus",
              "name": "workStatus",
              "type": "uint8"
            },
            {
              "internalType": "string",
              "name": "remarks",
              "type": "string"
            },
            {
              "internalType": "enum WorkExperienceStructs.SupplierRating",
              "name": "supplierRating",
              "type": "uint8"
            },
            {
              "internalType": "string",
              "name": "workExperienceFileHash",
              "type": "string"
            },
            {
              "internalType": "string",
              "name": "egpSystemId",
              "type": "string"
            },
            {
              "internalType": "string",
              "name": "procuringEntityGid",
              "type": "string"
            },
            {
              "internalType": "string",
              "name": "procuringEntityName",
              "type": "string"
            },
            {
              "internalType": "string",
              "name": "procuringEntityRepresentativeName",
              "type": "string"
            },
            {
              "internalType": "string",
              "name": "procuringEntityRepresentativeDesignation",
              "type": "string"
            },
            {
              "internalType": "string",
              "name": "subject",
              "type": "string"
            },
            {
              "internalType": "bytes8",
              "name": "awardOfContractId",
              "type": "bytes8"
            },
            {
              "internalType": "uint16",
              "name": "version",
              "type": "uint16"
            }
          ],
          "internalType": "struct WorkExperienceStructs.WorkExperience",
          "name": "_workExperience",
          "type": "tuple"
        },
        {
          "internalType": "uint256",
          "name": "_value",
          "type": "uint256"
        },
        {
          "internalType": "string",
          "name": "_getTenderRef",
          "type": "string"
        },
        {
          "internalType": "string",
          "name": "_vendorGid",
          "type": "string"
        }
      ],
      "name": "addAocWorkExperienceIndex",
      "outputs": [],
      "stateMutability": "nonpayable",
      "type": "function"
    }
  ],
  "bytecode": "0x608060405234801562000010575f80fd5b506040516200b0303803806200b0308339818101604052810190620000369190620001a4565b835f806101000a81548173ffffffffffffffffffffffffffffffffffffffff021916908373ffffffffffffffffffffffffffffffffffffffff1602179055508260015f6101000a81548173ffffffffffffffffffffffffffffffffffffffff021916908373ffffffffffffffffffffffffffffffffffffffff1602179055508160025f6101000a81548173ffffffffffffffffffffffffffffffffffffffff021916908373ffffffffffffffffffffffffffffffffffffffff1602179055508060035f6101000a81548173ffffffffffffffffffffffffffffffffffffffff021916908373ffffffffffffffffffffffffffffffffffffffff1602179055505050505062000213565b5f80fd5b5f73ffffffffffffffffffffffffffffffffffffffff82169050919050565b5f6200016e8262000143565b9050919050565b620001808162000162565b81146200018b575f80fd5b50565b5f815190506200019e8162000175565b92915050565b5f805f8060808587031215620001bf57620001be6200013f565b5b5f620001ce878288016200018e565b9450506020620001e1878288016200018e565b9350506040620001f4878288016200018e565b925050606062000207878288016200018e565b91505092959194509250565b61ae0f80620002215f395ff3fe608060405234801561000f575f80fd5b5060043610610293575f3560e01c806397b2b53311610165578063cac9557c116100cc578063e8a8a43811610085578063e8a8a438146108db578063eb202cc3146108f9578063ed7e6b5614610915578063fcc1e12c14610945578063fd493b8a14610961578063fd4be9de1461099357610293565b8063cac9557c146107f7578063d06ca0af14610827578063d67f119914610843578063dd0603911461085f578063dd7947681461088f578063e26b4ded146108bf57610293565b8063acfcfd341161011e578063acfcfd34146106fd578063b18ec7c61461072d578063b3c978cf14610749578063b7640ce414610765578063b817979614610795578063c07a841c146107c757610293565b806397b2b533146106155780639a3fc858146106315780639c26439f14610663578063a0def3b414610695578063a71d13a3146106b1578063a8678526146106cd57610293565b806341c55a4e116102095780635b0a0235116101c25780635b0a02351461052f5780635f0f3202146105395780636be791a1146105695780637114bc511461059957806381280180146105c95780638619b2fe146105f957610293565b806341c55a4e146104335780634bed63521461046357806350116c34146104955780635274b1cd146104c5578063586f694f146104e157806359414d771461051157610293565b8063213850041161025b578063213850041461034b57806327a055431461037b5780632a1b04ae146103975780632a7c53e3146103c95780632c624f2c146103fb5780632e7958b41461041757610293565b80630396da1e14610297578063081ee65a146102c75780630989e9a4146102e35780630c7141f3146102ff57806316c893ae1461032f575b5f80fd5b6102b160048036038101906102ac9190619334565b6109af565b6040516102be91906193d2565b60405180910390f35b6102e160048036038101906102dc9190619440565b610c57565b005b6102fd60048036038101906102f8919061947e565b610ec4565b005b61031960048036038101906103149190619334565b611114565b6040516103269190619546565b60405180910390f35b6103496004803603810190610344919061959c565b6113ab565b005b61036560048036038101906103609190619334565b611618565b6040516103729190619546565b60405180910390f35b610395600480360381019061039091906195fd565b6118af565b005b6103b160048036038101906103ac9190619767565b611b2e565b6040516103c093929190619899565b60405180910390f35b6103e360048036038101906103de91906198d5565b611e95565b6040516103f293929190619899565b60405180910390f35b61041560048036038101906104109190619925565b6121c2565b005b610431600480360381019061042c9190619c54565b6123f8565b005b61044d60048036038101906104489190619334565b613bd9565b60405161045a9190619546565b60405180910390f35b61047d600480360381019061047891906198d5565b613e53565b60405161048c93929190619899565b60405180910390f35b6104af60048036038101906104aa9190619334565b6141ba565b6040516104bc9190619546565b60405180910390f35b6104df60048036038101906104da9190619d0c565b614434565b005b6104fb60048036038101906104f69190619334565b6146a1565b6040516105089190619fb5565b60405180910390f35b6105196149f3565b6040516105269190619fd5565b60405180910390f35b610537614afe565b005b610553600480360381019061054e9190619334565b614d2e565b6040516105609190619546565b60405180910390f35b610583600480360381019061057e9190619fee565b614fc5565b6040516105909190619fd5565b60405180910390f35b6105b360048036038101906105ae9190619334565b6150d4565b6040516105c0919061a028565b60405180910390f35b6105e360048036038101906105de9190619334565b615367565b6040516105f0919061a050565b60405180910390f35b610613600480360381019061060e9190619d0c565b6155fa565b005b61062f600480360381019061062a9190619d0c565b615867565b005b61064b600480360381019061064691906198d5565b615ab7565b60405161065a93929190619899565b60405180910390f35b61067d60048036038101906106789190619767565b615de4565b60405161068c93929190619899565b60405180910390f35b6106af60048036038101906106aa9190619d0c565b61614b565b005b6106cb60048036038101906106c69190619d0c565b6163b8565b005b6106e760048036038101906106e29190619334565b616625565b6040516106f49190619546565b60405180910390f35b61071760048036038101906107129190619334565b6168bc565b6040516107249190619546565b60405180910390f35b61074760048036038101906107429190619d0c565b616b53565b005b610763600480360381019061075e9190619d0c565b616da3565b005b61077f600480360381019061077a9190619334565b617010565b60405161078c919061a028565b60405180910390f35b6107af60048036038101906107aa919061947e565b6172a3565b6040516107be9392919061a2b8565b60405180910390f35b6107e160048036038101906107dc9190619334565b61739e565b6040516107ee919061a303565b60405180910390f35b610811600480360381019061080c9190619334565b617631565b60405161081e9190619fd5565b60405180910390f35b610841600480360381019061083c9190619d0c565b6178a7565b005b61085d60048036038101906108589190619d0c565b617b14565b005b61087960048036038101906108749190619334565b617d81565b6040516108869190619546565b60405180910390f35b6108a960048036038101906108a49190619334565b618018565b6040516108b69190619546565b60405180910390f35b6108d960048036038101906108d49190619334565b6182af565b005b6108e361851c565b6040516108f09190619546565b60405180910390f35b610913600480360381019061090e9190619d0c565b618538565b005b61092f600480360381019061092a9190619334565b6187a5565b60405161093c9190619546565b60405180910390f35b61095f600480360381019061095a919061a31c565b618a3c565b005b61097b600480360381019061097691906198d5565b618c81565b60405161098a93929190619899565b60405180910390f35b6109ad60048036038101906109a89190619440565b618fae565b005b5f815f60015f9054906101000a900473ffffffffffffffffffffffffffffffffffffffff1673ffffffffffffffffffffffffffffffffffffffff16633bea27536040518060400160405280601781526020017f574f524b5f455850455249454e43455f4d414e414745520000000000000000008152506040518060400160405280601881526020017f6c6973745f5f776f726b457870657269656e63654c69737400000000000000008152506040518363ffffffff1660e01b8152600401610a7892919061a363565b602060405180830381865afa158015610a93573d5f803e3d5ffd5b505050506040513d601f19601f82011682018060405250810190610ab7919061a3ac565b9050808210610afb576040517f08c379a0000000000000000000000000000000000000000000000000000000008152600401610af29061a421565b60405180910390fd5b60015f9054906101000a900473ffffffffffffffffffffffffffffffffffffffff1673ffffffffffffffffffffffffffffffffffffffff1663a726dca16040518060400160405280601781526020017f574f524b5f455850455249454e43455f4d414e414745520000000000000000008152506040518060400160405280601881526020017f6c6973745f5f776f726b457870657269656e63654c6973740000000000000000815250876040518060400160405280600a81526020017f776f726b537461747573000000000000000000000000000000000000000000008152506040518563ffffffff1660e01b8152600401610bfa949392919061a43f565b602060405180830381865afa158015610c15573d5f803e3d5ffd5b505050506040513d601f19601f82011682018060405250810190610c39919061a4ab565b60ff166004811115610c4e57610c4d61935f565b5b92505050919050565b60035f9054906101000a900473ffffffffffffffffffffffffffffffffffffffff1673ffffffffffffffffffffffffffffffffffffffff1663ef02a3fc6040518060400160405280601781526020017f574f524b5f455850455249454e43455f4d414e414745520000000000000000008152506040518263ffffffff1660e01b8152600401610ce69190619546565b602060405180830381865afa158015610d01573d5f803e3d5ffd5b505050506040513d601f19601f82011682018060405250810190610d25919061a530565b73ffffffffffffffffffffffffffffffffffffffff163373ffffffffffffffffffffffffffffffffffffffff1614610d92576040517f08c379a0000000000000000000000000000000000000000000000000000000008152600401610d899061a5a5565b60405180910390fd5b60015f9054906101000a900473ffffffffffffffffffffffffffffffffffffffff1673ffffffffffffffffffffffffffffffffffffffff1663a06fd4546040518060400160405280601781526020017f574f524b5f455850455249454e43455f4d414e414745520000000000000000008152506040518060400160405280601881526020017f6c6973745f5f776f726b457870657269656e63654c6973740000000000000000815250856040518060400160405280600381526020017f7569640000000000000000000000000000000000000000000000000000000000815250866040518663ffffffff1660e01b8152600401610e9395949392919061a5c3565b5f604051808303815f87803b158015610eaa575f80fd5b505af1158015610ebc573d5f803e3d5ffd5b505050505050565b60035f9054906101000a900473ffffffffffffffffffffffffffffffffffffffff1673ffffffffffffffffffffffffffffffffffffffff1663ef02a3fc6040518060400160405280601781526020017f574f524b5f455850455249454e43455f4d414e414745520000000000000000008152506040518263ffffffff1660e01b8152600401610f539190619546565b602060405180830381865afa158015610f6e573d5f803e3d5ffd5b505050506040513d601f19601f82011682018060405250810190610f92919061a530565b73ffffffffffffffffffffffffffffffffffffffff163373ffffffffffffffffffffffffffffffffffffffff1614610fff576040517f08c379a0000000000000000000000000000000000000000000000000000000008152600401610ff69061a5a5565b60405180910390fd5b60015f9054906101000a900473ffffffffffffffffffffffffffffffffffffffff1673ffffffffffffffffffffffffffffffffffffffff16637f02dd826040518060400160405280601781526020017f574f524b5f455850455249454e43455f4d414e414745520000000000000000008152506040518060400160405280601881526020017f6c6973745f5f776f726b457870657269656e63654c69737400000000000000008152508560405180606001604052806025815260200161ad0060259139866040518663ffffffff1660e01b81526004016110e395949392919061a629565b5f604051808303815f87803b1580156110fa575f80fd5b505af115801561110c573d5f803e3d5ffd5b505050505050565b6060815f60015f9054906101000a900473ffffffffffffffffffffffffffffffffffffffff1673ffffffffffffffffffffffffffffffffffffffff16633bea27536040518060400160405280601781526020017f574f524b5f455850455249454e43455f4d414e414745520000000000000000008152506040518060400160405280601881526020017f6c6973745f5f776f726b457870657269656e63654c69737400000000000000008152506040518363ffffffff1660e01b81526004016111de92919061a363565b602060405180830381865afa1580156111f9573d5f803e3d5ffd5b505050506040513d601f19601f8201168201806040525081019061121d919061a3ac565b9050808210611261576040517f08c379a00000000000000000000000000000000000000000000000000000000081526004016112589061a421565b60405180910390fd5b60015f9054906101000a900473ffffffffffffffffffffffffffffffffffffffff1673ffffffffffffffffffffffffffffffffffffffff16632136448c6040518060400160405280601781526020017f574f524b5f455850455249454e43455f4d414e414745520000000000000000008152506040518060400160405280601881526020017f6c6973745f5f776f726b457870657269656e63654c6973740000000000000000815250876040518060400160405280601381526020017f70726f637572696e67456e746974794e616d65000000000000000000000000008152506040518563ffffffff1660e01b8152600401611360949392919061a43f565b5f60405180830381865afa15801561137a573d5f803e3d5ffd5b505050506040513d5f823e3d601f19601f820116820180604052508101906113a2919061a6fd565b92505050919050565b60035f9054906101000a900473ffffffffffffffffffffffffffffffffffffffff1673ffffffffffffffffffffffffffffffffffffffff1663ef02a3fc6040518060400160405280601781526020017f574f524b5f455850455249454e43455f4d414e414745520000000000000000008152506040518263ffffffff1660e01b815260040161143a9190619546565b602060405180830381865afa158015611455573d5f803e3d5ffd5b505050506040513d601f19601f82011682018060405250810190611479919061a530565b73ffffffffffffffffffffffffffffffffffffffff163373ffffffffffffffffffffffffffffffffffffffff16146114e6576040517f08c379a00000000000000000000000000000000000000000000000000000000081526004016114dd9061a5a5565b60405180910390fd5b60015f9054906101000a900473ffffffffffffffffffffffffffffffffffffffff1673ffffffffffffffffffffffffffffffffffffffff1663ab2e960d6040518060400160405280601781526020017f574f524b5f455850455249454e43455f4d414e414745520000000000000000008152506040518060400160405280601881526020017f6c6973745f5f776f726b457870657269656e63654c6973740000000000000000815250856040518060400160405280600e81526020017f737570706c696572526174696e67000000000000000000000000000000000000815250866040518663ffffffff1660e01b81526004016115e795949392919061a744565b5f604051808303815f87803b1580156115fe575f80fd5b505af1158015611610573d5f803e3d5ffd5b505050505050565b6060815f60015f9054906101000a900473ffffffffffffffffffffffffffffffffffffffff1673ffffffffffffffffffffffffffffffffffffffff16633bea27536040518060400160405280601781526020017f574f524b5f455850455249454e43455f4d414e414745520000000000000000008152506040518060400160405280601881526020017f6c6973745f5f776f726b457870657269656e63654c69737400000000000000008152506040518363ffffffff1660e01b81526004016116e292919061a363565b602060405180830381865afa1580156116fd573d5f803e3d5ffd5b505050506040513d601f19601f82011682018060405250810190611721919061a3ac565b9050808210611765576040517f08c379a000000000000000000000000000000000000000000000000000000000815260040161175c9061a421565b60405180910390fd5b60015f9054906101000a900473ffffffffffffffffffffffffffffffffffffffff1673ffffffffffffffffffffffffffffffffffffffff16632136448c6040518060400160405280601781526020017f574f524b5f455850455249454e43455f4d414e414745520000000000000000008152506040518060400160405280601881526020017f6c6973745f5f776f726b457870657269656e63654c6973740000000000000000815250876040518060400160405280600b81526020017f65677053797374656d49640000000000000000000000000000000000000000008152506040518563ffffffff1660e01b8152600401611864949392919061a43f565b5f60405180830381865afa15801561187e573d5f803e3d5ffd5b505050506040513d5f823e3d601f19601f820116820180604052508101906118a6919061a6fd565b92505050919050565b60035f9054906101000a900473ffffffffffffffffffffffffffffffffffffffff1673ffffffffffffffffffffffffffffffffffffffff1663ef02a3fc6040518060400160405280601781526020017f574f524b5f455850455249454e43455f4d414e414745520000000000000000008152506040518263ffffffff1660e01b815260040161193e9190619546565b602060405180830381865afa158015611959573d5f803e3d5ffd5b505050506040513d601f19601f8201168201806040525081019061197d919061a530565b73ffffffffffffffffffffffffffffffffffffffff163373ffffffffffffffffffffffffffffffffffffffff16146119ea576040517f08c379a00000000000000000000000000000000000000000000000000000000081526004016119e19061a5a5565b60405180910390fd5b60015f9054906101000a900473ffffffffffffffffffffffffffffffffffffffff1673ffffffffffffffffffffffffffffffffffffffff1663ab2e960d6040518060400160405280601781526020017f574f524b5f455850455249454e43455f4d414e414745520000000000000000008152506040518060400160405280601881526020017f6c6973745f5f776f726b457870657269656e63654c6973740000000000000000815250856040518060400160405280600a81526020017f776f726b53746174757300000000000000000000000000000000000000000000815250866004811115611add57611adc61935f565b5b6040518663ffffffff1660e01b8152600401611afd95949392919061a744565b5f604051808303815f87803b158015611b14575f80fd5b505af1158015611b26573d5f803e3d5ffd5b505050505050565b60605f805f60025f9054906101000a900473ffffffffffffffffffffffffffffffffffffffff1673ffffffffffffffffffffffffffffffffffffffff16632f79e1026040518060400160405280601781526020017f574f524b5f455850455249454e43455f4d414e414745520000000000000000008152506040518060400160405280601981526020017f6d61705f5f6f72674944576f726b457870657269656e636573000000000000008152508a6040518060400160405280600881526020017f5f5f6c656e677468000000000000000000000000000000000000000000000000815250604051602001611c23919061a7e4565b6040516020818303038152906040526040518563ffffffff1660e01b8152600401611c51949392919061a84c565b602060405180830381865afa158015611c6c573d5f803e3d5ffd5b505050506040513d601f19601f82011682018060405250810190611c90919061a3ac565b905080861115611c9e578095505b5f868611611cac5785611cae565b865b90508067ffffffffffffffff811115611cca57611cc9619643565b5b604051908082528060200260200182016040528015611cf85781602001602082028036833780820191505090505b5094505b5f811115611e84578080611d0f9061a8d8565b9150508680611d1d9061a8d8565b97505060025f9054906101000a900473ffffffffffffffffffffffffffffffffffffffff1673ffffffffffffffffffffffffffffffffffffffff16632f79e1026040518060400160405280601781526020017f574f524b5f455850455249454e43455f4d414e414745520000000000000000008152506040518060400160405280601981526020017f6d61705f5f6f72674944576f726b457870657269656e636573000000000000008152508b8b604051602001611ddb919061a91f565b6040516020818303038152906040526040518563ffffffff1660e01b8152600401611e09949392919061a84c565b602060405180830381865afa158015611e24573d5f803e3d5ffd5b505050506040513d601f19601f82011682018060405250810190611e48919061a3ac565b856001838851611e58919061a939565b611e62919061a939565b81518110611e7357611e7261a96c565b5b602002602001018181525050611cfc565b869350819250505093509350939050565b60605f805f60025f9054906101000a900473ffffffffffffffffffffffffffffffffffffffff1673ffffffffffffffffffffffffffffffffffffffff1663bfa9f3eb6040518060400160405280601781526020017f574f524b5f455850455249454e43455f4d414e4147455200000000000000000081525060405180606001604052806026815260200161ad93602691398a6040518060400160405280600881526020017f5f5f6c656e677468000000000000000000000000000000000000000000000000815250604051602001611f6d919061a7e4565b6040516020818303038152906040526040518563ffffffff1660e01b8152600401611f9b949392919061a999565b602060405180830381865afa158015611fb6573d5f803e3d5ffd5b505050506040513d601f19601f82011682018060405250810190611fda919061a3ac565b905080861115611fe8578095505b5f868611611ff65785611ff8565b865b90508067ffffffffffffffff81111561201457612013619643565b5b6040519080825280602002602001820160405280156120425781602001602082028036833780820191505090505b5094505b5f8111156121b15780806120599061a8d8565b91505086806120679061a8d8565b97505060025f9054906101000a900473ffffffffffffffffffffffffffffffffffffffff1673ffffffffffffffffffffffffffffffffffffffff1663bfa9f3eb6040518060400160405280601781526020017f574f524b5f455850455249454e43455f4d414e4147455200000000000000000081525060405180606001604052806026815260200161ad93602691398b8b604051602001612108919061a91f565b6040516020818303038152906040526040518563ffffffff1660e01b8152600401612136949392919061a999565b602060405180830381865afa158015612151573d5f803e3d5ffd5b505050506040513d601f19601f82011682018060405250810190612175919061a3ac565b856001838851612185919061a939565b61218f919061a939565b815181106121a05761219f61a96c565b5b602002602001018181525050612046565b869350819250505093509350939050565b60035f9054906101000a900473ffffffffffffffffffffffffffffffffffffffff1673ffffffffffffffffffffffffffffffffffffffff1663ef02a3fc6040518060400160405280601781526020017f574f524b5f455850455249454e43455f4d414e414745520000000000000000008152506040518263ffffffff1660e01b81526004016122519190619546565b602060405180830381865afa15801561226c573d5f803e3d5ffd5b505050506040513d601f19601f82011682018060405250810190612290919061a530565b73ffffffffffffffffffffffffffffffffffffffff163373ffffffffffffffffffffffffffffffffffffffff16146122fd576040517f08c379a00000000000000000000000000000000000000000000000000000000081526004016122f49061a5a5565b60405180910390fd5b60025f9054906101000a900473ffffffffffffffffffffffffffffffffffffffff1673ffffffffffffffffffffffffffffffffffffffff1663177d63616040518060400160405280601781526020017f574f524b5f455850455249454e43455f4d414e414745520000000000000000008152506040518060400160405280601881526020017f6d61705f5f776f726b457870657269656e6365496e646578000000000000000081525085856040518563ffffffff1660e01b81526004016123c7949392919061a9f1565b5f604051808303815f87803b1580156123de575f80fd5b505af11580156123f0573d5f803e3d5ffd5b505050505050565b60035f9054906101000a900473ffffffffffffffffffffffffffffffffffffffff1673ffffffffffffffffffffffffffffffffffffffff1663ef02a3fc6040518060400160405280601781526020017f574f524b5f455850455249454e43455f4d414e414745520000000000000000008152506040518263ffffffff1660e01b81526004016124879190619546565b602060405180830381865afa1580156124a2573d5f803e3d5ffd5b505050506040513d601f19601f820116820180604052508101906124c6919061a530565b73ffffffffffffffffffffffffffffffffffffffff163373ffffffffffffffffffffffffffffffffffffffff1614612533576040517f08c379a000000000000000000000000000000000000000000000000000000000815260040161252a9061a5a5565b60405180910390fd5b5f60025f9054906101000a900473ffffffffffffffffffffffffffffffffffffffff1673ffffffffffffffffffffffffffffffffffffffff1663bfa9f3eb6040518060400160405280601781526020017f574f524b5f455850455249454e43455f4d414e414745520000000000000000008152506040518060400160405280601781526020017f6d61705f5f616f63576f726b457870657269656e636573000000000000000000815250886101c001516040518060400160405280600881526020017f5f5f6c656e677468000000000000000000000000000000000000000000000000815250604051602001612629919061a7e4565b6040516020818303038152906040526040518563ffffffff1660e01b8152600401612657949392919061a999565b602060405180830381865afa158015612672573d5f803e3d5ffd5b505050506040513d601f19601f82011682018060405250810190612696919061a3ac565b905060025f9054906101000a900473ffffffffffffffffffffffffffffffffffffffff1673ffffffffffffffffffffffffffffffffffffffff1663cf1e8bd86040518060400160405280601781526020017f574f524b5f455850455249454e43455f4d414e414745520000000000000000008152506040518060400160405280601781526020017f6d61705f5f616f63576f726b457870657269656e636573000000000000000000815250886101c001516040518060400160405280600881526020017f5f5f6c656e67746800000000000000000000000000000000000000000000000081525060405160200161278d919061a7e4565b6040516020818303038152906040528660016127a9919061aa42565b6040518663ffffffff1660e01b81526004016127c995949392919061aa75565b5f604051808303815f87803b1580156127e0575f80fd5b505af11580156127f2573d5f803e3d5ffd5b5050505060025f9054906101000a900473ffffffffffffffffffffffffffffffffffffffff1673ffffffffffffffffffffffffffffffffffffffff1663cf1e8bd86040518060400160405280601781526020017f574f524b5f455850455249454e43455f4d414e414745520000000000000000008152506040518060400160405280601781526020017f6d61705f5f616f63576f726b457870657269656e636573000000000000000000815250886101c00151856040516020016128b6919061a91f565b604051602081830303815290604052896040518663ffffffff1660e01b81526004016128e695949392919061aa75565b5f604051808303815f87803b1580156128fd575f80fd5b505af115801561290f573d5f803e3d5ffd5b5050505060025f9054906101000a900473ffffffffffffffffffffffffffffffffffffffff1673ffffffffffffffffffffffffffffffffffffffff16632f79e1026040518060400160405280601781526020017f574f524b5f455850455249454e43455f4d414e414745520000000000000000008152506040518060400160405280601681526020017f6d61705f5f7065576f726b457870657269656e636573000000000000000000008152508861012001516040518060400160405280600881526020017f5f5f6c656e677468000000000000000000000000000000000000000000000000815250604051602001612a08919061a7e4565b6040516020818303038152906040526040518563ffffffff1660e01b8152600401612a36949392919061a84c565b602060405180830381865afa158015612a51573d5f803e3d5ffd5b505050506040513d601f19601f82011682018060405250810190612a75919061a3ac565b905060025f9054906101000a900473ffffffffffffffffffffffffffffffffffffffff1673ffffffffffffffffffffffffffffffffffffffff166316ae1bfa6040518060400160405280601781526020017f574f524b5f455850455249454e43455f4d414e414745520000000000000000008152506040518060400160405280601681526020017f6d61705f5f7065576f726b457870657269656e636573000000000000000000008152508861012001516040518060400160405280600881526020017f5f5f6c656e677468000000000000000000000000000000000000000000000000815250604051602001612b6c919061a7e4565b604051602081830303815290604052866001612b88919061aa42565b6040518663ffffffff1660e01b8152600401612ba895949392919061aadb565b5f604051808303815f87803b158015612bbf575f80fd5b505af1158015612bd1573d5f803e3d5ffd5b5050505060025f9054906101000a900473ffffffffffffffffffffffffffffffffffffffff1673ffffffffffffffffffffffffffffffffffffffff166316ae1bfa6040518060400160405280601781526020017f574f524b5f455850455249454e43455f4d414e414745520000000000000000008152506040518060400160405280601681526020017f6d61705f5f7065576f726b457870657269656e6365730000000000000000000081525088610120015185604051602001612c95919061a91f565b604051602081830303815290604052896040518663ffffffff1660e01b8152600401612cc595949392919061aadb565b5f604051808303815f87803b158015612cdc575f80fd5b505af1158015612cee573d5f803e3d5ffd5b5050505060025f9054906101000a900473ffffffffffffffffffffffffffffffffffffffff1673ffffffffffffffffffffffffffffffffffffffff16632f79e1026040518060400160405280601781526020017f574f524b5f455850455249454e43455f4d414e414745520000000000000000008152506040518060400160405280601981526020017f6d61705f5f6f72674944576f726b457870657269656e636573000000000000008152508861010001516040518060400160405280600881526020017f5f5f6c656e677468000000000000000000000000000000000000000000000000815250604051602001612de7919061a7e4565b6040516020818303038152906040526040518563ffffffff1660e01b8152600401612e15949392919061a84c565b602060405180830381865afa158015612e30573d5f803e3d5ffd5b505050506040513d601f19601f82011682018060405250810190612e54919061a3ac565b905060025f9054906101000a900473ffffffffffffffffffffffffffffffffffffffff1673ffffffffffffffffffffffffffffffffffffffff166316ae1bfa6040518060400160405280601781526020017f574f524b5f455850455249454e43455f4d414e414745520000000000000000008152506040518060400160405280601981526020017f6d61705f5f6f72674944576f726b457870657269656e636573000000000000008152508861010001516040518060400160405280600881526020017f5f5f6c656e677468000000000000000000000000000000000000000000000000815250604051602001612f4b919061a7e4565b604051602081830303815290604052866001612f67919061aa42565b6040518663ffffffff1660e01b8152600401612f8795949392919061aadb565b5f604051808303815f87803b158015612f9e575f80fd5b505af1158015612fb0573d5f803e3d5ffd5b5050505060025f9054906101000a900473ffffffffffffffffffffffffffffffffffffffff1673ffffffffffffffffffffffffffffffffffffffff166316ae1bfa6040518060400160405280601781526020017f574f524b5f455850455249454e43455f4d414e414745520000000000000000008152506040518060400160405280601981526020017f6d61705f5f6f72674944576f726b457870657269656e6365730000000000000081525088610100015185604051602001613074919061a91f565b604051602081830303815290604052896040518663ffffffff1660e01b81526004016130a495949392919061aadb565b5f604051808303815f87803b1580156130bb575f80fd5b505af11580156130cd573d5f803e3d5ffd5b505050505f838661010001516040516020016130ea92919061ab48565b60405160208183030381529060405280519060200120905060025f9054906101000a900473ffffffffffffffffffffffffffffffffffffffff1673ffffffffffffffffffffffffffffffffffffffff1663bfa9f3eb6040518060400160405280601781526020017f574f524b5f455850455249454e43455f4d414e4147455200000000000000000081525060405180606001604052806026815260200161ad9360269139846040518060400160405280600881526020017f5f5f6c656e6774680000000000000000000000000000000000000000000000008152506040516020016131d5919061a7e4565b6040516020818303038152906040526040518563ffffffff1660e01b8152600401613203949392919061a999565b602060405180830381865afa15801561321e573d5f803e3d5ffd5b505050506040513d601f19601f82011682018060405250810190613242919061a3ac565b915060025f9054906101000a900473ffffffffffffffffffffffffffffffffffffffff1673ffffffffffffffffffffffffffffffffffffffff1663cf1e8bd86040518060400160405280601781526020017f574f524b5f455850455249454e43455f4d414e4147455200000000000000000081525060405180606001604052806026815260200161ad9360269139846040518060400160405280600881526020017f5f5f6c656e677468000000000000000000000000000000000000000000000000815250604051602001613317919061a7e4565b604051602081830303815290604052876001613333919061aa42565b6040518663ffffffff1660e01b815260040161335395949392919061aa75565b5f604051808303815f87803b15801561336a575f80fd5b505af115801561337c573d5f803e3d5ffd5b5050505060025f9054906101000a900473ffffffffffffffffffffffffffffffffffffffff1673ffffffffffffffffffffffffffffffffffffffff1663cf1e8bd86040518060400160405280601781526020017f574f524b5f455850455249454e43455f4d414e4147455200000000000000000081525060405180606001604052806026815260200161ad9360269139848660405160200161341e919061a91f565b6040516020818303038152906040528a6040518663ffffffff1660e01b815260040161344e95949392919061aa75565b5f604051808303815f87803b158015613465575f80fd5b505af1158015613477573d5f803e3d5ffd5b505050505f8387610100015160405160200161349492919061ab48565b60405160208183030381529060405280519060200120905060025f9054906101000a900473ffffffffffffffffffffffffffffffffffffffff1673ffffffffffffffffffffffffffffffffffffffff1663bfa9f3eb6040518060400160405280601781526020017f574f524b5f455850455249454e43455f4d414e4147455200000000000000000081525060405180606001604052806023815260200161ad2560239139846040518060400160405280600881526020017f5f5f6c656e67746800000000000000000000000000000000000000000000000081525060405160200161357f919061a7e4565b6040516020818303038152906040526040518563ffffffff1660e01b81526004016135ad949392919061a999565b602060405180830381865afa1580156135c8573d5f803e3d5ffd5b505050506040513d601f19601f820116820180604052508101906135ec919061a3ac565b925060025f9054906101000a900473ffffffffffffffffffffffffffffffffffffffff1673ffffffffffffffffffffffffffffffffffffffff1663cf1e8bd86040518060400160405280601781526020017f574f524b5f455850455249454e43455f4d414e4147455200000000000000000081525060405180606001604052806023815260200161ad2560239139846040518060400160405280600881526020017f5f5f6c656e6774680000000000000000000000000000000000000000000000008152506040516020016136c1919061a7e4565b6040516020818303038152906040528860016136dd919061aa42565b6040518663ffffffff1660e01b81526004016136fd95949392919061aa75565b5f604051808303815f87803b158015613714575f80fd5b505af1158015613726573d5f803e3d5ffd5b5050505060025f9054906101000a900473ffffffffffffffffffffffffffffffffffffffff1673ffffffffffffffffffffffffffffffffffffffff1663cf1e8bd86040518060400160405280601781526020017f574f524b5f455850455249454e43455f4d414e4147455200000000000000000081525060405180606001604052806023815260200161ad256023913984876040516020016137c8919061a91f565b6040516020818303038152906040528b6040518663ffffffff1660e01b81526004016137f895949392919061aa75565b5f604051808303815f87803b15801561380f575f80fd5b505af1158015613821573d5f803e3d5ffd5b505050505f8761012001518560405160200161383e92919061ab48565b60405160208183030381529060405280519060200120905060025f9054906101000a900473ffffffffffffffffffffffffffffffffffffffff1673ffffffffffffffffffffffffffffffffffffffff1663bfa9f3eb6040518060400160405280601781526020017f574f524b5f455850455249454e43455f4d414e4147455200000000000000000081525060405180606001604052806023815260200161ad4860239139846040518060400160405280600881526020017f5f5f6c656e677468000000000000000000000000000000000000000000000000815250604051602001613929919061a7e4565b6040516020818303038152906040526040518563ffffffff1660e01b8152600401613957949392919061a999565b602060405180830381865afa158015613972573d5f803e3d5ffd5b505050506040513d601f19601f82011682018060405250810190613996919061a3ac565b935060025f9054906101000a900473ffffffffffffffffffffffffffffffffffffffff1673ffffffffffffffffffffffffffffffffffffffff1663cf1e8bd86040518060400160405280601781526020017f574f524b5f455850455249454e43455f4d414e4147455200000000000000000081525060405180606001604052806023815260200161ad4860239139846040518060400160405280600881526020017f5f5f6c656e677468000000000000000000000000000000000000000000000000815250604051602001613a6b919061a7e4565b604051602081830303815290604052896001613a87919061aa42565b6040518663ffffffff1660e01b8152600401613aa795949392919061aa75565b5f604051808303815f87803b158015613abe575f80fd5b505af1158015613ad0573d5f803e3d5ffd5b5050505060025f9054906101000a900473ffffffffffffffffffffffffffffffffffffffff1673ffffffffffffffffffffffffffffffffffffffff1663cf1e8bd86040518060400160405280601781526020017f574f524b5f455850455249454e43455f4d414e4147455200000000000000000081525060405180606001604052806023815260200161ad48602391398488604051602001613b72919061a91f565b6040516020818303038152906040528c6040518663ffffffff1660e01b8152600401613ba295949392919061aa75565b5f604051808303815f87803b158015613bb9575f80fd5b505af1158015613bcb573d5f803e3d5ffd5b505050505050505050505050565b6060815f60015f9054906101000a900473ffffffffffffffffffffffffffffffffffffffff1673ffffffffffffffffffffffffffffffffffffffff16633bea27536040518060400160405280601781526020017f574f524b5f455850455249454e43455f4d414e414745520000000000000000008152506040518060400160405280601881526020017f6c6973745f5f776f726b457870657269656e63654c69737400000000000000008152506040518363ffffffff1660e01b8152600401613ca392919061a363565b602060405180830381865afa158015613cbe573d5f803e3d5ffd5b505050506040513d601f19601f82011682018060405250810190613ce2919061a3ac565b9050808210613d26576040517f08c379a0000000000000000000000000000000000000000000000000000000008152600401613d1d9061a421565b60405180910390fd5b60015f9054906101000a900473ffffffffffffffffffffffffffffffffffffffff1673ffffffffffffffffffffffffffffffffffffffff16632136448c6040518060400160405280601781526020017f574f524b5f455850455249454e43455f4d414e414745520000000000000000008152506040518060400160405280601881526020017f6c6973745f5f776f726b457870657269656e63654c69737400000000000000008152508760405180606001604052806021815260200161adb9602191396040518563ffffffff1660e01b8152600401613e08949392919061a43f565b5f60405180830381865afa158015613e22573d5f803e3d5ffd5b505050506040513d5f823e3d601f19601f82011682018060405250810190613e4a919061a6fd565b92505050919050565b60605f805f60025f9054906101000a900473ffffffffffffffffffffffffffffffffffffffff1673ffffffffffffffffffffffffffffffffffffffff1663bfa9f3eb6040518060400160405280601781526020017f574f524b5f455850455249454e43455f4d414e414745520000000000000000008152506040518060400160405280601781526020017f6d61705f5f616f63576f726b457870657269656e6365730000000000000000008152508a6040518060400160405280600881526020017f5f5f6c656e677468000000000000000000000000000000000000000000000000815250604051602001613f48919061a7e4565b6040516020818303038152906040526040518563ffffffff1660e01b8152600401613f76949392919061a999565b602060405180830381865afa158015613f91573d5f803e3d5ffd5b505050506040513d601f19601f82011682018060405250810190613fb5919061a3ac565b905080861115613fc3578095505b5f868611613fd15785613fd3565b865b90508067ffffffffffffffff811115613fef57613fee619643565b5b60405190808252806020026020018201604052801561401d5781602001602082028036833780820191505090505b5094505b5f8111156141a95780806140349061a8d8565b91505086806140429061a8d8565b97505060025f9054906101000a900473ffffffffffffffffffffffffffffffffffffffff1673ffffffffffffffffffffffffffffffffffffffff1663bfa9f3eb6040518060400160405280601781526020017f574f524b5f455850455249454e43455f4d414e414745520000000000000000008152506040518060400160405280601781526020017f6d61705f5f616f63576f726b457870657269656e6365730000000000000000008152508b8b604051602001614100919061a91f565b6040516020818303038152906040526040518563ffffffff1660e01b815260040161412e949392919061a999565b602060405180830381865afa158015614149573d5f803e3d5ffd5b505050506040513d601f19601f8201168201806040525081019061416d919061a3ac565b85600183885161417d919061a939565b614187919061a939565b815181106141985761419761a96c565b5b602002602001018181525050614021565b869350819250505093509350939050565b6060815f60015f9054906101000a900473ffffffffffffffffffffffffffffffffffffffff1673ffffffffffffffffffffffffffffffffffffffff16633bea27536040518060400160405280601781526020017f574f524b5f455850455249454e43455f4d414e414745520000000000000000008152506040518060400160405280601881526020017f6c6973745f5f776f726b457870657269656e63654c69737400000000000000008152506040518363ffffffff1660e01b815260040161428492919061a363565b602060405180830381865afa15801561429f573d5f803e3d5ffd5b505050506040513d601f19601f820116820180604052508101906142c3919061a3ac565b9050808210614307576040517f08c379a00000000000000000000000000000000000000000000000000000000081526004016142fe9061a421565b60405180910390fd5b60015f9054906101000a900473ffffffffffffffffffffffffffffffffffffffff1673ffffffffffffffffffffffffffffffffffffffff16632136448c6040518060400160405280601781526020017f574f524b5f455850455249454e43455f4d414e414745520000000000000000008152506040518060400160405280601881526020017f6c6973745f5f776f726b457870657269656e63654c69737400000000000000008152508760405180606001604052806028815260200161ad6b602891396040518563ffffffff1660e01b81526004016143e9949392919061a43f565b5f60405180830381865afa158015614403573d5f803e3d5ffd5b505050506040513d5f823e3d601f19601f8201168201806040525081019061442b919061a6fd565b92505050919050565b60035f9054906101000a900473ffffffffffffffffffffffffffffffffffffffff1673ffffffffffffffffffffffffffffffffffffffff1663ef02a3fc6040518060400160405280601781526020017f574f524b5f455850455249454e43455f4d414e414745520000000000000000008152506040518263ffffffff1660e01b81526004016144c39190619546565b602060405180830381865afa1580156144de573d5f803e3d5ffd5b505050506040513d601f19601f82011682018060405250810190614502919061a530565b73ffffffffffffffffffffffffffffffffffffffff163373ffffffffffffffffffffffffffffffffffffffff161461456f576040517f08c379a00000000000000000000000000000000000000000000000000000000081526004016145669061a5a5565b60405180910390fd5b60015f9054906101000a900473ffffffffffffffffffffffffffffffffffffffff1673ffffffffffffffffffffffffffffffffffffffff1663c8f1cd876040518060400160405280601781526020017f574f524b5f455850455249454e43455f4d414e414745520000000000000000008152506040518060400160405280601881526020017f6c6973745f5f776f726b457870657269656e63654c6973740000000000000000815250856040518060400160405280600781526020017f72656d61726b7300000000000000000000000000000000000000000000000000815250866040518663ffffffff1660e01b815260040161467095949392919061ab6b565b5f604051808303815f87803b158015614687575f80fd5b505af1158015614699573d5f803e3d5ffd5b505050505050565b6146a961921b565b815f60015f9054906101000a900473ffffffffffffffffffffffffffffffffffffffff1673ffffffffffffffffffffffffffffffffffffffff16633bea27536040518060400160405280601781526020017f574f524b5f455850455249454e43455f4d414e414745520000000000000000008152506040518060400160405280601881526020017f6c6973745f5f776f726b457870657269656e63654c69737400000000000000008152506040518363ffffffff1660e01b815260040161477192919061a363565b602060405180830381865afa15801561478c573d5f803e3d5ffd5b505050506040513d601f19601f820116820180604052508101906147b0919061a3ac565b90508082106147f4576040517f08c379a00000000000000000000000000000000000000000000000000000000081526004016147eb9061a421565b60405180910390fd5b6147fd846150d4565b835f019077ffffffffffffffffffffffffffffffffffffffffffffffff1916908177ffffffffffffffffffffffffffffffffffffffffffffffff19168152505061484684618018565b836020018190525061485784617631565b83604001818152505061486984614d2e565b836060018190525061487a846109af565b836080019060048111156148915761489061935f565b5b908160048111156148a5576148a461935f565b5b815250506148b284617d81565b8360a001819052506148c384615367565b60ff1660058111156148d8576148d761935f565b5b8360c0019060058111156148ef576148ee61935f565b5b908160058111156149035761490261935f565b5b81525050614910846187a5565b8360e0018190525061492184611618565b836101000181905250614933846168bc565b83610120018190525061494584611114565b83610140018190525061495784613bd9565b836101600181905250614969846141ba565b83610180018190525061497b84616625565b836101a0018190525061498d84617010565b836101c0019077ffffffffffffffffffffffffffffffffffffffffffffffff1916908177ffffffffffffffffffffffffffffffffffffffffffffffff1916815250506149d88461739e565b836101e0019061ffff16908161ffff16815250505050919050565b5f60015f9054906101000a900473ffffffffffffffffffffffffffffffffffffffff1673ffffffffffffffffffffffffffffffffffffffff16633bea27536040518060400160405280601781526020017f574f524b5f455850455249454e43455f4d414e414745520000000000000000008152506040518060400160405280601881526020017f6c6973745f5f776f726b457870657269656e63654c69737400000000000000008152506040518363ffffffff1660e01b8152600401614aba92919061a363565b602060405180830381865afa158015614ad5573d5f803e3d5ffd5b505050506040513d601f19601f82011682018060405250810190614af9919061a3ac565b905090565b60035f9054906101000a900473ffffffffffffffffffffffffffffffffffffffff1673ffffffffffffffffffffffffffffffffffffffff1663ef02a3fc6040518060400160405280601781526020017f574f524b5f455850455249454e43455f4d414e414745520000000000000000008152506040518263ffffffff1660e01b8152600401614b8d9190619546565b602060405180830381865afa158015614ba8573d5f803e3d5ffd5b505050506040513d601f19601f82011682018060405250810190614bcc919061a530565b73ffffffffffffffffffffffffffffffffffffffff163373ffffffffffffffffffffffffffffffffffffffff1614614c39576040517f08c379a0000000000000000000000000000000000000000000000000000000008152600401614c309061a5a5565b60405180910390fd5b60015f9054906101000a900473ffffffffffffffffffffffffffffffffffffffff1673ffffffffffffffffffffffffffffffffffffffff1663a24a899b6040518060400160405280601781526020017f574f524b5f455850455249454e43455f4d414e414745520000000000000000008152506040518060400160405280601881526020017f6c6973745f5f776f726b457870657269656e63654c69737400000000000000008152506040518363ffffffff1660e01b8152600401614cff92919061a363565b5f604051808303815f87803b158015614d16575f80fd5b505af1158015614d28573d5f803e3d5ffd5b50505050565b6060815f60015f9054906101000a900473ffffffffffffffffffffffffffffffffffffffff1673ffffffffffffffffffffffffffffffffffffffff16633bea27536040518060400160405280601781526020017f574f524b5f455850455249454e43455f4d414e414745520000000000000000008152506040518060400160405280601881526020017f6c6973745f5f776f726b457870657269656e63654c69737400000000000000008152506040518363ffffffff1660e01b8152600401614df892919061a363565b602060405180830381865afa158015614e13573d5f803e3d5ffd5b505050506040513d601f19601f82011682018060405250810190614e37919061a3ac565b9050808210614e7b576040517f08c379a0000000000000000000000000000000000000000000000000000000008152600401614e729061a421565b60405180910390fd5b60015f9054906101000a900473ffffffffffffffffffffffffffffffffffffffff1673ffffffffffffffffffffffffffffffffffffffff16632136448c6040518060400160405280601781526020017f574f524b5f455850455249454e43455f4d414e414745520000000000000000008152506040518060400160405280601881526020017f6c6973745f5f776f726b457870657269656e63654c6973740000000000000000815250876040518060400160405280601681526020017f636f6e7472616374436f6d706c6574656456616c7565000000000000000000008152506040518563ffffffff1660e01b8152600401614f7a949392919061a43f565b5f60405180830381865afa158015614f94573d5f803e3d5ffd5b505050506040513d5f823e3d601f19601f82011682018060405250810190614fbc919061a6fd565b92505050919050565b5f60025f9054906101000a900473ffffffffffffffffffffffffffffffffffffffff1673ffffffffffffffffffffffffffffffffffffffff1663405e2c0d6040518060400160405280601781526020017f574f524b5f455850455249454e43455f4d414e414745520000000000000000008152506040518060400160405280601881526020017f6d61705f5f776f726b457870657269656e6365496e6465780000000000000000815250856040518463ffffffff1660e01b815260040161508e9392919061abd8565b602060405180830381865afa1580156150a9573d5f803e3d5ffd5b505050506040513d601f19601f820116820180604052508101906150cd919061a3ac565b9050919050565b5f815f60015f9054906101000a900473ffffffffffffffffffffffffffffffffffffffff1673ffffffffffffffffffffffffffffffffffffffff16633bea27536040518060400160405280601781526020017f574f524b5f455850455249454e43455f4d414e414745520000000000000000008152506040518060400160405280601881526020017f6c6973745f5f776f726b457870657269656e63654c69737400000000000000008152506040518363ffffffff1660e01b815260040161519d92919061a363565b602060405180830381865afa1580156151b8573d5f803e3d5ffd5b505050506040513d601f19601f820116820180604052508101906151dc919061a3ac565b9050808210615220576040517f08c379a00000000000000000000000000000000000000000000000000000000081526004016152179061a421565b60405180910390fd5b60015f9054906101000a900473ffffffffffffffffffffffffffffffffffffffff1673ffffffffffffffffffffffffffffffffffffffff16634bcbf1fb6040518060400160405280601781526020017f574f524b5f455850455249454e43455f4d414e414745520000000000000000008152506040518060400160405280601881526020017f6c6973745f5f776f726b457870657269656e63654c6973740000000000000000815250876040518060400160405280600381526020017f75696400000000000000000000000000000000000000000000000000000000008152506040518563ffffffff1660e01b815260040161531f949392919061a43f565b602060405180830381865afa15801561533a573d5f803e3d5ffd5b505050506040513d601f19601f8201168201806040525081019061535e919061ac2f565b92505050919050565b5f815f60015f9054906101000a900473ffffffffffffffffffffffffffffffffffffffff1673ffffffffffffffffffffffffffffffffffffffff16633bea27536040518060400160405280601781526020017f574f524b5f455850455249454e43455f4d414e414745520000000000000000008152506040518060400160405280601881526020017f6c6973745f5f776f726b457870657269656e63654c69737400000000000000008152506040518363ffffffff1660e01b815260040161543092919061a363565b602060405180830381865afa15801561544b573d5f803e3d5ffd5b505050506040513d601f19601f8201168201806040525081019061546f919061a3ac565b90508082106154b3576040517f08c379a00000000000000000000000000000000000000000000000000000000081526004016154aa9061a421565b60405180910390fd5b60015f9054906101000a900473ffffffffffffffffffffffffffffffffffffffff1673ffffffffffffffffffffffffffffffffffffffff1663a726dca16040518060400160405280601781526020017f574f524b5f455850455249454e43455f4d414e414745520000000000000000008152506040518060400160405280601881526020017f6c6973745f5f776f726b457870657269656e63654c6973740000000000000000815250876040518060400160405280600e81526020017f737570706c696572526174696e670000000000000000000000000000000000008152506040518563ffffffff1660e01b81526004016155b2949392919061a43f565b602060405180830381865afa1580156155cd573d5f803e3d5ffd5b505050506040513d601f19601f820116820180604052508101906155f1919061a4ab565b92505050919050565b60035f9054906101000a900473ffffffffffffffffffffffffffffffffffffffff1673ffffffffffffffffffffffffffffffffffffffff1663ef02a3fc6040518060400160405280601781526020017f574f524b5f455850455249454e43455f4d414e414745520000000000000000008152506040518263ffffffff1660e01b81526004016156899190619546565b602060405180830381865afa1580156156a4573d5f803e3d5ffd5b505050506040513d601f19601f820116820180604052508101906156c8919061a530565b73ffffffffffffffffffffffffffffffffffffffff163373ffffffffffffffffffffffffffffffffffffffff1614615735576040517f08c379a000000000000000000000000000000000000000000000000000000000815260040161572c9061a5a5565b60405180910390fd5b60015f9054906101000a900473ffffffffffffffffffffffffffffffffffffffff1673ffffffffffffffffffffffffffffffffffffffff1663c8f1cd876040518060400160405280601781526020017f574f524b5f455850455249454e43455f4d414e414745520000000000000000008152506040518060400160405280601881526020017f6c6973745f5f776f726b457870657269656e63654c6973740000000000000000815250856040518060400160405280601681526020017f636f6e7472616374436f6d706c6574656456616c756500000000000000000000815250866040518663ffffffff1660e01b815260040161583695949392919061ab6b565b5f604051808303815f87803b15801561584d575f80fd5b505af115801561585f573d5f803e3d5ffd5b505050505050565b60035f9054906101000a900473ffffffffffffffffffffffffffffffffffffffff1673ffffffffffffffffffffffffffffffffffffffff1663ef02a3fc6040518060400160405280601781526020017f574f524b5f455850455249454e43455f4d414e414745520000000000000000008152506040518263ffffffff1660e01b81526004016158f69190619546565b602060405180830381865afa158015615911573d5f803e3d5ffd5b505050506040513d601f19601f82011682018060405250810190615935919061a530565b73ffffffffffffffffffffffffffffffffffffffff163373ffffffffffffffffffffffffffffffffffffffff16146159a2576040517f08c379a00000000000000000000000000000000000000000000000000000000081526004016159999061a5a5565b60405180910390fd5b60015f9054906101000a900473ffffffffffffffffffffffffffffffffffffffff1673ffffffffffffffffffffffffffffffffffffffff1663c8f1cd876040518060400160405280601781526020017f574f524b5f455850455249454e43455f4d414e414745520000000000000000008152506040518060400160405280601881526020017f6c6973745f5f776f726b457870657269656e63654c69737400000000000000008152508560405180606001604052806021815260200161adb960219139866040518663ffffffff1660e01b8152600401615a8695949392919061ab6b565b5f604051808303815f87803b158015615a9d575f80fd5b505af1158015615aaf573d5f803e3d5ffd5b505050505050565b60605f805f60025f9054906101000a900473ffffffffffffffffffffffffffffffffffffffff1673ffffffffffffffffffffffffffffffffffffffff1663bfa9f3eb6040518060400160405280601781526020017f574f524b5f455850455249454e43455f4d414e4147455200000000000000000081525060405180606001604052806023815260200161ad25602391398a6040518060400160405280600881526020017f5f5f6c656e677468000000000000000000000000000000000000000000000000815250604051602001615b8f919061a7e4565b6040516020818303038152906040526040518563ffffffff1660e01b8152600401615bbd949392919061a999565b602060405180830381865afa158015615bd8573d5f803e3d5ffd5b505050506040513d601f19601f82011682018060405250810190615bfc919061a3ac565b905080861115615c0a578095505b5f868611615c185785615c1a565b865b90508067ffffffffffffffff811115615c3657615c35619643565b5b604051908082528060200260200182016040528015615c645781602001602082028036833780820191505090505b5094505b5f811115615dd3578080615c7b9061a8d8565b9150508680615c899061a8d8565b97505060025f9054906101000a900473ffffffffffffffffffffffffffffffffffffffff1673ffffffffffffffffffffffffffffffffffffffff1663bfa9f3eb6040518060400160405280601781526020017f574f524b5f455850455249454e43455f4d414e4147455200000000000000000081525060405180606001604052806023815260200161ad25602391398b8b604051602001615d2a919061a91f565b6040516020818303038152906040526040518563ffffffff1660e01b8152600401615d58949392919061a999565b602060405180830381865afa158015615d73573d5f803e3d5ffd5b505050506040513d601f19601f82011682018060405250810190615d97919061a3ac565b856001838851615da7919061a939565b615db1919061a939565b81518110615dc257615dc161a96c565b5b602002602001018181525050615c68565b869350819250505093509350939050565b60605f805f60025f9054906101000a900473ffffffffffffffffffffffffffffffffffffffff1673ffffffffffffffffffffffffffffffffffffffff16632f79e1026040518060400160405280601781526020017f574f524b5f455850455249454e43455f4d414e414745520000000000000000008152506040518060400160405280601681526020017f6d61705f5f7065576f726b457870657269656e636573000000000000000000008152508a6040518060400160405280600881526020017f5f5f6c656e677468000000000000000000000000000000000000000000000000815250604051602001615ed9919061a7e4565b6040516020818303038152906040526040518563ffffffff1660e01b8152600401615f07949392919061a84c565b602060405180830381865afa158015615f22573d5f803e3d5ffd5b505050506040513d601f19601f82011682018060405250810190615f46919061a3ac565b905080861115615f54578095505b5f868611615f625785615f64565b865b90508067ffffffffffffffff811115615f8057615f7f619643565b5b604051908082528060200260200182016040528015615fae5781602001602082028036833780820191505090505b5094505b5f81111561613a578080615fc59061a8d8565b9150508680615fd39061a8d8565b97505060025f9054906101000a900473ffffffffffffffffffffffffffffffffffffffff1673ffffffffffffffffffffffffffffffffffffffff16632f79e1026040518060400160405280601781526020017f574f524b5f455850455249454e43455f4d414e414745520000000000000000008152506040518060400160405280601681526020017f6d61705f5f7065576f726b457870657269656e636573000000000000000000008152508b8b604051602001616091919061a91f565b6040516020818303038152906040526040518563ffffffff1660e01b81526004016160bf949392919061a84c565b602060405180830381865afa1580156160da573d5f803e3d5ffd5b505050506040513d601f19601f820116820180604052508101906160fe919061a3ac565b85600183885161610e919061a939565b616118919061a939565b815181106161295761612861a96c565b5b602002602001018181525050615fb2565b869350819250505093509350939050565b60035f9054906101000a900473ffffffffffffffffffffffffffffffffffffffff1673ffffffffffffffffffffffffffffffffffffffff1663ef02a3fc6040518060400160405280601781526020017f574f524b5f455850455249454e43455f4d414e414745520000000000000000008152506040518263ffffffff1660e01b81526004016161da9190619546565b602060405180830381865afa1580156161f5573d5f803e3d5ffd5b505050506040513d601f19601f82011682018060405250810190616219919061a530565b73ffffffffffffffffffffffffffffffffffffffff163373ffffffffffffffffffffffffffffffffffffffff1614616286576040517f08c379a000000000000000000000000000000000000000000000000000000000815260040161627d9061a5a5565b60405180910390fd5b60015f9054906101000a900473ffffffffffffffffffffffffffffffffffffffff1673ffffffffffffffffffffffffffffffffffffffff1663c8f1cd876040518060400160405280601781526020017f574f524b5f455850455249454e43455f4d414e414745520000000000000000008152506040518060400160405280601881526020017f6c6973745f5f776f726b457870657269656e63654c6973740000000000000000815250856040518060400160405280601681526020017f776f726b457870657269656e636546696c654861736800000000000000000000815250866040518663ffffffff1660e01b815260040161638795949392919061ab6b565b5f604051808303815f87803b15801561639e575f80fd5b505af11580156163b0573d5f803e3d5ffd5b505050505050565b60035f9054906101000a900473ffffffffffffffffffffffffffffffffffffffff1673ffffffffffffffffffffffffffffffffffffffff1663ef02a3fc6040518060400160405280601781526020017f574f524b5f455850455249454e43455f4d414e414745520000000000000000008152506040518263ffffffff1660e01b81526004016164479190619546565b602060405180830381865afa158015616462573d5f803e3d5ffd5b505050506040513d601f19601f82011682018060405250810190616486919061a530565b73ffffffffffffffffffffffffffffffffffffffff163373ffffffffffffffffffffffffffffffffffffffff16146164f3576040517f08c379a00000000000000000000000000000000000000000000000000000000081526004016164ea9061a5a5565b60405180910390fd5b60015f9054906101000a900473ffffffffffffffffffffffffffffffffffffffff1673ffffffffffffffffffffffffffffffffffffffff1663c8f1cd876040518060400160405280601781526020017f574f524b5f455850455249454e43455f4d414e414745520000000000000000008152506040518060400160405280601881526020017f6c6973745f5f776f726b457870657269656e63654c6973740000000000000000815250856040518060400160405280601381526020017f70726f637572696e67456e746974794e616d6500000000000000000000000000815250866040518663ffffffff1660e01b81526004016165f495949392919061ab6b565b5f604051808303815f87803b15801561660b575f80fd5b505af115801561661d573d5f803e3d5ffd5b505050505050565b6060815f60015f9054906101000a900473ffffffffffffffffffffffffffffffffffffffff1673ffffffffffffffffffffffffffffffffffffffff16633bea27536040518060400160405280601781526020017f574f524b5f455850455249454e43455f4d414e414745520000000000000000008152506040518060400160405280601881526020017f6c6973745f5f776f726b457870657269656e63654c69737400000000000000008152506040518363ffffffff1660e01b81526004016166ef92919061a363565b602060405180830381865afa15801561670a573d5f803e3d5ffd5b505050506040513d601f19601f8201168201806040525081019061672e919061a3ac565b9050808210616772576040517f08c379a00000000000000000000000000000000000000000000000000000000081526004016167699061a421565b60405180910390fd5b60015f9054906101000a900473ffffffffffffffffffffffffffffffffffffffff1673ffffffffffffffffffffffffffffffffffffffff16632136448c6040518060400160405280601781526020017f574f524b5f455850455249454e43455f4d414e414745520000000000000000008152506040518060400160405280601881526020017f6c6973745f5f776f726b457870657269656e63654c6973740000000000000000815250876040518060400160405280600781526020017f7375626a656374000000000000000000000000000000000000000000000000008152506040518563ffffffff1660e01b8152600401616871949392919061a43f565b5f60405180830381865afa15801561688b573d5f803e3d5ffd5b505050506040513d5f823e3d601f19601f820116820180604052508101906168b3919061a6fd565b92505050919050565b6060815f60015f9054906101000a900473ffffffffffffffffffffffffffffffffffffffff1673ffffffffffffffffffffffffffffffffffffffff16633bea27536040518060400160405280601781526020017f574f524b5f455850455249454e43455f4d414e414745520000000000000000008152506040518060400160405280601881526020017f6c6973745f5f776f726b457870657269656e63654c69737400000000000000008152506040518363ffffffff1660e01b815260040161698692919061a363565b602060405180830381865afa1580156169a1573d5f803e3d5ffd5b505050506040513d601f19601f820116820180604052508101906169c5919061a3ac565b9050808210616a09576040517f08c379a0000000000000000000000000000000000000000000000000000000008152600401616a009061a421565b60405180910390fd5b60015f9054906101000a900473ffffffffffffffffffffffffffffffffffffffff1673ffffffffffffffffffffffffffffffffffffffff16632136448c6040518060400160405280601781526020017f574f524b5f455850455249454e43455f4d414e414745520000000000000000008152506040518060400160405280601881526020017f6c6973745f5f776f726b457870657269656e63654c6973740000000000000000815250876040518060400160405280601281526020017f70726f637572696e67456e7469747947696400000000000000000000000000008152506040518563ffffffff1660e01b8152600401616b08949392919061a43f565b5f60405180830381865afa158015616b22573d5f803e3d5ffd5b505050506040513d5f823e3d601f19601f82011682018060405250810190616b4a919061a6fd565b92505050919050565b60035f9054906101000a900473ffffffffffffffffffffffffffffffffffffffff1673ffffffffffffffffffffffffffffffffffffffff1663ef02a3fc6040518060400160405280601781526020017f574f524b5f455850455249454e43455f4d414e414745520000000000000000008152506040518263ffffffff1660e01b8152600401616be29190619546565b602060405180830381865afa158015616bfd573d5f803e3d5ffd5b505050506040513d601f19601f82011682018060405250810190616c21919061a530565b73ffffffffffffffffffffffffffffffffffffffff163373ffffffffffffffffffffffffffffffffffffffff1614616c8e576040517f08c379a0000000000000000000000000000000000000000000000000000000008152600401616c859061a5a5565b60405180910390fd5b60015f9054906101000a900473ffffffffffffffffffffffffffffffffffffffff1673ffffffffffffffffffffffffffffffffffffffff1663c8f1cd876040518060400160405280601781526020017f574f524b5f455850455249454e43455f4d414e414745520000000000000000008152506040518060400160405280601881526020017f6c6973745f5f776f726b457870657269656e63654c69737400000000000000008152508560405180606001604052806028815260200161ad6b60289139866040518663ffffffff1660e01b8152600401616d7295949392919061ab6b565b5f604051808303815f87803b158015616d89575f80fd5b505af1158015616d9b573d5f803e3d5ffd5b505050505050565b60035f9054906101000a900473ffffffffffffffffffffffffffffffffffffffff1673ffffffffffffffffffffffffffffffffffffffff1663ef02a3fc6040518060400160405280601781526020017f574f524b5f455850455249454e43455f4d414e414745520000000000000000008152506040518263ffffffff1660e01b8152600401616e329190619546565b602060405180830381865afa158015616e4d573d5f803e3d5ffd5b505050506040513d601f19601f82011682018060405250810190616e71919061a530565b73ffffffffffffffffffffffffffffffffffffffff163373ffffffffffffffffffffffffffffffffffffffff1614616ede576040517f08c379a0000000000000000000000000000000000000000000000000000000008152600401616ed59061a5a5565b60405180910390fd5b60015f9054906101000a900473ffffffffffffffffffffffffffffffffffffffff1673ffffffffffffffffffffffffffffffffffffffff1663c8f1cd876040518060400160405280601781526020017f574f524b5f455850455249454e43455f4d414e414745520000000000000000008152506040518060400160405280601881526020017f6c6973745f5f776f726b457870657269656e63654c6973740000000000000000815250856040518060400160405280600781526020017f7375626a65637400000000000000000000000000000000000000000000000000815250866040518663ffffffff1660e01b8152600401616fdf95949392919061ab6b565b5f604051808303815f87803b158015616ff6575f80fd5b505af1158015617008573d5f803e3d5ffd5b505050505050565b5f815f60015f9054906101000a900473ffffffffffffffffffffffffffffffffffffffff1673ffffffffffffffffffffffffffffffffffffffff16633bea27536040518060400160405280601781526020017f574f524b5f455850455249454e43455f4d414e414745520000000000000000008152506040518060400160405280601881526020017f6c6973745f5f776f726b457870657269656e63654c69737400000000000000008152506040518363ffffffff1660e01b81526004016170d992919061a363565b602060405180830381865afa1580156170f4573d5f803e3d5ffd5b505050506040513d601f19601f82011682018060405250810190617118919061a3ac565b905080821061715c576040517f08c379a00000000000000000000000000000000000000000000000000000000081526004016171539061a421565b60405180910390fd5b60015f9054906101000a900473ffffffffffffffffffffffffffffffffffffffff1673ffffffffffffffffffffffffffffffffffffffff16634bcbf1fb6040518060400160405280601781526020017f574f524b5f455850455249454e43455f4d414e414745520000000000000000008152506040518060400160405280601881526020017f6c6973745f5f776f726b457870657269656e63654c6973740000000000000000815250876040518060400160405280601181526020017f61776172644f66436f6e747261637449640000000000000000000000000000008152506040518563ffffffff1660e01b815260040161725b949392919061a43f565b602060405180830381865afa158015617276573d5f803e3d5ffd5b505050506040513d601f19601f8201168201806040525081019061729a919061ac2f565b92505050919050565b60605f805f6172b06149f3565b9050808611156172be578095505b5f8686116172cc57856172ce565b865b90508067ffffffffffffffff8111156172ea576172e9619643565b5b60405190808252806020026020018201604052801561732357816020015b61731061921b565b8152602001906001900390816173085790505b5094505b5f81111561738f57808061733a9061a8d8565b91505086806173489061a8d8565b975050617354876146a1565b856001838851617364919061a939565b61736e919061a939565b8151811061737f5761737e61a96c565b5b6020026020010181905250617327565b86935081925050509250925092565b5f815f60015f9054906101000a900473ffffffffffffffffffffffffffffffffffffffff1673ffffffffffffffffffffffffffffffffffffffff16633bea27536040518060400160405280601781526020017f574f524b5f455850455249454e43455f4d414e414745520000000000000000008152506040518060400160405280601881526020017f6c6973745f5f776f726b457870657269656e63654c69737400000000000000008152506040518363ffffffff1660e01b815260040161746792919061a363565b602060405180830381865afa158015617482573d5f803e3d5ffd5b505050506040513d601f19601f820116820180604052508101906174a6919061a3ac565b90508082106174ea576040517f08c379a00000000000000000000000000000000000000000000000000000000081526004016174e19061a421565b60405180910390fd5b60015f9054906101000a900473ffffffffffffffffffffffffffffffffffffffff1673ffffffffffffffffffffffffffffffffffffffff166303afa62b6040518060400160405280601781526020017f574f524b5f455850455249454e43455f4d414e414745520000000000000000008152506040518060400160405280601881526020017f6c6973745f5f776f726b457870657269656e63654c6973740000000000000000815250876040518060400160405280600781526020017f76657273696f6e000000000000000000000000000000000000000000000000008152506040518563ffffffff1660e01b81526004016175e9949392919061a43f565b602060405180830381865afa158015617604573d5f803e3d5ffd5b505050506040513d601f19601f82011682018060405250810190617628919061ac6e565b92505050919050565b5f815f60015f9054906101000a900473ffffffffffffffffffffffffffffffffffffffff1673ffffffffffffffffffffffffffffffffffffffff16633bea27536040518060400160405280601781526020017f574f524b5f455850455249454e43455f4d414e414745520000000000000000008152506040518060400160405280601881526020017f6c6973745f5f776f726b457870657269656e63654c69737400000000000000008152506040518363ffffffff1660e01b81526004016176fa92919061a363565b602060405180830381865afa158015617715573d5f803e3d5ffd5b505050506040513d601f19601f82011682018060405250810190617739919061a3ac565b905080821061777d576040517f08c379a00000000000000000000000000000000000000000000000000000000081526004016177749061a421565b60405180910390fd5b60015f9054906101000a900473ffffffffffffffffffffffffffffffffffffffff1673ffffffffffffffffffffffffffffffffffffffff1663b83032bd6040518060400160405280601781526020017f574f524b5f455850455249454e43455f4d414e414745520000000000000000008152506040518060400160405280601881526020017f6c6973745f5f776f726b457870657269656e63654c69737400000000000000008152508760405180606001604052806025815260200161ad00602591396040518563ffffffff1660e01b815260040161785f949392919061a43f565b602060405180830381865afa15801561787a573d5f803e3d5ffd5b505050506040513d601f19601f8201168201806040525081019061789e919061a3ac565b92505050919050565b60035f9054906101000a900473ffffffffffffffffffffffffffffffffffffffff1673ffffffffffffffffffffffffffffffffffffffff1663ef02a3fc6040518060400160405280601781526020017f574f524b5f455850455249454e43455f4d414e414745520000000000000000008152506040518263ffffffff1660e01b81526004016179369190619546565b602060405180830381865afa158015617951573d5f803e3d5ffd5b505050506040513d601f19601f82011682018060405250810190617975919061a530565b73ffffffffffffffffffffffffffffffffffffffff163373ffffffffffffffffffffffffffffffffffffffff16146179e2576040517f08c379a00000000000000000000000000000000000000000000000000000000081526004016179d99061a5a5565b60405180910390fd5b60015f9054906101000a900473ffffffffffffffffffffffffffffffffffffffff1673ffffffffffffffffffffffffffffffffffffffff1663c8f1cd876040518060400160405280601781526020017f574f524b5f455850455249454e43455f4d414e414745520000000000000000008152506040518060400160405280601881526020017f6c6973745f5f776f726b457870657269656e63654c6973740000000000000000815250856040518060400160405280600b81526020017f65677053797374656d4964000000000000000000000000000000000000000000815250866040518663ffffffff1660e01b8152600401617ae395949392919061ab6b565b5f604051808303815f87803b158015617afa575f80fd5b505af1158015617b0c573d5f803e3d5ffd5b505050505050565b60035f9054906101000a900473ffffffffffffffffffffffffffffffffffffffff1673ffffffffffffffffffffffffffffffffffffffff1663ef02a3fc6040518060400160405280601781526020017f574f524b5f455850455249454e43455f4d414e414745520000000000000000008152506040518263ffffffff1660e01b8152600401617ba39190619546565b602060405180830381865afa158015617bbe573d5f803e3d5ffd5b505050506040513d601f19601f82011682018060405250810190617be2919061a530565b73ffffffffffffffffffffffffffffffffffffffff163373ffffffffffffffffffffffffffffffffffffffff1614617c4f576040517f08c379a0000000000000000000000000000000000000000000000000000000008152600401617c469061a5a5565b60405180910390fd5b60015f9054906101000a900473ffffffffffffffffffffffffffffffffffffffff1673ffffffffffffffffffffffffffffffffffffffff1663c8f1cd876040518060400160405280601781526020017f574f524b5f455850455249454e43455f4d414e414745520000000000000000008152506040518060400160405280601881526020017f6c6973745f5f776f726b457870657269656e63654c6973740000000000000000815250856040518060400160405280600e81526020017f61776172645265666572656e6365000000000000000000000000000000000000815250866040518663ffffffff1660e01b8152600401617d5095949392919061ab6b565b5f604051808303815f87803b158015617d67575f80fd5b505af1158015617d79573d5f803e3d5ffd5b505050505050565b6060815f60015f9054906101000a900473ffffffffffffffffffffffffffffffffffffffff1673ffffffffffffffffffffffffffffffffffffffff16633bea27536040518060400160405280601781526020017f574f524b5f455850455249454e43455f4d414e414745520000000000000000008152506040518060400160405280601881526020017f6c6973745f5f776f726b457870657269656e63654c69737400000000000000008152506040518363ffffffff1660e01b8152600401617e4b92919061a363565b602060405180830381865afa158015617e66573d5f803e3d5ffd5b505050506040513d601f19601f82011682018060405250810190617e8a919061a3ac565b9050808210617ece576040517f08c379a0000000000000000000000000000000000000000000000000000000008152600401617ec59061a421565b60405180910390fd5b60015f9054906101000a900473ffffffffffffffffffffffffffffffffffffffff1673ffffffffffffffffffffffffffffffffffffffff16632136448c6040518060400160405280601781526020017f574f524b5f455850455249454e43455f4d414e414745520000000000000000008152506040518060400160405280601881526020017f6c6973745f5f776f726b457870657269656e63654c6973740000000000000000815250876040518060400160405280600781526020017f72656d61726b73000000000000000000000000000000000000000000000000008152506040518563ffffffff1660e01b8152600401617fcd949392919061a43f565b5f60405180830381865afa158015617fe7573d5f803e3d5ffd5b505050506040513d5f823e3d601f19601f8201168201806040525081019061800f919061a6fd565b92505050919050565b6060815f60015f9054906101000a900473ffffffffffffffffffffffffffffffffffffffff1673ffffffffffffffffffffffffffffffffffffffff16633bea27536040518060400160405280601781526020017f574f524b5f455850455249454e43455f4d414e414745520000000000000000008152506040518060400160405280601881526020017f6c6973745f5f776f726b457870657269656e63654c69737400000000000000008152506040518363ffffffff1660e01b81526004016180e292919061a363565b602060405180830381865afa1580156180fd573d5f803e3d5ffd5b505050506040513d601f19601f82011682018060405250810190618121919061a3ac565b9050808210618165576040517f08c379a000000000000000000000000000000000000000000000000000000000815260040161815c9061a421565b60405180910390fd5b60015f9054906101000a900473ffffffffffffffffffffffffffffffffffffffff1673ffffffffffffffffffffffffffffffffffffffff16632136448c6040518060400160405280601781526020017f574f524b5f455850455249454e43455f4d414e414745520000000000000000008152506040518060400160405280601881526020017f6c6973745f5f776f726b457870657269656e63654c6973740000000000000000815250876040518060400160405280600e81526020017f61776172645265666572656e63650000000000000000000000000000000000008152506040518563ffffffff1660e01b8152600401618264949392919061a43f565b5f60405180830381865afa15801561827e573d5f803e3d5ffd5b505050506040513d5f823e3d601f19601f820116820180604052508101906182a6919061a6fd565b92505050919050565b60035f9054906101000a900473ffffffffffffffffffffffffffffffffffffffff1673ffffffffffffffffffffffffffffffffffffffff1663ef02a3fc6040518060400160405280601781526020017f574f524b5f455850455249454e43455f4d414e414745520000000000000000008152506040518263ffffffff1660e01b815260040161833e9190619546565b602060405180830381865afa158015618359573d5f803e3d5ffd5b505050506040513d601f19601f8201168201806040525081019061837d919061a530565b73ffffffffffffffffffffffffffffffffffffffff163373ffffffffffffffffffffffffffffffffffffffff16146183ea576040517f08c379a00000000000000000000000000000000000000000000000000000000081526004016183e19061a5a5565b60405180910390fd5b60015f9054906101000a900473ffffffffffffffffffffffffffffffffffffffff1673ffffffffffffffffffffffffffffffffffffffff1663c4f188576040518060400160405280601781526020017f574f524b5f455850455249454e43455f4d414e414745520000000000000000008152506040518060400160405280601881526020017f6c6973745f5f776f726b457870657269656e63654c6973740000000000000000815250846040518060400160405280600781526020017f76657273696f6e0000000000000000000000000000000000000000000000000081525060016040518663ffffffff1660e01b81526004016184ec95949392919061ac99565b5f604051808303815f87803b158015618503575f80fd5b505af1158015618515573d5f803e3d5ffd5b5050505050565b60405180606001604052806026815260200161ad936026913981565b60035f9054906101000a900473ffffffffffffffffffffffffffffffffffffffff1673ffffffffffffffffffffffffffffffffffffffff1663ef02a3fc6040518060400160405280601781526020017f574f524b5f455850455249454e43455f4d414e414745520000000000000000008152506040518263ffffffff1660e01b81526004016185c79190619546565b602060405180830381865afa1580156185e2573d5f803e3d5ffd5b505050506040513d601f19601f82011682018060405250810190618606919061a530565b73ffffffffffffffffffffffffffffffffffffffff163373ffffffffffffffffffffffffffffffffffffffff1614618673576040517f08c379a000000000000000000000000000000000000000000000000000000000815260040161866a9061a5a5565b60405180910390fd5b60015f9054906101000a900473ffffffffffffffffffffffffffffffffffffffff1673ffffffffffffffffffffffffffffffffffffffff1663c8f1cd876040518060400160405280601781526020017f574f524b5f455850455249454e43455f4d414e414745520000000000000000008152506040518060400160405280601881526020017f6c6973745f5f776f726b457870657269656e63654c6973740000000000000000815250856040518060400160405280601281526020017f70726f637572696e67456e746974794769640000000000000000000000000000815250866040518663ffffffff1660e01b815260040161877495949392919061ab6b565b5f604051808303815f87803b15801561878b575f80fd5b505af115801561879d573d5f803e3d5ffd5b505050505050565b6060815f60015f9054906101000a900473ffffffffffffffffffffffffffffffffffffffff1673ffffffffffffffffffffffffffffffffffffffff16633bea27536040518060400160405280601781526020017f574f524b5f455850455249454e43455f4d414e414745520000000000000000008152506040518060400160405280601881526020017f6c6973745f5f776f726b457870657269656e63654c69737400000000000000008152506040518363ffffffff1660e01b815260040161886f92919061a363565b602060405180830381865afa15801561888a573d5f803e3d5ffd5b505050506040513d601f19601f820116820180604052508101906188ae919061a3ac565b90508082106188f2576040517f08c379a00000000000000000000000000000000000000000000000000000000081526004016188e99061a421565b60405180910390fd5b60015f9054906101000a900473ffffffffffffffffffffffffffffffffffffffff1673ffffffffffffffffffffffffffffffffffffffff16632136448c6040518060400160405280601781526020017f574f524b5f455850455249454e43455f4d414e414745520000000000000000008152506040518060400160405280601881526020017f6c6973745f5f776f726b457870657269656e63654c6973740000000000000000815250876040518060400160405280601681526020017f776f726b457870657269656e636546696c6548617368000000000000000000008152506040518563ffffffff1660e01b81526004016189f1949392919061a43f565b5f60405180830381865afa158015618a0b573d5f803e3d5ffd5b505050506040513d5f823e3d601f19601f82011682018060405250810190618a33919061a6fd565b92505050919050565b60035f9054906101000a900473ffffffffffffffffffffffffffffffffffffffff1673ffffffffffffffffffffffffffffffffffffffff1663ef02a3fc6040518060400160405280601781526020017f574f524b5f455850455249454e43455f4d414e414745520000000000000000008152506040518263ffffffff1660e01b8152600401618acb9190619546565b602060405180830381865afa158015618ae6573d5f803e3d5ffd5b505050506040513d601f19601f82011682018060405250810190618b0a919061a530565b73ffffffffffffffffffffffffffffffffffffffff163373ffffffffffffffffffffffffffffffffffffffff1614618b77576040517f08c379a0000000000000000000000000000000000000000000000000000000008152600401618b6e9061a5a5565b60405180910390fd5b5f618b806149f3565b9050618b8a614afe565b618b9781835f0151610c57565b618ba5818360200151617b14565b618bb3818360400151610ec4565b618bc18183606001516155fa565b618bcf8183608001516118af565b618bdd818360a00151614434565b618bfd818360c001516005811115618bf857618bf761935f565b5b6113ab565b618c0b818360e0015161614b565b618c1a818361010001516178a7565b618c2981836101200151618538565b618c38818361014001516163b8565b618c4781836101600151615867565b618c5681836101800151616b53565b618c6581836101a00151616da3565b618c7481836101c00151618fae565b618c7d816182af565b5050565b60605f805f60025f9054906101000a900473ffffffffffffffffffffffffffffffffffffffff1673ffffffffffffffffffffffffffffffffffffffff1663bfa9f3eb6040518060400160405280601781526020017f574f524b5f455850455249454e43455f4d414e4147455200000000000000000081525060405180606001604052806023815260200161ad48602391398a6040518060400160405280600881526020017f5f5f6c656e677468000000000000000000000000000000000000000000000000815250604051602001618d59919061a7e4565b6040516020818303038152906040526040518563ffffffff1660e01b8152600401618d87949392919061a999565b602060405180830381865afa158015618da2573d5f803e3d5ffd5b505050506040513d601f19601f82011682018060405250810190618dc6919061a3ac565b905080861115618dd4578095505b5f868611618de25785618de4565b865b90508067ffffffffffffffff811115618e0057618dff619643565b5b604051908082528060200260200182016040528015618e2e5781602001602082028036833780820191505090505b5094505b5f811115618f9d578080618e459061a8d8565b9150508680618e539061a8d8565b97505060025f9054906101000a900473ffffffffffffffffffffffffffffffffffffffff1673ffffffffffffffffffffffffffffffffffffffff1663bfa9f3eb6040518060400160405280601781526020017f574f524b5f455850455249454e43455f4d414e4147455200000000000000000081525060405180606001604052806023815260200161ad48602391398b8b604051602001618ef4919061a91f565b6040516020818303038152906040526040518563ffffffff1660e01b8152600401618f22949392919061a999565b602060405180830381865afa158015618f3d573d5f803e3d5ffd5b505050506040513d601f19601f82011682018060405250810190618f61919061a3ac565b856001838851618f71919061a939565b618f7b919061a939565b81518110618f8c57618f8b61a96c565b5b602002602001018181525050618e32565b869350819250505093509350939050565b60035f9054906101000a900473ffffffffffffffffffffffffffffffffffffffff1673ffffffffffffffffffffffffffffffffffffffff1663ef02a3fc6040518060400160405280601781526020017f574f524b5f455850455249454e43455f4d414e414745520000000000000000008152506040518263ffffffff1660e01b815260040161903d9190619546565b602060405180830381865afa158015619058573d5f803e3d5ffd5b505050506040513d601f19601f8201168201806040525081019061907c919061a530565b73ffffffffffffffffffffffffffffffffffffffff163373ffffffffffffffffffffffffffffffffffffffff16146190e9576040517f08c379a00000000000000000000000000000000000000000000000000000000081526004016190e09061a5a5565b60405180910390fd5b60015f9054906101000a900473ffffffffffffffffffffffffffffffffffffffff1673ffffffffffffffffffffffffffffffffffffffff1663a06fd4546040518060400160405280601781526020017f574f524b5f455850455249454e43455f4d414e414745520000000000000000008152506040518060400160405280601881526020017f6c6973745f5f776f726b457870657269656e63654c6973740000000000000000815250856040518060400160405280601181526020017f61776172644f66436f6e74726163744964000000000000000000000000000000815250866040518663ffffffff1660e01b81526004016191ea95949392919061a5c3565b5f604051808303815f87803b158015619201575f80fd5b505af1158015619213573d5f803e3d5ffd5b505050505050565b6040518061020001604052805f77ffffffffffffffffffffffffffffffffffffffffffffffff19168152602001606081526020015f8152602001606081526020015f600481111561926f5761926e61935f565b5b8152602001606081526020015f600581111561928e5761928d61935f565b5b8152602001606081526020016060815260200160608152602001606081526020016060815260200160608152602001606081526020015f77ffffffffffffffffffffffffffffffffffffffffffffffff191681526020015f61ffff1681525090565b5f604051905090565b5f80fd5b5f80fd5b5f819050919050565b61931381619301565b811461931d575f80fd5b50565b5f8135905061932e8161930a565b92915050565b5f60208284031215619349576193486192f9565b5b5f61935684828501619320565b91505092915050565b7f4e487b71000000000000000000000000000000000000000000000000000000005f52602160045260245ffd5b6005811061939d5761939c61935f565b5b50565b5f8190506193ad8261938c565b919050565b5f6193bc826193a0565b9050919050565b6193cc816193b2565b82525050565b5f6020820190506193e55f8301846193c3565b92915050565b5f7fffffffffffffffff00000000000000000000000000000000000000000000000082169050919050565b61941f816193eb565b8114619429575f80fd5b50565b5f8135905061943a81619416565b92915050565b5f8060408385031215619456576194556192f9565b5b5f61946385828601619320565b92505060206194748582860161942c565b9150509250929050565b5f8060408385031215619494576194936192f9565b5b5f6194a185828601619320565b92505060206194b285828601619320565b9150509250929050565b5f81519050919050565b5f82825260208201905092915050565b5f5b838110156194f35780820151818401526020810190506194d8565b5f8484015250505050565b5f601f19601f8301169050919050565b5f619518826194bc565b61952281856194c6565b93506195328185602086016194d6565b61953b816194fe565b840191505092915050565b5f6020820190508181035f83015261955e818461950e565b905092915050565b5f60ff82169050919050565b61957b81619566565b8114619585575f80fd5b50565b5f8135905061959681619572565b92915050565b5f80604083850312156195b2576195b16192f9565b5b5f6195bf85828601619320565b92505060206195d085828601619588565b9150509250929050565b600581106195e6575f80fd5b50565b5f813590506195f7816195da565b92915050565b5f8060408385031215619613576196126192f9565b5b5f61962085828601619320565b9250506020619631858286016195e9565b9150509250929050565b5f80fd5b5f80fd5b7f4e487b71000000000000000000000000000000000000000000000000000000005f52604160045260245ffd5b619679826194fe565b810181811067ffffffffffffffff8211171561969857619697619643565b5b80604052505050565b5f6196aa6192f0565b90506196b68282619670565b919050565b5f67ffffffffffffffff8211156196d5576196d4619643565b5b6196de826194fe565b9050602081019050919050565b828183375f83830152505050565b5f61970b619706846196bb565b6196a1565b9050828152602081018484840111156197275761972661963f565b5b6197328482856196eb565b509392505050565b5f82601f83011261974e5761974d61963b565b5b813561975e8482602086016196f9565b91505092915050565b5f805f6060848603121561977e5761977d6192f9565b5b5f84013567ffffffffffffffff81111561979b5761979a6192fd565b5b6197a78682870161973a565b93505060206197b886828701619320565b92505060406197c986828701619320565b9150509250925092565b5f81519050919050565b5f82825260208201905092915050565b5f819050602082019050919050565b61980581619301565b82525050565b5f61981683836197fc565b60208301905092915050565b5f602082019050919050565b5f619838826197d3565b61984281856197dd565b935061984d836197ed565b805f5b8381101561987d578151619864888261980b565b975061986f83619822565b925050600181019050619850565b5085935050505092915050565b61989381619301565b82525050565b5f6060820190508181035f8301526198b1818661982e565b90506198c0602083018561988a565b6198cd604083018461988a565b949350505050565b5f805f606084860312156198ec576198eb6192f9565b5b5f6198f98682870161942c565b935050602061990a86828701619320565b925050604061991b86828701619320565b9150509250925092565b5f806040838503121561993b5761993a6192f9565b5b5f6199488582860161942c565b925050602061995985828601619320565b9150509250929050565b5f80fd5b5f80fd5b60068110619977575f80fd5b50565b5f813590506199888161996b565b92915050565b5f61ffff82169050919050565b6199a48161998e565b81146199ae575f80fd5b50565b5f813590506199bf8161999b565b92915050565b5f61020082840312156199db576199da619963565b5b6199e66102006196a1565b90505f6199f58482850161942c565b5f83015250602082013567ffffffffffffffff811115619a1857619a17619967565b5b619a248482850161973a565b6020830152506040619a3884828501619320565b604083015250606082013567ffffffffffffffff811115619a5c57619a5b619967565b5b619a688482850161973a565b6060830152506080619a7c848285016195e9565b60808301525060a082013567ffffffffffffffff811115619aa057619a9f619967565b5b619aac8482850161973a565b60a08301525060c0619ac08482850161997a565b60c08301525060e082013567ffffffffffffffff811115619ae457619ae3619967565b5b619af08482850161973a565b60e08301525061010082013567ffffffffffffffff811115619b1557619b14619967565b5b619b218482850161973a565b6101008301525061012082013567ffffffffffffffff811115619b4757619b46619967565b5b619b538482850161973a565b6101208301525061014082013567ffffffffffffffff811115619b7957619b78619967565b5b619b858482850161973a565b6101408301525061016082013567ffffffffffffffff811115619bab57619baa619967565b5b619bb78482850161973a565b6101608301525061018082013567ffffffffffffffff811115619bdd57619bdc619967565b5b619be98482850161973a565b610180830152506101a082013567ffffffffffffffff811115619c0f57619c0e619967565b5b619c1b8482850161973a565b6101a0830152506101c0619c318482850161942c565b6101c0830152506101e0619c47848285016199b1565b6101e08301525092915050565b5f805f8060808587031215619c6c57619c6b6192f9565b5b5f85013567ffffffffffffffff811115619c8957619c886192fd565b5b619c95878288016199c5565b9450506020619ca687828801619320565b935050604085013567ffffffffffffffff811115619cc757619cc66192fd565b5b619cd38782880161973a565b925050606085013567ffffffffffffffff811115619cf457619cf36192fd565b5b619d008782880161973a565b91505092959194509250565b5f8060408385031215619d2257619d216192f9565b5b5f619d2f85828601619320565b925050602083013567ffffffffffffffff811115619d5057619d4f6192fd565b5b619d5c8582860161973a565b9150509250929050565b619d6f816193eb565b82525050565b5f82825260208201905092915050565b5f619d8f826194bc565b619d998185619d75565b9350619da98185602086016194d6565b619db2816194fe565b840191505092915050565b619dc6816193b2565b82525050565b60068110619ddd57619ddc61935f565b5b50565b5f819050619ded82619dcc565b919050565b5f619dfc82619de0565b9050919050565b619e0c81619df2565b82525050565b619e1b8161998e565b82525050565b5f61020083015f830151619e375f860182619d66565b5060208301518482036020860152619e4f8282619d85565b9150506040830151619e6460408601826197fc565b5060608301518482036060860152619e7c8282619d85565b9150506080830151619e916080860182619dbd565b5060a083015184820360a0860152619ea98282619d85565b91505060c0830151619ebe60c0860182619e03565b5060e083015184820360e0860152619ed68282619d85565b915050610100830151848203610100860152619ef28282619d85565b915050610120830151848203610120860152619f0e8282619d85565b915050610140830151848203610140860152619f2a8282619d85565b915050610160830151848203610160860152619f468282619d85565b915050610180830151848203610180860152619f628282619d85565b9150506101a08301518482036101a0860152619f7e8282619d85565b9150506101c0830151619f956101c0860182619d66565b506101e0830151619faa6101e0860182619e12565b508091505092915050565b5f6020820190508181035f830152619fcd8184619e21565b905092915050565b5f602082019050619fe85f83018461988a565b92915050565b5f6020828403121561a0035761a0026192f9565b5b5f61a0108482850161942c565b91505092915050565b61a022816193eb565b82525050565b5f60208201905061a03b5f83018461a019565b92915050565b61a04a81619566565b82525050565b5f60208201905061a0635f83018461a041565b92915050565b5f81519050919050565b5f82825260208201905092915050565b5f819050602082019050919050565b5f61020083015f83015161a0a85f860182619d66565b506020830151848203602086015261a0c08282619d85565b915050604083015161a0d560408601826197fc565b506060830151848203606086015261a0ed8282619d85565b915050608083015161a1026080860182619dbd565b5060a083015184820360a086015261a11a8282619d85565b91505060c083015161a12f60c0860182619e03565b5060e083015184820360e086015261a1478282619d85565b91505061010083015184820361010086015261a1638282619d85565b91505061012083015184820361012086015261a17f8282619d85565b91505061014083015184820361014086015261a19b8282619d85565b91505061016083015184820361016086015261a1b78282619d85565b91505061018083015184820361018086015261a1d38282619d85565b9150506101a08301518482036101a086015261a1ef8282619d85565b9150506101c083015161a2066101c0860182619d66565b506101e083015161a21b6101e0860182619e12565b508091505092915050565b5f61a231838361a092565b905092915050565b5f602082019050919050565b5f61a24f8261a069565b61a259818561a073565b93508360208202850161a26b8561a083565b805f5b8581101561a2a6578484038952815161a287858261a226565b945061a2928361a239565b925060208a0199505060018101905061a26e565b50829750879550505050505092915050565b5f6060820190508181035f83015261a2d0818661a245565b905061a2df602083018561988a565b61a2ec604083018461988a565b949350505050565b61a2fd8161998e565b82525050565b5f60208201905061a3165f83018461a2f4565b92915050565b5f6020828403121561a3315761a3306192f9565b5b5f82013567ffffffffffffffff81111561a34e5761a34d6192fd565b5b61a35a848285016199c5565b91505092915050565b5f6040820190508181035f83015261a37b818561950e565b9050818103602083015261a38f818461950e565b90509392505050565b5f8151905061a3a68161930a565b92915050565b5f6020828403121561a3c15761a3c06192f9565b5b5f61a3ce8482850161a398565b91505092915050565b7f496e64657820496e76616c6964000000000000000000000000000000000000005f82015250565b5f61a40b600d836194c6565b915061a4168261a3d7565b602082019050919050565b5f6020820190508181035f83015261a4388161a3ff565b9050919050565b5f6080820190508181035f83015261a457818761950e565b9050818103602083015261a46b818661950e565b905061a47a604083018561988a565b818103606083015261a48c818461950e565b905095945050505050565b5f8151905061a4a581619572565b92915050565b5f6020828403121561a4c05761a4bf6192f9565b5b5f61a4cd8482850161a497565b91505092915050565b5f73ffffffffffffffffffffffffffffffffffffffff82169050919050565b5f61a4ff8261a4d6565b9050919050565b61a50f8161a4f5565b811461a519575f80fd5b50565b5f8151905061a52a8161a506565b92915050565b5f6020828403121561a5455761a5446192f9565b5b5f61a5528482850161a51c565b91505092915050565b7f556e617574686f72697a656420436f6e74726163742043616c6c0000000000005f82015250565b5f61a58f601a836194c6565b915061a59a8261a55b565b602082019050919050565b5f6020820190508181035f83015261a5bc8161a583565b9050919050565b5f60a0820190508181035f83015261a5db818861950e565b9050818103602083015261a5ef818761950e565b905061a5fe604083018661988a565b818103606083015261a610818561950e565b905061a61f608083018461a019565b9695505050505050565b5f60a0820190508181035f83015261a641818861950e565b9050818103602083015261a655818761950e565b905061a664604083018661988a565b818103606083015261a676818561950e565b905061a685608083018461988a565b9695505050505050565b5f61a6a161a69c846196bb565b6196a1565b90508281526020810184848401111561a6bd5761a6bc61963f565b5b61a6c88482856194d6565b509392505050565b5f82601f83011261a6e45761a6e361963b565b5b815161a6f484826020860161a68f565b91505092915050565b5f6020828403121561a7125761a7116192f9565b5b5f82015167ffffffffffffffff81111561a72f5761a72e6192fd565b5b61a73b8482850161a6d0565b91505092915050565b5f60a0820190508181035f83015261a75c818861950e565b9050818103602083015261a770818761950e565b905061a77f604083018661988a565b818103606083015261a791818561950e565b905061a7a0608083018461a041565b9695505050505050565b5f81905092915050565b5f61a7be826194bc565b61a7c8818561a7aa565b935061a7d88185602086016194d6565b80840191505092915050565b5f61a7ef828461a7b4565b915081905092915050565b5f81519050919050565b5f82825260208201905092915050565b5f61a81e8261a7fa565b61a828818561a804565b935061a8388185602086016194d6565b61a841816194fe565b840191505092915050565b5f6080820190508181035f83015261a864818761950e565b9050818103602083015261a878818661950e565b9050818103604083015261a88c818561950e565b9050818103606083015261a8a0818461a814565b905095945050505050565b7f4e487b71000000000000000000000000000000000000000000000000000000005f52601160045260245ffd5b5f61a8e282619301565b91505f820361a8f45761a8f361a8ab565b5b600182039050919050565b5f819050919050565b61a91961a91482619301565b61a8ff565b82525050565b5f61a92a828461a908565b60208201915081905092915050565b5f61a94382619301565b915061a94e83619301565b925082820390508181111561a9665761a96561a8ab565b5b92915050565b7f4e487b71000000000000000000000000000000000000000000000000000000005f52603260045260245ffd5b5f6080820190508181035f83015261a9b1818761950e565b9050818103602083015261a9c5818661950e565b905061a9d4604083018561a019565b818103606083015261a9e6818461a814565b905095945050505050565b5f6080820190508181035f83015261aa09818761950e565b9050818103602083015261aa1d818661950e565b905061aa2c604083018561a019565b61aa39606083018461988a565b95945050505050565b5f61aa4c82619301565b915061aa5783619301565b925082820190508082111561aa6f5761aa6e61a8ab565b5b92915050565b5f60a0820190508181035f83015261aa8d818861950e565b9050818103602083015261aaa1818761950e565b905061aab0604083018661a019565b818103606083015261aac2818561a814565b905061aad1608083018461988a565b9695505050505050565b5f60a0820190508181035f83015261aaf3818861950e565b9050818103602083015261ab07818761950e565b9050818103604083015261ab1b818661950e565b9050818103606083015261ab2f818561a814565b905061ab3e608083018461988a565b9695505050505050565b5f61ab53828561a7b4565b915061ab5f828461a7b4565b91508190509392505050565b5f60a0820190508181035f83015261ab83818861950e565b9050818103602083015261ab97818761950e565b905061aba6604083018661988a565b818103606083015261abb8818561950e565b9050818103608083015261abcc818461950e565b90509695505050505050565b5f6060820190508181035f83015261abf0818661950e565b9050818103602083015261ac04818561950e565b905061ac13604083018461a019565b949350505050565b5f8151905061ac2981619416565b92915050565b5f6020828403121561ac445761ac436192f9565b5b5f61ac518482850161ac1b565b91505092915050565b5f8151905061ac688161999b565b92915050565b5f6020828403121561ac835761ac826192f9565b5b5f61ac908482850161ac5a565b91505092915050565b5f60a0820190508181035f83015261acb1818861950e565b9050818103602083015261acc5818761950e565b905061acd4604083018661988a565b818103606083015261ace6818561950e565b905061acf5608083018461a2f4565b969550505050505056fe776f726b457870657269656e6365436572746966696361746549737375616e6365446174656d61705f5f776f726b457870657269656e6365627956656e646f72416e644f726749646d61705f5f776f726b457870657269656e636562795045416e6456656e646f7247696470726f637572696e67456e74697479526570726573656e74617469766544657369676e6174696f6e6d61705f5f776f726b457870657269656e6365627954656e646572526566416e644f7267496470726f637572696e67456e74697479526570726573656e7461746976654e616d65a264697066735822122033cbaf01753911b1d9b57518c9de3830134987cf1bb60b340661e7e2a3f13bae64736f6c63430008140033",
  "immutableReferences": {},
  "source": "pragma solidity ^0.8.0;\npragma experimental ABIEncoderV2;\n\nimport \"./MemberStorage.sol\";\nimport \"./ListStorage.sol\";\nimport \"./MapStorage.sol\";\nimport \"./QuireContracts.sol\";\n\ncontract WorkExperienceStructs {\n\n    uint16 constant internal __VERSION__ = 1;\n\n    enum WorkStatus {UNASSIGNED,ONGOING,COMPLETED,CANCELLED,SUSPENDED}\n    enum SupplierRating {UNASSIGNED,ONE,TWO,THREE,FOUR,FIVE}\n\n    struct WorkExperience {\n        bytes8 uid;\n        string awardReference;\n        uint workExperienceCertificateIssuanceDate;\n        string contractCompletedValue;\n        WorkStatus workStatus;\n        string remarks;\n        SupplierRating supplierRating;\n        string workExperienceFileHash;\n        string egpSystemId;\n        string procuringEntityGid;\n        string procuringEntityName;\n        string procuringEntityRepresentativeName;\n        string procuringEntityRepresentativeDesignation;\n        string subject;\n        bytes8 awardOfContractId;\n        uint16 version;\n    }\n    string constant internal propKeyUid = \"uid\";\n    string constant internal propKeyAwardReference = \"awardReference\";\n    string constant internal propKeyWorkExperienceCertificateIssuanceDate = \"workExperienceCertificateIssuanceDate\";\n    string constant internal propKeyContractCompletedValue = \"contractCompletedValue\";\n    string constant internal propKeyWorkStatus = \"workStatus\";\n    string constant internal propKeyRemarks = \"remarks\";\n    string constant internal propKeySupplierRating = \"supplierRating\";\n    string constant internal propKeyWorkExperienceFileHash = \"workExperienceFileHash\";\n    string constant internal propKeyWorkExperienceEgpSystemId = \"egpSystemId\";\n    string constant internal propKeyProcuringEntityGid = \"procuringEntityGid\";\n    string constant internal propKeyProcuringEntityName = \"procuringEntityName\";\n    string constant internal propKeyProcuringEntityRepresentativeName = \"procuringEntityRepresentativeName\";\n    string constant internal propKeyProcuringEntityRepresentativeDesignation = \"procuringEntityRepresentativeDesignation\";\n    string constant internal propKeySubject = \"subject\";\n    string constant internal propKeyAwardOfContractId = \"awardOfContractId\";\n    string constant internal propKeyVersion = \"version\";\n}\n\ncontract WorkExperienceModel is WorkExperienceStructs {\n    \n    MemberStorage private Member;\n    ListStorage private List;\n    MapStorage private Map;\n    QuireContracts private quireContracts;\n    \n    constructor(\n        address _Member,\n        address _List,\n        address _Map,\n        address _quireContracts\n    ){\n        Member = MemberStorage(_Member);\n        List = ListStorage(_List);\n        Map = MapStorage(_Map);\n        quireContracts = QuireContracts(_quireContracts);\n    }\n\n\n    string constant internal KEY = \"WORK_EXPERIENCE_MANAGER\";\n    string constant internal propLength = \"__length\";\n    string constant internal workExperienceList = \"list__workExperienceList\";\n    string constant internal workExperienceIndex = \"map__workExperienceIndex\";\n    string constant internal aocWorkExps = \"map__aocWorkExperiences\";\n    string constant internal peWorkExps = \"map__peWorkExperiences\";\n    string constant internal orgIDWorkExps = \"map__orgIDWorkExperiences\";\n    string constant internal vendorWorkExps = \"map__vendorWorkExperiences\";\n    string constant public workExperiencebyTenderRefAndOrgId = \"map__workExperiencebyTenderRefAndOrgId\";\n    string constant internal workExperiencebyVendorAndOrgId = \"map__workExperiencebyVendorAndOrgId\";\n    string constant internal workExperiencebyPEAndVendorGid = \"map__workExperiencebyPEAndVendorGid\";\n    \n\n\n    modifier onlyWorkExManager() {\n        require(msg.sender==quireContracts.getRegisteredContract(KEY), \"Unauthorized Contract Call\");\n        _;\n    }\n\n    modifier validWorkExperienceListIndex(uint256 _index){\n        uint256 length = List.getLength(KEY, workExperienceList);\n        require(_index < length, \"Index Invalid\");\n        _;\n    }\n\n    // ------------- GETTERS ------------- //\n\n    function getWorkExperienceListLength() public view returns (uint256) {\n        return List.getLength(KEY, workExperienceList);\n    }\n\n    function getWorkExperienceByIndex(uint256 _index)\n        public\n        view\n        validWorkExperienceListIndex(_index)\n        returns (WorkExperience memory workExperience_)\n    {\n        workExperience_.uid = getWorkExperienceUid(_index);\n        workExperience_.awardReference = getWorkExperienceAwardReference(_index);\n        workExperience_.workExperienceCertificateIssuanceDate = getWorkExperienceWorkExperienceCertificateIssuanceDate(_index);\n        workExperience_.contractCompletedValue = getWorkExperienceContractCompletedValue(_index);\n        workExperience_.workStatus = getWorkExperienceWorkStatus(_index);\n        workExperience_.remarks = getWorkExperienceRemarks(_index);\n        workExperience_.supplierRating = SupplierRating(getWorkExperienceSupplierRating(_index));\n        workExperience_.workExperienceFileHash = getWorkExperienceWorkExperienceFileHash(_index);\n        workExperience_.egpSystemId = getWorkExperienceEgpSystemId(_index);\n        workExperience_.procuringEntityGid = getWorkExperienceProcuringEntityGid(_index);\n        workExperience_.procuringEntityName = getWorkExperienceProcuringEntityName(_index);\n        workExperience_.procuringEntityRepresentativeName = getWorkExperienceProcuringEntityRepresentativeName(_index);\n        workExperience_.procuringEntityRepresentativeDesignation = getWorkExperienceProcuringEntityRepresentativeDesignation(_index);\n        workExperience_.subject = getWorkExperienceSubject(_index);\n        workExperience_.awardOfContractId = getWorkExperienceAwardOfContractId(_index);\n        workExperience_.version = getWorkExperienceVersion(_index);\n    }\n\n    function getAllWorkExperience(uint _toExcluded, uint _count) public view \n    returns (WorkExperience[] memory _workExperience, uint fromIncluded_, uint length_) {\n        uint length = getWorkExperienceListLength();\n        if (_toExcluded > length) {\n            _toExcluded = length;\n        }\n        uint itr = _count>_toExcluded ? _toExcluded:_count;\n        _workExperience = new WorkExperience[](itr);\n        while (itr>0) {\n            itr--;\n            _toExcluded--;\n            _workExperience[_workExperience.length-itr-1] = getWorkExperienceByIndex(_toExcluded);\n        }\n        fromIncluded_ = _toExcluded;\n        length_ = length;\n    }\n\n    function getWorkExperienceUid(uint256 _index) public view \n    validWorkExperienceListIndex(_index) \n    returns(bytes8) {\n        return List.getPropBytes8(KEY, workExperienceList, _index, propKeyUid);\n    }\n\n    function getWorkExperienceAwardReference(uint256 _index) public view \n    validWorkExperienceListIndex(_index) \n    returns(string memory) {\n        return List.getPropString(KEY, workExperienceList, _index, propKeyAwardReference);\n    }\n\n    function getWorkExperienceWorkExperienceCertificateIssuanceDate(uint256 _index) public view \n    validWorkExperienceListIndex(_index) \n    returns(uint) {\n        return List.getPropUint(KEY, workExperienceList, _index, propKeyWorkExperienceCertificateIssuanceDate);\n    }\n\n    function getWorkExperienceContractCompletedValue(uint256 _index) public view \n    validWorkExperienceListIndex(_index) \n    returns(string memory) {\n        return List.getPropString(KEY, workExperienceList, _index, propKeyContractCompletedValue);\n    }\n\n    function getWorkExperienceWorkStatus(uint256 _index) public view \n    validWorkExperienceListIndex(_index) \n    returns(WorkStatus) {\n        return WorkStatus(List.getPropUint8(KEY, workExperienceList, _index, propKeyWorkStatus));\n    }\n\n    function getWorkExperienceRemarks(uint256 _index) public view \n    validWorkExperienceListIndex(_index) \n    returns(string memory) {\n        return List.getPropString(KEY, workExperienceList, _index, propKeyRemarks);\n    }\n\n    function getWorkExperienceSupplierRating(uint256 _index) public view \n    validWorkExperienceListIndex(_index) \n    returns(uint8) {\n        return List.getPropUint8(KEY, workExperienceList, _index, propKeySupplierRating);\n    }\n\n    function getWorkExperienceWorkExperienceFileHash(uint256 _index) public view \n    validWorkExperienceListIndex(_index) \n    returns(string memory) {\n        return List.getPropString(KEY, workExperienceList, _index, propKeyWorkExperienceFileHash);\n    }\n\n    function getWorkExperienceEgpSystemId(uint256 _index) public view \n    validWorkExperienceListIndex(_index) \n    returns(string memory) {\n        return List.getPropString(KEY, workExperienceList, _index, propKeyWorkExperienceEgpSystemId);\n    }\n\n    function getWorkExperienceProcuringEntityGid(uint256 _index) public view \n    validWorkExperienceListIndex(_index) \n    returns(string memory) {\n        return List.getPropString(KEY, workExperienceList, _index, propKeyProcuringEntityGid);\n    }\n\n    function getWorkExperienceProcuringEntityName(uint256 _index) public view \n    validWorkExperienceListIndex(_index) \n    returns(string memory) {\n        return List.getPropString(KEY, workExperienceList, _index, propKeyProcuringEntityName);\n    }\n\n    function getWorkExperienceProcuringEntityRepresentativeName(uint256 _index) public view \n    validWorkExperienceListIndex(_index) \n    returns(string memory) {\n        return List.getPropString(KEY, workExperienceList, _index, propKeyProcuringEntityRepresentativeName);\n    }\n\n    function getWorkExperienceProcuringEntityRepresentativeDesignation(uint256 _index) public view \n    validWorkExperienceListIndex(_index) \n    returns(string memory) {\n        return List.getPropString(KEY, workExperienceList, _index, propKeyProcuringEntityRepresentativeDesignation);\n    }\n\n    function getWorkExperienceSubject(uint256 _index) public view \n    validWorkExperienceListIndex(_index) \n    returns(string memory) {\n        return List.getPropString(KEY, workExperienceList, _index, propKeySubject);\n    }\n\n    function getWorkExperienceAwardOfContractId(uint256 _index) public view \n    validWorkExperienceListIndex(_index) \n    returns(bytes8) {\n        return List.getPropBytes8(KEY, workExperienceList, _index, propKeyAwardOfContractId);\n    }\n\n    function getWorkExperienceVersion(uint256 _index) public view \n    validWorkExperienceListIndex(_index) \n    returns(uint16) {\n        return List.getPropUint16(KEY, workExperienceList, _index, propKeyVersion);\n    }\n\n    function getWorkExperienceIndex(bytes8 _uid) public view returns (uint256) {\n        return Map.getBytes8ToUint(KEY, workExperienceIndex, _uid);\n    }\n\n    \n    /** @dev Listing out the Work Experiences against the Aoc Id.\n      * @param _aocId unique id value of Aoc.\n      * @param _toExcluded The length till where the uint indexes has to be fetched.\n      * @param _count The number of indexes that has to be fetched. \n      * @return _aocWorkExperiences List of Work Experiences against the Aoc Id.\n      * @return fromIncluded_ _toExcluded - _count.\n      * @return length_ The length of the index present for the banks GID.\n      */\n    function getAocWorkExperienceIndices(bytes8 _aocId, uint _toExcluded, uint _count) public view returns(uint[] memory _aocWorkExperiences, uint fromIncluded_, uint length_) {\n        uint length = Map.getByKeyBytes8ToUint(KEY, aocWorkExps, _aocId, abi.encodePacked(propLength));\n        if (_toExcluded > length) {\n            _toExcluded = length;\n        }\n        uint itr = _count>_toExcluded ? _toExcluded:_count;\n        _aocWorkExperiences = new uint[](itr);\n        while (itr>0) {\n            itr--;\n            _toExcluded--;\n            _aocWorkExperiences[_aocWorkExperiences.length-itr-1] = Map.getByKeyBytes8ToUint(KEY, aocWorkExps, _aocId, abi.encodePacked(_toExcluded));\n        }\n        fromIncluded_ = _toExcluded;\n        length_ = length;\n    }\n\n    \n    /** @dev Listing out the Work Experiences against the PE GID.\n      * @param _peGid unique id value of PE.\n      * @param _toExcluded The length till where the uint indexes has to be fetched.\n      * @param _count The number of indexes that has to be fetched. \n      * @return _peWorkExperiences List of Work Experiences against the PE GID.\n      * @return fromIncluded_ _toExcluded - _count.\n      * @return length_ The length of the index present for the PE GID.\n      */\n    function getPEWorkExperienceIndices(string memory _peGid, uint _toExcluded, uint _count) public view returns(uint[] memory _peWorkExperiences, uint fromIncluded_, uint length_) {\n        uint length = Map.getByKeyStringToUint(KEY, peWorkExps, _peGid, abi.encodePacked(propLength));\n        if (_toExcluded > length) {\n            _toExcluded = length;\n        }\n        uint itr = _count>_toExcluded ? _toExcluded:_count;\n        _peWorkExperiences = new uint[](itr);\n        while (itr>0) {\n            itr--;\n            _toExcluded--;\n            _peWorkExperiences[_peWorkExperiences.length-itr-1] = Map.getByKeyStringToUint(KEY, peWorkExps, _peGid, abi.encodePacked(_toExcluded));\n        }\n        fromIncluded_ = _toExcluded;\n        length_ = length;\n    }\n\n\n    /** @dev Listing out the Work Experiences against the EgpSystem Id.\n      * @param _egpSystemId e-GP system Id registered with the network.\n      * @param _toExcluded The length till where the uint indexes has to be fetched.\n      * @param _count The number of indexes that has to be fetched. \n      * @return _orgIDWorkExperiences List of Work Experiences against the EgpSystem Id.\n      * @return fromIncluded_ _toExcluded - _count.\n      * @return length_ The length of the index present for the EgpSystem Id.\n      */\n    function getWeIndicesByOrgId(string memory _egpSystemId, uint _toExcluded, uint _count) public view returns(uint[] memory _orgIDWorkExperiences, uint fromIncluded_, uint length_)  {\n        uint length = Map.getByKeyStringToUint(KEY, orgIDWorkExps, _egpSystemId, abi.encodePacked(propLength));\n        if (_toExcluded > length) {\n            _toExcluded = length;\n        }\n        uint itr = _count>_toExcluded ? _toExcluded:_count;\n        _orgIDWorkExperiences = new uint[](itr);\n        while (itr>0) {\n            itr--;\n            _toExcluded--;\n            _orgIDWorkExperiences[_orgIDWorkExperiences.length-itr-1] = Map.getByKeyStringToUint(KEY, orgIDWorkExps, _egpSystemId, abi.encodePacked(_toExcluded));\n        }\n        fromIncluded_ = _toExcluded;\n        length_ = length;\n    }\n\n    \n    /** @dev Listing out the Work Experiences against the Tender Reference and EgpSystem Id.\n      * @param _workExperienceTenderRefOrgId Tender reference and e-GP system Id registered with the network.\n      * @param _toExcluded The length till where the uint indexes has to be fetched.\n      * @param _count The number of indexes that has to be fetched. \n      * @return _workExperiencebyTenderRefAndOrgId List of Work Experiences against the Tender Reference and EgpSystem Id.\n      * @return fromIncluded_ _toExcluded - _count.\n      * @return length_ The length of the index present for the Tender Reference and EgpSystem Id.\n      */\n    function getWorkExperiencebyTenderRefAndOrgId(bytes8 _workExperienceTenderRefOrgId, uint _toExcluded, uint _count) public view returns(uint[] memory _workExperiencebyTenderRefAndOrgId, uint fromIncluded_, uint length_)  {\n        //bytes8 _workExperienceTenderRefOrgId = bytes8(keccak256(abi.encodePacked(_getTenderRef, _getEgpSystemId)));\n        uint length = Map.getByKeyBytes8ToUint(KEY, workExperiencebyTenderRefAndOrgId, _workExperienceTenderRefOrgId, abi.encodePacked(propLength));\n        if (_toExcluded > length) {\n            _toExcluded = length;\n        }\n        uint itr = _count>_toExcluded ? _toExcluded:_count;\n        _workExperiencebyTenderRefAndOrgId = new uint[](itr);\n        while (itr>0) {\n            itr--;\n            _toExcluded--;\n            _workExperiencebyTenderRefAndOrgId[_workExperiencebyTenderRefAndOrgId.length-itr-1] = Map.getByKeyBytes8ToUint(KEY, workExperiencebyTenderRefAndOrgId, _workExperienceTenderRefOrgId, abi.encodePacked(_toExcluded));\n        }\n        fromIncluded_ = _toExcluded;\n        length_ = length;\n    }\n\n    \n    /** @dev Listing out the Work Experiences against the Vendor Gid and EgpSystem Id.\n      * @param _workExperienceVendorOrgId GID of the vendor and e-GP system Id registered with the network.\n      * @param _toExcluded The length till where the uint indexes has to be fetched.\n      * @param _count The number of indexes that has to be fetched. \n      * @return _workExperiencebyVendorAndOrgId List of Work Experiences against the Vendor Gid and EgpSystem Id.\n      * @return fromIncluded_ _toExcluded - _count.\n      * @return length_ The length of the index present for the Vendor Gid and EgpSystem Id.\n      */\n    function getWorkExperiencebyVendorAndOrgId(bytes8 _workExperienceVendorOrgId, uint _toExcluded, uint _count) public view returns(uint[] memory _workExperiencebyVendorAndOrgId, uint fromIncluded_, uint length_)  {\n        //bytes8 _workExperienceVendorOrgId = bytes8(keccak256(abi.encodePacked(_vendorGid, _getEgpSystemId)));\n        uint length = Map.getByKeyBytes8ToUint(KEY, workExperiencebyVendorAndOrgId, _workExperienceVendorOrgId, abi.encodePacked(propLength));\n        if (_toExcluded > length) {\n            _toExcluded = length;\n        }\n        uint itr = _count>_toExcluded ? _toExcluded:_count;\n        _workExperiencebyVendorAndOrgId = new uint[](itr);\n        while (itr>0) {\n            itr--;\n            _toExcluded--;\n            _workExperiencebyVendorAndOrgId[_workExperiencebyVendorAndOrgId.length-itr-1] = Map.getByKeyBytes8ToUint(KEY, workExperiencebyVendorAndOrgId, _workExperienceVendorOrgId, abi.encodePacked(_toExcluded));\n        }\n        fromIncluded_ = _toExcluded;\n        length_ = length;\n    }\n\n    \n    /** @dev Listing out the Work Experiences against the PE GID and Vendor Gid.\n      * @param _workExperiencePEVendorGid GID assigned to Procuring Entity and GID of the vendor.\n      * @param _toExcluded The length till where the uint indexes has to be fetched.\n      * @param _count The number of indexes that has to be fetched. \n      * @return _workExperiencebyPEAndVendorGid List of Work Experiences against the PE GID and Vendor Gid.\n      * @return fromIncluded_ _toExcluded - _count.\n      * @return length_ The length of the index present for the  PE GID and Vendor Gid.\n      */\n    function getWorkExperiencebyPEAndVendorGid(bytes8 _workExperiencePEVendorGid, uint _toExcluded, uint _count) public view returns(uint[] memory _workExperiencebyPEAndVendorGid, uint fromIncluded_, uint length_)  {\n        //bytes8 _workExperiencePEVendorGid = bytes8(keccak256(abi.encodePacked(_procuringEntityGid, _vendorGid)));\n        uint length = Map.getByKeyBytes8ToUint(KEY, workExperiencebyPEAndVendorGid, _workExperiencePEVendorGid, abi.encodePacked(propLength));\n        if (_toExcluded > length) {\n            _toExcluded = length;\n        }\n        uint itr = _count>_toExcluded ? _toExcluded:_count;\n        _workExperiencebyPEAndVendorGid = new uint[](itr);\n        while (itr>0) {\n            itr--;\n            _toExcluded--;\n            _workExperiencebyPEAndVendorGid[_workExperiencebyPEAndVendorGid.length-itr-1] = Map.getByKeyBytes8ToUint(KEY, workExperiencebyPEAndVendorGid, _workExperiencePEVendorGid, abi.encodePacked(_toExcluded));\n        }\n        fromIncluded_ = _toExcluded;\n        length_ = length;\n    }\n\n    \n\n\n    // ------------- SETTERS ------------- //\n\n    function setWorkExperienceIndex(bytes8 _uid, uint _value) public \n    onlyWorkExManager {\n        Map.setBytes8ToUint(KEY, workExperienceIndex, _uid, _value);\n    }\n\n    function incWorkExperienceListLength() public \n    onlyWorkExManager {\n        List.incLength(KEY, workExperienceList);\n    }\n\n    function setWorkExperienceUid(uint256 _index, bytes8 _value) public \n    onlyWorkExManager {\n        List.setPropBytes8(KEY, workExperienceList, _index, propKeyUid, _value);\n    }\n\n    function setWorkExperienceAwardReference(uint256 _index, string memory _value) public \n    onlyWorkExManager {\n        List.setPropString(KEY, workExperienceList, _index, propKeyAwardReference, _value);\n    }\n\n    function setWorkExperienceWorkExperienceCertificateIssuanceDate(uint256 _index, uint _value) public \n    onlyWorkExManager {\n        List.setPropUint(KEY, workExperienceList, _index, propKeyWorkExperienceCertificateIssuanceDate, _value);\n    }\n\n    function setWorkExperienceContractCompletedValue(uint256 _index, string memory _value) public \n    onlyWorkExManager {\n        List.setPropString(KEY, workExperienceList, _index, propKeyContractCompletedValue, _value);\n    }\n\n    function setWorkExperienceWorkStatus(uint256 _index, WorkStatus _value) public \n    onlyWorkExManager {\n        List.setPropUint8(KEY, workExperienceList, _index, propKeyWorkStatus, uint8(_value));\n    }\n\n    function setWorkExperienceRemarks(uint256 _index, string memory _value) public \n    onlyWorkExManager {\n        List.setPropString(KEY, workExperienceList, _index, propKeyRemarks, _value);\n    }\n\n    function setWorkExperienceSupplierRating(uint256 _index, uint8 _value) public \n    onlyWorkExManager {\n        List.setPropUint8(KEY, workExperienceList, _index, propKeySupplierRating, _value);\n    }\n\n    function setWorkExperienceWorkExperienceFileHash(uint256 _index, string memory _value) public \n    onlyWorkExManager {\n        List.setPropString(KEY, workExperienceList, _index, propKeyWorkExperienceFileHash, _value);\n    }\n\n    function setWorkExperienceEgpSystemId(uint256 _index, string memory _value) public \n    onlyWorkExManager {\n        List.setPropString(KEY, workExperienceList, _index, propKeyWorkExperienceEgpSystemId, _value);\n    }\n\n    function setWorkExperienceProcuringEntityGid(uint256 _index, string memory _value) public \n    onlyWorkExManager {\n        List.setPropString(KEY, workExperienceList, _index, propKeyProcuringEntityGid, _value);\n    }\n\n\n    function setWorkExperienceProcuringEntityName(uint256 _index, string memory _value) public \n    onlyWorkExManager {\n        List.setPropString(KEY, workExperienceList, _index, propKeyProcuringEntityName, _value);\n    }\n\n    function setWorkExperienceProcuringEntityRepresentativeName(uint256 _index, string memory _value) public \n    onlyWorkExManager {\n        List.setPropString(KEY, workExperienceList, _index, propKeyProcuringEntityRepresentativeName, _value);\n    }\n\n    function setWorkExperienceProcuringEntityRepresentativeDesignation(uint256 _index, string memory _value) public \n    onlyWorkExManager {\n        List.setPropString(KEY, workExperienceList, _index, propKeyProcuringEntityRepresentativeDesignation, _value);\n    }\n\n    function setWorkExperienceSubject(uint256 _index, string memory _value) public \n    onlyWorkExManager {\n        List.setPropString(KEY, workExperienceList, _index, propKeySubject, _value);\n    }\n\n    function setWorkExperienceAwardOfContractId(uint256 _index, bytes8 _value) public \n    onlyWorkExManager {\n        List.setPropBytes8(KEY, workExperienceList, _index, propKeyAwardOfContractId, _value);\n    }\n\n    function setWorkExperienceVersion(uint256 _index) public \n    onlyWorkExManager {\n        List.setPropUint16(KEY, workExperienceList, _index, propKeyVersion, __VERSION__);\n    }\n\n    function pushWorkExperience(WorkExperience memory _workExperience) public \n    onlyWorkExManager \n    {\n        uint index = getWorkExperienceListLength();\n        incWorkExperienceListLength();\n        setWorkExperienceUid(index,_workExperience.uid);\n        setWorkExperienceAwardReference(index,_workExperience.awardReference);\n        setWorkExperienceWorkExperienceCertificateIssuanceDate(index,_workExperience.workExperienceCertificateIssuanceDate);\n        setWorkExperienceContractCompletedValue(index,_workExperience.contractCompletedValue);\n        setWorkExperienceWorkStatus(index,_workExperience.workStatus);\n        setWorkExperienceRemarks(index,_workExperience.remarks);\n        setWorkExperienceSupplierRating(index,uint8(_workExperience.supplierRating));\n        setWorkExperienceWorkExperienceFileHash(index,_workExperience.workExperienceFileHash);\n        setWorkExperienceEgpSystemId(index, _workExperience.egpSystemId);\n        setWorkExperienceProcuringEntityGid(index, _workExperience.procuringEntityGid);\n        setWorkExperienceProcuringEntityName(index, _workExperience.procuringEntityName);\n        setWorkExperienceProcuringEntityRepresentativeName(index, _workExperience.procuringEntityRepresentativeName);\n        setWorkExperienceProcuringEntityRepresentativeDesignation(index, _workExperience.procuringEntityRepresentativeDesignation);\n        setWorkExperienceSubject(index, _workExperience.subject);\n        setWorkExperienceAwardOfContractId(index,_workExperience.awardOfContractId);   \n        setWorkExperienceVersion(index);\n    }\n\n    \n    /** @dev Setting the Work Experiences against the Aoc Id, Setting the Work Experiences against the PE GID, Setting the Work Experiences against the EgpSystem Id,  Setting the Work Experiences against the Tender Reference and EgpSystem Id, Setting the Work Experiences against the Vendor Gid and EgpSystem Id, Setting the Work Experiences against the PE GID and Vendor Gid.\n      * @param _workExperience Work Experience details.\n      * @param _value Index of Work Experience.\n      * @param _getTenderRef Tender Reference Number. \n      * @param _vendorGid Unique GId for Vendor.\n      */\n    function addAocWorkExperienceIndex(WorkExperience memory _workExperience, uint _value, string memory _getTenderRef, string memory _vendorGid) public \n    onlyWorkExManager\n    {\n        // set function for list of WE against the aocID.\n        uint length = Map.getByKeyBytes8ToUint(KEY, aocWorkExps, _workExperience.awardOfContractId, abi.encodePacked(propLength));\n        Map.setByKeyBytes8ToUint(KEY, aocWorkExps, _workExperience.awardOfContractId, abi.encodePacked(propLength), 1+length);\n        Map.setByKeyBytes8ToUint(KEY, aocWorkExps, _workExperience.awardOfContractId, abi.encodePacked(length), _value);\n        \n        // set function for list of WE against the procuringEntityGid.\n        length = Map.getByKeyStringToUint(KEY, peWorkExps, _workExperience.procuringEntityGid, abi.encodePacked(propLength));\n        Map.setByKeyStringToUint(KEY, peWorkExps, _workExperience.procuringEntityGid, abi.encodePacked(propLength), 1+length);\n        Map.setByKeyStringToUint(KEY, peWorkExps, _workExperience.procuringEntityGid, abi.encodePacked(length), _value);\n        \n        // set function for list of WE against the egpSystemId.\n        length = Map.getByKeyStringToUint(KEY, orgIDWorkExps, _workExperience.egpSystemId, abi.encodePacked(propLength));\n        Map.setByKeyStringToUint(KEY, orgIDWorkExps, _workExperience.egpSystemId, abi.encodePacked(propLength), 1+length);\n        Map.setByKeyStringToUint(KEY, orgIDWorkExps, _workExperience.egpSystemId, abi.encodePacked(length), _value);\n\n        //set WorkExperiencebyTenderRefAndOrgId\n        bytes8 _workExperienceTenderRefOrgId = bytes8(keccak256(abi.encodePacked(_getTenderRef, _workExperience.egpSystemId)));\n        length = Map.getByKeyBytes8ToUint(KEY, workExperiencebyTenderRefAndOrgId, _workExperienceTenderRefOrgId, abi.encodePacked(propLength));\n        Map.setByKeyBytes8ToUint(KEY, workExperiencebyTenderRefAndOrgId, _workExperienceTenderRefOrgId, abi.encodePacked(propLength), 1+length);\n        Map.setByKeyBytes8ToUint(KEY, workExperiencebyTenderRefAndOrgId, _workExperienceTenderRefOrgId, abi.encodePacked(length), _value);\n\n        //set WorkExperiencebyVendorAndOrgId\n        bytes8 _workExperienceVendorOrgId = bytes8(keccak256(abi.encodePacked(_vendorGid, _workExperience.egpSystemId)));\n        length = Map.getByKeyBytes8ToUint(KEY, workExperiencebyVendorAndOrgId, _workExperienceVendorOrgId, abi.encodePacked(propLength));\n        Map.setByKeyBytes8ToUint(KEY, workExperiencebyVendorAndOrgId, _workExperienceVendorOrgId, abi.encodePacked(propLength), 1+length);\n        Map.setByKeyBytes8ToUint(KEY, workExperiencebyVendorAndOrgId, _workExperienceVendorOrgId, abi.encodePacked(length), _value);\n\n        //set WorkExperiencebyPEAndVendorGid\n        bytes8 _workExperiencePEVendorGid = bytes8(keccak256(abi.encodePacked(_workExperience.procuringEntityGid, _vendorGid)));\n        length = Map.getByKeyBytes8ToUint(KEY, workExperiencebyPEAndVendorGid, _workExperiencePEVendorGid, abi.encodePacked(propLength));\n        Map.setByKeyBytes8ToUint(KEY, workExperiencebyPEAndVendorGid, _workExperiencePEVendorGid, abi.encodePacked(propLength), 1+length);\n        Map.setByKeyBytes8ToUint(KEY, workExperiencebyPEAndVendorGid, _workExperiencePEVendorGid, abi.encodePacked(length), _value);\n\n        \n    }\n    \n   \n}\n\n",
  "sourcePath": "/home/raghupathi/Desktop/javaClass/javaClass/contracts/WorkExperienceModel.sol",
  "compiler": {
    "name": "solc",
    "version": "0.8.20+commit.a1b79de6.Emscripten.clang"
  },
  "schemaVersion": "3.4.14",
  "updatedAt": "2023-06-02T09:43:22.697Z",
  "devdoc": {
    "kind": "dev",
    "methods": {
      "addAocWorkExperienceIndex((bytes8,string,uint256,string,uint8,string,uint8,string,string,string,string,string,string,string,bytes8,uint16),uint256,string,string)": {
        "details": "Setting the Work Experiences against the Aoc Id, Setting the Work Experiences against the PE GID, Setting the Work Experiences against the EgpSystem Id,  Setting the Work Experiences against the Tender Reference and EgpSystem Id, Setting the Work Experiences against the Vendor Gid and EgpSystem Id, Setting the Work Experiences against the PE GID and Vendor Gid.",
        "params": {
          "_getTenderRef": "Tender Reference Number. ",
          "_value": "Index of Work Experience.",
          "_vendorGid": "Unique GId for Vendor.",
          "_workExperience": "Work Experience details."
        }
      },
      "getAocWorkExperienceIndices(bytes8,uint256,uint256)": {
        "details": "Listing out the Work Experiences against the Aoc Id.",
        "params": {
          "_aocId": "unique id value of Aoc.",
          "_count": "The number of indexes that has to be fetched. ",
          "_toExcluded": "The length till where the uint indexes has to be fetched."
        },
        "returns": {
          "_aocWorkExperiences": "List of Work Experiences against the Aoc Id.",
          "fromIncluded_": "_toExcluded - _count.",
          "length_": "The length of the index present for the banks GID."
        }
      },
      "getPEWorkExperienceIndices(string,uint256,uint256)": {
        "details": "Listing out the Work Experiences against the PE GID.",
        "params": {
          "_count": "The number of indexes that has to be fetched. ",
          "_peGid": "unique id value of PE.",
          "_toExcluded": "The length till where the uint indexes has to be fetched."
        },
        "returns": {
          "_peWorkExperiences": "List of Work Experiences against the PE GID.",
          "fromIncluded_": "_toExcluded - _count.",
          "length_": "The length of the index present for the PE GID."
        }
      },
      "getWeIndicesByOrgId(string,uint256,uint256)": {
        "details": "Listing out the Work Experiences against the EgpSystem Id.",
        "params": {
          "_count": "The number of indexes that has to be fetched. ",
          "_egpSystemId": "e-GP system Id registered with the network.",
          "_toExcluded": "The length till where the uint indexes has to be fetched."
        },
        "returns": {
          "_orgIDWorkExperiences": "List of Work Experiences against the EgpSystem Id.",
          "fromIncluded_": "_toExcluded - _count.",
          "length_": "The length of the index present for the EgpSystem Id."
        }
      },
      "getWorkExperiencebyPEAndVendorGid(bytes8,uint256,uint256)": {
        "details": "Listing out the Work Experiences against the PE GID and Vendor Gid.",
        "params": {
          "_count": "The number of indexes that has to be fetched. ",
          "_toExcluded": "The length till where the uint indexes has to be fetched.",
          "_workExperiencePEVendorGid": "GID assigned to Procuring Entity and GID of the vendor."
        },
        "returns": {
          "_workExperiencebyPEAndVendorGid": "List of Work Experiences against the PE GID and Vendor Gid.",
          "fromIncluded_": "_toExcluded - _count.",
          "length_": "The length of the index present for the  PE GID and Vendor Gid."
        }
      },
      "getWorkExperiencebyTenderRefAndOrgId(bytes8,uint256,uint256)": {
        "details": "Listing out the Work Experiences against the Tender Reference and EgpSystem Id.",
        "params": {
          "_count": "The number of indexes that has to be fetched. ",
          "_toExcluded": "The length till where the uint indexes has to be fetched.",
          "_workExperienceTenderRefOrgId": "Tender reference and e-GP system Id registered with the network."
        },
        "returns": {
          "_workExperiencebyTenderRefAndOrgId": "List of Work Experiences against the Tender Reference and EgpSystem Id.",
          "fromIncluded_": "_toExcluded - _count.",
          "length_": "The length of the index present for the Tender Reference and EgpSystem Id."
        }
      },
      "getWorkExperiencebyVendorAndOrgId(bytes8,uint256,uint256)": {
        "details": "Listing out the Work Experiences against the Vendor Gid and EgpSystem Id.",
        "params": {
          "_count": "The number of indexes that has to be fetched. ",
          "_toExcluded": "The length till where the uint indexes has to be fetched.",
          "_workExperienceVendorOrgId": "GID of the vendor and e-GP system Id registered with the network."
        },
        "returns": {
          "_workExperiencebyVendorAndOrgId": "List of Work Experiences against the Vendor Gid and EgpSystem Id.",
          "fromIncluded_": "_toExcluded - _count.",
          "length_": "The length of the index present for the Vendor Gid and EgpSystem Id."
        }
      }
    },
    "version": 1
  },
  "userdoc": {
    "kind": "user",
    "methods": {},
    "version": 1
  }
}